{
  "abi": [
    {
      "inputs": [],
      "stateMutability": "nonpayable",
      "type": "constructor"
    },
    {
      "anonymous": false,
      "inputs": [
        {
          "indexed": false,
          "internalType": "string",
          "name": "func",
          "type": "string"
        },
        {
          "indexed": false,
          "internalType": "bytes",
          "name": "args",
          "type": "bytes"
        },
        {
          "indexed": false,
          "internalType": "address",
          "name": "by",
          "type": "address"
        }
      ],
      "name": "ActionTaken",
      "type": "event"
    },
    {
      "anonymous": false,
      "inputs": [
        {
          "indexed": false,
          "internalType": "address",
          "name": "tokenAddress",
          "type": "address"
        },
        {
          "indexed": false,
          "internalType": "uint256",
          "name": "value",
          "type": "uint256"
        },
        {
          "indexed": false,
          "internalType": "address",
          "name": "by",
          "type": "address"
        }
      ],
      "name": "LiquidClaimed",
      "type": "event"
    },
    {
      "anonymous": false,
      "inputs": [
        {
          "indexed": false,
          "internalType": "bytes32",
          "name": "shard",
          "type": "bytes32"
        },
        {
          "indexed": false,
          "internalType": "address",
          "name": "owner",
          "type": "address"
        },
        {
          "indexed": false,
          "internalType": "uint256",
          "name": "creationClock",
          "type": "uint256"
        }
      ],
      "name": "NewShard",
      "type": "event"
    },
    {
      "anonymous": false,
      "inputs": [
        {
          "indexed": false,
          "internalType": "bytes32",
          "name": "shard",
          "type": "bytes32"
        },
        {
          "indexed": false,
          "internalType": "uint256",
          "name": "numerator",
          "type": "uint256"
        },
        {
          "indexed": false,
          "internalType": "uint256",
          "name": "denominator",
          "type": "uint256"
        },
        {
          "indexed": false,
          "internalType": "address",
          "name": "tokenAddress",
          "type": "address"
        },
        {
          "indexed": false,
          "internalType": "uint256",
          "name": "price",
          "type": "uint256"
        },
        {
          "indexed": false,
          "internalType": "address",
          "name": "to",
          "type": "address"
        }
      ],
      "name": "PutForSale",
      "type": "event"
    },
    {
      "anonymous": false,
      "inputs": [
        {
          "indexed": false,
          "internalType": "bytes32",
          "name": "shard",
          "type": "bytes32"
        },
        {
          "indexed": false,
          "internalType": "uint256",
          "name": "numerator",
          "type": "uint256"
        },
        {
          "indexed": false,
          "internalType": "uint256",
          "name": "denominator",
          "type": "uint256"
        },
        {
          "indexed": false,
          "internalType": "address",
          "name": "to",
          "type": "address"
        },
        {
          "indexed": false,
          "internalType": "address",
          "name": "tokenAddress",
          "type": "address"
        },
        {
          "indexed": false,
          "internalType": "uint256",
          "name": "price",
          "type": "uint256"
        }
      ],
      "name": "SaleSold",
      "type": "event"
    },
    {
      "anonymous": false,
      "inputs": [
        {
          "indexed": false,
          "internalType": "address",
          "name": "tokenAddress",
          "type": "address"
        },
        {
          "indexed": false,
          "internalType": "uint256",
          "name": "value",
          "type": "uint256"
        },
        {
          "indexed": false,
          "internalType": "address",
          "name": "from",
          "type": "address"
        }
      ],
      "name": "TokenReceived",
      "type": "event"
    },
    {
      "inputs": [
        {
          "internalType": "address",
          "name": "tokenAddress",
          "type": "address"
        }
      ],
      "name": "acceptsToken",
      "outputs": [
        {
          "internalType": "bool",
          "name": "",
          "type": "bool"
        }
      ],
      "stateMutability": "view",
      "type": "function"
    },
    {
      "inputs": [],
      "name": "active",
      "outputs": [
        {
          "internalType": "bool",
          "name": "",
          "type": "bool"
        }
      ],
      "stateMutability": "view",
      "type": "function"
    },
    {
      "inputs": [
        {
          "internalType": "string",
          "name": "bankName",
          "type": "string"
        },
        {
          "internalType": "address",
          "name": "bankAdmin",
          "type": "address"
        }
      ],
      "name": "addBankAdmin",
      "outputs": [],
      "stateMutability": "nonpayable",
      "type": "function"
    },
    {
      "inputs": [
        {
          "internalType": "string",
          "name": "bankName",
          "type": "string"
        }
      ],
      "name": "bankExists",
      "outputs": [
        {
          "internalType": "bool",
          "name": "",
          "type": "bool"
        }
      ],
      "stateMutability": "view",
      "type": "function"
    },
    {
      "inputs": [
        {
          "internalType": "string",
          "name": "bankName",
          "type": "string"
        }
      ],
      "name": "bankIsEmpty",
      "outputs": [
        {
          "internalType": "bool",
          "name": "",
          "type": "bool"
        }
      ],
      "stateMutability": "view",
      "type": "function"
    },
    {
      "inputs": [
        {
          "internalType": "bytes32",
          "name": "shard",
          "type": "bytes32"
        }
      ],
      "name": "cancelSale",
      "outputs": [],
      "stateMutability": "nonpayable",
      "type": "function"
    },
    {
      "inputs": [
        {
          "internalType": "bytes32",
          "name": "shard",
          "type": "bytes32"
        },
        {
          "internalType": "uint256",
          "name": "dividend",
          "type": "uint256"
        }
      ],
      "name": "claimDividend",
      "outputs": [],
      "stateMutability": "nonpayable",
      "type": "function"
    },
    {
      "inputs": [
        {
          "internalType": "address",
          "name": "tokenAddress",
          "type": "address"
        }
      ],
      "name": "claimLiquid",
      "outputs": [],
      "stateMutability": "nonpayable",
      "type": "function"
    },
    {
      "inputs": [
        {
          "internalType": "string",
          "name": "bankName",
          "type": "string"
        },
        {
          "internalType": "address",
          "name": "bankAdmin",
          "type": "address"
        }
      ],
      "name": "createBank",
      "outputs": [],
      "stateMutability": "nonpayable",
      "type": "function"
    },
    {
      "inputs": [
        {
          "internalType": "string",
          "name": "bankName",
          "type": "string"
        }
      ],
      "name": "deleteBank",
      "outputs": [],
      "stateMutability": "nonpayable",
      "type": "function"
    },
    {
      "inputs": [
        {
          "internalType": "uint256",
          "name": "dividend",
          "type": "uint256"
        }
      ],
      "name": "dissolveDividend",
      "outputs": [],
      "stateMutability": "nonpayable",
      "type": "function"
    },
    {
      "inputs": [
        {
          "internalType": "uint256",
          "name": "dividend",
          "type": "uint256"
        }
      ],
      "name": "dividendExists",
      "outputs": [
        {
          "internalType": "bool",
          "name": "",
          "type": "bool"
        }
      ],
      "stateMutability": "view",
      "type": "function"
    },
    {
      "inputs": [
        {
          "internalType": "string",
          "name": "bankName",
          "type": "string"
        },
        {
          "internalType": "address",
          "name": "tokenAddress",
          "type": "address"
        }
      ],
      "name": "getBankBalance",
      "outputs": [
        {
          "internalType": "uint256",
          "name": "",
          "type": "uint256"
        }
      ],
      "stateMutability": "view",
      "type": "function"
    },
    {
      "inputs": [
        {
          "internalType": "uint256",
          "name": "dividend",
          "type": "uint256"
        }
      ],
      "name": "getDividendResidual",
      "outputs": [
        {
          "internalType": "uint256",
          "name": "",
          "type": "uint256"
        }
      ],
      "stateMutability": "view",
      "type": "function"
    },
    {
      "inputs": [
        {
          "internalType": "uint256",
          "name": "dividend",
          "type": "uint256"
        }
      ],
      "name": "getDividendToken",
      "outputs": [
        {
          "internalType": "address",
          "name": "",
          "type": "address"
        }
      ],
      "stateMutability": "view",
      "type": "function"
    },
    {
      "inputs": [
        {
          "internalType": "uint256",
          "name": "dividend",
          "type": "uint256"
        }
      ],
      "name": "getDividendValue",
      "outputs": [
        {
          "internalType": "uint256",
          "name": "",
          "type": "uint256"
        }
      ],
      "stateMutability": "view",
      "type": "function"
    },
    {
      "inputs": [
        {
          "internalType": "address",
          "name": "tokenAddress",
          "type": "address"
        }
      ],
      "name": "getLiquidResidual",
      "outputs": [
        {
          "internalType": "uint256",
          "name": "",
          "type": "uint256"
        }
      ],
      "stateMutability": "view",
      "type": "function"
    },
    {
      "inputs": [
        {
          "internalType": "bytes32",
          "name": "shard",
          "type": "bytes32"
        }
      ],
      "name": "getShardExpiredClock",
      "outputs": [
        {
          "internalType": "uint256",
          "name": "",
          "type": "uint256"
        }
      ],
      "stateMutability": "view",
      "type": "function"
    },
    {
      "inputs": [
        {
          "internalType": "bytes32",
          "name": "shard",
          "type": "bytes32"
        }
      ],
      "name": "getShardSalePrice",
      "outputs": [
        {
          "internalType": "uint256",
          "name": "",
          "type": "uint256"
        }
      ],
      "stateMutability": "view",
      "type": "function"
    },
    {
      "inputs": [
        {
          "internalType": "string",
          "name": "permitName",
          "type": "string"
        },
        {
          "internalType": "address",
          "name": "account",
          "type": "address"
        }
      ],
      "name": "hasPermit",
      "outputs": [
        {
          "internalType": "bool",
          "name": "",
          "type": "bool"
        }
      ],
      "stateMutability": "view",
      "type": "function"
    },
    {
      "inputs": [
        {
          "internalType": "bytes32",
          "name": "",
          "type": "bytes32"
        }
      ],
      "name": "infoByShard",
      "outputs": [
        {
          "internalType": "uint256",
          "name": "numerator",
          "type": "uint256"
        },
        {
          "internalType": "uint256",
          "name": "denominator",
          "type": "uint256"
        },
        {
          "internalType": "address",
          "name": "owner",
          "type": "address"
        },
        {
          "internalType": "uint256",
          "name": "creationClock",
          "type": "uint256"
        }
      ],
      "stateMutability": "view",
      "type": "function"
    },
    {
      "inputs": [
        {
          "internalType": "string",
          "name": "bankName",
          "type": "string"
        },
        {
          "internalType": "address",
          "name": "account",
          "type": "address"
        }
      ],
      "name": "isBankAdmin",
      "outputs": [
        {
          "internalType": "bool",
          "name": "",
          "type": "bool"
        }
      ],
      "stateMutability": "view",
      "type": "function"
    },
    {
      "inputs": [
        {
          "internalType": "string",
          "name": "permitName",
          "type": "string"
        },
        {
          "internalType": "address",
          "name": "account",
          "type": "address"
        }
      ],
      "name": "isPermitAdmin",
      "outputs": [
        {
          "internalType": "bool",
          "name": "",
          "type": "bool"
        }
      ],
      "stateMutability": "view",
      "type": "function"
    },
    {
      "inputs": [
        {
          "internalType": "address",
          "name": "account",
          "type": "address"
        }
      ],
      "name": "isShardHolder",
      "outputs": [
        {
          "internalType": "bool",
          "name": "",
          "type": "bool"
        }
      ],
      "stateMutability": "view",
      "type": "function"
    },
    {
      "inputs": [
        {
          "internalType": "bytes32",
          "name": "shard",
          "type": "bytes32"
        }
      ],
      "name": "isValidShard",
      "outputs": [
        {
          "internalType": "bool",
          "name": "",
          "type": "bool"
        }
      ],
      "stateMutability": "view",
      "type": "function"
    },
    {
      "inputs": [
        {
          "internalType": "string",
          "name": "bankName",
          "type": "string"
        },
        {
          "internalType": "address",
          "name": "tokenAddress",
          "type": "address"
        },
        {
          "internalType": "uint256",
          "name": "value",
          "type": "uint256"
        }
      ],
      "name": "issueDividend",
      "outputs": [],
      "stateMutability": "nonpayable",
      "type": "function"
    },
    {
      "inputs": [
        {
          "internalType": "address",
          "name": "",
          "type": "address"
        }
      ],
      "name": "liquid",
      "outputs": [
        {
          "internalType": "uint256",
          "name": "",
          "type": "uint256"
        }
      ],
      "stateMutability": "view",
      "type": "function"
    },
    {
      "inputs": [],
      "name": "liquidize",
      "outputs": [],
      "stateMutability": "nonpayable",
      "type": "function"
    },
    {
      "inputs": [
        {
          "internalType": "string",
          "name": "fromBankName",
          "type": "string"
        },
        {
          "internalType": "string",
          "name": "toBankName",
          "type": "string"
        },
        {
          "internalType": "address",
          "name": "tokenAddress",
          "type": "address"
        },
        {
          "internalType": "uint256",
          "name": "value",
          "type": "uint256"
        }
      ],
      "name": "moveToken",
      "outputs": [],
      "stateMutability": "nonpayable",
      "type": "function"
    },
    {
      "inputs": [
        {
          "internalType": "bytes32",
          "name": "shard",
          "type": "bytes32"
        }
      ],
      "name": "purchase",
      "outputs": [],
      "stateMutability": "payable",
      "type": "function"
    },
    {
      "inputs": [
        {
          "internalType": "bytes32",
          "name": "shard",
          "type": "bytes32"
        },
        {
          "internalType": "uint256",
          "name": "numerator",
          "type": "uint256"
        },
        {
          "internalType": "uint256",
          "name": "denominator",
          "type": "uint256"
        },
        {
          "internalType": "address",
          "name": "tokenAddress",
          "type": "address"
        },
        {
          "internalType": "uint256",
          "name": "price",
          "type": "uint256"
        },
        {
          "internalType": "address",
          "name": "to",
          "type": "address"
        }
      ],
      "name": "putForSale",
      "outputs": [],
      "stateMutability": "nonpayable",
      "type": "function"
    },
    {
      "inputs": [
        {
          "internalType": "address",
          "name": "tokenAddress",
          "type": "address"
        },
        {
          "internalType": "uint256",
          "name": "value",
          "type": "uint256"
        }
      ],
      "name": "receiveToken",
      "outputs": [],
      "stateMutability": "nonpayable",
      "type": "function"
    },
    {
      "inputs": [
        {
          "internalType": "address",
          "name": "tokenAddress",
          "type": "address"
        }
      ],
      "name": "registerTokenAddress",
      "outputs": [],
      "stateMutability": "nonpayable",
      "type": "function"
    },
    {
      "inputs": [
        {
          "internalType": "string",
          "name": "bankName",
          "type": "string"
        },
        {
          "internalType": "address",
          "name": "bankAdmin",
          "type": "address"
        }
      ],
      "name": "removeBankAdmin",
      "outputs": [],
      "stateMutability": "nonpayable",
      "type": "function"
    },
    {
      "inputs": [
        {
          "internalType": "string",
          "name": "permitName",
          "type": "string"
        },
        {
          "internalType": "enum Administrable.PermitState",
          "name": "newState",
          "type": "uint8"
        }
      ],
      "name": "setBasePermit",
      "outputs": [],
      "stateMutability": "nonpayable",
      "type": "function"
    },
    {
      "inputs": [
        {
          "internalType": "bool",
          "name": "newState",
          "type": "bool"
        }
      ],
      "name": "setNonShardHolderState",
      "outputs": [],
      "stateMutability": "nonpayable",
      "type": "function"
    },
    {
      "inputs": [
        {
          "internalType": "string",
          "name": "permitName",
          "type": "string"
        },
        {
          "internalType": "address",
          "name": "account",
          "type": "address"
        },
        {
          "internalType": "enum Administrable.PermitState",
          "name": "newState",
          "type": "uint8"
        }
      ],
      "name": "setPermit",
      "outputs": [],
      "stateMutability": "nonpayable",
      "type": "function"
    },
    {
      "inputs": [
        {
          "internalType": "address",
          "name": "",
          "type": "address"
        }
      ],
      "name": "shardByOwner",
      "outputs": [
        {
          "internalType": "bytes32",
          "name": "",
          "type": "bytes32"
        }
      ],
      "stateMutability": "view",
      "type": "function"
    },
    {
      "inputs": [
        {
          "internalType": "bytes32",
          "name": "shard",
          "type": "bytes32"
        },
        {
          "internalType": "uint256",
          "name": "atClock",
          "type": "uint256"
        }
      ],
      "name": "shardExisted",
      "outputs": [
        {
          "internalType": "bool",
          "name": "",
          "type": "bool"
        }
      ],
      "stateMutability": "view",
      "type": "function"
    },
    {
      "inputs": [
        {
          "internalType": "bytes32",
          "name": "senderShard",
          "type": "bytes32"
        },
        {
          "internalType": "uint256",
          "name": "numerator",
          "type": "uint256"
        },
        {
          "internalType": "uint256",
          "name": "denominator",
          "type": "uint256"
        },
        {
          "internalType": "address",
          "name": "to",
          "type": "address"
        }
      ],
      "name": "split",
      "outputs": [],
      "stateMutability": "nonpayable",
      "type": "function"
    },
    {
      "inputs": [
        {
          "internalType": "bytes32",
          "name": "senderShard",
          "type": "bytes32"
        },
        {
          "internalType": "address",
          "name": "to",
          "type": "address"
        }
      ],
      "name": "transferShard",
      "outputs": [],
      "stateMutability": "nonpayable",
      "type": "function"
    },
    {
      "inputs": [
        {
          "internalType": "string",
          "name": "bankName",
          "type": "string"
        },
        {
          "internalType": "address",
          "name": "tokenAddress",
          "type": "address"
        },
        {
          "internalType": "uint256",
          "name": "value",
          "type": "uint256"
        },
        {
          "internalType": "address",
          "name": "to",
          "type": "address"
        }
      ],
      "name": "transferTokenFromBank",
      "outputs": [],
      "stateMutability": "nonpayable",
      "type": "function"
    },
    {
      "inputs": [
        {
          "internalType": "address",
          "name": "tokenAddress",
          "type": "address"
        }
      ],
      "name": "unregisterTokenAddress",
      "outputs": [],
      "stateMutability": "nonpayable",
      "type": "function"
    },
    {
      "stateMutability": "payable",
      "type": "receive"
    }
  ],
  "bytecode": "6080604052600080553480156200001557600080fd5b506200002660018033600062000167565b6001805460ff19168117905560408051808201909152600481526336b0b4b760e11b60208201526200005990336200026e565b604080518082019091526003815262734e5360e81b60208201526200008190336002620003b4565b620000af604051806040016040528060028152602001611a5160f21b815250336002620003b460201b60201c565b620000dd60405180604001604052806002815260200161191160f21b815250336002620003b460201b60201c565b6200010b6040518060400160405280600281526020016136a160f11b815250336002620003b460201b60201c565b62000139604051806040016040528060028152602001616c4560f01b815250336002620003b460201b60201c565b6040805180820190915260038152621b505560ea1b60208201526200016190336002620003b4565b62000648565b6040516001600160601b0319606084901b1660208201526034810182905260009060540160408051808303601f1901815282825280516020918201206001600160a01b03878116600081815260038086528682208590558482526006865286822060001990556080880187528c88528588018c81528888018481526060808b018d81528886526002808b52958b90209b518c55925160018c01559051938a0180546001600160a01b0319169490961693909317909455925196909201959095558351828152928301949094529181018590529092507f90e88e994885f1cdd31d3393f0b012e817804fc9d2adef69d0d7e5053d1e29ad910160405180910390a15050505050565b6001805460ff16151514620002af5760405162461bcd60e51b8152602060048201526002602482015261115360f21b60448201526064015b60405180910390fd5b620002ba826200049c565b15620002ee5760405162461bcd60e51b8152602060048201526002602482015261414560f01b6044820152606401620002a6565b6001600f83604051620003029190620004f4565b90815260408051602092819003830181206001600160a01b038616600090815293529120805460ff191692151592909217909155600190600c9062000349908590620004f4565b90815260405160209181900382018120805460ff19169315159390931790925560008051602062004c9b833981519152916200038a91859185910162000540565b60408051601f1981840301815290829052620003a89133906200056c565b60405180910390a15050565b6001805460ff16151514620003f15760405162461bcd60e51b8152602060048201526002602482015261115360f21b6044820152606401620002a6565b80601084604051620004049190620004f4565b90815260408051602092819003830190206001600160a01b038616600090815292529020805460ff19166001836002811115620004455762000445620005b1565b021790555060008051602062004c9b8339815191528383836040516020016200047193929190620005c7565b60408051601f19818403018152908290526200048f9133906200061a565b60405180910390a1505050565b6000600c82604051620004b09190620004f4565b9081526040519081900360200190205460ff16151560011492915050565b60005b83811015620004eb578181015183820152602001620004d1565b50506000910152565b6000825162000508818460208701620004ce565b9190910192915050565b600081518084526200052c816020860160208601620004ce565b601f01601f19169290920160200192915050565b60408152600062000555604083018562000512565b905060018060a01b03831660208301529392505050565b60608152600260608201526131a160f11b608082015260a0602082015260006200059a60a083018562000512565b905060018060a01b03831660408301529392505050565b634e487b7160e01b600052602160045260246000fd5b606081526000620005dc606083018662000512565b6001600160a01b03851660208401529050600383106200060c57634e487b7160e01b600052602160045260246000fd5b826040830152949350505050565b606081526002606082015261073560f41b608082015260a0602082015260006200059a60a083018562000512565b61464380620006586000396000f3fe6080604052600436106102605760003560e01c8063859d9fd511610144578063b8e85f47116100b6578063db5dc9b71161007a578063db5dc9b714610824578063de9d680514610844578063e1c34c1f14610864578063e6778fce14610884578063f9983896146108b1578063fd06636b146108d157600080fd5b8063b8e85f471461071b578063bcedb2e014610748578063c4802eb2146107c4578063c5438a55146107f1578063cc4456111461081157600080fd5b806397235a1e1161010857806397235a1e1461064b5780639995b9a91461066b578063a1916aef1461069b578063a80aed76146106bb578063a907b6c5146106db578063b4af7d59146106fb57600080fd5b8063859d9fd51461059b578063868399a5146105bb5780638786df6a146105db5780638d7844a6146105fb5780639211b7b31461061b57600080fd5b8063350546d8116101dd5780634f52a71e116101a15780634f52a71e146104905780635beeff33146104b057806362748dcc146104dd57806363879c0b1461052b5780637b7854931461054b578063810052191461057b57600080fd5b8063350546d8146103ca578063354cd135146103ea578063384fe2b51461040a5780633dbeaa541461042a5780634c46360b1461046057600080fd5b80632365664211610224578063236566421461031c578063258e4d9f1461033c5780632dec7cd21461035c5780632ef379261461038a5780632f2e9a2a146103aa57600080fd5b806302fb0c5e14610278578063036f3aec146102a757806305c558f5146102c75780630bea8985146102dc578063169936b4146102fc57600080fd5b3661027357610271600034336108f1565b005b600080fd5b34801561028457600080fd5b506001546102929060ff1681565b60405190151581526020015b60405180910390f35b3480156102b357600080fd5b506102716102c2366004613c18565b610a3f565b3480156102d357600080fd5b50610271610adf565b3480156102e857600080fd5b506102716102f7366004613c66565b610b18565b34801561030857600080fd5b50610292610317366004613c7f565b610bd6565b34801561032857600080fd5b50610271610337366004613c66565b610c34565b34801561034857600080fd5b50610292610357366004613ccb565b610c6f565b34801561036857600080fd5b5061037c610377366004613ccb565b610d24565b60405190815260200161029e565b34801561039657600080fd5b506102716103a5366004613ccb565b610d65565b3480156103b657600080fd5b506102716103c5366004613ccb565b610dc3565b3480156103d657600080fd5b506102716103e5366004613d10565b610e15565b3480156103f657600080fd5b50610271610405366004613d2b565b610fe8565b34801561041657600080fd5b50610271610425366004613c7f565b611215565b34801561043657600080fd5b5061037c610445366004613d10565b6001600160a01b031660009081526009602052604090205490565b34801561046c57600080fd5b5061037c61047b366004613c66565b60009081526013602052604090206001015490565b34801561049c57600080fd5b506102716104ab366004613d4d565b611260565b3480156104bc57600080fd5b5061037c6104cb366004613d10565b60086020526000908152604090205481565b3480156104e957600080fd5b506105136104f8366004613c66565b6000908152601360205260409020546001600160a01b031690565b6040516001600160a01b03909116815260200161029e565b34801561053757600080fd5b50610271610546366004613d70565b6112dc565b34801561055757600080fd5b5061037c610566366004613c66565b60009081526005602052604090206003015490565b34801561058757600080fd5b50610271610596366004613dd5565b611330565b3480156105a757600080fd5b506102716105b6366004613d10565b6113a7565b3480156105c757600080fd5b506102926105d6366004613d10565b611405565b3480156105e757600080fd5b506102716105f6366004613d10565b61143a565b34801561060757600080fd5b50610271610616366004613df2565b611498565b34801561062757600080fd5b50610292610636366004613c66565b60009081526012602052604090205460ff1690565b34801561065757600080fd5b50610271610666366004613e31565b61151e565b34801561067757600080fd5b50610292610686366004613c66565b60008054918152600660205260409020541190565b3480156106a757600080fd5b506102716106b6366004613e5b565b611686565b3480156106c757600080fd5b506102926106d6366004613ccb565b6116a6565b3480156106e757600080fd5b506102716106f6366004613ccb565b611711565b34801561070757600080fd5b50610292610716366004613c7f565b6117a7565b34801561072757600080fd5b5061037c610736366004613c66565b60009081526006602052604090205490565b34801561075457600080fd5b50610795610763366004613c66565b600260208190526000918252604090912080546001820154928201546003909201549092916001600160a01b03169084565b60405161029e949392919093845260208401929092526001600160a01b03166040830152606082015260800190565b3480156107d057600080fd5b5061037c6107df366004613d10565b60036020526000908152604090205481565b3480156107fd57600080fd5b5061027161080c366004613ed7565b6117d7565b61027161081f366004613c66565b6118ce565b34801561083057600080fd5b5061029261083f366004613ccb565b611e58565b34801561085057600080fd5b5061027161085f366004613f35565b611f0e565b34801561087057600080fd5b5061029261087f366004613d10565b611f2e565b34801561089057600080fd5b5061037c61089f366004613c66565b60009081526014602052604090205490565b3480156108bd57600080fd5b506102716108cc366004613f92565b611f60565b3480156108dd57600080fd5b506102926108ec366004613d2b565b611fea565b6108fc83838361201b565b6040516336b0b4b760e11b8152600e9060040190815260408051602092819003830190206001600160a01b0386166000908152925290205415801561094957506001600160a01b03831615155b1561098c576001600d604051610969906336b0b4b760e11b815260040190565b908152602001604051809103902060008282546109869190614000565b90915550505b81600e6040516109a6906336b0b4b760e11b815260040190565b90815260200160405180910390206000856001600160a01b03166001600160a01b0316815260200190815260200160002060008282546109e69190614000565b9091555050604080516001600160a01b038086168252602082018590528316918101919091527fde49bbe8e448cdfa40e6fa0d22592be9a03b28ba746527635dbe5235416659cf906060015b60405180910390a1505050565b81610a4a8133610c6f565b610a5357600080fd5b816002811115610a6557610a65614013565b601184604051610a75919061404d565b9081526040519081900360200190205460ff166002811115610a9957610a99614013565b03610ad05760405162461bcd60e51b8152602060048201526002602482015261415360f01b60448201526064015b60405180910390fd5b610ada8383612070565b505050565b604051806040016040528060028152602001616c4560f01b815250610b048133611e58565b610b0d57600080fd5b610b1561211f565b50565b6000818152600260208190526040909120015481906001600160a01b03163314610b545760405162461bcd60e51b8152600401610ac790614069565b81610b6e8160008054918152600660205260409020541190565b610b8a5760405162461bcd60e51b8152600401610ac790614085565b60008381526004602052604090205460ff16610bcd5760405162461bcd60e51b81526020600482015260026024820152614e5360f01b6044820152606401610ac7565b610ada83612171565b6000600d82604051610be8919061404d565b9081526020016040518091039020546000148015610c2e5750600e82604051610c11919061404d565b908152604080516020928190038301902060008080529252902054155b92915050565b60405180604001604052806002815260200161191160f21b815250610c598133611e58565b610c6257600080fd5b610c6b826121c0565b5050565b6000610c7a82611f2e565b80610c875750600b5460ff165b610c9357506000610c2e565b6002601084604051610ca5919061404d565b90815260408051602092819003830190206001600160a01b0386166000908152925290205460ff166002811115610cde57610cde614013565b1480610d1d57506002601184604051610cf7919061404d565b9081526040519081900360200190205460ff166002811115610d1b57610d1b614013565b145b9392505050565b6000600e83604051610d36919061404d565b908152604080519182900360209081019092206001600160a01b03851660009081529252902054905092915050565b6040518060400160405280600281526020016136a160f11b815250610d8a8133611e58565b610d9357600080fd5b6001805460ff16151514610db95760405162461bcd60e51b8152600401610ac7906140a1565b610ada83836122ab565b6040518060400160405280600281526020016136a160f11b815250610de88133610c6f565b610df157600080fd5b82610dfc81336116a6565b610e0557600080fd5b610e0f84846123bd565b50505050565b610e1e33611f2e565b610e4f5760405162461bcd60e51b81526020600482015260026024820152610aa960f31b6044820152606401610ac7565b610e5881611405565b610e745760405162461bcd60e51b8152600401610ac7906140bd565b336000908152600360209081526040808320546001600160a01b0385168452600a83528184208185529092529091205460ff1615610ed95760405162461bcd60e51b8152602060048201526002602482015261414360f01b6044820152606401610ac7565b6001600160a01b0382166000818152600a602090815260408083208584528252808320805460ff1916600190811790915560028352818420908101549054948452600890925282205491929091610f3091906140d9565b610f3a9190614106565b905080600003610f665760405162461bcd60e51b81526020600482015260006024820152604401610ac7565b6001600160a01b03831660009081526009602052604081208054839290610f8e90849061411a565b90915550610f9f9050838233612479565b604080516001600160a01b03851681526020810183905233918101919091527f1397d005a56670cbe383372bd4743eaa779af18164d00dc6d12a6659418e1bbf90606001610a32565b6000828152600260208190526040909120015482906001600160a01b031633146110245760405162461bcd60e51b8152600401610ac790614069565b600082815260126020526040902054829060ff1661104157600080fd5b6001805460ff161515146110675760405162461bcd60e51b8152600401610ac7906140a1565b6110718484611fea565b6110a35760405162461bcd60e51b81526020600482015260036024820152622720a360e91b6044820152606401610ac7565b600083815260156020908152604080832087845290915290205460ff16156110f25760405162461bcd60e51b8152602060048201526002602482015261414360f01b6044820152606401610ac7565b60008381526015602090815260408083208784528252808320805460ff191660019081179091556002835281842080820154905488865260139094529184200154909161113e916140d9565b6111489190614106565b9050806000036111805760405162461bcd60e51b815260206004820152600360248201526244545360e81b6044820152606401610ac7565b6000848152601460205260408120805483929061119e90849061411a565b90915550506000848152601360205260409020546111c6906001600160a01b03168233612479565b60408051602081018690529081018290526000805160206145ee8339815191529060600160408051601f1981840301815290829052611206913390614159565b60405180910390a15050505050565b6040518060400160405280600281526020016136a160f11b81525061123a8133610c6f565b61124357600080fd5b8161124e81336116a6565b61125757600080fd5b610ada836126a5565b6000828152600260208190526040909120015482906001600160a01b0316331461129c5760405162461bcd60e51b8152600401610ac790614069565b826112b68160008054918152600660205260409020541190565b6112d25760405162461bcd60e51b8152600401610ac790614085565b610e0f848461282a565b604051806040016040528060028152602001611a5160f21b8152506113018133611e58565b61130a57600080fd5b8361131581336116a6565b61131e57600080fd5b6113298585856129b1565b5050505050565b60405180604001604052806003815260200162734e5360e81b8152506113568133611e58565b61135f57600080fd5b600b5482151560ff90911615150361139e5760405162461bcd60e51b8152602060048201526002602482015261415360f01b6044820152606401610ac7565b610c6b82612bad565b604051806040016040528060038152602001621b505560ea1b8152506113cd8133611e58565b6113d657600080fd5b6001805460ff161515146113fc5760405162461bcd60e51b8152600401610ac7906140a1565b610c6b82612c1d565b6001600160a01b03811660009081526007602052604081205460ff16151560011480610c2e5750506001600160a01b03161590565b604051806040016040528060038152602001621b505560ea1b8152506114608133611e58565b61146957600080fd5b6001805460ff1615151461148f5760405162461bcd60e51b8152600401610ac7906140a1565b610c6b82612c66565b6000848152600260208190526040909120015484906001600160a01b031633146114d45760405162461bcd60e51b8152600401610ac790614069565b846114ee8160008054918152600660205260409020541190565b61150a5760405162461bcd60e51b8152600401610ac790614085565b61151686868686612caf565b505050505050565b61152782611405565b6115435760405162461bcd60e51b8152600401610ac7906140bd565b604051636eb1769f60e11b8152336004820152306024820152829082906001600160a01b0383169063dd62ed3e90604401602060405180830381865afa158015611591573d6000803e3d6000fd5b505050506040513d601f19601f820116820180604052508101906115b5919061419c565b10156115d35760405162461bcd60e51b8152600401610ac7906141b5565b6040516323b872dd60e01b8152336004820152306024820152604481018390526001600160a01b038216906323b872dd906064016020604051808303816000875af1158015611626573d6000803e3d6000fd5b505050506040513d601f19601f8201168201806040525081019061164a91906141d1565b61167b5760405162461bcd60e51b8152602060048201526002602482015261139560f21b6044820152606401610ac7565b610ada8383336108f1565b8361169181336116a6565b61169a57600080fd5b61132985858585612e9a565b6000600f836040516116b8919061404d565b908152604080519182900360209081019092206001600160a01b0385166000908152925290205460ff16151560011480610d1d5750610d1d6040518060400160405280600281526020016136a160f11b81525083610c6f565b6040518060400160405280600281526020016136a160f11b8152506117368133611e58565b61173f57600080fd5b8261174a81336116a6565b61175357600080fd5b61175c83611f2e565b806117695750600b5460ff165b61179d5760405162461bcd60e51b81526020600482015260056024820152644e53484e4160d81b6044820152606401610ac7565b610e0f848461312e565b6000600c826040516117b9919061404d565b9081526040519081900360200190205460ff16151560011492915050565b826117e28133610c6f565b6117eb57600080fd5b6117f483611f2e565b806118015750600b5460ff165b6118355760405162461bcd60e51b81526020600482015260056024820152644e53484e4160d81b6044820152606401610ac7565b81600281111561184757611847614013565b601085604051611857919061404d565b90815260408051602092819003830190206001600160a01b0387166000908152925290205460ff16600281111561189057611890614013565b036118c35760405162461bcd60e51b815260206004820152600360248201526204148560ec1b6044820152606401610ac7565b610e0f84848461322c565b806118e88160008054918152600660205260409020541190565b6119045760405162461bcd60e51b8152600401610ac790614085565b60008281526004602052604090205460ff166119475760405162461bcd60e51b81526020600482015260026024820152614e5360f01b6044820152606401610ac7565b6000828152600560205260409020600401546001600160a01b031633148061198757506000828152600560205260409020600401546001600160a01b0316155b6119b85760405162461bcd60e51b815260206004820152600260248201526129a960f11b6044820152606401610ac7565b6119c182612171565b600082815260056020526040812060030154819081906119e59060196103e86132e6565b919450925090506119f68183614000565b6000868152600560205260409020600201549092506001600160a01b0316611b6857600085815260056020526040902060030154341015611a5e5760405162461bcd60e51b8152602060048201526002602482015261494560f01b6044820152606401610ac7565b6040516000907349a71890aea5a751e30e740c504f2e9683f347bc9085908381818185875af1925050503d8060008114611ab4576040519150601f19603f3d011682016040523d82523d6000602084013e611ab9565b606091505b5050600087815260026020819052604080832090910154905192935090916001600160a01b039091169085908381818185875af1925050503d8060008114611b1d576040519150601f19603f3d011682016040523d82523d6000602084013e611b22565b606091505b50509050808015611b305750815b611b615760405162461bcd60e51b81526020600482015260026024820152612a2360f11b6044820152606401610ac7565b5050611d2e565b6000858152600560205260409081902060028101546003909101549151636eb1769f60e11b81523360048201523060248201526001600160a01b039091169190829063dd62ed3e90604401602060405180830381865afa158015611bd0573d6000803e3d6000fd5b505050506040513d601f19601f82011682018060405250810190611bf4919061419c565b1015611c125760405162461bcd60e51b8152600401610ac7906141b5565b6040516323b872dd60e01b81523360048201527349a71890aea5a751e30e740c504f2e9683f347bc6024820152604481018590526001600160a01b038216906323b872dd906064016020604051808303816000875af1158015611c79573d6000803e3d6000fd5b505050506040513d601f19601f82011682018060405250810190611c9d91906141d1565b50600086815260026020819052604091829020015490516323b872dd60e01b81523360048201526001600160a01b03918216602482015260448101859052908216906323b872dd906064016020604051808303816000875af1158015611d07573d6000803e3d6000fd5b505050506040513d601f19601f82011682018060405250810190611d2b91906141d1565b50505b60008581526005602052604090205415801590611d5b575060008581526005602052604090206001015415155b611d8c5760405162461bcd60e51b8152602060048201526002602482015261455360f01b6044820152606401610ac7565b600085815260026020908152604080832080546001918201546005909452919093208054930154611dc0939192919061335a565b15611dd457611dcf853361282a565b611df6565b60008581526005602052604090208054600190910154611df691879133612caf565b6000858152600560205260409081902080546001820154600283015460039093015493517fd8d12448acb9a12d0ca44f527c717c0de64f03b49ca4032f87feae10af5eaabe94611206948b94939233926001600160a01b0390921691906141ee565b6000611e6382611f2e565b80611e705750600b5460ff165b611e7c57506000610c2e565b6001601084604051611e8e919061404d565b90815260408051602092819003830190206001600160a01b0386166000908152925290205460ff166002811115611ec757611ec7614013565b101580610d1d57506001601184604051611ee1919061404d565b9081526040519081900360200190205460ff166002811115611f0557611f05614013565b10159392505050565b83611f1981336116a6565b611f2257600080fd5b61132985858585613375565b6001600160a01b038116600090815260036020526040812054610c2e9060008054918152600660205260409020541190565b6000868152600260208190526040909120015486906001600160a01b03163314611f9c5760405162461bcd60e51b8152600401610ac790614069565b86611fb68160008054918152600660205260409020541190565b611fd25760405162461bcd60e51b8152600401610ac790614085565b611fe0888888888888613517565b5050505050505050565b6000828152600260205260408120600301548210801590610d1d575050600091825260066020526040909120541190565b6001600160a01b03831660009081526008602052604081208054849290612043908490614000565b90915550506001600160a01b038316600090815260096020526040812080548492906109e6908490614000565b6001805460ff161515146120965760405162461bcd60e51b8152600401610ac7906140a1565b806011836040516120a7919061404d565b908152604051908190036020019020805460ff191660018360028111156120d0576120d0614013565b02179055506000805160206145ee83398151915282826040516020016120f7929190614244565b60408051601f1981840301815290829052612113913390614266565b60405180910390a15050565b61212761373b565b604080516060808252600290820152616c4560f01b608082015260a060208201819052600090820152338183015290516000805160206145ee8339815191529181900360c00190a1565b8061218b8160008054918152600660205260409020541190565b6121a75760405162461bcd60e51b8152600401610ac790614085565b506000908152600460205260409020805460ff19169055565b600081815260126020526040902054819060ff166121dd57600080fd5b6001805460ff161515146122035760405162461bcd60e51b8152600401610ac7906140a1565b6000828152601260209081526040808320805460ff19169055601482528083205481516336b0b4b760e11b8152600e6004820152825190819003602401902086855260138452828520546001600160a01b03168552909252822080549192909161226e908490614000565b909155505060408051602081018490526000805160206145ee833981519152910160408051601f1981840301815290829052612113913390614292565b6001805460ff161515146122d15760405162461bcd60e51b8152600401610ac7906140a1565b6122da826117a7565b1561230c5760405162461bcd60e51b8152602060048201526002602482015261414560f01b6044820152606401610ac7565b6001600f8360405161231e919061404d565b90815260408051602092819003830181206001600160a01b038616600090815293529120805460ff191692151592909217909155600190600c9061236390859061404d565b90815260405160209181900382018120805460ff1916931515939093179092556000805160206145ee833981519152916123a19185918591016142be565b60408051601f19818403018152908290526121139133906142e8565b6001805460ff161515146123e35760405162461bcd60e51b8152600401610ac7906140a1565b6123ed82826116a6565b6123f657600080fd5b6000600f83604051612408919061404d565b90815260408051602092819003830181206001600160a01b038616600090815290845291909120805460ff1916931515939093179092556000805160206145ee8339815191529161245d9185918591016142be565b60408051601f1981840301815290829052612113913390614314565b6001600160a01b0383166000908152600860205260409020548211156124b15760405162461bcd60e51b8152600401610ac7906141b5565b6001600160a01b0383166124ce576124c9828261376d565b612690565b60405163095ea7b360e01b81526001600160a01b0382811660048301526024820184905284919082169063095ea7b3906044016020604051808303816000875af1158015612520573d6000803e3d6000fd5b505050506040513d601f19601f8201168201806040525081019061254491906141d1565b6125755760405162461bcd60e51b81526020600482015260026024820152614e4160f01b6044820152606401610ac7565b6001600160a01b0382163b156125ea57604051634b91ad0f60e11b81526001600160a01b038581166004830152602482018590528316906397235a1e90604401600060405180830381600087803b1580156125cf57600080fd5b505af19250505080156125e0575060015b1561268e5761268e565b60405163a9059cbb60e01b81526001600160a01b0383811660048301526024820185905282169063a9059cbb906044016020604051808303816000875af1158015612639573d6000803e3d6000fd5b505050506040513d601f19601f8201168201806040525081019061265d91906141d1565b61268e5760405162461bcd60e51b8152602060048201526002602482015261139560f21b6044820152606401610ac7565b505b60015460ff1615610ada57610ada83836137f5565b6001805460ff161515146126cb5760405162461bcd60e51b8152600401610ac7906140a1565b6126d4816117a7565b6127065760405162461bcd60e51b815260206004820152600360248201526255422160e81b6044820152606401610ac7565b60408051808201909152600481526336b0b4b760e11b6020918201528151908201207f471dfab0756edc981c75dd3188ccd700755407f7d3bedf452610f7a1e240d6590161277b5760405162461bcd60e51b815260206004820152600260248201526126a160f11b6044820152606401610ac7565b61278481610bd6565b6127b55760405162461bcd60e51b8152602060048201526002602482015261424560f01b6044820152606401610ac7565b6000600c826040516127c7919061404d565b90815260405160209181900382018120805460ff1916931515939093179092556000805160206145ee8339815191529161280391849101614340565b60408051601f198184030181529082905261281f913390614353565b60405180910390a150565b816128448160008054918152600660205260409020541190565b6128605760405162461bcd60e51b8152600401610ac790614085565b6001805460ff161515146128865760405162461bcd60e51b8152600401610ac7906140a1565b60005461289283611f2e565b15612927576001600160a01b0383166000908152600360205260409020546128c7908260009182526006602052604090912055565b600084815260026020818152604080842080546001918201546001600160a01b038a16875260038552838720548752949093529084208054910154849361291093929091613853565b915091506129208282878661388f565b5050612949565b600084815260026020526040902080546001909101546129499190858461388f565b60008481526006602090815260408083208490556002909152808220805460019091015491517fd8d12448acb9a12d0ca44f527c717c0de64f03b49ca4032f87feae10af5eaabe936129a3938993929091899181906141ee565b60405180910390a150505050565b6001805460ff161515146129d75760405162461bcd60e51b8152600401610ac7906140a1565b600054604051600e906129eb90869061404d565b90815260408051602092819003830190206001600160a01b03861660009081529252902054821115612a2f5760405162461bcd60e51b8152600401610ac79061437f565b81600e85604051612a40919061404d565b90815260200160405180910390206000856001600160a01b03166001600160a01b031681526020019081526020016000206000828254612a80919061411a565b9091555050604051600e90612a9690869061404d565b90815260408051602092819003830190206001600160a01b03861660009081529252902054158015612ad057506001600160a01b03831615155b15612b0a576001600d85604051612ae7919061404d565b90815260200160405180910390206000828254612b04919061411a565b90915550505b6040805180820182526001600160a01b0385811682526020808301868152600086815260138352858120945185546001600160a01b031916941693909317845551600193840155601481528382208690556012815290839020805460ff191690921790915590516000805160206145ee83398151915291612b91918791879187910161439b565b60408051601f19818403018152908290526129a39133906143c9565b6001805460ff16151514612bd35760405162461bcd60e51b8152600401610ac7906140a1565b600b805460ff19168215159081179091556040805160208101929092526000805160206145ee833981519152910160408051601f198184030181529082905261281f9133906143f5565b612c2681613991565b604080516001600160a01b03831660208201526000805160206145ee833981519152910160408051601f198184030181529082905261281f913390614422565b612c6f81613a22565b604080516001600160a01b03831660208201526000805160206145ee833981519152910160408051601f198184030181529082905261281f91339061444e565b83612cc98160008054918152600660205260409020541190565b612ce55760405162461bcd60e51b8152600401610ac790614085565b6001805460ff16151514612d0b5760405162461bcd60e51b8152600401610ac7906140a1565b600085815260026020526040902060018101549054612d2a9190614106565b612d348486614106565b10612d515760405162461bcd60e51b8152600401610ac79061437f565b600054612d5d83611f2e565b15612de3576001600160a01b03831660009081526003602090815260408083205483526002909152812080546001909101548291612d9c918989613853565b91509150612dac8282878661388f565b6001600160a01b038516600090815260036020526040902054612ddc908460009182526006602052604090912055565b5050612def565b612def8585858461388f565b60008681526006602090815260408083208490556002909152812080546001909101548291612e1f918989613a81565b60008a815260026020819052604090912001549193509150612e4e90839083906001600160a01b03168661388f565b7fd8d12448acb9a12d0ca44f527c717c0de64f03b49ca4032f87feae10af5eaabe88888888600080604051612e88969594939291906141ee565b60405180910390a15050505050505050565b82612ea4816117a7565b612ed65760405162461bcd60e51b8152602060048201526003602482015262444e4560e81b6044820152606401610ac7565b6001805460ff16151514612efc5760405162461bcd60e51b8152600401610ac7906140a1565b600e85604051612f0c919061404d565b90815260408051602092819003830190206001600160a01b03861660009081529252902054821115612f505760405162461bcd60e51b8152600401610ac79061437f565b81600e86604051612f61919061404d565b90815260200160405180910390206000856001600160a01b03166001600160a01b031681526020019081526020016000206000828254612fa1919061411a565b90915550506001600160a01b0383161561309557600e85604051612fc5919061404d565b90815260408051602092819003830190206001600160a01b038616600090815292528120549003613025576001600d86604051613002919061404d565b9081526020016040518091039020600082825461301f919061411a565b90915550505b600e84604051613035919061404d565b90815260408051602092819003830190206001600160a01b038616600090815292528120549003613095576001600d85604051613072919061404d565b9081526020016040518091039020600082825461308f9190614000565b90915550505b81600e856040516130a6919061404d565b90815260200160405180910390206000856001600160a01b03166001600160a01b0316815260200190815260200160002060008282546130e69190614000565b90915550506040516000805160206145ee8339815191529061311290879087908790879060200161447a565b60408051601f19818403018152908290526112069133906144bc565b6001805460ff161515146131545760405162461bcd60e51b8152600401610ac7906140a1565b6131786040518060400160405280600281526020016136a160f11b81525082611e58565b6131a95760405162461bcd60e51b815260206004820152600260248201526104e560f41b6044820152606401610ac7565b6001600f836040516131bb919061404d565b90815260408051602092819003830181206001600160a01b038616600090815290845291909120805460ff1916931515939093179092556000805160206145ee833981519152916132109185918591016142be565b60408051601f19818403018152908290526121139133906144e8565b6001805460ff161515146132525760405162461bcd60e51b8152600401610ac7906140a1565b80601084604051613263919061404d565b90815260408051602092819003830190206001600160a01b038616600090815292529020805460ff191660018360028111156132a1576132a1614013565b02179055506000805160206145ee8339815191528383836040516020016132ca93929190614514565b60408051601f1981840301815290829052610a32913390614545565b60008060008484116132f757600080fd5b60008461330487896140d9565b61330e9190614106565b905060008561331d888261411a565b613327908a6140d9565b6133319190614106565b9050818161333f8183614000565b613349908b61411a565b945094509450505093509350939050565b6000828514801561336a57508184145b90505b949350505050565b6001805460ff1615151461339b5760405162461bcd60e51b8152600401610ac7906140a1565b600e846040516133ab919061404d565b90815260408051602092819003830190206001600160a01b038616600090815292529020548211156133ef5760405162461bcd60e51b8152600401610ac79061437f565b6133fa838383612479565b81600e8560405161340b919061404d565b90815260200160405180910390206000856001600160a01b03166001600160a01b03168152602001908152602001600020600082825461344b919061411a565b9091555050604051600e9061346190869061404d565b90815260408051602092819003830190206001600160a01b0386166000908152925290205415801561349b57506001600160a01b03831615155b156134d5576001600d856040516134b2919061404d565b908152602001604051809103902060008282546134cf919061411a565b90915550505b6000805160206145ee833981519152848484846040516020016134fb9493929190614571565b60408051601f19818403018152908290526129a39133906145ad565b856135318160008054918152600660205260409020541190565b61354d5760405162461bcd60e51b8152600401610ac790614085565b6001805460ff161515146135735760405162461bcd60e51b8152600401610ac7906140a1565b6000878152600260205260409020600181015490546135929190614106565b61359c8688614106565b11156135ba5760405162461bcd60e51b8152600401610ac79061437f565b6135c48686613ab0565b80965081975050506040518060a00160405280878152602001868152602001856001600160a01b03168152602001848152602001836001600160a01b031681525060056000898152602001908152602001600020600082015181600001556020820151816001015560408201518160020160006101000a8154816001600160a01b0302191690836001600160a01b031602179055506060820151816003015560808201518160040160006101000a8154816001600160a01b0302191690836001600160a01b0316021790555090505060016004600089815260200190815260200160002060006101000a81548160ff0219169083151502179055507f4c4dcd7b4186fe1c900d89bc3c911766f63cf9c3570750481f0d89bfbcb7528587878787878760405161372a96959493929190958652602086019490945260408501929092526001600160a01b03908116606085015260808401919091521660a082015260c00190565b60405180910390a150505050505050565b6001805460ff161515146137615760405162461bcd60e51b8152600401610ac7906140a1565b6001805460ff19169055565b6000816001600160a01b03168360405160006040518083038185875af1925050503d80600081146137ba576040519150601f19603f3d011682016040523d82523d6000602084013e6137bf565b606091505b5050905080610ada5760405162461bcd60e51b81526020600482015260026024820152612a2360f11b6044820152606401610ac7565b6001600160a01b0382166000908152600860205260408120805483929061381d90849061411a565b90915550506001600160a01b0382166000908152600960205260408120805483929061384a90849061411a565b90915550505050565b60008061386083876140d9565b955061386c85856140d9565b93506138788487614000565b61388284876140d9565b9150915094509492505050565b6040516bffffffffffffffffffffffff19606084901b1660208201526034810182905260009060540160408051808303601f1901815282825280516020918201206001600160a01b03878116600081815260038086528682208590558482526006865286822060001990556080880187528c88528588018c81528888018481526060808b018d81528886526002808b52958b90209b518c55925160018c01559051938a0180546001600160a01b0319169490961693909317909455925196909201959095558351828152928301949094529181018590529092507f90e88e994885f1cdd31d3393f0b012e817804fc9d2adef69d0d7e5053d1e29ad9101611206565b61399a81611405565b6139b65760405162461bcd60e51b8152600401610ac7906140bd565b6001600160a01b03811660009081526008602052604090205415613a015760405162461bcd60e51b8152602060048201526002602482015261272d60f11b6044820152606401610ac7565b6001600160a01b03166000908152600760205260409020805460ff19169055565b613a2b81611405565b15613a5d5760405162461bcd60e51b815260206004820152600260248201526120a960f11b6044820152606401610ac7565b6001600160a01b03166000908152600760205260409020805460ff19166001179055565b600080613a8e83876140d9565b9550613a9a84866140d9565b9450613aa6858761411a565b61388284866140d9565b6000806000613abf8585613b3c565b9050613acb8185614106565b613ad58287614106565b613adf9190614106565b613ae98587614106565b14613b1c5760405162461bcd60e51b815260206004820152600360248201526215935560ea1b6044820152606401610ac7565b613b268186614106565b613b308286614106565b92509250509250929050565b60005b8115613b5a5781613b5081856145d9565b9093509150613b3f565b5090919050565b634e487b7160e01b600052604160045260246000fd5b600082601f830112613b8857600080fd5b813567ffffffffffffffff80821115613ba357613ba3613b61565b604051601f8301601f19908116603f01168101908282118183101715613bcb57613bcb613b61565b81604052838152866020858801011115613be457600080fd5b836020870160208301376000602085830101528094505050505092915050565b803560038110613c1357600080fd5b919050565b60008060408385031215613c2b57600080fd5b823567ffffffffffffffff811115613c4257600080fd5b613c4e85828601613b77565b925050613c5d60208401613c04565b90509250929050565b600060208284031215613c7857600080fd5b5035919050565b600060208284031215613c9157600080fd5b813567ffffffffffffffff811115613ca857600080fd5b61336d84828501613b77565b80356001600160a01b0381168114613c1357600080fd5b60008060408385031215613cde57600080fd5b823567ffffffffffffffff811115613cf557600080fd5b613d0185828601613b77565b925050613c5d60208401613cb4565b600060208284031215613d2257600080fd5b610d1d82613cb4565b60008060408385031215613d3e57600080fd5b50508035926020909101359150565b60008060408385031215613d6057600080fd5b82359150613c5d60208401613cb4565b600080600060608486031215613d8557600080fd5b833567ffffffffffffffff811115613d9c57600080fd5b613da886828701613b77565b935050613db760208501613cb4565b9150604084013590509250925092565b8015158114610b1557600080fd5b600060208284031215613de757600080fd5b8135610d1d81613dc7565b60008060008060808587031215613e0857600080fd5b843593506020850135925060408501359150613e2660608601613cb4565b905092959194509250565b60008060408385031215613e4457600080fd5b613e4d83613cb4565b946020939093013593505050565b60008060008060808587031215613e7157600080fd5b843567ffffffffffffffff80821115613e8957600080fd5b613e9588838901613b77565b95506020870135915080821115613eab57600080fd5b50613eb887828801613b77565b935050613ec760408601613cb4565b9396929550929360600135925050565b600080600060608486031215613eec57600080fd5b833567ffffffffffffffff811115613f0357600080fd5b613f0f86828701613b77565b935050613f1e60208501613cb4565b9150613f2c60408501613c04565b90509250925092565b60008060008060808587031215613f4b57600080fd5b843567ffffffffffffffff811115613f6257600080fd5b613f6e87828801613b77565b945050613f7d60208601613cb4565b925060408501359150613e2660608601613cb4565b60008060008060008060c08789031215613fab57600080fd5b863595506020870135945060408701359350613fc960608801613cb4565b925060808701359150613fde60a08801613cb4565b90509295509295509295565b634e487b7160e01b600052601160045260246000fd5b80820180821115610c2e57610c2e613fea565b634e487b7160e01b600052602160045260246000fd5b60005b8381101561404457818101518382015260200161402c565b50506000910152565b6000825161405f818460208701614029565b9190910192915050565b60208082526002908201526109e960f31b604082015260600190565b602080825260029082015261555360f01b604082015260600190565b602080825260029082015261115360f21b604082015260600190565b602080825260029082015261155560f21b604082015260600190565b8082028115828204841417610c2e57610c2e613fea565b634e487b7160e01b600052601260045260246000fd5b600082614115576141156140f0565b500490565b81810381811115610c2e57610c2e613fea565b60008151808452614145816020860160208601614029565b601f01601f19169290920160200192915050565b60608152600260608201526118d160f21b608082015260a06020820152600061418560a083018561412d565b905060018060a01b03831660408301529392505050565b6000602082840312156141ae57600080fd5b5051919050565b602080825260029082015261125560f21b604082015260600190565b6000602082840312156141e357600080fd5b8151610d1d81613dc7565b958652602086019490945260408501929092526001600160a01b03908116606085015216608083015260a082015260c00190565b6003811061424057634e487b7160e01b600052602160045260246000fd5b9052565b604081526000614257604083018561412d565b9050610d1d6020830184614222565b60608152600260608201526139a160f11b608082015260a06020820152600061418560a083018561412d565b606081526002606082015261191160f21b608082015260a06020820152600061418560a083018561412d565b6040815260006142d1604083018561412d565b905060018060a01b03831660208301529392505050565b60608152600260608201526131a160f11b608082015260a06020820152600061418560a083018561412d565b606081526002606082015261724160f01b608082015260a06020820152600061418560a083018561412d565b602081526000610d1d602083018461412d565b606081526002606082015261322160f11b608082015260a06020820152600061418560a083018561412d565b60208082526002908201526124a360f11b604082015260600190565b6060815260006143ae606083018661412d565b6001600160a01b039490941660208301525060400152919050565b6060815260026060820152611a5160f21b608082015260a06020820152600061418560a083018561412d565b606081526003606082015262734e5360e81b608082015260a06020820152600061418560a083018561412d565b6060815260026060820152611d5560f21b608082015260a06020820152600061418560a083018561412d565b6060815260026060820152611c9560f21b608082015260a06020820152600061418560a083018561412d565b60808152600061448d608083018761412d565b828103602084015261449f818761412d565b6001600160a01b0395909516604084015250506060015292915050565b6060815260026060820152611b5560f21b608082015260a06020820152600061418560a083018561412d565b606081526002606082015261614160f01b608082015260a06020820152600061418560a083018561412d565b606081526000614527606083018661412d565b6001600160a01b0385166020840152905061336d6040830184614222565b606081526002606082015261073560f41b608082015260a06020820152600061418560a083018561412d565b608081526000614584608083018761412d565b6001600160a01b0395861660208401526040830194909452509216606090920191909152919050565b6060815260026060820152611d1560f21b608082015260a06020820152600061418560a083018561412d565b6000826145e8576145e86140f0565b50069056fe43cd76b5eb40da9ea5eb31a199f443f7cf7955ec280bc5981a2e3445c79c9055a2646970667358221220679aad3aa158110e73af658d966f5ad71f0c37d2ee701d1c88d5afdd51bcbf3e64736f6c6343000813003343cd76b5eb40da9ea5eb31a199f443f7cf7955ec280bc5981a2e3445c79c9055",
  "bytecodeSha1": "da39a3ee5e6b4b0d3255bfef95601890afd80709",
  "compiler": {
    "evm_version": "istanbul",
    "optimizer": {
      "enabled": true,
      "runs": 200
    },
    "version": "0.8.19+commit.7dd6d404"
  },
  "contractName": "Administrable",
  "language": "Solidity",
  "natspec": {
    "author": "Frederik W. L. Christoffersen",
    "kind": "dev",
    "methods": {
      "acceptsToken(address)": {
        "notice": "Returns a boolean value, stating if the given token address is registered as acceptable or not.",
        "params": {
          "tokenAddress": "The address of the token to be checked for."
        }
      },
      "active()": {
        "notice": "Boolean stating if the Shardable is active and tradeable or not."
      },
      "addBankAdmin(string,address)": {
        "notice": "Adds a new given administrator to a given Bank.",
        "params": {
          "bankAdmin": "The address of the new Bank administrator to be added.",
          "bankName": "The name of the Bank to which the new administrator is to be added."
        }
      },
      "bankExists(string)": {
        "notice": "Returns a boolean stating if a given Bank exists.",
        "params": {
          "bankName": "The name of the Bank to be checked for."
        }
      },
      "bankIsEmpty(string)": {
        "notice": "Returns a boolean stating if a given Bank is empty.",
        "params": {
          "bankName": "The name of the Bank to be checked for."
        }
      },
      "cancelSale(bytes32)": {
        "notice": "Cancels a sell of a given Shard.",
        "params": {
          "shard": "The shard to be put off sale."
        }
      },
      "claimDividend(bytes32,uint256)": {
        "notice": "Claims the value of an existing dividend corresponding to the shard holder's respective shard fraction.",
        "params": {
          "dividend": "The dividend to be claimed.",
          "shard": "The shard that was valid at the clock of the Dividend creation"
        }
      },
      "claimLiquid(address)": {
        "notice": "Claims the owed liquid value corresponding to the shard holder's respective shard fraction after the entity has been liquidized/dissolved.",
        "params": {
          "tokenAddress": "The address of the token to be claimed."
        }
      },
      "constructor": {
        "notice": "Constructor function connecting the Idea entity and creating a Bank with an administrator."
      },
      "createBank(string,address)": {
        "notice": "Creates a new Bank.",
        "params": {
          "bankAdmin": "The address of the first Bank administrator.",
          "bankName": "The name of the Bank to be created."
        }
      },
      "deleteBank(string)": {
        "notice": "Deletes a given Bank.",
        "params": {
          "bankName": "The name of the Bank to be deleted."
        }
      },
      "dissolveDividend(uint256)": {
        "notice": "Dissolves a Dividend and moves its last contents to the 'main' Bank.",
        "params": {
          "dividend": "The Dividend to be dissolved."
        }
      },
      "dividendExists(uint256)": {
        "notice": "Returns a boolean stating if a given Dividend exists.",
        "params": {
          "dividend": "The Dividend to be checked for."
        }
      },
      "getBankBalance(string,address)": {
        "notice": "Returns the balance of a bank.",
        "params": {
          "bankName": "The name of the Bank.",
          "tokenAddress": "The address of the token balance to check for."
        }
      },
      "getDividendResidual(uint256)": {
        "notice": "Returns the residual value of a dividend.",
        "params": {
          "dividend": "The Dividend to be checked for."
        }
      },
      "getDividendToken(uint256)": {
        "notice": "Returns the token of a dividend.",
        "params": {
          "dividend": "The Dividend to be checked for."
        }
      },
      "getDividendValue(uint256)": {
        "notice": "Returns the total value of a dividend.",
        "params": {
          "dividend": "The Dividend to be checked for."
        }
      },
      "getLiquidResidual(address)": {
        "notice": "Returns the residual of a liquid, after liquidization/inactivation.",
        "params": {
          "tokenAddress": "The address of the token to be checked for."
        }
      },
      "getShardExpiredClock(bytes32)": {
        "notice": "Returns the clock, in which a shard will or has expired."
      },
      "getShardSalePrice(bytes32)": {
        "notice": "Returns the price, at which a shard is for sale."
      },
      "hasPermit(string,address)": {
        "notice": "Returns a boolean stating if a given address has a given permit or not.",
        "params": {
          "account": "The address to be checked for.",
          "permitName": "The name of the permit to be checked for."
        }
      },
      "infoByShard(bytes32)": {
        "notice": "Mapping pointing to related info of a Shard given the bytes of a unique Shard instance."
      },
      "isBankAdmin(string,address)": {
        "notice": "Returns a boolean stating if a given address is an admin of a given bank.",
        "params": {
          "account": "The address to be checked for.",
          "bankName": "The name of the Bank to be checked for."
        }
      },
      "isPermitAdmin(string,address)": {
        "notice": "Returns a boolean stating if a given address is an admin of a given permit or not.",
        "params": {
          "account": "The address to be checked for.",
          "permitName": "The name of the permit to be checked for."
        }
      },
      "isShardHolder(address)": {
        "notice": "Checks if address is a shard holder - at least a partial owner of the contract.",
        "params": {
          "account": "The address to be checked for."
        }
      },
      "isValidShard(bytes32)": {
        "notice": "Returns a boolean stating if a given shard is currently valid or not.",
        "params": {
          "shard": "The shard, whose validity is to be checked for."
        }
      },
      "issueDividend(string,address,uint256)": {
        "notice": "Creates and issues a Dividend (to all current shareholders) of a token amount from a given Bank.",
        "params": {
          "bankName": "The name of the Bank to issue the Dividend from.",
          "tokenAddress": "The address of the token to make up the Dividend.",
          "value": "The value/amount of the token to be issued in the Dividend."
        }
      },
      "liquid(address)": {
        "notice": "Mapping pointing to a value/amount given the address of an ERC20 token."
      },
      "liquidize()": {
        "notice": "Liquidizes and dissolves the entity. This cannot be undone."
      },
      "moveToken(string,string,address,uint256)": {
        "notice": "Internally moves a token from one Bank to another.",
        "params": {
          "fromBankName": "The name of the Bank from which the token is to be moved.",
          "toBankName": "The name of the Bank to which the token is to be moved.",
          "tokenAddress": "The address of the token to be moved.",
          "value": "The value/amount of the token to be moved."
        }
      },
      "purchase(bytes32)": {
        "details": "If the purchase is with tokens (ie. tokenAddress != 0x0), first call 'token.approve(Shardable.address, salePrice);'",
        "notice": "Purchases a listed Shard for sale.",
        "params": {
          "shard": "The shard of which a fraction will be purchased."
        }
      },
      "putForSale(bytes32,uint256,uint256,address,uint256,address)": {
        "notice": "Puts a given shard for sale.",
        "params": {
          "denominator": "Denominator of the absolute fraction of the Shard to be put for sale.",
          "numerator": "Numerator of the absolute fraction of the Shard to be put for sale.",
          "price": "The amount which the Shard is for sale as. The token address being the valuta.",
          "shard": "The shard to be put for sale.",
          "to": "The specifically set buyer of the sale. Open to anyone, if address(0).",
          "tokenAddress": "The address of the token that is accepted when purchasing. A value of 0x0 represents ether."
        }
      },
      "receiveToken(address,uint256)": {
        "notice": "Receives a specified token and adds it to the registry. Make sure 'token.approve()' is called beforehand.",
        "params": {
          "tokenAddress": "The address of the token to be received.",
          "value": "The value/amount of the token to be received."
        }
      },
      "registerTokenAddress(address)": {
        "notice": "Adds a token address to the registry. Also approves any future receipts of said token unless removed again.",
        "params": {
          "tokenAddress": "The token address to be registered."
        }
      },
      "removeBankAdmin(string,address)": {
        "notice": "Removes a given administrator of a given Bank.",
        "params": {
          "bankAdmin": "The address of the current Bank administrator to be removed.",
          "bankName": "The name of the Bank from which the given administrator is to be removed."
        }
      },
      "setBasePermit(string,uint8)": {
        "notice": "Sets the state of a specified base permit.",
        "params": {
          "newState": "The new base Permit State to be applied.",
          "permitName": "The name of the base permit, whose state is to be set."
        }
      },
      "setNonShardHolderState(bool)": {
        "notice": "Sets the state of the Non Shard Holders.",
        "params": {
          "newState": "The Boolean state to be applied."
        }
      },
      "setPermit(string,address,uint8)": {
        "notice": "Sets the state of a specified permit of a given address.",
        "params": {
          "account": "The address, whose permit state is to be set.",
          "newState": "The new Permit State to be applied.",
          "permitName": "The name of the permit, whose state is to be set."
        }
      },
      "shardByOwner(address)": {
        "notice": "Mapping pointing to a currently valid shard given the address of its owner."
      },
      "shardExisted(bytes32,uint256)": {
        "notice": "Returns a boolean stating if the given shard was valid at a given clock.",
        "params": {
          "atClock": "The clock to be checked for.",
          "shard": "The shard, whose validity is to be checked for."
        }
      },
      "split(bytes32,uint256,uint256,address)": {
        "notice": "Splits a currently valid shard into two new ones. One is assigned to the receiver. The rest to the previous owner.",
        "params": {
          "denominator": "Denominator of the absolute fraction, which will be subtracted from the previous shard and sent to the receiver.",
          "numerator": "Numerator of the absolute fraction, which will be subtracted from the previous shard and sent to the receiver.",
          "senderShard": "The shard to be split.",
          "to": "The receiver of the new Shard."
        }
      },
      "transferShard(bytes32,address)": {
        "notice": "Sends a whole shard to a receiver.",
        "params": {
          "senderShard": "The shard to be transferred.",
          "to": "The receiver of the new Shard."
        }
      },
      "transferTokenFromBank(string,address,uint256,address)": {
        "notice": "Transfers a token bankAdmin a Bank to a recipient.",
        "params": {
          "bankName": "The name of the Bank from which the token is to be transferred.",
          "to": "The recipient of the token to be transferred.",
          "tokenAddress": "The address of the token to be transferred.",
          "value": "The value/amount of the token to be transferred."
        }
      },
      "unregisterTokenAddress(address)": {
        "notice": "Removes a token address from the registry. Also cancels any future receipts of said token unless added again.",
        "params": {
          "tokenAddress": "The token address to be unregistered."
        }
      }
    },
    "notice": "This contract adds administrability via permits and internally closed money supplies.",
    "stateVariables": {
      "permits": {
        "custom:illustration": "permits[permitName][address] == PermitState.authorized || PermitState.administrator;"
      }
    },
    "title": "An extension of the Idea providing an administrable interface.",
    "version": 1
  },
  "opcodes": "PUSH1 0x80 PUSH1 0x40 MSTORE PUSH1 0x4 CALLDATASIZE LT PUSH2 0x260 JUMPI PUSH1 0x0 CALLDATALOAD PUSH1 0xE0 SHR DUP1 PUSH4 0x859D9FD5 GT PUSH2 0x144 JUMPI DUP1 PUSH4 0xB8E85F47 GT PUSH2 0xB6 JUMPI DUP1 PUSH4 0xDB5DC9B7 GT PUSH2 0x7A JUMPI DUP1 PUSH4 0xDB5DC9B7 EQ PUSH2 0x824 JUMPI DUP1 PUSH4 0xDE9D6805 EQ PUSH2 0x844 JUMPI DUP1 PUSH4 0xE1C34C1F EQ PUSH2 0x864 JUMPI DUP1 PUSH4 0xE6778FCE EQ PUSH2 0x884 JUMPI DUP1 PUSH4 0xF9983896 EQ PUSH2 0x8B1 JUMPI DUP1 PUSH4 0xFD06636B EQ PUSH2 0x8D1 JUMPI PUSH1 0x0 DUP1 REVERT JUMPDEST DUP1 PUSH4 0xB8E85F47 EQ PUSH2 0x71B JUMPI DUP1 PUSH4 0xBCEDB2E0 EQ PUSH2 0x748 JUMPI DUP1 PUSH4 0xC4802EB2 EQ PUSH2 0x7C4 JUMPI DUP1 PUSH4 0xC5438A55 EQ PUSH2 0x7F1 JUMPI DUP1 PUSH4 0xCC445611 EQ PUSH2 0x811 JUMPI PUSH1 0x0 DUP1 REVERT JUMPDEST DUP1 PUSH4 0x97235A1E GT PUSH2 0x108 JUMPI DUP1 PUSH4 0x97235A1E EQ PUSH2 0x64B JUMPI DUP1 PUSH4 0x9995B9A9 EQ PUSH2 0x66B JUMPI DUP1 PUSH4 0xA1916AEF EQ PUSH2 0x69B JUMPI DUP1 PUSH4 0xA80AED76 EQ PUSH2 0x6BB JUMPI DUP1 PUSH4 0xA907B6C5 EQ PUSH2 0x6DB JUMPI DUP1 PUSH4 0xB4AF7D59 EQ PUSH2 0x6FB JUMPI PUSH1 0x0 DUP1 REVERT JUMPDEST DUP1 PUSH4 0x859D9FD5 EQ PUSH2 0x59B JUMPI DUP1 PUSH4 0x868399A5 EQ PUSH2 0x5BB JUMPI DUP1 PUSH4 0x8786DF6A EQ PUSH2 0x5DB JUMPI DUP1 PUSH4 0x8D7844A6 EQ PUSH2 0x5FB JUMPI DUP1 PUSH4 0x9211B7B3 EQ PUSH2 0x61B JUMPI PUSH1 0x0 DUP1 REVERT JUMPDEST DUP1 PUSH4 0x350546D8 GT PUSH2 0x1DD JUMPI DUP1 PUSH4 0x4F52A71E GT PUSH2 0x1A1 JUMPI DUP1 PUSH4 0x4F52A71E EQ PUSH2 0x490 JUMPI DUP1 PUSH4 0x5BEEFF33 EQ PUSH2 0x4B0 JUMPI DUP1 PUSH4 0x62748DCC EQ PUSH2 0x4DD JUMPI DUP1 PUSH4 0x63879C0B EQ PUSH2 0x52B JUMPI DUP1 PUSH4 0x7B785493 EQ PUSH2 0x54B JUMPI DUP1 PUSH4 0x81005219 EQ PUSH2 0x57B JUMPI PUSH1 0x0 DUP1 REVERT JUMPDEST DUP1 PUSH4 0x350546D8 EQ PUSH2 0x3CA JUMPI DUP1 PUSH4 0x354CD135 EQ PUSH2 0x3EA JUMPI DUP1 PUSH4 0x384FE2B5 EQ PUSH2 0x40A JUMPI DUP1 PUSH4 0x3DBEAA54 EQ PUSH2 0x42A JUMPI DUP1 PUSH4 0x4C46360B EQ PUSH2 0x460 JUMPI PUSH1 0x0 DUP1 REVERT JUMPDEST DUP1 PUSH4 0x23656642 GT PUSH2 0x224 JUMPI DUP1 PUSH4 0x23656642 EQ PUSH2 0x31C JUMPI DUP1 PUSH4 0x258E4D9F EQ PUSH2 0x33C JUMPI DUP1 PUSH4 0x2DEC7CD2 EQ PUSH2 0x35C JUMPI DUP1 PUSH4 0x2EF37926 EQ PUSH2 0x38A JUMPI DUP1 PUSH4 0x2F2E9A2A EQ PUSH2 0x3AA JUMPI PUSH1 0x0 DUP1 REVERT JUMPDEST DUP1 PUSH4 0x2FB0C5E EQ PUSH2 0x278 JUMPI DUP1 PUSH4 0x36F3AEC EQ PUSH2 0x2A7 JUMPI DUP1 PUSH4 0x5C558F5 EQ PUSH2 0x2C7 JUMPI DUP1 PUSH4 0xBEA8985 EQ PUSH2 0x2DC JUMPI DUP1 PUSH4 0x169936B4 EQ PUSH2 0x2FC JUMPI PUSH1 0x0 DUP1 REVERT JUMPDEST CALLDATASIZE PUSH2 0x273 JUMPI PUSH2 0x271 PUSH1 0x0 CALLVALUE CALLER PUSH2 0x8F1 JUMP JUMPDEST STOP JUMPDEST PUSH1 0x0 DUP1 REVERT JUMPDEST CALLVALUE DUP1 ISZERO PUSH2 0x284 JUMPI PUSH1 0x0 DUP1 REVERT JUMPDEST POP PUSH1 0x1 SLOAD PUSH2 0x292 SWAP1 PUSH1 0xFF AND DUP2 JUMP JUMPDEST PUSH1 0x40 MLOAD SWAP1 ISZERO ISZERO DUP2 MSTORE PUSH1 0x20 ADD JUMPDEST PUSH1 0x40 MLOAD DUP1 SWAP2 SUB SWAP1 RETURN JUMPDEST CALLVALUE DUP1 ISZERO PUSH2 0x2B3 JUMPI PUSH1 0x0 DUP1 REVERT JUMPDEST POP PUSH2 0x271 PUSH2 0x2C2 CALLDATASIZE PUSH1 0x4 PUSH2 0x3C18 JUMP JUMPDEST PUSH2 0xA3F JUMP JUMPDEST CALLVALUE DUP1 ISZERO PUSH2 0x2D3 JUMPI PUSH1 0x0 DUP1 REVERT JUMPDEST POP PUSH2 0x271 PUSH2 0xADF JUMP JUMPDEST CALLVALUE DUP1 ISZERO PUSH2 0x2E8 JUMPI PUSH1 0x0 DUP1 REVERT JUMPDEST POP PUSH2 0x271 PUSH2 0x2F7 CALLDATASIZE PUSH1 0x4 PUSH2 0x3C66 JUMP JUMPDEST PUSH2 0xB18 JUMP JUMPDEST CALLVALUE DUP1 ISZERO PUSH2 0x308 JUMPI PUSH1 0x0 DUP1 REVERT JUMPDEST POP PUSH2 0x292 PUSH2 0x317 CALLDATASIZE PUSH1 0x4 PUSH2 0x3C7F JUMP JUMPDEST PUSH2 0xBD6 JUMP JUMPDEST CALLVALUE DUP1 ISZERO PUSH2 0x328 JUMPI PUSH1 0x0 DUP1 REVERT JUMPDEST POP PUSH2 0x271 PUSH2 0x337 CALLDATASIZE PUSH1 0x4 PUSH2 0x3C66 JUMP JUMPDEST PUSH2 0xC34 JUMP JUMPDEST CALLVALUE DUP1 ISZERO PUSH2 0x348 JUMPI PUSH1 0x0 DUP1 REVERT JUMPDEST POP PUSH2 0x292 PUSH2 0x357 CALLDATASIZE PUSH1 0x4 PUSH2 0x3CCB JUMP JUMPDEST PUSH2 0xC6F JUMP JUMPDEST CALLVALUE DUP1 ISZERO PUSH2 0x368 JUMPI PUSH1 0x0 DUP1 REVERT JUMPDEST POP PUSH2 0x37C PUSH2 0x377 CALLDATASIZE PUSH1 0x4 PUSH2 0x3CCB JUMP JUMPDEST PUSH2 0xD24 JUMP JUMPDEST PUSH1 0x40 MLOAD SWAP1 DUP2 MSTORE PUSH1 0x20 ADD PUSH2 0x29E JUMP JUMPDEST CALLVALUE DUP1 ISZERO PUSH2 0x396 JUMPI PUSH1 0x0 DUP1 REVERT JUMPDEST POP PUSH2 0x271 PUSH2 0x3A5 CALLDATASIZE PUSH1 0x4 PUSH2 0x3CCB JUMP JUMPDEST PUSH2 0xD65 JUMP JUMPDEST CALLVALUE DUP1 ISZERO PUSH2 0x3B6 JUMPI PUSH1 0x0 DUP1 REVERT JUMPDEST POP PUSH2 0x271 PUSH2 0x3C5 CALLDATASIZE PUSH1 0x4 PUSH2 0x3CCB JUMP JUMPDEST PUSH2 0xDC3 JUMP JUMPDEST CALLVALUE DUP1 ISZERO PUSH2 0x3D6 JUMPI PUSH1 0x0 DUP1 REVERT JUMPDEST POP PUSH2 0x271 PUSH2 0x3E5 CALLDATASIZE PUSH1 0x4 PUSH2 0x3D10 JUMP JUMPDEST PUSH2 0xE15 JUMP JUMPDEST CALLVALUE DUP1 ISZERO PUSH2 0x3F6 JUMPI PUSH1 0x0 DUP1 REVERT JUMPDEST POP PUSH2 0x271 PUSH2 0x405 CALLDATASIZE PUSH1 0x4 PUSH2 0x3D2B JUMP JUMPDEST PUSH2 0xFE8 JUMP JUMPDEST CALLVALUE DUP1 ISZERO PUSH2 0x416 JUMPI PUSH1 0x0 DUP1 REVERT JUMPDEST POP PUSH2 0x271 PUSH2 0x425 CALLDATASIZE PUSH1 0x4 PUSH2 0x3C7F JUMP JUMPDEST PUSH2 0x1215 JUMP JUMPDEST CALLVALUE DUP1 ISZERO PUSH2 0x436 JUMPI PUSH1 0x0 DUP1 REVERT JUMPDEST POP PUSH2 0x37C PUSH2 0x445 CALLDATASIZE PUSH1 0x4 PUSH2 0x3D10 JUMP JUMPDEST PUSH1 0x1 PUSH1 0x1 PUSH1 0xA0 SHL SUB AND PUSH1 0x0 SWAP1 DUP2 MSTORE PUSH1 0x9 PUSH1 0x20 MSTORE PUSH1 0x40 SWAP1 KECCAK256 SLOAD SWAP1 JUMP JUMPDEST CALLVALUE DUP1 ISZERO PUSH2 0x46C JUMPI PUSH1 0x0 DUP1 REVERT JUMPDEST POP PUSH2 0x37C PUSH2 0x47B CALLDATASIZE PUSH1 0x4 PUSH2 0x3C66 JUMP JUMPDEST PUSH1 0x0 SWAP1 DUP2 MSTORE PUSH1 0x13 PUSH1 0x20 MSTORE PUSH1 0x40 SWAP1 KECCAK256 PUSH1 0x1 ADD SLOAD SWAP1 JUMP JUMPDEST CALLVALUE DUP1 ISZERO PUSH2 0x49C JUMPI PUSH1 0x0 DUP1 REVERT JUMPDEST POP PUSH2 0x271 PUSH2 0x4AB CALLDATASIZE PUSH1 0x4 PUSH2 0x3D4D JUMP JUMPDEST PUSH2 0x1260 JUMP JUMPDEST CALLVALUE DUP1 ISZERO PUSH2 0x4BC JUMPI PUSH1 0x0 DUP1 REVERT JUMPDEST POP PUSH2 0x37C PUSH2 0x4CB CALLDATASIZE PUSH1 0x4 PUSH2 0x3D10 JUMP JUMPDEST PUSH1 0x8 PUSH1 0x20 MSTORE PUSH1 0x0 SWAP1 DUP2 MSTORE PUSH1 0x40 SWAP1 KECCAK256 SLOAD DUP2 JUMP JUMPDEST CALLVALUE DUP1 ISZERO PUSH2 0x4E9 JUMPI PUSH1 0x0 DUP1 REVERT JUMPDEST POP PUSH2 0x513 PUSH2 0x4F8 CALLDATASIZE PUSH1 0x4 PUSH2 0x3C66 JUMP JUMPDEST PUSH1 0x0 SWAP1 DUP2 MSTORE PUSH1 0x13 PUSH1 0x20 MSTORE PUSH1 0x40 SWAP1 KECCAK256 SLOAD PUSH1 0x1 PUSH1 0x1 PUSH1 0xA0 SHL SUB AND SWAP1 JUMP JUMPDEST PUSH1 0x40 MLOAD PUSH1 0x1 PUSH1 0x1 PUSH1 0xA0 SHL SUB SWAP1 SWAP2 AND DUP2 MSTORE PUSH1 0x20 ADD PUSH2 0x29E JUMP JUMPDEST CALLVALUE DUP1 ISZERO PUSH2 0x537 JUMPI PUSH1 0x0 DUP1 REVERT JUMPDEST POP PUSH2 0x271 PUSH2 0x546 CALLDATASIZE PUSH1 0x4 PUSH2 0x3D70 JUMP JUMPDEST PUSH2 0x12DC JUMP JUMPDEST CALLVALUE DUP1 ISZERO PUSH2 0x557 JUMPI PUSH1 0x0 DUP1 REVERT JUMPDEST POP PUSH2 0x37C PUSH2 0x566 CALLDATASIZE PUSH1 0x4 PUSH2 0x3C66 JUMP JUMPDEST PUSH1 0x0 SWAP1 DUP2 MSTORE PUSH1 0x5 PUSH1 0x20 MSTORE PUSH1 0x40 SWAP1 KECCAK256 PUSH1 0x3 ADD SLOAD SWAP1 JUMP JUMPDEST CALLVALUE DUP1 ISZERO PUSH2 0x587 JUMPI PUSH1 0x0 DUP1 REVERT JUMPDEST POP PUSH2 0x271 PUSH2 0x596 CALLDATASIZE PUSH1 0x4 PUSH2 0x3DD5 JUMP JUMPDEST PUSH2 0x1330 JUMP JUMPDEST CALLVALUE DUP1 ISZERO PUSH2 0x5A7 JUMPI PUSH1 0x0 DUP1 REVERT JUMPDEST POP PUSH2 0x271 PUSH2 0x5B6 CALLDATASIZE PUSH1 0x4 PUSH2 0x3D10 JUMP JUMPDEST PUSH2 0x13A7 JUMP JUMPDEST CALLVALUE DUP1 ISZERO PUSH2 0x5C7 JUMPI PUSH1 0x0 DUP1 REVERT JUMPDEST POP PUSH2 0x292 PUSH2 0x5D6 CALLDATASIZE PUSH1 0x4 PUSH2 0x3D10 JUMP JUMPDEST PUSH2 0x1405 JUMP JUMPDEST CALLVALUE DUP1 ISZERO PUSH2 0x5E7 JUMPI PUSH1 0x0 DUP1 REVERT JUMPDEST POP PUSH2 0x271 PUSH2 0x5F6 CALLDATASIZE PUSH1 0x4 PUSH2 0x3D10 JUMP JUMPDEST PUSH2 0x143A JUMP JUMPDEST CALLVALUE DUP1 ISZERO PUSH2 0x607 JUMPI PUSH1 0x0 DUP1 REVERT JUMPDEST POP PUSH2 0x271 PUSH2 0x616 CALLDATASIZE PUSH1 0x4 PUSH2 0x3DF2 JUMP JUMPDEST PUSH2 0x1498 JUMP JUMPDEST CALLVALUE DUP1 ISZERO PUSH2 0x627 JUMPI PUSH1 0x0 DUP1 REVERT JUMPDEST POP PUSH2 0x292 PUSH2 0x636 CALLDATASIZE PUSH1 0x4 PUSH2 0x3C66 JUMP JUMPDEST PUSH1 0x0 SWAP1 DUP2 MSTORE PUSH1 0x12 PUSH1 0x20 MSTORE PUSH1 0x40 SWAP1 KECCAK256 SLOAD PUSH1 0xFF AND SWAP1 JUMP JUMPDEST CALLVALUE DUP1 ISZERO PUSH2 0x657 JUMPI PUSH1 0x0 DUP1 REVERT JUMPDEST POP PUSH2 0x271 PUSH2 0x666 CALLDATASIZE PUSH1 0x4 PUSH2 0x3E31 JUMP JUMPDEST PUSH2 0x151E JUMP JUMPDEST CALLVALUE DUP1 ISZERO PUSH2 0x677 JUMPI PUSH1 0x0 DUP1 REVERT JUMPDEST POP PUSH2 0x292 PUSH2 0x686 CALLDATASIZE PUSH1 0x4 PUSH2 0x3C66 JUMP JUMPDEST PUSH1 0x0 DUP1 SLOAD SWAP2 DUP2 MSTORE PUSH1 0x6 PUSH1 0x20 MSTORE PUSH1 0x40 SWAP1 KECCAK256 SLOAD GT SWAP1 JUMP JUMPDEST CALLVALUE DUP1 ISZERO PUSH2 0x6A7 JUMPI PUSH1 0x0 DUP1 REVERT JUMPDEST POP PUSH2 0x271 PUSH2 0x6B6 CALLDATASIZE PUSH1 0x4 PUSH2 0x3E5B JUMP JUMPDEST PUSH2 0x1686 JUMP JUMPDEST CALLVALUE DUP1 ISZERO PUSH2 0x6C7 JUMPI PUSH1 0x0 DUP1 REVERT JUMPDEST POP PUSH2 0x292 PUSH2 0x6D6 CALLDATASIZE PUSH1 0x4 PUSH2 0x3CCB JUMP JUMPDEST PUSH2 0x16A6 JUMP JUMPDEST CALLVALUE DUP1 ISZERO PUSH2 0x6E7 JUMPI PUSH1 0x0 DUP1 REVERT JUMPDEST POP PUSH2 0x271 PUSH2 0x6F6 CALLDATASIZE PUSH1 0x4 PUSH2 0x3CCB JUMP JUMPDEST PUSH2 0x1711 JUMP JUMPDEST CALLVALUE DUP1 ISZERO PUSH2 0x707 JUMPI PUSH1 0x0 DUP1 REVERT JUMPDEST POP PUSH2 0x292 PUSH2 0x716 CALLDATASIZE PUSH1 0x4 PUSH2 0x3C7F JUMP JUMPDEST PUSH2 0x17A7 JUMP JUMPDEST CALLVALUE DUP1 ISZERO PUSH2 0x727 JUMPI PUSH1 0x0 DUP1 REVERT JUMPDEST POP PUSH2 0x37C PUSH2 0x736 CALLDATASIZE PUSH1 0x4 PUSH2 0x3C66 JUMP JUMPDEST PUSH1 0x0 SWAP1 DUP2 MSTORE PUSH1 0x6 PUSH1 0x20 MSTORE PUSH1 0x40 SWAP1 KECCAK256 SLOAD SWAP1 JUMP JUMPDEST CALLVALUE DUP1 ISZERO PUSH2 0x754 JUMPI PUSH1 0x0 DUP1 REVERT JUMPDEST POP PUSH2 0x795 PUSH2 0x763 CALLDATASIZE PUSH1 0x4 PUSH2 0x3C66 JUMP JUMPDEST PUSH1 0x2 PUSH1 0x20 DUP2 SWAP1 MSTORE PUSH1 0x0 SWAP2 DUP3 MSTORE PUSH1 0x40 SWAP1 SWAP2 KECCAK256 DUP1 SLOAD PUSH1 0x1 DUP3 ADD SLOAD SWAP3 DUP3 ADD SLOAD PUSH1 0x3 SWAP1 SWAP3 ADD SLOAD SWAP1 SWAP3 SWAP2 PUSH1 0x1 PUSH1 0x1 PUSH1 0xA0 SHL SUB AND SWAP1 DUP5 JUMP JUMPDEST PUSH1 0x40 MLOAD PUSH2 0x29E SWAP5 SWAP4 SWAP3 SWAP2 SWAP1 SWAP4 DUP5 MSTORE PUSH1 0x20 DUP5 ADD SWAP3 SWAP1 SWAP3 MSTORE PUSH1 0x1 PUSH1 0x1 PUSH1 0xA0 SHL SUB AND PUSH1 0x40 DUP4 ADD MSTORE PUSH1 0x60 DUP3 ADD MSTORE PUSH1 0x80 ADD SWAP1 JUMP JUMPDEST CALLVALUE DUP1 ISZERO PUSH2 0x7D0 JUMPI PUSH1 0x0 DUP1 REVERT JUMPDEST POP PUSH2 0x37C PUSH2 0x7DF CALLDATASIZE PUSH1 0x4 PUSH2 0x3D10 JUMP JUMPDEST PUSH1 0x3 PUSH1 0x20 MSTORE PUSH1 0x0 SWAP1 DUP2 MSTORE PUSH1 0x40 SWAP1 KECCAK256 SLOAD DUP2 JUMP JUMPDEST CALLVALUE DUP1 ISZERO PUSH2 0x7FD JUMPI PUSH1 0x0 DUP1 REVERT JUMPDEST POP PUSH2 0x271 PUSH2 0x80C CALLDATASIZE PUSH1 0x4 PUSH2 0x3ED7 JUMP JUMPDEST PUSH2 0x17D7 JUMP JUMPDEST PUSH2 0x271 PUSH2 0x81F CALLDATASIZE PUSH1 0x4 PUSH2 0x3C66 JUMP JUMPDEST PUSH2 0x18CE JUMP JUMPDEST CALLVALUE DUP1 ISZERO PUSH2 0x830 JUMPI PUSH1 0x0 DUP1 REVERT JUMPDEST POP PUSH2 0x292 PUSH2 0x83F CALLDATASIZE PUSH1 0x4 PUSH2 0x3CCB JUMP JUMPDEST PUSH2 0x1E58 JUMP JUMPDEST CALLVALUE DUP1 ISZERO PUSH2 0x850 JUMPI PUSH1 0x0 DUP1 REVERT JUMPDEST POP PUSH2 0x271 PUSH2 0x85F CALLDATASIZE PUSH1 0x4 PUSH2 0x3F35 JUMP JUMPDEST PUSH2 0x1F0E JUMP JUMPDEST CALLVALUE DUP1 ISZERO PUSH2 0x870 JUMPI PUSH1 0x0 DUP1 REVERT JUMPDEST POP PUSH2 0x292 PUSH2 0x87F CALLDATASIZE PUSH1 0x4 PUSH2 0x3D10 JUMP JUMPDEST PUSH2 0x1F2E JUMP JUMPDEST CALLVALUE DUP1 ISZERO PUSH2 0x890 JUMPI PUSH1 0x0 DUP1 REVERT JUMPDEST POP PUSH2 0x37C PUSH2 0x89F CALLDATASIZE PUSH1 0x4 PUSH2 0x3C66 JUMP JUMPDEST PUSH1 0x0 SWAP1 DUP2 MSTORE PUSH1 0x14 PUSH1 0x20 MSTORE PUSH1 0x40 SWAP1 KECCAK256 SLOAD SWAP1 JUMP JUMPDEST CALLVALUE DUP1 ISZERO PUSH2 0x8BD JUMPI PUSH1 0x0 DUP1 REVERT JUMPDEST POP PUSH2 0x271 PUSH2 0x8CC CALLDATASIZE PUSH1 0x4 PUSH2 0x3F92 JUMP JUMPDEST PUSH2 0x1F60 JUMP JUMPDEST CALLVALUE DUP1 ISZERO PUSH2 0x8DD JUMPI PUSH1 0x0 DUP1 REVERT JUMPDEST POP PUSH2 0x292 PUSH2 0x8EC CALLDATASIZE PUSH1 0x4 PUSH2 0x3D2B JUMP JUMPDEST PUSH2 0x1FEA JUMP JUMPDEST PUSH2 0x8FC DUP4 DUP4 DUP4 PUSH2 0x201B JUMP JUMPDEST PUSH1 0x40 MLOAD PUSH4 0x36B0B4B7 PUSH1 0xE1 SHL DUP2 MSTORE PUSH1 0xE SWAP1 PUSH1 0x4 ADD SWAP1 DUP2 MSTORE PUSH1 0x40 DUP1 MLOAD PUSH1 0x20 SWAP3 DUP2 SWAP1 SUB DUP4 ADD SWAP1 KECCAK256 PUSH1 0x1 PUSH1 0x1 PUSH1 0xA0 SHL SUB DUP7 AND PUSH1 0x0 SWAP1 DUP2 MSTORE SWAP3 MSTORE SWAP1 KECCAK256 SLOAD ISZERO DUP1 ISZERO PUSH2 0x949 JUMPI POP PUSH1 0x1 PUSH1 0x1 PUSH1 0xA0 SHL SUB DUP4 AND ISZERO ISZERO JUMPDEST ISZERO PUSH2 0x98C JUMPI PUSH1 0x1 PUSH1 0xD PUSH1 0x40 MLOAD PUSH2 0x969 SWAP1 PUSH4 0x36B0B4B7 PUSH1 0xE1 SHL DUP2 MSTORE PUSH1 0x4 ADD SWAP1 JUMP JUMPDEST SWAP1 DUP2 MSTORE PUSH1 0x20 ADD PUSH1 0x40 MLOAD DUP1 SWAP2 SUB SWAP1 KECCAK256 PUSH1 0x0 DUP3 DUP3 SLOAD PUSH2 0x986 SWAP2 SWAP1 PUSH2 0x4000 JUMP JUMPDEST SWAP1 SWAP2 SSTORE POP POP JUMPDEST DUP2 PUSH1 0xE PUSH1 0x40 MLOAD PUSH2 0x9A6 SWAP1 PUSH4 0x36B0B4B7 PUSH1 0xE1 SHL DUP2 MSTORE PUSH1 0x4 ADD SWAP1 JUMP JUMPDEST SWAP1 DUP2 MSTORE PUSH1 0x20 ADD PUSH1 0x40 MLOAD DUP1 SWAP2 SUB SWAP1 KECCAK256 PUSH1 0x0 DUP6 PUSH1 0x1 PUSH1 0x1 PUSH1 0xA0 SHL SUB AND PUSH1 0x1 PUSH1 0x1 PUSH1 0xA0 SHL SUB AND DUP2 MSTORE PUSH1 0x20 ADD SWAP1 DUP2 MSTORE PUSH1 0x20 ADD PUSH1 0x0 KECCAK256 PUSH1 0x0 DUP3 DUP3 SLOAD PUSH2 0x9E6 SWAP2 SWAP1 PUSH2 0x4000 JUMP JUMPDEST SWAP1 SWAP2 SSTORE POP POP PUSH1 0x40 DUP1 MLOAD PUSH1 0x1 PUSH1 0x1 PUSH1 0xA0 SHL SUB DUP1 DUP7 AND DUP3 MSTORE PUSH1 0x20 DUP3 ADD DUP6 SWAP1 MSTORE DUP4 AND SWAP2 DUP2 ADD SWAP2 SWAP1 SWAP2 MSTORE PUSH32 0xDE49BBE8E448CDFA40E6FA0D22592BE9A03B28BA746527635DBE5235416659CF SWAP1 PUSH1 0x60 ADD JUMPDEST PUSH1 0x40 MLOAD DUP1 SWAP2 SUB SWAP1 LOG1 POP POP POP JUMP JUMPDEST DUP2 PUSH2 0xA4A DUP2 CALLER PUSH2 0xC6F JUMP JUMPDEST PUSH2 0xA53 JUMPI PUSH1 0x0 DUP1 REVERT JUMPDEST DUP2 PUSH1 0x2 DUP2 GT ISZERO PUSH2 0xA65 JUMPI PUSH2 0xA65 PUSH2 0x4013 JUMP JUMPDEST PUSH1 0x11 DUP5 PUSH1 0x40 MLOAD PUSH2 0xA75 SWAP2 SWAP1 PUSH2 0x404D JUMP JUMPDEST SWAP1 DUP2 MSTORE PUSH1 0x40 MLOAD SWAP1 DUP2 SWAP1 SUB PUSH1 0x20 ADD SWAP1 KECCAK256 SLOAD PUSH1 0xFF AND PUSH1 0x2 DUP2 GT ISZERO PUSH2 0xA99 JUMPI PUSH2 0xA99 PUSH2 0x4013 JUMP JUMPDEST SUB PUSH2 0xAD0 JUMPI PUSH1 0x40 MLOAD PUSH3 0x461BCD PUSH1 0xE5 SHL DUP2 MSTORE PUSH1 0x20 PUSH1 0x4 DUP3 ADD MSTORE PUSH1 0x2 PUSH1 0x24 DUP3 ADD MSTORE PUSH2 0x4153 PUSH1 0xF0 SHL PUSH1 0x44 DUP3 ADD MSTORE PUSH1 0x64 ADD JUMPDEST PUSH1 0x40 MLOAD DUP1 SWAP2 SUB SWAP1 REVERT JUMPDEST PUSH2 0xADA DUP4 DUP4 PUSH2 0x2070 JUMP JUMPDEST POP POP POP JUMP JUMPDEST PUSH1 0x40 MLOAD DUP1 PUSH1 0x40 ADD PUSH1 0x40 MSTORE DUP1 PUSH1 0x2 DUP2 MSTORE PUSH1 0x20 ADD PUSH2 0x6C45 PUSH1 0xF0 SHL DUP2 MSTORE POP PUSH2 0xB04 DUP2 CALLER PUSH2 0x1E58 JUMP JUMPDEST PUSH2 0xB0D JUMPI PUSH1 0x0 DUP1 REVERT JUMPDEST PUSH2 0xB15 PUSH2 0x211F JUMP JUMPDEST POP JUMP JUMPDEST PUSH1 0x0 DUP2 DUP2 MSTORE PUSH1 0x2 PUSH1 0x20 DUP2 SWAP1 MSTORE PUSH1 0x40 SWAP1 SWAP2 KECCAK256 ADD SLOAD DUP2 SWAP1 PUSH1 0x1 PUSH1 0x1 PUSH1 0xA0 SHL SUB AND CALLER EQ PUSH2 0xB54 JUMPI PUSH1 0x40 MLOAD PUSH3 0x461BCD PUSH1 0xE5 SHL DUP2 MSTORE PUSH1 0x4 ADD PUSH2 0xAC7 SWAP1 PUSH2 0x4069 JUMP JUMPDEST DUP2 PUSH2 0xB6E DUP2 PUSH1 0x0 DUP1 SLOAD SWAP2 DUP2 MSTORE PUSH1 0x6 PUSH1 0x20 MSTORE PUSH1 0x40 SWAP1 KECCAK256 SLOAD GT SWAP1 JUMP JUMPDEST PUSH2 0xB8A JUMPI PUSH1 0x40 MLOAD PUSH3 0x461BCD PUSH1 0xE5 SHL DUP2 MSTORE PUSH1 0x4 ADD PUSH2 0xAC7 SWAP1 PUSH2 0x4085 JUMP JUMPDEST PUSH1 0x0 DUP4 DUP2 MSTORE PUSH1 0x4 PUSH1 0x20 MSTORE PUSH1 0x40 SWAP1 KECCAK256 SLOAD PUSH1 0xFF AND PUSH2 0xBCD JUMPI PUSH1 0x40 MLOAD PUSH3 0x461BCD PUSH1 0xE5 SHL DUP2 MSTORE PUSH1 0x20 PUSH1 0x4 DUP3 ADD MSTORE PUSH1 0x2 PUSH1 0x24 DUP3 ADD MSTORE PUSH2 0x4E53 PUSH1 0xF0 SHL PUSH1 0x44 DUP3 ADD MSTORE PUSH1 0x64 ADD PUSH2 0xAC7 JUMP JUMPDEST PUSH2 0xADA DUP4 PUSH2 0x2171 JUMP JUMPDEST PUSH1 0x0 PUSH1 0xD DUP3 PUSH1 0x40 MLOAD PUSH2 0xBE8 SWAP2 SWAP1 PUSH2 0x404D JUMP JUMPDEST SWAP1 DUP2 MSTORE PUSH1 0x20 ADD PUSH1 0x40 MLOAD DUP1 SWAP2 SUB SWAP1 KECCAK256 SLOAD PUSH1 0x0 EQ DUP1 ISZERO PUSH2 0xC2E JUMPI POP PUSH1 0xE DUP3 PUSH1 0x40 MLOAD PUSH2 0xC11 SWAP2 SWAP1 PUSH2 0x404D JUMP JUMPDEST SWAP1 DUP2 MSTORE PUSH1 0x40 DUP1 MLOAD PUSH1 0x20 SWAP3 DUP2 SWAP1 SUB DUP4 ADD SWAP1 KECCAK256 PUSH1 0x0 DUP1 DUP1 MSTORE SWAP3 MSTORE SWAP1 KECCAK256 SLOAD ISZERO JUMPDEST SWAP3 SWAP2 POP POP JUMP JUMPDEST PUSH1 0x40 MLOAD DUP1 PUSH1 0x40 ADD PUSH1 0x40 MSTORE DUP1 PUSH1 0x2 DUP2 MSTORE PUSH1 0x20 ADD PUSH2 0x1911 PUSH1 0xF2 SHL DUP2 MSTORE POP PUSH2 0xC59 DUP2 CALLER PUSH2 0x1E58 JUMP JUMPDEST PUSH2 0xC62 JUMPI PUSH1 0x0 DUP1 REVERT JUMPDEST PUSH2 0xC6B DUP3 PUSH2 0x21C0 JUMP JUMPDEST POP POP JUMP JUMPDEST PUSH1 0x0 PUSH2 0xC7A DUP3 PUSH2 0x1F2E JUMP JUMPDEST DUP1 PUSH2 0xC87 JUMPI POP PUSH1 0xB SLOAD PUSH1 0xFF AND JUMPDEST PUSH2 0xC93 JUMPI POP PUSH1 0x0 PUSH2 0xC2E JUMP JUMPDEST PUSH1 0x2 PUSH1 0x10 DUP5 PUSH1 0x40 MLOAD PUSH2 0xCA5 SWAP2 SWAP1 PUSH2 0x404D JUMP JUMPDEST SWAP1 DUP2 MSTORE PUSH1 0x40 DUP1 MLOAD PUSH1 0x20 SWAP3 DUP2 SWAP1 SUB DUP4 ADD SWAP1 KECCAK256 PUSH1 0x1 PUSH1 0x1 PUSH1 0xA0 SHL SUB DUP7 AND PUSH1 0x0 SWAP1 DUP2 MSTORE SWAP3 MSTORE SWAP1 KECCAK256 SLOAD PUSH1 0xFF AND PUSH1 0x2 DUP2 GT ISZERO PUSH2 0xCDE JUMPI PUSH2 0xCDE PUSH2 0x4013 JUMP JUMPDEST EQ DUP1 PUSH2 0xD1D JUMPI POP PUSH1 0x2 PUSH1 0x11 DUP5 PUSH1 0x40 MLOAD PUSH2 0xCF7 SWAP2 SWAP1 PUSH2 0x404D JUMP JUMPDEST SWAP1 DUP2 MSTORE PUSH1 0x40 MLOAD SWAP1 DUP2 SWAP1 SUB PUSH1 0x20 ADD SWAP1 KECCAK256 SLOAD PUSH1 0xFF AND PUSH1 0x2 DUP2 GT ISZERO PUSH2 0xD1B JUMPI PUSH2 0xD1B PUSH2 0x4013 JUMP JUMPDEST EQ JUMPDEST SWAP4 SWAP3 POP POP POP JUMP JUMPDEST PUSH1 0x0 PUSH1 0xE DUP4 PUSH1 0x40 MLOAD PUSH2 0xD36 SWAP2 SWAP1 PUSH2 0x404D JUMP JUMPDEST SWAP1 DUP2 MSTORE PUSH1 0x40 DUP1 MLOAD SWAP2 DUP3 SWAP1 SUB PUSH1 0x20 SWAP1 DUP2 ADD SWAP1 SWAP3 KECCAK256 PUSH1 0x1 PUSH1 0x1 PUSH1 0xA0 SHL SUB DUP6 AND PUSH1 0x0 SWAP1 DUP2 MSTORE SWAP3 MSTORE SWAP1 KECCAK256 SLOAD SWAP1 POP SWAP3 SWAP2 POP POP JUMP JUMPDEST PUSH1 0x40 MLOAD DUP1 PUSH1 0x40 ADD PUSH1 0x40 MSTORE DUP1 PUSH1 0x2 DUP2 MSTORE PUSH1 0x20 ADD PUSH2 0x36A1 PUSH1 0xF1 SHL DUP2 MSTORE POP PUSH2 0xD8A DUP2 CALLER PUSH2 0x1E58 JUMP JUMPDEST PUSH2 0xD93 JUMPI PUSH1 0x0 DUP1 REVERT JUMPDEST PUSH1 0x1 DUP1 SLOAD PUSH1 0xFF AND ISZERO ISZERO EQ PUSH2 0xDB9 JUMPI PUSH1 0x40 MLOAD PUSH3 0x461BCD PUSH1 0xE5 SHL DUP2 MSTORE PUSH1 0x4 ADD PUSH2 0xAC7 SWAP1 PUSH2 0x40A1 JUMP JUMPDEST PUSH2 0xADA DUP4 DUP4 PUSH2 0x22AB JUMP JUMPDEST PUSH1 0x40 MLOAD DUP1 PUSH1 0x40 ADD PUSH1 0x40 MSTORE DUP1 PUSH1 0x2 DUP2 MSTORE PUSH1 0x20 ADD PUSH2 0x36A1 PUSH1 0xF1 SHL DUP2 MSTORE POP PUSH2 0xDE8 DUP2 CALLER PUSH2 0xC6F JUMP JUMPDEST PUSH2 0xDF1 JUMPI PUSH1 0x0 DUP1 REVERT JUMPDEST DUP3 PUSH2 0xDFC DUP2 CALLER PUSH2 0x16A6 JUMP JUMPDEST PUSH2 0xE05 JUMPI PUSH1 0x0 DUP1 REVERT JUMPDEST PUSH2 0xE0F DUP5 DUP5 PUSH2 0x23BD JUMP JUMPDEST POP POP POP POP JUMP JUMPDEST PUSH2 0xE1E CALLER PUSH2 0x1F2E JUMP JUMPDEST PUSH2 0xE4F JUMPI PUSH1 0x40 MLOAD PUSH3 0x461BCD PUSH1 0xE5 SHL DUP2 MSTORE PUSH1 0x20 PUSH1 0x4 DUP3 ADD MSTORE PUSH1 0x2 PUSH1 0x24 DUP3 ADD MSTORE PUSH2 0xAA9 PUSH1 0xF3 SHL PUSH1 0x44 DUP3 ADD MSTORE PUSH1 0x64 ADD PUSH2 0xAC7 JUMP JUMPDEST PUSH2 0xE58 DUP2 PUSH2 0x1405 JUMP JUMPDEST PUSH2 0xE74 JUMPI PUSH1 0x40 MLOAD PUSH3 0x461BCD PUSH1 0xE5 SHL DUP2 MSTORE PUSH1 0x4 ADD PUSH2 0xAC7 SWAP1 PUSH2 0x40BD JUMP JUMPDEST CALLER PUSH1 0x0 SWAP1 DUP2 MSTORE PUSH1 0x3 PUSH1 0x20 SWAP1 DUP2 MSTORE PUSH1 0x40 DUP1 DUP4 KECCAK256 SLOAD PUSH1 0x1 PUSH1 0x1 PUSH1 0xA0 SHL SUB DUP6 AND DUP5 MSTORE PUSH1 0xA DUP4 MSTORE DUP2 DUP5 KECCAK256 DUP2 DUP6 MSTORE SWAP1 SWAP3 MSTORE SWAP1 SWAP2 KECCAK256 SLOAD PUSH1 0xFF AND ISZERO PUSH2 0xED9 JUMPI PUSH1 0x40 MLOAD PUSH3 0x461BCD PUSH1 0xE5 SHL DUP2 MSTORE PUSH1 0x20 PUSH1 0x4 DUP3 ADD MSTORE PUSH1 0x2 PUSH1 0x24 DUP3 ADD MSTORE PUSH2 0x4143 PUSH1 0xF0 SHL PUSH1 0x44 DUP3 ADD MSTORE PUSH1 0x64 ADD PUSH2 0xAC7 JUMP JUMPDEST PUSH1 0x1 PUSH1 0x1 PUSH1 0xA0 SHL SUB DUP3 AND PUSH1 0x0 DUP2 DUP2 MSTORE PUSH1 0xA PUSH1 0x20 SWAP1 DUP2 MSTORE PUSH1 0x40 DUP1 DUP4 KECCAK256 DUP6 DUP5 MSTORE DUP3 MSTORE DUP1 DUP4 KECCAK256 DUP1 SLOAD PUSH1 0xFF NOT AND PUSH1 0x1 SWAP1 DUP2 OR SWAP1 SWAP2 SSTORE PUSH1 0x2 DUP4 MSTORE DUP2 DUP5 KECCAK256 SWAP1 DUP2 ADD SLOAD SWAP1 SLOAD SWAP5 DUP5 MSTORE PUSH1 0x8 SWAP1 SWAP3 MSTORE DUP3 KECCAK256 SLOAD SWAP2 SWAP3 SWAP1 SWAP2 PUSH2 0xF30 SWAP2 SWAP1 PUSH2 0x40D9 JUMP JUMPDEST PUSH2 0xF3A SWAP2 SWAP1 PUSH2 0x4106 JUMP JUMPDEST SWAP1 POP DUP1 PUSH1 0x0 SUB PUSH2 0xF66 JUMPI PUSH1 0x40 MLOAD PUSH3 0x461BCD PUSH1 0xE5 SHL DUP2 MSTORE PUSH1 0x20 PUSH1 0x4 DUP3 ADD MSTORE PUSH1 0x0 PUSH1 0x24 DUP3 ADD MSTORE PUSH1 0x44 ADD PUSH2 0xAC7 JUMP JUMPDEST PUSH1 0x1 PUSH1 0x1 PUSH1 0xA0 SHL SUB DUP4 AND PUSH1 0x0 SWAP1 DUP2 MSTORE PUSH1 0x9 PUSH1 0x20 MSTORE PUSH1 0x40 DUP2 KECCAK256 DUP1 SLOAD DUP4 SWAP3 SWAP1 PUSH2 0xF8E SWAP1 DUP5 SWAP1 PUSH2 0x411A JUMP JUMPDEST SWAP1 SWAP2 SSTORE POP PUSH2 0xF9F SWAP1 POP DUP4 DUP3 CALLER PUSH2 0x2479 JUMP JUMPDEST PUSH1 0x40 DUP1 MLOAD PUSH1 0x1 PUSH1 0x1 PUSH1 0xA0 SHL SUB DUP6 AND DUP2 MSTORE PUSH1 0x20 DUP2 ADD DUP4 SWAP1 MSTORE CALLER SWAP2 DUP2 ADD SWAP2 SWAP1 SWAP2 MSTORE PUSH32 0x1397D005A56670CBE383372BD4743EAA779AF18164D00DC6D12A6659418E1BBF SWAP1 PUSH1 0x60 ADD PUSH2 0xA32 JUMP JUMPDEST PUSH1 0x0 DUP3 DUP2 MSTORE PUSH1 0x2 PUSH1 0x20 DUP2 SWAP1 MSTORE PUSH1 0x40 SWAP1 SWAP2 KECCAK256 ADD SLOAD DUP3 SWAP1 PUSH1 0x1 PUSH1 0x1 PUSH1 0xA0 SHL SUB AND CALLER EQ PUSH2 0x1024 JUMPI PUSH1 0x40 MLOAD PUSH3 0x461BCD PUSH1 0xE5 SHL DUP2 MSTORE PUSH1 0x4 ADD PUSH2 0xAC7 SWAP1 PUSH2 0x4069 JUMP JUMPDEST PUSH1 0x0 DUP3 DUP2 MSTORE PUSH1 0x12 PUSH1 0x20 MSTORE PUSH1 0x40 SWAP1 KECCAK256 SLOAD DUP3 SWAP1 PUSH1 0xFF AND PUSH2 0x1041 JUMPI PUSH1 0x0 DUP1 REVERT JUMPDEST PUSH1 0x1 DUP1 SLOAD PUSH1 0xFF AND ISZERO ISZERO EQ PUSH2 0x1067 JUMPI PUSH1 0x40 MLOAD PUSH3 0x461BCD PUSH1 0xE5 SHL DUP2 MSTORE PUSH1 0x4 ADD PUSH2 0xAC7 SWAP1 PUSH2 0x40A1 JUMP JUMPDEST PUSH2 0x1071 DUP5 DUP5 PUSH2 0x1FEA JUMP JUMPDEST PUSH2 0x10A3 JUMPI PUSH1 0x40 MLOAD PUSH3 0x461BCD PUSH1 0xE5 SHL DUP2 MSTORE PUSH1 0x20 PUSH1 0x4 DUP3 ADD MSTORE PUSH1 0x3 PUSH1 0x24 DUP3 ADD MSTORE PUSH3 0x2720A3 PUSH1 0xE9 SHL PUSH1 0x44 DUP3 ADD MSTORE PUSH1 0x64 ADD PUSH2 0xAC7 JUMP JUMPDEST PUSH1 0x0 DUP4 DUP2 MSTORE PUSH1 0x15 PUSH1 0x20 SWAP1 DUP2 MSTORE PUSH1 0x40 DUP1 DUP4 KECCAK256 DUP8 DUP5 MSTORE SWAP1 SWAP2 MSTORE SWAP1 KECCAK256 SLOAD PUSH1 0xFF AND ISZERO PUSH2 0x10F2 JUMPI PUSH1 0x40 MLOAD PUSH3 0x461BCD PUSH1 0xE5 SHL DUP2 MSTORE PUSH1 0x20 PUSH1 0x4 DUP3 ADD MSTORE PUSH1 0x2 PUSH1 0x24 DUP3 ADD MSTORE PUSH2 0x4143 PUSH1 0xF0 SHL PUSH1 0x44 DUP3 ADD MSTORE PUSH1 0x64 ADD PUSH2 0xAC7 JUMP JUMPDEST PUSH1 0x0 DUP4 DUP2 MSTORE PUSH1 0x15 PUSH1 0x20 SWAP1 DUP2 MSTORE PUSH1 0x40 DUP1 DUP4 KECCAK256 DUP8 DUP5 MSTORE DUP3 MSTORE DUP1 DUP4 KECCAK256 DUP1 SLOAD PUSH1 0xFF NOT AND PUSH1 0x1 SWAP1 DUP2 OR SWAP1 SWAP2 SSTORE PUSH1 0x2 DUP4 MSTORE DUP2 DUP5 KECCAK256 DUP1 DUP3 ADD SLOAD SWAP1 SLOAD DUP9 DUP7 MSTORE PUSH1 0x13 SWAP1 SWAP5 MSTORE SWAP2 DUP5 KECCAK256 ADD SLOAD SWAP1 SWAP2 PUSH2 0x113E SWAP2 PUSH2 0x40D9 JUMP JUMPDEST PUSH2 0x1148 SWAP2 SWAP1 PUSH2 0x4106 JUMP JUMPDEST SWAP1 POP DUP1 PUSH1 0x0 SUB PUSH2 0x1180 JUMPI PUSH1 0x40 MLOAD PUSH3 0x461BCD PUSH1 0xE5 SHL DUP2 MSTORE PUSH1 0x20 PUSH1 0x4 DUP3 ADD MSTORE PUSH1 0x3 PUSH1 0x24 DUP3 ADD MSTORE PUSH3 0x445453 PUSH1 0xE8 SHL PUSH1 0x44 DUP3 ADD MSTORE PUSH1 0x64 ADD PUSH2 0xAC7 JUMP JUMPDEST PUSH1 0x0 DUP5 DUP2 MSTORE PUSH1 0x14 PUSH1 0x20 MSTORE PUSH1 0x40 DUP2 KECCAK256 DUP1 SLOAD DUP4 SWAP3 SWAP1 PUSH2 0x119E SWAP1 DUP5 SWAP1 PUSH2 0x411A JUMP JUMPDEST SWAP1 SWAP2 SSTORE POP POP PUSH1 0x0 DUP5 DUP2 MSTORE PUSH1 0x13 PUSH1 0x20 MSTORE PUSH1 0x40 SWAP1 KECCAK256 SLOAD PUSH2 0x11C6 SWAP1 PUSH1 0x1 PUSH1 0x1 PUSH1 0xA0 SHL SUB AND DUP3 CALLER PUSH2 0x2479 JUMP JUMPDEST PUSH1 0x40 DUP1 MLOAD PUSH1 0x20 DUP2 ADD DUP7 SWAP1 MSTORE SWAP1 DUP2 ADD DUP3 SWAP1 MSTORE PUSH1 0x0 DUP1 MLOAD PUSH1 0x20 PUSH2 0x45EE DUP4 CODECOPY DUP2 MLOAD SWAP2 MSTORE SWAP1 PUSH1 0x60 ADD PUSH1 0x40 DUP1 MLOAD PUSH1 0x1F NOT DUP2 DUP5 SUB ADD DUP2 MSTORE SWAP1 DUP3 SWAP1 MSTORE PUSH2 0x1206 SWAP2 CALLER SWAP1 PUSH2 0x4159 JUMP JUMPDEST PUSH1 0x40 MLOAD DUP1 SWAP2 SUB SWAP1 LOG1 POP POP POP POP POP JUMP JUMPDEST PUSH1 0x40 MLOAD DUP1 PUSH1 0x40 ADD PUSH1 0x40 MSTORE DUP1 PUSH1 0x2 DUP2 MSTORE PUSH1 0x20 ADD PUSH2 0x36A1 PUSH1 0xF1 SHL DUP2 MSTORE POP PUSH2 0x123A DUP2 CALLER PUSH2 0xC6F JUMP JUMPDEST PUSH2 0x1243 JUMPI PUSH1 0x0 DUP1 REVERT JUMPDEST DUP2 PUSH2 0x124E DUP2 CALLER PUSH2 0x16A6 JUMP JUMPDEST PUSH2 0x1257 JUMPI PUSH1 0x0 DUP1 REVERT JUMPDEST PUSH2 0xADA DUP4 PUSH2 0x26A5 JUMP JUMPDEST PUSH1 0x0 DUP3 DUP2 MSTORE PUSH1 0x2 PUSH1 0x20 DUP2 SWAP1 MSTORE PUSH1 0x40 SWAP1 SWAP2 KECCAK256 ADD SLOAD DUP3 SWAP1 PUSH1 0x1 PUSH1 0x1 PUSH1 0xA0 SHL SUB AND CALLER EQ PUSH2 0x129C JUMPI PUSH1 0x40 MLOAD PUSH3 0x461BCD PUSH1 0xE5 SHL DUP2 MSTORE PUSH1 0x4 ADD PUSH2 0xAC7 SWAP1 PUSH2 0x4069 JUMP JUMPDEST DUP3 PUSH2 0x12B6 DUP2 PUSH1 0x0 DUP1 SLOAD SWAP2 DUP2 MSTORE PUSH1 0x6 PUSH1 0x20 MSTORE PUSH1 0x40 SWAP1 KECCAK256 SLOAD GT SWAP1 JUMP JUMPDEST PUSH2 0x12D2 JUMPI PUSH1 0x40 MLOAD PUSH3 0x461BCD PUSH1 0xE5 SHL DUP2 MSTORE PUSH1 0x4 ADD PUSH2 0xAC7 SWAP1 PUSH2 0x4085 JUMP JUMPDEST PUSH2 0xE0F DUP5 DUP5 PUSH2 0x282A JUMP JUMPDEST PUSH1 0x40 MLOAD DUP1 PUSH1 0x40 ADD PUSH1 0x40 MSTORE DUP1 PUSH1 0x2 DUP2 MSTORE PUSH1 0x20 ADD PUSH2 0x1A51 PUSH1 0xF2 SHL DUP2 MSTORE POP PUSH2 0x1301 DUP2 CALLER PUSH2 0x1E58 JUMP JUMPDEST PUSH2 0x130A JUMPI PUSH1 0x0 DUP1 REVERT JUMPDEST DUP4 PUSH2 0x1315 DUP2 CALLER PUSH2 0x16A6 JUMP JUMPDEST PUSH2 0x131E JUMPI PUSH1 0x0 DUP1 REVERT JUMPDEST PUSH2 0x1329 DUP6 DUP6 DUP6 PUSH2 0x29B1 JUMP JUMPDEST POP POP POP POP POP JUMP JUMPDEST PUSH1 0x40 MLOAD DUP1 PUSH1 0x40 ADD PUSH1 0x40 MSTORE DUP1 PUSH1 0x3 DUP2 MSTORE PUSH1 0x20 ADD PUSH3 0x734E53 PUSH1 0xE8 SHL DUP2 MSTORE POP PUSH2 0x1356 DUP2 CALLER PUSH2 0x1E58 JUMP JUMPDEST PUSH2 0x135F JUMPI PUSH1 0x0 DUP1 REVERT JUMPDEST PUSH1 0xB SLOAD DUP3 ISZERO ISZERO PUSH1 0xFF SWAP1 SWAP2 AND ISZERO ISZERO SUB PUSH2 0x139E JUMPI PUSH1 0x40 MLOAD PUSH3 0x461BCD PUSH1 0xE5 SHL DUP2 MSTORE PUSH1 0x20 PUSH1 0x4 DUP3 ADD MSTORE PUSH1 0x2 PUSH1 0x24 DUP3 ADD MSTORE PUSH2 0x4153 PUSH1 0xF0 SHL PUSH1 0x44 DUP3 ADD MSTORE PUSH1 0x64 ADD PUSH2 0xAC7 JUMP JUMPDEST PUSH2 0xC6B DUP3 PUSH2 0x2BAD JUMP JUMPDEST PUSH1 0x40 MLOAD DUP1 PUSH1 0x40 ADD PUSH1 0x40 MSTORE DUP1 PUSH1 0x3 DUP2 MSTORE PUSH1 0x20 ADD PUSH3 0x1B5055 PUSH1 0xEA SHL DUP2 MSTORE POP PUSH2 0x13CD DUP2 CALLER PUSH2 0x1E58 JUMP JUMPDEST PUSH2 0x13D6 JUMPI PUSH1 0x0 DUP1 REVERT JUMPDEST PUSH1 0x1 DUP1 SLOAD PUSH1 0xFF AND ISZERO ISZERO EQ PUSH2 0x13FC JUMPI PUSH1 0x40 MLOAD PUSH3 0x461BCD PUSH1 0xE5 SHL DUP2 MSTORE PUSH1 0x4 ADD PUSH2 0xAC7 SWAP1 PUSH2 0x40A1 JUMP JUMPDEST PUSH2 0xC6B DUP3 PUSH2 0x2C1D JUMP JUMPDEST PUSH1 0x1 PUSH1 0x1 PUSH1 0xA0 SHL SUB DUP2 AND PUSH1 0x0 SWAP1 DUP2 MSTORE PUSH1 0x7 PUSH1 0x20 MSTORE PUSH1 0x40 DUP2 KECCAK256 SLOAD PUSH1 0xFF AND ISZERO ISZERO PUSH1 0x1 EQ DUP1 PUSH2 0xC2E JUMPI POP POP PUSH1 0x1 PUSH1 0x1 PUSH1 0xA0 SHL SUB AND ISZERO SWAP1 JUMP JUMPDEST PUSH1 0x40 MLOAD DUP1 PUSH1 0x40 ADD PUSH1 0x40 MSTORE DUP1 PUSH1 0x3 DUP2 MSTORE PUSH1 0x20 ADD PUSH3 0x1B5055 PUSH1 0xEA SHL DUP2 MSTORE POP PUSH2 0x1460 DUP2 CALLER PUSH2 0x1E58 JUMP JUMPDEST PUSH2 0x1469 JUMPI PUSH1 0x0 DUP1 REVERT JUMPDEST PUSH1 0x1 DUP1 SLOAD PUSH1 0xFF AND ISZERO ISZERO EQ PUSH2 0x148F JUMPI PUSH1 0x40 MLOAD PUSH3 0x461BCD PUSH1 0xE5 SHL DUP2 MSTORE PUSH1 0x4 ADD PUSH2 0xAC7 SWAP1 PUSH2 0x40A1 JUMP JUMPDEST PUSH2 0xC6B DUP3 PUSH2 0x2C66 JUMP JUMPDEST PUSH1 0x0 DUP5 DUP2 MSTORE PUSH1 0x2 PUSH1 0x20 DUP2 SWAP1 MSTORE PUSH1 0x40 SWAP1 SWAP2 KECCAK256 ADD SLOAD DUP5 SWAP1 PUSH1 0x1 PUSH1 0x1 PUSH1 0xA0 SHL SUB AND CALLER EQ PUSH2 0x14D4 JUMPI PUSH1 0x40 MLOAD PUSH3 0x461BCD PUSH1 0xE5 SHL DUP2 MSTORE PUSH1 0x4 ADD PUSH2 0xAC7 SWAP1 PUSH2 0x4069 JUMP JUMPDEST DUP5 PUSH2 0x14EE DUP2 PUSH1 0x0 DUP1 SLOAD SWAP2 DUP2 MSTORE PUSH1 0x6 PUSH1 0x20 MSTORE PUSH1 0x40 SWAP1 KECCAK256 SLOAD GT SWAP1 JUMP JUMPDEST PUSH2 0x150A JUMPI PUSH1 0x40 MLOAD PUSH3 0x461BCD PUSH1 0xE5 SHL DUP2 MSTORE PUSH1 0x4 ADD PUSH2 0xAC7 SWAP1 PUSH2 0x4085 JUMP JUMPDEST PUSH2 0x1516 DUP7 DUP7 DUP7 DUP7 PUSH2 0x2CAF JUMP JUMPDEST POP POP POP POP POP POP JUMP JUMPDEST PUSH2 0x1527 DUP3 PUSH2 0x1405 JUMP JUMPDEST PUSH2 0x1543 JUMPI PUSH1 0x40 MLOAD PUSH3 0x461BCD PUSH1 0xE5 SHL DUP2 MSTORE PUSH1 0x4 ADD PUSH2 0xAC7 SWAP1 PUSH2 0x40BD JUMP JUMPDEST PUSH1 0x40 MLOAD PUSH4 0x6EB1769F PUSH1 0xE1 SHL DUP2 MSTORE CALLER PUSH1 0x4 DUP3 ADD MSTORE ADDRESS PUSH1 0x24 DUP3 ADD MSTORE DUP3 SWAP1 DUP3 SWAP1 PUSH1 0x1 PUSH1 0x1 PUSH1 0xA0 SHL SUB DUP4 AND SWAP1 PUSH4 0xDD62ED3E SWAP1 PUSH1 0x44 ADD PUSH1 0x20 PUSH1 0x40 MLOAD DUP1 DUP4 SUB DUP2 DUP7 GAS STATICCALL ISZERO DUP1 ISZERO PUSH2 0x1591 JUMPI RETURNDATASIZE PUSH1 0x0 DUP1 RETURNDATACOPY RETURNDATASIZE PUSH1 0x0 REVERT JUMPDEST POP POP POP POP PUSH1 0x40 MLOAD RETURNDATASIZE PUSH1 0x1F NOT PUSH1 0x1F DUP3 ADD AND DUP3 ADD DUP1 PUSH1 0x40 MSTORE POP DUP2 ADD SWAP1 PUSH2 0x15B5 SWAP2 SWAP1 PUSH2 0x419C JUMP JUMPDEST LT ISZERO PUSH2 0x15D3 JUMPI PUSH1 0x40 MLOAD PUSH3 0x461BCD PUSH1 0xE5 SHL DUP2 MSTORE PUSH1 0x4 ADD PUSH2 0xAC7 SWAP1 PUSH2 0x41B5 JUMP JUMPDEST PUSH1 0x40 MLOAD PUSH4 0x23B872DD PUSH1 0xE0 SHL DUP2 MSTORE CALLER PUSH1 0x4 DUP3 ADD MSTORE ADDRESS PUSH1 0x24 DUP3 ADD MSTORE PUSH1 0x44 DUP2 ADD DUP4 SWAP1 MSTORE PUSH1 0x1 PUSH1 0x1 PUSH1 0xA0 SHL SUB DUP3 AND SWAP1 PUSH4 0x23B872DD SWAP1 PUSH1 0x64 ADD PUSH1 0x20 PUSH1 0x40 MLOAD DUP1 DUP4 SUB DUP2 PUSH1 0x0 DUP8 GAS CALL ISZERO DUP1 ISZERO PUSH2 0x1626 JUMPI RETURNDATASIZE PUSH1 0x0 DUP1 RETURNDATACOPY RETURNDATASIZE PUSH1 0x0 REVERT JUMPDEST POP POP POP POP PUSH1 0x40 MLOAD RETURNDATASIZE PUSH1 0x1F NOT PUSH1 0x1F DUP3 ADD AND DUP3 ADD DUP1 PUSH1 0x40 MSTORE POP DUP2 ADD SWAP1 PUSH2 0x164A SWAP2 SWAP1 PUSH2 0x41D1 JUMP JUMPDEST PUSH2 0x167B JUMPI PUSH1 0x40 MLOAD PUSH3 0x461BCD PUSH1 0xE5 SHL DUP2 MSTORE PUSH1 0x20 PUSH1 0x4 DUP3 ADD MSTORE PUSH1 0x2 PUSH1 0x24 DUP3 ADD MSTORE PUSH2 0x1395 PUSH1 0xF2 SHL PUSH1 0x44 DUP3 ADD MSTORE PUSH1 0x64 ADD PUSH2 0xAC7 JUMP JUMPDEST PUSH2 0xADA DUP4 DUP4 CALLER PUSH2 0x8F1 JUMP JUMPDEST DUP4 PUSH2 0x1691 DUP2 CALLER PUSH2 0x16A6 JUMP JUMPDEST PUSH2 0x169A JUMPI PUSH1 0x0 DUP1 REVERT JUMPDEST PUSH2 0x1329 DUP6 DUP6 DUP6 DUP6 PUSH2 0x2E9A JUMP JUMPDEST PUSH1 0x0 PUSH1 0xF DUP4 PUSH1 0x40 MLOAD PUSH2 0x16B8 SWAP2 SWAP1 PUSH2 0x404D JUMP JUMPDEST SWAP1 DUP2 MSTORE PUSH1 0x40 DUP1 MLOAD SWAP2 DUP3 SWAP1 SUB PUSH1 0x20 SWAP1 DUP2 ADD SWAP1 SWAP3 KECCAK256 PUSH1 0x1 PUSH1 0x1 PUSH1 0xA0 SHL SUB DUP6 AND PUSH1 0x0 SWAP1 DUP2 MSTORE SWAP3 MSTORE SWAP1 KECCAK256 SLOAD PUSH1 0xFF AND ISZERO ISZERO PUSH1 0x1 EQ DUP1 PUSH2 0xD1D JUMPI POP PUSH2 0xD1D PUSH1 0x40 MLOAD DUP1 PUSH1 0x40 ADD PUSH1 0x40 MSTORE DUP1 PUSH1 0x2 DUP2 MSTORE PUSH1 0x20 ADD PUSH2 0x36A1 PUSH1 0xF1 SHL DUP2 MSTORE POP DUP4 PUSH2 0xC6F JUMP JUMPDEST PUSH1 0x40 MLOAD DUP1 PUSH1 0x40 ADD PUSH1 0x40 MSTORE DUP1 PUSH1 0x2 DUP2 MSTORE PUSH1 0x20 ADD PUSH2 0x36A1 PUSH1 0xF1 SHL DUP2 MSTORE POP PUSH2 0x1736 DUP2 CALLER PUSH2 0x1E58 JUMP JUMPDEST PUSH2 0x173F JUMPI PUSH1 0x0 DUP1 REVERT JUMPDEST DUP3 PUSH2 0x174A DUP2 CALLER PUSH2 0x16A6 JUMP JUMPDEST PUSH2 0x1753 JUMPI PUSH1 0x0 DUP1 REVERT JUMPDEST PUSH2 0x175C DUP4 PUSH2 0x1F2E JUMP JUMPDEST DUP1 PUSH2 0x1769 JUMPI POP PUSH1 0xB SLOAD PUSH1 0xFF AND JUMPDEST PUSH2 0x179D JUMPI PUSH1 0x40 MLOAD PUSH3 0x461BCD PUSH1 0xE5 SHL DUP2 MSTORE PUSH1 0x20 PUSH1 0x4 DUP3 ADD MSTORE PUSH1 0x5 PUSH1 0x24 DUP3 ADD MSTORE PUSH5 0x4E53484E41 PUSH1 0xD8 SHL PUSH1 0x44 DUP3 ADD MSTORE PUSH1 0x64 ADD PUSH2 0xAC7 JUMP JUMPDEST PUSH2 0xE0F DUP5 DUP5 PUSH2 0x312E JUMP JUMPDEST PUSH1 0x0 PUSH1 0xC DUP3 PUSH1 0x40 MLOAD PUSH2 0x17B9 SWAP2 SWAP1 PUSH2 0x404D JUMP JUMPDEST SWAP1 DUP2 MSTORE PUSH1 0x40 MLOAD SWAP1 DUP2 SWAP1 SUB PUSH1 0x20 ADD SWAP1 KECCAK256 SLOAD PUSH1 0xFF AND ISZERO ISZERO PUSH1 0x1 EQ SWAP3 SWAP2 POP POP JUMP JUMPDEST DUP3 PUSH2 0x17E2 DUP2 CALLER PUSH2 0xC6F JUMP JUMPDEST PUSH2 0x17EB JUMPI PUSH1 0x0 DUP1 REVERT JUMPDEST PUSH2 0x17F4 DUP4 PUSH2 0x1F2E JUMP JUMPDEST DUP1 PUSH2 0x1801 JUMPI POP PUSH1 0xB SLOAD PUSH1 0xFF AND JUMPDEST PUSH2 0x1835 JUMPI PUSH1 0x40 MLOAD PUSH3 0x461BCD PUSH1 0xE5 SHL DUP2 MSTORE PUSH1 0x20 PUSH1 0x4 DUP3 ADD MSTORE PUSH1 0x5 PUSH1 0x24 DUP3 ADD MSTORE PUSH5 0x4E53484E41 PUSH1 0xD8 SHL PUSH1 0x44 DUP3 ADD MSTORE PUSH1 0x64 ADD PUSH2 0xAC7 JUMP JUMPDEST DUP2 PUSH1 0x2 DUP2 GT ISZERO PUSH2 0x1847 JUMPI PUSH2 0x1847 PUSH2 0x4013 JUMP JUMPDEST PUSH1 0x10 DUP6 PUSH1 0x40 MLOAD PUSH2 0x1857 SWAP2 SWAP1 PUSH2 0x404D JUMP JUMPDEST SWAP1 DUP2 MSTORE PUSH1 0x40 DUP1 MLOAD PUSH1 0x20 SWAP3 DUP2 SWAP1 SUB DUP4 ADD SWAP1 KECCAK256 PUSH1 0x1 PUSH1 0x1 PUSH1 0xA0 SHL SUB DUP8 AND PUSH1 0x0 SWAP1 DUP2 MSTORE SWAP3 MSTORE SWAP1 KECCAK256 SLOAD PUSH1 0xFF AND PUSH1 0x2 DUP2 GT ISZERO PUSH2 0x1890 JUMPI PUSH2 0x1890 PUSH2 0x4013 JUMP JUMPDEST SUB PUSH2 0x18C3 JUMPI PUSH1 0x40 MLOAD PUSH3 0x461BCD PUSH1 0xE5 SHL DUP2 MSTORE PUSH1 0x20 PUSH1 0x4 DUP3 ADD MSTORE PUSH1 0x3 PUSH1 0x24 DUP3 ADD MSTORE PUSH3 0x41485 PUSH1 0xEC SHL PUSH1 0x44 DUP3 ADD MSTORE PUSH1 0x64 ADD PUSH2 0xAC7 JUMP JUMPDEST PUSH2 0xE0F DUP5 DUP5 DUP5 PUSH2 0x322C JUMP JUMPDEST DUP1 PUSH2 0x18E8 DUP2 PUSH1 0x0 DUP1 SLOAD SWAP2 DUP2 MSTORE PUSH1 0x6 PUSH1 0x20 MSTORE PUSH1 0x40 SWAP1 KECCAK256 SLOAD GT SWAP1 JUMP JUMPDEST PUSH2 0x1904 JUMPI PUSH1 0x40 MLOAD PUSH3 0x461BCD PUSH1 0xE5 SHL DUP2 MSTORE PUSH1 0x4 ADD PUSH2 0xAC7 SWAP1 PUSH2 0x4085 JUMP JUMPDEST PUSH1 0x0 DUP3 DUP2 MSTORE PUSH1 0x4 PUSH1 0x20 MSTORE PUSH1 0x40 SWAP1 KECCAK256 SLOAD PUSH1 0xFF AND PUSH2 0x1947 JUMPI PUSH1 0x40 MLOAD PUSH3 0x461BCD PUSH1 0xE5 SHL DUP2 MSTORE PUSH1 0x20 PUSH1 0x4 DUP3 ADD MSTORE PUSH1 0x2 PUSH1 0x24 DUP3 ADD MSTORE PUSH2 0x4E53 PUSH1 0xF0 SHL PUSH1 0x44 DUP3 ADD MSTORE PUSH1 0x64 ADD PUSH2 0xAC7 JUMP JUMPDEST PUSH1 0x0 DUP3 DUP2 MSTORE PUSH1 0x5 PUSH1 0x20 MSTORE PUSH1 0x40 SWAP1 KECCAK256 PUSH1 0x4 ADD SLOAD PUSH1 0x1 PUSH1 0x1 PUSH1 0xA0 SHL SUB AND CALLER EQ DUP1 PUSH2 0x1987 JUMPI POP PUSH1 0x0 DUP3 DUP2 MSTORE PUSH1 0x5 PUSH1 0x20 MSTORE PUSH1 0x40 SWAP1 KECCAK256 PUSH1 0x4 ADD SLOAD PUSH1 0x1 PUSH1 0x1 PUSH1 0xA0 SHL SUB AND ISZERO JUMPDEST PUSH2 0x19B8 JUMPI PUSH1 0x40 MLOAD PUSH3 0x461BCD PUSH1 0xE5 SHL DUP2 MSTORE PUSH1 0x20 PUSH1 0x4 DUP3 ADD MSTORE PUSH1 0x2 PUSH1 0x24 DUP3 ADD MSTORE PUSH2 0x29A9 PUSH1 0xF1 SHL PUSH1 0x44 DUP3 ADD MSTORE PUSH1 0x64 ADD PUSH2 0xAC7 JUMP JUMPDEST PUSH2 0x19C1 DUP3 PUSH2 0x2171 JUMP JUMPDEST PUSH1 0x0 DUP3 DUP2 MSTORE PUSH1 0x5 PUSH1 0x20 MSTORE PUSH1 0x40 DUP2 KECCAK256 PUSH1 0x3 ADD SLOAD DUP2 SWAP1 DUP2 SWAP1 PUSH2 0x19E5 SWAP1 PUSH1 0x19 PUSH2 0x3E8 PUSH2 0x32E6 JUMP JUMPDEST SWAP2 SWAP5 POP SWAP3 POP SWAP1 POP PUSH2 0x19F6 DUP2 DUP4 PUSH2 0x4000 JUMP JUMPDEST PUSH1 0x0 DUP7 DUP2 MSTORE PUSH1 0x5 PUSH1 0x20 MSTORE PUSH1 0x40 SWAP1 KECCAK256 PUSH1 0x2 ADD SLOAD SWAP1 SWAP3 POP PUSH1 0x1 PUSH1 0x1 PUSH1 0xA0 SHL SUB AND PUSH2 0x1B68 JUMPI PUSH1 0x0 DUP6 DUP2 MSTORE PUSH1 0x5 PUSH1 0x20 MSTORE PUSH1 0x40 SWAP1 KECCAK256 PUSH1 0x3 ADD SLOAD CALLVALUE LT ISZERO PUSH2 0x1A5E JUMPI PUSH1 0x40 MLOAD PUSH3 0x461BCD PUSH1 0xE5 SHL DUP2 MSTORE PUSH1 0x20 PUSH1 0x4 DUP3 ADD MSTORE PUSH1 0x2 PUSH1 0x24 DUP3 ADD MSTORE PUSH2 0x4945 PUSH1 0xF0 SHL PUSH1 0x44 DUP3 ADD MSTORE PUSH1 0x64 ADD PUSH2 0xAC7 JUMP JUMPDEST PUSH1 0x40 MLOAD PUSH1 0x0 SWAP1 PUSH20 0x49A71890AEA5A751E30E740C504F2E9683F347BC SWAP1 DUP6 SWAP1 DUP4 DUP2 DUP2 DUP2 DUP6 DUP8 GAS CALL SWAP3 POP POP POP RETURNDATASIZE DUP1 PUSH1 0x0 DUP2 EQ PUSH2 0x1AB4 JUMPI PUSH1 0x40 MLOAD SWAP2 POP PUSH1 0x1F NOT PUSH1 0x3F RETURNDATASIZE ADD AND DUP3 ADD PUSH1 0x40 MSTORE RETURNDATASIZE DUP3 MSTORE RETURNDATASIZE PUSH1 0x0 PUSH1 0x20 DUP5 ADD RETURNDATACOPY PUSH2 0x1AB9 JUMP JUMPDEST PUSH1 0x60 SWAP2 POP JUMPDEST POP POP PUSH1 0x0 DUP8 DUP2 MSTORE PUSH1 0x2 PUSH1 0x20 DUP2 SWAP1 MSTORE PUSH1 0x40 DUP1 DUP4 KECCAK256 SWAP1 SWAP2 ADD SLOAD SWAP1 MLOAD SWAP3 SWAP4 POP SWAP1 SWAP2 PUSH1 0x1 PUSH1 0x1 PUSH1 0xA0 SHL SUB SWAP1 SWAP2 AND SWAP1 DUP6 SWAP1 DUP4 DUP2 DUP2 DUP2 DUP6 DUP8 GAS CALL SWAP3 POP POP POP RETURNDATASIZE DUP1 PUSH1 0x0 DUP2 EQ PUSH2 0x1B1D JUMPI PUSH1 0x40 MLOAD SWAP2 POP PUSH1 0x1F NOT PUSH1 0x3F RETURNDATASIZE ADD AND DUP3 ADD PUSH1 0x40 MSTORE RETURNDATASIZE DUP3 MSTORE RETURNDATASIZE PUSH1 0x0 PUSH1 0x20 DUP5 ADD RETURNDATACOPY PUSH2 0x1B22 JUMP JUMPDEST PUSH1 0x60 SWAP2 POP JUMPDEST POP POP SWAP1 POP DUP1 DUP1 ISZERO PUSH2 0x1B30 JUMPI POP DUP2 JUMPDEST PUSH2 0x1B61 JUMPI PUSH1 0x40 MLOAD PUSH3 0x461BCD PUSH1 0xE5 SHL DUP2 MSTORE PUSH1 0x20 PUSH1 0x4 DUP3 ADD MSTORE PUSH1 0x2 PUSH1 0x24 DUP3 ADD MSTORE PUSH2 0x2A23 PUSH1 0xF1 SHL PUSH1 0x44 DUP3 ADD MSTORE PUSH1 0x64 ADD PUSH2 0xAC7 JUMP JUMPDEST POP POP PUSH2 0x1D2E JUMP JUMPDEST PUSH1 0x0 DUP6 DUP2 MSTORE PUSH1 0x5 PUSH1 0x20 MSTORE PUSH1 0x40 SWAP1 DUP2 SWAP1 KECCAK256 PUSH1 0x2 DUP2 ADD SLOAD PUSH1 0x3 SWAP1 SWAP2 ADD SLOAD SWAP2 MLOAD PUSH4 0x6EB1769F PUSH1 0xE1 SHL DUP2 MSTORE CALLER PUSH1 0x4 DUP3 ADD MSTORE ADDRESS PUSH1 0x24 DUP3 ADD MSTORE PUSH1 0x1 PUSH1 0x1 PUSH1 0xA0 SHL SUB SWAP1 SWAP2 AND SWAP2 SWAP1 DUP3 SWAP1 PUSH4 0xDD62ED3E SWAP1 PUSH1 0x44 ADD PUSH1 0x20 PUSH1 0x40 MLOAD DUP1 DUP4 SUB DUP2 DUP7 GAS STATICCALL ISZERO DUP1 ISZERO PUSH2 0x1BD0 JUMPI RETURNDATASIZE PUSH1 0x0 DUP1 RETURNDATACOPY RETURNDATASIZE PUSH1 0x0 REVERT JUMPDEST POP POP POP POP PUSH1 0x40 MLOAD RETURNDATASIZE PUSH1 0x1F NOT PUSH1 0x1F DUP3 ADD AND DUP3 ADD DUP1 PUSH1 0x40 MSTORE POP DUP2 ADD SWAP1 PUSH2 0x1BF4 SWAP2 SWAP1 PUSH2 0x419C JUMP JUMPDEST LT ISZERO PUSH2 0x1C12 JUMPI PUSH1 0x40 MLOAD PUSH3 0x461BCD PUSH1 0xE5 SHL DUP2 MSTORE PUSH1 0x4 ADD PUSH2 0xAC7 SWAP1 PUSH2 0x41B5 JUMP JUMPDEST PUSH1 0x40 MLOAD PUSH4 0x23B872DD PUSH1 0xE0 SHL DUP2 MSTORE CALLER PUSH1 0x4 DUP3 ADD MSTORE PUSH20 0x49A71890AEA5A751E30E740C504F2E9683F347BC PUSH1 0x24 DUP3 ADD MSTORE PUSH1 0x44 DUP2 ADD DUP6 SWAP1 MSTORE PUSH1 0x1 PUSH1 0x1 PUSH1 0xA0 SHL SUB DUP3 AND SWAP1 PUSH4 0x23B872DD SWAP1 PUSH1 0x64 ADD PUSH1 0x20 PUSH1 0x40 MLOAD DUP1 DUP4 SUB DUP2 PUSH1 0x0 DUP8 GAS CALL ISZERO DUP1 ISZERO PUSH2 0x1C79 JUMPI RETURNDATASIZE PUSH1 0x0 DUP1 RETURNDATACOPY RETURNDATASIZE PUSH1 0x0 REVERT JUMPDEST POP POP POP POP PUSH1 0x40 MLOAD RETURNDATASIZE PUSH1 0x1F NOT PUSH1 0x1F DUP3 ADD AND DUP3 ADD DUP1 PUSH1 0x40 MSTORE POP DUP2 ADD SWAP1 PUSH2 0x1C9D SWAP2 SWAP1 PUSH2 0x41D1 JUMP JUMPDEST POP PUSH1 0x0 DUP7 DUP2 MSTORE PUSH1 0x2 PUSH1 0x20 DUP2 SWAP1 MSTORE PUSH1 0x40 SWAP2 DUP3 SWAP1 KECCAK256 ADD SLOAD SWAP1 MLOAD PUSH4 0x23B872DD PUSH1 0xE0 SHL DUP2 MSTORE CALLER PUSH1 0x4 DUP3 ADD MSTORE PUSH1 0x1 PUSH1 0x1 PUSH1 0xA0 SHL SUB SWAP2 DUP3 AND PUSH1 0x24 DUP3 ADD MSTORE PUSH1 0x44 DUP2 ADD DUP6 SWAP1 MSTORE SWAP1 DUP3 AND SWAP1 PUSH4 0x23B872DD SWAP1 PUSH1 0x64 ADD PUSH1 0x20 PUSH1 0x40 MLOAD DUP1 DUP4 SUB DUP2 PUSH1 0x0 DUP8 GAS CALL ISZERO DUP1 ISZERO PUSH2 0x1D07 JUMPI RETURNDATASIZE PUSH1 0x0 DUP1 RETURNDATACOPY RETURNDATASIZE PUSH1 0x0 REVERT JUMPDEST POP POP POP POP PUSH1 0x40 MLOAD RETURNDATASIZE PUSH1 0x1F NOT PUSH1 0x1F DUP3 ADD AND DUP3 ADD DUP1 PUSH1 0x40 MSTORE POP DUP2 ADD SWAP1 PUSH2 0x1D2B SWAP2 SWAP1 PUSH2 0x41D1 JUMP JUMPDEST POP POP JUMPDEST PUSH1 0x0 DUP6 DUP2 MSTORE PUSH1 0x5 PUSH1 0x20 MSTORE PUSH1 0x40 SWAP1 KECCAK256 SLOAD ISZERO DUP1 ISZERO SWAP1 PUSH2 0x1D5B JUMPI POP PUSH1 0x0 DUP6 DUP2 MSTORE PUSH1 0x5 PUSH1 0x20 MSTORE PUSH1 0x40 SWAP1 KECCAK256 PUSH1 0x1 ADD SLOAD ISZERO ISZERO JUMPDEST PUSH2 0x1D8C JUMPI PUSH1 0x40 MLOAD PUSH3 0x461BCD PUSH1 0xE5 SHL DUP2 MSTORE PUSH1 0x20 PUSH1 0x4 DUP3 ADD MSTORE PUSH1 0x2 PUSH1 0x24 DUP3 ADD MSTORE PUSH2 0x4553 PUSH1 0xF0 SHL PUSH1 0x44 DUP3 ADD MSTORE PUSH1 0x64 ADD PUSH2 0xAC7 JUMP JUMPDEST PUSH1 0x0 DUP6 DUP2 MSTORE PUSH1 0x2 PUSH1 0x20 SWAP1 DUP2 MSTORE PUSH1 0x40 DUP1 DUP4 KECCAK256 DUP1 SLOAD PUSH1 0x1 SWAP2 DUP3 ADD SLOAD PUSH1 0x5 SWAP1 SWAP5 MSTORE SWAP2 SWAP1 SWAP4 KECCAK256 DUP1 SLOAD SWAP4 ADD SLOAD PUSH2 0x1DC0 SWAP4 SWAP2 SWAP3 SWAP2 SWAP1 PUSH2 0x335A JUMP JUMPDEST ISZERO PUSH2 0x1DD4 JUMPI PUSH2 0x1DCF DUP6 CALLER PUSH2 0x282A JUMP JUMPDEST PUSH2 0x1DF6 JUMP JUMPDEST PUSH1 0x0 DUP6 DUP2 MSTORE PUSH1 0x5 PUSH1 0x20 MSTORE PUSH1 0x40 SWAP1 KECCAK256 DUP1 SLOAD PUSH1 0x1 SWAP1 SWAP2 ADD SLOAD PUSH2 0x1DF6 SWAP2 DUP8 SWAP2 CALLER PUSH2 0x2CAF JUMP JUMPDEST PUSH1 0x0 DUP6 DUP2 MSTORE PUSH1 0x5 PUSH1 0x20 MSTORE PUSH1 0x40 SWAP1 DUP2 SWAP1 KECCAK256 DUP1 SLOAD PUSH1 0x1 DUP3 ADD SLOAD PUSH1 0x2 DUP4 ADD SLOAD PUSH1 0x3 SWAP1 SWAP4 ADD SLOAD SWAP4 MLOAD PUSH32 0xD8D12448ACB9A12D0CA44F527C717C0DE64F03B49CA4032F87FEAE10AF5EAABE SWAP5 PUSH2 0x1206 SWAP5 DUP12 SWAP5 SWAP4 SWAP3 CALLER SWAP3 PUSH1 0x1 PUSH1 0x1 PUSH1 0xA0 SHL SUB SWAP1 SWAP3 AND SWAP2 SWAP1 PUSH2 0x41EE JUMP JUMPDEST PUSH1 0x0 PUSH2 0x1E63 DUP3 PUSH2 0x1F2E JUMP JUMPDEST DUP1 PUSH2 0x1E70 JUMPI POP PUSH1 0xB SLOAD PUSH1 0xFF AND JUMPDEST PUSH2 0x1E7C JUMPI POP PUSH1 0x0 PUSH2 0xC2E JUMP JUMPDEST PUSH1 0x1 PUSH1 0x10 DUP5 PUSH1 0x40 MLOAD PUSH2 0x1E8E SWAP2 SWAP1 PUSH2 0x404D JUMP JUMPDEST SWAP1 DUP2 MSTORE PUSH1 0x40 DUP1 MLOAD PUSH1 0x20 SWAP3 DUP2 SWAP1 SUB DUP4 ADD SWAP1 KECCAK256 PUSH1 0x1 PUSH1 0x1 PUSH1 0xA0 SHL SUB DUP7 AND PUSH1 0x0 SWAP1 DUP2 MSTORE SWAP3 MSTORE SWAP1 KECCAK256 SLOAD PUSH1 0xFF AND PUSH1 0x2 DUP2 GT ISZERO PUSH2 0x1EC7 JUMPI PUSH2 0x1EC7 PUSH2 0x4013 JUMP JUMPDEST LT ISZERO DUP1 PUSH2 0xD1D JUMPI POP PUSH1 0x1 PUSH1 0x11 DUP5 PUSH1 0x40 MLOAD PUSH2 0x1EE1 SWAP2 SWAP1 PUSH2 0x404D JUMP JUMPDEST SWAP1 DUP2 MSTORE PUSH1 0x40 MLOAD SWAP1 DUP2 SWAP1 SUB PUSH1 0x20 ADD SWAP1 KECCAK256 SLOAD PUSH1 0xFF AND PUSH1 0x2 DUP2 GT ISZERO PUSH2 0x1F05 JUMPI PUSH2 0x1F05 PUSH2 0x4013 JUMP JUMPDEST LT ISZERO SWAP4 SWAP3 POP POP POP JUMP JUMPDEST DUP4 PUSH2 0x1F19 DUP2 CALLER PUSH2 0x16A6 JUMP JUMPDEST PUSH2 0x1F22 JUMPI PUSH1 0x0 DUP1 REVERT JUMPDEST PUSH2 0x1329 DUP6 DUP6 DUP6 DUP6 PUSH2 0x3375 JUMP JUMPDEST PUSH1 0x1 PUSH1 0x1 PUSH1 0xA0 SHL SUB DUP2 AND PUSH1 0x0 SWAP1 DUP2 MSTORE PUSH1 0x3 PUSH1 0x20 MSTORE PUSH1 0x40 DUP2 KECCAK256 SLOAD PUSH2 0xC2E SWAP1 PUSH1 0x0 DUP1 SLOAD SWAP2 DUP2 MSTORE PUSH1 0x6 PUSH1 0x20 MSTORE PUSH1 0x40 SWAP1 KECCAK256 SLOAD GT SWAP1 JUMP JUMPDEST PUSH1 0x0 DUP7 DUP2 MSTORE PUSH1 0x2 PUSH1 0x20 DUP2 SWAP1 MSTORE PUSH1 0x40 SWAP1 SWAP2 KECCAK256 ADD SLOAD DUP7 SWAP1 PUSH1 0x1 PUSH1 0x1 PUSH1 0xA0 SHL SUB AND CALLER EQ PUSH2 0x1F9C JUMPI PUSH1 0x40 MLOAD PUSH3 0x461BCD PUSH1 0xE5 SHL DUP2 MSTORE PUSH1 0x4 ADD PUSH2 0xAC7 SWAP1 PUSH2 0x4069 JUMP JUMPDEST DUP7 PUSH2 0x1FB6 DUP2 PUSH1 0x0 DUP1 SLOAD SWAP2 DUP2 MSTORE PUSH1 0x6 PUSH1 0x20 MSTORE PUSH1 0x40 SWAP1 KECCAK256 SLOAD GT SWAP1 JUMP JUMPDEST PUSH2 0x1FD2 JUMPI PUSH1 0x40 MLOAD PUSH3 0x461BCD PUSH1 0xE5 SHL DUP2 MSTORE PUSH1 0x4 ADD PUSH2 0xAC7 SWAP1 PUSH2 0x4085 JUMP JUMPDEST PUSH2 0x1FE0 DUP9 DUP9 DUP9 DUP9 DUP9 DUP9 PUSH2 0x3517 JUMP JUMPDEST POP POP POP POP POP POP POP POP JUMP JUMPDEST PUSH1 0x0 DUP3 DUP2 MSTORE PUSH1 0x2 PUSH1 0x20 MSTORE PUSH1 0x40 DUP2 KECCAK256 PUSH1 0x3 ADD SLOAD DUP3 LT DUP1 ISZERO SWAP1 PUSH2 0xD1D JUMPI POP POP PUSH1 0x0 SWAP2 DUP3 MSTORE PUSH1 0x6 PUSH1 0x20 MSTORE PUSH1 0x40 SWAP1 SWAP2 KECCAK256 SLOAD GT SWAP1 JUMP JUMPDEST PUSH1 0x1 PUSH1 0x1 PUSH1 0xA0 SHL SUB DUP4 AND PUSH1 0x0 SWAP1 DUP2 MSTORE PUSH1 0x8 PUSH1 0x20 MSTORE PUSH1 0x40 DUP2 KECCAK256 DUP1 SLOAD DUP5 SWAP3 SWAP1 PUSH2 0x2043 SWAP1 DUP5 SWAP1 PUSH2 0x4000 JUMP JUMPDEST SWAP1 SWAP2 SSTORE POP POP PUSH1 0x1 PUSH1 0x1 PUSH1 0xA0 SHL SUB DUP4 AND PUSH1 0x0 SWAP1 DUP2 MSTORE PUSH1 0x9 PUSH1 0x20 MSTORE PUSH1 0x40 DUP2 KECCAK256 DUP1 SLOAD DUP5 SWAP3 SWAP1 PUSH2 0x9E6 SWAP1 DUP5 SWAP1 PUSH2 0x4000 JUMP JUMPDEST PUSH1 0x1 DUP1 SLOAD PUSH1 0xFF AND ISZERO ISZERO EQ PUSH2 0x2096 JUMPI PUSH1 0x40 MLOAD PUSH3 0x461BCD PUSH1 0xE5 SHL DUP2 MSTORE PUSH1 0x4 ADD PUSH2 0xAC7 SWAP1 PUSH2 0x40A1 JUMP JUMPDEST DUP1 PUSH1 0x11 DUP4 PUSH1 0x40 MLOAD PUSH2 0x20A7 SWAP2 SWAP1 PUSH2 0x404D JUMP JUMPDEST SWAP1 DUP2 MSTORE PUSH1 0x40 MLOAD SWAP1 DUP2 SWAP1 SUB PUSH1 0x20 ADD SWAP1 KECCAK256 DUP1 SLOAD PUSH1 0xFF NOT AND PUSH1 0x1 DUP4 PUSH1 0x2 DUP2 GT ISZERO PUSH2 0x20D0 JUMPI PUSH2 0x20D0 PUSH2 0x4013 JUMP JUMPDEST MUL OR SWAP1 SSTORE POP PUSH1 0x0 DUP1 MLOAD PUSH1 0x20 PUSH2 0x45EE DUP4 CODECOPY DUP2 MLOAD SWAP2 MSTORE DUP3 DUP3 PUSH1 0x40 MLOAD PUSH1 0x20 ADD PUSH2 0x20F7 SWAP3 SWAP2 SWAP1 PUSH2 0x4244 JUMP JUMPDEST PUSH1 0x40 DUP1 MLOAD PUSH1 0x1F NOT DUP2 DUP5 SUB ADD DUP2 MSTORE SWAP1 DUP3 SWAP1 MSTORE PUSH2 0x2113 SWAP2 CALLER SWAP1 PUSH2 0x4266 JUMP JUMPDEST PUSH1 0x40 MLOAD DUP1 SWAP2 SUB SWAP1 LOG1 POP POP JUMP JUMPDEST PUSH2 0x2127 PUSH2 0x373B JUMP JUMPDEST PUSH1 0x40 DUP1 MLOAD PUSH1 0x60 DUP1 DUP3 MSTORE PUSH1 0x2 SWAP1 DUP3 ADD MSTORE PUSH2 0x6C45 PUSH1 0xF0 SHL PUSH1 0x80 DUP3 ADD MSTORE PUSH1 0xA0 PUSH1 0x20 DUP3 ADD DUP2 SWAP1 MSTORE PUSH1 0x0 SWAP1 DUP3 ADD MSTORE CALLER DUP2 DUP4 ADD MSTORE SWAP1 MLOAD PUSH1 0x0 DUP1 MLOAD PUSH1 0x20 PUSH2 0x45EE DUP4 CODECOPY DUP2 MLOAD SWAP2 MSTORE SWAP2 DUP2 SWAP1 SUB PUSH1 0xC0 ADD SWAP1 LOG1 JUMP JUMPDEST DUP1 PUSH2 0x218B DUP2 PUSH1 0x0 DUP1 SLOAD SWAP2 DUP2 MSTORE PUSH1 0x6 PUSH1 0x20 MSTORE PUSH1 0x40 SWAP1 KECCAK256 SLOAD GT SWAP1 JUMP JUMPDEST PUSH2 0x21A7 JUMPI PUSH1 0x40 MLOAD PUSH3 0x461BCD PUSH1 0xE5 SHL DUP2 MSTORE PUSH1 0x4 ADD PUSH2 0xAC7 SWAP1 PUSH2 0x4085 JUMP JUMPDEST POP PUSH1 0x0 SWAP1 DUP2 MSTORE PUSH1 0x4 PUSH1 0x20 MSTORE PUSH1 0x40 SWAP1 KECCAK256 DUP1 SLOAD PUSH1 0xFF NOT AND SWAP1 SSTORE JUMP JUMPDEST PUSH1 0x0 DUP2 DUP2 MSTORE PUSH1 0x12 PUSH1 0x20 MSTORE PUSH1 0x40 SWAP1 KECCAK256 SLOAD DUP2 SWAP1 PUSH1 0xFF AND PUSH2 0x21DD JUMPI PUSH1 0x0 DUP1 REVERT JUMPDEST PUSH1 0x1 DUP1 SLOAD PUSH1 0xFF AND ISZERO ISZERO EQ PUSH2 0x2203 JUMPI PUSH1 0x40 MLOAD PUSH3 0x461BCD PUSH1 0xE5 SHL DUP2 MSTORE PUSH1 0x4 ADD PUSH2 0xAC7 SWAP1 PUSH2 0x40A1 JUMP JUMPDEST PUSH1 0x0 DUP3 DUP2 MSTORE PUSH1 0x12 PUSH1 0x20 SWAP1 DUP2 MSTORE PUSH1 0x40 DUP1 DUP4 KECCAK256 DUP1 SLOAD PUSH1 0xFF NOT AND SWAP1 SSTORE PUSH1 0x14 DUP3 MSTORE DUP1 DUP4 KECCAK256 SLOAD DUP2 MLOAD PUSH4 0x36B0B4B7 PUSH1 0xE1 SHL DUP2 MSTORE PUSH1 0xE PUSH1 0x4 DUP3 ADD MSTORE DUP3 MLOAD SWAP1 DUP2 SWAP1 SUB PUSH1 0x24 ADD SWAP1 KECCAK256 DUP7 DUP6 MSTORE PUSH1 0x13 DUP5 MSTORE DUP3 DUP6 KECCAK256 SLOAD PUSH1 0x1 PUSH1 0x1 PUSH1 0xA0 SHL SUB AND DUP6 MSTORE SWAP1 SWAP3 MSTORE DUP3 KECCAK256 DUP1 SLOAD SWAP2 SWAP3 SWAP1 SWAP2 PUSH2 0x226E SWAP1 DUP5 SWAP1 PUSH2 0x4000 JUMP JUMPDEST SWAP1 SWAP2 SSTORE POP POP PUSH1 0x40 DUP1 MLOAD PUSH1 0x20 DUP2 ADD DUP5 SWAP1 MSTORE PUSH1 0x0 DUP1 MLOAD PUSH1 0x20 PUSH2 0x45EE DUP4 CODECOPY DUP2 MLOAD SWAP2 MSTORE SWAP2 ADD PUSH1 0x40 DUP1 MLOAD PUSH1 0x1F NOT DUP2 DUP5 SUB ADD DUP2 MSTORE SWAP1 DUP3 SWAP1 MSTORE PUSH2 0x2113 SWAP2 CALLER SWAP1 PUSH2 0x4292 JUMP JUMPDEST PUSH1 0x1 DUP1 SLOAD PUSH1 0xFF AND ISZERO ISZERO EQ PUSH2 0x22D1 JUMPI PUSH1 0x40 MLOAD PUSH3 0x461BCD PUSH1 0xE5 SHL DUP2 MSTORE PUSH1 0x4 ADD PUSH2 0xAC7 SWAP1 PUSH2 0x40A1 JUMP JUMPDEST PUSH2 0x22DA DUP3 PUSH2 0x17A7 JUMP JUMPDEST ISZERO PUSH2 0x230C JUMPI PUSH1 0x40 MLOAD PUSH3 0x461BCD PUSH1 0xE5 SHL DUP2 MSTORE PUSH1 0x20 PUSH1 0x4 DUP3 ADD MSTORE PUSH1 0x2 PUSH1 0x24 DUP3 ADD MSTORE PUSH2 0x4145 PUSH1 0xF0 SHL PUSH1 0x44 DUP3 ADD MSTORE PUSH1 0x64 ADD PUSH2 0xAC7 JUMP JUMPDEST PUSH1 0x1 PUSH1 0xF DUP4 PUSH1 0x40 MLOAD PUSH2 0x231E SWAP2 SWAP1 PUSH2 0x404D JUMP JUMPDEST SWAP1 DUP2 MSTORE PUSH1 0x40 DUP1 MLOAD PUSH1 0x20 SWAP3 DUP2 SWAP1 SUB DUP4 ADD DUP2 KECCAK256 PUSH1 0x1 PUSH1 0x1 PUSH1 0xA0 SHL SUB DUP7 AND PUSH1 0x0 SWAP1 DUP2 MSTORE SWAP4 MSTORE SWAP2 KECCAK256 DUP1 SLOAD PUSH1 0xFF NOT AND SWAP3 ISZERO ISZERO SWAP3 SWAP1 SWAP3 OR SWAP1 SWAP2 SSTORE PUSH1 0x1 SWAP1 PUSH1 0xC SWAP1 PUSH2 0x2363 SWAP1 DUP6 SWAP1 PUSH2 0x404D JUMP JUMPDEST SWAP1 DUP2 MSTORE PUSH1 0x40 MLOAD PUSH1 0x20 SWAP2 DUP2 SWAP1 SUB DUP3 ADD DUP2 KECCAK256 DUP1 SLOAD PUSH1 0xFF NOT AND SWAP4 ISZERO ISZERO SWAP4 SWAP1 SWAP4 OR SWAP1 SWAP3 SSTORE PUSH1 0x0 DUP1 MLOAD PUSH1 0x20 PUSH2 0x45EE DUP4 CODECOPY DUP2 MLOAD SWAP2 MSTORE SWAP2 PUSH2 0x23A1 SWAP2 DUP6 SWAP2 DUP6 SWAP2 ADD PUSH2 0x42BE JUMP JUMPDEST PUSH1 0x40 DUP1 MLOAD PUSH1 0x1F NOT DUP2 DUP5 SUB ADD DUP2 MSTORE SWAP1 DUP3 SWAP1 MSTORE PUSH2 0x2113 SWAP2 CALLER SWAP1 PUSH2 0x42E8 JUMP JUMPDEST PUSH1 0x1 DUP1 SLOAD PUSH1 0xFF AND ISZERO ISZERO EQ PUSH2 0x23E3 JUMPI PUSH1 0x40 MLOAD PUSH3 0x461BCD PUSH1 0xE5 SHL DUP2 MSTORE PUSH1 0x4 ADD PUSH2 0xAC7 SWAP1 PUSH2 0x40A1 JUMP JUMPDEST PUSH2 0x23ED DUP3 DUP3 PUSH2 0x16A6 JUMP JUMPDEST PUSH2 0x23F6 JUMPI PUSH1 0x0 DUP1 REVERT JUMPDEST PUSH1 0x0 PUSH1 0xF DUP4 PUSH1 0x40 MLOAD PUSH2 0x2408 SWAP2 SWAP1 PUSH2 0x404D JUMP JUMPDEST SWAP1 DUP2 MSTORE PUSH1 0x40 DUP1 MLOAD PUSH1 0x20 SWAP3 DUP2 SWAP1 SUB DUP4 ADD DUP2 KECCAK256 PUSH1 0x1 PUSH1 0x1 PUSH1 0xA0 SHL SUB DUP7 AND PUSH1 0x0 SWAP1 DUP2 MSTORE SWAP1 DUP5 MSTORE SWAP2 SWAP1 SWAP2 KECCAK256 DUP1 SLOAD PUSH1 0xFF NOT AND SWAP4 ISZERO ISZERO SWAP4 SWAP1 SWAP4 OR SWAP1 SWAP3 SSTORE PUSH1 0x0 DUP1 MLOAD PUSH1 0x20 PUSH2 0x45EE DUP4 CODECOPY DUP2 MLOAD SWAP2 MSTORE SWAP2 PUSH2 0x245D SWAP2 DUP6 SWAP2 DUP6 SWAP2 ADD PUSH2 0x42BE JUMP JUMPDEST PUSH1 0x40 DUP1 MLOAD PUSH1 0x1F NOT DUP2 DUP5 SUB ADD DUP2 MSTORE SWAP1 DUP3 SWAP1 MSTORE PUSH2 0x2113 SWAP2 CALLER SWAP1 PUSH2 0x4314 JUMP JUMPDEST PUSH1 0x1 PUSH1 0x1 PUSH1 0xA0 SHL SUB DUP4 AND PUSH1 0x0 SWAP1 DUP2 MSTORE PUSH1 0x8 PUSH1 0x20 MSTORE PUSH1 0x40 SWAP1 KECCAK256 SLOAD DUP3 GT ISZERO PUSH2 0x24B1 JUMPI PUSH1 0x40 MLOAD PUSH3 0x461BCD PUSH1 0xE5 SHL DUP2 MSTORE PUSH1 0x4 ADD PUSH2 0xAC7 SWAP1 PUSH2 0x41B5 JUMP JUMPDEST PUSH1 0x1 PUSH1 0x1 PUSH1 0xA0 SHL SUB DUP4 AND PUSH2 0x24CE JUMPI PUSH2 0x24C9 DUP3 DUP3 PUSH2 0x376D JUMP JUMPDEST PUSH2 0x2690 JUMP JUMPDEST PUSH1 0x40 MLOAD PUSH4 0x95EA7B3 PUSH1 0xE0 SHL DUP2 MSTORE PUSH1 0x1 PUSH1 0x1 PUSH1 0xA0 SHL SUB DUP3 DUP2 AND PUSH1 0x4 DUP4 ADD MSTORE PUSH1 0x24 DUP3 ADD DUP5 SWAP1 MSTORE DUP5 SWAP2 SWAP1 DUP3 AND SWAP1 PUSH4 0x95EA7B3 SWAP1 PUSH1 0x44 ADD PUSH1 0x20 PUSH1 0x40 MLOAD DUP1 DUP4 SUB DUP2 PUSH1 0x0 DUP8 GAS CALL ISZERO DUP1 ISZERO PUSH2 0x2520 JUMPI RETURNDATASIZE PUSH1 0x0 DUP1 RETURNDATACOPY RETURNDATASIZE PUSH1 0x0 REVERT JUMPDEST POP POP POP POP PUSH1 0x40 MLOAD RETURNDATASIZE PUSH1 0x1F NOT PUSH1 0x1F DUP3 ADD AND DUP3 ADD DUP1 PUSH1 0x40 MSTORE POP DUP2 ADD SWAP1 PUSH2 0x2544 SWAP2 SWAP1 PUSH2 0x41D1 JUMP JUMPDEST PUSH2 0x2575 JUMPI PUSH1 0x40 MLOAD PUSH3 0x461BCD PUSH1 0xE5 SHL DUP2 MSTORE PUSH1 0x20 PUSH1 0x4 DUP3 ADD MSTORE PUSH1 0x2 PUSH1 0x24 DUP3 ADD MSTORE PUSH2 0x4E41 PUSH1 0xF0 SHL PUSH1 0x44 DUP3 ADD MSTORE PUSH1 0x64 ADD PUSH2 0xAC7 JUMP JUMPDEST PUSH1 0x1 PUSH1 0x1 PUSH1 0xA0 SHL SUB DUP3 AND EXTCODESIZE ISZERO PUSH2 0x25EA JUMPI PUSH1 0x40 MLOAD PUSH4 0x4B91AD0F PUSH1 0xE1 SHL DUP2 MSTORE PUSH1 0x1 PUSH1 0x1 PUSH1 0xA0 SHL SUB DUP6 DUP2 AND PUSH1 0x4 DUP4 ADD MSTORE PUSH1 0x24 DUP3 ADD DUP6 SWAP1 MSTORE DUP4 AND SWAP1 PUSH4 0x97235A1E SWAP1 PUSH1 0x44 ADD PUSH1 0x0 PUSH1 0x40 MLOAD DUP1 DUP4 SUB DUP2 PUSH1 0x0 DUP8 DUP1 EXTCODESIZE ISZERO DUP1 ISZERO PUSH2 0x25CF JUMPI PUSH1 0x0 DUP1 REVERT JUMPDEST POP GAS CALL SWAP3 POP POP POP DUP1 ISZERO PUSH2 0x25E0 JUMPI POP PUSH1 0x1 JUMPDEST ISZERO PUSH2 0x268E JUMPI PUSH2 0x268E JUMP JUMPDEST PUSH1 0x40 MLOAD PUSH4 0xA9059CBB PUSH1 0xE0 SHL DUP2 MSTORE PUSH1 0x1 PUSH1 0x1 PUSH1 0xA0 SHL SUB DUP4 DUP2 AND PUSH1 0x4 DUP4 ADD MSTORE PUSH1 0x24 DUP3 ADD DUP6 SWAP1 MSTORE DUP3 AND SWAP1 PUSH4 0xA9059CBB SWAP1 PUSH1 0x44 ADD PUSH1 0x20 PUSH1 0x40 MLOAD DUP1 DUP4 SUB DUP2 PUSH1 0x0 DUP8 GAS CALL ISZERO DUP1 ISZERO PUSH2 0x2639 JUMPI RETURNDATASIZE PUSH1 0x0 DUP1 RETURNDATACOPY RETURNDATASIZE PUSH1 0x0 REVERT JUMPDEST POP POP POP POP PUSH1 0x40 MLOAD RETURNDATASIZE PUSH1 0x1F NOT PUSH1 0x1F DUP3 ADD AND DUP3 ADD DUP1 PUSH1 0x40 MSTORE POP DUP2 ADD SWAP1 PUSH2 0x265D SWAP2 SWAP1 PUSH2 0x41D1 JUMP JUMPDEST PUSH2 0x268E JUMPI PUSH1 0x40 MLOAD PUSH3 0x461BCD PUSH1 0xE5 SHL DUP2 MSTORE PUSH1 0x20 PUSH1 0x4 DUP3 ADD MSTORE PUSH1 0x2 PUSH1 0x24 DUP3 ADD MSTORE PUSH2 0x1395 PUSH1 0xF2 SHL PUSH1 0x44 DUP3 ADD MSTORE PUSH1 0x64 ADD PUSH2 0xAC7 JUMP JUMPDEST POP JUMPDEST PUSH1 0x1 SLOAD PUSH1 0xFF AND ISZERO PUSH2 0xADA JUMPI PUSH2 0xADA DUP4 DUP4 PUSH2 0x37F5 JUMP JUMPDEST PUSH1 0x1 DUP1 SLOAD PUSH1 0xFF AND ISZERO ISZERO EQ PUSH2 0x26CB JUMPI PUSH1 0x40 MLOAD PUSH3 0x461BCD PUSH1 0xE5 SHL DUP2 MSTORE PUSH1 0x4 ADD PUSH2 0xAC7 SWAP1 PUSH2 0x40A1 JUMP JUMPDEST PUSH2 0x26D4 DUP2 PUSH2 0x17A7 JUMP JUMPDEST PUSH2 0x2706 JUMPI PUSH1 0x40 MLOAD PUSH3 0x461BCD PUSH1 0xE5 SHL DUP2 MSTORE PUSH1 0x20 PUSH1 0x4 DUP3 ADD MSTORE PUSH1 0x3 PUSH1 0x24 DUP3 ADD MSTORE PUSH3 0x554221 PUSH1 0xE8 SHL PUSH1 0x44 DUP3 ADD MSTORE PUSH1 0x64 ADD PUSH2 0xAC7 JUMP JUMPDEST PUSH1 0x40 DUP1 MLOAD DUP1 DUP3 ADD SWAP1 SWAP2 MSTORE PUSH1 0x4 DUP2 MSTORE PUSH4 0x36B0B4B7 PUSH1 0xE1 SHL PUSH1 0x20 SWAP2 DUP3 ADD MSTORE DUP2 MLOAD SWAP1 DUP3 ADD KECCAK256 PUSH32 0x471DFAB0756EDC981C75DD3188CCD700755407F7D3BEDF452610F7A1E240D659 ADD PUSH2 0x277B JUMPI PUSH1 0x40 MLOAD PUSH3 0x461BCD PUSH1 0xE5 SHL DUP2 MSTORE PUSH1 0x20 PUSH1 0x4 DUP3 ADD MSTORE PUSH1 0x2 PUSH1 0x24 DUP3 ADD MSTORE PUSH2 0x26A1 PUSH1 0xF1 SHL PUSH1 0x44 DUP3 ADD MSTORE PUSH1 0x64 ADD PUSH2 0xAC7 JUMP JUMPDEST PUSH2 0x2784 DUP2 PUSH2 0xBD6 JUMP JUMPDEST PUSH2 0x27B5 JUMPI PUSH1 0x40 MLOAD PUSH3 0x461BCD PUSH1 0xE5 SHL DUP2 MSTORE PUSH1 0x20 PUSH1 0x4 DUP3 ADD MSTORE PUSH1 0x2 PUSH1 0x24 DUP3 ADD MSTORE PUSH2 0x4245 PUSH1 0xF0 SHL PUSH1 0x44 DUP3 ADD MSTORE PUSH1 0x64 ADD PUSH2 0xAC7 JUMP JUMPDEST PUSH1 0x0 PUSH1 0xC DUP3 PUSH1 0x40 MLOAD PUSH2 0x27C7 SWAP2 SWAP1 PUSH2 0x404D JUMP JUMPDEST SWAP1 DUP2 MSTORE PUSH1 0x40 MLOAD PUSH1 0x20 SWAP2 DUP2 SWAP1 SUB DUP3 ADD DUP2 KECCAK256 DUP1 SLOAD PUSH1 0xFF NOT AND SWAP4 ISZERO ISZERO SWAP4 SWAP1 SWAP4 OR SWAP1 SWAP3 SSTORE PUSH1 0x0 DUP1 MLOAD PUSH1 0x20 PUSH2 0x45EE DUP4 CODECOPY DUP2 MLOAD SWAP2 MSTORE SWAP2 PUSH2 0x2803 SWAP2 DUP5 SWAP2 ADD PUSH2 0x4340 JUMP JUMPDEST PUSH1 0x40 DUP1 MLOAD PUSH1 0x1F NOT DUP2 DUP5 SUB ADD DUP2 MSTORE SWAP1 DUP3 SWAP1 MSTORE PUSH2 0x281F SWAP2 CALLER SWAP1 PUSH2 0x4353 JUMP JUMPDEST PUSH1 0x40 MLOAD DUP1 SWAP2 SUB SWAP1 LOG1 POP JUMP JUMPDEST DUP2 PUSH2 0x2844 DUP2 PUSH1 0x0 DUP1 SLOAD SWAP2 DUP2 MSTORE PUSH1 0x6 PUSH1 0x20 MSTORE PUSH1 0x40 SWAP1 KECCAK256 SLOAD GT SWAP1 JUMP JUMPDEST PUSH2 0x2860 JUMPI PUSH1 0x40 MLOAD PUSH3 0x461BCD PUSH1 0xE5 SHL DUP2 MSTORE PUSH1 0x4 ADD PUSH2 0xAC7 SWAP1 PUSH2 0x4085 JUMP JUMPDEST PUSH1 0x1 DUP1 SLOAD PUSH1 0xFF AND ISZERO ISZERO EQ PUSH2 0x2886 JUMPI PUSH1 0x40 MLOAD PUSH3 0x461BCD PUSH1 0xE5 SHL DUP2 MSTORE PUSH1 0x4 ADD PUSH2 0xAC7 SWAP1 PUSH2 0x40A1 JUMP JUMPDEST PUSH1 0x0 SLOAD PUSH2 0x2892 DUP4 PUSH2 0x1F2E JUMP JUMPDEST ISZERO PUSH2 0x2927 JUMPI PUSH1 0x1 PUSH1 0x1 PUSH1 0xA0 SHL SUB DUP4 AND PUSH1 0x0 SWAP1 DUP2 MSTORE PUSH1 0x3 PUSH1 0x20 MSTORE PUSH1 0x40 SWAP1 KECCAK256 SLOAD PUSH2 0x28C7 SWAP1 DUP3 PUSH1 0x0 SWAP2 DUP3 MSTORE PUSH1 0x6 PUSH1 0x20 MSTORE PUSH1 0x40 SWAP1 SWAP2 KECCAK256 SSTORE JUMP JUMPDEST PUSH1 0x0 DUP5 DUP2 MSTORE PUSH1 0x2 PUSH1 0x20 DUP2 DUP2 MSTORE PUSH1 0x40 DUP1 DUP5 KECCAK256 DUP1 SLOAD PUSH1 0x1 SWAP2 DUP3 ADD SLOAD PUSH1 0x1 PUSH1 0x1 PUSH1 0xA0 SHL SUB DUP11 AND DUP8 MSTORE PUSH1 0x3 DUP6 MSTORE DUP4 DUP8 KECCAK256 SLOAD DUP8 MSTORE SWAP5 SWAP1 SWAP4 MSTORE SWAP1 DUP5 KECCAK256 DUP1 SLOAD SWAP2 ADD SLOAD DUP5 SWAP4 PUSH2 0x2910 SWAP4 SWAP3 SWAP1 SWAP2 PUSH2 0x3853 JUMP JUMPDEST SWAP2 POP SWAP2 POP PUSH2 0x2920 DUP3 DUP3 DUP8 DUP7 PUSH2 0x388F JUMP JUMPDEST POP POP PUSH2 0x2949 JUMP JUMPDEST PUSH1 0x0 DUP5 DUP2 MSTORE PUSH1 0x2 PUSH1 0x20 MSTORE PUSH1 0x40 SWAP1 KECCAK256 DUP1 SLOAD PUSH1 0x1 SWAP1 SWAP2 ADD SLOAD PUSH2 0x2949 SWAP2 SWAP1 DUP6 DUP5 PUSH2 0x388F JUMP JUMPDEST PUSH1 0x0 DUP5 DUP2 MSTORE PUSH1 0x6 PUSH1 0x20 SWAP1 DUP2 MSTORE PUSH1 0x40 DUP1 DUP4 KECCAK256 DUP5 SWAP1 SSTORE PUSH1 0x2 SWAP1 SWAP2 MSTORE DUP1 DUP3 KECCAK256 DUP1 SLOAD PUSH1 0x1 SWAP1 SWAP2 ADD SLOAD SWAP2 MLOAD PUSH32 0xD8D12448ACB9A12D0CA44F527C717C0DE64F03B49CA4032F87FEAE10AF5EAABE SWAP4 PUSH2 0x29A3 SWAP4 DUP10 SWAP4 SWAP3 SWAP1 SWAP2 DUP10 SWAP2 DUP2 SWAP1 PUSH2 0x41EE JUMP JUMPDEST PUSH1 0x40 MLOAD DUP1 SWAP2 SUB SWAP1 LOG1 POP POP POP POP JUMP JUMPDEST PUSH1 0x1 DUP1 SLOAD PUSH1 0xFF AND ISZERO ISZERO EQ PUSH2 0x29D7 JUMPI PUSH1 0x40 MLOAD PUSH3 0x461BCD PUSH1 0xE5 SHL DUP2 MSTORE PUSH1 0x4 ADD PUSH2 0xAC7 SWAP1 PUSH2 0x40A1 JUMP JUMPDEST PUSH1 0x0 SLOAD PUSH1 0x40 MLOAD PUSH1 0xE SWAP1 PUSH2 0x29EB SWAP1 DUP7 SWAP1 PUSH2 0x404D JUMP JUMPDEST SWAP1 DUP2 MSTORE PUSH1 0x40 DUP1 MLOAD PUSH1 0x20 SWAP3 DUP2 SWAP1 SUB DUP4 ADD SWAP1 KECCAK256 PUSH1 0x1 PUSH1 0x1 PUSH1 0xA0 SHL SUB DUP7 AND PUSH1 0x0 SWAP1 DUP2 MSTORE SWAP3 MSTORE SWAP1 KECCAK256 SLOAD DUP3 GT ISZERO PUSH2 0x2A2F JUMPI PUSH1 0x40 MLOAD PUSH3 0x461BCD PUSH1 0xE5 SHL DUP2 MSTORE PUSH1 0x4 ADD PUSH2 0xAC7 SWAP1 PUSH2 0x437F JUMP JUMPDEST DUP2 PUSH1 0xE DUP6 PUSH1 0x40 MLOAD PUSH2 0x2A40 SWAP2 SWAP1 PUSH2 0x404D JUMP JUMPDEST SWAP1 DUP2 MSTORE PUSH1 0x20 ADD PUSH1 0x40 MLOAD DUP1 SWAP2 SUB SWAP1 KECCAK256 PUSH1 0x0 DUP6 PUSH1 0x1 PUSH1 0x1 PUSH1 0xA0 SHL SUB AND PUSH1 0x1 PUSH1 0x1 PUSH1 0xA0 SHL SUB AND DUP2 MSTORE PUSH1 0x20 ADD SWAP1 DUP2 MSTORE PUSH1 0x20 ADD PUSH1 0x0 KECCAK256 PUSH1 0x0 DUP3 DUP3 SLOAD PUSH2 0x2A80 SWAP2 SWAP1 PUSH2 0x411A JUMP JUMPDEST SWAP1 SWAP2 SSTORE POP POP PUSH1 0x40 MLOAD PUSH1 0xE SWAP1 PUSH2 0x2A96 SWAP1 DUP7 SWAP1 PUSH2 0x404D JUMP JUMPDEST SWAP1 DUP2 MSTORE PUSH1 0x40 DUP1 MLOAD PUSH1 0x20 SWAP3 DUP2 SWAP1 SUB DUP4 ADD SWAP1 KECCAK256 PUSH1 0x1 PUSH1 0x1 PUSH1 0xA0 SHL SUB DUP7 AND PUSH1 0x0 SWAP1 DUP2 MSTORE SWAP3 MSTORE SWAP1 KECCAK256 SLOAD ISZERO DUP1 ISZERO PUSH2 0x2AD0 JUMPI POP PUSH1 0x1 PUSH1 0x1 PUSH1 0xA0 SHL SUB DUP4 AND ISZERO ISZERO JUMPDEST ISZERO PUSH2 0x2B0A JUMPI PUSH1 0x1 PUSH1 0xD DUP6 PUSH1 0x40 MLOAD PUSH2 0x2AE7 SWAP2 SWAP1 PUSH2 0x404D JUMP JUMPDEST SWAP1 DUP2 MSTORE PUSH1 0x20 ADD PUSH1 0x40 MLOAD DUP1 SWAP2 SUB SWAP1 KECCAK256 PUSH1 0x0 DUP3 DUP3 SLOAD PUSH2 0x2B04 SWAP2 SWAP1 PUSH2 0x411A JUMP JUMPDEST SWAP1 SWAP2 SSTORE POP POP JUMPDEST PUSH1 0x40 DUP1 MLOAD DUP1 DUP3 ADD DUP3 MSTORE PUSH1 0x1 PUSH1 0x1 PUSH1 0xA0 SHL SUB DUP6 DUP2 AND DUP3 MSTORE PUSH1 0x20 DUP1 DUP4 ADD DUP7 DUP2 MSTORE PUSH1 0x0 DUP7 DUP2 MSTORE PUSH1 0x13 DUP4 MSTORE DUP6 DUP2 KECCAK256 SWAP5 MLOAD DUP6 SLOAD PUSH1 0x1 PUSH1 0x1 PUSH1 0xA0 SHL SUB NOT AND SWAP5 AND SWAP4 SWAP1 SWAP4 OR DUP5 SSTORE MLOAD PUSH1 0x1 SWAP4 DUP5 ADD SSTORE PUSH1 0x14 DUP2 MSTORE DUP4 DUP3 KECCAK256 DUP7 SWAP1 SSTORE PUSH1 0x12 DUP2 MSTORE SWAP1 DUP4 SWAP1 KECCAK256 DUP1 SLOAD PUSH1 0xFF NOT AND SWAP1 SWAP3 OR SWAP1 SWAP2 SSTORE SWAP1 MLOAD PUSH1 0x0 DUP1 MLOAD PUSH1 0x20 PUSH2 0x45EE DUP4 CODECOPY DUP2 MLOAD SWAP2 MSTORE SWAP2 PUSH2 0x2B91 SWAP2 DUP8 SWAP2 DUP8 SWAP2 DUP8 SWAP2 ADD PUSH2 0x439B JUMP JUMPDEST PUSH1 0x40 DUP1 MLOAD PUSH1 0x1F NOT DUP2 DUP5 SUB ADD DUP2 MSTORE SWAP1 DUP3 SWAP1 MSTORE PUSH2 0x29A3 SWAP2 CALLER SWAP1 PUSH2 0x43C9 JUMP JUMPDEST PUSH1 0x1 DUP1 SLOAD PUSH1 0xFF AND ISZERO ISZERO EQ PUSH2 0x2BD3 JUMPI PUSH1 0x40 MLOAD PUSH3 0x461BCD PUSH1 0xE5 SHL DUP2 MSTORE PUSH1 0x4 ADD PUSH2 0xAC7 SWAP1 PUSH2 0x40A1 JUMP JUMPDEST PUSH1 0xB DUP1 SLOAD PUSH1 0xFF NOT AND DUP3 ISZERO ISZERO SWAP1 DUP2 OR SWAP1 SWAP2 SSTORE PUSH1 0x40 DUP1 MLOAD PUSH1 0x20 DUP2 ADD SWAP3 SWAP1 SWAP3 MSTORE PUSH1 0x0 DUP1 MLOAD PUSH1 0x20 PUSH2 0x45EE DUP4 CODECOPY DUP2 MLOAD SWAP2 MSTORE SWAP2 ADD PUSH1 0x40 DUP1 MLOAD PUSH1 0x1F NOT DUP2 DUP5 SUB ADD DUP2 MSTORE SWAP1 DUP3 SWAP1 MSTORE PUSH2 0x281F SWAP2 CALLER SWAP1 PUSH2 0x43F5 JUMP JUMPDEST PUSH2 0x2C26 DUP2 PUSH2 0x3991 JUMP JUMPDEST PUSH1 0x40 DUP1 MLOAD PUSH1 0x1 PUSH1 0x1 PUSH1 0xA0 SHL SUB DUP4 AND PUSH1 0x20 DUP3 ADD MSTORE PUSH1 0x0 DUP1 MLOAD PUSH1 0x20 PUSH2 0x45EE DUP4 CODECOPY DUP2 MLOAD SWAP2 MSTORE SWAP2 ADD PUSH1 0x40 DUP1 MLOAD PUSH1 0x1F NOT DUP2 DUP5 SUB ADD DUP2 MSTORE SWAP1 DUP3 SWAP1 MSTORE PUSH2 0x281F SWAP2 CALLER SWAP1 PUSH2 0x4422 JUMP JUMPDEST PUSH2 0x2C6F DUP2 PUSH2 0x3A22 JUMP JUMPDEST PUSH1 0x40 DUP1 MLOAD PUSH1 0x1 PUSH1 0x1 PUSH1 0xA0 SHL SUB DUP4 AND PUSH1 0x20 DUP3 ADD MSTORE PUSH1 0x0 DUP1 MLOAD PUSH1 0x20 PUSH2 0x45EE DUP4 CODECOPY DUP2 MLOAD SWAP2 MSTORE SWAP2 ADD PUSH1 0x40 DUP1 MLOAD PUSH1 0x1F NOT DUP2 DUP5 SUB ADD DUP2 MSTORE SWAP1 DUP3 SWAP1 MSTORE PUSH2 0x281F SWAP2 CALLER SWAP1 PUSH2 0x444E JUMP JUMPDEST DUP4 PUSH2 0x2CC9 DUP2 PUSH1 0x0 DUP1 SLOAD SWAP2 DUP2 MSTORE PUSH1 0x6 PUSH1 0x20 MSTORE PUSH1 0x40 SWAP1 KECCAK256 SLOAD GT SWAP1 JUMP JUMPDEST PUSH2 0x2CE5 JUMPI PUSH1 0x40 MLOAD PUSH3 0x461BCD PUSH1 0xE5 SHL DUP2 MSTORE PUSH1 0x4 ADD PUSH2 0xAC7 SWAP1 PUSH2 0x4085 JUMP JUMPDEST PUSH1 0x1 DUP1 SLOAD PUSH1 0xFF AND ISZERO ISZERO EQ PUSH2 0x2D0B JUMPI PUSH1 0x40 MLOAD PUSH3 0x461BCD PUSH1 0xE5 SHL DUP2 MSTORE PUSH1 0x4 ADD PUSH2 0xAC7 SWAP1 PUSH2 0x40A1 JUMP JUMPDEST PUSH1 0x0 DUP6 DUP2 MSTORE PUSH1 0x2 PUSH1 0x20 MSTORE PUSH1 0x40 SWAP1 KECCAK256 PUSH1 0x1 DUP2 ADD SLOAD SWAP1 SLOAD PUSH2 0x2D2A SWAP2 SWAP1 PUSH2 0x4106 JUMP JUMPDEST PUSH2 0x2D34 DUP5 DUP7 PUSH2 0x4106 JUMP JUMPDEST LT PUSH2 0x2D51 JUMPI PUSH1 0x40 MLOAD PUSH3 0x461BCD PUSH1 0xE5 SHL DUP2 MSTORE PUSH1 0x4 ADD PUSH2 0xAC7 SWAP1 PUSH2 0x437F JUMP JUMPDEST PUSH1 0x0 SLOAD PUSH2 0x2D5D DUP4 PUSH2 0x1F2E JUMP JUMPDEST ISZERO PUSH2 0x2DE3 JUMPI PUSH1 0x1 PUSH1 0x1 PUSH1 0xA0 SHL SUB DUP4 AND PUSH1 0x0 SWAP1 DUP2 MSTORE PUSH1 0x3 PUSH1 0x20 SWAP1 DUP2 MSTORE PUSH1 0x40 DUP1 DUP4 KECCAK256 SLOAD DUP4 MSTORE PUSH1 0x2 SWAP1 SWAP2 MSTORE DUP2 KECCAK256 DUP1 SLOAD PUSH1 0x1 SWAP1 SWAP2 ADD SLOAD DUP3 SWAP2 PUSH2 0x2D9C SWAP2 DUP10 DUP10 PUSH2 0x3853 JUMP JUMPDEST SWAP2 POP SWAP2 POP PUSH2 0x2DAC DUP3 DUP3 DUP8 DUP7 PUSH2 0x388F JUMP JUMPDEST PUSH1 0x1 PUSH1 0x1 PUSH1 0xA0 SHL SUB DUP6 AND PUSH1 0x0 SWAP1 DUP2 MSTORE PUSH1 0x3 PUSH1 0x20 MSTORE PUSH1 0x40 SWAP1 KECCAK256 SLOAD PUSH2 0x2DDC SWAP1 DUP5 PUSH1 0x0 SWAP2 DUP3 MSTORE PUSH1 0x6 PUSH1 0x20 MSTORE PUSH1 0x40 SWAP1 SWAP2 KECCAK256 SSTORE JUMP JUMPDEST POP POP PUSH2 0x2DEF JUMP JUMPDEST PUSH2 0x2DEF DUP6 DUP6 DUP6 DUP5 PUSH2 0x388F JUMP JUMPDEST PUSH1 0x0 DUP7 DUP2 MSTORE PUSH1 0x6 PUSH1 0x20 SWAP1 DUP2 MSTORE PUSH1 0x40 DUP1 DUP4 KECCAK256 DUP5 SWAP1 SSTORE PUSH1 0x2 SWAP1 SWAP2 MSTORE DUP2 KECCAK256 DUP1 SLOAD PUSH1 0x1 SWAP1 SWAP2 ADD SLOAD DUP3 SWAP2 PUSH2 0x2E1F SWAP2 DUP10 DUP10 PUSH2 0x3A81 JUMP JUMPDEST PUSH1 0x0 DUP11 DUP2 MSTORE PUSH1 0x2 PUSH1 0x20 DUP2 SWAP1 MSTORE PUSH1 0x40 SWAP1 SWAP2 KECCAK256 ADD SLOAD SWAP2 SWAP4 POP SWAP2 POP PUSH2 0x2E4E SWAP1 DUP4 SWAP1 DUP4 SWAP1 PUSH1 0x1 PUSH1 0x1 PUSH1 0xA0 SHL SUB AND DUP7 PUSH2 0x388F JUMP JUMPDEST PUSH32 0xD8D12448ACB9A12D0CA44F527C717C0DE64F03B49CA4032F87FEAE10AF5EAABE DUP9 DUP9 DUP9 DUP9 PUSH1 0x0 DUP1 PUSH1 0x40 MLOAD PUSH2 0x2E88 SWAP7 SWAP6 SWAP5 SWAP4 SWAP3 SWAP2 SWAP1 PUSH2 0x41EE JUMP JUMPDEST PUSH1 0x40 MLOAD DUP1 SWAP2 SUB SWAP1 LOG1 POP POP POP POP POP POP POP POP JUMP JUMPDEST DUP3 PUSH2 0x2EA4 DUP2 PUSH2 0x17A7 JUMP JUMPDEST PUSH2 0x2ED6 JUMPI PUSH1 0x40 MLOAD PUSH3 0x461BCD PUSH1 0xE5 SHL DUP2 MSTORE PUSH1 0x20 PUSH1 0x4 DUP3 ADD MSTORE PUSH1 0x3 PUSH1 0x24 DUP3 ADD MSTORE PUSH3 0x444E45 PUSH1 0xE8 SHL PUSH1 0x44 DUP3 ADD MSTORE PUSH1 0x64 ADD PUSH2 0xAC7 JUMP JUMPDEST PUSH1 0x1 DUP1 SLOAD PUSH1 0xFF AND ISZERO ISZERO EQ PUSH2 0x2EFC JUMPI PUSH1 0x40 MLOAD PUSH3 0x461BCD PUSH1 0xE5 SHL DUP2 MSTORE PUSH1 0x4 ADD PUSH2 0xAC7 SWAP1 PUSH2 0x40A1 JUMP JUMPDEST PUSH1 0xE DUP6 PUSH1 0x40 MLOAD PUSH2 0x2F0C SWAP2 SWAP1 PUSH2 0x404D JUMP JUMPDEST SWAP1 DUP2 MSTORE PUSH1 0x40 DUP1 MLOAD PUSH1 0x20 SWAP3 DUP2 SWAP1 SUB DUP4 ADD SWAP1 KECCAK256 PUSH1 0x1 PUSH1 0x1 PUSH1 0xA0 SHL SUB DUP7 AND PUSH1 0x0 SWAP1 DUP2 MSTORE SWAP3 MSTORE SWAP1 KECCAK256 SLOAD DUP3 GT ISZERO PUSH2 0x2F50 JUMPI PUSH1 0x40 MLOAD PUSH3 0x461BCD PUSH1 0xE5 SHL DUP2 MSTORE PUSH1 0x4 ADD PUSH2 0xAC7 SWAP1 PUSH2 0x437F JUMP JUMPDEST DUP2 PUSH1 0xE DUP7 PUSH1 0x40 MLOAD PUSH2 0x2F61 SWAP2 SWAP1 PUSH2 0x404D JUMP JUMPDEST SWAP1 DUP2 MSTORE PUSH1 0x20 ADD PUSH1 0x40 MLOAD DUP1 SWAP2 SUB SWAP1 KECCAK256 PUSH1 0x0 DUP6 PUSH1 0x1 PUSH1 0x1 PUSH1 0xA0 SHL SUB AND PUSH1 0x1 PUSH1 0x1 PUSH1 0xA0 SHL SUB AND DUP2 MSTORE PUSH1 0x20 ADD SWAP1 DUP2 MSTORE PUSH1 0x20 ADD PUSH1 0x0 KECCAK256 PUSH1 0x0 DUP3 DUP3 SLOAD PUSH2 0x2FA1 SWAP2 SWAP1 PUSH2 0x411A JUMP JUMPDEST SWAP1 SWAP2 SSTORE POP POP PUSH1 0x1 PUSH1 0x1 PUSH1 0xA0 SHL SUB DUP4 AND ISZERO PUSH2 0x3095 JUMPI PUSH1 0xE DUP6 PUSH1 0x40 MLOAD PUSH2 0x2FC5 SWAP2 SWAP1 PUSH2 0x404D JUMP JUMPDEST SWAP1 DUP2 MSTORE PUSH1 0x40 DUP1 MLOAD PUSH1 0x20 SWAP3 DUP2 SWAP1 SUB DUP4 ADD SWAP1 KECCAK256 PUSH1 0x1 PUSH1 0x1 PUSH1 0xA0 SHL SUB DUP7 AND PUSH1 0x0 SWAP1 DUP2 MSTORE SWAP3 MSTORE DUP2 KECCAK256 SLOAD SWAP1 SUB PUSH2 0x3025 JUMPI PUSH1 0x1 PUSH1 0xD DUP7 PUSH1 0x40 MLOAD PUSH2 0x3002 SWAP2 SWAP1 PUSH2 0x404D JUMP JUMPDEST SWAP1 DUP2 MSTORE PUSH1 0x20 ADD PUSH1 0x40 MLOAD DUP1 SWAP2 SUB SWAP1 KECCAK256 PUSH1 0x0 DUP3 DUP3 SLOAD PUSH2 0x301F SWAP2 SWAP1 PUSH2 0x411A JUMP JUMPDEST SWAP1 SWAP2 SSTORE POP POP JUMPDEST PUSH1 0xE DUP5 PUSH1 0x40 MLOAD PUSH2 0x3035 SWAP2 SWAP1 PUSH2 0x404D JUMP JUMPDEST SWAP1 DUP2 MSTORE PUSH1 0x40 DUP1 MLOAD PUSH1 0x20 SWAP3 DUP2 SWAP1 SUB DUP4 ADD SWAP1 KECCAK256 PUSH1 0x1 PUSH1 0x1 PUSH1 0xA0 SHL SUB DUP7 AND PUSH1 0x0 SWAP1 DUP2 MSTORE SWAP3 MSTORE DUP2 KECCAK256 SLOAD SWAP1 SUB PUSH2 0x3095 JUMPI PUSH1 0x1 PUSH1 0xD DUP6 PUSH1 0x40 MLOAD PUSH2 0x3072 SWAP2 SWAP1 PUSH2 0x404D JUMP JUMPDEST SWAP1 DUP2 MSTORE PUSH1 0x20 ADD PUSH1 0x40 MLOAD DUP1 SWAP2 SUB SWAP1 KECCAK256 PUSH1 0x0 DUP3 DUP3 SLOAD PUSH2 0x308F SWAP2 SWAP1 PUSH2 0x4000 JUMP JUMPDEST SWAP1 SWAP2 SSTORE POP POP JUMPDEST DUP2 PUSH1 0xE DUP6 PUSH1 0x40 MLOAD PUSH2 0x30A6 SWAP2 SWAP1 PUSH2 0x404D JUMP JUMPDEST SWAP1 DUP2 MSTORE PUSH1 0x20 ADD PUSH1 0x40 MLOAD DUP1 SWAP2 SUB SWAP1 KECCAK256 PUSH1 0x0 DUP6 PUSH1 0x1 PUSH1 0x1 PUSH1 0xA0 SHL SUB AND PUSH1 0x1 PUSH1 0x1 PUSH1 0xA0 SHL SUB AND DUP2 MSTORE PUSH1 0x20 ADD SWAP1 DUP2 MSTORE PUSH1 0x20 ADD PUSH1 0x0 KECCAK256 PUSH1 0x0 DUP3 DUP3 SLOAD PUSH2 0x30E6 SWAP2 SWAP1 PUSH2 0x4000 JUMP JUMPDEST SWAP1 SWAP2 SSTORE POP POP PUSH1 0x40 MLOAD PUSH1 0x0 DUP1 MLOAD PUSH1 0x20 PUSH2 0x45EE DUP4 CODECOPY DUP2 MLOAD SWAP2 MSTORE SWAP1 PUSH2 0x3112 SWAP1 DUP8 SWAP1 DUP8 SWAP1 DUP8 SWAP1 DUP8 SWAP1 PUSH1 0x20 ADD PUSH2 0x447A JUMP JUMPDEST PUSH1 0x40 DUP1 MLOAD PUSH1 0x1F NOT DUP2 DUP5 SUB ADD DUP2 MSTORE SWAP1 DUP3 SWAP1 MSTORE PUSH2 0x1206 SWAP2 CALLER SWAP1 PUSH2 0x44BC JUMP JUMPDEST PUSH1 0x1 DUP1 SLOAD PUSH1 0xFF AND ISZERO ISZERO EQ PUSH2 0x3154 JUMPI PUSH1 0x40 MLOAD PUSH3 0x461BCD PUSH1 0xE5 SHL DUP2 MSTORE PUSH1 0x4 ADD PUSH2 0xAC7 SWAP1 PUSH2 0x40A1 JUMP JUMPDEST PUSH2 0x3178 PUSH1 0x40 MLOAD DUP1 PUSH1 0x40 ADD PUSH1 0x40 MSTORE DUP1 PUSH1 0x2 DUP2 MSTORE PUSH1 0x20 ADD PUSH2 0x36A1 PUSH1 0xF1 SHL DUP2 MSTORE POP DUP3 PUSH2 0x1E58 JUMP JUMPDEST PUSH2 0x31A9 JUMPI PUSH1 0x40 MLOAD PUSH3 0x461BCD PUSH1 0xE5 SHL DUP2 MSTORE PUSH1 0x20 PUSH1 0x4 DUP3 ADD MSTORE PUSH1 0x2 PUSH1 0x24 DUP3 ADD MSTORE PUSH2 0x4E5 PUSH1 0xF4 SHL PUSH1 0x44 DUP3 ADD MSTORE PUSH1 0x64 ADD PUSH2 0xAC7 JUMP JUMPDEST PUSH1 0x1 PUSH1 0xF DUP4 PUSH1 0x40 MLOAD PUSH2 0x31BB SWAP2 SWAP1 PUSH2 0x404D JUMP JUMPDEST SWAP1 DUP2 MSTORE PUSH1 0x40 DUP1 MLOAD PUSH1 0x20 SWAP3 DUP2 SWAP1 SUB DUP4 ADD DUP2 KECCAK256 PUSH1 0x1 PUSH1 0x1 PUSH1 0xA0 SHL SUB DUP7 AND PUSH1 0x0 SWAP1 DUP2 MSTORE SWAP1 DUP5 MSTORE SWAP2 SWAP1 SWAP2 KECCAK256 DUP1 SLOAD PUSH1 0xFF NOT AND SWAP4 ISZERO ISZERO SWAP4 SWAP1 SWAP4 OR SWAP1 SWAP3 SSTORE PUSH1 0x0 DUP1 MLOAD PUSH1 0x20 PUSH2 0x45EE DUP4 CODECOPY DUP2 MLOAD SWAP2 MSTORE SWAP2 PUSH2 0x3210 SWAP2 DUP6 SWAP2 DUP6 SWAP2 ADD PUSH2 0x42BE JUMP JUMPDEST PUSH1 0x40 DUP1 MLOAD PUSH1 0x1F NOT DUP2 DUP5 SUB ADD DUP2 MSTORE SWAP1 DUP3 SWAP1 MSTORE PUSH2 0x2113 SWAP2 CALLER SWAP1 PUSH2 0x44E8 JUMP JUMPDEST PUSH1 0x1 DUP1 SLOAD PUSH1 0xFF AND ISZERO ISZERO EQ PUSH2 0x3252 JUMPI PUSH1 0x40 MLOAD PUSH3 0x461BCD PUSH1 0xE5 SHL DUP2 MSTORE PUSH1 0x4 ADD PUSH2 0xAC7 SWAP1 PUSH2 0x40A1 JUMP JUMPDEST DUP1 PUSH1 0x10 DUP5 PUSH1 0x40 MLOAD PUSH2 0x3263 SWAP2 SWAP1 PUSH2 0x404D JUMP JUMPDEST SWAP1 DUP2 MSTORE PUSH1 0x40 DUP1 MLOAD PUSH1 0x20 SWAP3 DUP2 SWAP1 SUB DUP4 ADD SWAP1 KECCAK256 PUSH1 0x1 PUSH1 0x1 PUSH1 0xA0 SHL SUB DUP7 AND PUSH1 0x0 SWAP1 DUP2 MSTORE SWAP3 MSTORE SWAP1 KECCAK256 DUP1 SLOAD PUSH1 0xFF NOT AND PUSH1 0x1 DUP4 PUSH1 0x2 DUP2 GT ISZERO PUSH2 0x32A1 JUMPI PUSH2 0x32A1 PUSH2 0x4013 JUMP JUMPDEST MUL OR SWAP1 SSTORE POP PUSH1 0x0 DUP1 MLOAD PUSH1 0x20 PUSH2 0x45EE DUP4 CODECOPY DUP2 MLOAD SWAP2 MSTORE DUP4 DUP4 DUP4 PUSH1 0x40 MLOAD PUSH1 0x20 ADD PUSH2 0x32CA SWAP4 SWAP3 SWAP2 SWAP1 PUSH2 0x4514 JUMP JUMPDEST PUSH1 0x40 DUP1 MLOAD PUSH1 0x1F NOT DUP2 DUP5 SUB ADD DUP2 MSTORE SWAP1 DUP3 SWAP1 MSTORE PUSH2 0xA32 SWAP2 CALLER SWAP1 PUSH2 0x4545 JUMP JUMPDEST PUSH1 0x0 DUP1 PUSH1 0x0 DUP5 DUP5 GT PUSH2 0x32F7 JUMPI PUSH1 0x0 DUP1 REVERT JUMPDEST PUSH1 0x0 DUP5 PUSH2 0x3304 DUP8 DUP10 PUSH2 0x40D9 JUMP JUMPDEST PUSH2 0x330E SWAP2 SWAP1 PUSH2 0x4106 JUMP JUMPDEST SWAP1 POP PUSH1 0x0 DUP6 PUSH2 0x331D DUP9 DUP3 PUSH2 0x411A JUMP JUMPDEST PUSH2 0x3327 SWAP1 DUP11 PUSH2 0x40D9 JUMP JUMPDEST PUSH2 0x3331 SWAP2 SWAP1 PUSH2 0x4106 JUMP JUMPDEST SWAP1 POP DUP2 DUP2 PUSH2 0x333F DUP2 DUP4 PUSH2 0x4000 JUMP JUMPDEST PUSH2 0x3349 SWAP1 DUP12 PUSH2 0x411A JUMP JUMPDEST SWAP5 POP SWAP5 POP SWAP5 POP POP POP SWAP4 POP SWAP4 POP SWAP4 SWAP1 POP JUMP JUMPDEST PUSH1 0x0 DUP3 DUP6 EQ DUP1 ISZERO PUSH2 0x336A JUMPI POP DUP2 DUP5 EQ JUMPDEST SWAP1 POP JUMPDEST SWAP5 SWAP4 POP POP POP POP JUMP JUMPDEST PUSH1 0x1 DUP1 SLOAD PUSH1 0xFF AND ISZERO ISZERO EQ PUSH2 0x339B JUMPI PUSH1 0x40 MLOAD PUSH3 0x461BCD PUSH1 0xE5 SHL DUP2 MSTORE PUSH1 0x4 ADD PUSH2 0xAC7 SWAP1 PUSH2 0x40A1 JUMP JUMPDEST PUSH1 0xE DUP5 PUSH1 0x40 MLOAD PUSH2 0x33AB SWAP2 SWAP1 PUSH2 0x404D JUMP JUMPDEST SWAP1 DUP2 MSTORE PUSH1 0x40 DUP1 MLOAD PUSH1 0x20 SWAP3 DUP2 SWAP1 SUB DUP4 ADD SWAP1 KECCAK256 PUSH1 0x1 PUSH1 0x1 PUSH1 0xA0 SHL SUB DUP7 AND PUSH1 0x0 SWAP1 DUP2 MSTORE SWAP3 MSTORE SWAP1 KECCAK256 SLOAD DUP3 GT ISZERO PUSH2 0x33EF JUMPI PUSH1 0x40 MLOAD PUSH3 0x461BCD PUSH1 0xE5 SHL DUP2 MSTORE PUSH1 0x4 ADD PUSH2 0xAC7 SWAP1 PUSH2 0x437F JUMP JUMPDEST PUSH2 0x33FA DUP4 DUP4 DUP4 PUSH2 0x2479 JUMP JUMPDEST DUP2 PUSH1 0xE DUP6 PUSH1 0x40 MLOAD PUSH2 0x340B SWAP2 SWAP1 PUSH2 0x404D JUMP JUMPDEST SWAP1 DUP2 MSTORE PUSH1 0x20 ADD PUSH1 0x40 MLOAD DUP1 SWAP2 SUB SWAP1 KECCAK256 PUSH1 0x0 DUP6 PUSH1 0x1 PUSH1 0x1 PUSH1 0xA0 SHL SUB AND PUSH1 0x1 PUSH1 0x1 PUSH1 0xA0 SHL SUB AND DUP2 MSTORE PUSH1 0x20 ADD SWAP1 DUP2 MSTORE PUSH1 0x20 ADD PUSH1 0x0 KECCAK256 PUSH1 0x0 DUP3 DUP3 SLOAD PUSH2 0x344B SWAP2 SWAP1 PUSH2 0x411A JUMP JUMPDEST SWAP1 SWAP2 SSTORE POP POP PUSH1 0x40 MLOAD PUSH1 0xE SWAP1 PUSH2 0x3461 SWAP1 DUP7 SWAP1 PUSH2 0x404D JUMP JUMPDEST SWAP1 DUP2 MSTORE PUSH1 0x40 DUP1 MLOAD PUSH1 0x20 SWAP3 DUP2 SWAP1 SUB DUP4 ADD SWAP1 KECCAK256 PUSH1 0x1 PUSH1 0x1 PUSH1 0xA0 SHL SUB DUP7 AND PUSH1 0x0 SWAP1 DUP2 MSTORE SWAP3 MSTORE SWAP1 KECCAK256 SLOAD ISZERO DUP1 ISZERO PUSH2 0x349B JUMPI POP PUSH1 0x1 PUSH1 0x1 PUSH1 0xA0 SHL SUB DUP4 AND ISZERO ISZERO JUMPDEST ISZERO PUSH2 0x34D5 JUMPI PUSH1 0x1 PUSH1 0xD DUP6 PUSH1 0x40 MLOAD PUSH2 0x34B2 SWAP2 SWAP1 PUSH2 0x404D JUMP JUMPDEST SWAP1 DUP2 MSTORE PUSH1 0x20 ADD PUSH1 0x40 MLOAD DUP1 SWAP2 SUB SWAP1 KECCAK256 PUSH1 0x0 DUP3 DUP3 SLOAD PUSH2 0x34CF SWAP2 SWAP1 PUSH2 0x411A JUMP JUMPDEST SWAP1 SWAP2 SSTORE POP POP JUMPDEST PUSH1 0x0 DUP1 MLOAD PUSH1 0x20 PUSH2 0x45EE DUP4 CODECOPY DUP2 MLOAD SWAP2 MSTORE DUP5 DUP5 DUP5 DUP5 PUSH1 0x40 MLOAD PUSH1 0x20 ADD PUSH2 0x34FB SWAP5 SWAP4 SWAP3 SWAP2 SWAP1 PUSH2 0x4571 JUMP JUMPDEST PUSH1 0x40 DUP1 MLOAD PUSH1 0x1F NOT DUP2 DUP5 SUB ADD DUP2 MSTORE SWAP1 DUP3 SWAP1 MSTORE PUSH2 0x29A3 SWAP2 CALLER SWAP1 PUSH2 0x45AD JUMP JUMPDEST DUP6 PUSH2 0x3531 DUP2 PUSH1 0x0 DUP1 SLOAD SWAP2 DUP2 MSTORE PUSH1 0x6 PUSH1 0x20 MSTORE PUSH1 0x40 SWAP1 KECCAK256 SLOAD GT SWAP1 JUMP JUMPDEST PUSH2 0x354D JUMPI PUSH1 0x40 MLOAD PUSH3 0x461BCD PUSH1 0xE5 SHL DUP2 MSTORE PUSH1 0x4 ADD PUSH2 0xAC7 SWAP1 PUSH2 0x4085 JUMP JUMPDEST PUSH1 0x1 DUP1 SLOAD PUSH1 0xFF AND ISZERO ISZERO EQ PUSH2 0x3573 JUMPI PUSH1 0x40 MLOAD PUSH3 0x461BCD PUSH1 0xE5 SHL DUP2 MSTORE PUSH1 0x4 ADD PUSH2 0xAC7 SWAP1 PUSH2 0x40A1 JUMP JUMPDEST PUSH1 0x0 DUP8 DUP2 MSTORE PUSH1 0x2 PUSH1 0x20 MSTORE PUSH1 0x40 SWAP1 KECCAK256 PUSH1 0x1 DUP2 ADD SLOAD SWAP1 SLOAD PUSH2 0x3592 SWAP2 SWAP1 PUSH2 0x4106 JUMP JUMPDEST PUSH2 0x359C DUP7 DUP9 PUSH2 0x4106 JUMP JUMPDEST GT ISZERO PUSH2 0x35BA JUMPI PUSH1 0x40 MLOAD PUSH3 0x461BCD PUSH1 0xE5 SHL DUP2 MSTORE PUSH1 0x4 ADD PUSH2 0xAC7 SWAP1 PUSH2 0x437F JUMP JUMPDEST PUSH2 0x35C4 DUP7 DUP7 PUSH2 0x3AB0 JUMP JUMPDEST DUP1 SWAP7 POP DUP2 SWAP8 POP POP POP PUSH1 0x40 MLOAD DUP1 PUSH1 0xA0 ADD PUSH1 0x40 MSTORE DUP1 DUP8 DUP2 MSTORE PUSH1 0x20 ADD DUP7 DUP2 MSTORE PUSH1 0x20 ADD DUP6 PUSH1 0x1 PUSH1 0x1 PUSH1 0xA0 SHL SUB AND DUP2 MSTORE PUSH1 0x20 ADD DUP5 DUP2 MSTORE PUSH1 0x20 ADD DUP4 PUSH1 0x1 PUSH1 0x1 PUSH1 0xA0 SHL SUB AND DUP2 MSTORE POP PUSH1 0x5 PUSH1 0x0 DUP10 DUP2 MSTORE PUSH1 0x20 ADD SWAP1 DUP2 MSTORE PUSH1 0x20 ADD PUSH1 0x0 KECCAK256 PUSH1 0x0 DUP3 ADD MLOAD DUP2 PUSH1 0x0 ADD SSTORE PUSH1 0x20 DUP3 ADD MLOAD DUP2 PUSH1 0x1 ADD SSTORE PUSH1 0x40 DUP3 ADD MLOAD DUP2 PUSH1 0x2 ADD PUSH1 0x0 PUSH2 0x100 EXP DUP2 SLOAD DUP2 PUSH1 0x1 PUSH1 0x1 PUSH1 0xA0 SHL SUB MUL NOT AND SWAP1 DUP4 PUSH1 0x1 PUSH1 0x1 PUSH1 0xA0 SHL SUB AND MUL OR SWAP1 SSTORE POP PUSH1 0x60 DUP3 ADD MLOAD DUP2 PUSH1 0x3 ADD SSTORE PUSH1 0x80 DUP3 ADD MLOAD DUP2 PUSH1 0x4 ADD PUSH1 0x0 PUSH2 0x100 EXP DUP2 SLOAD DUP2 PUSH1 0x1 PUSH1 0x1 PUSH1 0xA0 SHL SUB MUL NOT AND SWAP1 DUP4 PUSH1 0x1 PUSH1 0x1 PUSH1 0xA0 SHL SUB AND MUL OR SWAP1 SSTORE POP SWAP1 POP POP PUSH1 0x1 PUSH1 0x4 PUSH1 0x0 DUP10 DUP2 MSTORE PUSH1 0x20 ADD SWAP1 DUP2 MSTORE PUSH1 0x20 ADD PUSH1 0x0 KECCAK256 PUSH1 0x0 PUSH2 0x100 EXP DUP2 SLOAD DUP2 PUSH1 0xFF MUL NOT AND SWAP1 DUP4 ISZERO ISZERO MUL OR SWAP1 SSTORE POP PUSH32 0x4C4DCD7B4186FE1C900D89BC3C911766F63CF9C3570750481F0D89BFBCB75285 DUP8 DUP8 DUP8 DUP8 DUP8 DUP8 PUSH1 0x40 MLOAD PUSH2 0x372A SWAP7 SWAP6 SWAP5 SWAP4 SWAP3 SWAP2 SWAP1 SWAP6 DUP7 MSTORE PUSH1 0x20 DUP7 ADD SWAP5 SWAP1 SWAP5 MSTORE PUSH1 0x40 DUP6 ADD SWAP3 SWAP1 SWAP3 MSTORE PUSH1 0x1 PUSH1 0x1 PUSH1 0xA0 SHL SUB SWAP1 DUP2 AND PUSH1 0x60 DUP6 ADD MSTORE PUSH1 0x80 DUP5 ADD SWAP2 SWAP1 SWAP2 MSTORE AND PUSH1 0xA0 DUP3 ADD MSTORE PUSH1 0xC0 ADD SWAP1 JUMP JUMPDEST PUSH1 0x40 MLOAD DUP1 SWAP2 SUB SWAP1 LOG1 POP POP POP POP POP POP POP JUMP JUMPDEST PUSH1 0x1 DUP1 SLOAD PUSH1 0xFF AND ISZERO ISZERO EQ PUSH2 0x3761 JUMPI PUSH1 0x40 MLOAD PUSH3 0x461BCD PUSH1 0xE5 SHL DUP2 MSTORE PUSH1 0x4 ADD PUSH2 0xAC7 SWAP1 PUSH2 0x40A1 JUMP JUMPDEST PUSH1 0x1 DUP1 SLOAD PUSH1 0xFF NOT AND SWAP1 SSTORE JUMP JUMPDEST PUSH1 0x0 DUP2 PUSH1 0x1 PUSH1 0x1 PUSH1 0xA0 SHL SUB AND DUP4 PUSH1 0x40 MLOAD PUSH1 0x0 PUSH1 0x40 MLOAD DUP1 DUP4 SUB DUP2 DUP6 DUP8 GAS CALL SWAP3 POP POP POP RETURNDATASIZE DUP1 PUSH1 0x0 DUP2 EQ PUSH2 0x37BA JUMPI PUSH1 0x40 MLOAD SWAP2 POP PUSH1 0x1F NOT PUSH1 0x3F RETURNDATASIZE ADD AND DUP3 ADD PUSH1 0x40 MSTORE RETURNDATASIZE DUP3 MSTORE RETURNDATASIZE PUSH1 0x0 PUSH1 0x20 DUP5 ADD RETURNDATACOPY PUSH2 0x37BF JUMP JUMPDEST PUSH1 0x60 SWAP2 POP JUMPDEST POP POP SWAP1 POP DUP1 PUSH2 0xADA JUMPI PUSH1 0x40 MLOAD PUSH3 0x461BCD PUSH1 0xE5 SHL DUP2 MSTORE PUSH1 0x20 PUSH1 0x4 DUP3 ADD MSTORE PUSH1 0x2 PUSH1 0x24 DUP3 ADD MSTORE PUSH2 0x2A23 PUSH1 0xF1 SHL PUSH1 0x44 DUP3 ADD MSTORE PUSH1 0x64 ADD PUSH2 0xAC7 JUMP JUMPDEST PUSH1 0x1 PUSH1 0x1 PUSH1 0xA0 SHL SUB DUP3 AND PUSH1 0x0 SWAP1 DUP2 MSTORE PUSH1 0x8 PUSH1 0x20 MSTORE PUSH1 0x40 DUP2 KECCAK256 DUP1 SLOAD DUP4 SWAP3 SWAP1 PUSH2 0x381D SWAP1 DUP5 SWAP1 PUSH2 0x411A JUMP JUMPDEST SWAP1 SWAP2 SSTORE POP POP PUSH1 0x1 PUSH1 0x1 PUSH1 0xA0 SHL SUB DUP3 AND PUSH1 0x0 SWAP1 DUP2 MSTORE PUSH1 0x9 PUSH1 0x20 MSTORE PUSH1 0x40 DUP2 KECCAK256 DUP1 SLOAD DUP4 SWAP3 SWAP1 PUSH2 0x384A SWAP1 DUP5 SWAP1 PUSH2 0x411A JUMP JUMPDEST SWAP1 SWAP2 SSTORE POP POP POP POP JUMP JUMPDEST PUSH1 0x0 DUP1 PUSH2 0x3860 DUP4 DUP8 PUSH2 0x40D9 JUMP JUMPDEST SWAP6 POP PUSH2 0x386C DUP6 DUP6 PUSH2 0x40D9 JUMP JUMPDEST SWAP4 POP PUSH2 0x3878 DUP5 DUP8 PUSH2 0x4000 JUMP JUMPDEST PUSH2 0x3882 DUP5 DUP8 PUSH2 0x40D9 JUMP JUMPDEST SWAP2 POP SWAP2 POP SWAP5 POP SWAP5 SWAP3 POP POP POP JUMP JUMPDEST PUSH1 0x40 MLOAD PUSH12 0xFFFFFFFFFFFFFFFFFFFFFFFF NOT PUSH1 0x60 DUP5 SWAP1 SHL AND PUSH1 0x20 DUP3 ADD MSTORE PUSH1 0x34 DUP2 ADD DUP3 SWAP1 MSTORE PUSH1 0x0 SWAP1 PUSH1 0x54 ADD PUSH1 0x40 DUP1 MLOAD DUP1 DUP4 SUB PUSH1 0x1F NOT ADD DUP2 MSTORE DUP3 DUP3 MSTORE DUP1 MLOAD PUSH1 0x20 SWAP2 DUP3 ADD KECCAK256 PUSH1 0x1 PUSH1 0x1 PUSH1 0xA0 SHL SUB DUP8 DUP2 AND PUSH1 0x0 DUP2 DUP2 MSTORE PUSH1 0x3 DUP1 DUP7 MSTORE DUP7 DUP3 KECCAK256 DUP6 SWAP1 SSTORE DUP5 DUP3 MSTORE PUSH1 0x6 DUP7 MSTORE DUP7 DUP3 KECCAK256 PUSH1 0x0 NOT SWAP1 SSTORE PUSH1 0x80 DUP9 ADD DUP8 MSTORE DUP13 DUP9 MSTORE DUP6 DUP9 ADD DUP13 DUP2 MSTORE DUP9 DUP9 ADD DUP5 DUP2 MSTORE PUSH1 0x60 DUP1 DUP12 ADD DUP14 DUP2 MSTORE DUP9 DUP7 MSTORE PUSH1 0x2 DUP1 DUP12 MSTORE SWAP6 DUP12 SWAP1 KECCAK256 SWAP12 MLOAD DUP13 SSTORE SWAP3 MLOAD PUSH1 0x1 DUP13 ADD SSTORE SWAP1 MLOAD SWAP4 DUP11 ADD DUP1 SLOAD PUSH1 0x1 PUSH1 0x1 PUSH1 0xA0 SHL SUB NOT AND SWAP5 SWAP1 SWAP7 AND SWAP4 SWAP1 SWAP4 OR SWAP1 SWAP5 SSTORE SWAP3 MLOAD SWAP7 SWAP1 SWAP3 ADD SWAP6 SWAP1 SWAP6 SSTORE DUP4 MLOAD DUP3 DUP2 MSTORE SWAP3 DUP4 ADD SWAP5 SWAP1 SWAP5 MSTORE SWAP2 DUP2 ADD DUP6 SWAP1 MSTORE SWAP1 SWAP3 POP PUSH32 0x90E88E994885F1CDD31D3393F0B012E817804FC9D2ADEF69D0D7E5053D1E29AD SWAP2 ADD PUSH2 0x1206 JUMP JUMPDEST PUSH2 0x399A DUP2 PUSH2 0x1405 JUMP JUMPDEST PUSH2 0x39B6 JUMPI PUSH1 0x40 MLOAD PUSH3 0x461BCD PUSH1 0xE5 SHL DUP2 MSTORE PUSH1 0x4 ADD PUSH2 0xAC7 SWAP1 PUSH2 0x40BD JUMP JUMPDEST PUSH1 0x1 PUSH1 0x1 PUSH1 0xA0 SHL SUB DUP2 AND PUSH1 0x0 SWAP1 DUP2 MSTORE PUSH1 0x8 PUSH1 0x20 MSTORE PUSH1 0x40 SWAP1 KECCAK256 SLOAD ISZERO PUSH2 0x3A01 JUMPI PUSH1 0x40 MLOAD PUSH3 0x461BCD PUSH1 0xE5 SHL DUP2 MSTORE PUSH1 0x20 PUSH1 0x4 DUP3 ADD MSTORE PUSH1 0x2 PUSH1 0x24 DUP3 ADD MSTORE PUSH2 0x272D PUSH1 0xF1 SHL PUSH1 0x44 DUP3 ADD MSTORE PUSH1 0x64 ADD PUSH2 0xAC7 JUMP JUMPDEST PUSH1 0x1 PUSH1 0x1 PUSH1 0xA0 SHL SUB AND PUSH1 0x0 SWAP1 DUP2 MSTORE PUSH1 0x7 PUSH1 0x20 MSTORE PUSH1 0x40 SWAP1 KECCAK256 DUP1 SLOAD PUSH1 0xFF NOT AND SWAP1 SSTORE JUMP JUMPDEST PUSH2 0x3A2B DUP2 PUSH2 0x1405 JUMP JUMPDEST ISZERO PUSH2 0x3A5D JUMPI PUSH1 0x40 MLOAD PUSH3 0x461BCD PUSH1 0xE5 SHL DUP2 MSTORE PUSH1 0x20 PUSH1 0x4 DUP3 ADD MSTORE PUSH1 0x2 PUSH1 0x24 DUP3 ADD MSTORE PUSH2 0x20A9 PUSH1 0xF1 SHL PUSH1 0x44 DUP3 ADD MSTORE PUSH1 0x64 ADD PUSH2 0xAC7 JUMP JUMPDEST PUSH1 0x1 PUSH1 0x1 PUSH1 0xA0 SHL SUB AND PUSH1 0x0 SWAP1 DUP2 MSTORE PUSH1 0x7 PUSH1 0x20 MSTORE PUSH1 0x40 SWAP1 KECCAK256 DUP1 SLOAD PUSH1 0xFF NOT AND PUSH1 0x1 OR SWAP1 SSTORE JUMP JUMPDEST PUSH1 0x0 DUP1 PUSH2 0x3A8E DUP4 DUP8 PUSH2 0x40D9 JUMP JUMPDEST SWAP6 POP PUSH2 0x3A9A DUP5 DUP7 PUSH2 0x40D9 JUMP JUMPDEST SWAP5 POP PUSH2 0x3AA6 DUP6 DUP8 PUSH2 0x411A JUMP JUMPDEST PUSH2 0x3882 DUP5 DUP7 PUSH2 0x40D9 JUMP JUMPDEST PUSH1 0x0 DUP1 PUSH1 0x0 PUSH2 0x3ABF DUP6 DUP6 PUSH2 0x3B3C JUMP JUMPDEST SWAP1 POP PUSH2 0x3ACB DUP2 DUP6 PUSH2 0x4106 JUMP JUMPDEST PUSH2 0x3AD5 DUP3 DUP8 PUSH2 0x4106 JUMP JUMPDEST PUSH2 0x3ADF SWAP2 SWAP1 PUSH2 0x4106 JUMP JUMPDEST PUSH2 0x3AE9 DUP6 DUP8 PUSH2 0x4106 JUMP JUMPDEST EQ PUSH2 0x3B1C JUMPI PUSH1 0x40 MLOAD PUSH3 0x461BCD PUSH1 0xE5 SHL DUP2 MSTORE PUSH1 0x20 PUSH1 0x4 DUP3 ADD MSTORE PUSH1 0x3 PUSH1 0x24 DUP3 ADD MSTORE PUSH3 0x159355 PUSH1 0xEA SHL PUSH1 0x44 DUP3 ADD MSTORE PUSH1 0x64 ADD PUSH2 0xAC7 JUMP JUMPDEST PUSH2 0x3B26 DUP2 DUP7 PUSH2 0x4106 JUMP JUMPDEST PUSH2 0x3B30 DUP3 DUP7 PUSH2 0x4106 JUMP JUMPDEST SWAP3 POP SWAP3 POP POP SWAP3 POP SWAP3 SWAP1 POP JUMP JUMPDEST PUSH1 0x0 JUMPDEST DUP2 ISZERO PUSH2 0x3B5A JUMPI DUP2 PUSH2 0x3B50 DUP2 DUP6 PUSH2 0x45D9 JUMP JUMPDEST SWAP1 SWAP4 POP SWAP2 POP PUSH2 0x3B3F JUMP JUMPDEST POP SWAP1 SWAP2 SWAP1 POP JUMP JUMPDEST PUSH4 0x4E487B71 PUSH1 0xE0 SHL PUSH1 0x0 MSTORE PUSH1 0x41 PUSH1 0x4 MSTORE PUSH1 0x24 PUSH1 0x0 REVERT JUMPDEST PUSH1 0x0 DUP3 PUSH1 0x1F DUP4 ADD SLT PUSH2 0x3B88 JUMPI PUSH1 0x0 DUP1 REVERT JUMPDEST DUP2 CALLDATALOAD PUSH8 0xFFFFFFFFFFFFFFFF DUP1 DUP3 GT ISZERO PUSH2 0x3BA3 JUMPI PUSH2 0x3BA3 PUSH2 0x3B61 JUMP JUMPDEST PUSH1 0x40 MLOAD PUSH1 0x1F DUP4 ADD PUSH1 0x1F NOT SWAP1 DUP2 AND PUSH1 0x3F ADD AND DUP2 ADD SWAP1 DUP3 DUP3 GT DUP2 DUP4 LT OR ISZERO PUSH2 0x3BCB JUMPI PUSH2 0x3BCB PUSH2 0x3B61 JUMP JUMPDEST DUP2 PUSH1 0x40 MSTORE DUP4 DUP2 MSTORE DUP7 PUSH1 0x20 DUP6 DUP9 ADD ADD GT ISZERO PUSH2 0x3BE4 JUMPI PUSH1 0x0 DUP1 REVERT JUMPDEST DUP4 PUSH1 0x20 DUP8 ADD PUSH1 0x20 DUP4 ADD CALLDATACOPY PUSH1 0x0 PUSH1 0x20 DUP6 DUP4 ADD ADD MSTORE DUP1 SWAP5 POP POP POP POP POP SWAP3 SWAP2 POP POP JUMP JUMPDEST DUP1 CALLDATALOAD PUSH1 0x3 DUP2 LT PUSH2 0x3C13 JUMPI PUSH1 0x0 DUP1 REVERT JUMPDEST SWAP2 SWAP1 POP JUMP JUMPDEST PUSH1 0x0 DUP1 PUSH1 0x40 DUP4 DUP6 SUB SLT ISZERO PUSH2 0x3C2B JUMPI PUSH1 0x0 DUP1 REVERT JUMPDEST DUP3 CALLDATALOAD PUSH8 0xFFFFFFFFFFFFFFFF DUP2 GT ISZERO PUSH2 0x3C42 JUMPI PUSH1 0x0 DUP1 REVERT JUMPDEST PUSH2 0x3C4E DUP6 DUP3 DUP7 ADD PUSH2 0x3B77 JUMP JUMPDEST SWAP3 POP POP PUSH2 0x3C5D PUSH1 0x20 DUP5 ADD PUSH2 0x3C04 JUMP JUMPDEST SWAP1 POP SWAP3 POP SWAP3 SWAP1 POP JUMP JUMPDEST PUSH1 0x0 PUSH1 0x20 DUP3 DUP5 SUB SLT ISZERO PUSH2 0x3C78 JUMPI PUSH1 0x0 DUP1 REVERT JUMPDEST POP CALLDATALOAD SWAP2 SWAP1 POP JUMP JUMPDEST PUSH1 0x0 PUSH1 0x20 DUP3 DUP5 SUB SLT ISZERO PUSH2 0x3C91 JUMPI PUSH1 0x0 DUP1 REVERT JUMPDEST DUP2 CALLDATALOAD PUSH8 0xFFFFFFFFFFFFFFFF DUP2 GT ISZERO PUSH2 0x3CA8 JUMPI PUSH1 0x0 DUP1 REVERT JUMPDEST PUSH2 0x336D DUP5 DUP3 DUP6 ADD PUSH2 0x3B77 JUMP JUMPDEST DUP1 CALLDATALOAD PUSH1 0x1 PUSH1 0x1 PUSH1 0xA0 SHL SUB DUP2 AND DUP2 EQ PUSH2 0x3C13 JUMPI PUSH1 0x0 DUP1 REVERT JUMPDEST PUSH1 0x0 DUP1 PUSH1 0x40 DUP4 DUP6 SUB SLT ISZERO PUSH2 0x3CDE JUMPI PUSH1 0x0 DUP1 REVERT JUMPDEST DUP3 CALLDATALOAD PUSH8 0xFFFFFFFFFFFFFFFF DUP2 GT ISZERO PUSH2 0x3CF5 JUMPI PUSH1 0x0 DUP1 REVERT JUMPDEST PUSH2 0x3D01 DUP6 DUP3 DUP7 ADD PUSH2 0x3B77 JUMP JUMPDEST SWAP3 POP POP PUSH2 0x3C5D PUSH1 0x20 DUP5 ADD PUSH2 0x3CB4 JUMP JUMPDEST PUSH1 0x0 PUSH1 0x20 DUP3 DUP5 SUB SLT ISZERO PUSH2 0x3D22 JUMPI PUSH1 0x0 DUP1 REVERT JUMPDEST PUSH2 0xD1D DUP3 PUSH2 0x3CB4 JUMP JUMPDEST PUSH1 0x0 DUP1 PUSH1 0x40 DUP4 DUP6 SUB SLT ISZERO PUSH2 0x3D3E JUMPI PUSH1 0x0 DUP1 REVERT JUMPDEST POP POP DUP1 CALLDATALOAD SWAP3 PUSH1 0x20 SWAP1 SWAP2 ADD CALLDATALOAD SWAP2 POP JUMP JUMPDEST PUSH1 0x0 DUP1 PUSH1 0x40 DUP4 DUP6 SUB SLT ISZERO PUSH2 0x3D60 JUMPI PUSH1 0x0 DUP1 REVERT JUMPDEST DUP3 CALLDATALOAD SWAP2 POP PUSH2 0x3C5D PUSH1 0x20 DUP5 ADD PUSH2 0x3CB4 JUMP JUMPDEST PUSH1 0x0 DUP1 PUSH1 0x0 PUSH1 0x60 DUP5 DUP7 SUB SLT ISZERO PUSH2 0x3D85 JUMPI PUSH1 0x0 DUP1 REVERT JUMPDEST DUP4 CALLDATALOAD PUSH8 0xFFFFFFFFFFFFFFFF DUP2 GT ISZERO PUSH2 0x3D9C JUMPI PUSH1 0x0 DUP1 REVERT JUMPDEST PUSH2 0x3DA8 DUP7 DUP3 DUP8 ADD PUSH2 0x3B77 JUMP JUMPDEST SWAP4 POP POP PUSH2 0x3DB7 PUSH1 0x20 DUP6 ADD PUSH2 0x3CB4 JUMP JUMPDEST SWAP2 POP PUSH1 0x40 DUP5 ADD CALLDATALOAD SWAP1 POP SWAP3 POP SWAP3 POP SWAP3 JUMP JUMPDEST DUP1 ISZERO ISZERO DUP2 EQ PUSH2 0xB15 JUMPI PUSH1 0x0 DUP1 REVERT JUMPDEST PUSH1 0x0 PUSH1 0x20 DUP3 DUP5 SUB SLT ISZERO PUSH2 0x3DE7 JUMPI PUSH1 0x0 DUP1 REVERT JUMPDEST DUP2 CALLDATALOAD PUSH2 0xD1D DUP2 PUSH2 0x3DC7 JUMP JUMPDEST PUSH1 0x0 DUP1 PUSH1 0x0 DUP1 PUSH1 0x80 DUP6 DUP8 SUB SLT ISZERO PUSH2 0x3E08 JUMPI PUSH1 0x0 DUP1 REVERT JUMPDEST DUP5 CALLDATALOAD SWAP4 POP PUSH1 0x20 DUP6 ADD CALLDATALOAD SWAP3 POP PUSH1 0x40 DUP6 ADD CALLDATALOAD SWAP2 POP PUSH2 0x3E26 PUSH1 0x60 DUP7 ADD PUSH2 0x3CB4 JUMP JUMPDEST SWAP1 POP SWAP3 SWAP6 SWAP2 SWAP5 POP SWAP3 POP JUMP JUMPDEST PUSH1 0x0 DUP1 PUSH1 0x40 DUP4 DUP6 SUB SLT ISZERO PUSH2 0x3E44 JUMPI PUSH1 0x0 DUP1 REVERT JUMPDEST PUSH2 0x3E4D DUP4 PUSH2 0x3CB4 JUMP JUMPDEST SWAP5 PUSH1 0x20 SWAP4 SWAP1 SWAP4 ADD CALLDATALOAD SWAP4 POP POP POP JUMP JUMPDEST PUSH1 0x0 DUP1 PUSH1 0x0 DUP1 PUSH1 0x80 DUP6 DUP8 SUB SLT ISZERO PUSH2 0x3E71 JUMPI PUSH1 0x0 DUP1 REVERT JUMPDEST DUP5 CALLDATALOAD PUSH8 0xFFFFFFFFFFFFFFFF DUP1 DUP3 GT ISZERO PUSH2 0x3E89 JUMPI PUSH1 0x0 DUP1 REVERT JUMPDEST PUSH2 0x3E95 DUP9 DUP4 DUP10 ADD PUSH2 0x3B77 JUMP JUMPDEST SWAP6 POP PUSH1 0x20 DUP8 ADD CALLDATALOAD SWAP2 POP DUP1 DUP3 GT ISZERO PUSH2 0x3EAB JUMPI PUSH1 0x0 DUP1 REVERT JUMPDEST POP PUSH2 0x3EB8 DUP8 DUP3 DUP9 ADD PUSH2 0x3B77 JUMP JUMPDEST SWAP4 POP POP PUSH2 0x3EC7 PUSH1 0x40 DUP7 ADD PUSH2 0x3CB4 JUMP JUMPDEST SWAP4 SWAP7 SWAP3 SWAP6 POP SWAP3 SWAP4 PUSH1 0x60 ADD CALLDATALOAD SWAP3 POP POP JUMP JUMPDEST PUSH1 0x0 DUP1 PUSH1 0x0 PUSH1 0x60 DUP5 DUP7 SUB SLT ISZERO PUSH2 0x3EEC JUMPI PUSH1 0x0 DUP1 REVERT JUMPDEST DUP4 CALLDATALOAD PUSH8 0xFFFFFFFFFFFFFFFF DUP2 GT ISZERO PUSH2 0x3F03 JUMPI PUSH1 0x0 DUP1 REVERT JUMPDEST PUSH2 0x3F0F DUP7 DUP3 DUP8 ADD PUSH2 0x3B77 JUMP JUMPDEST SWAP4 POP POP PUSH2 0x3F1E PUSH1 0x20 DUP6 ADD PUSH2 0x3CB4 JUMP JUMPDEST SWAP2 POP PUSH2 0x3F2C PUSH1 0x40 DUP6 ADD PUSH2 0x3C04 JUMP JUMPDEST SWAP1 POP SWAP3 POP SWAP3 POP SWAP3 JUMP JUMPDEST PUSH1 0x0 DUP1 PUSH1 0x0 DUP1 PUSH1 0x80 DUP6 DUP8 SUB SLT ISZERO PUSH2 0x3F4B JUMPI PUSH1 0x0 DUP1 REVERT JUMPDEST DUP5 CALLDATALOAD PUSH8 0xFFFFFFFFFFFFFFFF DUP2 GT ISZERO PUSH2 0x3F62 JUMPI PUSH1 0x0 DUP1 REVERT JUMPDEST PUSH2 0x3F6E DUP8 DUP3 DUP9 ADD PUSH2 0x3B77 JUMP JUMPDEST SWAP5 POP POP PUSH2 0x3F7D PUSH1 0x20 DUP7 ADD PUSH2 0x3CB4 JUMP JUMPDEST SWAP3 POP PUSH1 0x40 DUP6 ADD CALLDATALOAD SWAP2 POP PUSH2 0x3E26 PUSH1 0x60 DUP7 ADD PUSH2 0x3CB4 JUMP JUMPDEST PUSH1 0x0 DUP1 PUSH1 0x0 DUP1 PUSH1 0x0 DUP1 PUSH1 0xC0 DUP8 DUP10 SUB SLT ISZERO PUSH2 0x3FAB JUMPI PUSH1 0x0 DUP1 REVERT JUMPDEST DUP7 CALLDATALOAD SWAP6 POP PUSH1 0x20 DUP8 ADD CALLDATALOAD SWAP5 POP PUSH1 0x40 DUP8 ADD CALLDATALOAD SWAP4 POP PUSH2 0x3FC9 PUSH1 0x60 DUP9 ADD PUSH2 0x3CB4 JUMP JUMPDEST SWAP3 POP PUSH1 0x80 DUP8 ADD CALLDATALOAD SWAP2 POP PUSH2 0x3FDE PUSH1 0xA0 DUP9 ADD PUSH2 0x3CB4 JUMP JUMPDEST SWAP1 POP SWAP3 SWAP6 POP SWAP3 SWAP6 POP SWAP3 SWAP6 JUMP JUMPDEST PUSH4 0x4E487B71 PUSH1 0xE0 SHL PUSH1 0x0 MSTORE PUSH1 0x11 PUSH1 0x4 MSTORE PUSH1 0x24 PUSH1 0x0 REVERT JUMPDEST DUP1 DUP3 ADD DUP1 DUP3 GT ISZERO PUSH2 0xC2E JUMPI PUSH2 0xC2E PUSH2 0x3FEA JUMP JUMPDEST PUSH4 0x4E487B71 PUSH1 0xE0 SHL PUSH1 0x0 MSTORE PUSH1 0x21 PUSH1 0x4 MSTORE PUSH1 0x24 PUSH1 0x0 REVERT JUMPDEST PUSH1 0x0 JUMPDEST DUP4 DUP2 LT ISZERO PUSH2 0x4044 JUMPI DUP2 DUP2 ADD MLOAD DUP4 DUP3 ADD MSTORE PUSH1 0x20 ADD PUSH2 0x402C JUMP JUMPDEST POP POP PUSH1 0x0 SWAP2 ADD MSTORE JUMP JUMPDEST PUSH1 0x0 DUP3 MLOAD PUSH2 0x405F DUP2 DUP5 PUSH1 0x20 DUP8 ADD PUSH2 0x4029 JUMP JUMPDEST SWAP2 SWAP1 SWAP2 ADD SWAP3 SWAP2 POP POP JUMP JUMPDEST PUSH1 0x20 DUP1 DUP3 MSTORE PUSH1 0x2 SWAP1 DUP3 ADD MSTORE PUSH2 0x9E9 PUSH1 0xF3 SHL PUSH1 0x40 DUP3 ADD MSTORE PUSH1 0x60 ADD SWAP1 JUMP JUMPDEST PUSH1 0x20 DUP1 DUP3 MSTORE PUSH1 0x2 SWAP1 DUP3 ADD MSTORE PUSH2 0x5553 PUSH1 0xF0 SHL PUSH1 0x40 DUP3 ADD MSTORE PUSH1 0x60 ADD SWAP1 JUMP JUMPDEST PUSH1 0x20 DUP1 DUP3 MSTORE PUSH1 0x2 SWAP1 DUP3 ADD MSTORE PUSH2 0x1153 PUSH1 0xF2 SHL PUSH1 0x40 DUP3 ADD MSTORE PUSH1 0x60 ADD SWAP1 JUMP JUMPDEST PUSH1 0x20 DUP1 DUP3 MSTORE PUSH1 0x2 SWAP1 DUP3 ADD MSTORE PUSH2 0x1555 PUSH1 0xF2 SHL PUSH1 0x40 DUP3 ADD MSTORE PUSH1 0x60 ADD SWAP1 JUMP JUMPDEST DUP1 DUP3 MUL DUP2 ISZERO DUP3 DUP3 DIV DUP5 EQ OR PUSH2 0xC2E JUMPI PUSH2 0xC2E PUSH2 0x3FEA JUMP JUMPDEST PUSH4 0x4E487B71 PUSH1 0xE0 SHL PUSH1 0x0 MSTORE PUSH1 0x12 PUSH1 0x4 MSTORE PUSH1 0x24 PUSH1 0x0 REVERT JUMPDEST PUSH1 0x0 DUP3 PUSH2 0x4115 JUMPI PUSH2 0x4115 PUSH2 0x40F0 JUMP JUMPDEST POP DIV SWAP1 JUMP JUMPDEST DUP2 DUP2 SUB DUP2 DUP2 GT ISZERO PUSH2 0xC2E JUMPI PUSH2 0xC2E PUSH2 0x3FEA JUMP JUMPDEST PUSH1 0x0 DUP2 MLOAD DUP1 DUP5 MSTORE PUSH2 0x4145 DUP2 PUSH1 0x20 DUP7 ADD PUSH1 0x20 DUP7 ADD PUSH2 0x4029 JUMP JUMPDEST PUSH1 0x1F ADD PUSH1 0x1F NOT AND SWAP3 SWAP1 SWAP3 ADD PUSH1 0x20 ADD SWAP3 SWAP2 POP POP JUMP JUMPDEST PUSH1 0x60 DUP2 MSTORE PUSH1 0x2 PUSH1 0x60 DUP3 ADD MSTORE PUSH2 0x18D1 PUSH1 0xF2 SHL PUSH1 0x80 DUP3 ADD MSTORE PUSH1 0xA0 PUSH1 0x20 DUP3 ADD MSTORE PUSH1 0x0 PUSH2 0x4185 PUSH1 0xA0 DUP4 ADD DUP6 PUSH2 0x412D JUMP JUMPDEST SWAP1 POP PUSH1 0x1 DUP1 PUSH1 0xA0 SHL SUB DUP4 AND PUSH1 0x40 DUP4 ADD MSTORE SWAP4 SWAP3 POP POP POP JUMP JUMPDEST PUSH1 0x0 PUSH1 0x20 DUP3 DUP5 SUB SLT ISZERO PUSH2 0x41AE JUMPI PUSH1 0x0 DUP1 REVERT JUMPDEST POP MLOAD SWAP2 SWAP1 POP JUMP JUMPDEST PUSH1 0x20 DUP1 DUP3 MSTORE PUSH1 0x2 SWAP1 DUP3 ADD MSTORE PUSH2 0x1255 PUSH1 0xF2 SHL PUSH1 0x40 DUP3 ADD MSTORE PUSH1 0x60 ADD SWAP1 JUMP JUMPDEST PUSH1 0x0 PUSH1 0x20 DUP3 DUP5 SUB SLT ISZERO PUSH2 0x41E3 JUMPI PUSH1 0x0 DUP1 REVERT JUMPDEST DUP2 MLOAD PUSH2 0xD1D DUP2 PUSH2 0x3DC7 JUMP JUMPDEST SWAP6 DUP7 MSTORE PUSH1 0x20 DUP7 ADD SWAP5 SWAP1 SWAP5 MSTORE PUSH1 0x40 DUP6 ADD SWAP3 SWAP1 SWAP3 MSTORE PUSH1 0x1 PUSH1 0x1 PUSH1 0xA0 SHL SUB SWAP1 DUP2 AND PUSH1 0x60 DUP6 ADD MSTORE AND PUSH1 0x80 DUP4 ADD MSTORE PUSH1 0xA0 DUP3 ADD MSTORE PUSH1 0xC0 ADD SWAP1 JUMP JUMPDEST PUSH1 0x3 DUP2 LT PUSH2 0x4240 JUMPI PUSH4 0x4E487B71 PUSH1 0xE0 SHL PUSH1 0x0 MSTORE PUSH1 0x21 PUSH1 0x4 MSTORE PUSH1 0x24 PUSH1 0x0 REVERT JUMPDEST SWAP1 MSTORE JUMP JUMPDEST PUSH1 0x40 DUP2 MSTORE PUSH1 0x0 PUSH2 0x4257 PUSH1 0x40 DUP4 ADD DUP6 PUSH2 0x412D JUMP JUMPDEST SWAP1 POP PUSH2 0xD1D PUSH1 0x20 DUP4 ADD DUP5 PUSH2 0x4222 JUMP JUMPDEST PUSH1 0x60 DUP2 MSTORE PUSH1 0x2 PUSH1 0x60 DUP3 ADD MSTORE PUSH2 0x39A1 PUSH1 0xF1 SHL PUSH1 0x80 DUP3 ADD MSTORE PUSH1 0xA0 PUSH1 0x20 DUP3 ADD MSTORE PUSH1 0x0 PUSH2 0x4185 PUSH1 0xA0 DUP4 ADD DUP6 PUSH2 0x412D JUMP JUMPDEST PUSH1 0x60 DUP2 MSTORE PUSH1 0x2 PUSH1 0x60 DUP3 ADD MSTORE PUSH2 0x1911 PUSH1 0xF2 SHL PUSH1 0x80 DUP3 ADD MSTORE PUSH1 0xA0 PUSH1 0x20 DUP3 ADD MSTORE PUSH1 0x0 PUSH2 0x4185 PUSH1 0xA0 DUP4 ADD DUP6 PUSH2 0x412D JUMP JUMPDEST PUSH1 0x40 DUP2 MSTORE PUSH1 0x0 PUSH2 0x42D1 PUSH1 0x40 DUP4 ADD DUP6 PUSH2 0x412D JUMP JUMPDEST SWAP1 POP PUSH1 0x1 DUP1 PUSH1 0xA0 SHL SUB DUP4 AND PUSH1 0x20 DUP4 ADD MSTORE SWAP4 SWAP3 POP POP POP JUMP JUMPDEST PUSH1 0x60 DUP2 MSTORE PUSH1 0x2 PUSH1 0x60 DUP3 ADD MSTORE PUSH2 0x31A1 PUSH1 0xF1 SHL PUSH1 0x80 DUP3 ADD MSTORE PUSH1 0xA0 PUSH1 0x20 DUP3 ADD MSTORE PUSH1 0x0 PUSH2 0x4185 PUSH1 0xA0 DUP4 ADD DUP6 PUSH2 0x412D JUMP JUMPDEST PUSH1 0x60 DUP2 MSTORE PUSH1 0x2 PUSH1 0x60 DUP3 ADD MSTORE PUSH2 0x7241 PUSH1 0xF0 SHL PUSH1 0x80 DUP3 ADD MSTORE PUSH1 0xA0 PUSH1 0x20 DUP3 ADD MSTORE PUSH1 0x0 PUSH2 0x4185 PUSH1 0xA0 DUP4 ADD DUP6 PUSH2 0x412D JUMP JUMPDEST PUSH1 0x20 DUP2 MSTORE PUSH1 0x0 PUSH2 0xD1D PUSH1 0x20 DUP4 ADD DUP5 PUSH2 0x412D JUMP JUMPDEST PUSH1 0x60 DUP2 MSTORE PUSH1 0x2 PUSH1 0x60 DUP3 ADD MSTORE PUSH2 0x3221 PUSH1 0xF1 SHL PUSH1 0x80 DUP3 ADD MSTORE PUSH1 0xA0 PUSH1 0x20 DUP3 ADD MSTORE PUSH1 0x0 PUSH2 0x4185 PUSH1 0xA0 DUP4 ADD DUP6 PUSH2 0x412D JUMP JUMPDEST PUSH1 0x20 DUP1 DUP3 MSTORE PUSH1 0x2 SWAP1 DUP3 ADD MSTORE PUSH2 0x24A3 PUSH1 0xF1 SHL PUSH1 0x40 DUP3 ADD MSTORE PUSH1 0x60 ADD SWAP1 JUMP JUMPDEST PUSH1 0x60 DUP2 MSTORE PUSH1 0x0 PUSH2 0x43AE PUSH1 0x60 DUP4 ADD DUP7 PUSH2 0x412D JUMP JUMPDEST PUSH1 0x1 PUSH1 0x1 PUSH1 0xA0 SHL SUB SWAP5 SWAP1 SWAP5 AND PUSH1 0x20 DUP4 ADD MSTORE POP PUSH1 0x40 ADD MSTORE SWAP2 SWAP1 POP JUMP JUMPDEST PUSH1 0x60 DUP2 MSTORE PUSH1 0x2 PUSH1 0x60 DUP3 ADD MSTORE PUSH2 0x1A51 PUSH1 0xF2 SHL PUSH1 0x80 DUP3 ADD MSTORE PUSH1 0xA0 PUSH1 0x20 DUP3 ADD MSTORE PUSH1 0x0 PUSH2 0x4185 PUSH1 0xA0 DUP4 ADD DUP6 PUSH2 0x412D JUMP JUMPDEST PUSH1 0x60 DUP2 MSTORE PUSH1 0x3 PUSH1 0x60 DUP3 ADD MSTORE PUSH3 0x734E53 PUSH1 0xE8 SHL PUSH1 0x80 DUP3 ADD MSTORE PUSH1 0xA0 PUSH1 0x20 DUP3 ADD MSTORE PUSH1 0x0 PUSH2 0x4185 PUSH1 0xA0 DUP4 ADD DUP6 PUSH2 0x412D JUMP JUMPDEST PUSH1 0x60 DUP2 MSTORE PUSH1 0x2 PUSH1 0x60 DUP3 ADD MSTORE PUSH2 0x1D55 PUSH1 0xF2 SHL PUSH1 0x80 DUP3 ADD MSTORE PUSH1 0xA0 PUSH1 0x20 DUP3 ADD MSTORE PUSH1 0x0 PUSH2 0x4185 PUSH1 0xA0 DUP4 ADD DUP6 PUSH2 0x412D JUMP JUMPDEST PUSH1 0x60 DUP2 MSTORE PUSH1 0x2 PUSH1 0x60 DUP3 ADD MSTORE PUSH2 0x1C95 PUSH1 0xF2 SHL PUSH1 0x80 DUP3 ADD MSTORE PUSH1 0xA0 PUSH1 0x20 DUP3 ADD MSTORE PUSH1 0x0 PUSH2 0x4185 PUSH1 0xA0 DUP4 ADD DUP6 PUSH2 0x412D JUMP JUMPDEST PUSH1 0x80 DUP2 MSTORE PUSH1 0x0 PUSH2 0x448D PUSH1 0x80 DUP4 ADD DUP8 PUSH2 0x412D JUMP JUMPDEST DUP3 DUP2 SUB PUSH1 0x20 DUP5 ADD MSTORE PUSH2 0x449F DUP2 DUP8 PUSH2 0x412D JUMP JUMPDEST PUSH1 0x1 PUSH1 0x1 PUSH1 0xA0 SHL SUB SWAP6 SWAP1 SWAP6 AND PUSH1 0x40 DUP5 ADD MSTORE POP POP PUSH1 0x60 ADD MSTORE SWAP3 SWAP2 POP POP JUMP JUMPDEST PUSH1 0x60 DUP2 MSTORE PUSH1 0x2 PUSH1 0x60 DUP3 ADD MSTORE PUSH2 0x1B55 PUSH1 0xF2 SHL PUSH1 0x80 DUP3 ADD MSTORE PUSH1 0xA0 PUSH1 0x20 DUP3 ADD MSTORE PUSH1 0x0 PUSH2 0x4185 PUSH1 0xA0 DUP4 ADD DUP6 PUSH2 0x412D JUMP JUMPDEST PUSH1 0x60 DUP2 MSTORE PUSH1 0x2 PUSH1 0x60 DUP3 ADD MSTORE PUSH2 0x6141 PUSH1 0xF0 SHL PUSH1 0x80 DUP3 ADD MSTORE PUSH1 0xA0 PUSH1 0x20 DUP3 ADD MSTORE PUSH1 0x0 PUSH2 0x4185 PUSH1 0xA0 DUP4 ADD DUP6 PUSH2 0x412D JUMP JUMPDEST PUSH1 0x60 DUP2 MSTORE PUSH1 0x0 PUSH2 0x4527 PUSH1 0x60 DUP4 ADD DUP7 PUSH2 0x412D JUMP JUMPDEST PUSH1 0x1 PUSH1 0x1 PUSH1 0xA0 SHL SUB DUP6 AND PUSH1 0x20 DUP5 ADD MSTORE SWAP1 POP PUSH2 0x336D PUSH1 0x40 DUP4 ADD DUP5 PUSH2 0x4222 JUMP JUMPDEST PUSH1 0x60 DUP2 MSTORE PUSH1 0x2 PUSH1 0x60 DUP3 ADD MSTORE PUSH2 0x735 PUSH1 0xF4 SHL PUSH1 0x80 DUP3 ADD MSTORE PUSH1 0xA0 PUSH1 0x20 DUP3 ADD MSTORE PUSH1 0x0 PUSH2 0x4185 PUSH1 0xA0 DUP4 ADD DUP6 PUSH2 0x412D JUMP JUMPDEST PUSH1 0x80 DUP2 MSTORE PUSH1 0x0 PUSH2 0x4584 PUSH1 0x80 DUP4 ADD DUP8 PUSH2 0x412D JUMP JUMPDEST PUSH1 0x1 PUSH1 0x1 PUSH1 0xA0 SHL SUB SWAP6 DUP7 AND PUSH1 0x20 DUP5 ADD MSTORE PUSH1 0x40 DUP4 ADD SWAP5 SWAP1 SWAP5 MSTORE POP SWAP3 AND PUSH1 0x60 SWAP1 SWAP3 ADD SWAP2 SWAP1 SWAP2 MSTORE SWAP2 SWAP1 POP JUMP JUMPDEST PUSH1 0x60 DUP2 MSTORE PUSH1 0x2 PUSH1 0x60 DUP3 ADD MSTORE PUSH2 0x1D15 PUSH1 0xF2 SHL PUSH1 0x80 DUP3 ADD MSTORE PUSH1 0xA0 PUSH1 0x20 DUP3 ADD MSTORE PUSH1 0x0 PUSH2 0x4185 PUSH1 0xA0 DUP4 ADD DUP6 PUSH2 0x412D JUMP JUMPDEST PUSH1 0x0 DUP3 PUSH2 0x45E8 JUMPI PUSH2 0x45E8 PUSH2 0x40F0 JUMP JUMPDEST POP MOD SWAP1 JUMP INVALID NUMBER 0xCD PUSH23 0xB5EB40DA9EA5EB31A199F443F7CF7955EC280BC5981A2E CALLVALUE GASLIMIT 0xC7 SWAP13 SWAP1 SSTORE LOG2 PUSH5 0x6970667358 0x22 SLT KECCAK256 PUSH8 0x9AAD3AA158110E73 0xAF PUSH6 0x8D966F5AD71F 0xC CALLDATACOPY 0xD2 0xEE PUSH17 0x1D1C88D5AFDD51BCBF3E64736F6C634300 ADDMOD SGT STOP CALLER ",
  "sha1": "c4dafb8af5be5d2fac40bac9d57dbbe93efc1ae9",
  "source": "// SPDX-License-Identifier: GPL-3.0-or-later\n\npragma solidity ^0.8.4;\n\nimport \"./idea.sol\";\n\n/// @title An extension of the Idea providing an administrable interface.\n/// @author Frederik W. L. Christoffersen\n/// @notice This contract adds administrability via permits and internally closed money supplies.\ncontract Administrable is Idea {\n\n    /// @notice An enum representing a Permit State of one of the many permits.\n    /// @param unauthorized The permit is NOT authorized.\n    /// @param authorized The permit is authorized.\n    /// @param administrator The holder of the permit is not only authorized but also an administrator of it too.\n    enum PermitState {\n        unauthorized,\n        authorized,\n        administrator\n    }\n\n    /// @notice A struct representing the information of a Dividend given to all current Shard holders.\n    /// @param tokenAddress The address of the token, in which the value of the Dividend is issued.\n    /// @param value The original value/amount of the Dividend before claims.\n    struct DividendInfo {\n        address tokenAddress;\n        uint256 value;\n    }\n\n    /// @notice A boolean stating if Non Shard Holders are allowed to administer the administrable or not.\n    bool allowNonShardHolders;\n\n    /// @notice A mapping pointing to a boolean stating if a given Bank is valid/exists or not.\n    mapping(string => bool) validBanks;\n    \n    /// @notice A mapping pointing to an unsigned integer representing the amount of stored kinds of tokens of a bank.\n    mapping(string => uint256) storedTokenAddressesByBank;\n\n    /// @notice A mapping pointing to the a value/amount of a stored token of a Bank, given the name of it and the respective token address.\n    mapping(string => mapping(address => uint256)) balanceByBank;\n\n     /// @notice A mapping pointing to a boolean stating if an address is an if a given address is a valid Bank administrator that has restricted control of the Bank's funds.\n    mapping(string => mapping(address => bool)) adminOfBank;\n\n    /// @notice A mapping pointing to another mapping, pointing to a Permit State, given the address of a permit holder, given the name of the permit.\n    /// @custom:illustration permits[permitName][address] == PermitState.authorized || PermitState.administrator;\n    mapping(string => mapping(address => PermitState)) permits;\n\n    /// @notice A mapping pointing to a base Permit State, given the name of the permit.\n    mapping(string => PermitState) basePermits;\n    \n    /// @notice A mapping pointing to a boolean stating if a given Dividend is valid or not.\n    mapping(uint256 => bool) validDividends;\n\n    /// @notice A mapping pointing to the info of a Dividend given the creation clock of the Dividend.\n    mapping(uint256 => DividendInfo) infoByDividend;\n\n    /// @notice A mapping pointing to the residual of a Dividend given the creation clock of the Dividend.\n    mapping(uint256 => uint256) residualByDividend;\n\n    /// @notice Mapping pointing to a boolean stating if the owner of a Shard has claimed their fair share of the Dividend, given the bank name and the shard.\n    mapping(uint256 => mapping(bytes32  => bool)) hasClaimedDividend;\n\n    /// @notice Event that triggers when an action is taken by somebody.\n    /// @param func The name of the function that was called.\n    /// @param args The arguments passed to the function call.\n    /// @param by The initiator of the action.\n    event ActionTaken(\n        string func,\n        bytes args,\n        address by\n        );\n\n    /// @notice Modifier that makes sure msg.sender has a given permit.\n    /// @param permitName The name of the permit to be checked for.\n    modifier onlyWithPermit(string memory permitName) {\n        require(hasPermit(permitName, msg.sender));\n        _;\n    }\n    \n    /// @notice Modifier that makes sure msg.sender is an admin of a given permit.\n    /// @param permitName The name of the permit to be checked for.\n    modifier onlyPermitAdmin(string memory permitName) {\n        require(isPermitAdmin(permitName, msg.sender));\n        _;\n\n    }\n\n    /// @notice Modifier that makes sure msg.sender is admin of a given bank.\n    /// @param bankName The name of the Bank to be checked for.\n    modifier onlyBankAdmin(string memory bankName) {\n        require(isBankAdmin(bankName, msg.sender));\n        _;\n    }\n\n    /// @notice Modifier that makes sure a given bank exists\n    /// @param bankName The name of the Bank to be checked for.\n    modifier onlyExistingBank(string memory bankName) {\n        require(bankExists(bankName), \"DNE\");\n        _;\n    }\n    \n    /// @notice Modifier that makes sure a given dividend exists and is valid\n    /// @param dividend The Dividend to be checked for.\n    modifier onlyExistingDividend(uint256 dividend) {\n        require(dividendExists(dividend));\n        _;\n    }\n\n    /// @notice Constructor function connecting the Idea entity and creating a Bank with an administrator.\n    constructor() {\n        _createBank(\"main\",msg.sender);\n        _setPermit(\"sNS\", msg.sender, PermitState.administrator);\n        _setPermit(\"iD\", msg.sender, PermitState.administrator);\n        _setPermit(\"dD\", msg.sender, PermitState.administrator);\n        _setPermit(\"mB\", msg.sender, PermitState.administrator);\n        _setPermit(\"lE\", msg.sender, PermitState.administrator);\n        _setPermit(\"mAT\", msg.sender, PermitState.administrator);\n    }\n\n    /// @notice Claims the value of an existing dividend corresponding to the shard holder's respective shard fraction.\n    /// @param shard The shard that was valid at the clock of the Dividend creation\n    /// @param dividend The dividend to be claimed.\n    function claimDividend(bytes32 shard, uint256 dividend) external onlyHolder(shard) onlyExistingDividend(dividend) onlyIfActive {\n        require(shardExisted(shard,dividend), \"NAF\");\n        require(hasClaimedDividend[dividend][shard] == false, \"AC\");\n        hasClaimedDividend[dividend][shard] = true;\n        uint256 dividendValue = infoByDividend[dividend].value * infoByShard[shard].numerator / infoByShard[shard].denominator;\n        require(dividendValue != 0, \"DTS\");\n        residualByDividend[dividend] -= dividendValue;\n        _transferToken(infoByDividend[dividend].tokenAddress,dividendValue,msg.sender);\n        emit ActionTaken(\"cD\",abi.encode(dividend,dividendValue),msg.sender);\n    }\n\n    /// @notice Adds a token address to the registry. Also approves any future receipts of said token unless removed again.\n    /// @param tokenAddress The token address to be registered.\n    function registerTokenAddress(address tokenAddress) external onlyWithPermit(\"mAT\") onlyIfActive {\n        _registerTokenAddress(tokenAddress);\n    }\n\n    /// @notice Removes a token address from the registry. Also cancels any future receipts of said token unless added again.\n    /// @param tokenAddress The token address to be unregistered.\n    function unregisterTokenAddress(address tokenAddress) external onlyWithPermit(\"mAT\") onlyIfActive {\n        _unregisterTokenAddress(tokenAddress);\n    }\n\n\n    /// @notice Creates and issues a Dividend (to all current shareholders) of a token amount from a given Bank.\n    /// @param bankName The name of the Bank to issue the Dividend from.\n    /// @param tokenAddress The address of the token to make up the Dividend.\n    /// @param value The value/amount of the token to be issued in the Dividend.\n    function issueDividend(string memory bankName, address tokenAddress, uint256 value) external onlyWithPermit(\"iD\") onlyBankAdmin(bankName) {\n        _issueDividend(bankName,tokenAddress,value);  \n    }\n\n    /// @notice Dissolves a Dividend and moves its last contents to the 'main' Bank.\n    /// @param dividend The Dividend to be dissolved.\n    function dissolveDividend(uint256 dividend) external onlyWithPermit(\"dD\") {\n        _dissolveDividend(dividend);\n    }\n\n    /// @notice Creates a new Bank.\n    /// @param bankName The name of the Bank to be created.\n    /// @param bankAdmin The address of the first Bank administrator.\n    function createBank(string memory bankName, address bankAdmin) external onlyWithPermit(\"mB\") onlyIfActive {\n       _createBank(bankName,bankAdmin);\n    }\n\n    /// @notice Adds a new given administrator to a given Bank.\n    /// @param bankName The name of the Bank to which the new administrator is to be added.\n    /// @param bankAdmin The address of the new Bank administrator to be added.\n    function addBankAdmin(string memory bankName, address bankAdmin) external onlyWithPermit(\"mB\") onlyBankAdmin(bankName) {\n        require(isShardHolder(bankAdmin) || allowNonShardHolders, \"NSHNA\");\n        _addBankAdmin(bankName,bankAdmin);\n    }\n\n    /// @notice Removes a given administrator of a given Bank.\n    /// @param bankName The name of the Bank from which the given administrator is to be removed.\n    /// @param bankAdmin The address of the current Bank administrator to be removed.\n    function removeBankAdmin(string memory bankName, address bankAdmin) external onlyPermitAdmin(\"mB\") onlyBankAdmin(bankName) {\n        _removeBankAdmin(bankName,bankAdmin);\n    }\n\n    /// @notice Deletes a given Bank.\n    /// @param bankName The name of the Bank to be deleted.\n    function deleteBank(string memory bankName) external onlyPermitAdmin(\"mB\") onlyBankAdmin(bankName) {\n        _deleteBank(bankName);\n    }\n\n    /// @notice Transfers a token bankAdmin a Bank to a recipient.\n    /// @param bankName The name of the Bank from which the token is to be transferred.\n    /// @param tokenAddress The address of the token to be transferred.\n    /// @param value The value/amount of the token to be transferred.\n    /// @param to The recipient of the token to be transferred.\n    function transferTokenFromBank(string memory bankName, address tokenAddress, uint256 value, address to) external onlyBankAdmin(bankName) {\n        _transferTokenFromBank(bankName,tokenAddress,value,to);\n    }\n\n    /// @notice Internally moves a token from one Bank to another.\n    /// @param fromBankName The name of the Bank from which the token is to be moved.\n    /// @param toBankName The name of the Bank to which the token is to be moved.\n    /// @param tokenAddress The address of the token to be moved.\n    /// @param value The value/amount of the token to be moved.\n    function moveToken(string memory fromBankName, string memory toBankName, address tokenAddress, uint256 value) external onlyBankAdmin(fromBankName) {\n        _moveToken(fromBankName,toBankName,tokenAddress,value);\n    }\n\n    /// @notice Sets the state of a specified permit of a given address.\n    /// @param account The address, whose permit state is to be set.\n    /// @param permitName The name of the permit, whose state is to be set.\n    /// @param newState The new Permit State to be applied.\n    function setPermit(string memory permitName, address account, PermitState newState) external onlyPermitAdmin(permitName) {\n        require(isShardHolder(account) || allowNonShardHolders, \"NSHNA\");\n        require(permits[permitName][account] != newState, \"AHP\");\n        _setPermit(permitName,account,newState);\n\n    }\n\n    /// @notice Sets the state of a specified base permit.\n    /// @param permitName The name of the base permit, whose state is to be set.\n    /// @param newState The new base Permit State to be applied.\n    function setBasePermit(string memory permitName, PermitState newState) external onlyPermitAdmin(permitName) {\n        require(basePermits[permitName] != newState, \"AS\");\n        _setBasePermit(permitName,newState);\n    }\n\n    /// @notice Sets the state of the Non Shard Holders.\n    /// @param newState The Boolean state to be applied.\n    function setNonShardHolderState(bool newState) external onlyWithPermit(\"sNS\") {\n        require(allowNonShardHolders != newState, \"AS\");\n        _setNonShardHolderState(newState);\n    }\n\n    /// @notice Liquidizes and dissolves the entity. This cannot be undone.\n    function liquidize() external onlyWithPermit(\"lE\") {\n        _liquidize();\n    }\n\n    /// @notice Returns the balance of a bank.\n    /// @param bankName The name of the Bank.\n    /// @param tokenAddress The address of the token balance to check for.\n    function getBankBalance(string memory bankName, address tokenAddress) public view returns(uint256) {\n        return balanceByBank[bankName][tokenAddress];\n    }\n    \n    /// @notice Returns the token of a dividend.\n    /// @param dividend The Dividend to be checked for.\n    function getDividendToken(uint256 dividend) public view returns(address) {\n        return infoByDividend[dividend].tokenAddress;\n    }\n    \n    /// @notice Returns the total value of a dividend.\n    /// @param dividend The Dividend to be checked for.\n    function getDividendValue(uint256 dividend) public view returns(uint256) {\n        return infoByDividend[dividend].value;\n    }\n\n    /// @notice Returns the residual value of a dividend.\n    /// @param dividend The Dividend to be checked for.\n    function getDividendResidual(uint256 dividend) public view returns(uint256) {\n        return residualByDividend[dividend];\n    }\n\n    /// @notice Returns a boolean stating if a given Bank exists.\n    /// @param bankName The name of the Bank to be checked for.\n    function bankExists(string memory bankName) public view returns(bool) {\n        return validBanks[bankName] == true;\n    }\n\n    /// @notice Returns a boolean stating if a given Bank is empty.\n    /// @param bankName The name of the Bank to be checked for.\n    function bankIsEmpty(string memory bankName) public view returns(bool) {\n        return storedTokenAddressesByBank[bankName] == 0 && balanceByBank[bankName][address(0)] == 0;\n    }\n    \n    /// @notice Returns a boolean stating if a given Dividend exists.\n    /// @param dividend The Dividend to be checked for.\n    function dividendExists(uint256 dividend) public view returns(bool) {\n      return validDividends[dividend];\n    }\n\n    /// @notice Returns a boolean stating if a given address is an admin of a given bank.\n    /// @param account The address to be checked for.\n    /// @param bankName The name of the Bank to be checked for.\n    function isBankAdmin(string memory bankName, address account) public view returns(bool) {\n        return adminOfBank[bankName][account] == true || isPermitAdmin(\"mB\",account);\n    }\n\n    /// @notice Returns a boolean stating if a given address has a given permit or not.\n    /// @param permitName The name of the permit to be checked for.\n    /// @param account The address to be checked for.\n    function hasPermit(string memory permitName, address account) public view returns(bool) {\n        if (!(isShardHolder(account) || allowNonShardHolders)) {return false;}\n        return permits[permitName][account] >= PermitState.authorized || basePermits[permitName] >= PermitState.authorized;\n    }\n\n    /// @notice Returns a boolean stating if a given address is an admin of a given permit or not.\n    /// @param permitName The name of the permit to be checked for.\n    /// @param account The address to be checked for.\n    function isPermitAdmin(string memory permitName, address account) public view returns(bool) {\n        if (!(isShardHolder(account) || allowNonShardHolders)) {return false;}\n        return permits[permitName][account] == PermitState.administrator || basePermits[permitName] == PermitState.administrator;\n    }\n\n    /// @notice Creates and issues a Dividend (to all current shareholders) of a token amount from a given Bank.\n    /// @param bankName The name of the Bank to issue the Dividend from.\n    /// @param tokenAddress The address of the token to make up the Dividend.\n    /// @param value The value/amount of the token to be issued in the Dividend.\n    function _issueDividend(string memory bankName, address tokenAddress, uint256 value) internal onlyIfActive {\n        uint256 transferClock = clock;\n        require(value <= balanceByBank[bankName][tokenAddress], \"IF\");\n        balanceByBank[bankName][tokenAddress] -= value;\n        if (balanceByBank[bankName][tokenAddress] == 0 && tokenAddress != address(0)) {\n            storedTokenAddressesByBank[bankName] -= 1;\n        }\n        infoByDividend[transferClock] = DividendInfo({\n            tokenAddress:tokenAddress,\n            value:value\n        });\n        residualByDividend[transferClock] = value;\n        validDividends[transferClock] = true;\n        emit ActionTaken(\"iD\",abi.encode(bankName,tokenAddress,value),msg.sender);\n    }\n\n    /// @notice Dissolves a Dividend and moves its last contents to the 'main' Bank.\n    /// @param dividend The Dividend to be dissolved.\n    function _dissolveDividend(uint256 dividend) internal onlyExistingDividend(dividend) onlyIfActive {\n        validDividends[dividend] = false; // -1 to distinguish between empty values;\n        balanceByBank[\"main\"][infoByDividend[dividend].tokenAddress] += residualByDividend[dividend];\n        emit ActionTaken(\"dD\",abi.encode(dividend),msg.sender);\n\n    }\n\n    /// @notice Creates a new Bank.\n    /// @param bankName The name of the Bank to be created.\n    /// @param bankAdmin The address of the first Bank administrator.\n    function _createBank(string memory bankName, address bankAdmin) internal onlyIfActive {\n        require(!bankExists(bankName), \"AE\");\n        adminOfBank[bankName][bankAdmin] = true;\n        validBanks[bankName] = true;\n        emit ActionTaken(\"cB\",abi.encode(bankName,bankAdmin),msg.sender);\n\n    }\n\n    /// @notice Adds a new given administrator to a given Bank.\n    /// @param bankName The name of the Bank to which the new administrator is to be added.\n    /// @param bankAdmin The address of the new Bank administrator to be added.\n    function _addBankAdmin(string memory bankName, address bankAdmin) internal onlyIfActive {\n        require(hasPermit(\"mB\",bankAdmin),\"NP\");\n        adminOfBank[bankName][bankAdmin] = true;\n        emit ActionTaken(\"aA\",abi.encode(bankName,bankAdmin),msg.sender);\n\n    }\n\n    /// @notice Removes a given administrator of a given Bank.\n    /// @param bankName The name of the Bank from which the given administrator is to be removed.\n    /// @param bankAdmin The address of the current Bank administrator to be removed.\n    function _removeBankAdmin(string memory bankName, address bankAdmin) internal onlyIfActive {\n        require(isBankAdmin(bankName,bankAdmin));\n        adminOfBank[bankName][bankAdmin] = false;\n        emit ActionTaken(\"rA\",abi.encode(bankName,bankAdmin),msg.sender);\n\n    }\n\n    /// @notice Deletes a given Bank.\n    /// @param bankName The name of the Bank to be deleted.\n    function _deleteBank(string memory bankName) internal onlyIfActive {\n        require(bankExists(bankName), \"UB!\");\n        require(keccak256(bytes(bankName)) != keccak256(bytes(\"main\")), \"MB\");\n        require(bankIsEmpty(bankName), \"BE\");\n        validBanks[bankName] = false;\n        emit ActionTaken(\"dB\",abi.encode(bankName),msg.sender);\n\n    }\n\n    /// @notice Transfers a token from a Bank to a recipient.\n    /// @param bankName The name of the Bank from which the token is to be transferred.\n    /// @param tokenAddress The address of the token to be transferred.\n    /// @param value The value/amount of the token to be transferred.\n    /// @param to The recipient of the token to be transferred.\n    function _transferTokenFromBank(string memory bankName, address tokenAddress, uint256 value, address to) internal onlyIfActive {\n        require(value <= balanceByBank[bankName][tokenAddress], \"IF\");\n        _transferToken(tokenAddress,value,to);\n        balanceByBank[bankName][tokenAddress] -= value;\n        if (balanceByBank[bankName][tokenAddress] == 0 && tokenAddress != address(0)) {\n            storedTokenAddressesByBank[bankName] -= 1;\n        }\n        emit ActionTaken(\"tT\",abi.encode(bankName,tokenAddress,value,to),msg.sender);\n    }\n\n    /// @notice Internally moves a token from one Bank to another.\n    /// @param fromBankName The name of the Bank from which the token is to be moved.\n    /// @param toBankName The name of the Bank to which the token is to be moved.\n    /// @param tokenAddress The address of the token to be moved.\n    /// @param value The value/amount of the token to be moved.\n    function _moveToken(string memory fromBankName, string memory toBankName, address tokenAddress, uint256 value) internal onlyExistingBank(toBankName) onlyIfActive {\n        require(value <= balanceByBank[fromBankName][tokenAddress], \"IF\");\n        balanceByBank[fromBankName][tokenAddress] -= value;\n        if (tokenAddress != address(0)) {\n            if (balanceByBank[fromBankName][tokenAddress] == 0) {\n                storedTokenAddressesByBank[fromBankName] -= 1;\n\n            }\n            if (balanceByBank[toBankName][tokenAddress] == 0) {\n                storedTokenAddressesByBank[toBankName] += 1;\n            }\n        }\n        balanceByBank[toBankName][tokenAddress] += value;\n        emit ActionTaken(\"mT\",abi.encode(fromBankName,toBankName,tokenAddress,value),msg.sender);\n\n    }\n\n    /// @notice Sets the state of a specified permit of a given address.\n    /// @param permitName The name of the permit, whose state is to be set.\n    /// @param account The address, whose permit state is to be set.\n    /// @param newState The new Permit State to be applied.\n    function _setPermit(string memory permitName, address account, PermitState newState) internal onlyIfActive {\n        permits[permitName][account] = newState;\n        emit ActionTaken(\"sP\",abi.encode(permitName,account,newState),msg.sender);\n\n    }\n\n    /// @notice Sets the state of a specified base permit.\n    /// @param permitName The name of the base permit, whose state is to be set.\n    /// @param newState The new base Permit State to be applied.\n    function _setBasePermit(string memory permitName, PermitState newState) internal onlyIfActive {\n        basePermits[permitName] = newState;\n        emit ActionTaken(\"sB\",abi.encode(permitName,newState),msg.sender);\n    }\n\n    /// @notice Sets the state of the Non Shard Holders.\n    /// @param newState The Boolean state to be applied.\n    function _setNonShardHolderState(bool newState) internal onlyIfActive {\n        allowNonShardHolders = newState;\n        emit ActionTaken(\"sNS\",abi.encode(newState),msg.sender);\n    }\n\n    /// @notice Removes a token address from the registry. Also cancels any future receipts of said token unless added again.\n    /// @param tokenAddress The token address to be unregistered.\n    function _unregisterTokenAddress(address tokenAddress) override internal {\n        super._unregisterTokenAddress(tokenAddress);\n        emit ActionTaken(\"uT\",abi.encode(tokenAddress),msg.sender);\n    }\n\n    /// @notice Adds a token address to the registry. Also approves any future receipts of said token unless removed again.\n    /// @param tokenAddress The token address to be registered.\n    function _registerTokenAddress(address tokenAddress) override internal {\n        super._registerTokenAddress(tokenAddress);\n        emit ActionTaken(\"rT\",abi.encode(tokenAddress),msg.sender);\n    }\n\n    /// @notice Keeps track of a token receipt by adding it to the registry\n    /// @param tokenAddress The address of the received token.\n    /// @param value The value/amount of the received token.\n    /// @param from The sender of the received token.\n    function _processTokenReceipt(address tokenAddress, uint256 value, address from) override internal {\n        super._processTokenReceipt(tokenAddress, value, from);\n        // Then: Bank logic\n        if (balanceByBank[\"main\"][tokenAddress] == 0 && tokenAddress != address(0)) {\n            storedTokenAddressesByBank[\"main\"] += 1;\n        }\n        balanceByBank[\"main\"][tokenAddress] += value;\n        emit TokenReceived(tokenAddress,value,from);\n    }\n\n    /// @notice Liquidizes and dissolves the entity. This cannot be undone.\n    function _liquidize() override internal {\n        super._liquidize();\n        emit ActionTaken(\"lE\",\"\",msg.sender);\n    }\n\n}",
  "sourcePath": "contracts/administrable.sol",
  "type": "contract"
}