{
  "abi": [
    {
      "inputs": [],
      "stateMutability": "nonpayable",
      "type": "constructor"
    },
    {
      "anonymous": false,
      "inputs": [
        {
          "indexed": false,
          "internalType": "string",
          "name": "fName",
          "type": "string"
        },
        {
          "indexed": false,
          "internalType": "bytes",
          "name": "args",
          "type": "bytes"
        },
        {
          "indexed": false,
          "internalType": "address",
          "name": "by",
          "type": "address"
        }
      ],
      "name": "ActionTaken",
      "type": "event"
    },
    {
      "anonymous": false,
      "inputs": [
        {
          "indexed": false,
          "internalType": "address",
          "name": "by",
          "type": "address"
        }
      ],
      "name": "EntityLiquidized",
      "type": "event"
    },
    {
      "anonymous": false,
      "inputs": [
        {
          "indexed": false,
          "internalType": "address",
          "name": "tokenAddress",
          "type": "address"
        },
        {
          "indexed": false,
          "internalType": "uint256",
          "name": "value",
          "type": "uint256"
        },
        {
          "indexed": false,
          "internalType": "address",
          "name": "by",
          "type": "address"
        }
      ],
      "name": "LiquidClaimed",
      "type": "event"
    },
    {
      "anonymous": false,
      "inputs": [
        {
          "indexed": false,
          "internalType": "bytes32",
          "name": "shard",
          "type": "bytes32"
        },
        {
          "indexed": false,
          "internalType": "uint256",
          "name": "numerator",
          "type": "uint256"
        },
        {
          "indexed": false,
          "internalType": "uint256",
          "name": "denominator",
          "type": "uint256"
        },
        {
          "indexed": false,
          "internalType": "address",
          "name": "tokenAddress",
          "type": "address"
        },
        {
          "indexed": false,
          "internalType": "uint256",
          "name": "price",
          "type": "uint256"
        },
        {
          "indexed": false,
          "internalType": "address",
          "name": "to",
          "type": "address"
        }
      ],
      "name": "PutForSale",
      "type": "event"
    },
    {
      "anonymous": false,
      "inputs": [
        {
          "indexed": false,
          "internalType": "bytes32",
          "name": "shard",
          "type": "bytes32"
        },
        {
          "indexed": false,
          "internalType": "uint256",
          "name": "numerator",
          "type": "uint256"
        },
        {
          "indexed": false,
          "internalType": "uint256",
          "name": "denominator",
          "type": "uint256"
        },
        {
          "indexed": false,
          "internalType": "address",
          "name": "tokenAddress",
          "type": "address"
        },
        {
          "indexed": false,
          "internalType": "uint256",
          "name": "price",
          "type": "uint256"
        },
        {
          "indexed": false,
          "internalType": "address",
          "name": "to",
          "type": "address"
        }
      ],
      "name": "SaleSold",
      "type": "event"
    },
    {
      "anonymous": false,
      "inputs": [
        {
          "indexed": false,
          "internalType": "bytes32",
          "name": "shard",
          "type": "bytes32"
        },
        {
          "indexed": false,
          "internalType": "uint256",
          "name": "numerator",
          "type": "uint256"
        },
        {
          "indexed": false,
          "internalType": "uint256",
          "name": "denominator",
          "type": "uint256"
        },
        {
          "indexed": false,
          "internalType": "address",
          "name": "to",
          "type": "address"
        }
      ],
      "name": "SplitMade",
      "type": "event"
    },
    {
      "anonymous": false,
      "inputs": [
        {
          "indexed": false,
          "internalType": "address",
          "name": "tokenAddress",
          "type": "address"
        },
        {
          "indexed": false,
          "internalType": "uint256",
          "name": "value",
          "type": "uint256"
        },
        {
          "indexed": false,
          "internalType": "address",
          "name": "from",
          "type": "address"
        }
      ],
      "name": "TokenReceived",
      "type": "event"
    },
    {
      "anonymous": false,
      "inputs": [
        {
          "indexed": false,
          "internalType": "address",
          "name": "tokenAddress",
          "type": "address"
        },
        {
          "indexed": false,
          "internalType": "address",
          "name": "by",
          "type": "address"
        }
      ],
      "name": "TokenRegistered",
      "type": "event"
    },
    {
      "anonymous": false,
      "inputs": [
        {
          "indexed": false,
          "internalType": "address",
          "name": "tokenAddress",
          "type": "address"
        },
        {
          "indexed": false,
          "internalType": "address",
          "name": "by",
          "type": "address"
        }
      ],
      "name": "TokenUnregistered",
      "type": "event"
    },
    {
      "inputs": [
        {
          "internalType": "address",
          "name": "tokenAddress",
          "type": "address"
        }
      ],
      "name": "acceptsToken",
      "outputs": [
        {
          "internalType": "bool",
          "name": "",
          "type": "bool"
        }
      ],
      "stateMutability": "view",
      "type": "function"
    },
    {
      "inputs": [],
      "name": "active",
      "outputs": [
        {
          "internalType": "bool",
          "name": "",
          "type": "bool"
        }
      ],
      "stateMutability": "view",
      "type": "function"
    },
    {
      "inputs": [
        {
          "internalType": "string",
          "name": "bankName",
          "type": "string"
        },
        {
          "internalType": "address",
          "name": "bankAdmin",
          "type": "address"
        }
      ],
      "name": "addBankAdmin",
      "outputs": [],
      "stateMutability": "nonpayable",
      "type": "function"
    },
    {
      "inputs": [
        {
          "internalType": "string",
          "name": "bankName",
          "type": "string"
        }
      ],
      "name": "bankExists",
      "outputs": [
        {
          "internalType": "bool",
          "name": "",
          "type": "bool"
        }
      ],
      "stateMutability": "view",
      "type": "function"
    },
    {
      "inputs": [
        {
          "internalType": "string",
          "name": "bankName",
          "type": "string"
        }
      ],
      "name": "bankIsEmpty",
      "outputs": [
        {
          "internalType": "bool",
          "name": "",
          "type": "bool"
        }
      ],
      "stateMutability": "view",
      "type": "function"
    },
    {
      "inputs": [
        {
          "internalType": "bytes32",
          "name": "shard",
          "type": "bytes32"
        }
      ],
      "name": "cancelSale",
      "outputs": [],
      "stateMutability": "nonpayable",
      "type": "function"
    },
    {
      "inputs": [
        {
          "internalType": "bytes32",
          "name": "shard",
          "type": "bytes32"
        },
        {
          "internalType": "uint256",
          "name": "dividend",
          "type": "uint256"
        }
      ],
      "name": "claimDividend",
      "outputs": [],
      "stateMutability": "nonpayable",
      "type": "function"
    },
    {
      "inputs": [
        {
          "internalType": "address",
          "name": "tokenAddress",
          "type": "address"
        }
      ],
      "name": "claimLiquid",
      "outputs": [],
      "stateMutability": "nonpayable",
      "type": "function"
    },
    {
      "inputs": [
        {
          "internalType": "string",
          "name": "bankName",
          "type": "string"
        },
        {
          "internalType": "address",
          "name": "bankAdmin",
          "type": "address"
        }
      ],
      "name": "createBank",
      "outputs": [],
      "stateMutability": "nonpayable",
      "type": "function"
    },
    {
      "inputs": [
        {
          "internalType": "string",
          "name": "bankName",
          "type": "string"
        }
      ],
      "name": "deleteBank",
      "outputs": [],
      "stateMutability": "nonpayable",
      "type": "function"
    },
    {
      "inputs": [
        {
          "internalType": "uint256",
          "name": "dividend",
          "type": "uint256"
        }
      ],
      "name": "dissolveDividend",
      "outputs": [],
      "stateMutability": "nonpayable",
      "type": "function"
    },
    {
      "inputs": [
        {
          "internalType": "uint256",
          "name": "dividend",
          "type": "uint256"
        }
      ],
      "name": "dividendExists",
      "outputs": [
        {
          "internalType": "bool",
          "name": "",
          "type": "bool"
        }
      ],
      "stateMutability": "view",
      "type": "function"
    },
    {
      "inputs": [
        {
          "internalType": "string",
          "name": "bankName",
          "type": "string"
        },
        {
          "internalType": "address",
          "name": "tokenAddress",
          "type": "address"
        }
      ],
      "name": "getBankBalance",
      "outputs": [
        {
          "internalType": "uint256",
          "name": "",
          "type": "uint256"
        }
      ],
      "stateMutability": "view",
      "type": "function"
    },
    {
      "inputs": [
        {
          "internalType": "uint256",
          "name": "dividend",
          "type": "uint256"
        }
      ],
      "name": "getDividendResidual",
      "outputs": [
        {
          "internalType": "uint256",
          "name": "",
          "type": "uint256"
        }
      ],
      "stateMutability": "view",
      "type": "function"
    },
    {
      "inputs": [
        {
          "internalType": "uint256",
          "name": "dividend",
          "type": "uint256"
        }
      ],
      "name": "getDividendToken",
      "outputs": [
        {
          "internalType": "address",
          "name": "",
          "type": "address"
        }
      ],
      "stateMutability": "view",
      "type": "function"
    },
    {
      "inputs": [
        {
          "internalType": "uint256",
          "name": "dividend",
          "type": "uint256"
        }
      ],
      "name": "getDividendValue",
      "outputs": [
        {
          "internalType": "uint256",
          "name": "",
          "type": "uint256"
        }
      ],
      "stateMutability": "view",
      "type": "function"
    },
    {
      "inputs": [
        {
          "internalType": "address",
          "name": "tokenAddress",
          "type": "address"
        }
      ],
      "name": "getLiquidResidual",
      "outputs": [
        {
          "internalType": "uint256",
          "name": "",
          "type": "uint256"
        }
      ],
      "stateMutability": "view",
      "type": "function"
    },
    {
      "inputs": [
        {
          "internalType": "bytes32",
          "name": "shard",
          "type": "bytes32"
        }
      ],
      "name": "getShardExpiredTime",
      "outputs": [
        {
          "internalType": "uint256",
          "name": "",
          "type": "uint256"
        }
      ],
      "stateMutability": "view",
      "type": "function"
    },
    {
      "inputs": [
        {
          "internalType": "bytes32",
          "name": "shard",
          "type": "bytes32"
        }
      ],
      "name": "getShardSalePrice",
      "outputs": [
        {
          "internalType": "uint256",
          "name": "",
          "type": "uint256"
        }
      ],
      "stateMutability": "view",
      "type": "function"
    },
    {
      "inputs": [
        {
          "internalType": "string",
          "name": "permitName",
          "type": "string"
        },
        {
          "internalType": "address",
          "name": "account",
          "type": "address"
        }
      ],
      "name": "hasPermit",
      "outputs": [
        {
          "internalType": "bool",
          "name": "",
          "type": "bool"
        }
      ],
      "stateMutability": "view",
      "type": "function"
    },
    {
      "inputs": [
        {
          "internalType": "bytes32",
          "name": "",
          "type": "bytes32"
        }
      ],
      "name": "infoByShard",
      "outputs": [
        {
          "internalType": "uint256",
          "name": "numerator",
          "type": "uint256"
        },
        {
          "internalType": "uint256",
          "name": "denominator",
          "type": "uint256"
        },
        {
          "internalType": "address",
          "name": "owner",
          "type": "address"
        },
        {
          "internalType": "uint256",
          "name": "creationTime",
          "type": "uint256"
        }
      ],
      "stateMutability": "view",
      "type": "function"
    },
    {
      "inputs": [
        {
          "internalType": "string",
          "name": "bankName",
          "type": "string"
        },
        {
          "internalType": "address",
          "name": "account",
          "type": "address"
        }
      ],
      "name": "isBankAdmin",
      "outputs": [
        {
          "internalType": "bool",
          "name": "",
          "type": "bool"
        }
      ],
      "stateMutability": "view",
      "type": "function"
    },
    {
      "inputs": [
        {
          "internalType": "string",
          "name": "permitName",
          "type": "string"
        },
        {
          "internalType": "address",
          "name": "account",
          "type": "address"
        }
      ],
      "name": "isPermitAdmin",
      "outputs": [
        {
          "internalType": "bool",
          "name": "",
          "type": "bool"
        }
      ],
      "stateMutability": "view",
      "type": "function"
    },
    {
      "inputs": [
        {
          "internalType": "address",
          "name": "account",
          "type": "address"
        }
      ],
      "name": "isShardHolder",
      "outputs": [
        {
          "internalType": "bool",
          "name": "",
          "type": "bool"
        }
      ],
      "stateMutability": "view",
      "type": "function"
    },
    {
      "inputs": [
        {
          "internalType": "bytes32",
          "name": "shard",
          "type": "bytes32"
        }
      ],
      "name": "isValidShard",
      "outputs": [
        {
          "internalType": "bool",
          "name": "",
          "type": "bool"
        }
      ],
      "stateMutability": "view",
      "type": "function"
    },
    {
      "inputs": [
        {
          "internalType": "string",
          "name": "bankName",
          "type": "string"
        },
        {
          "internalType": "address",
          "name": "tokenAddress",
          "type": "address"
        },
        {
          "internalType": "uint256",
          "name": "value",
          "type": "uint256"
        }
      ],
      "name": "issueDividend",
      "outputs": [],
      "stateMutability": "nonpayable",
      "type": "function"
    },
    {
      "inputs": [
        {
          "internalType": "address",
          "name": "",
          "type": "address"
        }
      ],
      "name": "liquid",
      "outputs": [
        {
          "internalType": "uint256",
          "name": "",
          "type": "uint256"
        }
      ],
      "stateMutability": "view",
      "type": "function"
    },
    {
      "inputs": [],
      "name": "liquidize",
      "outputs": [],
      "stateMutability": "nonpayable",
      "type": "function"
    },
    {
      "inputs": [
        {
          "internalType": "string",
          "name": "fromBankName",
          "type": "string"
        },
        {
          "internalType": "string",
          "name": "toBankName",
          "type": "string"
        },
        {
          "internalType": "address",
          "name": "tokenAddress",
          "type": "address"
        },
        {
          "internalType": "uint256",
          "name": "value",
          "type": "uint256"
        }
      ],
      "name": "moveToken",
      "outputs": [],
      "stateMutability": "nonpayable",
      "type": "function"
    },
    {
      "inputs": [
        {
          "internalType": "bytes32",
          "name": "shard",
          "type": "bytes32"
        }
      ],
      "name": "purchase",
      "outputs": [],
      "stateMutability": "payable",
      "type": "function"
    },
    {
      "inputs": [
        {
          "internalType": "bytes32",
          "name": "shard",
          "type": "bytes32"
        },
        {
          "internalType": "uint256",
          "name": "numerator",
          "type": "uint256"
        },
        {
          "internalType": "uint256",
          "name": "denominator",
          "type": "uint256"
        },
        {
          "internalType": "address",
          "name": "tokenAddress",
          "type": "address"
        },
        {
          "internalType": "uint256",
          "name": "price",
          "type": "uint256"
        },
        {
          "internalType": "address",
          "name": "to",
          "type": "address"
        }
      ],
      "name": "putForSale",
      "outputs": [],
      "stateMutability": "nonpayable",
      "type": "function"
    },
    {
      "inputs": [
        {
          "internalType": "address",
          "name": "tokenAddress",
          "type": "address"
        },
        {
          "internalType": "uint256",
          "name": "value",
          "type": "uint256"
        }
      ],
      "name": "receiveToken",
      "outputs": [],
      "stateMutability": "nonpayable",
      "type": "function"
    },
    {
      "inputs": [
        {
          "internalType": "address",
          "name": "tokenAddress",
          "type": "address"
        }
      ],
      "name": "registerTokenAddress",
      "outputs": [],
      "stateMutability": "nonpayable",
      "type": "function"
    },
    {
      "inputs": [
        {
          "internalType": "string",
          "name": "bankName",
          "type": "string"
        },
        {
          "internalType": "address",
          "name": "bankAdmin",
          "type": "address"
        }
      ],
      "name": "removeBankAdmin",
      "outputs": [],
      "stateMutability": "nonpayable",
      "type": "function"
    },
    {
      "inputs": [
        {
          "internalType": "string",
          "name": "permitName",
          "type": "string"
        },
        {
          "internalType": "enum Administrable.PermitState",
          "name": "newState",
          "type": "uint8"
        }
      ],
      "name": "setBasePermit",
      "outputs": [],
      "stateMutability": "nonpayable",
      "type": "function"
    },
    {
      "inputs": [
        {
          "internalType": "bool",
          "name": "newState",
          "type": "bool"
        }
      ],
      "name": "setNonShardHolderState",
      "outputs": [],
      "stateMutability": "nonpayable",
      "type": "function"
    },
    {
      "inputs": [
        {
          "internalType": "string",
          "name": "permitName",
          "type": "string"
        },
        {
          "internalType": "address",
          "name": "account",
          "type": "address"
        },
        {
          "internalType": "enum Administrable.PermitState",
          "name": "newState",
          "type": "uint8"
        }
      ],
      "name": "setPermit",
      "outputs": [],
      "stateMutability": "nonpayable",
      "type": "function"
    },
    {
      "inputs": [
        {
          "internalType": "address",
          "name": "",
          "type": "address"
        }
      ],
      "name": "shardByOwner",
      "outputs": [
        {
          "internalType": "bytes32",
          "name": "",
          "type": "bytes32"
        }
      ],
      "stateMutability": "view",
      "type": "function"
    },
    {
      "inputs": [
        {
          "internalType": "bytes32",
          "name": "shard",
          "type": "bytes32"
        },
        {
          "internalType": "uint256",
          "name": "time",
          "type": "uint256"
        }
      ],
      "name": "shardExisted",
      "outputs": [
        {
          "internalType": "bool",
          "name": "",
          "type": "bool"
        }
      ],
      "stateMutability": "view",
      "type": "function"
    },
    {
      "inputs": [
        {
          "internalType": "bytes32",
          "name": "senderShard",
          "type": "bytes32"
        },
        {
          "internalType": "uint256",
          "name": "numerator",
          "type": "uint256"
        },
        {
          "internalType": "uint256",
          "name": "denominator",
          "type": "uint256"
        },
        {
          "internalType": "address",
          "name": "to",
          "type": "address"
        }
      ],
      "name": "split",
      "outputs": [],
      "stateMutability": "nonpayable",
      "type": "function"
    },
    {
      "inputs": [
        {
          "internalType": "bytes32",
          "name": "senderShard",
          "type": "bytes32"
        },
        {
          "internalType": "address",
          "name": "to",
          "type": "address"
        }
      ],
      "name": "transferShard",
      "outputs": [],
      "stateMutability": "nonpayable",
      "type": "function"
    },
    {
      "inputs": [
        {
          "internalType": "string",
          "name": "bankName",
          "type": "string"
        },
        {
          "internalType": "address",
          "name": "tokenAddress",
          "type": "address"
        },
        {
          "internalType": "uint256",
          "name": "value",
          "type": "uint256"
        },
        {
          "internalType": "address",
          "name": "to",
          "type": "address"
        }
      ],
      "name": "transferTokenFromBank",
      "outputs": [],
      "stateMutability": "nonpayable",
      "type": "function"
    },
    {
      "inputs": [
        {
          "internalType": "address",
          "name": "tokenAddress",
          "type": "address"
        }
      ],
      "name": "unregisterTokenAddress",
      "outputs": [],
      "stateMutability": "nonpayable",
      "type": "function"
    },
    {
      "stateMutability": "payable",
      "type": "receive"
    }
  ],
  "bytecode": "6080604052600080553480156200001557600080fd5b50620000dd6001803360006040516001600160601b0319606084901b1660208201526034810182905260009060540160408051808303601f1901815282825280516020918201206001600160a01b03968716600081815260038085528582208490558382526006855285822060001990556080870186529a8652838601998a528585019182526060860197885291825260029283905292902092518355955160018301555194810180546001600160a01b031916959094169490941790925551919092015550565b6001805460ff19168117905560408051808201909152600481526336b0b4b760e11b60208201526200011190333062000225565b604080518082019091526003815262734e5360e81b60208201526200013a90336002306200036c565b62000169604051806040016040528060028152602001611a5160f21b815250336002306200036c60201b60201c565b6200019860405180604001604052806002815260200161191160f21b815250336002306200036c60201b60201c565b620001c76040518060400160405280600281526020016136a160f11b815250336002306200036c60201b60201c565b620001f6604051806040016040528060028152602001616c4560f01b815250336002306200036c60201b60201c565b6040805180820190915260038152621b505560ea1b60208201526200021f90336002306200036c565b62000601565b6001805460ff16151514620002665760405162461bcd60e51b8152602060048201526002602482015261115360f21b60448201526064015b60405180910390fd5b620002718362000455565b15620002a55760405162461bcd60e51b8152602060048201526002602482015261414560f01b60448201526064016200025d565b6001600f84604051620002b99190620004ad565b90815260408051602092819003830181206001600160a01b038716600090815293529120805460ff191692151592909217909155600190600c9062000300908690620004ad565b90815260405160209181900382018120805460ff19169315159390931790925560008051602062004b908339815191529162000341918691869101620004f9565b60408051601f19818403018152908290526200035f91849062000525565b60405180910390a1505050565b6001805460ff16151514620003a95760405162461bcd60e51b8152602060048201526002602482015261115360f21b60448201526064016200025d565b81601085604051620003bc9190620004ad565b90815260408051602092819003830190206001600160a01b038716600090815292529020805460ff19166001836002811115620003fd57620003fd6200056a565b021790555060008051602062004b90833981519152848484604051602001620004299392919062000580565b60408051601f198184030181529082905262000447918490620005d3565b60405180910390a150505050565b6000600c82604051620004699190620004ad565b9081526040519081900360200190205460ff16151560011492915050565b60005b83811015620004a45781810151838201526020016200048a565b50506000910152565b60008251620004c181846020870162000487565b9190910192915050565b60008151808452620004e581602086016020860162000487565b601f01601f19169290920160200192915050565b6040815260006200050e6040830185620004cb565b905060018060a01b03831660208301529392505050565b60608152600260608201526131a160f11b608082015260a0602082015260006200055360a0830185620004cb565b905060018060a01b03831660408301529392505050565b634e487b7160e01b600052602160045260246000fd5b606081526000620005956060830186620004cb565b6001600160a01b0385166020840152905060038310620005c557634e487b7160e01b600052602160045260246000fd5b826040830152949350505050565b606081526002606082015261073560f41b608082015260a0602082015260006200055360a0830185620004cb565b61457f80620006116000396000f3fe6080604052600436106102605760003560e01c8063859d9fd511610144578063bcedb2e0116100b6578063db5dc9b71161007a578063db5dc9b714610827578063de9d680514610847578063e1c34c1f14610867578063e6778fce14610887578063f9983896146108b4578063fd06636b146108d457600080fd5b8063bcedb2e01461071e578063c4802eb21461079a578063c5438a55146107c7578063cc445611146107e7578063d0b8b542146107fa57600080fd5b806397235a1e1161010857806397235a1e1461064e5780639995b9a91461066e578063a1916aef1461069e578063a80aed76146106be578063a907b6c5146106de578063b4af7d59146106fe57600080fd5b8063859d9fd51461059e578063868399a5146105be5780638786df6a146105de5780638d7844a6146105fe5780639211b7b31461061e57600080fd5b8063350546d8116101dd5780634f52a71e116101a15780634f52a71e146104905780635beeff33146104b057806362748dcc146104dd57806363879c0b1461052e5780637b7854931461054e578063810052191461057e57600080fd5b8063350546d8146103ca578063354cd135146103ea578063384fe2b51461040a5780633dbeaa541461042a5780634c46360b1461046057600080fd5b80632365664211610224578063236566421461031c578063258e4d9f1461033c5780632dec7cd21461035c5780632ef379261461038a5780632f2e9a2a146103aa57600080fd5b806302fb0c5e14610278578063036f3aec146102a757806305c558f5146102c75780630bea8985146102dc578063169936b4146102fc57600080fd5b3661027357610271600034336108f4565b005b600080fd5b34801561028457600080fd5b506001546102929060ff1681565b60405190151581526020015b60405180910390f35b3480156102b357600080fd5b506102716102c2366004613a6a565b610a14565b3480156102d357600080fd5b50610271610aa4565b3480156102e857600080fd5b506102716102f7366004613ab7565b610ade565b34801561030857600080fd5b50610292610317366004613ad0565b610b87565b34801561032857600080fd5b50610271610337366004613ab7565b610be5565b34801561034857600080fd5b50610292610357366004613b1b565b610c21565b34801561036857600080fd5b5061037c610377366004613b1b565b610cd6565b60405190815260200161029e565b34801561039657600080fd5b506102716103a5366004613b1b565b610d17565b3480156103b657600080fd5b506102716103c5366004613b1b565b610d76565b3480156103d657600080fd5b506102716103e5366004613b5f565b610dc9565b3480156103f657600080fd5b50610271610405366004613b7a565b610f71565b34801561041657600080fd5b50610271610425366004613ad0565b61118f565b34801561043657600080fd5b5061037c610445366004613b5f565b6001600160a01b031660009081526009602052604090205490565b34801561046c57600080fd5b5061037c61047b366004613ab7565b60009081526013602052604090206002015490565b34801561049c57600080fd5b506102716104ab366004613b9c565b6111db565b3480156104bc57600080fd5b5061037c6104cb366004613b5f565b60086020526000908152604090205481565b3480156104e957600080fd5b506105166104f8366004613ab7565b6000908152601360205260409020600101546001600160a01b031690565b6040516001600160a01b03909116815260200161029e565b34801561053a57600080fd5b50610271610549366004613bbf565b611257565b34801561055a57600080fd5b5061037c610569366004613ab7565b60009081526005602052604090206003015490565b34801561058a57600080fd5b50610271610599366004613c23565b6112ac565b3480156105aa57600080fd5b506102716105b9366004613b5f565b61130f565b3480156105ca57600080fd5b506102926105d9366004613b5f565b61136e565b3480156105ea57600080fd5b506102716105f9366004613b5f565b6113a3565b34801561060a57600080fd5b50610271610619366004613c40565b611402565b34801561062a57600080fd5b50610292610639366004613ab7565b60009081526012602052604090205460ff1690565b34801561065a57600080fd5b50610271610669366004613c7f565b611488565b34801561067a57600080fd5b50610292610689366004613ab7565b60008054918152600660205260409020541190565b3480156106aa57600080fd5b506102716106b9366004613ca9565b6115d8565b3480156106ca57600080fd5b506102926106d9366004613b1b565b6115f9565b3480156106ea57600080fd5b506102716106f9366004613b1b565b611664565b34801561070a57600080fd5b50610292610719366004613ad0565b6116e3565b34801561072a57600080fd5b5061076b610739366004613ab7565b600260208190526000918252604090912080546001820154928201546003909201549092916001600160a01b03169084565b60405161029e949392919093845260208401929092526001600160a01b03166040830152606082015260800190565b3480156107a657600080fd5b5061037c6107b5366004613b5f565b60036020526000908152604090205481565b3480156107d357600080fd5b506102716107e2366004613d24565b611713565b6102716107f5366004613ab7565b6117f3565b34801561080657600080fd5b5061037c610815366004613ab7565b60009081526006602052604090205490565b34801561083357600080fd5b50610292610842366004613b1b565b611d4a565b34801561085357600080fd5b50610271610862366004613d81565b611e00565b34801561087357600080fd5b50610292610882366004613b5f565b611e21565b34801561089357600080fd5b5061037c6108a2366004613ab7565b60009081526014602052604090205490565b3480156108c057600080fd5b506102716108cf366004613ddd565b611e53565b3480156108e057600080fd5b506102926108ef366004613b7a565b611edd565b6108ff838383611f0e565b600e60405161090d90613e35565b90815260408051602092819003830190206001600160a01b0386166000908152925290205415801561094757506001600160a01b03831615155b1561097f576001600d60405161095c90613e35565b908152602001604051809103902060008282546109799190613e5b565b90915550505b81600e60405161098e90613e35565b90815260200160405180910390206000856001600160a01b03166001600160a01b0316815260200190815260200160002060008282546109ce9190613e5b565b90915550506040517fde49bbe8e448cdfa40e6fa0d22592be9a03b28ba746527635dbe5235416659cf90610a0790859085908590613e6e565b60405180910390a1505050565b81610a1f8133610c21565b610a2857600080fd5b816002811115610a3a57610a3a613e91565b601184604051610a4a9190613ecb565b9081526040519081900360200190205460ff166002811115610a6e57610a6e613e91565b03610a945760405162461bcd60e51b8152600401610a8b90613ee7565b60405180910390fd5b610a9f838333611f63565b505050565b604051806040016040528060028152602001616c4560f01b815250610ac98133611d4a565b610ad257600080fd5b610adb33612006565b50565b6000818152600260208190526040909120015481906001600160a01b03163314610b1a5760405162461bcd60e51b8152600401610a8b90613f03565b81610b348160008054918152600660205260409020541190565b610b505760405162461bcd60e51b8152600401610a8b90613f1f565b60008381526004602052604090205460ff16610b7e5760405162461bcd60e51b8152600401610a8b90613f3b565b610a9f83612075565b6000600d82604051610b999190613ecb565b9081526020016040518091039020546000148015610bdf5750600e82604051610bc29190613ecb565b908152604080516020928190038301902060008080529252902054155b92915050565b60405180604001604052806002815260200161191160f21b815250610c0a8133611d4a565b610c1357600080fd5b610c1d82336120c4565b5050565b6000610c2c82611e21565b80610c395750600b5460ff165b610c4557506000610bdf565b6002601084604051610c579190613ecb565b90815260408051602092819003830190206001600160a01b0386166000908152925290205460ff166002811115610c9057610c90613e91565b1480610ccf57506002601184604051610ca99190613ecb565b9081526040519081900360200190205460ff166002811115610ccd57610ccd613e91565b145b9392505050565b6000600e83604051610ce89190613ecb565b908152604080519182900360209081019092206001600160a01b03851660009081529252902054905092915050565b6040518060400160405280600281526020016136a160f11b815250610d3c8133611d4a565b610d4557600080fd5b6001805460ff16151514610d6b5760405162461bcd60e51b8152600401610a8b90613f57565b610a9f8383336121b5565b6040518060400160405280600281526020016136a160f11b815250610d9b8133610c21565b610da457600080fd5b82610daf81336115f9565b610db857600080fd5b610dc38484336122c7565b50505050565b610dd233611e21565b610e035760405162461bcd60e51b81526020600482015260026024820152610aa960f31b6044820152606401610a8b565b610e0c8161136e565b610e285760405162461bcd60e51b8152600401610a8b90613f73565b336000908152600360209081526040808320546001600160a01b0385168452600a83528184208185529092529091205460ff1615610e785760405162461bcd60e51b8152600401610a8b90613f8f565b6001600160a01b0382166000818152600a602090815260408083208584528252808320805460ff1916600190811790915560028352818420908101549054948452600890925282205491929091610ecf9190613fab565b610ed99190613fd8565b905080600003610f055760405162461bcd60e51b81526020600482015260006024820152604401610a8b565b6001600160a01b03831660009081526009602052604081208054839290610f2d908490613fec565b90915550610f3e9050838233612383565b7f1397d005a56670cbe383372bd4743eaa779af18164d00dc6d12a6659418e1bbf838233604051610a0793929190613e6e565b6000828152600260208190526040909120015482906001600160a01b03163314610fad5760405162461bcd60e51b8152600401610a8b90613f03565b600082815260126020526040902054829060ff16610fca57600080fd5b6001805460ff16151514610ff05760405162461bcd60e51b8152600401610a8b90613f57565b610ffa8484611edd565b61102c5760405162461bcd60e51b81526020600482015260036024820152622720a360e91b6044820152606401610a8b565b600083815260156020908152604080832087845290915290205460ff16156110665760405162461bcd60e51b8152600401610a8b90613f8f565b60008381526015602090815260408083208784528252808320805460ff19166001908117909155600280845282852091820154915488865260139094529184209091015490916110b591613fab565b6110bf9190613fd8565b9050806000036110f75760405162461bcd60e51b815260206004820152600360248201526244545360e81b6044820152606401610a8b565b60008481526014602052604081208054839290611115908490613fec565b9091555050600084815260136020526040902060010154611140906001600160a01b03168233612383565b604080516020810186905290810182905260008051602061452a8339815191529060600160408051601f198184030181529082905261118091339061402b565b60405180910390a15050505050565b6040518060400160405280600281526020016136a160f11b8152506111b48133610c21565b6111bd57600080fd5b816111c881336115f9565b6111d157600080fd5b610a9f8333612593565b6000828152600260208190526040909120015482906001600160a01b031633146112175760405162461bcd60e51b8152600401610a8b90613f03565b826112318160008054918152600660205260409020541190565b61124d5760405162461bcd60e51b8152600401610a8b90613f1f565b610dc38484612719565b604051806040016040528060028152602001611a5160f21b81525061127c8133611d4a565b61128557600080fd5b8361129081336115f9565b61129957600080fd5b6112a5858585336128a3565b5050505050565b60405180604001604052806003815260200162734e5360e81b8152506112d28133611d4a565b6112db57600080fd5b600b5482151560ff9091161515036113055760405162461bcd60e51b8152600401610a8b90613ee7565b610c1d8233612ad7565b604051806040016040528060038152602001621b505560ea1b8152506113358133611d4a565b61133e57600080fd5b6001805460ff161515146113645760405162461bcd60e51b8152600401610a8b90613f57565b610c1d8233612b47565b6001600160a01b03811660009081526007602052604081205460ff16151560011480610bdf5750506001600160a01b03161590565b604051806040016040528060038152602001621b505560ea1b8152506113c98133611d4a565b6113d257600080fd5b6001805460ff161515146113f85760405162461bcd60e51b8152600401610a8b90613f57565b610c1d8233612c09565b6000848152600260208190526040909120015484906001600160a01b0316331461143e5760405162461bcd60e51b8152600401610a8b90613f03565b846114588160008054918152600660205260409020541190565b6114745760405162461bcd60e51b8152600401610a8b90613f1f565b61148086868686612c99565b505050505050565b6114918261136e565b6114ad5760405162461bcd60e51b8152600401610a8b90613f73565b604051636eb1769f60e11b8152829082906001600160a01b0383169063dd62ed3e906114df903390309060040161406e565b602060405180830381865afa1580156114fc573d6000803e3d6000fd5b505050506040513d601f19601f820116820180604052508101906115209190614088565b101561153e5760405162461bcd60e51b8152600401610a8b906140a1565b6040516323b872dd60e01b81526001600160a01b038216906323b872dd9061156e903390309087906004016140bd565b6020604051808303816000875af115801561158d573d6000803e3d6000fd5b505050506040513d601f19601f820116820180604052508101906115b191906140e1565b6115cd5760405162461bcd60e51b8152600401610a8b906140fe565b610a9f8383336108f4565b836115e381336115f9565b6115ec57600080fd5b6112a58585858533612e86565b6000600f8360405161160b9190613ecb565b908152604080519182900360209081019092206001600160a01b0385166000908152925290205460ff16151560011480610ccf5750610ccf6040518060400160405280600281526020016136a160f11b81525083610c21565b6040518060400160405280600281526020016136a160f11b8152506116898133611d4a565b61169257600080fd5b8261169d81336115f9565b6116a657600080fd5b6116af83611e21565b806116bc5750600b5460ff165b6116d85760405162461bcd60e51b8152600401610a8b9061411a565b610dc384843361312a565b6000600c826040516116f59190613ecb565b9081526040519081900360200190205460ff16151560011492915050565b8261171e8133610c21565b61172757600080fd5b61173083611e21565b8061173d5750600b5460ff165b6117595760405162461bcd60e51b8152600401610a8b9061411a565b81600281111561176b5761176b613e91565b60108560405161177b9190613ecb565b90815260408051602092819003830190206001600160a01b0387166000908152925290205460ff1660028111156117b4576117b4613e91565b036117e75760405162461bcd60e51b815260206004820152600360248201526204148560ec1b6044820152606401610a8b565b610dc384848433613228565b8061180d8160008054918152600660205260409020541190565b6118295760405162461bcd60e51b8152600401610a8b90613f1f565b60008281526004602052604090205460ff166118575760405162461bcd60e51b8152600401610a8b90613f3b565b6000828152600560205260409020600401546001600160a01b031633148061189757506000828152600560205260409020600401546001600160a01b0316155b6118c85760405162461bcd60e51b815260206004820152600260248201526129a960f11b6044820152606401610a8b565b6118d182612075565b600082815260056020526040812060030154819081906118f59060196103e86132e2565b919450925090506119068183613e5b565b6000868152600560205260409020600201549092506001600160a01b0316611a635760008581526005602052604090206003015434101561196e5760405162461bcd60e51b8152602060048201526002602482015261494560f01b6044820152606401610a8b565b6040516000907349a71890aea5a751e30e740c504f2e9683f347bc9085908381818185875af1925050503d80600081146119c4576040519150601f19603f3d011682016040523d82523d6000602084013e6119c9565b606091505b5050600087815260026020819052604080832090910154905192935090916001600160a01b039091169085908381818185875af1925050503d8060008114611a2d576040519150601f19603f3d011682016040523d82523d6000602084013e611a32565b606091505b50509050808015611a405750815b611a5c5760405162461bcd60e51b8152600401610a8b90614139565b5050611c20565b6000858152600560205260409081902060028101546003909101549151636eb1769f60e11b81526001600160a01b039091169190829063dd62ed3e90611aaf903390309060040161406e565b602060405180830381865afa158015611acc573d6000803e3d6000fd5b505050506040513d601f19601f82011682018060405250810190611af09190614088565b1015611b0e5760405162461bcd60e51b8152600401610a8b906140a1565b6040516323b872dd60e01b81526001600160a01b038216906323b872dd90611b529033907349a71890aea5a751e30e740c504f2e9683f347bc9089906004016140bd565b6020604051808303816000875af1158015611b71573d6000803e3d6000fd5b505050506040513d601f19601f82011682018060405250810190611b9591906140e1565b50600086815260026020819052604091829020015490516323b872dd60e01b81526001600160a01b03808416926323b872dd92611bda923392169088906004016140bd565b6020604051808303816000875af1158015611bf9573d6000803e3d6000fd5b505050506040513d601f19601f82011682018060405250810190611c1d91906140e1565b50505b60008581526005602052604090205415801590611c4d575060008581526005602052604090206001015415155b611c7e5760405162461bcd60e51b8152602060048201526002602482015261455360f01b6044820152606401610a8b565b600085815260026020908152604080832080546001918201546005909452919093208054930154611cb29391929190613356565b15611cc657611cc18533612719565b611ce8565b60008581526005602052604090208054600190910154611ce891879133612c99565b6000858152600560205260409081902080546001820154600283015460039093015493517f86d5a30b627b7d52f998c20ab46abe9fbe1c7c4863cd3259d09e7c22072dc1c194611180948b9493926001600160a01b0390911691903390614155565b6000611d5582611e21565b80611d625750600b5460ff165b611d6e57506000610bdf565b6001601084604051611d809190613ecb565b90815260408051602092819003830190206001600160a01b0386166000908152925290205460ff166002811115611db957611db9613e91565b101580610ccf57506001601184604051611dd39190613ecb565b9081526040519081900360200190205460ff166002811115611df757611df7613e91565b10159392505050565b83611e0b81336115f9565b611e1457600080fd5b6112a58585858533613371565b6001600160a01b038116600090815260036020526040812054610bdf9060008054918152600660205260409020541190565b6000868152600260208190526040909120015486906001600160a01b03163314611e8f5760405162461bcd60e51b8152600401610a8b90613f03565b86611ea98160008054918152600660205260409020541190565b611ec55760405162461bcd60e51b8152600401610a8b90613f1f565b611ed3888888888888613513565b5050505050505050565b6000828152600260205260408120600301548210801590610ccf575050600091825260066020526040909120541190565b6001600160a01b03831660009081526008602052604081208054849290611f36908490613e5b565b90915550506001600160a01b038316600090815260096020526040812080548492906109ce908490613e5b565b6001805460ff16151514611f895760405162461bcd60e51b8152600401610a8b90613f57565b81601184604051611f9a9190613ecb565b908152604051908190036020019020805460ff19166001836002811115611fc357611fc3613e91565b021790555060008051602061452a8339815191528383604051602001611fea9291906141ae565b60408051601f1981840301815290829052610a079184906141d0565b6001805460ff1615151461202c5760405162461bcd60e51b8152600401610a8b90613f57565b6001805460ff191690556040516001600160a01b03821681527f1522879623a3943e5c352efdf9c2adbd7825d2a97d4680ea50466b9709785da49060200160405180910390a150565b8061208f8160008054918152600660205260409020541190565b6120ab5760405162461bcd60e51b8152600401610a8b90613f1f565b506000908152600460205260409020805460ff19169055565b600082815260126020526040902054829060ff166120e157600080fd5b6001805460ff161515146121075760405162461bcd60e51b8152600401610a8b90613f57565b6000838152601260209081526040808320805460ff19169055601490915290819020549051600e9061213890613e35565b9081526040805160209281900383019020600087815260138452828120600101546001600160a01b03168152925281208054909190612178908490613e5b565b9091555050604080516020810185905260008051602061452a833981519152910160408051601f1981840301815290829052610a079185906141fc565b6001805460ff161515146121db5760405162461bcd60e51b8152600401610a8b90613f57565b6121e4836116e3565b156122165760405162461bcd60e51b8152602060048201526002602482015261414560f01b6044820152606401610a8b565b6001600f846040516122289190613ecb565b90815260408051602092819003830181206001600160a01b038716600090815293529120805460ff191692151592909217909155600190600c9061226d908690613ecb565b90815260405160209181900382018120805460ff19169315159390931790925560008051602061452a833981519152916122ab918691869101614228565b60408051601f1981840301815290829052610a07918490614252565b6001805460ff161515146122ed5760405162461bcd60e51b8152600401610a8b90613f57565b6122f783836115f9565b61230057600080fd5b6000600f846040516123129190613ecb565b90815260408051602092819003830181206001600160a01b038716600090815290845291909120805460ff19169315159390931790925560008051602061452a83398151915291612367918691869101614228565b60408051601f1981840301815290829052610a0791849061427e565b6001600160a01b0383166000908152600860205260409020548211156123bb5760405162461bcd60e51b8152600401610a8b906140a1565b6001600160a01b0383166123d8576123d38282613705565b61257e565b60405163095ea7b360e01b815283906001600160a01b0382169063095ea7b39061240890859087906004016142aa565b6020604051808303816000875af1158015612427573d6000803e3d6000fd5b505050506040513d601f19601f8201168201806040525081019061244b91906140e1565b61247c5760405162461bcd60e51b81526020600482015260026024820152614e4160f01b6044820152606401610a8b565b6001600160a01b0382163b156124ef57604051634b91ad0f60e11b81526001600160a01b038316906397235a1e906124ba90879087906004016142aa565b600060405180830381600087803b1580156124d457600080fd5b505af19250505080156124e5575060015b1561257c5761257c565b60405163a9059cbb60e01b81526001600160a01b0382169063a9059cbb9061251d90859087906004016142aa565b6020604051808303816000875af115801561253c573d6000803e3d6000fd5b505050506040513d601f19601f8201168201806040525081019061256091906140e1565b61257c5760405162461bcd60e51b8152600401610a8b906140fe565b505b60015460ff1615610a9f57610a9f8383613778565b6001805460ff161515146125b95760405162461bcd60e51b8152600401610a8b90613f57565b6125c2826116e3565b6125f45760405162461bcd60e51b815260206004820152600360248201526255422160e81b6044820152606401610a8b565b60408051808201909152600481526336b0b4b760e11b6020918201528251908301207f471dfab0756edc981c75dd3188ccd700755407f7d3bedf452610f7a1e240d659016126695760405162461bcd60e51b815260206004820152600260248201526126a160f11b6044820152606401610a8b565b61267282610b87565b6126a35760405162461bcd60e51b8152602060048201526002602482015261424560f01b6044820152606401610a8b565b6000600c836040516126b59190613ecb565b90815260405160209181900382018120805460ff19169315159390931790925560008051602061452a833981519152916126f1918591016142c3565b60408051601f198184030181529082905261270d9184906142d6565b60405180910390a15050565b816127338160008054918152600660205260409020541190565b61274f5760405162461bcd60e51b8152600401610a8b90613f1f565b6001805460ff161515146127755760405162461bcd60e51b8152600401610a8b90613f57565b60005461278183611e21565b15612816576001600160a01b0383166000908152600360205260409020546127b6908260009182526006602052604090912055565b600084815260026020818152604080842080546001918201546001600160a01b038a1687526003855283872054875294909352908420805491015484936127ff939290916137d6565b9150915061280f82828786613812565b5050612838565b6000848152600260205260409020805460019091015461283891908584613812565b6000848152600660205260409020819055333014610dc357600084815260026020526040908190205490517fe9643ef80195846c85962c67deed262d01c3ced15d351cfca16ac0c82daeb1c7916128959187919081908890614302565b60405180910390a150505050565b6001805460ff161515146128c95760405162461bcd60e51b8152600401610a8b90613f57565b600054604051600e906128dd908790613ecb565b90815260408051602092819003830190206001600160a01b038716600090815292529020548311156129215760405162461bcd60e51b8152600401610a8b90614326565b82600e866040516129329190613ecb565b90815260200160405180910390206000866001600160a01b03166001600160a01b0316815260200190815260200160002060008282546129729190613fec565b9091555050604051600e90612988908790613ecb565b90815260408051602092819003830190206001600160a01b038716600090815292529020541580156129c257506001600160a01b03841615155b156129fc576001600d866040516129d99190613ecb565b908152602001604051809103902060008282546129f69190613fec565b90915550505b604080516060810182528281526001600160a01b038681166020808401918252838501888152600087815260138352868120955186559251600180870180546001600160a01b0319169290961691909117909455516002909401939093556014835283812087905560128352839020805460ff19169091179055905160008051602061452a83398151915291612a989188918891889101614342565b60408051601f1981840301815290829052612ab4918590614370565b60405180910390a150600080549080612acc8361439c565b919050555050505050565b6001805460ff16151514612afd5760405162461bcd60e51b8152600401610a8b90613f57565b600b805460ff191683151590811790915560408051602081019290925260008051602061452a833981519152910160408051601f198184030181529082905261270d9184906143b5565b612b508261136e565b612b6c5760405162461bcd60e51b8152600401610a8b90613f73565b6001600160a01b03821660009081526008602052604090205415612bb75760405162461bcd60e51b8152602060048201526002602482015261272d60f11b6044820152606401610a8b565b6001600160a01b03821660009081526007602052604090819020805460ff19169055517fb178d00e152d646a7476fba94e5bca377176ccb09a1c1569ece19824d228d0a89061270d908490849061406e565b612c128261136e565b15612c445760405162461bcd60e51b815260206004820152600260248201526120a960f11b6044820152606401610a8b565b6001600160a01b03821660009081526007602052604090819020805460ff19166001179055517f487c37289624c10056468f1f98ebffbad01edce11374975179672e32e2543bf09061270d908490849061406e565b83612cb38160008054918152600660205260409020541190565b612ccf5760405162461bcd60e51b8152600401610a8b90613f1f565b6001805460ff16151514612cf55760405162461bcd60e51b8152600401610a8b90613f57565b600085815260026020526040902060018101549054612d149190613fd8565b612d1e8486613fd8565b10612d3b5760405162461bcd60e51b8152600401610a8b90614326565b600054612d4783611e21565b15612dcd576001600160a01b03831660009081526003602090815260408083205483526002909152812080546001909101548291612d869189896137d6565b91509150612d9682828786613812565b6001600160a01b038516600090815260036020526040902054612dc6908460009182526006602052604090912055565b5050612dd9565b612dd985858584613812565b60008681526006602090815260408083208490556002909152812080546001909101548291612e099189896138d4565b60008a815260026020819052604090912001549193509150612e3890839083906001600160a01b031686613812565b333014611ed3577fe9643ef80195846c85962c67deed262d01c3ced15d351cfca16ac0c82daeb1c788888888604051612e749493929190614302565b60405180910390a15050505050505050565b83612e90816116e3565b612ec25760405162461bcd60e51b8152602060048201526003602482015262444e4560e81b6044820152606401610a8b565b6001805460ff16151514612ee85760405162461bcd60e51b8152600401610a8b90613f57565b600e86604051612ef89190613ecb565b90815260408051602092819003830190206001600160a01b03871660009081529252902054831115612f3c5760405162461bcd60e51b8152600401610a8b90614326565b82600e87604051612f4d9190613ecb565b90815260200160405180910390206000866001600160a01b03166001600160a01b031681526020019081526020016000206000828254612f8d9190613fec565b90915550506001600160a01b0384161561308157600e86604051612fb19190613ecb565b90815260408051602092819003830190206001600160a01b038716600090815292528120549003613011576001600d87604051612fee9190613ecb565b9081526020016040518091039020600082825461300b9190613fec565b90915550505b600e856040516130219190613ecb565b90815260408051602092819003830190206001600160a01b038716600090815292528120549003613081576001600d8660405161305e9190613ecb565b9081526020016040518091039020600082825461307b9190613e5b565b90915550505b82600e866040516130929190613ecb565b90815260200160405180910390206000866001600160a01b03166001600160a01b0316815260200190815260200160002060008282546130d29190613e5b565b909155505060405160008051602061452a833981519152906130fe9088908890889088906020016143e2565b60408051601f198184030181529082905261311a918590614424565b60405180910390a1505050505050565b6001805460ff161515146131505760405162461bcd60e51b8152600401610a8b90613f57565b6131746040518060400160405280600281526020016136a160f11b81525083611d4a565b6131a55760405162461bcd60e51b815260206004820152600260248201526104e560f41b6044820152606401610a8b565b6001600f846040516131b79190613ecb565b90815260408051602092819003830181206001600160a01b038716600090815290845291909120805460ff19169315159390931790925560008051602061452a8339815191529161320c918691869101614228565b60408051601f1981840301815290829052610a07918490614450565b6001805460ff1615151461324e5760405162461bcd60e51b8152600401610a8b90613f57565b8160108560405161325f9190613ecb565b90815260408051602092819003830190206001600160a01b038716600090815292529020805460ff1916600183600281111561329d5761329d613e91565b021790555060008051602061452a8339815191528484846040516020016132c69392919061447c565b60408051601f19818403018152908290526128959184906141d0565b60008060008484116132f357600080fd5b6000846133008789613fab565b61330a9190613fd8565b90506000856133198882613fec565b613323908a613fab565b61332d9190613fd8565b9050818161333b8183613e5b565b613345908b613fec565b945094509450505093509350939050565b6000828514801561336657508184145b90505b949350505050565b6001805460ff161515146133975760405162461bcd60e51b8152600401610a8b90613f57565b600e856040516133a79190613ecb565b90815260408051602092819003830190206001600160a01b038716600090815292529020548311156133eb5760405162461bcd60e51b8152600401610a8b90614326565b6133f6848484612383565b82600e866040516134079190613ecb565b90815260200160405180910390206000866001600160a01b03166001600160a01b0316815260200190815260200160002060008282546134479190613fec565b9091555050604051600e9061345d908790613ecb565b90815260408051602092819003830190206001600160a01b0387166000908152925290205415801561349757506001600160a01b03841615155b156134d1576001600d866040516134ae9190613ecb565b908152602001604051809103902060008282546134cb9190613fec565b90915550505b60008051602061452a833981519152858585856040516020016134f794939291906144ad565b60408051601f19818403018152908290526111809184906144e9565b8561352d8160008054918152600660205260409020541190565b6135495760405162461bcd60e51b8152600401610a8b90613f1f565b6001805460ff1615151461356f5760405162461bcd60e51b8152600401610a8b90613f57565b60008781526002602052604090206001810154905461358e9190613fd8565b6135988688613fd8565b11156135b65760405162461bcd60e51b8152600401610a8b90614326565b6135c08686613903565b80965081975050506040518060a00160405280878152602001868152602001856001600160a01b03168152602001848152602001836001600160a01b031681525060056000898152602001908152602001600020600082015181600001556020820151816001015560408201518160020160006101000a8154816001600160a01b0302191690836001600160a01b031602179055506060820151816003015560808201518160040160006101000a8154816001600160a01b0302191690836001600160a01b0316021790555090505060016004600089815260200190815260200160002060006101000a81548160ff0219169083151502179055507f4c4dcd7b4186fe1c900d89bc3c911766f63cf9c3570750481f0d89bfbcb752858787878787876040516136f496959493929190614155565b60405180910390a150505050505050565b6000816001600160a01b03168360405160006040518083038185875af1925050503d8060008114613752576040519150601f19603f3d011682016040523d82523d6000602084013e613757565b606091505b5050905080610a9f5760405162461bcd60e51b8152600401610a8b90614139565b6001600160a01b038216600090815260086020526040812080548392906137a0908490613fec565b90915550506001600160a01b038216600090815260096020526040812080548392906137cd908490613fec565b90915550505050565b6000806137e38387613fab565b95506137ef8585613fab565b93506137fb8487613e5b565b6138058487613fab565b9150915094509492505050565b6040516bffffffffffffffffffffffff19606084901b1660208201526034810182905260009060540160408051808303601f1901815282825280516020918201206001600160a01b03968716600081815260038085528582208490558382526006855285822060001990556080870186529a8652838601998a528585019182526060860197885291825260029283905292902092518355955160018301555194810180546001600160a01b031916959094169490941790925551919092015550565b6000806138e18387613fab565b95506138ed8486613fab565b94506138f98587613fec565b6138058486613fab565b6000806000613912858561398f565b905061391e8185613fd8565b6139288287613fd8565b6139329190613fd8565b61393c8587613fd8565b1461396f5760405162461bcd60e51b815260206004820152600360248201526215935560ea1b6044820152606401610a8b565b6139798186613fd8565b6139838286613fd8565b92509250509250929050565b60005b81156139ad57816139a38185614515565b9093509150613992565b5090919050565b634e487b7160e01b600052604160045260246000fd5b600082601f8301126139db57600080fd5b81356001600160401b03808211156139f5576139f56139b4565b604051601f8301601f19908116603f01168101908282118183101715613a1d57613a1d6139b4565b81604052838152866020858801011115613a3657600080fd5b836020870160208301376000602085830101528094505050505092915050565b803560038110613a6557600080fd5b919050565b60008060408385031215613a7d57600080fd5b82356001600160401b03811115613a9357600080fd5b613a9f858286016139ca565b925050613aae60208401613a56565b90509250929050565b600060208284031215613ac957600080fd5b5035919050565b600060208284031215613ae257600080fd5b81356001600160401b03811115613af857600080fd5b613369848285016139ca565b80356001600160a01b0381168114613a6557600080fd5b60008060408385031215613b2e57600080fd5b82356001600160401b03811115613b4457600080fd5b613b50858286016139ca565b925050613aae60208401613b04565b600060208284031215613b7157600080fd5b610ccf82613b04565b60008060408385031215613b8d57600080fd5b50508035926020909101359150565b60008060408385031215613baf57600080fd5b82359150613aae60208401613b04565b600080600060608486031215613bd457600080fd5b83356001600160401b03811115613bea57600080fd5b613bf6868287016139ca565b935050613c0560208501613b04565b9150604084013590509250925092565b8015158114610adb57600080fd5b600060208284031215613c3557600080fd5b8135610ccf81613c15565b60008060008060808587031215613c5657600080fd5b843593506020850135925060408501359150613c7460608601613b04565b905092959194509250565b60008060408385031215613c9257600080fd5b613c9b83613b04565b946020939093013593505050565b60008060008060808587031215613cbf57600080fd5b84356001600160401b0380821115613cd657600080fd5b613ce2888389016139ca565b95506020870135915080821115613cf857600080fd5b50613d05878288016139ca565b935050613d1460408601613b04565b9396929550929360600135925050565b600080600060608486031215613d3957600080fd5b83356001600160401b03811115613d4f57600080fd5b613d5b868287016139ca565b935050613d6a60208501613b04565b9150613d7860408501613a56565b90509250925092565b60008060008060808587031215613d9757600080fd5b84356001600160401b03811115613dad57600080fd5b613db9878288016139ca565b945050613dc860208601613b04565b925060408501359150613c7460608601613b04565b60008060008060008060c08789031215613df657600080fd5b863595506020870135945060408701359350613e1460608801613b04565b925060808701359150613e2960a08801613b04565b90509295509295509295565b6336b0b4b760e11b815260040190565b634e487b7160e01b600052601160045260246000fd5b80820180821115610bdf57610bdf613e45565b6001600160a01b0393841681526020810192909252909116604082015260600190565b634e487b7160e01b600052602160045260246000fd5b60005b83811015613ec2578181015183820152602001613eaa565b50506000910152565b60008251613edd818460208701613ea7565b9190910192915050565b602080825260029082015261415360f01b604082015260600190565b60208082526002908201526109e960f31b604082015260600190565b602080825260029082015261555360f01b604082015260600190565b6020808252600290820152614e5360f01b604082015260600190565b602080825260029082015261115360f21b604082015260600190565b602080825260029082015261155560f21b604082015260600190565b602080825260029082015261414360f01b604082015260600190565b8082028115828204841417610bdf57610bdf613e45565b634e487b7160e01b600052601260045260246000fd5b600082613fe757613fe7613fc2565b500490565b81810381811115610bdf57610bdf613e45565b60008151808452614017816020860160208601613ea7565b601f01601f19169290920160200192915050565b60608152600260608201526118d160f21b608082015260a06020820152600061405760a0830185613fff565b905060018060a01b03831660408301529392505050565b6001600160a01b0392831681529116602082015260400190565b60006020828403121561409a57600080fd5b5051919050565b602080825260029082015261125560f21b604082015260600190565b6001600160a01b039384168152919092166020820152604081019190915260600190565b6000602082840312156140f357600080fd5b8151610ccf81613c15565b602080825260029082015261139560f21b604082015260600190565b6020808252600590820152644e53484e4160d81b604082015260600190565b6020808252600290820152612a2360f11b604082015260600190565b958652602086019490945260408501929092526001600160a01b03908116606085015260808401919091521660a082015260c00190565b600381106141aa57634e487b7160e01b600052602160045260246000fd5b9052565b6040815260006141c16040830185613fff565b9050610ccf602083018461418c565b606081526002606082015261073560f41b608082015260a06020820152600061405760a0830185613fff565b606081526002606082015261191160f21b608082015260a06020820152600061405760a0830185613fff565b60408152600061423b6040830185613fff565b905060018060a01b03831660208301529392505050565b60608152600260608201526131a160f11b608082015260a06020820152600061405760a0830185613fff565b606081526002606082015261724160f01b608082015260a06020820152600061405760a0830185613fff565b6001600160a01b03929092168252602082015260400190565b602081526000610ccf6020830184613fff565b606081526002606082015261322160f11b608082015260a06020820152600061405760a0830185613fff565b938452602084019290925260408301526001600160a01b0316606082015260800190565b60208082526002908201526124a360f11b604082015260600190565b6060815260006143556060830186613fff565b6001600160a01b039490941660208301525060400152919050565b6060815260026060820152611a5160f21b608082015260a06020820152600061405760a0830185613fff565b6000600182016143ae576143ae613e45565b5060010190565b606081526003606082015262734e5360e81b608082015260a06020820152600061405760a0830185613fff565b6080815260006143f56080830187613fff565b82810360208401526144078187613fff565b6001600160a01b0395909516604084015250506060015292915050565b6060815260026060820152611b5560f21b608082015260a06020820152600061405760a0830185613fff565b606081526002606082015261614160f01b608082015260a06020820152600061405760a0830185613fff565b60608152600061448f6060830186613fff565b6001600160a01b03851660208401529050613369604083018461418c565b6080815260006144c06080830187613fff565b6001600160a01b0395861660208401526040830194909452509216606090920191909152919050565b6060815260026060820152611d1560f21b608082015260a06020820152600061405760a0830185613fff565b60008261452457614524613fc2565b50069056fe43cd76b5eb40da9ea5eb31a199f443f7cf7955ec280bc5981a2e3445c79c9055a2646970667358221220b43930faacfc732e15f6e38fd2e708dbf94ffbd5f4972f552751d1a44bc3443964736f6c6343000813003343cd76b5eb40da9ea5eb31a199f443f7cf7955ec280bc5981a2e3445c79c9055",
  "bytecodeSha1": "da39a3ee5e6b4b0d3255bfef95601890afd80709",
  "compiler": {
    "evm_version": "istanbul",
    "optimizer": {
      "enabled": true,
      "runs": 100
    },
    "version": "0.8.19+commit.7dd6d404"
  },
  "contractName": "Administrable",
  "language": "Solidity",
  "natspec": {
    "author": "Frederik W. L. Christoffersen",
    "kind": "dev",
    "methods": {
      "acceptsToken(address)": {
        "notice": "Returns a boolean value, stating if the given token address is registered as acceptable or not.",
        "params": {
          "tokenAddress": "The address of the token to be checked for."
        }
      },
      "active()": {
        "notice": "Boolean stating if the Shardable is active and tradeable or not."
      },
      "addBankAdmin(string,address)": {
        "notice": "Adds a new given administrator to a given Bank.",
        "params": {
          "bankAdmin": "The address of the new Bank administrator to be added.",
          "bankName": "The name of the Bank to which the new administrator is to be added."
        }
      },
      "bankExists(string)": {
        "notice": "Returns a boolean stating if a given Bank exists.",
        "params": {
          "bankName": "The name of the Bank to be checked for."
        }
      },
      "bankIsEmpty(string)": {
        "notice": "Returns a boolean stating if a given Bank is empty.",
        "params": {
          "bankName": "The name of the Bank to be checked for."
        }
      },
      "cancelSale(bytes32)": {
        "notice": "Cancels a sell of a given Shard.",
        "params": {
          "shard": "The shard to be put off sale."
        }
      },
      "claimDividend(bytes32,uint256)": {
        "notice": "Claims the value of an existing dividend corresponding to the shard holder's respective shard fraction.",
        "params": {
          "dividend": "The dividend to be claimed.",
          "shard": "The shard that was valid at the time of the Dividend creation"
        }
      },
      "claimLiquid(address)": {
        "notice": "Claims the owed liquid value corresponding to the shard holder's respective shard fraction after the entity has been liquidized/dissolved.",
        "params": {
          "tokenAddress": "The address of the token to be claimed."
        }
      },
      "constructor": {
        "notice": "Constructor function connecting the Idea entity and creating a Bank with an administrator."
      },
      "createBank(string,address)": {
        "notice": "Creates a new Bank.",
        "params": {
          "bankAdmin": "The address of the first Bank administrator.",
          "bankName": "The name of the Bank to be created."
        }
      },
      "deleteBank(string)": {
        "notice": "Deletes a given Bank.",
        "params": {
          "bankName": "The name of the Bank to be deleted."
        }
      },
      "dissolveDividend(uint256)": {
        "notice": "Dissolves a Dividend and moves its last contents to the 'main' Bank.",
        "params": {
          "dividend": "The Dividend to be dissolved."
        }
      },
      "dividendExists(uint256)": {
        "notice": "Returns a boolean stating if a given Dividend exists.",
        "params": {
          "dividend": "The Dividend to be checked for."
        }
      },
      "getBankBalance(string,address)": {
        "notice": "Returns the balance of a bank.",
        "params": {
          "bankName": "The name of the Bank.",
          "tokenAddress": "The address of the token balance to check for."
        }
      },
      "getDividendResidual(uint256)": {
        "notice": "Returns the residual value of a dividend.",
        "params": {
          "dividend": "The Dividend to be checked for."
        }
      },
      "getDividendToken(uint256)": {
        "notice": "Returns the token of a dividend.",
        "params": {
          "dividend": "The Dividend to be checked for."
        }
      },
      "getDividendValue(uint256)": {
        "notice": "Returns the total value of a dividend.",
        "params": {
          "dividend": "The Dividend to be checked for."
        }
      },
      "getLiquidResidual(address)": {
        "notice": "Returns the residual of a liquid, after liquidization/inactivation.",
        "params": {
          "tokenAddress": "The address of the token to be checked for."
        }
      },
      "getShardExpiredTime(bytes32)": {
        "notice": "Returns the time, in which a shard will or has expired."
      },
      "getShardSalePrice(bytes32)": {
        "notice": "Returns the price, at which a shard is for sale."
      },
      "hasPermit(string,address)": {
        "notice": "Returns a boolean stating if a given address has a given permit or not.",
        "params": {
          "account": "The address to be checked for.",
          "permitName": "The name of the permit to be checked for."
        }
      },
      "infoByShard(bytes32)": {
        "notice": "Mapping pointing to related info of a Shard given the bytes of a unique Shard instance."
      },
      "isBankAdmin(string,address)": {
        "notice": "Returns a boolean stating if a given address is an admin of a given bank.",
        "params": {
          "account": "The address to be checked for.",
          "bankName": "The name of the Bank to be checked for."
        }
      },
      "isPermitAdmin(string,address)": {
        "notice": "Returns a boolean stating if a given address is an admin of a given permit or not.",
        "params": {
          "account": "The address to be checked for.",
          "permitName": "The name of the permit to be checked for."
        }
      },
      "isShardHolder(address)": {
        "notice": "Checks if address is a shard holder - at least a partial owner of the contract.",
        "params": {
          "account": "The address to be checked for."
        }
      },
      "isValidShard(bytes32)": {
        "notice": "Returns a boolean stating if a given shard is currently valid or not.",
        "params": {
          "shard": "The shard, whose validity is to be checked for."
        }
      },
      "issueDividend(string,address,uint256)": {
        "notice": "Creates and issues a Dividend (to all current shareholders) of a token amount from a given Bank.",
        "params": {
          "bankName": "The name of the Bank to issue the Dividend from.",
          "tokenAddress": "The address of the token to make up the Dividend.",
          "value": "The value/amount of the token to be issued in the Dividend."
        }
      },
      "liquid(address)": {
        "notice": "Mapping pointing to a value/amount given the address of an ERC20 token."
      },
      "liquidize()": {
        "notice": "Liquidizes and dissolves the entity. This cannot be undone."
      },
      "moveToken(string,string,address,uint256)": {
        "notice": "Internally moves a token from one Bank to another.",
        "params": {
          "fromBankName": "The name of the Bank from which the token is to be moved.",
          "toBankName": "The name of the Bank to which the token is to be moved.",
          "tokenAddress": "The address of the token to be moved.",
          "value": "The value/amount of the token to be moved."
        }
      },
      "purchase(bytes32)": {
        "details": "If the purchase is with tokens (ie. tokenAddress != 0x0), first call 'token.approve(Shardable.address, salePrice);'",
        "notice": "Purchases a listed Shard for sale.",
        "params": {
          "shard": "The shard of which a fraction will be purchased."
        }
      },
      "putForSale(bytes32,uint256,uint256,address,uint256,address)": {
        "notice": "Puts a given shard for sale.",
        "params": {
          "denominator": "Denominator of the absolute fraction of the Shard to be put for sale.",
          "numerator": "Numerator of the absolute fraction of the Shard to be put for sale.",
          "price": "The amount which the Shard is for sale as. The token address being the valuta.",
          "shard": "The shard to be put for sale.",
          "to": "The specifically set buyer of the sale. Open to anyone, if address(0).",
          "tokenAddress": "The address of the token that is accepted when purchasing. A value of 0x0 represents ether."
        }
      },
      "receiveToken(address,uint256)": {
        "notice": "Receives a specified token and adds it to the registry. Make sure 'token.approve()' is called beforehand.",
        "params": {
          "tokenAddress": "The address of the token to be received.",
          "value": "The value/amount of the token to be received."
        }
      },
      "registerTokenAddress(address)": {
        "notice": "Adds a token address to the registry. Also approves any future receipts of said token unless removed again.",
        "params": {
          "tokenAddress": "The token address to be registered."
        }
      },
      "removeBankAdmin(string,address)": {
        "notice": "Removes a given administrator of a given Bank.",
        "params": {
          "bankAdmin": "The address of the current Bank administrator to be removed.",
          "bankName": "The name of the Bank from which the given administrator is to be removed."
        }
      },
      "setBasePermit(string,uint8)": {
        "notice": "Sets the state of a specified base permit.",
        "params": {
          "newState": "The new base Permit State to be applied.",
          "permitName": "The name of the base permit, whose state is to be set."
        }
      },
      "setNonShardHolderState(bool)": {
        "notice": "Sets the state of the Non Shard Holders.",
        "params": {
          "newState": "The Boolean state to be applied."
        }
      },
      "setPermit(string,address,uint8)": {
        "notice": "Sets the state of a specified permit of a given address.",
        "params": {
          "account": "The address, whose permit state is to be set.",
          "newState": "The new Permit State to be applied.",
          "permitName": "The name of the permit, whose state is to be set."
        }
      },
      "shardByOwner(address)": {
        "notice": "Mapping pointing to a currently valid shard given the address of its owner."
      },
      "shardExisted(bytes32,uint256)": {
        "notice": "Returns a boolean stating if the given shard was valid at a given timestamp.",
        "params": {
          "shard": "The shard, whose validity is to be checked for.",
          "time": "The timestamp to be checked for."
        }
      },
      "split(bytes32,uint256,uint256,address)": {
        "notice": "Splits a currently valid shard into two new ones. One is assigned to the receiver. The rest to the previous owner.",
        "params": {
          "denominator": "Denominator of the absolute fraction, which will be subtracted from the previous shard and sent to the receiver.",
          "numerator": "Numerator of the absolute fraction, which will be subtracted from the previous shard and sent to the receiver.",
          "senderShard": "The shard to be split.",
          "to": "The receiver of the new Shard."
        }
      },
      "transferShard(bytes32,address)": {
        "notice": "Sends a whole shard to a receiver.",
        "params": {
          "senderShard": "The shard to be transferred.",
          "to": "The receiver of the new Shard."
        }
      },
      "transferTokenFromBank(string,address,uint256,address)": {
        "notice": "Transfers a token bankAdmin a Bank to a recipient.",
        "params": {
          "bankName": "The name of the Bank from which the token is to be transferred.",
          "to": "The recipient of the token to be transferred.",
          "tokenAddress": "The address of the token to be transferred.",
          "value": "The value/amount of the token to be transferred."
        }
      },
      "unregisterTokenAddress(address)": {
        "notice": "Removes a token address from the registry. Also cancels any future receipts of said token unless added again.",
        "params": {
          "tokenAddress": "The token address to be unregistered."
        }
      }
    },
    "notice": "This contract adds administrability via permits and internally closed money supplies.",
    "stateVariables": {
      "permits": {
        "custom:illustration": "permits[permitName][address] == PermitState.authorized || PermitState.administrator;"
      }
    },
    "title": "An extension of the Idea providing an administrable interface.",
    "version": 1
  },
  "opcodes": "PUSH1 0x80 PUSH1 0x40 MSTORE PUSH1 0x4 CALLDATASIZE LT PUSH2 0x260 JUMPI PUSH1 0x0 CALLDATALOAD PUSH1 0xE0 SHR DUP1 PUSH4 0x859D9FD5 GT PUSH2 0x144 JUMPI DUP1 PUSH4 0xBCEDB2E0 GT PUSH2 0xB6 JUMPI DUP1 PUSH4 0xDB5DC9B7 GT PUSH2 0x7A JUMPI DUP1 PUSH4 0xDB5DC9B7 EQ PUSH2 0x827 JUMPI DUP1 PUSH4 0xDE9D6805 EQ PUSH2 0x847 JUMPI DUP1 PUSH4 0xE1C34C1F EQ PUSH2 0x867 JUMPI DUP1 PUSH4 0xE6778FCE EQ PUSH2 0x887 JUMPI DUP1 PUSH4 0xF9983896 EQ PUSH2 0x8B4 JUMPI DUP1 PUSH4 0xFD06636B EQ PUSH2 0x8D4 JUMPI PUSH1 0x0 DUP1 REVERT JUMPDEST DUP1 PUSH4 0xBCEDB2E0 EQ PUSH2 0x71E JUMPI DUP1 PUSH4 0xC4802EB2 EQ PUSH2 0x79A JUMPI DUP1 PUSH4 0xC5438A55 EQ PUSH2 0x7C7 JUMPI DUP1 PUSH4 0xCC445611 EQ PUSH2 0x7E7 JUMPI DUP1 PUSH4 0xD0B8B542 EQ PUSH2 0x7FA JUMPI PUSH1 0x0 DUP1 REVERT JUMPDEST DUP1 PUSH4 0x97235A1E GT PUSH2 0x108 JUMPI DUP1 PUSH4 0x97235A1E EQ PUSH2 0x64E JUMPI DUP1 PUSH4 0x9995B9A9 EQ PUSH2 0x66E JUMPI DUP1 PUSH4 0xA1916AEF EQ PUSH2 0x69E JUMPI DUP1 PUSH4 0xA80AED76 EQ PUSH2 0x6BE JUMPI DUP1 PUSH4 0xA907B6C5 EQ PUSH2 0x6DE JUMPI DUP1 PUSH4 0xB4AF7D59 EQ PUSH2 0x6FE JUMPI PUSH1 0x0 DUP1 REVERT JUMPDEST DUP1 PUSH4 0x859D9FD5 EQ PUSH2 0x59E JUMPI DUP1 PUSH4 0x868399A5 EQ PUSH2 0x5BE JUMPI DUP1 PUSH4 0x8786DF6A EQ PUSH2 0x5DE JUMPI DUP1 PUSH4 0x8D7844A6 EQ PUSH2 0x5FE JUMPI DUP1 PUSH4 0x9211B7B3 EQ PUSH2 0x61E JUMPI PUSH1 0x0 DUP1 REVERT JUMPDEST DUP1 PUSH4 0x350546D8 GT PUSH2 0x1DD JUMPI DUP1 PUSH4 0x4F52A71E GT PUSH2 0x1A1 JUMPI DUP1 PUSH4 0x4F52A71E EQ PUSH2 0x490 JUMPI DUP1 PUSH4 0x5BEEFF33 EQ PUSH2 0x4B0 JUMPI DUP1 PUSH4 0x62748DCC EQ PUSH2 0x4DD JUMPI DUP1 PUSH4 0x63879C0B EQ PUSH2 0x52E JUMPI DUP1 PUSH4 0x7B785493 EQ PUSH2 0x54E JUMPI DUP1 PUSH4 0x81005219 EQ PUSH2 0x57E JUMPI PUSH1 0x0 DUP1 REVERT JUMPDEST DUP1 PUSH4 0x350546D8 EQ PUSH2 0x3CA JUMPI DUP1 PUSH4 0x354CD135 EQ PUSH2 0x3EA JUMPI DUP1 PUSH4 0x384FE2B5 EQ PUSH2 0x40A JUMPI DUP1 PUSH4 0x3DBEAA54 EQ PUSH2 0x42A JUMPI DUP1 PUSH4 0x4C46360B EQ PUSH2 0x460 JUMPI PUSH1 0x0 DUP1 REVERT JUMPDEST DUP1 PUSH4 0x23656642 GT PUSH2 0x224 JUMPI DUP1 PUSH4 0x23656642 EQ PUSH2 0x31C JUMPI DUP1 PUSH4 0x258E4D9F EQ PUSH2 0x33C JUMPI DUP1 PUSH4 0x2DEC7CD2 EQ PUSH2 0x35C JUMPI DUP1 PUSH4 0x2EF37926 EQ PUSH2 0x38A JUMPI DUP1 PUSH4 0x2F2E9A2A EQ PUSH2 0x3AA JUMPI PUSH1 0x0 DUP1 REVERT JUMPDEST DUP1 PUSH4 0x2FB0C5E EQ PUSH2 0x278 JUMPI DUP1 PUSH4 0x36F3AEC EQ PUSH2 0x2A7 JUMPI DUP1 PUSH4 0x5C558F5 EQ PUSH2 0x2C7 JUMPI DUP1 PUSH4 0xBEA8985 EQ PUSH2 0x2DC JUMPI DUP1 PUSH4 0x169936B4 EQ PUSH2 0x2FC JUMPI PUSH1 0x0 DUP1 REVERT JUMPDEST CALLDATASIZE PUSH2 0x273 JUMPI PUSH2 0x271 PUSH1 0x0 CALLVALUE CALLER PUSH2 0x8F4 JUMP JUMPDEST STOP JUMPDEST PUSH1 0x0 DUP1 REVERT JUMPDEST CALLVALUE DUP1 ISZERO PUSH2 0x284 JUMPI PUSH1 0x0 DUP1 REVERT JUMPDEST POP PUSH1 0x1 SLOAD PUSH2 0x292 SWAP1 PUSH1 0xFF AND DUP2 JUMP JUMPDEST PUSH1 0x40 MLOAD SWAP1 ISZERO ISZERO DUP2 MSTORE PUSH1 0x20 ADD JUMPDEST PUSH1 0x40 MLOAD DUP1 SWAP2 SUB SWAP1 RETURN JUMPDEST CALLVALUE DUP1 ISZERO PUSH2 0x2B3 JUMPI PUSH1 0x0 DUP1 REVERT JUMPDEST POP PUSH2 0x271 PUSH2 0x2C2 CALLDATASIZE PUSH1 0x4 PUSH2 0x3A6A JUMP JUMPDEST PUSH2 0xA14 JUMP JUMPDEST CALLVALUE DUP1 ISZERO PUSH2 0x2D3 JUMPI PUSH1 0x0 DUP1 REVERT JUMPDEST POP PUSH2 0x271 PUSH2 0xAA4 JUMP JUMPDEST CALLVALUE DUP1 ISZERO PUSH2 0x2E8 JUMPI PUSH1 0x0 DUP1 REVERT JUMPDEST POP PUSH2 0x271 PUSH2 0x2F7 CALLDATASIZE PUSH1 0x4 PUSH2 0x3AB7 JUMP JUMPDEST PUSH2 0xADE JUMP JUMPDEST CALLVALUE DUP1 ISZERO PUSH2 0x308 JUMPI PUSH1 0x0 DUP1 REVERT JUMPDEST POP PUSH2 0x292 PUSH2 0x317 CALLDATASIZE PUSH1 0x4 PUSH2 0x3AD0 JUMP JUMPDEST PUSH2 0xB87 JUMP JUMPDEST CALLVALUE DUP1 ISZERO PUSH2 0x328 JUMPI PUSH1 0x0 DUP1 REVERT JUMPDEST POP PUSH2 0x271 PUSH2 0x337 CALLDATASIZE PUSH1 0x4 PUSH2 0x3AB7 JUMP JUMPDEST PUSH2 0xBE5 JUMP JUMPDEST CALLVALUE DUP1 ISZERO PUSH2 0x348 JUMPI PUSH1 0x0 DUP1 REVERT JUMPDEST POP PUSH2 0x292 PUSH2 0x357 CALLDATASIZE PUSH1 0x4 PUSH2 0x3B1B JUMP JUMPDEST PUSH2 0xC21 JUMP JUMPDEST CALLVALUE DUP1 ISZERO PUSH2 0x368 JUMPI PUSH1 0x0 DUP1 REVERT JUMPDEST POP PUSH2 0x37C PUSH2 0x377 CALLDATASIZE PUSH1 0x4 PUSH2 0x3B1B JUMP JUMPDEST PUSH2 0xCD6 JUMP JUMPDEST PUSH1 0x40 MLOAD SWAP1 DUP2 MSTORE PUSH1 0x20 ADD PUSH2 0x29E JUMP JUMPDEST CALLVALUE DUP1 ISZERO PUSH2 0x396 JUMPI PUSH1 0x0 DUP1 REVERT JUMPDEST POP PUSH2 0x271 PUSH2 0x3A5 CALLDATASIZE PUSH1 0x4 PUSH2 0x3B1B JUMP JUMPDEST PUSH2 0xD17 JUMP JUMPDEST CALLVALUE DUP1 ISZERO PUSH2 0x3B6 JUMPI PUSH1 0x0 DUP1 REVERT JUMPDEST POP PUSH2 0x271 PUSH2 0x3C5 CALLDATASIZE PUSH1 0x4 PUSH2 0x3B1B JUMP JUMPDEST PUSH2 0xD76 JUMP JUMPDEST CALLVALUE DUP1 ISZERO PUSH2 0x3D6 JUMPI PUSH1 0x0 DUP1 REVERT JUMPDEST POP PUSH2 0x271 PUSH2 0x3E5 CALLDATASIZE PUSH1 0x4 PUSH2 0x3B5F JUMP JUMPDEST PUSH2 0xDC9 JUMP JUMPDEST CALLVALUE DUP1 ISZERO PUSH2 0x3F6 JUMPI PUSH1 0x0 DUP1 REVERT JUMPDEST POP PUSH2 0x271 PUSH2 0x405 CALLDATASIZE PUSH1 0x4 PUSH2 0x3B7A JUMP JUMPDEST PUSH2 0xF71 JUMP JUMPDEST CALLVALUE DUP1 ISZERO PUSH2 0x416 JUMPI PUSH1 0x0 DUP1 REVERT JUMPDEST POP PUSH2 0x271 PUSH2 0x425 CALLDATASIZE PUSH1 0x4 PUSH2 0x3AD0 JUMP JUMPDEST PUSH2 0x118F JUMP JUMPDEST CALLVALUE DUP1 ISZERO PUSH2 0x436 JUMPI PUSH1 0x0 DUP1 REVERT JUMPDEST POP PUSH2 0x37C PUSH2 0x445 CALLDATASIZE PUSH1 0x4 PUSH2 0x3B5F JUMP JUMPDEST PUSH1 0x1 PUSH1 0x1 PUSH1 0xA0 SHL SUB AND PUSH1 0x0 SWAP1 DUP2 MSTORE PUSH1 0x9 PUSH1 0x20 MSTORE PUSH1 0x40 SWAP1 KECCAK256 SLOAD SWAP1 JUMP JUMPDEST CALLVALUE DUP1 ISZERO PUSH2 0x46C JUMPI PUSH1 0x0 DUP1 REVERT JUMPDEST POP PUSH2 0x37C PUSH2 0x47B CALLDATASIZE PUSH1 0x4 PUSH2 0x3AB7 JUMP JUMPDEST PUSH1 0x0 SWAP1 DUP2 MSTORE PUSH1 0x13 PUSH1 0x20 MSTORE PUSH1 0x40 SWAP1 KECCAK256 PUSH1 0x2 ADD SLOAD SWAP1 JUMP JUMPDEST CALLVALUE DUP1 ISZERO PUSH2 0x49C JUMPI PUSH1 0x0 DUP1 REVERT JUMPDEST POP PUSH2 0x271 PUSH2 0x4AB CALLDATASIZE PUSH1 0x4 PUSH2 0x3B9C JUMP JUMPDEST PUSH2 0x11DB JUMP JUMPDEST CALLVALUE DUP1 ISZERO PUSH2 0x4BC JUMPI PUSH1 0x0 DUP1 REVERT JUMPDEST POP PUSH2 0x37C PUSH2 0x4CB CALLDATASIZE PUSH1 0x4 PUSH2 0x3B5F JUMP JUMPDEST PUSH1 0x8 PUSH1 0x20 MSTORE PUSH1 0x0 SWAP1 DUP2 MSTORE PUSH1 0x40 SWAP1 KECCAK256 SLOAD DUP2 JUMP JUMPDEST CALLVALUE DUP1 ISZERO PUSH2 0x4E9 JUMPI PUSH1 0x0 DUP1 REVERT JUMPDEST POP PUSH2 0x516 PUSH2 0x4F8 CALLDATASIZE PUSH1 0x4 PUSH2 0x3AB7 JUMP JUMPDEST PUSH1 0x0 SWAP1 DUP2 MSTORE PUSH1 0x13 PUSH1 0x20 MSTORE PUSH1 0x40 SWAP1 KECCAK256 PUSH1 0x1 ADD SLOAD PUSH1 0x1 PUSH1 0x1 PUSH1 0xA0 SHL SUB AND SWAP1 JUMP JUMPDEST PUSH1 0x40 MLOAD PUSH1 0x1 PUSH1 0x1 PUSH1 0xA0 SHL SUB SWAP1 SWAP2 AND DUP2 MSTORE PUSH1 0x20 ADD PUSH2 0x29E JUMP JUMPDEST CALLVALUE DUP1 ISZERO PUSH2 0x53A JUMPI PUSH1 0x0 DUP1 REVERT JUMPDEST POP PUSH2 0x271 PUSH2 0x549 CALLDATASIZE PUSH1 0x4 PUSH2 0x3BBF JUMP JUMPDEST PUSH2 0x1257 JUMP JUMPDEST CALLVALUE DUP1 ISZERO PUSH2 0x55A JUMPI PUSH1 0x0 DUP1 REVERT JUMPDEST POP PUSH2 0x37C PUSH2 0x569 CALLDATASIZE PUSH1 0x4 PUSH2 0x3AB7 JUMP JUMPDEST PUSH1 0x0 SWAP1 DUP2 MSTORE PUSH1 0x5 PUSH1 0x20 MSTORE PUSH1 0x40 SWAP1 KECCAK256 PUSH1 0x3 ADD SLOAD SWAP1 JUMP JUMPDEST CALLVALUE DUP1 ISZERO PUSH2 0x58A JUMPI PUSH1 0x0 DUP1 REVERT JUMPDEST POP PUSH2 0x271 PUSH2 0x599 CALLDATASIZE PUSH1 0x4 PUSH2 0x3C23 JUMP JUMPDEST PUSH2 0x12AC JUMP JUMPDEST CALLVALUE DUP1 ISZERO PUSH2 0x5AA JUMPI PUSH1 0x0 DUP1 REVERT JUMPDEST POP PUSH2 0x271 PUSH2 0x5B9 CALLDATASIZE PUSH1 0x4 PUSH2 0x3B5F JUMP JUMPDEST PUSH2 0x130F JUMP JUMPDEST CALLVALUE DUP1 ISZERO PUSH2 0x5CA JUMPI PUSH1 0x0 DUP1 REVERT JUMPDEST POP PUSH2 0x292 PUSH2 0x5D9 CALLDATASIZE PUSH1 0x4 PUSH2 0x3B5F JUMP JUMPDEST PUSH2 0x136E JUMP JUMPDEST CALLVALUE DUP1 ISZERO PUSH2 0x5EA JUMPI PUSH1 0x0 DUP1 REVERT JUMPDEST POP PUSH2 0x271 PUSH2 0x5F9 CALLDATASIZE PUSH1 0x4 PUSH2 0x3B5F JUMP JUMPDEST PUSH2 0x13A3 JUMP JUMPDEST CALLVALUE DUP1 ISZERO PUSH2 0x60A JUMPI PUSH1 0x0 DUP1 REVERT JUMPDEST POP PUSH2 0x271 PUSH2 0x619 CALLDATASIZE PUSH1 0x4 PUSH2 0x3C40 JUMP JUMPDEST PUSH2 0x1402 JUMP JUMPDEST CALLVALUE DUP1 ISZERO PUSH2 0x62A JUMPI PUSH1 0x0 DUP1 REVERT JUMPDEST POP PUSH2 0x292 PUSH2 0x639 CALLDATASIZE PUSH1 0x4 PUSH2 0x3AB7 JUMP JUMPDEST PUSH1 0x0 SWAP1 DUP2 MSTORE PUSH1 0x12 PUSH1 0x20 MSTORE PUSH1 0x40 SWAP1 KECCAK256 SLOAD PUSH1 0xFF AND SWAP1 JUMP JUMPDEST CALLVALUE DUP1 ISZERO PUSH2 0x65A JUMPI PUSH1 0x0 DUP1 REVERT JUMPDEST POP PUSH2 0x271 PUSH2 0x669 CALLDATASIZE PUSH1 0x4 PUSH2 0x3C7F JUMP JUMPDEST PUSH2 0x1488 JUMP JUMPDEST CALLVALUE DUP1 ISZERO PUSH2 0x67A JUMPI PUSH1 0x0 DUP1 REVERT JUMPDEST POP PUSH2 0x292 PUSH2 0x689 CALLDATASIZE PUSH1 0x4 PUSH2 0x3AB7 JUMP JUMPDEST PUSH1 0x0 DUP1 SLOAD SWAP2 DUP2 MSTORE PUSH1 0x6 PUSH1 0x20 MSTORE PUSH1 0x40 SWAP1 KECCAK256 SLOAD GT SWAP1 JUMP JUMPDEST CALLVALUE DUP1 ISZERO PUSH2 0x6AA JUMPI PUSH1 0x0 DUP1 REVERT JUMPDEST POP PUSH2 0x271 PUSH2 0x6B9 CALLDATASIZE PUSH1 0x4 PUSH2 0x3CA9 JUMP JUMPDEST PUSH2 0x15D8 JUMP JUMPDEST CALLVALUE DUP1 ISZERO PUSH2 0x6CA JUMPI PUSH1 0x0 DUP1 REVERT JUMPDEST POP PUSH2 0x292 PUSH2 0x6D9 CALLDATASIZE PUSH1 0x4 PUSH2 0x3B1B JUMP JUMPDEST PUSH2 0x15F9 JUMP JUMPDEST CALLVALUE DUP1 ISZERO PUSH2 0x6EA JUMPI PUSH1 0x0 DUP1 REVERT JUMPDEST POP PUSH2 0x271 PUSH2 0x6F9 CALLDATASIZE PUSH1 0x4 PUSH2 0x3B1B JUMP JUMPDEST PUSH2 0x1664 JUMP JUMPDEST CALLVALUE DUP1 ISZERO PUSH2 0x70A JUMPI PUSH1 0x0 DUP1 REVERT JUMPDEST POP PUSH2 0x292 PUSH2 0x719 CALLDATASIZE PUSH1 0x4 PUSH2 0x3AD0 JUMP JUMPDEST PUSH2 0x16E3 JUMP JUMPDEST CALLVALUE DUP1 ISZERO PUSH2 0x72A JUMPI PUSH1 0x0 DUP1 REVERT JUMPDEST POP PUSH2 0x76B PUSH2 0x739 CALLDATASIZE PUSH1 0x4 PUSH2 0x3AB7 JUMP JUMPDEST PUSH1 0x2 PUSH1 0x20 DUP2 SWAP1 MSTORE PUSH1 0x0 SWAP2 DUP3 MSTORE PUSH1 0x40 SWAP1 SWAP2 KECCAK256 DUP1 SLOAD PUSH1 0x1 DUP3 ADD SLOAD SWAP3 DUP3 ADD SLOAD PUSH1 0x3 SWAP1 SWAP3 ADD SLOAD SWAP1 SWAP3 SWAP2 PUSH1 0x1 PUSH1 0x1 PUSH1 0xA0 SHL SUB AND SWAP1 DUP5 JUMP JUMPDEST PUSH1 0x40 MLOAD PUSH2 0x29E SWAP5 SWAP4 SWAP3 SWAP2 SWAP1 SWAP4 DUP5 MSTORE PUSH1 0x20 DUP5 ADD SWAP3 SWAP1 SWAP3 MSTORE PUSH1 0x1 PUSH1 0x1 PUSH1 0xA0 SHL SUB AND PUSH1 0x40 DUP4 ADD MSTORE PUSH1 0x60 DUP3 ADD MSTORE PUSH1 0x80 ADD SWAP1 JUMP JUMPDEST CALLVALUE DUP1 ISZERO PUSH2 0x7A6 JUMPI PUSH1 0x0 DUP1 REVERT JUMPDEST POP PUSH2 0x37C PUSH2 0x7B5 CALLDATASIZE PUSH1 0x4 PUSH2 0x3B5F JUMP JUMPDEST PUSH1 0x3 PUSH1 0x20 MSTORE PUSH1 0x0 SWAP1 DUP2 MSTORE PUSH1 0x40 SWAP1 KECCAK256 SLOAD DUP2 JUMP JUMPDEST CALLVALUE DUP1 ISZERO PUSH2 0x7D3 JUMPI PUSH1 0x0 DUP1 REVERT JUMPDEST POP PUSH2 0x271 PUSH2 0x7E2 CALLDATASIZE PUSH1 0x4 PUSH2 0x3D24 JUMP JUMPDEST PUSH2 0x1713 JUMP JUMPDEST PUSH2 0x271 PUSH2 0x7F5 CALLDATASIZE PUSH1 0x4 PUSH2 0x3AB7 JUMP JUMPDEST PUSH2 0x17F3 JUMP JUMPDEST CALLVALUE DUP1 ISZERO PUSH2 0x806 JUMPI PUSH1 0x0 DUP1 REVERT JUMPDEST POP PUSH2 0x37C PUSH2 0x815 CALLDATASIZE PUSH1 0x4 PUSH2 0x3AB7 JUMP JUMPDEST PUSH1 0x0 SWAP1 DUP2 MSTORE PUSH1 0x6 PUSH1 0x20 MSTORE PUSH1 0x40 SWAP1 KECCAK256 SLOAD SWAP1 JUMP JUMPDEST CALLVALUE DUP1 ISZERO PUSH2 0x833 JUMPI PUSH1 0x0 DUP1 REVERT JUMPDEST POP PUSH2 0x292 PUSH2 0x842 CALLDATASIZE PUSH1 0x4 PUSH2 0x3B1B JUMP JUMPDEST PUSH2 0x1D4A JUMP JUMPDEST CALLVALUE DUP1 ISZERO PUSH2 0x853 JUMPI PUSH1 0x0 DUP1 REVERT JUMPDEST POP PUSH2 0x271 PUSH2 0x862 CALLDATASIZE PUSH1 0x4 PUSH2 0x3D81 JUMP JUMPDEST PUSH2 0x1E00 JUMP JUMPDEST CALLVALUE DUP1 ISZERO PUSH2 0x873 JUMPI PUSH1 0x0 DUP1 REVERT JUMPDEST POP PUSH2 0x292 PUSH2 0x882 CALLDATASIZE PUSH1 0x4 PUSH2 0x3B5F JUMP JUMPDEST PUSH2 0x1E21 JUMP JUMPDEST CALLVALUE DUP1 ISZERO PUSH2 0x893 JUMPI PUSH1 0x0 DUP1 REVERT JUMPDEST POP PUSH2 0x37C PUSH2 0x8A2 CALLDATASIZE PUSH1 0x4 PUSH2 0x3AB7 JUMP JUMPDEST PUSH1 0x0 SWAP1 DUP2 MSTORE PUSH1 0x14 PUSH1 0x20 MSTORE PUSH1 0x40 SWAP1 KECCAK256 SLOAD SWAP1 JUMP JUMPDEST CALLVALUE DUP1 ISZERO PUSH2 0x8C0 JUMPI PUSH1 0x0 DUP1 REVERT JUMPDEST POP PUSH2 0x271 PUSH2 0x8CF CALLDATASIZE PUSH1 0x4 PUSH2 0x3DDD JUMP JUMPDEST PUSH2 0x1E53 JUMP JUMPDEST CALLVALUE DUP1 ISZERO PUSH2 0x8E0 JUMPI PUSH1 0x0 DUP1 REVERT JUMPDEST POP PUSH2 0x292 PUSH2 0x8EF CALLDATASIZE PUSH1 0x4 PUSH2 0x3B7A JUMP JUMPDEST PUSH2 0x1EDD JUMP JUMPDEST PUSH2 0x8FF DUP4 DUP4 DUP4 PUSH2 0x1F0E JUMP JUMPDEST PUSH1 0xE PUSH1 0x40 MLOAD PUSH2 0x90D SWAP1 PUSH2 0x3E35 JUMP JUMPDEST SWAP1 DUP2 MSTORE PUSH1 0x40 DUP1 MLOAD PUSH1 0x20 SWAP3 DUP2 SWAP1 SUB DUP4 ADD SWAP1 KECCAK256 PUSH1 0x1 PUSH1 0x1 PUSH1 0xA0 SHL SUB DUP7 AND PUSH1 0x0 SWAP1 DUP2 MSTORE SWAP3 MSTORE SWAP1 KECCAK256 SLOAD ISZERO DUP1 ISZERO PUSH2 0x947 JUMPI POP PUSH1 0x1 PUSH1 0x1 PUSH1 0xA0 SHL SUB DUP4 AND ISZERO ISZERO JUMPDEST ISZERO PUSH2 0x97F JUMPI PUSH1 0x1 PUSH1 0xD PUSH1 0x40 MLOAD PUSH2 0x95C SWAP1 PUSH2 0x3E35 JUMP JUMPDEST SWAP1 DUP2 MSTORE PUSH1 0x20 ADD PUSH1 0x40 MLOAD DUP1 SWAP2 SUB SWAP1 KECCAK256 PUSH1 0x0 DUP3 DUP3 SLOAD PUSH2 0x979 SWAP2 SWAP1 PUSH2 0x3E5B JUMP JUMPDEST SWAP1 SWAP2 SSTORE POP POP JUMPDEST DUP2 PUSH1 0xE PUSH1 0x40 MLOAD PUSH2 0x98E SWAP1 PUSH2 0x3E35 JUMP JUMPDEST SWAP1 DUP2 MSTORE PUSH1 0x20 ADD PUSH1 0x40 MLOAD DUP1 SWAP2 SUB SWAP1 KECCAK256 PUSH1 0x0 DUP6 PUSH1 0x1 PUSH1 0x1 PUSH1 0xA0 SHL SUB AND PUSH1 0x1 PUSH1 0x1 PUSH1 0xA0 SHL SUB AND DUP2 MSTORE PUSH1 0x20 ADD SWAP1 DUP2 MSTORE PUSH1 0x20 ADD PUSH1 0x0 KECCAK256 PUSH1 0x0 DUP3 DUP3 SLOAD PUSH2 0x9CE SWAP2 SWAP1 PUSH2 0x3E5B JUMP JUMPDEST SWAP1 SWAP2 SSTORE POP POP PUSH1 0x40 MLOAD PUSH32 0xDE49BBE8E448CDFA40E6FA0D22592BE9A03B28BA746527635DBE5235416659CF SWAP1 PUSH2 0xA07 SWAP1 DUP6 SWAP1 DUP6 SWAP1 DUP6 SWAP1 PUSH2 0x3E6E JUMP JUMPDEST PUSH1 0x40 MLOAD DUP1 SWAP2 SUB SWAP1 LOG1 POP POP POP JUMP JUMPDEST DUP2 PUSH2 0xA1F DUP2 CALLER PUSH2 0xC21 JUMP JUMPDEST PUSH2 0xA28 JUMPI PUSH1 0x0 DUP1 REVERT JUMPDEST DUP2 PUSH1 0x2 DUP2 GT ISZERO PUSH2 0xA3A JUMPI PUSH2 0xA3A PUSH2 0x3E91 JUMP JUMPDEST PUSH1 0x11 DUP5 PUSH1 0x40 MLOAD PUSH2 0xA4A SWAP2 SWAP1 PUSH2 0x3ECB JUMP JUMPDEST SWAP1 DUP2 MSTORE PUSH1 0x40 MLOAD SWAP1 DUP2 SWAP1 SUB PUSH1 0x20 ADD SWAP1 KECCAK256 SLOAD PUSH1 0xFF AND PUSH1 0x2 DUP2 GT ISZERO PUSH2 0xA6E JUMPI PUSH2 0xA6E PUSH2 0x3E91 JUMP JUMPDEST SUB PUSH2 0xA94 JUMPI PUSH1 0x40 MLOAD PUSH3 0x461BCD PUSH1 0xE5 SHL DUP2 MSTORE PUSH1 0x4 ADD PUSH2 0xA8B SWAP1 PUSH2 0x3EE7 JUMP JUMPDEST PUSH1 0x40 MLOAD DUP1 SWAP2 SUB SWAP1 REVERT JUMPDEST PUSH2 0xA9F DUP4 DUP4 CALLER PUSH2 0x1F63 JUMP JUMPDEST POP POP POP JUMP JUMPDEST PUSH1 0x40 MLOAD DUP1 PUSH1 0x40 ADD PUSH1 0x40 MSTORE DUP1 PUSH1 0x2 DUP2 MSTORE PUSH1 0x20 ADD PUSH2 0x6C45 PUSH1 0xF0 SHL DUP2 MSTORE POP PUSH2 0xAC9 DUP2 CALLER PUSH2 0x1D4A JUMP JUMPDEST PUSH2 0xAD2 JUMPI PUSH1 0x0 DUP1 REVERT JUMPDEST PUSH2 0xADB CALLER PUSH2 0x2006 JUMP JUMPDEST POP JUMP JUMPDEST PUSH1 0x0 DUP2 DUP2 MSTORE PUSH1 0x2 PUSH1 0x20 DUP2 SWAP1 MSTORE PUSH1 0x40 SWAP1 SWAP2 KECCAK256 ADD SLOAD DUP2 SWAP1 PUSH1 0x1 PUSH1 0x1 PUSH1 0xA0 SHL SUB AND CALLER EQ PUSH2 0xB1A JUMPI PUSH1 0x40 MLOAD PUSH3 0x461BCD PUSH1 0xE5 SHL DUP2 MSTORE PUSH1 0x4 ADD PUSH2 0xA8B SWAP1 PUSH2 0x3F03 JUMP JUMPDEST DUP2 PUSH2 0xB34 DUP2 PUSH1 0x0 DUP1 SLOAD SWAP2 DUP2 MSTORE PUSH1 0x6 PUSH1 0x20 MSTORE PUSH1 0x40 SWAP1 KECCAK256 SLOAD GT SWAP1 JUMP JUMPDEST PUSH2 0xB50 JUMPI PUSH1 0x40 MLOAD PUSH3 0x461BCD PUSH1 0xE5 SHL DUP2 MSTORE PUSH1 0x4 ADD PUSH2 0xA8B SWAP1 PUSH2 0x3F1F JUMP JUMPDEST PUSH1 0x0 DUP4 DUP2 MSTORE PUSH1 0x4 PUSH1 0x20 MSTORE PUSH1 0x40 SWAP1 KECCAK256 SLOAD PUSH1 0xFF AND PUSH2 0xB7E JUMPI PUSH1 0x40 MLOAD PUSH3 0x461BCD PUSH1 0xE5 SHL DUP2 MSTORE PUSH1 0x4 ADD PUSH2 0xA8B SWAP1 PUSH2 0x3F3B JUMP JUMPDEST PUSH2 0xA9F DUP4 PUSH2 0x2075 JUMP JUMPDEST PUSH1 0x0 PUSH1 0xD DUP3 PUSH1 0x40 MLOAD PUSH2 0xB99 SWAP2 SWAP1 PUSH2 0x3ECB JUMP JUMPDEST SWAP1 DUP2 MSTORE PUSH1 0x20 ADD PUSH1 0x40 MLOAD DUP1 SWAP2 SUB SWAP1 KECCAK256 SLOAD PUSH1 0x0 EQ DUP1 ISZERO PUSH2 0xBDF JUMPI POP PUSH1 0xE DUP3 PUSH1 0x40 MLOAD PUSH2 0xBC2 SWAP2 SWAP1 PUSH2 0x3ECB JUMP JUMPDEST SWAP1 DUP2 MSTORE PUSH1 0x40 DUP1 MLOAD PUSH1 0x20 SWAP3 DUP2 SWAP1 SUB DUP4 ADD SWAP1 KECCAK256 PUSH1 0x0 DUP1 DUP1 MSTORE SWAP3 MSTORE SWAP1 KECCAK256 SLOAD ISZERO JUMPDEST SWAP3 SWAP2 POP POP JUMP JUMPDEST PUSH1 0x40 MLOAD DUP1 PUSH1 0x40 ADD PUSH1 0x40 MSTORE DUP1 PUSH1 0x2 DUP2 MSTORE PUSH1 0x20 ADD PUSH2 0x1911 PUSH1 0xF2 SHL DUP2 MSTORE POP PUSH2 0xC0A DUP2 CALLER PUSH2 0x1D4A JUMP JUMPDEST PUSH2 0xC13 JUMPI PUSH1 0x0 DUP1 REVERT JUMPDEST PUSH2 0xC1D DUP3 CALLER PUSH2 0x20C4 JUMP JUMPDEST POP POP JUMP JUMPDEST PUSH1 0x0 PUSH2 0xC2C DUP3 PUSH2 0x1E21 JUMP JUMPDEST DUP1 PUSH2 0xC39 JUMPI POP PUSH1 0xB SLOAD PUSH1 0xFF AND JUMPDEST PUSH2 0xC45 JUMPI POP PUSH1 0x0 PUSH2 0xBDF JUMP JUMPDEST PUSH1 0x2 PUSH1 0x10 DUP5 PUSH1 0x40 MLOAD PUSH2 0xC57 SWAP2 SWAP1 PUSH2 0x3ECB JUMP JUMPDEST SWAP1 DUP2 MSTORE PUSH1 0x40 DUP1 MLOAD PUSH1 0x20 SWAP3 DUP2 SWAP1 SUB DUP4 ADD SWAP1 KECCAK256 PUSH1 0x1 PUSH1 0x1 PUSH1 0xA0 SHL SUB DUP7 AND PUSH1 0x0 SWAP1 DUP2 MSTORE SWAP3 MSTORE SWAP1 KECCAK256 SLOAD PUSH1 0xFF AND PUSH1 0x2 DUP2 GT ISZERO PUSH2 0xC90 JUMPI PUSH2 0xC90 PUSH2 0x3E91 JUMP JUMPDEST EQ DUP1 PUSH2 0xCCF JUMPI POP PUSH1 0x2 PUSH1 0x11 DUP5 PUSH1 0x40 MLOAD PUSH2 0xCA9 SWAP2 SWAP1 PUSH2 0x3ECB JUMP JUMPDEST SWAP1 DUP2 MSTORE PUSH1 0x40 MLOAD SWAP1 DUP2 SWAP1 SUB PUSH1 0x20 ADD SWAP1 KECCAK256 SLOAD PUSH1 0xFF AND PUSH1 0x2 DUP2 GT ISZERO PUSH2 0xCCD JUMPI PUSH2 0xCCD PUSH2 0x3E91 JUMP JUMPDEST EQ JUMPDEST SWAP4 SWAP3 POP POP POP JUMP JUMPDEST PUSH1 0x0 PUSH1 0xE DUP4 PUSH1 0x40 MLOAD PUSH2 0xCE8 SWAP2 SWAP1 PUSH2 0x3ECB JUMP JUMPDEST SWAP1 DUP2 MSTORE PUSH1 0x40 DUP1 MLOAD SWAP2 DUP3 SWAP1 SUB PUSH1 0x20 SWAP1 DUP2 ADD SWAP1 SWAP3 KECCAK256 PUSH1 0x1 PUSH1 0x1 PUSH1 0xA0 SHL SUB DUP6 AND PUSH1 0x0 SWAP1 DUP2 MSTORE SWAP3 MSTORE SWAP1 KECCAK256 SLOAD SWAP1 POP SWAP3 SWAP2 POP POP JUMP JUMPDEST PUSH1 0x40 MLOAD DUP1 PUSH1 0x40 ADD PUSH1 0x40 MSTORE DUP1 PUSH1 0x2 DUP2 MSTORE PUSH1 0x20 ADD PUSH2 0x36A1 PUSH1 0xF1 SHL DUP2 MSTORE POP PUSH2 0xD3C DUP2 CALLER PUSH2 0x1D4A JUMP JUMPDEST PUSH2 0xD45 JUMPI PUSH1 0x0 DUP1 REVERT JUMPDEST PUSH1 0x1 DUP1 SLOAD PUSH1 0xFF AND ISZERO ISZERO EQ PUSH2 0xD6B JUMPI PUSH1 0x40 MLOAD PUSH3 0x461BCD PUSH1 0xE5 SHL DUP2 MSTORE PUSH1 0x4 ADD PUSH2 0xA8B SWAP1 PUSH2 0x3F57 JUMP JUMPDEST PUSH2 0xA9F DUP4 DUP4 CALLER PUSH2 0x21B5 JUMP JUMPDEST PUSH1 0x40 MLOAD DUP1 PUSH1 0x40 ADD PUSH1 0x40 MSTORE DUP1 PUSH1 0x2 DUP2 MSTORE PUSH1 0x20 ADD PUSH2 0x36A1 PUSH1 0xF1 SHL DUP2 MSTORE POP PUSH2 0xD9B DUP2 CALLER PUSH2 0xC21 JUMP JUMPDEST PUSH2 0xDA4 JUMPI PUSH1 0x0 DUP1 REVERT JUMPDEST DUP3 PUSH2 0xDAF DUP2 CALLER PUSH2 0x15F9 JUMP JUMPDEST PUSH2 0xDB8 JUMPI PUSH1 0x0 DUP1 REVERT JUMPDEST PUSH2 0xDC3 DUP5 DUP5 CALLER PUSH2 0x22C7 JUMP JUMPDEST POP POP POP POP JUMP JUMPDEST PUSH2 0xDD2 CALLER PUSH2 0x1E21 JUMP JUMPDEST PUSH2 0xE03 JUMPI PUSH1 0x40 MLOAD PUSH3 0x461BCD PUSH1 0xE5 SHL DUP2 MSTORE PUSH1 0x20 PUSH1 0x4 DUP3 ADD MSTORE PUSH1 0x2 PUSH1 0x24 DUP3 ADD MSTORE PUSH2 0xAA9 PUSH1 0xF3 SHL PUSH1 0x44 DUP3 ADD MSTORE PUSH1 0x64 ADD PUSH2 0xA8B JUMP JUMPDEST PUSH2 0xE0C DUP2 PUSH2 0x136E JUMP JUMPDEST PUSH2 0xE28 JUMPI PUSH1 0x40 MLOAD PUSH3 0x461BCD PUSH1 0xE5 SHL DUP2 MSTORE PUSH1 0x4 ADD PUSH2 0xA8B SWAP1 PUSH2 0x3F73 JUMP JUMPDEST CALLER PUSH1 0x0 SWAP1 DUP2 MSTORE PUSH1 0x3 PUSH1 0x20 SWAP1 DUP2 MSTORE PUSH1 0x40 DUP1 DUP4 KECCAK256 SLOAD PUSH1 0x1 PUSH1 0x1 PUSH1 0xA0 SHL SUB DUP6 AND DUP5 MSTORE PUSH1 0xA DUP4 MSTORE DUP2 DUP5 KECCAK256 DUP2 DUP6 MSTORE SWAP1 SWAP3 MSTORE SWAP1 SWAP2 KECCAK256 SLOAD PUSH1 0xFF AND ISZERO PUSH2 0xE78 JUMPI PUSH1 0x40 MLOAD PUSH3 0x461BCD PUSH1 0xE5 SHL DUP2 MSTORE PUSH1 0x4 ADD PUSH2 0xA8B SWAP1 PUSH2 0x3F8F JUMP JUMPDEST PUSH1 0x1 PUSH1 0x1 PUSH1 0xA0 SHL SUB DUP3 AND PUSH1 0x0 DUP2 DUP2 MSTORE PUSH1 0xA PUSH1 0x20 SWAP1 DUP2 MSTORE PUSH1 0x40 DUP1 DUP4 KECCAK256 DUP6 DUP5 MSTORE DUP3 MSTORE DUP1 DUP4 KECCAK256 DUP1 SLOAD PUSH1 0xFF NOT AND PUSH1 0x1 SWAP1 DUP2 OR SWAP1 SWAP2 SSTORE PUSH1 0x2 DUP4 MSTORE DUP2 DUP5 KECCAK256 SWAP1 DUP2 ADD SLOAD SWAP1 SLOAD SWAP5 DUP5 MSTORE PUSH1 0x8 SWAP1 SWAP3 MSTORE DUP3 KECCAK256 SLOAD SWAP2 SWAP3 SWAP1 SWAP2 PUSH2 0xECF SWAP2 SWAP1 PUSH2 0x3FAB JUMP JUMPDEST PUSH2 0xED9 SWAP2 SWAP1 PUSH2 0x3FD8 JUMP JUMPDEST SWAP1 POP DUP1 PUSH1 0x0 SUB PUSH2 0xF05 JUMPI PUSH1 0x40 MLOAD PUSH3 0x461BCD PUSH1 0xE5 SHL DUP2 MSTORE PUSH1 0x20 PUSH1 0x4 DUP3 ADD MSTORE PUSH1 0x0 PUSH1 0x24 DUP3 ADD MSTORE PUSH1 0x44 ADD PUSH2 0xA8B JUMP JUMPDEST PUSH1 0x1 PUSH1 0x1 PUSH1 0xA0 SHL SUB DUP4 AND PUSH1 0x0 SWAP1 DUP2 MSTORE PUSH1 0x9 PUSH1 0x20 MSTORE PUSH1 0x40 DUP2 KECCAK256 DUP1 SLOAD DUP4 SWAP3 SWAP1 PUSH2 0xF2D SWAP1 DUP5 SWAP1 PUSH2 0x3FEC JUMP JUMPDEST SWAP1 SWAP2 SSTORE POP PUSH2 0xF3E SWAP1 POP DUP4 DUP3 CALLER PUSH2 0x2383 JUMP JUMPDEST PUSH32 0x1397D005A56670CBE383372BD4743EAA779AF18164D00DC6D12A6659418E1BBF DUP4 DUP3 CALLER PUSH1 0x40 MLOAD PUSH2 0xA07 SWAP4 SWAP3 SWAP2 SWAP1 PUSH2 0x3E6E JUMP JUMPDEST PUSH1 0x0 DUP3 DUP2 MSTORE PUSH1 0x2 PUSH1 0x20 DUP2 SWAP1 MSTORE PUSH1 0x40 SWAP1 SWAP2 KECCAK256 ADD SLOAD DUP3 SWAP1 PUSH1 0x1 PUSH1 0x1 PUSH1 0xA0 SHL SUB AND CALLER EQ PUSH2 0xFAD JUMPI PUSH1 0x40 MLOAD PUSH3 0x461BCD PUSH1 0xE5 SHL DUP2 MSTORE PUSH1 0x4 ADD PUSH2 0xA8B SWAP1 PUSH2 0x3F03 JUMP JUMPDEST PUSH1 0x0 DUP3 DUP2 MSTORE PUSH1 0x12 PUSH1 0x20 MSTORE PUSH1 0x40 SWAP1 KECCAK256 SLOAD DUP3 SWAP1 PUSH1 0xFF AND PUSH2 0xFCA JUMPI PUSH1 0x0 DUP1 REVERT JUMPDEST PUSH1 0x1 DUP1 SLOAD PUSH1 0xFF AND ISZERO ISZERO EQ PUSH2 0xFF0 JUMPI PUSH1 0x40 MLOAD PUSH3 0x461BCD PUSH1 0xE5 SHL DUP2 MSTORE PUSH1 0x4 ADD PUSH2 0xA8B SWAP1 PUSH2 0x3F57 JUMP JUMPDEST PUSH2 0xFFA DUP5 DUP5 PUSH2 0x1EDD JUMP JUMPDEST PUSH2 0x102C JUMPI PUSH1 0x40 MLOAD PUSH3 0x461BCD PUSH1 0xE5 SHL DUP2 MSTORE PUSH1 0x20 PUSH1 0x4 DUP3 ADD MSTORE PUSH1 0x3 PUSH1 0x24 DUP3 ADD MSTORE PUSH3 0x2720A3 PUSH1 0xE9 SHL PUSH1 0x44 DUP3 ADD MSTORE PUSH1 0x64 ADD PUSH2 0xA8B JUMP JUMPDEST PUSH1 0x0 DUP4 DUP2 MSTORE PUSH1 0x15 PUSH1 0x20 SWAP1 DUP2 MSTORE PUSH1 0x40 DUP1 DUP4 KECCAK256 DUP8 DUP5 MSTORE SWAP1 SWAP2 MSTORE SWAP1 KECCAK256 SLOAD PUSH1 0xFF AND ISZERO PUSH2 0x1066 JUMPI PUSH1 0x40 MLOAD PUSH3 0x461BCD PUSH1 0xE5 SHL DUP2 MSTORE PUSH1 0x4 ADD PUSH2 0xA8B SWAP1 PUSH2 0x3F8F JUMP JUMPDEST PUSH1 0x0 DUP4 DUP2 MSTORE PUSH1 0x15 PUSH1 0x20 SWAP1 DUP2 MSTORE PUSH1 0x40 DUP1 DUP4 KECCAK256 DUP8 DUP5 MSTORE DUP3 MSTORE DUP1 DUP4 KECCAK256 DUP1 SLOAD PUSH1 0xFF NOT AND PUSH1 0x1 SWAP1 DUP2 OR SWAP1 SWAP2 SSTORE PUSH1 0x2 DUP1 DUP5 MSTORE DUP3 DUP6 KECCAK256 SWAP2 DUP3 ADD SLOAD SWAP2 SLOAD DUP9 DUP7 MSTORE PUSH1 0x13 SWAP1 SWAP5 MSTORE SWAP2 DUP5 KECCAK256 SWAP1 SWAP2 ADD SLOAD SWAP1 SWAP2 PUSH2 0x10B5 SWAP2 PUSH2 0x3FAB JUMP JUMPDEST PUSH2 0x10BF SWAP2 SWAP1 PUSH2 0x3FD8 JUMP JUMPDEST SWAP1 POP DUP1 PUSH1 0x0 SUB PUSH2 0x10F7 JUMPI PUSH1 0x40 MLOAD PUSH3 0x461BCD PUSH1 0xE5 SHL DUP2 MSTORE PUSH1 0x20 PUSH1 0x4 DUP3 ADD MSTORE PUSH1 0x3 PUSH1 0x24 DUP3 ADD MSTORE PUSH3 0x445453 PUSH1 0xE8 SHL PUSH1 0x44 DUP3 ADD MSTORE PUSH1 0x64 ADD PUSH2 0xA8B JUMP JUMPDEST PUSH1 0x0 DUP5 DUP2 MSTORE PUSH1 0x14 PUSH1 0x20 MSTORE PUSH1 0x40 DUP2 KECCAK256 DUP1 SLOAD DUP4 SWAP3 SWAP1 PUSH2 0x1115 SWAP1 DUP5 SWAP1 PUSH2 0x3FEC JUMP JUMPDEST SWAP1 SWAP2 SSTORE POP POP PUSH1 0x0 DUP5 DUP2 MSTORE PUSH1 0x13 PUSH1 0x20 MSTORE PUSH1 0x40 SWAP1 KECCAK256 PUSH1 0x1 ADD SLOAD PUSH2 0x1140 SWAP1 PUSH1 0x1 PUSH1 0x1 PUSH1 0xA0 SHL SUB AND DUP3 CALLER PUSH2 0x2383 JUMP JUMPDEST PUSH1 0x40 DUP1 MLOAD PUSH1 0x20 DUP2 ADD DUP7 SWAP1 MSTORE SWAP1 DUP2 ADD DUP3 SWAP1 MSTORE PUSH1 0x0 DUP1 MLOAD PUSH1 0x20 PUSH2 0x452A DUP4 CODECOPY DUP2 MLOAD SWAP2 MSTORE SWAP1 PUSH1 0x60 ADD PUSH1 0x40 DUP1 MLOAD PUSH1 0x1F NOT DUP2 DUP5 SUB ADD DUP2 MSTORE SWAP1 DUP3 SWAP1 MSTORE PUSH2 0x1180 SWAP2 CALLER SWAP1 PUSH2 0x402B JUMP JUMPDEST PUSH1 0x40 MLOAD DUP1 SWAP2 SUB SWAP1 LOG1 POP POP POP POP POP JUMP JUMPDEST PUSH1 0x40 MLOAD DUP1 PUSH1 0x40 ADD PUSH1 0x40 MSTORE DUP1 PUSH1 0x2 DUP2 MSTORE PUSH1 0x20 ADD PUSH2 0x36A1 PUSH1 0xF1 SHL DUP2 MSTORE POP PUSH2 0x11B4 DUP2 CALLER PUSH2 0xC21 JUMP JUMPDEST PUSH2 0x11BD JUMPI PUSH1 0x0 DUP1 REVERT JUMPDEST DUP2 PUSH2 0x11C8 DUP2 CALLER PUSH2 0x15F9 JUMP JUMPDEST PUSH2 0x11D1 JUMPI PUSH1 0x0 DUP1 REVERT JUMPDEST PUSH2 0xA9F DUP4 CALLER PUSH2 0x2593 JUMP JUMPDEST PUSH1 0x0 DUP3 DUP2 MSTORE PUSH1 0x2 PUSH1 0x20 DUP2 SWAP1 MSTORE PUSH1 0x40 SWAP1 SWAP2 KECCAK256 ADD SLOAD DUP3 SWAP1 PUSH1 0x1 PUSH1 0x1 PUSH1 0xA0 SHL SUB AND CALLER EQ PUSH2 0x1217 JUMPI PUSH1 0x40 MLOAD PUSH3 0x461BCD PUSH1 0xE5 SHL DUP2 MSTORE PUSH1 0x4 ADD PUSH2 0xA8B SWAP1 PUSH2 0x3F03 JUMP JUMPDEST DUP3 PUSH2 0x1231 DUP2 PUSH1 0x0 DUP1 SLOAD SWAP2 DUP2 MSTORE PUSH1 0x6 PUSH1 0x20 MSTORE PUSH1 0x40 SWAP1 KECCAK256 SLOAD GT SWAP1 JUMP JUMPDEST PUSH2 0x124D JUMPI PUSH1 0x40 MLOAD PUSH3 0x461BCD PUSH1 0xE5 SHL DUP2 MSTORE PUSH1 0x4 ADD PUSH2 0xA8B SWAP1 PUSH2 0x3F1F JUMP JUMPDEST PUSH2 0xDC3 DUP5 DUP5 PUSH2 0x2719 JUMP JUMPDEST PUSH1 0x40 MLOAD DUP1 PUSH1 0x40 ADD PUSH1 0x40 MSTORE DUP1 PUSH1 0x2 DUP2 MSTORE PUSH1 0x20 ADD PUSH2 0x1A51 PUSH1 0xF2 SHL DUP2 MSTORE POP PUSH2 0x127C DUP2 CALLER PUSH2 0x1D4A JUMP JUMPDEST PUSH2 0x1285 JUMPI PUSH1 0x0 DUP1 REVERT JUMPDEST DUP4 PUSH2 0x1290 DUP2 CALLER PUSH2 0x15F9 JUMP JUMPDEST PUSH2 0x1299 JUMPI PUSH1 0x0 DUP1 REVERT JUMPDEST PUSH2 0x12A5 DUP6 DUP6 DUP6 CALLER PUSH2 0x28A3 JUMP JUMPDEST POP POP POP POP POP JUMP JUMPDEST PUSH1 0x40 MLOAD DUP1 PUSH1 0x40 ADD PUSH1 0x40 MSTORE DUP1 PUSH1 0x3 DUP2 MSTORE PUSH1 0x20 ADD PUSH3 0x734E53 PUSH1 0xE8 SHL DUP2 MSTORE POP PUSH2 0x12D2 DUP2 CALLER PUSH2 0x1D4A JUMP JUMPDEST PUSH2 0x12DB JUMPI PUSH1 0x0 DUP1 REVERT JUMPDEST PUSH1 0xB SLOAD DUP3 ISZERO ISZERO PUSH1 0xFF SWAP1 SWAP2 AND ISZERO ISZERO SUB PUSH2 0x1305 JUMPI PUSH1 0x40 MLOAD PUSH3 0x461BCD PUSH1 0xE5 SHL DUP2 MSTORE PUSH1 0x4 ADD PUSH2 0xA8B SWAP1 PUSH2 0x3EE7 JUMP JUMPDEST PUSH2 0xC1D DUP3 CALLER PUSH2 0x2AD7 JUMP JUMPDEST PUSH1 0x40 MLOAD DUP1 PUSH1 0x40 ADD PUSH1 0x40 MSTORE DUP1 PUSH1 0x3 DUP2 MSTORE PUSH1 0x20 ADD PUSH3 0x1B5055 PUSH1 0xEA SHL DUP2 MSTORE POP PUSH2 0x1335 DUP2 CALLER PUSH2 0x1D4A JUMP JUMPDEST PUSH2 0x133E JUMPI PUSH1 0x0 DUP1 REVERT JUMPDEST PUSH1 0x1 DUP1 SLOAD PUSH1 0xFF AND ISZERO ISZERO EQ PUSH2 0x1364 JUMPI PUSH1 0x40 MLOAD PUSH3 0x461BCD PUSH1 0xE5 SHL DUP2 MSTORE PUSH1 0x4 ADD PUSH2 0xA8B SWAP1 PUSH2 0x3F57 JUMP JUMPDEST PUSH2 0xC1D DUP3 CALLER PUSH2 0x2B47 JUMP JUMPDEST PUSH1 0x1 PUSH1 0x1 PUSH1 0xA0 SHL SUB DUP2 AND PUSH1 0x0 SWAP1 DUP2 MSTORE PUSH1 0x7 PUSH1 0x20 MSTORE PUSH1 0x40 DUP2 KECCAK256 SLOAD PUSH1 0xFF AND ISZERO ISZERO PUSH1 0x1 EQ DUP1 PUSH2 0xBDF JUMPI POP POP PUSH1 0x1 PUSH1 0x1 PUSH1 0xA0 SHL SUB AND ISZERO SWAP1 JUMP JUMPDEST PUSH1 0x40 MLOAD DUP1 PUSH1 0x40 ADD PUSH1 0x40 MSTORE DUP1 PUSH1 0x3 DUP2 MSTORE PUSH1 0x20 ADD PUSH3 0x1B5055 PUSH1 0xEA SHL DUP2 MSTORE POP PUSH2 0x13C9 DUP2 CALLER PUSH2 0x1D4A JUMP JUMPDEST PUSH2 0x13D2 JUMPI PUSH1 0x0 DUP1 REVERT JUMPDEST PUSH1 0x1 DUP1 SLOAD PUSH1 0xFF AND ISZERO ISZERO EQ PUSH2 0x13F8 JUMPI PUSH1 0x40 MLOAD PUSH3 0x461BCD PUSH1 0xE5 SHL DUP2 MSTORE PUSH1 0x4 ADD PUSH2 0xA8B SWAP1 PUSH2 0x3F57 JUMP JUMPDEST PUSH2 0xC1D DUP3 CALLER PUSH2 0x2C09 JUMP JUMPDEST PUSH1 0x0 DUP5 DUP2 MSTORE PUSH1 0x2 PUSH1 0x20 DUP2 SWAP1 MSTORE PUSH1 0x40 SWAP1 SWAP2 KECCAK256 ADD SLOAD DUP5 SWAP1 PUSH1 0x1 PUSH1 0x1 PUSH1 0xA0 SHL SUB AND CALLER EQ PUSH2 0x143E JUMPI PUSH1 0x40 MLOAD PUSH3 0x461BCD PUSH1 0xE5 SHL DUP2 MSTORE PUSH1 0x4 ADD PUSH2 0xA8B SWAP1 PUSH2 0x3F03 JUMP JUMPDEST DUP5 PUSH2 0x1458 DUP2 PUSH1 0x0 DUP1 SLOAD SWAP2 DUP2 MSTORE PUSH1 0x6 PUSH1 0x20 MSTORE PUSH1 0x40 SWAP1 KECCAK256 SLOAD GT SWAP1 JUMP JUMPDEST PUSH2 0x1474 JUMPI PUSH1 0x40 MLOAD PUSH3 0x461BCD PUSH1 0xE5 SHL DUP2 MSTORE PUSH1 0x4 ADD PUSH2 0xA8B SWAP1 PUSH2 0x3F1F JUMP JUMPDEST PUSH2 0x1480 DUP7 DUP7 DUP7 DUP7 PUSH2 0x2C99 JUMP JUMPDEST POP POP POP POP POP POP JUMP JUMPDEST PUSH2 0x1491 DUP3 PUSH2 0x136E JUMP JUMPDEST PUSH2 0x14AD JUMPI PUSH1 0x40 MLOAD PUSH3 0x461BCD PUSH1 0xE5 SHL DUP2 MSTORE PUSH1 0x4 ADD PUSH2 0xA8B SWAP1 PUSH2 0x3F73 JUMP JUMPDEST PUSH1 0x40 MLOAD PUSH4 0x6EB1769F PUSH1 0xE1 SHL DUP2 MSTORE DUP3 SWAP1 DUP3 SWAP1 PUSH1 0x1 PUSH1 0x1 PUSH1 0xA0 SHL SUB DUP4 AND SWAP1 PUSH4 0xDD62ED3E SWAP1 PUSH2 0x14DF SWAP1 CALLER SWAP1 ADDRESS SWAP1 PUSH1 0x4 ADD PUSH2 0x406E JUMP JUMPDEST PUSH1 0x20 PUSH1 0x40 MLOAD DUP1 DUP4 SUB DUP2 DUP7 GAS STATICCALL ISZERO DUP1 ISZERO PUSH2 0x14FC JUMPI RETURNDATASIZE PUSH1 0x0 DUP1 RETURNDATACOPY RETURNDATASIZE PUSH1 0x0 REVERT JUMPDEST POP POP POP POP PUSH1 0x40 MLOAD RETURNDATASIZE PUSH1 0x1F NOT PUSH1 0x1F DUP3 ADD AND DUP3 ADD DUP1 PUSH1 0x40 MSTORE POP DUP2 ADD SWAP1 PUSH2 0x1520 SWAP2 SWAP1 PUSH2 0x4088 JUMP JUMPDEST LT ISZERO PUSH2 0x153E JUMPI PUSH1 0x40 MLOAD PUSH3 0x461BCD PUSH1 0xE5 SHL DUP2 MSTORE PUSH1 0x4 ADD PUSH2 0xA8B SWAP1 PUSH2 0x40A1 JUMP JUMPDEST PUSH1 0x40 MLOAD PUSH4 0x23B872DD PUSH1 0xE0 SHL DUP2 MSTORE PUSH1 0x1 PUSH1 0x1 PUSH1 0xA0 SHL SUB DUP3 AND SWAP1 PUSH4 0x23B872DD SWAP1 PUSH2 0x156E SWAP1 CALLER SWAP1 ADDRESS SWAP1 DUP8 SWAP1 PUSH1 0x4 ADD PUSH2 0x40BD JUMP JUMPDEST PUSH1 0x20 PUSH1 0x40 MLOAD DUP1 DUP4 SUB DUP2 PUSH1 0x0 DUP8 GAS CALL ISZERO DUP1 ISZERO PUSH2 0x158D JUMPI RETURNDATASIZE PUSH1 0x0 DUP1 RETURNDATACOPY RETURNDATASIZE PUSH1 0x0 REVERT JUMPDEST POP POP POP POP PUSH1 0x40 MLOAD RETURNDATASIZE PUSH1 0x1F NOT PUSH1 0x1F DUP3 ADD AND DUP3 ADD DUP1 PUSH1 0x40 MSTORE POP DUP2 ADD SWAP1 PUSH2 0x15B1 SWAP2 SWAP1 PUSH2 0x40E1 JUMP JUMPDEST PUSH2 0x15CD JUMPI PUSH1 0x40 MLOAD PUSH3 0x461BCD PUSH1 0xE5 SHL DUP2 MSTORE PUSH1 0x4 ADD PUSH2 0xA8B SWAP1 PUSH2 0x40FE JUMP JUMPDEST PUSH2 0xA9F DUP4 DUP4 CALLER PUSH2 0x8F4 JUMP JUMPDEST DUP4 PUSH2 0x15E3 DUP2 CALLER PUSH2 0x15F9 JUMP JUMPDEST PUSH2 0x15EC JUMPI PUSH1 0x0 DUP1 REVERT JUMPDEST PUSH2 0x12A5 DUP6 DUP6 DUP6 DUP6 CALLER PUSH2 0x2E86 JUMP JUMPDEST PUSH1 0x0 PUSH1 0xF DUP4 PUSH1 0x40 MLOAD PUSH2 0x160B SWAP2 SWAP1 PUSH2 0x3ECB JUMP JUMPDEST SWAP1 DUP2 MSTORE PUSH1 0x40 DUP1 MLOAD SWAP2 DUP3 SWAP1 SUB PUSH1 0x20 SWAP1 DUP2 ADD SWAP1 SWAP3 KECCAK256 PUSH1 0x1 PUSH1 0x1 PUSH1 0xA0 SHL SUB DUP6 AND PUSH1 0x0 SWAP1 DUP2 MSTORE SWAP3 MSTORE SWAP1 KECCAK256 SLOAD PUSH1 0xFF AND ISZERO ISZERO PUSH1 0x1 EQ DUP1 PUSH2 0xCCF JUMPI POP PUSH2 0xCCF PUSH1 0x40 MLOAD DUP1 PUSH1 0x40 ADD PUSH1 0x40 MSTORE DUP1 PUSH1 0x2 DUP2 MSTORE PUSH1 0x20 ADD PUSH2 0x36A1 PUSH1 0xF1 SHL DUP2 MSTORE POP DUP4 PUSH2 0xC21 JUMP JUMPDEST PUSH1 0x40 MLOAD DUP1 PUSH1 0x40 ADD PUSH1 0x40 MSTORE DUP1 PUSH1 0x2 DUP2 MSTORE PUSH1 0x20 ADD PUSH2 0x36A1 PUSH1 0xF1 SHL DUP2 MSTORE POP PUSH2 0x1689 DUP2 CALLER PUSH2 0x1D4A JUMP JUMPDEST PUSH2 0x1692 JUMPI PUSH1 0x0 DUP1 REVERT JUMPDEST DUP3 PUSH2 0x169D DUP2 CALLER PUSH2 0x15F9 JUMP JUMPDEST PUSH2 0x16A6 JUMPI PUSH1 0x0 DUP1 REVERT JUMPDEST PUSH2 0x16AF DUP4 PUSH2 0x1E21 JUMP JUMPDEST DUP1 PUSH2 0x16BC JUMPI POP PUSH1 0xB SLOAD PUSH1 0xFF AND JUMPDEST PUSH2 0x16D8 JUMPI PUSH1 0x40 MLOAD PUSH3 0x461BCD PUSH1 0xE5 SHL DUP2 MSTORE PUSH1 0x4 ADD PUSH2 0xA8B SWAP1 PUSH2 0x411A JUMP JUMPDEST PUSH2 0xDC3 DUP5 DUP5 CALLER PUSH2 0x312A JUMP JUMPDEST PUSH1 0x0 PUSH1 0xC DUP3 PUSH1 0x40 MLOAD PUSH2 0x16F5 SWAP2 SWAP1 PUSH2 0x3ECB JUMP JUMPDEST SWAP1 DUP2 MSTORE PUSH1 0x40 MLOAD SWAP1 DUP2 SWAP1 SUB PUSH1 0x20 ADD SWAP1 KECCAK256 SLOAD PUSH1 0xFF AND ISZERO ISZERO PUSH1 0x1 EQ SWAP3 SWAP2 POP POP JUMP JUMPDEST DUP3 PUSH2 0x171E DUP2 CALLER PUSH2 0xC21 JUMP JUMPDEST PUSH2 0x1727 JUMPI PUSH1 0x0 DUP1 REVERT JUMPDEST PUSH2 0x1730 DUP4 PUSH2 0x1E21 JUMP JUMPDEST DUP1 PUSH2 0x173D JUMPI POP PUSH1 0xB SLOAD PUSH1 0xFF AND JUMPDEST PUSH2 0x1759 JUMPI PUSH1 0x40 MLOAD PUSH3 0x461BCD PUSH1 0xE5 SHL DUP2 MSTORE PUSH1 0x4 ADD PUSH2 0xA8B SWAP1 PUSH2 0x411A JUMP JUMPDEST DUP2 PUSH1 0x2 DUP2 GT ISZERO PUSH2 0x176B JUMPI PUSH2 0x176B PUSH2 0x3E91 JUMP JUMPDEST PUSH1 0x10 DUP6 PUSH1 0x40 MLOAD PUSH2 0x177B SWAP2 SWAP1 PUSH2 0x3ECB JUMP JUMPDEST SWAP1 DUP2 MSTORE PUSH1 0x40 DUP1 MLOAD PUSH1 0x20 SWAP3 DUP2 SWAP1 SUB DUP4 ADD SWAP1 KECCAK256 PUSH1 0x1 PUSH1 0x1 PUSH1 0xA0 SHL SUB DUP8 AND PUSH1 0x0 SWAP1 DUP2 MSTORE SWAP3 MSTORE SWAP1 KECCAK256 SLOAD PUSH1 0xFF AND PUSH1 0x2 DUP2 GT ISZERO PUSH2 0x17B4 JUMPI PUSH2 0x17B4 PUSH2 0x3E91 JUMP JUMPDEST SUB PUSH2 0x17E7 JUMPI PUSH1 0x40 MLOAD PUSH3 0x461BCD PUSH1 0xE5 SHL DUP2 MSTORE PUSH1 0x20 PUSH1 0x4 DUP3 ADD MSTORE PUSH1 0x3 PUSH1 0x24 DUP3 ADD MSTORE PUSH3 0x41485 PUSH1 0xEC SHL PUSH1 0x44 DUP3 ADD MSTORE PUSH1 0x64 ADD PUSH2 0xA8B JUMP JUMPDEST PUSH2 0xDC3 DUP5 DUP5 DUP5 CALLER PUSH2 0x3228 JUMP JUMPDEST DUP1 PUSH2 0x180D DUP2 PUSH1 0x0 DUP1 SLOAD SWAP2 DUP2 MSTORE PUSH1 0x6 PUSH1 0x20 MSTORE PUSH1 0x40 SWAP1 KECCAK256 SLOAD GT SWAP1 JUMP JUMPDEST PUSH2 0x1829 JUMPI PUSH1 0x40 MLOAD PUSH3 0x461BCD PUSH1 0xE5 SHL DUP2 MSTORE PUSH1 0x4 ADD PUSH2 0xA8B SWAP1 PUSH2 0x3F1F JUMP JUMPDEST PUSH1 0x0 DUP3 DUP2 MSTORE PUSH1 0x4 PUSH1 0x20 MSTORE PUSH1 0x40 SWAP1 KECCAK256 SLOAD PUSH1 0xFF AND PUSH2 0x1857 JUMPI PUSH1 0x40 MLOAD PUSH3 0x461BCD PUSH1 0xE5 SHL DUP2 MSTORE PUSH1 0x4 ADD PUSH2 0xA8B SWAP1 PUSH2 0x3F3B JUMP JUMPDEST PUSH1 0x0 DUP3 DUP2 MSTORE PUSH1 0x5 PUSH1 0x20 MSTORE PUSH1 0x40 SWAP1 KECCAK256 PUSH1 0x4 ADD SLOAD PUSH1 0x1 PUSH1 0x1 PUSH1 0xA0 SHL SUB AND CALLER EQ DUP1 PUSH2 0x1897 JUMPI POP PUSH1 0x0 DUP3 DUP2 MSTORE PUSH1 0x5 PUSH1 0x20 MSTORE PUSH1 0x40 SWAP1 KECCAK256 PUSH1 0x4 ADD SLOAD PUSH1 0x1 PUSH1 0x1 PUSH1 0xA0 SHL SUB AND ISZERO JUMPDEST PUSH2 0x18C8 JUMPI PUSH1 0x40 MLOAD PUSH3 0x461BCD PUSH1 0xE5 SHL DUP2 MSTORE PUSH1 0x20 PUSH1 0x4 DUP3 ADD MSTORE PUSH1 0x2 PUSH1 0x24 DUP3 ADD MSTORE PUSH2 0x29A9 PUSH1 0xF1 SHL PUSH1 0x44 DUP3 ADD MSTORE PUSH1 0x64 ADD PUSH2 0xA8B JUMP JUMPDEST PUSH2 0x18D1 DUP3 PUSH2 0x2075 JUMP JUMPDEST PUSH1 0x0 DUP3 DUP2 MSTORE PUSH1 0x5 PUSH1 0x20 MSTORE PUSH1 0x40 DUP2 KECCAK256 PUSH1 0x3 ADD SLOAD DUP2 SWAP1 DUP2 SWAP1 PUSH2 0x18F5 SWAP1 PUSH1 0x19 PUSH2 0x3E8 PUSH2 0x32E2 JUMP JUMPDEST SWAP2 SWAP5 POP SWAP3 POP SWAP1 POP PUSH2 0x1906 DUP2 DUP4 PUSH2 0x3E5B JUMP JUMPDEST PUSH1 0x0 DUP7 DUP2 MSTORE PUSH1 0x5 PUSH1 0x20 MSTORE PUSH1 0x40 SWAP1 KECCAK256 PUSH1 0x2 ADD SLOAD SWAP1 SWAP3 POP PUSH1 0x1 PUSH1 0x1 PUSH1 0xA0 SHL SUB AND PUSH2 0x1A63 JUMPI PUSH1 0x0 DUP6 DUP2 MSTORE PUSH1 0x5 PUSH1 0x20 MSTORE PUSH1 0x40 SWAP1 KECCAK256 PUSH1 0x3 ADD SLOAD CALLVALUE LT ISZERO PUSH2 0x196E JUMPI PUSH1 0x40 MLOAD PUSH3 0x461BCD PUSH1 0xE5 SHL DUP2 MSTORE PUSH1 0x20 PUSH1 0x4 DUP3 ADD MSTORE PUSH1 0x2 PUSH1 0x24 DUP3 ADD MSTORE PUSH2 0x4945 PUSH1 0xF0 SHL PUSH1 0x44 DUP3 ADD MSTORE PUSH1 0x64 ADD PUSH2 0xA8B JUMP JUMPDEST PUSH1 0x40 MLOAD PUSH1 0x0 SWAP1 PUSH20 0x49A71890AEA5A751E30E740C504F2E9683F347BC SWAP1 DUP6 SWAP1 DUP4 DUP2 DUP2 DUP2 DUP6 DUP8 GAS CALL SWAP3 POP POP POP RETURNDATASIZE DUP1 PUSH1 0x0 DUP2 EQ PUSH2 0x19C4 JUMPI PUSH1 0x40 MLOAD SWAP2 POP PUSH1 0x1F NOT PUSH1 0x3F RETURNDATASIZE ADD AND DUP3 ADD PUSH1 0x40 MSTORE RETURNDATASIZE DUP3 MSTORE RETURNDATASIZE PUSH1 0x0 PUSH1 0x20 DUP5 ADD RETURNDATACOPY PUSH2 0x19C9 JUMP JUMPDEST PUSH1 0x60 SWAP2 POP JUMPDEST POP POP PUSH1 0x0 DUP8 DUP2 MSTORE PUSH1 0x2 PUSH1 0x20 DUP2 SWAP1 MSTORE PUSH1 0x40 DUP1 DUP4 KECCAK256 SWAP1 SWAP2 ADD SLOAD SWAP1 MLOAD SWAP3 SWAP4 POP SWAP1 SWAP2 PUSH1 0x1 PUSH1 0x1 PUSH1 0xA0 SHL SUB SWAP1 SWAP2 AND SWAP1 DUP6 SWAP1 DUP4 DUP2 DUP2 DUP2 DUP6 DUP8 GAS CALL SWAP3 POP POP POP RETURNDATASIZE DUP1 PUSH1 0x0 DUP2 EQ PUSH2 0x1A2D JUMPI PUSH1 0x40 MLOAD SWAP2 POP PUSH1 0x1F NOT PUSH1 0x3F RETURNDATASIZE ADD AND DUP3 ADD PUSH1 0x40 MSTORE RETURNDATASIZE DUP3 MSTORE RETURNDATASIZE PUSH1 0x0 PUSH1 0x20 DUP5 ADD RETURNDATACOPY PUSH2 0x1A32 JUMP JUMPDEST PUSH1 0x60 SWAP2 POP JUMPDEST POP POP SWAP1 POP DUP1 DUP1 ISZERO PUSH2 0x1A40 JUMPI POP DUP2 JUMPDEST PUSH2 0x1A5C JUMPI PUSH1 0x40 MLOAD PUSH3 0x461BCD PUSH1 0xE5 SHL DUP2 MSTORE PUSH1 0x4 ADD PUSH2 0xA8B SWAP1 PUSH2 0x4139 JUMP JUMPDEST POP POP PUSH2 0x1C20 JUMP JUMPDEST PUSH1 0x0 DUP6 DUP2 MSTORE PUSH1 0x5 PUSH1 0x20 MSTORE PUSH1 0x40 SWAP1 DUP2 SWAP1 KECCAK256 PUSH1 0x2 DUP2 ADD SLOAD PUSH1 0x3 SWAP1 SWAP2 ADD SLOAD SWAP2 MLOAD PUSH4 0x6EB1769F PUSH1 0xE1 SHL DUP2 MSTORE PUSH1 0x1 PUSH1 0x1 PUSH1 0xA0 SHL SUB SWAP1 SWAP2 AND SWAP2 SWAP1 DUP3 SWAP1 PUSH4 0xDD62ED3E SWAP1 PUSH2 0x1AAF SWAP1 CALLER SWAP1 ADDRESS SWAP1 PUSH1 0x4 ADD PUSH2 0x406E JUMP JUMPDEST PUSH1 0x20 PUSH1 0x40 MLOAD DUP1 DUP4 SUB DUP2 DUP7 GAS STATICCALL ISZERO DUP1 ISZERO PUSH2 0x1ACC JUMPI RETURNDATASIZE PUSH1 0x0 DUP1 RETURNDATACOPY RETURNDATASIZE PUSH1 0x0 REVERT JUMPDEST POP POP POP POP PUSH1 0x40 MLOAD RETURNDATASIZE PUSH1 0x1F NOT PUSH1 0x1F DUP3 ADD AND DUP3 ADD DUP1 PUSH1 0x40 MSTORE POP DUP2 ADD SWAP1 PUSH2 0x1AF0 SWAP2 SWAP1 PUSH2 0x4088 JUMP JUMPDEST LT ISZERO PUSH2 0x1B0E JUMPI PUSH1 0x40 MLOAD PUSH3 0x461BCD PUSH1 0xE5 SHL DUP2 MSTORE PUSH1 0x4 ADD PUSH2 0xA8B SWAP1 PUSH2 0x40A1 JUMP JUMPDEST PUSH1 0x40 MLOAD PUSH4 0x23B872DD PUSH1 0xE0 SHL DUP2 MSTORE PUSH1 0x1 PUSH1 0x1 PUSH1 0xA0 SHL SUB DUP3 AND SWAP1 PUSH4 0x23B872DD SWAP1 PUSH2 0x1B52 SWAP1 CALLER SWAP1 PUSH20 0x49A71890AEA5A751E30E740C504F2E9683F347BC SWAP1 DUP10 SWAP1 PUSH1 0x4 ADD PUSH2 0x40BD JUMP JUMPDEST PUSH1 0x20 PUSH1 0x40 MLOAD DUP1 DUP4 SUB DUP2 PUSH1 0x0 DUP8 GAS CALL ISZERO DUP1 ISZERO PUSH2 0x1B71 JUMPI RETURNDATASIZE PUSH1 0x0 DUP1 RETURNDATACOPY RETURNDATASIZE PUSH1 0x0 REVERT JUMPDEST POP POP POP POP PUSH1 0x40 MLOAD RETURNDATASIZE PUSH1 0x1F NOT PUSH1 0x1F DUP3 ADD AND DUP3 ADD DUP1 PUSH1 0x40 MSTORE POP DUP2 ADD SWAP1 PUSH2 0x1B95 SWAP2 SWAP1 PUSH2 0x40E1 JUMP JUMPDEST POP PUSH1 0x0 DUP7 DUP2 MSTORE PUSH1 0x2 PUSH1 0x20 DUP2 SWAP1 MSTORE PUSH1 0x40 SWAP2 DUP3 SWAP1 KECCAK256 ADD SLOAD SWAP1 MLOAD PUSH4 0x23B872DD PUSH1 0xE0 SHL DUP2 MSTORE PUSH1 0x1 PUSH1 0x1 PUSH1 0xA0 SHL SUB DUP1 DUP5 AND SWAP3 PUSH4 0x23B872DD SWAP3 PUSH2 0x1BDA SWAP3 CALLER SWAP3 AND SWAP1 DUP9 SWAP1 PUSH1 0x4 ADD PUSH2 0x40BD JUMP JUMPDEST PUSH1 0x20 PUSH1 0x40 MLOAD DUP1 DUP4 SUB DUP2 PUSH1 0x0 DUP8 GAS CALL ISZERO DUP1 ISZERO PUSH2 0x1BF9 JUMPI RETURNDATASIZE PUSH1 0x0 DUP1 RETURNDATACOPY RETURNDATASIZE PUSH1 0x0 REVERT JUMPDEST POP POP POP POP PUSH1 0x40 MLOAD RETURNDATASIZE PUSH1 0x1F NOT PUSH1 0x1F DUP3 ADD AND DUP3 ADD DUP1 PUSH1 0x40 MSTORE POP DUP2 ADD SWAP1 PUSH2 0x1C1D SWAP2 SWAP1 PUSH2 0x40E1 JUMP JUMPDEST POP POP JUMPDEST PUSH1 0x0 DUP6 DUP2 MSTORE PUSH1 0x5 PUSH1 0x20 MSTORE PUSH1 0x40 SWAP1 KECCAK256 SLOAD ISZERO DUP1 ISZERO SWAP1 PUSH2 0x1C4D JUMPI POP PUSH1 0x0 DUP6 DUP2 MSTORE PUSH1 0x5 PUSH1 0x20 MSTORE PUSH1 0x40 SWAP1 KECCAK256 PUSH1 0x1 ADD SLOAD ISZERO ISZERO JUMPDEST PUSH2 0x1C7E JUMPI PUSH1 0x40 MLOAD PUSH3 0x461BCD PUSH1 0xE5 SHL DUP2 MSTORE PUSH1 0x20 PUSH1 0x4 DUP3 ADD MSTORE PUSH1 0x2 PUSH1 0x24 DUP3 ADD MSTORE PUSH2 0x4553 PUSH1 0xF0 SHL PUSH1 0x44 DUP3 ADD MSTORE PUSH1 0x64 ADD PUSH2 0xA8B JUMP JUMPDEST PUSH1 0x0 DUP6 DUP2 MSTORE PUSH1 0x2 PUSH1 0x20 SWAP1 DUP2 MSTORE PUSH1 0x40 DUP1 DUP4 KECCAK256 DUP1 SLOAD PUSH1 0x1 SWAP2 DUP3 ADD SLOAD PUSH1 0x5 SWAP1 SWAP5 MSTORE SWAP2 SWAP1 SWAP4 KECCAK256 DUP1 SLOAD SWAP4 ADD SLOAD PUSH2 0x1CB2 SWAP4 SWAP2 SWAP3 SWAP2 SWAP1 PUSH2 0x3356 JUMP JUMPDEST ISZERO PUSH2 0x1CC6 JUMPI PUSH2 0x1CC1 DUP6 CALLER PUSH2 0x2719 JUMP JUMPDEST PUSH2 0x1CE8 JUMP JUMPDEST PUSH1 0x0 DUP6 DUP2 MSTORE PUSH1 0x5 PUSH1 0x20 MSTORE PUSH1 0x40 SWAP1 KECCAK256 DUP1 SLOAD PUSH1 0x1 SWAP1 SWAP2 ADD SLOAD PUSH2 0x1CE8 SWAP2 DUP8 SWAP2 CALLER PUSH2 0x2C99 JUMP JUMPDEST PUSH1 0x0 DUP6 DUP2 MSTORE PUSH1 0x5 PUSH1 0x20 MSTORE PUSH1 0x40 SWAP1 DUP2 SWAP1 KECCAK256 DUP1 SLOAD PUSH1 0x1 DUP3 ADD SLOAD PUSH1 0x2 DUP4 ADD SLOAD PUSH1 0x3 SWAP1 SWAP4 ADD SLOAD SWAP4 MLOAD PUSH32 0x86D5A30B627B7D52F998C20AB46ABE9FBE1C7C4863CD3259D09E7C22072DC1C1 SWAP5 PUSH2 0x1180 SWAP5 DUP12 SWAP5 SWAP4 SWAP3 PUSH1 0x1 PUSH1 0x1 PUSH1 0xA0 SHL SUB SWAP1 SWAP2 AND SWAP2 SWAP1 CALLER SWAP1 PUSH2 0x4155 JUMP JUMPDEST PUSH1 0x0 PUSH2 0x1D55 DUP3 PUSH2 0x1E21 JUMP JUMPDEST DUP1 PUSH2 0x1D62 JUMPI POP PUSH1 0xB SLOAD PUSH1 0xFF AND JUMPDEST PUSH2 0x1D6E JUMPI POP PUSH1 0x0 PUSH2 0xBDF JUMP JUMPDEST PUSH1 0x1 PUSH1 0x10 DUP5 PUSH1 0x40 MLOAD PUSH2 0x1D80 SWAP2 SWAP1 PUSH2 0x3ECB JUMP JUMPDEST SWAP1 DUP2 MSTORE PUSH1 0x40 DUP1 MLOAD PUSH1 0x20 SWAP3 DUP2 SWAP1 SUB DUP4 ADD SWAP1 KECCAK256 PUSH1 0x1 PUSH1 0x1 PUSH1 0xA0 SHL SUB DUP7 AND PUSH1 0x0 SWAP1 DUP2 MSTORE SWAP3 MSTORE SWAP1 KECCAK256 SLOAD PUSH1 0xFF AND PUSH1 0x2 DUP2 GT ISZERO PUSH2 0x1DB9 JUMPI PUSH2 0x1DB9 PUSH2 0x3E91 JUMP JUMPDEST LT ISZERO DUP1 PUSH2 0xCCF JUMPI POP PUSH1 0x1 PUSH1 0x11 DUP5 PUSH1 0x40 MLOAD PUSH2 0x1DD3 SWAP2 SWAP1 PUSH2 0x3ECB JUMP JUMPDEST SWAP1 DUP2 MSTORE PUSH1 0x40 MLOAD SWAP1 DUP2 SWAP1 SUB PUSH1 0x20 ADD SWAP1 KECCAK256 SLOAD PUSH1 0xFF AND PUSH1 0x2 DUP2 GT ISZERO PUSH2 0x1DF7 JUMPI PUSH2 0x1DF7 PUSH2 0x3E91 JUMP JUMPDEST LT ISZERO SWAP4 SWAP3 POP POP POP JUMP JUMPDEST DUP4 PUSH2 0x1E0B DUP2 CALLER PUSH2 0x15F9 JUMP JUMPDEST PUSH2 0x1E14 JUMPI PUSH1 0x0 DUP1 REVERT JUMPDEST PUSH2 0x12A5 DUP6 DUP6 DUP6 DUP6 CALLER PUSH2 0x3371 JUMP JUMPDEST PUSH1 0x1 PUSH1 0x1 PUSH1 0xA0 SHL SUB DUP2 AND PUSH1 0x0 SWAP1 DUP2 MSTORE PUSH1 0x3 PUSH1 0x20 MSTORE PUSH1 0x40 DUP2 KECCAK256 SLOAD PUSH2 0xBDF SWAP1 PUSH1 0x0 DUP1 SLOAD SWAP2 DUP2 MSTORE PUSH1 0x6 PUSH1 0x20 MSTORE PUSH1 0x40 SWAP1 KECCAK256 SLOAD GT SWAP1 JUMP JUMPDEST PUSH1 0x0 DUP7 DUP2 MSTORE PUSH1 0x2 PUSH1 0x20 DUP2 SWAP1 MSTORE PUSH1 0x40 SWAP1 SWAP2 KECCAK256 ADD SLOAD DUP7 SWAP1 PUSH1 0x1 PUSH1 0x1 PUSH1 0xA0 SHL SUB AND CALLER EQ PUSH2 0x1E8F JUMPI PUSH1 0x40 MLOAD PUSH3 0x461BCD PUSH1 0xE5 SHL DUP2 MSTORE PUSH1 0x4 ADD PUSH2 0xA8B SWAP1 PUSH2 0x3F03 JUMP JUMPDEST DUP7 PUSH2 0x1EA9 DUP2 PUSH1 0x0 DUP1 SLOAD SWAP2 DUP2 MSTORE PUSH1 0x6 PUSH1 0x20 MSTORE PUSH1 0x40 SWAP1 KECCAK256 SLOAD GT SWAP1 JUMP JUMPDEST PUSH2 0x1EC5 JUMPI PUSH1 0x40 MLOAD PUSH3 0x461BCD PUSH1 0xE5 SHL DUP2 MSTORE PUSH1 0x4 ADD PUSH2 0xA8B SWAP1 PUSH2 0x3F1F JUMP JUMPDEST PUSH2 0x1ED3 DUP9 DUP9 DUP9 DUP9 DUP9 DUP9 PUSH2 0x3513 JUMP JUMPDEST POP POP POP POP POP POP POP POP JUMP JUMPDEST PUSH1 0x0 DUP3 DUP2 MSTORE PUSH1 0x2 PUSH1 0x20 MSTORE PUSH1 0x40 DUP2 KECCAK256 PUSH1 0x3 ADD SLOAD DUP3 LT DUP1 ISZERO SWAP1 PUSH2 0xCCF JUMPI POP POP PUSH1 0x0 SWAP2 DUP3 MSTORE PUSH1 0x6 PUSH1 0x20 MSTORE PUSH1 0x40 SWAP1 SWAP2 KECCAK256 SLOAD GT SWAP1 JUMP JUMPDEST PUSH1 0x1 PUSH1 0x1 PUSH1 0xA0 SHL SUB DUP4 AND PUSH1 0x0 SWAP1 DUP2 MSTORE PUSH1 0x8 PUSH1 0x20 MSTORE PUSH1 0x40 DUP2 KECCAK256 DUP1 SLOAD DUP5 SWAP3 SWAP1 PUSH2 0x1F36 SWAP1 DUP5 SWAP1 PUSH2 0x3E5B JUMP JUMPDEST SWAP1 SWAP2 SSTORE POP POP PUSH1 0x1 PUSH1 0x1 PUSH1 0xA0 SHL SUB DUP4 AND PUSH1 0x0 SWAP1 DUP2 MSTORE PUSH1 0x9 PUSH1 0x20 MSTORE PUSH1 0x40 DUP2 KECCAK256 DUP1 SLOAD DUP5 SWAP3 SWAP1 PUSH2 0x9CE SWAP1 DUP5 SWAP1 PUSH2 0x3E5B JUMP JUMPDEST PUSH1 0x1 DUP1 SLOAD PUSH1 0xFF AND ISZERO ISZERO EQ PUSH2 0x1F89 JUMPI PUSH1 0x40 MLOAD PUSH3 0x461BCD PUSH1 0xE5 SHL DUP2 MSTORE PUSH1 0x4 ADD PUSH2 0xA8B SWAP1 PUSH2 0x3F57 JUMP JUMPDEST DUP2 PUSH1 0x11 DUP5 PUSH1 0x40 MLOAD PUSH2 0x1F9A SWAP2 SWAP1 PUSH2 0x3ECB JUMP JUMPDEST SWAP1 DUP2 MSTORE PUSH1 0x40 MLOAD SWAP1 DUP2 SWAP1 SUB PUSH1 0x20 ADD SWAP1 KECCAK256 DUP1 SLOAD PUSH1 0xFF NOT AND PUSH1 0x1 DUP4 PUSH1 0x2 DUP2 GT ISZERO PUSH2 0x1FC3 JUMPI PUSH2 0x1FC3 PUSH2 0x3E91 JUMP JUMPDEST MUL OR SWAP1 SSTORE POP PUSH1 0x0 DUP1 MLOAD PUSH1 0x20 PUSH2 0x452A DUP4 CODECOPY DUP2 MLOAD SWAP2 MSTORE DUP4 DUP4 PUSH1 0x40 MLOAD PUSH1 0x20 ADD PUSH2 0x1FEA SWAP3 SWAP2 SWAP1 PUSH2 0x41AE JUMP JUMPDEST PUSH1 0x40 DUP1 MLOAD PUSH1 0x1F NOT DUP2 DUP5 SUB ADD DUP2 MSTORE SWAP1 DUP3 SWAP1 MSTORE PUSH2 0xA07 SWAP2 DUP5 SWAP1 PUSH2 0x41D0 JUMP JUMPDEST PUSH1 0x1 DUP1 SLOAD PUSH1 0xFF AND ISZERO ISZERO EQ PUSH2 0x202C JUMPI PUSH1 0x40 MLOAD PUSH3 0x461BCD PUSH1 0xE5 SHL DUP2 MSTORE PUSH1 0x4 ADD PUSH2 0xA8B SWAP1 PUSH2 0x3F57 JUMP JUMPDEST PUSH1 0x1 DUP1 SLOAD PUSH1 0xFF NOT AND SWAP1 SSTORE PUSH1 0x40 MLOAD PUSH1 0x1 PUSH1 0x1 PUSH1 0xA0 SHL SUB DUP3 AND DUP2 MSTORE PUSH32 0x1522879623A3943E5C352EFDF9C2ADBD7825D2A97D4680EA50466B9709785DA4 SWAP1 PUSH1 0x20 ADD PUSH1 0x40 MLOAD DUP1 SWAP2 SUB SWAP1 LOG1 POP JUMP JUMPDEST DUP1 PUSH2 0x208F DUP2 PUSH1 0x0 DUP1 SLOAD SWAP2 DUP2 MSTORE PUSH1 0x6 PUSH1 0x20 MSTORE PUSH1 0x40 SWAP1 KECCAK256 SLOAD GT SWAP1 JUMP JUMPDEST PUSH2 0x20AB JUMPI PUSH1 0x40 MLOAD PUSH3 0x461BCD PUSH1 0xE5 SHL DUP2 MSTORE PUSH1 0x4 ADD PUSH2 0xA8B SWAP1 PUSH2 0x3F1F JUMP JUMPDEST POP PUSH1 0x0 SWAP1 DUP2 MSTORE PUSH1 0x4 PUSH1 0x20 MSTORE PUSH1 0x40 SWAP1 KECCAK256 DUP1 SLOAD PUSH1 0xFF NOT AND SWAP1 SSTORE JUMP JUMPDEST PUSH1 0x0 DUP3 DUP2 MSTORE PUSH1 0x12 PUSH1 0x20 MSTORE PUSH1 0x40 SWAP1 KECCAK256 SLOAD DUP3 SWAP1 PUSH1 0xFF AND PUSH2 0x20E1 JUMPI PUSH1 0x0 DUP1 REVERT JUMPDEST PUSH1 0x1 DUP1 SLOAD PUSH1 0xFF AND ISZERO ISZERO EQ PUSH2 0x2107 JUMPI PUSH1 0x40 MLOAD PUSH3 0x461BCD PUSH1 0xE5 SHL DUP2 MSTORE PUSH1 0x4 ADD PUSH2 0xA8B SWAP1 PUSH2 0x3F57 JUMP JUMPDEST PUSH1 0x0 DUP4 DUP2 MSTORE PUSH1 0x12 PUSH1 0x20 SWAP1 DUP2 MSTORE PUSH1 0x40 DUP1 DUP4 KECCAK256 DUP1 SLOAD PUSH1 0xFF NOT AND SWAP1 SSTORE PUSH1 0x14 SWAP1 SWAP2 MSTORE SWAP1 DUP2 SWAP1 KECCAK256 SLOAD SWAP1 MLOAD PUSH1 0xE SWAP1 PUSH2 0x2138 SWAP1 PUSH2 0x3E35 JUMP JUMPDEST SWAP1 DUP2 MSTORE PUSH1 0x40 DUP1 MLOAD PUSH1 0x20 SWAP3 DUP2 SWAP1 SUB DUP4 ADD SWAP1 KECCAK256 PUSH1 0x0 DUP8 DUP2 MSTORE PUSH1 0x13 DUP5 MSTORE DUP3 DUP2 KECCAK256 PUSH1 0x1 ADD SLOAD PUSH1 0x1 PUSH1 0x1 PUSH1 0xA0 SHL SUB AND DUP2 MSTORE SWAP3 MSTORE DUP2 KECCAK256 DUP1 SLOAD SWAP1 SWAP2 SWAP1 PUSH2 0x2178 SWAP1 DUP5 SWAP1 PUSH2 0x3E5B JUMP JUMPDEST SWAP1 SWAP2 SSTORE POP POP PUSH1 0x40 DUP1 MLOAD PUSH1 0x20 DUP2 ADD DUP6 SWAP1 MSTORE PUSH1 0x0 DUP1 MLOAD PUSH1 0x20 PUSH2 0x452A DUP4 CODECOPY DUP2 MLOAD SWAP2 MSTORE SWAP2 ADD PUSH1 0x40 DUP1 MLOAD PUSH1 0x1F NOT DUP2 DUP5 SUB ADD DUP2 MSTORE SWAP1 DUP3 SWAP1 MSTORE PUSH2 0xA07 SWAP2 DUP6 SWAP1 PUSH2 0x41FC JUMP JUMPDEST PUSH1 0x1 DUP1 SLOAD PUSH1 0xFF AND ISZERO ISZERO EQ PUSH2 0x21DB JUMPI PUSH1 0x40 MLOAD PUSH3 0x461BCD PUSH1 0xE5 SHL DUP2 MSTORE PUSH1 0x4 ADD PUSH2 0xA8B SWAP1 PUSH2 0x3F57 JUMP JUMPDEST PUSH2 0x21E4 DUP4 PUSH2 0x16E3 JUMP JUMPDEST ISZERO PUSH2 0x2216 JUMPI PUSH1 0x40 MLOAD PUSH3 0x461BCD PUSH1 0xE5 SHL DUP2 MSTORE PUSH1 0x20 PUSH1 0x4 DUP3 ADD MSTORE PUSH1 0x2 PUSH1 0x24 DUP3 ADD MSTORE PUSH2 0x4145 PUSH1 0xF0 SHL PUSH1 0x44 DUP3 ADD MSTORE PUSH1 0x64 ADD PUSH2 0xA8B JUMP JUMPDEST PUSH1 0x1 PUSH1 0xF DUP5 PUSH1 0x40 MLOAD PUSH2 0x2228 SWAP2 SWAP1 PUSH2 0x3ECB JUMP JUMPDEST SWAP1 DUP2 MSTORE PUSH1 0x40 DUP1 MLOAD PUSH1 0x20 SWAP3 DUP2 SWAP1 SUB DUP4 ADD DUP2 KECCAK256 PUSH1 0x1 PUSH1 0x1 PUSH1 0xA0 SHL SUB DUP8 AND PUSH1 0x0 SWAP1 DUP2 MSTORE SWAP4 MSTORE SWAP2 KECCAK256 DUP1 SLOAD PUSH1 0xFF NOT AND SWAP3 ISZERO ISZERO SWAP3 SWAP1 SWAP3 OR SWAP1 SWAP2 SSTORE PUSH1 0x1 SWAP1 PUSH1 0xC SWAP1 PUSH2 0x226D SWAP1 DUP7 SWAP1 PUSH2 0x3ECB JUMP JUMPDEST SWAP1 DUP2 MSTORE PUSH1 0x40 MLOAD PUSH1 0x20 SWAP2 DUP2 SWAP1 SUB DUP3 ADD DUP2 KECCAK256 DUP1 SLOAD PUSH1 0xFF NOT AND SWAP4 ISZERO ISZERO SWAP4 SWAP1 SWAP4 OR SWAP1 SWAP3 SSTORE PUSH1 0x0 DUP1 MLOAD PUSH1 0x20 PUSH2 0x452A DUP4 CODECOPY DUP2 MLOAD SWAP2 MSTORE SWAP2 PUSH2 0x22AB SWAP2 DUP7 SWAP2 DUP7 SWAP2 ADD PUSH2 0x4228 JUMP JUMPDEST PUSH1 0x40 DUP1 MLOAD PUSH1 0x1F NOT DUP2 DUP5 SUB ADD DUP2 MSTORE SWAP1 DUP3 SWAP1 MSTORE PUSH2 0xA07 SWAP2 DUP5 SWAP1 PUSH2 0x4252 JUMP JUMPDEST PUSH1 0x1 DUP1 SLOAD PUSH1 0xFF AND ISZERO ISZERO EQ PUSH2 0x22ED JUMPI PUSH1 0x40 MLOAD PUSH3 0x461BCD PUSH1 0xE5 SHL DUP2 MSTORE PUSH1 0x4 ADD PUSH2 0xA8B SWAP1 PUSH2 0x3F57 JUMP JUMPDEST PUSH2 0x22F7 DUP4 DUP4 PUSH2 0x15F9 JUMP JUMPDEST PUSH2 0x2300 JUMPI PUSH1 0x0 DUP1 REVERT JUMPDEST PUSH1 0x0 PUSH1 0xF DUP5 PUSH1 0x40 MLOAD PUSH2 0x2312 SWAP2 SWAP1 PUSH2 0x3ECB JUMP JUMPDEST SWAP1 DUP2 MSTORE PUSH1 0x40 DUP1 MLOAD PUSH1 0x20 SWAP3 DUP2 SWAP1 SUB DUP4 ADD DUP2 KECCAK256 PUSH1 0x1 PUSH1 0x1 PUSH1 0xA0 SHL SUB DUP8 AND PUSH1 0x0 SWAP1 DUP2 MSTORE SWAP1 DUP5 MSTORE SWAP2 SWAP1 SWAP2 KECCAK256 DUP1 SLOAD PUSH1 0xFF NOT AND SWAP4 ISZERO ISZERO SWAP4 SWAP1 SWAP4 OR SWAP1 SWAP3 SSTORE PUSH1 0x0 DUP1 MLOAD PUSH1 0x20 PUSH2 0x452A DUP4 CODECOPY DUP2 MLOAD SWAP2 MSTORE SWAP2 PUSH2 0x2367 SWAP2 DUP7 SWAP2 DUP7 SWAP2 ADD PUSH2 0x4228 JUMP JUMPDEST PUSH1 0x40 DUP1 MLOAD PUSH1 0x1F NOT DUP2 DUP5 SUB ADD DUP2 MSTORE SWAP1 DUP3 SWAP1 MSTORE PUSH2 0xA07 SWAP2 DUP5 SWAP1 PUSH2 0x427E JUMP JUMPDEST PUSH1 0x1 PUSH1 0x1 PUSH1 0xA0 SHL SUB DUP4 AND PUSH1 0x0 SWAP1 DUP2 MSTORE PUSH1 0x8 PUSH1 0x20 MSTORE PUSH1 0x40 SWAP1 KECCAK256 SLOAD DUP3 GT ISZERO PUSH2 0x23BB JUMPI PUSH1 0x40 MLOAD PUSH3 0x461BCD PUSH1 0xE5 SHL DUP2 MSTORE PUSH1 0x4 ADD PUSH2 0xA8B SWAP1 PUSH2 0x40A1 JUMP JUMPDEST PUSH1 0x1 PUSH1 0x1 PUSH1 0xA0 SHL SUB DUP4 AND PUSH2 0x23D8 JUMPI PUSH2 0x23D3 DUP3 DUP3 PUSH2 0x3705 JUMP JUMPDEST PUSH2 0x257E JUMP JUMPDEST PUSH1 0x40 MLOAD PUSH4 0x95EA7B3 PUSH1 0xE0 SHL DUP2 MSTORE DUP4 SWAP1 PUSH1 0x1 PUSH1 0x1 PUSH1 0xA0 SHL SUB DUP3 AND SWAP1 PUSH4 0x95EA7B3 SWAP1 PUSH2 0x2408 SWAP1 DUP6 SWAP1 DUP8 SWAP1 PUSH1 0x4 ADD PUSH2 0x42AA JUMP JUMPDEST PUSH1 0x20 PUSH1 0x40 MLOAD DUP1 DUP4 SUB DUP2 PUSH1 0x0 DUP8 GAS CALL ISZERO DUP1 ISZERO PUSH2 0x2427 JUMPI RETURNDATASIZE PUSH1 0x0 DUP1 RETURNDATACOPY RETURNDATASIZE PUSH1 0x0 REVERT JUMPDEST POP POP POP POP PUSH1 0x40 MLOAD RETURNDATASIZE PUSH1 0x1F NOT PUSH1 0x1F DUP3 ADD AND DUP3 ADD DUP1 PUSH1 0x40 MSTORE POP DUP2 ADD SWAP1 PUSH2 0x244B SWAP2 SWAP1 PUSH2 0x40E1 JUMP JUMPDEST PUSH2 0x247C JUMPI PUSH1 0x40 MLOAD PUSH3 0x461BCD PUSH1 0xE5 SHL DUP2 MSTORE PUSH1 0x20 PUSH1 0x4 DUP3 ADD MSTORE PUSH1 0x2 PUSH1 0x24 DUP3 ADD MSTORE PUSH2 0x4E41 PUSH1 0xF0 SHL PUSH1 0x44 DUP3 ADD MSTORE PUSH1 0x64 ADD PUSH2 0xA8B JUMP JUMPDEST PUSH1 0x1 PUSH1 0x1 PUSH1 0xA0 SHL SUB DUP3 AND EXTCODESIZE ISZERO PUSH2 0x24EF JUMPI PUSH1 0x40 MLOAD PUSH4 0x4B91AD0F PUSH1 0xE1 SHL DUP2 MSTORE PUSH1 0x1 PUSH1 0x1 PUSH1 0xA0 SHL SUB DUP4 AND SWAP1 PUSH4 0x97235A1E SWAP1 PUSH2 0x24BA SWAP1 DUP8 SWAP1 DUP8 SWAP1 PUSH1 0x4 ADD PUSH2 0x42AA JUMP JUMPDEST PUSH1 0x0 PUSH1 0x40 MLOAD DUP1 DUP4 SUB DUP2 PUSH1 0x0 DUP8 DUP1 EXTCODESIZE ISZERO DUP1 ISZERO PUSH2 0x24D4 JUMPI PUSH1 0x0 DUP1 REVERT JUMPDEST POP GAS CALL SWAP3 POP POP POP DUP1 ISZERO PUSH2 0x24E5 JUMPI POP PUSH1 0x1 JUMPDEST ISZERO PUSH2 0x257C JUMPI PUSH2 0x257C JUMP JUMPDEST PUSH1 0x40 MLOAD PUSH4 0xA9059CBB PUSH1 0xE0 SHL DUP2 MSTORE PUSH1 0x1 PUSH1 0x1 PUSH1 0xA0 SHL SUB DUP3 AND SWAP1 PUSH4 0xA9059CBB SWAP1 PUSH2 0x251D SWAP1 DUP6 SWAP1 DUP8 SWAP1 PUSH1 0x4 ADD PUSH2 0x42AA JUMP JUMPDEST PUSH1 0x20 PUSH1 0x40 MLOAD DUP1 DUP4 SUB DUP2 PUSH1 0x0 DUP8 GAS CALL ISZERO DUP1 ISZERO PUSH2 0x253C JUMPI RETURNDATASIZE PUSH1 0x0 DUP1 RETURNDATACOPY RETURNDATASIZE PUSH1 0x0 REVERT JUMPDEST POP POP POP POP PUSH1 0x40 MLOAD RETURNDATASIZE PUSH1 0x1F NOT PUSH1 0x1F DUP3 ADD AND DUP3 ADD DUP1 PUSH1 0x40 MSTORE POP DUP2 ADD SWAP1 PUSH2 0x2560 SWAP2 SWAP1 PUSH2 0x40E1 JUMP JUMPDEST PUSH2 0x257C JUMPI PUSH1 0x40 MLOAD PUSH3 0x461BCD PUSH1 0xE5 SHL DUP2 MSTORE PUSH1 0x4 ADD PUSH2 0xA8B SWAP1 PUSH2 0x40FE JUMP JUMPDEST POP JUMPDEST PUSH1 0x1 SLOAD PUSH1 0xFF AND ISZERO PUSH2 0xA9F JUMPI PUSH2 0xA9F DUP4 DUP4 PUSH2 0x3778 JUMP JUMPDEST PUSH1 0x1 DUP1 SLOAD PUSH1 0xFF AND ISZERO ISZERO EQ PUSH2 0x25B9 JUMPI PUSH1 0x40 MLOAD PUSH3 0x461BCD PUSH1 0xE5 SHL DUP2 MSTORE PUSH1 0x4 ADD PUSH2 0xA8B SWAP1 PUSH2 0x3F57 JUMP JUMPDEST PUSH2 0x25C2 DUP3 PUSH2 0x16E3 JUMP JUMPDEST PUSH2 0x25F4 JUMPI PUSH1 0x40 MLOAD PUSH3 0x461BCD PUSH1 0xE5 SHL DUP2 MSTORE PUSH1 0x20 PUSH1 0x4 DUP3 ADD MSTORE PUSH1 0x3 PUSH1 0x24 DUP3 ADD MSTORE PUSH3 0x554221 PUSH1 0xE8 SHL PUSH1 0x44 DUP3 ADD MSTORE PUSH1 0x64 ADD PUSH2 0xA8B JUMP JUMPDEST PUSH1 0x40 DUP1 MLOAD DUP1 DUP3 ADD SWAP1 SWAP2 MSTORE PUSH1 0x4 DUP2 MSTORE PUSH4 0x36B0B4B7 PUSH1 0xE1 SHL PUSH1 0x20 SWAP2 DUP3 ADD MSTORE DUP3 MLOAD SWAP1 DUP4 ADD KECCAK256 PUSH32 0x471DFAB0756EDC981C75DD3188CCD700755407F7D3BEDF452610F7A1E240D659 ADD PUSH2 0x2669 JUMPI PUSH1 0x40 MLOAD PUSH3 0x461BCD PUSH1 0xE5 SHL DUP2 MSTORE PUSH1 0x20 PUSH1 0x4 DUP3 ADD MSTORE PUSH1 0x2 PUSH1 0x24 DUP3 ADD MSTORE PUSH2 0x26A1 PUSH1 0xF1 SHL PUSH1 0x44 DUP3 ADD MSTORE PUSH1 0x64 ADD PUSH2 0xA8B JUMP JUMPDEST PUSH2 0x2672 DUP3 PUSH2 0xB87 JUMP JUMPDEST PUSH2 0x26A3 JUMPI PUSH1 0x40 MLOAD PUSH3 0x461BCD PUSH1 0xE5 SHL DUP2 MSTORE PUSH1 0x20 PUSH1 0x4 DUP3 ADD MSTORE PUSH1 0x2 PUSH1 0x24 DUP3 ADD MSTORE PUSH2 0x4245 PUSH1 0xF0 SHL PUSH1 0x44 DUP3 ADD MSTORE PUSH1 0x64 ADD PUSH2 0xA8B JUMP JUMPDEST PUSH1 0x0 PUSH1 0xC DUP4 PUSH1 0x40 MLOAD PUSH2 0x26B5 SWAP2 SWAP1 PUSH2 0x3ECB JUMP JUMPDEST SWAP1 DUP2 MSTORE PUSH1 0x40 MLOAD PUSH1 0x20 SWAP2 DUP2 SWAP1 SUB DUP3 ADD DUP2 KECCAK256 DUP1 SLOAD PUSH1 0xFF NOT AND SWAP4 ISZERO ISZERO SWAP4 SWAP1 SWAP4 OR SWAP1 SWAP3 SSTORE PUSH1 0x0 DUP1 MLOAD PUSH1 0x20 PUSH2 0x452A DUP4 CODECOPY DUP2 MLOAD SWAP2 MSTORE SWAP2 PUSH2 0x26F1 SWAP2 DUP6 SWAP2 ADD PUSH2 0x42C3 JUMP JUMPDEST PUSH1 0x40 DUP1 MLOAD PUSH1 0x1F NOT DUP2 DUP5 SUB ADD DUP2 MSTORE SWAP1 DUP3 SWAP1 MSTORE PUSH2 0x270D SWAP2 DUP5 SWAP1 PUSH2 0x42D6 JUMP JUMPDEST PUSH1 0x40 MLOAD DUP1 SWAP2 SUB SWAP1 LOG1 POP POP JUMP JUMPDEST DUP2 PUSH2 0x2733 DUP2 PUSH1 0x0 DUP1 SLOAD SWAP2 DUP2 MSTORE PUSH1 0x6 PUSH1 0x20 MSTORE PUSH1 0x40 SWAP1 KECCAK256 SLOAD GT SWAP1 JUMP JUMPDEST PUSH2 0x274F JUMPI PUSH1 0x40 MLOAD PUSH3 0x461BCD PUSH1 0xE5 SHL DUP2 MSTORE PUSH1 0x4 ADD PUSH2 0xA8B SWAP1 PUSH2 0x3F1F JUMP JUMPDEST PUSH1 0x1 DUP1 SLOAD PUSH1 0xFF AND ISZERO ISZERO EQ PUSH2 0x2775 JUMPI PUSH1 0x40 MLOAD PUSH3 0x461BCD PUSH1 0xE5 SHL DUP2 MSTORE PUSH1 0x4 ADD PUSH2 0xA8B SWAP1 PUSH2 0x3F57 JUMP JUMPDEST PUSH1 0x0 SLOAD PUSH2 0x2781 DUP4 PUSH2 0x1E21 JUMP JUMPDEST ISZERO PUSH2 0x2816 JUMPI PUSH1 0x1 PUSH1 0x1 PUSH1 0xA0 SHL SUB DUP4 AND PUSH1 0x0 SWAP1 DUP2 MSTORE PUSH1 0x3 PUSH1 0x20 MSTORE PUSH1 0x40 SWAP1 KECCAK256 SLOAD PUSH2 0x27B6 SWAP1 DUP3 PUSH1 0x0 SWAP2 DUP3 MSTORE PUSH1 0x6 PUSH1 0x20 MSTORE PUSH1 0x40 SWAP1 SWAP2 KECCAK256 SSTORE JUMP JUMPDEST PUSH1 0x0 DUP5 DUP2 MSTORE PUSH1 0x2 PUSH1 0x20 DUP2 DUP2 MSTORE PUSH1 0x40 DUP1 DUP5 KECCAK256 DUP1 SLOAD PUSH1 0x1 SWAP2 DUP3 ADD SLOAD PUSH1 0x1 PUSH1 0x1 PUSH1 0xA0 SHL SUB DUP11 AND DUP8 MSTORE PUSH1 0x3 DUP6 MSTORE DUP4 DUP8 KECCAK256 SLOAD DUP8 MSTORE SWAP5 SWAP1 SWAP4 MSTORE SWAP1 DUP5 KECCAK256 DUP1 SLOAD SWAP2 ADD SLOAD DUP5 SWAP4 PUSH2 0x27FF SWAP4 SWAP3 SWAP1 SWAP2 PUSH2 0x37D6 JUMP JUMPDEST SWAP2 POP SWAP2 POP PUSH2 0x280F DUP3 DUP3 DUP8 DUP7 PUSH2 0x3812 JUMP JUMPDEST POP POP PUSH2 0x2838 JUMP JUMPDEST PUSH1 0x0 DUP5 DUP2 MSTORE PUSH1 0x2 PUSH1 0x20 MSTORE PUSH1 0x40 SWAP1 KECCAK256 DUP1 SLOAD PUSH1 0x1 SWAP1 SWAP2 ADD SLOAD PUSH2 0x2838 SWAP2 SWAP1 DUP6 DUP5 PUSH2 0x3812 JUMP JUMPDEST PUSH1 0x0 DUP5 DUP2 MSTORE PUSH1 0x6 PUSH1 0x20 MSTORE PUSH1 0x40 SWAP1 KECCAK256 DUP2 SWAP1 SSTORE CALLER ADDRESS EQ PUSH2 0xDC3 JUMPI PUSH1 0x0 DUP5 DUP2 MSTORE PUSH1 0x2 PUSH1 0x20 MSTORE PUSH1 0x40 SWAP1 DUP2 SWAP1 KECCAK256 SLOAD SWAP1 MLOAD PUSH32 0xE9643EF80195846C85962C67DEED262D01C3CED15D351CFCA16AC0C82DAEB1C7 SWAP2 PUSH2 0x2895 SWAP2 DUP8 SWAP2 SWAP1 DUP2 SWAP1 DUP9 SWAP1 PUSH2 0x4302 JUMP JUMPDEST PUSH1 0x40 MLOAD DUP1 SWAP2 SUB SWAP1 LOG1 POP POP POP POP JUMP JUMPDEST PUSH1 0x1 DUP1 SLOAD PUSH1 0xFF AND ISZERO ISZERO EQ PUSH2 0x28C9 JUMPI PUSH1 0x40 MLOAD PUSH3 0x461BCD PUSH1 0xE5 SHL DUP2 MSTORE PUSH1 0x4 ADD PUSH2 0xA8B SWAP1 PUSH2 0x3F57 JUMP JUMPDEST PUSH1 0x0 SLOAD PUSH1 0x40 MLOAD PUSH1 0xE SWAP1 PUSH2 0x28DD SWAP1 DUP8 SWAP1 PUSH2 0x3ECB JUMP JUMPDEST SWAP1 DUP2 MSTORE PUSH1 0x40 DUP1 MLOAD PUSH1 0x20 SWAP3 DUP2 SWAP1 SUB DUP4 ADD SWAP1 KECCAK256 PUSH1 0x1 PUSH1 0x1 PUSH1 0xA0 SHL SUB DUP8 AND PUSH1 0x0 SWAP1 DUP2 MSTORE SWAP3 MSTORE SWAP1 KECCAK256 SLOAD DUP4 GT ISZERO PUSH2 0x2921 JUMPI PUSH1 0x40 MLOAD PUSH3 0x461BCD PUSH1 0xE5 SHL DUP2 MSTORE PUSH1 0x4 ADD PUSH2 0xA8B SWAP1 PUSH2 0x4326 JUMP JUMPDEST DUP3 PUSH1 0xE DUP7 PUSH1 0x40 MLOAD PUSH2 0x2932 SWAP2 SWAP1 PUSH2 0x3ECB JUMP JUMPDEST SWAP1 DUP2 MSTORE PUSH1 0x20 ADD PUSH1 0x40 MLOAD DUP1 SWAP2 SUB SWAP1 KECCAK256 PUSH1 0x0 DUP7 PUSH1 0x1 PUSH1 0x1 PUSH1 0xA0 SHL SUB AND PUSH1 0x1 PUSH1 0x1 PUSH1 0xA0 SHL SUB AND DUP2 MSTORE PUSH1 0x20 ADD SWAP1 DUP2 MSTORE PUSH1 0x20 ADD PUSH1 0x0 KECCAK256 PUSH1 0x0 DUP3 DUP3 SLOAD PUSH2 0x2972 SWAP2 SWAP1 PUSH2 0x3FEC JUMP JUMPDEST SWAP1 SWAP2 SSTORE POP POP PUSH1 0x40 MLOAD PUSH1 0xE SWAP1 PUSH2 0x2988 SWAP1 DUP8 SWAP1 PUSH2 0x3ECB JUMP JUMPDEST SWAP1 DUP2 MSTORE PUSH1 0x40 DUP1 MLOAD PUSH1 0x20 SWAP3 DUP2 SWAP1 SUB DUP4 ADD SWAP1 KECCAK256 PUSH1 0x1 PUSH1 0x1 PUSH1 0xA0 SHL SUB DUP8 AND PUSH1 0x0 SWAP1 DUP2 MSTORE SWAP3 MSTORE SWAP1 KECCAK256 SLOAD ISZERO DUP1 ISZERO PUSH2 0x29C2 JUMPI POP PUSH1 0x1 PUSH1 0x1 PUSH1 0xA0 SHL SUB DUP5 AND ISZERO ISZERO JUMPDEST ISZERO PUSH2 0x29FC JUMPI PUSH1 0x1 PUSH1 0xD DUP7 PUSH1 0x40 MLOAD PUSH2 0x29D9 SWAP2 SWAP1 PUSH2 0x3ECB JUMP JUMPDEST SWAP1 DUP2 MSTORE PUSH1 0x20 ADD PUSH1 0x40 MLOAD DUP1 SWAP2 SUB SWAP1 KECCAK256 PUSH1 0x0 DUP3 DUP3 SLOAD PUSH2 0x29F6 SWAP2 SWAP1 PUSH2 0x3FEC JUMP JUMPDEST SWAP1 SWAP2 SSTORE POP POP JUMPDEST PUSH1 0x40 DUP1 MLOAD PUSH1 0x60 DUP2 ADD DUP3 MSTORE DUP3 DUP2 MSTORE PUSH1 0x1 PUSH1 0x1 PUSH1 0xA0 SHL SUB DUP7 DUP2 AND PUSH1 0x20 DUP1 DUP5 ADD SWAP2 DUP3 MSTORE DUP4 DUP6 ADD DUP9 DUP2 MSTORE PUSH1 0x0 DUP8 DUP2 MSTORE PUSH1 0x13 DUP4 MSTORE DUP7 DUP2 KECCAK256 SWAP6 MLOAD DUP7 SSTORE SWAP3 MLOAD PUSH1 0x1 DUP1 DUP8 ADD DUP1 SLOAD PUSH1 0x1 PUSH1 0x1 PUSH1 0xA0 SHL SUB NOT AND SWAP3 SWAP1 SWAP7 AND SWAP2 SWAP1 SWAP2 OR SWAP1 SWAP5 SSTORE MLOAD PUSH1 0x2 SWAP1 SWAP5 ADD SWAP4 SWAP1 SWAP4 SSTORE PUSH1 0x14 DUP4 MSTORE DUP4 DUP2 KECCAK256 DUP8 SWAP1 SSTORE PUSH1 0x12 DUP4 MSTORE DUP4 SWAP1 KECCAK256 DUP1 SLOAD PUSH1 0xFF NOT AND SWAP1 SWAP2 OR SWAP1 SSTORE SWAP1 MLOAD PUSH1 0x0 DUP1 MLOAD PUSH1 0x20 PUSH2 0x452A DUP4 CODECOPY DUP2 MLOAD SWAP2 MSTORE SWAP2 PUSH2 0x2A98 SWAP2 DUP9 SWAP2 DUP9 SWAP2 DUP9 SWAP2 ADD PUSH2 0x4342 JUMP JUMPDEST PUSH1 0x40 DUP1 MLOAD PUSH1 0x1F NOT DUP2 DUP5 SUB ADD DUP2 MSTORE SWAP1 DUP3 SWAP1 MSTORE PUSH2 0x2AB4 SWAP2 DUP6 SWAP1 PUSH2 0x4370 JUMP JUMPDEST PUSH1 0x40 MLOAD DUP1 SWAP2 SUB SWAP1 LOG1 POP PUSH1 0x0 DUP1 SLOAD SWAP1 DUP1 PUSH2 0x2ACC DUP4 PUSH2 0x439C JUMP JUMPDEST SWAP2 SWAP1 POP SSTORE POP POP POP POP POP JUMP JUMPDEST PUSH1 0x1 DUP1 SLOAD PUSH1 0xFF AND ISZERO ISZERO EQ PUSH2 0x2AFD JUMPI PUSH1 0x40 MLOAD PUSH3 0x461BCD PUSH1 0xE5 SHL DUP2 MSTORE PUSH1 0x4 ADD PUSH2 0xA8B SWAP1 PUSH2 0x3F57 JUMP JUMPDEST PUSH1 0xB DUP1 SLOAD PUSH1 0xFF NOT AND DUP4 ISZERO ISZERO SWAP1 DUP2 OR SWAP1 SWAP2 SSTORE PUSH1 0x40 DUP1 MLOAD PUSH1 0x20 DUP2 ADD SWAP3 SWAP1 SWAP3 MSTORE PUSH1 0x0 DUP1 MLOAD PUSH1 0x20 PUSH2 0x452A DUP4 CODECOPY DUP2 MLOAD SWAP2 MSTORE SWAP2 ADD PUSH1 0x40 DUP1 MLOAD PUSH1 0x1F NOT DUP2 DUP5 SUB ADD DUP2 MSTORE SWAP1 DUP3 SWAP1 MSTORE PUSH2 0x270D SWAP2 DUP5 SWAP1 PUSH2 0x43B5 JUMP JUMPDEST PUSH2 0x2B50 DUP3 PUSH2 0x136E JUMP JUMPDEST PUSH2 0x2B6C JUMPI PUSH1 0x40 MLOAD PUSH3 0x461BCD PUSH1 0xE5 SHL DUP2 MSTORE PUSH1 0x4 ADD PUSH2 0xA8B SWAP1 PUSH2 0x3F73 JUMP JUMPDEST PUSH1 0x1 PUSH1 0x1 PUSH1 0xA0 SHL SUB DUP3 AND PUSH1 0x0 SWAP1 DUP2 MSTORE PUSH1 0x8 PUSH1 0x20 MSTORE PUSH1 0x40 SWAP1 KECCAK256 SLOAD ISZERO PUSH2 0x2BB7 JUMPI PUSH1 0x40 MLOAD PUSH3 0x461BCD PUSH1 0xE5 SHL DUP2 MSTORE PUSH1 0x20 PUSH1 0x4 DUP3 ADD MSTORE PUSH1 0x2 PUSH1 0x24 DUP3 ADD MSTORE PUSH2 0x272D PUSH1 0xF1 SHL PUSH1 0x44 DUP3 ADD MSTORE PUSH1 0x64 ADD PUSH2 0xA8B JUMP JUMPDEST PUSH1 0x1 PUSH1 0x1 PUSH1 0xA0 SHL SUB DUP3 AND PUSH1 0x0 SWAP1 DUP2 MSTORE PUSH1 0x7 PUSH1 0x20 MSTORE PUSH1 0x40 SWAP1 DUP2 SWAP1 KECCAK256 DUP1 SLOAD PUSH1 0xFF NOT AND SWAP1 SSTORE MLOAD PUSH32 0xB178D00E152D646A7476FBA94E5BCA377176CCB09A1C1569ECE19824D228D0A8 SWAP1 PUSH2 0x270D SWAP1 DUP5 SWAP1 DUP5 SWAP1 PUSH2 0x406E JUMP JUMPDEST PUSH2 0x2C12 DUP3 PUSH2 0x136E JUMP JUMPDEST ISZERO PUSH2 0x2C44 JUMPI PUSH1 0x40 MLOAD PUSH3 0x461BCD PUSH1 0xE5 SHL DUP2 MSTORE PUSH1 0x20 PUSH1 0x4 DUP3 ADD MSTORE PUSH1 0x2 PUSH1 0x24 DUP3 ADD MSTORE PUSH2 0x20A9 PUSH1 0xF1 SHL PUSH1 0x44 DUP3 ADD MSTORE PUSH1 0x64 ADD PUSH2 0xA8B JUMP JUMPDEST PUSH1 0x1 PUSH1 0x1 PUSH1 0xA0 SHL SUB DUP3 AND PUSH1 0x0 SWAP1 DUP2 MSTORE PUSH1 0x7 PUSH1 0x20 MSTORE PUSH1 0x40 SWAP1 DUP2 SWAP1 KECCAK256 DUP1 SLOAD PUSH1 0xFF NOT AND PUSH1 0x1 OR SWAP1 SSTORE MLOAD PUSH32 0x487C37289624C10056468F1F98EBFFBAD01EDCE11374975179672E32E2543BF0 SWAP1 PUSH2 0x270D SWAP1 DUP5 SWAP1 DUP5 SWAP1 PUSH2 0x406E JUMP JUMPDEST DUP4 PUSH2 0x2CB3 DUP2 PUSH1 0x0 DUP1 SLOAD SWAP2 DUP2 MSTORE PUSH1 0x6 PUSH1 0x20 MSTORE PUSH1 0x40 SWAP1 KECCAK256 SLOAD GT SWAP1 JUMP JUMPDEST PUSH2 0x2CCF JUMPI PUSH1 0x40 MLOAD PUSH3 0x461BCD PUSH1 0xE5 SHL DUP2 MSTORE PUSH1 0x4 ADD PUSH2 0xA8B SWAP1 PUSH2 0x3F1F JUMP JUMPDEST PUSH1 0x1 DUP1 SLOAD PUSH1 0xFF AND ISZERO ISZERO EQ PUSH2 0x2CF5 JUMPI PUSH1 0x40 MLOAD PUSH3 0x461BCD PUSH1 0xE5 SHL DUP2 MSTORE PUSH1 0x4 ADD PUSH2 0xA8B SWAP1 PUSH2 0x3F57 JUMP JUMPDEST PUSH1 0x0 DUP6 DUP2 MSTORE PUSH1 0x2 PUSH1 0x20 MSTORE PUSH1 0x40 SWAP1 KECCAK256 PUSH1 0x1 DUP2 ADD SLOAD SWAP1 SLOAD PUSH2 0x2D14 SWAP2 SWAP1 PUSH2 0x3FD8 JUMP JUMPDEST PUSH2 0x2D1E DUP5 DUP7 PUSH2 0x3FD8 JUMP JUMPDEST LT PUSH2 0x2D3B JUMPI PUSH1 0x40 MLOAD PUSH3 0x461BCD PUSH1 0xE5 SHL DUP2 MSTORE PUSH1 0x4 ADD PUSH2 0xA8B SWAP1 PUSH2 0x4326 JUMP JUMPDEST PUSH1 0x0 SLOAD PUSH2 0x2D47 DUP4 PUSH2 0x1E21 JUMP JUMPDEST ISZERO PUSH2 0x2DCD JUMPI PUSH1 0x1 PUSH1 0x1 PUSH1 0xA0 SHL SUB DUP4 AND PUSH1 0x0 SWAP1 DUP2 MSTORE PUSH1 0x3 PUSH1 0x20 SWAP1 DUP2 MSTORE PUSH1 0x40 DUP1 DUP4 KECCAK256 SLOAD DUP4 MSTORE PUSH1 0x2 SWAP1 SWAP2 MSTORE DUP2 KECCAK256 DUP1 SLOAD PUSH1 0x1 SWAP1 SWAP2 ADD SLOAD DUP3 SWAP2 PUSH2 0x2D86 SWAP2 DUP10 DUP10 PUSH2 0x37D6 JUMP JUMPDEST SWAP2 POP SWAP2 POP PUSH2 0x2D96 DUP3 DUP3 DUP8 DUP7 PUSH2 0x3812 JUMP JUMPDEST PUSH1 0x1 PUSH1 0x1 PUSH1 0xA0 SHL SUB DUP6 AND PUSH1 0x0 SWAP1 DUP2 MSTORE PUSH1 0x3 PUSH1 0x20 MSTORE PUSH1 0x40 SWAP1 KECCAK256 SLOAD PUSH2 0x2DC6 SWAP1 DUP5 PUSH1 0x0 SWAP2 DUP3 MSTORE PUSH1 0x6 PUSH1 0x20 MSTORE PUSH1 0x40 SWAP1 SWAP2 KECCAK256 SSTORE JUMP JUMPDEST POP POP PUSH2 0x2DD9 JUMP JUMPDEST PUSH2 0x2DD9 DUP6 DUP6 DUP6 DUP5 PUSH2 0x3812 JUMP JUMPDEST PUSH1 0x0 DUP7 DUP2 MSTORE PUSH1 0x6 PUSH1 0x20 SWAP1 DUP2 MSTORE PUSH1 0x40 DUP1 DUP4 KECCAK256 DUP5 SWAP1 SSTORE PUSH1 0x2 SWAP1 SWAP2 MSTORE DUP2 KECCAK256 DUP1 SLOAD PUSH1 0x1 SWAP1 SWAP2 ADD SLOAD DUP3 SWAP2 PUSH2 0x2E09 SWAP2 DUP10 DUP10 PUSH2 0x38D4 JUMP JUMPDEST PUSH1 0x0 DUP11 DUP2 MSTORE PUSH1 0x2 PUSH1 0x20 DUP2 SWAP1 MSTORE PUSH1 0x40 SWAP1 SWAP2 KECCAK256 ADD SLOAD SWAP2 SWAP4 POP SWAP2 POP PUSH2 0x2E38 SWAP1 DUP4 SWAP1 DUP4 SWAP1 PUSH1 0x1 PUSH1 0x1 PUSH1 0xA0 SHL SUB AND DUP7 PUSH2 0x3812 JUMP JUMPDEST CALLER ADDRESS EQ PUSH2 0x1ED3 JUMPI PUSH32 0xE9643EF80195846C85962C67DEED262D01C3CED15D351CFCA16AC0C82DAEB1C7 DUP9 DUP9 DUP9 DUP9 PUSH1 0x40 MLOAD PUSH2 0x2E74 SWAP5 SWAP4 SWAP3 SWAP2 SWAP1 PUSH2 0x4302 JUMP JUMPDEST PUSH1 0x40 MLOAD DUP1 SWAP2 SUB SWAP1 LOG1 POP POP POP POP POP POP POP POP JUMP JUMPDEST DUP4 PUSH2 0x2E90 DUP2 PUSH2 0x16E3 JUMP JUMPDEST PUSH2 0x2EC2 JUMPI PUSH1 0x40 MLOAD PUSH3 0x461BCD PUSH1 0xE5 SHL DUP2 MSTORE PUSH1 0x20 PUSH1 0x4 DUP3 ADD MSTORE PUSH1 0x3 PUSH1 0x24 DUP3 ADD MSTORE PUSH3 0x444E45 PUSH1 0xE8 SHL PUSH1 0x44 DUP3 ADD MSTORE PUSH1 0x64 ADD PUSH2 0xA8B JUMP JUMPDEST PUSH1 0x1 DUP1 SLOAD PUSH1 0xFF AND ISZERO ISZERO EQ PUSH2 0x2EE8 JUMPI PUSH1 0x40 MLOAD PUSH3 0x461BCD PUSH1 0xE5 SHL DUP2 MSTORE PUSH1 0x4 ADD PUSH2 0xA8B SWAP1 PUSH2 0x3F57 JUMP JUMPDEST PUSH1 0xE DUP7 PUSH1 0x40 MLOAD PUSH2 0x2EF8 SWAP2 SWAP1 PUSH2 0x3ECB JUMP JUMPDEST SWAP1 DUP2 MSTORE PUSH1 0x40 DUP1 MLOAD PUSH1 0x20 SWAP3 DUP2 SWAP1 SUB DUP4 ADD SWAP1 KECCAK256 PUSH1 0x1 PUSH1 0x1 PUSH1 0xA0 SHL SUB DUP8 AND PUSH1 0x0 SWAP1 DUP2 MSTORE SWAP3 MSTORE SWAP1 KECCAK256 SLOAD DUP4 GT ISZERO PUSH2 0x2F3C JUMPI PUSH1 0x40 MLOAD PUSH3 0x461BCD PUSH1 0xE5 SHL DUP2 MSTORE PUSH1 0x4 ADD PUSH2 0xA8B SWAP1 PUSH2 0x4326 JUMP JUMPDEST DUP3 PUSH1 0xE DUP8 PUSH1 0x40 MLOAD PUSH2 0x2F4D SWAP2 SWAP1 PUSH2 0x3ECB JUMP JUMPDEST SWAP1 DUP2 MSTORE PUSH1 0x20 ADD PUSH1 0x40 MLOAD DUP1 SWAP2 SUB SWAP1 KECCAK256 PUSH1 0x0 DUP7 PUSH1 0x1 PUSH1 0x1 PUSH1 0xA0 SHL SUB AND PUSH1 0x1 PUSH1 0x1 PUSH1 0xA0 SHL SUB AND DUP2 MSTORE PUSH1 0x20 ADD SWAP1 DUP2 MSTORE PUSH1 0x20 ADD PUSH1 0x0 KECCAK256 PUSH1 0x0 DUP3 DUP3 SLOAD PUSH2 0x2F8D SWAP2 SWAP1 PUSH2 0x3FEC JUMP JUMPDEST SWAP1 SWAP2 SSTORE POP POP PUSH1 0x1 PUSH1 0x1 PUSH1 0xA0 SHL SUB DUP5 AND ISZERO PUSH2 0x3081 JUMPI PUSH1 0xE DUP7 PUSH1 0x40 MLOAD PUSH2 0x2FB1 SWAP2 SWAP1 PUSH2 0x3ECB JUMP JUMPDEST SWAP1 DUP2 MSTORE PUSH1 0x40 DUP1 MLOAD PUSH1 0x20 SWAP3 DUP2 SWAP1 SUB DUP4 ADD SWAP1 KECCAK256 PUSH1 0x1 PUSH1 0x1 PUSH1 0xA0 SHL SUB DUP8 AND PUSH1 0x0 SWAP1 DUP2 MSTORE SWAP3 MSTORE DUP2 KECCAK256 SLOAD SWAP1 SUB PUSH2 0x3011 JUMPI PUSH1 0x1 PUSH1 0xD DUP8 PUSH1 0x40 MLOAD PUSH2 0x2FEE SWAP2 SWAP1 PUSH2 0x3ECB JUMP JUMPDEST SWAP1 DUP2 MSTORE PUSH1 0x20 ADD PUSH1 0x40 MLOAD DUP1 SWAP2 SUB SWAP1 KECCAK256 PUSH1 0x0 DUP3 DUP3 SLOAD PUSH2 0x300B SWAP2 SWAP1 PUSH2 0x3FEC JUMP JUMPDEST SWAP1 SWAP2 SSTORE POP POP JUMPDEST PUSH1 0xE DUP6 PUSH1 0x40 MLOAD PUSH2 0x3021 SWAP2 SWAP1 PUSH2 0x3ECB JUMP JUMPDEST SWAP1 DUP2 MSTORE PUSH1 0x40 DUP1 MLOAD PUSH1 0x20 SWAP3 DUP2 SWAP1 SUB DUP4 ADD SWAP1 KECCAK256 PUSH1 0x1 PUSH1 0x1 PUSH1 0xA0 SHL SUB DUP8 AND PUSH1 0x0 SWAP1 DUP2 MSTORE SWAP3 MSTORE DUP2 KECCAK256 SLOAD SWAP1 SUB PUSH2 0x3081 JUMPI PUSH1 0x1 PUSH1 0xD DUP7 PUSH1 0x40 MLOAD PUSH2 0x305E SWAP2 SWAP1 PUSH2 0x3ECB JUMP JUMPDEST SWAP1 DUP2 MSTORE PUSH1 0x20 ADD PUSH1 0x40 MLOAD DUP1 SWAP2 SUB SWAP1 KECCAK256 PUSH1 0x0 DUP3 DUP3 SLOAD PUSH2 0x307B SWAP2 SWAP1 PUSH2 0x3E5B JUMP JUMPDEST SWAP1 SWAP2 SSTORE POP POP JUMPDEST DUP3 PUSH1 0xE DUP7 PUSH1 0x40 MLOAD PUSH2 0x3092 SWAP2 SWAP1 PUSH2 0x3ECB JUMP JUMPDEST SWAP1 DUP2 MSTORE PUSH1 0x20 ADD PUSH1 0x40 MLOAD DUP1 SWAP2 SUB SWAP1 KECCAK256 PUSH1 0x0 DUP7 PUSH1 0x1 PUSH1 0x1 PUSH1 0xA0 SHL SUB AND PUSH1 0x1 PUSH1 0x1 PUSH1 0xA0 SHL SUB AND DUP2 MSTORE PUSH1 0x20 ADD SWAP1 DUP2 MSTORE PUSH1 0x20 ADD PUSH1 0x0 KECCAK256 PUSH1 0x0 DUP3 DUP3 SLOAD PUSH2 0x30D2 SWAP2 SWAP1 PUSH2 0x3E5B JUMP JUMPDEST SWAP1 SWAP2 SSTORE POP POP PUSH1 0x40 MLOAD PUSH1 0x0 DUP1 MLOAD PUSH1 0x20 PUSH2 0x452A DUP4 CODECOPY DUP2 MLOAD SWAP2 MSTORE SWAP1 PUSH2 0x30FE SWAP1 DUP9 SWAP1 DUP9 SWAP1 DUP9 SWAP1 DUP9 SWAP1 PUSH1 0x20 ADD PUSH2 0x43E2 JUMP JUMPDEST PUSH1 0x40 DUP1 MLOAD PUSH1 0x1F NOT DUP2 DUP5 SUB ADD DUP2 MSTORE SWAP1 DUP3 SWAP1 MSTORE PUSH2 0x311A SWAP2 DUP6 SWAP1 PUSH2 0x4424 JUMP JUMPDEST PUSH1 0x40 MLOAD DUP1 SWAP2 SUB SWAP1 LOG1 POP POP POP POP POP POP JUMP JUMPDEST PUSH1 0x1 DUP1 SLOAD PUSH1 0xFF AND ISZERO ISZERO EQ PUSH2 0x3150 JUMPI PUSH1 0x40 MLOAD PUSH3 0x461BCD PUSH1 0xE5 SHL DUP2 MSTORE PUSH1 0x4 ADD PUSH2 0xA8B SWAP1 PUSH2 0x3F57 JUMP JUMPDEST PUSH2 0x3174 PUSH1 0x40 MLOAD DUP1 PUSH1 0x40 ADD PUSH1 0x40 MSTORE DUP1 PUSH1 0x2 DUP2 MSTORE PUSH1 0x20 ADD PUSH2 0x36A1 PUSH1 0xF1 SHL DUP2 MSTORE POP DUP4 PUSH2 0x1D4A JUMP JUMPDEST PUSH2 0x31A5 JUMPI PUSH1 0x40 MLOAD PUSH3 0x461BCD PUSH1 0xE5 SHL DUP2 MSTORE PUSH1 0x20 PUSH1 0x4 DUP3 ADD MSTORE PUSH1 0x2 PUSH1 0x24 DUP3 ADD MSTORE PUSH2 0x4E5 PUSH1 0xF4 SHL PUSH1 0x44 DUP3 ADD MSTORE PUSH1 0x64 ADD PUSH2 0xA8B JUMP JUMPDEST PUSH1 0x1 PUSH1 0xF DUP5 PUSH1 0x40 MLOAD PUSH2 0x31B7 SWAP2 SWAP1 PUSH2 0x3ECB JUMP JUMPDEST SWAP1 DUP2 MSTORE PUSH1 0x40 DUP1 MLOAD PUSH1 0x20 SWAP3 DUP2 SWAP1 SUB DUP4 ADD DUP2 KECCAK256 PUSH1 0x1 PUSH1 0x1 PUSH1 0xA0 SHL SUB DUP8 AND PUSH1 0x0 SWAP1 DUP2 MSTORE SWAP1 DUP5 MSTORE SWAP2 SWAP1 SWAP2 KECCAK256 DUP1 SLOAD PUSH1 0xFF NOT AND SWAP4 ISZERO ISZERO SWAP4 SWAP1 SWAP4 OR SWAP1 SWAP3 SSTORE PUSH1 0x0 DUP1 MLOAD PUSH1 0x20 PUSH2 0x452A DUP4 CODECOPY DUP2 MLOAD SWAP2 MSTORE SWAP2 PUSH2 0x320C SWAP2 DUP7 SWAP2 DUP7 SWAP2 ADD PUSH2 0x4228 JUMP JUMPDEST PUSH1 0x40 DUP1 MLOAD PUSH1 0x1F NOT DUP2 DUP5 SUB ADD DUP2 MSTORE SWAP1 DUP3 SWAP1 MSTORE PUSH2 0xA07 SWAP2 DUP5 SWAP1 PUSH2 0x4450 JUMP JUMPDEST PUSH1 0x1 DUP1 SLOAD PUSH1 0xFF AND ISZERO ISZERO EQ PUSH2 0x324E JUMPI PUSH1 0x40 MLOAD PUSH3 0x461BCD PUSH1 0xE5 SHL DUP2 MSTORE PUSH1 0x4 ADD PUSH2 0xA8B SWAP1 PUSH2 0x3F57 JUMP JUMPDEST DUP2 PUSH1 0x10 DUP6 PUSH1 0x40 MLOAD PUSH2 0x325F SWAP2 SWAP1 PUSH2 0x3ECB JUMP JUMPDEST SWAP1 DUP2 MSTORE PUSH1 0x40 DUP1 MLOAD PUSH1 0x20 SWAP3 DUP2 SWAP1 SUB DUP4 ADD SWAP1 KECCAK256 PUSH1 0x1 PUSH1 0x1 PUSH1 0xA0 SHL SUB DUP8 AND PUSH1 0x0 SWAP1 DUP2 MSTORE SWAP3 MSTORE SWAP1 KECCAK256 DUP1 SLOAD PUSH1 0xFF NOT AND PUSH1 0x1 DUP4 PUSH1 0x2 DUP2 GT ISZERO PUSH2 0x329D JUMPI PUSH2 0x329D PUSH2 0x3E91 JUMP JUMPDEST MUL OR SWAP1 SSTORE POP PUSH1 0x0 DUP1 MLOAD PUSH1 0x20 PUSH2 0x452A DUP4 CODECOPY DUP2 MLOAD SWAP2 MSTORE DUP5 DUP5 DUP5 PUSH1 0x40 MLOAD PUSH1 0x20 ADD PUSH2 0x32C6 SWAP4 SWAP3 SWAP2 SWAP1 PUSH2 0x447C JUMP JUMPDEST PUSH1 0x40 DUP1 MLOAD PUSH1 0x1F NOT DUP2 DUP5 SUB ADD DUP2 MSTORE SWAP1 DUP3 SWAP1 MSTORE PUSH2 0x2895 SWAP2 DUP5 SWAP1 PUSH2 0x41D0 JUMP JUMPDEST PUSH1 0x0 DUP1 PUSH1 0x0 DUP5 DUP5 GT PUSH2 0x32F3 JUMPI PUSH1 0x0 DUP1 REVERT JUMPDEST PUSH1 0x0 DUP5 PUSH2 0x3300 DUP8 DUP10 PUSH2 0x3FAB JUMP JUMPDEST PUSH2 0x330A SWAP2 SWAP1 PUSH2 0x3FD8 JUMP JUMPDEST SWAP1 POP PUSH1 0x0 DUP6 PUSH2 0x3319 DUP9 DUP3 PUSH2 0x3FEC JUMP JUMPDEST PUSH2 0x3323 SWAP1 DUP11 PUSH2 0x3FAB JUMP JUMPDEST PUSH2 0x332D SWAP2 SWAP1 PUSH2 0x3FD8 JUMP JUMPDEST SWAP1 POP DUP2 DUP2 PUSH2 0x333B DUP2 DUP4 PUSH2 0x3E5B JUMP JUMPDEST PUSH2 0x3345 SWAP1 DUP12 PUSH2 0x3FEC JUMP JUMPDEST SWAP5 POP SWAP5 POP SWAP5 POP POP POP SWAP4 POP SWAP4 POP SWAP4 SWAP1 POP JUMP JUMPDEST PUSH1 0x0 DUP3 DUP6 EQ DUP1 ISZERO PUSH2 0x3366 JUMPI POP DUP2 DUP5 EQ JUMPDEST SWAP1 POP JUMPDEST SWAP5 SWAP4 POP POP POP POP JUMP JUMPDEST PUSH1 0x1 DUP1 SLOAD PUSH1 0xFF AND ISZERO ISZERO EQ PUSH2 0x3397 JUMPI PUSH1 0x40 MLOAD PUSH3 0x461BCD PUSH1 0xE5 SHL DUP2 MSTORE PUSH1 0x4 ADD PUSH2 0xA8B SWAP1 PUSH2 0x3F57 JUMP JUMPDEST PUSH1 0xE DUP6 PUSH1 0x40 MLOAD PUSH2 0x33A7 SWAP2 SWAP1 PUSH2 0x3ECB JUMP JUMPDEST SWAP1 DUP2 MSTORE PUSH1 0x40 DUP1 MLOAD PUSH1 0x20 SWAP3 DUP2 SWAP1 SUB DUP4 ADD SWAP1 KECCAK256 PUSH1 0x1 PUSH1 0x1 PUSH1 0xA0 SHL SUB DUP8 AND PUSH1 0x0 SWAP1 DUP2 MSTORE SWAP3 MSTORE SWAP1 KECCAK256 SLOAD DUP4 GT ISZERO PUSH2 0x33EB JUMPI PUSH1 0x40 MLOAD PUSH3 0x461BCD PUSH1 0xE5 SHL DUP2 MSTORE PUSH1 0x4 ADD PUSH2 0xA8B SWAP1 PUSH2 0x4326 JUMP JUMPDEST PUSH2 0x33F6 DUP5 DUP5 DUP5 PUSH2 0x2383 JUMP JUMPDEST DUP3 PUSH1 0xE DUP7 PUSH1 0x40 MLOAD PUSH2 0x3407 SWAP2 SWAP1 PUSH2 0x3ECB JUMP JUMPDEST SWAP1 DUP2 MSTORE PUSH1 0x20 ADD PUSH1 0x40 MLOAD DUP1 SWAP2 SUB SWAP1 KECCAK256 PUSH1 0x0 DUP7 PUSH1 0x1 PUSH1 0x1 PUSH1 0xA0 SHL SUB AND PUSH1 0x1 PUSH1 0x1 PUSH1 0xA0 SHL SUB AND DUP2 MSTORE PUSH1 0x20 ADD SWAP1 DUP2 MSTORE PUSH1 0x20 ADD PUSH1 0x0 KECCAK256 PUSH1 0x0 DUP3 DUP3 SLOAD PUSH2 0x3447 SWAP2 SWAP1 PUSH2 0x3FEC JUMP JUMPDEST SWAP1 SWAP2 SSTORE POP POP PUSH1 0x40 MLOAD PUSH1 0xE SWAP1 PUSH2 0x345D SWAP1 DUP8 SWAP1 PUSH2 0x3ECB JUMP JUMPDEST SWAP1 DUP2 MSTORE PUSH1 0x40 DUP1 MLOAD PUSH1 0x20 SWAP3 DUP2 SWAP1 SUB DUP4 ADD SWAP1 KECCAK256 PUSH1 0x1 PUSH1 0x1 PUSH1 0xA0 SHL SUB DUP8 AND PUSH1 0x0 SWAP1 DUP2 MSTORE SWAP3 MSTORE SWAP1 KECCAK256 SLOAD ISZERO DUP1 ISZERO PUSH2 0x3497 JUMPI POP PUSH1 0x1 PUSH1 0x1 PUSH1 0xA0 SHL SUB DUP5 AND ISZERO ISZERO JUMPDEST ISZERO PUSH2 0x34D1 JUMPI PUSH1 0x1 PUSH1 0xD DUP7 PUSH1 0x40 MLOAD PUSH2 0x34AE SWAP2 SWAP1 PUSH2 0x3ECB JUMP JUMPDEST SWAP1 DUP2 MSTORE PUSH1 0x20 ADD PUSH1 0x40 MLOAD DUP1 SWAP2 SUB SWAP1 KECCAK256 PUSH1 0x0 DUP3 DUP3 SLOAD PUSH2 0x34CB SWAP2 SWAP1 PUSH2 0x3FEC JUMP JUMPDEST SWAP1 SWAP2 SSTORE POP POP JUMPDEST PUSH1 0x0 DUP1 MLOAD PUSH1 0x20 PUSH2 0x452A DUP4 CODECOPY DUP2 MLOAD SWAP2 MSTORE DUP6 DUP6 DUP6 DUP6 PUSH1 0x40 MLOAD PUSH1 0x20 ADD PUSH2 0x34F7 SWAP5 SWAP4 SWAP3 SWAP2 SWAP1 PUSH2 0x44AD JUMP JUMPDEST PUSH1 0x40 DUP1 MLOAD PUSH1 0x1F NOT DUP2 DUP5 SUB ADD DUP2 MSTORE SWAP1 DUP3 SWAP1 MSTORE PUSH2 0x1180 SWAP2 DUP5 SWAP1 PUSH2 0x44E9 JUMP JUMPDEST DUP6 PUSH2 0x352D DUP2 PUSH1 0x0 DUP1 SLOAD SWAP2 DUP2 MSTORE PUSH1 0x6 PUSH1 0x20 MSTORE PUSH1 0x40 SWAP1 KECCAK256 SLOAD GT SWAP1 JUMP JUMPDEST PUSH2 0x3549 JUMPI PUSH1 0x40 MLOAD PUSH3 0x461BCD PUSH1 0xE5 SHL DUP2 MSTORE PUSH1 0x4 ADD PUSH2 0xA8B SWAP1 PUSH2 0x3F1F JUMP JUMPDEST PUSH1 0x1 DUP1 SLOAD PUSH1 0xFF AND ISZERO ISZERO EQ PUSH2 0x356F JUMPI PUSH1 0x40 MLOAD PUSH3 0x461BCD PUSH1 0xE5 SHL DUP2 MSTORE PUSH1 0x4 ADD PUSH2 0xA8B SWAP1 PUSH2 0x3F57 JUMP JUMPDEST PUSH1 0x0 DUP8 DUP2 MSTORE PUSH1 0x2 PUSH1 0x20 MSTORE PUSH1 0x40 SWAP1 KECCAK256 PUSH1 0x1 DUP2 ADD SLOAD SWAP1 SLOAD PUSH2 0x358E SWAP2 SWAP1 PUSH2 0x3FD8 JUMP JUMPDEST PUSH2 0x3598 DUP7 DUP9 PUSH2 0x3FD8 JUMP JUMPDEST GT ISZERO PUSH2 0x35B6 JUMPI PUSH1 0x40 MLOAD PUSH3 0x461BCD PUSH1 0xE5 SHL DUP2 MSTORE PUSH1 0x4 ADD PUSH2 0xA8B SWAP1 PUSH2 0x4326 JUMP JUMPDEST PUSH2 0x35C0 DUP7 DUP7 PUSH2 0x3903 JUMP JUMPDEST DUP1 SWAP7 POP DUP2 SWAP8 POP POP POP PUSH1 0x40 MLOAD DUP1 PUSH1 0xA0 ADD PUSH1 0x40 MSTORE DUP1 DUP8 DUP2 MSTORE PUSH1 0x20 ADD DUP7 DUP2 MSTORE PUSH1 0x20 ADD DUP6 PUSH1 0x1 PUSH1 0x1 PUSH1 0xA0 SHL SUB AND DUP2 MSTORE PUSH1 0x20 ADD DUP5 DUP2 MSTORE PUSH1 0x20 ADD DUP4 PUSH1 0x1 PUSH1 0x1 PUSH1 0xA0 SHL SUB AND DUP2 MSTORE POP PUSH1 0x5 PUSH1 0x0 DUP10 DUP2 MSTORE PUSH1 0x20 ADD SWAP1 DUP2 MSTORE PUSH1 0x20 ADD PUSH1 0x0 KECCAK256 PUSH1 0x0 DUP3 ADD MLOAD DUP2 PUSH1 0x0 ADD SSTORE PUSH1 0x20 DUP3 ADD MLOAD DUP2 PUSH1 0x1 ADD SSTORE PUSH1 0x40 DUP3 ADD MLOAD DUP2 PUSH1 0x2 ADD PUSH1 0x0 PUSH2 0x100 EXP DUP2 SLOAD DUP2 PUSH1 0x1 PUSH1 0x1 PUSH1 0xA0 SHL SUB MUL NOT AND SWAP1 DUP4 PUSH1 0x1 PUSH1 0x1 PUSH1 0xA0 SHL SUB AND MUL OR SWAP1 SSTORE POP PUSH1 0x60 DUP3 ADD MLOAD DUP2 PUSH1 0x3 ADD SSTORE PUSH1 0x80 DUP3 ADD MLOAD DUP2 PUSH1 0x4 ADD PUSH1 0x0 PUSH2 0x100 EXP DUP2 SLOAD DUP2 PUSH1 0x1 PUSH1 0x1 PUSH1 0xA0 SHL SUB MUL NOT AND SWAP1 DUP4 PUSH1 0x1 PUSH1 0x1 PUSH1 0xA0 SHL SUB AND MUL OR SWAP1 SSTORE POP SWAP1 POP POP PUSH1 0x1 PUSH1 0x4 PUSH1 0x0 DUP10 DUP2 MSTORE PUSH1 0x20 ADD SWAP1 DUP2 MSTORE PUSH1 0x20 ADD PUSH1 0x0 KECCAK256 PUSH1 0x0 PUSH2 0x100 EXP DUP2 SLOAD DUP2 PUSH1 0xFF MUL NOT AND SWAP1 DUP4 ISZERO ISZERO MUL OR SWAP1 SSTORE POP PUSH32 0x4C4DCD7B4186FE1C900D89BC3C911766F63CF9C3570750481F0D89BFBCB75285 DUP8 DUP8 DUP8 DUP8 DUP8 DUP8 PUSH1 0x40 MLOAD PUSH2 0x36F4 SWAP7 SWAP6 SWAP5 SWAP4 SWAP3 SWAP2 SWAP1 PUSH2 0x4155 JUMP JUMPDEST PUSH1 0x40 MLOAD DUP1 SWAP2 SUB SWAP1 LOG1 POP POP POP POP POP POP POP JUMP JUMPDEST PUSH1 0x0 DUP2 PUSH1 0x1 PUSH1 0x1 PUSH1 0xA0 SHL SUB AND DUP4 PUSH1 0x40 MLOAD PUSH1 0x0 PUSH1 0x40 MLOAD DUP1 DUP4 SUB DUP2 DUP6 DUP8 GAS CALL SWAP3 POP POP POP RETURNDATASIZE DUP1 PUSH1 0x0 DUP2 EQ PUSH2 0x3752 JUMPI PUSH1 0x40 MLOAD SWAP2 POP PUSH1 0x1F NOT PUSH1 0x3F RETURNDATASIZE ADD AND DUP3 ADD PUSH1 0x40 MSTORE RETURNDATASIZE DUP3 MSTORE RETURNDATASIZE PUSH1 0x0 PUSH1 0x20 DUP5 ADD RETURNDATACOPY PUSH2 0x3757 JUMP JUMPDEST PUSH1 0x60 SWAP2 POP JUMPDEST POP POP SWAP1 POP DUP1 PUSH2 0xA9F JUMPI PUSH1 0x40 MLOAD PUSH3 0x461BCD PUSH1 0xE5 SHL DUP2 MSTORE PUSH1 0x4 ADD PUSH2 0xA8B SWAP1 PUSH2 0x4139 JUMP JUMPDEST PUSH1 0x1 PUSH1 0x1 PUSH1 0xA0 SHL SUB DUP3 AND PUSH1 0x0 SWAP1 DUP2 MSTORE PUSH1 0x8 PUSH1 0x20 MSTORE PUSH1 0x40 DUP2 KECCAK256 DUP1 SLOAD DUP4 SWAP3 SWAP1 PUSH2 0x37A0 SWAP1 DUP5 SWAP1 PUSH2 0x3FEC JUMP JUMPDEST SWAP1 SWAP2 SSTORE POP POP PUSH1 0x1 PUSH1 0x1 PUSH1 0xA0 SHL SUB DUP3 AND PUSH1 0x0 SWAP1 DUP2 MSTORE PUSH1 0x9 PUSH1 0x20 MSTORE PUSH1 0x40 DUP2 KECCAK256 DUP1 SLOAD DUP4 SWAP3 SWAP1 PUSH2 0x37CD SWAP1 DUP5 SWAP1 PUSH2 0x3FEC JUMP JUMPDEST SWAP1 SWAP2 SSTORE POP POP POP POP JUMP JUMPDEST PUSH1 0x0 DUP1 PUSH2 0x37E3 DUP4 DUP8 PUSH2 0x3FAB JUMP JUMPDEST SWAP6 POP PUSH2 0x37EF DUP6 DUP6 PUSH2 0x3FAB JUMP JUMPDEST SWAP4 POP PUSH2 0x37FB DUP5 DUP8 PUSH2 0x3E5B JUMP JUMPDEST PUSH2 0x3805 DUP5 DUP8 PUSH2 0x3FAB JUMP JUMPDEST SWAP2 POP SWAP2 POP SWAP5 POP SWAP5 SWAP3 POP POP POP JUMP JUMPDEST PUSH1 0x40 MLOAD PUSH12 0xFFFFFFFFFFFFFFFFFFFFFFFF NOT PUSH1 0x60 DUP5 SWAP1 SHL AND PUSH1 0x20 DUP3 ADD MSTORE PUSH1 0x34 DUP2 ADD DUP3 SWAP1 MSTORE PUSH1 0x0 SWAP1 PUSH1 0x54 ADD PUSH1 0x40 DUP1 MLOAD DUP1 DUP4 SUB PUSH1 0x1F NOT ADD DUP2 MSTORE DUP3 DUP3 MSTORE DUP1 MLOAD PUSH1 0x20 SWAP2 DUP3 ADD KECCAK256 PUSH1 0x1 PUSH1 0x1 PUSH1 0xA0 SHL SUB SWAP7 DUP8 AND PUSH1 0x0 DUP2 DUP2 MSTORE PUSH1 0x3 DUP1 DUP6 MSTORE DUP6 DUP3 KECCAK256 DUP5 SWAP1 SSTORE DUP4 DUP3 MSTORE PUSH1 0x6 DUP6 MSTORE DUP6 DUP3 KECCAK256 PUSH1 0x0 NOT SWAP1 SSTORE PUSH1 0x80 DUP8 ADD DUP7 MSTORE SWAP11 DUP7 MSTORE DUP4 DUP7 ADD SWAP10 DUP11 MSTORE DUP6 DUP6 ADD SWAP2 DUP3 MSTORE PUSH1 0x60 DUP7 ADD SWAP8 DUP9 MSTORE SWAP2 DUP3 MSTORE PUSH1 0x2 SWAP3 DUP4 SWAP1 MSTORE SWAP3 SWAP1 KECCAK256 SWAP3 MLOAD DUP4 SSTORE SWAP6 MLOAD PUSH1 0x1 DUP4 ADD SSTORE MLOAD SWAP5 DUP2 ADD DUP1 SLOAD PUSH1 0x1 PUSH1 0x1 PUSH1 0xA0 SHL SUB NOT AND SWAP6 SWAP1 SWAP5 AND SWAP5 SWAP1 SWAP5 OR SWAP1 SWAP3 SSTORE MLOAD SWAP2 SWAP1 SWAP3 ADD SSTORE POP JUMP JUMPDEST PUSH1 0x0 DUP1 PUSH2 0x38E1 DUP4 DUP8 PUSH2 0x3FAB JUMP JUMPDEST SWAP6 POP PUSH2 0x38ED DUP5 DUP7 PUSH2 0x3FAB JUMP JUMPDEST SWAP5 POP PUSH2 0x38F9 DUP6 DUP8 PUSH2 0x3FEC JUMP JUMPDEST PUSH2 0x3805 DUP5 DUP7 PUSH2 0x3FAB JUMP JUMPDEST PUSH1 0x0 DUP1 PUSH1 0x0 PUSH2 0x3912 DUP6 DUP6 PUSH2 0x398F JUMP JUMPDEST SWAP1 POP PUSH2 0x391E DUP2 DUP6 PUSH2 0x3FD8 JUMP JUMPDEST PUSH2 0x3928 DUP3 DUP8 PUSH2 0x3FD8 JUMP JUMPDEST PUSH2 0x3932 SWAP2 SWAP1 PUSH2 0x3FD8 JUMP JUMPDEST PUSH2 0x393C DUP6 DUP8 PUSH2 0x3FD8 JUMP JUMPDEST EQ PUSH2 0x396F JUMPI PUSH1 0x40 MLOAD PUSH3 0x461BCD PUSH1 0xE5 SHL DUP2 MSTORE PUSH1 0x20 PUSH1 0x4 DUP3 ADD MSTORE PUSH1 0x3 PUSH1 0x24 DUP3 ADD MSTORE PUSH3 0x159355 PUSH1 0xEA SHL PUSH1 0x44 DUP3 ADD MSTORE PUSH1 0x64 ADD PUSH2 0xA8B JUMP JUMPDEST PUSH2 0x3979 DUP2 DUP7 PUSH2 0x3FD8 JUMP JUMPDEST PUSH2 0x3983 DUP3 DUP7 PUSH2 0x3FD8 JUMP JUMPDEST SWAP3 POP SWAP3 POP POP SWAP3 POP SWAP3 SWAP1 POP JUMP JUMPDEST PUSH1 0x0 JUMPDEST DUP2 ISZERO PUSH2 0x39AD JUMPI DUP2 PUSH2 0x39A3 DUP2 DUP6 PUSH2 0x4515 JUMP JUMPDEST SWAP1 SWAP4 POP SWAP2 POP PUSH2 0x3992 JUMP JUMPDEST POP SWAP1 SWAP2 SWAP1 POP JUMP JUMPDEST PUSH4 0x4E487B71 PUSH1 0xE0 SHL PUSH1 0x0 MSTORE PUSH1 0x41 PUSH1 0x4 MSTORE PUSH1 0x24 PUSH1 0x0 REVERT JUMPDEST PUSH1 0x0 DUP3 PUSH1 0x1F DUP4 ADD SLT PUSH2 0x39DB JUMPI PUSH1 0x0 DUP1 REVERT JUMPDEST DUP2 CALLDATALOAD PUSH1 0x1 PUSH1 0x1 PUSH1 0x40 SHL SUB DUP1 DUP3 GT ISZERO PUSH2 0x39F5 JUMPI PUSH2 0x39F5 PUSH2 0x39B4 JUMP JUMPDEST PUSH1 0x40 MLOAD PUSH1 0x1F DUP4 ADD PUSH1 0x1F NOT SWAP1 DUP2 AND PUSH1 0x3F ADD AND DUP2 ADD SWAP1 DUP3 DUP3 GT DUP2 DUP4 LT OR ISZERO PUSH2 0x3A1D JUMPI PUSH2 0x3A1D PUSH2 0x39B4 JUMP JUMPDEST DUP2 PUSH1 0x40 MSTORE DUP4 DUP2 MSTORE DUP7 PUSH1 0x20 DUP6 DUP9 ADD ADD GT ISZERO PUSH2 0x3A36 JUMPI PUSH1 0x0 DUP1 REVERT JUMPDEST DUP4 PUSH1 0x20 DUP8 ADD PUSH1 0x20 DUP4 ADD CALLDATACOPY PUSH1 0x0 PUSH1 0x20 DUP6 DUP4 ADD ADD MSTORE DUP1 SWAP5 POP POP POP POP POP SWAP3 SWAP2 POP POP JUMP JUMPDEST DUP1 CALLDATALOAD PUSH1 0x3 DUP2 LT PUSH2 0x3A65 JUMPI PUSH1 0x0 DUP1 REVERT JUMPDEST SWAP2 SWAP1 POP JUMP JUMPDEST PUSH1 0x0 DUP1 PUSH1 0x40 DUP4 DUP6 SUB SLT ISZERO PUSH2 0x3A7D JUMPI PUSH1 0x0 DUP1 REVERT JUMPDEST DUP3 CALLDATALOAD PUSH1 0x1 PUSH1 0x1 PUSH1 0x40 SHL SUB DUP2 GT ISZERO PUSH2 0x3A93 JUMPI PUSH1 0x0 DUP1 REVERT JUMPDEST PUSH2 0x3A9F DUP6 DUP3 DUP7 ADD PUSH2 0x39CA JUMP JUMPDEST SWAP3 POP POP PUSH2 0x3AAE PUSH1 0x20 DUP5 ADD PUSH2 0x3A56 JUMP JUMPDEST SWAP1 POP SWAP3 POP SWAP3 SWAP1 POP JUMP JUMPDEST PUSH1 0x0 PUSH1 0x20 DUP3 DUP5 SUB SLT ISZERO PUSH2 0x3AC9 JUMPI PUSH1 0x0 DUP1 REVERT JUMPDEST POP CALLDATALOAD SWAP2 SWAP1 POP JUMP JUMPDEST PUSH1 0x0 PUSH1 0x20 DUP3 DUP5 SUB SLT ISZERO PUSH2 0x3AE2 JUMPI PUSH1 0x0 DUP1 REVERT JUMPDEST DUP2 CALLDATALOAD PUSH1 0x1 PUSH1 0x1 PUSH1 0x40 SHL SUB DUP2 GT ISZERO PUSH2 0x3AF8 JUMPI PUSH1 0x0 DUP1 REVERT JUMPDEST PUSH2 0x3369 DUP5 DUP3 DUP6 ADD PUSH2 0x39CA JUMP JUMPDEST DUP1 CALLDATALOAD PUSH1 0x1 PUSH1 0x1 PUSH1 0xA0 SHL SUB DUP2 AND DUP2 EQ PUSH2 0x3A65 JUMPI PUSH1 0x0 DUP1 REVERT JUMPDEST PUSH1 0x0 DUP1 PUSH1 0x40 DUP4 DUP6 SUB SLT ISZERO PUSH2 0x3B2E JUMPI PUSH1 0x0 DUP1 REVERT JUMPDEST DUP3 CALLDATALOAD PUSH1 0x1 PUSH1 0x1 PUSH1 0x40 SHL SUB DUP2 GT ISZERO PUSH2 0x3B44 JUMPI PUSH1 0x0 DUP1 REVERT JUMPDEST PUSH2 0x3B50 DUP6 DUP3 DUP7 ADD PUSH2 0x39CA JUMP JUMPDEST SWAP3 POP POP PUSH2 0x3AAE PUSH1 0x20 DUP5 ADD PUSH2 0x3B04 JUMP JUMPDEST PUSH1 0x0 PUSH1 0x20 DUP3 DUP5 SUB SLT ISZERO PUSH2 0x3B71 JUMPI PUSH1 0x0 DUP1 REVERT JUMPDEST PUSH2 0xCCF DUP3 PUSH2 0x3B04 JUMP JUMPDEST PUSH1 0x0 DUP1 PUSH1 0x40 DUP4 DUP6 SUB SLT ISZERO PUSH2 0x3B8D JUMPI PUSH1 0x0 DUP1 REVERT JUMPDEST POP POP DUP1 CALLDATALOAD SWAP3 PUSH1 0x20 SWAP1 SWAP2 ADD CALLDATALOAD SWAP2 POP JUMP JUMPDEST PUSH1 0x0 DUP1 PUSH1 0x40 DUP4 DUP6 SUB SLT ISZERO PUSH2 0x3BAF JUMPI PUSH1 0x0 DUP1 REVERT JUMPDEST DUP3 CALLDATALOAD SWAP2 POP PUSH2 0x3AAE PUSH1 0x20 DUP5 ADD PUSH2 0x3B04 JUMP JUMPDEST PUSH1 0x0 DUP1 PUSH1 0x0 PUSH1 0x60 DUP5 DUP7 SUB SLT ISZERO PUSH2 0x3BD4 JUMPI PUSH1 0x0 DUP1 REVERT JUMPDEST DUP4 CALLDATALOAD PUSH1 0x1 PUSH1 0x1 PUSH1 0x40 SHL SUB DUP2 GT ISZERO PUSH2 0x3BEA JUMPI PUSH1 0x0 DUP1 REVERT JUMPDEST PUSH2 0x3BF6 DUP7 DUP3 DUP8 ADD PUSH2 0x39CA JUMP JUMPDEST SWAP4 POP POP PUSH2 0x3C05 PUSH1 0x20 DUP6 ADD PUSH2 0x3B04 JUMP JUMPDEST SWAP2 POP PUSH1 0x40 DUP5 ADD CALLDATALOAD SWAP1 POP SWAP3 POP SWAP3 POP SWAP3 JUMP JUMPDEST DUP1 ISZERO ISZERO DUP2 EQ PUSH2 0xADB JUMPI PUSH1 0x0 DUP1 REVERT JUMPDEST PUSH1 0x0 PUSH1 0x20 DUP3 DUP5 SUB SLT ISZERO PUSH2 0x3C35 JUMPI PUSH1 0x0 DUP1 REVERT JUMPDEST DUP2 CALLDATALOAD PUSH2 0xCCF DUP2 PUSH2 0x3C15 JUMP JUMPDEST PUSH1 0x0 DUP1 PUSH1 0x0 DUP1 PUSH1 0x80 DUP6 DUP8 SUB SLT ISZERO PUSH2 0x3C56 JUMPI PUSH1 0x0 DUP1 REVERT JUMPDEST DUP5 CALLDATALOAD SWAP4 POP PUSH1 0x20 DUP6 ADD CALLDATALOAD SWAP3 POP PUSH1 0x40 DUP6 ADD CALLDATALOAD SWAP2 POP PUSH2 0x3C74 PUSH1 0x60 DUP7 ADD PUSH2 0x3B04 JUMP JUMPDEST SWAP1 POP SWAP3 SWAP6 SWAP2 SWAP5 POP SWAP3 POP JUMP JUMPDEST PUSH1 0x0 DUP1 PUSH1 0x40 DUP4 DUP6 SUB SLT ISZERO PUSH2 0x3C92 JUMPI PUSH1 0x0 DUP1 REVERT JUMPDEST PUSH2 0x3C9B DUP4 PUSH2 0x3B04 JUMP JUMPDEST SWAP5 PUSH1 0x20 SWAP4 SWAP1 SWAP4 ADD CALLDATALOAD SWAP4 POP POP POP JUMP JUMPDEST PUSH1 0x0 DUP1 PUSH1 0x0 DUP1 PUSH1 0x80 DUP6 DUP8 SUB SLT ISZERO PUSH2 0x3CBF JUMPI PUSH1 0x0 DUP1 REVERT JUMPDEST DUP5 CALLDATALOAD PUSH1 0x1 PUSH1 0x1 PUSH1 0x40 SHL SUB DUP1 DUP3 GT ISZERO PUSH2 0x3CD6 JUMPI PUSH1 0x0 DUP1 REVERT JUMPDEST PUSH2 0x3CE2 DUP9 DUP4 DUP10 ADD PUSH2 0x39CA JUMP JUMPDEST SWAP6 POP PUSH1 0x20 DUP8 ADD CALLDATALOAD SWAP2 POP DUP1 DUP3 GT ISZERO PUSH2 0x3CF8 JUMPI PUSH1 0x0 DUP1 REVERT JUMPDEST POP PUSH2 0x3D05 DUP8 DUP3 DUP9 ADD PUSH2 0x39CA JUMP JUMPDEST SWAP4 POP POP PUSH2 0x3D14 PUSH1 0x40 DUP7 ADD PUSH2 0x3B04 JUMP JUMPDEST SWAP4 SWAP7 SWAP3 SWAP6 POP SWAP3 SWAP4 PUSH1 0x60 ADD CALLDATALOAD SWAP3 POP POP JUMP JUMPDEST PUSH1 0x0 DUP1 PUSH1 0x0 PUSH1 0x60 DUP5 DUP7 SUB SLT ISZERO PUSH2 0x3D39 JUMPI PUSH1 0x0 DUP1 REVERT JUMPDEST DUP4 CALLDATALOAD PUSH1 0x1 PUSH1 0x1 PUSH1 0x40 SHL SUB DUP2 GT ISZERO PUSH2 0x3D4F JUMPI PUSH1 0x0 DUP1 REVERT JUMPDEST PUSH2 0x3D5B DUP7 DUP3 DUP8 ADD PUSH2 0x39CA JUMP JUMPDEST SWAP4 POP POP PUSH2 0x3D6A PUSH1 0x20 DUP6 ADD PUSH2 0x3B04 JUMP JUMPDEST SWAP2 POP PUSH2 0x3D78 PUSH1 0x40 DUP6 ADD PUSH2 0x3A56 JUMP JUMPDEST SWAP1 POP SWAP3 POP SWAP3 POP SWAP3 JUMP JUMPDEST PUSH1 0x0 DUP1 PUSH1 0x0 DUP1 PUSH1 0x80 DUP6 DUP8 SUB SLT ISZERO PUSH2 0x3D97 JUMPI PUSH1 0x0 DUP1 REVERT JUMPDEST DUP5 CALLDATALOAD PUSH1 0x1 PUSH1 0x1 PUSH1 0x40 SHL SUB DUP2 GT ISZERO PUSH2 0x3DAD JUMPI PUSH1 0x0 DUP1 REVERT JUMPDEST PUSH2 0x3DB9 DUP8 DUP3 DUP9 ADD PUSH2 0x39CA JUMP JUMPDEST SWAP5 POP POP PUSH2 0x3DC8 PUSH1 0x20 DUP7 ADD PUSH2 0x3B04 JUMP JUMPDEST SWAP3 POP PUSH1 0x40 DUP6 ADD CALLDATALOAD SWAP2 POP PUSH2 0x3C74 PUSH1 0x60 DUP7 ADD PUSH2 0x3B04 JUMP JUMPDEST PUSH1 0x0 DUP1 PUSH1 0x0 DUP1 PUSH1 0x0 DUP1 PUSH1 0xC0 DUP8 DUP10 SUB SLT ISZERO PUSH2 0x3DF6 JUMPI PUSH1 0x0 DUP1 REVERT JUMPDEST DUP7 CALLDATALOAD SWAP6 POP PUSH1 0x20 DUP8 ADD CALLDATALOAD SWAP5 POP PUSH1 0x40 DUP8 ADD CALLDATALOAD SWAP4 POP PUSH2 0x3E14 PUSH1 0x60 DUP9 ADD PUSH2 0x3B04 JUMP JUMPDEST SWAP3 POP PUSH1 0x80 DUP8 ADD CALLDATALOAD SWAP2 POP PUSH2 0x3E29 PUSH1 0xA0 DUP9 ADD PUSH2 0x3B04 JUMP JUMPDEST SWAP1 POP SWAP3 SWAP6 POP SWAP3 SWAP6 POP SWAP3 SWAP6 JUMP JUMPDEST PUSH4 0x36B0B4B7 PUSH1 0xE1 SHL DUP2 MSTORE PUSH1 0x4 ADD SWAP1 JUMP JUMPDEST PUSH4 0x4E487B71 PUSH1 0xE0 SHL PUSH1 0x0 MSTORE PUSH1 0x11 PUSH1 0x4 MSTORE PUSH1 0x24 PUSH1 0x0 REVERT JUMPDEST DUP1 DUP3 ADD DUP1 DUP3 GT ISZERO PUSH2 0xBDF JUMPI PUSH2 0xBDF PUSH2 0x3E45 JUMP JUMPDEST PUSH1 0x1 PUSH1 0x1 PUSH1 0xA0 SHL SUB SWAP4 DUP5 AND DUP2 MSTORE PUSH1 0x20 DUP2 ADD SWAP3 SWAP1 SWAP3 MSTORE SWAP1 SWAP2 AND PUSH1 0x40 DUP3 ADD MSTORE PUSH1 0x60 ADD SWAP1 JUMP JUMPDEST PUSH4 0x4E487B71 PUSH1 0xE0 SHL PUSH1 0x0 MSTORE PUSH1 0x21 PUSH1 0x4 MSTORE PUSH1 0x24 PUSH1 0x0 REVERT JUMPDEST PUSH1 0x0 JUMPDEST DUP4 DUP2 LT ISZERO PUSH2 0x3EC2 JUMPI DUP2 DUP2 ADD MLOAD DUP4 DUP3 ADD MSTORE PUSH1 0x20 ADD PUSH2 0x3EAA JUMP JUMPDEST POP POP PUSH1 0x0 SWAP2 ADD MSTORE JUMP JUMPDEST PUSH1 0x0 DUP3 MLOAD PUSH2 0x3EDD DUP2 DUP5 PUSH1 0x20 DUP8 ADD PUSH2 0x3EA7 JUMP JUMPDEST SWAP2 SWAP1 SWAP2 ADD SWAP3 SWAP2 POP POP JUMP JUMPDEST PUSH1 0x20 DUP1 DUP3 MSTORE PUSH1 0x2 SWAP1 DUP3 ADD MSTORE PUSH2 0x4153 PUSH1 0xF0 SHL PUSH1 0x40 DUP3 ADD MSTORE PUSH1 0x60 ADD SWAP1 JUMP JUMPDEST PUSH1 0x20 DUP1 DUP3 MSTORE PUSH1 0x2 SWAP1 DUP3 ADD MSTORE PUSH2 0x9E9 PUSH1 0xF3 SHL PUSH1 0x40 DUP3 ADD MSTORE PUSH1 0x60 ADD SWAP1 JUMP JUMPDEST PUSH1 0x20 DUP1 DUP3 MSTORE PUSH1 0x2 SWAP1 DUP3 ADD MSTORE PUSH2 0x5553 PUSH1 0xF0 SHL PUSH1 0x40 DUP3 ADD MSTORE PUSH1 0x60 ADD SWAP1 JUMP JUMPDEST PUSH1 0x20 DUP1 DUP3 MSTORE PUSH1 0x2 SWAP1 DUP3 ADD MSTORE PUSH2 0x4E53 PUSH1 0xF0 SHL PUSH1 0x40 DUP3 ADD MSTORE PUSH1 0x60 ADD SWAP1 JUMP JUMPDEST PUSH1 0x20 DUP1 DUP3 MSTORE PUSH1 0x2 SWAP1 DUP3 ADD MSTORE PUSH2 0x1153 PUSH1 0xF2 SHL PUSH1 0x40 DUP3 ADD MSTORE PUSH1 0x60 ADD SWAP1 JUMP JUMPDEST PUSH1 0x20 DUP1 DUP3 MSTORE PUSH1 0x2 SWAP1 DUP3 ADD MSTORE PUSH2 0x1555 PUSH1 0xF2 SHL PUSH1 0x40 DUP3 ADD MSTORE PUSH1 0x60 ADD SWAP1 JUMP JUMPDEST PUSH1 0x20 DUP1 DUP3 MSTORE PUSH1 0x2 SWAP1 DUP3 ADD MSTORE PUSH2 0x4143 PUSH1 0xF0 SHL PUSH1 0x40 DUP3 ADD MSTORE PUSH1 0x60 ADD SWAP1 JUMP JUMPDEST DUP1 DUP3 MUL DUP2 ISZERO DUP3 DUP3 DIV DUP5 EQ OR PUSH2 0xBDF JUMPI PUSH2 0xBDF PUSH2 0x3E45 JUMP JUMPDEST PUSH4 0x4E487B71 PUSH1 0xE0 SHL PUSH1 0x0 MSTORE PUSH1 0x12 PUSH1 0x4 MSTORE PUSH1 0x24 PUSH1 0x0 REVERT JUMPDEST PUSH1 0x0 DUP3 PUSH2 0x3FE7 JUMPI PUSH2 0x3FE7 PUSH2 0x3FC2 JUMP JUMPDEST POP DIV SWAP1 JUMP JUMPDEST DUP2 DUP2 SUB DUP2 DUP2 GT ISZERO PUSH2 0xBDF JUMPI PUSH2 0xBDF PUSH2 0x3E45 JUMP JUMPDEST PUSH1 0x0 DUP2 MLOAD DUP1 DUP5 MSTORE PUSH2 0x4017 DUP2 PUSH1 0x20 DUP7 ADD PUSH1 0x20 DUP7 ADD PUSH2 0x3EA7 JUMP JUMPDEST PUSH1 0x1F ADD PUSH1 0x1F NOT AND SWAP3 SWAP1 SWAP3 ADD PUSH1 0x20 ADD SWAP3 SWAP2 POP POP JUMP JUMPDEST PUSH1 0x60 DUP2 MSTORE PUSH1 0x2 PUSH1 0x60 DUP3 ADD MSTORE PUSH2 0x18D1 PUSH1 0xF2 SHL PUSH1 0x80 DUP3 ADD MSTORE PUSH1 0xA0 PUSH1 0x20 DUP3 ADD MSTORE PUSH1 0x0 PUSH2 0x4057 PUSH1 0xA0 DUP4 ADD DUP6 PUSH2 0x3FFF JUMP JUMPDEST SWAP1 POP PUSH1 0x1 DUP1 PUSH1 0xA0 SHL SUB DUP4 AND PUSH1 0x40 DUP4 ADD MSTORE SWAP4 SWAP3 POP POP POP JUMP JUMPDEST PUSH1 0x1 PUSH1 0x1 PUSH1 0xA0 SHL SUB SWAP3 DUP4 AND DUP2 MSTORE SWAP2 AND PUSH1 0x20 DUP3 ADD MSTORE PUSH1 0x40 ADD SWAP1 JUMP JUMPDEST PUSH1 0x0 PUSH1 0x20 DUP3 DUP5 SUB SLT ISZERO PUSH2 0x409A JUMPI PUSH1 0x0 DUP1 REVERT JUMPDEST POP MLOAD SWAP2 SWAP1 POP JUMP JUMPDEST PUSH1 0x20 DUP1 DUP3 MSTORE PUSH1 0x2 SWAP1 DUP3 ADD MSTORE PUSH2 0x1255 PUSH1 0xF2 SHL PUSH1 0x40 DUP3 ADD MSTORE PUSH1 0x60 ADD SWAP1 JUMP JUMPDEST PUSH1 0x1 PUSH1 0x1 PUSH1 0xA0 SHL SUB SWAP4 DUP5 AND DUP2 MSTORE SWAP2 SWAP1 SWAP3 AND PUSH1 0x20 DUP3 ADD MSTORE PUSH1 0x40 DUP2 ADD SWAP2 SWAP1 SWAP2 MSTORE PUSH1 0x60 ADD SWAP1 JUMP JUMPDEST PUSH1 0x0 PUSH1 0x20 DUP3 DUP5 SUB SLT ISZERO PUSH2 0x40F3 JUMPI PUSH1 0x0 DUP1 REVERT JUMPDEST DUP2 MLOAD PUSH2 0xCCF DUP2 PUSH2 0x3C15 JUMP JUMPDEST PUSH1 0x20 DUP1 DUP3 MSTORE PUSH1 0x2 SWAP1 DUP3 ADD MSTORE PUSH2 0x1395 PUSH1 0xF2 SHL PUSH1 0x40 DUP3 ADD MSTORE PUSH1 0x60 ADD SWAP1 JUMP JUMPDEST PUSH1 0x20 DUP1 DUP3 MSTORE PUSH1 0x5 SWAP1 DUP3 ADD MSTORE PUSH5 0x4E53484E41 PUSH1 0xD8 SHL PUSH1 0x40 DUP3 ADD MSTORE PUSH1 0x60 ADD SWAP1 JUMP JUMPDEST PUSH1 0x20 DUP1 DUP3 MSTORE PUSH1 0x2 SWAP1 DUP3 ADD MSTORE PUSH2 0x2A23 PUSH1 0xF1 SHL PUSH1 0x40 DUP3 ADD MSTORE PUSH1 0x60 ADD SWAP1 JUMP JUMPDEST SWAP6 DUP7 MSTORE PUSH1 0x20 DUP7 ADD SWAP5 SWAP1 SWAP5 MSTORE PUSH1 0x40 DUP6 ADD SWAP3 SWAP1 SWAP3 MSTORE PUSH1 0x1 PUSH1 0x1 PUSH1 0xA0 SHL SUB SWAP1 DUP2 AND PUSH1 0x60 DUP6 ADD MSTORE PUSH1 0x80 DUP5 ADD SWAP2 SWAP1 SWAP2 MSTORE AND PUSH1 0xA0 DUP3 ADD MSTORE PUSH1 0xC0 ADD SWAP1 JUMP JUMPDEST PUSH1 0x3 DUP2 LT PUSH2 0x41AA JUMPI PUSH4 0x4E487B71 PUSH1 0xE0 SHL PUSH1 0x0 MSTORE PUSH1 0x21 PUSH1 0x4 MSTORE PUSH1 0x24 PUSH1 0x0 REVERT JUMPDEST SWAP1 MSTORE JUMP JUMPDEST PUSH1 0x40 DUP2 MSTORE PUSH1 0x0 PUSH2 0x41C1 PUSH1 0x40 DUP4 ADD DUP6 PUSH2 0x3FFF JUMP JUMPDEST SWAP1 POP PUSH2 0xCCF PUSH1 0x20 DUP4 ADD DUP5 PUSH2 0x418C JUMP JUMPDEST PUSH1 0x60 DUP2 MSTORE PUSH1 0x2 PUSH1 0x60 DUP3 ADD MSTORE PUSH2 0x735 PUSH1 0xF4 SHL PUSH1 0x80 DUP3 ADD MSTORE PUSH1 0xA0 PUSH1 0x20 DUP3 ADD MSTORE PUSH1 0x0 PUSH2 0x4057 PUSH1 0xA0 DUP4 ADD DUP6 PUSH2 0x3FFF JUMP JUMPDEST PUSH1 0x60 DUP2 MSTORE PUSH1 0x2 PUSH1 0x60 DUP3 ADD MSTORE PUSH2 0x1911 PUSH1 0xF2 SHL PUSH1 0x80 DUP3 ADD MSTORE PUSH1 0xA0 PUSH1 0x20 DUP3 ADD MSTORE PUSH1 0x0 PUSH2 0x4057 PUSH1 0xA0 DUP4 ADD DUP6 PUSH2 0x3FFF JUMP JUMPDEST PUSH1 0x40 DUP2 MSTORE PUSH1 0x0 PUSH2 0x423B PUSH1 0x40 DUP4 ADD DUP6 PUSH2 0x3FFF JUMP JUMPDEST SWAP1 POP PUSH1 0x1 DUP1 PUSH1 0xA0 SHL SUB DUP4 AND PUSH1 0x20 DUP4 ADD MSTORE SWAP4 SWAP3 POP POP POP JUMP JUMPDEST PUSH1 0x60 DUP2 MSTORE PUSH1 0x2 PUSH1 0x60 DUP3 ADD MSTORE PUSH2 0x31A1 PUSH1 0xF1 SHL PUSH1 0x80 DUP3 ADD MSTORE PUSH1 0xA0 PUSH1 0x20 DUP3 ADD MSTORE PUSH1 0x0 PUSH2 0x4057 PUSH1 0xA0 DUP4 ADD DUP6 PUSH2 0x3FFF JUMP JUMPDEST PUSH1 0x60 DUP2 MSTORE PUSH1 0x2 PUSH1 0x60 DUP3 ADD MSTORE PUSH2 0x7241 PUSH1 0xF0 SHL PUSH1 0x80 DUP3 ADD MSTORE PUSH1 0xA0 PUSH1 0x20 DUP3 ADD MSTORE PUSH1 0x0 PUSH2 0x4057 PUSH1 0xA0 DUP4 ADD DUP6 PUSH2 0x3FFF JUMP JUMPDEST PUSH1 0x1 PUSH1 0x1 PUSH1 0xA0 SHL SUB SWAP3 SWAP1 SWAP3 AND DUP3 MSTORE PUSH1 0x20 DUP3 ADD MSTORE PUSH1 0x40 ADD SWAP1 JUMP JUMPDEST PUSH1 0x20 DUP2 MSTORE PUSH1 0x0 PUSH2 0xCCF PUSH1 0x20 DUP4 ADD DUP5 PUSH2 0x3FFF JUMP JUMPDEST PUSH1 0x60 DUP2 MSTORE PUSH1 0x2 PUSH1 0x60 DUP3 ADD MSTORE PUSH2 0x3221 PUSH1 0xF1 SHL PUSH1 0x80 DUP3 ADD MSTORE PUSH1 0xA0 PUSH1 0x20 DUP3 ADD MSTORE PUSH1 0x0 PUSH2 0x4057 PUSH1 0xA0 DUP4 ADD DUP6 PUSH2 0x3FFF JUMP JUMPDEST SWAP4 DUP5 MSTORE PUSH1 0x20 DUP5 ADD SWAP3 SWAP1 SWAP3 MSTORE PUSH1 0x40 DUP4 ADD MSTORE PUSH1 0x1 PUSH1 0x1 PUSH1 0xA0 SHL SUB AND PUSH1 0x60 DUP3 ADD MSTORE PUSH1 0x80 ADD SWAP1 JUMP JUMPDEST PUSH1 0x20 DUP1 DUP3 MSTORE PUSH1 0x2 SWAP1 DUP3 ADD MSTORE PUSH2 0x24A3 PUSH1 0xF1 SHL PUSH1 0x40 DUP3 ADD MSTORE PUSH1 0x60 ADD SWAP1 JUMP JUMPDEST PUSH1 0x60 DUP2 MSTORE PUSH1 0x0 PUSH2 0x4355 PUSH1 0x60 DUP4 ADD DUP7 PUSH2 0x3FFF JUMP JUMPDEST PUSH1 0x1 PUSH1 0x1 PUSH1 0xA0 SHL SUB SWAP5 SWAP1 SWAP5 AND PUSH1 0x20 DUP4 ADD MSTORE POP PUSH1 0x40 ADD MSTORE SWAP2 SWAP1 POP JUMP JUMPDEST PUSH1 0x60 DUP2 MSTORE PUSH1 0x2 PUSH1 0x60 DUP3 ADD MSTORE PUSH2 0x1A51 PUSH1 0xF2 SHL PUSH1 0x80 DUP3 ADD MSTORE PUSH1 0xA0 PUSH1 0x20 DUP3 ADD MSTORE PUSH1 0x0 PUSH2 0x4057 PUSH1 0xA0 DUP4 ADD DUP6 PUSH2 0x3FFF JUMP JUMPDEST PUSH1 0x0 PUSH1 0x1 DUP3 ADD PUSH2 0x43AE JUMPI PUSH2 0x43AE PUSH2 0x3E45 JUMP JUMPDEST POP PUSH1 0x1 ADD SWAP1 JUMP JUMPDEST PUSH1 0x60 DUP2 MSTORE PUSH1 0x3 PUSH1 0x60 DUP3 ADD MSTORE PUSH3 0x734E53 PUSH1 0xE8 SHL PUSH1 0x80 DUP3 ADD MSTORE PUSH1 0xA0 PUSH1 0x20 DUP3 ADD MSTORE PUSH1 0x0 PUSH2 0x4057 PUSH1 0xA0 DUP4 ADD DUP6 PUSH2 0x3FFF JUMP JUMPDEST PUSH1 0x80 DUP2 MSTORE PUSH1 0x0 PUSH2 0x43F5 PUSH1 0x80 DUP4 ADD DUP8 PUSH2 0x3FFF JUMP JUMPDEST DUP3 DUP2 SUB PUSH1 0x20 DUP5 ADD MSTORE PUSH2 0x4407 DUP2 DUP8 PUSH2 0x3FFF JUMP JUMPDEST PUSH1 0x1 PUSH1 0x1 PUSH1 0xA0 SHL SUB SWAP6 SWAP1 SWAP6 AND PUSH1 0x40 DUP5 ADD MSTORE POP POP PUSH1 0x60 ADD MSTORE SWAP3 SWAP2 POP POP JUMP JUMPDEST PUSH1 0x60 DUP2 MSTORE PUSH1 0x2 PUSH1 0x60 DUP3 ADD MSTORE PUSH2 0x1B55 PUSH1 0xF2 SHL PUSH1 0x80 DUP3 ADD MSTORE PUSH1 0xA0 PUSH1 0x20 DUP3 ADD MSTORE PUSH1 0x0 PUSH2 0x4057 PUSH1 0xA0 DUP4 ADD DUP6 PUSH2 0x3FFF JUMP JUMPDEST PUSH1 0x60 DUP2 MSTORE PUSH1 0x2 PUSH1 0x60 DUP3 ADD MSTORE PUSH2 0x6141 PUSH1 0xF0 SHL PUSH1 0x80 DUP3 ADD MSTORE PUSH1 0xA0 PUSH1 0x20 DUP3 ADD MSTORE PUSH1 0x0 PUSH2 0x4057 PUSH1 0xA0 DUP4 ADD DUP6 PUSH2 0x3FFF JUMP JUMPDEST PUSH1 0x60 DUP2 MSTORE PUSH1 0x0 PUSH2 0x448F PUSH1 0x60 DUP4 ADD DUP7 PUSH2 0x3FFF JUMP JUMPDEST PUSH1 0x1 PUSH1 0x1 PUSH1 0xA0 SHL SUB DUP6 AND PUSH1 0x20 DUP5 ADD MSTORE SWAP1 POP PUSH2 0x3369 PUSH1 0x40 DUP4 ADD DUP5 PUSH2 0x418C JUMP JUMPDEST PUSH1 0x80 DUP2 MSTORE PUSH1 0x0 PUSH2 0x44C0 PUSH1 0x80 DUP4 ADD DUP8 PUSH2 0x3FFF JUMP JUMPDEST PUSH1 0x1 PUSH1 0x1 PUSH1 0xA0 SHL SUB SWAP6 DUP7 AND PUSH1 0x20 DUP5 ADD MSTORE PUSH1 0x40 DUP4 ADD SWAP5 SWAP1 SWAP5 MSTORE POP SWAP3 AND PUSH1 0x60 SWAP1 SWAP3 ADD SWAP2 SWAP1 SWAP2 MSTORE SWAP2 SWAP1 POP JUMP JUMPDEST PUSH1 0x60 DUP2 MSTORE PUSH1 0x2 PUSH1 0x60 DUP3 ADD MSTORE PUSH2 0x1D15 PUSH1 0xF2 SHL PUSH1 0x80 DUP3 ADD MSTORE PUSH1 0xA0 PUSH1 0x20 DUP3 ADD MSTORE PUSH1 0x0 PUSH2 0x4057 PUSH1 0xA0 DUP4 ADD DUP6 PUSH2 0x3FFF JUMP JUMPDEST PUSH1 0x0 DUP3 PUSH2 0x4524 JUMPI PUSH2 0x4524 PUSH2 0x3FC2 JUMP JUMPDEST POP MOD SWAP1 JUMP INVALID NUMBER 0xCD PUSH23 0xB5EB40DA9EA5EB31A199F443F7CF7955EC280BC5981A2E CALLVALUE GASLIMIT 0xC7 SWAP13 SWAP1 SSTORE LOG2 PUSH5 0x6970667358 0x22 SLT KECCAK256 0xB4 CODECOPY ADDRESS STATICCALL 0xAC 0xFC PUSH20 0x2E15F6E38FD2E708DBF94FFBD5F4972F552751D1 LOG4 0x4B 0xC3 DIFFICULTY CODECOPY PUSH5 0x736F6C6343 STOP ADDMOD SGT STOP CALLER ",
  "sha1": "51657a49d9c5563b4f7c8142cc7c759d40a0bf48",
  "source": "// SPDX-License-Identifier: GPL-3.0-or-later\n\npragma solidity ^0.8.4;\n\nimport \"./idea.sol\";\n\n/// @title An extension of the Idea providing an administrable interface.\n/// @author Frederik W. L. Christoffersen\n/// @notice This contract adds administrability via permits and internally closed money supplies.\ncontract Administrable is Idea {\n\n    /// @notice An enum representing a Permit State of one of the many permits.\n    /// @param unauthorized The permit is NOT authorized.\n    /// @param authorized The permit is authorized.\n    /// @param administrator The holder of the permit is not only authorized but also an administrator of it too.\n    enum PermitState {\n        unauthorized,\n        authorized,\n        administrator\n    }\n\n    /// @notice A struct representing the information of a Dividend given to all current Shard holders.\n    /// @param creationTime The clock at which the Dividend was created.\n    /// @param tokenAddress The address of the token, in which the value of the Dividend is issued.\n    /// @param value The original value/amount of the Dividend before claims.\n    struct DividendInfo {\n        uint256 creationTime;\n        address tokenAddress;\n        uint256 value;\n    }\n\n    /// @notice A boolean stating if Non Shard Holders are allowed to administer the administrable or not.\n    bool allowNonShardHolders;\n\n    /// @notice A mapping pointing to a boolean stating if a given Bank is valid/exists or not.\n    mapping(string => bool) validBanks;\n    \n    /// @notice A mapping pointing to an unsigned integer representing the amount of stored kinds of tokens of a bank.\n    mapping(string => uint256) storedTokenAddressesByBank;\n\n    /// @notice A mapping pointing to the a value/amount of a stored token of a Bank, given the name of it and the respective token address.\n    mapping(string => mapping(address => uint256)) balanceByBank;\n\n     /// @notice A mapping pointing to a boolean stating if an address is an if a given address is a valid Bank administrator that has restricted control of the Bank's funds.\n    mapping(string => mapping(address => bool)) adminOfBank;\n\n    /// @notice A mapping pointing to another mapping, pointing to a Permit State, given the address of a permit holder, given the name of the permit.\n    /// @custom:illustration permits[permitName][address] == PermitState.authorized || PermitState.administrator;\n    mapping(string => mapping(address => PermitState)) permits;\n\n    /// @notice A mapping pointing to a base Permit State, given the name of the permit.\n    mapping(string => PermitState) basePermits;\n    \n    /// @notice A mapping pointing to a boolean stating if a given Dividend is valid or not.\n    mapping(uint256 => bool) validDividends;\n\n    /// @notice A mapping pointing to the info of a Dividend given the creation time of the Dividend.\n    mapping(uint256 => DividendInfo) infoByDividend;\n\n    /// @notice A mapping pointing to the residual of a Dividend given the creation time of the Dividend.\n    mapping(uint256 => uint256) residualByDividend;\n\n    /// @notice Mapping pointing to a boolean stating if the owner of a Shard has claimed their fair share of the Dividend, given the bank name and the shard.\n    mapping(uint256 => mapping(bytes32  => bool)) hasClaimedDividend;\n\n    /// @notice Event that triggers when an action is taken by somebody.\n    /// @param fName The name of the function that was called.\n    /// @param args The arguments passed to the function call.\n    /// @param by The initiator of the action.\n    event ActionTaken(\n        string fName,\n        bytes args,\n        address by\n        );\n\n    /// @notice Modifier that makes sure msg.sender has a given permit.\n    /// @param permitName The name of the permit to be checked for.\n    modifier onlyWithPermit(string memory permitName) {\n        require(hasPermit(permitName, msg.sender));\n        _;\n    }\n    \n    /// @notice Modifier that makes sure msg.sender is an admin of a given permit.\n    /// @param permitName The name of the permit to be checked for.\n    modifier onlyPermitAdmin(string memory permitName) {\n        require(isPermitAdmin(permitName, msg.sender));\n        _;\n\n    }\n\n    /// @notice Modifier that makes sure msg.sender is admin of a given bank.\n    /// @param bankName The name of the Bank to be checked for.\n    modifier onlyBankAdmin(string memory bankName) {\n        require(isBankAdmin(bankName, msg.sender));\n        _;\n    }\n\n    /// @notice Modifier that makes sure a given bank exists\n    /// @param bankName The name of the Bank to be checked for.\n    modifier onlyExistingBank(string memory bankName) {\n        require(bankExists(bankName), \"DNE\");\n        _;\n    }\n    \n    /// @notice Modifier that makes sure a given dividend exists and is valid\n    /// @param dividend The Dividend to be checked for.\n    modifier onlyExistingDividend(uint256 dividend) {\n        require(dividendExists(dividend));\n        _;\n    }\n\n    /// @notice Constructor function connecting the Idea entity and creating a Bank with an administrator.\n    constructor() {\n        _createBank(\"main\",msg.sender,address(this));\n        _setPermit(\"sNS\", msg.sender, PermitState.administrator, address(this));\n        _setPermit(\"iD\", msg.sender, PermitState.administrator, address(this));\n        _setPermit(\"dD\", msg.sender, PermitState.administrator, address(this));\n        _setPermit(\"mB\", msg.sender, PermitState.administrator, address(this));\n        _setPermit(\"lE\", msg.sender, PermitState.administrator, address(this));\n        _setPermit(\"mAT\", msg.sender, PermitState.administrator, address(this));\n    }\n\n    /// @notice Claims the value of an existing dividend corresponding to the shard holder's respective shard fraction.\n    /// @param shard The shard that was valid at the time of the Dividend creation\n    /// @param dividend The dividend to be claimed.\n    function claimDividend(bytes32 shard, uint256 dividend) external onlyHolder(shard) onlyExistingDividend(dividend) onlyIfActive {\n        require(shardExisted(shard,dividend), \"NAF\");\n        require(hasClaimedDividend[dividend][shard] == false, \"AC\");\n        hasClaimedDividend[dividend][shard] = true;\n        uint256 dividendValue = infoByDividend[dividend].value * infoByShard[shard].numerator / infoByShard[shard].denominator;\n        require(dividendValue != 0, \"DTS\");\n        residualByDividend[dividend] -= dividendValue;\n        _transferToken(infoByDividend[dividend].tokenAddress,dividendValue,msg.sender);\n        emit ActionTaken(\"cD\",abi.encode(dividend,dividendValue),msg.sender);\n    }\n\n    /// @notice Adds a token address to the registry. Also approves any future receipts of said token unless removed again.\n    /// @param tokenAddress The token address to be registered.\n    function registerTokenAddress(address tokenAddress) external onlyWithPermit(\"mAT\") onlyIfActive {\n        _registerTokenAddress(tokenAddress, msg.sender);\n    }\n\n    /// @notice Removes a token address from the registry. Also cancels any future receipts of said token unless added again.\n    /// @param tokenAddress The token address to be unregistered.\n    function unregisterTokenAddress(address tokenAddress) external onlyWithPermit(\"mAT\") onlyIfActive {\n        _unregisterTokenAddress(tokenAddress, msg.sender);\n    }\n\n    /// @notice Creates and issues a Dividend (to all current shareholders) of a token amount from a given Bank.\n    /// @param bankName The name of the Bank to issue the Dividend from.\n    /// @param tokenAddress The address of the token to make up the Dividend.\n    /// @param value The value/amount of the token to be issued in the Dividend.\n    function issueDividend(string memory bankName, address tokenAddress, uint256 value) external onlyWithPermit(\"iD\") onlyBankAdmin(bankName) {\n        _issueDividend(bankName,tokenAddress,value,msg.sender);  \n    }\n\n    /// @notice Dissolves a Dividend and moves its last contents to the 'main' Bank.\n    /// @param dividend The Dividend to be dissolved.\n    function dissolveDividend(uint256 dividend) external onlyWithPermit(\"dD\") {\n        _dissolveDividend(dividend,msg.sender);\n    }\n\n    /// @notice Creates a new Bank.\n    /// @param bankName The name of the Bank to be created.\n    /// @param bankAdmin The address of the first Bank administrator.\n    function createBank(string memory bankName, address bankAdmin) external onlyWithPermit(\"mB\") onlyIfActive {\n       _createBank(bankName,bankAdmin,msg.sender);\n    }\n\n    /// @notice Adds a new given administrator to a given Bank.\n    /// @param bankName The name of the Bank to which the new administrator is to be added.\n    /// @param bankAdmin The address of the new Bank administrator to be added.\n    function addBankAdmin(string memory bankName, address bankAdmin) external onlyWithPermit(\"mB\") onlyBankAdmin(bankName) {\n        require(isShardHolder(bankAdmin) || allowNonShardHolders, \"NSHNA\");\n        _addBankAdmin(bankName,bankAdmin,msg.sender);\n    }\n\n    /// @notice Removes a given administrator of a given Bank.\n    /// @param bankName The name of the Bank from which the given administrator is to be removed.\n    /// @param bankAdmin The address of the current Bank administrator to be removed.\n    function removeBankAdmin(string memory bankName, address bankAdmin) external onlyPermitAdmin(\"mB\") onlyBankAdmin(bankName) {\n        _removeBankAdmin(bankName,bankAdmin,msg.sender);\n    }\n\n    /// @notice Deletes a given Bank.\n    /// @param bankName The name of the Bank to be deleted.\n    function deleteBank(string memory bankName) external onlyPermitAdmin(\"mB\") onlyBankAdmin(bankName) {\n        _deleteBank(bankName,msg.sender);\n    }\n\n    /// @notice Transfers a token bankAdmin a Bank to a recipient.\n    /// @param bankName The name of the Bank from which the token is to be transferred.\n    /// @param tokenAddress The address of the token to be transferred.\n    /// @param value The value/amount of the token to be transferred.\n    /// @param to The recipient of the token to be transferred.\n    function transferTokenFromBank(string memory bankName, address tokenAddress, uint256 value, address to) external onlyBankAdmin(bankName) {\n        _transferTokenFromBank(bankName,tokenAddress,value,to,msg.sender);\n    }\n\n    /// @notice Internally moves a token from one Bank to another.\n    /// @param fromBankName The name of the Bank from which the token is to be moved.\n    /// @param toBankName The name of the Bank to which the token is to be moved.\n    /// @param tokenAddress The address of the token to be moved.\n    /// @param value The value/amount of the token to be moved.\n    function moveToken(string memory fromBankName, string memory toBankName, address tokenAddress, uint256 value) external onlyBankAdmin(fromBankName) {\n        _moveToken(fromBankName,toBankName,tokenAddress,value,msg.sender);\n    }\n\n    /// @notice Sets the state of a specified permit of a given address.\n    /// @param account The address, whose permit state is to be set.\n    /// @param permitName The name of the permit, whose state is to be set.\n    /// @param newState The new Permit State to be applied.\n    function setPermit(string memory permitName, address account, PermitState newState) external onlyPermitAdmin(permitName) {\n        require(isShardHolder(account) || allowNonShardHolders, \"NSHNA\");\n        require(permits[permitName][account] != newState, \"AHP\");\n        _setPermit(permitName,account,newState,msg.sender);\n\n    }\n\n    /// @notice Sets the state of a specified base permit.\n    /// @param permitName The name of the base permit, whose state is to be set.\n    /// @param newState The new base Permit State to be applied.\n    function setBasePermit(string memory permitName, PermitState newState) external onlyPermitAdmin(permitName) {\n        require(basePermits[permitName] != newState, \"AS\");\n        _setBasePermit(permitName,newState,msg.sender);\n    }\n\n    /// @notice Sets the state of the Non Shard Holders.\n    /// @param newState The Boolean state to be applied.\n    function setNonShardHolderState(bool newState) external onlyWithPermit(\"sNS\") {\n        require(allowNonShardHolders != newState, \"AS\");\n        _setNonShardHolderState(newState,msg.sender);\n    }\n\n    /// @notice Liquidizes and dissolves the entity. This cannot be undone.\n    function liquidize() external onlyWithPermit(\"lE\") {\n        _liquidize(msg.sender);\n    }\n\n    /// @notice Returns the balance of a bank.\n    /// @param bankName The name of the Bank.\n    /// @param tokenAddress The address of the token balance to check for.\n    function getBankBalance(string memory bankName, address tokenAddress) public view returns(uint256) {\n        return balanceByBank[bankName][tokenAddress];\n    }\n    \n    /// @notice Returns the token of a dividend.\n    /// @param dividend The Dividend to be checked for.\n    function getDividendToken(uint256 dividend) public view returns(address) {\n        return infoByDividend[dividend].tokenAddress;\n    }\n    \n    /// @notice Returns the total value of a dividend.\n    /// @param dividend The Dividend to be checked for.\n    function getDividendValue(uint256 dividend) public view returns(uint256) {\n        return infoByDividend[dividend].value;\n    }\n\n    /// @notice Returns the residual value of a dividend.\n    /// @param dividend The Dividend to be checked for.\n    function getDividendResidual(uint256 dividend) public view returns(uint256) {\n        return residualByDividend[dividend];\n    }\n\n    /// @notice Returns a boolean stating if a given Bank exists.\n    /// @param bankName The name of the Bank to be checked for.\n    function bankExists(string memory bankName) public view returns(bool) {\n        return validBanks[bankName] == true;\n    }\n\n    /// @notice Returns a boolean stating if a given Bank is empty.\n    /// @param bankName The name of the Bank to be checked for.\n    function bankIsEmpty(string memory bankName) public view returns(bool) {\n        return storedTokenAddressesByBank[bankName] == 0 && balanceByBank[bankName][address(0)] == 0;\n    }\n    \n    /// @notice Returns a boolean stating if a given Dividend exists.\n    /// @param dividend The Dividend to be checked for.\n    function dividendExists(uint256 dividend) public view returns(bool) {\n      return validDividends[dividend];\n    }\n\n    /// @notice Returns a boolean stating if a given address is an admin of a given bank.\n    /// @param account The address to be checked for.\n    /// @param bankName The name of the Bank to be checked for.\n    function isBankAdmin(string memory bankName, address account) public view returns(bool) {\n        return adminOfBank[bankName][account] == true || isPermitAdmin(\"mB\",account);\n    }\n\n    /// @notice Returns a boolean stating if a given address has a given permit or not.\n    /// @param permitName The name of the permit to be checked for.\n    /// @param account The address to be checked for.\n    function hasPermit(string memory permitName, address account) public view returns(bool) {\n        if (!(isShardHolder(account) || allowNonShardHolders)) {return false;}\n        return permits[permitName][account] >= PermitState.authorized || basePermits[permitName] >= PermitState.authorized;\n    }\n\n    /// @notice Returns a boolean stating if a given address is an admin of a given permit or not.\n    /// @param permitName The name of the permit to be checked for.\n    /// @param account The address to be checked for.\n    function isPermitAdmin(string memory permitName, address account) public view returns(bool) {\n        if (!(isShardHolder(account) || allowNonShardHolders)) {return false;}\n        return permits[permitName][account] == PermitState.administrator || basePermits[permitName] == PermitState.administrator;\n    }\n\n    /// @notice Creates and issues a Dividend (to all current shareholders) of a token amount from a given Bank.\n    /// @param bankName The name of the Bank to issue the Dividend from.\n    /// @param tokenAddress The address of the token to make up the Dividend.\n    /// @param value The value/amount of the token to be issued in the Dividend.\n    function _issueDividend(string memory bankName, address tokenAddress, uint256 value, address by) internal onlyIfActive incrementClock {\n        uint256 transferTime = clock;\n        require(value <= balanceByBank[bankName][tokenAddress], \"IF\");\n        balanceByBank[bankName][tokenAddress] -= value;\n        if (balanceByBank[bankName][tokenAddress] == 0 && tokenAddress != address(0)) {\n            storedTokenAddressesByBank[bankName] -= 1;\n        }\n        infoByDividend[transferTime] = DividendInfo({\n            creationTime:transferTime,\n            tokenAddress:tokenAddress,\n            value:value\n        });\n        residualByDividend[transferTime] = value;\n        validDividends[transferTime] = true;\n        emit ActionTaken(\"iD\",abi.encode(bankName,tokenAddress,value),by);\n    }\n\n    /// @notice Dissolves a Dividend and moves its last contents to the 'main' Bank.\n    /// @param dividend The Dividend to be dissolved.\n    /// @param by The initiator of the execution.\n    function _dissolveDividend(uint256 dividend, address by) internal onlyExistingDividend(dividend) onlyIfActive {\n        validDividends[dividend] = false; // -1 to distinguish between empty values;\n        balanceByBank[\"main\"][infoByDividend[dividend].tokenAddress] += residualByDividend[dividend];\n        emit ActionTaken(\"dD\",abi.encode(dividend),by);\n\n    }\n\n    /// @notice Creates a new Bank.\n    /// @param bankName The name of the Bank to be created.\n    /// @param bankAdmin The address of the first Bank administrator.\n    /// @param by The initiator of the execution.\n    function _createBank(string memory bankName, address bankAdmin, address by) internal onlyIfActive {\n        require(!bankExists(bankName), \"AE\");\n        adminOfBank[bankName][bankAdmin] = true;\n        validBanks[bankName] = true;\n        emit ActionTaken(\"cB\",abi.encode(bankName,bankAdmin),by);\n\n    }\n\n    /// @notice Adds a new given administrator to a given Bank.\n    /// @param bankName The name of the Bank to which the new administrator is to be added.\n    /// @param bankAdmin The address of the new Bank administrator to be added.\n    /// @param by The initiator of the execution.\n    function _addBankAdmin(string memory bankName, address bankAdmin, address by) internal onlyIfActive {\n        require(hasPermit(\"mB\",bankAdmin),\"NP\");\n        adminOfBank[bankName][bankAdmin] = true;\n        emit ActionTaken(\"aA\",abi.encode(bankName,bankAdmin),by);\n\n    }\n\n    /// @notice Removes a given administrator of a given Bank.\n    /// @param bankName The name of the Bank from which the given administrator is to be removed.\n    /// @param bankAdmin The address of the current Bank administrator to be removed.\n    /// @param by The initiator of the execution.\n    function _removeBankAdmin(string memory bankName, address bankAdmin, address by) internal onlyIfActive {\n        require(isBankAdmin(bankName,bankAdmin));\n        adminOfBank[bankName][bankAdmin] = false;\n        emit ActionTaken(\"rA\",abi.encode(bankName,bankAdmin),by);\n\n    }\n\n    /// @notice Deletes a given Bank.\n    /// @param bankName The name of the Bank to be deleted.\n    /// @param by The initiator of the execution.\n    function _deleteBank(string memory bankName, address by) internal onlyIfActive {\n        require(bankExists(bankName), \"UB!\");\n        require(keccak256(bytes(bankName)) != keccak256(bytes(\"main\")), \"MB\");\n        require(bankIsEmpty(bankName), \"BE\");\n        validBanks[bankName] = false;\n        emit ActionTaken(\"dB\",abi.encode(bankName),by);\n\n    }\n\n    /// @notice Transfers a token from a Bank to a recipient.\n    /// @param bankName The name of the Bank from which the token is to be transferred.\n    /// @param tokenAddress The address of the token to be transferred.\n    /// @param value The value/amount of the token to be transferred.\n    /// @param to The recipient of the token to be transferred.\n    /// @param by The initiator of the execution.\n    function _transferTokenFromBank(string memory bankName, address tokenAddress, uint256 value, address to, address by) internal onlyIfActive {\n        require(value <= balanceByBank[bankName][tokenAddress], \"IF\");\n        _transferToken(tokenAddress,value,to);\n        balanceByBank[bankName][tokenAddress] -= value;\n        if (balanceByBank[bankName][tokenAddress] == 0 && tokenAddress != address(0)) {\n            storedTokenAddressesByBank[bankName] -= 1;\n        }\n        emit ActionTaken(\"tT\",abi.encode(bankName,tokenAddress,value,to),by);\n    }\n\n    /// @notice Internally moves a token from one Bank to another.\n    /// @param fromBankName The name of the Bank from which the token is to be moved.\n    /// @param toBankName The name of the Bank to which the token is to be moved.\n    /// @param tokenAddress The address of the token to be moved.\n    /// @param value The value/amount of the token to be moved.\n    /// @param by The initiator of the execution.\n    function _moveToken(string memory fromBankName, string memory toBankName, address tokenAddress, uint256 value, address by) internal onlyExistingBank(toBankName) onlyIfActive {\n        require(value <= balanceByBank[fromBankName][tokenAddress], \"IF\");\n        balanceByBank[fromBankName][tokenAddress] -= value;\n        if (tokenAddress != address(0)) {\n            if (balanceByBank[fromBankName][tokenAddress] == 0) {\n                storedTokenAddressesByBank[fromBankName] -= 1;\n\n            }\n            if (balanceByBank[toBankName][tokenAddress] == 0) {\n                storedTokenAddressesByBank[toBankName] += 1;\n            }\n        }\n        balanceByBank[toBankName][tokenAddress] += value;\n        emit ActionTaken(\"mT\",abi.encode(fromBankName,toBankName,tokenAddress,value),by);\n\n    }\n\n    /// @notice Sets the state of a specified permit of a given address.\n    /// @param permitName The name of the permit, whose state is to be set.\n    /// @param account The address, whose permit state is to be set.\n    /// @param newState The new Permit State to be applied.\n    /// @param by The initiator of the execution.\n    function _setPermit(string memory permitName, address account, PermitState newState, address by) internal onlyIfActive {\n        permits[permitName][account] = newState;\n        emit ActionTaken(\"sP\",abi.encode(permitName,account,newState),by);\n\n    }\n\n    /// @notice Sets the state of a specified base permit.\n    /// @param permitName The name of the base permit, whose state is to be set.\n    /// @param newState The new base Permit State to be applied.\n    /// @param by The initiator of the execution.\n    function _setBasePermit(string memory permitName, PermitState newState, address by) internal onlyIfActive {\n        basePermits[permitName] = newState;\n        emit ActionTaken(\"sP\",abi.encode(permitName,newState),by);\n    }\n\n    /// @notice Sets the state of the Non Shard Holders.\n    /// @param newState The Boolean state to be applied.\n    /// @param by The initiator of the execution.\n    function _setNonShardHolderState(bool newState, address by) internal onlyIfActive {\n        allowNonShardHolders = newState;\n        emit ActionTaken(\"sNS\",abi.encode(newState),by);\n    }\n\n    /// @notice Keeps track of a token receipt by adding it to the registry\n    /// @param tokenAddress The address of the received token.\n    /// @param value The value/amount of the received token.\n    /// @param from The sender of the received token.\n    function _processTokenReceipt(address tokenAddress, uint256 value, address from) override internal {\n        super._processTokenReceipt(tokenAddress, value, from);\n        // Then: Bank logic\n        if (balanceByBank[\"main\"][tokenAddress] == 0 && tokenAddress != address(0)) {\n            storedTokenAddressesByBank[\"main\"] += 1;\n        }\n        balanceByBank[\"main\"][tokenAddress] += value;\n        emit TokenReceived(tokenAddress,value,from);\n    }\n\n}",
  "sourcePath": "contracts/administrable.sol",
  "type": "contract"
}