{
  "abi": [
    {
      "inputs": [
        {
          "internalType": "uint256",
          "name": "amount",
          "type": "uint256"
        }
      ],
      "stateMutability": "nonpayable",
      "type": "constructor"
    },
    {
      "anonymous": false,
      "inputs": [
        {
          "indexed": false,
          "internalType": "string",
          "name": "func",
          "type": "string"
        },
        {
          "indexed": false,
          "internalType": "bytes",
          "name": "args",
          "type": "bytes"
        },
        {
          "indexed": false,
          "internalType": "address",
          "name": "by",
          "type": "address"
        }
      ],
      "name": "ActionTaken",
      "type": "event"
    },
    {
      "anonymous": false,
      "inputs": [
        {
          "indexed": false,
          "internalType": "bytes32",
          "name": "shard",
          "type": "bytes32"
        },
        {
          "indexed": false,
          "internalType": "uint256",
          "name": "expirationClock",
          "type": "uint256"
        }
      ],
      "name": "ExpiredShard",
      "type": "event"
    },
    {
      "anonymous": false,
      "inputs": [
        {
          "indexed": false,
          "internalType": "address",
          "name": "tokenAddress",
          "type": "address"
        },
        {
          "indexed": false,
          "internalType": "uint256",
          "name": "value",
          "type": "uint256"
        },
        {
          "indexed": false,
          "internalType": "address",
          "name": "by",
          "type": "address"
        }
      ],
      "name": "LiquidClaimed",
      "type": "event"
    },
    {
      "anonymous": false,
      "inputs": [
        {
          "indexed": false,
          "internalType": "bytes32",
          "name": "shard",
          "type": "bytes32"
        },
        {
          "indexed": false,
          "internalType": "address",
          "name": "owner",
          "type": "address"
        },
        {
          "indexed": false,
          "internalType": "uint256",
          "name": "creationClock",
          "type": "uint256"
        }
      ],
      "name": "NewShard",
      "type": "event"
    },
    {
      "anonymous": false,
      "inputs": [
        {
          "indexed": false,
          "internalType": "bytes32",
          "name": "shard",
          "type": "bytes32"
        },
        {
          "indexed": false,
          "internalType": "uint256",
          "name": "amount",
          "type": "uint256"
        },
        {
          "indexed": false,
          "internalType": "address",
          "name": "tokenAddress",
          "type": "address"
        },
        {
          "indexed": false,
          "internalType": "uint256",
          "name": "price",
          "type": "uint256"
        },
        {
          "indexed": false,
          "internalType": "address",
          "name": "to",
          "type": "address"
        }
      ],
      "name": "PutForSale",
      "type": "event"
    },
    {
      "anonymous": false,
      "inputs": [
        {
          "indexed": false,
          "internalType": "bytes32",
          "name": "shard",
          "type": "bytes32"
        },
        {
          "indexed": false,
          "internalType": "uint256",
          "name": "amount",
          "type": "uint256"
        },
        {
          "indexed": false,
          "internalType": "address",
          "name": "to",
          "type": "address"
        },
        {
          "indexed": false,
          "internalType": "address",
          "name": "tokenAddress",
          "type": "address"
        },
        {
          "indexed": false,
          "internalType": "uint256",
          "name": "price",
          "type": "uint256"
        }
      ],
      "name": "SaleSold",
      "type": "event"
    },
    {
      "anonymous": false,
      "inputs": [
        {
          "indexed": false,
          "internalType": "address",
          "name": "tokenAddress",
          "type": "address"
        },
        {
          "indexed": false,
          "internalType": "uint256",
          "name": "value",
          "type": "uint256"
        },
        {
          "indexed": false,
          "internalType": "address",
          "name": "from",
          "type": "address"
        }
      ],
      "name": "TokenReceived",
      "type": "event"
    },
    {
      "inputs": [
        {
          "internalType": "address",
          "name": "tokenAddress",
          "type": "address"
        }
      ],
      "name": "acceptsToken",
      "outputs": [
        {
          "internalType": "bool",
          "name": "",
          "type": "bool"
        }
      ],
      "stateMutability": "view",
      "type": "function"
    },
    {
      "inputs": [],
      "name": "active",
      "outputs": [
        {
          "internalType": "bool",
          "name": "",
          "type": "bool"
        }
      ],
      "stateMutability": "view",
      "type": "function"
    },
    {
      "inputs": [
        {
          "internalType": "string",
          "name": "bankName",
          "type": "string"
        },
        {
          "internalType": "address",
          "name": "bankAdmin",
          "type": "address"
        }
      ],
      "name": "addBankAdmin",
      "outputs": [],
      "stateMutability": "nonpayable",
      "type": "function"
    },
    {
      "inputs": [
        {
          "internalType": "string",
          "name": "bankName",
          "type": "string"
        }
      ],
      "name": "bankExists",
      "outputs": [
        {
          "internalType": "bool",
          "name": "",
          "type": "bool"
        }
      ],
      "stateMutability": "view",
      "type": "function"
    },
    {
      "inputs": [
        {
          "internalType": "string",
          "name": "bankName",
          "type": "string"
        }
      ],
      "name": "bankIsEmpty",
      "outputs": [
        {
          "internalType": "bool",
          "name": "",
          "type": "bool"
        }
      ],
      "stateMutability": "view",
      "type": "function"
    },
    {
      "inputs": [
        {
          "internalType": "bytes32",
          "name": "shard",
          "type": "bytes32"
        }
      ],
      "name": "cancelSale",
      "outputs": [],
      "stateMutability": "nonpayable",
      "type": "function"
    },
    {
      "inputs": [
        {
          "internalType": "bytes32",
          "name": "shard",
          "type": "bytes32"
        },
        {
          "internalType": "uint256",
          "name": "dividend",
          "type": "uint256"
        }
      ],
      "name": "claimDividend",
      "outputs": [],
      "stateMutability": "nonpayable",
      "type": "function"
    },
    {
      "inputs": [
        {
          "internalType": "address",
          "name": "tokenAddress",
          "type": "address"
        }
      ],
      "name": "claimLiquid",
      "outputs": [],
      "stateMutability": "nonpayable",
      "type": "function"
    },
    {
      "inputs": [
        {
          "internalType": "string",
          "name": "bankName",
          "type": "string"
        },
        {
          "internalType": "address",
          "name": "bankAdmin",
          "type": "address"
        }
      ],
      "name": "createBank",
      "outputs": [],
      "stateMutability": "nonpayable",
      "type": "function"
    },
    {
      "inputs": [
        {
          "internalType": "string",
          "name": "bankName",
          "type": "string"
        }
      ],
      "name": "deleteBank",
      "outputs": [],
      "stateMutability": "nonpayable",
      "type": "function"
    },
    {
      "inputs": [
        {
          "internalType": "uint256",
          "name": "dividend",
          "type": "uint256"
        }
      ],
      "name": "dissolveDividend",
      "outputs": [],
      "stateMutability": "nonpayable",
      "type": "function"
    },
    {
      "inputs": [
        {
          "internalType": "uint256",
          "name": "dividend",
          "type": "uint256"
        }
      ],
      "name": "dividendExists",
      "outputs": [
        {
          "internalType": "bool",
          "name": "",
          "type": "bool"
        }
      ],
      "stateMutability": "view",
      "type": "function"
    },
    {
      "inputs": [
        {
          "internalType": "string",
          "name": "bankName",
          "type": "string"
        },
        {
          "internalType": "address",
          "name": "tokenAddress",
          "type": "address"
        }
      ],
      "name": "getBankBalance",
      "outputs": [
        {
          "internalType": "uint256",
          "name": "",
          "type": "uint256"
        }
      ],
      "stateMutability": "view",
      "type": "function"
    },
    {
      "inputs": [],
      "name": "getCurrentClock",
      "outputs": [
        {
          "internalType": "uint256",
          "name": "",
          "type": "uint256"
        }
      ],
      "stateMutability": "view",
      "type": "function"
    },
    {
      "inputs": [
        {
          "internalType": "uint256",
          "name": "dividend",
          "type": "uint256"
        }
      ],
      "name": "getDividendResidual",
      "outputs": [
        {
          "internalType": "uint256",
          "name": "",
          "type": "uint256"
        }
      ],
      "stateMutability": "view",
      "type": "function"
    },
    {
      "inputs": [
        {
          "internalType": "uint256",
          "name": "dividend",
          "type": "uint256"
        }
      ],
      "name": "getDividendToken",
      "outputs": [
        {
          "internalType": "address",
          "name": "",
          "type": "address"
        }
      ],
      "stateMutability": "view",
      "type": "function"
    },
    {
      "inputs": [
        {
          "internalType": "uint256",
          "name": "dividend",
          "type": "uint256"
        }
      ],
      "name": "getDividendValue",
      "outputs": [
        {
          "internalType": "uint256",
          "name": "",
          "type": "uint256"
        }
      ],
      "stateMutability": "view",
      "type": "function"
    },
    {
      "inputs": [
        {
          "internalType": "address",
          "name": "tokenAddress",
          "type": "address"
        }
      ],
      "name": "getLiquidResidual",
      "outputs": [
        {
          "internalType": "uint256",
          "name": "",
          "type": "uint256"
        }
      ],
      "stateMutability": "view",
      "type": "function"
    },
    {
      "inputs": [
        {
          "internalType": "bytes32",
          "name": "shard",
          "type": "bytes32"
        }
      ],
      "name": "getShardExpirationClock",
      "outputs": [
        {
          "internalType": "uint256",
          "name": "",
          "type": "uint256"
        }
      ],
      "stateMutability": "view",
      "type": "function"
    },
    {
      "inputs": [
        {
          "internalType": "bytes32",
          "name": "shard",
          "type": "bytes32"
        }
      ],
      "name": "getShardSalePrice",
      "outputs": [
        {
          "internalType": "uint256",
          "name": "",
          "type": "uint256"
        }
      ],
      "stateMutability": "view",
      "type": "function"
    },
    {
      "inputs": [
        {
          "internalType": "string",
          "name": "permitName",
          "type": "string"
        },
        {
          "internalType": "address",
          "name": "account",
          "type": "address"
        }
      ],
      "name": "hasPermit",
      "outputs": [
        {
          "internalType": "bool",
          "name": "",
          "type": "bool"
        }
      ],
      "stateMutability": "view",
      "type": "function"
    },
    {
      "inputs": [
        {
          "internalType": "bytes32",
          "name": "",
          "type": "bytes32"
        }
      ],
      "name": "infoByShard",
      "outputs": [
        {
          "internalType": "uint256",
          "name": "amount",
          "type": "uint256"
        },
        {
          "internalType": "address",
          "name": "owner",
          "type": "address"
        },
        {
          "internalType": "uint256",
          "name": "creationClock",
          "type": "uint256"
        }
      ],
      "stateMutability": "view",
      "type": "function"
    },
    {
      "inputs": [
        {
          "internalType": "string",
          "name": "bankName",
          "type": "string"
        },
        {
          "internalType": "address",
          "name": "account",
          "type": "address"
        }
      ],
      "name": "isBankAdmin",
      "outputs": [
        {
          "internalType": "bool",
          "name": "",
          "type": "bool"
        }
      ],
      "stateMutability": "view",
      "type": "function"
    },
    {
      "inputs": [
        {
          "internalType": "string",
          "name": "permitName",
          "type": "string"
        },
        {
          "internalType": "address",
          "name": "account",
          "type": "address"
        }
      ],
      "name": "isPermitAdmin",
      "outputs": [
        {
          "internalType": "bool",
          "name": "",
          "type": "bool"
        }
      ],
      "stateMutability": "view",
      "type": "function"
    },
    {
      "inputs": [
        {
          "internalType": "address",
          "name": "account",
          "type": "address"
        }
      ],
      "name": "isShardHolder",
      "outputs": [
        {
          "internalType": "bool",
          "name": "",
          "type": "bool"
        }
      ],
      "stateMutability": "view",
      "type": "function"
    },
    {
      "inputs": [
        {
          "internalType": "bytes32",
          "name": "shard",
          "type": "bytes32"
        }
      ],
      "name": "isValidShard",
      "outputs": [
        {
          "internalType": "bool",
          "name": "",
          "type": "bool"
        }
      ],
      "stateMutability": "view",
      "type": "function"
    },
    {
      "inputs": [
        {
          "internalType": "string",
          "name": "bankName",
          "type": "string"
        },
        {
          "internalType": "address",
          "name": "tokenAddress",
          "type": "address"
        },
        {
          "internalType": "uint256",
          "name": "value",
          "type": "uint256"
        }
      ],
      "name": "issueDividend",
      "outputs": [],
      "stateMutability": "nonpayable",
      "type": "function"
    },
    {
      "inputs": [
        {
          "internalType": "uint256",
          "name": "amount",
          "type": "uint256"
        },
        {
          "internalType": "address",
          "name": "tokenAddress",
          "type": "address"
        },
        {
          "internalType": "uint256",
          "name": "price",
          "type": "uint256"
        },
        {
          "internalType": "address",
          "name": "to",
          "type": "address"
        }
      ],
      "name": "issueShards",
      "outputs": [],
      "stateMutability": "nonpayable",
      "type": "function"
    },
    {
      "inputs": [
        {
          "internalType": "address",
          "name": "",
          "type": "address"
        }
      ],
      "name": "liquid",
      "outputs": [
        {
          "internalType": "uint256",
          "name": "",
          "type": "uint256"
        }
      ],
      "stateMutability": "view",
      "type": "function"
    },
    {
      "inputs": [],
      "name": "liquidize",
      "outputs": [],
      "stateMutability": "nonpayable",
      "type": "function"
    },
    {
      "inputs": [
        {
          "internalType": "string",
          "name": "fromBankName",
          "type": "string"
        },
        {
          "internalType": "string",
          "name": "toBankName",
          "type": "string"
        },
        {
          "internalType": "address",
          "name": "tokenAddress",
          "type": "address"
        },
        {
          "internalType": "uint256",
          "name": "value",
          "type": "uint256"
        }
      ],
      "name": "moveToken",
      "outputs": [],
      "stateMutability": "nonpayable",
      "type": "function"
    },
    {
      "inputs": [
        {
          "internalType": "bytes32",
          "name": "shard",
          "type": "bytes32"
        },
        {
          "internalType": "uint256",
          "name": "amount",
          "type": "uint256"
        }
      ],
      "name": "purchase",
      "outputs": [],
      "stateMutability": "payable",
      "type": "function"
    },
    {
      "inputs": [
        {
          "internalType": "bytes32",
          "name": "shard",
          "type": "bytes32"
        },
        {
          "internalType": "uint256",
          "name": "amount",
          "type": "uint256"
        },
        {
          "internalType": "address",
          "name": "tokenAddress",
          "type": "address"
        },
        {
          "internalType": "uint256",
          "name": "price",
          "type": "uint256"
        },
        {
          "internalType": "address",
          "name": "to",
          "type": "address"
        }
      ],
      "name": "putForSale",
      "outputs": [],
      "stateMutability": "nonpayable",
      "type": "function"
    },
    {
      "inputs": [
        {
          "internalType": "address",
          "name": "tokenAddress",
          "type": "address"
        },
        {
          "internalType": "uint256",
          "name": "value",
          "type": "uint256"
        }
      ],
      "name": "receiveToken",
      "outputs": [],
      "stateMutability": "nonpayable",
      "type": "function"
    },
    {
      "inputs": [
        {
          "internalType": "address",
          "name": "tokenAddress",
          "type": "address"
        }
      ],
      "name": "registerTokenAddress",
      "outputs": [],
      "stateMutability": "nonpayable",
      "type": "function"
    },
    {
      "inputs": [
        {
          "internalType": "string",
          "name": "bankName",
          "type": "string"
        },
        {
          "internalType": "address",
          "name": "bankAdmin",
          "type": "address"
        }
      ],
      "name": "removeBankAdmin",
      "outputs": [],
      "stateMutability": "nonpayable",
      "type": "function"
    },
    {
      "inputs": [
        {
          "internalType": "string",
          "name": "permitName",
          "type": "string"
        },
        {
          "internalType": "enum Administrable.PermitState",
          "name": "newState",
          "type": "uint8"
        }
      ],
      "name": "setBasePermit",
      "outputs": [],
      "stateMutability": "nonpayable",
      "type": "function"
    },
    {
      "inputs": [
        {
          "internalType": "bool",
          "name": "newState",
          "type": "bool"
        }
      ],
      "name": "setNonShardHolderState",
      "outputs": [],
      "stateMutability": "nonpayable",
      "type": "function"
    },
    {
      "inputs": [
        {
          "internalType": "string",
          "name": "permitName",
          "type": "string"
        },
        {
          "internalType": "address",
          "name": "account",
          "type": "address"
        },
        {
          "internalType": "enum Administrable.PermitState",
          "name": "newState",
          "type": "uint8"
        }
      ],
      "name": "setPermit",
      "outputs": [],
      "stateMutability": "nonpayable",
      "type": "function"
    },
    {
      "inputs": [
        {
          "internalType": "address",
          "name": "",
          "type": "address"
        }
      ],
      "name": "shardByOwner",
      "outputs": [
        {
          "internalType": "bytes32",
          "name": "",
          "type": "bytes32"
        }
      ],
      "stateMutability": "view",
      "type": "function"
    },
    {
      "inputs": [
        {
          "internalType": "bytes32",
          "name": "shard",
          "type": "bytes32"
        },
        {
          "internalType": "uint256",
          "name": "atClock",
          "type": "uint256"
        }
      ],
      "name": "shardExisted",
      "outputs": [
        {
          "internalType": "bool",
          "name": "",
          "type": "bool"
        }
      ],
      "stateMutability": "view",
      "type": "function"
    },
    {
      "inputs": [
        {
          "internalType": "bytes32",
          "name": "senderShard",
          "type": "bytes32"
        },
        {
          "internalType": "uint256",
          "name": "amount",
          "type": "uint256"
        },
        {
          "internalType": "address",
          "name": "to",
          "type": "address"
        }
      ],
      "name": "split",
      "outputs": [],
      "stateMutability": "nonpayable",
      "type": "function"
    },
    {
      "inputs": [
        {
          "internalType": "uint256",
          "name": "",
          "type": "uint256"
        }
      ],
      "name": "totalShardAmountByClock",
      "outputs": [
        {
          "internalType": "uint256",
          "name": "",
          "type": "uint256"
        }
      ],
      "stateMutability": "view",
      "type": "function"
    },
    {
      "inputs": [
        {
          "internalType": "string",
          "name": "bankName",
          "type": "string"
        },
        {
          "internalType": "address",
          "name": "tokenAddress",
          "type": "address"
        },
        {
          "internalType": "uint256",
          "name": "value",
          "type": "uint256"
        },
        {
          "internalType": "address",
          "name": "to",
          "type": "address"
        }
      ],
      "name": "transferTokenFromBank",
      "outputs": [],
      "stateMutability": "nonpayable",
      "type": "function"
    },
    {
      "inputs": [
        {
          "internalType": "address",
          "name": "tokenAddress",
          "type": "address"
        }
      ],
      "name": "unregisterTokenAddress",
      "outputs": [],
      "stateMutability": "nonpayable",
      "type": "function"
    },
    {
      "stateMutability": "payable",
      "type": "receive"
    }
  ],
  "bytecode": "6080604052600080553480156200001557600080fd5b5060405162004ce538038062004ce583398101604081905262000038916200055a565b80806200004881336000620001d0565b60008054815260026020908152604091829020929092556001805460ff1916811790558051808201909152600481526336b0b4b760e11b9181019190915262000093915033620002fe565b604080518082019091526003815262734e5360e81b6020820152620000bb9033600262000440565b620000e960405180604001604052806002815260200161695360f01b8152503360026200044060201b60201c565b62000117604051806040016040528060028152602001611a5160f21b8152503360026200044060201b60201c565b6200014560405180604001604052806002815260200161191160f21b8152503360026200044060201b60201c565b620001736040518060400160405280600281526020016136a160f11b8152503360026200044060201b60201c565b620001a1604051806040016040528060028152602001616c4560f01b8152503360026200044060201b60201c565b6040805180820190915260038152621b505560ea1b6020820152620001c99033600262000440565b50620006ee565b600083116200020b5760405162461bcd60e51b815260206004820152600260248201526129ad60f11b60448201526064015b60405180910390fd5b6040516001600160601b0319606084901b1660208201526034810182905260009060540160408051808303601f1901815282825280516020918201206001600160a01b03878116600081815260048552858120849055838152600785528581206000199055606080880187528b88528588018381528888018b8152868452600388529288902098518955516001890180546001600160a01b0319169190951617909355516002909601959095558351828152928301949094529181018590529092507f90e88e994885f1cdd31d3393f0b012e817804fc9d2adef69d0d7e5053d1e29ad910160405180910390a150505050565b6001805460ff161515146200033b5760405162461bcd60e51b8152602060048201526002602482015261115360f21b604482015260640162000202565b620003468262000528565b156200037a5760405162461bcd60e51b8152602060048201526002602482015261414560f01b604482015260640162000202565b60016010836040516200038e91906200059a565b90815260408051602092819003830181206001600160a01b038616600090815293529120805460ff191692151592909217909155600190600d90620003d59085906200059a565b90815260405160209181900382018120805460ff19169315159390931790925560008051602062004cc58339815191529162000416918591859101620005e6565b60408051601f19818403018152908290526200043491339062000612565b60405180910390a15050565b6001805460ff161515146200047d5760405162461bcd60e51b8152602060048201526002602482015261115360f21b604482015260640162000202565b806011846040516200049091906200059a565b90815260408051602092819003830190206001600160a01b038616600090815292529020805460ff19166001836002811115620004d157620004d162000657565b021790555060008051602062004cc5833981519152838383604051602001620004fd939291906200066d565b60408051601f19818403018152908290526200051b913390620006c0565b60405180910390a1505050565b6000600d826040516200053c91906200059a565b9081526040519081900360200190205460ff16151560011492915050565b6000602082840312156200056d57600080fd5b5051919050565b60005b838110156200059157818101518382015260200162000577565b50506000910152565b60008251620005ae81846020870162000574565b9190910192915050565b60008151808452620005d281602086016020860162000574565b601f01601f19169290920160200192915050565b604081526000620005fb6040830185620005b8565b905060018060a01b03831660208301529392505050565b60608152600260608201526131a160f11b608082015260a0602082015260006200064060a0830185620005b8565b905060018060a01b03831660408301529392505050565b634e487b7160e01b600052602160045260246000fd5b606081526000620006826060830186620005b8565b6001600160a01b0385166020840152905060038310620006b257634e487b7160e01b600052602160045260246000fd5b826040830152949350505050565b606081526002606082015261073560f41b608082015260a0602082015260006200064060a0830185620005b8565b6145c780620006fe6000396000f3fe6080604052600436106102765760003560e01c8063859d9fd51161014f578063b4af7d59116100c1578063e123182b1161007a578063e123182b14610868578063e1c34c1f1461087b578063e6778fce1461089b578063efae89f8146108c8578063f7aae621146108f5578063fd06636b1461091557600080fd5b8063b4af7d5914610753578063bcedb2e014610773578063c4802eb2146107db578063c5438a5514610808578063db5dc9b714610828578063de9d68051461084857600080fd5b80639995b9a9116101135780639995b9a91461068e578063a1916aef146106be578063a80aed76146106de578063a902780f146106fe578063a907b6c514610713578063b2cb78ab1461073357600080fd5b8063859d9fd5146105de578063868399a5146105fe5780638786df6a1461061e5780639211b7b31461063e57806397235a1e1461066e57600080fd5b8063350546d8116101e85780634c46360b116101ac5780634c46360b146104c35780635beeff33146104f357806362748dcc1461052057806363879c0b1461056e5780637b7854931461058e57806381005219146105be57600080fd5b8063350546d81461040d578063354cd1351461042d578063384fe2b51461044d5780633baf28f81461046d5780633dbeaa541461048d57600080fd5b8063169936b41161023a578063169936b41461034d578063236566421461036d578063258e4d9f1461038d5780632dec7cd2146103ad5780632ef37926146103cd5780632f2e9a2a146103ed57600080fd5b806302fb0c5e1461028e578063036f3aec146102bd57806305c558f5146102dd578063066792d2146102f25780630bea89851461032d57600080fd5b366102895761028760003433610935565b005b600080fd5b34801561029a57600080fd5b506001546102a89060ff1681565b60405190151581526020015b60405180910390f35b3480156102c957600080fd5b506102876102d8366004613bbc565b610a83565b3480156102e957600080fd5b50610287610b23565b3480156102fe57600080fd5b5061031f61030d366004613c0a565b60026020526000908152604090205481565b6040519081526020016102b4565b34801561033957600080fd5b50610287610348366004613c0a565b610b5c565b34801561035957600080fd5b506102a8610368366004613c23565b610c19565b34801561037957600080fd5b50610287610388366004613c0a565b610c77565b34801561039957600080fd5b506102a86103a8366004613c77565b610cb2565b3480156103b957600080fd5b5061031f6103c8366004613c77565b610d67565b3480156103d957600080fd5b506102876103e8366004613c77565b610da8565b3480156103f957600080fd5b50610287610408366004613c77565b610e06565b34801561041957600080fd5b50610287610428366004613cbc565b610e58565b34801561043957600080fd5b50610287610448366004613cd7565b611032565b34801561045957600080fd5b50610287610468366004613c23565b611268565b34801561047957600080fd5b50610287610488366004613cf9565b6112b3565b34801561049957600080fd5b5061031f6104a8366004613cbc565b6001600160a01b03166000908152600a602052604090205490565b3480156104cf57600080fd5b5061031f6104de366004613c0a565b60009081526014602052604090206001015490565b3480156104ff57600080fd5b5061031f61050e366004613cbc565b60096020526000908152604090205481565b34801561052c57600080fd5b5061055661053b366004613c0a565b6000908152601460205260409020546001600160a01b031690565b6040516001600160a01b0390911681526020016102b4565b34801561057a57600080fd5b50610287610589366004613d3f565b6112f4565b34801561059a57600080fd5b5061031f6105a9366004613c0a565b60009081526006602052604090206002015490565b3480156105ca57600080fd5b506102876105d9366004613da4565b611341565b3480156105ea57600080fd5b506102876105f9366004613cbc565b6113b8565b34801561060a57600080fd5b506102a8610619366004613cbc565b611416565b34801561062a57600080fd5b50610287610639366004613cbc565b61144b565b34801561064a57600080fd5b506102a8610659366004613c0a565b60009081526013602052604090205460ff1690565b34801561067a57600080fd5b50610287610689366004613dc1565b6114a9565b34801561069a57600080fd5b506102a86106a9366004613c0a565b60008054918152600760205260409020541190565b3480156106ca57600080fd5b506102876106d9366004613deb565b6114b3565b3480156106ea57600080fd5b506102a86106f9366004613c77565b6114d3565b34801561070a57600080fd5b5060005461031f565b34801561071f57600080fd5b5061028761072e366004613c77565b61153e565b34801561073f57600080fd5b5061028761074e366004613e67565b6115d4565b34801561075f57600080fd5b506102a861076e366004613c23565b611650565b34801561077f57600080fd5b506107b861078e366004613c0a565b60036020526000908152604090208054600182015460029092015490916001600160a01b03169083565b604080519384526001600160a01b039092166020840152908201526060016102b4565b3480156107e757600080fd5b5061031f6107f6366004613cbc565b60046020526000908152604090205481565b34801561081457600080fd5b50610287610823366004613e9c565b611680565b34801561083457600080fd5b506102a8610843366004613c77565b611777565b34801561085457600080fd5b50610287610863366004613ef1565b61182d565b610287610876366004613cd7565b61184d565b34801561088757600080fd5b506102a8610896366004613cbc565b611e40565b3480156108a757600080fd5b5061031f6108b6366004613c0a565b60009081526015602052604090205490565b3480156108d457600080fd5b5061031f6108e3366004613c0a565b60009081526007602052604090205490565b34801561090157600080fd5b50610287610910366004613f39565b611e72565b34801561092157600080fd5b506102a8610930366004613cd7565b611ef0565b610940838383611f21565b6040516336b0b4b760e11b8152600f9060040190815260408051602092819003830190206001600160a01b0386166000908152925290205415801561098d57506001600160a01b03831615155b156109d0576001600e6040516109ad906336b0b4b760e11b815260040190565b908152602001604051809103902060008282546109ca9190613f9f565b90915550505b81600f6040516109ea906336b0b4b760e11b815260040190565b90815260200160405180910390206000856001600160a01b03166001600160a01b031681526020019081526020016000206000828254610a2a9190613f9f565b9091555050604080516001600160a01b038086168252602082018590528316918101919091527fde49bbe8e448cdfa40e6fa0d22592be9a03b28ba746527635dbe5235416659cf906060015b60405180910390a1505050565b81610a8e8133610cb2565b610a9757600080fd5b816002811115610aa957610aa9613fb2565b601284604051610ab99190613fec565b9081526040519081900360200190205460ff166002811115610add57610add613fb2565b03610b145760405162461bcd60e51b8152602060048201526002602482015261415360f01b60448201526064015b60405180910390fd5b610b1e8383611f76565b505050565b604051806040016040528060028152602001616c4560f01b815250610b488133611777565b610b5157600080fd5b610b59612025565b50565b60008181526003602052604090206001015481906001600160a01b03163314610b975760405162461bcd60e51b8152600401610b0b90614008565b81610bb18160008054918152600760205260409020541190565b610bcd5760405162461bcd60e51b8152600401610b0b90614024565b60008381526005602052604090205460ff16610c105760405162461bcd60e51b81526020600482015260026024820152614e5360f01b6044820152606401610b0b565b610b1e83612077565b6000600e82604051610c2b9190613fec565b9081526020016040518091039020546000148015610c715750600f82604051610c549190613fec565b908152604080516020928190038301902060008080529252902054155b92915050565b60405180604001604052806002815260200161191160f21b815250610c9c8133611777565b610ca557600080fd5b610cae826120c6565b5050565b6000610cbd82611e40565b80610cca5750600c5460ff165b610cd657506000610c71565b6002601184604051610ce89190613fec565b90815260408051602092819003830190206001600160a01b0386166000908152925290205460ff166002811115610d2157610d21613fb2565b1480610d6057506002601284604051610d3a9190613fec565b9081526040519081900360200190205460ff166002811115610d5e57610d5e613fb2565b145b9392505050565b6000600f83604051610d799190613fec565b908152604080519182900360209081019092206001600160a01b03851660009081529252902054905092915050565b6040518060400160405280600281526020016136a160f11b815250610dcd8133611777565b610dd657600080fd5b6001805460ff16151514610dfc5760405162461bcd60e51b8152600401610b0b90614040565b610b1e83836121b1565b6040518060400160405280600281526020016136a160f11b815250610e2b8133610cb2565b610e3457600080fd5b82610e3f81336114d3565b610e4857600080fd5b610e5284846122c3565b50505050565b610e6133611e40565b610e925760405162461bcd60e51b81526020600482015260026024820152610aa960f31b6044820152606401610b0b565b610e9b81611416565b610eb75760405162461bcd60e51b8152600401610b0b9061405c565b336000908152600460209081526040808320546001600160a01b0385168452600b83528184208185529092529091205460ff1615610f1c5760405162461bcd60e51b8152602060048201526002602482015261414360f01b6044820152606401610b0b565b6001600160a01b0382166000818152600b602090815260408083208584528252808320805460ff191660011790558254835260028252808320548584526003835281842054948452600990925282205491929091610f7a9190614078565b610f84919061408f565b905080600003610fb05760405162461bcd60e51b81526020600482015260006024820152604401610b0b565b6001600160a01b0383166000908152600a602052604081208054839290610fd89084906140b1565b90915550610fe9905083823361237f565b604080516001600160a01b03851681526020810183905233918101919091527f1397d005a56670cbe383372bd4743eaa779af18164d00dc6d12a6659418e1bbf90606001610a76565b60008281526003602052604090206001015482906001600160a01b0316331461106d5760405162461bcd60e51b8152600401610b0b90614008565b600082815260136020526040902054829060ff1661108a57600080fd5b6001805460ff161515146110b05760405162461bcd60e51b8152600401610b0b90614040565b6110ba8484611ef0565b6110ec5760405162461bcd60e51b81526020600482015260036024820152622720a360e91b6044820152606401610b0b565b600083815260166020908152604080832087845290915290205460ff161561113b5760405162461bcd60e51b8152602060048201526002602482015261414360f01b6044820152606401610b0b565b60008381526016602090815260408083208784528252808320805460ff19166001908117909155835484526002835281842054888552600384528285205488865260149094529184200154909161119191614078565b61119b919061408f565b9050806000036111d35760405162461bcd60e51b815260206004820152600360248201526244545360e81b6044820152606401610b0b565b600084815260156020526040812080548392906111f19084906140b1565b9091555050600084815260146020526040902054611219906001600160a01b0316823361237f565b60408051602081018690529081018290526000805160206145728339815191529060600160408051601f19818403018152908290526112599133906140f0565b60405180910390a15050505050565b6040518060400160405280600281526020016136a160f11b81525061128d8133610cb2565b61129657600080fd5b816112a181336114d3565b6112aa57600080fd5b610b1e83612624565b60405180604001604052806002815260200161695360f01b8152506112d88133611777565b6112e157600080fd5b6112ed858585856127a9565b5050505050565b604051806040016040528060028152602001611a5160f21b8152506113198133611777565b61132257600080fd5b8361132d81336114d3565b61133657600080fd5b6112ed858585612828565b60405180604001604052806003815260200162734e5360e81b8152506113678133611777565b61137057600080fd5b600c5482151560ff9091161515036113af5760405162461bcd60e51b8152602060048201526002602482015261415360f01b6044820152606401610b0b565b610cae82612a32565b604051806040016040528060038152602001621b505560ea1b8152506113de8133611777565b6113e757600080fd5b6001805460ff1615151461140d5760405162461bcd60e51b8152600401610b0b90614040565b610cae82612aa2565b6001600160a01b03811660009081526008602052604081205460ff16151560011480610c715750506001600160a01b03161590565b604051806040016040528060038152602001621b505560ea1b8152506114718133611777565b61147a57600080fd5b6001805460ff161515146114a05760405162461bcd60e51b8152600401610b0b90614040565b610cae82612aeb565b610cae8282612b34565b836114be81336114d3565b6114c757600080fd5b6112ed85858585612c87565b60006010836040516114e59190613fec565b908152604080519182900360209081019092206001600160a01b0385166000908152925290205460ff16151560011480610d605750610d606040518060400160405280600281526020016136a160f11b81525083610cb2565b6040518060400160405280600281526020016136a160f11b8152506115638133611777565b61156c57600080fd5b8261157781336114d3565b61158057600080fd5b61158983611e40565b806115965750600c5460ff165b6115ca5760405162461bcd60e51b81526020600482015260056024820152644e53484e4160d81b6044820152606401610b0b565b610e528484612f1b565b60008381526003602052604090206001015483906001600160a01b0316331461160f5760405162461bcd60e51b8152600401610b0b90614008565b836116298160008054918152600760205260409020541190565b6116455760405162461bcd60e51b8152600401610b0b90614024565b6112ed858585613019565b6000600d826040516116629190613fec565b9081526040519081900360200190205460ff16151560011492915050565b8261168b8133610cb2565b61169457600080fd5b61169d83611e40565b806116aa5750600c5460ff165b6116de5760405162461bcd60e51b81526020600482015260056024820152644e53484e4160d81b6044820152606401610b0b565b8160028111156116f0576116f0613fb2565b6011856040516117009190613fec565b90815260408051602092819003830190206001600160a01b0387166000908152925290205460ff16600281111561173957611739613fb2565b0361176c5760405162461bcd60e51b815260206004820152600360248201526204148560ec1b6044820152606401610b0b565b610e5284848461323c565b600061178282611e40565b8061178f5750600c5460ff165b61179b57506000610c71565b60016011846040516117ad9190613fec565b90815260408051602092819003830190206001600160a01b0386166000908152925290205460ff1660028111156117e6576117e6613fb2565b101580610d60575060016012846040516118009190613fec565b9081526040519081900360200190205460ff16600281111561182457611824613fb2565b10159392505050565b8361183881336114d3565b61184157600080fd5b6112ed858585856132f6565b816118678160008054918152600760205260409020541190565b6118835760405162461bcd60e51b8152600401610b0b90614024565b60008381526005602052604090205460ff166118c65760405162461bcd60e51b81526020600482015260026024820152614e5360f01b6044820152606401610b0b565b60008381526006602052604081205490036119085760405162461bcd60e51b8152602060048201526002602482015261455360f01b6044820152606401610b0b565b60008381526006602052604090205482111561194b5760405162461bcd60e51b8152602060048201526002602482015261455360f01b6044820152606401610b0b565b6000838152600660205260409020600301546001600160a01b031633148061198b57506000838152600660205260409020600301546001600160a01b0316155b6119bc5760405162461bcd60e51b815260206004820152600260248201526129a960f11b6044820152606401610b0b565b6119c583612077565b6000838152600660205260408120600201546119e19084614078565b905060008060006119f68460196103e8613498565b91945092509050611a078183613f9f565b6000888152600660205260409020600101549092506001600160a01b0316611b665783341015611a5e5760405162461bcd60e51b8152602060048201526002602482015261494560f01b6044820152606401610b0b565b6040516000907349a71890aea5a751e30e740c504f2e9683f347bc9085908381818185875af1925050503d8060008114611ab4576040519150601f19603f3d011682016040523d82523d6000602084013e611ab9565b606091505b505060008981526003602052604080822060010154905192935090916001600160a01b039091169085908381818185875af1925050503d8060008114611b1b576040519150601f19603f3d011682016040523d82523d6000602084013e611b20565b606091505b50509050808015611b2e5750815b611b5f5760405162461bcd60e51b81526020600482015260026024820152612a2360f11b6044820152606401610b0b565b5050611cec565b60008781526006602052604090819020600101549051636eb1769f60e11b81523360048201523060248201526001600160a01b03909116908590829063dd62ed3e90604401602060405180830381865afa158015611bc8573d6000803e3d6000fd5b505050506040513d601f19601f82011682018060405250810190611bec9190614133565b1015611c0a5760405162461bcd60e51b8152600401610b0b9061414c565b6040516323b872dd60e01b81523360048201527349a71890aea5a751e30e740c504f2e9683f347bc6024820152604481018590526001600160a01b038216906323b872dd906064016020604051808303816000875af1158015611c71573d6000803e3d6000fd5b505050506040513d601f19601f82011682018060405250810190611c959190614168565b611cb15760405162461bcd60e51b8152600401610b0b90614185565b60008881526003602090815260408083206001908101546006909352922090910154611cea916001600160a01b0390811691168561350c565b505b611cf7878733613019565b600087815260036020526040902060010154306001600160a01b0390911603611d3f576000805481526002602052604081208054889290611d39908490613f9f565b90915550505b600087815260066020908152604091829020600181015460029091015483518b81529283018a905233838501526001600160a01b039091166060830152608082015290517f443732a78c29282934211eae7aa500dd12db85d4dd795dbcda5f94ee19a67e4f9181900360a00190a16000878152600660205260409020548614611e37576000878152600360209081526040808320600101546001600160a01b0316835260048252808320548a8452600690925290912054611e379190611e069089906140b1565b60008a8152600660205260409020600181015460028201546003909201546001600160a01b039182169291166135bb565b50505050505050565b6001600160a01b038116600090815260046020526040812054610c719060008054918152600760205260409020541190565b60008581526003602052604090206001015485906001600160a01b03163314611ead5760405162461bcd60e51b8152600401610b0b90614008565b85611ec78160008054918152600760205260409020541190565b611ee35760405162461bcd60e51b8152600401610b0b90614024565b611e3787878787876135bb565b6000828152600360205260408120600201548210801590610d60575050600091825260076020526040909120541190565b6001600160a01b03831660009081526009602052604081208054849290611f49908490613f9f565b90915550506001600160a01b0383166000908152600a602052604081208054849290610a2a908490613f9f565b6001805460ff16151514611f9c5760405162461bcd60e51b8152600401610b0b90614040565b80601283604051611fad9190613fec565b908152604051908190036020019020805460ff19166001836002811115611fd657611fd6613fb2565b02179055506000805160206145728339815191528282604051602001611ffd9291906141c3565b60408051601f19818403018152908290526120199133906141e5565b60405180910390a15050565b61202d61376e565b604080516060808252600290820152616c4560f01b608082015260a060208201819052600090820152338183015290516000805160206145728339815191529181900360c00190a1565b806120918160008054918152600760205260409020541190565b6120ad5760405162461bcd60e51b8152600401610b0b90614024565b506000908152600560205260409020805460ff19169055565b600081815260136020526040902054819060ff166120e357600080fd5b6001805460ff161515146121095760405162461bcd60e51b8152600401610b0b90614040565b6000828152601360209081526040808320805460ff19169055601582528083205481516336b0b4b760e11b8152600f6004820152825190819003602401902086855260148452828520546001600160a01b031685529092528220805491929091612174908490613f9f565b90915550506040805160208101849052600080516020614572833981519152910160408051601f1981840301815290829052612019913390614211565b6001805460ff161515146121d75760405162461bcd60e51b8152600401610b0b90614040565b6121e082611650565b156122125760405162461bcd60e51b8152602060048201526002602482015261414560f01b6044820152606401610b0b565b60016010836040516122249190613fec565b90815260408051602092819003830181206001600160a01b038616600090815293529120805460ff191692151592909217909155600190600d90612269908590613fec565b90815260405160209181900382018120805460ff191693151593909317909255600080516020614572833981519152916122a791859185910161423d565b60408051601f1981840301815290829052612019913390614267565b6001805460ff161515146122e95760405162461bcd60e51b8152600401610b0b90614040565b6122f382826114d3565b6122fc57600080fd5b600060108360405161230e9190613fec565b90815260408051602092819003830181206001600160a01b038616600090815290845291909120805460ff1916931515939093179092556000805160206145728339815191529161236391859185910161423d565b60408051601f1981840301815290829052612019913390614293565b6001600160a01b0383166000908152600960205260409020548211156123b75760405162461bcd60e51b8152600401610b0b9061414c565b6001600160a01b0383166123d4576123cf82826137a0565b61260f565b60405163095ea7b360e01b81526001600160a01b0382811660048301526024820184905284919082169063095ea7b3906044016020604051808303816000875af1158015612426573d6000803e3d6000fd5b505050506040513d601f19601f8201168201806040525081019061244a9190614168565b61247b5760405162461bcd60e51b81526020600482015260026024820152614e4160f01b6044820152606401610b0b565b6001600160a01b0382163b1561257e57604051634b91ad0f60e11b81526001600160a01b038581166004830152602482018590528316906397235a1e90604401600060405180830381600087803b1580156124d557600080fd5b505af19250505080156124e6575060015b6125795760405163a9059cbb60e01b81526001600160a01b0383811660048301526024820185905282169063a9059cbb906044016020604051808303816000875af1158015612539573d6000803e3d6000fd5b505050506040513d601f19601f8201168201806040525081019061255d9190614168565b6125795760405162461bcd60e51b8152600401610b0b90614185565b61260d565b60405163a9059cbb60e01b81526001600160a01b0383811660048301526024820185905282169063a9059cbb906044016020604051808303816000875af11580156125cd573d6000803e3d6000fd5b505050506040513d601f19601f820116820180604052508101906125f19190614168565b61260d5760405162461bcd60e51b8152600401610b0b90614185565b505b60015460ff1615610b1e57610b1e8383613828565b6001805460ff1615151461264a5760405162461bcd60e51b8152600401610b0b90614040565b61265381611650565b6126855760405162461bcd60e51b815260206004820152600360248201526255422160e81b6044820152606401610b0b565b60408051808201909152600481526336b0b4b760e11b6020918201528151908201207f471dfab0756edc981c75dd3188ccd700755407f7d3bedf452610f7a1e240d659016126fa5760405162461bcd60e51b815260206004820152600260248201526126a160f11b6044820152606401610b0b565b61270381610c19565b6127345760405162461bcd60e51b8152602060048201526002602482015261424560f01b6044820152606401610b0b565b6000600d826040516127469190613fec565b90815260405160209181900382018120805460ff19169315159390931790925560008051602061457283398151915291612782918491016142bf565b60408051601f198184030181529082905261279e9133906142d2565b60405180910390a150565b6127b283611416565b6127bb57600080fd5b3060009081526004602052604081205490546127d79190613886565b306000908152600460209081526040808320548352600390915290205461280b906128029086613f9f565b306000546138f1565b30600090815260046020526040902054610e5290858585856135bb565b6001805460ff1615151461284e5760405162461bcd60e51b8152600401610b0b90614040565b600054604051600f90612862908690613fec565b90815260408051602092819003830190206001600160a01b038616600090815292529020548211156128a65760405162461bcd60e51b8152600401610b0b906142fe565b81600f856040516128b79190613fec565b90815260200160405180910390206000856001600160a01b03166001600160a01b0316815260200190815260200160002060008282546128f791906140b1565b9091555050604051600f9061290d908690613fec565b90815260408051602092819003830190206001600160a01b0386166000908152925290205415801561294757506001600160a01b03831615155b15612981576001600e8560405161295e9190613fec565b9081526020016040518091039020600082825461297b91906140b1565b90915550505b6040805180820182526001600160a01b0385811682526020808301868152600086815260148352858120945185546001600160a01b031916941693909317845551600193840155601581528382208690556013815290839020805460ff1916909217909155905160008051602061457283398151915291612a08918791879187910161431a565b60408051601f1981840301815290829052612a24913390614348565b60405180910390a150505050565b6001805460ff16151514612a585760405162461bcd60e51b8152600401610b0b90614040565b600c805460ff1916821515908117909155604080516020810192909252600080516020614572833981519152910160408051601f198184030181529082905261279e913390614374565b612aab81613a15565b604080516001600160a01b0383166020820152600080516020614572833981519152910160408051601f198184030181529082905261279e9133906143a1565b612af481613aa6565b604080516001600160a01b0383166020820152600080516020614572833981519152910160408051601f198184030181529082905261279e9133906143cd565b612b3d82611416565b612b595760405162461bcd60e51b8152600401610b0b9061405c565b604051636eb1769f60e11b8152336004820152306024820152829082906001600160a01b0383169063dd62ed3e90604401602060405180830381865afa158015612ba7573d6000803e3d6000fd5b505050506040513d601f19601f82011682018060405250810190612bcb9190614133565b1015612be95760405162461bcd60e51b8152600401610b0b9061414c565b6040516323b872dd60e01b8152336004820152306024820152604481018390526001600160a01b038216906323b872dd906064016020604051808303816000875af1158015612c3c573d6000803e3d6000fd5b505050506040513d601f19601f82011682018060405250810190612c609190614168565b612c7c5760405162461bcd60e51b8152600401610b0b90614185565b610b1e838333610935565b82612c9181611650565b612cc35760405162461bcd60e51b8152602060048201526003602482015262444e4560e81b6044820152606401610b0b565b6001805460ff16151514612ce95760405162461bcd60e51b8152600401610b0b90614040565b600f85604051612cf99190613fec565b90815260408051602092819003830190206001600160a01b03861660009081529252902054821115612d3d5760405162461bcd60e51b8152600401610b0b906142fe565b81600f86604051612d4e9190613fec565b90815260200160405180910390206000856001600160a01b03166001600160a01b031681526020019081526020016000206000828254612d8e91906140b1565b90915550506001600160a01b03831615612e8257600f85604051612db29190613fec565b90815260408051602092819003830190206001600160a01b038616600090815292528120549003612e12576001600e86604051612def9190613fec565b90815260200160405180910390206000828254612e0c91906140b1565b90915550505b600f84604051612e229190613fec565b90815260408051602092819003830190206001600160a01b038616600090815292528120549003612e82576001600e85604051612e5f9190613fec565b90815260200160405180910390206000828254612e7c9190613f9f565b90915550505b81600f85604051612e939190613fec565b90815260200160405180910390206000856001600160a01b03166001600160a01b031681526020019081526020016000206000828254612ed39190613f9f565b909155505060405160008051602061457283398151915290612eff9087908790879087906020016143f9565b60408051601f198184030181529082905261125991339061443b565b6001805460ff16151514612f415760405162461bcd60e51b8152600401610b0b90614040565b612f656040518060400160405280600281526020016136a160f11b81525082611777565b612f965760405162461bcd60e51b815260206004820152600260248201526104e560f41b6044820152606401610b0b565b6001601083604051612fa89190613fec565b90815260408051602092819003830181206001600160a01b038616600090815290845291909120805460ff19169315159390931790925560008051602061457283398151915291612ffd91859185910161423d565b60408051601f1981840301815290829052612019913390614467565b826130338160008054918152600760205260409020541190565b61304f5760405162461bcd60e51b8152600401610b0b90614024565b6001805460ff161515146130755760405162461bcd60e51b8152600401610b0b90614040565b60008481526003602052604090205483106130b75760405162461bcd60e51b8152602060048201526002602482015261494160f01b6044820152606401610b0b565b6130c082611e40565b1561312f576001600160a01b038216600090815260046020908152604080832054835260039091528120546130f59085613f9f565b905061310481846000546138f1565b6001600160a01b03831660009081526004602052604081205490546131299190613886565b5061313c565b61313c83836000546138f1565b61314884600054613886565b6000848152600360205260408120546131629085906140b1565b905080156131955760008581526003602052604081206001015490546131959183916001600160a01b03909116906138f1565b60408051868152602081018690526001600160a01b03851681830152600060608201819052608082015290517f443732a78c29282934211eae7aa500dd12db85d4dd795dbcda5f94ee19a67e4f9181900360a00190a1506000805480825260026020819052604083205492909161320d906001613f9f565b81526020019081526020016000208190555060008081548092919061323190614493565b919050555050505050565b6001805460ff161515146132625760405162461bcd60e51b8152600401610b0b90614040565b806011846040516132739190613fec565b90815260408051602092819003830190206001600160a01b038616600090815292529020805460ff191660018360028111156132b1576132b1613fb2565b02179055506000805160206145728339815191528383836040516020016132da939291906144ac565b60408051601f1981840301815290829052610a769133906144dd565b6001805460ff1615151461331c5760405162461bcd60e51b8152600401610b0b90614040565b600f8460405161332c9190613fec565b90815260408051602092819003830190206001600160a01b038616600090815292529020548211156133705760405162461bcd60e51b8152600401610b0b906142fe565b61337b83838361237f565b81600f8560405161338c9190613fec565b90815260200160405180910390206000856001600160a01b03166001600160a01b0316815260200190815260200160002060008282546133cc91906140b1565b9091555050604051600f906133e2908690613fec565b90815260408051602092819003830190206001600160a01b0386166000908152925290205415801561341c57506001600160a01b03831615155b15613456576001600e856040516134339190613fec565b9081526020016040518091039020600082825461345091906140b1565b90915550505b6000805160206145728339815191528484848460405160200161347c9493929190614509565b60408051601f1981840301815290829052612a24913390614545565b60008060008484116134a957600080fd5b6000846134b68789614078565b6134c0919061408f565b90506000856134cf88826140b1565b6134d9908a614078565b6134e3919061408f565b905081816134f18183613f9f565b6134fb908b6140b1565b945094509450505093509350939050565b306001600160a01b0384160361352657610b1e8282612b34565b6040516323b872dd60e01b81523360048201523060248201526044810182905282906001600160a01b038216906323b872dd906064016020604051808303816000875af115801561357b573d6000803e3d6000fd5b505050506040513d601f19601f8201168201806040525081019061359f9190614168565b610e525760405162461bcd60e51b8152600401610b0b90614185565b846135d58160008054918152600760205260409020541190565b6135f15760405162461bcd60e51b8152600401610b0b90614024565b6001805460ff161515146136175760405162461bcd60e51b8152600401610b0b90614040565b60008681526005602052604090205460ff161561363357600080fd5b6000868152600360205260409020548511156136765760405162461bcd60e51b8152602060048201526002602482015261494160f01b6044820152606401610b0b565b604080516080810182528681526001600160a01b0380871660208084019182528385018881528784166060860190815260008d815260068452878120965187559351600180880180549288166001600160a01b031993841617905592516002880155905160039096018054969095169516949094179092556005909152829020805460ff19169091179055517f4126de2c73b6b69d46d3290ee98241c5c18ce39a61b29e4e91f877a6d56bb2139061375e908890889088908890889094855260208501939093526001600160a01b039182166040850152606084015216608082015260a00190565b60405180910390a1505050505050565b6001805460ff161515146137945760405162461bcd60e51b8152600401610b0b90614040565b6001805460ff19169055565b6000816001600160a01b03168360405160006040518083038185875af1925050503d80600081146137ed576040519150601f19603f3d011682016040523d82523d6000602084013e6137f2565b606091505b5050905080610b1e5760405162461bcd60e51b81526020600482015260026024820152612a2360f11b6044820152606401610b0b565b6001600160a01b038216600090815260096020526040812080548392906138509084906140b1565b90915550506001600160a01b0382166000908152600a60205260408120805483929061387d9084906140b1565b90915550505050565b6000828152600360209081526040808320600101546001600160a01b0316835260048252808320839055848352600782529182902083905581518481529081018390527fa3deafde27c3ffde83f038b337d8b0405d225455ae09fbed6a211ef4ee465f4f9101612019565b600083116139265760405162461bcd60e51b815260206004820152600260248201526129ad60f11b6044820152606401610b0b565b6040516bffffffffffffffffffffffff19606084901b1660208201526034810182905260009060540160408051808303601f1901815282825280516020918201206001600160a01b03878116600081815260048552858120849055838152600785528581206000199055606080880187528b88528588018381528888018b8152868452600388529288902098518955516001890180546001600160a01b0319169190951617909355516002909601959095558351828152928301949094529181018590529092507f90e88e994885f1cdd31d3393f0b012e817804fc9d2adef69d0d7e5053d1e29ad9101612a24565b613a1e81611416565b613a3a5760405162461bcd60e51b8152600401610b0b9061405c565b6001600160a01b03811660009081526009602052604090205415613a855760405162461bcd60e51b8152602060048201526002602482015261272d60f11b6044820152606401610b0b565b6001600160a01b03166000908152600860205260409020805460ff19169055565b613aaf81611416565b15613ae15760405162461bcd60e51b815260206004820152600260248201526120a960f11b6044820152606401610b0b565b6001600160a01b03166000908152600860205260409020805460ff19166001179055565b634e487b7160e01b600052604160045260246000fd5b600082601f830112613b2c57600080fd5b813567ffffffffffffffff80821115613b4757613b47613b05565b604051601f8301601f19908116603f01168101908282118183101715613b6f57613b6f613b05565b81604052838152866020858801011115613b8857600080fd5b836020870160208301376000602085830101528094505050505092915050565b803560038110613bb757600080fd5b919050565b60008060408385031215613bcf57600080fd5b823567ffffffffffffffff811115613be657600080fd5b613bf285828601613b1b565b925050613c0160208401613ba8565b90509250929050565b600060208284031215613c1c57600080fd5b5035919050565b600060208284031215613c3557600080fd5b813567ffffffffffffffff811115613c4c57600080fd5b613c5884828501613b1b565b949350505050565b80356001600160a01b0381168114613bb757600080fd5b60008060408385031215613c8a57600080fd5b823567ffffffffffffffff811115613ca157600080fd5b613cad85828601613b1b565b925050613c0160208401613c60565b600060208284031215613cce57600080fd5b610d6082613c60565b60008060408385031215613cea57600080fd5b50508035926020909101359150565b60008060008060808587031215613d0f57600080fd5b84359350613d1f60208601613c60565b925060408501359150613d3460608601613c60565b905092959194509250565b600080600060608486031215613d5457600080fd5b833567ffffffffffffffff811115613d6b57600080fd5b613d7786828701613b1b565b935050613d8660208501613c60565b9150604084013590509250925092565b8015158114610b5957600080fd5b600060208284031215613db657600080fd5b8135610d6081613d96565b60008060408385031215613dd457600080fd5b613ddd83613c60565b946020939093013593505050565b60008060008060808587031215613e0157600080fd5b843567ffffffffffffffff80821115613e1957600080fd5b613e2588838901613b1b565b95506020870135915080821115613e3b57600080fd5b50613e4887828801613b1b565b935050613e5760408601613c60565b9396929550929360600135925050565b600080600060608486031215613e7c57600080fd5b8335925060208401359150613e9360408501613c60565b90509250925092565b600080600060608486031215613eb157600080fd5b833567ffffffffffffffff811115613ec857600080fd5b613ed486828701613b1b565b935050613ee360208501613c60565b9150613e9360408501613ba8565b60008060008060808587031215613f0757600080fd5b843567ffffffffffffffff811115613f1e57600080fd5b613f2a87828801613b1b565b945050613d1f60208601613c60565b600080600080600060a08688031215613f5157600080fd5b8535945060208601359350613f6860408701613c60565b925060608601359150613f7d60808701613c60565b90509295509295909350565b634e487b7160e01b600052601160045260246000fd5b80820180821115610c7157610c71613f89565b634e487b7160e01b600052602160045260246000fd5b60005b83811015613fe3578181015183820152602001613fcb565b50506000910152565b60008251613ffe818460208701613fc8565b9190910192915050565b60208082526002908201526109e960f31b604082015260600190565b602080825260029082015261555360f01b604082015260600190565b602080825260029082015261115360f21b604082015260600190565b602080825260029082015261155560f21b604082015260600190565b8082028115828204841417610c7157610c71613f89565b6000826140ac57634e487b7160e01b600052601260045260246000fd5b500490565b81810381811115610c7157610c71613f89565b600081518084526140dc816020860160208601613fc8565b601f01601f19169290920160200192915050565b60608152600260608201526118d160f21b608082015260a06020820152600061411c60a08301856140c4565b905060018060a01b03831660408301529392505050565b60006020828403121561414557600080fd5b5051919050565b602080825260029082015261125560f21b604082015260600190565b60006020828403121561417a57600080fd5b8151610d6081613d96565b602080825260029082015261139560f21b604082015260600190565b600381106141bf57634e487b7160e01b600052602160045260246000fd5b9052565b6040815260006141d660408301856140c4565b9050610d6060208301846141a1565b60608152600260608201526139a160f11b608082015260a06020820152600061411c60a08301856140c4565b606081526002606082015261191160f21b608082015260a06020820152600061411c60a08301856140c4565b60408152600061425060408301856140c4565b905060018060a01b03831660208301529392505050565b60608152600260608201526131a160f11b608082015260a06020820152600061411c60a08301856140c4565b606081526002606082015261724160f01b608082015260a06020820152600061411c60a08301856140c4565b602081526000610d6060208301846140c4565b606081526002606082015261322160f11b608082015260a06020820152600061411c60a08301856140c4565b60208082526002908201526124a360f11b604082015260600190565b60608152600061432d60608301866140c4565b6001600160a01b039490941660208301525060400152919050565b6060815260026060820152611a5160f21b608082015260a06020820152600061411c60a08301856140c4565b606081526003606082015262734e5360e81b608082015260a06020820152600061411c60a08301856140c4565b6060815260026060820152611d5560f21b608082015260a06020820152600061411c60a08301856140c4565b6060815260026060820152611c9560f21b608082015260a06020820152600061411c60a08301856140c4565b60808152600061440c60808301876140c4565b828103602084015261441e81876140c4565b6001600160a01b0395909516604084015250506060015292915050565b6060815260026060820152611b5560f21b608082015260a06020820152600061411c60a08301856140c4565b606081526002606082015261614160f01b608082015260a06020820152600061411c60a08301856140c4565b6000600182016144a5576144a5613f89565b5060010190565b6060815260006144bf60608301866140c4565b6001600160a01b03851660208401529050613c5860408301846141a1565b606081526002606082015261073560f41b608082015260a06020820152600061411c60a08301856140c4565b60808152600061451c60808301876140c4565b6001600160a01b0395861660208401526040830194909452509216606090920191909152919050565b6060815260026060820152611d1560f21b608082015260a06020820152600061411c60a08301856140c456fe43cd76b5eb40da9ea5eb31a199f443f7cf7955ec280bc5981a2e3445c79c9055a264697066735822122052e91f409411f6121372a07745a074bce8287231923db513fb3a3cdd1ab2450e64736f6c6343000813003343cd76b5eb40da9ea5eb31a199f443f7cf7955ec280bc5981a2e3445c79c9055",
  "bytecodeSha1": "da39a3ee5e6b4b0d3255bfef95601890afd80709",
  "compiler": {
    "evm_version": "istanbul",
    "optimizer": {
      "enabled": true,
      "runs": 200
    },
    "version": "0.8.19+commit.7dd6d404"
  },
  "contractName": "Administrable",
  "language": "Solidity",
  "natspec": {
    "author": "Frederik W. L. Christoffersen",
    "kind": "dev",
    "methods": {
      "acceptsToken(address)": {
        "notice": "Returns a boolean value, stating if the given token address is registered as acceptable or not.",
        "params": {
          "tokenAddress": "The address of the token to be checked for."
        }
      },
      "active()": {
        "notice": "Boolean stating if the Shardable is active and tradeable or not."
      },
      "addBankAdmin(string,address)": {
        "notice": "Adds a new given administrator to a given Bank.",
        "params": {
          "bankAdmin": "The address of the new Bank administrator to be added.",
          "bankName": "The name of the Bank to which the new administrator is to be added."
        }
      },
      "bankExists(string)": {
        "notice": "Returns a boolean stating if a given Bank exists.",
        "params": {
          "bankName": "The name of the Bank to be checked for."
        }
      },
      "bankIsEmpty(string)": {
        "notice": "Returns a boolean stating if a given Bank is empty.",
        "params": {
          "bankName": "The name of the Bank to be checked for."
        }
      },
      "cancelSale(bytes32)": {
        "notice": "Cancels a sell of a given shard.",
        "params": {
          "shard": "The shard to be put off sale."
        }
      },
      "claimDividend(bytes32,uint256)": {
        "notice": "Claims the value of an existing dividend corresponding to the shard holder's respective shard fraction.",
        "params": {
          "dividend": "The dividend to be claimed.",
          "shard": "The shard that was valid at the clock of the Dividend creation"
        }
      },
      "claimLiquid(address)": {
        "notice": "Claims the owed liquid value corresponding to the shard holder's respective shard fraction after the entity has been liquidized/dissolved.",
        "params": {
          "tokenAddress": "The address of the token to be claimed."
        }
      },
      "constructor": {
        "notice": "Constructor function connecting the Idea entity and creating a Bank with an administrator."
      },
      "createBank(string,address)": {
        "notice": "Creates a new Bank.",
        "params": {
          "bankAdmin": "The address of the first Bank administrator.",
          "bankName": "The name of the Bank to be created."
        }
      },
      "deleteBank(string)": {
        "notice": "Deletes a given Bank.",
        "params": {
          "bankName": "The name of the Bank to be deleted."
        }
      },
      "dissolveDividend(uint256)": {
        "notice": "Dissolves a Dividend and moves its last contents to the 'main' Bank.",
        "params": {
          "dividend": "The Dividend to be dissolved."
        }
      },
      "dividendExists(uint256)": {
        "notice": "Returns a boolean stating if a given Dividend exists.",
        "params": {
          "dividend": "The Dividend to be checked for."
        }
      },
      "getBankBalance(string,address)": {
        "notice": "Returns the balance of a bank.",
        "params": {
          "bankName": "The name of the Bank.",
          "tokenAddress": "The address of the token balance to check for."
        }
      },
      "getCurrentClock()": {
        "notice": "Returns the clock."
      },
      "getDividendResidual(uint256)": {
        "notice": "Returns the residual value of a dividend.",
        "params": {
          "dividend": "The Dividend to be checked for."
        }
      },
      "getDividendToken(uint256)": {
        "notice": "Returns the token of a dividend.",
        "params": {
          "dividend": "The Dividend to be checked for."
        }
      },
      "getDividendValue(uint256)": {
        "notice": "Returns the total value of a dividend.",
        "params": {
          "dividend": "The Dividend to be checked for."
        }
      },
      "getLiquidResidual(address)": {
        "notice": "Returns the residual of a liquid, after liquidization/inactivation.",
        "params": {
          "tokenAddress": "The address of the token to be checked for."
        }
      },
      "getShardExpirationClock(bytes32)": {
        "notice": "Returns the clock, in which a shard will or has expired."
      },
      "getShardSalePrice(bytes32)": {
        "notice": "Returns the price, at which a shard is for sale."
      },
      "hasPermit(string,address)": {
        "notice": "Returns a boolean stating if a given address has a given permit or not.",
        "params": {
          "account": "The address to be checked for.",
          "permitName": "The name of the permit to be checked for."
        }
      },
      "infoByShard(bytes32)": {
        "notice": "Mapping pointing to related info of a Shard given the bytes of a unique Shard instance."
      },
      "isBankAdmin(string,address)": {
        "notice": "Returns a boolean stating if a given address is an admin of a given bank.",
        "params": {
          "account": "The address to be checked for.",
          "bankName": "The name of the Bank to be checked for."
        }
      },
      "isPermitAdmin(string,address)": {
        "notice": "Returns a boolean stating if a given address is an admin of a given permit or not.",
        "params": {
          "account": "The address to be checked for.",
          "permitName": "The name of the permit to be checked for."
        }
      },
      "isShardHolder(address)": {
        "notice": "Checks if address is a shard holder - at least a partial owner of the contract.",
        "params": {
          "account": "The address to be checked for."
        }
      },
      "isValidShard(bytes32)": {
        "notice": "Returns a boolean stating if a given shard is currently valid or not.",
        "params": {
          "shard": "The shard, whose validity is to be checked for."
        }
      },
      "issueDividend(string,address,uint256)": {
        "notice": "Creates and issues a Dividend (to all current shareholders) of a token amount from a given Bank.",
        "params": {
          "bankName": "The name of the Bank to issue the Dividend from.",
          "tokenAddress": "The address of the token to make up the Dividend.",
          "value": "The value/amount of the token to be issued in the Dividend."
        }
      },
      "issueShards(uint256,address,uint256,address)": {
        "notice": "Issues new shards and puts them for sale.",
        "params": {
          "price": "The price per token.",
          "to": "The specifically set buyer of the issued shards. Open to anyone, if address(0).",
          "tokenAddress": "The token address the shards are put for sale for."
        }
      },
      "liquid(address)": {
        "notice": "Mapping pointing to a value/amount given the address of an ERC20 token."
      },
      "liquidize()": {
        "notice": "Liquidizes and dissolves the entity. This cannot be undone."
      },
      "moveToken(string,string,address,uint256)": {
        "notice": "Internally moves a token from one Bank to another.",
        "params": {
          "fromBankName": "The name of the Bank from which the token is to be moved.",
          "toBankName": "The name of the Bank to which the token is to be moved.",
          "tokenAddress": "The address of the token to be moved.",
          "value": "The value/amount of the token to be moved."
        }
      },
      "purchase(bytes32,uint256)": {
        "details": "If the purchase is with tokens (ie. tokenAddress != 0x0), first call 'token.approve(Shardable.address, salePrice);'",
        "notice": "Purchases a listed Shard for sale.",
        "params": {
          "shard": "The shard of which a fraction will be purchased."
        }
      },
      "putForSale(bytes32,uint256,address,uint256,address)": {
        "notice": "Puts a given shard for sale.",
        "params": {
          "amount": "Amount of the Shard to be put for sale.",
          "price": "The amount which the Shard is for sale as. The token address being the valuta.",
          "shard": "The shard to be put for sale.",
          "to": "The specifically set buyer of the sale. Open to anyone, if address(0).",
          "tokenAddress": "The address of the token that is accepted when purchasing. A value of 0x0 represents ether."
        }
      },
      "receiveToken(address,uint256)": {
        "notice": "Receives a specified token and adds it to the registry. Make sure 'token.approve()' is called beforehand.",
        "params": {
          "tokenAddress": "The address of the token to be received.",
          "value": "The value/amount of the token to be received."
        }
      },
      "registerTokenAddress(address)": {
        "notice": "Adds a token address to the registry. Also approves any future receipts of said token unless removed again.",
        "params": {
          "tokenAddress": "The token address to be registered."
        }
      },
      "removeBankAdmin(string,address)": {
        "notice": "Removes a given administrator of a given Bank.",
        "params": {
          "bankAdmin": "The address of the current Bank administrator to be removed.",
          "bankName": "The name of the Bank from which the given administrator is to be removed."
        }
      },
      "setBasePermit(string,uint8)": {
        "notice": "Sets the state of a specified base permit.",
        "params": {
          "newState": "The new base Permit State to be applied.",
          "permitName": "The name of the base permit, whose state is to be set."
        }
      },
      "setNonShardHolderState(bool)": {
        "notice": "Sets the state of the Non Shard Holders.",
        "params": {
          "newState": "The Boolean state to be applied."
        }
      },
      "setPermit(string,address,uint8)": {
        "notice": "Sets the state of a specified permit of a given address.",
        "params": {
          "account": "The address, whose permit state is to be set.",
          "newState": "The new Permit State to be applied.",
          "permitName": "The name of the permit, whose state is to be set."
        }
      },
      "shardByOwner(address)": {
        "notice": "Mapping pointing to a currently valid shard given the address of its owner."
      },
      "shardExisted(bytes32,uint256)": {
        "notice": "Returns a boolean stating if the given shard was valid at a given clock.",
        "params": {
          "atClock": "The clock to be checked for.",
          "shard": "The shard, whose validity is to be checked for."
        }
      },
      "split(bytes32,uint256,address)": {
        "notice": "Splits a currently valid shard into two new ones. One is assigned to the receiver. The rest to the previous owner.",
        "params": {
          "amount": "Amount, which will be subtracted from the previous shard and sent to the receiver.",
          "senderShard": "The shard to be split.",
          "to": "The receiver of the new Shard."
        }
      },
      "totalShardAmountByClock(uint256)": {
        "notice": "Mapping pointing to integer value representing the total number of shards issued, provided the clock. Used as the denominator to represent a relative shard fraction."
      },
      "transferTokenFromBank(string,address,uint256,address)": {
        "notice": "Transfers a token bankAdmin a Bank to a recipient.",
        "params": {
          "bankName": "The name of the Bank from which the token is to be transferred.",
          "to": "The recipient of the token to be transferred.",
          "tokenAddress": "The address of the token to be transferred.",
          "value": "The value/amount of the token to be transferred."
        }
      },
      "unregisterTokenAddress(address)": {
        "notice": "Removes a token address from the registry. Also cancels any future receipts of said token unless added again.",
        "params": {
          "tokenAddress": "The token address to be unregistered."
        }
      }
    },
    "notice": "This contract adds administrability via permits and internally closed money supplies.",
    "stateVariables": {
      "permits": {
        "custom:illustration": "permits[permitName][address] == PermitState.authorized || PermitState.administrator;"
      }
    },
    "title": "An extension of the Idea providing an administrable interface.",
    "version": 1
  },
  "opcodes": "PUSH1 0x80 PUSH1 0x40 MSTORE PUSH1 0x4 CALLDATASIZE LT PUSH2 0x276 JUMPI PUSH1 0x0 CALLDATALOAD PUSH1 0xE0 SHR DUP1 PUSH4 0x859D9FD5 GT PUSH2 0x14F JUMPI DUP1 PUSH4 0xB4AF7D59 GT PUSH2 0xC1 JUMPI DUP1 PUSH4 0xE123182B GT PUSH2 0x7A JUMPI DUP1 PUSH4 0xE123182B EQ PUSH2 0x868 JUMPI DUP1 PUSH4 0xE1C34C1F EQ PUSH2 0x87B JUMPI DUP1 PUSH4 0xE6778FCE EQ PUSH2 0x89B JUMPI DUP1 PUSH4 0xEFAE89F8 EQ PUSH2 0x8C8 JUMPI DUP1 PUSH4 0xF7AAE621 EQ PUSH2 0x8F5 JUMPI DUP1 PUSH4 0xFD06636B EQ PUSH2 0x915 JUMPI PUSH1 0x0 DUP1 REVERT JUMPDEST DUP1 PUSH4 0xB4AF7D59 EQ PUSH2 0x753 JUMPI DUP1 PUSH4 0xBCEDB2E0 EQ PUSH2 0x773 JUMPI DUP1 PUSH4 0xC4802EB2 EQ PUSH2 0x7DB JUMPI DUP1 PUSH4 0xC5438A55 EQ PUSH2 0x808 JUMPI DUP1 PUSH4 0xDB5DC9B7 EQ PUSH2 0x828 JUMPI DUP1 PUSH4 0xDE9D6805 EQ PUSH2 0x848 JUMPI PUSH1 0x0 DUP1 REVERT JUMPDEST DUP1 PUSH4 0x9995B9A9 GT PUSH2 0x113 JUMPI DUP1 PUSH4 0x9995B9A9 EQ PUSH2 0x68E JUMPI DUP1 PUSH4 0xA1916AEF EQ PUSH2 0x6BE JUMPI DUP1 PUSH4 0xA80AED76 EQ PUSH2 0x6DE JUMPI DUP1 PUSH4 0xA902780F EQ PUSH2 0x6FE JUMPI DUP1 PUSH4 0xA907B6C5 EQ PUSH2 0x713 JUMPI DUP1 PUSH4 0xB2CB78AB EQ PUSH2 0x733 JUMPI PUSH1 0x0 DUP1 REVERT JUMPDEST DUP1 PUSH4 0x859D9FD5 EQ PUSH2 0x5DE JUMPI DUP1 PUSH4 0x868399A5 EQ PUSH2 0x5FE JUMPI DUP1 PUSH4 0x8786DF6A EQ PUSH2 0x61E JUMPI DUP1 PUSH4 0x9211B7B3 EQ PUSH2 0x63E JUMPI DUP1 PUSH4 0x97235A1E EQ PUSH2 0x66E JUMPI PUSH1 0x0 DUP1 REVERT JUMPDEST DUP1 PUSH4 0x350546D8 GT PUSH2 0x1E8 JUMPI DUP1 PUSH4 0x4C46360B GT PUSH2 0x1AC JUMPI DUP1 PUSH4 0x4C46360B EQ PUSH2 0x4C3 JUMPI DUP1 PUSH4 0x5BEEFF33 EQ PUSH2 0x4F3 JUMPI DUP1 PUSH4 0x62748DCC EQ PUSH2 0x520 JUMPI DUP1 PUSH4 0x63879C0B EQ PUSH2 0x56E JUMPI DUP1 PUSH4 0x7B785493 EQ PUSH2 0x58E JUMPI DUP1 PUSH4 0x81005219 EQ PUSH2 0x5BE JUMPI PUSH1 0x0 DUP1 REVERT JUMPDEST DUP1 PUSH4 0x350546D8 EQ PUSH2 0x40D JUMPI DUP1 PUSH4 0x354CD135 EQ PUSH2 0x42D JUMPI DUP1 PUSH4 0x384FE2B5 EQ PUSH2 0x44D JUMPI DUP1 PUSH4 0x3BAF28F8 EQ PUSH2 0x46D JUMPI DUP1 PUSH4 0x3DBEAA54 EQ PUSH2 0x48D JUMPI PUSH1 0x0 DUP1 REVERT JUMPDEST DUP1 PUSH4 0x169936B4 GT PUSH2 0x23A JUMPI DUP1 PUSH4 0x169936B4 EQ PUSH2 0x34D JUMPI DUP1 PUSH4 0x23656642 EQ PUSH2 0x36D JUMPI DUP1 PUSH4 0x258E4D9F EQ PUSH2 0x38D JUMPI DUP1 PUSH4 0x2DEC7CD2 EQ PUSH2 0x3AD JUMPI DUP1 PUSH4 0x2EF37926 EQ PUSH2 0x3CD JUMPI DUP1 PUSH4 0x2F2E9A2A EQ PUSH2 0x3ED JUMPI PUSH1 0x0 DUP1 REVERT JUMPDEST DUP1 PUSH4 0x2FB0C5E EQ PUSH2 0x28E JUMPI DUP1 PUSH4 0x36F3AEC EQ PUSH2 0x2BD JUMPI DUP1 PUSH4 0x5C558F5 EQ PUSH2 0x2DD JUMPI DUP1 PUSH4 0x66792D2 EQ PUSH2 0x2F2 JUMPI DUP1 PUSH4 0xBEA8985 EQ PUSH2 0x32D JUMPI PUSH1 0x0 DUP1 REVERT JUMPDEST CALLDATASIZE PUSH2 0x289 JUMPI PUSH2 0x287 PUSH1 0x0 CALLVALUE CALLER PUSH2 0x935 JUMP JUMPDEST STOP JUMPDEST PUSH1 0x0 DUP1 REVERT JUMPDEST CALLVALUE DUP1 ISZERO PUSH2 0x29A JUMPI PUSH1 0x0 DUP1 REVERT JUMPDEST POP PUSH1 0x1 SLOAD PUSH2 0x2A8 SWAP1 PUSH1 0xFF AND DUP2 JUMP JUMPDEST PUSH1 0x40 MLOAD SWAP1 ISZERO ISZERO DUP2 MSTORE PUSH1 0x20 ADD JUMPDEST PUSH1 0x40 MLOAD DUP1 SWAP2 SUB SWAP1 RETURN JUMPDEST CALLVALUE DUP1 ISZERO PUSH2 0x2C9 JUMPI PUSH1 0x0 DUP1 REVERT JUMPDEST POP PUSH2 0x287 PUSH2 0x2D8 CALLDATASIZE PUSH1 0x4 PUSH2 0x3BBC JUMP JUMPDEST PUSH2 0xA83 JUMP JUMPDEST CALLVALUE DUP1 ISZERO PUSH2 0x2E9 JUMPI PUSH1 0x0 DUP1 REVERT JUMPDEST POP PUSH2 0x287 PUSH2 0xB23 JUMP JUMPDEST CALLVALUE DUP1 ISZERO PUSH2 0x2FE JUMPI PUSH1 0x0 DUP1 REVERT JUMPDEST POP PUSH2 0x31F PUSH2 0x30D CALLDATASIZE PUSH1 0x4 PUSH2 0x3C0A JUMP JUMPDEST PUSH1 0x2 PUSH1 0x20 MSTORE PUSH1 0x0 SWAP1 DUP2 MSTORE PUSH1 0x40 SWAP1 KECCAK256 SLOAD DUP2 JUMP JUMPDEST PUSH1 0x40 MLOAD SWAP1 DUP2 MSTORE PUSH1 0x20 ADD PUSH2 0x2B4 JUMP JUMPDEST CALLVALUE DUP1 ISZERO PUSH2 0x339 JUMPI PUSH1 0x0 DUP1 REVERT JUMPDEST POP PUSH2 0x287 PUSH2 0x348 CALLDATASIZE PUSH1 0x4 PUSH2 0x3C0A JUMP JUMPDEST PUSH2 0xB5C JUMP JUMPDEST CALLVALUE DUP1 ISZERO PUSH2 0x359 JUMPI PUSH1 0x0 DUP1 REVERT JUMPDEST POP PUSH2 0x2A8 PUSH2 0x368 CALLDATASIZE PUSH1 0x4 PUSH2 0x3C23 JUMP JUMPDEST PUSH2 0xC19 JUMP JUMPDEST CALLVALUE DUP1 ISZERO PUSH2 0x379 JUMPI PUSH1 0x0 DUP1 REVERT JUMPDEST POP PUSH2 0x287 PUSH2 0x388 CALLDATASIZE PUSH1 0x4 PUSH2 0x3C0A JUMP JUMPDEST PUSH2 0xC77 JUMP JUMPDEST CALLVALUE DUP1 ISZERO PUSH2 0x399 JUMPI PUSH1 0x0 DUP1 REVERT JUMPDEST POP PUSH2 0x2A8 PUSH2 0x3A8 CALLDATASIZE PUSH1 0x4 PUSH2 0x3C77 JUMP JUMPDEST PUSH2 0xCB2 JUMP JUMPDEST CALLVALUE DUP1 ISZERO PUSH2 0x3B9 JUMPI PUSH1 0x0 DUP1 REVERT JUMPDEST POP PUSH2 0x31F PUSH2 0x3C8 CALLDATASIZE PUSH1 0x4 PUSH2 0x3C77 JUMP JUMPDEST PUSH2 0xD67 JUMP JUMPDEST CALLVALUE DUP1 ISZERO PUSH2 0x3D9 JUMPI PUSH1 0x0 DUP1 REVERT JUMPDEST POP PUSH2 0x287 PUSH2 0x3E8 CALLDATASIZE PUSH1 0x4 PUSH2 0x3C77 JUMP JUMPDEST PUSH2 0xDA8 JUMP JUMPDEST CALLVALUE DUP1 ISZERO PUSH2 0x3F9 JUMPI PUSH1 0x0 DUP1 REVERT JUMPDEST POP PUSH2 0x287 PUSH2 0x408 CALLDATASIZE PUSH1 0x4 PUSH2 0x3C77 JUMP JUMPDEST PUSH2 0xE06 JUMP JUMPDEST CALLVALUE DUP1 ISZERO PUSH2 0x419 JUMPI PUSH1 0x0 DUP1 REVERT JUMPDEST POP PUSH2 0x287 PUSH2 0x428 CALLDATASIZE PUSH1 0x4 PUSH2 0x3CBC JUMP JUMPDEST PUSH2 0xE58 JUMP JUMPDEST CALLVALUE DUP1 ISZERO PUSH2 0x439 JUMPI PUSH1 0x0 DUP1 REVERT JUMPDEST POP PUSH2 0x287 PUSH2 0x448 CALLDATASIZE PUSH1 0x4 PUSH2 0x3CD7 JUMP JUMPDEST PUSH2 0x1032 JUMP JUMPDEST CALLVALUE DUP1 ISZERO PUSH2 0x459 JUMPI PUSH1 0x0 DUP1 REVERT JUMPDEST POP PUSH2 0x287 PUSH2 0x468 CALLDATASIZE PUSH1 0x4 PUSH2 0x3C23 JUMP JUMPDEST PUSH2 0x1268 JUMP JUMPDEST CALLVALUE DUP1 ISZERO PUSH2 0x479 JUMPI PUSH1 0x0 DUP1 REVERT JUMPDEST POP PUSH2 0x287 PUSH2 0x488 CALLDATASIZE PUSH1 0x4 PUSH2 0x3CF9 JUMP JUMPDEST PUSH2 0x12B3 JUMP JUMPDEST CALLVALUE DUP1 ISZERO PUSH2 0x499 JUMPI PUSH1 0x0 DUP1 REVERT JUMPDEST POP PUSH2 0x31F PUSH2 0x4A8 CALLDATASIZE PUSH1 0x4 PUSH2 0x3CBC JUMP JUMPDEST PUSH1 0x1 PUSH1 0x1 PUSH1 0xA0 SHL SUB AND PUSH1 0x0 SWAP1 DUP2 MSTORE PUSH1 0xA PUSH1 0x20 MSTORE PUSH1 0x40 SWAP1 KECCAK256 SLOAD SWAP1 JUMP JUMPDEST CALLVALUE DUP1 ISZERO PUSH2 0x4CF JUMPI PUSH1 0x0 DUP1 REVERT JUMPDEST POP PUSH2 0x31F PUSH2 0x4DE CALLDATASIZE PUSH1 0x4 PUSH2 0x3C0A JUMP JUMPDEST PUSH1 0x0 SWAP1 DUP2 MSTORE PUSH1 0x14 PUSH1 0x20 MSTORE PUSH1 0x40 SWAP1 KECCAK256 PUSH1 0x1 ADD SLOAD SWAP1 JUMP JUMPDEST CALLVALUE DUP1 ISZERO PUSH2 0x4FF JUMPI PUSH1 0x0 DUP1 REVERT JUMPDEST POP PUSH2 0x31F PUSH2 0x50E CALLDATASIZE PUSH1 0x4 PUSH2 0x3CBC JUMP JUMPDEST PUSH1 0x9 PUSH1 0x20 MSTORE PUSH1 0x0 SWAP1 DUP2 MSTORE PUSH1 0x40 SWAP1 KECCAK256 SLOAD DUP2 JUMP JUMPDEST CALLVALUE DUP1 ISZERO PUSH2 0x52C JUMPI PUSH1 0x0 DUP1 REVERT JUMPDEST POP PUSH2 0x556 PUSH2 0x53B CALLDATASIZE PUSH1 0x4 PUSH2 0x3C0A JUMP JUMPDEST PUSH1 0x0 SWAP1 DUP2 MSTORE PUSH1 0x14 PUSH1 0x20 MSTORE PUSH1 0x40 SWAP1 KECCAK256 SLOAD PUSH1 0x1 PUSH1 0x1 PUSH1 0xA0 SHL SUB AND SWAP1 JUMP JUMPDEST PUSH1 0x40 MLOAD PUSH1 0x1 PUSH1 0x1 PUSH1 0xA0 SHL SUB SWAP1 SWAP2 AND DUP2 MSTORE PUSH1 0x20 ADD PUSH2 0x2B4 JUMP JUMPDEST CALLVALUE DUP1 ISZERO PUSH2 0x57A JUMPI PUSH1 0x0 DUP1 REVERT JUMPDEST POP PUSH2 0x287 PUSH2 0x589 CALLDATASIZE PUSH1 0x4 PUSH2 0x3D3F JUMP JUMPDEST PUSH2 0x12F4 JUMP JUMPDEST CALLVALUE DUP1 ISZERO PUSH2 0x59A JUMPI PUSH1 0x0 DUP1 REVERT JUMPDEST POP PUSH2 0x31F PUSH2 0x5A9 CALLDATASIZE PUSH1 0x4 PUSH2 0x3C0A JUMP JUMPDEST PUSH1 0x0 SWAP1 DUP2 MSTORE PUSH1 0x6 PUSH1 0x20 MSTORE PUSH1 0x40 SWAP1 KECCAK256 PUSH1 0x2 ADD SLOAD SWAP1 JUMP JUMPDEST CALLVALUE DUP1 ISZERO PUSH2 0x5CA JUMPI PUSH1 0x0 DUP1 REVERT JUMPDEST POP PUSH2 0x287 PUSH2 0x5D9 CALLDATASIZE PUSH1 0x4 PUSH2 0x3DA4 JUMP JUMPDEST PUSH2 0x1341 JUMP JUMPDEST CALLVALUE DUP1 ISZERO PUSH2 0x5EA JUMPI PUSH1 0x0 DUP1 REVERT JUMPDEST POP PUSH2 0x287 PUSH2 0x5F9 CALLDATASIZE PUSH1 0x4 PUSH2 0x3CBC JUMP JUMPDEST PUSH2 0x13B8 JUMP JUMPDEST CALLVALUE DUP1 ISZERO PUSH2 0x60A JUMPI PUSH1 0x0 DUP1 REVERT JUMPDEST POP PUSH2 0x2A8 PUSH2 0x619 CALLDATASIZE PUSH1 0x4 PUSH2 0x3CBC JUMP JUMPDEST PUSH2 0x1416 JUMP JUMPDEST CALLVALUE DUP1 ISZERO PUSH2 0x62A JUMPI PUSH1 0x0 DUP1 REVERT JUMPDEST POP PUSH2 0x287 PUSH2 0x639 CALLDATASIZE PUSH1 0x4 PUSH2 0x3CBC JUMP JUMPDEST PUSH2 0x144B JUMP JUMPDEST CALLVALUE DUP1 ISZERO PUSH2 0x64A JUMPI PUSH1 0x0 DUP1 REVERT JUMPDEST POP PUSH2 0x2A8 PUSH2 0x659 CALLDATASIZE PUSH1 0x4 PUSH2 0x3C0A JUMP JUMPDEST PUSH1 0x0 SWAP1 DUP2 MSTORE PUSH1 0x13 PUSH1 0x20 MSTORE PUSH1 0x40 SWAP1 KECCAK256 SLOAD PUSH1 0xFF AND SWAP1 JUMP JUMPDEST CALLVALUE DUP1 ISZERO PUSH2 0x67A JUMPI PUSH1 0x0 DUP1 REVERT JUMPDEST POP PUSH2 0x287 PUSH2 0x689 CALLDATASIZE PUSH1 0x4 PUSH2 0x3DC1 JUMP JUMPDEST PUSH2 0x14A9 JUMP JUMPDEST CALLVALUE DUP1 ISZERO PUSH2 0x69A JUMPI PUSH1 0x0 DUP1 REVERT JUMPDEST POP PUSH2 0x2A8 PUSH2 0x6A9 CALLDATASIZE PUSH1 0x4 PUSH2 0x3C0A JUMP JUMPDEST PUSH1 0x0 DUP1 SLOAD SWAP2 DUP2 MSTORE PUSH1 0x7 PUSH1 0x20 MSTORE PUSH1 0x40 SWAP1 KECCAK256 SLOAD GT SWAP1 JUMP JUMPDEST CALLVALUE DUP1 ISZERO PUSH2 0x6CA JUMPI PUSH1 0x0 DUP1 REVERT JUMPDEST POP PUSH2 0x287 PUSH2 0x6D9 CALLDATASIZE PUSH1 0x4 PUSH2 0x3DEB JUMP JUMPDEST PUSH2 0x14B3 JUMP JUMPDEST CALLVALUE DUP1 ISZERO PUSH2 0x6EA JUMPI PUSH1 0x0 DUP1 REVERT JUMPDEST POP PUSH2 0x2A8 PUSH2 0x6F9 CALLDATASIZE PUSH1 0x4 PUSH2 0x3C77 JUMP JUMPDEST PUSH2 0x14D3 JUMP JUMPDEST CALLVALUE DUP1 ISZERO PUSH2 0x70A JUMPI PUSH1 0x0 DUP1 REVERT JUMPDEST POP PUSH1 0x0 SLOAD PUSH2 0x31F JUMP JUMPDEST CALLVALUE DUP1 ISZERO PUSH2 0x71F JUMPI PUSH1 0x0 DUP1 REVERT JUMPDEST POP PUSH2 0x287 PUSH2 0x72E CALLDATASIZE PUSH1 0x4 PUSH2 0x3C77 JUMP JUMPDEST PUSH2 0x153E JUMP JUMPDEST CALLVALUE DUP1 ISZERO PUSH2 0x73F JUMPI PUSH1 0x0 DUP1 REVERT JUMPDEST POP PUSH2 0x287 PUSH2 0x74E CALLDATASIZE PUSH1 0x4 PUSH2 0x3E67 JUMP JUMPDEST PUSH2 0x15D4 JUMP JUMPDEST CALLVALUE DUP1 ISZERO PUSH2 0x75F JUMPI PUSH1 0x0 DUP1 REVERT JUMPDEST POP PUSH2 0x2A8 PUSH2 0x76E CALLDATASIZE PUSH1 0x4 PUSH2 0x3C23 JUMP JUMPDEST PUSH2 0x1650 JUMP JUMPDEST CALLVALUE DUP1 ISZERO PUSH2 0x77F JUMPI PUSH1 0x0 DUP1 REVERT JUMPDEST POP PUSH2 0x7B8 PUSH2 0x78E CALLDATASIZE PUSH1 0x4 PUSH2 0x3C0A JUMP JUMPDEST PUSH1 0x3 PUSH1 0x20 MSTORE PUSH1 0x0 SWAP1 DUP2 MSTORE PUSH1 0x40 SWAP1 KECCAK256 DUP1 SLOAD PUSH1 0x1 DUP3 ADD SLOAD PUSH1 0x2 SWAP1 SWAP3 ADD SLOAD SWAP1 SWAP2 PUSH1 0x1 PUSH1 0x1 PUSH1 0xA0 SHL SUB AND SWAP1 DUP4 JUMP JUMPDEST PUSH1 0x40 DUP1 MLOAD SWAP4 DUP5 MSTORE PUSH1 0x1 PUSH1 0x1 PUSH1 0xA0 SHL SUB SWAP1 SWAP3 AND PUSH1 0x20 DUP5 ADD MSTORE SWAP1 DUP3 ADD MSTORE PUSH1 0x60 ADD PUSH2 0x2B4 JUMP JUMPDEST CALLVALUE DUP1 ISZERO PUSH2 0x7E7 JUMPI PUSH1 0x0 DUP1 REVERT JUMPDEST POP PUSH2 0x31F PUSH2 0x7F6 CALLDATASIZE PUSH1 0x4 PUSH2 0x3CBC JUMP JUMPDEST PUSH1 0x4 PUSH1 0x20 MSTORE PUSH1 0x0 SWAP1 DUP2 MSTORE PUSH1 0x40 SWAP1 KECCAK256 SLOAD DUP2 JUMP JUMPDEST CALLVALUE DUP1 ISZERO PUSH2 0x814 JUMPI PUSH1 0x0 DUP1 REVERT JUMPDEST POP PUSH2 0x287 PUSH2 0x823 CALLDATASIZE PUSH1 0x4 PUSH2 0x3E9C JUMP JUMPDEST PUSH2 0x1680 JUMP JUMPDEST CALLVALUE DUP1 ISZERO PUSH2 0x834 JUMPI PUSH1 0x0 DUP1 REVERT JUMPDEST POP PUSH2 0x2A8 PUSH2 0x843 CALLDATASIZE PUSH1 0x4 PUSH2 0x3C77 JUMP JUMPDEST PUSH2 0x1777 JUMP JUMPDEST CALLVALUE DUP1 ISZERO PUSH2 0x854 JUMPI PUSH1 0x0 DUP1 REVERT JUMPDEST POP PUSH2 0x287 PUSH2 0x863 CALLDATASIZE PUSH1 0x4 PUSH2 0x3EF1 JUMP JUMPDEST PUSH2 0x182D JUMP JUMPDEST PUSH2 0x287 PUSH2 0x876 CALLDATASIZE PUSH1 0x4 PUSH2 0x3CD7 JUMP JUMPDEST PUSH2 0x184D JUMP JUMPDEST CALLVALUE DUP1 ISZERO PUSH2 0x887 JUMPI PUSH1 0x0 DUP1 REVERT JUMPDEST POP PUSH2 0x2A8 PUSH2 0x896 CALLDATASIZE PUSH1 0x4 PUSH2 0x3CBC JUMP JUMPDEST PUSH2 0x1E40 JUMP JUMPDEST CALLVALUE DUP1 ISZERO PUSH2 0x8A7 JUMPI PUSH1 0x0 DUP1 REVERT JUMPDEST POP PUSH2 0x31F PUSH2 0x8B6 CALLDATASIZE PUSH1 0x4 PUSH2 0x3C0A JUMP JUMPDEST PUSH1 0x0 SWAP1 DUP2 MSTORE PUSH1 0x15 PUSH1 0x20 MSTORE PUSH1 0x40 SWAP1 KECCAK256 SLOAD SWAP1 JUMP JUMPDEST CALLVALUE DUP1 ISZERO PUSH2 0x8D4 JUMPI PUSH1 0x0 DUP1 REVERT JUMPDEST POP PUSH2 0x31F PUSH2 0x8E3 CALLDATASIZE PUSH1 0x4 PUSH2 0x3C0A JUMP JUMPDEST PUSH1 0x0 SWAP1 DUP2 MSTORE PUSH1 0x7 PUSH1 0x20 MSTORE PUSH1 0x40 SWAP1 KECCAK256 SLOAD SWAP1 JUMP JUMPDEST CALLVALUE DUP1 ISZERO PUSH2 0x901 JUMPI PUSH1 0x0 DUP1 REVERT JUMPDEST POP PUSH2 0x287 PUSH2 0x910 CALLDATASIZE PUSH1 0x4 PUSH2 0x3F39 JUMP JUMPDEST PUSH2 0x1E72 JUMP JUMPDEST CALLVALUE DUP1 ISZERO PUSH2 0x921 JUMPI PUSH1 0x0 DUP1 REVERT JUMPDEST POP PUSH2 0x2A8 PUSH2 0x930 CALLDATASIZE PUSH1 0x4 PUSH2 0x3CD7 JUMP JUMPDEST PUSH2 0x1EF0 JUMP JUMPDEST PUSH2 0x940 DUP4 DUP4 DUP4 PUSH2 0x1F21 JUMP JUMPDEST PUSH1 0x40 MLOAD PUSH4 0x36B0B4B7 PUSH1 0xE1 SHL DUP2 MSTORE PUSH1 0xF SWAP1 PUSH1 0x4 ADD SWAP1 DUP2 MSTORE PUSH1 0x40 DUP1 MLOAD PUSH1 0x20 SWAP3 DUP2 SWAP1 SUB DUP4 ADD SWAP1 KECCAK256 PUSH1 0x1 PUSH1 0x1 PUSH1 0xA0 SHL SUB DUP7 AND PUSH1 0x0 SWAP1 DUP2 MSTORE SWAP3 MSTORE SWAP1 KECCAK256 SLOAD ISZERO DUP1 ISZERO PUSH2 0x98D JUMPI POP PUSH1 0x1 PUSH1 0x1 PUSH1 0xA0 SHL SUB DUP4 AND ISZERO ISZERO JUMPDEST ISZERO PUSH2 0x9D0 JUMPI PUSH1 0x1 PUSH1 0xE PUSH1 0x40 MLOAD PUSH2 0x9AD SWAP1 PUSH4 0x36B0B4B7 PUSH1 0xE1 SHL DUP2 MSTORE PUSH1 0x4 ADD SWAP1 JUMP JUMPDEST SWAP1 DUP2 MSTORE PUSH1 0x20 ADD PUSH1 0x40 MLOAD DUP1 SWAP2 SUB SWAP1 KECCAK256 PUSH1 0x0 DUP3 DUP3 SLOAD PUSH2 0x9CA SWAP2 SWAP1 PUSH2 0x3F9F JUMP JUMPDEST SWAP1 SWAP2 SSTORE POP POP JUMPDEST DUP2 PUSH1 0xF PUSH1 0x40 MLOAD PUSH2 0x9EA SWAP1 PUSH4 0x36B0B4B7 PUSH1 0xE1 SHL DUP2 MSTORE PUSH1 0x4 ADD SWAP1 JUMP JUMPDEST SWAP1 DUP2 MSTORE PUSH1 0x20 ADD PUSH1 0x40 MLOAD DUP1 SWAP2 SUB SWAP1 KECCAK256 PUSH1 0x0 DUP6 PUSH1 0x1 PUSH1 0x1 PUSH1 0xA0 SHL SUB AND PUSH1 0x1 PUSH1 0x1 PUSH1 0xA0 SHL SUB AND DUP2 MSTORE PUSH1 0x20 ADD SWAP1 DUP2 MSTORE PUSH1 0x20 ADD PUSH1 0x0 KECCAK256 PUSH1 0x0 DUP3 DUP3 SLOAD PUSH2 0xA2A SWAP2 SWAP1 PUSH2 0x3F9F JUMP JUMPDEST SWAP1 SWAP2 SSTORE POP POP PUSH1 0x40 DUP1 MLOAD PUSH1 0x1 PUSH1 0x1 PUSH1 0xA0 SHL SUB DUP1 DUP7 AND DUP3 MSTORE PUSH1 0x20 DUP3 ADD DUP6 SWAP1 MSTORE DUP4 AND SWAP2 DUP2 ADD SWAP2 SWAP1 SWAP2 MSTORE PUSH32 0xDE49BBE8E448CDFA40E6FA0D22592BE9A03B28BA746527635DBE5235416659CF SWAP1 PUSH1 0x60 ADD JUMPDEST PUSH1 0x40 MLOAD DUP1 SWAP2 SUB SWAP1 LOG1 POP POP POP JUMP JUMPDEST DUP2 PUSH2 0xA8E DUP2 CALLER PUSH2 0xCB2 JUMP JUMPDEST PUSH2 0xA97 JUMPI PUSH1 0x0 DUP1 REVERT JUMPDEST DUP2 PUSH1 0x2 DUP2 GT ISZERO PUSH2 0xAA9 JUMPI PUSH2 0xAA9 PUSH2 0x3FB2 JUMP JUMPDEST PUSH1 0x12 DUP5 PUSH1 0x40 MLOAD PUSH2 0xAB9 SWAP2 SWAP1 PUSH2 0x3FEC JUMP JUMPDEST SWAP1 DUP2 MSTORE PUSH1 0x40 MLOAD SWAP1 DUP2 SWAP1 SUB PUSH1 0x20 ADD SWAP1 KECCAK256 SLOAD PUSH1 0xFF AND PUSH1 0x2 DUP2 GT ISZERO PUSH2 0xADD JUMPI PUSH2 0xADD PUSH2 0x3FB2 JUMP JUMPDEST SUB PUSH2 0xB14 JUMPI PUSH1 0x40 MLOAD PUSH3 0x461BCD PUSH1 0xE5 SHL DUP2 MSTORE PUSH1 0x20 PUSH1 0x4 DUP3 ADD MSTORE PUSH1 0x2 PUSH1 0x24 DUP3 ADD MSTORE PUSH2 0x4153 PUSH1 0xF0 SHL PUSH1 0x44 DUP3 ADD MSTORE PUSH1 0x64 ADD JUMPDEST PUSH1 0x40 MLOAD DUP1 SWAP2 SUB SWAP1 REVERT JUMPDEST PUSH2 0xB1E DUP4 DUP4 PUSH2 0x1F76 JUMP JUMPDEST POP POP POP JUMP JUMPDEST PUSH1 0x40 MLOAD DUP1 PUSH1 0x40 ADD PUSH1 0x40 MSTORE DUP1 PUSH1 0x2 DUP2 MSTORE PUSH1 0x20 ADD PUSH2 0x6C45 PUSH1 0xF0 SHL DUP2 MSTORE POP PUSH2 0xB48 DUP2 CALLER PUSH2 0x1777 JUMP JUMPDEST PUSH2 0xB51 JUMPI PUSH1 0x0 DUP1 REVERT JUMPDEST PUSH2 0xB59 PUSH2 0x2025 JUMP JUMPDEST POP JUMP JUMPDEST PUSH1 0x0 DUP2 DUP2 MSTORE PUSH1 0x3 PUSH1 0x20 MSTORE PUSH1 0x40 SWAP1 KECCAK256 PUSH1 0x1 ADD SLOAD DUP2 SWAP1 PUSH1 0x1 PUSH1 0x1 PUSH1 0xA0 SHL SUB AND CALLER EQ PUSH2 0xB97 JUMPI PUSH1 0x40 MLOAD PUSH3 0x461BCD PUSH1 0xE5 SHL DUP2 MSTORE PUSH1 0x4 ADD PUSH2 0xB0B SWAP1 PUSH2 0x4008 JUMP JUMPDEST DUP2 PUSH2 0xBB1 DUP2 PUSH1 0x0 DUP1 SLOAD SWAP2 DUP2 MSTORE PUSH1 0x7 PUSH1 0x20 MSTORE PUSH1 0x40 SWAP1 KECCAK256 SLOAD GT SWAP1 JUMP JUMPDEST PUSH2 0xBCD JUMPI PUSH1 0x40 MLOAD PUSH3 0x461BCD PUSH1 0xE5 SHL DUP2 MSTORE PUSH1 0x4 ADD PUSH2 0xB0B SWAP1 PUSH2 0x4024 JUMP JUMPDEST PUSH1 0x0 DUP4 DUP2 MSTORE PUSH1 0x5 PUSH1 0x20 MSTORE PUSH1 0x40 SWAP1 KECCAK256 SLOAD PUSH1 0xFF AND PUSH2 0xC10 JUMPI PUSH1 0x40 MLOAD PUSH3 0x461BCD PUSH1 0xE5 SHL DUP2 MSTORE PUSH1 0x20 PUSH1 0x4 DUP3 ADD MSTORE PUSH1 0x2 PUSH1 0x24 DUP3 ADD MSTORE PUSH2 0x4E53 PUSH1 0xF0 SHL PUSH1 0x44 DUP3 ADD MSTORE PUSH1 0x64 ADD PUSH2 0xB0B JUMP JUMPDEST PUSH2 0xB1E DUP4 PUSH2 0x2077 JUMP JUMPDEST PUSH1 0x0 PUSH1 0xE DUP3 PUSH1 0x40 MLOAD PUSH2 0xC2B SWAP2 SWAP1 PUSH2 0x3FEC JUMP JUMPDEST SWAP1 DUP2 MSTORE PUSH1 0x20 ADD PUSH1 0x40 MLOAD DUP1 SWAP2 SUB SWAP1 KECCAK256 SLOAD PUSH1 0x0 EQ DUP1 ISZERO PUSH2 0xC71 JUMPI POP PUSH1 0xF DUP3 PUSH1 0x40 MLOAD PUSH2 0xC54 SWAP2 SWAP1 PUSH2 0x3FEC JUMP JUMPDEST SWAP1 DUP2 MSTORE PUSH1 0x40 DUP1 MLOAD PUSH1 0x20 SWAP3 DUP2 SWAP1 SUB DUP4 ADD SWAP1 KECCAK256 PUSH1 0x0 DUP1 DUP1 MSTORE SWAP3 MSTORE SWAP1 KECCAK256 SLOAD ISZERO JUMPDEST SWAP3 SWAP2 POP POP JUMP JUMPDEST PUSH1 0x40 MLOAD DUP1 PUSH1 0x40 ADD PUSH1 0x40 MSTORE DUP1 PUSH1 0x2 DUP2 MSTORE PUSH1 0x20 ADD PUSH2 0x1911 PUSH1 0xF2 SHL DUP2 MSTORE POP PUSH2 0xC9C DUP2 CALLER PUSH2 0x1777 JUMP JUMPDEST PUSH2 0xCA5 JUMPI PUSH1 0x0 DUP1 REVERT JUMPDEST PUSH2 0xCAE DUP3 PUSH2 0x20C6 JUMP JUMPDEST POP POP JUMP JUMPDEST PUSH1 0x0 PUSH2 0xCBD DUP3 PUSH2 0x1E40 JUMP JUMPDEST DUP1 PUSH2 0xCCA JUMPI POP PUSH1 0xC SLOAD PUSH1 0xFF AND JUMPDEST PUSH2 0xCD6 JUMPI POP PUSH1 0x0 PUSH2 0xC71 JUMP JUMPDEST PUSH1 0x2 PUSH1 0x11 DUP5 PUSH1 0x40 MLOAD PUSH2 0xCE8 SWAP2 SWAP1 PUSH2 0x3FEC JUMP JUMPDEST SWAP1 DUP2 MSTORE PUSH1 0x40 DUP1 MLOAD PUSH1 0x20 SWAP3 DUP2 SWAP1 SUB DUP4 ADD SWAP1 KECCAK256 PUSH1 0x1 PUSH1 0x1 PUSH1 0xA0 SHL SUB DUP7 AND PUSH1 0x0 SWAP1 DUP2 MSTORE SWAP3 MSTORE SWAP1 KECCAK256 SLOAD PUSH1 0xFF AND PUSH1 0x2 DUP2 GT ISZERO PUSH2 0xD21 JUMPI PUSH2 0xD21 PUSH2 0x3FB2 JUMP JUMPDEST EQ DUP1 PUSH2 0xD60 JUMPI POP PUSH1 0x2 PUSH1 0x12 DUP5 PUSH1 0x40 MLOAD PUSH2 0xD3A SWAP2 SWAP1 PUSH2 0x3FEC JUMP JUMPDEST SWAP1 DUP2 MSTORE PUSH1 0x40 MLOAD SWAP1 DUP2 SWAP1 SUB PUSH1 0x20 ADD SWAP1 KECCAK256 SLOAD PUSH1 0xFF AND PUSH1 0x2 DUP2 GT ISZERO PUSH2 0xD5E JUMPI PUSH2 0xD5E PUSH2 0x3FB2 JUMP JUMPDEST EQ JUMPDEST SWAP4 SWAP3 POP POP POP JUMP JUMPDEST PUSH1 0x0 PUSH1 0xF DUP4 PUSH1 0x40 MLOAD PUSH2 0xD79 SWAP2 SWAP1 PUSH2 0x3FEC JUMP JUMPDEST SWAP1 DUP2 MSTORE PUSH1 0x40 DUP1 MLOAD SWAP2 DUP3 SWAP1 SUB PUSH1 0x20 SWAP1 DUP2 ADD SWAP1 SWAP3 KECCAK256 PUSH1 0x1 PUSH1 0x1 PUSH1 0xA0 SHL SUB DUP6 AND PUSH1 0x0 SWAP1 DUP2 MSTORE SWAP3 MSTORE SWAP1 KECCAK256 SLOAD SWAP1 POP SWAP3 SWAP2 POP POP JUMP JUMPDEST PUSH1 0x40 MLOAD DUP1 PUSH1 0x40 ADD PUSH1 0x40 MSTORE DUP1 PUSH1 0x2 DUP2 MSTORE PUSH1 0x20 ADD PUSH2 0x36A1 PUSH1 0xF1 SHL DUP2 MSTORE POP PUSH2 0xDCD DUP2 CALLER PUSH2 0x1777 JUMP JUMPDEST PUSH2 0xDD6 JUMPI PUSH1 0x0 DUP1 REVERT JUMPDEST PUSH1 0x1 DUP1 SLOAD PUSH1 0xFF AND ISZERO ISZERO EQ PUSH2 0xDFC JUMPI PUSH1 0x40 MLOAD PUSH3 0x461BCD PUSH1 0xE5 SHL DUP2 MSTORE PUSH1 0x4 ADD PUSH2 0xB0B SWAP1 PUSH2 0x4040 JUMP JUMPDEST PUSH2 0xB1E DUP4 DUP4 PUSH2 0x21B1 JUMP JUMPDEST PUSH1 0x40 MLOAD DUP1 PUSH1 0x40 ADD PUSH1 0x40 MSTORE DUP1 PUSH1 0x2 DUP2 MSTORE PUSH1 0x20 ADD PUSH2 0x36A1 PUSH1 0xF1 SHL DUP2 MSTORE POP PUSH2 0xE2B DUP2 CALLER PUSH2 0xCB2 JUMP JUMPDEST PUSH2 0xE34 JUMPI PUSH1 0x0 DUP1 REVERT JUMPDEST DUP3 PUSH2 0xE3F DUP2 CALLER PUSH2 0x14D3 JUMP JUMPDEST PUSH2 0xE48 JUMPI PUSH1 0x0 DUP1 REVERT JUMPDEST PUSH2 0xE52 DUP5 DUP5 PUSH2 0x22C3 JUMP JUMPDEST POP POP POP POP JUMP JUMPDEST PUSH2 0xE61 CALLER PUSH2 0x1E40 JUMP JUMPDEST PUSH2 0xE92 JUMPI PUSH1 0x40 MLOAD PUSH3 0x461BCD PUSH1 0xE5 SHL DUP2 MSTORE PUSH1 0x20 PUSH1 0x4 DUP3 ADD MSTORE PUSH1 0x2 PUSH1 0x24 DUP3 ADD MSTORE PUSH2 0xAA9 PUSH1 0xF3 SHL PUSH1 0x44 DUP3 ADD MSTORE PUSH1 0x64 ADD PUSH2 0xB0B JUMP JUMPDEST PUSH2 0xE9B DUP2 PUSH2 0x1416 JUMP JUMPDEST PUSH2 0xEB7 JUMPI PUSH1 0x40 MLOAD PUSH3 0x461BCD PUSH1 0xE5 SHL DUP2 MSTORE PUSH1 0x4 ADD PUSH2 0xB0B SWAP1 PUSH2 0x405C JUMP JUMPDEST CALLER PUSH1 0x0 SWAP1 DUP2 MSTORE PUSH1 0x4 PUSH1 0x20 SWAP1 DUP2 MSTORE PUSH1 0x40 DUP1 DUP4 KECCAK256 SLOAD PUSH1 0x1 PUSH1 0x1 PUSH1 0xA0 SHL SUB DUP6 AND DUP5 MSTORE PUSH1 0xB DUP4 MSTORE DUP2 DUP5 KECCAK256 DUP2 DUP6 MSTORE SWAP1 SWAP3 MSTORE SWAP1 SWAP2 KECCAK256 SLOAD PUSH1 0xFF AND ISZERO PUSH2 0xF1C JUMPI PUSH1 0x40 MLOAD PUSH3 0x461BCD PUSH1 0xE5 SHL DUP2 MSTORE PUSH1 0x20 PUSH1 0x4 DUP3 ADD MSTORE PUSH1 0x2 PUSH1 0x24 DUP3 ADD MSTORE PUSH2 0x4143 PUSH1 0xF0 SHL PUSH1 0x44 DUP3 ADD MSTORE PUSH1 0x64 ADD PUSH2 0xB0B JUMP JUMPDEST PUSH1 0x1 PUSH1 0x1 PUSH1 0xA0 SHL SUB DUP3 AND PUSH1 0x0 DUP2 DUP2 MSTORE PUSH1 0xB PUSH1 0x20 SWAP1 DUP2 MSTORE PUSH1 0x40 DUP1 DUP4 KECCAK256 DUP6 DUP5 MSTORE DUP3 MSTORE DUP1 DUP4 KECCAK256 DUP1 SLOAD PUSH1 0xFF NOT AND PUSH1 0x1 OR SWAP1 SSTORE DUP3 SLOAD DUP4 MSTORE PUSH1 0x2 DUP3 MSTORE DUP1 DUP4 KECCAK256 SLOAD DUP6 DUP5 MSTORE PUSH1 0x3 DUP4 MSTORE DUP2 DUP5 KECCAK256 SLOAD SWAP5 DUP5 MSTORE PUSH1 0x9 SWAP1 SWAP3 MSTORE DUP3 KECCAK256 SLOAD SWAP2 SWAP3 SWAP1 SWAP2 PUSH2 0xF7A SWAP2 SWAP1 PUSH2 0x4078 JUMP JUMPDEST PUSH2 0xF84 SWAP2 SWAP1 PUSH2 0x408F JUMP JUMPDEST SWAP1 POP DUP1 PUSH1 0x0 SUB PUSH2 0xFB0 JUMPI PUSH1 0x40 MLOAD PUSH3 0x461BCD PUSH1 0xE5 SHL DUP2 MSTORE PUSH1 0x20 PUSH1 0x4 DUP3 ADD MSTORE PUSH1 0x0 PUSH1 0x24 DUP3 ADD MSTORE PUSH1 0x44 ADD PUSH2 0xB0B JUMP JUMPDEST PUSH1 0x1 PUSH1 0x1 PUSH1 0xA0 SHL SUB DUP4 AND PUSH1 0x0 SWAP1 DUP2 MSTORE PUSH1 0xA PUSH1 0x20 MSTORE PUSH1 0x40 DUP2 KECCAK256 DUP1 SLOAD DUP4 SWAP3 SWAP1 PUSH2 0xFD8 SWAP1 DUP5 SWAP1 PUSH2 0x40B1 JUMP JUMPDEST SWAP1 SWAP2 SSTORE POP PUSH2 0xFE9 SWAP1 POP DUP4 DUP3 CALLER PUSH2 0x237F JUMP JUMPDEST PUSH1 0x40 DUP1 MLOAD PUSH1 0x1 PUSH1 0x1 PUSH1 0xA0 SHL SUB DUP6 AND DUP2 MSTORE PUSH1 0x20 DUP2 ADD DUP4 SWAP1 MSTORE CALLER SWAP2 DUP2 ADD SWAP2 SWAP1 SWAP2 MSTORE PUSH32 0x1397D005A56670CBE383372BD4743EAA779AF18164D00DC6D12A6659418E1BBF SWAP1 PUSH1 0x60 ADD PUSH2 0xA76 JUMP JUMPDEST PUSH1 0x0 DUP3 DUP2 MSTORE PUSH1 0x3 PUSH1 0x20 MSTORE PUSH1 0x40 SWAP1 KECCAK256 PUSH1 0x1 ADD SLOAD DUP3 SWAP1 PUSH1 0x1 PUSH1 0x1 PUSH1 0xA0 SHL SUB AND CALLER EQ PUSH2 0x106D JUMPI PUSH1 0x40 MLOAD PUSH3 0x461BCD PUSH1 0xE5 SHL DUP2 MSTORE PUSH1 0x4 ADD PUSH2 0xB0B SWAP1 PUSH2 0x4008 JUMP JUMPDEST PUSH1 0x0 DUP3 DUP2 MSTORE PUSH1 0x13 PUSH1 0x20 MSTORE PUSH1 0x40 SWAP1 KECCAK256 SLOAD DUP3 SWAP1 PUSH1 0xFF AND PUSH2 0x108A JUMPI PUSH1 0x0 DUP1 REVERT JUMPDEST PUSH1 0x1 DUP1 SLOAD PUSH1 0xFF AND ISZERO ISZERO EQ PUSH2 0x10B0 JUMPI PUSH1 0x40 MLOAD PUSH3 0x461BCD PUSH1 0xE5 SHL DUP2 MSTORE PUSH1 0x4 ADD PUSH2 0xB0B SWAP1 PUSH2 0x4040 JUMP JUMPDEST PUSH2 0x10BA DUP5 DUP5 PUSH2 0x1EF0 JUMP JUMPDEST PUSH2 0x10EC JUMPI PUSH1 0x40 MLOAD PUSH3 0x461BCD PUSH1 0xE5 SHL DUP2 MSTORE PUSH1 0x20 PUSH1 0x4 DUP3 ADD MSTORE PUSH1 0x3 PUSH1 0x24 DUP3 ADD MSTORE PUSH3 0x2720A3 PUSH1 0xE9 SHL PUSH1 0x44 DUP3 ADD MSTORE PUSH1 0x64 ADD PUSH2 0xB0B JUMP JUMPDEST PUSH1 0x0 DUP4 DUP2 MSTORE PUSH1 0x16 PUSH1 0x20 SWAP1 DUP2 MSTORE PUSH1 0x40 DUP1 DUP4 KECCAK256 DUP8 DUP5 MSTORE SWAP1 SWAP2 MSTORE SWAP1 KECCAK256 SLOAD PUSH1 0xFF AND ISZERO PUSH2 0x113B JUMPI PUSH1 0x40 MLOAD PUSH3 0x461BCD PUSH1 0xE5 SHL DUP2 MSTORE PUSH1 0x20 PUSH1 0x4 DUP3 ADD MSTORE PUSH1 0x2 PUSH1 0x24 DUP3 ADD MSTORE PUSH2 0x4143 PUSH1 0xF0 SHL PUSH1 0x44 DUP3 ADD MSTORE PUSH1 0x64 ADD PUSH2 0xB0B JUMP JUMPDEST PUSH1 0x0 DUP4 DUP2 MSTORE PUSH1 0x16 PUSH1 0x20 SWAP1 DUP2 MSTORE PUSH1 0x40 DUP1 DUP4 KECCAK256 DUP8 DUP5 MSTORE DUP3 MSTORE DUP1 DUP4 KECCAK256 DUP1 SLOAD PUSH1 0xFF NOT AND PUSH1 0x1 SWAP1 DUP2 OR SWAP1 SWAP2 SSTORE DUP4 SLOAD DUP5 MSTORE PUSH1 0x2 DUP4 MSTORE DUP2 DUP5 KECCAK256 SLOAD DUP9 DUP6 MSTORE PUSH1 0x3 DUP5 MSTORE DUP3 DUP6 KECCAK256 SLOAD DUP9 DUP7 MSTORE PUSH1 0x14 SWAP1 SWAP5 MSTORE SWAP2 DUP5 KECCAK256 ADD SLOAD SWAP1 SWAP2 PUSH2 0x1191 SWAP2 PUSH2 0x4078 JUMP JUMPDEST PUSH2 0x119B SWAP2 SWAP1 PUSH2 0x408F JUMP JUMPDEST SWAP1 POP DUP1 PUSH1 0x0 SUB PUSH2 0x11D3 JUMPI PUSH1 0x40 MLOAD PUSH3 0x461BCD PUSH1 0xE5 SHL DUP2 MSTORE PUSH1 0x20 PUSH1 0x4 DUP3 ADD MSTORE PUSH1 0x3 PUSH1 0x24 DUP3 ADD MSTORE PUSH3 0x445453 PUSH1 0xE8 SHL PUSH1 0x44 DUP3 ADD MSTORE PUSH1 0x64 ADD PUSH2 0xB0B JUMP JUMPDEST PUSH1 0x0 DUP5 DUP2 MSTORE PUSH1 0x15 PUSH1 0x20 MSTORE PUSH1 0x40 DUP2 KECCAK256 DUP1 SLOAD DUP4 SWAP3 SWAP1 PUSH2 0x11F1 SWAP1 DUP5 SWAP1 PUSH2 0x40B1 JUMP JUMPDEST SWAP1 SWAP2 SSTORE POP POP PUSH1 0x0 DUP5 DUP2 MSTORE PUSH1 0x14 PUSH1 0x20 MSTORE PUSH1 0x40 SWAP1 KECCAK256 SLOAD PUSH2 0x1219 SWAP1 PUSH1 0x1 PUSH1 0x1 PUSH1 0xA0 SHL SUB AND DUP3 CALLER PUSH2 0x237F JUMP JUMPDEST PUSH1 0x40 DUP1 MLOAD PUSH1 0x20 DUP2 ADD DUP7 SWAP1 MSTORE SWAP1 DUP2 ADD DUP3 SWAP1 MSTORE PUSH1 0x0 DUP1 MLOAD PUSH1 0x20 PUSH2 0x4572 DUP4 CODECOPY DUP2 MLOAD SWAP2 MSTORE SWAP1 PUSH1 0x60 ADD PUSH1 0x40 DUP1 MLOAD PUSH1 0x1F NOT DUP2 DUP5 SUB ADD DUP2 MSTORE SWAP1 DUP3 SWAP1 MSTORE PUSH2 0x1259 SWAP2 CALLER SWAP1 PUSH2 0x40F0 JUMP JUMPDEST PUSH1 0x40 MLOAD DUP1 SWAP2 SUB SWAP1 LOG1 POP POP POP POP POP JUMP JUMPDEST PUSH1 0x40 MLOAD DUP1 PUSH1 0x40 ADD PUSH1 0x40 MSTORE DUP1 PUSH1 0x2 DUP2 MSTORE PUSH1 0x20 ADD PUSH2 0x36A1 PUSH1 0xF1 SHL DUP2 MSTORE POP PUSH2 0x128D DUP2 CALLER PUSH2 0xCB2 JUMP JUMPDEST PUSH2 0x1296 JUMPI PUSH1 0x0 DUP1 REVERT JUMPDEST DUP2 PUSH2 0x12A1 DUP2 CALLER PUSH2 0x14D3 JUMP JUMPDEST PUSH2 0x12AA JUMPI PUSH1 0x0 DUP1 REVERT JUMPDEST PUSH2 0xB1E DUP4 PUSH2 0x2624 JUMP JUMPDEST PUSH1 0x40 MLOAD DUP1 PUSH1 0x40 ADD PUSH1 0x40 MSTORE DUP1 PUSH1 0x2 DUP2 MSTORE PUSH1 0x20 ADD PUSH2 0x6953 PUSH1 0xF0 SHL DUP2 MSTORE POP PUSH2 0x12D8 DUP2 CALLER PUSH2 0x1777 JUMP JUMPDEST PUSH2 0x12E1 JUMPI PUSH1 0x0 DUP1 REVERT JUMPDEST PUSH2 0x12ED DUP6 DUP6 DUP6 DUP6 PUSH2 0x27A9 JUMP JUMPDEST POP POP POP POP POP JUMP JUMPDEST PUSH1 0x40 MLOAD DUP1 PUSH1 0x40 ADD PUSH1 0x40 MSTORE DUP1 PUSH1 0x2 DUP2 MSTORE PUSH1 0x20 ADD PUSH2 0x1A51 PUSH1 0xF2 SHL DUP2 MSTORE POP PUSH2 0x1319 DUP2 CALLER PUSH2 0x1777 JUMP JUMPDEST PUSH2 0x1322 JUMPI PUSH1 0x0 DUP1 REVERT JUMPDEST DUP4 PUSH2 0x132D DUP2 CALLER PUSH2 0x14D3 JUMP JUMPDEST PUSH2 0x1336 JUMPI PUSH1 0x0 DUP1 REVERT JUMPDEST PUSH2 0x12ED DUP6 DUP6 DUP6 PUSH2 0x2828 JUMP JUMPDEST PUSH1 0x40 MLOAD DUP1 PUSH1 0x40 ADD PUSH1 0x40 MSTORE DUP1 PUSH1 0x3 DUP2 MSTORE PUSH1 0x20 ADD PUSH3 0x734E53 PUSH1 0xE8 SHL DUP2 MSTORE POP PUSH2 0x1367 DUP2 CALLER PUSH2 0x1777 JUMP JUMPDEST PUSH2 0x1370 JUMPI PUSH1 0x0 DUP1 REVERT JUMPDEST PUSH1 0xC SLOAD DUP3 ISZERO ISZERO PUSH1 0xFF SWAP1 SWAP2 AND ISZERO ISZERO SUB PUSH2 0x13AF JUMPI PUSH1 0x40 MLOAD PUSH3 0x461BCD PUSH1 0xE5 SHL DUP2 MSTORE PUSH1 0x20 PUSH1 0x4 DUP3 ADD MSTORE PUSH1 0x2 PUSH1 0x24 DUP3 ADD MSTORE PUSH2 0x4153 PUSH1 0xF0 SHL PUSH1 0x44 DUP3 ADD MSTORE PUSH1 0x64 ADD PUSH2 0xB0B JUMP JUMPDEST PUSH2 0xCAE DUP3 PUSH2 0x2A32 JUMP JUMPDEST PUSH1 0x40 MLOAD DUP1 PUSH1 0x40 ADD PUSH1 0x40 MSTORE DUP1 PUSH1 0x3 DUP2 MSTORE PUSH1 0x20 ADD PUSH3 0x1B5055 PUSH1 0xEA SHL DUP2 MSTORE POP PUSH2 0x13DE DUP2 CALLER PUSH2 0x1777 JUMP JUMPDEST PUSH2 0x13E7 JUMPI PUSH1 0x0 DUP1 REVERT JUMPDEST PUSH1 0x1 DUP1 SLOAD PUSH1 0xFF AND ISZERO ISZERO EQ PUSH2 0x140D JUMPI PUSH1 0x40 MLOAD PUSH3 0x461BCD PUSH1 0xE5 SHL DUP2 MSTORE PUSH1 0x4 ADD PUSH2 0xB0B SWAP1 PUSH2 0x4040 JUMP JUMPDEST PUSH2 0xCAE DUP3 PUSH2 0x2AA2 JUMP JUMPDEST PUSH1 0x1 PUSH1 0x1 PUSH1 0xA0 SHL SUB DUP2 AND PUSH1 0x0 SWAP1 DUP2 MSTORE PUSH1 0x8 PUSH1 0x20 MSTORE PUSH1 0x40 DUP2 KECCAK256 SLOAD PUSH1 0xFF AND ISZERO ISZERO PUSH1 0x1 EQ DUP1 PUSH2 0xC71 JUMPI POP POP PUSH1 0x1 PUSH1 0x1 PUSH1 0xA0 SHL SUB AND ISZERO SWAP1 JUMP JUMPDEST PUSH1 0x40 MLOAD DUP1 PUSH1 0x40 ADD PUSH1 0x40 MSTORE DUP1 PUSH1 0x3 DUP2 MSTORE PUSH1 0x20 ADD PUSH3 0x1B5055 PUSH1 0xEA SHL DUP2 MSTORE POP PUSH2 0x1471 DUP2 CALLER PUSH2 0x1777 JUMP JUMPDEST PUSH2 0x147A JUMPI PUSH1 0x0 DUP1 REVERT JUMPDEST PUSH1 0x1 DUP1 SLOAD PUSH1 0xFF AND ISZERO ISZERO EQ PUSH2 0x14A0 JUMPI PUSH1 0x40 MLOAD PUSH3 0x461BCD PUSH1 0xE5 SHL DUP2 MSTORE PUSH1 0x4 ADD PUSH2 0xB0B SWAP1 PUSH2 0x4040 JUMP JUMPDEST PUSH2 0xCAE DUP3 PUSH2 0x2AEB JUMP JUMPDEST PUSH2 0xCAE DUP3 DUP3 PUSH2 0x2B34 JUMP JUMPDEST DUP4 PUSH2 0x14BE DUP2 CALLER PUSH2 0x14D3 JUMP JUMPDEST PUSH2 0x14C7 JUMPI PUSH1 0x0 DUP1 REVERT JUMPDEST PUSH2 0x12ED DUP6 DUP6 DUP6 DUP6 PUSH2 0x2C87 JUMP JUMPDEST PUSH1 0x0 PUSH1 0x10 DUP4 PUSH1 0x40 MLOAD PUSH2 0x14E5 SWAP2 SWAP1 PUSH2 0x3FEC JUMP JUMPDEST SWAP1 DUP2 MSTORE PUSH1 0x40 DUP1 MLOAD SWAP2 DUP3 SWAP1 SUB PUSH1 0x20 SWAP1 DUP2 ADD SWAP1 SWAP3 KECCAK256 PUSH1 0x1 PUSH1 0x1 PUSH1 0xA0 SHL SUB DUP6 AND PUSH1 0x0 SWAP1 DUP2 MSTORE SWAP3 MSTORE SWAP1 KECCAK256 SLOAD PUSH1 0xFF AND ISZERO ISZERO PUSH1 0x1 EQ DUP1 PUSH2 0xD60 JUMPI POP PUSH2 0xD60 PUSH1 0x40 MLOAD DUP1 PUSH1 0x40 ADD PUSH1 0x40 MSTORE DUP1 PUSH1 0x2 DUP2 MSTORE PUSH1 0x20 ADD PUSH2 0x36A1 PUSH1 0xF1 SHL DUP2 MSTORE POP DUP4 PUSH2 0xCB2 JUMP JUMPDEST PUSH1 0x40 MLOAD DUP1 PUSH1 0x40 ADD PUSH1 0x40 MSTORE DUP1 PUSH1 0x2 DUP2 MSTORE PUSH1 0x20 ADD PUSH2 0x36A1 PUSH1 0xF1 SHL DUP2 MSTORE POP PUSH2 0x1563 DUP2 CALLER PUSH2 0x1777 JUMP JUMPDEST PUSH2 0x156C JUMPI PUSH1 0x0 DUP1 REVERT JUMPDEST DUP3 PUSH2 0x1577 DUP2 CALLER PUSH2 0x14D3 JUMP JUMPDEST PUSH2 0x1580 JUMPI PUSH1 0x0 DUP1 REVERT JUMPDEST PUSH2 0x1589 DUP4 PUSH2 0x1E40 JUMP JUMPDEST DUP1 PUSH2 0x1596 JUMPI POP PUSH1 0xC SLOAD PUSH1 0xFF AND JUMPDEST PUSH2 0x15CA JUMPI PUSH1 0x40 MLOAD PUSH3 0x461BCD PUSH1 0xE5 SHL DUP2 MSTORE PUSH1 0x20 PUSH1 0x4 DUP3 ADD MSTORE PUSH1 0x5 PUSH1 0x24 DUP3 ADD MSTORE PUSH5 0x4E53484E41 PUSH1 0xD8 SHL PUSH1 0x44 DUP3 ADD MSTORE PUSH1 0x64 ADD PUSH2 0xB0B JUMP JUMPDEST PUSH2 0xE52 DUP5 DUP5 PUSH2 0x2F1B JUMP JUMPDEST PUSH1 0x0 DUP4 DUP2 MSTORE PUSH1 0x3 PUSH1 0x20 MSTORE PUSH1 0x40 SWAP1 KECCAK256 PUSH1 0x1 ADD SLOAD DUP4 SWAP1 PUSH1 0x1 PUSH1 0x1 PUSH1 0xA0 SHL SUB AND CALLER EQ PUSH2 0x160F JUMPI PUSH1 0x40 MLOAD PUSH3 0x461BCD PUSH1 0xE5 SHL DUP2 MSTORE PUSH1 0x4 ADD PUSH2 0xB0B SWAP1 PUSH2 0x4008 JUMP JUMPDEST DUP4 PUSH2 0x1629 DUP2 PUSH1 0x0 DUP1 SLOAD SWAP2 DUP2 MSTORE PUSH1 0x7 PUSH1 0x20 MSTORE PUSH1 0x40 SWAP1 KECCAK256 SLOAD GT SWAP1 JUMP JUMPDEST PUSH2 0x1645 JUMPI PUSH1 0x40 MLOAD PUSH3 0x461BCD PUSH1 0xE5 SHL DUP2 MSTORE PUSH1 0x4 ADD PUSH2 0xB0B SWAP1 PUSH2 0x4024 JUMP JUMPDEST PUSH2 0x12ED DUP6 DUP6 DUP6 PUSH2 0x3019 JUMP JUMPDEST PUSH1 0x0 PUSH1 0xD DUP3 PUSH1 0x40 MLOAD PUSH2 0x1662 SWAP2 SWAP1 PUSH2 0x3FEC JUMP JUMPDEST SWAP1 DUP2 MSTORE PUSH1 0x40 MLOAD SWAP1 DUP2 SWAP1 SUB PUSH1 0x20 ADD SWAP1 KECCAK256 SLOAD PUSH1 0xFF AND ISZERO ISZERO PUSH1 0x1 EQ SWAP3 SWAP2 POP POP JUMP JUMPDEST DUP3 PUSH2 0x168B DUP2 CALLER PUSH2 0xCB2 JUMP JUMPDEST PUSH2 0x1694 JUMPI PUSH1 0x0 DUP1 REVERT JUMPDEST PUSH2 0x169D DUP4 PUSH2 0x1E40 JUMP JUMPDEST DUP1 PUSH2 0x16AA JUMPI POP PUSH1 0xC SLOAD PUSH1 0xFF AND JUMPDEST PUSH2 0x16DE JUMPI PUSH1 0x40 MLOAD PUSH3 0x461BCD PUSH1 0xE5 SHL DUP2 MSTORE PUSH1 0x20 PUSH1 0x4 DUP3 ADD MSTORE PUSH1 0x5 PUSH1 0x24 DUP3 ADD MSTORE PUSH5 0x4E53484E41 PUSH1 0xD8 SHL PUSH1 0x44 DUP3 ADD MSTORE PUSH1 0x64 ADD PUSH2 0xB0B JUMP JUMPDEST DUP2 PUSH1 0x2 DUP2 GT ISZERO PUSH2 0x16F0 JUMPI PUSH2 0x16F0 PUSH2 0x3FB2 JUMP JUMPDEST PUSH1 0x11 DUP6 PUSH1 0x40 MLOAD PUSH2 0x1700 SWAP2 SWAP1 PUSH2 0x3FEC JUMP JUMPDEST SWAP1 DUP2 MSTORE PUSH1 0x40 DUP1 MLOAD PUSH1 0x20 SWAP3 DUP2 SWAP1 SUB DUP4 ADD SWAP1 KECCAK256 PUSH1 0x1 PUSH1 0x1 PUSH1 0xA0 SHL SUB DUP8 AND PUSH1 0x0 SWAP1 DUP2 MSTORE SWAP3 MSTORE SWAP1 KECCAK256 SLOAD PUSH1 0xFF AND PUSH1 0x2 DUP2 GT ISZERO PUSH2 0x1739 JUMPI PUSH2 0x1739 PUSH2 0x3FB2 JUMP JUMPDEST SUB PUSH2 0x176C JUMPI PUSH1 0x40 MLOAD PUSH3 0x461BCD PUSH1 0xE5 SHL DUP2 MSTORE PUSH1 0x20 PUSH1 0x4 DUP3 ADD MSTORE PUSH1 0x3 PUSH1 0x24 DUP3 ADD MSTORE PUSH3 0x41485 PUSH1 0xEC SHL PUSH1 0x44 DUP3 ADD MSTORE PUSH1 0x64 ADD PUSH2 0xB0B JUMP JUMPDEST PUSH2 0xE52 DUP5 DUP5 DUP5 PUSH2 0x323C JUMP JUMPDEST PUSH1 0x0 PUSH2 0x1782 DUP3 PUSH2 0x1E40 JUMP JUMPDEST DUP1 PUSH2 0x178F JUMPI POP PUSH1 0xC SLOAD PUSH1 0xFF AND JUMPDEST PUSH2 0x179B JUMPI POP PUSH1 0x0 PUSH2 0xC71 JUMP JUMPDEST PUSH1 0x1 PUSH1 0x11 DUP5 PUSH1 0x40 MLOAD PUSH2 0x17AD SWAP2 SWAP1 PUSH2 0x3FEC JUMP JUMPDEST SWAP1 DUP2 MSTORE PUSH1 0x40 DUP1 MLOAD PUSH1 0x20 SWAP3 DUP2 SWAP1 SUB DUP4 ADD SWAP1 KECCAK256 PUSH1 0x1 PUSH1 0x1 PUSH1 0xA0 SHL SUB DUP7 AND PUSH1 0x0 SWAP1 DUP2 MSTORE SWAP3 MSTORE SWAP1 KECCAK256 SLOAD PUSH1 0xFF AND PUSH1 0x2 DUP2 GT ISZERO PUSH2 0x17E6 JUMPI PUSH2 0x17E6 PUSH2 0x3FB2 JUMP JUMPDEST LT ISZERO DUP1 PUSH2 0xD60 JUMPI POP PUSH1 0x1 PUSH1 0x12 DUP5 PUSH1 0x40 MLOAD PUSH2 0x1800 SWAP2 SWAP1 PUSH2 0x3FEC JUMP JUMPDEST SWAP1 DUP2 MSTORE PUSH1 0x40 MLOAD SWAP1 DUP2 SWAP1 SUB PUSH1 0x20 ADD SWAP1 KECCAK256 SLOAD PUSH1 0xFF AND PUSH1 0x2 DUP2 GT ISZERO PUSH2 0x1824 JUMPI PUSH2 0x1824 PUSH2 0x3FB2 JUMP JUMPDEST LT ISZERO SWAP4 SWAP3 POP POP POP JUMP JUMPDEST DUP4 PUSH2 0x1838 DUP2 CALLER PUSH2 0x14D3 JUMP JUMPDEST PUSH2 0x1841 JUMPI PUSH1 0x0 DUP1 REVERT JUMPDEST PUSH2 0x12ED DUP6 DUP6 DUP6 DUP6 PUSH2 0x32F6 JUMP JUMPDEST DUP2 PUSH2 0x1867 DUP2 PUSH1 0x0 DUP1 SLOAD SWAP2 DUP2 MSTORE PUSH1 0x7 PUSH1 0x20 MSTORE PUSH1 0x40 SWAP1 KECCAK256 SLOAD GT SWAP1 JUMP JUMPDEST PUSH2 0x1883 JUMPI PUSH1 0x40 MLOAD PUSH3 0x461BCD PUSH1 0xE5 SHL DUP2 MSTORE PUSH1 0x4 ADD PUSH2 0xB0B SWAP1 PUSH2 0x4024 JUMP JUMPDEST PUSH1 0x0 DUP4 DUP2 MSTORE PUSH1 0x5 PUSH1 0x20 MSTORE PUSH1 0x40 SWAP1 KECCAK256 SLOAD PUSH1 0xFF AND PUSH2 0x18C6 JUMPI PUSH1 0x40 MLOAD PUSH3 0x461BCD PUSH1 0xE5 SHL DUP2 MSTORE PUSH1 0x20 PUSH1 0x4 DUP3 ADD MSTORE PUSH1 0x2 PUSH1 0x24 DUP3 ADD MSTORE PUSH2 0x4E53 PUSH1 0xF0 SHL PUSH1 0x44 DUP3 ADD MSTORE PUSH1 0x64 ADD PUSH2 0xB0B JUMP JUMPDEST PUSH1 0x0 DUP4 DUP2 MSTORE PUSH1 0x6 PUSH1 0x20 MSTORE PUSH1 0x40 DUP2 KECCAK256 SLOAD SWAP1 SUB PUSH2 0x1908 JUMPI PUSH1 0x40 MLOAD PUSH3 0x461BCD PUSH1 0xE5 SHL DUP2 MSTORE PUSH1 0x20 PUSH1 0x4 DUP3 ADD MSTORE PUSH1 0x2 PUSH1 0x24 DUP3 ADD MSTORE PUSH2 0x4553 PUSH1 0xF0 SHL PUSH1 0x44 DUP3 ADD MSTORE PUSH1 0x64 ADD PUSH2 0xB0B JUMP JUMPDEST PUSH1 0x0 DUP4 DUP2 MSTORE PUSH1 0x6 PUSH1 0x20 MSTORE PUSH1 0x40 SWAP1 KECCAK256 SLOAD DUP3 GT ISZERO PUSH2 0x194B JUMPI PUSH1 0x40 MLOAD PUSH3 0x461BCD PUSH1 0xE5 SHL DUP2 MSTORE PUSH1 0x20 PUSH1 0x4 DUP3 ADD MSTORE PUSH1 0x2 PUSH1 0x24 DUP3 ADD MSTORE PUSH2 0x4553 PUSH1 0xF0 SHL PUSH1 0x44 DUP3 ADD MSTORE PUSH1 0x64 ADD PUSH2 0xB0B JUMP JUMPDEST PUSH1 0x0 DUP4 DUP2 MSTORE PUSH1 0x6 PUSH1 0x20 MSTORE PUSH1 0x40 SWAP1 KECCAK256 PUSH1 0x3 ADD SLOAD PUSH1 0x1 PUSH1 0x1 PUSH1 0xA0 SHL SUB AND CALLER EQ DUP1 PUSH2 0x198B JUMPI POP PUSH1 0x0 DUP4 DUP2 MSTORE PUSH1 0x6 PUSH1 0x20 MSTORE PUSH1 0x40 SWAP1 KECCAK256 PUSH1 0x3 ADD SLOAD PUSH1 0x1 PUSH1 0x1 PUSH1 0xA0 SHL SUB AND ISZERO JUMPDEST PUSH2 0x19BC JUMPI PUSH1 0x40 MLOAD PUSH3 0x461BCD PUSH1 0xE5 SHL DUP2 MSTORE PUSH1 0x20 PUSH1 0x4 DUP3 ADD MSTORE PUSH1 0x2 PUSH1 0x24 DUP3 ADD MSTORE PUSH2 0x29A9 PUSH1 0xF1 SHL PUSH1 0x44 DUP3 ADD MSTORE PUSH1 0x64 ADD PUSH2 0xB0B JUMP JUMPDEST PUSH2 0x19C5 DUP4 PUSH2 0x2077 JUMP JUMPDEST PUSH1 0x0 DUP4 DUP2 MSTORE PUSH1 0x6 PUSH1 0x20 MSTORE PUSH1 0x40 DUP2 KECCAK256 PUSH1 0x2 ADD SLOAD PUSH2 0x19E1 SWAP1 DUP5 PUSH2 0x4078 JUMP JUMPDEST SWAP1 POP PUSH1 0x0 DUP1 PUSH1 0x0 PUSH2 0x19F6 DUP5 PUSH1 0x19 PUSH2 0x3E8 PUSH2 0x3498 JUMP JUMPDEST SWAP2 SWAP5 POP SWAP3 POP SWAP1 POP PUSH2 0x1A07 DUP2 DUP4 PUSH2 0x3F9F JUMP JUMPDEST PUSH1 0x0 DUP9 DUP2 MSTORE PUSH1 0x6 PUSH1 0x20 MSTORE PUSH1 0x40 SWAP1 KECCAK256 PUSH1 0x1 ADD SLOAD SWAP1 SWAP3 POP PUSH1 0x1 PUSH1 0x1 PUSH1 0xA0 SHL SUB AND PUSH2 0x1B66 JUMPI DUP4 CALLVALUE LT ISZERO PUSH2 0x1A5E JUMPI PUSH1 0x40 MLOAD PUSH3 0x461BCD PUSH1 0xE5 SHL DUP2 MSTORE PUSH1 0x20 PUSH1 0x4 DUP3 ADD MSTORE PUSH1 0x2 PUSH1 0x24 DUP3 ADD MSTORE PUSH2 0x4945 PUSH1 0xF0 SHL PUSH1 0x44 DUP3 ADD MSTORE PUSH1 0x64 ADD PUSH2 0xB0B JUMP JUMPDEST PUSH1 0x40 MLOAD PUSH1 0x0 SWAP1 PUSH20 0x49A71890AEA5A751E30E740C504F2E9683F347BC SWAP1 DUP6 SWAP1 DUP4 DUP2 DUP2 DUP2 DUP6 DUP8 GAS CALL SWAP3 POP POP POP RETURNDATASIZE DUP1 PUSH1 0x0 DUP2 EQ PUSH2 0x1AB4 JUMPI PUSH1 0x40 MLOAD SWAP2 POP PUSH1 0x1F NOT PUSH1 0x3F RETURNDATASIZE ADD AND DUP3 ADD PUSH1 0x40 MSTORE RETURNDATASIZE DUP3 MSTORE RETURNDATASIZE PUSH1 0x0 PUSH1 0x20 DUP5 ADD RETURNDATACOPY PUSH2 0x1AB9 JUMP JUMPDEST PUSH1 0x60 SWAP2 POP JUMPDEST POP POP PUSH1 0x0 DUP10 DUP2 MSTORE PUSH1 0x3 PUSH1 0x20 MSTORE PUSH1 0x40 DUP1 DUP3 KECCAK256 PUSH1 0x1 ADD SLOAD SWAP1 MLOAD SWAP3 SWAP4 POP SWAP1 SWAP2 PUSH1 0x1 PUSH1 0x1 PUSH1 0xA0 SHL SUB SWAP1 SWAP2 AND SWAP1 DUP6 SWAP1 DUP4 DUP2 DUP2 DUP2 DUP6 DUP8 GAS CALL SWAP3 POP POP POP RETURNDATASIZE DUP1 PUSH1 0x0 DUP2 EQ PUSH2 0x1B1B JUMPI PUSH1 0x40 MLOAD SWAP2 POP PUSH1 0x1F NOT PUSH1 0x3F RETURNDATASIZE ADD AND DUP3 ADD PUSH1 0x40 MSTORE RETURNDATASIZE DUP3 MSTORE RETURNDATASIZE PUSH1 0x0 PUSH1 0x20 DUP5 ADD RETURNDATACOPY PUSH2 0x1B20 JUMP JUMPDEST PUSH1 0x60 SWAP2 POP JUMPDEST POP POP SWAP1 POP DUP1 DUP1 ISZERO PUSH2 0x1B2E JUMPI POP DUP2 JUMPDEST PUSH2 0x1B5F JUMPI PUSH1 0x40 MLOAD PUSH3 0x461BCD PUSH1 0xE5 SHL DUP2 MSTORE PUSH1 0x20 PUSH1 0x4 DUP3 ADD MSTORE PUSH1 0x2 PUSH1 0x24 DUP3 ADD MSTORE PUSH2 0x2A23 PUSH1 0xF1 SHL PUSH1 0x44 DUP3 ADD MSTORE PUSH1 0x64 ADD PUSH2 0xB0B JUMP JUMPDEST POP POP PUSH2 0x1CEC JUMP JUMPDEST PUSH1 0x0 DUP8 DUP2 MSTORE PUSH1 0x6 PUSH1 0x20 MSTORE PUSH1 0x40 SWAP1 DUP2 SWAP1 KECCAK256 PUSH1 0x1 ADD SLOAD SWAP1 MLOAD PUSH4 0x6EB1769F PUSH1 0xE1 SHL DUP2 MSTORE CALLER PUSH1 0x4 DUP3 ADD MSTORE ADDRESS PUSH1 0x24 DUP3 ADD MSTORE PUSH1 0x1 PUSH1 0x1 PUSH1 0xA0 SHL SUB SWAP1 SWAP2 AND SWAP1 DUP6 SWAP1 DUP3 SWAP1 PUSH4 0xDD62ED3E SWAP1 PUSH1 0x44 ADD PUSH1 0x20 PUSH1 0x40 MLOAD DUP1 DUP4 SUB DUP2 DUP7 GAS STATICCALL ISZERO DUP1 ISZERO PUSH2 0x1BC8 JUMPI RETURNDATASIZE PUSH1 0x0 DUP1 RETURNDATACOPY RETURNDATASIZE PUSH1 0x0 REVERT JUMPDEST POP POP POP POP PUSH1 0x40 MLOAD RETURNDATASIZE PUSH1 0x1F NOT PUSH1 0x1F DUP3 ADD AND DUP3 ADD DUP1 PUSH1 0x40 MSTORE POP DUP2 ADD SWAP1 PUSH2 0x1BEC SWAP2 SWAP1 PUSH2 0x4133 JUMP JUMPDEST LT ISZERO PUSH2 0x1C0A JUMPI PUSH1 0x40 MLOAD PUSH3 0x461BCD PUSH1 0xE5 SHL DUP2 MSTORE PUSH1 0x4 ADD PUSH2 0xB0B SWAP1 PUSH2 0x414C JUMP JUMPDEST PUSH1 0x40 MLOAD PUSH4 0x23B872DD PUSH1 0xE0 SHL DUP2 MSTORE CALLER PUSH1 0x4 DUP3 ADD MSTORE PUSH20 0x49A71890AEA5A751E30E740C504F2E9683F347BC PUSH1 0x24 DUP3 ADD MSTORE PUSH1 0x44 DUP2 ADD DUP6 SWAP1 MSTORE PUSH1 0x1 PUSH1 0x1 PUSH1 0xA0 SHL SUB DUP3 AND SWAP1 PUSH4 0x23B872DD SWAP1 PUSH1 0x64 ADD PUSH1 0x20 PUSH1 0x40 MLOAD DUP1 DUP4 SUB DUP2 PUSH1 0x0 DUP8 GAS CALL ISZERO DUP1 ISZERO PUSH2 0x1C71 JUMPI RETURNDATASIZE PUSH1 0x0 DUP1 RETURNDATACOPY RETURNDATASIZE PUSH1 0x0 REVERT JUMPDEST POP POP POP POP PUSH1 0x40 MLOAD RETURNDATASIZE PUSH1 0x1F NOT PUSH1 0x1F DUP3 ADD AND DUP3 ADD DUP1 PUSH1 0x40 MSTORE POP DUP2 ADD SWAP1 PUSH2 0x1C95 SWAP2 SWAP1 PUSH2 0x4168 JUMP JUMPDEST PUSH2 0x1CB1 JUMPI PUSH1 0x40 MLOAD PUSH3 0x461BCD PUSH1 0xE5 SHL DUP2 MSTORE PUSH1 0x4 ADD PUSH2 0xB0B SWAP1 PUSH2 0x4185 JUMP JUMPDEST PUSH1 0x0 DUP9 DUP2 MSTORE PUSH1 0x3 PUSH1 0x20 SWAP1 DUP2 MSTORE PUSH1 0x40 DUP1 DUP4 KECCAK256 PUSH1 0x1 SWAP1 DUP2 ADD SLOAD PUSH1 0x6 SWAP1 SWAP4 MSTORE SWAP3 KECCAK256 SWAP1 SWAP2 ADD SLOAD PUSH2 0x1CEA SWAP2 PUSH1 0x1 PUSH1 0x1 PUSH1 0xA0 SHL SUB SWAP1 DUP2 AND SWAP2 AND DUP6 PUSH2 0x350C JUMP JUMPDEST POP JUMPDEST PUSH2 0x1CF7 DUP8 DUP8 CALLER PUSH2 0x3019 JUMP JUMPDEST PUSH1 0x0 DUP8 DUP2 MSTORE PUSH1 0x3 PUSH1 0x20 MSTORE PUSH1 0x40 SWAP1 KECCAK256 PUSH1 0x1 ADD SLOAD ADDRESS PUSH1 0x1 PUSH1 0x1 PUSH1 0xA0 SHL SUB SWAP1 SWAP2 AND SUB PUSH2 0x1D3F JUMPI PUSH1 0x0 DUP1 SLOAD DUP2 MSTORE PUSH1 0x2 PUSH1 0x20 MSTORE PUSH1 0x40 DUP2 KECCAK256 DUP1 SLOAD DUP9 SWAP3 SWAP1 PUSH2 0x1D39 SWAP1 DUP5 SWAP1 PUSH2 0x3F9F JUMP JUMPDEST SWAP1 SWAP2 SSTORE POP POP JUMPDEST PUSH1 0x0 DUP8 DUP2 MSTORE PUSH1 0x6 PUSH1 0x20 SWAP1 DUP2 MSTORE PUSH1 0x40 SWAP2 DUP3 SWAP1 KECCAK256 PUSH1 0x1 DUP2 ADD SLOAD PUSH1 0x2 SWAP1 SWAP2 ADD SLOAD DUP4 MLOAD DUP12 DUP2 MSTORE SWAP3 DUP4 ADD DUP11 SWAP1 MSTORE CALLER DUP4 DUP6 ADD MSTORE PUSH1 0x1 PUSH1 0x1 PUSH1 0xA0 SHL SUB SWAP1 SWAP2 AND PUSH1 0x60 DUP4 ADD MSTORE PUSH1 0x80 DUP3 ADD MSTORE SWAP1 MLOAD PUSH32 0x443732A78C29282934211EAE7AA500DD12DB85D4DD795DBCDA5F94EE19A67E4F SWAP2 DUP2 SWAP1 SUB PUSH1 0xA0 ADD SWAP1 LOG1 PUSH1 0x0 DUP8 DUP2 MSTORE PUSH1 0x6 PUSH1 0x20 MSTORE PUSH1 0x40 SWAP1 KECCAK256 SLOAD DUP7 EQ PUSH2 0x1E37 JUMPI PUSH1 0x0 DUP8 DUP2 MSTORE PUSH1 0x3 PUSH1 0x20 SWAP1 DUP2 MSTORE PUSH1 0x40 DUP1 DUP4 KECCAK256 PUSH1 0x1 ADD SLOAD PUSH1 0x1 PUSH1 0x1 PUSH1 0xA0 SHL SUB AND DUP4 MSTORE PUSH1 0x4 DUP3 MSTORE DUP1 DUP4 KECCAK256 SLOAD DUP11 DUP5 MSTORE PUSH1 0x6 SWAP1 SWAP3 MSTORE SWAP1 SWAP2 KECCAK256 SLOAD PUSH2 0x1E37 SWAP2 SWAP1 PUSH2 0x1E06 SWAP1 DUP10 SWAP1 PUSH2 0x40B1 JUMP JUMPDEST PUSH1 0x0 DUP11 DUP2 MSTORE PUSH1 0x6 PUSH1 0x20 MSTORE PUSH1 0x40 SWAP1 KECCAK256 PUSH1 0x1 DUP2 ADD SLOAD PUSH1 0x2 DUP3 ADD SLOAD PUSH1 0x3 SWAP1 SWAP3 ADD SLOAD PUSH1 0x1 PUSH1 0x1 PUSH1 0xA0 SHL SUB SWAP2 DUP3 AND SWAP3 SWAP2 AND PUSH2 0x35BB JUMP JUMPDEST POP POP POP POP POP POP POP JUMP JUMPDEST PUSH1 0x1 PUSH1 0x1 PUSH1 0xA0 SHL SUB DUP2 AND PUSH1 0x0 SWAP1 DUP2 MSTORE PUSH1 0x4 PUSH1 0x20 MSTORE PUSH1 0x40 DUP2 KECCAK256 SLOAD PUSH2 0xC71 SWAP1 PUSH1 0x0 DUP1 SLOAD SWAP2 DUP2 MSTORE PUSH1 0x7 PUSH1 0x20 MSTORE PUSH1 0x40 SWAP1 KECCAK256 SLOAD GT SWAP1 JUMP JUMPDEST PUSH1 0x0 DUP6 DUP2 MSTORE PUSH1 0x3 PUSH1 0x20 MSTORE PUSH1 0x40 SWAP1 KECCAK256 PUSH1 0x1 ADD SLOAD DUP6 SWAP1 PUSH1 0x1 PUSH1 0x1 PUSH1 0xA0 SHL SUB AND CALLER EQ PUSH2 0x1EAD JUMPI PUSH1 0x40 MLOAD PUSH3 0x461BCD PUSH1 0xE5 SHL DUP2 MSTORE PUSH1 0x4 ADD PUSH2 0xB0B SWAP1 PUSH2 0x4008 JUMP JUMPDEST DUP6 PUSH2 0x1EC7 DUP2 PUSH1 0x0 DUP1 SLOAD SWAP2 DUP2 MSTORE PUSH1 0x7 PUSH1 0x20 MSTORE PUSH1 0x40 SWAP1 KECCAK256 SLOAD GT SWAP1 JUMP JUMPDEST PUSH2 0x1EE3 JUMPI PUSH1 0x40 MLOAD PUSH3 0x461BCD PUSH1 0xE5 SHL DUP2 MSTORE PUSH1 0x4 ADD PUSH2 0xB0B SWAP1 PUSH2 0x4024 JUMP JUMPDEST PUSH2 0x1E37 DUP8 DUP8 DUP8 DUP8 DUP8 PUSH2 0x35BB JUMP JUMPDEST PUSH1 0x0 DUP3 DUP2 MSTORE PUSH1 0x3 PUSH1 0x20 MSTORE PUSH1 0x40 DUP2 KECCAK256 PUSH1 0x2 ADD SLOAD DUP3 LT DUP1 ISZERO SWAP1 PUSH2 0xD60 JUMPI POP POP PUSH1 0x0 SWAP2 DUP3 MSTORE PUSH1 0x7 PUSH1 0x20 MSTORE PUSH1 0x40 SWAP1 SWAP2 KECCAK256 SLOAD GT SWAP1 JUMP JUMPDEST PUSH1 0x1 PUSH1 0x1 PUSH1 0xA0 SHL SUB DUP4 AND PUSH1 0x0 SWAP1 DUP2 MSTORE PUSH1 0x9 PUSH1 0x20 MSTORE PUSH1 0x40 DUP2 KECCAK256 DUP1 SLOAD DUP5 SWAP3 SWAP1 PUSH2 0x1F49 SWAP1 DUP5 SWAP1 PUSH2 0x3F9F JUMP JUMPDEST SWAP1 SWAP2 SSTORE POP POP PUSH1 0x1 PUSH1 0x1 PUSH1 0xA0 SHL SUB DUP4 AND PUSH1 0x0 SWAP1 DUP2 MSTORE PUSH1 0xA PUSH1 0x20 MSTORE PUSH1 0x40 DUP2 KECCAK256 DUP1 SLOAD DUP5 SWAP3 SWAP1 PUSH2 0xA2A SWAP1 DUP5 SWAP1 PUSH2 0x3F9F JUMP JUMPDEST PUSH1 0x1 DUP1 SLOAD PUSH1 0xFF AND ISZERO ISZERO EQ PUSH2 0x1F9C JUMPI PUSH1 0x40 MLOAD PUSH3 0x461BCD PUSH1 0xE5 SHL DUP2 MSTORE PUSH1 0x4 ADD PUSH2 0xB0B SWAP1 PUSH2 0x4040 JUMP JUMPDEST DUP1 PUSH1 0x12 DUP4 PUSH1 0x40 MLOAD PUSH2 0x1FAD SWAP2 SWAP1 PUSH2 0x3FEC JUMP JUMPDEST SWAP1 DUP2 MSTORE PUSH1 0x40 MLOAD SWAP1 DUP2 SWAP1 SUB PUSH1 0x20 ADD SWAP1 KECCAK256 DUP1 SLOAD PUSH1 0xFF NOT AND PUSH1 0x1 DUP4 PUSH1 0x2 DUP2 GT ISZERO PUSH2 0x1FD6 JUMPI PUSH2 0x1FD6 PUSH2 0x3FB2 JUMP JUMPDEST MUL OR SWAP1 SSTORE POP PUSH1 0x0 DUP1 MLOAD PUSH1 0x20 PUSH2 0x4572 DUP4 CODECOPY DUP2 MLOAD SWAP2 MSTORE DUP3 DUP3 PUSH1 0x40 MLOAD PUSH1 0x20 ADD PUSH2 0x1FFD SWAP3 SWAP2 SWAP1 PUSH2 0x41C3 JUMP JUMPDEST PUSH1 0x40 DUP1 MLOAD PUSH1 0x1F NOT DUP2 DUP5 SUB ADD DUP2 MSTORE SWAP1 DUP3 SWAP1 MSTORE PUSH2 0x2019 SWAP2 CALLER SWAP1 PUSH2 0x41E5 JUMP JUMPDEST PUSH1 0x40 MLOAD DUP1 SWAP2 SUB SWAP1 LOG1 POP POP JUMP JUMPDEST PUSH2 0x202D PUSH2 0x376E JUMP JUMPDEST PUSH1 0x40 DUP1 MLOAD PUSH1 0x60 DUP1 DUP3 MSTORE PUSH1 0x2 SWAP1 DUP3 ADD MSTORE PUSH2 0x6C45 PUSH1 0xF0 SHL PUSH1 0x80 DUP3 ADD MSTORE PUSH1 0xA0 PUSH1 0x20 DUP3 ADD DUP2 SWAP1 MSTORE PUSH1 0x0 SWAP1 DUP3 ADD MSTORE CALLER DUP2 DUP4 ADD MSTORE SWAP1 MLOAD PUSH1 0x0 DUP1 MLOAD PUSH1 0x20 PUSH2 0x4572 DUP4 CODECOPY DUP2 MLOAD SWAP2 MSTORE SWAP2 DUP2 SWAP1 SUB PUSH1 0xC0 ADD SWAP1 LOG1 JUMP JUMPDEST DUP1 PUSH2 0x2091 DUP2 PUSH1 0x0 DUP1 SLOAD SWAP2 DUP2 MSTORE PUSH1 0x7 PUSH1 0x20 MSTORE PUSH1 0x40 SWAP1 KECCAK256 SLOAD GT SWAP1 JUMP JUMPDEST PUSH2 0x20AD JUMPI PUSH1 0x40 MLOAD PUSH3 0x461BCD PUSH1 0xE5 SHL DUP2 MSTORE PUSH1 0x4 ADD PUSH2 0xB0B SWAP1 PUSH2 0x4024 JUMP JUMPDEST POP PUSH1 0x0 SWAP1 DUP2 MSTORE PUSH1 0x5 PUSH1 0x20 MSTORE PUSH1 0x40 SWAP1 KECCAK256 DUP1 SLOAD PUSH1 0xFF NOT AND SWAP1 SSTORE JUMP JUMPDEST PUSH1 0x0 DUP2 DUP2 MSTORE PUSH1 0x13 PUSH1 0x20 MSTORE PUSH1 0x40 SWAP1 KECCAK256 SLOAD DUP2 SWAP1 PUSH1 0xFF AND PUSH2 0x20E3 JUMPI PUSH1 0x0 DUP1 REVERT JUMPDEST PUSH1 0x1 DUP1 SLOAD PUSH1 0xFF AND ISZERO ISZERO EQ PUSH2 0x2109 JUMPI PUSH1 0x40 MLOAD PUSH3 0x461BCD PUSH1 0xE5 SHL DUP2 MSTORE PUSH1 0x4 ADD PUSH2 0xB0B SWAP1 PUSH2 0x4040 JUMP JUMPDEST PUSH1 0x0 DUP3 DUP2 MSTORE PUSH1 0x13 PUSH1 0x20 SWAP1 DUP2 MSTORE PUSH1 0x40 DUP1 DUP4 KECCAK256 DUP1 SLOAD PUSH1 0xFF NOT AND SWAP1 SSTORE PUSH1 0x15 DUP3 MSTORE DUP1 DUP4 KECCAK256 SLOAD DUP2 MLOAD PUSH4 0x36B0B4B7 PUSH1 0xE1 SHL DUP2 MSTORE PUSH1 0xF PUSH1 0x4 DUP3 ADD MSTORE DUP3 MLOAD SWAP1 DUP2 SWAP1 SUB PUSH1 0x24 ADD SWAP1 KECCAK256 DUP7 DUP6 MSTORE PUSH1 0x14 DUP5 MSTORE DUP3 DUP6 KECCAK256 SLOAD PUSH1 0x1 PUSH1 0x1 PUSH1 0xA0 SHL SUB AND DUP6 MSTORE SWAP1 SWAP3 MSTORE DUP3 KECCAK256 DUP1 SLOAD SWAP2 SWAP3 SWAP1 SWAP2 PUSH2 0x2174 SWAP1 DUP5 SWAP1 PUSH2 0x3F9F JUMP JUMPDEST SWAP1 SWAP2 SSTORE POP POP PUSH1 0x40 DUP1 MLOAD PUSH1 0x20 DUP2 ADD DUP5 SWAP1 MSTORE PUSH1 0x0 DUP1 MLOAD PUSH1 0x20 PUSH2 0x4572 DUP4 CODECOPY DUP2 MLOAD SWAP2 MSTORE SWAP2 ADD PUSH1 0x40 DUP1 MLOAD PUSH1 0x1F NOT DUP2 DUP5 SUB ADD DUP2 MSTORE SWAP1 DUP3 SWAP1 MSTORE PUSH2 0x2019 SWAP2 CALLER SWAP1 PUSH2 0x4211 JUMP JUMPDEST PUSH1 0x1 DUP1 SLOAD PUSH1 0xFF AND ISZERO ISZERO EQ PUSH2 0x21D7 JUMPI PUSH1 0x40 MLOAD PUSH3 0x461BCD PUSH1 0xE5 SHL DUP2 MSTORE PUSH1 0x4 ADD PUSH2 0xB0B SWAP1 PUSH2 0x4040 JUMP JUMPDEST PUSH2 0x21E0 DUP3 PUSH2 0x1650 JUMP JUMPDEST ISZERO PUSH2 0x2212 JUMPI PUSH1 0x40 MLOAD PUSH3 0x461BCD PUSH1 0xE5 SHL DUP2 MSTORE PUSH1 0x20 PUSH1 0x4 DUP3 ADD MSTORE PUSH1 0x2 PUSH1 0x24 DUP3 ADD MSTORE PUSH2 0x4145 PUSH1 0xF0 SHL PUSH1 0x44 DUP3 ADD MSTORE PUSH1 0x64 ADD PUSH2 0xB0B JUMP JUMPDEST PUSH1 0x1 PUSH1 0x10 DUP4 PUSH1 0x40 MLOAD PUSH2 0x2224 SWAP2 SWAP1 PUSH2 0x3FEC JUMP JUMPDEST SWAP1 DUP2 MSTORE PUSH1 0x40 DUP1 MLOAD PUSH1 0x20 SWAP3 DUP2 SWAP1 SUB DUP4 ADD DUP2 KECCAK256 PUSH1 0x1 PUSH1 0x1 PUSH1 0xA0 SHL SUB DUP7 AND PUSH1 0x0 SWAP1 DUP2 MSTORE SWAP4 MSTORE SWAP2 KECCAK256 DUP1 SLOAD PUSH1 0xFF NOT AND SWAP3 ISZERO ISZERO SWAP3 SWAP1 SWAP3 OR SWAP1 SWAP2 SSTORE PUSH1 0x1 SWAP1 PUSH1 0xD SWAP1 PUSH2 0x2269 SWAP1 DUP6 SWAP1 PUSH2 0x3FEC JUMP JUMPDEST SWAP1 DUP2 MSTORE PUSH1 0x40 MLOAD PUSH1 0x20 SWAP2 DUP2 SWAP1 SUB DUP3 ADD DUP2 KECCAK256 DUP1 SLOAD PUSH1 0xFF NOT AND SWAP4 ISZERO ISZERO SWAP4 SWAP1 SWAP4 OR SWAP1 SWAP3 SSTORE PUSH1 0x0 DUP1 MLOAD PUSH1 0x20 PUSH2 0x4572 DUP4 CODECOPY DUP2 MLOAD SWAP2 MSTORE SWAP2 PUSH2 0x22A7 SWAP2 DUP6 SWAP2 DUP6 SWAP2 ADD PUSH2 0x423D JUMP JUMPDEST PUSH1 0x40 DUP1 MLOAD PUSH1 0x1F NOT DUP2 DUP5 SUB ADD DUP2 MSTORE SWAP1 DUP3 SWAP1 MSTORE PUSH2 0x2019 SWAP2 CALLER SWAP1 PUSH2 0x4267 JUMP JUMPDEST PUSH1 0x1 DUP1 SLOAD PUSH1 0xFF AND ISZERO ISZERO EQ PUSH2 0x22E9 JUMPI PUSH1 0x40 MLOAD PUSH3 0x461BCD PUSH1 0xE5 SHL DUP2 MSTORE PUSH1 0x4 ADD PUSH2 0xB0B SWAP1 PUSH2 0x4040 JUMP JUMPDEST PUSH2 0x22F3 DUP3 DUP3 PUSH2 0x14D3 JUMP JUMPDEST PUSH2 0x22FC JUMPI PUSH1 0x0 DUP1 REVERT JUMPDEST PUSH1 0x0 PUSH1 0x10 DUP4 PUSH1 0x40 MLOAD PUSH2 0x230E SWAP2 SWAP1 PUSH2 0x3FEC JUMP JUMPDEST SWAP1 DUP2 MSTORE PUSH1 0x40 DUP1 MLOAD PUSH1 0x20 SWAP3 DUP2 SWAP1 SUB DUP4 ADD DUP2 KECCAK256 PUSH1 0x1 PUSH1 0x1 PUSH1 0xA0 SHL SUB DUP7 AND PUSH1 0x0 SWAP1 DUP2 MSTORE SWAP1 DUP5 MSTORE SWAP2 SWAP1 SWAP2 KECCAK256 DUP1 SLOAD PUSH1 0xFF NOT AND SWAP4 ISZERO ISZERO SWAP4 SWAP1 SWAP4 OR SWAP1 SWAP3 SSTORE PUSH1 0x0 DUP1 MLOAD PUSH1 0x20 PUSH2 0x4572 DUP4 CODECOPY DUP2 MLOAD SWAP2 MSTORE SWAP2 PUSH2 0x2363 SWAP2 DUP6 SWAP2 DUP6 SWAP2 ADD PUSH2 0x423D JUMP JUMPDEST PUSH1 0x40 DUP1 MLOAD PUSH1 0x1F NOT DUP2 DUP5 SUB ADD DUP2 MSTORE SWAP1 DUP3 SWAP1 MSTORE PUSH2 0x2019 SWAP2 CALLER SWAP1 PUSH2 0x4293 JUMP JUMPDEST PUSH1 0x1 PUSH1 0x1 PUSH1 0xA0 SHL SUB DUP4 AND PUSH1 0x0 SWAP1 DUP2 MSTORE PUSH1 0x9 PUSH1 0x20 MSTORE PUSH1 0x40 SWAP1 KECCAK256 SLOAD DUP3 GT ISZERO PUSH2 0x23B7 JUMPI PUSH1 0x40 MLOAD PUSH3 0x461BCD PUSH1 0xE5 SHL DUP2 MSTORE PUSH1 0x4 ADD PUSH2 0xB0B SWAP1 PUSH2 0x414C JUMP JUMPDEST PUSH1 0x1 PUSH1 0x1 PUSH1 0xA0 SHL SUB DUP4 AND PUSH2 0x23D4 JUMPI PUSH2 0x23CF DUP3 DUP3 PUSH2 0x37A0 JUMP JUMPDEST PUSH2 0x260F JUMP JUMPDEST PUSH1 0x40 MLOAD PUSH4 0x95EA7B3 PUSH1 0xE0 SHL DUP2 MSTORE PUSH1 0x1 PUSH1 0x1 PUSH1 0xA0 SHL SUB DUP3 DUP2 AND PUSH1 0x4 DUP4 ADD MSTORE PUSH1 0x24 DUP3 ADD DUP5 SWAP1 MSTORE DUP5 SWAP2 SWAP1 DUP3 AND SWAP1 PUSH4 0x95EA7B3 SWAP1 PUSH1 0x44 ADD PUSH1 0x20 PUSH1 0x40 MLOAD DUP1 DUP4 SUB DUP2 PUSH1 0x0 DUP8 GAS CALL ISZERO DUP1 ISZERO PUSH2 0x2426 JUMPI RETURNDATASIZE PUSH1 0x0 DUP1 RETURNDATACOPY RETURNDATASIZE PUSH1 0x0 REVERT JUMPDEST POP POP POP POP PUSH1 0x40 MLOAD RETURNDATASIZE PUSH1 0x1F NOT PUSH1 0x1F DUP3 ADD AND DUP3 ADD DUP1 PUSH1 0x40 MSTORE POP DUP2 ADD SWAP1 PUSH2 0x244A SWAP2 SWAP1 PUSH2 0x4168 JUMP JUMPDEST PUSH2 0x247B JUMPI PUSH1 0x40 MLOAD PUSH3 0x461BCD PUSH1 0xE5 SHL DUP2 MSTORE PUSH1 0x20 PUSH1 0x4 DUP3 ADD MSTORE PUSH1 0x2 PUSH1 0x24 DUP3 ADD MSTORE PUSH2 0x4E41 PUSH1 0xF0 SHL PUSH1 0x44 DUP3 ADD MSTORE PUSH1 0x64 ADD PUSH2 0xB0B JUMP JUMPDEST PUSH1 0x1 PUSH1 0x1 PUSH1 0xA0 SHL SUB DUP3 AND EXTCODESIZE ISZERO PUSH2 0x257E JUMPI PUSH1 0x40 MLOAD PUSH4 0x4B91AD0F PUSH1 0xE1 SHL DUP2 MSTORE PUSH1 0x1 PUSH1 0x1 PUSH1 0xA0 SHL SUB DUP6 DUP2 AND PUSH1 0x4 DUP4 ADD MSTORE PUSH1 0x24 DUP3 ADD DUP6 SWAP1 MSTORE DUP4 AND SWAP1 PUSH4 0x97235A1E SWAP1 PUSH1 0x44 ADD PUSH1 0x0 PUSH1 0x40 MLOAD DUP1 DUP4 SUB DUP2 PUSH1 0x0 DUP8 DUP1 EXTCODESIZE ISZERO DUP1 ISZERO PUSH2 0x24D5 JUMPI PUSH1 0x0 DUP1 REVERT JUMPDEST POP GAS CALL SWAP3 POP POP POP DUP1 ISZERO PUSH2 0x24E6 JUMPI POP PUSH1 0x1 JUMPDEST PUSH2 0x2579 JUMPI PUSH1 0x40 MLOAD PUSH4 0xA9059CBB PUSH1 0xE0 SHL DUP2 MSTORE PUSH1 0x1 PUSH1 0x1 PUSH1 0xA0 SHL SUB DUP4 DUP2 AND PUSH1 0x4 DUP4 ADD MSTORE PUSH1 0x24 DUP3 ADD DUP6 SWAP1 MSTORE DUP3 AND SWAP1 PUSH4 0xA9059CBB SWAP1 PUSH1 0x44 ADD PUSH1 0x20 PUSH1 0x40 MLOAD DUP1 DUP4 SUB DUP2 PUSH1 0x0 DUP8 GAS CALL ISZERO DUP1 ISZERO PUSH2 0x2539 JUMPI RETURNDATASIZE PUSH1 0x0 DUP1 RETURNDATACOPY RETURNDATASIZE PUSH1 0x0 REVERT JUMPDEST POP POP POP POP PUSH1 0x40 MLOAD RETURNDATASIZE PUSH1 0x1F NOT PUSH1 0x1F DUP3 ADD AND DUP3 ADD DUP1 PUSH1 0x40 MSTORE POP DUP2 ADD SWAP1 PUSH2 0x255D SWAP2 SWAP1 PUSH2 0x4168 JUMP JUMPDEST PUSH2 0x2579 JUMPI PUSH1 0x40 MLOAD PUSH3 0x461BCD PUSH1 0xE5 SHL DUP2 MSTORE PUSH1 0x4 ADD PUSH2 0xB0B SWAP1 PUSH2 0x4185 JUMP JUMPDEST PUSH2 0x260D JUMP JUMPDEST PUSH1 0x40 MLOAD PUSH4 0xA9059CBB PUSH1 0xE0 SHL DUP2 MSTORE PUSH1 0x1 PUSH1 0x1 PUSH1 0xA0 SHL SUB DUP4 DUP2 AND PUSH1 0x4 DUP4 ADD MSTORE PUSH1 0x24 DUP3 ADD DUP6 SWAP1 MSTORE DUP3 AND SWAP1 PUSH4 0xA9059CBB SWAP1 PUSH1 0x44 ADD PUSH1 0x20 PUSH1 0x40 MLOAD DUP1 DUP4 SUB DUP2 PUSH1 0x0 DUP8 GAS CALL ISZERO DUP1 ISZERO PUSH2 0x25CD JUMPI RETURNDATASIZE PUSH1 0x0 DUP1 RETURNDATACOPY RETURNDATASIZE PUSH1 0x0 REVERT JUMPDEST POP POP POP POP PUSH1 0x40 MLOAD RETURNDATASIZE PUSH1 0x1F NOT PUSH1 0x1F DUP3 ADD AND DUP3 ADD DUP1 PUSH1 0x40 MSTORE POP DUP2 ADD SWAP1 PUSH2 0x25F1 SWAP2 SWAP1 PUSH2 0x4168 JUMP JUMPDEST PUSH2 0x260D JUMPI PUSH1 0x40 MLOAD PUSH3 0x461BCD PUSH1 0xE5 SHL DUP2 MSTORE PUSH1 0x4 ADD PUSH2 0xB0B SWAP1 PUSH2 0x4185 JUMP JUMPDEST POP JUMPDEST PUSH1 0x1 SLOAD PUSH1 0xFF AND ISZERO PUSH2 0xB1E JUMPI PUSH2 0xB1E DUP4 DUP4 PUSH2 0x3828 JUMP JUMPDEST PUSH1 0x1 DUP1 SLOAD PUSH1 0xFF AND ISZERO ISZERO EQ PUSH2 0x264A JUMPI PUSH1 0x40 MLOAD PUSH3 0x461BCD PUSH1 0xE5 SHL DUP2 MSTORE PUSH1 0x4 ADD PUSH2 0xB0B SWAP1 PUSH2 0x4040 JUMP JUMPDEST PUSH2 0x2653 DUP2 PUSH2 0x1650 JUMP JUMPDEST PUSH2 0x2685 JUMPI PUSH1 0x40 MLOAD PUSH3 0x461BCD PUSH1 0xE5 SHL DUP2 MSTORE PUSH1 0x20 PUSH1 0x4 DUP3 ADD MSTORE PUSH1 0x3 PUSH1 0x24 DUP3 ADD MSTORE PUSH3 0x554221 PUSH1 0xE8 SHL PUSH1 0x44 DUP3 ADD MSTORE PUSH1 0x64 ADD PUSH2 0xB0B JUMP JUMPDEST PUSH1 0x40 DUP1 MLOAD DUP1 DUP3 ADD SWAP1 SWAP2 MSTORE PUSH1 0x4 DUP2 MSTORE PUSH4 0x36B0B4B7 PUSH1 0xE1 SHL PUSH1 0x20 SWAP2 DUP3 ADD MSTORE DUP2 MLOAD SWAP1 DUP3 ADD KECCAK256 PUSH32 0x471DFAB0756EDC981C75DD3188CCD700755407F7D3BEDF452610F7A1E240D659 ADD PUSH2 0x26FA JUMPI PUSH1 0x40 MLOAD PUSH3 0x461BCD PUSH1 0xE5 SHL DUP2 MSTORE PUSH1 0x20 PUSH1 0x4 DUP3 ADD MSTORE PUSH1 0x2 PUSH1 0x24 DUP3 ADD MSTORE PUSH2 0x26A1 PUSH1 0xF1 SHL PUSH1 0x44 DUP3 ADD MSTORE PUSH1 0x64 ADD PUSH2 0xB0B JUMP JUMPDEST PUSH2 0x2703 DUP2 PUSH2 0xC19 JUMP JUMPDEST PUSH2 0x2734 JUMPI PUSH1 0x40 MLOAD PUSH3 0x461BCD PUSH1 0xE5 SHL DUP2 MSTORE PUSH1 0x20 PUSH1 0x4 DUP3 ADD MSTORE PUSH1 0x2 PUSH1 0x24 DUP3 ADD MSTORE PUSH2 0x4245 PUSH1 0xF0 SHL PUSH1 0x44 DUP3 ADD MSTORE PUSH1 0x64 ADD PUSH2 0xB0B JUMP JUMPDEST PUSH1 0x0 PUSH1 0xD DUP3 PUSH1 0x40 MLOAD PUSH2 0x2746 SWAP2 SWAP1 PUSH2 0x3FEC JUMP JUMPDEST SWAP1 DUP2 MSTORE PUSH1 0x40 MLOAD PUSH1 0x20 SWAP2 DUP2 SWAP1 SUB DUP3 ADD DUP2 KECCAK256 DUP1 SLOAD PUSH1 0xFF NOT AND SWAP4 ISZERO ISZERO SWAP4 SWAP1 SWAP4 OR SWAP1 SWAP3 SSTORE PUSH1 0x0 DUP1 MLOAD PUSH1 0x20 PUSH2 0x4572 DUP4 CODECOPY DUP2 MLOAD SWAP2 MSTORE SWAP2 PUSH2 0x2782 SWAP2 DUP5 SWAP2 ADD PUSH2 0x42BF JUMP JUMPDEST PUSH1 0x40 DUP1 MLOAD PUSH1 0x1F NOT DUP2 DUP5 SUB ADD DUP2 MSTORE SWAP1 DUP3 SWAP1 MSTORE PUSH2 0x279E SWAP2 CALLER SWAP1 PUSH2 0x42D2 JUMP JUMPDEST PUSH1 0x40 MLOAD DUP1 SWAP2 SUB SWAP1 LOG1 POP JUMP JUMPDEST PUSH2 0x27B2 DUP4 PUSH2 0x1416 JUMP JUMPDEST PUSH2 0x27BB JUMPI PUSH1 0x0 DUP1 REVERT JUMPDEST ADDRESS PUSH1 0x0 SWAP1 DUP2 MSTORE PUSH1 0x4 PUSH1 0x20 MSTORE PUSH1 0x40 DUP2 KECCAK256 SLOAD SWAP1 SLOAD PUSH2 0x27D7 SWAP2 SWAP1 PUSH2 0x3886 JUMP JUMPDEST ADDRESS PUSH1 0x0 SWAP1 DUP2 MSTORE PUSH1 0x4 PUSH1 0x20 SWAP1 DUP2 MSTORE PUSH1 0x40 DUP1 DUP4 KECCAK256 SLOAD DUP4 MSTORE PUSH1 0x3 SWAP1 SWAP2 MSTORE SWAP1 KECCAK256 SLOAD PUSH2 0x280B SWAP1 PUSH2 0x2802 SWAP1 DUP7 PUSH2 0x3F9F JUMP JUMPDEST ADDRESS PUSH1 0x0 SLOAD PUSH2 0x38F1 JUMP JUMPDEST ADDRESS PUSH1 0x0 SWAP1 DUP2 MSTORE PUSH1 0x4 PUSH1 0x20 MSTORE PUSH1 0x40 SWAP1 KECCAK256 SLOAD PUSH2 0xE52 SWAP1 DUP6 DUP6 DUP6 DUP6 PUSH2 0x35BB JUMP JUMPDEST PUSH1 0x1 DUP1 SLOAD PUSH1 0xFF AND ISZERO ISZERO EQ PUSH2 0x284E JUMPI PUSH1 0x40 MLOAD PUSH3 0x461BCD PUSH1 0xE5 SHL DUP2 MSTORE PUSH1 0x4 ADD PUSH2 0xB0B SWAP1 PUSH2 0x4040 JUMP JUMPDEST PUSH1 0x0 SLOAD PUSH1 0x40 MLOAD PUSH1 0xF SWAP1 PUSH2 0x2862 SWAP1 DUP7 SWAP1 PUSH2 0x3FEC JUMP JUMPDEST SWAP1 DUP2 MSTORE PUSH1 0x40 DUP1 MLOAD PUSH1 0x20 SWAP3 DUP2 SWAP1 SUB DUP4 ADD SWAP1 KECCAK256 PUSH1 0x1 PUSH1 0x1 PUSH1 0xA0 SHL SUB DUP7 AND PUSH1 0x0 SWAP1 DUP2 MSTORE SWAP3 MSTORE SWAP1 KECCAK256 SLOAD DUP3 GT ISZERO PUSH2 0x28A6 JUMPI PUSH1 0x40 MLOAD PUSH3 0x461BCD PUSH1 0xE5 SHL DUP2 MSTORE PUSH1 0x4 ADD PUSH2 0xB0B SWAP1 PUSH2 0x42FE JUMP JUMPDEST DUP2 PUSH1 0xF DUP6 PUSH1 0x40 MLOAD PUSH2 0x28B7 SWAP2 SWAP1 PUSH2 0x3FEC JUMP JUMPDEST SWAP1 DUP2 MSTORE PUSH1 0x20 ADD PUSH1 0x40 MLOAD DUP1 SWAP2 SUB SWAP1 KECCAK256 PUSH1 0x0 DUP6 PUSH1 0x1 PUSH1 0x1 PUSH1 0xA0 SHL SUB AND PUSH1 0x1 PUSH1 0x1 PUSH1 0xA0 SHL SUB AND DUP2 MSTORE PUSH1 0x20 ADD SWAP1 DUP2 MSTORE PUSH1 0x20 ADD PUSH1 0x0 KECCAK256 PUSH1 0x0 DUP3 DUP3 SLOAD PUSH2 0x28F7 SWAP2 SWAP1 PUSH2 0x40B1 JUMP JUMPDEST SWAP1 SWAP2 SSTORE POP POP PUSH1 0x40 MLOAD PUSH1 0xF SWAP1 PUSH2 0x290D SWAP1 DUP7 SWAP1 PUSH2 0x3FEC JUMP JUMPDEST SWAP1 DUP2 MSTORE PUSH1 0x40 DUP1 MLOAD PUSH1 0x20 SWAP3 DUP2 SWAP1 SUB DUP4 ADD SWAP1 KECCAK256 PUSH1 0x1 PUSH1 0x1 PUSH1 0xA0 SHL SUB DUP7 AND PUSH1 0x0 SWAP1 DUP2 MSTORE SWAP3 MSTORE SWAP1 KECCAK256 SLOAD ISZERO DUP1 ISZERO PUSH2 0x2947 JUMPI POP PUSH1 0x1 PUSH1 0x1 PUSH1 0xA0 SHL SUB DUP4 AND ISZERO ISZERO JUMPDEST ISZERO PUSH2 0x2981 JUMPI PUSH1 0x1 PUSH1 0xE DUP6 PUSH1 0x40 MLOAD PUSH2 0x295E SWAP2 SWAP1 PUSH2 0x3FEC JUMP JUMPDEST SWAP1 DUP2 MSTORE PUSH1 0x20 ADD PUSH1 0x40 MLOAD DUP1 SWAP2 SUB SWAP1 KECCAK256 PUSH1 0x0 DUP3 DUP3 SLOAD PUSH2 0x297B SWAP2 SWAP1 PUSH2 0x40B1 JUMP JUMPDEST SWAP1 SWAP2 SSTORE POP POP JUMPDEST PUSH1 0x40 DUP1 MLOAD DUP1 DUP3 ADD DUP3 MSTORE PUSH1 0x1 PUSH1 0x1 PUSH1 0xA0 SHL SUB DUP6 DUP2 AND DUP3 MSTORE PUSH1 0x20 DUP1 DUP4 ADD DUP7 DUP2 MSTORE PUSH1 0x0 DUP7 DUP2 MSTORE PUSH1 0x14 DUP4 MSTORE DUP6 DUP2 KECCAK256 SWAP5 MLOAD DUP6 SLOAD PUSH1 0x1 PUSH1 0x1 PUSH1 0xA0 SHL SUB NOT AND SWAP5 AND SWAP4 SWAP1 SWAP4 OR DUP5 SSTORE MLOAD PUSH1 0x1 SWAP4 DUP5 ADD SSTORE PUSH1 0x15 DUP2 MSTORE DUP4 DUP3 KECCAK256 DUP7 SWAP1 SSTORE PUSH1 0x13 DUP2 MSTORE SWAP1 DUP4 SWAP1 KECCAK256 DUP1 SLOAD PUSH1 0xFF NOT AND SWAP1 SWAP3 OR SWAP1 SWAP2 SSTORE SWAP1 MLOAD PUSH1 0x0 DUP1 MLOAD PUSH1 0x20 PUSH2 0x4572 DUP4 CODECOPY DUP2 MLOAD SWAP2 MSTORE SWAP2 PUSH2 0x2A08 SWAP2 DUP8 SWAP2 DUP8 SWAP2 DUP8 SWAP2 ADD PUSH2 0x431A JUMP JUMPDEST PUSH1 0x40 DUP1 MLOAD PUSH1 0x1F NOT DUP2 DUP5 SUB ADD DUP2 MSTORE SWAP1 DUP3 SWAP1 MSTORE PUSH2 0x2A24 SWAP2 CALLER SWAP1 PUSH2 0x4348 JUMP JUMPDEST PUSH1 0x40 MLOAD DUP1 SWAP2 SUB SWAP1 LOG1 POP POP POP POP JUMP JUMPDEST PUSH1 0x1 DUP1 SLOAD PUSH1 0xFF AND ISZERO ISZERO EQ PUSH2 0x2A58 JUMPI PUSH1 0x40 MLOAD PUSH3 0x461BCD PUSH1 0xE5 SHL DUP2 MSTORE PUSH1 0x4 ADD PUSH2 0xB0B SWAP1 PUSH2 0x4040 JUMP JUMPDEST PUSH1 0xC DUP1 SLOAD PUSH1 0xFF NOT AND DUP3 ISZERO ISZERO SWAP1 DUP2 OR SWAP1 SWAP2 SSTORE PUSH1 0x40 DUP1 MLOAD PUSH1 0x20 DUP2 ADD SWAP3 SWAP1 SWAP3 MSTORE PUSH1 0x0 DUP1 MLOAD PUSH1 0x20 PUSH2 0x4572 DUP4 CODECOPY DUP2 MLOAD SWAP2 MSTORE SWAP2 ADD PUSH1 0x40 DUP1 MLOAD PUSH1 0x1F NOT DUP2 DUP5 SUB ADD DUP2 MSTORE SWAP1 DUP3 SWAP1 MSTORE PUSH2 0x279E SWAP2 CALLER SWAP1 PUSH2 0x4374 JUMP JUMPDEST PUSH2 0x2AAB DUP2 PUSH2 0x3A15 JUMP JUMPDEST PUSH1 0x40 DUP1 MLOAD PUSH1 0x1 PUSH1 0x1 PUSH1 0xA0 SHL SUB DUP4 AND PUSH1 0x20 DUP3 ADD MSTORE PUSH1 0x0 DUP1 MLOAD PUSH1 0x20 PUSH2 0x4572 DUP4 CODECOPY DUP2 MLOAD SWAP2 MSTORE SWAP2 ADD PUSH1 0x40 DUP1 MLOAD PUSH1 0x1F NOT DUP2 DUP5 SUB ADD DUP2 MSTORE SWAP1 DUP3 SWAP1 MSTORE PUSH2 0x279E SWAP2 CALLER SWAP1 PUSH2 0x43A1 JUMP JUMPDEST PUSH2 0x2AF4 DUP2 PUSH2 0x3AA6 JUMP JUMPDEST PUSH1 0x40 DUP1 MLOAD PUSH1 0x1 PUSH1 0x1 PUSH1 0xA0 SHL SUB DUP4 AND PUSH1 0x20 DUP3 ADD MSTORE PUSH1 0x0 DUP1 MLOAD PUSH1 0x20 PUSH2 0x4572 DUP4 CODECOPY DUP2 MLOAD SWAP2 MSTORE SWAP2 ADD PUSH1 0x40 DUP1 MLOAD PUSH1 0x1F NOT DUP2 DUP5 SUB ADD DUP2 MSTORE SWAP1 DUP3 SWAP1 MSTORE PUSH2 0x279E SWAP2 CALLER SWAP1 PUSH2 0x43CD JUMP JUMPDEST PUSH2 0x2B3D DUP3 PUSH2 0x1416 JUMP JUMPDEST PUSH2 0x2B59 JUMPI PUSH1 0x40 MLOAD PUSH3 0x461BCD PUSH1 0xE5 SHL DUP2 MSTORE PUSH1 0x4 ADD PUSH2 0xB0B SWAP1 PUSH2 0x405C JUMP JUMPDEST PUSH1 0x40 MLOAD PUSH4 0x6EB1769F PUSH1 0xE1 SHL DUP2 MSTORE CALLER PUSH1 0x4 DUP3 ADD MSTORE ADDRESS PUSH1 0x24 DUP3 ADD MSTORE DUP3 SWAP1 DUP3 SWAP1 PUSH1 0x1 PUSH1 0x1 PUSH1 0xA0 SHL SUB DUP4 AND SWAP1 PUSH4 0xDD62ED3E SWAP1 PUSH1 0x44 ADD PUSH1 0x20 PUSH1 0x40 MLOAD DUP1 DUP4 SUB DUP2 DUP7 GAS STATICCALL ISZERO DUP1 ISZERO PUSH2 0x2BA7 JUMPI RETURNDATASIZE PUSH1 0x0 DUP1 RETURNDATACOPY RETURNDATASIZE PUSH1 0x0 REVERT JUMPDEST POP POP POP POP PUSH1 0x40 MLOAD RETURNDATASIZE PUSH1 0x1F NOT PUSH1 0x1F DUP3 ADD AND DUP3 ADD DUP1 PUSH1 0x40 MSTORE POP DUP2 ADD SWAP1 PUSH2 0x2BCB SWAP2 SWAP1 PUSH2 0x4133 JUMP JUMPDEST LT ISZERO PUSH2 0x2BE9 JUMPI PUSH1 0x40 MLOAD PUSH3 0x461BCD PUSH1 0xE5 SHL DUP2 MSTORE PUSH1 0x4 ADD PUSH2 0xB0B SWAP1 PUSH2 0x414C JUMP JUMPDEST PUSH1 0x40 MLOAD PUSH4 0x23B872DD PUSH1 0xE0 SHL DUP2 MSTORE CALLER PUSH1 0x4 DUP3 ADD MSTORE ADDRESS PUSH1 0x24 DUP3 ADD MSTORE PUSH1 0x44 DUP2 ADD DUP4 SWAP1 MSTORE PUSH1 0x1 PUSH1 0x1 PUSH1 0xA0 SHL SUB DUP3 AND SWAP1 PUSH4 0x23B872DD SWAP1 PUSH1 0x64 ADD PUSH1 0x20 PUSH1 0x40 MLOAD DUP1 DUP4 SUB DUP2 PUSH1 0x0 DUP8 GAS CALL ISZERO DUP1 ISZERO PUSH2 0x2C3C JUMPI RETURNDATASIZE PUSH1 0x0 DUP1 RETURNDATACOPY RETURNDATASIZE PUSH1 0x0 REVERT JUMPDEST POP POP POP POP PUSH1 0x40 MLOAD RETURNDATASIZE PUSH1 0x1F NOT PUSH1 0x1F DUP3 ADD AND DUP3 ADD DUP1 PUSH1 0x40 MSTORE POP DUP2 ADD SWAP1 PUSH2 0x2C60 SWAP2 SWAP1 PUSH2 0x4168 JUMP JUMPDEST PUSH2 0x2C7C JUMPI PUSH1 0x40 MLOAD PUSH3 0x461BCD PUSH1 0xE5 SHL DUP2 MSTORE PUSH1 0x4 ADD PUSH2 0xB0B SWAP1 PUSH2 0x4185 JUMP JUMPDEST PUSH2 0xB1E DUP4 DUP4 CALLER PUSH2 0x935 JUMP JUMPDEST DUP3 PUSH2 0x2C91 DUP2 PUSH2 0x1650 JUMP JUMPDEST PUSH2 0x2CC3 JUMPI PUSH1 0x40 MLOAD PUSH3 0x461BCD PUSH1 0xE5 SHL DUP2 MSTORE PUSH1 0x20 PUSH1 0x4 DUP3 ADD MSTORE PUSH1 0x3 PUSH1 0x24 DUP3 ADD MSTORE PUSH3 0x444E45 PUSH1 0xE8 SHL PUSH1 0x44 DUP3 ADD MSTORE PUSH1 0x64 ADD PUSH2 0xB0B JUMP JUMPDEST PUSH1 0x1 DUP1 SLOAD PUSH1 0xFF AND ISZERO ISZERO EQ PUSH2 0x2CE9 JUMPI PUSH1 0x40 MLOAD PUSH3 0x461BCD PUSH1 0xE5 SHL DUP2 MSTORE PUSH1 0x4 ADD PUSH2 0xB0B SWAP1 PUSH2 0x4040 JUMP JUMPDEST PUSH1 0xF DUP6 PUSH1 0x40 MLOAD PUSH2 0x2CF9 SWAP2 SWAP1 PUSH2 0x3FEC JUMP JUMPDEST SWAP1 DUP2 MSTORE PUSH1 0x40 DUP1 MLOAD PUSH1 0x20 SWAP3 DUP2 SWAP1 SUB DUP4 ADD SWAP1 KECCAK256 PUSH1 0x1 PUSH1 0x1 PUSH1 0xA0 SHL SUB DUP7 AND PUSH1 0x0 SWAP1 DUP2 MSTORE SWAP3 MSTORE SWAP1 KECCAK256 SLOAD DUP3 GT ISZERO PUSH2 0x2D3D JUMPI PUSH1 0x40 MLOAD PUSH3 0x461BCD PUSH1 0xE5 SHL DUP2 MSTORE PUSH1 0x4 ADD PUSH2 0xB0B SWAP1 PUSH2 0x42FE JUMP JUMPDEST DUP2 PUSH1 0xF DUP7 PUSH1 0x40 MLOAD PUSH2 0x2D4E SWAP2 SWAP1 PUSH2 0x3FEC JUMP JUMPDEST SWAP1 DUP2 MSTORE PUSH1 0x20 ADD PUSH1 0x40 MLOAD DUP1 SWAP2 SUB SWAP1 KECCAK256 PUSH1 0x0 DUP6 PUSH1 0x1 PUSH1 0x1 PUSH1 0xA0 SHL SUB AND PUSH1 0x1 PUSH1 0x1 PUSH1 0xA0 SHL SUB AND DUP2 MSTORE PUSH1 0x20 ADD SWAP1 DUP2 MSTORE PUSH1 0x20 ADD PUSH1 0x0 KECCAK256 PUSH1 0x0 DUP3 DUP3 SLOAD PUSH2 0x2D8E SWAP2 SWAP1 PUSH2 0x40B1 JUMP JUMPDEST SWAP1 SWAP2 SSTORE POP POP PUSH1 0x1 PUSH1 0x1 PUSH1 0xA0 SHL SUB DUP4 AND ISZERO PUSH2 0x2E82 JUMPI PUSH1 0xF DUP6 PUSH1 0x40 MLOAD PUSH2 0x2DB2 SWAP2 SWAP1 PUSH2 0x3FEC JUMP JUMPDEST SWAP1 DUP2 MSTORE PUSH1 0x40 DUP1 MLOAD PUSH1 0x20 SWAP3 DUP2 SWAP1 SUB DUP4 ADD SWAP1 KECCAK256 PUSH1 0x1 PUSH1 0x1 PUSH1 0xA0 SHL SUB DUP7 AND PUSH1 0x0 SWAP1 DUP2 MSTORE SWAP3 MSTORE DUP2 KECCAK256 SLOAD SWAP1 SUB PUSH2 0x2E12 JUMPI PUSH1 0x1 PUSH1 0xE DUP7 PUSH1 0x40 MLOAD PUSH2 0x2DEF SWAP2 SWAP1 PUSH2 0x3FEC JUMP JUMPDEST SWAP1 DUP2 MSTORE PUSH1 0x20 ADD PUSH1 0x40 MLOAD DUP1 SWAP2 SUB SWAP1 KECCAK256 PUSH1 0x0 DUP3 DUP3 SLOAD PUSH2 0x2E0C SWAP2 SWAP1 PUSH2 0x40B1 JUMP JUMPDEST SWAP1 SWAP2 SSTORE POP POP JUMPDEST PUSH1 0xF DUP5 PUSH1 0x40 MLOAD PUSH2 0x2E22 SWAP2 SWAP1 PUSH2 0x3FEC JUMP JUMPDEST SWAP1 DUP2 MSTORE PUSH1 0x40 DUP1 MLOAD PUSH1 0x20 SWAP3 DUP2 SWAP1 SUB DUP4 ADD SWAP1 KECCAK256 PUSH1 0x1 PUSH1 0x1 PUSH1 0xA0 SHL SUB DUP7 AND PUSH1 0x0 SWAP1 DUP2 MSTORE SWAP3 MSTORE DUP2 KECCAK256 SLOAD SWAP1 SUB PUSH2 0x2E82 JUMPI PUSH1 0x1 PUSH1 0xE DUP6 PUSH1 0x40 MLOAD PUSH2 0x2E5F SWAP2 SWAP1 PUSH2 0x3FEC JUMP JUMPDEST SWAP1 DUP2 MSTORE PUSH1 0x20 ADD PUSH1 0x40 MLOAD DUP1 SWAP2 SUB SWAP1 KECCAK256 PUSH1 0x0 DUP3 DUP3 SLOAD PUSH2 0x2E7C SWAP2 SWAP1 PUSH2 0x3F9F JUMP JUMPDEST SWAP1 SWAP2 SSTORE POP POP JUMPDEST DUP2 PUSH1 0xF DUP6 PUSH1 0x40 MLOAD PUSH2 0x2E93 SWAP2 SWAP1 PUSH2 0x3FEC JUMP JUMPDEST SWAP1 DUP2 MSTORE PUSH1 0x20 ADD PUSH1 0x40 MLOAD DUP1 SWAP2 SUB SWAP1 KECCAK256 PUSH1 0x0 DUP6 PUSH1 0x1 PUSH1 0x1 PUSH1 0xA0 SHL SUB AND PUSH1 0x1 PUSH1 0x1 PUSH1 0xA0 SHL SUB AND DUP2 MSTORE PUSH1 0x20 ADD SWAP1 DUP2 MSTORE PUSH1 0x20 ADD PUSH1 0x0 KECCAK256 PUSH1 0x0 DUP3 DUP3 SLOAD PUSH2 0x2ED3 SWAP2 SWAP1 PUSH2 0x3F9F JUMP JUMPDEST SWAP1 SWAP2 SSTORE POP POP PUSH1 0x40 MLOAD PUSH1 0x0 DUP1 MLOAD PUSH1 0x20 PUSH2 0x4572 DUP4 CODECOPY DUP2 MLOAD SWAP2 MSTORE SWAP1 PUSH2 0x2EFF SWAP1 DUP8 SWAP1 DUP8 SWAP1 DUP8 SWAP1 DUP8 SWAP1 PUSH1 0x20 ADD PUSH2 0x43F9 JUMP JUMPDEST PUSH1 0x40 DUP1 MLOAD PUSH1 0x1F NOT DUP2 DUP5 SUB ADD DUP2 MSTORE SWAP1 DUP3 SWAP1 MSTORE PUSH2 0x1259 SWAP2 CALLER SWAP1 PUSH2 0x443B JUMP JUMPDEST PUSH1 0x1 DUP1 SLOAD PUSH1 0xFF AND ISZERO ISZERO EQ PUSH2 0x2F41 JUMPI PUSH1 0x40 MLOAD PUSH3 0x461BCD PUSH1 0xE5 SHL DUP2 MSTORE PUSH1 0x4 ADD PUSH2 0xB0B SWAP1 PUSH2 0x4040 JUMP JUMPDEST PUSH2 0x2F65 PUSH1 0x40 MLOAD DUP1 PUSH1 0x40 ADD PUSH1 0x40 MSTORE DUP1 PUSH1 0x2 DUP2 MSTORE PUSH1 0x20 ADD PUSH2 0x36A1 PUSH1 0xF1 SHL DUP2 MSTORE POP DUP3 PUSH2 0x1777 JUMP JUMPDEST PUSH2 0x2F96 JUMPI PUSH1 0x40 MLOAD PUSH3 0x461BCD PUSH1 0xE5 SHL DUP2 MSTORE PUSH1 0x20 PUSH1 0x4 DUP3 ADD MSTORE PUSH1 0x2 PUSH1 0x24 DUP3 ADD MSTORE PUSH2 0x4E5 PUSH1 0xF4 SHL PUSH1 0x44 DUP3 ADD MSTORE PUSH1 0x64 ADD PUSH2 0xB0B JUMP JUMPDEST PUSH1 0x1 PUSH1 0x10 DUP4 PUSH1 0x40 MLOAD PUSH2 0x2FA8 SWAP2 SWAP1 PUSH2 0x3FEC JUMP JUMPDEST SWAP1 DUP2 MSTORE PUSH1 0x40 DUP1 MLOAD PUSH1 0x20 SWAP3 DUP2 SWAP1 SUB DUP4 ADD DUP2 KECCAK256 PUSH1 0x1 PUSH1 0x1 PUSH1 0xA0 SHL SUB DUP7 AND PUSH1 0x0 SWAP1 DUP2 MSTORE SWAP1 DUP5 MSTORE SWAP2 SWAP1 SWAP2 KECCAK256 DUP1 SLOAD PUSH1 0xFF NOT AND SWAP4 ISZERO ISZERO SWAP4 SWAP1 SWAP4 OR SWAP1 SWAP3 SSTORE PUSH1 0x0 DUP1 MLOAD PUSH1 0x20 PUSH2 0x4572 DUP4 CODECOPY DUP2 MLOAD SWAP2 MSTORE SWAP2 PUSH2 0x2FFD SWAP2 DUP6 SWAP2 DUP6 SWAP2 ADD PUSH2 0x423D JUMP JUMPDEST PUSH1 0x40 DUP1 MLOAD PUSH1 0x1F NOT DUP2 DUP5 SUB ADD DUP2 MSTORE SWAP1 DUP3 SWAP1 MSTORE PUSH2 0x2019 SWAP2 CALLER SWAP1 PUSH2 0x4467 JUMP JUMPDEST DUP3 PUSH2 0x3033 DUP2 PUSH1 0x0 DUP1 SLOAD SWAP2 DUP2 MSTORE PUSH1 0x7 PUSH1 0x20 MSTORE PUSH1 0x40 SWAP1 KECCAK256 SLOAD GT SWAP1 JUMP JUMPDEST PUSH2 0x304F JUMPI PUSH1 0x40 MLOAD PUSH3 0x461BCD PUSH1 0xE5 SHL DUP2 MSTORE PUSH1 0x4 ADD PUSH2 0xB0B SWAP1 PUSH2 0x4024 JUMP JUMPDEST PUSH1 0x1 DUP1 SLOAD PUSH1 0xFF AND ISZERO ISZERO EQ PUSH2 0x3075 JUMPI PUSH1 0x40 MLOAD PUSH3 0x461BCD PUSH1 0xE5 SHL DUP2 MSTORE PUSH1 0x4 ADD PUSH2 0xB0B SWAP1 PUSH2 0x4040 JUMP JUMPDEST PUSH1 0x0 DUP5 DUP2 MSTORE PUSH1 0x3 PUSH1 0x20 MSTORE PUSH1 0x40 SWAP1 KECCAK256 SLOAD DUP4 LT PUSH2 0x30B7 JUMPI PUSH1 0x40 MLOAD PUSH3 0x461BCD PUSH1 0xE5 SHL DUP2 MSTORE PUSH1 0x20 PUSH1 0x4 DUP3 ADD MSTORE PUSH1 0x2 PUSH1 0x24 DUP3 ADD MSTORE PUSH2 0x4941 PUSH1 0xF0 SHL PUSH1 0x44 DUP3 ADD MSTORE PUSH1 0x64 ADD PUSH2 0xB0B JUMP JUMPDEST PUSH2 0x30C0 DUP3 PUSH2 0x1E40 JUMP JUMPDEST ISZERO PUSH2 0x312F JUMPI PUSH1 0x1 PUSH1 0x1 PUSH1 0xA0 SHL SUB DUP3 AND PUSH1 0x0 SWAP1 DUP2 MSTORE PUSH1 0x4 PUSH1 0x20 SWAP1 DUP2 MSTORE PUSH1 0x40 DUP1 DUP4 KECCAK256 SLOAD DUP4 MSTORE PUSH1 0x3 SWAP1 SWAP2 MSTORE DUP2 KECCAK256 SLOAD PUSH2 0x30F5 SWAP1 DUP6 PUSH2 0x3F9F JUMP JUMPDEST SWAP1 POP PUSH2 0x3104 DUP2 DUP5 PUSH1 0x0 SLOAD PUSH2 0x38F1 JUMP JUMPDEST PUSH1 0x1 PUSH1 0x1 PUSH1 0xA0 SHL SUB DUP4 AND PUSH1 0x0 SWAP1 DUP2 MSTORE PUSH1 0x4 PUSH1 0x20 MSTORE PUSH1 0x40 DUP2 KECCAK256 SLOAD SWAP1 SLOAD PUSH2 0x3129 SWAP2 SWAP1 PUSH2 0x3886 JUMP JUMPDEST POP PUSH2 0x313C JUMP JUMPDEST PUSH2 0x313C DUP4 DUP4 PUSH1 0x0 SLOAD PUSH2 0x38F1 JUMP JUMPDEST PUSH2 0x3148 DUP5 PUSH1 0x0 SLOAD PUSH2 0x3886 JUMP JUMPDEST PUSH1 0x0 DUP5 DUP2 MSTORE PUSH1 0x3 PUSH1 0x20 MSTORE PUSH1 0x40 DUP2 KECCAK256 SLOAD PUSH2 0x3162 SWAP1 DUP6 SWAP1 PUSH2 0x40B1 JUMP JUMPDEST SWAP1 POP DUP1 ISZERO PUSH2 0x3195 JUMPI PUSH1 0x0 DUP6 DUP2 MSTORE PUSH1 0x3 PUSH1 0x20 MSTORE PUSH1 0x40 DUP2 KECCAK256 PUSH1 0x1 ADD SLOAD SWAP1 SLOAD PUSH2 0x3195 SWAP2 DUP4 SWAP2 PUSH1 0x1 PUSH1 0x1 PUSH1 0xA0 SHL SUB SWAP1 SWAP2 AND SWAP1 PUSH2 0x38F1 JUMP JUMPDEST PUSH1 0x40 DUP1 MLOAD DUP7 DUP2 MSTORE PUSH1 0x20 DUP2 ADD DUP7 SWAP1 MSTORE PUSH1 0x1 PUSH1 0x1 PUSH1 0xA0 SHL SUB DUP6 AND DUP2 DUP4 ADD MSTORE PUSH1 0x0 PUSH1 0x60 DUP3 ADD DUP2 SWAP1 MSTORE PUSH1 0x80 DUP3 ADD MSTORE SWAP1 MLOAD PUSH32 0x443732A78C29282934211EAE7AA500DD12DB85D4DD795DBCDA5F94EE19A67E4F SWAP2 DUP2 SWAP1 SUB PUSH1 0xA0 ADD SWAP1 LOG1 POP PUSH1 0x0 DUP1 SLOAD DUP1 DUP3 MSTORE PUSH1 0x2 PUSH1 0x20 DUP2 SWAP1 MSTORE PUSH1 0x40 DUP4 KECCAK256 SLOAD SWAP3 SWAP1 SWAP2 PUSH2 0x320D SWAP1 PUSH1 0x1 PUSH2 0x3F9F JUMP JUMPDEST DUP2 MSTORE PUSH1 0x20 ADD SWAP1 DUP2 MSTORE PUSH1 0x20 ADD PUSH1 0x0 KECCAK256 DUP2 SWAP1 SSTORE POP PUSH1 0x0 DUP1 DUP2 SLOAD DUP1 SWAP3 SWAP2 SWAP1 PUSH2 0x3231 SWAP1 PUSH2 0x4493 JUMP JUMPDEST SWAP2 SWAP1 POP SSTORE POP POP POP POP POP JUMP JUMPDEST PUSH1 0x1 DUP1 SLOAD PUSH1 0xFF AND ISZERO ISZERO EQ PUSH2 0x3262 JUMPI PUSH1 0x40 MLOAD PUSH3 0x461BCD PUSH1 0xE5 SHL DUP2 MSTORE PUSH1 0x4 ADD PUSH2 0xB0B SWAP1 PUSH2 0x4040 JUMP JUMPDEST DUP1 PUSH1 0x11 DUP5 PUSH1 0x40 MLOAD PUSH2 0x3273 SWAP2 SWAP1 PUSH2 0x3FEC JUMP JUMPDEST SWAP1 DUP2 MSTORE PUSH1 0x40 DUP1 MLOAD PUSH1 0x20 SWAP3 DUP2 SWAP1 SUB DUP4 ADD SWAP1 KECCAK256 PUSH1 0x1 PUSH1 0x1 PUSH1 0xA0 SHL SUB DUP7 AND PUSH1 0x0 SWAP1 DUP2 MSTORE SWAP3 MSTORE SWAP1 KECCAK256 DUP1 SLOAD PUSH1 0xFF NOT AND PUSH1 0x1 DUP4 PUSH1 0x2 DUP2 GT ISZERO PUSH2 0x32B1 JUMPI PUSH2 0x32B1 PUSH2 0x3FB2 JUMP JUMPDEST MUL OR SWAP1 SSTORE POP PUSH1 0x0 DUP1 MLOAD PUSH1 0x20 PUSH2 0x4572 DUP4 CODECOPY DUP2 MLOAD SWAP2 MSTORE DUP4 DUP4 DUP4 PUSH1 0x40 MLOAD PUSH1 0x20 ADD PUSH2 0x32DA SWAP4 SWAP3 SWAP2 SWAP1 PUSH2 0x44AC JUMP JUMPDEST PUSH1 0x40 DUP1 MLOAD PUSH1 0x1F NOT DUP2 DUP5 SUB ADD DUP2 MSTORE SWAP1 DUP3 SWAP1 MSTORE PUSH2 0xA76 SWAP2 CALLER SWAP1 PUSH2 0x44DD JUMP JUMPDEST PUSH1 0x1 DUP1 SLOAD PUSH1 0xFF AND ISZERO ISZERO EQ PUSH2 0x331C JUMPI PUSH1 0x40 MLOAD PUSH3 0x461BCD PUSH1 0xE5 SHL DUP2 MSTORE PUSH1 0x4 ADD PUSH2 0xB0B SWAP1 PUSH2 0x4040 JUMP JUMPDEST PUSH1 0xF DUP5 PUSH1 0x40 MLOAD PUSH2 0x332C SWAP2 SWAP1 PUSH2 0x3FEC JUMP JUMPDEST SWAP1 DUP2 MSTORE PUSH1 0x40 DUP1 MLOAD PUSH1 0x20 SWAP3 DUP2 SWAP1 SUB DUP4 ADD SWAP1 KECCAK256 PUSH1 0x1 PUSH1 0x1 PUSH1 0xA0 SHL SUB DUP7 AND PUSH1 0x0 SWAP1 DUP2 MSTORE SWAP3 MSTORE SWAP1 KECCAK256 SLOAD DUP3 GT ISZERO PUSH2 0x3370 JUMPI PUSH1 0x40 MLOAD PUSH3 0x461BCD PUSH1 0xE5 SHL DUP2 MSTORE PUSH1 0x4 ADD PUSH2 0xB0B SWAP1 PUSH2 0x42FE JUMP JUMPDEST PUSH2 0x337B DUP4 DUP4 DUP4 PUSH2 0x237F JUMP JUMPDEST DUP2 PUSH1 0xF DUP6 PUSH1 0x40 MLOAD PUSH2 0x338C SWAP2 SWAP1 PUSH2 0x3FEC JUMP JUMPDEST SWAP1 DUP2 MSTORE PUSH1 0x20 ADD PUSH1 0x40 MLOAD DUP1 SWAP2 SUB SWAP1 KECCAK256 PUSH1 0x0 DUP6 PUSH1 0x1 PUSH1 0x1 PUSH1 0xA0 SHL SUB AND PUSH1 0x1 PUSH1 0x1 PUSH1 0xA0 SHL SUB AND DUP2 MSTORE PUSH1 0x20 ADD SWAP1 DUP2 MSTORE PUSH1 0x20 ADD PUSH1 0x0 KECCAK256 PUSH1 0x0 DUP3 DUP3 SLOAD PUSH2 0x33CC SWAP2 SWAP1 PUSH2 0x40B1 JUMP JUMPDEST SWAP1 SWAP2 SSTORE POP POP PUSH1 0x40 MLOAD PUSH1 0xF SWAP1 PUSH2 0x33E2 SWAP1 DUP7 SWAP1 PUSH2 0x3FEC JUMP JUMPDEST SWAP1 DUP2 MSTORE PUSH1 0x40 DUP1 MLOAD PUSH1 0x20 SWAP3 DUP2 SWAP1 SUB DUP4 ADD SWAP1 KECCAK256 PUSH1 0x1 PUSH1 0x1 PUSH1 0xA0 SHL SUB DUP7 AND PUSH1 0x0 SWAP1 DUP2 MSTORE SWAP3 MSTORE SWAP1 KECCAK256 SLOAD ISZERO DUP1 ISZERO PUSH2 0x341C JUMPI POP PUSH1 0x1 PUSH1 0x1 PUSH1 0xA0 SHL SUB DUP4 AND ISZERO ISZERO JUMPDEST ISZERO PUSH2 0x3456 JUMPI PUSH1 0x1 PUSH1 0xE DUP6 PUSH1 0x40 MLOAD PUSH2 0x3433 SWAP2 SWAP1 PUSH2 0x3FEC JUMP JUMPDEST SWAP1 DUP2 MSTORE PUSH1 0x20 ADD PUSH1 0x40 MLOAD DUP1 SWAP2 SUB SWAP1 KECCAK256 PUSH1 0x0 DUP3 DUP3 SLOAD PUSH2 0x3450 SWAP2 SWAP1 PUSH2 0x40B1 JUMP JUMPDEST SWAP1 SWAP2 SSTORE POP POP JUMPDEST PUSH1 0x0 DUP1 MLOAD PUSH1 0x20 PUSH2 0x4572 DUP4 CODECOPY DUP2 MLOAD SWAP2 MSTORE DUP5 DUP5 DUP5 DUP5 PUSH1 0x40 MLOAD PUSH1 0x20 ADD PUSH2 0x347C SWAP5 SWAP4 SWAP3 SWAP2 SWAP1 PUSH2 0x4509 JUMP JUMPDEST PUSH1 0x40 DUP1 MLOAD PUSH1 0x1F NOT DUP2 DUP5 SUB ADD DUP2 MSTORE SWAP1 DUP3 SWAP1 MSTORE PUSH2 0x2A24 SWAP2 CALLER SWAP1 PUSH2 0x4545 JUMP JUMPDEST PUSH1 0x0 DUP1 PUSH1 0x0 DUP5 DUP5 GT PUSH2 0x34A9 JUMPI PUSH1 0x0 DUP1 REVERT JUMPDEST PUSH1 0x0 DUP5 PUSH2 0x34B6 DUP8 DUP10 PUSH2 0x4078 JUMP JUMPDEST PUSH2 0x34C0 SWAP2 SWAP1 PUSH2 0x408F JUMP JUMPDEST SWAP1 POP PUSH1 0x0 DUP6 PUSH2 0x34CF DUP9 DUP3 PUSH2 0x40B1 JUMP JUMPDEST PUSH2 0x34D9 SWAP1 DUP11 PUSH2 0x4078 JUMP JUMPDEST PUSH2 0x34E3 SWAP2 SWAP1 PUSH2 0x408F JUMP JUMPDEST SWAP1 POP DUP2 DUP2 PUSH2 0x34F1 DUP2 DUP4 PUSH2 0x3F9F JUMP JUMPDEST PUSH2 0x34FB SWAP1 DUP12 PUSH2 0x40B1 JUMP JUMPDEST SWAP5 POP SWAP5 POP SWAP5 POP POP POP SWAP4 POP SWAP4 POP SWAP4 SWAP1 POP JUMP JUMPDEST ADDRESS PUSH1 0x1 PUSH1 0x1 PUSH1 0xA0 SHL SUB DUP5 AND SUB PUSH2 0x3526 JUMPI PUSH2 0xB1E DUP3 DUP3 PUSH2 0x2B34 JUMP JUMPDEST PUSH1 0x40 MLOAD PUSH4 0x23B872DD PUSH1 0xE0 SHL DUP2 MSTORE CALLER PUSH1 0x4 DUP3 ADD MSTORE ADDRESS PUSH1 0x24 DUP3 ADD MSTORE PUSH1 0x44 DUP2 ADD DUP3 SWAP1 MSTORE DUP3 SWAP1 PUSH1 0x1 PUSH1 0x1 PUSH1 0xA0 SHL SUB DUP3 AND SWAP1 PUSH4 0x23B872DD SWAP1 PUSH1 0x64 ADD PUSH1 0x20 PUSH1 0x40 MLOAD DUP1 DUP4 SUB DUP2 PUSH1 0x0 DUP8 GAS CALL ISZERO DUP1 ISZERO PUSH2 0x357B JUMPI RETURNDATASIZE PUSH1 0x0 DUP1 RETURNDATACOPY RETURNDATASIZE PUSH1 0x0 REVERT JUMPDEST POP POP POP POP PUSH1 0x40 MLOAD RETURNDATASIZE PUSH1 0x1F NOT PUSH1 0x1F DUP3 ADD AND DUP3 ADD DUP1 PUSH1 0x40 MSTORE POP DUP2 ADD SWAP1 PUSH2 0x359F SWAP2 SWAP1 PUSH2 0x4168 JUMP JUMPDEST PUSH2 0xE52 JUMPI PUSH1 0x40 MLOAD PUSH3 0x461BCD PUSH1 0xE5 SHL DUP2 MSTORE PUSH1 0x4 ADD PUSH2 0xB0B SWAP1 PUSH2 0x4185 JUMP JUMPDEST DUP5 PUSH2 0x35D5 DUP2 PUSH1 0x0 DUP1 SLOAD SWAP2 DUP2 MSTORE PUSH1 0x7 PUSH1 0x20 MSTORE PUSH1 0x40 SWAP1 KECCAK256 SLOAD GT SWAP1 JUMP JUMPDEST PUSH2 0x35F1 JUMPI PUSH1 0x40 MLOAD PUSH3 0x461BCD PUSH1 0xE5 SHL DUP2 MSTORE PUSH1 0x4 ADD PUSH2 0xB0B SWAP1 PUSH2 0x4024 JUMP JUMPDEST PUSH1 0x1 DUP1 SLOAD PUSH1 0xFF AND ISZERO ISZERO EQ PUSH2 0x3617 JUMPI PUSH1 0x40 MLOAD PUSH3 0x461BCD PUSH1 0xE5 SHL DUP2 MSTORE PUSH1 0x4 ADD PUSH2 0xB0B SWAP1 PUSH2 0x4040 JUMP JUMPDEST PUSH1 0x0 DUP7 DUP2 MSTORE PUSH1 0x5 PUSH1 0x20 MSTORE PUSH1 0x40 SWAP1 KECCAK256 SLOAD PUSH1 0xFF AND ISZERO PUSH2 0x3633 JUMPI PUSH1 0x0 DUP1 REVERT JUMPDEST PUSH1 0x0 DUP7 DUP2 MSTORE PUSH1 0x3 PUSH1 0x20 MSTORE PUSH1 0x40 SWAP1 KECCAK256 SLOAD DUP6 GT ISZERO PUSH2 0x3676 JUMPI PUSH1 0x40 MLOAD PUSH3 0x461BCD PUSH1 0xE5 SHL DUP2 MSTORE PUSH1 0x20 PUSH1 0x4 DUP3 ADD MSTORE PUSH1 0x2 PUSH1 0x24 DUP3 ADD MSTORE PUSH2 0x4941 PUSH1 0xF0 SHL PUSH1 0x44 DUP3 ADD MSTORE PUSH1 0x64 ADD PUSH2 0xB0B JUMP JUMPDEST PUSH1 0x40 DUP1 MLOAD PUSH1 0x80 DUP2 ADD DUP3 MSTORE DUP7 DUP2 MSTORE PUSH1 0x1 PUSH1 0x1 PUSH1 0xA0 SHL SUB DUP1 DUP8 AND PUSH1 0x20 DUP1 DUP5 ADD SWAP2 DUP3 MSTORE DUP4 DUP6 ADD DUP9 DUP2 MSTORE DUP8 DUP5 AND PUSH1 0x60 DUP7 ADD SWAP1 DUP2 MSTORE PUSH1 0x0 DUP14 DUP2 MSTORE PUSH1 0x6 DUP5 MSTORE DUP8 DUP2 KECCAK256 SWAP7 MLOAD DUP8 SSTORE SWAP4 MLOAD PUSH1 0x1 DUP1 DUP9 ADD DUP1 SLOAD SWAP3 DUP9 AND PUSH1 0x1 PUSH1 0x1 PUSH1 0xA0 SHL SUB NOT SWAP4 DUP5 AND OR SWAP1 SSTORE SWAP3 MLOAD PUSH1 0x2 DUP9 ADD SSTORE SWAP1 MLOAD PUSH1 0x3 SWAP1 SWAP7 ADD DUP1 SLOAD SWAP7 SWAP1 SWAP6 AND SWAP6 AND SWAP5 SWAP1 SWAP5 OR SWAP1 SWAP3 SSTORE PUSH1 0x5 SWAP1 SWAP2 MSTORE DUP3 SWAP1 KECCAK256 DUP1 SLOAD PUSH1 0xFF NOT AND SWAP1 SWAP2 OR SWAP1 SSTORE MLOAD PUSH32 0x4126DE2C73B6B69D46D3290EE98241C5C18CE39A61B29E4E91F877A6D56BB213 SWAP1 PUSH2 0x375E SWAP1 DUP9 SWAP1 DUP9 SWAP1 DUP9 SWAP1 DUP9 SWAP1 DUP9 SWAP1 SWAP5 DUP6 MSTORE PUSH1 0x20 DUP6 ADD SWAP4 SWAP1 SWAP4 MSTORE PUSH1 0x1 PUSH1 0x1 PUSH1 0xA0 SHL SUB SWAP2 DUP3 AND PUSH1 0x40 DUP6 ADD MSTORE PUSH1 0x60 DUP5 ADD MSTORE AND PUSH1 0x80 DUP3 ADD MSTORE PUSH1 0xA0 ADD SWAP1 JUMP JUMPDEST PUSH1 0x40 MLOAD DUP1 SWAP2 SUB SWAP1 LOG1 POP POP POP POP POP POP JUMP JUMPDEST PUSH1 0x1 DUP1 SLOAD PUSH1 0xFF AND ISZERO ISZERO EQ PUSH2 0x3794 JUMPI PUSH1 0x40 MLOAD PUSH3 0x461BCD PUSH1 0xE5 SHL DUP2 MSTORE PUSH1 0x4 ADD PUSH2 0xB0B SWAP1 PUSH2 0x4040 JUMP JUMPDEST PUSH1 0x1 DUP1 SLOAD PUSH1 0xFF NOT AND SWAP1 SSTORE JUMP JUMPDEST PUSH1 0x0 DUP2 PUSH1 0x1 PUSH1 0x1 PUSH1 0xA0 SHL SUB AND DUP4 PUSH1 0x40 MLOAD PUSH1 0x0 PUSH1 0x40 MLOAD DUP1 DUP4 SUB DUP2 DUP6 DUP8 GAS CALL SWAP3 POP POP POP RETURNDATASIZE DUP1 PUSH1 0x0 DUP2 EQ PUSH2 0x37ED JUMPI PUSH1 0x40 MLOAD SWAP2 POP PUSH1 0x1F NOT PUSH1 0x3F RETURNDATASIZE ADD AND DUP3 ADD PUSH1 0x40 MSTORE RETURNDATASIZE DUP3 MSTORE RETURNDATASIZE PUSH1 0x0 PUSH1 0x20 DUP5 ADD RETURNDATACOPY PUSH2 0x37F2 JUMP JUMPDEST PUSH1 0x60 SWAP2 POP JUMPDEST POP POP SWAP1 POP DUP1 PUSH2 0xB1E JUMPI PUSH1 0x40 MLOAD PUSH3 0x461BCD PUSH1 0xE5 SHL DUP2 MSTORE PUSH1 0x20 PUSH1 0x4 DUP3 ADD MSTORE PUSH1 0x2 PUSH1 0x24 DUP3 ADD MSTORE PUSH2 0x2A23 PUSH1 0xF1 SHL PUSH1 0x44 DUP3 ADD MSTORE PUSH1 0x64 ADD PUSH2 0xB0B JUMP JUMPDEST PUSH1 0x1 PUSH1 0x1 PUSH1 0xA0 SHL SUB DUP3 AND PUSH1 0x0 SWAP1 DUP2 MSTORE PUSH1 0x9 PUSH1 0x20 MSTORE PUSH1 0x40 DUP2 KECCAK256 DUP1 SLOAD DUP4 SWAP3 SWAP1 PUSH2 0x3850 SWAP1 DUP5 SWAP1 PUSH2 0x40B1 JUMP JUMPDEST SWAP1 SWAP2 SSTORE POP POP PUSH1 0x1 PUSH1 0x1 PUSH1 0xA0 SHL SUB DUP3 AND PUSH1 0x0 SWAP1 DUP2 MSTORE PUSH1 0xA PUSH1 0x20 MSTORE PUSH1 0x40 DUP2 KECCAK256 DUP1 SLOAD DUP4 SWAP3 SWAP1 PUSH2 0x387D SWAP1 DUP5 SWAP1 PUSH2 0x40B1 JUMP JUMPDEST SWAP1 SWAP2 SSTORE POP POP POP POP JUMP JUMPDEST PUSH1 0x0 DUP3 DUP2 MSTORE PUSH1 0x3 PUSH1 0x20 SWAP1 DUP2 MSTORE PUSH1 0x40 DUP1 DUP4 KECCAK256 PUSH1 0x1 ADD SLOAD PUSH1 0x1 PUSH1 0x1 PUSH1 0xA0 SHL SUB AND DUP4 MSTORE PUSH1 0x4 DUP3 MSTORE DUP1 DUP4 KECCAK256 DUP4 SWAP1 SSTORE DUP5 DUP4 MSTORE PUSH1 0x7 DUP3 MSTORE SWAP2 DUP3 SWAP1 KECCAK256 DUP4 SWAP1 SSTORE DUP2 MLOAD DUP5 DUP2 MSTORE SWAP1 DUP2 ADD DUP4 SWAP1 MSTORE PUSH32 0xA3DEAFDE27C3FFDE83F038B337D8B0405D225455AE09FBED6A211EF4EE465F4F SWAP2 ADD PUSH2 0x2019 JUMP JUMPDEST PUSH1 0x0 DUP4 GT PUSH2 0x3926 JUMPI PUSH1 0x40 MLOAD PUSH3 0x461BCD PUSH1 0xE5 SHL DUP2 MSTORE PUSH1 0x20 PUSH1 0x4 DUP3 ADD MSTORE PUSH1 0x2 PUSH1 0x24 DUP3 ADD MSTORE PUSH2 0x29AD PUSH1 0xF1 SHL PUSH1 0x44 DUP3 ADD MSTORE PUSH1 0x64 ADD PUSH2 0xB0B JUMP JUMPDEST PUSH1 0x40 MLOAD PUSH12 0xFFFFFFFFFFFFFFFFFFFFFFFF NOT PUSH1 0x60 DUP5 SWAP1 SHL AND PUSH1 0x20 DUP3 ADD MSTORE PUSH1 0x34 DUP2 ADD DUP3 SWAP1 MSTORE PUSH1 0x0 SWAP1 PUSH1 0x54 ADD PUSH1 0x40 DUP1 MLOAD DUP1 DUP4 SUB PUSH1 0x1F NOT ADD DUP2 MSTORE DUP3 DUP3 MSTORE DUP1 MLOAD PUSH1 0x20 SWAP2 DUP3 ADD KECCAK256 PUSH1 0x1 PUSH1 0x1 PUSH1 0xA0 SHL SUB DUP8 DUP2 AND PUSH1 0x0 DUP2 DUP2 MSTORE PUSH1 0x4 DUP6 MSTORE DUP6 DUP2 KECCAK256 DUP5 SWAP1 SSTORE DUP4 DUP2 MSTORE PUSH1 0x7 DUP6 MSTORE DUP6 DUP2 KECCAK256 PUSH1 0x0 NOT SWAP1 SSTORE PUSH1 0x60 DUP1 DUP9 ADD DUP8 MSTORE DUP12 DUP9 MSTORE DUP6 DUP9 ADD DUP4 DUP2 MSTORE DUP9 DUP9 ADD DUP12 DUP2 MSTORE DUP7 DUP5 MSTORE PUSH1 0x3 DUP9 MSTORE SWAP3 DUP9 SWAP1 KECCAK256 SWAP9 MLOAD DUP10 SSTORE MLOAD PUSH1 0x1 DUP10 ADD DUP1 SLOAD PUSH1 0x1 PUSH1 0x1 PUSH1 0xA0 SHL SUB NOT AND SWAP2 SWAP1 SWAP6 AND OR SWAP1 SWAP4 SSTORE MLOAD PUSH1 0x2 SWAP1 SWAP7 ADD SWAP6 SWAP1 SWAP6 SSTORE DUP4 MLOAD DUP3 DUP2 MSTORE SWAP3 DUP4 ADD SWAP5 SWAP1 SWAP5 MSTORE SWAP2 DUP2 ADD DUP6 SWAP1 MSTORE SWAP1 SWAP3 POP PUSH32 0x90E88E994885F1CDD31D3393F0B012E817804FC9D2ADEF69D0D7E5053D1E29AD SWAP2 ADD PUSH2 0x2A24 JUMP JUMPDEST PUSH2 0x3A1E DUP2 PUSH2 0x1416 JUMP JUMPDEST PUSH2 0x3A3A JUMPI PUSH1 0x40 MLOAD PUSH3 0x461BCD PUSH1 0xE5 SHL DUP2 MSTORE PUSH1 0x4 ADD PUSH2 0xB0B SWAP1 PUSH2 0x405C JUMP JUMPDEST PUSH1 0x1 PUSH1 0x1 PUSH1 0xA0 SHL SUB DUP2 AND PUSH1 0x0 SWAP1 DUP2 MSTORE PUSH1 0x9 PUSH1 0x20 MSTORE PUSH1 0x40 SWAP1 KECCAK256 SLOAD ISZERO PUSH2 0x3A85 JUMPI PUSH1 0x40 MLOAD PUSH3 0x461BCD PUSH1 0xE5 SHL DUP2 MSTORE PUSH1 0x20 PUSH1 0x4 DUP3 ADD MSTORE PUSH1 0x2 PUSH1 0x24 DUP3 ADD MSTORE PUSH2 0x272D PUSH1 0xF1 SHL PUSH1 0x44 DUP3 ADD MSTORE PUSH1 0x64 ADD PUSH2 0xB0B JUMP JUMPDEST PUSH1 0x1 PUSH1 0x1 PUSH1 0xA0 SHL SUB AND PUSH1 0x0 SWAP1 DUP2 MSTORE PUSH1 0x8 PUSH1 0x20 MSTORE PUSH1 0x40 SWAP1 KECCAK256 DUP1 SLOAD PUSH1 0xFF NOT AND SWAP1 SSTORE JUMP JUMPDEST PUSH2 0x3AAF DUP2 PUSH2 0x1416 JUMP JUMPDEST ISZERO PUSH2 0x3AE1 JUMPI PUSH1 0x40 MLOAD PUSH3 0x461BCD PUSH1 0xE5 SHL DUP2 MSTORE PUSH1 0x20 PUSH1 0x4 DUP3 ADD MSTORE PUSH1 0x2 PUSH1 0x24 DUP3 ADD MSTORE PUSH2 0x20A9 PUSH1 0xF1 SHL PUSH1 0x44 DUP3 ADD MSTORE PUSH1 0x64 ADD PUSH2 0xB0B JUMP JUMPDEST PUSH1 0x1 PUSH1 0x1 PUSH1 0xA0 SHL SUB AND PUSH1 0x0 SWAP1 DUP2 MSTORE PUSH1 0x8 PUSH1 0x20 MSTORE PUSH1 0x40 SWAP1 KECCAK256 DUP1 SLOAD PUSH1 0xFF NOT AND PUSH1 0x1 OR SWAP1 SSTORE JUMP JUMPDEST PUSH4 0x4E487B71 PUSH1 0xE0 SHL PUSH1 0x0 MSTORE PUSH1 0x41 PUSH1 0x4 MSTORE PUSH1 0x24 PUSH1 0x0 REVERT JUMPDEST PUSH1 0x0 DUP3 PUSH1 0x1F DUP4 ADD SLT PUSH2 0x3B2C JUMPI PUSH1 0x0 DUP1 REVERT JUMPDEST DUP2 CALLDATALOAD PUSH8 0xFFFFFFFFFFFFFFFF DUP1 DUP3 GT ISZERO PUSH2 0x3B47 JUMPI PUSH2 0x3B47 PUSH2 0x3B05 JUMP JUMPDEST PUSH1 0x40 MLOAD PUSH1 0x1F DUP4 ADD PUSH1 0x1F NOT SWAP1 DUP2 AND PUSH1 0x3F ADD AND DUP2 ADD SWAP1 DUP3 DUP3 GT DUP2 DUP4 LT OR ISZERO PUSH2 0x3B6F JUMPI PUSH2 0x3B6F PUSH2 0x3B05 JUMP JUMPDEST DUP2 PUSH1 0x40 MSTORE DUP4 DUP2 MSTORE DUP7 PUSH1 0x20 DUP6 DUP9 ADD ADD GT ISZERO PUSH2 0x3B88 JUMPI PUSH1 0x0 DUP1 REVERT JUMPDEST DUP4 PUSH1 0x20 DUP8 ADD PUSH1 0x20 DUP4 ADD CALLDATACOPY PUSH1 0x0 PUSH1 0x20 DUP6 DUP4 ADD ADD MSTORE DUP1 SWAP5 POP POP POP POP POP SWAP3 SWAP2 POP POP JUMP JUMPDEST DUP1 CALLDATALOAD PUSH1 0x3 DUP2 LT PUSH2 0x3BB7 JUMPI PUSH1 0x0 DUP1 REVERT JUMPDEST SWAP2 SWAP1 POP JUMP JUMPDEST PUSH1 0x0 DUP1 PUSH1 0x40 DUP4 DUP6 SUB SLT ISZERO PUSH2 0x3BCF JUMPI PUSH1 0x0 DUP1 REVERT JUMPDEST DUP3 CALLDATALOAD PUSH8 0xFFFFFFFFFFFFFFFF DUP2 GT ISZERO PUSH2 0x3BE6 JUMPI PUSH1 0x0 DUP1 REVERT JUMPDEST PUSH2 0x3BF2 DUP6 DUP3 DUP7 ADD PUSH2 0x3B1B JUMP JUMPDEST SWAP3 POP POP PUSH2 0x3C01 PUSH1 0x20 DUP5 ADD PUSH2 0x3BA8 JUMP JUMPDEST SWAP1 POP SWAP3 POP SWAP3 SWAP1 POP JUMP JUMPDEST PUSH1 0x0 PUSH1 0x20 DUP3 DUP5 SUB SLT ISZERO PUSH2 0x3C1C JUMPI PUSH1 0x0 DUP1 REVERT JUMPDEST POP CALLDATALOAD SWAP2 SWAP1 POP JUMP JUMPDEST PUSH1 0x0 PUSH1 0x20 DUP3 DUP5 SUB SLT ISZERO PUSH2 0x3C35 JUMPI PUSH1 0x0 DUP1 REVERT JUMPDEST DUP2 CALLDATALOAD PUSH8 0xFFFFFFFFFFFFFFFF DUP2 GT ISZERO PUSH2 0x3C4C JUMPI PUSH1 0x0 DUP1 REVERT JUMPDEST PUSH2 0x3C58 DUP5 DUP3 DUP6 ADD PUSH2 0x3B1B JUMP JUMPDEST SWAP5 SWAP4 POP POP POP POP JUMP JUMPDEST DUP1 CALLDATALOAD PUSH1 0x1 PUSH1 0x1 PUSH1 0xA0 SHL SUB DUP2 AND DUP2 EQ PUSH2 0x3BB7 JUMPI PUSH1 0x0 DUP1 REVERT JUMPDEST PUSH1 0x0 DUP1 PUSH1 0x40 DUP4 DUP6 SUB SLT ISZERO PUSH2 0x3C8A JUMPI PUSH1 0x0 DUP1 REVERT JUMPDEST DUP3 CALLDATALOAD PUSH8 0xFFFFFFFFFFFFFFFF DUP2 GT ISZERO PUSH2 0x3CA1 JUMPI PUSH1 0x0 DUP1 REVERT JUMPDEST PUSH2 0x3CAD DUP6 DUP3 DUP7 ADD PUSH2 0x3B1B JUMP JUMPDEST SWAP3 POP POP PUSH2 0x3C01 PUSH1 0x20 DUP5 ADD PUSH2 0x3C60 JUMP JUMPDEST PUSH1 0x0 PUSH1 0x20 DUP3 DUP5 SUB SLT ISZERO PUSH2 0x3CCE JUMPI PUSH1 0x0 DUP1 REVERT JUMPDEST PUSH2 0xD60 DUP3 PUSH2 0x3C60 JUMP JUMPDEST PUSH1 0x0 DUP1 PUSH1 0x40 DUP4 DUP6 SUB SLT ISZERO PUSH2 0x3CEA JUMPI PUSH1 0x0 DUP1 REVERT JUMPDEST POP POP DUP1 CALLDATALOAD SWAP3 PUSH1 0x20 SWAP1 SWAP2 ADD CALLDATALOAD SWAP2 POP JUMP JUMPDEST PUSH1 0x0 DUP1 PUSH1 0x0 DUP1 PUSH1 0x80 DUP6 DUP8 SUB SLT ISZERO PUSH2 0x3D0F JUMPI PUSH1 0x0 DUP1 REVERT JUMPDEST DUP5 CALLDATALOAD SWAP4 POP PUSH2 0x3D1F PUSH1 0x20 DUP7 ADD PUSH2 0x3C60 JUMP JUMPDEST SWAP3 POP PUSH1 0x40 DUP6 ADD CALLDATALOAD SWAP2 POP PUSH2 0x3D34 PUSH1 0x60 DUP7 ADD PUSH2 0x3C60 JUMP JUMPDEST SWAP1 POP SWAP3 SWAP6 SWAP2 SWAP5 POP SWAP3 POP JUMP JUMPDEST PUSH1 0x0 DUP1 PUSH1 0x0 PUSH1 0x60 DUP5 DUP7 SUB SLT ISZERO PUSH2 0x3D54 JUMPI PUSH1 0x0 DUP1 REVERT JUMPDEST DUP4 CALLDATALOAD PUSH8 0xFFFFFFFFFFFFFFFF DUP2 GT ISZERO PUSH2 0x3D6B JUMPI PUSH1 0x0 DUP1 REVERT JUMPDEST PUSH2 0x3D77 DUP7 DUP3 DUP8 ADD PUSH2 0x3B1B JUMP JUMPDEST SWAP4 POP POP PUSH2 0x3D86 PUSH1 0x20 DUP6 ADD PUSH2 0x3C60 JUMP JUMPDEST SWAP2 POP PUSH1 0x40 DUP5 ADD CALLDATALOAD SWAP1 POP SWAP3 POP SWAP3 POP SWAP3 JUMP JUMPDEST DUP1 ISZERO ISZERO DUP2 EQ PUSH2 0xB59 JUMPI PUSH1 0x0 DUP1 REVERT JUMPDEST PUSH1 0x0 PUSH1 0x20 DUP3 DUP5 SUB SLT ISZERO PUSH2 0x3DB6 JUMPI PUSH1 0x0 DUP1 REVERT JUMPDEST DUP2 CALLDATALOAD PUSH2 0xD60 DUP2 PUSH2 0x3D96 JUMP JUMPDEST PUSH1 0x0 DUP1 PUSH1 0x40 DUP4 DUP6 SUB SLT ISZERO PUSH2 0x3DD4 JUMPI PUSH1 0x0 DUP1 REVERT JUMPDEST PUSH2 0x3DDD DUP4 PUSH2 0x3C60 JUMP JUMPDEST SWAP5 PUSH1 0x20 SWAP4 SWAP1 SWAP4 ADD CALLDATALOAD SWAP4 POP POP POP JUMP JUMPDEST PUSH1 0x0 DUP1 PUSH1 0x0 DUP1 PUSH1 0x80 DUP6 DUP8 SUB SLT ISZERO PUSH2 0x3E01 JUMPI PUSH1 0x0 DUP1 REVERT JUMPDEST DUP5 CALLDATALOAD PUSH8 0xFFFFFFFFFFFFFFFF DUP1 DUP3 GT ISZERO PUSH2 0x3E19 JUMPI PUSH1 0x0 DUP1 REVERT JUMPDEST PUSH2 0x3E25 DUP9 DUP4 DUP10 ADD PUSH2 0x3B1B JUMP JUMPDEST SWAP6 POP PUSH1 0x20 DUP8 ADD CALLDATALOAD SWAP2 POP DUP1 DUP3 GT ISZERO PUSH2 0x3E3B JUMPI PUSH1 0x0 DUP1 REVERT JUMPDEST POP PUSH2 0x3E48 DUP8 DUP3 DUP9 ADD PUSH2 0x3B1B JUMP JUMPDEST SWAP4 POP POP PUSH2 0x3E57 PUSH1 0x40 DUP7 ADD PUSH2 0x3C60 JUMP JUMPDEST SWAP4 SWAP7 SWAP3 SWAP6 POP SWAP3 SWAP4 PUSH1 0x60 ADD CALLDATALOAD SWAP3 POP POP JUMP JUMPDEST PUSH1 0x0 DUP1 PUSH1 0x0 PUSH1 0x60 DUP5 DUP7 SUB SLT ISZERO PUSH2 0x3E7C JUMPI PUSH1 0x0 DUP1 REVERT JUMPDEST DUP4 CALLDATALOAD SWAP3 POP PUSH1 0x20 DUP5 ADD CALLDATALOAD SWAP2 POP PUSH2 0x3E93 PUSH1 0x40 DUP6 ADD PUSH2 0x3C60 JUMP JUMPDEST SWAP1 POP SWAP3 POP SWAP3 POP SWAP3 JUMP JUMPDEST PUSH1 0x0 DUP1 PUSH1 0x0 PUSH1 0x60 DUP5 DUP7 SUB SLT ISZERO PUSH2 0x3EB1 JUMPI PUSH1 0x0 DUP1 REVERT JUMPDEST DUP4 CALLDATALOAD PUSH8 0xFFFFFFFFFFFFFFFF DUP2 GT ISZERO PUSH2 0x3EC8 JUMPI PUSH1 0x0 DUP1 REVERT JUMPDEST PUSH2 0x3ED4 DUP7 DUP3 DUP8 ADD PUSH2 0x3B1B JUMP JUMPDEST SWAP4 POP POP PUSH2 0x3EE3 PUSH1 0x20 DUP6 ADD PUSH2 0x3C60 JUMP JUMPDEST SWAP2 POP PUSH2 0x3E93 PUSH1 0x40 DUP6 ADD PUSH2 0x3BA8 JUMP JUMPDEST PUSH1 0x0 DUP1 PUSH1 0x0 DUP1 PUSH1 0x80 DUP6 DUP8 SUB SLT ISZERO PUSH2 0x3F07 JUMPI PUSH1 0x0 DUP1 REVERT JUMPDEST DUP5 CALLDATALOAD PUSH8 0xFFFFFFFFFFFFFFFF DUP2 GT ISZERO PUSH2 0x3F1E JUMPI PUSH1 0x0 DUP1 REVERT JUMPDEST PUSH2 0x3F2A DUP8 DUP3 DUP9 ADD PUSH2 0x3B1B JUMP JUMPDEST SWAP5 POP POP PUSH2 0x3D1F PUSH1 0x20 DUP7 ADD PUSH2 0x3C60 JUMP JUMPDEST PUSH1 0x0 DUP1 PUSH1 0x0 DUP1 PUSH1 0x0 PUSH1 0xA0 DUP7 DUP9 SUB SLT ISZERO PUSH2 0x3F51 JUMPI PUSH1 0x0 DUP1 REVERT JUMPDEST DUP6 CALLDATALOAD SWAP5 POP PUSH1 0x20 DUP7 ADD CALLDATALOAD SWAP4 POP PUSH2 0x3F68 PUSH1 0x40 DUP8 ADD PUSH2 0x3C60 JUMP JUMPDEST SWAP3 POP PUSH1 0x60 DUP7 ADD CALLDATALOAD SWAP2 POP PUSH2 0x3F7D PUSH1 0x80 DUP8 ADD PUSH2 0x3C60 JUMP JUMPDEST SWAP1 POP SWAP3 SWAP6 POP SWAP3 SWAP6 SWAP1 SWAP4 POP JUMP JUMPDEST PUSH4 0x4E487B71 PUSH1 0xE0 SHL PUSH1 0x0 MSTORE PUSH1 0x11 PUSH1 0x4 MSTORE PUSH1 0x24 PUSH1 0x0 REVERT JUMPDEST DUP1 DUP3 ADD DUP1 DUP3 GT ISZERO PUSH2 0xC71 JUMPI PUSH2 0xC71 PUSH2 0x3F89 JUMP JUMPDEST PUSH4 0x4E487B71 PUSH1 0xE0 SHL PUSH1 0x0 MSTORE PUSH1 0x21 PUSH1 0x4 MSTORE PUSH1 0x24 PUSH1 0x0 REVERT JUMPDEST PUSH1 0x0 JUMPDEST DUP4 DUP2 LT ISZERO PUSH2 0x3FE3 JUMPI DUP2 DUP2 ADD MLOAD DUP4 DUP3 ADD MSTORE PUSH1 0x20 ADD PUSH2 0x3FCB JUMP JUMPDEST POP POP PUSH1 0x0 SWAP2 ADD MSTORE JUMP JUMPDEST PUSH1 0x0 DUP3 MLOAD PUSH2 0x3FFE DUP2 DUP5 PUSH1 0x20 DUP8 ADD PUSH2 0x3FC8 JUMP JUMPDEST SWAP2 SWAP1 SWAP2 ADD SWAP3 SWAP2 POP POP JUMP JUMPDEST PUSH1 0x20 DUP1 DUP3 MSTORE PUSH1 0x2 SWAP1 DUP3 ADD MSTORE PUSH2 0x9E9 PUSH1 0xF3 SHL PUSH1 0x40 DUP3 ADD MSTORE PUSH1 0x60 ADD SWAP1 JUMP JUMPDEST PUSH1 0x20 DUP1 DUP3 MSTORE PUSH1 0x2 SWAP1 DUP3 ADD MSTORE PUSH2 0x5553 PUSH1 0xF0 SHL PUSH1 0x40 DUP3 ADD MSTORE PUSH1 0x60 ADD SWAP1 JUMP JUMPDEST PUSH1 0x20 DUP1 DUP3 MSTORE PUSH1 0x2 SWAP1 DUP3 ADD MSTORE PUSH2 0x1153 PUSH1 0xF2 SHL PUSH1 0x40 DUP3 ADD MSTORE PUSH1 0x60 ADD SWAP1 JUMP JUMPDEST PUSH1 0x20 DUP1 DUP3 MSTORE PUSH1 0x2 SWAP1 DUP3 ADD MSTORE PUSH2 0x1555 PUSH1 0xF2 SHL PUSH1 0x40 DUP3 ADD MSTORE PUSH1 0x60 ADD SWAP1 JUMP JUMPDEST DUP1 DUP3 MUL DUP2 ISZERO DUP3 DUP3 DIV DUP5 EQ OR PUSH2 0xC71 JUMPI PUSH2 0xC71 PUSH2 0x3F89 JUMP JUMPDEST PUSH1 0x0 DUP3 PUSH2 0x40AC JUMPI PUSH4 0x4E487B71 PUSH1 0xE0 SHL PUSH1 0x0 MSTORE PUSH1 0x12 PUSH1 0x4 MSTORE PUSH1 0x24 PUSH1 0x0 REVERT JUMPDEST POP DIV SWAP1 JUMP JUMPDEST DUP2 DUP2 SUB DUP2 DUP2 GT ISZERO PUSH2 0xC71 JUMPI PUSH2 0xC71 PUSH2 0x3F89 JUMP JUMPDEST PUSH1 0x0 DUP2 MLOAD DUP1 DUP5 MSTORE PUSH2 0x40DC DUP2 PUSH1 0x20 DUP7 ADD PUSH1 0x20 DUP7 ADD PUSH2 0x3FC8 JUMP JUMPDEST PUSH1 0x1F ADD PUSH1 0x1F NOT AND SWAP3 SWAP1 SWAP3 ADD PUSH1 0x20 ADD SWAP3 SWAP2 POP POP JUMP JUMPDEST PUSH1 0x60 DUP2 MSTORE PUSH1 0x2 PUSH1 0x60 DUP3 ADD MSTORE PUSH2 0x18D1 PUSH1 0xF2 SHL PUSH1 0x80 DUP3 ADD MSTORE PUSH1 0xA0 PUSH1 0x20 DUP3 ADD MSTORE PUSH1 0x0 PUSH2 0x411C PUSH1 0xA0 DUP4 ADD DUP6 PUSH2 0x40C4 JUMP JUMPDEST SWAP1 POP PUSH1 0x1 DUP1 PUSH1 0xA0 SHL SUB DUP4 AND PUSH1 0x40 DUP4 ADD MSTORE SWAP4 SWAP3 POP POP POP JUMP JUMPDEST PUSH1 0x0 PUSH1 0x20 DUP3 DUP5 SUB SLT ISZERO PUSH2 0x4145 JUMPI PUSH1 0x0 DUP1 REVERT JUMPDEST POP MLOAD SWAP2 SWAP1 POP JUMP JUMPDEST PUSH1 0x20 DUP1 DUP3 MSTORE PUSH1 0x2 SWAP1 DUP3 ADD MSTORE PUSH2 0x1255 PUSH1 0xF2 SHL PUSH1 0x40 DUP3 ADD MSTORE PUSH1 0x60 ADD SWAP1 JUMP JUMPDEST PUSH1 0x0 PUSH1 0x20 DUP3 DUP5 SUB SLT ISZERO PUSH2 0x417A JUMPI PUSH1 0x0 DUP1 REVERT JUMPDEST DUP2 MLOAD PUSH2 0xD60 DUP2 PUSH2 0x3D96 JUMP JUMPDEST PUSH1 0x20 DUP1 DUP3 MSTORE PUSH1 0x2 SWAP1 DUP3 ADD MSTORE PUSH2 0x1395 PUSH1 0xF2 SHL PUSH1 0x40 DUP3 ADD MSTORE PUSH1 0x60 ADD SWAP1 JUMP JUMPDEST PUSH1 0x3 DUP2 LT PUSH2 0x41BF JUMPI PUSH4 0x4E487B71 PUSH1 0xE0 SHL PUSH1 0x0 MSTORE PUSH1 0x21 PUSH1 0x4 MSTORE PUSH1 0x24 PUSH1 0x0 REVERT JUMPDEST SWAP1 MSTORE JUMP JUMPDEST PUSH1 0x40 DUP2 MSTORE PUSH1 0x0 PUSH2 0x41D6 PUSH1 0x40 DUP4 ADD DUP6 PUSH2 0x40C4 JUMP JUMPDEST SWAP1 POP PUSH2 0xD60 PUSH1 0x20 DUP4 ADD DUP5 PUSH2 0x41A1 JUMP JUMPDEST PUSH1 0x60 DUP2 MSTORE PUSH1 0x2 PUSH1 0x60 DUP3 ADD MSTORE PUSH2 0x39A1 PUSH1 0xF1 SHL PUSH1 0x80 DUP3 ADD MSTORE PUSH1 0xA0 PUSH1 0x20 DUP3 ADD MSTORE PUSH1 0x0 PUSH2 0x411C PUSH1 0xA0 DUP4 ADD DUP6 PUSH2 0x40C4 JUMP JUMPDEST PUSH1 0x60 DUP2 MSTORE PUSH1 0x2 PUSH1 0x60 DUP3 ADD MSTORE PUSH2 0x1911 PUSH1 0xF2 SHL PUSH1 0x80 DUP3 ADD MSTORE PUSH1 0xA0 PUSH1 0x20 DUP3 ADD MSTORE PUSH1 0x0 PUSH2 0x411C PUSH1 0xA0 DUP4 ADD DUP6 PUSH2 0x40C4 JUMP JUMPDEST PUSH1 0x40 DUP2 MSTORE PUSH1 0x0 PUSH2 0x4250 PUSH1 0x40 DUP4 ADD DUP6 PUSH2 0x40C4 JUMP JUMPDEST SWAP1 POP PUSH1 0x1 DUP1 PUSH1 0xA0 SHL SUB DUP4 AND PUSH1 0x20 DUP4 ADD MSTORE SWAP4 SWAP3 POP POP POP JUMP JUMPDEST PUSH1 0x60 DUP2 MSTORE PUSH1 0x2 PUSH1 0x60 DUP3 ADD MSTORE PUSH2 0x31A1 PUSH1 0xF1 SHL PUSH1 0x80 DUP3 ADD MSTORE PUSH1 0xA0 PUSH1 0x20 DUP3 ADD MSTORE PUSH1 0x0 PUSH2 0x411C PUSH1 0xA0 DUP4 ADD DUP6 PUSH2 0x40C4 JUMP JUMPDEST PUSH1 0x60 DUP2 MSTORE PUSH1 0x2 PUSH1 0x60 DUP3 ADD MSTORE PUSH2 0x7241 PUSH1 0xF0 SHL PUSH1 0x80 DUP3 ADD MSTORE PUSH1 0xA0 PUSH1 0x20 DUP3 ADD MSTORE PUSH1 0x0 PUSH2 0x411C PUSH1 0xA0 DUP4 ADD DUP6 PUSH2 0x40C4 JUMP JUMPDEST PUSH1 0x20 DUP2 MSTORE PUSH1 0x0 PUSH2 0xD60 PUSH1 0x20 DUP4 ADD DUP5 PUSH2 0x40C4 JUMP JUMPDEST PUSH1 0x60 DUP2 MSTORE PUSH1 0x2 PUSH1 0x60 DUP3 ADD MSTORE PUSH2 0x3221 PUSH1 0xF1 SHL PUSH1 0x80 DUP3 ADD MSTORE PUSH1 0xA0 PUSH1 0x20 DUP3 ADD MSTORE PUSH1 0x0 PUSH2 0x411C PUSH1 0xA0 DUP4 ADD DUP6 PUSH2 0x40C4 JUMP JUMPDEST PUSH1 0x20 DUP1 DUP3 MSTORE PUSH1 0x2 SWAP1 DUP3 ADD MSTORE PUSH2 0x24A3 PUSH1 0xF1 SHL PUSH1 0x40 DUP3 ADD MSTORE PUSH1 0x60 ADD SWAP1 JUMP JUMPDEST PUSH1 0x60 DUP2 MSTORE PUSH1 0x0 PUSH2 0x432D PUSH1 0x60 DUP4 ADD DUP7 PUSH2 0x40C4 JUMP JUMPDEST PUSH1 0x1 PUSH1 0x1 PUSH1 0xA0 SHL SUB SWAP5 SWAP1 SWAP5 AND PUSH1 0x20 DUP4 ADD MSTORE POP PUSH1 0x40 ADD MSTORE SWAP2 SWAP1 POP JUMP JUMPDEST PUSH1 0x60 DUP2 MSTORE PUSH1 0x2 PUSH1 0x60 DUP3 ADD MSTORE PUSH2 0x1A51 PUSH1 0xF2 SHL PUSH1 0x80 DUP3 ADD MSTORE PUSH1 0xA0 PUSH1 0x20 DUP3 ADD MSTORE PUSH1 0x0 PUSH2 0x411C PUSH1 0xA0 DUP4 ADD DUP6 PUSH2 0x40C4 JUMP JUMPDEST PUSH1 0x60 DUP2 MSTORE PUSH1 0x3 PUSH1 0x60 DUP3 ADD MSTORE PUSH3 0x734E53 PUSH1 0xE8 SHL PUSH1 0x80 DUP3 ADD MSTORE PUSH1 0xA0 PUSH1 0x20 DUP3 ADD MSTORE PUSH1 0x0 PUSH2 0x411C PUSH1 0xA0 DUP4 ADD DUP6 PUSH2 0x40C4 JUMP JUMPDEST PUSH1 0x60 DUP2 MSTORE PUSH1 0x2 PUSH1 0x60 DUP3 ADD MSTORE PUSH2 0x1D55 PUSH1 0xF2 SHL PUSH1 0x80 DUP3 ADD MSTORE PUSH1 0xA0 PUSH1 0x20 DUP3 ADD MSTORE PUSH1 0x0 PUSH2 0x411C PUSH1 0xA0 DUP4 ADD DUP6 PUSH2 0x40C4 JUMP JUMPDEST PUSH1 0x60 DUP2 MSTORE PUSH1 0x2 PUSH1 0x60 DUP3 ADD MSTORE PUSH2 0x1C95 PUSH1 0xF2 SHL PUSH1 0x80 DUP3 ADD MSTORE PUSH1 0xA0 PUSH1 0x20 DUP3 ADD MSTORE PUSH1 0x0 PUSH2 0x411C PUSH1 0xA0 DUP4 ADD DUP6 PUSH2 0x40C4 JUMP JUMPDEST PUSH1 0x80 DUP2 MSTORE PUSH1 0x0 PUSH2 0x440C PUSH1 0x80 DUP4 ADD DUP8 PUSH2 0x40C4 JUMP JUMPDEST DUP3 DUP2 SUB PUSH1 0x20 DUP5 ADD MSTORE PUSH2 0x441E DUP2 DUP8 PUSH2 0x40C4 JUMP JUMPDEST PUSH1 0x1 PUSH1 0x1 PUSH1 0xA0 SHL SUB SWAP6 SWAP1 SWAP6 AND PUSH1 0x40 DUP5 ADD MSTORE POP POP PUSH1 0x60 ADD MSTORE SWAP3 SWAP2 POP POP JUMP JUMPDEST PUSH1 0x60 DUP2 MSTORE PUSH1 0x2 PUSH1 0x60 DUP3 ADD MSTORE PUSH2 0x1B55 PUSH1 0xF2 SHL PUSH1 0x80 DUP3 ADD MSTORE PUSH1 0xA0 PUSH1 0x20 DUP3 ADD MSTORE PUSH1 0x0 PUSH2 0x411C PUSH1 0xA0 DUP4 ADD DUP6 PUSH2 0x40C4 JUMP JUMPDEST PUSH1 0x60 DUP2 MSTORE PUSH1 0x2 PUSH1 0x60 DUP3 ADD MSTORE PUSH2 0x6141 PUSH1 0xF0 SHL PUSH1 0x80 DUP3 ADD MSTORE PUSH1 0xA0 PUSH1 0x20 DUP3 ADD MSTORE PUSH1 0x0 PUSH2 0x411C PUSH1 0xA0 DUP4 ADD DUP6 PUSH2 0x40C4 JUMP JUMPDEST PUSH1 0x0 PUSH1 0x1 DUP3 ADD PUSH2 0x44A5 JUMPI PUSH2 0x44A5 PUSH2 0x3F89 JUMP JUMPDEST POP PUSH1 0x1 ADD SWAP1 JUMP JUMPDEST PUSH1 0x60 DUP2 MSTORE PUSH1 0x0 PUSH2 0x44BF PUSH1 0x60 DUP4 ADD DUP7 PUSH2 0x40C4 JUMP JUMPDEST PUSH1 0x1 PUSH1 0x1 PUSH1 0xA0 SHL SUB DUP6 AND PUSH1 0x20 DUP5 ADD MSTORE SWAP1 POP PUSH2 0x3C58 PUSH1 0x40 DUP4 ADD DUP5 PUSH2 0x41A1 JUMP JUMPDEST PUSH1 0x60 DUP2 MSTORE PUSH1 0x2 PUSH1 0x60 DUP3 ADD MSTORE PUSH2 0x735 PUSH1 0xF4 SHL PUSH1 0x80 DUP3 ADD MSTORE PUSH1 0xA0 PUSH1 0x20 DUP3 ADD MSTORE PUSH1 0x0 PUSH2 0x411C PUSH1 0xA0 DUP4 ADD DUP6 PUSH2 0x40C4 JUMP JUMPDEST PUSH1 0x80 DUP2 MSTORE PUSH1 0x0 PUSH2 0x451C PUSH1 0x80 DUP4 ADD DUP8 PUSH2 0x40C4 JUMP JUMPDEST PUSH1 0x1 PUSH1 0x1 PUSH1 0xA0 SHL SUB SWAP6 DUP7 AND PUSH1 0x20 DUP5 ADD MSTORE PUSH1 0x40 DUP4 ADD SWAP5 SWAP1 SWAP5 MSTORE POP SWAP3 AND PUSH1 0x60 SWAP1 SWAP3 ADD SWAP2 SWAP1 SWAP2 MSTORE SWAP2 SWAP1 POP JUMP JUMPDEST PUSH1 0x60 DUP2 MSTORE PUSH1 0x2 PUSH1 0x60 DUP3 ADD MSTORE PUSH2 0x1D15 PUSH1 0xF2 SHL PUSH1 0x80 DUP3 ADD MSTORE PUSH1 0xA0 PUSH1 0x20 DUP3 ADD MSTORE PUSH1 0x0 PUSH2 0x411C PUSH1 0xA0 DUP4 ADD DUP6 PUSH2 0x40C4 JUMP INVALID NUMBER 0xCD PUSH23 0xB5EB40DA9EA5EB31A199F443F7CF7955EC280BC5981A2E CALLVALUE GASLIMIT 0xC7 SWAP13 SWAP1 SSTORE LOG2 PUSH5 0x6970667358 0x22 SLT KECCAK256 MSTORE 0xE9 0x1F BLOCKHASH SWAP5 GT 0xF6 SLT SGT PUSH19 0xA07745A074BCE8287231923DB513FB3A3CDD1A 0xB2 GASLIMIT 0xE PUSH5 0x736F6C6343 STOP ADDMOD SGT STOP CALLER ",
  "sha1": "8bb87f4a88477f086c0dc0d0748349e1d06df4f0",
  "source": "// SPDX-License-Identifier: GPL-3.0-or-later\n\npragma solidity ^0.8.4;\n\nimport \"./idea.sol\";\n\n/// @title An extension of the Idea providing an administrable interface.\n/// @author Frederik W. L. Christoffersen\n/// @notice This contract adds administrability via permits and internally closed money supplies.\ncontract Administrable is Idea {\n\n    /// @notice An enum representing a Permit State of one of the many permits.\n    /// @param unauthorized The permit is NOT authorized.\n    /// @param authorized The permit is authorized.\n    /// @param administrator The holder of the permit is not only authorized but also an administrator of it too.\n    enum PermitState {\n        unauthorized,\n        authorized,\n        administrator\n    }\n\n    /// @notice A struct representing the information of a Dividend given to all current Shard holders.\n    /// @param tokenAddress The address of the token, in which the value of the Dividend is issued.\n    /// @param value The original value/amount of the Dividend before claims.\n    struct DividendInfo {\n        address tokenAddress;\n        uint256 value;\n    }\n\n    /// @notice A boolean stating if Non Shard Holders are allowed to administer the administrable or not.\n    bool allowNonShardHolders;\n\n    /// @notice A mapping pointing to a boolean stating if a given Bank is valid/exists or not.\n    mapping(string => bool) validBanks;\n    \n    /// @notice A mapping pointing to an unsigned integer representing the amount of stored kinds of tokens of a bank.\n    mapping(string => uint256) storedTokenAddressesByBank;\n\n    /// @notice A mapping pointing to the a value/amount of a stored token of a Bank, given the name of it and the respective token address.\n    mapping(string => mapping(address => uint256)) balanceByBank;\n\n     /// @notice A mapping pointing to a boolean stating if an address is an if a given address is a valid Bank administrator that has restricted control of the Bank's funds.\n    mapping(string => mapping(address => bool)) adminOfBank;\n\n    /// @notice A mapping pointing to another mapping, pointing to a Permit State, given the address of a permit holder, given the name of the permit.\n    /// @custom:illustration permits[permitName][address] == PermitState.authorized || PermitState.administrator;\n    mapping(string => mapping(address => PermitState)) permits;\n\n    /// @notice A mapping pointing to a base Permit State, given the name of the permit.\n    mapping(string => PermitState) basePermits;\n    \n    /// @notice A mapping pointing to a boolean stating if a given Dividend is valid or not.\n    mapping(uint256 => bool) validDividends;\n\n    /// @notice A mapping pointing to the info of a Dividend given the creation clock of the Dividend.\n    mapping(uint256 => DividendInfo) infoByDividend;\n\n    /// @notice A mapping pointing to the residual of a Dividend given the creation clock of the Dividend.\n    mapping(uint256 => uint256) residualByDividend;\n\n    /// @notice Mapping pointing to a boolean stating if the owner of a Shard has claimed their fair share of the Dividend, given the bank name and the shard.\n    mapping(uint256 => mapping(bytes32  => bool)) hasClaimedDividend;\n\n    /// @notice Event that triggers when an action is taken by somebody.\n    /// @param func The name of the function that was called.\n    /// @param args The arguments passed to the function call.\n    /// @param by The initiator of the action.\n    event ActionTaken(\n        string func,\n        bytes args,\n        address by\n        );\n\n    /// @notice Modifier that makes sure msg.sender has a given permit.\n    /// @param permitName The name of the permit to be checked for.\n    modifier onlyWithPermit(string memory permitName) {\n        require(hasPermit(permitName, msg.sender));\n        _;\n    }\n    \n    /// @notice Modifier that makes sure msg.sender is an admin of a given permit.\n    /// @param permitName The name of the permit to be checked for.\n    modifier onlyPermitAdmin(string memory permitName) {\n        require(isPermitAdmin(permitName, msg.sender));\n        _;\n\n    }\n\n    /// @notice Modifier that makes sure msg.sender is admin of a given bank.\n    /// @param bankName The name of the Bank to be checked for.\n    modifier onlyBankAdmin(string memory bankName) {\n        require(isBankAdmin(bankName, msg.sender));\n        _;\n    }\n\n    /// @notice Modifier that makes sure a given bank exists\n    /// @param bankName The name of the Bank to be checked for.\n    modifier onlyExistingBank(string memory bankName) {\n        require(bankExists(bankName), \"DNE\");\n        _;\n    }\n    \n    /// @notice Modifier that makes sure a given dividend exists and is valid\n    /// @param dividend The Dividend to be checked for.\n    modifier onlyExistingDividend(uint256 dividend) {\n        require(dividendExists(dividend));\n        _;\n    }\n\n    /// @notice Constructor function connecting the Idea entity and creating a Bank with an administrator.\n    constructor(uint256 amount) Idea(amount) {\n        _createBank(\"main\",msg.sender);\n        _setPermit(\"sNS\", msg.sender, PermitState.administrator);\n        _setPermit(\"iS\", msg.sender, PermitState.administrator);\n        _setPermit(\"iD\", msg.sender, PermitState.administrator);\n        _setPermit(\"dD\", msg.sender, PermitState.administrator);\n        _setPermit(\"mB\", msg.sender, PermitState.administrator);\n        _setPermit(\"lE\", msg.sender, PermitState.administrator);\n        _setPermit(\"mAT\", msg.sender, PermitState.administrator);\n    }\n\n    /// @notice Claims the value of an existing dividend corresponding to the shard holder's respective shard fraction.\n    /// @param shard The shard that was valid at the clock of the Dividend creation\n    /// @param dividend The dividend to be claimed.\n    function claimDividend(bytes32 shard, uint256 dividend) external onlyHolder(shard) onlyExistingDividend(dividend) onlyIfActive {\n        require(shardExisted(shard,dividend), \"NAF\");\n        require(hasClaimedDividend[dividend][shard] == false, \"AC\");\n        hasClaimedDividend[dividend][shard] = true;\n        uint256 dividendValue = infoByDividend[dividend].value * infoByShard[shard].amount / totalShardAmountByClock[clock];\n        require(dividendValue != 0, \"DTS\");\n        residualByDividend[dividend] -= dividendValue;\n        _transferToken(infoByDividend[dividend].tokenAddress,dividendValue,msg.sender);\n        emit ActionTaken(\"cD\",abi.encode(dividend,dividendValue),msg.sender);\n    }\n\n    /// @notice Adds a token address to the registry. Also approves any future receipts of said token unless removed again.\n    /// @param tokenAddress The token address to be registered.\n    function registerTokenAddress(address tokenAddress) external onlyWithPermit(\"mAT\") onlyIfActive {\n        _registerTokenAddress(tokenAddress);\n    }\n\n    /// @notice Removes a token address from the registry. Also cancels any future receipts of said token unless added again.\n    /// @param tokenAddress The token address to be unregistered.\n    function unregisterTokenAddress(address tokenAddress) external onlyWithPermit(\"mAT\") onlyIfActive {\n        _unregisterTokenAddress(tokenAddress);\n    }\n\n    /// @notice Issues new shards and puts them for sale.\n    /// @param tokenAddress The token address the shards are put for sale for.\n    /// @param price The price per token.\n    /// @param to The specifically set buyer of the issued shards. Open to anyone, if address(0).\n    function issueShards(uint256 amount, address tokenAddress, uint256 price, address to) external onlyWithPermit(\"iS\") {\n        _issueShards(amount,tokenAddress,price,to);\n    }\n\n    /// @notice Creates and issues a Dividend (to all current shareholders) of a token amount from a given Bank.\n    /// @param bankName The name of the Bank to issue the Dividend from.\n    /// @param tokenAddress The address of the token to make up the Dividend.\n    /// @param value The value/amount of the token to be issued in the Dividend.\n    function issueDividend(string memory bankName, address tokenAddress, uint256 value) external onlyWithPermit(\"iD\") onlyBankAdmin(bankName) {\n        _issueDividend(bankName,tokenAddress,value);  \n    }\n\n    /// @notice Dissolves a Dividend and moves its last contents to the 'main' Bank.\n    /// @param dividend The Dividend to be dissolved.\n    function dissolveDividend(uint256 dividend) external onlyWithPermit(\"dD\") {\n        _dissolveDividend(dividend);\n    }\n\n    /// @notice Creates a new Bank.\n    /// @param bankName The name of the Bank to be created.\n    /// @param bankAdmin The address of the first Bank administrator.\n    function createBank(string memory bankName, address bankAdmin) external onlyWithPermit(\"mB\") onlyIfActive {\n       _createBank(bankName,bankAdmin);\n    }\n\n    /// @notice Adds a new given administrator to a given Bank.\n    /// @param bankName The name of the Bank to which the new administrator is to be added.\n    /// @param bankAdmin The address of the new Bank administrator to be added.\n    function addBankAdmin(string memory bankName, address bankAdmin) external onlyWithPermit(\"mB\") onlyBankAdmin(bankName) {\n        require(isShardHolder(bankAdmin) || allowNonShardHolders, \"NSHNA\");\n        _addBankAdmin(bankName,bankAdmin);\n    }\n\n    /// @notice Removes a given administrator of a given Bank.\n    /// @param bankName The name of the Bank from which the given administrator is to be removed.\n    /// @param bankAdmin The address of the current Bank administrator to be removed.\n    function removeBankAdmin(string memory bankName, address bankAdmin) external onlyPermitAdmin(\"mB\") onlyBankAdmin(bankName) {\n        _removeBankAdmin(bankName,bankAdmin);\n    }\n\n    /// @notice Deletes a given Bank.\n    /// @param bankName The name of the Bank to be deleted.\n    function deleteBank(string memory bankName) external onlyPermitAdmin(\"mB\") onlyBankAdmin(bankName) {\n        _deleteBank(bankName);\n    }\n\n    /// @notice Transfers a token bankAdmin a Bank to a recipient.\n    /// @param bankName The name of the Bank from which the token is to be transferred.\n    /// @param tokenAddress The address of the token to be transferred.\n    /// @param value The value/amount of the token to be transferred.\n    /// @param to The recipient of the token to be transferred.\n    function transferTokenFromBank(string memory bankName, address tokenAddress, uint256 value, address to) external onlyBankAdmin(bankName) {\n        _transferTokenFromBank(bankName,tokenAddress,value,to);\n    }\n\n    /// @notice Internally moves a token from one Bank to another.\n    /// @param fromBankName The name of the Bank from which the token is to be moved.\n    /// @param toBankName The name of the Bank to which the token is to be moved.\n    /// @param tokenAddress The address of the token to be moved.\n    /// @param value The value/amount of the token to be moved.\n    function moveToken(string memory fromBankName, string memory toBankName, address tokenAddress, uint256 value) external onlyBankAdmin(fromBankName) {\n        _moveToken(fromBankName,toBankName,tokenAddress,value);\n    }\n\n    /// @notice Sets the state of a specified permit of a given address.\n    /// @param account The address, whose permit state is to be set.\n    /// @param permitName The name of the permit, whose state is to be set.\n    /// @param newState The new Permit State to be applied.\n    function setPermit(string memory permitName, address account, PermitState newState) external onlyPermitAdmin(permitName) {\n        require(isShardHolder(account) || allowNonShardHolders, \"NSHNA\");\n        require(permits[permitName][account] != newState, \"AHP\");\n        _setPermit(permitName,account,newState);\n\n    }\n\n    /// @notice Sets the state of a specified base permit.\n    /// @param permitName The name of the base permit, whose state is to be set.\n    /// @param newState The new base Permit State to be applied.\n    function setBasePermit(string memory permitName, PermitState newState) external onlyPermitAdmin(permitName) {\n        require(basePermits[permitName] != newState, \"AS\");\n        _setBasePermit(permitName,newState);\n    }\n\n    /// @notice Sets the state of the Non Shard Holders.\n    /// @param newState The Boolean state to be applied.\n    function setNonShardHolderState(bool newState) external onlyWithPermit(\"sNS\") {\n        require(allowNonShardHolders != newState, \"AS\");\n        _setNonShardHolderState(newState);\n    }\n\n    /// @notice Liquidizes and dissolves the entity. This cannot be undone.\n    function liquidize() external onlyWithPermit(\"lE\") {\n        _liquidize();\n    }\n\n    /// @notice Returns the balance of a bank.\n    /// @param bankName The name of the Bank.\n    /// @param tokenAddress The address of the token balance to check for.\n    function getBankBalance(string memory bankName, address tokenAddress) public view returns(uint256) {\n        return balanceByBank[bankName][tokenAddress];\n    }\n    \n    /// @notice Returns the token of a dividend.\n    /// @param dividend The Dividend to be checked for.\n    function getDividendToken(uint256 dividend) public view returns(address) {\n        return infoByDividend[dividend].tokenAddress;\n    }\n    \n    /// @notice Returns the total value of a dividend.\n    /// @param dividend The Dividend to be checked for.\n    function getDividendValue(uint256 dividend) public view returns(uint256) {\n        return infoByDividend[dividend].value;\n    }\n\n    /// @notice Returns the residual value of a dividend.\n    /// @param dividend The Dividend to be checked for.\n    function getDividendResidual(uint256 dividend) public view returns(uint256) {\n        return residualByDividend[dividend];\n    }\n\n    /// @notice Returns a boolean stating if a given Bank exists.\n    /// @param bankName The name of the Bank to be checked for.\n    function bankExists(string memory bankName) public view returns(bool) {\n        return validBanks[bankName] == true;\n    }\n\n    /// @notice Returns a boolean stating if a given Bank is empty.\n    /// @param bankName The name of the Bank to be checked for.\n    function bankIsEmpty(string memory bankName) public view returns(bool) {\n        return storedTokenAddressesByBank[bankName] == 0 && balanceByBank[bankName][address(0)] == 0;\n    }\n    \n    /// @notice Returns a boolean stating if a given Dividend exists.\n    /// @param dividend The Dividend to be checked for.\n    function dividendExists(uint256 dividend) public view returns(bool) {\n      return validDividends[dividend];\n    }\n\n    /// @notice Returns a boolean stating if a given address is an admin of a given bank.\n    /// @param account The address to be checked for.\n    /// @param bankName The name of the Bank to be checked for.\n    function isBankAdmin(string memory bankName, address account) public view returns(bool) {\n        return adminOfBank[bankName][account] == true || isPermitAdmin(\"mB\",account);\n    }\n\n    /// @notice Returns a boolean stating if a given address has a given permit or not.\n    /// @param permitName The name of the permit to be checked for.\n    /// @param account The address to be checked for.\n    function hasPermit(string memory permitName, address account) public view returns(bool) {\n        if (!(isShardHolder(account) || allowNonShardHolders)) {return false;}\n        return permits[permitName][account] >= PermitState.authorized || basePermits[permitName] >= PermitState.authorized;\n    }\n\n    /// @notice Returns a boolean stating if a given address is an admin of a given permit or not.\n    /// @param permitName The name of the permit to be checked for.\n    /// @param account The address to be checked for.\n    function isPermitAdmin(string memory permitName, address account) public view returns(bool) {\n        if (!(isShardHolder(account) || allowNonShardHolders)) {return false;}\n        return permits[permitName][account] == PermitState.administrator || basePermits[permitName] == PermitState.administrator;\n    }\n\n    /// @notice Creates and issues a Dividend (to all current shareholders) of a token amount from a given Bank.\n    /// @param bankName The name of the Bank to issue the Dividend from.\n    /// @param tokenAddress The address of the token to make up the Dividend.\n    /// @param value The value/amount of the token to be issued in the Dividend.\n    function _issueDividend(string memory bankName, address tokenAddress, uint256 value) internal onlyIfActive {\n        uint256 transferClock = clock;\n        require(value <= balanceByBank[bankName][tokenAddress], \"IF\");\n        balanceByBank[bankName][tokenAddress] -= value;\n        if (balanceByBank[bankName][tokenAddress] == 0 && tokenAddress != address(0)) {\n            storedTokenAddressesByBank[bankName] -= 1;\n        }\n        infoByDividend[transferClock] = DividendInfo({\n            tokenAddress:tokenAddress,\n            value:value\n        });\n        residualByDividend[transferClock] = value;\n        validDividends[transferClock] = true;\n        emit ActionTaken(\"iD\",abi.encode(bankName,tokenAddress,value),msg.sender);\n    }\n\n    /// @notice Dissolves a Dividend and moves its last contents to the 'main' Bank.\n    /// @param dividend The Dividend to be dissolved.\n    function _dissolveDividend(uint256 dividend) internal onlyExistingDividend(dividend) onlyIfActive {\n        validDividends[dividend] = false; // -1 to distinguish between empty values;\n        balanceByBank[\"main\"][infoByDividend[dividend].tokenAddress] += residualByDividend[dividend];\n        emit ActionTaken(\"dD\",abi.encode(dividend),msg.sender);\n\n    }\n\n    /// @notice Creates a new Bank.\n    /// @param bankName The name of the Bank to be created.\n    /// @param bankAdmin The address of the first Bank administrator.\n    function _createBank(string memory bankName, address bankAdmin) internal onlyIfActive {\n        require(!bankExists(bankName), \"AE\");\n        adminOfBank[bankName][bankAdmin] = true;\n        validBanks[bankName] = true;\n        emit ActionTaken(\"cB\",abi.encode(bankName,bankAdmin),msg.sender);\n\n    }\n\n    /// @notice Adds a new given administrator to a given Bank.\n    /// @param bankName The name of the Bank to which the new administrator is to be added.\n    /// @param bankAdmin The address of the new Bank administrator to be added.\n    function _addBankAdmin(string memory bankName, address bankAdmin) internal onlyIfActive {\n        require(hasPermit(\"mB\",bankAdmin),\"NP\");\n        adminOfBank[bankName][bankAdmin] = true;\n        emit ActionTaken(\"aA\",abi.encode(bankName,bankAdmin),msg.sender);\n\n    }\n\n    /// @notice Removes a given administrator of a given Bank.\n    /// @param bankName The name of the Bank from which the given administrator is to be removed.\n    /// @param bankAdmin The address of the current Bank administrator to be removed.\n    function _removeBankAdmin(string memory bankName, address bankAdmin) internal onlyIfActive {\n        require(isBankAdmin(bankName,bankAdmin));\n        adminOfBank[bankName][bankAdmin] = false;\n        emit ActionTaken(\"rA\",abi.encode(bankName,bankAdmin),msg.sender);\n\n    }\n\n    /// @notice Deletes a given Bank.\n    /// @param bankName The name of the Bank to be deleted.\n    function _deleteBank(string memory bankName) internal onlyIfActive {\n        require(bankExists(bankName), \"UB!\");\n        require(keccak256(bytes(bankName)) != keccak256(bytes(\"main\")), \"MB\");\n        require(bankIsEmpty(bankName), \"BE\");\n        validBanks[bankName] = false;\n        emit ActionTaken(\"dB\",abi.encode(bankName),msg.sender);\n\n    }\n\n    /// @notice Transfers a token from a Bank to a recipient.\n    /// @param bankName The name of the Bank from which the token is to be transferred.\n    /// @param tokenAddress The address of the token to be transferred.\n    /// @param value The value/amount of the token to be transferred.\n    /// @param to The recipient of the token to be transferred.\n    function _transferTokenFromBank(string memory bankName, address tokenAddress, uint256 value, address to) internal onlyIfActive {\n        require(value <= balanceByBank[bankName][tokenAddress], \"IF\");\n        _transferToken(tokenAddress,value,to);\n        balanceByBank[bankName][tokenAddress] -= value;\n        if (balanceByBank[bankName][tokenAddress] == 0 && tokenAddress != address(0)) {\n            storedTokenAddressesByBank[bankName] -= 1;\n        }\n        emit ActionTaken(\"tT\",abi.encode(bankName,tokenAddress,value,to),msg.sender);\n    }\n\n    /// @notice Internally moves a token from one Bank to another.\n    /// @param fromBankName The name of the Bank from which the token is to be moved.\n    /// @param toBankName The name of the Bank to which the token is to be moved.\n    /// @param tokenAddress The address of the token to be moved.\n    /// @param value The value/amount of the token to be moved.\n    function _moveToken(string memory fromBankName, string memory toBankName, address tokenAddress, uint256 value) internal onlyExistingBank(toBankName) onlyIfActive {\n        require(value <= balanceByBank[fromBankName][tokenAddress], \"IF\");\n        balanceByBank[fromBankName][tokenAddress] -= value;\n        if (tokenAddress != address(0)) {\n            if (balanceByBank[fromBankName][tokenAddress] == 0) {\n                storedTokenAddressesByBank[fromBankName] -= 1;\n\n            }\n            if (balanceByBank[toBankName][tokenAddress] == 0) {\n                storedTokenAddressesByBank[toBankName] += 1;\n            }\n        }\n        balanceByBank[toBankName][tokenAddress] += value;\n        emit ActionTaken(\"mT\",abi.encode(fromBankName,toBankName,tokenAddress,value),msg.sender);\n\n    }\n\n    /// @notice Sets the state of a specified permit of a given address.\n    /// @param permitName The name of the permit, whose state is to be set.\n    /// @param account The address, whose permit state is to be set.\n    /// @param newState The new Permit State to be applied.\n    function _setPermit(string memory permitName, address account, PermitState newState) internal onlyIfActive {\n        permits[permitName][account] = newState;\n        emit ActionTaken(\"sP\",abi.encode(permitName,account,newState),msg.sender);\n\n    }\n\n    /// @notice Sets the state of a specified base permit.\n    /// @param permitName The name of the base permit, whose state is to be set.\n    /// @param newState The new base Permit State to be applied.\n    function _setBasePermit(string memory permitName, PermitState newState) internal onlyIfActive {\n        basePermits[permitName] = newState;\n        emit ActionTaken(\"sB\",abi.encode(permitName,newState),msg.sender);\n    }\n\n    /// @notice Sets the state of the Non Shard Holders.\n    /// @param newState The Boolean state to be applied.\n    function _setNonShardHolderState(bool newState) internal onlyIfActive {\n        allowNonShardHolders = newState;\n        emit ActionTaken(\"sNS\",abi.encode(newState),msg.sender);\n    }\n\n    /// @notice Removes a token address from the registry. Also cancels any future receipts of said token unless added again.\n    /// @param tokenAddress The token address to be unregistered.\n    function _unregisterTokenAddress(address tokenAddress) override internal {\n        super._unregisterTokenAddress(tokenAddress);\n        emit ActionTaken(\"uT\",abi.encode(tokenAddress),msg.sender);\n    }\n\n    /// @notice Adds a token address to the registry. Also approves any future receipts of said token unless removed again.\n    /// @param tokenAddress The token address to be registered.\n    function _registerTokenAddress(address tokenAddress) override internal {\n        super._registerTokenAddress(tokenAddress);\n        emit ActionTaken(\"rT\",abi.encode(tokenAddress),msg.sender);\n    }\n\n    /// @notice Keeps track of a token receipt by adding it to the registry\n    /// @param tokenAddress The address of the received token.\n    /// @param value The value/amount of the received token.\n    /// @param from The sender of the received token.\n    function _processTokenReceipt(address tokenAddress, uint256 value, address from) override internal {\n        super._processTokenReceipt(tokenAddress, value, from);\n        // Then: Bank logic\n        if (balanceByBank[\"main\"][tokenAddress] == 0 && tokenAddress != address(0)) {\n            storedTokenAddressesByBank[\"main\"] += 1;\n        }\n        balanceByBank[\"main\"][tokenAddress] += value;\n        emit TokenReceived(tokenAddress,value,from);\n    }\n\n    /// @notice Liquidizes and dissolves the entity. This cannot be undone.\n    function _liquidize() override internal {\n        super._liquidize();\n        emit ActionTaken(\"lE\",\"\",msg.sender);\n    }\n\n}",
  "sourcePath": "contracts/administrable.sol",
  "type": "contract"
}