{
  "abi": [
    {
      "inputs": [
        {
          "internalType": "uint256",
          "name": "amount",
          "type": "uint256"
        }
      ],
      "stateMutability": "nonpayable",
      "type": "constructor"
    },
    {
      "anonymous": false,
      "inputs": [
        {
          "indexed": false,
          "internalType": "string",
          "name": "func",
          "type": "string"
        },
        {
          "indexed": false,
          "internalType": "bytes",
          "name": "args",
          "type": "bytes"
        },
        {
          "indexed": false,
          "internalType": "address",
          "name": "by",
          "type": "address"
        }
      ],
      "name": "ActionTaken",
      "type": "event"
    },
    {
      "anonymous": false,
      "inputs": [
        {
          "indexed": false,
          "internalType": "uint256",
          "name": "clock",
          "type": "uint256"
        },
        {
          "indexed": false,
          "internalType": "uint256",
          "name": "value",
          "type": "uint256"
        },
        {
          "indexed": false,
          "internalType": "address",
          "name": "by",
          "type": "address"
        }
      ],
      "name": "DividendClaimed",
      "type": "event"
    },
    {
      "anonymous": false,
      "inputs": [
        {
          "indexed": false,
          "internalType": "bytes32",
          "name": "shard",
          "type": "bytes32"
        },
        {
          "indexed": false,
          "internalType": "uint256",
          "name": "expirationClock",
          "type": "uint256"
        }
      ],
      "name": "ExpiredShard",
      "type": "event"
    },
    {
      "anonymous": false,
      "inputs": [
        {
          "indexed": false,
          "internalType": "bytes32",
          "name": "shard",
          "type": "bytes32"
        },
        {
          "indexed": false,
          "internalType": "address",
          "name": "owner",
          "type": "address"
        },
        {
          "indexed": false,
          "internalType": "uint256",
          "name": "creationClock",
          "type": "uint256"
        }
      ],
      "name": "NewShard",
      "type": "event"
    },
    {
      "anonymous": false,
      "inputs": [
        {
          "indexed": false,
          "internalType": "bytes32",
          "name": "shard",
          "type": "bytes32"
        },
        {
          "indexed": false,
          "internalType": "uint256",
          "name": "amount",
          "type": "uint256"
        },
        {
          "indexed": false,
          "internalType": "address",
          "name": "tokenAddress",
          "type": "address"
        },
        {
          "indexed": false,
          "internalType": "uint256",
          "name": "price",
          "type": "uint256"
        },
        {
          "indexed": false,
          "internalType": "address",
          "name": "to",
          "type": "address"
        }
      ],
      "name": "PutForSale",
      "type": "event"
    },
    {
      "anonymous": false,
      "inputs": [
        {
          "indexed": false,
          "internalType": "bytes32",
          "name": "shard",
          "type": "bytes32"
        },
        {
          "indexed": false,
          "internalType": "uint256",
          "name": "amount",
          "type": "uint256"
        },
        {
          "indexed": false,
          "internalType": "address",
          "name": "to",
          "type": "address"
        },
        {
          "indexed": false,
          "internalType": "address",
          "name": "tokenAddress",
          "type": "address"
        },
        {
          "indexed": false,
          "internalType": "uint256",
          "name": "price",
          "type": "uint256"
        }
      ],
      "name": "SaleSold",
      "type": "event"
    },
    {
      "anonymous": false,
      "inputs": [
        {
          "indexed": false,
          "internalType": "address",
          "name": "tokenAddress",
          "type": "address"
        },
        {
          "indexed": false,
          "internalType": "uint256",
          "name": "value",
          "type": "uint256"
        },
        {
          "indexed": false,
          "internalType": "address",
          "name": "from",
          "type": "address"
        }
      ],
      "name": "TokenReceived",
      "type": "event"
    },
    {
      "inputs": [
        {
          "internalType": "address",
          "name": "tokenAddress",
          "type": "address"
        }
      ],
      "name": "acceptsToken",
      "outputs": [
        {
          "internalType": "bool",
          "name": "",
          "type": "bool"
        }
      ],
      "stateMutability": "view",
      "type": "function"
    },
    {
      "inputs": [],
      "name": "active",
      "outputs": [
        {
          "internalType": "bool",
          "name": "",
          "type": "bool"
        }
      ],
      "stateMutability": "view",
      "type": "function"
    },
    {
      "inputs": [
        {
          "internalType": "string",
          "name": "bankName",
          "type": "string"
        },
        {
          "internalType": "address",
          "name": "bankAdmin",
          "type": "address"
        }
      ],
      "name": "addBankAdmin",
      "outputs": [],
      "stateMutability": "nonpayable",
      "type": "function"
    },
    {
      "inputs": [
        {
          "internalType": "string",
          "name": "bankName",
          "type": "string"
        }
      ],
      "name": "bankExists",
      "outputs": [
        {
          "internalType": "bool",
          "name": "",
          "type": "bool"
        }
      ],
      "stateMutability": "view",
      "type": "function"
    },
    {
      "inputs": [
        {
          "internalType": "string",
          "name": "bankName",
          "type": "string"
        }
      ],
      "name": "bankIsEmpty",
      "outputs": [
        {
          "internalType": "bool",
          "name": "",
          "type": "bool"
        }
      ],
      "stateMutability": "view",
      "type": "function"
    },
    {
      "inputs": [
        {
          "internalType": "bytes32",
          "name": "shard",
          "type": "bytes32"
        }
      ],
      "name": "cancelSale",
      "outputs": [],
      "stateMutability": "nonpayable",
      "type": "function"
    },
    {
      "inputs": [
        {
          "internalType": "bytes32",
          "name": "shard",
          "type": "bytes32"
        },
        {
          "internalType": "uint256",
          "name": "dividend",
          "type": "uint256"
        }
      ],
      "name": "claimDividend",
      "outputs": [],
      "stateMutability": "nonpayable",
      "type": "function"
    },
    {
      "inputs": [
        {
          "internalType": "address",
          "name": "tokenAddress",
          "type": "address"
        }
      ],
      "name": "claimLiquid",
      "outputs": [],
      "stateMutability": "nonpayable",
      "type": "function"
    },
    {
      "inputs": [
        {
          "internalType": "address",
          "name": "tokenAddress",
          "type": "address"
        }
      ],
      "name": "claimTerminatedLiquid",
      "outputs": [],
      "stateMutability": "nonpayable",
      "type": "function"
    },
    {
      "inputs": [
        {
          "internalType": "string",
          "name": "bankName",
          "type": "string"
        },
        {
          "internalType": "address",
          "name": "bankAdmin",
          "type": "address"
        }
      ],
      "name": "createBank",
      "outputs": [],
      "stateMutability": "nonpayable",
      "type": "function"
    },
    {
      "inputs": [
        {
          "internalType": "string",
          "name": "bankName",
          "type": "string"
        }
      ],
      "name": "deleteBank",
      "outputs": [],
      "stateMutability": "nonpayable",
      "type": "function"
    },
    {
      "inputs": [
        {
          "internalType": "uint256",
          "name": "dividend",
          "type": "uint256"
        }
      ],
      "name": "dissolveDividend",
      "outputs": [],
      "stateMutability": "nonpayable",
      "type": "function"
    },
    {
      "inputs": [
        {
          "internalType": "uint256",
          "name": "dividend",
          "type": "uint256"
        }
      ],
      "name": "dividendExists",
      "outputs": [
        {
          "internalType": "bool",
          "name": "",
          "type": "bool"
        }
      ],
      "stateMutability": "view",
      "type": "function"
    },
    {
      "inputs": [
        {
          "internalType": "string",
          "name": "bankName",
          "type": "string"
        },
        {
          "internalType": "address",
          "name": "tokenAddress",
          "type": "address"
        }
      ],
      "name": "getBankBalance",
      "outputs": [
        {
          "internalType": "uint256",
          "name": "",
          "type": "uint256"
        }
      ],
      "stateMutability": "view",
      "type": "function"
    },
    {
      "inputs": [],
      "name": "getCurrentClock",
      "outputs": [
        {
          "internalType": "uint256",
          "name": "",
          "type": "uint256"
        }
      ],
      "stateMutability": "view",
      "type": "function"
    },
    {
      "inputs": [
        {
          "internalType": "uint256",
          "name": "dividend",
          "type": "uint256"
        }
      ],
      "name": "getDividendResidual",
      "outputs": [
        {
          "internalType": "uint256",
          "name": "",
          "type": "uint256"
        }
      ],
      "stateMutability": "view",
      "type": "function"
    },
    {
      "inputs": [
        {
          "internalType": "uint256",
          "name": "dividend",
          "type": "uint256"
        }
      ],
      "name": "getDividendToken",
      "outputs": [
        {
          "internalType": "address",
          "name": "",
          "type": "address"
        }
      ],
      "stateMutability": "view",
      "type": "function"
    },
    {
      "inputs": [
        {
          "internalType": "uint256",
          "name": "dividend",
          "type": "uint256"
        }
      ],
      "name": "getDividendValue",
      "outputs": [
        {
          "internalType": "uint256",
          "name": "",
          "type": "uint256"
        }
      ],
      "stateMutability": "view",
      "type": "function"
    },
    {
      "inputs": [
        {
          "internalType": "address",
          "name": "tokenAddress",
          "type": "address"
        }
      ],
      "name": "getLiquidResidual",
      "outputs": [
        {
          "internalType": "uint256",
          "name": "",
          "type": "uint256"
        }
      ],
      "stateMutability": "view",
      "type": "function"
    },
    {
      "inputs": [
        {
          "internalType": "bytes32",
          "name": "shard",
          "type": "bytes32"
        }
      ],
      "name": "getShardExpirationClock",
      "outputs": [
        {
          "internalType": "uint256",
          "name": "",
          "type": "uint256"
        }
      ],
      "stateMutability": "view",
      "type": "function"
    },
    {
      "inputs": [
        {
          "internalType": "bytes32",
          "name": "shard",
          "type": "bytes32"
        }
      ],
      "name": "getShardSalePrice",
      "outputs": [
        {
          "internalType": "uint256",
          "name": "",
          "type": "uint256"
        }
      ],
      "stateMutability": "view",
      "type": "function"
    },
    {
      "inputs": [
        {
          "internalType": "string",
          "name": "permitName",
          "type": "string"
        },
        {
          "internalType": "address",
          "name": "account",
          "type": "address"
        }
      ],
      "name": "hasPermit",
      "outputs": [
        {
          "internalType": "bool",
          "name": "",
          "type": "bool"
        }
      ],
      "stateMutability": "view",
      "type": "function"
    },
    {
      "inputs": [
        {
          "internalType": "bytes32",
          "name": "",
          "type": "bytes32"
        }
      ],
      "name": "infoByShard",
      "outputs": [
        {
          "internalType": "uint256",
          "name": "amount",
          "type": "uint256"
        },
        {
          "internalType": "address",
          "name": "owner",
          "type": "address"
        },
        {
          "internalType": "uint256",
          "name": "creationClock",
          "type": "uint256"
        }
      ],
      "stateMutability": "view",
      "type": "function"
    },
    {
      "inputs": [
        {
          "internalType": "string",
          "name": "bankName",
          "type": "string"
        },
        {
          "internalType": "address",
          "name": "account",
          "type": "address"
        }
      ],
      "name": "isBankAdmin",
      "outputs": [
        {
          "internalType": "bool",
          "name": "",
          "type": "bool"
        }
      ],
      "stateMutability": "view",
      "type": "function"
    },
    {
      "inputs": [
        {
          "internalType": "string",
          "name": "permitName",
          "type": "string"
        },
        {
          "internalType": "address",
          "name": "account",
          "type": "address"
        }
      ],
      "name": "isPermitAdmin",
      "outputs": [
        {
          "internalType": "bool",
          "name": "",
          "type": "bool"
        }
      ],
      "stateMutability": "view",
      "type": "function"
    },
    {
      "inputs": [
        {
          "internalType": "address",
          "name": "account",
          "type": "address"
        }
      ],
      "name": "isShardHolder",
      "outputs": [
        {
          "internalType": "bool",
          "name": "",
          "type": "bool"
        }
      ],
      "stateMutability": "view",
      "type": "function"
    },
    {
      "inputs": [],
      "name": "isTerminated",
      "outputs": [
        {
          "internalType": "bool",
          "name": "",
          "type": "bool"
        }
      ],
      "stateMutability": "view",
      "type": "function"
    },
    {
      "inputs": [
        {
          "internalType": "bytes32",
          "name": "shard",
          "type": "bytes32"
        }
      ],
      "name": "isValidShard",
      "outputs": [
        {
          "internalType": "bool",
          "name": "",
          "type": "bool"
        }
      ],
      "stateMutability": "view",
      "type": "function"
    },
    {
      "inputs": [
        {
          "internalType": "string",
          "name": "bankName",
          "type": "string"
        },
        {
          "internalType": "address",
          "name": "tokenAddress",
          "type": "address"
        },
        {
          "internalType": "uint256",
          "name": "value",
          "type": "uint256"
        }
      ],
      "name": "issueDividend",
      "outputs": [],
      "stateMutability": "nonpayable",
      "type": "function"
    },
    {
      "inputs": [
        {
          "internalType": "uint256",
          "name": "amount",
          "type": "uint256"
        },
        {
          "internalType": "address",
          "name": "tokenAddress",
          "type": "address"
        },
        {
          "internalType": "uint256",
          "name": "price",
          "type": "uint256"
        },
        {
          "internalType": "address",
          "name": "to",
          "type": "address"
        }
      ],
      "name": "issueShards",
      "outputs": [],
      "stateMutability": "nonpayable",
      "type": "function"
    },
    {
      "inputs": [
        {
          "internalType": "address",
          "name": "",
          "type": "address"
        }
      ],
      "name": "liquid",
      "outputs": [
        {
          "internalType": "uint256",
          "name": "",
          "type": "uint256"
        }
      ],
      "stateMutability": "view",
      "type": "function"
    },
    {
      "inputs": [],
      "name": "liquidize",
      "outputs": [],
      "stateMutability": "nonpayable",
      "type": "function"
    },
    {
      "inputs": [
        {
          "internalType": "string",
          "name": "fromBankName",
          "type": "string"
        },
        {
          "internalType": "string",
          "name": "toBankName",
          "type": "string"
        },
        {
          "internalType": "address",
          "name": "tokenAddress",
          "type": "address"
        },
        {
          "internalType": "uint256",
          "name": "value",
          "type": "uint256"
        }
      ],
      "name": "moveToken",
      "outputs": [],
      "stateMutability": "nonpayable",
      "type": "function"
    },
    {
      "inputs": [
        {
          "internalType": "bytes32",
          "name": "shard",
          "type": "bytes32"
        },
        {
          "internalType": "uint256",
          "name": "amount",
          "type": "uint256"
        }
      ],
      "name": "purchase",
      "outputs": [],
      "stateMutability": "payable",
      "type": "function"
    },
    {
      "inputs": [
        {
          "internalType": "bytes32",
          "name": "shard",
          "type": "bytes32"
        },
        {
          "internalType": "uint256",
          "name": "amount",
          "type": "uint256"
        },
        {
          "internalType": "address",
          "name": "tokenAddress",
          "type": "address"
        },
        {
          "internalType": "uint256",
          "name": "price",
          "type": "uint256"
        },
        {
          "internalType": "address",
          "name": "to",
          "type": "address"
        }
      ],
      "name": "putForSale",
      "outputs": [],
      "stateMutability": "nonpayable",
      "type": "function"
    },
    {
      "inputs": [
        {
          "internalType": "address",
          "name": "tokenAddress",
          "type": "address"
        },
        {
          "internalType": "uint256",
          "name": "value",
          "type": "uint256"
        }
      ],
      "name": "receiveToken",
      "outputs": [],
      "stateMutability": "nonpayable",
      "type": "function"
    },
    {
      "inputs": [
        {
          "internalType": "address",
          "name": "tokenAddress",
          "type": "address"
        }
      ],
      "name": "registerTokenAddress",
      "outputs": [],
      "stateMutability": "nonpayable",
      "type": "function"
    },
    {
      "inputs": [
        {
          "internalType": "string",
          "name": "bankName",
          "type": "string"
        },
        {
          "internalType": "address",
          "name": "bankAdmin",
          "type": "address"
        }
      ],
      "name": "removeBankAdmin",
      "outputs": [],
      "stateMutability": "nonpayable",
      "type": "function"
    },
    {
      "inputs": [
        {
          "internalType": "string",
          "name": "permitName",
          "type": "string"
        },
        {
          "internalType": "enum Administrable.PermitState",
          "name": "newState",
          "type": "uint8"
        }
      ],
      "name": "setBasePermit",
      "outputs": [],
      "stateMutability": "nonpayable",
      "type": "function"
    },
    {
      "inputs": [
        {
          "internalType": "string",
          "name": "permitName",
          "type": "string"
        },
        {
          "internalType": "address",
          "name": "account",
          "type": "address"
        },
        {
          "internalType": "enum Administrable.PermitState",
          "name": "newState",
          "type": "uint8"
        }
      ],
      "name": "setPermit",
      "outputs": [],
      "stateMutability": "nonpayable",
      "type": "function"
    },
    {
      "inputs": [
        {
          "internalType": "address",
          "name": "",
          "type": "address"
        }
      ],
      "name": "shardByOwner",
      "outputs": [
        {
          "internalType": "bytes32",
          "name": "",
          "type": "bytes32"
        }
      ],
      "stateMutability": "view",
      "type": "function"
    },
    {
      "inputs": [
        {
          "internalType": "bytes32",
          "name": "shard",
          "type": "bytes32"
        },
        {
          "internalType": "uint256",
          "name": "atClock",
          "type": "uint256"
        }
      ],
      "name": "shardExisted",
      "outputs": [
        {
          "internalType": "bool",
          "name": "",
          "type": "bool"
        }
      ],
      "stateMutability": "view",
      "type": "function"
    },
    {
      "inputs": [
        {
          "internalType": "bytes32",
          "name": "senderShard",
          "type": "bytes32"
        },
        {
          "internalType": "uint256",
          "name": "amount",
          "type": "uint256"
        },
        {
          "internalType": "address",
          "name": "to",
          "type": "address"
        }
      ],
      "name": "split",
      "outputs": [],
      "stateMutability": "nonpayable",
      "type": "function"
    },
    {
      "inputs": [
        {
          "internalType": "uint256",
          "name": "",
          "type": "uint256"
        }
      ],
      "name": "totalShardAmountByClock",
      "outputs": [
        {
          "internalType": "uint256",
          "name": "",
          "type": "uint256"
        }
      ],
      "stateMutability": "view",
      "type": "function"
    },
    {
      "inputs": [
        {
          "internalType": "string",
          "name": "bankName",
          "type": "string"
        },
        {
          "internalType": "address",
          "name": "tokenAddress",
          "type": "address"
        },
        {
          "internalType": "uint256",
          "name": "value",
          "type": "uint256"
        },
        {
          "internalType": "address",
          "name": "to",
          "type": "address"
        }
      ],
      "name": "transferTokenFromBank",
      "outputs": [],
      "stateMutability": "nonpayable",
      "type": "function"
    },
    {
      "inputs": [
        {
          "internalType": "address",
          "name": "tokenAddress",
          "type": "address"
        }
      ],
      "name": "unregisterTokenAddress",
      "outputs": [],
      "stateMutability": "nonpayable",
      "type": "function"
    },
    {
      "stateMutability": "payable",
      "type": "receive"
    }
  ],
  "bytecode": "6080604052600080553480156200001557600080fd5b5060405162004b4638038062004b46833981016040819052620000389162000504565b808062000048813360006200017a565b60008054815260026020908152604091829020929092556001805460ff1916811790558051808201909152600481526336b0b4b760e11b9181019190915262000093915033620002a8565b620000c160405180604001604052806002815260200161695360f01b815250336002620003ea60201b60201c565b620000ef604051806040016040528060028152602001611b5160f21b815250336002620003ea60201b60201c565b6200011d6040518060400160405280600281526020016136a160f11b815250336002620003ea60201b60201c565b6200014b604051806040016040528060028152602001616c4560f01b815250336002620003ea60201b60201c565b6040805180820190915260038152621b505560ea1b60208201526200017390336002620003ea565b5062000698565b60008311620001b55760405162461bcd60e51b815260206004820152600260248201526129ad60f11b60448201526064015b60405180910390fd5b6040516001600160601b0319606084901b1660208201526034810182905260009060540160408051808303601f1901815282825280516020918201206001600160a01b03878116600081815260048552858120849055838152600785528581206000199055606080880187528b88528588018381528888018b8152868452600388529288902098518955516001890180546001600160a01b0319169190951617909355516002909601959095558351828152928301949094529181018590529092507f90e88e994885f1cdd31d3393f0b012e817804fc9d2adef69d0d7e5053d1e29ad910160405180910390a150505050565b6001805460ff16151514620002e55760405162461bcd60e51b8152602060048201526002602482015261115360f21b6044820152606401620001ac565b620002f082620004d2565b15620003245760405162461bcd60e51b8152602060048201526002602482015261414560f01b6044820152606401620001ac565b600160108360405162000338919062000544565b90815260408051602092819003830181206001600160a01b038616600090815293529120805460ff191692151592909217909155600190600d906200037f90859062000544565b90815260405160209181900382018120805460ff19169315159390931790925560008051602062004b2683398151915291620003c091859185910162000590565b60408051601f1981840301815290829052620003de913390620005bc565b60405180910390a15050565b6001805460ff16151514620004275760405162461bcd60e51b8152602060048201526002602482015261115360f21b6044820152606401620001ac565b806011846040516200043a919062000544565b90815260408051602092819003830190206001600160a01b038616600090815292529020805460ff191660018360028111156200047b576200047b62000601565b021790555060008051602062004b26833981519152838383604051602001620004a79392919062000617565b60408051601f1981840301815290829052620004c59133906200066a565b60405180910390a1505050565b6000600d82604051620004e6919062000544565b9081526040519081900360200190205460ff16151560011492915050565b6000602082840312156200051757600080fd5b5051919050565b60005b838110156200053b57818101518382015260200162000521565b50506000910152565b60008251620005588184602087016200051e565b9190910192915050565b600081518084526200057c8160208601602086016200051e565b601f01601f19169290920160200192915050565b604081526000620005a5604083018562000562565b905060018060a01b03831660208301529392505050565b60608152600260608201526131a160f11b608082015260a060208201526000620005ea60a083018562000562565b905060018060a01b03831660408301529392505050565b634e487b7160e01b600052602160045260246000fd5b6060815260006200062c606083018662000562565b6001600160a01b03851660208401529050600383106200065c57634e487b7160e01b600052602160045260246000fd5b826040830152949350505050565b606081526002606082015261073560f41b608082015260a060208201526000620005ea60a083018562000562565b61447e80620006a86000396000f3fe6080604052600436106102815760003560e01c8063868399a51161014f578063bcedb2e0116100c1578063e123182b1161007a578063e123182b14610888578063e1c34c1f1461089b578063e6778fce146108bb578063efae89f8146108e8578063f7aae62114610915578063fd06636b1461093557600080fd5b8063bcedb2e01461077e578063c4802eb2146107e6578063c5438a5514610813578063d1cc997614610833578063db5dc9b714610848578063de9d68051461086857600080fd5b8063a1916aef11610113578063a1916aef146106c9578063a80aed76146106e9578063a902780f14610709578063a907b6c51461071e578063b2cb78ab1461073e578063b4af7d591461075e57600080fd5b8063868399a5146106095780638786df6a146106295780639211b7b31461064957806397235a1e146106795780639995b9a91461069957600080fd5b80632f2e9a2a116101f35780634c46360b116101ac5780634c46360b146104ee5780635beeff331461051e57806362748dcc1461054b57806363879c0b146105995780637b785493146105b9578063859d9fd5146105e957600080fd5b80632f2e9a2a14610418578063350546d814610438578063354cd13514610458578063384fe2b5146104785780633baf28f8146104985780633dbeaa54146104b857600080fd5b80630d3330a1116102455780630d3330a114610358578063169936b4146103785780632365664214610398578063258e4d9f146103b85780632dec7cd2146103d85780632ef37926146103f857600080fd5b806302fb0c5e14610299578063036f3aec146102c857806305c558f5146102e8578063066792d2146102fd5780630bea89851461033857600080fd5b366102945761029260003433610955565b005b600080fd5b3480156102a557600080fd5b506001546102b39060ff1681565b60405190151581526020015b60405180910390f35b3480156102d457600080fd5b506102926102e3366004613b0e565b610aa3565b3480156102f457600080fd5b50610292610b43565b34801561030957600080fd5b5061032a610318366004613b5c565b60026020526000908152604090205481565b6040519081526020016102bf565b34801561034457600080fd5b50610292610353366004613b5c565b610b7c565b34801561036457600080fd5b50610292610373366004613b8c565b610c39565b34801561038457600080fd5b506102b3610393366004613ba7565b610d0e565b3480156103a457600080fd5b506102926103b3366004613b5c565b610d6c565b3480156103c457600080fd5b506102b36103d3366004613be4565b610da7565b3480156103e457600080fd5b5061032a6103f3366004613be4565b610e3a565b34801561040457600080fd5b50610292610413366004613be4565b610e7b565b34801561042457600080fd5b50610292610433366004613be4565b610ed9565b34801561044457600080fd5b50610292610453366004613b8c565b610f2b565b34801561046457600080fd5b50610292610473366004613c29565b6110d9565b34801561048457600080fd5b50610292610493366004613ba7565b61130b565b3480156104a457600080fd5b506102926104b3366004613c4b565b611356565b3480156104c457600080fd5b5061032a6104d3366004613b8c565b6001600160a01b03166000908152600b602052604090205490565b3480156104fa57600080fd5b5061032a610509366004613b5c565b60009081526014602052604090206001015490565b34801561052a57600080fd5b5061032a610539366004613b8c565b60096020526000908152604090205481565b34801561055757600080fd5b50610581610566366004613b5c565b6000908152601460205260409020546001600160a01b031690565b6040516001600160a01b0390911681526020016102bf565b3480156105a557600080fd5b506102926105b4366004613c91565b611397565b3480156105c557600080fd5b5061032a6105d4366004613b5c565b60009081526006602052604090206002015490565b3480156105f557600080fd5b50610292610604366004613b8c565b6113e4565b34801561061557600080fd5b506102b3610624366004613b8c565b611442565b34801561063557600080fd5b50610292610644366004613b8c565b611477565b34801561065557600080fd5b506102b3610664366004613b5c565b60009081526013602052604090205460ff1690565b34801561068557600080fd5b50610292610694366004613ce8565b6114d5565b3480156106a557600080fd5b506102b36106b4366004613b5c565b60008054918152600760205260409020541190565b3480156106d557600080fd5b506102926106e4366004613d12565b6114df565b3480156106f557600080fd5b506102b3610704366004613be4565b6114ff565b34801561071557600080fd5b5060005461032a565b34801561072a57600080fd5b50610292610739366004613be4565b61156a565b34801561074a57600080fd5b50610292610759366004613d8e565b6115b6565b34801561076a57600080fd5b506102b3610779366004613ba7565b611632565b34801561078a57600080fd5b506107c3610799366004613b5c565b60036020526000908152604090208054600182015460029092015490916001600160a01b03169083565b604080519384526001600160a01b039092166020840152908201526060016102bf565b3480156107f257600080fd5b5061032a610801366004613b8c565b60046020526000908152604090205481565b34801561081f57600080fd5b5061029261082e366004613dc3565b611662565b34801561083f57600080fd5b506102b361170f565b34801561085457600080fd5b506102b3610863366004613be4565b611739565b34801561087457600080fd5b50610292610883366004613e18565b6117cd565b610292610896366004613c29565b6117ed565b3480156108a757600080fd5b506102b36108b6366004613b8c565b611dd3565b3480156108c757600080fd5b5061032a6108d6366004613b5c565b60009081526015602052604090205490565b3480156108f457600080fd5b5061032a610903366004613b5c565b60009081526007602052604090205490565b34801561092157600080fd5b50610292610930366004613e60565b611e05565b34801561094157600080fd5b506102b3610950366004613c29565b611e83565b610960838383611eb4565b6040516336b0b4b760e11b8152600f9060040190815260408051602092819003830190206001600160a01b038616600090815292529020541580156109ad57506001600160a01b03831615155b156109f0576001600e6040516109cd906336b0b4b760e11b815260040190565b908152602001604051809103902060008282546109ea9190613ec6565b90915550505b81600f604051610a0a906336b0b4b760e11b815260040190565b90815260200160405180910390206000856001600160a01b03166001600160a01b031681526020019081526020016000206000828254610a4a9190613ec6565b9091555050604080516001600160a01b038086168252602082018590528316918101919091527fde49bbe8e448cdfa40e6fa0d22592be9a03b28ba746527635dbe5235416659cf906060015b60405180910390a1505050565b81610aae8133610da7565b610ab757600080fd5b816002811115610ac957610ac9613ed9565b601284604051610ad99190613f13565b9081526040519081900360200190205460ff166002811115610afd57610afd613ed9565b03610b345760405162461bcd60e51b8152602060048201526002602482015261415360f01b60448201526064015b60405180910390fd5b610b3e8383611f09565b505050565b604051806040016040528060028152602001616c4560f01b815250610b688133611739565b610b7157600080fd5b610b79611fb8565b50565b60008181526003602052604090206001015481906001600160a01b03163314610bb75760405162461bcd60e51b8152600401610b2b90613f2f565b81610bd18160008054918152600760205260409020541190565b610bed5760405162461bcd60e51b8152600401610b2b90613f4b565b60008381526005602052604090205460ff16610c305760405162461bcd60e51b81526020600482015260026024820152614e5360f01b6044820152606401610b2b565b610b3e8361200a565b610c4161170f565b610c725760405162461bcd60e51b81526020600482015260026024820152610ae960f31b6044820152606401610b2b565b6001600160a01b0381166000908152600b6020526040902054610cbb5760405162461bcd60e51b81526020600482015260016024820152604560f81b6044820152606401610b2b565b6001600160a01b0381166000908152600b6020526040902054610cf49082907349a71890aea5a751e30e740c504f2e9683f347bc612059565b6001600160a01b03166000908152600b6020526040812055565b6000600e82604051610d209190613f13565b9081526020016040518091039020546000148015610d665750600f82604051610d499190613f13565b908152604080516020928190038301902060008080529252902054155b92915050565b604051806040016040528060028152602001611b5160f21b815250610d918133611739565b610d9a57600080fd5b610da3826122fe565b5050565b60006002601184604051610dbb9190613f13565b90815260408051602092819003830190206001600160a01b0386166000908152925290205460ff166002811115610df457610df4613ed9565b1480610e3357506002601284604051610e0d9190613f13565b9081526040519081900360200190205460ff166002811115610e3157610e31613ed9565b145b9392505050565b6000600f83604051610e4c9190613f13565b908152604080519182900360209081019092206001600160a01b03851660009081529252902054905092915050565b6040518060400160405280600281526020016136a160f11b815250610ea08133611739565b610ea957600080fd5b6001805460ff16151514610ecf5760405162461bcd60e51b8152600401610b2b90613f67565b610b3e83836123e9565b6040518060400160405280600281526020016136a160f11b815250610efe8133610da7565b610f0757600080fd5b82610f1281336114ff565b610f1b57600080fd5b610f2584846124fb565b50505050565b610f3433611dd3565b610f655760405162461bcd60e51b81526020600482015260026024820152610aa960f31b6044820152606401610b2b565b60015460ff1615610f9d5760405162461bcd60e51b8152602060048201526002602482015261534160f01b6044820152606401610b2b565b336000908152600460209081526040808320546001600160a01b0385168452600c83528184208185529092529091205460ff16156110025760405162461bcd60e51b8152602060048201526002602482015261414360f01b6044820152606401610b2b565b6001600160a01b0382166000818152600c602090815260408083208584528252808320805460ff1916600117905582548352600282528083205485845260038352818420549484526009909252822054919290916110609190613f83565b61106a9190613f9a565b9050806000036110a05760405162461bcd60e51b81526020600482015260016024820152604560f81b6044820152606401610b2b565b6001600160a01b0383166000908152600b6020526040812080548392906110c8908490613fbc565b90915550610b3e9050838233612059565b60008281526003602052604090206001015482906001600160a01b031633146111145760405162461bcd60e51b8152600401610b2b90613f2f565b600082815260136020526040902054829060ff1661113157600080fd5b6001805460ff161515146111575760405162461bcd60e51b8152600401610b2b90613f67565b6111618484611e83565b6111935760405162461bcd60e51b81526020600482015260036024820152622720a360e91b6044820152606401610b2b565b600083815260166020908152604080832087845290915290205460ff16156111e25760405162461bcd60e51b8152602060048201526002602482015261414360f01b6044820152606401610b2b565b60008381526016602090815260408083208784528252808320805460ff19166001908117909155835484526002835281842054888552600384528285205488865260149094529184200154909161123891613f83565b6112429190613f9a565b90508060000361127a5760405162461bcd60e51b815260206004820152600360248201526244545360e81b6044820152606401610b2b565b60008481526015602052604081208054839290611298908490613fbc565b90915550506000848152601460205260409020546112c0906001600160a01b03168233612059565b604080518581526020810183905233918101919091527f67dd3d116bf53e0ddda53bb148a5fdc129854e1c507c0eeda9190049a9bbc84f906060015b60405180910390a15050505050565b6040518060400160405280600281526020016136a160f11b8152506113308133610da7565b61133957600080fd5b8161134481336114ff565b61134d57600080fd5b610b3e836125b7565b60405180604001604052806002815260200161695360f01b81525061137b8133611739565b61138457600080fd5b6113908585858561273c565b5050505050565b604051806040016040528060028152602001611b5160f21b8152506113bc8133611739565b6113c557600080fd5b836113d081336114ff565b6113d957600080fd5b6113908585856127bb565b604051806040016040528060038152602001621b505560ea1b81525061140a8133611739565b61141357600080fd5b6001805460ff161515146114395760405162461bcd60e51b8152600401610b2b90613f67565b610da3826129c5565b6001600160a01b03811660009081526008602052604081205460ff16151560011480610d665750506001600160a01b03161590565b604051806040016040528060038152602001621b505560ea1b81525061149d8133611739565b6114a657600080fd5b6001805460ff161515146114cc5760405162461bcd60e51b8152600401610b2b90613f67565b610da382612a0e565b610da38282612a57565b836114ea81336114ff565b6114f357600080fd5b61139085858585612bbf565b60006010836040516115119190613f13565b908152604080519182900360209081019092206001600160a01b0385166000908152925290205460ff16151560011480610e335750610e336040518060400160405280600281526020016136a160f11b81525083610da7565b6040518060400160405280600281526020016136a160f11b81525061158f8133611739565b61159857600080fd5b826115a381336114ff565b6115ac57600080fd5b610f258484612e53565b60008381526003602052604090206001015483906001600160a01b031633146115f15760405162461bcd60e51b8152600401610b2b90613f2f565b8361160b8160008054918152600760205260409020541190565b6116275760405162461bcd60e51b8152600401610b2b90613f4b565b611390858585612f51565b6000600d826040516116449190613f13565b9081526040519081900360200190205460ff16151560011492915050565b8261166d8133610da7565b61167657600080fd5b81600281111561168857611688613ed9565b6011856040516116989190613f13565b90815260408051602092819003830190206001600160a01b0387166000908152925290205460ff1660028111156116d1576116d1613ed9565b036117045760405162461bcd60e51b815260206004820152600360248201526204148560ec1b6044820152606401610b2b565b610f25848484613175565b60015460009060ff16158015611734575061012c600a54426117319190613fbc565b10155b905090565b6000600160118460405161174d9190613f13565b90815260408051602092819003830190206001600160a01b0386166000908152925290205460ff16600281111561178657611786613ed9565b101580610e33575060016012846040516117a09190613f13565b9081526040519081900360200190205460ff1660028111156117c4576117c4613ed9565b10159392505050565b836117d881336114ff565b6117e157600080fd5b6113908585858561322f565b816118078160008054918152600760205260409020541190565b6118235760405162461bcd60e51b8152600401610b2b90613f4b565b60008381526005602052604090205460ff166118665760405162461bcd60e51b81526020600482015260026024820152614e5360f01b6044820152606401610b2b565b8160000361189b5760405162461bcd60e51b8152602060048201526002602482015261455360f01b6044820152606401610b2b565b6000838152600660205260409020548211156118de5760405162461bcd60e51b8152602060048201526002602482015261455360f01b6044820152606401610b2b565b6000838152600660205260409020600301546001600160a01b031633148061191e57506000838152600660205260409020600301546001600160a01b0316155b61194f5760405162461bcd60e51b815260206004820152600260248201526129a960f11b6044820152606401610b2b565b6119588361200a565b6000838152600660205260408120600201546119749084613f83565b905060008060006119898460196103e86133d1565b9194509250905061199a8183613ec6565b6000888152600660205260409020600101549092506001600160a01b0316611af957833410156119f15760405162461bcd60e51b8152602060048201526002602482015261494560f01b6044820152606401610b2b565b6040516000907349a71890aea5a751e30e740c504f2e9683f347bc9085908381818185875af1925050503d8060008114611a47576040519150601f19603f3d011682016040523d82523d6000602084013e611a4c565b606091505b505060008981526003602052604080822060010154905192935090916001600160a01b039091169085908381818185875af1925050503d8060008114611aae576040519150601f19603f3d011682016040523d82523d6000602084013e611ab3565b606091505b50509050808015611ac15750815b611af25760405162461bcd60e51b81526020600482015260026024820152612a2360f11b6044820152606401610b2b565b5050611c7f565b60008781526006602052604090819020600101549051636eb1769f60e11b81523360048201523060248201526001600160a01b03909116908590829063dd62ed3e90604401602060405180830381865afa158015611b5b573d6000803e3d6000fd5b505050506040513d601f19601f82011682018060405250810190611b7f9190613fcf565b1015611b9d5760405162461bcd60e51b8152600401610b2b90613fe8565b6040516323b872dd60e01b81523360048201527349a71890aea5a751e30e740c504f2e9683f347bc6024820152604481018590526001600160a01b038216906323b872dd906064016020604051808303816000875af1158015611c04573d6000803e3d6000fd5b505050506040513d601f19601f82011682018060405250810190611c289190614004565b611c445760405162461bcd60e51b8152600401610b2b90614026565b60008881526003602090815260408083206001908101546006909352922090910154611c7d916001600160a01b03908116911685613445565b505b611c8a878733612f51565b600087815260036020526040902060010154306001600160a01b0390911603611cd2576000805481526002602052604081208054889290611ccc908490613ec6565b90915550505b600087815260066020908152604091829020600181015460029091015483518b81529283018a905233838501526001600160a01b039091166060830152608082015290517f443732a78c29282934211eae7aa500dd12db85d4dd795dbcda5f94ee19a67e4f9181900360a00190a16000878152600660205260409020548614611dca576000878152600360209081526040808320600101546001600160a01b0316835260048252808320548a8452600690925290912054611dca9190611d99908990613fbc565b60008a8152600660205260409020600181015460028201546003909201546001600160a01b039182169291166134f4565b50505050505050565b6001600160a01b038116600090815260046020526040812054610d669060008054918152600760205260409020541190565b60008581526003602052604090206001015485906001600160a01b03163314611e405760405162461bcd60e51b8152600401610b2b90613f2f565b85611e5a8160008054918152600760205260409020541190565b611e765760405162461bcd60e51b8152600401610b2b90613f4b565b611dca87878787876134f4565b6000828152600360205260408120600201548210801590610e33575050600091825260076020526040909120541190565b6001600160a01b03831660009081526009602052604081208054849290611edc908490613ec6565b90915550506001600160a01b0383166000908152600b602052604081208054849290610a4a908490613ec6565b6001805460ff16151514611f2f5760405162461bcd60e51b8152600401610b2b90613f67565b80601283604051611f409190613f13565b908152604051908190036020019020805460ff19166001836002811115611f6957611f69613ed9565b02179055506000805160206144298339815191528282604051602001611f90929190614090565b60408051601f1981840301815290829052611fac9133906140b2565b60405180910390a15050565b611fc06136a7565b604080516060808252600290820152616c4560f01b608082015260a060208201819052600090820152338183015290516000805160206144298339815191529181900360c00190a1565b806120248160008054918152600760205260409020541190565b6120405760405162461bcd60e51b8152600401610b2b90613f4b565b506000908152600560205260409020805460ff19169055565b6001600160a01b0383166000908152600960205260409020548211156120915760405162461bcd60e51b8152600401610b2b90613fe8565b6001600160a01b0383166120ae576120a982826136dd565b6122e9565b60405163095ea7b360e01b81526001600160a01b0382811660048301526024820184905284919082169063095ea7b3906044016020604051808303816000875af1158015612100573d6000803e3d6000fd5b505050506040513d601f19601f820116820180604052508101906121249190614004565b6121555760405162461bcd60e51b81526020600482015260026024820152614e4160f01b6044820152606401610b2b565b6001600160a01b0382163b1561225857604051634b91ad0f60e11b81526001600160a01b038581166004830152602482018590528316906397235a1e90604401600060405180830381600087803b1580156121af57600080fd5b505af19250505080156121c0575060015b6122535760405163a9059cbb60e01b81526001600160a01b0383811660048301526024820185905282169063a9059cbb906044016020604051808303816000875af1158015612213573d6000803e3d6000fd5b505050506040513d601f19601f820116820180604052508101906122379190614004565b6122535760405162461bcd60e51b8152600401610b2b90614026565b6122e7565b60405163a9059cbb60e01b81526001600160a01b0383811660048301526024820185905282169063a9059cbb906044016020604051808303816000875af11580156122a7573d6000803e3d6000fd5b505050506040513d601f19601f820116820180604052508101906122cb9190614004565b6122e75760405162461bcd60e51b8152600401610b2b90614026565b505b60015460ff1615610b3e57610b3e8383613765565b600081815260136020526040902054819060ff1661231b57600080fd5b6001805460ff161515146123415760405162461bcd60e51b8152600401610b2b90613f67565b6000828152601360209081526040808320805460ff19169055601582528083205481516336b0b4b760e11b8152600f6004820152825190819003602401902086855260148452828520546001600160a01b0316855290925282208054919290916123ac908490613ec6565b90915550506040805160208101849052600080516020614429833981519152910160408051601f1981840301815290829052611fac9133906140f5565b6001805460ff1615151461240f5760405162461bcd60e51b8152600401610b2b90613f67565b61241882611632565b1561244a5760405162461bcd60e51b8152602060048201526002602482015261414560f01b6044820152606401610b2b565b600160108360405161245c9190613f13565b90815260408051602092819003830181206001600160a01b038616600090815293529120805460ff191692151592909217909155600190600d906124a1908590613f13565b90815260405160209181900382018120805460ff191693151593909317909255600080516020614429833981519152916124df918591859101614121565b60408051601f1981840301815290829052611fac91339061414b565b6001805460ff161515146125215760405162461bcd60e51b8152600401610b2b90613f67565b61252b82826114ff565b61253457600080fd5b60006010836040516125469190613f13565b90815260408051602092819003830181206001600160a01b038616600090815290845291909120805460ff1916931515939093179092556000805160206144298339815191529161259b918591859101614121565b60408051601f1981840301815290829052611fac913390614177565b6001805460ff161515146125dd5760405162461bcd60e51b8152600401610b2b90613f67565b6125e681611632565b6126185760405162461bcd60e51b815260206004820152600360248201526255422160e81b6044820152606401610b2b565b60408051808201909152600481526336b0b4b760e11b6020918201528151908201207f471dfab0756edc981c75dd3188ccd700755407f7d3bedf452610f7a1e240d6590161268d5760405162461bcd60e51b815260206004820152600260248201526126a160f11b6044820152606401610b2b565b61269681610d0e565b6126c75760405162461bcd60e51b8152602060048201526002602482015261424560f01b6044820152606401610b2b565b6000600d826040516126d99190613f13565b90815260405160209181900382018120805460ff19169315159390931790925560008051602061442983398151915291612715918491016141a3565b60408051601f19818403018152908290526127319133906141b6565b60405180910390a150565b61274583611442565b61274e57600080fd5b30600090815260046020526040812054905461276a91906137c3565b306000908152600460209081526040808320548352600390915290205461279e906127959086613ec6565b3060005461382e565b30600090815260046020526040902054610f2590858585856134f4565b6001805460ff161515146127e15760405162461bcd60e51b8152600401610b2b90613f67565b600054604051600f906127f5908690613f13565b90815260408051602092819003830190206001600160a01b038616600090815292529020548211156128395760405162461bcd60e51b8152600401610b2b906141e2565b81600f8560405161284a9190613f13565b90815260200160405180910390206000856001600160a01b03166001600160a01b03168152602001908152602001600020600082825461288a9190613fbc565b9091555050604051600f906128a0908690613f13565b90815260408051602092819003830190206001600160a01b038616600090815292529020541580156128da57506001600160a01b03831615155b15612914576001600e856040516128f19190613f13565b9081526020016040518091039020600082825461290e9190613fbc565b90915550505b6040805180820182526001600160a01b0385811682526020808301868152600086815260148352858120945185546001600160a01b031916941693909317845551600193840155601581528382208690556013815290839020805460ff191690921790915590516000805160206144298339815191529161299b91879187918791016141fe565b60408051601f19818403018152908290526129b791339061422c565b60405180910390a150505050565b6129ce81613952565b604080516001600160a01b0383166020820152600080516020614429833981519152910160408051601f1981840301815290829052612731913390614258565b612a17816139f8565b604080516001600160a01b0383166020820152600080516020614429833981519152910160408051601f1981840301815290829052612731913390614284565b612a6082611442565b612a915760405162461bcd60e51b8152602060048201526002602482015261155560f21b6044820152606401610b2b565b604051636eb1769f60e11b8152336004820152306024820152829082906001600160a01b0383169063dd62ed3e90604401602060405180830381865afa158015612adf573d6000803e3d6000fd5b505050506040513d601f19601f82011682018060405250810190612b039190613fcf565b1015612b215760405162461bcd60e51b8152600401610b2b90613fe8565b6040516323b872dd60e01b8152336004820152306024820152604481018390526001600160a01b038216906323b872dd906064016020604051808303816000875af1158015612b74573d6000803e3d6000fd5b505050506040513d601f19601f82011682018060405250810190612b989190614004565b612bb45760405162461bcd60e51b8152600401610b2b90614026565b610b3e838333610955565b82612bc981611632565b612bfb5760405162461bcd60e51b8152602060048201526003602482015262444e4560e81b6044820152606401610b2b565b6001805460ff16151514612c215760405162461bcd60e51b8152600401610b2b90613f67565b600f85604051612c319190613f13565b90815260408051602092819003830190206001600160a01b03861660009081529252902054821115612c755760405162461bcd60e51b8152600401610b2b906141e2565b81600f86604051612c869190613f13565b90815260200160405180910390206000856001600160a01b03166001600160a01b031681526020019081526020016000206000828254612cc69190613fbc565b90915550506001600160a01b03831615612dba57600f85604051612cea9190613f13565b90815260408051602092819003830190206001600160a01b038616600090815292528120549003612d4a576001600e86604051612d279190613f13565b90815260200160405180910390206000828254612d449190613fbc565b90915550505b600f84604051612d5a9190613f13565b90815260408051602092819003830190206001600160a01b038616600090815292528120549003612dba576001600e85604051612d979190613f13565b90815260200160405180910390206000828254612db49190613ec6565b90915550505b81600f85604051612dcb9190613f13565b90815260200160405180910390206000856001600160a01b03166001600160a01b031681526020019081526020016000206000828254612e0b9190613ec6565b909155505060405160008051602061442983398151915290612e379087908790879087906020016142b0565b60408051601f19818403018152908290526112fc9133906142f2565b6001805460ff16151514612e795760405162461bcd60e51b8152600401610b2b90613f67565b612e9d6040518060400160405280600281526020016136a160f11b81525082611739565b612ece5760405162461bcd60e51b815260206004820152600260248201526104e560f41b6044820152606401610b2b565b6001601083604051612ee09190613f13565b90815260408051602092819003830181206001600160a01b038616600090815290845291909120805460ff19169315159390931790925560008051602061442983398151915291612f35918591859101614121565b60408051601f1981840301815290829052611fac91339061431e565b82612f6b8160008054918152600760205260409020541190565b612f875760405162461bcd60e51b8152600401610b2b90613f4b565b6001805460ff16151514612fad5760405162461bcd60e51b8152600401610b2b90613f67565b600084815260036020526040902054831115612ff05760405162461bcd60e51b8152602060048201526002602482015261494160f01b6044820152606401610b2b565b612ff982611dd3565b15613068576001600160a01b0382166000908152600460209081526040808320548352600390915281205461302e9085613ec6565b905061303d818460005461382e565b6001600160a01b038316600090815260046020526040812054905461306291906137c3565b50613075565b613075838360005461382e565b613081846000546137c3565b60008481526003602052604081205461309b908590613fbc565b905080156130ce5760008581526003602052604081206001015490546130ce9183916001600160a01b039091169061382e565b60408051868152602081018690526001600160a01b03851681830152600060608201819052608082015290517f443732a78c29282934211eae7aa500dd12db85d4dd795dbcda5f94ee19a67e4f9181900360a00190a15060008054808252600260208190526040832054929091613146906001613ec6565b81526020019081526020016000208190555060008081548092919061316a9061434a565b919050555050505050565b6001805460ff1615151461319b5760405162461bcd60e51b8152600401610b2b90613f67565b806011846040516131ac9190613f13565b90815260408051602092819003830190206001600160a01b038616600090815292529020805460ff191660018360028111156131ea576131ea613ed9565b021790555060008051602061442983398151915283838360405160200161321393929190614363565b60408051601f1981840301815290829052610a96913390614394565b6001805460ff161515146132555760405162461bcd60e51b8152600401610b2b90613f67565b600f846040516132659190613f13565b90815260408051602092819003830190206001600160a01b038616600090815292529020548211156132a95760405162461bcd60e51b8152600401610b2b906141e2565b6132b4838383612059565b81600f856040516132c59190613f13565b90815260200160405180910390206000856001600160a01b03166001600160a01b0316815260200190815260200160002060008282546133059190613fbc565b9091555050604051600f9061331b908690613f13565b90815260408051602092819003830190206001600160a01b0386166000908152925290205415801561335557506001600160a01b03831615155b1561338f576001600e8560405161336c9190613f13565b908152602001604051809103902060008282546133899190613fbc565b90915550505b600080516020614429833981519152848484846040516020016133b594939291906143c0565b60408051601f19818403018152908290526129b79133906143fc565b60008060008484116133e257600080fd5b6000846133ef8789613f83565b6133f99190613f9a565b90506000856134088882613fbc565b613412908a613f83565b61341c9190613f9a565b9050818161342a8183613ec6565b613434908b613fbc565b945094509450505093509350939050565b306001600160a01b0384160361345f57610b3e8282612a57565b6040516323b872dd60e01b81523360048201523060248201526044810182905282906001600160a01b038216906323b872dd906064016020604051808303816000875af11580156134b4573d6000803e3d6000fd5b505050506040513d601f19601f820116820180604052508101906134d89190614004565b610f255760405162461bcd60e51b8152600401610b2b90614026565b8461350e8160008054918152600760205260409020541190565b61352a5760405162461bcd60e51b8152600401610b2b90613f4b565b6001805460ff161515146135505760405162461bcd60e51b8152600401610b2b90613f67565b60008681526005602052604090205460ff161561356c57600080fd5b6000868152600360205260409020548511156135af5760405162461bcd60e51b8152602060048201526002602482015261494160f01b6044820152606401610b2b565b604080516080810182528681526001600160a01b0380871660208084019182528385018881528784166060860190815260008d815260068452878120965187559351600180880180549288166001600160a01b031993841617905592516002880155905160039096018054969095169516949094179092556005909152829020805460ff19169091179055517f4126de2c73b6b69d46d3290ee98241c5c18ce39a61b29e4e91f877a6d56bb21390613697908890889088908890889094855260208501939093526001600160a01b039182166040850152606084015216608082015260a00190565b60405180910390a1505050505050565b6001805460ff161515146136cd5760405162461bcd60e51b8152600401610b2b90613f67565b6001805460ff1916905542600a55565b6000816001600160a01b03168360405160006040518083038185875af1925050503d806000811461372a576040519150601f19603f3d011682016040523d82523d6000602084013e61372f565b606091505b5050905080610b3e5760405162461bcd60e51b81526020600482015260026024820152612a2360f11b6044820152606401610b2b565b6001600160a01b0382166000908152600960205260408120805483929061378d908490613fbc565b90915550506001600160a01b0382166000908152600b6020526040812080548392906137ba908490613fbc565b90915550505050565b6000828152600360209081526040808320600101546001600160a01b0316835260048252808320839055848352600782529182902083905581518481529081018390527fa3deafde27c3ffde83f038b337d8b0405d225455ae09fbed6a211ef4ee465f4f9101611fac565b600083116138635760405162461bcd60e51b815260206004820152600260248201526129ad60f11b6044820152606401610b2b565b6040516bffffffffffffffffffffffff19606084901b1660208201526034810182905260009060540160408051808303601f1901815282825280516020918201206001600160a01b03878116600081815260048552858120849055838152600785528581206000199055606080880187528b88528588018381528888018b8152868452600388529288902098518955516001890180546001600160a01b0319169190951617909355516002909601959095558351828152928301949094529181018590529092507f90e88e994885f1cdd31d3393f0b012e817804fc9d2adef69d0d7e5053d1e29ad91016129b7565b61395b81611442565b61398c5760405162461bcd60e51b8152602060048201526002602482015261155560f21b6044820152606401610b2b565b6001600160a01b038116600090815260096020526040902054156139d75760405162461bcd60e51b8152602060048201526002602482015261272d60f11b6044820152606401610b2b565b6001600160a01b03166000908152600860205260409020805460ff19169055565b613a0181611442565b15613a335760405162461bcd60e51b815260206004820152600260248201526120a960f11b6044820152606401610b2b565b6001600160a01b03166000908152600860205260409020805460ff19166001179055565b634e487b7160e01b600052604160045260246000fd5b600082601f830112613a7e57600080fd5b813567ffffffffffffffff80821115613a9957613a99613a57565b604051601f8301601f19908116603f01168101908282118183101715613ac157613ac1613a57565b81604052838152866020858801011115613ada57600080fd5b836020870160208301376000602085830101528094505050505092915050565b803560038110613b0957600080fd5b919050565b60008060408385031215613b2157600080fd5b823567ffffffffffffffff811115613b3857600080fd5b613b4485828601613a6d565b925050613b5360208401613afa565b90509250929050565b600060208284031215613b6e57600080fd5b5035919050565b80356001600160a01b0381168114613b0957600080fd5b600060208284031215613b9e57600080fd5b610e3382613b75565b600060208284031215613bb957600080fd5b813567ffffffffffffffff811115613bd057600080fd5b613bdc84828501613a6d565b949350505050565b60008060408385031215613bf757600080fd5b823567ffffffffffffffff811115613c0e57600080fd5b613c1a85828601613a6d565b925050613b5360208401613b75565b60008060408385031215613c3c57600080fd5b50508035926020909101359150565b60008060008060808587031215613c6157600080fd5b84359350613c7160208601613b75565b925060408501359150613c8660608601613b75565b905092959194509250565b600080600060608486031215613ca657600080fd5b833567ffffffffffffffff811115613cbd57600080fd5b613cc986828701613a6d565b935050613cd860208501613b75565b9150604084013590509250925092565b60008060408385031215613cfb57600080fd5b613d0483613b75565b946020939093013593505050565b60008060008060808587031215613d2857600080fd5b843567ffffffffffffffff80821115613d4057600080fd5b613d4c88838901613a6d565b95506020870135915080821115613d6257600080fd5b50613d6f87828801613a6d565b935050613d7e60408601613b75565b9396929550929360600135925050565b600080600060608486031215613da357600080fd5b8335925060208401359150613dba60408501613b75565b90509250925092565b600080600060608486031215613dd857600080fd5b833567ffffffffffffffff811115613def57600080fd5b613dfb86828701613a6d565b935050613e0a60208501613b75565b9150613dba60408501613afa565b60008060008060808587031215613e2e57600080fd5b843567ffffffffffffffff811115613e4557600080fd5b613e5187828801613a6d565b945050613c7160208601613b75565b600080600080600060a08688031215613e7857600080fd5b8535945060208601359350613e8f60408701613b75565b925060608601359150613ea460808701613b75565b90509295509295909350565b634e487b7160e01b600052601160045260246000fd5b80820180821115610d6657610d66613eb0565b634e487b7160e01b600052602160045260246000fd5b60005b83811015613f0a578181015183820152602001613ef2565b50506000910152565b60008251613f25818460208701613eef565b9190910192915050565b60208082526002908201526109e960f31b604082015260600190565b602080825260029082015261555360f01b604082015260600190565b602080825260029082015261115360f21b604082015260600190565b8082028115828204841417610d6657610d66613eb0565b600082613fb757634e487b7160e01b600052601260045260246000fd5b500490565b81810381811115610d6657610d66613eb0565b600060208284031215613fe157600080fd5b5051919050565b602080825260029082015261125560f21b604082015260600190565b60006020828403121561401657600080fd5b81518015158114610e3357600080fd5b602080825260029082015261139560f21b604082015260600190565b6000815180845261405a816020860160208601613eef565b601f01601f19169290920160200192915050565b6003811061408c57634e487b7160e01b600052602160045260246000fd5b9052565b6040815260006140a36040830185614042565b9050610e33602083018461406e565b60608152600260608201526139a160f11b608082015260a0602082015260006140de60a0830185614042565b905060018060a01b03831660408301529392505050565b606081526002606082015261191160f21b608082015260a0602082015260006140de60a0830185614042565b6040815260006141346040830185614042565b905060018060a01b03831660208301529392505050565b60608152600260608201526131a160f11b608082015260a0602082015260006140de60a0830185614042565b606081526002606082015261724160f01b608082015260a0602082015260006140de60a0830185614042565b602081526000610e336020830184614042565b606081526002606082015261322160f11b608082015260a0602082015260006140de60a0830185614042565b60208082526002908201526124a360f11b604082015260600190565b6060815260006142116060830186614042565b6001600160a01b039490941660208301525060400152919050565b6060815260026060820152611a5160f21b608082015260a0602082015260006140de60a0830185614042565b6060815260026060820152611d5560f21b608082015260a0602082015260006140de60a0830185614042565b6060815260026060820152611c9560f21b608082015260a0602082015260006140de60a0830185614042565b6080815260006142c36080830187614042565b82810360208401526142d58187614042565b6001600160a01b0395909516604084015250506060015292915050565b6060815260026060820152611b5560f21b608082015260a0602082015260006140de60a0830185614042565b606081526002606082015261614160f01b608082015260a0602082015260006140de60a0830185614042565b60006001820161435c5761435c613eb0565b5060010190565b6060815260006143766060830186614042565b6001600160a01b03851660208401529050613bdc604083018461406e565b606081526002606082015261073560f41b608082015260a0602082015260006140de60a0830185614042565b6080815260006143d36080830187614042565b6001600160a01b0395861660208401526040830194909452509216606090920191909152919050565b6060815260026060820152611d1560f21b608082015260a0602082015260006140de60a083018561404256fe43cd76b5eb40da9ea5eb31a199f443f7cf7955ec280bc5981a2e3445c79c9055a264697066735822122059b773f6575b58adbaa00e5067f3801a310d199834933697e3dc880b53f4e6e264736f6c6343000813003343cd76b5eb40da9ea5eb31a199f443f7cf7955ec280bc5981a2e3445c79c9055",
  "bytecodeSha1": "da39a3ee5e6b4b0d3255bfef95601890afd80709",
  "compiler": {
    "evm_version": "istanbul",
    "optimizer": {
      "enabled": true,
      "runs": 200
    },
    "version": "0.8.19+commit.7dd6d404"
  },
  "contractName": "Administrable",
  "language": "Solidity",
  "natspec": {
    "author": "Frederik W. L. Christoffersen",
    "kind": "dev",
    "methods": {
      "acceptsToken(address)": {
        "notice": "Returns a boolean value, stating if the given token address is registered as acceptable or not.",
        "params": {
          "tokenAddress": "The address of the token to be checked for."
        }
      },
      "active()": {
        "notice": "Boolean stating if the Shardable is active and tradeable or not."
      },
      "addBankAdmin(string,address)": {
        "notice": "Adds a new given administrator to a given Bank.",
        "params": {
          "bankAdmin": "The address of the new Bank administrator to be added.",
          "bankName": "The name of the Bank to which the new administrator is to be added."
        }
      },
      "bankExists(string)": {
        "notice": "Returns a boolean stating if a given Bank exists.",
        "params": {
          "bankName": "The name of the Bank to be checked for."
        }
      },
      "bankIsEmpty(string)": {
        "notice": "Returns a boolean stating if a given Bank is empty.",
        "params": {
          "bankName": "The name of the Bank to be checked for."
        }
      },
      "cancelSale(bytes32)": {
        "notice": "Cancels a sell of a given shard.",
        "params": {
          "shard": "The shard to be put off sale."
        }
      },
      "claimDividend(bytes32,uint256)": {
        "notice": "Claims the value of an existing dividend corresponding to the shard holder's respective shard fraction.",
        "params": {
          "dividend": "The dividend to be claimed.",
          "shard": "The shard that was valid at the clock of the Dividend creation"
        }
      },
      "claimLiquid(address)": {
        "notice": "Claims the owed liquid value corresponding to the shard holder's respective shard fraction after the entity has been liquidized/dissolved.",
        "params": {
          "tokenAddress": "The address of the token to be claimed."
        }
      },
      "claimTerminatedLiquid(address)": {
        "notice": "Claims the remaining unclaimed liquid value after termination (100 days passed since liquidization) as the property of Counekt.",
        "params": {
          "tokenAddress": "The address of the token to be claimed."
        }
      },
      "constructor": {
        "notice": "Constructor function connecting the Idea entity and creating a Bank with an administrator."
      },
      "createBank(string,address)": {
        "notice": "Creates a new Bank.",
        "params": {
          "bankAdmin": "The address of the first Bank administrator.",
          "bankName": "The name of the Bank to be created."
        }
      },
      "deleteBank(string)": {
        "notice": "Deletes a given Bank.",
        "params": {
          "bankName": "The name of the Bank to be deleted."
        }
      },
      "dissolveDividend(uint256)": {
        "notice": "Dissolves a Dividend and moves its last contents to the 'main' Bank.",
        "params": {
          "dividend": "The Dividend to be dissolved."
        }
      },
      "dividendExists(uint256)": {
        "notice": "Returns a boolean stating if a given Dividend exists.",
        "params": {
          "dividend": "The Dividend to be checked for."
        }
      },
      "getBankBalance(string,address)": {
        "notice": "Returns the balance of a bank.",
        "params": {
          "bankName": "The name of the Bank.",
          "tokenAddress": "The address of the token balance to check for."
        }
      },
      "getCurrentClock()": {
        "notice": "Returns the clock."
      },
      "getDividendResidual(uint256)": {
        "notice": "Returns the residual value of a dividend.",
        "params": {
          "dividend": "The Dividend to be checked for."
        }
      },
      "getDividendToken(uint256)": {
        "notice": "Returns the token of a dividend.",
        "params": {
          "dividend": "The Dividend to be checked for."
        }
      },
      "getDividendValue(uint256)": {
        "notice": "Returns the total value of a dividend.",
        "params": {
          "dividend": "The Dividend to be checked for."
        }
      },
      "getLiquidResidual(address)": {
        "notice": "Returns the residual of a liquid, after liquidization/inactivation.",
        "params": {
          "tokenAddress": "The address of the token to be checked for."
        }
      },
      "getShardExpirationClock(bytes32)": {
        "notice": "Returns the clock, in which a shard will or has expired."
      },
      "getShardSalePrice(bytes32)": {
        "notice": "Returns the price, at which a shard is for sale."
      },
      "hasPermit(string,address)": {
        "notice": "Returns a boolean stating if a given address has a given permit or not.",
        "params": {
          "account": "The address to be checked for.",
          "permitName": "The name of the permit to be checked for."
        }
      },
      "infoByShard(bytes32)": {
        "notice": "Mapping pointing to related info of a Shard given the bytes of a unique Shard instance."
      },
      "isBankAdmin(string,address)": {
        "notice": "Returns a boolean stating if a given address is an admin of a given bank.",
        "params": {
          "account": "The address to be checked for.",
          "bankName": "The name of the Bank to be checked for."
        }
      },
      "isPermitAdmin(string,address)": {
        "notice": "Returns a boolean stating if a given address is an admin of a given permit or not.",
        "params": {
          "account": "The address to be checked for.",
          "permitName": "The name of the permit to be checked for."
        }
      },
      "isShardHolder(address)": {
        "notice": "Checks if address is a shard holder - at least a partial owner of the contract.",
        "params": {
          "account": "The address to be checked for."
        }
      },
      "isTerminated()": {
        "notice": "Returns a boolean value, stating if the liquidization is terminated (100 days have passed since)."
      },
      "isValidShard(bytes32)": {
        "notice": "Returns a boolean stating if a given shard is currently valid or not.",
        "params": {
          "shard": "The shard, whose validity is to be checked for."
        }
      },
      "issueDividend(string,address,uint256)": {
        "notice": "Creates and issues a Dividend (to all current shareholders) of a token amount from a given Bank.",
        "params": {
          "bankName": "The name of the Bank to issue the Dividend from.",
          "tokenAddress": "The address of the token to make up the Dividend.",
          "value": "The value/amount of the token to be issued in the Dividend."
        }
      },
      "issueShards(uint256,address,uint256,address)": {
        "notice": "Issues new shards and puts them for sale.",
        "params": {
          "price": "The price per token.",
          "to": "The specifically set buyer of the issued shards. Open to anyone, if address(0).",
          "tokenAddress": "The token address the shards are put for sale for."
        }
      },
      "liquid(address)": {
        "notice": "Mapping pointing to a value/amount given the address of an ERC20 token."
      },
      "liquidize()": {
        "notice": "Liquidizes and dissolves the entity. This cannot be undone."
      },
      "moveToken(string,string,address,uint256)": {
        "notice": "Internally moves a token from one Bank to another.",
        "params": {
          "fromBankName": "The name of the Bank from which the token is to be moved.",
          "toBankName": "The name of the Bank to which the token is to be moved.",
          "tokenAddress": "The address of the token to be moved.",
          "value": "The value/amount of the token to be moved."
        }
      },
      "purchase(bytes32,uint256)": {
        "details": "If the purchase is with tokens (ie. tokenAddress != 0x0), first call 'token.approve(Shardable.address, salePrice);'",
        "notice": "Purchases a listed Shard for sale.",
        "params": {
          "shard": "The shard of which a fraction will be purchased."
        }
      },
      "putForSale(bytes32,uint256,address,uint256,address)": {
        "notice": "Puts a given shard for sale.",
        "params": {
          "amount": "Amount of the Shard to be put for sale.",
          "price": "The amount which the Shard is for sale as. The token address being the valuta.",
          "shard": "The shard to be put for sale.",
          "to": "The specifically set buyer of the sale. Open to anyone, if address(0).",
          "tokenAddress": "The address of the token that is accepted when purchasing. A value of 0x0 represents ether."
        }
      },
      "receiveToken(address,uint256)": {
        "notice": "Receives a specified token and adds it to the registry. Make sure 'token.approve()' is called beforehand.",
        "params": {
          "tokenAddress": "The address of the token to be received.",
          "value": "The value/amount of the token to be received."
        }
      },
      "registerTokenAddress(address)": {
        "notice": "Adds a token address to the registry. Also approves any future receipts of said token unless removed again.",
        "params": {
          "tokenAddress": "The token address to be registered."
        }
      },
      "removeBankAdmin(string,address)": {
        "notice": "Removes a given administrator of a given Bank.",
        "params": {
          "bankAdmin": "The address of the current Bank administrator to be removed.",
          "bankName": "The name of the Bank from which the given administrator is to be removed."
        }
      },
      "setBasePermit(string,uint8)": {
        "notice": "Sets the state of a specified base permit.",
        "params": {
          "newState": "The new base Permit State to be applied.",
          "permitName": "The name of the base permit, whose state is to be set."
        }
      },
      "setPermit(string,address,uint8)": {
        "notice": "Sets the state of a specified permit of a given address.",
        "params": {
          "account": "The address, whose permit state is to be set.",
          "newState": "The new Permit State to be applied.",
          "permitName": "The name of the permit, whose state is to be set."
        }
      },
      "shardByOwner(address)": {
        "notice": "Mapping pointing to a currently valid shard given the address of its owner."
      },
      "shardExisted(bytes32,uint256)": {
        "notice": "Returns a boolean stating if the given shard was valid at a given clock.",
        "params": {
          "atClock": "The clock to be checked for.",
          "shard": "The shard, whose validity is to be checked for."
        }
      },
      "split(bytes32,uint256,address)": {
        "notice": "Splits a currently valid shard into two new ones. One is assigned to the receiver. The rest to the previous owner.",
        "params": {
          "amount": "Amount, which will be subtracted from the previous shard and sent to the receiver.",
          "senderShard": "The shard to be split.",
          "to": "The receiver of the new Shard."
        }
      },
      "totalShardAmountByClock(uint256)": {
        "notice": "Mapping pointing to integer value representing the total number of shards issued, provided the clock. Used as the denominator to represent a relative shard fraction."
      },
      "transferTokenFromBank(string,address,uint256,address)": {
        "notice": "Transfers a token bankAdmin a Bank to a recipient.",
        "params": {
          "bankName": "The name of the Bank from which the token is to be transferred.",
          "to": "The recipient of the token to be transferred.",
          "tokenAddress": "The address of the token to be transferred.",
          "value": "The value/amount of the token to be transferred."
        }
      },
      "unregisterTokenAddress(address)": {
        "notice": "Removes a token address from the registry. Also cancels any future receipts of said token unless added again.",
        "params": {
          "tokenAddress": "The token address to be unregistered."
        }
      }
    },
    "notice": "This contract adds administrability via permits and internally closed money supplies.",
    "stateVariables": {
      "permits": {
        "custom:illustration": "permits[permitName][address] == PermitState.authorized || PermitState.administrator;"
      }
    },
    "title": "An extension of the Idea providing an administrable interface.",
    "version": 1
  },
  "opcodes": "PUSH1 0x80 PUSH1 0x40 MSTORE PUSH1 0x4 CALLDATASIZE LT PUSH2 0x281 JUMPI PUSH1 0x0 CALLDATALOAD PUSH1 0xE0 SHR DUP1 PUSH4 0x868399A5 GT PUSH2 0x14F JUMPI DUP1 PUSH4 0xBCEDB2E0 GT PUSH2 0xC1 JUMPI DUP1 PUSH4 0xE123182B GT PUSH2 0x7A JUMPI DUP1 PUSH4 0xE123182B EQ PUSH2 0x888 JUMPI DUP1 PUSH4 0xE1C34C1F EQ PUSH2 0x89B JUMPI DUP1 PUSH4 0xE6778FCE EQ PUSH2 0x8BB JUMPI DUP1 PUSH4 0xEFAE89F8 EQ PUSH2 0x8E8 JUMPI DUP1 PUSH4 0xF7AAE621 EQ PUSH2 0x915 JUMPI DUP1 PUSH4 0xFD06636B EQ PUSH2 0x935 JUMPI PUSH1 0x0 DUP1 REVERT JUMPDEST DUP1 PUSH4 0xBCEDB2E0 EQ PUSH2 0x77E JUMPI DUP1 PUSH4 0xC4802EB2 EQ PUSH2 0x7E6 JUMPI DUP1 PUSH4 0xC5438A55 EQ PUSH2 0x813 JUMPI DUP1 PUSH4 0xD1CC9976 EQ PUSH2 0x833 JUMPI DUP1 PUSH4 0xDB5DC9B7 EQ PUSH2 0x848 JUMPI DUP1 PUSH4 0xDE9D6805 EQ PUSH2 0x868 JUMPI PUSH1 0x0 DUP1 REVERT JUMPDEST DUP1 PUSH4 0xA1916AEF GT PUSH2 0x113 JUMPI DUP1 PUSH4 0xA1916AEF EQ PUSH2 0x6C9 JUMPI DUP1 PUSH4 0xA80AED76 EQ PUSH2 0x6E9 JUMPI DUP1 PUSH4 0xA902780F EQ PUSH2 0x709 JUMPI DUP1 PUSH4 0xA907B6C5 EQ PUSH2 0x71E JUMPI DUP1 PUSH4 0xB2CB78AB EQ PUSH2 0x73E JUMPI DUP1 PUSH4 0xB4AF7D59 EQ PUSH2 0x75E JUMPI PUSH1 0x0 DUP1 REVERT JUMPDEST DUP1 PUSH4 0x868399A5 EQ PUSH2 0x609 JUMPI DUP1 PUSH4 0x8786DF6A EQ PUSH2 0x629 JUMPI DUP1 PUSH4 0x9211B7B3 EQ PUSH2 0x649 JUMPI DUP1 PUSH4 0x97235A1E EQ PUSH2 0x679 JUMPI DUP1 PUSH4 0x9995B9A9 EQ PUSH2 0x699 JUMPI PUSH1 0x0 DUP1 REVERT JUMPDEST DUP1 PUSH4 0x2F2E9A2A GT PUSH2 0x1F3 JUMPI DUP1 PUSH4 0x4C46360B GT PUSH2 0x1AC JUMPI DUP1 PUSH4 0x4C46360B EQ PUSH2 0x4EE JUMPI DUP1 PUSH4 0x5BEEFF33 EQ PUSH2 0x51E JUMPI DUP1 PUSH4 0x62748DCC EQ PUSH2 0x54B JUMPI DUP1 PUSH4 0x63879C0B EQ PUSH2 0x599 JUMPI DUP1 PUSH4 0x7B785493 EQ PUSH2 0x5B9 JUMPI DUP1 PUSH4 0x859D9FD5 EQ PUSH2 0x5E9 JUMPI PUSH1 0x0 DUP1 REVERT JUMPDEST DUP1 PUSH4 0x2F2E9A2A EQ PUSH2 0x418 JUMPI DUP1 PUSH4 0x350546D8 EQ PUSH2 0x438 JUMPI DUP1 PUSH4 0x354CD135 EQ PUSH2 0x458 JUMPI DUP1 PUSH4 0x384FE2B5 EQ PUSH2 0x478 JUMPI DUP1 PUSH4 0x3BAF28F8 EQ PUSH2 0x498 JUMPI DUP1 PUSH4 0x3DBEAA54 EQ PUSH2 0x4B8 JUMPI PUSH1 0x0 DUP1 REVERT JUMPDEST DUP1 PUSH4 0xD3330A1 GT PUSH2 0x245 JUMPI DUP1 PUSH4 0xD3330A1 EQ PUSH2 0x358 JUMPI DUP1 PUSH4 0x169936B4 EQ PUSH2 0x378 JUMPI DUP1 PUSH4 0x23656642 EQ PUSH2 0x398 JUMPI DUP1 PUSH4 0x258E4D9F EQ PUSH2 0x3B8 JUMPI DUP1 PUSH4 0x2DEC7CD2 EQ PUSH2 0x3D8 JUMPI DUP1 PUSH4 0x2EF37926 EQ PUSH2 0x3F8 JUMPI PUSH1 0x0 DUP1 REVERT JUMPDEST DUP1 PUSH4 0x2FB0C5E EQ PUSH2 0x299 JUMPI DUP1 PUSH4 0x36F3AEC EQ PUSH2 0x2C8 JUMPI DUP1 PUSH4 0x5C558F5 EQ PUSH2 0x2E8 JUMPI DUP1 PUSH4 0x66792D2 EQ PUSH2 0x2FD JUMPI DUP1 PUSH4 0xBEA8985 EQ PUSH2 0x338 JUMPI PUSH1 0x0 DUP1 REVERT JUMPDEST CALLDATASIZE PUSH2 0x294 JUMPI PUSH2 0x292 PUSH1 0x0 CALLVALUE CALLER PUSH2 0x955 JUMP JUMPDEST STOP JUMPDEST PUSH1 0x0 DUP1 REVERT JUMPDEST CALLVALUE DUP1 ISZERO PUSH2 0x2A5 JUMPI PUSH1 0x0 DUP1 REVERT JUMPDEST POP PUSH1 0x1 SLOAD PUSH2 0x2B3 SWAP1 PUSH1 0xFF AND DUP2 JUMP JUMPDEST PUSH1 0x40 MLOAD SWAP1 ISZERO ISZERO DUP2 MSTORE PUSH1 0x20 ADD JUMPDEST PUSH1 0x40 MLOAD DUP1 SWAP2 SUB SWAP1 RETURN JUMPDEST CALLVALUE DUP1 ISZERO PUSH2 0x2D4 JUMPI PUSH1 0x0 DUP1 REVERT JUMPDEST POP PUSH2 0x292 PUSH2 0x2E3 CALLDATASIZE PUSH1 0x4 PUSH2 0x3B0E JUMP JUMPDEST PUSH2 0xAA3 JUMP JUMPDEST CALLVALUE DUP1 ISZERO PUSH2 0x2F4 JUMPI PUSH1 0x0 DUP1 REVERT JUMPDEST POP PUSH2 0x292 PUSH2 0xB43 JUMP JUMPDEST CALLVALUE DUP1 ISZERO PUSH2 0x309 JUMPI PUSH1 0x0 DUP1 REVERT JUMPDEST POP PUSH2 0x32A PUSH2 0x318 CALLDATASIZE PUSH1 0x4 PUSH2 0x3B5C JUMP JUMPDEST PUSH1 0x2 PUSH1 0x20 MSTORE PUSH1 0x0 SWAP1 DUP2 MSTORE PUSH1 0x40 SWAP1 KECCAK256 SLOAD DUP2 JUMP JUMPDEST PUSH1 0x40 MLOAD SWAP1 DUP2 MSTORE PUSH1 0x20 ADD PUSH2 0x2BF JUMP JUMPDEST CALLVALUE DUP1 ISZERO PUSH2 0x344 JUMPI PUSH1 0x0 DUP1 REVERT JUMPDEST POP PUSH2 0x292 PUSH2 0x353 CALLDATASIZE PUSH1 0x4 PUSH2 0x3B5C JUMP JUMPDEST PUSH2 0xB7C JUMP JUMPDEST CALLVALUE DUP1 ISZERO PUSH2 0x364 JUMPI PUSH1 0x0 DUP1 REVERT JUMPDEST POP PUSH2 0x292 PUSH2 0x373 CALLDATASIZE PUSH1 0x4 PUSH2 0x3B8C JUMP JUMPDEST PUSH2 0xC39 JUMP JUMPDEST CALLVALUE DUP1 ISZERO PUSH2 0x384 JUMPI PUSH1 0x0 DUP1 REVERT JUMPDEST POP PUSH2 0x2B3 PUSH2 0x393 CALLDATASIZE PUSH1 0x4 PUSH2 0x3BA7 JUMP JUMPDEST PUSH2 0xD0E JUMP JUMPDEST CALLVALUE DUP1 ISZERO PUSH2 0x3A4 JUMPI PUSH1 0x0 DUP1 REVERT JUMPDEST POP PUSH2 0x292 PUSH2 0x3B3 CALLDATASIZE PUSH1 0x4 PUSH2 0x3B5C JUMP JUMPDEST PUSH2 0xD6C JUMP JUMPDEST CALLVALUE DUP1 ISZERO PUSH2 0x3C4 JUMPI PUSH1 0x0 DUP1 REVERT JUMPDEST POP PUSH2 0x2B3 PUSH2 0x3D3 CALLDATASIZE PUSH1 0x4 PUSH2 0x3BE4 JUMP JUMPDEST PUSH2 0xDA7 JUMP JUMPDEST CALLVALUE DUP1 ISZERO PUSH2 0x3E4 JUMPI PUSH1 0x0 DUP1 REVERT JUMPDEST POP PUSH2 0x32A PUSH2 0x3F3 CALLDATASIZE PUSH1 0x4 PUSH2 0x3BE4 JUMP JUMPDEST PUSH2 0xE3A JUMP JUMPDEST CALLVALUE DUP1 ISZERO PUSH2 0x404 JUMPI PUSH1 0x0 DUP1 REVERT JUMPDEST POP PUSH2 0x292 PUSH2 0x413 CALLDATASIZE PUSH1 0x4 PUSH2 0x3BE4 JUMP JUMPDEST PUSH2 0xE7B JUMP JUMPDEST CALLVALUE DUP1 ISZERO PUSH2 0x424 JUMPI PUSH1 0x0 DUP1 REVERT JUMPDEST POP PUSH2 0x292 PUSH2 0x433 CALLDATASIZE PUSH1 0x4 PUSH2 0x3BE4 JUMP JUMPDEST PUSH2 0xED9 JUMP JUMPDEST CALLVALUE DUP1 ISZERO PUSH2 0x444 JUMPI PUSH1 0x0 DUP1 REVERT JUMPDEST POP PUSH2 0x292 PUSH2 0x453 CALLDATASIZE PUSH1 0x4 PUSH2 0x3B8C JUMP JUMPDEST PUSH2 0xF2B JUMP JUMPDEST CALLVALUE DUP1 ISZERO PUSH2 0x464 JUMPI PUSH1 0x0 DUP1 REVERT JUMPDEST POP PUSH2 0x292 PUSH2 0x473 CALLDATASIZE PUSH1 0x4 PUSH2 0x3C29 JUMP JUMPDEST PUSH2 0x10D9 JUMP JUMPDEST CALLVALUE DUP1 ISZERO PUSH2 0x484 JUMPI PUSH1 0x0 DUP1 REVERT JUMPDEST POP PUSH2 0x292 PUSH2 0x493 CALLDATASIZE PUSH1 0x4 PUSH2 0x3BA7 JUMP JUMPDEST PUSH2 0x130B JUMP JUMPDEST CALLVALUE DUP1 ISZERO PUSH2 0x4A4 JUMPI PUSH1 0x0 DUP1 REVERT JUMPDEST POP PUSH2 0x292 PUSH2 0x4B3 CALLDATASIZE PUSH1 0x4 PUSH2 0x3C4B JUMP JUMPDEST PUSH2 0x1356 JUMP JUMPDEST CALLVALUE DUP1 ISZERO PUSH2 0x4C4 JUMPI PUSH1 0x0 DUP1 REVERT JUMPDEST POP PUSH2 0x32A PUSH2 0x4D3 CALLDATASIZE PUSH1 0x4 PUSH2 0x3B8C JUMP JUMPDEST PUSH1 0x1 PUSH1 0x1 PUSH1 0xA0 SHL SUB AND PUSH1 0x0 SWAP1 DUP2 MSTORE PUSH1 0xB PUSH1 0x20 MSTORE PUSH1 0x40 SWAP1 KECCAK256 SLOAD SWAP1 JUMP JUMPDEST CALLVALUE DUP1 ISZERO PUSH2 0x4FA JUMPI PUSH1 0x0 DUP1 REVERT JUMPDEST POP PUSH2 0x32A PUSH2 0x509 CALLDATASIZE PUSH1 0x4 PUSH2 0x3B5C JUMP JUMPDEST PUSH1 0x0 SWAP1 DUP2 MSTORE PUSH1 0x14 PUSH1 0x20 MSTORE PUSH1 0x40 SWAP1 KECCAK256 PUSH1 0x1 ADD SLOAD SWAP1 JUMP JUMPDEST CALLVALUE DUP1 ISZERO PUSH2 0x52A JUMPI PUSH1 0x0 DUP1 REVERT JUMPDEST POP PUSH2 0x32A PUSH2 0x539 CALLDATASIZE PUSH1 0x4 PUSH2 0x3B8C JUMP JUMPDEST PUSH1 0x9 PUSH1 0x20 MSTORE PUSH1 0x0 SWAP1 DUP2 MSTORE PUSH1 0x40 SWAP1 KECCAK256 SLOAD DUP2 JUMP JUMPDEST CALLVALUE DUP1 ISZERO PUSH2 0x557 JUMPI PUSH1 0x0 DUP1 REVERT JUMPDEST POP PUSH2 0x581 PUSH2 0x566 CALLDATASIZE PUSH1 0x4 PUSH2 0x3B5C JUMP JUMPDEST PUSH1 0x0 SWAP1 DUP2 MSTORE PUSH1 0x14 PUSH1 0x20 MSTORE PUSH1 0x40 SWAP1 KECCAK256 SLOAD PUSH1 0x1 PUSH1 0x1 PUSH1 0xA0 SHL SUB AND SWAP1 JUMP JUMPDEST PUSH1 0x40 MLOAD PUSH1 0x1 PUSH1 0x1 PUSH1 0xA0 SHL SUB SWAP1 SWAP2 AND DUP2 MSTORE PUSH1 0x20 ADD PUSH2 0x2BF JUMP JUMPDEST CALLVALUE DUP1 ISZERO PUSH2 0x5A5 JUMPI PUSH1 0x0 DUP1 REVERT JUMPDEST POP PUSH2 0x292 PUSH2 0x5B4 CALLDATASIZE PUSH1 0x4 PUSH2 0x3C91 JUMP JUMPDEST PUSH2 0x1397 JUMP JUMPDEST CALLVALUE DUP1 ISZERO PUSH2 0x5C5 JUMPI PUSH1 0x0 DUP1 REVERT JUMPDEST POP PUSH2 0x32A PUSH2 0x5D4 CALLDATASIZE PUSH1 0x4 PUSH2 0x3B5C JUMP JUMPDEST PUSH1 0x0 SWAP1 DUP2 MSTORE PUSH1 0x6 PUSH1 0x20 MSTORE PUSH1 0x40 SWAP1 KECCAK256 PUSH1 0x2 ADD SLOAD SWAP1 JUMP JUMPDEST CALLVALUE DUP1 ISZERO PUSH2 0x5F5 JUMPI PUSH1 0x0 DUP1 REVERT JUMPDEST POP PUSH2 0x292 PUSH2 0x604 CALLDATASIZE PUSH1 0x4 PUSH2 0x3B8C JUMP JUMPDEST PUSH2 0x13E4 JUMP JUMPDEST CALLVALUE DUP1 ISZERO PUSH2 0x615 JUMPI PUSH1 0x0 DUP1 REVERT JUMPDEST POP PUSH2 0x2B3 PUSH2 0x624 CALLDATASIZE PUSH1 0x4 PUSH2 0x3B8C JUMP JUMPDEST PUSH2 0x1442 JUMP JUMPDEST CALLVALUE DUP1 ISZERO PUSH2 0x635 JUMPI PUSH1 0x0 DUP1 REVERT JUMPDEST POP PUSH2 0x292 PUSH2 0x644 CALLDATASIZE PUSH1 0x4 PUSH2 0x3B8C JUMP JUMPDEST PUSH2 0x1477 JUMP JUMPDEST CALLVALUE DUP1 ISZERO PUSH2 0x655 JUMPI PUSH1 0x0 DUP1 REVERT JUMPDEST POP PUSH2 0x2B3 PUSH2 0x664 CALLDATASIZE PUSH1 0x4 PUSH2 0x3B5C JUMP JUMPDEST PUSH1 0x0 SWAP1 DUP2 MSTORE PUSH1 0x13 PUSH1 0x20 MSTORE PUSH1 0x40 SWAP1 KECCAK256 SLOAD PUSH1 0xFF AND SWAP1 JUMP JUMPDEST CALLVALUE DUP1 ISZERO PUSH2 0x685 JUMPI PUSH1 0x0 DUP1 REVERT JUMPDEST POP PUSH2 0x292 PUSH2 0x694 CALLDATASIZE PUSH1 0x4 PUSH2 0x3CE8 JUMP JUMPDEST PUSH2 0x14D5 JUMP JUMPDEST CALLVALUE DUP1 ISZERO PUSH2 0x6A5 JUMPI PUSH1 0x0 DUP1 REVERT JUMPDEST POP PUSH2 0x2B3 PUSH2 0x6B4 CALLDATASIZE PUSH1 0x4 PUSH2 0x3B5C JUMP JUMPDEST PUSH1 0x0 DUP1 SLOAD SWAP2 DUP2 MSTORE PUSH1 0x7 PUSH1 0x20 MSTORE PUSH1 0x40 SWAP1 KECCAK256 SLOAD GT SWAP1 JUMP JUMPDEST CALLVALUE DUP1 ISZERO PUSH2 0x6D5 JUMPI PUSH1 0x0 DUP1 REVERT JUMPDEST POP PUSH2 0x292 PUSH2 0x6E4 CALLDATASIZE PUSH1 0x4 PUSH2 0x3D12 JUMP JUMPDEST PUSH2 0x14DF JUMP JUMPDEST CALLVALUE DUP1 ISZERO PUSH2 0x6F5 JUMPI PUSH1 0x0 DUP1 REVERT JUMPDEST POP PUSH2 0x2B3 PUSH2 0x704 CALLDATASIZE PUSH1 0x4 PUSH2 0x3BE4 JUMP JUMPDEST PUSH2 0x14FF JUMP JUMPDEST CALLVALUE DUP1 ISZERO PUSH2 0x715 JUMPI PUSH1 0x0 DUP1 REVERT JUMPDEST POP PUSH1 0x0 SLOAD PUSH2 0x32A JUMP JUMPDEST CALLVALUE DUP1 ISZERO PUSH2 0x72A JUMPI PUSH1 0x0 DUP1 REVERT JUMPDEST POP PUSH2 0x292 PUSH2 0x739 CALLDATASIZE PUSH1 0x4 PUSH2 0x3BE4 JUMP JUMPDEST PUSH2 0x156A JUMP JUMPDEST CALLVALUE DUP1 ISZERO PUSH2 0x74A JUMPI PUSH1 0x0 DUP1 REVERT JUMPDEST POP PUSH2 0x292 PUSH2 0x759 CALLDATASIZE PUSH1 0x4 PUSH2 0x3D8E JUMP JUMPDEST PUSH2 0x15B6 JUMP JUMPDEST CALLVALUE DUP1 ISZERO PUSH2 0x76A JUMPI PUSH1 0x0 DUP1 REVERT JUMPDEST POP PUSH2 0x2B3 PUSH2 0x779 CALLDATASIZE PUSH1 0x4 PUSH2 0x3BA7 JUMP JUMPDEST PUSH2 0x1632 JUMP JUMPDEST CALLVALUE DUP1 ISZERO PUSH2 0x78A JUMPI PUSH1 0x0 DUP1 REVERT JUMPDEST POP PUSH2 0x7C3 PUSH2 0x799 CALLDATASIZE PUSH1 0x4 PUSH2 0x3B5C JUMP JUMPDEST PUSH1 0x3 PUSH1 0x20 MSTORE PUSH1 0x0 SWAP1 DUP2 MSTORE PUSH1 0x40 SWAP1 KECCAK256 DUP1 SLOAD PUSH1 0x1 DUP3 ADD SLOAD PUSH1 0x2 SWAP1 SWAP3 ADD SLOAD SWAP1 SWAP2 PUSH1 0x1 PUSH1 0x1 PUSH1 0xA0 SHL SUB AND SWAP1 DUP4 JUMP JUMPDEST PUSH1 0x40 DUP1 MLOAD SWAP4 DUP5 MSTORE PUSH1 0x1 PUSH1 0x1 PUSH1 0xA0 SHL SUB SWAP1 SWAP3 AND PUSH1 0x20 DUP5 ADD MSTORE SWAP1 DUP3 ADD MSTORE PUSH1 0x60 ADD PUSH2 0x2BF JUMP JUMPDEST CALLVALUE DUP1 ISZERO PUSH2 0x7F2 JUMPI PUSH1 0x0 DUP1 REVERT JUMPDEST POP PUSH2 0x32A PUSH2 0x801 CALLDATASIZE PUSH1 0x4 PUSH2 0x3B8C JUMP JUMPDEST PUSH1 0x4 PUSH1 0x20 MSTORE PUSH1 0x0 SWAP1 DUP2 MSTORE PUSH1 0x40 SWAP1 KECCAK256 SLOAD DUP2 JUMP JUMPDEST CALLVALUE DUP1 ISZERO PUSH2 0x81F JUMPI PUSH1 0x0 DUP1 REVERT JUMPDEST POP PUSH2 0x292 PUSH2 0x82E CALLDATASIZE PUSH1 0x4 PUSH2 0x3DC3 JUMP JUMPDEST PUSH2 0x1662 JUMP JUMPDEST CALLVALUE DUP1 ISZERO PUSH2 0x83F JUMPI PUSH1 0x0 DUP1 REVERT JUMPDEST POP PUSH2 0x2B3 PUSH2 0x170F JUMP JUMPDEST CALLVALUE DUP1 ISZERO PUSH2 0x854 JUMPI PUSH1 0x0 DUP1 REVERT JUMPDEST POP PUSH2 0x2B3 PUSH2 0x863 CALLDATASIZE PUSH1 0x4 PUSH2 0x3BE4 JUMP JUMPDEST PUSH2 0x1739 JUMP JUMPDEST CALLVALUE DUP1 ISZERO PUSH2 0x874 JUMPI PUSH1 0x0 DUP1 REVERT JUMPDEST POP PUSH2 0x292 PUSH2 0x883 CALLDATASIZE PUSH1 0x4 PUSH2 0x3E18 JUMP JUMPDEST PUSH2 0x17CD JUMP JUMPDEST PUSH2 0x292 PUSH2 0x896 CALLDATASIZE PUSH1 0x4 PUSH2 0x3C29 JUMP JUMPDEST PUSH2 0x17ED JUMP JUMPDEST CALLVALUE DUP1 ISZERO PUSH2 0x8A7 JUMPI PUSH1 0x0 DUP1 REVERT JUMPDEST POP PUSH2 0x2B3 PUSH2 0x8B6 CALLDATASIZE PUSH1 0x4 PUSH2 0x3B8C JUMP JUMPDEST PUSH2 0x1DD3 JUMP JUMPDEST CALLVALUE DUP1 ISZERO PUSH2 0x8C7 JUMPI PUSH1 0x0 DUP1 REVERT JUMPDEST POP PUSH2 0x32A PUSH2 0x8D6 CALLDATASIZE PUSH1 0x4 PUSH2 0x3B5C JUMP JUMPDEST PUSH1 0x0 SWAP1 DUP2 MSTORE PUSH1 0x15 PUSH1 0x20 MSTORE PUSH1 0x40 SWAP1 KECCAK256 SLOAD SWAP1 JUMP JUMPDEST CALLVALUE DUP1 ISZERO PUSH2 0x8F4 JUMPI PUSH1 0x0 DUP1 REVERT JUMPDEST POP PUSH2 0x32A PUSH2 0x903 CALLDATASIZE PUSH1 0x4 PUSH2 0x3B5C JUMP JUMPDEST PUSH1 0x0 SWAP1 DUP2 MSTORE PUSH1 0x7 PUSH1 0x20 MSTORE PUSH1 0x40 SWAP1 KECCAK256 SLOAD SWAP1 JUMP JUMPDEST CALLVALUE DUP1 ISZERO PUSH2 0x921 JUMPI PUSH1 0x0 DUP1 REVERT JUMPDEST POP PUSH2 0x292 PUSH2 0x930 CALLDATASIZE PUSH1 0x4 PUSH2 0x3E60 JUMP JUMPDEST PUSH2 0x1E05 JUMP JUMPDEST CALLVALUE DUP1 ISZERO PUSH2 0x941 JUMPI PUSH1 0x0 DUP1 REVERT JUMPDEST POP PUSH2 0x2B3 PUSH2 0x950 CALLDATASIZE PUSH1 0x4 PUSH2 0x3C29 JUMP JUMPDEST PUSH2 0x1E83 JUMP JUMPDEST PUSH2 0x960 DUP4 DUP4 DUP4 PUSH2 0x1EB4 JUMP JUMPDEST PUSH1 0x40 MLOAD PUSH4 0x36B0B4B7 PUSH1 0xE1 SHL DUP2 MSTORE PUSH1 0xF SWAP1 PUSH1 0x4 ADD SWAP1 DUP2 MSTORE PUSH1 0x40 DUP1 MLOAD PUSH1 0x20 SWAP3 DUP2 SWAP1 SUB DUP4 ADD SWAP1 KECCAK256 PUSH1 0x1 PUSH1 0x1 PUSH1 0xA0 SHL SUB DUP7 AND PUSH1 0x0 SWAP1 DUP2 MSTORE SWAP3 MSTORE SWAP1 KECCAK256 SLOAD ISZERO DUP1 ISZERO PUSH2 0x9AD JUMPI POP PUSH1 0x1 PUSH1 0x1 PUSH1 0xA0 SHL SUB DUP4 AND ISZERO ISZERO JUMPDEST ISZERO PUSH2 0x9F0 JUMPI PUSH1 0x1 PUSH1 0xE PUSH1 0x40 MLOAD PUSH2 0x9CD SWAP1 PUSH4 0x36B0B4B7 PUSH1 0xE1 SHL DUP2 MSTORE PUSH1 0x4 ADD SWAP1 JUMP JUMPDEST SWAP1 DUP2 MSTORE PUSH1 0x20 ADD PUSH1 0x40 MLOAD DUP1 SWAP2 SUB SWAP1 KECCAK256 PUSH1 0x0 DUP3 DUP3 SLOAD PUSH2 0x9EA SWAP2 SWAP1 PUSH2 0x3EC6 JUMP JUMPDEST SWAP1 SWAP2 SSTORE POP POP JUMPDEST DUP2 PUSH1 0xF PUSH1 0x40 MLOAD PUSH2 0xA0A SWAP1 PUSH4 0x36B0B4B7 PUSH1 0xE1 SHL DUP2 MSTORE PUSH1 0x4 ADD SWAP1 JUMP JUMPDEST SWAP1 DUP2 MSTORE PUSH1 0x20 ADD PUSH1 0x40 MLOAD DUP1 SWAP2 SUB SWAP1 KECCAK256 PUSH1 0x0 DUP6 PUSH1 0x1 PUSH1 0x1 PUSH1 0xA0 SHL SUB AND PUSH1 0x1 PUSH1 0x1 PUSH1 0xA0 SHL SUB AND DUP2 MSTORE PUSH1 0x20 ADD SWAP1 DUP2 MSTORE PUSH1 0x20 ADD PUSH1 0x0 KECCAK256 PUSH1 0x0 DUP3 DUP3 SLOAD PUSH2 0xA4A SWAP2 SWAP1 PUSH2 0x3EC6 JUMP JUMPDEST SWAP1 SWAP2 SSTORE POP POP PUSH1 0x40 DUP1 MLOAD PUSH1 0x1 PUSH1 0x1 PUSH1 0xA0 SHL SUB DUP1 DUP7 AND DUP3 MSTORE PUSH1 0x20 DUP3 ADD DUP6 SWAP1 MSTORE DUP4 AND SWAP2 DUP2 ADD SWAP2 SWAP1 SWAP2 MSTORE PUSH32 0xDE49BBE8E448CDFA40E6FA0D22592BE9A03B28BA746527635DBE5235416659CF SWAP1 PUSH1 0x60 ADD JUMPDEST PUSH1 0x40 MLOAD DUP1 SWAP2 SUB SWAP1 LOG1 POP POP POP JUMP JUMPDEST DUP2 PUSH2 0xAAE DUP2 CALLER PUSH2 0xDA7 JUMP JUMPDEST PUSH2 0xAB7 JUMPI PUSH1 0x0 DUP1 REVERT JUMPDEST DUP2 PUSH1 0x2 DUP2 GT ISZERO PUSH2 0xAC9 JUMPI PUSH2 0xAC9 PUSH2 0x3ED9 JUMP JUMPDEST PUSH1 0x12 DUP5 PUSH1 0x40 MLOAD PUSH2 0xAD9 SWAP2 SWAP1 PUSH2 0x3F13 JUMP JUMPDEST SWAP1 DUP2 MSTORE PUSH1 0x40 MLOAD SWAP1 DUP2 SWAP1 SUB PUSH1 0x20 ADD SWAP1 KECCAK256 SLOAD PUSH1 0xFF AND PUSH1 0x2 DUP2 GT ISZERO PUSH2 0xAFD JUMPI PUSH2 0xAFD PUSH2 0x3ED9 JUMP JUMPDEST SUB PUSH2 0xB34 JUMPI PUSH1 0x40 MLOAD PUSH3 0x461BCD PUSH1 0xE5 SHL DUP2 MSTORE PUSH1 0x20 PUSH1 0x4 DUP3 ADD MSTORE PUSH1 0x2 PUSH1 0x24 DUP3 ADD MSTORE PUSH2 0x4153 PUSH1 0xF0 SHL PUSH1 0x44 DUP3 ADD MSTORE PUSH1 0x64 ADD JUMPDEST PUSH1 0x40 MLOAD DUP1 SWAP2 SUB SWAP1 REVERT JUMPDEST PUSH2 0xB3E DUP4 DUP4 PUSH2 0x1F09 JUMP JUMPDEST POP POP POP JUMP JUMPDEST PUSH1 0x40 MLOAD DUP1 PUSH1 0x40 ADD PUSH1 0x40 MSTORE DUP1 PUSH1 0x2 DUP2 MSTORE PUSH1 0x20 ADD PUSH2 0x6C45 PUSH1 0xF0 SHL DUP2 MSTORE POP PUSH2 0xB68 DUP2 CALLER PUSH2 0x1739 JUMP JUMPDEST PUSH2 0xB71 JUMPI PUSH1 0x0 DUP1 REVERT JUMPDEST PUSH2 0xB79 PUSH2 0x1FB8 JUMP JUMPDEST POP JUMP JUMPDEST PUSH1 0x0 DUP2 DUP2 MSTORE PUSH1 0x3 PUSH1 0x20 MSTORE PUSH1 0x40 SWAP1 KECCAK256 PUSH1 0x1 ADD SLOAD DUP2 SWAP1 PUSH1 0x1 PUSH1 0x1 PUSH1 0xA0 SHL SUB AND CALLER EQ PUSH2 0xBB7 JUMPI PUSH1 0x40 MLOAD PUSH3 0x461BCD PUSH1 0xE5 SHL DUP2 MSTORE PUSH1 0x4 ADD PUSH2 0xB2B SWAP1 PUSH2 0x3F2F JUMP JUMPDEST DUP2 PUSH2 0xBD1 DUP2 PUSH1 0x0 DUP1 SLOAD SWAP2 DUP2 MSTORE PUSH1 0x7 PUSH1 0x20 MSTORE PUSH1 0x40 SWAP1 KECCAK256 SLOAD GT SWAP1 JUMP JUMPDEST PUSH2 0xBED JUMPI PUSH1 0x40 MLOAD PUSH3 0x461BCD PUSH1 0xE5 SHL DUP2 MSTORE PUSH1 0x4 ADD PUSH2 0xB2B SWAP1 PUSH2 0x3F4B JUMP JUMPDEST PUSH1 0x0 DUP4 DUP2 MSTORE PUSH1 0x5 PUSH1 0x20 MSTORE PUSH1 0x40 SWAP1 KECCAK256 SLOAD PUSH1 0xFF AND PUSH2 0xC30 JUMPI PUSH1 0x40 MLOAD PUSH3 0x461BCD PUSH1 0xE5 SHL DUP2 MSTORE PUSH1 0x20 PUSH1 0x4 DUP3 ADD MSTORE PUSH1 0x2 PUSH1 0x24 DUP3 ADD MSTORE PUSH2 0x4E53 PUSH1 0xF0 SHL PUSH1 0x44 DUP3 ADD MSTORE PUSH1 0x64 ADD PUSH2 0xB2B JUMP JUMPDEST PUSH2 0xB3E DUP4 PUSH2 0x200A JUMP JUMPDEST PUSH2 0xC41 PUSH2 0x170F JUMP JUMPDEST PUSH2 0xC72 JUMPI PUSH1 0x40 MLOAD PUSH3 0x461BCD PUSH1 0xE5 SHL DUP2 MSTORE PUSH1 0x20 PUSH1 0x4 DUP3 ADD MSTORE PUSH1 0x2 PUSH1 0x24 DUP3 ADD MSTORE PUSH2 0xAE9 PUSH1 0xF3 SHL PUSH1 0x44 DUP3 ADD MSTORE PUSH1 0x64 ADD PUSH2 0xB2B JUMP JUMPDEST PUSH1 0x1 PUSH1 0x1 PUSH1 0xA0 SHL SUB DUP2 AND PUSH1 0x0 SWAP1 DUP2 MSTORE PUSH1 0xB PUSH1 0x20 MSTORE PUSH1 0x40 SWAP1 KECCAK256 SLOAD PUSH2 0xCBB JUMPI PUSH1 0x40 MLOAD PUSH3 0x461BCD PUSH1 0xE5 SHL DUP2 MSTORE PUSH1 0x20 PUSH1 0x4 DUP3 ADD MSTORE PUSH1 0x1 PUSH1 0x24 DUP3 ADD MSTORE PUSH1 0x45 PUSH1 0xF8 SHL PUSH1 0x44 DUP3 ADD MSTORE PUSH1 0x64 ADD PUSH2 0xB2B JUMP JUMPDEST PUSH1 0x1 PUSH1 0x1 PUSH1 0xA0 SHL SUB DUP2 AND PUSH1 0x0 SWAP1 DUP2 MSTORE PUSH1 0xB PUSH1 0x20 MSTORE PUSH1 0x40 SWAP1 KECCAK256 SLOAD PUSH2 0xCF4 SWAP1 DUP3 SWAP1 PUSH20 0x49A71890AEA5A751E30E740C504F2E9683F347BC PUSH2 0x2059 JUMP JUMPDEST PUSH1 0x1 PUSH1 0x1 PUSH1 0xA0 SHL SUB AND PUSH1 0x0 SWAP1 DUP2 MSTORE PUSH1 0xB PUSH1 0x20 MSTORE PUSH1 0x40 DUP2 KECCAK256 SSTORE JUMP JUMPDEST PUSH1 0x0 PUSH1 0xE DUP3 PUSH1 0x40 MLOAD PUSH2 0xD20 SWAP2 SWAP1 PUSH2 0x3F13 JUMP JUMPDEST SWAP1 DUP2 MSTORE PUSH1 0x20 ADD PUSH1 0x40 MLOAD DUP1 SWAP2 SUB SWAP1 KECCAK256 SLOAD PUSH1 0x0 EQ DUP1 ISZERO PUSH2 0xD66 JUMPI POP PUSH1 0xF DUP3 PUSH1 0x40 MLOAD PUSH2 0xD49 SWAP2 SWAP1 PUSH2 0x3F13 JUMP JUMPDEST SWAP1 DUP2 MSTORE PUSH1 0x40 DUP1 MLOAD PUSH1 0x20 SWAP3 DUP2 SWAP1 SUB DUP4 ADD SWAP1 KECCAK256 PUSH1 0x0 DUP1 DUP1 MSTORE SWAP3 MSTORE SWAP1 KECCAK256 SLOAD ISZERO JUMPDEST SWAP3 SWAP2 POP POP JUMP JUMPDEST PUSH1 0x40 MLOAD DUP1 PUSH1 0x40 ADD PUSH1 0x40 MSTORE DUP1 PUSH1 0x2 DUP2 MSTORE PUSH1 0x20 ADD PUSH2 0x1B51 PUSH1 0xF2 SHL DUP2 MSTORE POP PUSH2 0xD91 DUP2 CALLER PUSH2 0x1739 JUMP JUMPDEST PUSH2 0xD9A JUMPI PUSH1 0x0 DUP1 REVERT JUMPDEST PUSH2 0xDA3 DUP3 PUSH2 0x22FE JUMP JUMPDEST POP POP JUMP JUMPDEST PUSH1 0x0 PUSH1 0x2 PUSH1 0x11 DUP5 PUSH1 0x40 MLOAD PUSH2 0xDBB SWAP2 SWAP1 PUSH2 0x3F13 JUMP JUMPDEST SWAP1 DUP2 MSTORE PUSH1 0x40 DUP1 MLOAD PUSH1 0x20 SWAP3 DUP2 SWAP1 SUB DUP4 ADD SWAP1 KECCAK256 PUSH1 0x1 PUSH1 0x1 PUSH1 0xA0 SHL SUB DUP7 AND PUSH1 0x0 SWAP1 DUP2 MSTORE SWAP3 MSTORE SWAP1 KECCAK256 SLOAD PUSH1 0xFF AND PUSH1 0x2 DUP2 GT ISZERO PUSH2 0xDF4 JUMPI PUSH2 0xDF4 PUSH2 0x3ED9 JUMP JUMPDEST EQ DUP1 PUSH2 0xE33 JUMPI POP PUSH1 0x2 PUSH1 0x12 DUP5 PUSH1 0x40 MLOAD PUSH2 0xE0D SWAP2 SWAP1 PUSH2 0x3F13 JUMP JUMPDEST SWAP1 DUP2 MSTORE PUSH1 0x40 MLOAD SWAP1 DUP2 SWAP1 SUB PUSH1 0x20 ADD SWAP1 KECCAK256 SLOAD PUSH1 0xFF AND PUSH1 0x2 DUP2 GT ISZERO PUSH2 0xE31 JUMPI PUSH2 0xE31 PUSH2 0x3ED9 JUMP JUMPDEST EQ JUMPDEST SWAP4 SWAP3 POP POP POP JUMP JUMPDEST PUSH1 0x0 PUSH1 0xF DUP4 PUSH1 0x40 MLOAD PUSH2 0xE4C SWAP2 SWAP1 PUSH2 0x3F13 JUMP JUMPDEST SWAP1 DUP2 MSTORE PUSH1 0x40 DUP1 MLOAD SWAP2 DUP3 SWAP1 SUB PUSH1 0x20 SWAP1 DUP2 ADD SWAP1 SWAP3 KECCAK256 PUSH1 0x1 PUSH1 0x1 PUSH1 0xA0 SHL SUB DUP6 AND PUSH1 0x0 SWAP1 DUP2 MSTORE SWAP3 MSTORE SWAP1 KECCAK256 SLOAD SWAP1 POP SWAP3 SWAP2 POP POP JUMP JUMPDEST PUSH1 0x40 MLOAD DUP1 PUSH1 0x40 ADD PUSH1 0x40 MSTORE DUP1 PUSH1 0x2 DUP2 MSTORE PUSH1 0x20 ADD PUSH2 0x36A1 PUSH1 0xF1 SHL DUP2 MSTORE POP PUSH2 0xEA0 DUP2 CALLER PUSH2 0x1739 JUMP JUMPDEST PUSH2 0xEA9 JUMPI PUSH1 0x0 DUP1 REVERT JUMPDEST PUSH1 0x1 DUP1 SLOAD PUSH1 0xFF AND ISZERO ISZERO EQ PUSH2 0xECF JUMPI PUSH1 0x40 MLOAD PUSH3 0x461BCD PUSH1 0xE5 SHL DUP2 MSTORE PUSH1 0x4 ADD PUSH2 0xB2B SWAP1 PUSH2 0x3F67 JUMP JUMPDEST PUSH2 0xB3E DUP4 DUP4 PUSH2 0x23E9 JUMP JUMPDEST PUSH1 0x40 MLOAD DUP1 PUSH1 0x40 ADD PUSH1 0x40 MSTORE DUP1 PUSH1 0x2 DUP2 MSTORE PUSH1 0x20 ADD PUSH2 0x36A1 PUSH1 0xF1 SHL DUP2 MSTORE POP PUSH2 0xEFE DUP2 CALLER PUSH2 0xDA7 JUMP JUMPDEST PUSH2 0xF07 JUMPI PUSH1 0x0 DUP1 REVERT JUMPDEST DUP3 PUSH2 0xF12 DUP2 CALLER PUSH2 0x14FF JUMP JUMPDEST PUSH2 0xF1B JUMPI PUSH1 0x0 DUP1 REVERT JUMPDEST PUSH2 0xF25 DUP5 DUP5 PUSH2 0x24FB JUMP JUMPDEST POP POP POP POP JUMP JUMPDEST PUSH2 0xF34 CALLER PUSH2 0x1DD3 JUMP JUMPDEST PUSH2 0xF65 JUMPI PUSH1 0x40 MLOAD PUSH3 0x461BCD PUSH1 0xE5 SHL DUP2 MSTORE PUSH1 0x20 PUSH1 0x4 DUP3 ADD MSTORE PUSH1 0x2 PUSH1 0x24 DUP3 ADD MSTORE PUSH2 0xAA9 PUSH1 0xF3 SHL PUSH1 0x44 DUP3 ADD MSTORE PUSH1 0x64 ADD PUSH2 0xB2B JUMP JUMPDEST PUSH1 0x1 SLOAD PUSH1 0xFF AND ISZERO PUSH2 0xF9D JUMPI PUSH1 0x40 MLOAD PUSH3 0x461BCD PUSH1 0xE5 SHL DUP2 MSTORE PUSH1 0x20 PUSH1 0x4 DUP3 ADD MSTORE PUSH1 0x2 PUSH1 0x24 DUP3 ADD MSTORE PUSH2 0x5341 PUSH1 0xF0 SHL PUSH1 0x44 DUP3 ADD MSTORE PUSH1 0x64 ADD PUSH2 0xB2B JUMP JUMPDEST CALLER PUSH1 0x0 SWAP1 DUP2 MSTORE PUSH1 0x4 PUSH1 0x20 SWAP1 DUP2 MSTORE PUSH1 0x40 DUP1 DUP4 KECCAK256 SLOAD PUSH1 0x1 PUSH1 0x1 PUSH1 0xA0 SHL SUB DUP6 AND DUP5 MSTORE PUSH1 0xC DUP4 MSTORE DUP2 DUP5 KECCAK256 DUP2 DUP6 MSTORE SWAP1 SWAP3 MSTORE SWAP1 SWAP2 KECCAK256 SLOAD PUSH1 0xFF AND ISZERO PUSH2 0x1002 JUMPI PUSH1 0x40 MLOAD PUSH3 0x461BCD PUSH1 0xE5 SHL DUP2 MSTORE PUSH1 0x20 PUSH1 0x4 DUP3 ADD MSTORE PUSH1 0x2 PUSH1 0x24 DUP3 ADD MSTORE PUSH2 0x4143 PUSH1 0xF0 SHL PUSH1 0x44 DUP3 ADD MSTORE PUSH1 0x64 ADD PUSH2 0xB2B JUMP JUMPDEST PUSH1 0x1 PUSH1 0x1 PUSH1 0xA0 SHL SUB DUP3 AND PUSH1 0x0 DUP2 DUP2 MSTORE PUSH1 0xC PUSH1 0x20 SWAP1 DUP2 MSTORE PUSH1 0x40 DUP1 DUP4 KECCAK256 DUP6 DUP5 MSTORE DUP3 MSTORE DUP1 DUP4 KECCAK256 DUP1 SLOAD PUSH1 0xFF NOT AND PUSH1 0x1 OR SWAP1 SSTORE DUP3 SLOAD DUP4 MSTORE PUSH1 0x2 DUP3 MSTORE DUP1 DUP4 KECCAK256 SLOAD DUP6 DUP5 MSTORE PUSH1 0x3 DUP4 MSTORE DUP2 DUP5 KECCAK256 SLOAD SWAP5 DUP5 MSTORE PUSH1 0x9 SWAP1 SWAP3 MSTORE DUP3 KECCAK256 SLOAD SWAP2 SWAP3 SWAP1 SWAP2 PUSH2 0x1060 SWAP2 SWAP1 PUSH2 0x3F83 JUMP JUMPDEST PUSH2 0x106A SWAP2 SWAP1 PUSH2 0x3F9A JUMP JUMPDEST SWAP1 POP DUP1 PUSH1 0x0 SUB PUSH2 0x10A0 JUMPI PUSH1 0x40 MLOAD PUSH3 0x461BCD PUSH1 0xE5 SHL DUP2 MSTORE PUSH1 0x20 PUSH1 0x4 DUP3 ADD MSTORE PUSH1 0x1 PUSH1 0x24 DUP3 ADD MSTORE PUSH1 0x45 PUSH1 0xF8 SHL PUSH1 0x44 DUP3 ADD MSTORE PUSH1 0x64 ADD PUSH2 0xB2B JUMP JUMPDEST PUSH1 0x1 PUSH1 0x1 PUSH1 0xA0 SHL SUB DUP4 AND PUSH1 0x0 SWAP1 DUP2 MSTORE PUSH1 0xB PUSH1 0x20 MSTORE PUSH1 0x40 DUP2 KECCAK256 DUP1 SLOAD DUP4 SWAP3 SWAP1 PUSH2 0x10C8 SWAP1 DUP5 SWAP1 PUSH2 0x3FBC JUMP JUMPDEST SWAP1 SWAP2 SSTORE POP PUSH2 0xB3E SWAP1 POP DUP4 DUP3 CALLER PUSH2 0x2059 JUMP JUMPDEST PUSH1 0x0 DUP3 DUP2 MSTORE PUSH1 0x3 PUSH1 0x20 MSTORE PUSH1 0x40 SWAP1 KECCAK256 PUSH1 0x1 ADD SLOAD DUP3 SWAP1 PUSH1 0x1 PUSH1 0x1 PUSH1 0xA0 SHL SUB AND CALLER EQ PUSH2 0x1114 JUMPI PUSH1 0x40 MLOAD PUSH3 0x461BCD PUSH1 0xE5 SHL DUP2 MSTORE PUSH1 0x4 ADD PUSH2 0xB2B SWAP1 PUSH2 0x3F2F JUMP JUMPDEST PUSH1 0x0 DUP3 DUP2 MSTORE PUSH1 0x13 PUSH1 0x20 MSTORE PUSH1 0x40 SWAP1 KECCAK256 SLOAD DUP3 SWAP1 PUSH1 0xFF AND PUSH2 0x1131 JUMPI PUSH1 0x0 DUP1 REVERT JUMPDEST PUSH1 0x1 DUP1 SLOAD PUSH1 0xFF AND ISZERO ISZERO EQ PUSH2 0x1157 JUMPI PUSH1 0x40 MLOAD PUSH3 0x461BCD PUSH1 0xE5 SHL DUP2 MSTORE PUSH1 0x4 ADD PUSH2 0xB2B SWAP1 PUSH2 0x3F67 JUMP JUMPDEST PUSH2 0x1161 DUP5 DUP5 PUSH2 0x1E83 JUMP JUMPDEST PUSH2 0x1193 JUMPI PUSH1 0x40 MLOAD PUSH3 0x461BCD PUSH1 0xE5 SHL DUP2 MSTORE PUSH1 0x20 PUSH1 0x4 DUP3 ADD MSTORE PUSH1 0x3 PUSH1 0x24 DUP3 ADD MSTORE PUSH3 0x2720A3 PUSH1 0xE9 SHL PUSH1 0x44 DUP3 ADD MSTORE PUSH1 0x64 ADD PUSH2 0xB2B JUMP JUMPDEST PUSH1 0x0 DUP4 DUP2 MSTORE PUSH1 0x16 PUSH1 0x20 SWAP1 DUP2 MSTORE PUSH1 0x40 DUP1 DUP4 KECCAK256 DUP8 DUP5 MSTORE SWAP1 SWAP2 MSTORE SWAP1 KECCAK256 SLOAD PUSH1 0xFF AND ISZERO PUSH2 0x11E2 JUMPI PUSH1 0x40 MLOAD PUSH3 0x461BCD PUSH1 0xE5 SHL DUP2 MSTORE PUSH1 0x20 PUSH1 0x4 DUP3 ADD MSTORE PUSH1 0x2 PUSH1 0x24 DUP3 ADD MSTORE PUSH2 0x4143 PUSH1 0xF0 SHL PUSH1 0x44 DUP3 ADD MSTORE PUSH1 0x64 ADD PUSH2 0xB2B JUMP JUMPDEST PUSH1 0x0 DUP4 DUP2 MSTORE PUSH1 0x16 PUSH1 0x20 SWAP1 DUP2 MSTORE PUSH1 0x40 DUP1 DUP4 KECCAK256 DUP8 DUP5 MSTORE DUP3 MSTORE DUP1 DUP4 KECCAK256 DUP1 SLOAD PUSH1 0xFF NOT AND PUSH1 0x1 SWAP1 DUP2 OR SWAP1 SWAP2 SSTORE DUP4 SLOAD DUP5 MSTORE PUSH1 0x2 DUP4 MSTORE DUP2 DUP5 KECCAK256 SLOAD DUP9 DUP6 MSTORE PUSH1 0x3 DUP5 MSTORE DUP3 DUP6 KECCAK256 SLOAD DUP9 DUP7 MSTORE PUSH1 0x14 SWAP1 SWAP5 MSTORE SWAP2 DUP5 KECCAK256 ADD SLOAD SWAP1 SWAP2 PUSH2 0x1238 SWAP2 PUSH2 0x3F83 JUMP JUMPDEST PUSH2 0x1242 SWAP2 SWAP1 PUSH2 0x3F9A JUMP JUMPDEST SWAP1 POP DUP1 PUSH1 0x0 SUB PUSH2 0x127A JUMPI PUSH1 0x40 MLOAD PUSH3 0x461BCD PUSH1 0xE5 SHL DUP2 MSTORE PUSH1 0x20 PUSH1 0x4 DUP3 ADD MSTORE PUSH1 0x3 PUSH1 0x24 DUP3 ADD MSTORE PUSH3 0x445453 PUSH1 0xE8 SHL PUSH1 0x44 DUP3 ADD MSTORE PUSH1 0x64 ADD PUSH2 0xB2B JUMP JUMPDEST PUSH1 0x0 DUP5 DUP2 MSTORE PUSH1 0x15 PUSH1 0x20 MSTORE PUSH1 0x40 DUP2 KECCAK256 DUP1 SLOAD DUP4 SWAP3 SWAP1 PUSH2 0x1298 SWAP1 DUP5 SWAP1 PUSH2 0x3FBC JUMP JUMPDEST SWAP1 SWAP2 SSTORE POP POP PUSH1 0x0 DUP5 DUP2 MSTORE PUSH1 0x14 PUSH1 0x20 MSTORE PUSH1 0x40 SWAP1 KECCAK256 SLOAD PUSH2 0x12C0 SWAP1 PUSH1 0x1 PUSH1 0x1 PUSH1 0xA0 SHL SUB AND DUP3 CALLER PUSH2 0x2059 JUMP JUMPDEST PUSH1 0x40 DUP1 MLOAD DUP6 DUP2 MSTORE PUSH1 0x20 DUP2 ADD DUP4 SWAP1 MSTORE CALLER SWAP2 DUP2 ADD SWAP2 SWAP1 SWAP2 MSTORE PUSH32 0x67DD3D116BF53E0DDDA53BB148A5FDC129854E1C507C0EEDA9190049A9BBC84F SWAP1 PUSH1 0x60 ADD JUMPDEST PUSH1 0x40 MLOAD DUP1 SWAP2 SUB SWAP1 LOG1 POP POP POP POP POP JUMP JUMPDEST PUSH1 0x40 MLOAD DUP1 PUSH1 0x40 ADD PUSH1 0x40 MSTORE DUP1 PUSH1 0x2 DUP2 MSTORE PUSH1 0x20 ADD PUSH2 0x36A1 PUSH1 0xF1 SHL DUP2 MSTORE POP PUSH2 0x1330 DUP2 CALLER PUSH2 0xDA7 JUMP JUMPDEST PUSH2 0x1339 JUMPI PUSH1 0x0 DUP1 REVERT JUMPDEST DUP2 PUSH2 0x1344 DUP2 CALLER PUSH2 0x14FF JUMP JUMPDEST PUSH2 0x134D JUMPI PUSH1 0x0 DUP1 REVERT JUMPDEST PUSH2 0xB3E DUP4 PUSH2 0x25B7 JUMP JUMPDEST PUSH1 0x40 MLOAD DUP1 PUSH1 0x40 ADD PUSH1 0x40 MSTORE DUP1 PUSH1 0x2 DUP2 MSTORE PUSH1 0x20 ADD PUSH2 0x6953 PUSH1 0xF0 SHL DUP2 MSTORE POP PUSH2 0x137B DUP2 CALLER PUSH2 0x1739 JUMP JUMPDEST PUSH2 0x1384 JUMPI PUSH1 0x0 DUP1 REVERT JUMPDEST PUSH2 0x1390 DUP6 DUP6 DUP6 DUP6 PUSH2 0x273C JUMP JUMPDEST POP POP POP POP POP JUMP JUMPDEST PUSH1 0x40 MLOAD DUP1 PUSH1 0x40 ADD PUSH1 0x40 MSTORE DUP1 PUSH1 0x2 DUP2 MSTORE PUSH1 0x20 ADD PUSH2 0x1B51 PUSH1 0xF2 SHL DUP2 MSTORE POP PUSH2 0x13BC DUP2 CALLER PUSH2 0x1739 JUMP JUMPDEST PUSH2 0x13C5 JUMPI PUSH1 0x0 DUP1 REVERT JUMPDEST DUP4 PUSH2 0x13D0 DUP2 CALLER PUSH2 0x14FF JUMP JUMPDEST PUSH2 0x13D9 JUMPI PUSH1 0x0 DUP1 REVERT JUMPDEST PUSH2 0x1390 DUP6 DUP6 DUP6 PUSH2 0x27BB JUMP JUMPDEST PUSH1 0x40 MLOAD DUP1 PUSH1 0x40 ADD PUSH1 0x40 MSTORE DUP1 PUSH1 0x3 DUP2 MSTORE PUSH1 0x20 ADD PUSH3 0x1B5055 PUSH1 0xEA SHL DUP2 MSTORE POP PUSH2 0x140A DUP2 CALLER PUSH2 0x1739 JUMP JUMPDEST PUSH2 0x1413 JUMPI PUSH1 0x0 DUP1 REVERT JUMPDEST PUSH1 0x1 DUP1 SLOAD PUSH1 0xFF AND ISZERO ISZERO EQ PUSH2 0x1439 JUMPI PUSH1 0x40 MLOAD PUSH3 0x461BCD PUSH1 0xE5 SHL DUP2 MSTORE PUSH1 0x4 ADD PUSH2 0xB2B SWAP1 PUSH2 0x3F67 JUMP JUMPDEST PUSH2 0xDA3 DUP3 PUSH2 0x29C5 JUMP JUMPDEST PUSH1 0x1 PUSH1 0x1 PUSH1 0xA0 SHL SUB DUP2 AND PUSH1 0x0 SWAP1 DUP2 MSTORE PUSH1 0x8 PUSH1 0x20 MSTORE PUSH1 0x40 DUP2 KECCAK256 SLOAD PUSH1 0xFF AND ISZERO ISZERO PUSH1 0x1 EQ DUP1 PUSH2 0xD66 JUMPI POP POP PUSH1 0x1 PUSH1 0x1 PUSH1 0xA0 SHL SUB AND ISZERO SWAP1 JUMP JUMPDEST PUSH1 0x40 MLOAD DUP1 PUSH1 0x40 ADD PUSH1 0x40 MSTORE DUP1 PUSH1 0x3 DUP2 MSTORE PUSH1 0x20 ADD PUSH3 0x1B5055 PUSH1 0xEA SHL DUP2 MSTORE POP PUSH2 0x149D DUP2 CALLER PUSH2 0x1739 JUMP JUMPDEST PUSH2 0x14A6 JUMPI PUSH1 0x0 DUP1 REVERT JUMPDEST PUSH1 0x1 DUP1 SLOAD PUSH1 0xFF AND ISZERO ISZERO EQ PUSH2 0x14CC JUMPI PUSH1 0x40 MLOAD PUSH3 0x461BCD PUSH1 0xE5 SHL DUP2 MSTORE PUSH1 0x4 ADD PUSH2 0xB2B SWAP1 PUSH2 0x3F67 JUMP JUMPDEST PUSH2 0xDA3 DUP3 PUSH2 0x2A0E JUMP JUMPDEST PUSH2 0xDA3 DUP3 DUP3 PUSH2 0x2A57 JUMP JUMPDEST DUP4 PUSH2 0x14EA DUP2 CALLER PUSH2 0x14FF JUMP JUMPDEST PUSH2 0x14F3 JUMPI PUSH1 0x0 DUP1 REVERT JUMPDEST PUSH2 0x1390 DUP6 DUP6 DUP6 DUP6 PUSH2 0x2BBF JUMP JUMPDEST PUSH1 0x0 PUSH1 0x10 DUP4 PUSH1 0x40 MLOAD PUSH2 0x1511 SWAP2 SWAP1 PUSH2 0x3F13 JUMP JUMPDEST SWAP1 DUP2 MSTORE PUSH1 0x40 DUP1 MLOAD SWAP2 DUP3 SWAP1 SUB PUSH1 0x20 SWAP1 DUP2 ADD SWAP1 SWAP3 KECCAK256 PUSH1 0x1 PUSH1 0x1 PUSH1 0xA0 SHL SUB DUP6 AND PUSH1 0x0 SWAP1 DUP2 MSTORE SWAP3 MSTORE SWAP1 KECCAK256 SLOAD PUSH1 0xFF AND ISZERO ISZERO PUSH1 0x1 EQ DUP1 PUSH2 0xE33 JUMPI POP PUSH2 0xE33 PUSH1 0x40 MLOAD DUP1 PUSH1 0x40 ADD PUSH1 0x40 MSTORE DUP1 PUSH1 0x2 DUP2 MSTORE PUSH1 0x20 ADD PUSH2 0x36A1 PUSH1 0xF1 SHL DUP2 MSTORE POP DUP4 PUSH2 0xDA7 JUMP JUMPDEST PUSH1 0x40 MLOAD DUP1 PUSH1 0x40 ADD PUSH1 0x40 MSTORE DUP1 PUSH1 0x2 DUP2 MSTORE PUSH1 0x20 ADD PUSH2 0x36A1 PUSH1 0xF1 SHL DUP2 MSTORE POP PUSH2 0x158F DUP2 CALLER PUSH2 0x1739 JUMP JUMPDEST PUSH2 0x1598 JUMPI PUSH1 0x0 DUP1 REVERT JUMPDEST DUP3 PUSH2 0x15A3 DUP2 CALLER PUSH2 0x14FF JUMP JUMPDEST PUSH2 0x15AC JUMPI PUSH1 0x0 DUP1 REVERT JUMPDEST PUSH2 0xF25 DUP5 DUP5 PUSH2 0x2E53 JUMP JUMPDEST PUSH1 0x0 DUP4 DUP2 MSTORE PUSH1 0x3 PUSH1 0x20 MSTORE PUSH1 0x40 SWAP1 KECCAK256 PUSH1 0x1 ADD SLOAD DUP4 SWAP1 PUSH1 0x1 PUSH1 0x1 PUSH1 0xA0 SHL SUB AND CALLER EQ PUSH2 0x15F1 JUMPI PUSH1 0x40 MLOAD PUSH3 0x461BCD PUSH1 0xE5 SHL DUP2 MSTORE PUSH1 0x4 ADD PUSH2 0xB2B SWAP1 PUSH2 0x3F2F JUMP JUMPDEST DUP4 PUSH2 0x160B DUP2 PUSH1 0x0 DUP1 SLOAD SWAP2 DUP2 MSTORE PUSH1 0x7 PUSH1 0x20 MSTORE PUSH1 0x40 SWAP1 KECCAK256 SLOAD GT SWAP1 JUMP JUMPDEST PUSH2 0x1627 JUMPI PUSH1 0x40 MLOAD PUSH3 0x461BCD PUSH1 0xE5 SHL DUP2 MSTORE PUSH1 0x4 ADD PUSH2 0xB2B SWAP1 PUSH2 0x3F4B JUMP JUMPDEST PUSH2 0x1390 DUP6 DUP6 DUP6 PUSH2 0x2F51 JUMP JUMPDEST PUSH1 0x0 PUSH1 0xD DUP3 PUSH1 0x40 MLOAD PUSH2 0x1644 SWAP2 SWAP1 PUSH2 0x3F13 JUMP JUMPDEST SWAP1 DUP2 MSTORE PUSH1 0x40 MLOAD SWAP1 DUP2 SWAP1 SUB PUSH1 0x20 ADD SWAP1 KECCAK256 SLOAD PUSH1 0xFF AND ISZERO ISZERO PUSH1 0x1 EQ SWAP3 SWAP2 POP POP JUMP JUMPDEST DUP3 PUSH2 0x166D DUP2 CALLER PUSH2 0xDA7 JUMP JUMPDEST PUSH2 0x1676 JUMPI PUSH1 0x0 DUP1 REVERT JUMPDEST DUP2 PUSH1 0x2 DUP2 GT ISZERO PUSH2 0x1688 JUMPI PUSH2 0x1688 PUSH2 0x3ED9 JUMP JUMPDEST PUSH1 0x11 DUP6 PUSH1 0x40 MLOAD PUSH2 0x1698 SWAP2 SWAP1 PUSH2 0x3F13 JUMP JUMPDEST SWAP1 DUP2 MSTORE PUSH1 0x40 DUP1 MLOAD PUSH1 0x20 SWAP3 DUP2 SWAP1 SUB DUP4 ADD SWAP1 KECCAK256 PUSH1 0x1 PUSH1 0x1 PUSH1 0xA0 SHL SUB DUP8 AND PUSH1 0x0 SWAP1 DUP2 MSTORE SWAP3 MSTORE SWAP1 KECCAK256 SLOAD PUSH1 0xFF AND PUSH1 0x2 DUP2 GT ISZERO PUSH2 0x16D1 JUMPI PUSH2 0x16D1 PUSH2 0x3ED9 JUMP JUMPDEST SUB PUSH2 0x1704 JUMPI PUSH1 0x40 MLOAD PUSH3 0x461BCD PUSH1 0xE5 SHL DUP2 MSTORE PUSH1 0x20 PUSH1 0x4 DUP3 ADD MSTORE PUSH1 0x3 PUSH1 0x24 DUP3 ADD MSTORE PUSH3 0x41485 PUSH1 0xEC SHL PUSH1 0x44 DUP3 ADD MSTORE PUSH1 0x64 ADD PUSH2 0xB2B JUMP JUMPDEST PUSH2 0xF25 DUP5 DUP5 DUP5 PUSH2 0x3175 JUMP JUMPDEST PUSH1 0x1 SLOAD PUSH1 0x0 SWAP1 PUSH1 0xFF AND ISZERO DUP1 ISZERO PUSH2 0x1734 JUMPI POP PUSH2 0x12C PUSH1 0xA SLOAD TIMESTAMP PUSH2 0x1731 SWAP2 SWAP1 PUSH2 0x3FBC JUMP JUMPDEST LT ISZERO JUMPDEST SWAP1 POP SWAP1 JUMP JUMPDEST PUSH1 0x0 PUSH1 0x1 PUSH1 0x11 DUP5 PUSH1 0x40 MLOAD PUSH2 0x174D SWAP2 SWAP1 PUSH2 0x3F13 JUMP JUMPDEST SWAP1 DUP2 MSTORE PUSH1 0x40 DUP1 MLOAD PUSH1 0x20 SWAP3 DUP2 SWAP1 SUB DUP4 ADD SWAP1 KECCAK256 PUSH1 0x1 PUSH1 0x1 PUSH1 0xA0 SHL SUB DUP7 AND PUSH1 0x0 SWAP1 DUP2 MSTORE SWAP3 MSTORE SWAP1 KECCAK256 SLOAD PUSH1 0xFF AND PUSH1 0x2 DUP2 GT ISZERO PUSH2 0x1786 JUMPI PUSH2 0x1786 PUSH2 0x3ED9 JUMP JUMPDEST LT ISZERO DUP1 PUSH2 0xE33 JUMPI POP PUSH1 0x1 PUSH1 0x12 DUP5 PUSH1 0x40 MLOAD PUSH2 0x17A0 SWAP2 SWAP1 PUSH2 0x3F13 JUMP JUMPDEST SWAP1 DUP2 MSTORE PUSH1 0x40 MLOAD SWAP1 DUP2 SWAP1 SUB PUSH1 0x20 ADD SWAP1 KECCAK256 SLOAD PUSH1 0xFF AND PUSH1 0x2 DUP2 GT ISZERO PUSH2 0x17C4 JUMPI PUSH2 0x17C4 PUSH2 0x3ED9 JUMP JUMPDEST LT ISZERO SWAP4 SWAP3 POP POP POP JUMP JUMPDEST DUP4 PUSH2 0x17D8 DUP2 CALLER PUSH2 0x14FF JUMP JUMPDEST PUSH2 0x17E1 JUMPI PUSH1 0x0 DUP1 REVERT JUMPDEST PUSH2 0x1390 DUP6 DUP6 DUP6 DUP6 PUSH2 0x322F JUMP JUMPDEST DUP2 PUSH2 0x1807 DUP2 PUSH1 0x0 DUP1 SLOAD SWAP2 DUP2 MSTORE PUSH1 0x7 PUSH1 0x20 MSTORE PUSH1 0x40 SWAP1 KECCAK256 SLOAD GT SWAP1 JUMP JUMPDEST PUSH2 0x1823 JUMPI PUSH1 0x40 MLOAD PUSH3 0x461BCD PUSH1 0xE5 SHL DUP2 MSTORE PUSH1 0x4 ADD PUSH2 0xB2B SWAP1 PUSH2 0x3F4B JUMP JUMPDEST PUSH1 0x0 DUP4 DUP2 MSTORE PUSH1 0x5 PUSH1 0x20 MSTORE PUSH1 0x40 SWAP1 KECCAK256 SLOAD PUSH1 0xFF AND PUSH2 0x1866 JUMPI PUSH1 0x40 MLOAD PUSH3 0x461BCD PUSH1 0xE5 SHL DUP2 MSTORE PUSH1 0x20 PUSH1 0x4 DUP3 ADD MSTORE PUSH1 0x2 PUSH1 0x24 DUP3 ADD MSTORE PUSH2 0x4E53 PUSH1 0xF0 SHL PUSH1 0x44 DUP3 ADD MSTORE PUSH1 0x64 ADD PUSH2 0xB2B JUMP JUMPDEST DUP2 PUSH1 0x0 SUB PUSH2 0x189B JUMPI PUSH1 0x40 MLOAD PUSH3 0x461BCD PUSH1 0xE5 SHL DUP2 MSTORE PUSH1 0x20 PUSH1 0x4 DUP3 ADD MSTORE PUSH1 0x2 PUSH1 0x24 DUP3 ADD MSTORE PUSH2 0x4553 PUSH1 0xF0 SHL PUSH1 0x44 DUP3 ADD MSTORE PUSH1 0x64 ADD PUSH2 0xB2B JUMP JUMPDEST PUSH1 0x0 DUP4 DUP2 MSTORE PUSH1 0x6 PUSH1 0x20 MSTORE PUSH1 0x40 SWAP1 KECCAK256 SLOAD DUP3 GT ISZERO PUSH2 0x18DE JUMPI PUSH1 0x40 MLOAD PUSH3 0x461BCD PUSH1 0xE5 SHL DUP2 MSTORE PUSH1 0x20 PUSH1 0x4 DUP3 ADD MSTORE PUSH1 0x2 PUSH1 0x24 DUP3 ADD MSTORE PUSH2 0x4553 PUSH1 0xF0 SHL PUSH1 0x44 DUP3 ADD MSTORE PUSH1 0x64 ADD PUSH2 0xB2B JUMP JUMPDEST PUSH1 0x0 DUP4 DUP2 MSTORE PUSH1 0x6 PUSH1 0x20 MSTORE PUSH1 0x40 SWAP1 KECCAK256 PUSH1 0x3 ADD SLOAD PUSH1 0x1 PUSH1 0x1 PUSH1 0xA0 SHL SUB AND CALLER EQ DUP1 PUSH2 0x191E JUMPI POP PUSH1 0x0 DUP4 DUP2 MSTORE PUSH1 0x6 PUSH1 0x20 MSTORE PUSH1 0x40 SWAP1 KECCAK256 PUSH1 0x3 ADD SLOAD PUSH1 0x1 PUSH1 0x1 PUSH1 0xA0 SHL SUB AND ISZERO JUMPDEST PUSH2 0x194F JUMPI PUSH1 0x40 MLOAD PUSH3 0x461BCD PUSH1 0xE5 SHL DUP2 MSTORE PUSH1 0x20 PUSH1 0x4 DUP3 ADD MSTORE PUSH1 0x2 PUSH1 0x24 DUP3 ADD MSTORE PUSH2 0x29A9 PUSH1 0xF1 SHL PUSH1 0x44 DUP3 ADD MSTORE PUSH1 0x64 ADD PUSH2 0xB2B JUMP JUMPDEST PUSH2 0x1958 DUP4 PUSH2 0x200A JUMP JUMPDEST PUSH1 0x0 DUP4 DUP2 MSTORE PUSH1 0x6 PUSH1 0x20 MSTORE PUSH1 0x40 DUP2 KECCAK256 PUSH1 0x2 ADD SLOAD PUSH2 0x1974 SWAP1 DUP5 PUSH2 0x3F83 JUMP JUMPDEST SWAP1 POP PUSH1 0x0 DUP1 PUSH1 0x0 PUSH2 0x1989 DUP5 PUSH1 0x19 PUSH2 0x3E8 PUSH2 0x33D1 JUMP JUMPDEST SWAP2 SWAP5 POP SWAP3 POP SWAP1 POP PUSH2 0x199A DUP2 DUP4 PUSH2 0x3EC6 JUMP JUMPDEST PUSH1 0x0 DUP9 DUP2 MSTORE PUSH1 0x6 PUSH1 0x20 MSTORE PUSH1 0x40 SWAP1 KECCAK256 PUSH1 0x1 ADD SLOAD SWAP1 SWAP3 POP PUSH1 0x1 PUSH1 0x1 PUSH1 0xA0 SHL SUB AND PUSH2 0x1AF9 JUMPI DUP4 CALLVALUE LT ISZERO PUSH2 0x19F1 JUMPI PUSH1 0x40 MLOAD PUSH3 0x461BCD PUSH1 0xE5 SHL DUP2 MSTORE PUSH1 0x20 PUSH1 0x4 DUP3 ADD MSTORE PUSH1 0x2 PUSH1 0x24 DUP3 ADD MSTORE PUSH2 0x4945 PUSH1 0xF0 SHL PUSH1 0x44 DUP3 ADD MSTORE PUSH1 0x64 ADD PUSH2 0xB2B JUMP JUMPDEST PUSH1 0x40 MLOAD PUSH1 0x0 SWAP1 PUSH20 0x49A71890AEA5A751E30E740C504F2E9683F347BC SWAP1 DUP6 SWAP1 DUP4 DUP2 DUP2 DUP2 DUP6 DUP8 GAS CALL SWAP3 POP POP POP RETURNDATASIZE DUP1 PUSH1 0x0 DUP2 EQ PUSH2 0x1A47 JUMPI PUSH1 0x40 MLOAD SWAP2 POP PUSH1 0x1F NOT PUSH1 0x3F RETURNDATASIZE ADD AND DUP3 ADD PUSH1 0x40 MSTORE RETURNDATASIZE DUP3 MSTORE RETURNDATASIZE PUSH1 0x0 PUSH1 0x20 DUP5 ADD RETURNDATACOPY PUSH2 0x1A4C JUMP JUMPDEST PUSH1 0x60 SWAP2 POP JUMPDEST POP POP PUSH1 0x0 DUP10 DUP2 MSTORE PUSH1 0x3 PUSH1 0x20 MSTORE PUSH1 0x40 DUP1 DUP3 KECCAK256 PUSH1 0x1 ADD SLOAD SWAP1 MLOAD SWAP3 SWAP4 POP SWAP1 SWAP2 PUSH1 0x1 PUSH1 0x1 PUSH1 0xA0 SHL SUB SWAP1 SWAP2 AND SWAP1 DUP6 SWAP1 DUP4 DUP2 DUP2 DUP2 DUP6 DUP8 GAS CALL SWAP3 POP POP POP RETURNDATASIZE DUP1 PUSH1 0x0 DUP2 EQ PUSH2 0x1AAE JUMPI PUSH1 0x40 MLOAD SWAP2 POP PUSH1 0x1F NOT PUSH1 0x3F RETURNDATASIZE ADD AND DUP3 ADD PUSH1 0x40 MSTORE RETURNDATASIZE DUP3 MSTORE RETURNDATASIZE PUSH1 0x0 PUSH1 0x20 DUP5 ADD RETURNDATACOPY PUSH2 0x1AB3 JUMP JUMPDEST PUSH1 0x60 SWAP2 POP JUMPDEST POP POP SWAP1 POP DUP1 DUP1 ISZERO PUSH2 0x1AC1 JUMPI POP DUP2 JUMPDEST PUSH2 0x1AF2 JUMPI PUSH1 0x40 MLOAD PUSH3 0x461BCD PUSH1 0xE5 SHL DUP2 MSTORE PUSH1 0x20 PUSH1 0x4 DUP3 ADD MSTORE PUSH1 0x2 PUSH1 0x24 DUP3 ADD MSTORE PUSH2 0x2A23 PUSH1 0xF1 SHL PUSH1 0x44 DUP3 ADD MSTORE PUSH1 0x64 ADD PUSH2 0xB2B JUMP JUMPDEST POP POP PUSH2 0x1C7F JUMP JUMPDEST PUSH1 0x0 DUP8 DUP2 MSTORE PUSH1 0x6 PUSH1 0x20 MSTORE PUSH1 0x40 SWAP1 DUP2 SWAP1 KECCAK256 PUSH1 0x1 ADD SLOAD SWAP1 MLOAD PUSH4 0x6EB1769F PUSH1 0xE1 SHL DUP2 MSTORE CALLER PUSH1 0x4 DUP3 ADD MSTORE ADDRESS PUSH1 0x24 DUP3 ADD MSTORE PUSH1 0x1 PUSH1 0x1 PUSH1 0xA0 SHL SUB SWAP1 SWAP2 AND SWAP1 DUP6 SWAP1 DUP3 SWAP1 PUSH4 0xDD62ED3E SWAP1 PUSH1 0x44 ADD PUSH1 0x20 PUSH1 0x40 MLOAD DUP1 DUP4 SUB DUP2 DUP7 GAS STATICCALL ISZERO DUP1 ISZERO PUSH2 0x1B5B JUMPI RETURNDATASIZE PUSH1 0x0 DUP1 RETURNDATACOPY RETURNDATASIZE PUSH1 0x0 REVERT JUMPDEST POP POP POP POP PUSH1 0x40 MLOAD RETURNDATASIZE PUSH1 0x1F NOT PUSH1 0x1F DUP3 ADD AND DUP3 ADD DUP1 PUSH1 0x40 MSTORE POP DUP2 ADD SWAP1 PUSH2 0x1B7F SWAP2 SWAP1 PUSH2 0x3FCF JUMP JUMPDEST LT ISZERO PUSH2 0x1B9D JUMPI PUSH1 0x40 MLOAD PUSH3 0x461BCD PUSH1 0xE5 SHL DUP2 MSTORE PUSH1 0x4 ADD PUSH2 0xB2B SWAP1 PUSH2 0x3FE8 JUMP JUMPDEST PUSH1 0x40 MLOAD PUSH4 0x23B872DD PUSH1 0xE0 SHL DUP2 MSTORE CALLER PUSH1 0x4 DUP3 ADD MSTORE PUSH20 0x49A71890AEA5A751E30E740C504F2E9683F347BC PUSH1 0x24 DUP3 ADD MSTORE PUSH1 0x44 DUP2 ADD DUP6 SWAP1 MSTORE PUSH1 0x1 PUSH1 0x1 PUSH1 0xA0 SHL SUB DUP3 AND SWAP1 PUSH4 0x23B872DD SWAP1 PUSH1 0x64 ADD PUSH1 0x20 PUSH1 0x40 MLOAD DUP1 DUP4 SUB DUP2 PUSH1 0x0 DUP8 GAS CALL ISZERO DUP1 ISZERO PUSH2 0x1C04 JUMPI RETURNDATASIZE PUSH1 0x0 DUP1 RETURNDATACOPY RETURNDATASIZE PUSH1 0x0 REVERT JUMPDEST POP POP POP POP PUSH1 0x40 MLOAD RETURNDATASIZE PUSH1 0x1F NOT PUSH1 0x1F DUP3 ADD AND DUP3 ADD DUP1 PUSH1 0x40 MSTORE POP DUP2 ADD SWAP1 PUSH2 0x1C28 SWAP2 SWAP1 PUSH2 0x4004 JUMP JUMPDEST PUSH2 0x1C44 JUMPI PUSH1 0x40 MLOAD PUSH3 0x461BCD PUSH1 0xE5 SHL DUP2 MSTORE PUSH1 0x4 ADD PUSH2 0xB2B SWAP1 PUSH2 0x4026 JUMP JUMPDEST PUSH1 0x0 DUP9 DUP2 MSTORE PUSH1 0x3 PUSH1 0x20 SWAP1 DUP2 MSTORE PUSH1 0x40 DUP1 DUP4 KECCAK256 PUSH1 0x1 SWAP1 DUP2 ADD SLOAD PUSH1 0x6 SWAP1 SWAP4 MSTORE SWAP3 KECCAK256 SWAP1 SWAP2 ADD SLOAD PUSH2 0x1C7D SWAP2 PUSH1 0x1 PUSH1 0x1 PUSH1 0xA0 SHL SUB SWAP1 DUP2 AND SWAP2 AND DUP6 PUSH2 0x3445 JUMP JUMPDEST POP JUMPDEST PUSH2 0x1C8A DUP8 DUP8 CALLER PUSH2 0x2F51 JUMP JUMPDEST PUSH1 0x0 DUP8 DUP2 MSTORE PUSH1 0x3 PUSH1 0x20 MSTORE PUSH1 0x40 SWAP1 KECCAK256 PUSH1 0x1 ADD SLOAD ADDRESS PUSH1 0x1 PUSH1 0x1 PUSH1 0xA0 SHL SUB SWAP1 SWAP2 AND SUB PUSH2 0x1CD2 JUMPI PUSH1 0x0 DUP1 SLOAD DUP2 MSTORE PUSH1 0x2 PUSH1 0x20 MSTORE PUSH1 0x40 DUP2 KECCAK256 DUP1 SLOAD DUP9 SWAP3 SWAP1 PUSH2 0x1CCC SWAP1 DUP5 SWAP1 PUSH2 0x3EC6 JUMP JUMPDEST SWAP1 SWAP2 SSTORE POP POP JUMPDEST PUSH1 0x0 DUP8 DUP2 MSTORE PUSH1 0x6 PUSH1 0x20 SWAP1 DUP2 MSTORE PUSH1 0x40 SWAP2 DUP3 SWAP1 KECCAK256 PUSH1 0x1 DUP2 ADD SLOAD PUSH1 0x2 SWAP1 SWAP2 ADD SLOAD DUP4 MLOAD DUP12 DUP2 MSTORE SWAP3 DUP4 ADD DUP11 SWAP1 MSTORE CALLER DUP4 DUP6 ADD MSTORE PUSH1 0x1 PUSH1 0x1 PUSH1 0xA0 SHL SUB SWAP1 SWAP2 AND PUSH1 0x60 DUP4 ADD MSTORE PUSH1 0x80 DUP3 ADD MSTORE SWAP1 MLOAD PUSH32 0x443732A78C29282934211EAE7AA500DD12DB85D4DD795DBCDA5F94EE19A67E4F SWAP2 DUP2 SWAP1 SUB PUSH1 0xA0 ADD SWAP1 LOG1 PUSH1 0x0 DUP8 DUP2 MSTORE PUSH1 0x6 PUSH1 0x20 MSTORE PUSH1 0x40 SWAP1 KECCAK256 SLOAD DUP7 EQ PUSH2 0x1DCA JUMPI PUSH1 0x0 DUP8 DUP2 MSTORE PUSH1 0x3 PUSH1 0x20 SWAP1 DUP2 MSTORE PUSH1 0x40 DUP1 DUP4 KECCAK256 PUSH1 0x1 ADD SLOAD PUSH1 0x1 PUSH1 0x1 PUSH1 0xA0 SHL SUB AND DUP4 MSTORE PUSH1 0x4 DUP3 MSTORE DUP1 DUP4 KECCAK256 SLOAD DUP11 DUP5 MSTORE PUSH1 0x6 SWAP1 SWAP3 MSTORE SWAP1 SWAP2 KECCAK256 SLOAD PUSH2 0x1DCA SWAP2 SWAP1 PUSH2 0x1D99 SWAP1 DUP10 SWAP1 PUSH2 0x3FBC JUMP JUMPDEST PUSH1 0x0 DUP11 DUP2 MSTORE PUSH1 0x6 PUSH1 0x20 MSTORE PUSH1 0x40 SWAP1 KECCAK256 PUSH1 0x1 DUP2 ADD SLOAD PUSH1 0x2 DUP3 ADD SLOAD PUSH1 0x3 SWAP1 SWAP3 ADD SLOAD PUSH1 0x1 PUSH1 0x1 PUSH1 0xA0 SHL SUB SWAP2 DUP3 AND SWAP3 SWAP2 AND PUSH2 0x34F4 JUMP JUMPDEST POP POP POP POP POP POP POP JUMP JUMPDEST PUSH1 0x1 PUSH1 0x1 PUSH1 0xA0 SHL SUB DUP2 AND PUSH1 0x0 SWAP1 DUP2 MSTORE PUSH1 0x4 PUSH1 0x20 MSTORE PUSH1 0x40 DUP2 KECCAK256 SLOAD PUSH2 0xD66 SWAP1 PUSH1 0x0 DUP1 SLOAD SWAP2 DUP2 MSTORE PUSH1 0x7 PUSH1 0x20 MSTORE PUSH1 0x40 SWAP1 KECCAK256 SLOAD GT SWAP1 JUMP JUMPDEST PUSH1 0x0 DUP6 DUP2 MSTORE PUSH1 0x3 PUSH1 0x20 MSTORE PUSH1 0x40 SWAP1 KECCAK256 PUSH1 0x1 ADD SLOAD DUP6 SWAP1 PUSH1 0x1 PUSH1 0x1 PUSH1 0xA0 SHL SUB AND CALLER EQ PUSH2 0x1E40 JUMPI PUSH1 0x40 MLOAD PUSH3 0x461BCD PUSH1 0xE5 SHL DUP2 MSTORE PUSH1 0x4 ADD PUSH2 0xB2B SWAP1 PUSH2 0x3F2F JUMP JUMPDEST DUP6 PUSH2 0x1E5A DUP2 PUSH1 0x0 DUP1 SLOAD SWAP2 DUP2 MSTORE PUSH1 0x7 PUSH1 0x20 MSTORE PUSH1 0x40 SWAP1 KECCAK256 SLOAD GT SWAP1 JUMP JUMPDEST PUSH2 0x1E76 JUMPI PUSH1 0x40 MLOAD PUSH3 0x461BCD PUSH1 0xE5 SHL DUP2 MSTORE PUSH1 0x4 ADD PUSH2 0xB2B SWAP1 PUSH2 0x3F4B JUMP JUMPDEST PUSH2 0x1DCA DUP8 DUP8 DUP8 DUP8 DUP8 PUSH2 0x34F4 JUMP JUMPDEST PUSH1 0x0 DUP3 DUP2 MSTORE PUSH1 0x3 PUSH1 0x20 MSTORE PUSH1 0x40 DUP2 KECCAK256 PUSH1 0x2 ADD SLOAD DUP3 LT DUP1 ISZERO SWAP1 PUSH2 0xE33 JUMPI POP POP PUSH1 0x0 SWAP2 DUP3 MSTORE PUSH1 0x7 PUSH1 0x20 MSTORE PUSH1 0x40 SWAP1 SWAP2 KECCAK256 SLOAD GT SWAP1 JUMP JUMPDEST PUSH1 0x1 PUSH1 0x1 PUSH1 0xA0 SHL SUB DUP4 AND PUSH1 0x0 SWAP1 DUP2 MSTORE PUSH1 0x9 PUSH1 0x20 MSTORE PUSH1 0x40 DUP2 KECCAK256 DUP1 SLOAD DUP5 SWAP3 SWAP1 PUSH2 0x1EDC SWAP1 DUP5 SWAP1 PUSH2 0x3EC6 JUMP JUMPDEST SWAP1 SWAP2 SSTORE POP POP PUSH1 0x1 PUSH1 0x1 PUSH1 0xA0 SHL SUB DUP4 AND PUSH1 0x0 SWAP1 DUP2 MSTORE PUSH1 0xB PUSH1 0x20 MSTORE PUSH1 0x40 DUP2 KECCAK256 DUP1 SLOAD DUP5 SWAP3 SWAP1 PUSH2 0xA4A SWAP1 DUP5 SWAP1 PUSH2 0x3EC6 JUMP JUMPDEST PUSH1 0x1 DUP1 SLOAD PUSH1 0xFF AND ISZERO ISZERO EQ PUSH2 0x1F2F JUMPI PUSH1 0x40 MLOAD PUSH3 0x461BCD PUSH1 0xE5 SHL DUP2 MSTORE PUSH1 0x4 ADD PUSH2 0xB2B SWAP1 PUSH2 0x3F67 JUMP JUMPDEST DUP1 PUSH1 0x12 DUP4 PUSH1 0x40 MLOAD PUSH2 0x1F40 SWAP2 SWAP1 PUSH2 0x3F13 JUMP JUMPDEST SWAP1 DUP2 MSTORE PUSH1 0x40 MLOAD SWAP1 DUP2 SWAP1 SUB PUSH1 0x20 ADD SWAP1 KECCAK256 DUP1 SLOAD PUSH1 0xFF NOT AND PUSH1 0x1 DUP4 PUSH1 0x2 DUP2 GT ISZERO PUSH2 0x1F69 JUMPI PUSH2 0x1F69 PUSH2 0x3ED9 JUMP JUMPDEST MUL OR SWAP1 SSTORE POP PUSH1 0x0 DUP1 MLOAD PUSH1 0x20 PUSH2 0x4429 DUP4 CODECOPY DUP2 MLOAD SWAP2 MSTORE DUP3 DUP3 PUSH1 0x40 MLOAD PUSH1 0x20 ADD PUSH2 0x1F90 SWAP3 SWAP2 SWAP1 PUSH2 0x4090 JUMP JUMPDEST PUSH1 0x40 DUP1 MLOAD PUSH1 0x1F NOT DUP2 DUP5 SUB ADD DUP2 MSTORE SWAP1 DUP3 SWAP1 MSTORE PUSH2 0x1FAC SWAP2 CALLER SWAP1 PUSH2 0x40B2 JUMP JUMPDEST PUSH1 0x40 MLOAD DUP1 SWAP2 SUB SWAP1 LOG1 POP POP JUMP JUMPDEST PUSH2 0x1FC0 PUSH2 0x36A7 JUMP JUMPDEST PUSH1 0x40 DUP1 MLOAD PUSH1 0x60 DUP1 DUP3 MSTORE PUSH1 0x2 SWAP1 DUP3 ADD MSTORE PUSH2 0x6C45 PUSH1 0xF0 SHL PUSH1 0x80 DUP3 ADD MSTORE PUSH1 0xA0 PUSH1 0x20 DUP3 ADD DUP2 SWAP1 MSTORE PUSH1 0x0 SWAP1 DUP3 ADD MSTORE CALLER DUP2 DUP4 ADD MSTORE SWAP1 MLOAD PUSH1 0x0 DUP1 MLOAD PUSH1 0x20 PUSH2 0x4429 DUP4 CODECOPY DUP2 MLOAD SWAP2 MSTORE SWAP2 DUP2 SWAP1 SUB PUSH1 0xC0 ADD SWAP1 LOG1 JUMP JUMPDEST DUP1 PUSH2 0x2024 DUP2 PUSH1 0x0 DUP1 SLOAD SWAP2 DUP2 MSTORE PUSH1 0x7 PUSH1 0x20 MSTORE PUSH1 0x40 SWAP1 KECCAK256 SLOAD GT SWAP1 JUMP JUMPDEST PUSH2 0x2040 JUMPI PUSH1 0x40 MLOAD PUSH3 0x461BCD PUSH1 0xE5 SHL DUP2 MSTORE PUSH1 0x4 ADD PUSH2 0xB2B SWAP1 PUSH2 0x3F4B JUMP JUMPDEST POP PUSH1 0x0 SWAP1 DUP2 MSTORE PUSH1 0x5 PUSH1 0x20 MSTORE PUSH1 0x40 SWAP1 KECCAK256 DUP1 SLOAD PUSH1 0xFF NOT AND SWAP1 SSTORE JUMP JUMPDEST PUSH1 0x1 PUSH1 0x1 PUSH1 0xA0 SHL SUB DUP4 AND PUSH1 0x0 SWAP1 DUP2 MSTORE PUSH1 0x9 PUSH1 0x20 MSTORE PUSH1 0x40 SWAP1 KECCAK256 SLOAD DUP3 GT ISZERO PUSH2 0x2091 JUMPI PUSH1 0x40 MLOAD PUSH3 0x461BCD PUSH1 0xE5 SHL DUP2 MSTORE PUSH1 0x4 ADD PUSH2 0xB2B SWAP1 PUSH2 0x3FE8 JUMP JUMPDEST PUSH1 0x1 PUSH1 0x1 PUSH1 0xA0 SHL SUB DUP4 AND PUSH2 0x20AE JUMPI PUSH2 0x20A9 DUP3 DUP3 PUSH2 0x36DD JUMP JUMPDEST PUSH2 0x22E9 JUMP JUMPDEST PUSH1 0x40 MLOAD PUSH4 0x95EA7B3 PUSH1 0xE0 SHL DUP2 MSTORE PUSH1 0x1 PUSH1 0x1 PUSH1 0xA0 SHL SUB DUP3 DUP2 AND PUSH1 0x4 DUP4 ADD MSTORE PUSH1 0x24 DUP3 ADD DUP5 SWAP1 MSTORE DUP5 SWAP2 SWAP1 DUP3 AND SWAP1 PUSH4 0x95EA7B3 SWAP1 PUSH1 0x44 ADD PUSH1 0x20 PUSH1 0x40 MLOAD DUP1 DUP4 SUB DUP2 PUSH1 0x0 DUP8 GAS CALL ISZERO DUP1 ISZERO PUSH2 0x2100 JUMPI RETURNDATASIZE PUSH1 0x0 DUP1 RETURNDATACOPY RETURNDATASIZE PUSH1 0x0 REVERT JUMPDEST POP POP POP POP PUSH1 0x40 MLOAD RETURNDATASIZE PUSH1 0x1F NOT PUSH1 0x1F DUP3 ADD AND DUP3 ADD DUP1 PUSH1 0x40 MSTORE POP DUP2 ADD SWAP1 PUSH2 0x2124 SWAP2 SWAP1 PUSH2 0x4004 JUMP JUMPDEST PUSH2 0x2155 JUMPI PUSH1 0x40 MLOAD PUSH3 0x461BCD PUSH1 0xE5 SHL DUP2 MSTORE PUSH1 0x20 PUSH1 0x4 DUP3 ADD MSTORE PUSH1 0x2 PUSH1 0x24 DUP3 ADD MSTORE PUSH2 0x4E41 PUSH1 0xF0 SHL PUSH1 0x44 DUP3 ADD MSTORE PUSH1 0x64 ADD PUSH2 0xB2B JUMP JUMPDEST PUSH1 0x1 PUSH1 0x1 PUSH1 0xA0 SHL SUB DUP3 AND EXTCODESIZE ISZERO PUSH2 0x2258 JUMPI PUSH1 0x40 MLOAD PUSH4 0x4B91AD0F PUSH1 0xE1 SHL DUP2 MSTORE PUSH1 0x1 PUSH1 0x1 PUSH1 0xA0 SHL SUB DUP6 DUP2 AND PUSH1 0x4 DUP4 ADD MSTORE PUSH1 0x24 DUP3 ADD DUP6 SWAP1 MSTORE DUP4 AND SWAP1 PUSH4 0x97235A1E SWAP1 PUSH1 0x44 ADD PUSH1 0x0 PUSH1 0x40 MLOAD DUP1 DUP4 SUB DUP2 PUSH1 0x0 DUP8 DUP1 EXTCODESIZE ISZERO DUP1 ISZERO PUSH2 0x21AF JUMPI PUSH1 0x0 DUP1 REVERT JUMPDEST POP GAS CALL SWAP3 POP POP POP DUP1 ISZERO PUSH2 0x21C0 JUMPI POP PUSH1 0x1 JUMPDEST PUSH2 0x2253 JUMPI PUSH1 0x40 MLOAD PUSH4 0xA9059CBB PUSH1 0xE0 SHL DUP2 MSTORE PUSH1 0x1 PUSH1 0x1 PUSH1 0xA0 SHL SUB DUP4 DUP2 AND PUSH1 0x4 DUP4 ADD MSTORE PUSH1 0x24 DUP3 ADD DUP6 SWAP1 MSTORE DUP3 AND SWAP1 PUSH4 0xA9059CBB SWAP1 PUSH1 0x44 ADD PUSH1 0x20 PUSH1 0x40 MLOAD DUP1 DUP4 SUB DUP2 PUSH1 0x0 DUP8 GAS CALL ISZERO DUP1 ISZERO PUSH2 0x2213 JUMPI RETURNDATASIZE PUSH1 0x0 DUP1 RETURNDATACOPY RETURNDATASIZE PUSH1 0x0 REVERT JUMPDEST POP POP POP POP PUSH1 0x40 MLOAD RETURNDATASIZE PUSH1 0x1F NOT PUSH1 0x1F DUP3 ADD AND DUP3 ADD DUP1 PUSH1 0x40 MSTORE POP DUP2 ADD SWAP1 PUSH2 0x2237 SWAP2 SWAP1 PUSH2 0x4004 JUMP JUMPDEST PUSH2 0x2253 JUMPI PUSH1 0x40 MLOAD PUSH3 0x461BCD PUSH1 0xE5 SHL DUP2 MSTORE PUSH1 0x4 ADD PUSH2 0xB2B SWAP1 PUSH2 0x4026 JUMP JUMPDEST PUSH2 0x22E7 JUMP JUMPDEST PUSH1 0x40 MLOAD PUSH4 0xA9059CBB PUSH1 0xE0 SHL DUP2 MSTORE PUSH1 0x1 PUSH1 0x1 PUSH1 0xA0 SHL SUB DUP4 DUP2 AND PUSH1 0x4 DUP4 ADD MSTORE PUSH1 0x24 DUP3 ADD DUP6 SWAP1 MSTORE DUP3 AND SWAP1 PUSH4 0xA9059CBB SWAP1 PUSH1 0x44 ADD PUSH1 0x20 PUSH1 0x40 MLOAD DUP1 DUP4 SUB DUP2 PUSH1 0x0 DUP8 GAS CALL ISZERO DUP1 ISZERO PUSH2 0x22A7 JUMPI RETURNDATASIZE PUSH1 0x0 DUP1 RETURNDATACOPY RETURNDATASIZE PUSH1 0x0 REVERT JUMPDEST POP POP POP POP PUSH1 0x40 MLOAD RETURNDATASIZE PUSH1 0x1F NOT PUSH1 0x1F DUP3 ADD AND DUP3 ADD DUP1 PUSH1 0x40 MSTORE POP DUP2 ADD SWAP1 PUSH2 0x22CB SWAP2 SWAP1 PUSH2 0x4004 JUMP JUMPDEST PUSH2 0x22E7 JUMPI PUSH1 0x40 MLOAD PUSH3 0x461BCD PUSH1 0xE5 SHL DUP2 MSTORE PUSH1 0x4 ADD PUSH2 0xB2B SWAP1 PUSH2 0x4026 JUMP JUMPDEST POP JUMPDEST PUSH1 0x1 SLOAD PUSH1 0xFF AND ISZERO PUSH2 0xB3E JUMPI PUSH2 0xB3E DUP4 DUP4 PUSH2 0x3765 JUMP JUMPDEST PUSH1 0x0 DUP2 DUP2 MSTORE PUSH1 0x13 PUSH1 0x20 MSTORE PUSH1 0x40 SWAP1 KECCAK256 SLOAD DUP2 SWAP1 PUSH1 0xFF AND PUSH2 0x231B JUMPI PUSH1 0x0 DUP1 REVERT JUMPDEST PUSH1 0x1 DUP1 SLOAD PUSH1 0xFF AND ISZERO ISZERO EQ PUSH2 0x2341 JUMPI PUSH1 0x40 MLOAD PUSH3 0x461BCD PUSH1 0xE5 SHL DUP2 MSTORE PUSH1 0x4 ADD PUSH2 0xB2B SWAP1 PUSH2 0x3F67 JUMP JUMPDEST PUSH1 0x0 DUP3 DUP2 MSTORE PUSH1 0x13 PUSH1 0x20 SWAP1 DUP2 MSTORE PUSH1 0x40 DUP1 DUP4 KECCAK256 DUP1 SLOAD PUSH1 0xFF NOT AND SWAP1 SSTORE PUSH1 0x15 DUP3 MSTORE DUP1 DUP4 KECCAK256 SLOAD DUP2 MLOAD PUSH4 0x36B0B4B7 PUSH1 0xE1 SHL DUP2 MSTORE PUSH1 0xF PUSH1 0x4 DUP3 ADD MSTORE DUP3 MLOAD SWAP1 DUP2 SWAP1 SUB PUSH1 0x24 ADD SWAP1 KECCAK256 DUP7 DUP6 MSTORE PUSH1 0x14 DUP5 MSTORE DUP3 DUP6 KECCAK256 SLOAD PUSH1 0x1 PUSH1 0x1 PUSH1 0xA0 SHL SUB AND DUP6 MSTORE SWAP1 SWAP3 MSTORE DUP3 KECCAK256 DUP1 SLOAD SWAP2 SWAP3 SWAP1 SWAP2 PUSH2 0x23AC SWAP1 DUP5 SWAP1 PUSH2 0x3EC6 JUMP JUMPDEST SWAP1 SWAP2 SSTORE POP POP PUSH1 0x40 DUP1 MLOAD PUSH1 0x20 DUP2 ADD DUP5 SWAP1 MSTORE PUSH1 0x0 DUP1 MLOAD PUSH1 0x20 PUSH2 0x4429 DUP4 CODECOPY DUP2 MLOAD SWAP2 MSTORE SWAP2 ADD PUSH1 0x40 DUP1 MLOAD PUSH1 0x1F NOT DUP2 DUP5 SUB ADD DUP2 MSTORE SWAP1 DUP3 SWAP1 MSTORE PUSH2 0x1FAC SWAP2 CALLER SWAP1 PUSH2 0x40F5 JUMP JUMPDEST PUSH1 0x1 DUP1 SLOAD PUSH1 0xFF AND ISZERO ISZERO EQ PUSH2 0x240F JUMPI PUSH1 0x40 MLOAD PUSH3 0x461BCD PUSH1 0xE5 SHL DUP2 MSTORE PUSH1 0x4 ADD PUSH2 0xB2B SWAP1 PUSH2 0x3F67 JUMP JUMPDEST PUSH2 0x2418 DUP3 PUSH2 0x1632 JUMP JUMPDEST ISZERO PUSH2 0x244A JUMPI PUSH1 0x40 MLOAD PUSH3 0x461BCD PUSH1 0xE5 SHL DUP2 MSTORE PUSH1 0x20 PUSH1 0x4 DUP3 ADD MSTORE PUSH1 0x2 PUSH1 0x24 DUP3 ADD MSTORE PUSH2 0x4145 PUSH1 0xF0 SHL PUSH1 0x44 DUP3 ADD MSTORE PUSH1 0x64 ADD PUSH2 0xB2B JUMP JUMPDEST PUSH1 0x1 PUSH1 0x10 DUP4 PUSH1 0x40 MLOAD PUSH2 0x245C SWAP2 SWAP1 PUSH2 0x3F13 JUMP JUMPDEST SWAP1 DUP2 MSTORE PUSH1 0x40 DUP1 MLOAD PUSH1 0x20 SWAP3 DUP2 SWAP1 SUB DUP4 ADD DUP2 KECCAK256 PUSH1 0x1 PUSH1 0x1 PUSH1 0xA0 SHL SUB DUP7 AND PUSH1 0x0 SWAP1 DUP2 MSTORE SWAP4 MSTORE SWAP2 KECCAK256 DUP1 SLOAD PUSH1 0xFF NOT AND SWAP3 ISZERO ISZERO SWAP3 SWAP1 SWAP3 OR SWAP1 SWAP2 SSTORE PUSH1 0x1 SWAP1 PUSH1 0xD SWAP1 PUSH2 0x24A1 SWAP1 DUP6 SWAP1 PUSH2 0x3F13 JUMP JUMPDEST SWAP1 DUP2 MSTORE PUSH1 0x40 MLOAD PUSH1 0x20 SWAP2 DUP2 SWAP1 SUB DUP3 ADD DUP2 KECCAK256 DUP1 SLOAD PUSH1 0xFF NOT AND SWAP4 ISZERO ISZERO SWAP4 SWAP1 SWAP4 OR SWAP1 SWAP3 SSTORE PUSH1 0x0 DUP1 MLOAD PUSH1 0x20 PUSH2 0x4429 DUP4 CODECOPY DUP2 MLOAD SWAP2 MSTORE SWAP2 PUSH2 0x24DF SWAP2 DUP6 SWAP2 DUP6 SWAP2 ADD PUSH2 0x4121 JUMP JUMPDEST PUSH1 0x40 DUP1 MLOAD PUSH1 0x1F NOT DUP2 DUP5 SUB ADD DUP2 MSTORE SWAP1 DUP3 SWAP1 MSTORE PUSH2 0x1FAC SWAP2 CALLER SWAP1 PUSH2 0x414B JUMP JUMPDEST PUSH1 0x1 DUP1 SLOAD PUSH1 0xFF AND ISZERO ISZERO EQ PUSH2 0x2521 JUMPI PUSH1 0x40 MLOAD PUSH3 0x461BCD PUSH1 0xE5 SHL DUP2 MSTORE PUSH1 0x4 ADD PUSH2 0xB2B SWAP1 PUSH2 0x3F67 JUMP JUMPDEST PUSH2 0x252B DUP3 DUP3 PUSH2 0x14FF JUMP JUMPDEST PUSH2 0x2534 JUMPI PUSH1 0x0 DUP1 REVERT JUMPDEST PUSH1 0x0 PUSH1 0x10 DUP4 PUSH1 0x40 MLOAD PUSH2 0x2546 SWAP2 SWAP1 PUSH2 0x3F13 JUMP JUMPDEST SWAP1 DUP2 MSTORE PUSH1 0x40 DUP1 MLOAD PUSH1 0x20 SWAP3 DUP2 SWAP1 SUB DUP4 ADD DUP2 KECCAK256 PUSH1 0x1 PUSH1 0x1 PUSH1 0xA0 SHL SUB DUP7 AND PUSH1 0x0 SWAP1 DUP2 MSTORE SWAP1 DUP5 MSTORE SWAP2 SWAP1 SWAP2 KECCAK256 DUP1 SLOAD PUSH1 0xFF NOT AND SWAP4 ISZERO ISZERO SWAP4 SWAP1 SWAP4 OR SWAP1 SWAP3 SSTORE PUSH1 0x0 DUP1 MLOAD PUSH1 0x20 PUSH2 0x4429 DUP4 CODECOPY DUP2 MLOAD SWAP2 MSTORE SWAP2 PUSH2 0x259B SWAP2 DUP6 SWAP2 DUP6 SWAP2 ADD PUSH2 0x4121 JUMP JUMPDEST PUSH1 0x40 DUP1 MLOAD PUSH1 0x1F NOT DUP2 DUP5 SUB ADD DUP2 MSTORE SWAP1 DUP3 SWAP1 MSTORE PUSH2 0x1FAC SWAP2 CALLER SWAP1 PUSH2 0x4177 JUMP JUMPDEST PUSH1 0x1 DUP1 SLOAD PUSH1 0xFF AND ISZERO ISZERO EQ PUSH2 0x25DD JUMPI PUSH1 0x40 MLOAD PUSH3 0x461BCD PUSH1 0xE5 SHL DUP2 MSTORE PUSH1 0x4 ADD PUSH2 0xB2B SWAP1 PUSH2 0x3F67 JUMP JUMPDEST PUSH2 0x25E6 DUP2 PUSH2 0x1632 JUMP JUMPDEST PUSH2 0x2618 JUMPI PUSH1 0x40 MLOAD PUSH3 0x461BCD PUSH1 0xE5 SHL DUP2 MSTORE PUSH1 0x20 PUSH1 0x4 DUP3 ADD MSTORE PUSH1 0x3 PUSH1 0x24 DUP3 ADD MSTORE PUSH3 0x554221 PUSH1 0xE8 SHL PUSH1 0x44 DUP3 ADD MSTORE PUSH1 0x64 ADD PUSH2 0xB2B JUMP JUMPDEST PUSH1 0x40 DUP1 MLOAD DUP1 DUP3 ADD SWAP1 SWAP2 MSTORE PUSH1 0x4 DUP2 MSTORE PUSH4 0x36B0B4B7 PUSH1 0xE1 SHL PUSH1 0x20 SWAP2 DUP3 ADD MSTORE DUP2 MLOAD SWAP1 DUP3 ADD KECCAK256 PUSH32 0x471DFAB0756EDC981C75DD3188CCD700755407F7D3BEDF452610F7A1E240D659 ADD PUSH2 0x268D JUMPI PUSH1 0x40 MLOAD PUSH3 0x461BCD PUSH1 0xE5 SHL DUP2 MSTORE PUSH1 0x20 PUSH1 0x4 DUP3 ADD MSTORE PUSH1 0x2 PUSH1 0x24 DUP3 ADD MSTORE PUSH2 0x26A1 PUSH1 0xF1 SHL PUSH1 0x44 DUP3 ADD MSTORE PUSH1 0x64 ADD PUSH2 0xB2B JUMP JUMPDEST PUSH2 0x2696 DUP2 PUSH2 0xD0E JUMP JUMPDEST PUSH2 0x26C7 JUMPI PUSH1 0x40 MLOAD PUSH3 0x461BCD PUSH1 0xE5 SHL DUP2 MSTORE PUSH1 0x20 PUSH1 0x4 DUP3 ADD MSTORE PUSH1 0x2 PUSH1 0x24 DUP3 ADD MSTORE PUSH2 0x4245 PUSH1 0xF0 SHL PUSH1 0x44 DUP3 ADD MSTORE PUSH1 0x64 ADD PUSH2 0xB2B JUMP JUMPDEST PUSH1 0x0 PUSH1 0xD DUP3 PUSH1 0x40 MLOAD PUSH2 0x26D9 SWAP2 SWAP1 PUSH2 0x3F13 JUMP JUMPDEST SWAP1 DUP2 MSTORE PUSH1 0x40 MLOAD PUSH1 0x20 SWAP2 DUP2 SWAP1 SUB DUP3 ADD DUP2 KECCAK256 DUP1 SLOAD PUSH1 0xFF NOT AND SWAP4 ISZERO ISZERO SWAP4 SWAP1 SWAP4 OR SWAP1 SWAP3 SSTORE PUSH1 0x0 DUP1 MLOAD PUSH1 0x20 PUSH2 0x4429 DUP4 CODECOPY DUP2 MLOAD SWAP2 MSTORE SWAP2 PUSH2 0x2715 SWAP2 DUP5 SWAP2 ADD PUSH2 0x41A3 JUMP JUMPDEST PUSH1 0x40 DUP1 MLOAD PUSH1 0x1F NOT DUP2 DUP5 SUB ADD DUP2 MSTORE SWAP1 DUP3 SWAP1 MSTORE PUSH2 0x2731 SWAP2 CALLER SWAP1 PUSH2 0x41B6 JUMP JUMPDEST PUSH1 0x40 MLOAD DUP1 SWAP2 SUB SWAP1 LOG1 POP JUMP JUMPDEST PUSH2 0x2745 DUP4 PUSH2 0x1442 JUMP JUMPDEST PUSH2 0x274E JUMPI PUSH1 0x0 DUP1 REVERT JUMPDEST ADDRESS PUSH1 0x0 SWAP1 DUP2 MSTORE PUSH1 0x4 PUSH1 0x20 MSTORE PUSH1 0x40 DUP2 KECCAK256 SLOAD SWAP1 SLOAD PUSH2 0x276A SWAP2 SWAP1 PUSH2 0x37C3 JUMP JUMPDEST ADDRESS PUSH1 0x0 SWAP1 DUP2 MSTORE PUSH1 0x4 PUSH1 0x20 SWAP1 DUP2 MSTORE PUSH1 0x40 DUP1 DUP4 KECCAK256 SLOAD DUP4 MSTORE PUSH1 0x3 SWAP1 SWAP2 MSTORE SWAP1 KECCAK256 SLOAD PUSH2 0x279E SWAP1 PUSH2 0x2795 SWAP1 DUP7 PUSH2 0x3EC6 JUMP JUMPDEST ADDRESS PUSH1 0x0 SLOAD PUSH2 0x382E JUMP JUMPDEST ADDRESS PUSH1 0x0 SWAP1 DUP2 MSTORE PUSH1 0x4 PUSH1 0x20 MSTORE PUSH1 0x40 SWAP1 KECCAK256 SLOAD PUSH2 0xF25 SWAP1 DUP6 DUP6 DUP6 DUP6 PUSH2 0x34F4 JUMP JUMPDEST PUSH1 0x1 DUP1 SLOAD PUSH1 0xFF AND ISZERO ISZERO EQ PUSH2 0x27E1 JUMPI PUSH1 0x40 MLOAD PUSH3 0x461BCD PUSH1 0xE5 SHL DUP2 MSTORE PUSH1 0x4 ADD PUSH2 0xB2B SWAP1 PUSH2 0x3F67 JUMP JUMPDEST PUSH1 0x0 SLOAD PUSH1 0x40 MLOAD PUSH1 0xF SWAP1 PUSH2 0x27F5 SWAP1 DUP7 SWAP1 PUSH2 0x3F13 JUMP JUMPDEST SWAP1 DUP2 MSTORE PUSH1 0x40 DUP1 MLOAD PUSH1 0x20 SWAP3 DUP2 SWAP1 SUB DUP4 ADD SWAP1 KECCAK256 PUSH1 0x1 PUSH1 0x1 PUSH1 0xA0 SHL SUB DUP7 AND PUSH1 0x0 SWAP1 DUP2 MSTORE SWAP3 MSTORE SWAP1 KECCAK256 SLOAD DUP3 GT ISZERO PUSH2 0x2839 JUMPI PUSH1 0x40 MLOAD PUSH3 0x461BCD PUSH1 0xE5 SHL DUP2 MSTORE PUSH1 0x4 ADD PUSH2 0xB2B SWAP1 PUSH2 0x41E2 JUMP JUMPDEST DUP2 PUSH1 0xF DUP6 PUSH1 0x40 MLOAD PUSH2 0x284A SWAP2 SWAP1 PUSH2 0x3F13 JUMP JUMPDEST SWAP1 DUP2 MSTORE PUSH1 0x20 ADD PUSH1 0x40 MLOAD DUP1 SWAP2 SUB SWAP1 KECCAK256 PUSH1 0x0 DUP6 PUSH1 0x1 PUSH1 0x1 PUSH1 0xA0 SHL SUB AND PUSH1 0x1 PUSH1 0x1 PUSH1 0xA0 SHL SUB AND DUP2 MSTORE PUSH1 0x20 ADD SWAP1 DUP2 MSTORE PUSH1 0x20 ADD PUSH1 0x0 KECCAK256 PUSH1 0x0 DUP3 DUP3 SLOAD PUSH2 0x288A SWAP2 SWAP1 PUSH2 0x3FBC JUMP JUMPDEST SWAP1 SWAP2 SSTORE POP POP PUSH1 0x40 MLOAD PUSH1 0xF SWAP1 PUSH2 0x28A0 SWAP1 DUP7 SWAP1 PUSH2 0x3F13 JUMP JUMPDEST SWAP1 DUP2 MSTORE PUSH1 0x40 DUP1 MLOAD PUSH1 0x20 SWAP3 DUP2 SWAP1 SUB DUP4 ADD SWAP1 KECCAK256 PUSH1 0x1 PUSH1 0x1 PUSH1 0xA0 SHL SUB DUP7 AND PUSH1 0x0 SWAP1 DUP2 MSTORE SWAP3 MSTORE SWAP1 KECCAK256 SLOAD ISZERO DUP1 ISZERO PUSH2 0x28DA JUMPI POP PUSH1 0x1 PUSH1 0x1 PUSH1 0xA0 SHL SUB DUP4 AND ISZERO ISZERO JUMPDEST ISZERO PUSH2 0x2914 JUMPI PUSH1 0x1 PUSH1 0xE DUP6 PUSH1 0x40 MLOAD PUSH2 0x28F1 SWAP2 SWAP1 PUSH2 0x3F13 JUMP JUMPDEST SWAP1 DUP2 MSTORE PUSH1 0x20 ADD PUSH1 0x40 MLOAD DUP1 SWAP2 SUB SWAP1 KECCAK256 PUSH1 0x0 DUP3 DUP3 SLOAD PUSH2 0x290E SWAP2 SWAP1 PUSH2 0x3FBC JUMP JUMPDEST SWAP1 SWAP2 SSTORE POP POP JUMPDEST PUSH1 0x40 DUP1 MLOAD DUP1 DUP3 ADD DUP3 MSTORE PUSH1 0x1 PUSH1 0x1 PUSH1 0xA0 SHL SUB DUP6 DUP2 AND DUP3 MSTORE PUSH1 0x20 DUP1 DUP4 ADD DUP7 DUP2 MSTORE PUSH1 0x0 DUP7 DUP2 MSTORE PUSH1 0x14 DUP4 MSTORE DUP6 DUP2 KECCAK256 SWAP5 MLOAD DUP6 SLOAD PUSH1 0x1 PUSH1 0x1 PUSH1 0xA0 SHL SUB NOT AND SWAP5 AND SWAP4 SWAP1 SWAP4 OR DUP5 SSTORE MLOAD PUSH1 0x1 SWAP4 DUP5 ADD SSTORE PUSH1 0x15 DUP2 MSTORE DUP4 DUP3 KECCAK256 DUP7 SWAP1 SSTORE PUSH1 0x13 DUP2 MSTORE SWAP1 DUP4 SWAP1 KECCAK256 DUP1 SLOAD PUSH1 0xFF NOT AND SWAP1 SWAP3 OR SWAP1 SWAP2 SSTORE SWAP1 MLOAD PUSH1 0x0 DUP1 MLOAD PUSH1 0x20 PUSH2 0x4429 DUP4 CODECOPY DUP2 MLOAD SWAP2 MSTORE SWAP2 PUSH2 0x299B SWAP2 DUP8 SWAP2 DUP8 SWAP2 DUP8 SWAP2 ADD PUSH2 0x41FE JUMP JUMPDEST PUSH1 0x40 DUP1 MLOAD PUSH1 0x1F NOT DUP2 DUP5 SUB ADD DUP2 MSTORE SWAP1 DUP3 SWAP1 MSTORE PUSH2 0x29B7 SWAP2 CALLER SWAP1 PUSH2 0x422C JUMP JUMPDEST PUSH1 0x40 MLOAD DUP1 SWAP2 SUB SWAP1 LOG1 POP POP POP POP JUMP JUMPDEST PUSH2 0x29CE DUP2 PUSH2 0x3952 JUMP JUMPDEST PUSH1 0x40 DUP1 MLOAD PUSH1 0x1 PUSH1 0x1 PUSH1 0xA0 SHL SUB DUP4 AND PUSH1 0x20 DUP3 ADD MSTORE PUSH1 0x0 DUP1 MLOAD PUSH1 0x20 PUSH2 0x4429 DUP4 CODECOPY DUP2 MLOAD SWAP2 MSTORE SWAP2 ADD PUSH1 0x40 DUP1 MLOAD PUSH1 0x1F NOT DUP2 DUP5 SUB ADD DUP2 MSTORE SWAP1 DUP3 SWAP1 MSTORE PUSH2 0x2731 SWAP2 CALLER SWAP1 PUSH2 0x4258 JUMP JUMPDEST PUSH2 0x2A17 DUP2 PUSH2 0x39F8 JUMP JUMPDEST PUSH1 0x40 DUP1 MLOAD PUSH1 0x1 PUSH1 0x1 PUSH1 0xA0 SHL SUB DUP4 AND PUSH1 0x20 DUP3 ADD MSTORE PUSH1 0x0 DUP1 MLOAD PUSH1 0x20 PUSH2 0x4429 DUP4 CODECOPY DUP2 MLOAD SWAP2 MSTORE SWAP2 ADD PUSH1 0x40 DUP1 MLOAD PUSH1 0x1F NOT DUP2 DUP5 SUB ADD DUP2 MSTORE SWAP1 DUP3 SWAP1 MSTORE PUSH2 0x2731 SWAP2 CALLER SWAP1 PUSH2 0x4284 JUMP JUMPDEST PUSH2 0x2A60 DUP3 PUSH2 0x1442 JUMP JUMPDEST PUSH2 0x2A91 JUMPI PUSH1 0x40 MLOAD PUSH3 0x461BCD PUSH1 0xE5 SHL DUP2 MSTORE PUSH1 0x20 PUSH1 0x4 DUP3 ADD MSTORE PUSH1 0x2 PUSH1 0x24 DUP3 ADD MSTORE PUSH2 0x1555 PUSH1 0xF2 SHL PUSH1 0x44 DUP3 ADD MSTORE PUSH1 0x64 ADD PUSH2 0xB2B JUMP JUMPDEST PUSH1 0x40 MLOAD PUSH4 0x6EB1769F PUSH1 0xE1 SHL DUP2 MSTORE CALLER PUSH1 0x4 DUP3 ADD MSTORE ADDRESS PUSH1 0x24 DUP3 ADD MSTORE DUP3 SWAP1 DUP3 SWAP1 PUSH1 0x1 PUSH1 0x1 PUSH1 0xA0 SHL SUB DUP4 AND SWAP1 PUSH4 0xDD62ED3E SWAP1 PUSH1 0x44 ADD PUSH1 0x20 PUSH1 0x40 MLOAD DUP1 DUP4 SUB DUP2 DUP7 GAS STATICCALL ISZERO DUP1 ISZERO PUSH2 0x2ADF JUMPI RETURNDATASIZE PUSH1 0x0 DUP1 RETURNDATACOPY RETURNDATASIZE PUSH1 0x0 REVERT JUMPDEST POP POP POP POP PUSH1 0x40 MLOAD RETURNDATASIZE PUSH1 0x1F NOT PUSH1 0x1F DUP3 ADD AND DUP3 ADD DUP1 PUSH1 0x40 MSTORE POP DUP2 ADD SWAP1 PUSH2 0x2B03 SWAP2 SWAP1 PUSH2 0x3FCF JUMP JUMPDEST LT ISZERO PUSH2 0x2B21 JUMPI PUSH1 0x40 MLOAD PUSH3 0x461BCD PUSH1 0xE5 SHL DUP2 MSTORE PUSH1 0x4 ADD PUSH2 0xB2B SWAP1 PUSH2 0x3FE8 JUMP JUMPDEST PUSH1 0x40 MLOAD PUSH4 0x23B872DD PUSH1 0xE0 SHL DUP2 MSTORE CALLER PUSH1 0x4 DUP3 ADD MSTORE ADDRESS PUSH1 0x24 DUP3 ADD MSTORE PUSH1 0x44 DUP2 ADD DUP4 SWAP1 MSTORE PUSH1 0x1 PUSH1 0x1 PUSH1 0xA0 SHL SUB DUP3 AND SWAP1 PUSH4 0x23B872DD SWAP1 PUSH1 0x64 ADD PUSH1 0x20 PUSH1 0x40 MLOAD DUP1 DUP4 SUB DUP2 PUSH1 0x0 DUP8 GAS CALL ISZERO DUP1 ISZERO PUSH2 0x2B74 JUMPI RETURNDATASIZE PUSH1 0x0 DUP1 RETURNDATACOPY RETURNDATASIZE PUSH1 0x0 REVERT JUMPDEST POP POP POP POP PUSH1 0x40 MLOAD RETURNDATASIZE PUSH1 0x1F NOT PUSH1 0x1F DUP3 ADD AND DUP3 ADD DUP1 PUSH1 0x40 MSTORE POP DUP2 ADD SWAP1 PUSH2 0x2B98 SWAP2 SWAP1 PUSH2 0x4004 JUMP JUMPDEST PUSH2 0x2BB4 JUMPI PUSH1 0x40 MLOAD PUSH3 0x461BCD PUSH1 0xE5 SHL DUP2 MSTORE PUSH1 0x4 ADD PUSH2 0xB2B SWAP1 PUSH2 0x4026 JUMP JUMPDEST PUSH2 0xB3E DUP4 DUP4 CALLER PUSH2 0x955 JUMP JUMPDEST DUP3 PUSH2 0x2BC9 DUP2 PUSH2 0x1632 JUMP JUMPDEST PUSH2 0x2BFB JUMPI PUSH1 0x40 MLOAD PUSH3 0x461BCD PUSH1 0xE5 SHL DUP2 MSTORE PUSH1 0x20 PUSH1 0x4 DUP3 ADD MSTORE PUSH1 0x3 PUSH1 0x24 DUP3 ADD MSTORE PUSH3 0x444E45 PUSH1 0xE8 SHL PUSH1 0x44 DUP3 ADD MSTORE PUSH1 0x64 ADD PUSH2 0xB2B JUMP JUMPDEST PUSH1 0x1 DUP1 SLOAD PUSH1 0xFF AND ISZERO ISZERO EQ PUSH2 0x2C21 JUMPI PUSH1 0x40 MLOAD PUSH3 0x461BCD PUSH1 0xE5 SHL DUP2 MSTORE PUSH1 0x4 ADD PUSH2 0xB2B SWAP1 PUSH2 0x3F67 JUMP JUMPDEST PUSH1 0xF DUP6 PUSH1 0x40 MLOAD PUSH2 0x2C31 SWAP2 SWAP1 PUSH2 0x3F13 JUMP JUMPDEST SWAP1 DUP2 MSTORE PUSH1 0x40 DUP1 MLOAD PUSH1 0x20 SWAP3 DUP2 SWAP1 SUB DUP4 ADD SWAP1 KECCAK256 PUSH1 0x1 PUSH1 0x1 PUSH1 0xA0 SHL SUB DUP7 AND PUSH1 0x0 SWAP1 DUP2 MSTORE SWAP3 MSTORE SWAP1 KECCAK256 SLOAD DUP3 GT ISZERO PUSH2 0x2C75 JUMPI PUSH1 0x40 MLOAD PUSH3 0x461BCD PUSH1 0xE5 SHL DUP2 MSTORE PUSH1 0x4 ADD PUSH2 0xB2B SWAP1 PUSH2 0x41E2 JUMP JUMPDEST DUP2 PUSH1 0xF DUP7 PUSH1 0x40 MLOAD PUSH2 0x2C86 SWAP2 SWAP1 PUSH2 0x3F13 JUMP JUMPDEST SWAP1 DUP2 MSTORE PUSH1 0x20 ADD PUSH1 0x40 MLOAD DUP1 SWAP2 SUB SWAP1 KECCAK256 PUSH1 0x0 DUP6 PUSH1 0x1 PUSH1 0x1 PUSH1 0xA0 SHL SUB AND PUSH1 0x1 PUSH1 0x1 PUSH1 0xA0 SHL SUB AND DUP2 MSTORE PUSH1 0x20 ADD SWAP1 DUP2 MSTORE PUSH1 0x20 ADD PUSH1 0x0 KECCAK256 PUSH1 0x0 DUP3 DUP3 SLOAD PUSH2 0x2CC6 SWAP2 SWAP1 PUSH2 0x3FBC JUMP JUMPDEST SWAP1 SWAP2 SSTORE POP POP PUSH1 0x1 PUSH1 0x1 PUSH1 0xA0 SHL SUB DUP4 AND ISZERO PUSH2 0x2DBA JUMPI PUSH1 0xF DUP6 PUSH1 0x40 MLOAD PUSH2 0x2CEA SWAP2 SWAP1 PUSH2 0x3F13 JUMP JUMPDEST SWAP1 DUP2 MSTORE PUSH1 0x40 DUP1 MLOAD PUSH1 0x20 SWAP3 DUP2 SWAP1 SUB DUP4 ADD SWAP1 KECCAK256 PUSH1 0x1 PUSH1 0x1 PUSH1 0xA0 SHL SUB DUP7 AND PUSH1 0x0 SWAP1 DUP2 MSTORE SWAP3 MSTORE DUP2 KECCAK256 SLOAD SWAP1 SUB PUSH2 0x2D4A JUMPI PUSH1 0x1 PUSH1 0xE DUP7 PUSH1 0x40 MLOAD PUSH2 0x2D27 SWAP2 SWAP1 PUSH2 0x3F13 JUMP JUMPDEST SWAP1 DUP2 MSTORE PUSH1 0x20 ADD PUSH1 0x40 MLOAD DUP1 SWAP2 SUB SWAP1 KECCAK256 PUSH1 0x0 DUP3 DUP3 SLOAD PUSH2 0x2D44 SWAP2 SWAP1 PUSH2 0x3FBC JUMP JUMPDEST SWAP1 SWAP2 SSTORE POP POP JUMPDEST PUSH1 0xF DUP5 PUSH1 0x40 MLOAD PUSH2 0x2D5A SWAP2 SWAP1 PUSH2 0x3F13 JUMP JUMPDEST SWAP1 DUP2 MSTORE PUSH1 0x40 DUP1 MLOAD PUSH1 0x20 SWAP3 DUP2 SWAP1 SUB DUP4 ADD SWAP1 KECCAK256 PUSH1 0x1 PUSH1 0x1 PUSH1 0xA0 SHL SUB DUP7 AND PUSH1 0x0 SWAP1 DUP2 MSTORE SWAP3 MSTORE DUP2 KECCAK256 SLOAD SWAP1 SUB PUSH2 0x2DBA JUMPI PUSH1 0x1 PUSH1 0xE DUP6 PUSH1 0x40 MLOAD PUSH2 0x2D97 SWAP2 SWAP1 PUSH2 0x3F13 JUMP JUMPDEST SWAP1 DUP2 MSTORE PUSH1 0x20 ADD PUSH1 0x40 MLOAD DUP1 SWAP2 SUB SWAP1 KECCAK256 PUSH1 0x0 DUP3 DUP3 SLOAD PUSH2 0x2DB4 SWAP2 SWAP1 PUSH2 0x3EC6 JUMP JUMPDEST SWAP1 SWAP2 SSTORE POP POP JUMPDEST DUP2 PUSH1 0xF DUP6 PUSH1 0x40 MLOAD PUSH2 0x2DCB SWAP2 SWAP1 PUSH2 0x3F13 JUMP JUMPDEST SWAP1 DUP2 MSTORE PUSH1 0x20 ADD PUSH1 0x40 MLOAD DUP1 SWAP2 SUB SWAP1 KECCAK256 PUSH1 0x0 DUP6 PUSH1 0x1 PUSH1 0x1 PUSH1 0xA0 SHL SUB AND PUSH1 0x1 PUSH1 0x1 PUSH1 0xA0 SHL SUB AND DUP2 MSTORE PUSH1 0x20 ADD SWAP1 DUP2 MSTORE PUSH1 0x20 ADD PUSH1 0x0 KECCAK256 PUSH1 0x0 DUP3 DUP3 SLOAD PUSH2 0x2E0B SWAP2 SWAP1 PUSH2 0x3EC6 JUMP JUMPDEST SWAP1 SWAP2 SSTORE POP POP PUSH1 0x40 MLOAD PUSH1 0x0 DUP1 MLOAD PUSH1 0x20 PUSH2 0x4429 DUP4 CODECOPY DUP2 MLOAD SWAP2 MSTORE SWAP1 PUSH2 0x2E37 SWAP1 DUP8 SWAP1 DUP8 SWAP1 DUP8 SWAP1 DUP8 SWAP1 PUSH1 0x20 ADD PUSH2 0x42B0 JUMP JUMPDEST PUSH1 0x40 DUP1 MLOAD PUSH1 0x1F NOT DUP2 DUP5 SUB ADD DUP2 MSTORE SWAP1 DUP3 SWAP1 MSTORE PUSH2 0x12FC SWAP2 CALLER SWAP1 PUSH2 0x42F2 JUMP JUMPDEST PUSH1 0x1 DUP1 SLOAD PUSH1 0xFF AND ISZERO ISZERO EQ PUSH2 0x2E79 JUMPI PUSH1 0x40 MLOAD PUSH3 0x461BCD PUSH1 0xE5 SHL DUP2 MSTORE PUSH1 0x4 ADD PUSH2 0xB2B SWAP1 PUSH2 0x3F67 JUMP JUMPDEST PUSH2 0x2E9D PUSH1 0x40 MLOAD DUP1 PUSH1 0x40 ADD PUSH1 0x40 MSTORE DUP1 PUSH1 0x2 DUP2 MSTORE PUSH1 0x20 ADD PUSH2 0x36A1 PUSH1 0xF1 SHL DUP2 MSTORE POP DUP3 PUSH2 0x1739 JUMP JUMPDEST PUSH2 0x2ECE JUMPI PUSH1 0x40 MLOAD PUSH3 0x461BCD PUSH1 0xE5 SHL DUP2 MSTORE PUSH1 0x20 PUSH1 0x4 DUP3 ADD MSTORE PUSH1 0x2 PUSH1 0x24 DUP3 ADD MSTORE PUSH2 0x4E5 PUSH1 0xF4 SHL PUSH1 0x44 DUP3 ADD MSTORE PUSH1 0x64 ADD PUSH2 0xB2B JUMP JUMPDEST PUSH1 0x1 PUSH1 0x10 DUP4 PUSH1 0x40 MLOAD PUSH2 0x2EE0 SWAP2 SWAP1 PUSH2 0x3F13 JUMP JUMPDEST SWAP1 DUP2 MSTORE PUSH1 0x40 DUP1 MLOAD PUSH1 0x20 SWAP3 DUP2 SWAP1 SUB DUP4 ADD DUP2 KECCAK256 PUSH1 0x1 PUSH1 0x1 PUSH1 0xA0 SHL SUB DUP7 AND PUSH1 0x0 SWAP1 DUP2 MSTORE SWAP1 DUP5 MSTORE SWAP2 SWAP1 SWAP2 KECCAK256 DUP1 SLOAD PUSH1 0xFF NOT AND SWAP4 ISZERO ISZERO SWAP4 SWAP1 SWAP4 OR SWAP1 SWAP3 SSTORE PUSH1 0x0 DUP1 MLOAD PUSH1 0x20 PUSH2 0x4429 DUP4 CODECOPY DUP2 MLOAD SWAP2 MSTORE SWAP2 PUSH2 0x2F35 SWAP2 DUP6 SWAP2 DUP6 SWAP2 ADD PUSH2 0x4121 JUMP JUMPDEST PUSH1 0x40 DUP1 MLOAD PUSH1 0x1F NOT DUP2 DUP5 SUB ADD DUP2 MSTORE SWAP1 DUP3 SWAP1 MSTORE PUSH2 0x1FAC SWAP2 CALLER SWAP1 PUSH2 0x431E JUMP JUMPDEST DUP3 PUSH2 0x2F6B DUP2 PUSH1 0x0 DUP1 SLOAD SWAP2 DUP2 MSTORE PUSH1 0x7 PUSH1 0x20 MSTORE PUSH1 0x40 SWAP1 KECCAK256 SLOAD GT SWAP1 JUMP JUMPDEST PUSH2 0x2F87 JUMPI PUSH1 0x40 MLOAD PUSH3 0x461BCD PUSH1 0xE5 SHL DUP2 MSTORE PUSH1 0x4 ADD PUSH2 0xB2B SWAP1 PUSH2 0x3F4B JUMP JUMPDEST PUSH1 0x1 DUP1 SLOAD PUSH1 0xFF AND ISZERO ISZERO EQ PUSH2 0x2FAD JUMPI PUSH1 0x40 MLOAD PUSH3 0x461BCD PUSH1 0xE5 SHL DUP2 MSTORE PUSH1 0x4 ADD PUSH2 0xB2B SWAP1 PUSH2 0x3F67 JUMP JUMPDEST PUSH1 0x0 DUP5 DUP2 MSTORE PUSH1 0x3 PUSH1 0x20 MSTORE PUSH1 0x40 SWAP1 KECCAK256 SLOAD DUP4 GT ISZERO PUSH2 0x2FF0 JUMPI PUSH1 0x40 MLOAD PUSH3 0x461BCD PUSH1 0xE5 SHL DUP2 MSTORE PUSH1 0x20 PUSH1 0x4 DUP3 ADD MSTORE PUSH1 0x2 PUSH1 0x24 DUP3 ADD MSTORE PUSH2 0x4941 PUSH1 0xF0 SHL PUSH1 0x44 DUP3 ADD MSTORE PUSH1 0x64 ADD PUSH2 0xB2B JUMP JUMPDEST PUSH2 0x2FF9 DUP3 PUSH2 0x1DD3 JUMP JUMPDEST ISZERO PUSH2 0x3068 JUMPI PUSH1 0x1 PUSH1 0x1 PUSH1 0xA0 SHL SUB DUP3 AND PUSH1 0x0 SWAP1 DUP2 MSTORE PUSH1 0x4 PUSH1 0x20 SWAP1 DUP2 MSTORE PUSH1 0x40 DUP1 DUP4 KECCAK256 SLOAD DUP4 MSTORE PUSH1 0x3 SWAP1 SWAP2 MSTORE DUP2 KECCAK256 SLOAD PUSH2 0x302E SWAP1 DUP6 PUSH2 0x3EC6 JUMP JUMPDEST SWAP1 POP PUSH2 0x303D DUP2 DUP5 PUSH1 0x0 SLOAD PUSH2 0x382E JUMP JUMPDEST PUSH1 0x1 PUSH1 0x1 PUSH1 0xA0 SHL SUB DUP4 AND PUSH1 0x0 SWAP1 DUP2 MSTORE PUSH1 0x4 PUSH1 0x20 MSTORE PUSH1 0x40 DUP2 KECCAK256 SLOAD SWAP1 SLOAD PUSH2 0x3062 SWAP2 SWAP1 PUSH2 0x37C3 JUMP JUMPDEST POP PUSH2 0x3075 JUMP JUMPDEST PUSH2 0x3075 DUP4 DUP4 PUSH1 0x0 SLOAD PUSH2 0x382E JUMP JUMPDEST PUSH2 0x3081 DUP5 PUSH1 0x0 SLOAD PUSH2 0x37C3 JUMP JUMPDEST PUSH1 0x0 DUP5 DUP2 MSTORE PUSH1 0x3 PUSH1 0x20 MSTORE PUSH1 0x40 DUP2 KECCAK256 SLOAD PUSH2 0x309B SWAP1 DUP6 SWAP1 PUSH2 0x3FBC JUMP JUMPDEST SWAP1 POP DUP1 ISZERO PUSH2 0x30CE JUMPI PUSH1 0x0 DUP6 DUP2 MSTORE PUSH1 0x3 PUSH1 0x20 MSTORE PUSH1 0x40 DUP2 KECCAK256 PUSH1 0x1 ADD SLOAD SWAP1 SLOAD PUSH2 0x30CE SWAP2 DUP4 SWAP2 PUSH1 0x1 PUSH1 0x1 PUSH1 0xA0 SHL SUB SWAP1 SWAP2 AND SWAP1 PUSH2 0x382E JUMP JUMPDEST PUSH1 0x40 DUP1 MLOAD DUP7 DUP2 MSTORE PUSH1 0x20 DUP2 ADD DUP7 SWAP1 MSTORE PUSH1 0x1 PUSH1 0x1 PUSH1 0xA0 SHL SUB DUP6 AND DUP2 DUP4 ADD MSTORE PUSH1 0x0 PUSH1 0x60 DUP3 ADD DUP2 SWAP1 MSTORE PUSH1 0x80 DUP3 ADD MSTORE SWAP1 MLOAD PUSH32 0x443732A78C29282934211EAE7AA500DD12DB85D4DD795DBCDA5F94EE19A67E4F SWAP2 DUP2 SWAP1 SUB PUSH1 0xA0 ADD SWAP1 LOG1 POP PUSH1 0x0 DUP1 SLOAD DUP1 DUP3 MSTORE PUSH1 0x2 PUSH1 0x20 DUP2 SWAP1 MSTORE PUSH1 0x40 DUP4 KECCAK256 SLOAD SWAP3 SWAP1 SWAP2 PUSH2 0x3146 SWAP1 PUSH1 0x1 PUSH2 0x3EC6 JUMP JUMPDEST DUP2 MSTORE PUSH1 0x20 ADD SWAP1 DUP2 MSTORE PUSH1 0x20 ADD PUSH1 0x0 KECCAK256 DUP2 SWAP1 SSTORE POP PUSH1 0x0 DUP1 DUP2 SLOAD DUP1 SWAP3 SWAP2 SWAP1 PUSH2 0x316A SWAP1 PUSH2 0x434A JUMP JUMPDEST SWAP2 SWAP1 POP SSTORE POP POP POP POP POP JUMP JUMPDEST PUSH1 0x1 DUP1 SLOAD PUSH1 0xFF AND ISZERO ISZERO EQ PUSH2 0x319B JUMPI PUSH1 0x40 MLOAD PUSH3 0x461BCD PUSH1 0xE5 SHL DUP2 MSTORE PUSH1 0x4 ADD PUSH2 0xB2B SWAP1 PUSH2 0x3F67 JUMP JUMPDEST DUP1 PUSH1 0x11 DUP5 PUSH1 0x40 MLOAD PUSH2 0x31AC SWAP2 SWAP1 PUSH2 0x3F13 JUMP JUMPDEST SWAP1 DUP2 MSTORE PUSH1 0x40 DUP1 MLOAD PUSH1 0x20 SWAP3 DUP2 SWAP1 SUB DUP4 ADD SWAP1 KECCAK256 PUSH1 0x1 PUSH1 0x1 PUSH1 0xA0 SHL SUB DUP7 AND PUSH1 0x0 SWAP1 DUP2 MSTORE SWAP3 MSTORE SWAP1 KECCAK256 DUP1 SLOAD PUSH1 0xFF NOT AND PUSH1 0x1 DUP4 PUSH1 0x2 DUP2 GT ISZERO PUSH2 0x31EA JUMPI PUSH2 0x31EA PUSH2 0x3ED9 JUMP JUMPDEST MUL OR SWAP1 SSTORE POP PUSH1 0x0 DUP1 MLOAD PUSH1 0x20 PUSH2 0x4429 DUP4 CODECOPY DUP2 MLOAD SWAP2 MSTORE DUP4 DUP4 DUP4 PUSH1 0x40 MLOAD PUSH1 0x20 ADD PUSH2 0x3213 SWAP4 SWAP3 SWAP2 SWAP1 PUSH2 0x4363 JUMP JUMPDEST PUSH1 0x40 DUP1 MLOAD PUSH1 0x1F NOT DUP2 DUP5 SUB ADD DUP2 MSTORE SWAP1 DUP3 SWAP1 MSTORE PUSH2 0xA96 SWAP2 CALLER SWAP1 PUSH2 0x4394 JUMP JUMPDEST PUSH1 0x1 DUP1 SLOAD PUSH1 0xFF AND ISZERO ISZERO EQ PUSH2 0x3255 JUMPI PUSH1 0x40 MLOAD PUSH3 0x461BCD PUSH1 0xE5 SHL DUP2 MSTORE PUSH1 0x4 ADD PUSH2 0xB2B SWAP1 PUSH2 0x3F67 JUMP JUMPDEST PUSH1 0xF DUP5 PUSH1 0x40 MLOAD PUSH2 0x3265 SWAP2 SWAP1 PUSH2 0x3F13 JUMP JUMPDEST SWAP1 DUP2 MSTORE PUSH1 0x40 DUP1 MLOAD PUSH1 0x20 SWAP3 DUP2 SWAP1 SUB DUP4 ADD SWAP1 KECCAK256 PUSH1 0x1 PUSH1 0x1 PUSH1 0xA0 SHL SUB DUP7 AND PUSH1 0x0 SWAP1 DUP2 MSTORE SWAP3 MSTORE SWAP1 KECCAK256 SLOAD DUP3 GT ISZERO PUSH2 0x32A9 JUMPI PUSH1 0x40 MLOAD PUSH3 0x461BCD PUSH1 0xE5 SHL DUP2 MSTORE PUSH1 0x4 ADD PUSH2 0xB2B SWAP1 PUSH2 0x41E2 JUMP JUMPDEST PUSH2 0x32B4 DUP4 DUP4 DUP4 PUSH2 0x2059 JUMP JUMPDEST DUP2 PUSH1 0xF DUP6 PUSH1 0x40 MLOAD PUSH2 0x32C5 SWAP2 SWAP1 PUSH2 0x3F13 JUMP JUMPDEST SWAP1 DUP2 MSTORE PUSH1 0x20 ADD PUSH1 0x40 MLOAD DUP1 SWAP2 SUB SWAP1 KECCAK256 PUSH1 0x0 DUP6 PUSH1 0x1 PUSH1 0x1 PUSH1 0xA0 SHL SUB AND PUSH1 0x1 PUSH1 0x1 PUSH1 0xA0 SHL SUB AND DUP2 MSTORE PUSH1 0x20 ADD SWAP1 DUP2 MSTORE PUSH1 0x20 ADD PUSH1 0x0 KECCAK256 PUSH1 0x0 DUP3 DUP3 SLOAD PUSH2 0x3305 SWAP2 SWAP1 PUSH2 0x3FBC JUMP JUMPDEST SWAP1 SWAP2 SSTORE POP POP PUSH1 0x40 MLOAD PUSH1 0xF SWAP1 PUSH2 0x331B SWAP1 DUP7 SWAP1 PUSH2 0x3F13 JUMP JUMPDEST SWAP1 DUP2 MSTORE PUSH1 0x40 DUP1 MLOAD PUSH1 0x20 SWAP3 DUP2 SWAP1 SUB DUP4 ADD SWAP1 KECCAK256 PUSH1 0x1 PUSH1 0x1 PUSH1 0xA0 SHL SUB DUP7 AND PUSH1 0x0 SWAP1 DUP2 MSTORE SWAP3 MSTORE SWAP1 KECCAK256 SLOAD ISZERO DUP1 ISZERO PUSH2 0x3355 JUMPI POP PUSH1 0x1 PUSH1 0x1 PUSH1 0xA0 SHL SUB DUP4 AND ISZERO ISZERO JUMPDEST ISZERO PUSH2 0x338F JUMPI PUSH1 0x1 PUSH1 0xE DUP6 PUSH1 0x40 MLOAD PUSH2 0x336C SWAP2 SWAP1 PUSH2 0x3F13 JUMP JUMPDEST SWAP1 DUP2 MSTORE PUSH1 0x20 ADD PUSH1 0x40 MLOAD DUP1 SWAP2 SUB SWAP1 KECCAK256 PUSH1 0x0 DUP3 DUP3 SLOAD PUSH2 0x3389 SWAP2 SWAP1 PUSH2 0x3FBC JUMP JUMPDEST SWAP1 SWAP2 SSTORE POP POP JUMPDEST PUSH1 0x0 DUP1 MLOAD PUSH1 0x20 PUSH2 0x4429 DUP4 CODECOPY DUP2 MLOAD SWAP2 MSTORE DUP5 DUP5 DUP5 DUP5 PUSH1 0x40 MLOAD PUSH1 0x20 ADD PUSH2 0x33B5 SWAP5 SWAP4 SWAP3 SWAP2 SWAP1 PUSH2 0x43C0 JUMP JUMPDEST PUSH1 0x40 DUP1 MLOAD PUSH1 0x1F NOT DUP2 DUP5 SUB ADD DUP2 MSTORE SWAP1 DUP3 SWAP1 MSTORE PUSH2 0x29B7 SWAP2 CALLER SWAP1 PUSH2 0x43FC JUMP JUMPDEST PUSH1 0x0 DUP1 PUSH1 0x0 DUP5 DUP5 GT PUSH2 0x33E2 JUMPI PUSH1 0x0 DUP1 REVERT JUMPDEST PUSH1 0x0 DUP5 PUSH2 0x33EF DUP8 DUP10 PUSH2 0x3F83 JUMP JUMPDEST PUSH2 0x33F9 SWAP2 SWAP1 PUSH2 0x3F9A JUMP JUMPDEST SWAP1 POP PUSH1 0x0 DUP6 PUSH2 0x3408 DUP9 DUP3 PUSH2 0x3FBC JUMP JUMPDEST PUSH2 0x3412 SWAP1 DUP11 PUSH2 0x3F83 JUMP JUMPDEST PUSH2 0x341C SWAP2 SWAP1 PUSH2 0x3F9A JUMP JUMPDEST SWAP1 POP DUP2 DUP2 PUSH2 0x342A DUP2 DUP4 PUSH2 0x3EC6 JUMP JUMPDEST PUSH2 0x3434 SWAP1 DUP12 PUSH2 0x3FBC JUMP JUMPDEST SWAP5 POP SWAP5 POP SWAP5 POP POP POP SWAP4 POP SWAP4 POP SWAP4 SWAP1 POP JUMP JUMPDEST ADDRESS PUSH1 0x1 PUSH1 0x1 PUSH1 0xA0 SHL SUB DUP5 AND SUB PUSH2 0x345F JUMPI PUSH2 0xB3E DUP3 DUP3 PUSH2 0x2A57 JUMP JUMPDEST PUSH1 0x40 MLOAD PUSH4 0x23B872DD PUSH1 0xE0 SHL DUP2 MSTORE CALLER PUSH1 0x4 DUP3 ADD MSTORE ADDRESS PUSH1 0x24 DUP3 ADD MSTORE PUSH1 0x44 DUP2 ADD DUP3 SWAP1 MSTORE DUP3 SWAP1 PUSH1 0x1 PUSH1 0x1 PUSH1 0xA0 SHL SUB DUP3 AND SWAP1 PUSH4 0x23B872DD SWAP1 PUSH1 0x64 ADD PUSH1 0x20 PUSH1 0x40 MLOAD DUP1 DUP4 SUB DUP2 PUSH1 0x0 DUP8 GAS CALL ISZERO DUP1 ISZERO PUSH2 0x34B4 JUMPI RETURNDATASIZE PUSH1 0x0 DUP1 RETURNDATACOPY RETURNDATASIZE PUSH1 0x0 REVERT JUMPDEST POP POP POP POP PUSH1 0x40 MLOAD RETURNDATASIZE PUSH1 0x1F NOT PUSH1 0x1F DUP3 ADD AND DUP3 ADD DUP1 PUSH1 0x40 MSTORE POP DUP2 ADD SWAP1 PUSH2 0x34D8 SWAP2 SWAP1 PUSH2 0x4004 JUMP JUMPDEST PUSH2 0xF25 JUMPI PUSH1 0x40 MLOAD PUSH3 0x461BCD PUSH1 0xE5 SHL DUP2 MSTORE PUSH1 0x4 ADD PUSH2 0xB2B SWAP1 PUSH2 0x4026 JUMP JUMPDEST DUP5 PUSH2 0x350E DUP2 PUSH1 0x0 DUP1 SLOAD SWAP2 DUP2 MSTORE PUSH1 0x7 PUSH1 0x20 MSTORE PUSH1 0x40 SWAP1 KECCAK256 SLOAD GT SWAP1 JUMP JUMPDEST PUSH2 0x352A JUMPI PUSH1 0x40 MLOAD PUSH3 0x461BCD PUSH1 0xE5 SHL DUP2 MSTORE PUSH1 0x4 ADD PUSH2 0xB2B SWAP1 PUSH2 0x3F4B JUMP JUMPDEST PUSH1 0x1 DUP1 SLOAD PUSH1 0xFF AND ISZERO ISZERO EQ PUSH2 0x3550 JUMPI PUSH1 0x40 MLOAD PUSH3 0x461BCD PUSH1 0xE5 SHL DUP2 MSTORE PUSH1 0x4 ADD PUSH2 0xB2B SWAP1 PUSH2 0x3F67 JUMP JUMPDEST PUSH1 0x0 DUP7 DUP2 MSTORE PUSH1 0x5 PUSH1 0x20 MSTORE PUSH1 0x40 SWAP1 KECCAK256 SLOAD PUSH1 0xFF AND ISZERO PUSH2 0x356C JUMPI PUSH1 0x0 DUP1 REVERT JUMPDEST PUSH1 0x0 DUP7 DUP2 MSTORE PUSH1 0x3 PUSH1 0x20 MSTORE PUSH1 0x40 SWAP1 KECCAK256 SLOAD DUP6 GT ISZERO PUSH2 0x35AF JUMPI PUSH1 0x40 MLOAD PUSH3 0x461BCD PUSH1 0xE5 SHL DUP2 MSTORE PUSH1 0x20 PUSH1 0x4 DUP3 ADD MSTORE PUSH1 0x2 PUSH1 0x24 DUP3 ADD MSTORE PUSH2 0x4941 PUSH1 0xF0 SHL PUSH1 0x44 DUP3 ADD MSTORE PUSH1 0x64 ADD PUSH2 0xB2B JUMP JUMPDEST PUSH1 0x40 DUP1 MLOAD PUSH1 0x80 DUP2 ADD DUP3 MSTORE DUP7 DUP2 MSTORE PUSH1 0x1 PUSH1 0x1 PUSH1 0xA0 SHL SUB DUP1 DUP8 AND PUSH1 0x20 DUP1 DUP5 ADD SWAP2 DUP3 MSTORE DUP4 DUP6 ADD DUP9 DUP2 MSTORE DUP8 DUP5 AND PUSH1 0x60 DUP7 ADD SWAP1 DUP2 MSTORE PUSH1 0x0 DUP14 DUP2 MSTORE PUSH1 0x6 DUP5 MSTORE DUP8 DUP2 KECCAK256 SWAP7 MLOAD DUP8 SSTORE SWAP4 MLOAD PUSH1 0x1 DUP1 DUP9 ADD DUP1 SLOAD SWAP3 DUP9 AND PUSH1 0x1 PUSH1 0x1 PUSH1 0xA0 SHL SUB NOT SWAP4 DUP5 AND OR SWAP1 SSTORE SWAP3 MLOAD PUSH1 0x2 DUP9 ADD SSTORE SWAP1 MLOAD PUSH1 0x3 SWAP1 SWAP7 ADD DUP1 SLOAD SWAP7 SWAP1 SWAP6 AND SWAP6 AND SWAP5 SWAP1 SWAP5 OR SWAP1 SWAP3 SSTORE PUSH1 0x5 SWAP1 SWAP2 MSTORE DUP3 SWAP1 KECCAK256 DUP1 SLOAD PUSH1 0xFF NOT AND SWAP1 SWAP2 OR SWAP1 SSTORE MLOAD PUSH32 0x4126DE2C73B6B69D46D3290EE98241C5C18CE39A61B29E4E91F877A6D56BB213 SWAP1 PUSH2 0x3697 SWAP1 DUP9 SWAP1 DUP9 SWAP1 DUP9 SWAP1 DUP9 SWAP1 DUP9 SWAP1 SWAP5 DUP6 MSTORE PUSH1 0x20 DUP6 ADD SWAP4 SWAP1 SWAP4 MSTORE PUSH1 0x1 PUSH1 0x1 PUSH1 0xA0 SHL SUB SWAP2 DUP3 AND PUSH1 0x40 DUP6 ADD MSTORE PUSH1 0x60 DUP5 ADD MSTORE AND PUSH1 0x80 DUP3 ADD MSTORE PUSH1 0xA0 ADD SWAP1 JUMP JUMPDEST PUSH1 0x40 MLOAD DUP1 SWAP2 SUB SWAP1 LOG1 POP POP POP POP POP POP JUMP JUMPDEST PUSH1 0x1 DUP1 SLOAD PUSH1 0xFF AND ISZERO ISZERO EQ PUSH2 0x36CD JUMPI PUSH1 0x40 MLOAD PUSH3 0x461BCD PUSH1 0xE5 SHL DUP2 MSTORE PUSH1 0x4 ADD PUSH2 0xB2B SWAP1 PUSH2 0x3F67 JUMP JUMPDEST PUSH1 0x1 DUP1 SLOAD PUSH1 0xFF NOT AND SWAP1 SSTORE TIMESTAMP PUSH1 0xA SSTORE JUMP JUMPDEST PUSH1 0x0 DUP2 PUSH1 0x1 PUSH1 0x1 PUSH1 0xA0 SHL SUB AND DUP4 PUSH1 0x40 MLOAD PUSH1 0x0 PUSH1 0x40 MLOAD DUP1 DUP4 SUB DUP2 DUP6 DUP8 GAS CALL SWAP3 POP POP POP RETURNDATASIZE DUP1 PUSH1 0x0 DUP2 EQ PUSH2 0x372A JUMPI PUSH1 0x40 MLOAD SWAP2 POP PUSH1 0x1F NOT PUSH1 0x3F RETURNDATASIZE ADD AND DUP3 ADD PUSH1 0x40 MSTORE RETURNDATASIZE DUP3 MSTORE RETURNDATASIZE PUSH1 0x0 PUSH1 0x20 DUP5 ADD RETURNDATACOPY PUSH2 0x372F JUMP JUMPDEST PUSH1 0x60 SWAP2 POP JUMPDEST POP POP SWAP1 POP DUP1 PUSH2 0xB3E JUMPI PUSH1 0x40 MLOAD PUSH3 0x461BCD PUSH1 0xE5 SHL DUP2 MSTORE PUSH1 0x20 PUSH1 0x4 DUP3 ADD MSTORE PUSH1 0x2 PUSH1 0x24 DUP3 ADD MSTORE PUSH2 0x2A23 PUSH1 0xF1 SHL PUSH1 0x44 DUP3 ADD MSTORE PUSH1 0x64 ADD PUSH2 0xB2B JUMP JUMPDEST PUSH1 0x1 PUSH1 0x1 PUSH1 0xA0 SHL SUB DUP3 AND PUSH1 0x0 SWAP1 DUP2 MSTORE PUSH1 0x9 PUSH1 0x20 MSTORE PUSH1 0x40 DUP2 KECCAK256 DUP1 SLOAD DUP4 SWAP3 SWAP1 PUSH2 0x378D SWAP1 DUP5 SWAP1 PUSH2 0x3FBC JUMP JUMPDEST SWAP1 SWAP2 SSTORE POP POP PUSH1 0x1 PUSH1 0x1 PUSH1 0xA0 SHL SUB DUP3 AND PUSH1 0x0 SWAP1 DUP2 MSTORE PUSH1 0xB PUSH1 0x20 MSTORE PUSH1 0x40 DUP2 KECCAK256 DUP1 SLOAD DUP4 SWAP3 SWAP1 PUSH2 0x37BA SWAP1 DUP5 SWAP1 PUSH2 0x3FBC JUMP JUMPDEST SWAP1 SWAP2 SSTORE POP POP POP POP JUMP JUMPDEST PUSH1 0x0 DUP3 DUP2 MSTORE PUSH1 0x3 PUSH1 0x20 SWAP1 DUP2 MSTORE PUSH1 0x40 DUP1 DUP4 KECCAK256 PUSH1 0x1 ADD SLOAD PUSH1 0x1 PUSH1 0x1 PUSH1 0xA0 SHL SUB AND DUP4 MSTORE PUSH1 0x4 DUP3 MSTORE DUP1 DUP4 KECCAK256 DUP4 SWAP1 SSTORE DUP5 DUP4 MSTORE PUSH1 0x7 DUP3 MSTORE SWAP2 DUP3 SWAP1 KECCAK256 DUP4 SWAP1 SSTORE DUP2 MLOAD DUP5 DUP2 MSTORE SWAP1 DUP2 ADD DUP4 SWAP1 MSTORE PUSH32 0xA3DEAFDE27C3FFDE83F038B337D8B0405D225455AE09FBED6A211EF4EE465F4F SWAP2 ADD PUSH2 0x1FAC JUMP JUMPDEST PUSH1 0x0 DUP4 GT PUSH2 0x3863 JUMPI PUSH1 0x40 MLOAD PUSH3 0x461BCD PUSH1 0xE5 SHL DUP2 MSTORE PUSH1 0x20 PUSH1 0x4 DUP3 ADD MSTORE PUSH1 0x2 PUSH1 0x24 DUP3 ADD MSTORE PUSH2 0x29AD PUSH1 0xF1 SHL PUSH1 0x44 DUP3 ADD MSTORE PUSH1 0x64 ADD PUSH2 0xB2B JUMP JUMPDEST PUSH1 0x40 MLOAD PUSH12 0xFFFFFFFFFFFFFFFFFFFFFFFF NOT PUSH1 0x60 DUP5 SWAP1 SHL AND PUSH1 0x20 DUP3 ADD MSTORE PUSH1 0x34 DUP2 ADD DUP3 SWAP1 MSTORE PUSH1 0x0 SWAP1 PUSH1 0x54 ADD PUSH1 0x40 DUP1 MLOAD DUP1 DUP4 SUB PUSH1 0x1F NOT ADD DUP2 MSTORE DUP3 DUP3 MSTORE DUP1 MLOAD PUSH1 0x20 SWAP2 DUP3 ADD KECCAK256 PUSH1 0x1 PUSH1 0x1 PUSH1 0xA0 SHL SUB DUP8 DUP2 AND PUSH1 0x0 DUP2 DUP2 MSTORE PUSH1 0x4 DUP6 MSTORE DUP6 DUP2 KECCAK256 DUP5 SWAP1 SSTORE DUP4 DUP2 MSTORE PUSH1 0x7 DUP6 MSTORE DUP6 DUP2 KECCAK256 PUSH1 0x0 NOT SWAP1 SSTORE PUSH1 0x60 DUP1 DUP9 ADD DUP8 MSTORE DUP12 DUP9 MSTORE DUP6 DUP9 ADD DUP4 DUP2 MSTORE DUP9 DUP9 ADD DUP12 DUP2 MSTORE DUP7 DUP5 MSTORE PUSH1 0x3 DUP9 MSTORE SWAP3 DUP9 SWAP1 KECCAK256 SWAP9 MLOAD DUP10 SSTORE MLOAD PUSH1 0x1 DUP10 ADD DUP1 SLOAD PUSH1 0x1 PUSH1 0x1 PUSH1 0xA0 SHL SUB NOT AND SWAP2 SWAP1 SWAP6 AND OR SWAP1 SWAP4 SSTORE MLOAD PUSH1 0x2 SWAP1 SWAP7 ADD SWAP6 SWAP1 SWAP6 SSTORE DUP4 MLOAD DUP3 DUP2 MSTORE SWAP3 DUP4 ADD SWAP5 SWAP1 SWAP5 MSTORE SWAP2 DUP2 ADD DUP6 SWAP1 MSTORE SWAP1 SWAP3 POP PUSH32 0x90E88E994885F1CDD31D3393F0B012E817804FC9D2ADEF69D0D7E5053D1E29AD SWAP2 ADD PUSH2 0x29B7 JUMP JUMPDEST PUSH2 0x395B DUP2 PUSH2 0x1442 JUMP JUMPDEST PUSH2 0x398C JUMPI PUSH1 0x40 MLOAD PUSH3 0x461BCD PUSH1 0xE5 SHL DUP2 MSTORE PUSH1 0x20 PUSH1 0x4 DUP3 ADD MSTORE PUSH1 0x2 PUSH1 0x24 DUP3 ADD MSTORE PUSH2 0x1555 PUSH1 0xF2 SHL PUSH1 0x44 DUP3 ADD MSTORE PUSH1 0x64 ADD PUSH2 0xB2B JUMP JUMPDEST PUSH1 0x1 PUSH1 0x1 PUSH1 0xA0 SHL SUB DUP2 AND PUSH1 0x0 SWAP1 DUP2 MSTORE PUSH1 0x9 PUSH1 0x20 MSTORE PUSH1 0x40 SWAP1 KECCAK256 SLOAD ISZERO PUSH2 0x39D7 JUMPI PUSH1 0x40 MLOAD PUSH3 0x461BCD PUSH1 0xE5 SHL DUP2 MSTORE PUSH1 0x20 PUSH1 0x4 DUP3 ADD MSTORE PUSH1 0x2 PUSH1 0x24 DUP3 ADD MSTORE PUSH2 0x272D PUSH1 0xF1 SHL PUSH1 0x44 DUP3 ADD MSTORE PUSH1 0x64 ADD PUSH2 0xB2B JUMP JUMPDEST PUSH1 0x1 PUSH1 0x1 PUSH1 0xA0 SHL SUB AND PUSH1 0x0 SWAP1 DUP2 MSTORE PUSH1 0x8 PUSH1 0x20 MSTORE PUSH1 0x40 SWAP1 KECCAK256 DUP1 SLOAD PUSH1 0xFF NOT AND SWAP1 SSTORE JUMP JUMPDEST PUSH2 0x3A01 DUP2 PUSH2 0x1442 JUMP JUMPDEST ISZERO PUSH2 0x3A33 JUMPI PUSH1 0x40 MLOAD PUSH3 0x461BCD PUSH1 0xE5 SHL DUP2 MSTORE PUSH1 0x20 PUSH1 0x4 DUP3 ADD MSTORE PUSH1 0x2 PUSH1 0x24 DUP3 ADD MSTORE PUSH2 0x20A9 PUSH1 0xF1 SHL PUSH1 0x44 DUP3 ADD MSTORE PUSH1 0x64 ADD PUSH2 0xB2B JUMP JUMPDEST PUSH1 0x1 PUSH1 0x1 PUSH1 0xA0 SHL SUB AND PUSH1 0x0 SWAP1 DUP2 MSTORE PUSH1 0x8 PUSH1 0x20 MSTORE PUSH1 0x40 SWAP1 KECCAK256 DUP1 SLOAD PUSH1 0xFF NOT AND PUSH1 0x1 OR SWAP1 SSTORE JUMP JUMPDEST PUSH4 0x4E487B71 PUSH1 0xE0 SHL PUSH1 0x0 MSTORE PUSH1 0x41 PUSH1 0x4 MSTORE PUSH1 0x24 PUSH1 0x0 REVERT JUMPDEST PUSH1 0x0 DUP3 PUSH1 0x1F DUP4 ADD SLT PUSH2 0x3A7E JUMPI PUSH1 0x0 DUP1 REVERT JUMPDEST DUP2 CALLDATALOAD PUSH8 0xFFFFFFFFFFFFFFFF DUP1 DUP3 GT ISZERO PUSH2 0x3A99 JUMPI PUSH2 0x3A99 PUSH2 0x3A57 JUMP JUMPDEST PUSH1 0x40 MLOAD PUSH1 0x1F DUP4 ADD PUSH1 0x1F NOT SWAP1 DUP2 AND PUSH1 0x3F ADD AND DUP2 ADD SWAP1 DUP3 DUP3 GT DUP2 DUP4 LT OR ISZERO PUSH2 0x3AC1 JUMPI PUSH2 0x3AC1 PUSH2 0x3A57 JUMP JUMPDEST DUP2 PUSH1 0x40 MSTORE DUP4 DUP2 MSTORE DUP7 PUSH1 0x20 DUP6 DUP9 ADD ADD GT ISZERO PUSH2 0x3ADA JUMPI PUSH1 0x0 DUP1 REVERT JUMPDEST DUP4 PUSH1 0x20 DUP8 ADD PUSH1 0x20 DUP4 ADD CALLDATACOPY PUSH1 0x0 PUSH1 0x20 DUP6 DUP4 ADD ADD MSTORE DUP1 SWAP5 POP POP POP POP POP SWAP3 SWAP2 POP POP JUMP JUMPDEST DUP1 CALLDATALOAD PUSH1 0x3 DUP2 LT PUSH2 0x3B09 JUMPI PUSH1 0x0 DUP1 REVERT JUMPDEST SWAP2 SWAP1 POP JUMP JUMPDEST PUSH1 0x0 DUP1 PUSH1 0x40 DUP4 DUP6 SUB SLT ISZERO PUSH2 0x3B21 JUMPI PUSH1 0x0 DUP1 REVERT JUMPDEST DUP3 CALLDATALOAD PUSH8 0xFFFFFFFFFFFFFFFF DUP2 GT ISZERO PUSH2 0x3B38 JUMPI PUSH1 0x0 DUP1 REVERT JUMPDEST PUSH2 0x3B44 DUP6 DUP3 DUP7 ADD PUSH2 0x3A6D JUMP JUMPDEST SWAP3 POP POP PUSH2 0x3B53 PUSH1 0x20 DUP5 ADD PUSH2 0x3AFA JUMP JUMPDEST SWAP1 POP SWAP3 POP SWAP3 SWAP1 POP JUMP JUMPDEST PUSH1 0x0 PUSH1 0x20 DUP3 DUP5 SUB SLT ISZERO PUSH2 0x3B6E JUMPI PUSH1 0x0 DUP1 REVERT JUMPDEST POP CALLDATALOAD SWAP2 SWAP1 POP JUMP JUMPDEST DUP1 CALLDATALOAD PUSH1 0x1 PUSH1 0x1 PUSH1 0xA0 SHL SUB DUP2 AND DUP2 EQ PUSH2 0x3B09 JUMPI PUSH1 0x0 DUP1 REVERT JUMPDEST PUSH1 0x0 PUSH1 0x20 DUP3 DUP5 SUB SLT ISZERO PUSH2 0x3B9E JUMPI PUSH1 0x0 DUP1 REVERT JUMPDEST PUSH2 0xE33 DUP3 PUSH2 0x3B75 JUMP JUMPDEST PUSH1 0x0 PUSH1 0x20 DUP3 DUP5 SUB SLT ISZERO PUSH2 0x3BB9 JUMPI PUSH1 0x0 DUP1 REVERT JUMPDEST DUP2 CALLDATALOAD PUSH8 0xFFFFFFFFFFFFFFFF DUP2 GT ISZERO PUSH2 0x3BD0 JUMPI PUSH1 0x0 DUP1 REVERT JUMPDEST PUSH2 0x3BDC DUP5 DUP3 DUP6 ADD PUSH2 0x3A6D JUMP JUMPDEST SWAP5 SWAP4 POP POP POP POP JUMP JUMPDEST PUSH1 0x0 DUP1 PUSH1 0x40 DUP4 DUP6 SUB SLT ISZERO PUSH2 0x3BF7 JUMPI PUSH1 0x0 DUP1 REVERT JUMPDEST DUP3 CALLDATALOAD PUSH8 0xFFFFFFFFFFFFFFFF DUP2 GT ISZERO PUSH2 0x3C0E JUMPI PUSH1 0x0 DUP1 REVERT JUMPDEST PUSH2 0x3C1A DUP6 DUP3 DUP7 ADD PUSH2 0x3A6D JUMP JUMPDEST SWAP3 POP POP PUSH2 0x3B53 PUSH1 0x20 DUP5 ADD PUSH2 0x3B75 JUMP JUMPDEST PUSH1 0x0 DUP1 PUSH1 0x40 DUP4 DUP6 SUB SLT ISZERO PUSH2 0x3C3C JUMPI PUSH1 0x0 DUP1 REVERT JUMPDEST POP POP DUP1 CALLDATALOAD SWAP3 PUSH1 0x20 SWAP1 SWAP2 ADD CALLDATALOAD SWAP2 POP JUMP JUMPDEST PUSH1 0x0 DUP1 PUSH1 0x0 DUP1 PUSH1 0x80 DUP6 DUP8 SUB SLT ISZERO PUSH2 0x3C61 JUMPI PUSH1 0x0 DUP1 REVERT JUMPDEST DUP5 CALLDATALOAD SWAP4 POP PUSH2 0x3C71 PUSH1 0x20 DUP7 ADD PUSH2 0x3B75 JUMP JUMPDEST SWAP3 POP PUSH1 0x40 DUP6 ADD CALLDATALOAD SWAP2 POP PUSH2 0x3C86 PUSH1 0x60 DUP7 ADD PUSH2 0x3B75 JUMP JUMPDEST SWAP1 POP SWAP3 SWAP6 SWAP2 SWAP5 POP SWAP3 POP JUMP JUMPDEST PUSH1 0x0 DUP1 PUSH1 0x0 PUSH1 0x60 DUP5 DUP7 SUB SLT ISZERO PUSH2 0x3CA6 JUMPI PUSH1 0x0 DUP1 REVERT JUMPDEST DUP4 CALLDATALOAD PUSH8 0xFFFFFFFFFFFFFFFF DUP2 GT ISZERO PUSH2 0x3CBD JUMPI PUSH1 0x0 DUP1 REVERT JUMPDEST PUSH2 0x3CC9 DUP7 DUP3 DUP8 ADD PUSH2 0x3A6D JUMP JUMPDEST SWAP4 POP POP PUSH2 0x3CD8 PUSH1 0x20 DUP6 ADD PUSH2 0x3B75 JUMP JUMPDEST SWAP2 POP PUSH1 0x40 DUP5 ADD CALLDATALOAD SWAP1 POP SWAP3 POP SWAP3 POP SWAP3 JUMP JUMPDEST PUSH1 0x0 DUP1 PUSH1 0x40 DUP4 DUP6 SUB SLT ISZERO PUSH2 0x3CFB JUMPI PUSH1 0x0 DUP1 REVERT JUMPDEST PUSH2 0x3D04 DUP4 PUSH2 0x3B75 JUMP JUMPDEST SWAP5 PUSH1 0x20 SWAP4 SWAP1 SWAP4 ADD CALLDATALOAD SWAP4 POP POP POP JUMP JUMPDEST PUSH1 0x0 DUP1 PUSH1 0x0 DUP1 PUSH1 0x80 DUP6 DUP8 SUB SLT ISZERO PUSH2 0x3D28 JUMPI PUSH1 0x0 DUP1 REVERT JUMPDEST DUP5 CALLDATALOAD PUSH8 0xFFFFFFFFFFFFFFFF DUP1 DUP3 GT ISZERO PUSH2 0x3D40 JUMPI PUSH1 0x0 DUP1 REVERT JUMPDEST PUSH2 0x3D4C DUP9 DUP4 DUP10 ADD PUSH2 0x3A6D JUMP JUMPDEST SWAP6 POP PUSH1 0x20 DUP8 ADD CALLDATALOAD SWAP2 POP DUP1 DUP3 GT ISZERO PUSH2 0x3D62 JUMPI PUSH1 0x0 DUP1 REVERT JUMPDEST POP PUSH2 0x3D6F DUP8 DUP3 DUP9 ADD PUSH2 0x3A6D JUMP JUMPDEST SWAP4 POP POP PUSH2 0x3D7E PUSH1 0x40 DUP7 ADD PUSH2 0x3B75 JUMP JUMPDEST SWAP4 SWAP7 SWAP3 SWAP6 POP SWAP3 SWAP4 PUSH1 0x60 ADD CALLDATALOAD SWAP3 POP POP JUMP JUMPDEST PUSH1 0x0 DUP1 PUSH1 0x0 PUSH1 0x60 DUP5 DUP7 SUB SLT ISZERO PUSH2 0x3DA3 JUMPI PUSH1 0x0 DUP1 REVERT JUMPDEST DUP4 CALLDATALOAD SWAP3 POP PUSH1 0x20 DUP5 ADD CALLDATALOAD SWAP2 POP PUSH2 0x3DBA PUSH1 0x40 DUP6 ADD PUSH2 0x3B75 JUMP JUMPDEST SWAP1 POP SWAP3 POP SWAP3 POP SWAP3 JUMP JUMPDEST PUSH1 0x0 DUP1 PUSH1 0x0 PUSH1 0x60 DUP5 DUP7 SUB SLT ISZERO PUSH2 0x3DD8 JUMPI PUSH1 0x0 DUP1 REVERT JUMPDEST DUP4 CALLDATALOAD PUSH8 0xFFFFFFFFFFFFFFFF DUP2 GT ISZERO PUSH2 0x3DEF JUMPI PUSH1 0x0 DUP1 REVERT JUMPDEST PUSH2 0x3DFB DUP7 DUP3 DUP8 ADD PUSH2 0x3A6D JUMP JUMPDEST SWAP4 POP POP PUSH2 0x3E0A PUSH1 0x20 DUP6 ADD PUSH2 0x3B75 JUMP JUMPDEST SWAP2 POP PUSH2 0x3DBA PUSH1 0x40 DUP6 ADD PUSH2 0x3AFA JUMP JUMPDEST PUSH1 0x0 DUP1 PUSH1 0x0 DUP1 PUSH1 0x80 DUP6 DUP8 SUB SLT ISZERO PUSH2 0x3E2E JUMPI PUSH1 0x0 DUP1 REVERT JUMPDEST DUP5 CALLDATALOAD PUSH8 0xFFFFFFFFFFFFFFFF DUP2 GT ISZERO PUSH2 0x3E45 JUMPI PUSH1 0x0 DUP1 REVERT JUMPDEST PUSH2 0x3E51 DUP8 DUP3 DUP9 ADD PUSH2 0x3A6D JUMP JUMPDEST SWAP5 POP POP PUSH2 0x3C71 PUSH1 0x20 DUP7 ADD PUSH2 0x3B75 JUMP JUMPDEST PUSH1 0x0 DUP1 PUSH1 0x0 DUP1 PUSH1 0x0 PUSH1 0xA0 DUP7 DUP9 SUB SLT ISZERO PUSH2 0x3E78 JUMPI PUSH1 0x0 DUP1 REVERT JUMPDEST DUP6 CALLDATALOAD SWAP5 POP PUSH1 0x20 DUP7 ADD CALLDATALOAD SWAP4 POP PUSH2 0x3E8F PUSH1 0x40 DUP8 ADD PUSH2 0x3B75 JUMP JUMPDEST SWAP3 POP PUSH1 0x60 DUP7 ADD CALLDATALOAD SWAP2 POP PUSH2 0x3EA4 PUSH1 0x80 DUP8 ADD PUSH2 0x3B75 JUMP JUMPDEST SWAP1 POP SWAP3 SWAP6 POP SWAP3 SWAP6 SWAP1 SWAP4 POP JUMP JUMPDEST PUSH4 0x4E487B71 PUSH1 0xE0 SHL PUSH1 0x0 MSTORE PUSH1 0x11 PUSH1 0x4 MSTORE PUSH1 0x24 PUSH1 0x0 REVERT JUMPDEST DUP1 DUP3 ADD DUP1 DUP3 GT ISZERO PUSH2 0xD66 JUMPI PUSH2 0xD66 PUSH2 0x3EB0 JUMP JUMPDEST PUSH4 0x4E487B71 PUSH1 0xE0 SHL PUSH1 0x0 MSTORE PUSH1 0x21 PUSH1 0x4 MSTORE PUSH1 0x24 PUSH1 0x0 REVERT JUMPDEST PUSH1 0x0 JUMPDEST DUP4 DUP2 LT ISZERO PUSH2 0x3F0A JUMPI DUP2 DUP2 ADD MLOAD DUP4 DUP3 ADD MSTORE PUSH1 0x20 ADD PUSH2 0x3EF2 JUMP JUMPDEST POP POP PUSH1 0x0 SWAP2 ADD MSTORE JUMP JUMPDEST PUSH1 0x0 DUP3 MLOAD PUSH2 0x3F25 DUP2 DUP5 PUSH1 0x20 DUP8 ADD PUSH2 0x3EEF JUMP JUMPDEST SWAP2 SWAP1 SWAP2 ADD SWAP3 SWAP2 POP POP JUMP JUMPDEST PUSH1 0x20 DUP1 DUP3 MSTORE PUSH1 0x2 SWAP1 DUP3 ADD MSTORE PUSH2 0x9E9 PUSH1 0xF3 SHL PUSH1 0x40 DUP3 ADD MSTORE PUSH1 0x60 ADD SWAP1 JUMP JUMPDEST PUSH1 0x20 DUP1 DUP3 MSTORE PUSH1 0x2 SWAP1 DUP3 ADD MSTORE PUSH2 0x5553 PUSH1 0xF0 SHL PUSH1 0x40 DUP3 ADD MSTORE PUSH1 0x60 ADD SWAP1 JUMP JUMPDEST PUSH1 0x20 DUP1 DUP3 MSTORE PUSH1 0x2 SWAP1 DUP3 ADD MSTORE PUSH2 0x1153 PUSH1 0xF2 SHL PUSH1 0x40 DUP3 ADD MSTORE PUSH1 0x60 ADD SWAP1 JUMP JUMPDEST DUP1 DUP3 MUL DUP2 ISZERO DUP3 DUP3 DIV DUP5 EQ OR PUSH2 0xD66 JUMPI PUSH2 0xD66 PUSH2 0x3EB0 JUMP JUMPDEST PUSH1 0x0 DUP3 PUSH2 0x3FB7 JUMPI PUSH4 0x4E487B71 PUSH1 0xE0 SHL PUSH1 0x0 MSTORE PUSH1 0x12 PUSH1 0x4 MSTORE PUSH1 0x24 PUSH1 0x0 REVERT JUMPDEST POP DIV SWAP1 JUMP JUMPDEST DUP2 DUP2 SUB DUP2 DUP2 GT ISZERO PUSH2 0xD66 JUMPI PUSH2 0xD66 PUSH2 0x3EB0 JUMP JUMPDEST PUSH1 0x0 PUSH1 0x20 DUP3 DUP5 SUB SLT ISZERO PUSH2 0x3FE1 JUMPI PUSH1 0x0 DUP1 REVERT JUMPDEST POP MLOAD SWAP2 SWAP1 POP JUMP JUMPDEST PUSH1 0x20 DUP1 DUP3 MSTORE PUSH1 0x2 SWAP1 DUP3 ADD MSTORE PUSH2 0x1255 PUSH1 0xF2 SHL PUSH1 0x40 DUP3 ADD MSTORE PUSH1 0x60 ADD SWAP1 JUMP JUMPDEST PUSH1 0x0 PUSH1 0x20 DUP3 DUP5 SUB SLT ISZERO PUSH2 0x4016 JUMPI PUSH1 0x0 DUP1 REVERT JUMPDEST DUP2 MLOAD DUP1 ISZERO ISZERO DUP2 EQ PUSH2 0xE33 JUMPI PUSH1 0x0 DUP1 REVERT JUMPDEST PUSH1 0x20 DUP1 DUP3 MSTORE PUSH1 0x2 SWAP1 DUP3 ADD MSTORE PUSH2 0x1395 PUSH1 0xF2 SHL PUSH1 0x40 DUP3 ADD MSTORE PUSH1 0x60 ADD SWAP1 JUMP JUMPDEST PUSH1 0x0 DUP2 MLOAD DUP1 DUP5 MSTORE PUSH2 0x405A DUP2 PUSH1 0x20 DUP7 ADD PUSH1 0x20 DUP7 ADD PUSH2 0x3EEF JUMP JUMPDEST PUSH1 0x1F ADD PUSH1 0x1F NOT AND SWAP3 SWAP1 SWAP3 ADD PUSH1 0x20 ADD SWAP3 SWAP2 POP POP JUMP JUMPDEST PUSH1 0x3 DUP2 LT PUSH2 0x408C JUMPI PUSH4 0x4E487B71 PUSH1 0xE0 SHL PUSH1 0x0 MSTORE PUSH1 0x21 PUSH1 0x4 MSTORE PUSH1 0x24 PUSH1 0x0 REVERT JUMPDEST SWAP1 MSTORE JUMP JUMPDEST PUSH1 0x40 DUP2 MSTORE PUSH1 0x0 PUSH2 0x40A3 PUSH1 0x40 DUP4 ADD DUP6 PUSH2 0x4042 JUMP JUMPDEST SWAP1 POP PUSH2 0xE33 PUSH1 0x20 DUP4 ADD DUP5 PUSH2 0x406E JUMP JUMPDEST PUSH1 0x60 DUP2 MSTORE PUSH1 0x2 PUSH1 0x60 DUP3 ADD MSTORE PUSH2 0x39A1 PUSH1 0xF1 SHL PUSH1 0x80 DUP3 ADD MSTORE PUSH1 0xA0 PUSH1 0x20 DUP3 ADD MSTORE PUSH1 0x0 PUSH2 0x40DE PUSH1 0xA0 DUP4 ADD DUP6 PUSH2 0x4042 JUMP JUMPDEST SWAP1 POP PUSH1 0x1 DUP1 PUSH1 0xA0 SHL SUB DUP4 AND PUSH1 0x40 DUP4 ADD MSTORE SWAP4 SWAP3 POP POP POP JUMP JUMPDEST PUSH1 0x60 DUP2 MSTORE PUSH1 0x2 PUSH1 0x60 DUP3 ADD MSTORE PUSH2 0x1911 PUSH1 0xF2 SHL PUSH1 0x80 DUP3 ADD MSTORE PUSH1 0xA0 PUSH1 0x20 DUP3 ADD MSTORE PUSH1 0x0 PUSH2 0x40DE PUSH1 0xA0 DUP4 ADD DUP6 PUSH2 0x4042 JUMP JUMPDEST PUSH1 0x40 DUP2 MSTORE PUSH1 0x0 PUSH2 0x4134 PUSH1 0x40 DUP4 ADD DUP6 PUSH2 0x4042 JUMP JUMPDEST SWAP1 POP PUSH1 0x1 DUP1 PUSH1 0xA0 SHL SUB DUP4 AND PUSH1 0x20 DUP4 ADD MSTORE SWAP4 SWAP3 POP POP POP JUMP JUMPDEST PUSH1 0x60 DUP2 MSTORE PUSH1 0x2 PUSH1 0x60 DUP3 ADD MSTORE PUSH2 0x31A1 PUSH1 0xF1 SHL PUSH1 0x80 DUP3 ADD MSTORE PUSH1 0xA0 PUSH1 0x20 DUP3 ADD MSTORE PUSH1 0x0 PUSH2 0x40DE PUSH1 0xA0 DUP4 ADD DUP6 PUSH2 0x4042 JUMP JUMPDEST PUSH1 0x60 DUP2 MSTORE PUSH1 0x2 PUSH1 0x60 DUP3 ADD MSTORE PUSH2 0x7241 PUSH1 0xF0 SHL PUSH1 0x80 DUP3 ADD MSTORE PUSH1 0xA0 PUSH1 0x20 DUP3 ADD MSTORE PUSH1 0x0 PUSH2 0x40DE PUSH1 0xA0 DUP4 ADD DUP6 PUSH2 0x4042 JUMP JUMPDEST PUSH1 0x20 DUP2 MSTORE PUSH1 0x0 PUSH2 0xE33 PUSH1 0x20 DUP4 ADD DUP5 PUSH2 0x4042 JUMP JUMPDEST PUSH1 0x60 DUP2 MSTORE PUSH1 0x2 PUSH1 0x60 DUP3 ADD MSTORE PUSH2 0x3221 PUSH1 0xF1 SHL PUSH1 0x80 DUP3 ADD MSTORE PUSH1 0xA0 PUSH1 0x20 DUP3 ADD MSTORE PUSH1 0x0 PUSH2 0x40DE PUSH1 0xA0 DUP4 ADD DUP6 PUSH2 0x4042 JUMP JUMPDEST PUSH1 0x20 DUP1 DUP3 MSTORE PUSH1 0x2 SWAP1 DUP3 ADD MSTORE PUSH2 0x24A3 PUSH1 0xF1 SHL PUSH1 0x40 DUP3 ADD MSTORE PUSH1 0x60 ADD SWAP1 JUMP JUMPDEST PUSH1 0x60 DUP2 MSTORE PUSH1 0x0 PUSH2 0x4211 PUSH1 0x60 DUP4 ADD DUP7 PUSH2 0x4042 JUMP JUMPDEST PUSH1 0x1 PUSH1 0x1 PUSH1 0xA0 SHL SUB SWAP5 SWAP1 SWAP5 AND PUSH1 0x20 DUP4 ADD MSTORE POP PUSH1 0x40 ADD MSTORE SWAP2 SWAP1 POP JUMP JUMPDEST PUSH1 0x60 DUP2 MSTORE PUSH1 0x2 PUSH1 0x60 DUP3 ADD MSTORE PUSH2 0x1A51 PUSH1 0xF2 SHL PUSH1 0x80 DUP3 ADD MSTORE PUSH1 0xA0 PUSH1 0x20 DUP3 ADD MSTORE PUSH1 0x0 PUSH2 0x40DE PUSH1 0xA0 DUP4 ADD DUP6 PUSH2 0x4042 JUMP JUMPDEST PUSH1 0x60 DUP2 MSTORE PUSH1 0x2 PUSH1 0x60 DUP3 ADD MSTORE PUSH2 0x1D55 PUSH1 0xF2 SHL PUSH1 0x80 DUP3 ADD MSTORE PUSH1 0xA0 PUSH1 0x20 DUP3 ADD MSTORE PUSH1 0x0 PUSH2 0x40DE PUSH1 0xA0 DUP4 ADD DUP6 PUSH2 0x4042 JUMP JUMPDEST PUSH1 0x60 DUP2 MSTORE PUSH1 0x2 PUSH1 0x60 DUP3 ADD MSTORE PUSH2 0x1C95 PUSH1 0xF2 SHL PUSH1 0x80 DUP3 ADD MSTORE PUSH1 0xA0 PUSH1 0x20 DUP3 ADD MSTORE PUSH1 0x0 PUSH2 0x40DE PUSH1 0xA0 DUP4 ADD DUP6 PUSH2 0x4042 JUMP JUMPDEST PUSH1 0x80 DUP2 MSTORE PUSH1 0x0 PUSH2 0x42C3 PUSH1 0x80 DUP4 ADD DUP8 PUSH2 0x4042 JUMP JUMPDEST DUP3 DUP2 SUB PUSH1 0x20 DUP5 ADD MSTORE PUSH2 0x42D5 DUP2 DUP8 PUSH2 0x4042 JUMP JUMPDEST PUSH1 0x1 PUSH1 0x1 PUSH1 0xA0 SHL SUB SWAP6 SWAP1 SWAP6 AND PUSH1 0x40 DUP5 ADD MSTORE POP POP PUSH1 0x60 ADD MSTORE SWAP3 SWAP2 POP POP JUMP JUMPDEST PUSH1 0x60 DUP2 MSTORE PUSH1 0x2 PUSH1 0x60 DUP3 ADD MSTORE PUSH2 0x1B55 PUSH1 0xF2 SHL PUSH1 0x80 DUP3 ADD MSTORE PUSH1 0xA0 PUSH1 0x20 DUP3 ADD MSTORE PUSH1 0x0 PUSH2 0x40DE PUSH1 0xA0 DUP4 ADD DUP6 PUSH2 0x4042 JUMP JUMPDEST PUSH1 0x60 DUP2 MSTORE PUSH1 0x2 PUSH1 0x60 DUP3 ADD MSTORE PUSH2 0x6141 PUSH1 0xF0 SHL PUSH1 0x80 DUP3 ADD MSTORE PUSH1 0xA0 PUSH1 0x20 DUP3 ADD MSTORE PUSH1 0x0 PUSH2 0x40DE PUSH1 0xA0 DUP4 ADD DUP6 PUSH2 0x4042 JUMP JUMPDEST PUSH1 0x0 PUSH1 0x1 DUP3 ADD PUSH2 0x435C JUMPI PUSH2 0x435C PUSH2 0x3EB0 JUMP JUMPDEST POP PUSH1 0x1 ADD SWAP1 JUMP JUMPDEST PUSH1 0x60 DUP2 MSTORE PUSH1 0x0 PUSH2 0x4376 PUSH1 0x60 DUP4 ADD DUP7 PUSH2 0x4042 JUMP JUMPDEST PUSH1 0x1 PUSH1 0x1 PUSH1 0xA0 SHL SUB DUP6 AND PUSH1 0x20 DUP5 ADD MSTORE SWAP1 POP PUSH2 0x3BDC PUSH1 0x40 DUP4 ADD DUP5 PUSH2 0x406E JUMP JUMPDEST PUSH1 0x60 DUP2 MSTORE PUSH1 0x2 PUSH1 0x60 DUP3 ADD MSTORE PUSH2 0x735 PUSH1 0xF4 SHL PUSH1 0x80 DUP3 ADD MSTORE PUSH1 0xA0 PUSH1 0x20 DUP3 ADD MSTORE PUSH1 0x0 PUSH2 0x40DE PUSH1 0xA0 DUP4 ADD DUP6 PUSH2 0x4042 JUMP JUMPDEST PUSH1 0x80 DUP2 MSTORE PUSH1 0x0 PUSH2 0x43D3 PUSH1 0x80 DUP4 ADD DUP8 PUSH2 0x4042 JUMP JUMPDEST PUSH1 0x1 PUSH1 0x1 PUSH1 0xA0 SHL SUB SWAP6 DUP7 AND PUSH1 0x20 DUP5 ADD MSTORE PUSH1 0x40 DUP4 ADD SWAP5 SWAP1 SWAP5 MSTORE POP SWAP3 AND PUSH1 0x60 SWAP1 SWAP3 ADD SWAP2 SWAP1 SWAP2 MSTORE SWAP2 SWAP1 POP JUMP JUMPDEST PUSH1 0x60 DUP2 MSTORE PUSH1 0x2 PUSH1 0x60 DUP3 ADD MSTORE PUSH2 0x1D15 PUSH1 0xF2 SHL PUSH1 0x80 DUP3 ADD MSTORE PUSH1 0xA0 PUSH1 0x20 DUP3 ADD MSTORE PUSH1 0x0 PUSH2 0x40DE PUSH1 0xA0 DUP4 ADD DUP6 PUSH2 0x4042 JUMP INVALID NUMBER 0xCD PUSH23 0xB5EB40DA9EA5EB31A199F443F7CF7955EC280BC5981A2E CALLVALUE GASLIMIT 0xC7 SWAP13 SWAP1 SSTORE LOG2 PUSH5 0x6970667358 0x22 SLT KECCAK256 MSIZE 0xB7 PUSH20 0xF6575B58ADBAA00E5067F3801A310D1998349336 SWAP8 0xE3 0xDC DUP9 SIGNEXTEND MSTORE8 DELEGATECALL 0xE6 0xE2 PUSH5 0x736F6C6343 STOP ADDMOD SGT STOP CALLER ",
  "sha1": "b2ea75df35117691330ae5ba6730511f732c5e8f",
  "source": "// SPDX-License-Identifier: GPL-3.0-or-later\n\npragma solidity ^0.8.4;\n\nimport \"./idea.sol\";\n\n/// @title An extension of the Idea providing an administrable interface.\n/// @author Frederik W. L. Christoffersen\n/// @notice This contract adds administrability via permits and internally closed money supplies.\ncontract Administrable is Idea {\n\n    /// @notice An enum representing a Permit State of one of the many permits.\n    /// @param unauthorized The permit is NOT authorized.\n    /// @param authorized The permit is authorized.\n    /// @param administrator The holder of the permit is not only authorized but also an administrator of it too.\n    enum PermitState {\n        unauthorized,\n        authorized,\n        administrator\n    }\n\n    /// @notice A struct representing the information of a Dividend given to all current Shard holders.\n    /// @param tokenAddress The address of the token, in which the value of the Dividend is issued.\n    /// @param value The original value/amount of the Dividend before claims.\n    struct DividendInfo {\n        address tokenAddress;\n        uint256 value;\n    }\n\n    /// @notice A mapping pointing to a boolean stating if a given Bank is valid/exists or not.\n    mapping(string => bool) validBanks;\n    \n    /// @notice A mapping pointing to an unsigned integer representing the amount of stored kinds of tokens of a bank.\n    mapping(string => uint256) storedTokenAddressesByBank;\n\n    /// @notice A mapping pointing to the a value/amount of a stored token of a Bank, given the name of it and the respective token address.\n    mapping(string => mapping(address => uint256)) balanceByBank;\n\n     /// @notice A mapping pointing to a boolean stating if an address is an if a given address is a valid Bank administrator that has restricted control of the Bank's funds.\n    mapping(string => mapping(address => bool)) adminOfBank;\n\n    /// @notice A mapping pointing to another mapping, pointing to a Permit State, given the address of a permit holder, given the name of the permit.\n    /// @custom:illustration permits[permitName][address] == PermitState.authorized || PermitState.administrator;\n    mapping(string => mapping(address => PermitState)) permits;\n\n    /// @notice A mapping pointing to a base Permit State, given the name of the permit.\n    mapping(string => PermitState) basePermits;\n    \n    /// @notice A mapping pointing to a boolean stating if a given Dividend is valid or not.\n    mapping(uint256 => bool) validDividends;\n\n    /// @notice A mapping pointing to the info of a Dividend given the creation clock of the Dividend.\n    mapping(uint256 => DividendInfo) infoByDividend;\n\n    /// @notice A mapping pointing to the residual of a Dividend given the creation clock of the Dividend.\n    mapping(uint256 => uint256) residualByDividend;\n\n    /// @notice Mapping pointing to a boolean stating if the owner of a Shard has claimed their fair share of the Dividend, given the bank name and the shard.\n    mapping(uint256 => mapping(bytes32  => bool)) hasClaimedDividend;\n\n    /// @notice Event that triggers when an action is taken by somebody.\n    /// @param func The name of the function that was called.\n    /// @param args The arguments passed to the function call.\n    /// @param by The initiator of the action.\n    event ActionTaken(\n        string func,\n        bytes args,\n        address by\n        );\n\n    /// @notice Event that triggers when part of a dividend is claimed.\n    /// @param clock The clock tied to the dividend.\n    /// @param value The value claimed.\n    /// @param by The claimant of the dividend.\n    event DividendClaimed(\n        uint256 clock,\n        uint256 value,\n        address by\n        );\n\n    /// @notice Modifier that makes sure msg.sender has a given permit.\n    /// @param permitName The name of the permit to be checked for.\n    modifier onlyWithPermit(string memory permitName) {\n        require(hasPermit(permitName, msg.sender));\n        _;\n    }\n    \n    /// @notice Modifier that makes sure msg.sender is an admin of a given permit.\n    /// @param permitName The name of the permit to be checked for.\n    modifier onlyPermitAdmin(string memory permitName) {\n        require(isPermitAdmin(permitName, msg.sender));\n        _;\n\n    }\n\n    /// @notice Modifier that makes sure msg.sender is admin of a given bank.\n    /// @param bankName The name of the Bank to be checked for.\n    modifier onlyBankAdmin(string memory bankName) {\n        require(isBankAdmin(bankName, msg.sender));\n        _;\n    }\n\n    /// @notice Modifier that makes sure a given bank exists\n    /// @param bankName The name of the Bank to be checked for.\n    modifier onlyExistingBank(string memory bankName) {\n        require(bankExists(bankName), \"DNE\");\n        _;\n    }\n    \n    /// @notice Modifier that makes sure a given dividend exists and is valid\n    /// @param dividend The Dividend to be checked for.\n    modifier onlyExistingDividend(uint256 dividend) {\n        require(dividendExists(dividend));\n        _;\n    }\n\n    /// @notice Constructor function connecting the Idea entity and creating a Bank with an administrator.\n    constructor(uint256 amount) Idea(amount) {\n        _createBank(\"main\",msg.sender);\n        _setPermit(\"iS\", msg.sender, PermitState.administrator);\n        _setPermit(\"mD\", msg.sender, PermitState.administrator);\n        _setPermit(\"mB\", msg.sender, PermitState.administrator);\n        _setPermit(\"lE\", msg.sender, PermitState.administrator);\n        _setPermit(\"mAT\", msg.sender, PermitState.administrator);\n    }\n\n    /// @notice Claims the value of an existing dividend corresponding to the shard holder's respective shard fraction.\n    /// @param shard The shard that was valid at the clock of the Dividend creation\n    /// @param dividend The dividend to be claimed.\n    function claimDividend(bytes32 shard, uint256 dividend) external onlyHolder(shard) onlyExistingDividend(dividend) onlyIfActive {\n        require(shardExisted(shard,dividend), \"NAF\");\n        require(hasClaimedDividend[dividend][shard] == false, \"AC\");\n        hasClaimedDividend[dividend][shard] = true;\n        uint256 dividendValue = infoByDividend[dividend].value * infoByShard[shard].amount / totalShardAmountByClock[clock];\n        require(dividendValue != 0, \"DTS\");\n        residualByDividend[dividend] -= dividendValue;\n        _transferToken(infoByDividend[dividend].tokenAddress,dividendValue,msg.sender);\n        emit DividendClaimed(dividend,dividendValue,msg.sender);\n    }\n\n    /// @notice Adds a token address to the registry. Also approves any future receipts of said token unless removed again.\n    /// @param tokenAddress The token address to be registered.\n    function registerTokenAddress(address tokenAddress) external onlyWithPermit(\"mAT\") onlyIfActive {\n        _registerTokenAddress(tokenAddress);\n    }\n\n    /// @notice Removes a token address from the registry. Also cancels any future receipts of said token unless added again.\n    /// @param tokenAddress The token address to be unregistered.\n    function unregisterTokenAddress(address tokenAddress) external onlyWithPermit(\"mAT\") onlyIfActive {\n        _unregisterTokenAddress(tokenAddress);\n    }\n\n    /// @notice Issues new shards and puts them for sale.\n    /// @param tokenAddress The token address the shards are put for sale for.\n    /// @param price The price per token.\n    /// @param to The specifically set buyer of the issued shards. Open to anyone, if address(0).\n    function issueShards(uint256 amount, address tokenAddress, uint256 price, address to) external onlyWithPermit(\"iS\") {\n        _issueShards(amount,tokenAddress,price,to);\n    }\n\n    /// @notice Creates and issues a Dividend (to all current shareholders) of a token amount from a given Bank.\n    /// @param bankName The name of the Bank to issue the Dividend from.\n    /// @param tokenAddress The address of the token to make up the Dividend.\n    /// @param value The value/amount of the token to be issued in the Dividend.\n    function issueDividend(string memory bankName, address tokenAddress, uint256 value) external onlyWithPermit(\"mD\") onlyBankAdmin(bankName) {\n        _issueDividend(bankName,tokenAddress,value);  \n    }\n\n    /// @notice Dissolves a Dividend and moves its last contents to the 'main' Bank.\n    /// @param dividend The Dividend to be dissolved.\n    function dissolveDividend(uint256 dividend) external onlyWithPermit(\"mD\") {\n        _dissolveDividend(dividend);\n    }\n\n    /// @notice Creates a new Bank.\n    /// @param bankName The name of the Bank to be created.\n    /// @param bankAdmin The address of the first Bank administrator.\n    function createBank(string memory bankName, address bankAdmin) external onlyWithPermit(\"mB\") onlyIfActive {\n       _createBank(bankName,bankAdmin);\n    }\n\n    /// @notice Adds a new given administrator to a given Bank.\n    /// @param bankName The name of the Bank to which the new administrator is to be added.\n    /// @param bankAdmin The address of the new Bank administrator to be added.\n    function addBankAdmin(string memory bankName, address bankAdmin) external onlyWithPermit(\"mB\") onlyBankAdmin(bankName) {\n        _addBankAdmin(bankName,bankAdmin);\n    }\n\n    /// @notice Removes a given administrator of a given Bank.\n    /// @param bankName The name of the Bank from which the given administrator is to be removed.\n    /// @param bankAdmin The address of the current Bank administrator to be removed.\n    function removeBankAdmin(string memory bankName, address bankAdmin) external onlyPermitAdmin(\"mB\") onlyBankAdmin(bankName) {\n        _removeBankAdmin(bankName,bankAdmin);\n    }\n\n    /// @notice Deletes a given Bank.\n    /// @param bankName The name of the Bank to be deleted.\n    function deleteBank(string memory bankName) external onlyPermitAdmin(\"mB\") onlyBankAdmin(bankName) {\n        _deleteBank(bankName);\n    }\n\n    /// @notice Transfers a token bankAdmin a Bank to a recipient.\n    /// @param bankName The name of the Bank from which the token is to be transferred.\n    /// @param tokenAddress The address of the token to be transferred.\n    /// @param value The value/amount of the token to be transferred.\n    /// @param to The recipient of the token to be transferred.\n    function transferTokenFromBank(string memory bankName, address tokenAddress, uint256 value, address to) external onlyBankAdmin(bankName) {\n        _transferTokenFromBank(bankName,tokenAddress,value,to);\n    }\n\n    /// @notice Internally moves a token from one Bank to another.\n    /// @param fromBankName The name of the Bank from which the token is to be moved.\n    /// @param toBankName The name of the Bank to which the token is to be moved.\n    /// @param tokenAddress The address of the token to be moved.\n    /// @param value The value/amount of the token to be moved.\n    function moveToken(string memory fromBankName, string memory toBankName, address tokenAddress, uint256 value) external onlyBankAdmin(fromBankName) {\n        _moveToken(fromBankName,toBankName,tokenAddress,value);\n    }\n\n    /// @notice Sets the state of a specified permit of a given address.\n    /// @param account The address, whose permit state is to be set.\n    /// @param permitName The name of the permit, whose state is to be set.\n    /// @param newState The new Permit State to be applied.\n    function setPermit(string memory permitName, address account, PermitState newState) external onlyPermitAdmin(permitName) {\n        require(permits[permitName][account] != newState, \"AHP\");\n        _setPermit(permitName,account,newState);\n\n    }\n\n    /// @notice Sets the state of a specified base permit.\n    /// @param permitName The name of the base permit, whose state is to be set.\n    /// @param newState The new base Permit State to be applied.\n    function setBasePermit(string memory permitName, PermitState newState) external onlyPermitAdmin(permitName) {\n        require(basePermits[permitName] != newState, \"AS\");\n        _setBasePermit(permitName,newState);\n    }\n\n    /// @notice Liquidizes and dissolves the entity. This cannot be undone.\n    function liquidize() external onlyWithPermit(\"lE\") {\n        _liquidize();\n    }\n\n    /// @notice Returns the balance of a bank.\n    /// @param bankName The name of the Bank.\n    /// @param tokenAddress The address of the token balance to check for.\n    function getBankBalance(string memory bankName, address tokenAddress) public view returns(uint256) {\n        return balanceByBank[bankName][tokenAddress];\n    }\n    \n    /// @notice Returns the token of a dividend.\n    /// @param dividend The Dividend to be checked for.\n    function getDividendToken(uint256 dividend) public view returns(address) {\n        return infoByDividend[dividend].tokenAddress;\n    }\n    \n    /// @notice Returns the total value of a dividend.\n    /// @param dividend The Dividend to be checked for.\n    function getDividendValue(uint256 dividend) public view returns(uint256) {\n        return infoByDividend[dividend].value;\n    }\n\n    /// @notice Returns the residual value of a dividend.\n    /// @param dividend The Dividend to be checked for.\n    function getDividendResidual(uint256 dividend) public view returns(uint256) {\n        return residualByDividend[dividend];\n    }\n\n    /// @notice Returns a boolean stating if a given Bank exists.\n    /// @param bankName The name of the Bank to be checked for.\n    function bankExists(string memory bankName) public view returns(bool) {\n        return validBanks[bankName] == true;\n    }\n\n    /// @notice Returns a boolean stating if a given Bank is empty.\n    /// @param bankName The name of the Bank to be checked for.\n    function bankIsEmpty(string memory bankName) public view returns(bool) {\n        return storedTokenAddressesByBank[bankName] == 0 && balanceByBank[bankName][address(0)] == 0;\n    }\n    \n    /// @notice Returns a boolean stating if a given Dividend exists.\n    /// @param dividend The Dividend to be checked for.\n    function dividendExists(uint256 dividend) public view returns(bool) {\n      return validDividends[dividend];\n    }\n\n    /// @notice Returns a boolean stating if a given address is an admin of a given bank.\n    /// @param account The address to be checked for.\n    /// @param bankName The name of the Bank to be checked for.\n    function isBankAdmin(string memory bankName, address account) public view returns(bool) {\n        return adminOfBank[bankName][account] == true || isPermitAdmin(\"mB\",account);\n    }\n\n    /// @notice Returns a boolean stating if a given address has a given permit or not.\n    /// @param permitName The name of the permit to be checked for.\n    /// @param account The address to be checked for.\n    function hasPermit(string memory permitName, address account) public view returns(bool) {\n        return permits[permitName][account] >= PermitState.authorized || basePermits[permitName] >= PermitState.authorized;\n    }\n\n    /// @notice Returns a boolean stating if a given address is an admin of a given permit or not.\n    /// @param permitName The name of the permit to be checked for.\n    /// @param account The address to be checked for.\n    function isPermitAdmin(string memory permitName, address account) public view returns(bool) {\n        return permits[permitName][account] == PermitState.administrator || basePermits[permitName] == PermitState.administrator;\n    }\n\n    /// @notice Creates and issues a Dividend (to all current shareholders) of a token amount from a given Bank.\n    /// @param bankName The name of the Bank to issue the Dividend from.\n    /// @param tokenAddress The address of the token to make up the Dividend.\n    /// @param value The value/amount of the token to be issued in the Dividend.\n    function _issueDividend(string memory bankName, address tokenAddress, uint256 value) internal onlyIfActive {\n        uint256 transferClock = clock;\n        require(value <= balanceByBank[bankName][tokenAddress], \"IF\");\n        balanceByBank[bankName][tokenAddress] -= value;\n        if (balanceByBank[bankName][tokenAddress] == 0 && tokenAddress != address(0)) {\n            storedTokenAddressesByBank[bankName] -= 1;\n        }\n        infoByDividend[transferClock] = DividendInfo({\n            tokenAddress:tokenAddress,\n            value:value\n        });\n        residualByDividend[transferClock] = value;\n        validDividends[transferClock] = true;\n        emit ActionTaken(\"iD\",abi.encode(bankName,tokenAddress,value),msg.sender);\n    }\n\n    /// @notice Dissolves a Dividend and moves its last contents to the 'main' Bank.\n    /// @param dividend The Dividend to be dissolved.\n    function _dissolveDividend(uint256 dividend) internal onlyExistingDividend(dividend) onlyIfActive {\n        validDividends[dividend] = false; // -1 to distinguish between empty values;\n        balanceByBank[\"main\"][infoByDividend[dividend].tokenAddress] += residualByDividend[dividend];\n        emit ActionTaken(\"dD\",abi.encode(dividend),msg.sender);\n\n    }\n\n    /// @notice Creates a new Bank.\n    /// @param bankName The name of the Bank to be created.\n    /// @param bankAdmin The address of the first Bank administrator.\n    function _createBank(string memory bankName, address bankAdmin) internal onlyIfActive {\n        require(!bankExists(bankName), \"AE\");\n        adminOfBank[bankName][bankAdmin] = true;\n        validBanks[bankName] = true;\n        emit ActionTaken(\"cB\",abi.encode(bankName,bankAdmin),msg.sender);\n\n    }\n\n    /// @notice Adds a new given administrator to a given Bank.\n    /// @param bankName The name of the Bank to which the new administrator is to be added.\n    /// @param bankAdmin The address of the new Bank administrator to be added.\n    function _addBankAdmin(string memory bankName, address bankAdmin) internal onlyIfActive {\n        require(hasPermit(\"mB\",bankAdmin),\"NP\");\n        adminOfBank[bankName][bankAdmin] = true;\n        emit ActionTaken(\"aA\",abi.encode(bankName,bankAdmin),msg.sender);\n\n    }\n\n    /// @notice Removes a given administrator of a given Bank.\n    /// @param bankName The name of the Bank from which the given administrator is to be removed.\n    /// @param bankAdmin The address of the current Bank administrator to be removed.\n    function _removeBankAdmin(string memory bankName, address bankAdmin) internal onlyIfActive {\n        require(isBankAdmin(bankName,bankAdmin));\n        adminOfBank[bankName][bankAdmin] = false;\n        emit ActionTaken(\"rA\",abi.encode(bankName,bankAdmin),msg.sender);\n\n    }\n\n    /// @notice Deletes a given Bank.\n    /// @param bankName The name of the Bank to be deleted.\n    function _deleteBank(string memory bankName) internal onlyIfActive {\n        require(bankExists(bankName), \"UB!\");\n        require(keccak256(bytes(bankName)) != keccak256(bytes(\"main\")), \"MB\");\n        require(bankIsEmpty(bankName), \"BE\");\n        validBanks[bankName] = false;\n        emit ActionTaken(\"dB\",abi.encode(bankName),msg.sender);\n\n    }\n\n    /// @notice Transfers a token from a Bank to a recipient.\n    /// @param bankName The name of the Bank from which the token is to be transferred.\n    /// @param tokenAddress The address of the token to be transferred.\n    /// @param value The value/amount of the token to be transferred.\n    /// @param to The recipient of the token to be transferred.\n    function _transferTokenFromBank(string memory bankName, address tokenAddress, uint256 value, address to) internal onlyIfActive {\n        require(value <= balanceByBank[bankName][tokenAddress], \"IF\");\n        _transferToken(tokenAddress,value,to);\n        balanceByBank[bankName][tokenAddress] -= value;\n        if (balanceByBank[bankName][tokenAddress] == 0 && tokenAddress != address(0)) {\n            storedTokenAddressesByBank[bankName] -= 1;\n        }\n        emit ActionTaken(\"tT\",abi.encode(bankName,tokenAddress,value,to),msg.sender);\n    }\n\n    /// @notice Internally moves a token from one Bank to another.\n    /// @param fromBankName The name of the Bank from which the token is to be moved.\n    /// @param toBankName The name of the Bank to which the token is to be moved.\n    /// @param tokenAddress The address of the token to be moved.\n    /// @param value The value/amount of the token to be moved.\n    function _moveToken(string memory fromBankName, string memory toBankName, address tokenAddress, uint256 value) internal onlyExistingBank(toBankName) onlyIfActive {\n        require(value <= balanceByBank[fromBankName][tokenAddress], \"IF\");\n        balanceByBank[fromBankName][tokenAddress] -= value;\n        if (tokenAddress != address(0)) {\n            if (balanceByBank[fromBankName][tokenAddress] == 0) {\n                storedTokenAddressesByBank[fromBankName] -= 1;\n\n            }\n            if (balanceByBank[toBankName][tokenAddress] == 0) {\n                storedTokenAddressesByBank[toBankName] += 1;\n            }\n        }\n        balanceByBank[toBankName][tokenAddress] += value;\n        emit ActionTaken(\"mT\",abi.encode(fromBankName,toBankName,tokenAddress,value),msg.sender);\n\n    }\n\n    /// @notice Sets the state of a specified permit of a given address.\n    /// @param permitName The name of the permit, whose state is to be set.\n    /// @param account The address, whose permit state is to be set.\n    /// @param newState The new Permit State to be applied.\n    function _setPermit(string memory permitName, address account, PermitState newState) internal onlyIfActive {\n        permits[permitName][account] = newState;\n        emit ActionTaken(\"sP\",abi.encode(permitName,account,newState),msg.sender);\n\n    }\n\n    /// @notice Sets the state of a specified base permit.\n    /// @param permitName The name of the base permit, whose state is to be set.\n    /// @param newState The new base Permit State to be applied.\n    function _setBasePermit(string memory permitName, PermitState newState) internal onlyIfActive {\n        basePermits[permitName] = newState;\n        emit ActionTaken(\"sB\",abi.encode(permitName,newState),msg.sender);\n    }\n\n    /// @notice Removes a token address from the registry. Also cancels any future receipts of said token unless added again.\n    /// @param tokenAddress The token address to be unregistered.\n    function _unregisterTokenAddress(address tokenAddress) override internal {\n        super._unregisterTokenAddress(tokenAddress);\n        emit ActionTaken(\"uT\",abi.encode(tokenAddress),msg.sender);\n    }\n\n    /// @notice Adds a token address to the registry. Also approves any future receipts of said token unless removed again.\n    /// @param tokenAddress The token address to be registered.\n    function _registerTokenAddress(address tokenAddress) override internal {\n        super._registerTokenAddress(tokenAddress);\n        emit ActionTaken(\"rT\",abi.encode(tokenAddress),msg.sender);\n    }\n\n    /// @notice Keeps track of a token receipt by adding it to the registry\n    /// @param tokenAddress The address of the received token.\n    /// @param value The value/amount of the received token.\n    /// @param from The sender of the received token.\n    function _processTokenReceipt(address tokenAddress, uint256 value, address from) override internal {\n        super._processTokenReceipt(tokenAddress, value, from);\n        // Then: Bank logic\n        if (balanceByBank[\"main\"][tokenAddress] == 0 && tokenAddress != address(0)) {\n            storedTokenAddressesByBank[\"main\"] += 1;\n        }\n        balanceByBank[\"main\"][tokenAddress] += value;\n        emit TokenReceived(tokenAddress,value,from);\n    }\n\n    /// @notice Liquidizes and dissolves the entity. This cannot be undone.\n    function _liquidize() override internal {\n        super._liquidize();\n        emit ActionTaken(\"lE\",\"\",msg.sender);\n    }\n\n}",
  "sourcePath": "contracts/administrable.sol",
  "type": "contract"
}