{
  "abi": [
    {
      "inputs": [
        {
          "internalType": "uint256",
          "name": "amount",
          "type": "uint256"
        }
      ],
      "stateMutability": "nonpayable",
      "type": "constructor"
    },
    {
      "anonymous": false,
      "inputs": [
        {
          "indexed": false,
          "internalType": "string",
          "name": "func",
          "type": "string"
        },
        {
          "indexed": false,
          "internalType": "bytes",
          "name": "args",
          "type": "bytes"
        },
        {
          "indexed": false,
          "internalType": "address",
          "name": "by",
          "type": "address"
        }
      ],
      "name": "ActionTaken",
      "type": "event"
    },
    {
      "anonymous": false,
      "inputs": [
        {
          "indexed": false,
          "internalType": "uint256",
          "name": "dividendClock",
          "type": "uint256"
        },
        {
          "indexed": false,
          "internalType": "uint256",
          "name": "value",
          "type": "uint256"
        },
        {
          "indexed": false,
          "internalType": "address",
          "name": "by",
          "type": "address"
        }
      ],
      "name": "DividendClaimed",
      "type": "event"
    },
    {
      "anonymous": false,
      "inputs": [
        {
          "indexed": false,
          "internalType": "enum Shardable.SaleState",
          "name": "status",
          "type": "uint8"
        },
        {
          "indexed": false,
          "internalType": "bytes32",
          "name": "shard",
          "type": "bytes32"
        },
        {
          "components": [
            {
              "internalType": "uint256",
              "name": "amount",
              "type": "uint256"
            },
            {
              "internalType": "uint256",
              "name": "price",
              "type": "uint256"
            },
            {
              "internalType": "address",
              "name": "tokenAddress",
              "type": "address"
            },
            {
              "internalType": "address",
              "name": "to",
              "type": "address"
            }
          ],
          "indexed": false,
          "internalType": "struct Shardable.ShardSale",
          "name": "sale",
          "type": "tuple"
        }
      ],
      "name": "SaleStateUpdated",
      "type": "event"
    },
    {
      "anonymous": false,
      "inputs": [
        {
          "indexed": false,
          "internalType": "bool",
          "name": "status",
          "type": "bool"
        },
        {
          "indexed": false,
          "internalType": "bytes32",
          "name": "shard",
          "type": "bytes32"
        }
      ],
      "name": "ShardUpdated",
      "type": "event"
    },
    {
      "anonymous": false,
      "inputs": [
        {
          "indexed": false,
          "internalType": "address",
          "name": "tokenAddress",
          "type": "address"
        },
        {
          "indexed": false,
          "internalType": "uint256",
          "name": "value",
          "type": "uint256"
        },
        {
          "indexed": false,
          "internalType": "address",
          "name": "from",
          "type": "address"
        }
      ],
      "name": "TokenReceived",
      "type": "event"
    },
    {
      "inputs": [
        {
          "internalType": "address",
          "name": "tokenAddress",
          "type": "address"
        }
      ],
      "name": "acceptsToken",
      "outputs": [
        {
          "internalType": "bool",
          "name": "",
          "type": "bool"
        }
      ],
      "stateMutability": "view",
      "type": "function"
    },
    {
      "inputs": [],
      "name": "active",
      "outputs": [
        {
          "internalType": "bool",
          "name": "",
          "type": "bool"
        }
      ],
      "stateMutability": "view",
      "type": "function"
    },
    {
      "inputs": [
        {
          "internalType": "string",
          "name": "bankName",
          "type": "string"
        },
        {
          "internalType": "address",
          "name": "bankAdmin",
          "type": "address"
        }
      ],
      "name": "addBankAdmin",
      "outputs": [],
      "stateMutability": "nonpayable",
      "type": "function"
    },
    {
      "inputs": [
        {
          "internalType": "string",
          "name": "bankName",
          "type": "string"
        }
      ],
      "name": "bankExists",
      "outputs": [
        {
          "internalType": "bool",
          "name": "",
          "type": "bool"
        }
      ],
      "stateMutability": "view",
      "type": "function"
    },
    {
      "inputs": [
        {
          "internalType": "string",
          "name": "bankName",
          "type": "string"
        }
      ],
      "name": "bankIsEmpty",
      "outputs": [
        {
          "internalType": "bool",
          "name": "",
          "type": "bool"
        }
      ],
      "stateMutability": "view",
      "type": "function"
    },
    {
      "inputs": [
        {
          "internalType": "bytes32",
          "name": "shard",
          "type": "bytes32"
        }
      ],
      "name": "cancelSale",
      "outputs": [],
      "stateMutability": "nonpayable",
      "type": "function"
    },
    {
      "inputs": [
        {
          "internalType": "bytes32",
          "name": "shard",
          "type": "bytes32"
        },
        {
          "internalType": "uint256",
          "name": "dividend",
          "type": "uint256"
        }
      ],
      "name": "claimDividend",
      "outputs": [],
      "stateMutability": "nonpayable",
      "type": "function"
    },
    {
      "inputs": [
        {
          "internalType": "address",
          "name": "tokenAddress",
          "type": "address"
        }
      ],
      "name": "claimLiquid",
      "outputs": [],
      "stateMutability": "nonpayable",
      "type": "function"
    },
    {
      "inputs": [
        {
          "internalType": "address",
          "name": "tokenAddress",
          "type": "address"
        }
      ],
      "name": "claimTerminatedLiquid",
      "outputs": [],
      "stateMutability": "nonpayable",
      "type": "function"
    },
    {
      "inputs": [
        {
          "internalType": "string",
          "name": "bankName",
          "type": "string"
        },
        {
          "internalType": "address",
          "name": "bankAdmin",
          "type": "address"
        }
      ],
      "name": "createBank",
      "outputs": [],
      "stateMutability": "nonpayable",
      "type": "function"
    },
    {
      "inputs": [
        {
          "internalType": "string",
          "name": "bankName",
          "type": "string"
        }
      ],
      "name": "deleteBank",
      "outputs": [],
      "stateMutability": "nonpayable",
      "type": "function"
    },
    {
      "inputs": [
        {
          "internalType": "uint256",
          "name": "dividend",
          "type": "uint256"
        }
      ],
      "name": "dissolveDividend",
      "outputs": [],
      "stateMutability": "nonpayable",
      "type": "function"
    },
    {
      "inputs": [
        {
          "internalType": "uint256",
          "name": "dividend",
          "type": "uint256"
        }
      ],
      "name": "dividendExists",
      "outputs": [
        {
          "internalType": "bool",
          "name": "",
          "type": "bool"
        }
      ],
      "stateMutability": "view",
      "type": "function"
    },
    {
      "inputs": [
        {
          "internalType": "string",
          "name": "bankName",
          "type": "string"
        },
        {
          "internalType": "address",
          "name": "tokenAddress",
          "type": "address"
        }
      ],
      "name": "getBankBalance",
      "outputs": [
        {
          "internalType": "uint256",
          "name": "",
          "type": "uint256"
        }
      ],
      "stateMutability": "view",
      "type": "function"
    },
    {
      "inputs": [],
      "name": "getCurrentClock",
      "outputs": [
        {
          "internalType": "uint256",
          "name": "",
          "type": "uint256"
        }
      ],
      "stateMutability": "view",
      "type": "function"
    },
    {
      "inputs": [
        {
          "internalType": "uint256",
          "name": "dividend",
          "type": "uint256"
        }
      ],
      "name": "getDividendResidual",
      "outputs": [
        {
          "internalType": "uint256",
          "name": "",
          "type": "uint256"
        }
      ],
      "stateMutability": "view",
      "type": "function"
    },
    {
      "inputs": [
        {
          "internalType": "uint256",
          "name": "dividend",
          "type": "uint256"
        }
      ],
      "name": "getDividendToken",
      "outputs": [
        {
          "internalType": "address",
          "name": "",
          "type": "address"
        }
      ],
      "stateMutability": "view",
      "type": "function"
    },
    {
      "inputs": [
        {
          "internalType": "uint256",
          "name": "dividend",
          "type": "uint256"
        }
      ],
      "name": "getDividendValue",
      "outputs": [
        {
          "internalType": "uint256",
          "name": "",
          "type": "uint256"
        }
      ],
      "stateMutability": "view",
      "type": "function"
    },
    {
      "inputs": [
        {
          "internalType": "address",
          "name": "tokenAddress",
          "type": "address"
        }
      ],
      "name": "getLiquidResidual",
      "outputs": [
        {
          "internalType": "uint256",
          "name": "",
          "type": "uint256"
        }
      ],
      "stateMutability": "view",
      "type": "function"
    },
    {
      "inputs": [
        {
          "internalType": "bytes32",
          "name": "shard",
          "type": "bytes32"
        }
      ],
      "name": "getShardExpirationClock",
      "outputs": [
        {
          "internalType": "uint256",
          "name": "",
          "type": "uint256"
        }
      ],
      "stateMutability": "view",
      "type": "function"
    },
    {
      "inputs": [
        {
          "internalType": "bytes32",
          "name": "shard",
          "type": "bytes32"
        }
      ],
      "name": "getShardSalePrice",
      "outputs": [
        {
          "internalType": "uint256",
          "name": "",
          "type": "uint256"
        }
      ],
      "stateMutability": "view",
      "type": "function"
    },
    {
      "inputs": [
        {
          "internalType": "string",
          "name": "permitName",
          "type": "string"
        },
        {
          "internalType": "address",
          "name": "account",
          "type": "address"
        }
      ],
      "name": "hasPermit",
      "outputs": [
        {
          "internalType": "bool",
          "name": "",
          "type": "bool"
        }
      ],
      "stateMutability": "view",
      "type": "function"
    },
    {
      "inputs": [
        {
          "internalType": "bytes32",
          "name": "",
          "type": "bytes32"
        }
      ],
      "name": "infoByShard",
      "outputs": [
        {
          "internalType": "uint256",
          "name": "amount",
          "type": "uint256"
        },
        {
          "internalType": "address",
          "name": "owner",
          "type": "address"
        },
        {
          "internalType": "uint256",
          "name": "creationClock",
          "type": "uint256"
        }
      ],
      "stateMutability": "view",
      "type": "function"
    },
    {
      "inputs": [
        {
          "internalType": "string",
          "name": "bankName",
          "type": "string"
        },
        {
          "internalType": "address",
          "name": "account",
          "type": "address"
        }
      ],
      "name": "isBankAdmin",
      "outputs": [
        {
          "internalType": "bool",
          "name": "",
          "type": "bool"
        }
      ],
      "stateMutability": "view",
      "type": "function"
    },
    {
      "inputs": [
        {
          "internalType": "string",
          "name": "permitName",
          "type": "string"
        },
        {
          "internalType": "address",
          "name": "account",
          "type": "address"
        }
      ],
      "name": "isPermitAdmin",
      "outputs": [
        {
          "internalType": "bool",
          "name": "",
          "type": "bool"
        }
      ],
      "stateMutability": "view",
      "type": "function"
    },
    {
      "inputs": [
        {
          "internalType": "address",
          "name": "account",
          "type": "address"
        }
      ],
      "name": "isShardHolder",
      "outputs": [
        {
          "internalType": "bool",
          "name": "",
          "type": "bool"
        }
      ],
      "stateMutability": "view",
      "type": "function"
    },
    {
      "inputs": [],
      "name": "isTerminated",
      "outputs": [
        {
          "internalType": "bool",
          "name": "",
          "type": "bool"
        }
      ],
      "stateMutability": "view",
      "type": "function"
    },
    {
      "inputs": [
        {
          "internalType": "bytes32",
          "name": "shard",
          "type": "bytes32"
        }
      ],
      "name": "isValidShard",
      "outputs": [
        {
          "internalType": "bool",
          "name": "",
          "type": "bool"
        }
      ],
      "stateMutability": "view",
      "type": "function"
    },
    {
      "inputs": [
        {
          "internalType": "string",
          "name": "bankName",
          "type": "string"
        },
        {
          "internalType": "address",
          "name": "tokenAddress",
          "type": "address"
        },
        {
          "internalType": "uint256",
          "name": "value",
          "type": "uint256"
        }
      ],
      "name": "issueDividend",
      "outputs": [],
      "stateMutability": "nonpayable",
      "type": "function"
    },
    {
      "inputs": [
        {
          "internalType": "uint256",
          "name": "amount",
          "type": "uint256"
        },
        {
          "internalType": "address",
          "name": "tokenAddress",
          "type": "address"
        },
        {
          "internalType": "uint256",
          "name": "price",
          "type": "uint256"
        },
        {
          "internalType": "address",
          "name": "to",
          "type": "address"
        }
      ],
      "name": "issueShards",
      "outputs": [],
      "stateMutability": "nonpayable",
      "type": "function"
    },
    {
      "inputs": [
        {
          "internalType": "address",
          "name": "",
          "type": "address"
        }
      ],
      "name": "liquid",
      "outputs": [
        {
          "internalType": "uint256",
          "name": "",
          "type": "uint256"
        }
      ],
      "stateMutability": "view",
      "type": "function"
    },
    {
      "inputs": [],
      "name": "liquidize",
      "outputs": [],
      "stateMutability": "nonpayable",
      "type": "function"
    },
    {
      "inputs": [
        {
          "internalType": "string",
          "name": "fromBankName",
          "type": "string"
        },
        {
          "internalType": "string",
          "name": "toBankName",
          "type": "string"
        },
        {
          "internalType": "address",
          "name": "tokenAddress",
          "type": "address"
        },
        {
          "internalType": "uint256",
          "name": "value",
          "type": "uint256"
        }
      ],
      "name": "moveToken",
      "outputs": [],
      "stateMutability": "nonpayable",
      "type": "function"
    },
    {
      "inputs": [
        {
          "internalType": "bytes32",
          "name": "shard",
          "type": "bytes32"
        },
        {
          "internalType": "uint256",
          "name": "amount",
          "type": "uint256"
        },
        {
          "internalType": "uint256",
          "name": "price",
          "type": "uint256"
        }
      ],
      "name": "purchase",
      "outputs": [],
      "stateMutability": "payable",
      "type": "function"
    },
    {
      "inputs": [
        {
          "internalType": "bytes32",
          "name": "shard",
          "type": "bytes32"
        },
        {
          "internalType": "uint256",
          "name": "amount",
          "type": "uint256"
        },
        {
          "internalType": "address",
          "name": "tokenAddress",
          "type": "address"
        },
        {
          "internalType": "uint256",
          "name": "price",
          "type": "uint256"
        },
        {
          "internalType": "address",
          "name": "to",
          "type": "address"
        }
      ],
      "name": "putForSale",
      "outputs": [],
      "stateMutability": "nonpayable",
      "type": "function"
    },
    {
      "inputs": [
        {
          "internalType": "address",
          "name": "tokenAddress",
          "type": "address"
        },
        {
          "internalType": "uint256",
          "name": "value",
          "type": "uint256"
        }
      ],
      "name": "receiveToken",
      "outputs": [],
      "stateMutability": "nonpayable",
      "type": "function"
    },
    {
      "inputs": [
        {
          "internalType": "address",
          "name": "tokenAddress",
          "type": "address"
        }
      ],
      "name": "registerTokenAddress",
      "outputs": [],
      "stateMutability": "nonpayable",
      "type": "function"
    },
    {
      "inputs": [
        {
          "internalType": "string",
          "name": "bankName",
          "type": "string"
        },
        {
          "internalType": "address",
          "name": "bankAdmin",
          "type": "address"
        }
      ],
      "name": "removeBankAdmin",
      "outputs": [],
      "stateMutability": "nonpayable",
      "type": "function"
    },
    {
      "inputs": [
        {
          "internalType": "string",
          "name": "permitName",
          "type": "string"
        },
        {
          "internalType": "address",
          "name": "account",
          "type": "address"
        },
        {
          "internalType": "enum Administrable.PermitState",
          "name": "newState",
          "type": "uint8"
        }
      ],
      "name": "setPermit",
      "outputs": [],
      "stateMutability": "nonpayable",
      "type": "function"
    },
    {
      "inputs": [
        {
          "internalType": "address",
          "name": "",
          "type": "address"
        }
      ],
      "name": "shardByOwner",
      "outputs": [
        {
          "internalType": "bytes32",
          "name": "",
          "type": "bytes32"
        }
      ],
      "stateMutability": "view",
      "type": "function"
    },
    {
      "inputs": [
        {
          "internalType": "bytes32",
          "name": "shard",
          "type": "bytes32"
        },
        {
          "internalType": "uint256",
          "name": "atClock",
          "type": "uint256"
        }
      ],
      "name": "shardExisted",
      "outputs": [
        {
          "internalType": "bool",
          "name": "",
          "type": "bool"
        }
      ],
      "stateMutability": "view",
      "type": "function"
    },
    {
      "inputs": [
        {
          "internalType": "bytes32",
          "name": "senderShard",
          "type": "bytes32"
        },
        {
          "internalType": "uint256",
          "name": "amount",
          "type": "uint256"
        },
        {
          "internalType": "address",
          "name": "to",
          "type": "address"
        }
      ],
      "name": "split",
      "outputs": [],
      "stateMutability": "nonpayable",
      "type": "function"
    },
    {
      "inputs": [
        {
          "internalType": "uint256",
          "name": "",
          "type": "uint256"
        }
      ],
      "name": "totalShardAmountByClock",
      "outputs": [
        {
          "internalType": "uint256",
          "name": "",
          "type": "uint256"
        }
      ],
      "stateMutability": "view",
      "type": "function"
    },
    {
      "inputs": [
        {
          "internalType": "string",
          "name": "bankName",
          "type": "string"
        },
        {
          "internalType": "address",
          "name": "tokenAddress",
          "type": "address"
        },
        {
          "internalType": "uint256",
          "name": "value",
          "type": "uint256"
        },
        {
          "internalType": "address",
          "name": "to",
          "type": "address"
        }
      ],
      "name": "transferTokenFromBank",
      "outputs": [],
      "stateMutability": "nonpayable",
      "type": "function"
    },
    {
      "inputs": [
        {
          "internalType": "address",
          "name": "tokenAddress",
          "type": "address"
        }
      ],
      "name": "unregisterTokenAddress",
      "outputs": [],
      "stateMutability": "nonpayable",
      "type": "function"
    },
    {
      "stateMutability": "payable",
      "type": "receive"
    }
  ],
  "bytecode": "6080604052600080553480156200001557600080fd5b5060405162004b5438038062004b54833981016040819052620000389162000546565b808062000048813360006200017a565b60008054815260026020908152604091829020929092556001805460ff1916811790558051808201909152600481526336b0b4b760e11b9181019190915262000093915033620002ea565b620000c160405180604001604052806002815260200161695360f01b8152503360026200042c60201b60201c565b620000ef604051806040016040528060028152602001611b5160f21b8152503360026200042c60201b60201c565b6200011d6040518060400160405280600281526020016136a160f11b8152503360026200042c60201b60201c565b6200014b604051806040016040528060028152602001616c4560f01b8152503360026200042c60201b60201c565b6040805180820190915260038152621b505560ea1b602082015262000173903360026200042c565b5062000702565b60008311620001b55760405162461bcd60e51b815260206004820152600260248201526129ad60f11b60448201526064015b60405180910390fd5b6000805b6040516001600160601b0319606086901b166020820152603481018490526054810183905260740160408051601f198184030181529181528151602092830120600081815260039093529120600101549091506001600160a01b031615620002305781620002278162000560565b925050620001b9565b6001600160a01b03848116600081815260046020908152604080832086905585835260078252808320600019905580516060810182528a81528083019485528082018981528785526003845293829020905181559351600180860180546001600160a01b0319169290971691909117909555915160029093019290925580519283529082018390527f12769fd465856c3651942a04374f21755b56a66422aaed87c7e56e936f6dd3d0910160405180910390a15050505050565b6001805460ff16151514620003275760405162461bcd60e51b8152602060048201526002602482015261115360f21b6044820152606401620001ac565b620003328262000514565b15620003665760405162461bcd60e51b8152602060048201526002602482015261414560f01b6044820152606401620001ac565b60016010836040516200037a9190620005ae565b90815260408051602092819003830181206001600160a01b038616600090815293529120805460ff191692151592909217909155600190600d90620003c1908590620005ae565b90815260405160209181900382018120805460ff19169315159390931790925560008051602062004b348339815191529162000402918591859101620005fa565b60408051601f19818403018152908290526200042091339062000626565b60405180910390a15050565b6001805460ff16151514620004695760405162461bcd60e51b8152602060048201526002602482015261115360f21b6044820152606401620001ac565b806011846040516200047c9190620005ae565b90815260408051602092819003830190206001600160a01b038616600090815292529020805460ff19166001836002811115620004bd57620004bd6200066b565b021790555060008051602062004b34833981519152838383604051602001620004e99392919062000681565b60408051601f198184030181529082905262000507913390620006d4565b60405180910390a1505050565b6000600d82604051620005289190620005ae565b9081526040519081900360200190205460ff16151560011492915050565b6000602082840312156200055957600080fd5b5051919050565b6000600182016200058157634e487b7160e01b600052601160045260246000fd5b5060010190565b60005b83811015620005a55781810151838201526020016200058b565b50506000910152565b60008251620005c281846020870162000588565b9190910192915050565b60008151808452620005e681602086016020860162000588565b601f01601f19169290920160200192915050565b6040815260006200060f6040830185620005cc565b905060018060a01b03831660208301529392505050565b60608152600260608201526131a160f11b608082015260a0602082015260006200065460a0830185620005cc565b905060018060a01b03831660408301529392505050565b634e487b7160e01b600052602160045260246000fd5b606081526000620006966060830186620005cc565b6001600160a01b0385166020840152905060038310620006c657634e487b7160e01b600052602160045260246000fd5b826040830152949350505050565b606081526002606082015261073560f41b608082015260a0602082015260006200065460a0830185620005cc565b61442280620007126000396000f3fe6080604052600436106102765760003560e01c8063868399a51161014f578063b4af7d59116100c1578063de9d68051161007a578063de9d680514610850578063e1c34c1f14610870578063e6778fce14610890578063efae89f8146108bd578063f7aae621146108ea578063fd06636b1461090a57600080fd5b8063b4af7d5914610746578063bcedb2e014610766578063c4802eb2146107ce578063c5438a55146107fb578063d1cc99761461081b578063db5dc9b71461083057600080fd5b8063a1916aef11610113578063a1916aef1461069e578063a80aed76146106be578063a902780f146106de578063a907b6c5146106f3578063ab2d662b14610713578063b2cb78ab1461072657600080fd5b8063868399a5146105de5780638786df6a146105fe5780639211b7b31461061e57806397235a1e1461064e5780639995b9a91461066e57600080fd5b8063350546d8116101e85780634c46360b116101ac5780634c46360b146104c35780635beeff33146104f357806362748dcc1461052057806363879c0b1461056e5780637b7854931461058e578063859d9fd5146105be57600080fd5b8063350546d81461040d578063354cd1351461042d578063384fe2b51461044d5780633baf28f81461046d5780633dbeaa541461048d57600080fd5b8063169936b41161023a578063169936b41461034d578063236566421461036d578063258e4d9f1461038d5780632dec7cd2146103ad5780632ef37926146103cd5780632f2e9a2a146103ed57600080fd5b806302fb0c5e1461028e57806305c558f5146102bd578063066792d2146102d25780630bea89851461030d5780630d3330a11461032d57600080fd5b36610289576102876000343361092a565b005b600080fd5b34801561029a57600080fd5b506001546102a89060ff1681565b60405190151581526020015b60405180910390f35b3480156102c957600080fd5b50610287610a78565b3480156102de57600080fd5b506102ff6102ed366004613988565b60026020526000908152604090205481565b6040519081526020016102b4565b34801561031957600080fd5b50610287610328366004613988565b610ab1565b34801561033957600080fd5b506102876103483660046139bd565b610b90565b34801561035957600080fd5b506102a8610368366004613a7b565b610c65565b34801561037957600080fd5b50610287610388366004613988565b610cc3565b34801561039957600080fd5b506102a86103a8366004613ab8565b610cfe565b3480156103b957600080fd5b506102ff6103c8366004613ab8565b610d53565b3480156103d957600080fd5b506102876103e8366004613ab8565b610d94565b3480156103f957600080fd5b50610287610408366004613ab8565b610df2565b34801561041957600080fd5b506102876104283660046139bd565b610e44565b34801561043957600080fd5b50610287610448366004613b06565b610ff2565b34801561045957600080fd5b50610287610468366004613a7b565b611224565b34801561047957600080fd5b50610287610488366004613b28565b61126f565b34801561049957600080fd5b506102ff6104a83660046139bd565b6001600160a01b03166000908152600b602052604090205490565b3480156104cf57600080fd5b506102ff6104de366004613988565b60009081526013602052604090206001015490565b3480156104ff57600080fd5b506102ff61050e3660046139bd565b60096020526000908152604090205481565b34801561052c57600080fd5b5061055661053b366004613988565b6000908152601360205260409020546001600160a01b031690565b6040516001600160a01b0390911681526020016102b4565b34801561057a57600080fd5b50610287610589366004613b6e565b6112b0565b34801561059a57600080fd5b506102ff6105a9366004613988565b60009081526006602052604090206001015490565b3480156105ca57600080fd5b506102876105d93660046139bd565b6112fd565b3480156105ea57600080fd5b506102a86105f93660046139bd565b61135b565b34801561060a57600080fd5b506102876106193660046139bd565b611390565b34801561062a57600080fd5b506102a8610639366004613988565b60009081526012602052604090205460ff1690565b34801561065a57600080fd5b50610287610669366004613bc5565b6113ee565b34801561067a57600080fd5b506102a8610689366004613988565b60008054918152600760205260409020541190565b3480156106aa57600080fd5b506102876106b9366004613bef565b6113f8565b3480156106ca57600080fd5b506102a86106d9366004613ab8565b611418565b3480156106ea57600080fd5b506000546102ff565b3480156106ff57600080fd5b5061028761070e366004613ab8565b61148a565b610287610721366004613c6b565b6114d6565b34801561073257600080fd5b50610287610741366004613c97565b611b3b565b34801561075257600080fd5b506102a8610761366004613a7b565b611bb7565b34801561077257600080fd5b506107ab610781366004613988565b60036020526000908152604090208054600182015460029092015490916001600160a01b03169083565b604080519384526001600160a01b039092166020840152908201526060016102b4565b3480156107da57600080fd5b506102ff6107e93660046139bd565b60046020526000908152604090205481565b34801561080757600080fd5b50610287610816366004613ccc565b611be7565b34801561082757600080fd5b506102a8611c94565b34801561083c57600080fd5b506102a861084b366004613ab8565b611cbe565b34801561085c57600080fd5b5061028761086b366004613d32565b611d14565b34801561087c57600080fd5b506102a861088b3660046139bd565b611d34565b34801561089c57600080fd5b506102ff6108ab366004613988565b60009081526014602052604090205490565b3480156108c957600080fd5b506102ff6108d8366004613988565b60009081526007602052604090205490565b3480156108f657600080fd5b50610287610905366004613d7a565b611d66565b34801561091657600080fd5b506102a8610925366004613b06565b611ded565b610935838383611e1e565b6040516336b0b4b760e11b8152600f9060040190815260408051602092819003830190206001600160a01b0386166000908152925290205415801561098257506001600160a01b03831615155b156109c5576001600e6040516109a2906336b0b4b760e11b815260040190565b908152602001604051809103902060008282546109bf9190613de0565b90915550505b81600f6040516109df906336b0b4b760e11b815260040190565b90815260200160405180910390206000856001600160a01b03166001600160a01b031681526020019081526020016000206000828254610a1f9190613de0565b9091555050604080516001600160a01b038086168252602082018590528316918101919091527fde49bbe8e448cdfa40e6fa0d22592be9a03b28ba746527635dbe5235416659cf906060015b60405180910390a1505050565b604051806040016040528060028152602001616c4560f01b815250610a9d8133611cbe565b610aa657600080fd5b610aae611e73565b50565b60008181526003602052604090206001015481906001600160a01b03163314610af55760405162461bcd60e51b8152600401610aec90613df3565b60405180910390fd5b81610b0f8160008054918152600760205260409020541190565b610b2b5760405162461bcd60e51b8152600401610aec90613e0f565b600160008481526005602052604090205460ff166002811115610b5057610b50613e2b565b14610b825760405162461bcd60e51b81526020600482015260026024820152614e5360f01b6044820152606401610aec565b610b8b83611ec5565b505050565b610b98611c94565b610bc95760405162461bcd60e51b81526020600482015260026024820152610ae960f31b6044820152606401610aec565b6001600160a01b0381166000908152600b6020526040902054610c125760405162461bcd60e51b81526020600482015260016024820152604560f81b6044820152606401610aec565b6001600160a01b0381166000908152600b6020526040902054610c4b9082907349a71890aea5a751e30e740c504f2e9683f347bc611f6f565b6001600160a01b03166000908152600b6020526040812055565b6000600e82604051610c779190613e65565b9081526020016040518091039020546000148015610cbd5750600f82604051610ca09190613e65565b908152604080516020928190038301902060008080529252902054155b92915050565b604051806040016040528060028152602001611b5160f21b815250610ce88133611cbe565b610cf157600080fd5b610cfa82612214565b5050565b60006002601184604051610d129190613e65565b90815260408051602092819003830190206001600160a01b0386166000908152925290205460ff166002811115610d4b57610d4b613e2b565b149392505050565b6000600f83604051610d659190613e65565b908152604080519182900360209081019092206001600160a01b03851660009081529252902054905092915050565b6040518060400160405280600281526020016136a160f11b815250610db98133611cbe565b610dc257600080fd5b6001805460ff16151514610de85760405162461bcd60e51b8152600401610aec90613e81565b610b8b83836122ff565b6040518060400160405280600281526020016136a160f11b815250610e178133610cfe565b610e2057600080fd5b82610e2b8133611418565b610e3457600080fd5b610e3e8484612411565b50505050565b610e4d33611d34565b610e7e5760405162461bcd60e51b81526020600482015260026024820152610aa960f31b6044820152606401610aec565b60015460ff1615610eb65760405162461bcd60e51b8152602060048201526002602482015261534160f01b6044820152606401610aec565b336000908152600460209081526040808320546001600160a01b0385168452600c83528184208185529092529091205460ff1615610f1b5760405162461bcd60e51b8152602060048201526002602482015261414360f01b6044820152606401610aec565b6001600160a01b0382166000818152600c602090815260408083208584528252808320805460ff191660011790558254835260028252808320548584526003835281842054948452600990925282205491929091610f799190613e9d565b610f839190613eb4565b905080600003610fb95760405162461bcd60e51b81526020600482015260016024820152604560f81b6044820152606401610aec565b6001600160a01b0383166000908152600b602052604081208054839290610fe1908490613ed6565b90915550610b8b9050838233611f6f565b60008281526003602052604090206001015482906001600160a01b0316331461102d5760405162461bcd60e51b8152600401610aec90613df3565b600082815260126020526040902054829060ff1661104a57600080fd5b6001805460ff161515146110705760405162461bcd60e51b8152600401610aec90613e81565b61107a8484611ded565b6110ac5760405162461bcd60e51b81526020600482015260036024820152622720a360e91b6044820152606401610aec565b600083815260156020908152604080832087845290915290205460ff16156110fb5760405162461bcd60e51b8152602060048201526002602482015261414360f01b6044820152606401610aec565b60008381526015602090815260408083208784528252808320805460ff19166001908117909155835484526002835281842054888552600384528285205488865260139094529184200154909161115191613e9d565b61115b9190613eb4565b9050806000036111935760405162461bcd60e51b815260206004820152600360248201526244545360e81b6044820152606401610aec565b600084815260146020526040812080548392906111b1908490613ed6565b90915550506000848152601360205260409020546111d9906001600160a01b03168233611f6f565b604080518581526020810183905233918101919091527f67dd3d116bf53e0ddda53bb148a5fdc129854e1c507c0eeda9190049a9bbc84f906060015b60405180910390a15050505050565b6040518060400160405280600281526020016136a160f11b8152506112498133610cfe565b61125257600080fd5b8161125d8133611418565b61126657600080fd5b610b8b836124cd565b60405180604001604052806002815260200161695360f01b8152506112948133611cbe565b61129d57600080fd5b6112a985858585612652565b5050505050565b604051806040016040528060028152602001611b5160f21b8152506112d58133611cbe565b6112de57600080fd5b836112e98133611418565b6112f257600080fd5b6112a98585856126c7565b604051806040016040528060038152602001621b505560ea1b8152506113238133611cbe565b61132c57600080fd5b6001805460ff161515146113525760405162461bcd60e51b8152600401610aec90613e81565b610cfa826128ca565b6001600160a01b03811660009081526008602052604081205460ff16151560011480610cbd5750506001600160a01b03161590565b604051806040016040528060038152602001621b505560ea1b8152506113b68133611cbe565b6113bf57600080fd5b6001805460ff161515146113e55760405162461bcd60e51b8152600401610aec90613e81565b610cfa82612913565b610cfa828261295c565b836114038133611418565b61140c57600080fd5b6112a985858585612ac4565b600060108360405161142a9190613e65565b908152604080519182900360209081019092206001600160a01b0385166000908152925290205460ff1615156001148061148357506114836040518060400160405280600281526020016136a160f11b81525083610cfe565b9392505050565b6040518060400160405280600281526020016136a160f11b8152506114af8133611cbe565b6114b857600080fd5b826114c38133611418565b6114cc57600080fd5b610e3e8484612d58565b826114f08160008054918152600760205260409020541190565b61150c5760405162461bcd60e51b8152600401610aec90613e0f565b600160008581526005602052604090205460ff16600281111561153157611531613e2b565b146115635760405162461bcd60e51b81526020600482015260026024820152614e5360f01b6044820152606401610aec565b60008481526006602052604090206001015482146115a85760405162461bcd60e51b8152602060048201526002602482015261057560f41b6044820152606401610aec565b826000036115dd5760405162461bcd60e51b8152602060048201526002602482015261455360f01b6044820152606401610aec565b6000848152600660205260409020548311156116205760405162461bcd60e51b8152602060048201526002602482015261455360f01b6044820152606401610aec565b6000848152600660205260409020600301546001600160a01b031633148061166057506000848152600660205260409020600301546001600160a01b0316155b6116915760405162461bcd60e51b815260206004820152600260248201526129a960f11b6044820152606401610aec565b6000848152600560209081526040808320805460ff1916600217905560069091528120600101546116c29085613e9d565b905060008060006116d78460196103e8612e56565b919450925090506116e88183613de0565b6000898152600660205260409020600201549092506001600160a01b0316611847578334101561173f5760405162461bcd60e51b8152602060048201526002602482015261494560f01b6044820152606401610aec565b6040516000907349a71890aea5a751e30e740c504f2e9683f347bc9085908381818185875af1925050503d8060008114611795576040519150601f19603f3d011682016040523d82523d6000602084013e61179a565b606091505b505060008a81526003602052604080822060010154905192935090916001600160a01b039091169085908381818185875af1925050503d80600081146117fc576040519150601f19603f3d011682016040523d82523d6000602084013e611801565b606091505b5050905080801561180f5750815b6118405760405162461bcd60e51b81526020600482015260026024820152612a2360f11b6044820152606401610aec565b50506119cc565b60008881526006602052604090819020600201549051636eb1769f60e11b81523360048201523060248201526001600160a01b03909116908590829063dd62ed3e90604401602060405180830381865afa1580156118a9573d6000803e3d6000fd5b505050506040513d601f19601f820116820180604052508101906118cd9190613ee9565b10156118eb5760405162461bcd60e51b8152600401610aec90613f02565b6040516323b872dd60e01b81523360048201527349a71890aea5a751e30e740c504f2e9683f347bc6024820152604481018590526001600160a01b038216906323b872dd906064016020604051808303816000875af1158015611952573d6000803e3d6000fd5b505050506040513d601f19601f820116820180604052508101906119769190613f1e565b6119925760405162461bcd60e51b8152600401610aec90613f40565b6000898152600360209081526040808320600101546006909252909120600201546119ca916001600160a01b03908116911685612eca565b505b6119d7888833612f79565b600088815260036020526040902060010154306001600160a01b0390911603611a1f576000805481526002602052604081208054899290611a19908490613de0565b90915550505b6040805160808101825288815260008a8152600660208181528483206001810154828601526002818101546001600160a01b0390811687890152948f90529290915260030154909116606083015291517fd8cd09ea93b4076ab867588c0d1a52b62c5b605b7a5f1c0189781245631a835392611a9f9290918c9190613f7a565b60405180910390a16000888152600660205260409020548714611b31576000888152600360209081526040808320600101546001600160a01b0316835260048252808320548b8452600690925290912054611b319190611b00908a90613ed6565b60008b8152600660205260409020600281015460018201546003909201546001600160a01b03918216929116613147565b5050505050505050565b60008381526003602052604090206001015483906001600160a01b03163314611b765760405162461bcd60e51b8152600401610aec90613df3565b83611b908160008054918152600760205260409020541190565b611bac5760405162461bcd60e51b8152600401610aec90613e0f565b6112a9858585612f79565b6000600d82604051611bc99190613e65565b9081526040519081900360200190205460ff16151560011492915050565b82611bf28133610cfe565b611bfb57600080fd5b816002811115611c0d57611c0d613e2b565b601185604051611c1d9190613e65565b90815260408051602092819003830190206001600160a01b0387166000908152925290205460ff166002811115611c5657611c56613e2b565b03611c895760405162461bcd60e51b815260206004820152600360248201526204148560ec1b6044820152606401610aec565b610e3e8484846132e4565b60015460009060ff16158015611cb9575061012c600a5442611cb69190613ed6565b10155b905090565b60006001601184604051611cd29190613e65565b90815260408051602092819003830190206001600160a01b0386166000908152925290205460ff166002811115611d0b57611d0b613e2b565b10159392505050565b83611d1f8133611418565b611d2857600080fd5b6112a98585858561339e565b6001600160a01b038116600090815260046020526040812054610cbd9060008054918152600760205260409020541190565b60008581526003602052604090206001015485906001600160a01b03163314611da15760405162461bcd60e51b8152600401610aec90613df3565b85611dbb8160008054918152600760205260409020541190565b611dd75760405162461bcd60e51b8152600401610aec90613e0f565b611de48787878787613147565b50505050505050565b6000828152600360205260408120600201548210801590611483575050600091825260076020526040909120541190565b6001600160a01b03831660009081526009602052604081208054849290611e46908490613de0565b90915550506001600160a01b0383166000908152600b602052604081208054849290610a1f908490613de0565b611e7b613540565b604080516060808252600290820152616c4560f01b608082015260a060208201819052600090820152338183015290516000805160206143cd8339815191529181900360c00190a1565b80611edf8160008054918152600760205260409020541190565b611efb5760405162461bcd60e51b8152600401610aec90613e0f565b6000828152600560209081526040808320805460ff19169055805160808101825283815291820183905281810183905260608201839052517fd8cd09ea93b4076ab867588c0d1a52b62c5b605b7a5f1c0189781245631a835392611f63929091869190613f7a565b60405180910390a15050565b6001600160a01b038316600090815260096020526040902054821115611fa75760405162461bcd60e51b8152600401610aec90613f02565b6001600160a01b038316611fc457611fbf8282613576565b6121ff565b60405163095ea7b360e01b81526001600160a01b0382811660048301526024820184905284919082169063095ea7b3906044016020604051808303816000875af1158015612016573d6000803e3d6000fd5b505050506040513d601f19601f8201168201806040525081019061203a9190613f1e565b61206b5760405162461bcd60e51b81526020600482015260026024820152614e4160f01b6044820152606401610aec565b6001600160a01b0382163b1561216e57604051634b91ad0f60e11b81526001600160a01b038581166004830152602482018590528316906397235a1e90604401600060405180830381600087803b1580156120c557600080fd5b505af19250505080156120d6575060015b6121695760405163a9059cbb60e01b81526001600160a01b0383811660048301526024820185905282169063a9059cbb906044016020604051808303816000875af1158015612129573d6000803e3d6000fd5b505050506040513d601f19601f8201168201806040525081019061214d9190613f1e565b6121695760405162461bcd60e51b8152600401610aec90613f40565b6121fd565b60405163a9059cbb60e01b81526001600160a01b0383811660048301526024820185905282169063a9059cbb906044016020604051808303816000875af11580156121bd573d6000803e3d6000fd5b505050506040513d601f19601f820116820180604052508101906121e19190613f1e565b6121fd5760405162461bcd60e51b8152600401610aec90613f40565b505b60015460ff1615610b8b57610b8b83836135fe565b600081815260126020526040902054819060ff1661223157600080fd5b6001805460ff161515146122575760405162461bcd60e51b8152600401610aec90613e81565b6000828152601260209081526040808320805460ff19169055601482528083205481516336b0b4b760e11b8152600f6004820152825190819003602401902086855260138452828520546001600160a01b0316855290925282208054919290916122c2908490613de0565b909155505060408051602081018490526000805160206143cd833981519152910160408051601f1981840301815290829052611f63913390613ff7565b6001805460ff161515146123255760405162461bcd60e51b8152600401610aec90613e81565b61232e82611bb7565b156123605760405162461bcd60e51b8152602060048201526002602482015261414560f01b6044820152606401610aec565b60016010836040516123729190613e65565b90815260408051602092819003830181206001600160a01b038616600090815293529120805460ff191692151592909217909155600190600d906123b7908590613e65565b90815260405160209181900382018120805460ff1916931515939093179092556000805160206143cd833981519152916123f591859185910161403a565b60408051601f1981840301815290829052611f63913390614064565b6001805460ff161515146124375760405162461bcd60e51b8152600401610aec90613e81565b6124418282611418565b61244a57600080fd5b600060108360405161245c9190613e65565b90815260408051602092819003830181206001600160a01b038616600090815290845291909120805460ff1916931515939093179092556000805160206143cd833981519152916124b191859185910161403a565b60408051601f1981840301815290829052611f63913390614090565b6001805460ff161515146124f35760405162461bcd60e51b8152600401610aec90613e81565b6124fc81611bb7565b61252e5760405162461bcd60e51b815260206004820152600360248201526255422160e81b6044820152606401610aec565b60408051808201909152600481526336b0b4b760e11b6020918201528151908201207f471dfab0756edc981c75dd3188ccd700755407f7d3bedf452610f7a1e240d659016125a35760405162461bcd60e51b815260206004820152600260248201526126a160f11b6044820152606401610aec565b6125ac81610c65565b6125dd5760405162461bcd60e51b8152602060048201526002602482015261424560f01b6044820152606401610aec565b6000600d826040516125ef9190613e65565b90815260405160209181900382018120805460ff1916931515939093179092556000805160206143cd8339815191529161262b918491016140bc565b60408051601f19818403018152908290526126479133906140cf565b60405180910390a150565b61265e8484848461365c565b60408051602081018690526001600160a01b03808616928201929092526060810184905290821660808201526000805160206143cd8339815191529060a00160408051601f19818403018152908290526126b99133906140fb565b60405180910390a150505050565b6001805460ff161515146126ed5760405162461bcd60e51b8152600401610aec90613e81565b600f836040516126fd9190613e65565b90815260408051602092819003830190206001600160a01b038516600090815292529020548111156127415760405162461bcd60e51b8152600401610aec90614127565b80600f846040516127529190613e65565b90815260200160405180910390206000846001600160a01b03166001600160a01b0316815260200190815260200160002060008282546127929190613ed6565b9091555050604051600f906127a8908590613e65565b90815260408051602092819003830190206001600160a01b038516600090815292529020541580156127e257506001600160a01b03821615155b1561281c576001600e846040516127f99190613e65565b908152602001604051809103902060008282546128169190613ed6565b90915550505b6040805180820182526001600160a01b038481168252602080830185815260008054815260138352858120945185546001600160a01b03191694169390931784555160019384015581548252601481528382208590558154825260128152838220805460ff19169093179092555491516000805160206143cd833981519152926128ae92909187918791879101614143565b60408051601f1981840301815290829052610a6b913390614178565b6128d3816136db565b604080516001600160a01b03831660208201526000805160206143cd833981519152910160408051601f19818403018152908290526126479133906141a4565b61291c81613781565b604080516001600160a01b03831660208201526000805160206143cd833981519152910160408051601f19818403018152908290526126479133906141d0565b6129658261135b565b6129965760405162461bcd60e51b8152602060048201526002602482015261155560f21b6044820152606401610aec565b604051636eb1769f60e11b8152336004820152306024820152829082906001600160a01b0383169063dd62ed3e90604401602060405180830381865afa1580156129e4573d6000803e3d6000fd5b505050506040513d601f19601f82011682018060405250810190612a089190613ee9565b1015612a265760405162461bcd60e51b8152600401610aec90613f02565b6040516323b872dd60e01b8152336004820152306024820152604481018390526001600160a01b038216906323b872dd906064016020604051808303816000875af1158015612a79573d6000803e3d6000fd5b505050506040513d601f19601f82011682018060405250810190612a9d9190613f1e565b612ab95760405162461bcd60e51b8152600401610aec90613f40565b610b8b83833361092a565b82612ace81611bb7565b612b005760405162461bcd60e51b8152602060048201526003602482015262444e4560e81b6044820152606401610aec565b6001805460ff16151514612b265760405162461bcd60e51b8152600401610aec90613e81565b600f85604051612b369190613e65565b90815260408051602092819003830190206001600160a01b03861660009081529252902054821115612b7a5760405162461bcd60e51b8152600401610aec90614127565b81600f86604051612b8b9190613e65565b90815260200160405180910390206000856001600160a01b03166001600160a01b031681526020019081526020016000206000828254612bcb9190613ed6565b90915550506001600160a01b03831615612cbf57600f85604051612bef9190613e65565b90815260408051602092819003830190206001600160a01b038616600090815292528120549003612c4f576001600e86604051612c2c9190613e65565b90815260200160405180910390206000828254612c499190613ed6565b90915550505b600f84604051612c5f9190613e65565b90815260408051602092819003830190206001600160a01b038616600090815292528120549003612cbf576001600e85604051612c9c9190613e65565b90815260200160405180910390206000828254612cb99190613de0565b90915550505b81600f85604051612cd09190613e65565b90815260200160405180910390206000856001600160a01b03166001600160a01b031681526020019081526020016000206000828254612d109190613de0565b90915550506040516000805160206143cd83398151915290612d3c9087908790879087906020016141fc565b60408051601f198184030181529082905261121591339061423e565b6001805460ff16151514612d7e5760405162461bcd60e51b8152600401610aec90613e81565b612da26040518060400160405280600281526020016136a160f11b81525082611cbe565b612dd35760405162461bcd60e51b815260206004820152600260248201526104e560f41b6044820152606401610aec565b6001601083604051612de59190613e65565b90815260408051602092819003830181206001600160a01b038616600090815290845291909120805460ff1916931515939093179092556000805160206143cd83398151915291612e3a91859185910161403a565b60408051601f1981840301815290829052611f6391339061426a565b6000806000848411612e6757600080fd5b600084612e748789613e9d565b612e7e9190613eb4565b9050600085612e8d8882613ed6565b612e97908a613e9d565b612ea19190613eb4565b90508181612eaf8183613de0565b612eb9908b613ed6565b945094509450505093509350939050565b306001600160a01b03841603612ee457610b8b828261295c565b6040516323b872dd60e01b81523360048201523060248201526044810182905282906001600160a01b038216906323b872dd906064016020604051808303816000875af1158015612f39573d6000803e3d6000fd5b505050506040513d601f19601f82011682018060405250810190612f5d9190613f1e565b610e3e5760405162461bcd60e51b8152600401610aec90613f40565b82612f938160008054918152600760205260409020541190565b612faf5760405162461bcd60e51b8152600401610aec90613e0f565b6001805460ff16151514612fd55760405162461bcd60e51b8152600401610aec90613e81565b6000848152600360205260409020548311156130185760405162461bcd60e51b8152602060048201526002602482015261494160f01b6044820152606401610aec565b61302182611d34565b15613090576001600160a01b038216600090815260046020908152604080832054835260039091528120546130569085613de0565b6001600160a01b038416600090815260046020526040812054905491925061307d916137e0565b61308a8184600054613827565b5061309d565b61309d8383600054613827565b6130a9846000546137e0565b6000848152600360205260408120546130c3908590613ed6565b905080156130f65760008581526003602052604081206001015490546130f69183916001600160a01b0390911690613827565b5060008054808252600260208190526040832054929091613118906001613de0565b81526020019081526020016000208190555060008081548092919061313c90614296565b919050555050505050565b846131618160008054918152600760205260409020541190565b61317d5760405162461bcd60e51b8152600401610aec90613e0f565b6001805460ff161515146131a35760405162461bcd60e51b8152600401610aec90613e81565b60008681526005602052604081205460ff1660028111156131c6576131c6613e2b565b146131d057600080fd5b6000868152600360205260409020548511156132135760405162461bcd60e51b8152602060048201526002602482015261494160f01b6044820152606401610aec565b6040805160808101825286815260208082018681526001600160a01b038881168486019081528782166060860190815260008d8152600680875288822097518855945160018089019190915592516002880180549186166001600160a01b03199283161790559151600388018054919095169216919091179092556005845290859020805460ff191682179055915291517fd8cd09ea93b4076ab867588c0d1a52b62c5b605b7a5f1c0189781245631a8353926132d49290918a91906142af565b60405180910390a1505050505050565b6001805460ff1615151461330a5760405162461bcd60e51b8152600401610aec90613e81565b8060118460405161331b9190613e65565b90815260408051602092819003830190206001600160a01b038616600090815292529020805460ff1916600183600281111561335957613359613e2b565b02179055506000805160206143cd833981519152838383604051602001613382939291906142fd565b60408051601f1981840301815290829052610a6b913390614338565b6001805460ff161515146133c45760405162461bcd60e51b8152600401610aec90613e81565b600f846040516133d49190613e65565b90815260408051602092819003830190206001600160a01b038616600090815292529020548211156134185760405162461bcd60e51b8152600401610aec90614127565b613423838383611f6f565b81600f856040516134349190613e65565b90815260200160405180910390206000856001600160a01b03166001600160a01b0316815260200190815260200160002060008282546134749190613ed6565b9091555050604051600f9061348a908690613e65565b90815260408051602092819003830190206001600160a01b038616600090815292529020541580156134c457506001600160a01b03831615155b156134fe576001600e856040516134db9190613e65565b908152602001604051809103902060008282546134f89190613ed6565b90915550505b6000805160206143cd833981519152848484846040516020016135249493929190614364565b60408051601f19818403018152908290526126b99133906143a0565b6001805460ff161515146135665760405162461bcd60e51b8152600401610aec90613e81565b6001805460ff1916905542600a55565b6000816001600160a01b03168360405160006040518083038185875af1925050503d80600081146135c3576040519150601f19603f3d011682016040523d82523d6000602084013e6135c8565b606091505b5050905080610b8b5760405162461bcd60e51b81526020600482015260026024820152612a2360f11b6044820152606401610aec565b6001600160a01b03821660009081526009602052604081208054839290613626908490613ed6565b90915550506001600160a01b0382166000908152600b602052604081208054839290613653908490613ed6565b90915550505050565b6136658361135b565b61366e57600080fd5b30600090815260046020526040812054905461368a91906137e0565b30600090815260046020908152604080832054835260039091529020546136be906136b59086613de0565b30600054613827565b30600090815260046020526040902054610e3e9085858585613147565b6136e48161135b565b6137155760405162461bcd60e51b8152602060048201526002602482015261155560f21b6044820152606401610aec565b6001600160a01b038116600090815260096020526040902054156137605760405162461bcd60e51b8152602060048201526002602482015261272d60f11b6044820152606401610aec565b6001600160a01b03166000908152600860205260409020805460ff19169055565b61378a8161135b565b156137bc5760405162461bcd60e51b815260206004820152600260248201526120a960f11b6044820152606401610aec565b6001600160a01b03166000908152600860205260409020805460ff19166001179055565b600082815260076020908152604080832084905580519283529082018490527f12769fd465856c3651942a04374f21755b56a66422aaed87c7e56e936f6dd3d09101611f63565b6000831161385c5760405162461bcd60e51b815260206004820152600260248201526129ad60f11b6044820152606401610aec565b6000805b6040516bffffffffffffffffffffffff19606086901b166020820152603481018490526054810183905260740160408051601f198184030181529181528151602092830120600081815260039093529120600101549091506001600160a01b0316156138d857816138d081614296565b925050613860565b6001600160a01b03848116600081815260046020908152604080832086905585835260078252808320600019905580516060810182528a81528083019485528082018981528785526003845293829020905181559351600180860180546001600160a01b0319169290971691909117909555915160029093019290925580519283529082018390527f12769fd465856c3651942a04374f21755b56a66422aaed87c7e56e936f6dd3d09101611215565b60006020828403121561399a57600080fd5b5035919050565b80356001600160a01b03811681146139b857600080fd5b919050565b6000602082840312156139cf57600080fd5b611483826139a1565b634e487b7160e01b600052604160045260246000fd5b600082601f8301126139ff57600080fd5b813567ffffffffffffffff80821115613a1a57613a1a6139d8565b604051601f8301601f19908116603f01168101908282118183101715613a4257613a426139d8565b81604052838152866020858801011115613a5b57600080fd5b836020870160208301376000602085830101528094505050505092915050565b600060208284031215613a8d57600080fd5b813567ffffffffffffffff811115613aa457600080fd5b613ab0848285016139ee565b949350505050565b60008060408385031215613acb57600080fd5b823567ffffffffffffffff811115613ae257600080fd5b613aee858286016139ee565b925050613afd602084016139a1565b90509250929050565b60008060408385031215613b1957600080fd5b50508035926020909101359150565b60008060008060808587031215613b3e57600080fd5b84359350613b4e602086016139a1565b925060408501359150613b63606086016139a1565b905092959194509250565b600080600060608486031215613b8357600080fd5b833567ffffffffffffffff811115613b9a57600080fd5b613ba6868287016139ee565b935050613bb5602085016139a1565b9150604084013590509250925092565b60008060408385031215613bd857600080fd5b613be1836139a1565b946020939093013593505050565b60008060008060808587031215613c0557600080fd5b843567ffffffffffffffff80821115613c1d57600080fd5b613c29888389016139ee565b95506020870135915080821115613c3f57600080fd5b50613c4c878288016139ee565b935050613c5b604086016139a1565b9396929550929360600135925050565b600080600060608486031215613c8057600080fd5b505081359360208301359350604090920135919050565b600080600060608486031215613cac57600080fd5b8335925060208401359150613cc3604085016139a1565b90509250925092565b600080600060608486031215613ce157600080fd5b833567ffffffffffffffff811115613cf857600080fd5b613d04868287016139ee565b935050613d13602085016139a1565b9150604084013560038110613d2757600080fd5b809150509250925092565b60008060008060808587031215613d4857600080fd5b843567ffffffffffffffff811115613d5f57600080fd5b613d6b878288016139ee565b945050613b4e602086016139a1565b600080600080600060a08688031215613d9257600080fd5b8535945060208601359350613da9604087016139a1565b925060608601359150613dbe608087016139a1565b90509295509295909350565b634e487b7160e01b600052601160045260246000fd5b80820180821115610cbd57610cbd613dca565b60208082526002908201526109e960f31b604082015260600190565b602080825260029082015261555360f01b604082015260600190565b634e487b7160e01b600052602160045260246000fd5b60005b83811015613e5c578181015183820152602001613e44565b50506000910152565b60008251613e77818460208701613e41565b9190910192915050565b602080825260029082015261115360f21b604082015260600190565b8082028115828204841417610cbd57610cbd613dca565b600082613ed157634e487b7160e01b600052601260045260246000fd5b500490565b81810381811115610cbd57610cbd613dca565b600060208284031215613efb57600080fd5b5051919050565b602080825260029082015261125560f21b604082015260600190565b600060208284031215613f3057600080fd5b8151801515811461148357600080fd5b602080825260029082015261139560f21b604082015260600190565b60038110610aae57634e487b7160e01b600052602160045260246000fd5b60c08101613f8785613f5c565b8482528360208301528251604083015260208301516060830152604083015160018060a01b0380821660808501528060608601511660a08501525050949350505050565b60008151808452613fe3816020860160208601613e41565b601f01601f19169290920160200192915050565b606081526002606082015261191160f21b608082015260a06020820152600061402360a0830185613fcb565b905060018060a01b03831660408301529392505050565b60408152600061404d6040830185613fcb565b905060018060a01b03831660208301529392505050565b60608152600260608201526131a160f11b608082015260a06020820152600061402360a0830185613fcb565b606081526002606082015261724160f01b608082015260a06020820152600061402360a0830185613fcb565b6020815260006114836020830184613fcb565b606081526002606082015261322160f11b608082015260a06020820152600061402360a0830185613fcb565b606081526002606082015261695360f01b608082015260a06020820152600061402360a0830185613fcb565b60208082526002908201526124a360f11b604082015260600190565b84815260806020820152600061415c6080830186613fcb565b6001600160a01b03949094166040830152506060015292915050565b6060815260026060820152611a5160f21b608082015260a06020820152600061402360a0830185613fcb565b6060815260026060820152611d5560f21b608082015260a06020820152600061402360a0830185613fcb565b6060815260026060820152611c9560f21b608082015260a06020820152600061402360a0830185613fcb565b60808152600061420f6080830187613fcb565b82810360208401526142218187613fcb565b6001600160a01b0395909516604084015250506060015292915050565b6060815260026060820152611b5560f21b608082015260a06020820152600061402360a0830185613fcb565b606081526002606082015261614160f01b608082015260a06020820152600061402360a0830185613fcb565b6000600182016142a8576142a8613dca565b5060010190565b60c081016142bc85613f5c565b9381526020810192909252805460408301526001810154606083015260028101546001600160a01b0390811660808401526003909101541660a09091015290565b6060815260006143106060830186613fcb565b6001600160a01b0385166020840152905061432a83613f5c565b826040830152949350505050565b606081526002606082015261073560f41b608082015260a06020820152600061402360a0830185613fcb565b6080815260006143776080830187613fcb565b6001600160a01b0395861660208401526040830194909452509216606090920191909152919050565b6060815260026060820152611d1560f21b608082015260a06020820152600061402360a0830185613fcb56fe43cd76b5eb40da9ea5eb31a199f443f7cf7955ec280bc5981a2e3445c79c9055a26469706673582212201f83edfd069adb2b416ca4fb546b5e5a4ba7388ab90141fe85cecabf0c01d7c964736f6c6343000813003343cd76b5eb40da9ea5eb31a199f443f7cf7955ec280bc5981a2e3445c79c9055",
  "bytecodeSha1": "da39a3ee5e6b4b0d3255bfef95601890afd80709",
  "compiler": {
    "evm_version": "istanbul",
    "optimizer": {
      "enabled": true,
      "runs": 200
    },
    "version": "0.8.19+commit.7dd6d404"
  },
  "contractName": "Administrable",
  "language": "Solidity",
  "natspec": {
    "author": "Frederik W. L. Christoffersen",
    "kind": "dev",
    "methods": {
      "acceptsToken(address)": {
        "notice": "Returns a boolean value, stating if the given token address is registered as acceptable or not.",
        "params": {
          "tokenAddress": "The address of the token to be checked for."
        }
      },
      "active()": {
        "notice": "Boolean stating if the Shardable is active and tradeable or not."
      },
      "addBankAdmin(string,address)": {
        "notice": "Adds a new given administrator to a given Bank.",
        "params": {
          "bankAdmin": "The address of the new Bank administrator to be added.",
          "bankName": "The name of the Bank to which the new administrator is to be added."
        }
      },
      "bankExists(string)": {
        "notice": "Returns a boolean stating if a given Bank exists.",
        "params": {
          "bankName": "The name of the Bank to be checked for."
        }
      },
      "bankIsEmpty(string)": {
        "notice": "Returns a boolean stating if a given Bank is empty.",
        "params": {
          "bankName": "The name of the Bank to be checked for."
        }
      },
      "cancelSale(bytes32)": {
        "notice": "Cancels a sell of a given shard.",
        "params": {
          "shard": "The shard to be put off sale."
        }
      },
      "claimDividend(bytes32,uint256)": {
        "notice": "Claims the value of an existing dividend corresponding to the shard holder's respective shard fraction.",
        "params": {
          "dividend": "The dividend to be claimed.",
          "shard": "The shard that was valid at the clock of the Dividend creation"
        }
      },
      "claimLiquid(address)": {
        "notice": "Claims the owed liquid value corresponding to the shard holder's respective shard fraction after the entity has been liquidized/dissolved.",
        "params": {
          "tokenAddress": "The address of the token to be claimed."
        }
      },
      "claimTerminatedLiquid(address)": {
        "notice": "Claims the remaining unclaimed liquid value after termination (100 days passed since liquidization) as the property of Counekt.",
        "params": {
          "tokenAddress": "The address of the token to be claimed."
        }
      },
      "constructor": {
        "notice": "Constructor function connecting the Idea entity and creating a Bank with an administrator."
      },
      "createBank(string,address)": {
        "notice": "Creates a new Bank.",
        "params": {
          "bankAdmin": "The address of the first Bank administrator.",
          "bankName": "The name of the Bank to be created."
        }
      },
      "deleteBank(string)": {
        "notice": "Deletes a given Bank.",
        "params": {
          "bankName": "The name of the Bank to be deleted."
        }
      },
      "dissolveDividend(uint256)": {
        "notice": "Dissolves a Dividend and moves its last contents to the 'main' Bank.",
        "params": {
          "dividend": "The Dividend to be dissolved."
        }
      },
      "dividendExists(uint256)": {
        "notice": "Returns a boolean stating if a given Dividend exists.",
        "params": {
          "dividend": "The Dividend to be checked for."
        }
      },
      "getBankBalance(string,address)": {
        "notice": "Returns the balance of a bank.",
        "params": {
          "bankName": "The name of the Bank.",
          "tokenAddress": "The address of the token balance to check for."
        }
      },
      "getCurrentClock()": {
        "notice": "Returns the clock."
      },
      "getDividendResidual(uint256)": {
        "notice": "Returns the residual value of a dividend.",
        "params": {
          "dividend": "The Dividend to be checked for."
        }
      },
      "getDividendToken(uint256)": {
        "notice": "Returns the token of a dividend.",
        "params": {
          "dividend": "The Dividend to be checked for."
        }
      },
      "getDividendValue(uint256)": {
        "notice": "Returns the total value of a dividend.",
        "params": {
          "dividend": "The Dividend to be checked for."
        }
      },
      "getLiquidResidual(address)": {
        "notice": "Returns the residual of a liquid, after liquidization/inactivation.",
        "params": {
          "tokenAddress": "The address of the token to be checked for."
        }
      },
      "getShardExpirationClock(bytes32)": {
        "notice": "Returns the clock, in which a shard will or has expired."
      },
      "getShardSalePrice(bytes32)": {
        "notice": "Returns the price, at which a shard is for sale."
      },
      "hasPermit(string,address)": {
        "notice": "Returns a boolean stating if a given address has a given permit or not.",
        "params": {
          "account": "The address to be checked for.",
          "permitName": "The name of the permit to be checked for."
        }
      },
      "infoByShard(bytes32)": {
        "notice": "Mapping pointing to related info of a Shard given the bytes of a unique Shard instance."
      },
      "isBankAdmin(string,address)": {
        "notice": "Returns a boolean stating if a given address is an admin of a given bank.",
        "params": {
          "account": "The address to be checked for.",
          "bankName": "The name of the Bank to be checked for."
        }
      },
      "isPermitAdmin(string,address)": {
        "notice": "Returns a boolean stating if a given address is an admin of a given permit or not.",
        "params": {
          "account": "The address to be checked for.",
          "permitName": "The name of the permit to be checked for."
        }
      },
      "isShardHolder(address)": {
        "notice": "Checks if address is a shard holder - at least a partial owner of the contract.",
        "params": {
          "account": "The address to be checked for."
        }
      },
      "isTerminated()": {
        "notice": "Returns a boolean value, stating if the liquidization is terminated (100 days have passed since)."
      },
      "isValidShard(bytes32)": {
        "notice": "Returns a boolean stating if a given shard is currently valid or not.",
        "params": {
          "shard": "The shard, whose validity is to be checked for."
        }
      },
      "issueDividend(string,address,uint256)": {
        "notice": "Creates and issues a Dividend (to all current shareholders) of a token amount from a given Bank.",
        "params": {
          "bankName": "The name of the Bank to issue the Dividend from.",
          "tokenAddress": "The address of the token to make up the Dividend.",
          "value": "The value/amount of the token to be issued in the Dividend."
        }
      },
      "issueShards(uint256,address,uint256,address)": {
        "notice": "Issues new shards and puts them for sale.",
        "params": {
          "price": "The price per token.",
          "to": "The specifically set buyer of the issued shards. Open to anyone, if address(0).",
          "tokenAddress": "The token address the shards are put for sale for."
        }
      },
      "liquid(address)": {
        "notice": "Mapping pointing to a value/amount given the address of an ERC20 token."
      },
      "liquidize()": {
        "notice": "Liquidizes and dissolves the entity. This cannot be undone."
      },
      "moveToken(string,string,address,uint256)": {
        "notice": "Internally moves a token from one Bank to another.",
        "params": {
          "fromBankName": "The name of the Bank from which the token is to be moved.",
          "toBankName": "The name of the Bank to which the token is to be moved.",
          "tokenAddress": "The address of the token to be moved.",
          "value": "The value/amount of the token to be moved."
        }
      },
      "purchase(bytes32,uint256,uint256)": {
        "details": "If the purchase is with tokens (ie. tokenAddress != 0x0), first call 'token.approve(Shardable.address, salePrice);'",
        "notice": "Purchases a listed Shard for sale.",
        "params": {
          "shard": "The shard of which a fraction will be purchased."
        }
      },
      "putForSale(bytes32,uint256,address,uint256,address)": {
        "notice": "Puts a given shard for sale.",
        "params": {
          "amount": "Amount of the Shard to be put for sale.",
          "price": "The amount which the Shard is for sale as. The token address being the valuta.",
          "shard": "The shard to be put for sale.",
          "to": "The specifically set buyer of the sale. Open to anyone, if address(0).",
          "tokenAddress": "The address of the token that is accepted when purchasing. A value of 0x0 represents ether."
        }
      },
      "receiveToken(address,uint256)": {
        "notice": "Receives a specified token and adds it to the registry. Make sure 'token.approve()' is called beforehand.",
        "params": {
          "tokenAddress": "The address of the token to be received.",
          "value": "The value/amount of the token to be received."
        }
      },
      "registerTokenAddress(address)": {
        "notice": "Adds a token address to the registry. Also approves any future receipts of said token unless removed again.",
        "params": {
          "tokenAddress": "The token address to be registered."
        }
      },
      "removeBankAdmin(string,address)": {
        "notice": "Removes a given administrator of a given Bank.",
        "params": {
          "bankAdmin": "The address of the current Bank administrator to be removed.",
          "bankName": "The name of the Bank from which the given administrator is to be removed."
        }
      },
      "setPermit(string,address,uint8)": {
        "notice": "Sets the state of a specified permit of a given address.",
        "params": {
          "account": "The address, whose permit state is to be set.",
          "newState": "The new Permit State to be applied.",
          "permitName": "The name of the permit, whose state is to be set."
        }
      },
      "shardByOwner(address)": {
        "notice": "Mapping pointing to a currently valid shard given the address of its owner."
      },
      "shardExisted(bytes32,uint256)": {
        "notice": "Returns a boolean stating if the given shard was valid at a given clock.",
        "params": {
          "atClock": "The clock to be checked for.",
          "shard": "The shard, whose validity is to be checked for."
        }
      },
      "split(bytes32,uint256,address)": {
        "notice": "Splits a currently valid shard into two new ones. One is assigned to the receiver. The rest to the previous owner.",
        "params": {
          "amount": "Amount, which will be subtracted from the previous shard and sent to the receiver.",
          "senderShard": "The shard to be split.",
          "to": "The receiver of the new Shard."
        }
      },
      "totalShardAmountByClock(uint256)": {
        "notice": "Mapping pointing to integer value representing the total number of shards issued, provided the clock. Used as the denominator to represent a relative shard fraction."
      },
      "transferTokenFromBank(string,address,uint256,address)": {
        "notice": "Transfers a token bankAdmin a Bank to a recipient.",
        "params": {
          "bankName": "The name of the Bank from which the token is to be transferred.",
          "to": "The recipient of the token to be transferred.",
          "tokenAddress": "The address of the token to be transferred.",
          "value": "The value/amount of the token to be transferred."
        }
      },
      "unregisterTokenAddress(address)": {
        "notice": "Removes a token address from the registry. Also cancels any future receipts of said token unless added again.",
        "params": {
          "tokenAddress": "The token address to be unregistered."
        }
      }
    },
    "notice": "This contract adds administrability via permits and internally closed money supplies.",
    "stateVariables": {
      "permits": {
        "custom:illustration": "permits[permitName][address] == PermitState.authorized || PermitState.administrator;"
      }
    },
    "title": "An extension of the Idea providing an administrable interface.",
    "version": 1
  },
  "opcodes": "PUSH1 0x80 PUSH1 0x40 MSTORE PUSH1 0x4 CALLDATASIZE LT PUSH2 0x276 JUMPI PUSH1 0x0 CALLDATALOAD PUSH1 0xE0 SHR DUP1 PUSH4 0x868399A5 GT PUSH2 0x14F JUMPI DUP1 PUSH4 0xB4AF7D59 GT PUSH2 0xC1 JUMPI DUP1 PUSH4 0xDE9D6805 GT PUSH2 0x7A JUMPI DUP1 PUSH4 0xDE9D6805 EQ PUSH2 0x850 JUMPI DUP1 PUSH4 0xE1C34C1F EQ PUSH2 0x870 JUMPI DUP1 PUSH4 0xE6778FCE EQ PUSH2 0x890 JUMPI DUP1 PUSH4 0xEFAE89F8 EQ PUSH2 0x8BD JUMPI DUP1 PUSH4 0xF7AAE621 EQ PUSH2 0x8EA JUMPI DUP1 PUSH4 0xFD06636B EQ PUSH2 0x90A JUMPI PUSH1 0x0 DUP1 REVERT JUMPDEST DUP1 PUSH4 0xB4AF7D59 EQ PUSH2 0x746 JUMPI DUP1 PUSH4 0xBCEDB2E0 EQ PUSH2 0x766 JUMPI DUP1 PUSH4 0xC4802EB2 EQ PUSH2 0x7CE JUMPI DUP1 PUSH4 0xC5438A55 EQ PUSH2 0x7FB JUMPI DUP1 PUSH4 0xD1CC9976 EQ PUSH2 0x81B JUMPI DUP1 PUSH4 0xDB5DC9B7 EQ PUSH2 0x830 JUMPI PUSH1 0x0 DUP1 REVERT JUMPDEST DUP1 PUSH4 0xA1916AEF GT PUSH2 0x113 JUMPI DUP1 PUSH4 0xA1916AEF EQ PUSH2 0x69E JUMPI DUP1 PUSH4 0xA80AED76 EQ PUSH2 0x6BE JUMPI DUP1 PUSH4 0xA902780F EQ PUSH2 0x6DE JUMPI DUP1 PUSH4 0xA907B6C5 EQ PUSH2 0x6F3 JUMPI DUP1 PUSH4 0xAB2D662B EQ PUSH2 0x713 JUMPI DUP1 PUSH4 0xB2CB78AB EQ PUSH2 0x726 JUMPI PUSH1 0x0 DUP1 REVERT JUMPDEST DUP1 PUSH4 0x868399A5 EQ PUSH2 0x5DE JUMPI DUP1 PUSH4 0x8786DF6A EQ PUSH2 0x5FE JUMPI DUP1 PUSH4 0x9211B7B3 EQ PUSH2 0x61E JUMPI DUP1 PUSH4 0x97235A1E EQ PUSH2 0x64E JUMPI DUP1 PUSH4 0x9995B9A9 EQ PUSH2 0x66E JUMPI PUSH1 0x0 DUP1 REVERT JUMPDEST DUP1 PUSH4 0x350546D8 GT PUSH2 0x1E8 JUMPI DUP1 PUSH4 0x4C46360B GT PUSH2 0x1AC JUMPI DUP1 PUSH4 0x4C46360B EQ PUSH2 0x4C3 JUMPI DUP1 PUSH4 0x5BEEFF33 EQ PUSH2 0x4F3 JUMPI DUP1 PUSH4 0x62748DCC EQ PUSH2 0x520 JUMPI DUP1 PUSH4 0x63879C0B EQ PUSH2 0x56E JUMPI DUP1 PUSH4 0x7B785493 EQ PUSH2 0x58E JUMPI DUP1 PUSH4 0x859D9FD5 EQ PUSH2 0x5BE JUMPI PUSH1 0x0 DUP1 REVERT JUMPDEST DUP1 PUSH4 0x350546D8 EQ PUSH2 0x40D JUMPI DUP1 PUSH4 0x354CD135 EQ PUSH2 0x42D JUMPI DUP1 PUSH4 0x384FE2B5 EQ PUSH2 0x44D JUMPI DUP1 PUSH4 0x3BAF28F8 EQ PUSH2 0x46D JUMPI DUP1 PUSH4 0x3DBEAA54 EQ PUSH2 0x48D JUMPI PUSH1 0x0 DUP1 REVERT JUMPDEST DUP1 PUSH4 0x169936B4 GT PUSH2 0x23A JUMPI DUP1 PUSH4 0x169936B4 EQ PUSH2 0x34D JUMPI DUP1 PUSH4 0x23656642 EQ PUSH2 0x36D JUMPI DUP1 PUSH4 0x258E4D9F EQ PUSH2 0x38D JUMPI DUP1 PUSH4 0x2DEC7CD2 EQ PUSH2 0x3AD JUMPI DUP1 PUSH4 0x2EF37926 EQ PUSH2 0x3CD JUMPI DUP1 PUSH4 0x2F2E9A2A EQ PUSH2 0x3ED JUMPI PUSH1 0x0 DUP1 REVERT JUMPDEST DUP1 PUSH4 0x2FB0C5E EQ PUSH2 0x28E JUMPI DUP1 PUSH4 0x5C558F5 EQ PUSH2 0x2BD JUMPI DUP1 PUSH4 0x66792D2 EQ PUSH2 0x2D2 JUMPI DUP1 PUSH4 0xBEA8985 EQ PUSH2 0x30D JUMPI DUP1 PUSH4 0xD3330A1 EQ PUSH2 0x32D JUMPI PUSH1 0x0 DUP1 REVERT JUMPDEST CALLDATASIZE PUSH2 0x289 JUMPI PUSH2 0x287 PUSH1 0x0 CALLVALUE CALLER PUSH2 0x92A JUMP JUMPDEST STOP JUMPDEST PUSH1 0x0 DUP1 REVERT JUMPDEST CALLVALUE DUP1 ISZERO PUSH2 0x29A JUMPI PUSH1 0x0 DUP1 REVERT JUMPDEST POP PUSH1 0x1 SLOAD PUSH2 0x2A8 SWAP1 PUSH1 0xFF AND DUP2 JUMP JUMPDEST PUSH1 0x40 MLOAD SWAP1 ISZERO ISZERO DUP2 MSTORE PUSH1 0x20 ADD JUMPDEST PUSH1 0x40 MLOAD DUP1 SWAP2 SUB SWAP1 RETURN JUMPDEST CALLVALUE DUP1 ISZERO PUSH2 0x2C9 JUMPI PUSH1 0x0 DUP1 REVERT JUMPDEST POP PUSH2 0x287 PUSH2 0xA78 JUMP JUMPDEST CALLVALUE DUP1 ISZERO PUSH2 0x2DE JUMPI PUSH1 0x0 DUP1 REVERT JUMPDEST POP PUSH2 0x2FF PUSH2 0x2ED CALLDATASIZE PUSH1 0x4 PUSH2 0x3988 JUMP JUMPDEST PUSH1 0x2 PUSH1 0x20 MSTORE PUSH1 0x0 SWAP1 DUP2 MSTORE PUSH1 0x40 SWAP1 KECCAK256 SLOAD DUP2 JUMP JUMPDEST PUSH1 0x40 MLOAD SWAP1 DUP2 MSTORE PUSH1 0x20 ADD PUSH2 0x2B4 JUMP JUMPDEST CALLVALUE DUP1 ISZERO PUSH2 0x319 JUMPI PUSH1 0x0 DUP1 REVERT JUMPDEST POP PUSH2 0x287 PUSH2 0x328 CALLDATASIZE PUSH1 0x4 PUSH2 0x3988 JUMP JUMPDEST PUSH2 0xAB1 JUMP JUMPDEST CALLVALUE DUP1 ISZERO PUSH2 0x339 JUMPI PUSH1 0x0 DUP1 REVERT JUMPDEST POP PUSH2 0x287 PUSH2 0x348 CALLDATASIZE PUSH1 0x4 PUSH2 0x39BD JUMP JUMPDEST PUSH2 0xB90 JUMP JUMPDEST CALLVALUE DUP1 ISZERO PUSH2 0x359 JUMPI PUSH1 0x0 DUP1 REVERT JUMPDEST POP PUSH2 0x2A8 PUSH2 0x368 CALLDATASIZE PUSH1 0x4 PUSH2 0x3A7B JUMP JUMPDEST PUSH2 0xC65 JUMP JUMPDEST CALLVALUE DUP1 ISZERO PUSH2 0x379 JUMPI PUSH1 0x0 DUP1 REVERT JUMPDEST POP PUSH2 0x287 PUSH2 0x388 CALLDATASIZE PUSH1 0x4 PUSH2 0x3988 JUMP JUMPDEST PUSH2 0xCC3 JUMP JUMPDEST CALLVALUE DUP1 ISZERO PUSH2 0x399 JUMPI PUSH1 0x0 DUP1 REVERT JUMPDEST POP PUSH2 0x2A8 PUSH2 0x3A8 CALLDATASIZE PUSH1 0x4 PUSH2 0x3AB8 JUMP JUMPDEST PUSH2 0xCFE JUMP JUMPDEST CALLVALUE DUP1 ISZERO PUSH2 0x3B9 JUMPI PUSH1 0x0 DUP1 REVERT JUMPDEST POP PUSH2 0x2FF PUSH2 0x3C8 CALLDATASIZE PUSH1 0x4 PUSH2 0x3AB8 JUMP JUMPDEST PUSH2 0xD53 JUMP JUMPDEST CALLVALUE DUP1 ISZERO PUSH2 0x3D9 JUMPI PUSH1 0x0 DUP1 REVERT JUMPDEST POP PUSH2 0x287 PUSH2 0x3E8 CALLDATASIZE PUSH1 0x4 PUSH2 0x3AB8 JUMP JUMPDEST PUSH2 0xD94 JUMP JUMPDEST CALLVALUE DUP1 ISZERO PUSH2 0x3F9 JUMPI PUSH1 0x0 DUP1 REVERT JUMPDEST POP PUSH2 0x287 PUSH2 0x408 CALLDATASIZE PUSH1 0x4 PUSH2 0x3AB8 JUMP JUMPDEST PUSH2 0xDF2 JUMP JUMPDEST CALLVALUE DUP1 ISZERO PUSH2 0x419 JUMPI PUSH1 0x0 DUP1 REVERT JUMPDEST POP PUSH2 0x287 PUSH2 0x428 CALLDATASIZE PUSH1 0x4 PUSH2 0x39BD JUMP JUMPDEST PUSH2 0xE44 JUMP JUMPDEST CALLVALUE DUP1 ISZERO PUSH2 0x439 JUMPI PUSH1 0x0 DUP1 REVERT JUMPDEST POP PUSH2 0x287 PUSH2 0x448 CALLDATASIZE PUSH1 0x4 PUSH2 0x3B06 JUMP JUMPDEST PUSH2 0xFF2 JUMP JUMPDEST CALLVALUE DUP1 ISZERO PUSH2 0x459 JUMPI PUSH1 0x0 DUP1 REVERT JUMPDEST POP PUSH2 0x287 PUSH2 0x468 CALLDATASIZE PUSH1 0x4 PUSH2 0x3A7B JUMP JUMPDEST PUSH2 0x1224 JUMP JUMPDEST CALLVALUE DUP1 ISZERO PUSH2 0x479 JUMPI PUSH1 0x0 DUP1 REVERT JUMPDEST POP PUSH2 0x287 PUSH2 0x488 CALLDATASIZE PUSH1 0x4 PUSH2 0x3B28 JUMP JUMPDEST PUSH2 0x126F JUMP JUMPDEST CALLVALUE DUP1 ISZERO PUSH2 0x499 JUMPI PUSH1 0x0 DUP1 REVERT JUMPDEST POP PUSH2 0x2FF PUSH2 0x4A8 CALLDATASIZE PUSH1 0x4 PUSH2 0x39BD JUMP JUMPDEST PUSH1 0x1 PUSH1 0x1 PUSH1 0xA0 SHL SUB AND PUSH1 0x0 SWAP1 DUP2 MSTORE PUSH1 0xB PUSH1 0x20 MSTORE PUSH1 0x40 SWAP1 KECCAK256 SLOAD SWAP1 JUMP JUMPDEST CALLVALUE DUP1 ISZERO PUSH2 0x4CF JUMPI PUSH1 0x0 DUP1 REVERT JUMPDEST POP PUSH2 0x2FF PUSH2 0x4DE CALLDATASIZE PUSH1 0x4 PUSH2 0x3988 JUMP JUMPDEST PUSH1 0x0 SWAP1 DUP2 MSTORE PUSH1 0x13 PUSH1 0x20 MSTORE PUSH1 0x40 SWAP1 KECCAK256 PUSH1 0x1 ADD SLOAD SWAP1 JUMP JUMPDEST CALLVALUE DUP1 ISZERO PUSH2 0x4FF JUMPI PUSH1 0x0 DUP1 REVERT JUMPDEST POP PUSH2 0x2FF PUSH2 0x50E CALLDATASIZE PUSH1 0x4 PUSH2 0x39BD JUMP JUMPDEST PUSH1 0x9 PUSH1 0x20 MSTORE PUSH1 0x0 SWAP1 DUP2 MSTORE PUSH1 0x40 SWAP1 KECCAK256 SLOAD DUP2 JUMP JUMPDEST CALLVALUE DUP1 ISZERO PUSH2 0x52C JUMPI PUSH1 0x0 DUP1 REVERT JUMPDEST POP PUSH2 0x556 PUSH2 0x53B CALLDATASIZE PUSH1 0x4 PUSH2 0x3988 JUMP JUMPDEST PUSH1 0x0 SWAP1 DUP2 MSTORE PUSH1 0x13 PUSH1 0x20 MSTORE PUSH1 0x40 SWAP1 KECCAK256 SLOAD PUSH1 0x1 PUSH1 0x1 PUSH1 0xA0 SHL SUB AND SWAP1 JUMP JUMPDEST PUSH1 0x40 MLOAD PUSH1 0x1 PUSH1 0x1 PUSH1 0xA0 SHL SUB SWAP1 SWAP2 AND DUP2 MSTORE PUSH1 0x20 ADD PUSH2 0x2B4 JUMP JUMPDEST CALLVALUE DUP1 ISZERO PUSH2 0x57A JUMPI PUSH1 0x0 DUP1 REVERT JUMPDEST POP PUSH2 0x287 PUSH2 0x589 CALLDATASIZE PUSH1 0x4 PUSH2 0x3B6E JUMP JUMPDEST PUSH2 0x12B0 JUMP JUMPDEST CALLVALUE DUP1 ISZERO PUSH2 0x59A JUMPI PUSH1 0x0 DUP1 REVERT JUMPDEST POP PUSH2 0x2FF PUSH2 0x5A9 CALLDATASIZE PUSH1 0x4 PUSH2 0x3988 JUMP JUMPDEST PUSH1 0x0 SWAP1 DUP2 MSTORE PUSH1 0x6 PUSH1 0x20 MSTORE PUSH1 0x40 SWAP1 KECCAK256 PUSH1 0x1 ADD SLOAD SWAP1 JUMP JUMPDEST CALLVALUE DUP1 ISZERO PUSH2 0x5CA JUMPI PUSH1 0x0 DUP1 REVERT JUMPDEST POP PUSH2 0x287 PUSH2 0x5D9 CALLDATASIZE PUSH1 0x4 PUSH2 0x39BD JUMP JUMPDEST PUSH2 0x12FD JUMP JUMPDEST CALLVALUE DUP1 ISZERO PUSH2 0x5EA JUMPI PUSH1 0x0 DUP1 REVERT JUMPDEST POP PUSH2 0x2A8 PUSH2 0x5F9 CALLDATASIZE PUSH1 0x4 PUSH2 0x39BD JUMP JUMPDEST PUSH2 0x135B JUMP JUMPDEST CALLVALUE DUP1 ISZERO PUSH2 0x60A JUMPI PUSH1 0x0 DUP1 REVERT JUMPDEST POP PUSH2 0x287 PUSH2 0x619 CALLDATASIZE PUSH1 0x4 PUSH2 0x39BD JUMP JUMPDEST PUSH2 0x1390 JUMP JUMPDEST CALLVALUE DUP1 ISZERO PUSH2 0x62A JUMPI PUSH1 0x0 DUP1 REVERT JUMPDEST POP PUSH2 0x2A8 PUSH2 0x639 CALLDATASIZE PUSH1 0x4 PUSH2 0x3988 JUMP JUMPDEST PUSH1 0x0 SWAP1 DUP2 MSTORE PUSH1 0x12 PUSH1 0x20 MSTORE PUSH1 0x40 SWAP1 KECCAK256 SLOAD PUSH1 0xFF AND SWAP1 JUMP JUMPDEST CALLVALUE DUP1 ISZERO PUSH2 0x65A JUMPI PUSH1 0x0 DUP1 REVERT JUMPDEST POP PUSH2 0x287 PUSH2 0x669 CALLDATASIZE PUSH1 0x4 PUSH2 0x3BC5 JUMP JUMPDEST PUSH2 0x13EE JUMP JUMPDEST CALLVALUE DUP1 ISZERO PUSH2 0x67A JUMPI PUSH1 0x0 DUP1 REVERT JUMPDEST POP PUSH2 0x2A8 PUSH2 0x689 CALLDATASIZE PUSH1 0x4 PUSH2 0x3988 JUMP JUMPDEST PUSH1 0x0 DUP1 SLOAD SWAP2 DUP2 MSTORE PUSH1 0x7 PUSH1 0x20 MSTORE PUSH1 0x40 SWAP1 KECCAK256 SLOAD GT SWAP1 JUMP JUMPDEST CALLVALUE DUP1 ISZERO PUSH2 0x6AA JUMPI PUSH1 0x0 DUP1 REVERT JUMPDEST POP PUSH2 0x287 PUSH2 0x6B9 CALLDATASIZE PUSH1 0x4 PUSH2 0x3BEF JUMP JUMPDEST PUSH2 0x13F8 JUMP JUMPDEST CALLVALUE DUP1 ISZERO PUSH2 0x6CA JUMPI PUSH1 0x0 DUP1 REVERT JUMPDEST POP PUSH2 0x2A8 PUSH2 0x6D9 CALLDATASIZE PUSH1 0x4 PUSH2 0x3AB8 JUMP JUMPDEST PUSH2 0x1418 JUMP JUMPDEST CALLVALUE DUP1 ISZERO PUSH2 0x6EA JUMPI PUSH1 0x0 DUP1 REVERT JUMPDEST POP PUSH1 0x0 SLOAD PUSH2 0x2FF JUMP JUMPDEST CALLVALUE DUP1 ISZERO PUSH2 0x6FF JUMPI PUSH1 0x0 DUP1 REVERT JUMPDEST POP PUSH2 0x287 PUSH2 0x70E CALLDATASIZE PUSH1 0x4 PUSH2 0x3AB8 JUMP JUMPDEST PUSH2 0x148A JUMP JUMPDEST PUSH2 0x287 PUSH2 0x721 CALLDATASIZE PUSH1 0x4 PUSH2 0x3C6B JUMP JUMPDEST PUSH2 0x14D6 JUMP JUMPDEST CALLVALUE DUP1 ISZERO PUSH2 0x732 JUMPI PUSH1 0x0 DUP1 REVERT JUMPDEST POP PUSH2 0x287 PUSH2 0x741 CALLDATASIZE PUSH1 0x4 PUSH2 0x3C97 JUMP JUMPDEST PUSH2 0x1B3B JUMP JUMPDEST CALLVALUE DUP1 ISZERO PUSH2 0x752 JUMPI PUSH1 0x0 DUP1 REVERT JUMPDEST POP PUSH2 0x2A8 PUSH2 0x761 CALLDATASIZE PUSH1 0x4 PUSH2 0x3A7B JUMP JUMPDEST PUSH2 0x1BB7 JUMP JUMPDEST CALLVALUE DUP1 ISZERO PUSH2 0x772 JUMPI PUSH1 0x0 DUP1 REVERT JUMPDEST POP PUSH2 0x7AB PUSH2 0x781 CALLDATASIZE PUSH1 0x4 PUSH2 0x3988 JUMP JUMPDEST PUSH1 0x3 PUSH1 0x20 MSTORE PUSH1 0x0 SWAP1 DUP2 MSTORE PUSH1 0x40 SWAP1 KECCAK256 DUP1 SLOAD PUSH1 0x1 DUP3 ADD SLOAD PUSH1 0x2 SWAP1 SWAP3 ADD SLOAD SWAP1 SWAP2 PUSH1 0x1 PUSH1 0x1 PUSH1 0xA0 SHL SUB AND SWAP1 DUP4 JUMP JUMPDEST PUSH1 0x40 DUP1 MLOAD SWAP4 DUP5 MSTORE PUSH1 0x1 PUSH1 0x1 PUSH1 0xA0 SHL SUB SWAP1 SWAP3 AND PUSH1 0x20 DUP5 ADD MSTORE SWAP1 DUP3 ADD MSTORE PUSH1 0x60 ADD PUSH2 0x2B4 JUMP JUMPDEST CALLVALUE DUP1 ISZERO PUSH2 0x7DA JUMPI PUSH1 0x0 DUP1 REVERT JUMPDEST POP PUSH2 0x2FF PUSH2 0x7E9 CALLDATASIZE PUSH1 0x4 PUSH2 0x39BD JUMP JUMPDEST PUSH1 0x4 PUSH1 0x20 MSTORE PUSH1 0x0 SWAP1 DUP2 MSTORE PUSH1 0x40 SWAP1 KECCAK256 SLOAD DUP2 JUMP JUMPDEST CALLVALUE DUP1 ISZERO PUSH2 0x807 JUMPI PUSH1 0x0 DUP1 REVERT JUMPDEST POP PUSH2 0x287 PUSH2 0x816 CALLDATASIZE PUSH1 0x4 PUSH2 0x3CCC JUMP JUMPDEST PUSH2 0x1BE7 JUMP JUMPDEST CALLVALUE DUP1 ISZERO PUSH2 0x827 JUMPI PUSH1 0x0 DUP1 REVERT JUMPDEST POP PUSH2 0x2A8 PUSH2 0x1C94 JUMP JUMPDEST CALLVALUE DUP1 ISZERO PUSH2 0x83C JUMPI PUSH1 0x0 DUP1 REVERT JUMPDEST POP PUSH2 0x2A8 PUSH2 0x84B CALLDATASIZE PUSH1 0x4 PUSH2 0x3AB8 JUMP JUMPDEST PUSH2 0x1CBE JUMP JUMPDEST CALLVALUE DUP1 ISZERO PUSH2 0x85C JUMPI PUSH1 0x0 DUP1 REVERT JUMPDEST POP PUSH2 0x287 PUSH2 0x86B CALLDATASIZE PUSH1 0x4 PUSH2 0x3D32 JUMP JUMPDEST PUSH2 0x1D14 JUMP JUMPDEST CALLVALUE DUP1 ISZERO PUSH2 0x87C JUMPI PUSH1 0x0 DUP1 REVERT JUMPDEST POP PUSH2 0x2A8 PUSH2 0x88B CALLDATASIZE PUSH1 0x4 PUSH2 0x39BD JUMP JUMPDEST PUSH2 0x1D34 JUMP JUMPDEST CALLVALUE DUP1 ISZERO PUSH2 0x89C JUMPI PUSH1 0x0 DUP1 REVERT JUMPDEST POP PUSH2 0x2FF PUSH2 0x8AB CALLDATASIZE PUSH1 0x4 PUSH2 0x3988 JUMP JUMPDEST PUSH1 0x0 SWAP1 DUP2 MSTORE PUSH1 0x14 PUSH1 0x20 MSTORE PUSH1 0x40 SWAP1 KECCAK256 SLOAD SWAP1 JUMP JUMPDEST CALLVALUE DUP1 ISZERO PUSH2 0x8C9 JUMPI PUSH1 0x0 DUP1 REVERT JUMPDEST POP PUSH2 0x2FF PUSH2 0x8D8 CALLDATASIZE PUSH1 0x4 PUSH2 0x3988 JUMP JUMPDEST PUSH1 0x0 SWAP1 DUP2 MSTORE PUSH1 0x7 PUSH1 0x20 MSTORE PUSH1 0x40 SWAP1 KECCAK256 SLOAD SWAP1 JUMP JUMPDEST CALLVALUE DUP1 ISZERO PUSH2 0x8F6 JUMPI PUSH1 0x0 DUP1 REVERT JUMPDEST POP PUSH2 0x287 PUSH2 0x905 CALLDATASIZE PUSH1 0x4 PUSH2 0x3D7A JUMP JUMPDEST PUSH2 0x1D66 JUMP JUMPDEST CALLVALUE DUP1 ISZERO PUSH2 0x916 JUMPI PUSH1 0x0 DUP1 REVERT JUMPDEST POP PUSH2 0x2A8 PUSH2 0x925 CALLDATASIZE PUSH1 0x4 PUSH2 0x3B06 JUMP JUMPDEST PUSH2 0x1DED JUMP JUMPDEST PUSH2 0x935 DUP4 DUP4 DUP4 PUSH2 0x1E1E JUMP JUMPDEST PUSH1 0x40 MLOAD PUSH4 0x36B0B4B7 PUSH1 0xE1 SHL DUP2 MSTORE PUSH1 0xF SWAP1 PUSH1 0x4 ADD SWAP1 DUP2 MSTORE PUSH1 0x40 DUP1 MLOAD PUSH1 0x20 SWAP3 DUP2 SWAP1 SUB DUP4 ADD SWAP1 KECCAK256 PUSH1 0x1 PUSH1 0x1 PUSH1 0xA0 SHL SUB DUP7 AND PUSH1 0x0 SWAP1 DUP2 MSTORE SWAP3 MSTORE SWAP1 KECCAK256 SLOAD ISZERO DUP1 ISZERO PUSH2 0x982 JUMPI POP PUSH1 0x1 PUSH1 0x1 PUSH1 0xA0 SHL SUB DUP4 AND ISZERO ISZERO JUMPDEST ISZERO PUSH2 0x9C5 JUMPI PUSH1 0x1 PUSH1 0xE PUSH1 0x40 MLOAD PUSH2 0x9A2 SWAP1 PUSH4 0x36B0B4B7 PUSH1 0xE1 SHL DUP2 MSTORE PUSH1 0x4 ADD SWAP1 JUMP JUMPDEST SWAP1 DUP2 MSTORE PUSH1 0x20 ADD PUSH1 0x40 MLOAD DUP1 SWAP2 SUB SWAP1 KECCAK256 PUSH1 0x0 DUP3 DUP3 SLOAD PUSH2 0x9BF SWAP2 SWAP1 PUSH2 0x3DE0 JUMP JUMPDEST SWAP1 SWAP2 SSTORE POP POP JUMPDEST DUP2 PUSH1 0xF PUSH1 0x40 MLOAD PUSH2 0x9DF SWAP1 PUSH4 0x36B0B4B7 PUSH1 0xE1 SHL DUP2 MSTORE PUSH1 0x4 ADD SWAP1 JUMP JUMPDEST SWAP1 DUP2 MSTORE PUSH1 0x20 ADD PUSH1 0x40 MLOAD DUP1 SWAP2 SUB SWAP1 KECCAK256 PUSH1 0x0 DUP6 PUSH1 0x1 PUSH1 0x1 PUSH1 0xA0 SHL SUB AND PUSH1 0x1 PUSH1 0x1 PUSH1 0xA0 SHL SUB AND DUP2 MSTORE PUSH1 0x20 ADD SWAP1 DUP2 MSTORE PUSH1 0x20 ADD PUSH1 0x0 KECCAK256 PUSH1 0x0 DUP3 DUP3 SLOAD PUSH2 0xA1F SWAP2 SWAP1 PUSH2 0x3DE0 JUMP JUMPDEST SWAP1 SWAP2 SSTORE POP POP PUSH1 0x40 DUP1 MLOAD PUSH1 0x1 PUSH1 0x1 PUSH1 0xA0 SHL SUB DUP1 DUP7 AND DUP3 MSTORE PUSH1 0x20 DUP3 ADD DUP6 SWAP1 MSTORE DUP4 AND SWAP2 DUP2 ADD SWAP2 SWAP1 SWAP2 MSTORE PUSH32 0xDE49BBE8E448CDFA40E6FA0D22592BE9A03B28BA746527635DBE5235416659CF SWAP1 PUSH1 0x60 ADD JUMPDEST PUSH1 0x40 MLOAD DUP1 SWAP2 SUB SWAP1 LOG1 POP POP POP JUMP JUMPDEST PUSH1 0x40 MLOAD DUP1 PUSH1 0x40 ADD PUSH1 0x40 MSTORE DUP1 PUSH1 0x2 DUP2 MSTORE PUSH1 0x20 ADD PUSH2 0x6C45 PUSH1 0xF0 SHL DUP2 MSTORE POP PUSH2 0xA9D DUP2 CALLER PUSH2 0x1CBE JUMP JUMPDEST PUSH2 0xAA6 JUMPI PUSH1 0x0 DUP1 REVERT JUMPDEST PUSH2 0xAAE PUSH2 0x1E73 JUMP JUMPDEST POP JUMP JUMPDEST PUSH1 0x0 DUP2 DUP2 MSTORE PUSH1 0x3 PUSH1 0x20 MSTORE PUSH1 0x40 SWAP1 KECCAK256 PUSH1 0x1 ADD SLOAD DUP2 SWAP1 PUSH1 0x1 PUSH1 0x1 PUSH1 0xA0 SHL SUB AND CALLER EQ PUSH2 0xAF5 JUMPI PUSH1 0x40 MLOAD PUSH3 0x461BCD PUSH1 0xE5 SHL DUP2 MSTORE PUSH1 0x4 ADD PUSH2 0xAEC SWAP1 PUSH2 0x3DF3 JUMP JUMPDEST PUSH1 0x40 MLOAD DUP1 SWAP2 SUB SWAP1 REVERT JUMPDEST DUP2 PUSH2 0xB0F DUP2 PUSH1 0x0 DUP1 SLOAD SWAP2 DUP2 MSTORE PUSH1 0x7 PUSH1 0x20 MSTORE PUSH1 0x40 SWAP1 KECCAK256 SLOAD GT SWAP1 JUMP JUMPDEST PUSH2 0xB2B JUMPI PUSH1 0x40 MLOAD PUSH3 0x461BCD PUSH1 0xE5 SHL DUP2 MSTORE PUSH1 0x4 ADD PUSH2 0xAEC SWAP1 PUSH2 0x3E0F JUMP JUMPDEST PUSH1 0x1 PUSH1 0x0 DUP5 DUP2 MSTORE PUSH1 0x5 PUSH1 0x20 MSTORE PUSH1 0x40 SWAP1 KECCAK256 SLOAD PUSH1 0xFF AND PUSH1 0x2 DUP2 GT ISZERO PUSH2 0xB50 JUMPI PUSH2 0xB50 PUSH2 0x3E2B JUMP JUMPDEST EQ PUSH2 0xB82 JUMPI PUSH1 0x40 MLOAD PUSH3 0x461BCD PUSH1 0xE5 SHL DUP2 MSTORE PUSH1 0x20 PUSH1 0x4 DUP3 ADD MSTORE PUSH1 0x2 PUSH1 0x24 DUP3 ADD MSTORE PUSH2 0x4E53 PUSH1 0xF0 SHL PUSH1 0x44 DUP3 ADD MSTORE PUSH1 0x64 ADD PUSH2 0xAEC JUMP JUMPDEST PUSH2 0xB8B DUP4 PUSH2 0x1EC5 JUMP JUMPDEST POP POP POP JUMP JUMPDEST PUSH2 0xB98 PUSH2 0x1C94 JUMP JUMPDEST PUSH2 0xBC9 JUMPI PUSH1 0x40 MLOAD PUSH3 0x461BCD PUSH1 0xE5 SHL DUP2 MSTORE PUSH1 0x20 PUSH1 0x4 DUP3 ADD MSTORE PUSH1 0x2 PUSH1 0x24 DUP3 ADD MSTORE PUSH2 0xAE9 PUSH1 0xF3 SHL PUSH1 0x44 DUP3 ADD MSTORE PUSH1 0x64 ADD PUSH2 0xAEC JUMP JUMPDEST PUSH1 0x1 PUSH1 0x1 PUSH1 0xA0 SHL SUB DUP2 AND PUSH1 0x0 SWAP1 DUP2 MSTORE PUSH1 0xB PUSH1 0x20 MSTORE PUSH1 0x40 SWAP1 KECCAK256 SLOAD PUSH2 0xC12 JUMPI PUSH1 0x40 MLOAD PUSH3 0x461BCD PUSH1 0xE5 SHL DUP2 MSTORE PUSH1 0x20 PUSH1 0x4 DUP3 ADD MSTORE PUSH1 0x1 PUSH1 0x24 DUP3 ADD MSTORE PUSH1 0x45 PUSH1 0xF8 SHL PUSH1 0x44 DUP3 ADD MSTORE PUSH1 0x64 ADD PUSH2 0xAEC JUMP JUMPDEST PUSH1 0x1 PUSH1 0x1 PUSH1 0xA0 SHL SUB DUP2 AND PUSH1 0x0 SWAP1 DUP2 MSTORE PUSH1 0xB PUSH1 0x20 MSTORE PUSH1 0x40 SWAP1 KECCAK256 SLOAD PUSH2 0xC4B SWAP1 DUP3 SWAP1 PUSH20 0x49A71890AEA5A751E30E740C504F2E9683F347BC PUSH2 0x1F6F JUMP JUMPDEST PUSH1 0x1 PUSH1 0x1 PUSH1 0xA0 SHL SUB AND PUSH1 0x0 SWAP1 DUP2 MSTORE PUSH1 0xB PUSH1 0x20 MSTORE PUSH1 0x40 DUP2 KECCAK256 SSTORE JUMP JUMPDEST PUSH1 0x0 PUSH1 0xE DUP3 PUSH1 0x40 MLOAD PUSH2 0xC77 SWAP2 SWAP1 PUSH2 0x3E65 JUMP JUMPDEST SWAP1 DUP2 MSTORE PUSH1 0x20 ADD PUSH1 0x40 MLOAD DUP1 SWAP2 SUB SWAP1 KECCAK256 SLOAD PUSH1 0x0 EQ DUP1 ISZERO PUSH2 0xCBD JUMPI POP PUSH1 0xF DUP3 PUSH1 0x40 MLOAD PUSH2 0xCA0 SWAP2 SWAP1 PUSH2 0x3E65 JUMP JUMPDEST SWAP1 DUP2 MSTORE PUSH1 0x40 DUP1 MLOAD PUSH1 0x20 SWAP3 DUP2 SWAP1 SUB DUP4 ADD SWAP1 KECCAK256 PUSH1 0x0 DUP1 DUP1 MSTORE SWAP3 MSTORE SWAP1 KECCAK256 SLOAD ISZERO JUMPDEST SWAP3 SWAP2 POP POP JUMP JUMPDEST PUSH1 0x40 MLOAD DUP1 PUSH1 0x40 ADD PUSH1 0x40 MSTORE DUP1 PUSH1 0x2 DUP2 MSTORE PUSH1 0x20 ADD PUSH2 0x1B51 PUSH1 0xF2 SHL DUP2 MSTORE POP PUSH2 0xCE8 DUP2 CALLER PUSH2 0x1CBE JUMP JUMPDEST PUSH2 0xCF1 JUMPI PUSH1 0x0 DUP1 REVERT JUMPDEST PUSH2 0xCFA DUP3 PUSH2 0x2214 JUMP JUMPDEST POP POP JUMP JUMPDEST PUSH1 0x0 PUSH1 0x2 PUSH1 0x11 DUP5 PUSH1 0x40 MLOAD PUSH2 0xD12 SWAP2 SWAP1 PUSH2 0x3E65 JUMP JUMPDEST SWAP1 DUP2 MSTORE PUSH1 0x40 DUP1 MLOAD PUSH1 0x20 SWAP3 DUP2 SWAP1 SUB DUP4 ADD SWAP1 KECCAK256 PUSH1 0x1 PUSH1 0x1 PUSH1 0xA0 SHL SUB DUP7 AND PUSH1 0x0 SWAP1 DUP2 MSTORE SWAP3 MSTORE SWAP1 KECCAK256 SLOAD PUSH1 0xFF AND PUSH1 0x2 DUP2 GT ISZERO PUSH2 0xD4B JUMPI PUSH2 0xD4B PUSH2 0x3E2B JUMP JUMPDEST EQ SWAP4 SWAP3 POP POP POP JUMP JUMPDEST PUSH1 0x0 PUSH1 0xF DUP4 PUSH1 0x40 MLOAD PUSH2 0xD65 SWAP2 SWAP1 PUSH2 0x3E65 JUMP JUMPDEST SWAP1 DUP2 MSTORE PUSH1 0x40 DUP1 MLOAD SWAP2 DUP3 SWAP1 SUB PUSH1 0x20 SWAP1 DUP2 ADD SWAP1 SWAP3 KECCAK256 PUSH1 0x1 PUSH1 0x1 PUSH1 0xA0 SHL SUB DUP6 AND PUSH1 0x0 SWAP1 DUP2 MSTORE SWAP3 MSTORE SWAP1 KECCAK256 SLOAD SWAP1 POP SWAP3 SWAP2 POP POP JUMP JUMPDEST PUSH1 0x40 MLOAD DUP1 PUSH1 0x40 ADD PUSH1 0x40 MSTORE DUP1 PUSH1 0x2 DUP2 MSTORE PUSH1 0x20 ADD PUSH2 0x36A1 PUSH1 0xF1 SHL DUP2 MSTORE POP PUSH2 0xDB9 DUP2 CALLER PUSH2 0x1CBE JUMP JUMPDEST PUSH2 0xDC2 JUMPI PUSH1 0x0 DUP1 REVERT JUMPDEST PUSH1 0x1 DUP1 SLOAD PUSH1 0xFF AND ISZERO ISZERO EQ PUSH2 0xDE8 JUMPI PUSH1 0x40 MLOAD PUSH3 0x461BCD PUSH1 0xE5 SHL DUP2 MSTORE PUSH1 0x4 ADD PUSH2 0xAEC SWAP1 PUSH2 0x3E81 JUMP JUMPDEST PUSH2 0xB8B DUP4 DUP4 PUSH2 0x22FF JUMP JUMPDEST PUSH1 0x40 MLOAD DUP1 PUSH1 0x40 ADD PUSH1 0x40 MSTORE DUP1 PUSH1 0x2 DUP2 MSTORE PUSH1 0x20 ADD PUSH2 0x36A1 PUSH1 0xF1 SHL DUP2 MSTORE POP PUSH2 0xE17 DUP2 CALLER PUSH2 0xCFE JUMP JUMPDEST PUSH2 0xE20 JUMPI PUSH1 0x0 DUP1 REVERT JUMPDEST DUP3 PUSH2 0xE2B DUP2 CALLER PUSH2 0x1418 JUMP JUMPDEST PUSH2 0xE34 JUMPI PUSH1 0x0 DUP1 REVERT JUMPDEST PUSH2 0xE3E DUP5 DUP5 PUSH2 0x2411 JUMP JUMPDEST POP POP POP POP JUMP JUMPDEST PUSH2 0xE4D CALLER PUSH2 0x1D34 JUMP JUMPDEST PUSH2 0xE7E JUMPI PUSH1 0x40 MLOAD PUSH3 0x461BCD PUSH1 0xE5 SHL DUP2 MSTORE PUSH1 0x20 PUSH1 0x4 DUP3 ADD MSTORE PUSH1 0x2 PUSH1 0x24 DUP3 ADD MSTORE PUSH2 0xAA9 PUSH1 0xF3 SHL PUSH1 0x44 DUP3 ADD MSTORE PUSH1 0x64 ADD PUSH2 0xAEC JUMP JUMPDEST PUSH1 0x1 SLOAD PUSH1 0xFF AND ISZERO PUSH2 0xEB6 JUMPI PUSH1 0x40 MLOAD PUSH3 0x461BCD PUSH1 0xE5 SHL DUP2 MSTORE PUSH1 0x20 PUSH1 0x4 DUP3 ADD MSTORE PUSH1 0x2 PUSH1 0x24 DUP3 ADD MSTORE PUSH2 0x5341 PUSH1 0xF0 SHL PUSH1 0x44 DUP3 ADD MSTORE PUSH1 0x64 ADD PUSH2 0xAEC JUMP JUMPDEST CALLER PUSH1 0x0 SWAP1 DUP2 MSTORE PUSH1 0x4 PUSH1 0x20 SWAP1 DUP2 MSTORE PUSH1 0x40 DUP1 DUP4 KECCAK256 SLOAD PUSH1 0x1 PUSH1 0x1 PUSH1 0xA0 SHL SUB DUP6 AND DUP5 MSTORE PUSH1 0xC DUP4 MSTORE DUP2 DUP5 KECCAK256 DUP2 DUP6 MSTORE SWAP1 SWAP3 MSTORE SWAP1 SWAP2 KECCAK256 SLOAD PUSH1 0xFF AND ISZERO PUSH2 0xF1B JUMPI PUSH1 0x40 MLOAD PUSH3 0x461BCD PUSH1 0xE5 SHL DUP2 MSTORE PUSH1 0x20 PUSH1 0x4 DUP3 ADD MSTORE PUSH1 0x2 PUSH1 0x24 DUP3 ADD MSTORE PUSH2 0x4143 PUSH1 0xF0 SHL PUSH1 0x44 DUP3 ADD MSTORE PUSH1 0x64 ADD PUSH2 0xAEC JUMP JUMPDEST PUSH1 0x1 PUSH1 0x1 PUSH1 0xA0 SHL SUB DUP3 AND PUSH1 0x0 DUP2 DUP2 MSTORE PUSH1 0xC PUSH1 0x20 SWAP1 DUP2 MSTORE PUSH1 0x40 DUP1 DUP4 KECCAK256 DUP6 DUP5 MSTORE DUP3 MSTORE DUP1 DUP4 KECCAK256 DUP1 SLOAD PUSH1 0xFF NOT AND PUSH1 0x1 OR SWAP1 SSTORE DUP3 SLOAD DUP4 MSTORE PUSH1 0x2 DUP3 MSTORE DUP1 DUP4 KECCAK256 SLOAD DUP6 DUP5 MSTORE PUSH1 0x3 DUP4 MSTORE DUP2 DUP5 KECCAK256 SLOAD SWAP5 DUP5 MSTORE PUSH1 0x9 SWAP1 SWAP3 MSTORE DUP3 KECCAK256 SLOAD SWAP2 SWAP3 SWAP1 SWAP2 PUSH2 0xF79 SWAP2 SWAP1 PUSH2 0x3E9D JUMP JUMPDEST PUSH2 0xF83 SWAP2 SWAP1 PUSH2 0x3EB4 JUMP JUMPDEST SWAP1 POP DUP1 PUSH1 0x0 SUB PUSH2 0xFB9 JUMPI PUSH1 0x40 MLOAD PUSH3 0x461BCD PUSH1 0xE5 SHL DUP2 MSTORE PUSH1 0x20 PUSH1 0x4 DUP3 ADD MSTORE PUSH1 0x1 PUSH1 0x24 DUP3 ADD MSTORE PUSH1 0x45 PUSH1 0xF8 SHL PUSH1 0x44 DUP3 ADD MSTORE PUSH1 0x64 ADD PUSH2 0xAEC JUMP JUMPDEST PUSH1 0x1 PUSH1 0x1 PUSH1 0xA0 SHL SUB DUP4 AND PUSH1 0x0 SWAP1 DUP2 MSTORE PUSH1 0xB PUSH1 0x20 MSTORE PUSH1 0x40 DUP2 KECCAK256 DUP1 SLOAD DUP4 SWAP3 SWAP1 PUSH2 0xFE1 SWAP1 DUP5 SWAP1 PUSH2 0x3ED6 JUMP JUMPDEST SWAP1 SWAP2 SSTORE POP PUSH2 0xB8B SWAP1 POP DUP4 DUP3 CALLER PUSH2 0x1F6F JUMP JUMPDEST PUSH1 0x0 DUP3 DUP2 MSTORE PUSH1 0x3 PUSH1 0x20 MSTORE PUSH1 0x40 SWAP1 KECCAK256 PUSH1 0x1 ADD SLOAD DUP3 SWAP1 PUSH1 0x1 PUSH1 0x1 PUSH1 0xA0 SHL SUB AND CALLER EQ PUSH2 0x102D JUMPI PUSH1 0x40 MLOAD PUSH3 0x461BCD PUSH1 0xE5 SHL DUP2 MSTORE PUSH1 0x4 ADD PUSH2 0xAEC SWAP1 PUSH2 0x3DF3 JUMP JUMPDEST PUSH1 0x0 DUP3 DUP2 MSTORE PUSH1 0x12 PUSH1 0x20 MSTORE PUSH1 0x40 SWAP1 KECCAK256 SLOAD DUP3 SWAP1 PUSH1 0xFF AND PUSH2 0x104A JUMPI PUSH1 0x0 DUP1 REVERT JUMPDEST PUSH1 0x1 DUP1 SLOAD PUSH1 0xFF AND ISZERO ISZERO EQ PUSH2 0x1070 JUMPI PUSH1 0x40 MLOAD PUSH3 0x461BCD PUSH1 0xE5 SHL DUP2 MSTORE PUSH1 0x4 ADD PUSH2 0xAEC SWAP1 PUSH2 0x3E81 JUMP JUMPDEST PUSH2 0x107A DUP5 DUP5 PUSH2 0x1DED JUMP JUMPDEST PUSH2 0x10AC JUMPI PUSH1 0x40 MLOAD PUSH3 0x461BCD PUSH1 0xE5 SHL DUP2 MSTORE PUSH1 0x20 PUSH1 0x4 DUP3 ADD MSTORE PUSH1 0x3 PUSH1 0x24 DUP3 ADD MSTORE PUSH3 0x2720A3 PUSH1 0xE9 SHL PUSH1 0x44 DUP3 ADD MSTORE PUSH1 0x64 ADD PUSH2 0xAEC JUMP JUMPDEST PUSH1 0x0 DUP4 DUP2 MSTORE PUSH1 0x15 PUSH1 0x20 SWAP1 DUP2 MSTORE PUSH1 0x40 DUP1 DUP4 KECCAK256 DUP8 DUP5 MSTORE SWAP1 SWAP2 MSTORE SWAP1 KECCAK256 SLOAD PUSH1 0xFF AND ISZERO PUSH2 0x10FB JUMPI PUSH1 0x40 MLOAD PUSH3 0x461BCD PUSH1 0xE5 SHL DUP2 MSTORE PUSH1 0x20 PUSH1 0x4 DUP3 ADD MSTORE PUSH1 0x2 PUSH1 0x24 DUP3 ADD MSTORE PUSH2 0x4143 PUSH1 0xF0 SHL PUSH1 0x44 DUP3 ADD MSTORE PUSH1 0x64 ADD PUSH2 0xAEC JUMP JUMPDEST PUSH1 0x0 DUP4 DUP2 MSTORE PUSH1 0x15 PUSH1 0x20 SWAP1 DUP2 MSTORE PUSH1 0x40 DUP1 DUP4 KECCAK256 DUP8 DUP5 MSTORE DUP3 MSTORE DUP1 DUP4 KECCAK256 DUP1 SLOAD PUSH1 0xFF NOT AND PUSH1 0x1 SWAP1 DUP2 OR SWAP1 SWAP2 SSTORE DUP4 SLOAD DUP5 MSTORE PUSH1 0x2 DUP4 MSTORE DUP2 DUP5 KECCAK256 SLOAD DUP9 DUP6 MSTORE PUSH1 0x3 DUP5 MSTORE DUP3 DUP6 KECCAK256 SLOAD DUP9 DUP7 MSTORE PUSH1 0x13 SWAP1 SWAP5 MSTORE SWAP2 DUP5 KECCAK256 ADD SLOAD SWAP1 SWAP2 PUSH2 0x1151 SWAP2 PUSH2 0x3E9D JUMP JUMPDEST PUSH2 0x115B SWAP2 SWAP1 PUSH2 0x3EB4 JUMP JUMPDEST SWAP1 POP DUP1 PUSH1 0x0 SUB PUSH2 0x1193 JUMPI PUSH1 0x40 MLOAD PUSH3 0x461BCD PUSH1 0xE5 SHL DUP2 MSTORE PUSH1 0x20 PUSH1 0x4 DUP3 ADD MSTORE PUSH1 0x3 PUSH1 0x24 DUP3 ADD MSTORE PUSH3 0x445453 PUSH1 0xE8 SHL PUSH1 0x44 DUP3 ADD MSTORE PUSH1 0x64 ADD PUSH2 0xAEC JUMP JUMPDEST PUSH1 0x0 DUP5 DUP2 MSTORE PUSH1 0x14 PUSH1 0x20 MSTORE PUSH1 0x40 DUP2 KECCAK256 DUP1 SLOAD DUP4 SWAP3 SWAP1 PUSH2 0x11B1 SWAP1 DUP5 SWAP1 PUSH2 0x3ED6 JUMP JUMPDEST SWAP1 SWAP2 SSTORE POP POP PUSH1 0x0 DUP5 DUP2 MSTORE PUSH1 0x13 PUSH1 0x20 MSTORE PUSH1 0x40 SWAP1 KECCAK256 SLOAD PUSH2 0x11D9 SWAP1 PUSH1 0x1 PUSH1 0x1 PUSH1 0xA0 SHL SUB AND DUP3 CALLER PUSH2 0x1F6F JUMP JUMPDEST PUSH1 0x40 DUP1 MLOAD DUP6 DUP2 MSTORE PUSH1 0x20 DUP2 ADD DUP4 SWAP1 MSTORE CALLER SWAP2 DUP2 ADD SWAP2 SWAP1 SWAP2 MSTORE PUSH32 0x67DD3D116BF53E0DDDA53BB148A5FDC129854E1C507C0EEDA9190049A9BBC84F SWAP1 PUSH1 0x60 ADD JUMPDEST PUSH1 0x40 MLOAD DUP1 SWAP2 SUB SWAP1 LOG1 POP POP POP POP POP JUMP JUMPDEST PUSH1 0x40 MLOAD DUP1 PUSH1 0x40 ADD PUSH1 0x40 MSTORE DUP1 PUSH1 0x2 DUP2 MSTORE PUSH1 0x20 ADD PUSH2 0x36A1 PUSH1 0xF1 SHL DUP2 MSTORE POP PUSH2 0x1249 DUP2 CALLER PUSH2 0xCFE JUMP JUMPDEST PUSH2 0x1252 JUMPI PUSH1 0x0 DUP1 REVERT JUMPDEST DUP2 PUSH2 0x125D DUP2 CALLER PUSH2 0x1418 JUMP JUMPDEST PUSH2 0x1266 JUMPI PUSH1 0x0 DUP1 REVERT JUMPDEST PUSH2 0xB8B DUP4 PUSH2 0x24CD JUMP JUMPDEST PUSH1 0x40 MLOAD DUP1 PUSH1 0x40 ADD PUSH1 0x40 MSTORE DUP1 PUSH1 0x2 DUP2 MSTORE PUSH1 0x20 ADD PUSH2 0x6953 PUSH1 0xF0 SHL DUP2 MSTORE POP PUSH2 0x1294 DUP2 CALLER PUSH2 0x1CBE JUMP JUMPDEST PUSH2 0x129D JUMPI PUSH1 0x0 DUP1 REVERT JUMPDEST PUSH2 0x12A9 DUP6 DUP6 DUP6 DUP6 PUSH2 0x2652 JUMP JUMPDEST POP POP POP POP POP JUMP JUMPDEST PUSH1 0x40 MLOAD DUP1 PUSH1 0x40 ADD PUSH1 0x40 MSTORE DUP1 PUSH1 0x2 DUP2 MSTORE PUSH1 0x20 ADD PUSH2 0x1B51 PUSH1 0xF2 SHL DUP2 MSTORE POP PUSH2 0x12D5 DUP2 CALLER PUSH2 0x1CBE JUMP JUMPDEST PUSH2 0x12DE JUMPI PUSH1 0x0 DUP1 REVERT JUMPDEST DUP4 PUSH2 0x12E9 DUP2 CALLER PUSH2 0x1418 JUMP JUMPDEST PUSH2 0x12F2 JUMPI PUSH1 0x0 DUP1 REVERT JUMPDEST PUSH2 0x12A9 DUP6 DUP6 DUP6 PUSH2 0x26C7 JUMP JUMPDEST PUSH1 0x40 MLOAD DUP1 PUSH1 0x40 ADD PUSH1 0x40 MSTORE DUP1 PUSH1 0x3 DUP2 MSTORE PUSH1 0x20 ADD PUSH3 0x1B5055 PUSH1 0xEA SHL DUP2 MSTORE POP PUSH2 0x1323 DUP2 CALLER PUSH2 0x1CBE JUMP JUMPDEST PUSH2 0x132C JUMPI PUSH1 0x0 DUP1 REVERT JUMPDEST PUSH1 0x1 DUP1 SLOAD PUSH1 0xFF AND ISZERO ISZERO EQ PUSH2 0x1352 JUMPI PUSH1 0x40 MLOAD PUSH3 0x461BCD PUSH1 0xE5 SHL DUP2 MSTORE PUSH1 0x4 ADD PUSH2 0xAEC SWAP1 PUSH2 0x3E81 JUMP JUMPDEST PUSH2 0xCFA DUP3 PUSH2 0x28CA JUMP JUMPDEST PUSH1 0x1 PUSH1 0x1 PUSH1 0xA0 SHL SUB DUP2 AND PUSH1 0x0 SWAP1 DUP2 MSTORE PUSH1 0x8 PUSH1 0x20 MSTORE PUSH1 0x40 DUP2 KECCAK256 SLOAD PUSH1 0xFF AND ISZERO ISZERO PUSH1 0x1 EQ DUP1 PUSH2 0xCBD JUMPI POP POP PUSH1 0x1 PUSH1 0x1 PUSH1 0xA0 SHL SUB AND ISZERO SWAP1 JUMP JUMPDEST PUSH1 0x40 MLOAD DUP1 PUSH1 0x40 ADD PUSH1 0x40 MSTORE DUP1 PUSH1 0x3 DUP2 MSTORE PUSH1 0x20 ADD PUSH3 0x1B5055 PUSH1 0xEA SHL DUP2 MSTORE POP PUSH2 0x13B6 DUP2 CALLER PUSH2 0x1CBE JUMP JUMPDEST PUSH2 0x13BF JUMPI PUSH1 0x0 DUP1 REVERT JUMPDEST PUSH1 0x1 DUP1 SLOAD PUSH1 0xFF AND ISZERO ISZERO EQ PUSH2 0x13E5 JUMPI PUSH1 0x40 MLOAD PUSH3 0x461BCD PUSH1 0xE5 SHL DUP2 MSTORE PUSH1 0x4 ADD PUSH2 0xAEC SWAP1 PUSH2 0x3E81 JUMP JUMPDEST PUSH2 0xCFA DUP3 PUSH2 0x2913 JUMP JUMPDEST PUSH2 0xCFA DUP3 DUP3 PUSH2 0x295C JUMP JUMPDEST DUP4 PUSH2 0x1403 DUP2 CALLER PUSH2 0x1418 JUMP JUMPDEST PUSH2 0x140C JUMPI PUSH1 0x0 DUP1 REVERT JUMPDEST PUSH2 0x12A9 DUP6 DUP6 DUP6 DUP6 PUSH2 0x2AC4 JUMP JUMPDEST PUSH1 0x0 PUSH1 0x10 DUP4 PUSH1 0x40 MLOAD PUSH2 0x142A SWAP2 SWAP1 PUSH2 0x3E65 JUMP JUMPDEST SWAP1 DUP2 MSTORE PUSH1 0x40 DUP1 MLOAD SWAP2 DUP3 SWAP1 SUB PUSH1 0x20 SWAP1 DUP2 ADD SWAP1 SWAP3 KECCAK256 PUSH1 0x1 PUSH1 0x1 PUSH1 0xA0 SHL SUB DUP6 AND PUSH1 0x0 SWAP1 DUP2 MSTORE SWAP3 MSTORE SWAP1 KECCAK256 SLOAD PUSH1 0xFF AND ISZERO ISZERO PUSH1 0x1 EQ DUP1 PUSH2 0x1483 JUMPI POP PUSH2 0x1483 PUSH1 0x40 MLOAD DUP1 PUSH1 0x40 ADD PUSH1 0x40 MSTORE DUP1 PUSH1 0x2 DUP2 MSTORE PUSH1 0x20 ADD PUSH2 0x36A1 PUSH1 0xF1 SHL DUP2 MSTORE POP DUP4 PUSH2 0xCFE JUMP JUMPDEST SWAP4 SWAP3 POP POP POP JUMP JUMPDEST PUSH1 0x40 MLOAD DUP1 PUSH1 0x40 ADD PUSH1 0x40 MSTORE DUP1 PUSH1 0x2 DUP2 MSTORE PUSH1 0x20 ADD PUSH2 0x36A1 PUSH1 0xF1 SHL DUP2 MSTORE POP PUSH2 0x14AF DUP2 CALLER PUSH2 0x1CBE JUMP JUMPDEST PUSH2 0x14B8 JUMPI PUSH1 0x0 DUP1 REVERT JUMPDEST DUP3 PUSH2 0x14C3 DUP2 CALLER PUSH2 0x1418 JUMP JUMPDEST PUSH2 0x14CC JUMPI PUSH1 0x0 DUP1 REVERT JUMPDEST PUSH2 0xE3E DUP5 DUP5 PUSH2 0x2D58 JUMP JUMPDEST DUP3 PUSH2 0x14F0 DUP2 PUSH1 0x0 DUP1 SLOAD SWAP2 DUP2 MSTORE PUSH1 0x7 PUSH1 0x20 MSTORE PUSH1 0x40 SWAP1 KECCAK256 SLOAD GT SWAP1 JUMP JUMPDEST PUSH2 0x150C JUMPI PUSH1 0x40 MLOAD PUSH3 0x461BCD PUSH1 0xE5 SHL DUP2 MSTORE PUSH1 0x4 ADD PUSH2 0xAEC SWAP1 PUSH2 0x3E0F JUMP JUMPDEST PUSH1 0x1 PUSH1 0x0 DUP6 DUP2 MSTORE PUSH1 0x5 PUSH1 0x20 MSTORE PUSH1 0x40 SWAP1 KECCAK256 SLOAD PUSH1 0xFF AND PUSH1 0x2 DUP2 GT ISZERO PUSH2 0x1531 JUMPI PUSH2 0x1531 PUSH2 0x3E2B JUMP JUMPDEST EQ PUSH2 0x1563 JUMPI PUSH1 0x40 MLOAD PUSH3 0x461BCD PUSH1 0xE5 SHL DUP2 MSTORE PUSH1 0x20 PUSH1 0x4 DUP3 ADD MSTORE PUSH1 0x2 PUSH1 0x24 DUP3 ADD MSTORE PUSH2 0x4E53 PUSH1 0xF0 SHL PUSH1 0x44 DUP3 ADD MSTORE PUSH1 0x64 ADD PUSH2 0xAEC JUMP JUMPDEST PUSH1 0x0 DUP5 DUP2 MSTORE PUSH1 0x6 PUSH1 0x20 MSTORE PUSH1 0x40 SWAP1 KECCAK256 PUSH1 0x1 ADD SLOAD DUP3 EQ PUSH2 0x15A8 JUMPI PUSH1 0x40 MLOAD PUSH3 0x461BCD PUSH1 0xE5 SHL DUP2 MSTORE PUSH1 0x20 PUSH1 0x4 DUP3 ADD MSTORE PUSH1 0x2 PUSH1 0x24 DUP3 ADD MSTORE PUSH2 0x575 PUSH1 0xF4 SHL PUSH1 0x44 DUP3 ADD MSTORE PUSH1 0x64 ADD PUSH2 0xAEC JUMP JUMPDEST DUP3 PUSH1 0x0 SUB PUSH2 0x15DD JUMPI PUSH1 0x40 MLOAD PUSH3 0x461BCD PUSH1 0xE5 SHL DUP2 MSTORE PUSH1 0x20 PUSH1 0x4 DUP3 ADD MSTORE PUSH1 0x2 PUSH1 0x24 DUP3 ADD MSTORE PUSH2 0x4553 PUSH1 0xF0 SHL PUSH1 0x44 DUP3 ADD MSTORE PUSH1 0x64 ADD PUSH2 0xAEC JUMP JUMPDEST PUSH1 0x0 DUP5 DUP2 MSTORE PUSH1 0x6 PUSH1 0x20 MSTORE PUSH1 0x40 SWAP1 KECCAK256 SLOAD DUP4 GT ISZERO PUSH2 0x1620 JUMPI PUSH1 0x40 MLOAD PUSH3 0x461BCD PUSH1 0xE5 SHL DUP2 MSTORE PUSH1 0x20 PUSH1 0x4 DUP3 ADD MSTORE PUSH1 0x2 PUSH1 0x24 DUP3 ADD MSTORE PUSH2 0x4553 PUSH1 0xF0 SHL PUSH1 0x44 DUP3 ADD MSTORE PUSH1 0x64 ADD PUSH2 0xAEC JUMP JUMPDEST PUSH1 0x0 DUP5 DUP2 MSTORE PUSH1 0x6 PUSH1 0x20 MSTORE PUSH1 0x40 SWAP1 KECCAK256 PUSH1 0x3 ADD SLOAD PUSH1 0x1 PUSH1 0x1 PUSH1 0xA0 SHL SUB AND CALLER EQ DUP1 PUSH2 0x1660 JUMPI POP PUSH1 0x0 DUP5 DUP2 MSTORE PUSH1 0x6 PUSH1 0x20 MSTORE PUSH1 0x40 SWAP1 KECCAK256 PUSH1 0x3 ADD SLOAD PUSH1 0x1 PUSH1 0x1 PUSH1 0xA0 SHL SUB AND ISZERO JUMPDEST PUSH2 0x1691 JUMPI PUSH1 0x40 MLOAD PUSH3 0x461BCD PUSH1 0xE5 SHL DUP2 MSTORE PUSH1 0x20 PUSH1 0x4 DUP3 ADD MSTORE PUSH1 0x2 PUSH1 0x24 DUP3 ADD MSTORE PUSH2 0x29A9 PUSH1 0xF1 SHL PUSH1 0x44 DUP3 ADD MSTORE PUSH1 0x64 ADD PUSH2 0xAEC JUMP JUMPDEST PUSH1 0x0 DUP5 DUP2 MSTORE PUSH1 0x5 PUSH1 0x20 SWAP1 DUP2 MSTORE PUSH1 0x40 DUP1 DUP4 KECCAK256 DUP1 SLOAD PUSH1 0xFF NOT AND PUSH1 0x2 OR SWAP1 SSTORE PUSH1 0x6 SWAP1 SWAP2 MSTORE DUP2 KECCAK256 PUSH1 0x1 ADD SLOAD PUSH2 0x16C2 SWAP1 DUP6 PUSH2 0x3E9D JUMP JUMPDEST SWAP1 POP PUSH1 0x0 DUP1 PUSH1 0x0 PUSH2 0x16D7 DUP5 PUSH1 0x19 PUSH2 0x3E8 PUSH2 0x2E56 JUMP JUMPDEST SWAP2 SWAP5 POP SWAP3 POP SWAP1 POP PUSH2 0x16E8 DUP2 DUP4 PUSH2 0x3DE0 JUMP JUMPDEST PUSH1 0x0 DUP10 DUP2 MSTORE PUSH1 0x6 PUSH1 0x20 MSTORE PUSH1 0x40 SWAP1 KECCAK256 PUSH1 0x2 ADD SLOAD SWAP1 SWAP3 POP PUSH1 0x1 PUSH1 0x1 PUSH1 0xA0 SHL SUB AND PUSH2 0x1847 JUMPI DUP4 CALLVALUE LT ISZERO PUSH2 0x173F JUMPI PUSH1 0x40 MLOAD PUSH3 0x461BCD PUSH1 0xE5 SHL DUP2 MSTORE PUSH1 0x20 PUSH1 0x4 DUP3 ADD MSTORE PUSH1 0x2 PUSH1 0x24 DUP3 ADD MSTORE PUSH2 0x4945 PUSH1 0xF0 SHL PUSH1 0x44 DUP3 ADD MSTORE PUSH1 0x64 ADD PUSH2 0xAEC JUMP JUMPDEST PUSH1 0x40 MLOAD PUSH1 0x0 SWAP1 PUSH20 0x49A71890AEA5A751E30E740C504F2E9683F347BC SWAP1 DUP6 SWAP1 DUP4 DUP2 DUP2 DUP2 DUP6 DUP8 GAS CALL SWAP3 POP POP POP RETURNDATASIZE DUP1 PUSH1 0x0 DUP2 EQ PUSH2 0x1795 JUMPI PUSH1 0x40 MLOAD SWAP2 POP PUSH1 0x1F NOT PUSH1 0x3F RETURNDATASIZE ADD AND DUP3 ADD PUSH1 0x40 MSTORE RETURNDATASIZE DUP3 MSTORE RETURNDATASIZE PUSH1 0x0 PUSH1 0x20 DUP5 ADD RETURNDATACOPY PUSH2 0x179A JUMP JUMPDEST PUSH1 0x60 SWAP2 POP JUMPDEST POP POP PUSH1 0x0 DUP11 DUP2 MSTORE PUSH1 0x3 PUSH1 0x20 MSTORE PUSH1 0x40 DUP1 DUP3 KECCAK256 PUSH1 0x1 ADD SLOAD SWAP1 MLOAD SWAP3 SWAP4 POP SWAP1 SWAP2 PUSH1 0x1 PUSH1 0x1 PUSH1 0xA0 SHL SUB SWAP1 SWAP2 AND SWAP1 DUP6 SWAP1 DUP4 DUP2 DUP2 DUP2 DUP6 DUP8 GAS CALL SWAP3 POP POP POP RETURNDATASIZE DUP1 PUSH1 0x0 DUP2 EQ PUSH2 0x17FC JUMPI PUSH1 0x40 MLOAD SWAP2 POP PUSH1 0x1F NOT PUSH1 0x3F RETURNDATASIZE ADD AND DUP3 ADD PUSH1 0x40 MSTORE RETURNDATASIZE DUP3 MSTORE RETURNDATASIZE PUSH1 0x0 PUSH1 0x20 DUP5 ADD RETURNDATACOPY PUSH2 0x1801 JUMP JUMPDEST PUSH1 0x60 SWAP2 POP JUMPDEST POP POP SWAP1 POP DUP1 DUP1 ISZERO PUSH2 0x180F JUMPI POP DUP2 JUMPDEST PUSH2 0x1840 JUMPI PUSH1 0x40 MLOAD PUSH3 0x461BCD PUSH1 0xE5 SHL DUP2 MSTORE PUSH1 0x20 PUSH1 0x4 DUP3 ADD MSTORE PUSH1 0x2 PUSH1 0x24 DUP3 ADD MSTORE PUSH2 0x2A23 PUSH1 0xF1 SHL PUSH1 0x44 DUP3 ADD MSTORE PUSH1 0x64 ADD PUSH2 0xAEC JUMP JUMPDEST POP POP PUSH2 0x19CC JUMP JUMPDEST PUSH1 0x0 DUP9 DUP2 MSTORE PUSH1 0x6 PUSH1 0x20 MSTORE PUSH1 0x40 SWAP1 DUP2 SWAP1 KECCAK256 PUSH1 0x2 ADD SLOAD SWAP1 MLOAD PUSH4 0x6EB1769F PUSH1 0xE1 SHL DUP2 MSTORE CALLER PUSH1 0x4 DUP3 ADD MSTORE ADDRESS PUSH1 0x24 DUP3 ADD MSTORE PUSH1 0x1 PUSH1 0x1 PUSH1 0xA0 SHL SUB SWAP1 SWAP2 AND SWAP1 DUP6 SWAP1 DUP3 SWAP1 PUSH4 0xDD62ED3E SWAP1 PUSH1 0x44 ADD PUSH1 0x20 PUSH1 0x40 MLOAD DUP1 DUP4 SUB DUP2 DUP7 GAS STATICCALL ISZERO DUP1 ISZERO PUSH2 0x18A9 JUMPI RETURNDATASIZE PUSH1 0x0 DUP1 RETURNDATACOPY RETURNDATASIZE PUSH1 0x0 REVERT JUMPDEST POP POP POP POP PUSH1 0x40 MLOAD RETURNDATASIZE PUSH1 0x1F NOT PUSH1 0x1F DUP3 ADD AND DUP3 ADD DUP1 PUSH1 0x40 MSTORE POP DUP2 ADD SWAP1 PUSH2 0x18CD SWAP2 SWAP1 PUSH2 0x3EE9 JUMP JUMPDEST LT ISZERO PUSH2 0x18EB JUMPI PUSH1 0x40 MLOAD PUSH3 0x461BCD PUSH1 0xE5 SHL DUP2 MSTORE PUSH1 0x4 ADD PUSH2 0xAEC SWAP1 PUSH2 0x3F02 JUMP JUMPDEST PUSH1 0x40 MLOAD PUSH4 0x23B872DD PUSH1 0xE0 SHL DUP2 MSTORE CALLER PUSH1 0x4 DUP3 ADD MSTORE PUSH20 0x49A71890AEA5A751E30E740C504F2E9683F347BC PUSH1 0x24 DUP3 ADD MSTORE PUSH1 0x44 DUP2 ADD DUP6 SWAP1 MSTORE PUSH1 0x1 PUSH1 0x1 PUSH1 0xA0 SHL SUB DUP3 AND SWAP1 PUSH4 0x23B872DD SWAP1 PUSH1 0x64 ADD PUSH1 0x20 PUSH1 0x40 MLOAD DUP1 DUP4 SUB DUP2 PUSH1 0x0 DUP8 GAS CALL ISZERO DUP1 ISZERO PUSH2 0x1952 JUMPI RETURNDATASIZE PUSH1 0x0 DUP1 RETURNDATACOPY RETURNDATASIZE PUSH1 0x0 REVERT JUMPDEST POP POP POP POP PUSH1 0x40 MLOAD RETURNDATASIZE PUSH1 0x1F NOT PUSH1 0x1F DUP3 ADD AND DUP3 ADD DUP1 PUSH1 0x40 MSTORE POP DUP2 ADD SWAP1 PUSH2 0x1976 SWAP2 SWAP1 PUSH2 0x3F1E JUMP JUMPDEST PUSH2 0x1992 JUMPI PUSH1 0x40 MLOAD PUSH3 0x461BCD PUSH1 0xE5 SHL DUP2 MSTORE PUSH1 0x4 ADD PUSH2 0xAEC SWAP1 PUSH2 0x3F40 JUMP JUMPDEST PUSH1 0x0 DUP10 DUP2 MSTORE PUSH1 0x3 PUSH1 0x20 SWAP1 DUP2 MSTORE PUSH1 0x40 DUP1 DUP4 KECCAK256 PUSH1 0x1 ADD SLOAD PUSH1 0x6 SWAP1 SWAP3 MSTORE SWAP1 SWAP2 KECCAK256 PUSH1 0x2 ADD SLOAD PUSH2 0x19CA SWAP2 PUSH1 0x1 PUSH1 0x1 PUSH1 0xA0 SHL SUB SWAP1 DUP2 AND SWAP2 AND DUP6 PUSH2 0x2ECA JUMP JUMPDEST POP JUMPDEST PUSH2 0x19D7 DUP9 DUP9 CALLER PUSH2 0x2F79 JUMP JUMPDEST PUSH1 0x0 DUP9 DUP2 MSTORE PUSH1 0x3 PUSH1 0x20 MSTORE PUSH1 0x40 SWAP1 KECCAK256 PUSH1 0x1 ADD SLOAD ADDRESS PUSH1 0x1 PUSH1 0x1 PUSH1 0xA0 SHL SUB SWAP1 SWAP2 AND SUB PUSH2 0x1A1F JUMPI PUSH1 0x0 DUP1 SLOAD DUP2 MSTORE PUSH1 0x2 PUSH1 0x20 MSTORE PUSH1 0x40 DUP2 KECCAK256 DUP1 SLOAD DUP10 SWAP3 SWAP1 PUSH2 0x1A19 SWAP1 DUP5 SWAP1 PUSH2 0x3DE0 JUMP JUMPDEST SWAP1 SWAP2 SSTORE POP POP JUMPDEST PUSH1 0x40 DUP1 MLOAD PUSH1 0x80 DUP2 ADD DUP3 MSTORE DUP9 DUP2 MSTORE PUSH1 0x0 DUP11 DUP2 MSTORE PUSH1 0x6 PUSH1 0x20 DUP2 DUP2 MSTORE DUP5 DUP4 KECCAK256 PUSH1 0x1 DUP2 ADD SLOAD DUP3 DUP7 ADD MSTORE PUSH1 0x2 DUP2 DUP2 ADD SLOAD PUSH1 0x1 PUSH1 0x1 PUSH1 0xA0 SHL SUB SWAP1 DUP2 AND DUP8 DUP10 ADD MSTORE SWAP5 DUP16 SWAP1 MSTORE SWAP3 SWAP1 SWAP2 MSTORE PUSH1 0x3 ADD SLOAD SWAP1 SWAP2 AND PUSH1 0x60 DUP4 ADD MSTORE SWAP2 MLOAD PUSH32 0xD8CD09EA93B4076AB867588C0D1A52B62C5B605B7A5F1C0189781245631A8353 SWAP3 PUSH2 0x1A9F SWAP3 SWAP1 SWAP2 DUP13 SWAP2 SWAP1 PUSH2 0x3F7A JUMP JUMPDEST PUSH1 0x40 MLOAD DUP1 SWAP2 SUB SWAP1 LOG1 PUSH1 0x0 DUP9 DUP2 MSTORE PUSH1 0x6 PUSH1 0x20 MSTORE PUSH1 0x40 SWAP1 KECCAK256 SLOAD DUP8 EQ PUSH2 0x1B31 JUMPI PUSH1 0x0 DUP9 DUP2 MSTORE PUSH1 0x3 PUSH1 0x20 SWAP1 DUP2 MSTORE PUSH1 0x40 DUP1 DUP4 KECCAK256 PUSH1 0x1 ADD SLOAD PUSH1 0x1 PUSH1 0x1 PUSH1 0xA0 SHL SUB AND DUP4 MSTORE PUSH1 0x4 DUP3 MSTORE DUP1 DUP4 KECCAK256 SLOAD DUP12 DUP5 MSTORE PUSH1 0x6 SWAP1 SWAP3 MSTORE SWAP1 SWAP2 KECCAK256 SLOAD PUSH2 0x1B31 SWAP2 SWAP1 PUSH2 0x1B00 SWAP1 DUP11 SWAP1 PUSH2 0x3ED6 JUMP JUMPDEST PUSH1 0x0 DUP12 DUP2 MSTORE PUSH1 0x6 PUSH1 0x20 MSTORE PUSH1 0x40 SWAP1 KECCAK256 PUSH1 0x2 DUP2 ADD SLOAD PUSH1 0x1 DUP3 ADD SLOAD PUSH1 0x3 SWAP1 SWAP3 ADD SLOAD PUSH1 0x1 PUSH1 0x1 PUSH1 0xA0 SHL SUB SWAP2 DUP3 AND SWAP3 SWAP2 AND PUSH2 0x3147 JUMP JUMPDEST POP POP POP POP POP POP POP POP JUMP JUMPDEST PUSH1 0x0 DUP4 DUP2 MSTORE PUSH1 0x3 PUSH1 0x20 MSTORE PUSH1 0x40 SWAP1 KECCAK256 PUSH1 0x1 ADD SLOAD DUP4 SWAP1 PUSH1 0x1 PUSH1 0x1 PUSH1 0xA0 SHL SUB AND CALLER EQ PUSH2 0x1B76 JUMPI PUSH1 0x40 MLOAD PUSH3 0x461BCD PUSH1 0xE5 SHL DUP2 MSTORE PUSH1 0x4 ADD PUSH2 0xAEC SWAP1 PUSH2 0x3DF3 JUMP JUMPDEST DUP4 PUSH2 0x1B90 DUP2 PUSH1 0x0 DUP1 SLOAD SWAP2 DUP2 MSTORE PUSH1 0x7 PUSH1 0x20 MSTORE PUSH1 0x40 SWAP1 KECCAK256 SLOAD GT SWAP1 JUMP JUMPDEST PUSH2 0x1BAC JUMPI PUSH1 0x40 MLOAD PUSH3 0x461BCD PUSH1 0xE5 SHL DUP2 MSTORE PUSH1 0x4 ADD PUSH2 0xAEC SWAP1 PUSH2 0x3E0F JUMP JUMPDEST PUSH2 0x12A9 DUP6 DUP6 DUP6 PUSH2 0x2F79 JUMP JUMPDEST PUSH1 0x0 PUSH1 0xD DUP3 PUSH1 0x40 MLOAD PUSH2 0x1BC9 SWAP2 SWAP1 PUSH2 0x3E65 JUMP JUMPDEST SWAP1 DUP2 MSTORE PUSH1 0x40 MLOAD SWAP1 DUP2 SWAP1 SUB PUSH1 0x20 ADD SWAP1 KECCAK256 SLOAD PUSH1 0xFF AND ISZERO ISZERO PUSH1 0x1 EQ SWAP3 SWAP2 POP POP JUMP JUMPDEST DUP3 PUSH2 0x1BF2 DUP2 CALLER PUSH2 0xCFE JUMP JUMPDEST PUSH2 0x1BFB JUMPI PUSH1 0x0 DUP1 REVERT JUMPDEST DUP2 PUSH1 0x2 DUP2 GT ISZERO PUSH2 0x1C0D JUMPI PUSH2 0x1C0D PUSH2 0x3E2B JUMP JUMPDEST PUSH1 0x11 DUP6 PUSH1 0x40 MLOAD PUSH2 0x1C1D SWAP2 SWAP1 PUSH2 0x3E65 JUMP JUMPDEST SWAP1 DUP2 MSTORE PUSH1 0x40 DUP1 MLOAD PUSH1 0x20 SWAP3 DUP2 SWAP1 SUB DUP4 ADD SWAP1 KECCAK256 PUSH1 0x1 PUSH1 0x1 PUSH1 0xA0 SHL SUB DUP8 AND PUSH1 0x0 SWAP1 DUP2 MSTORE SWAP3 MSTORE SWAP1 KECCAK256 SLOAD PUSH1 0xFF AND PUSH1 0x2 DUP2 GT ISZERO PUSH2 0x1C56 JUMPI PUSH2 0x1C56 PUSH2 0x3E2B JUMP JUMPDEST SUB PUSH2 0x1C89 JUMPI PUSH1 0x40 MLOAD PUSH3 0x461BCD PUSH1 0xE5 SHL DUP2 MSTORE PUSH1 0x20 PUSH1 0x4 DUP3 ADD MSTORE PUSH1 0x3 PUSH1 0x24 DUP3 ADD MSTORE PUSH3 0x41485 PUSH1 0xEC SHL PUSH1 0x44 DUP3 ADD MSTORE PUSH1 0x64 ADD PUSH2 0xAEC JUMP JUMPDEST PUSH2 0xE3E DUP5 DUP5 DUP5 PUSH2 0x32E4 JUMP JUMPDEST PUSH1 0x1 SLOAD PUSH1 0x0 SWAP1 PUSH1 0xFF AND ISZERO DUP1 ISZERO PUSH2 0x1CB9 JUMPI POP PUSH2 0x12C PUSH1 0xA SLOAD TIMESTAMP PUSH2 0x1CB6 SWAP2 SWAP1 PUSH2 0x3ED6 JUMP JUMPDEST LT ISZERO JUMPDEST SWAP1 POP SWAP1 JUMP JUMPDEST PUSH1 0x0 PUSH1 0x1 PUSH1 0x11 DUP5 PUSH1 0x40 MLOAD PUSH2 0x1CD2 SWAP2 SWAP1 PUSH2 0x3E65 JUMP JUMPDEST SWAP1 DUP2 MSTORE PUSH1 0x40 DUP1 MLOAD PUSH1 0x20 SWAP3 DUP2 SWAP1 SUB DUP4 ADD SWAP1 KECCAK256 PUSH1 0x1 PUSH1 0x1 PUSH1 0xA0 SHL SUB DUP7 AND PUSH1 0x0 SWAP1 DUP2 MSTORE SWAP3 MSTORE SWAP1 KECCAK256 SLOAD PUSH1 0xFF AND PUSH1 0x2 DUP2 GT ISZERO PUSH2 0x1D0B JUMPI PUSH2 0x1D0B PUSH2 0x3E2B JUMP JUMPDEST LT ISZERO SWAP4 SWAP3 POP POP POP JUMP JUMPDEST DUP4 PUSH2 0x1D1F DUP2 CALLER PUSH2 0x1418 JUMP JUMPDEST PUSH2 0x1D28 JUMPI PUSH1 0x0 DUP1 REVERT JUMPDEST PUSH2 0x12A9 DUP6 DUP6 DUP6 DUP6 PUSH2 0x339E JUMP JUMPDEST PUSH1 0x1 PUSH1 0x1 PUSH1 0xA0 SHL SUB DUP2 AND PUSH1 0x0 SWAP1 DUP2 MSTORE PUSH1 0x4 PUSH1 0x20 MSTORE PUSH1 0x40 DUP2 KECCAK256 SLOAD PUSH2 0xCBD SWAP1 PUSH1 0x0 DUP1 SLOAD SWAP2 DUP2 MSTORE PUSH1 0x7 PUSH1 0x20 MSTORE PUSH1 0x40 SWAP1 KECCAK256 SLOAD GT SWAP1 JUMP JUMPDEST PUSH1 0x0 DUP6 DUP2 MSTORE PUSH1 0x3 PUSH1 0x20 MSTORE PUSH1 0x40 SWAP1 KECCAK256 PUSH1 0x1 ADD SLOAD DUP6 SWAP1 PUSH1 0x1 PUSH1 0x1 PUSH1 0xA0 SHL SUB AND CALLER EQ PUSH2 0x1DA1 JUMPI PUSH1 0x40 MLOAD PUSH3 0x461BCD PUSH1 0xE5 SHL DUP2 MSTORE PUSH1 0x4 ADD PUSH2 0xAEC SWAP1 PUSH2 0x3DF3 JUMP JUMPDEST DUP6 PUSH2 0x1DBB DUP2 PUSH1 0x0 DUP1 SLOAD SWAP2 DUP2 MSTORE PUSH1 0x7 PUSH1 0x20 MSTORE PUSH1 0x40 SWAP1 KECCAK256 SLOAD GT SWAP1 JUMP JUMPDEST PUSH2 0x1DD7 JUMPI PUSH1 0x40 MLOAD PUSH3 0x461BCD PUSH1 0xE5 SHL DUP2 MSTORE PUSH1 0x4 ADD PUSH2 0xAEC SWAP1 PUSH2 0x3E0F JUMP JUMPDEST PUSH2 0x1DE4 DUP8 DUP8 DUP8 DUP8 DUP8 PUSH2 0x3147 JUMP JUMPDEST POP POP POP POP POP POP POP JUMP JUMPDEST PUSH1 0x0 DUP3 DUP2 MSTORE PUSH1 0x3 PUSH1 0x20 MSTORE PUSH1 0x40 DUP2 KECCAK256 PUSH1 0x2 ADD SLOAD DUP3 LT DUP1 ISZERO SWAP1 PUSH2 0x1483 JUMPI POP POP PUSH1 0x0 SWAP2 DUP3 MSTORE PUSH1 0x7 PUSH1 0x20 MSTORE PUSH1 0x40 SWAP1 SWAP2 KECCAK256 SLOAD GT SWAP1 JUMP JUMPDEST PUSH1 0x1 PUSH1 0x1 PUSH1 0xA0 SHL SUB DUP4 AND PUSH1 0x0 SWAP1 DUP2 MSTORE PUSH1 0x9 PUSH1 0x20 MSTORE PUSH1 0x40 DUP2 KECCAK256 DUP1 SLOAD DUP5 SWAP3 SWAP1 PUSH2 0x1E46 SWAP1 DUP5 SWAP1 PUSH2 0x3DE0 JUMP JUMPDEST SWAP1 SWAP2 SSTORE POP POP PUSH1 0x1 PUSH1 0x1 PUSH1 0xA0 SHL SUB DUP4 AND PUSH1 0x0 SWAP1 DUP2 MSTORE PUSH1 0xB PUSH1 0x20 MSTORE PUSH1 0x40 DUP2 KECCAK256 DUP1 SLOAD DUP5 SWAP3 SWAP1 PUSH2 0xA1F SWAP1 DUP5 SWAP1 PUSH2 0x3DE0 JUMP JUMPDEST PUSH2 0x1E7B PUSH2 0x3540 JUMP JUMPDEST PUSH1 0x40 DUP1 MLOAD PUSH1 0x60 DUP1 DUP3 MSTORE PUSH1 0x2 SWAP1 DUP3 ADD MSTORE PUSH2 0x6C45 PUSH1 0xF0 SHL PUSH1 0x80 DUP3 ADD MSTORE PUSH1 0xA0 PUSH1 0x20 DUP3 ADD DUP2 SWAP1 MSTORE PUSH1 0x0 SWAP1 DUP3 ADD MSTORE CALLER DUP2 DUP4 ADD MSTORE SWAP1 MLOAD PUSH1 0x0 DUP1 MLOAD PUSH1 0x20 PUSH2 0x43CD DUP4 CODECOPY DUP2 MLOAD SWAP2 MSTORE SWAP2 DUP2 SWAP1 SUB PUSH1 0xC0 ADD SWAP1 LOG1 JUMP JUMPDEST DUP1 PUSH2 0x1EDF DUP2 PUSH1 0x0 DUP1 SLOAD SWAP2 DUP2 MSTORE PUSH1 0x7 PUSH1 0x20 MSTORE PUSH1 0x40 SWAP1 KECCAK256 SLOAD GT SWAP1 JUMP JUMPDEST PUSH2 0x1EFB JUMPI PUSH1 0x40 MLOAD PUSH3 0x461BCD PUSH1 0xE5 SHL DUP2 MSTORE PUSH1 0x4 ADD PUSH2 0xAEC SWAP1 PUSH2 0x3E0F JUMP JUMPDEST PUSH1 0x0 DUP3 DUP2 MSTORE PUSH1 0x5 PUSH1 0x20 SWAP1 DUP2 MSTORE PUSH1 0x40 DUP1 DUP4 KECCAK256 DUP1 SLOAD PUSH1 0xFF NOT AND SWAP1 SSTORE DUP1 MLOAD PUSH1 0x80 DUP2 ADD DUP3 MSTORE DUP4 DUP2 MSTORE SWAP2 DUP3 ADD DUP4 SWAP1 MSTORE DUP2 DUP2 ADD DUP4 SWAP1 MSTORE PUSH1 0x60 DUP3 ADD DUP4 SWAP1 MSTORE MLOAD PUSH32 0xD8CD09EA93B4076AB867588C0D1A52B62C5B605B7A5F1C0189781245631A8353 SWAP3 PUSH2 0x1F63 SWAP3 SWAP1 SWAP2 DUP7 SWAP2 SWAP1 PUSH2 0x3F7A JUMP JUMPDEST PUSH1 0x40 MLOAD DUP1 SWAP2 SUB SWAP1 LOG1 POP POP JUMP JUMPDEST PUSH1 0x1 PUSH1 0x1 PUSH1 0xA0 SHL SUB DUP4 AND PUSH1 0x0 SWAP1 DUP2 MSTORE PUSH1 0x9 PUSH1 0x20 MSTORE PUSH1 0x40 SWAP1 KECCAK256 SLOAD DUP3 GT ISZERO PUSH2 0x1FA7 JUMPI PUSH1 0x40 MLOAD PUSH3 0x461BCD PUSH1 0xE5 SHL DUP2 MSTORE PUSH1 0x4 ADD PUSH2 0xAEC SWAP1 PUSH2 0x3F02 JUMP JUMPDEST PUSH1 0x1 PUSH1 0x1 PUSH1 0xA0 SHL SUB DUP4 AND PUSH2 0x1FC4 JUMPI PUSH2 0x1FBF DUP3 DUP3 PUSH2 0x3576 JUMP JUMPDEST PUSH2 0x21FF JUMP JUMPDEST PUSH1 0x40 MLOAD PUSH4 0x95EA7B3 PUSH1 0xE0 SHL DUP2 MSTORE PUSH1 0x1 PUSH1 0x1 PUSH1 0xA0 SHL SUB DUP3 DUP2 AND PUSH1 0x4 DUP4 ADD MSTORE PUSH1 0x24 DUP3 ADD DUP5 SWAP1 MSTORE DUP5 SWAP2 SWAP1 DUP3 AND SWAP1 PUSH4 0x95EA7B3 SWAP1 PUSH1 0x44 ADD PUSH1 0x20 PUSH1 0x40 MLOAD DUP1 DUP4 SUB DUP2 PUSH1 0x0 DUP8 GAS CALL ISZERO DUP1 ISZERO PUSH2 0x2016 JUMPI RETURNDATASIZE PUSH1 0x0 DUP1 RETURNDATACOPY RETURNDATASIZE PUSH1 0x0 REVERT JUMPDEST POP POP POP POP PUSH1 0x40 MLOAD RETURNDATASIZE PUSH1 0x1F NOT PUSH1 0x1F DUP3 ADD AND DUP3 ADD DUP1 PUSH1 0x40 MSTORE POP DUP2 ADD SWAP1 PUSH2 0x203A SWAP2 SWAP1 PUSH2 0x3F1E JUMP JUMPDEST PUSH2 0x206B JUMPI PUSH1 0x40 MLOAD PUSH3 0x461BCD PUSH1 0xE5 SHL DUP2 MSTORE PUSH1 0x20 PUSH1 0x4 DUP3 ADD MSTORE PUSH1 0x2 PUSH1 0x24 DUP3 ADD MSTORE PUSH2 0x4E41 PUSH1 0xF0 SHL PUSH1 0x44 DUP3 ADD MSTORE PUSH1 0x64 ADD PUSH2 0xAEC JUMP JUMPDEST PUSH1 0x1 PUSH1 0x1 PUSH1 0xA0 SHL SUB DUP3 AND EXTCODESIZE ISZERO PUSH2 0x216E JUMPI PUSH1 0x40 MLOAD PUSH4 0x4B91AD0F PUSH1 0xE1 SHL DUP2 MSTORE PUSH1 0x1 PUSH1 0x1 PUSH1 0xA0 SHL SUB DUP6 DUP2 AND PUSH1 0x4 DUP4 ADD MSTORE PUSH1 0x24 DUP3 ADD DUP6 SWAP1 MSTORE DUP4 AND SWAP1 PUSH4 0x97235A1E SWAP1 PUSH1 0x44 ADD PUSH1 0x0 PUSH1 0x40 MLOAD DUP1 DUP4 SUB DUP2 PUSH1 0x0 DUP8 DUP1 EXTCODESIZE ISZERO DUP1 ISZERO PUSH2 0x20C5 JUMPI PUSH1 0x0 DUP1 REVERT JUMPDEST POP GAS CALL SWAP3 POP POP POP DUP1 ISZERO PUSH2 0x20D6 JUMPI POP PUSH1 0x1 JUMPDEST PUSH2 0x2169 JUMPI PUSH1 0x40 MLOAD PUSH4 0xA9059CBB PUSH1 0xE0 SHL DUP2 MSTORE PUSH1 0x1 PUSH1 0x1 PUSH1 0xA0 SHL SUB DUP4 DUP2 AND PUSH1 0x4 DUP4 ADD MSTORE PUSH1 0x24 DUP3 ADD DUP6 SWAP1 MSTORE DUP3 AND SWAP1 PUSH4 0xA9059CBB SWAP1 PUSH1 0x44 ADD PUSH1 0x20 PUSH1 0x40 MLOAD DUP1 DUP4 SUB DUP2 PUSH1 0x0 DUP8 GAS CALL ISZERO DUP1 ISZERO PUSH2 0x2129 JUMPI RETURNDATASIZE PUSH1 0x0 DUP1 RETURNDATACOPY RETURNDATASIZE PUSH1 0x0 REVERT JUMPDEST POP POP POP POP PUSH1 0x40 MLOAD RETURNDATASIZE PUSH1 0x1F NOT PUSH1 0x1F DUP3 ADD AND DUP3 ADD DUP1 PUSH1 0x40 MSTORE POP DUP2 ADD SWAP1 PUSH2 0x214D SWAP2 SWAP1 PUSH2 0x3F1E JUMP JUMPDEST PUSH2 0x2169 JUMPI PUSH1 0x40 MLOAD PUSH3 0x461BCD PUSH1 0xE5 SHL DUP2 MSTORE PUSH1 0x4 ADD PUSH2 0xAEC SWAP1 PUSH2 0x3F40 JUMP JUMPDEST PUSH2 0x21FD JUMP JUMPDEST PUSH1 0x40 MLOAD PUSH4 0xA9059CBB PUSH1 0xE0 SHL DUP2 MSTORE PUSH1 0x1 PUSH1 0x1 PUSH1 0xA0 SHL SUB DUP4 DUP2 AND PUSH1 0x4 DUP4 ADD MSTORE PUSH1 0x24 DUP3 ADD DUP6 SWAP1 MSTORE DUP3 AND SWAP1 PUSH4 0xA9059CBB SWAP1 PUSH1 0x44 ADD PUSH1 0x20 PUSH1 0x40 MLOAD DUP1 DUP4 SUB DUP2 PUSH1 0x0 DUP8 GAS CALL ISZERO DUP1 ISZERO PUSH2 0x21BD JUMPI RETURNDATASIZE PUSH1 0x0 DUP1 RETURNDATACOPY RETURNDATASIZE PUSH1 0x0 REVERT JUMPDEST POP POP POP POP PUSH1 0x40 MLOAD RETURNDATASIZE PUSH1 0x1F NOT PUSH1 0x1F DUP3 ADD AND DUP3 ADD DUP1 PUSH1 0x40 MSTORE POP DUP2 ADD SWAP1 PUSH2 0x21E1 SWAP2 SWAP1 PUSH2 0x3F1E JUMP JUMPDEST PUSH2 0x21FD JUMPI PUSH1 0x40 MLOAD PUSH3 0x461BCD PUSH1 0xE5 SHL DUP2 MSTORE PUSH1 0x4 ADD PUSH2 0xAEC SWAP1 PUSH2 0x3F40 JUMP JUMPDEST POP JUMPDEST PUSH1 0x1 SLOAD PUSH1 0xFF AND ISZERO PUSH2 0xB8B JUMPI PUSH2 0xB8B DUP4 DUP4 PUSH2 0x35FE JUMP JUMPDEST PUSH1 0x0 DUP2 DUP2 MSTORE PUSH1 0x12 PUSH1 0x20 MSTORE PUSH1 0x40 SWAP1 KECCAK256 SLOAD DUP2 SWAP1 PUSH1 0xFF AND PUSH2 0x2231 JUMPI PUSH1 0x0 DUP1 REVERT JUMPDEST PUSH1 0x1 DUP1 SLOAD PUSH1 0xFF AND ISZERO ISZERO EQ PUSH2 0x2257 JUMPI PUSH1 0x40 MLOAD PUSH3 0x461BCD PUSH1 0xE5 SHL DUP2 MSTORE PUSH1 0x4 ADD PUSH2 0xAEC SWAP1 PUSH2 0x3E81 JUMP JUMPDEST PUSH1 0x0 DUP3 DUP2 MSTORE PUSH1 0x12 PUSH1 0x20 SWAP1 DUP2 MSTORE PUSH1 0x40 DUP1 DUP4 KECCAK256 DUP1 SLOAD PUSH1 0xFF NOT AND SWAP1 SSTORE PUSH1 0x14 DUP3 MSTORE DUP1 DUP4 KECCAK256 SLOAD DUP2 MLOAD PUSH4 0x36B0B4B7 PUSH1 0xE1 SHL DUP2 MSTORE PUSH1 0xF PUSH1 0x4 DUP3 ADD MSTORE DUP3 MLOAD SWAP1 DUP2 SWAP1 SUB PUSH1 0x24 ADD SWAP1 KECCAK256 DUP7 DUP6 MSTORE PUSH1 0x13 DUP5 MSTORE DUP3 DUP6 KECCAK256 SLOAD PUSH1 0x1 PUSH1 0x1 PUSH1 0xA0 SHL SUB AND DUP6 MSTORE SWAP1 SWAP3 MSTORE DUP3 KECCAK256 DUP1 SLOAD SWAP2 SWAP3 SWAP1 SWAP2 PUSH2 0x22C2 SWAP1 DUP5 SWAP1 PUSH2 0x3DE0 JUMP JUMPDEST SWAP1 SWAP2 SSTORE POP POP PUSH1 0x40 DUP1 MLOAD PUSH1 0x20 DUP2 ADD DUP5 SWAP1 MSTORE PUSH1 0x0 DUP1 MLOAD PUSH1 0x20 PUSH2 0x43CD DUP4 CODECOPY DUP2 MLOAD SWAP2 MSTORE SWAP2 ADD PUSH1 0x40 DUP1 MLOAD PUSH1 0x1F NOT DUP2 DUP5 SUB ADD DUP2 MSTORE SWAP1 DUP3 SWAP1 MSTORE PUSH2 0x1F63 SWAP2 CALLER SWAP1 PUSH2 0x3FF7 JUMP JUMPDEST PUSH1 0x1 DUP1 SLOAD PUSH1 0xFF AND ISZERO ISZERO EQ PUSH2 0x2325 JUMPI PUSH1 0x40 MLOAD PUSH3 0x461BCD PUSH1 0xE5 SHL DUP2 MSTORE PUSH1 0x4 ADD PUSH2 0xAEC SWAP1 PUSH2 0x3E81 JUMP JUMPDEST PUSH2 0x232E DUP3 PUSH2 0x1BB7 JUMP JUMPDEST ISZERO PUSH2 0x2360 JUMPI PUSH1 0x40 MLOAD PUSH3 0x461BCD PUSH1 0xE5 SHL DUP2 MSTORE PUSH1 0x20 PUSH1 0x4 DUP3 ADD MSTORE PUSH1 0x2 PUSH1 0x24 DUP3 ADD MSTORE PUSH2 0x4145 PUSH1 0xF0 SHL PUSH1 0x44 DUP3 ADD MSTORE PUSH1 0x64 ADD PUSH2 0xAEC JUMP JUMPDEST PUSH1 0x1 PUSH1 0x10 DUP4 PUSH1 0x40 MLOAD PUSH2 0x2372 SWAP2 SWAP1 PUSH2 0x3E65 JUMP JUMPDEST SWAP1 DUP2 MSTORE PUSH1 0x40 DUP1 MLOAD PUSH1 0x20 SWAP3 DUP2 SWAP1 SUB DUP4 ADD DUP2 KECCAK256 PUSH1 0x1 PUSH1 0x1 PUSH1 0xA0 SHL SUB DUP7 AND PUSH1 0x0 SWAP1 DUP2 MSTORE SWAP4 MSTORE SWAP2 KECCAK256 DUP1 SLOAD PUSH1 0xFF NOT AND SWAP3 ISZERO ISZERO SWAP3 SWAP1 SWAP3 OR SWAP1 SWAP2 SSTORE PUSH1 0x1 SWAP1 PUSH1 0xD SWAP1 PUSH2 0x23B7 SWAP1 DUP6 SWAP1 PUSH2 0x3E65 JUMP JUMPDEST SWAP1 DUP2 MSTORE PUSH1 0x40 MLOAD PUSH1 0x20 SWAP2 DUP2 SWAP1 SUB DUP3 ADD DUP2 KECCAK256 DUP1 SLOAD PUSH1 0xFF NOT AND SWAP4 ISZERO ISZERO SWAP4 SWAP1 SWAP4 OR SWAP1 SWAP3 SSTORE PUSH1 0x0 DUP1 MLOAD PUSH1 0x20 PUSH2 0x43CD DUP4 CODECOPY DUP2 MLOAD SWAP2 MSTORE SWAP2 PUSH2 0x23F5 SWAP2 DUP6 SWAP2 DUP6 SWAP2 ADD PUSH2 0x403A JUMP JUMPDEST PUSH1 0x40 DUP1 MLOAD PUSH1 0x1F NOT DUP2 DUP5 SUB ADD DUP2 MSTORE SWAP1 DUP3 SWAP1 MSTORE PUSH2 0x1F63 SWAP2 CALLER SWAP1 PUSH2 0x4064 JUMP JUMPDEST PUSH1 0x1 DUP1 SLOAD PUSH1 0xFF AND ISZERO ISZERO EQ PUSH2 0x2437 JUMPI PUSH1 0x40 MLOAD PUSH3 0x461BCD PUSH1 0xE5 SHL DUP2 MSTORE PUSH1 0x4 ADD PUSH2 0xAEC SWAP1 PUSH2 0x3E81 JUMP JUMPDEST PUSH2 0x2441 DUP3 DUP3 PUSH2 0x1418 JUMP JUMPDEST PUSH2 0x244A JUMPI PUSH1 0x0 DUP1 REVERT JUMPDEST PUSH1 0x0 PUSH1 0x10 DUP4 PUSH1 0x40 MLOAD PUSH2 0x245C SWAP2 SWAP1 PUSH2 0x3E65 JUMP JUMPDEST SWAP1 DUP2 MSTORE PUSH1 0x40 DUP1 MLOAD PUSH1 0x20 SWAP3 DUP2 SWAP1 SUB DUP4 ADD DUP2 KECCAK256 PUSH1 0x1 PUSH1 0x1 PUSH1 0xA0 SHL SUB DUP7 AND PUSH1 0x0 SWAP1 DUP2 MSTORE SWAP1 DUP5 MSTORE SWAP2 SWAP1 SWAP2 KECCAK256 DUP1 SLOAD PUSH1 0xFF NOT AND SWAP4 ISZERO ISZERO SWAP4 SWAP1 SWAP4 OR SWAP1 SWAP3 SSTORE PUSH1 0x0 DUP1 MLOAD PUSH1 0x20 PUSH2 0x43CD DUP4 CODECOPY DUP2 MLOAD SWAP2 MSTORE SWAP2 PUSH2 0x24B1 SWAP2 DUP6 SWAP2 DUP6 SWAP2 ADD PUSH2 0x403A JUMP JUMPDEST PUSH1 0x40 DUP1 MLOAD PUSH1 0x1F NOT DUP2 DUP5 SUB ADD DUP2 MSTORE SWAP1 DUP3 SWAP1 MSTORE PUSH2 0x1F63 SWAP2 CALLER SWAP1 PUSH2 0x4090 JUMP JUMPDEST PUSH1 0x1 DUP1 SLOAD PUSH1 0xFF AND ISZERO ISZERO EQ PUSH2 0x24F3 JUMPI PUSH1 0x40 MLOAD PUSH3 0x461BCD PUSH1 0xE5 SHL DUP2 MSTORE PUSH1 0x4 ADD PUSH2 0xAEC SWAP1 PUSH2 0x3E81 JUMP JUMPDEST PUSH2 0x24FC DUP2 PUSH2 0x1BB7 JUMP JUMPDEST PUSH2 0x252E JUMPI PUSH1 0x40 MLOAD PUSH3 0x461BCD PUSH1 0xE5 SHL DUP2 MSTORE PUSH1 0x20 PUSH1 0x4 DUP3 ADD MSTORE PUSH1 0x3 PUSH1 0x24 DUP3 ADD MSTORE PUSH3 0x554221 PUSH1 0xE8 SHL PUSH1 0x44 DUP3 ADD MSTORE PUSH1 0x64 ADD PUSH2 0xAEC JUMP JUMPDEST PUSH1 0x40 DUP1 MLOAD DUP1 DUP3 ADD SWAP1 SWAP2 MSTORE PUSH1 0x4 DUP2 MSTORE PUSH4 0x36B0B4B7 PUSH1 0xE1 SHL PUSH1 0x20 SWAP2 DUP3 ADD MSTORE DUP2 MLOAD SWAP1 DUP3 ADD KECCAK256 PUSH32 0x471DFAB0756EDC981C75DD3188CCD700755407F7D3BEDF452610F7A1E240D659 ADD PUSH2 0x25A3 JUMPI PUSH1 0x40 MLOAD PUSH3 0x461BCD PUSH1 0xE5 SHL DUP2 MSTORE PUSH1 0x20 PUSH1 0x4 DUP3 ADD MSTORE PUSH1 0x2 PUSH1 0x24 DUP3 ADD MSTORE PUSH2 0x26A1 PUSH1 0xF1 SHL PUSH1 0x44 DUP3 ADD MSTORE PUSH1 0x64 ADD PUSH2 0xAEC JUMP JUMPDEST PUSH2 0x25AC DUP2 PUSH2 0xC65 JUMP JUMPDEST PUSH2 0x25DD JUMPI PUSH1 0x40 MLOAD PUSH3 0x461BCD PUSH1 0xE5 SHL DUP2 MSTORE PUSH1 0x20 PUSH1 0x4 DUP3 ADD MSTORE PUSH1 0x2 PUSH1 0x24 DUP3 ADD MSTORE PUSH2 0x4245 PUSH1 0xF0 SHL PUSH1 0x44 DUP3 ADD MSTORE PUSH1 0x64 ADD PUSH2 0xAEC JUMP JUMPDEST PUSH1 0x0 PUSH1 0xD DUP3 PUSH1 0x40 MLOAD PUSH2 0x25EF SWAP2 SWAP1 PUSH2 0x3E65 JUMP JUMPDEST SWAP1 DUP2 MSTORE PUSH1 0x40 MLOAD PUSH1 0x20 SWAP2 DUP2 SWAP1 SUB DUP3 ADD DUP2 KECCAK256 DUP1 SLOAD PUSH1 0xFF NOT AND SWAP4 ISZERO ISZERO SWAP4 SWAP1 SWAP4 OR SWAP1 SWAP3 SSTORE PUSH1 0x0 DUP1 MLOAD PUSH1 0x20 PUSH2 0x43CD DUP4 CODECOPY DUP2 MLOAD SWAP2 MSTORE SWAP2 PUSH2 0x262B SWAP2 DUP5 SWAP2 ADD PUSH2 0x40BC JUMP JUMPDEST PUSH1 0x40 DUP1 MLOAD PUSH1 0x1F NOT DUP2 DUP5 SUB ADD DUP2 MSTORE SWAP1 DUP3 SWAP1 MSTORE PUSH2 0x2647 SWAP2 CALLER SWAP1 PUSH2 0x40CF JUMP JUMPDEST PUSH1 0x40 MLOAD DUP1 SWAP2 SUB SWAP1 LOG1 POP JUMP JUMPDEST PUSH2 0x265E DUP5 DUP5 DUP5 DUP5 PUSH2 0x365C JUMP JUMPDEST PUSH1 0x40 DUP1 MLOAD PUSH1 0x20 DUP2 ADD DUP7 SWAP1 MSTORE PUSH1 0x1 PUSH1 0x1 PUSH1 0xA0 SHL SUB DUP1 DUP7 AND SWAP3 DUP3 ADD SWAP3 SWAP1 SWAP3 MSTORE PUSH1 0x60 DUP2 ADD DUP5 SWAP1 MSTORE SWAP1 DUP3 AND PUSH1 0x80 DUP3 ADD MSTORE PUSH1 0x0 DUP1 MLOAD PUSH1 0x20 PUSH2 0x43CD DUP4 CODECOPY DUP2 MLOAD SWAP2 MSTORE SWAP1 PUSH1 0xA0 ADD PUSH1 0x40 DUP1 MLOAD PUSH1 0x1F NOT DUP2 DUP5 SUB ADD DUP2 MSTORE SWAP1 DUP3 SWAP1 MSTORE PUSH2 0x26B9 SWAP2 CALLER SWAP1 PUSH2 0x40FB JUMP JUMPDEST PUSH1 0x40 MLOAD DUP1 SWAP2 SUB SWAP1 LOG1 POP POP POP POP JUMP JUMPDEST PUSH1 0x1 DUP1 SLOAD PUSH1 0xFF AND ISZERO ISZERO EQ PUSH2 0x26ED JUMPI PUSH1 0x40 MLOAD PUSH3 0x461BCD PUSH1 0xE5 SHL DUP2 MSTORE PUSH1 0x4 ADD PUSH2 0xAEC SWAP1 PUSH2 0x3E81 JUMP JUMPDEST PUSH1 0xF DUP4 PUSH1 0x40 MLOAD PUSH2 0x26FD SWAP2 SWAP1 PUSH2 0x3E65 JUMP JUMPDEST SWAP1 DUP2 MSTORE PUSH1 0x40 DUP1 MLOAD PUSH1 0x20 SWAP3 DUP2 SWAP1 SUB DUP4 ADD SWAP1 KECCAK256 PUSH1 0x1 PUSH1 0x1 PUSH1 0xA0 SHL SUB DUP6 AND PUSH1 0x0 SWAP1 DUP2 MSTORE SWAP3 MSTORE SWAP1 KECCAK256 SLOAD DUP2 GT ISZERO PUSH2 0x2741 JUMPI PUSH1 0x40 MLOAD PUSH3 0x461BCD PUSH1 0xE5 SHL DUP2 MSTORE PUSH1 0x4 ADD PUSH2 0xAEC SWAP1 PUSH2 0x4127 JUMP JUMPDEST DUP1 PUSH1 0xF DUP5 PUSH1 0x40 MLOAD PUSH2 0x2752 SWAP2 SWAP1 PUSH2 0x3E65 JUMP JUMPDEST SWAP1 DUP2 MSTORE PUSH1 0x20 ADD PUSH1 0x40 MLOAD DUP1 SWAP2 SUB SWAP1 KECCAK256 PUSH1 0x0 DUP5 PUSH1 0x1 PUSH1 0x1 PUSH1 0xA0 SHL SUB AND PUSH1 0x1 PUSH1 0x1 PUSH1 0xA0 SHL SUB AND DUP2 MSTORE PUSH1 0x20 ADD SWAP1 DUP2 MSTORE PUSH1 0x20 ADD PUSH1 0x0 KECCAK256 PUSH1 0x0 DUP3 DUP3 SLOAD PUSH2 0x2792 SWAP2 SWAP1 PUSH2 0x3ED6 JUMP JUMPDEST SWAP1 SWAP2 SSTORE POP POP PUSH1 0x40 MLOAD PUSH1 0xF SWAP1 PUSH2 0x27A8 SWAP1 DUP6 SWAP1 PUSH2 0x3E65 JUMP JUMPDEST SWAP1 DUP2 MSTORE PUSH1 0x40 DUP1 MLOAD PUSH1 0x20 SWAP3 DUP2 SWAP1 SUB DUP4 ADD SWAP1 KECCAK256 PUSH1 0x1 PUSH1 0x1 PUSH1 0xA0 SHL SUB DUP6 AND PUSH1 0x0 SWAP1 DUP2 MSTORE SWAP3 MSTORE SWAP1 KECCAK256 SLOAD ISZERO DUP1 ISZERO PUSH2 0x27E2 JUMPI POP PUSH1 0x1 PUSH1 0x1 PUSH1 0xA0 SHL SUB DUP3 AND ISZERO ISZERO JUMPDEST ISZERO PUSH2 0x281C JUMPI PUSH1 0x1 PUSH1 0xE DUP5 PUSH1 0x40 MLOAD PUSH2 0x27F9 SWAP2 SWAP1 PUSH2 0x3E65 JUMP JUMPDEST SWAP1 DUP2 MSTORE PUSH1 0x20 ADD PUSH1 0x40 MLOAD DUP1 SWAP2 SUB SWAP1 KECCAK256 PUSH1 0x0 DUP3 DUP3 SLOAD PUSH2 0x2816 SWAP2 SWAP1 PUSH2 0x3ED6 JUMP JUMPDEST SWAP1 SWAP2 SSTORE POP POP JUMPDEST PUSH1 0x40 DUP1 MLOAD DUP1 DUP3 ADD DUP3 MSTORE PUSH1 0x1 PUSH1 0x1 PUSH1 0xA0 SHL SUB DUP5 DUP2 AND DUP3 MSTORE PUSH1 0x20 DUP1 DUP4 ADD DUP6 DUP2 MSTORE PUSH1 0x0 DUP1 SLOAD DUP2 MSTORE PUSH1 0x13 DUP4 MSTORE DUP6 DUP2 KECCAK256 SWAP5 MLOAD DUP6 SLOAD PUSH1 0x1 PUSH1 0x1 PUSH1 0xA0 SHL SUB NOT AND SWAP5 AND SWAP4 SWAP1 SWAP4 OR DUP5 SSTORE MLOAD PUSH1 0x1 SWAP4 DUP5 ADD SSTORE DUP2 SLOAD DUP3 MSTORE PUSH1 0x14 DUP2 MSTORE DUP4 DUP3 KECCAK256 DUP6 SWAP1 SSTORE DUP2 SLOAD DUP3 MSTORE PUSH1 0x12 DUP2 MSTORE DUP4 DUP3 KECCAK256 DUP1 SLOAD PUSH1 0xFF NOT AND SWAP1 SWAP4 OR SWAP1 SWAP3 SSTORE SLOAD SWAP2 MLOAD PUSH1 0x0 DUP1 MLOAD PUSH1 0x20 PUSH2 0x43CD DUP4 CODECOPY DUP2 MLOAD SWAP2 MSTORE SWAP3 PUSH2 0x28AE SWAP3 SWAP1 SWAP2 DUP8 SWAP2 DUP8 SWAP2 DUP8 SWAP2 ADD PUSH2 0x4143 JUMP JUMPDEST PUSH1 0x40 DUP1 MLOAD PUSH1 0x1F NOT DUP2 DUP5 SUB ADD DUP2 MSTORE SWAP1 DUP3 SWAP1 MSTORE PUSH2 0xA6B SWAP2 CALLER SWAP1 PUSH2 0x4178 JUMP JUMPDEST PUSH2 0x28D3 DUP2 PUSH2 0x36DB JUMP JUMPDEST PUSH1 0x40 DUP1 MLOAD PUSH1 0x1 PUSH1 0x1 PUSH1 0xA0 SHL SUB DUP4 AND PUSH1 0x20 DUP3 ADD MSTORE PUSH1 0x0 DUP1 MLOAD PUSH1 0x20 PUSH2 0x43CD DUP4 CODECOPY DUP2 MLOAD SWAP2 MSTORE SWAP2 ADD PUSH1 0x40 DUP1 MLOAD PUSH1 0x1F NOT DUP2 DUP5 SUB ADD DUP2 MSTORE SWAP1 DUP3 SWAP1 MSTORE PUSH2 0x2647 SWAP2 CALLER SWAP1 PUSH2 0x41A4 JUMP JUMPDEST PUSH2 0x291C DUP2 PUSH2 0x3781 JUMP JUMPDEST PUSH1 0x40 DUP1 MLOAD PUSH1 0x1 PUSH1 0x1 PUSH1 0xA0 SHL SUB DUP4 AND PUSH1 0x20 DUP3 ADD MSTORE PUSH1 0x0 DUP1 MLOAD PUSH1 0x20 PUSH2 0x43CD DUP4 CODECOPY DUP2 MLOAD SWAP2 MSTORE SWAP2 ADD PUSH1 0x40 DUP1 MLOAD PUSH1 0x1F NOT DUP2 DUP5 SUB ADD DUP2 MSTORE SWAP1 DUP3 SWAP1 MSTORE PUSH2 0x2647 SWAP2 CALLER SWAP1 PUSH2 0x41D0 JUMP JUMPDEST PUSH2 0x2965 DUP3 PUSH2 0x135B JUMP JUMPDEST PUSH2 0x2996 JUMPI PUSH1 0x40 MLOAD PUSH3 0x461BCD PUSH1 0xE5 SHL DUP2 MSTORE PUSH1 0x20 PUSH1 0x4 DUP3 ADD MSTORE PUSH1 0x2 PUSH1 0x24 DUP3 ADD MSTORE PUSH2 0x1555 PUSH1 0xF2 SHL PUSH1 0x44 DUP3 ADD MSTORE PUSH1 0x64 ADD PUSH2 0xAEC JUMP JUMPDEST PUSH1 0x40 MLOAD PUSH4 0x6EB1769F PUSH1 0xE1 SHL DUP2 MSTORE CALLER PUSH1 0x4 DUP3 ADD MSTORE ADDRESS PUSH1 0x24 DUP3 ADD MSTORE DUP3 SWAP1 DUP3 SWAP1 PUSH1 0x1 PUSH1 0x1 PUSH1 0xA0 SHL SUB DUP4 AND SWAP1 PUSH4 0xDD62ED3E SWAP1 PUSH1 0x44 ADD PUSH1 0x20 PUSH1 0x40 MLOAD DUP1 DUP4 SUB DUP2 DUP7 GAS STATICCALL ISZERO DUP1 ISZERO PUSH2 0x29E4 JUMPI RETURNDATASIZE PUSH1 0x0 DUP1 RETURNDATACOPY RETURNDATASIZE PUSH1 0x0 REVERT JUMPDEST POP POP POP POP PUSH1 0x40 MLOAD RETURNDATASIZE PUSH1 0x1F NOT PUSH1 0x1F DUP3 ADD AND DUP3 ADD DUP1 PUSH1 0x40 MSTORE POP DUP2 ADD SWAP1 PUSH2 0x2A08 SWAP2 SWAP1 PUSH2 0x3EE9 JUMP JUMPDEST LT ISZERO PUSH2 0x2A26 JUMPI PUSH1 0x40 MLOAD PUSH3 0x461BCD PUSH1 0xE5 SHL DUP2 MSTORE PUSH1 0x4 ADD PUSH2 0xAEC SWAP1 PUSH2 0x3F02 JUMP JUMPDEST PUSH1 0x40 MLOAD PUSH4 0x23B872DD PUSH1 0xE0 SHL DUP2 MSTORE CALLER PUSH1 0x4 DUP3 ADD MSTORE ADDRESS PUSH1 0x24 DUP3 ADD MSTORE PUSH1 0x44 DUP2 ADD DUP4 SWAP1 MSTORE PUSH1 0x1 PUSH1 0x1 PUSH1 0xA0 SHL SUB DUP3 AND SWAP1 PUSH4 0x23B872DD SWAP1 PUSH1 0x64 ADD PUSH1 0x20 PUSH1 0x40 MLOAD DUP1 DUP4 SUB DUP2 PUSH1 0x0 DUP8 GAS CALL ISZERO DUP1 ISZERO PUSH2 0x2A79 JUMPI RETURNDATASIZE PUSH1 0x0 DUP1 RETURNDATACOPY RETURNDATASIZE PUSH1 0x0 REVERT JUMPDEST POP POP POP POP PUSH1 0x40 MLOAD RETURNDATASIZE PUSH1 0x1F NOT PUSH1 0x1F DUP3 ADD AND DUP3 ADD DUP1 PUSH1 0x40 MSTORE POP DUP2 ADD SWAP1 PUSH2 0x2A9D SWAP2 SWAP1 PUSH2 0x3F1E JUMP JUMPDEST PUSH2 0x2AB9 JUMPI PUSH1 0x40 MLOAD PUSH3 0x461BCD PUSH1 0xE5 SHL DUP2 MSTORE PUSH1 0x4 ADD PUSH2 0xAEC SWAP1 PUSH2 0x3F40 JUMP JUMPDEST PUSH2 0xB8B DUP4 DUP4 CALLER PUSH2 0x92A JUMP JUMPDEST DUP3 PUSH2 0x2ACE DUP2 PUSH2 0x1BB7 JUMP JUMPDEST PUSH2 0x2B00 JUMPI PUSH1 0x40 MLOAD PUSH3 0x461BCD PUSH1 0xE5 SHL DUP2 MSTORE PUSH1 0x20 PUSH1 0x4 DUP3 ADD MSTORE PUSH1 0x3 PUSH1 0x24 DUP3 ADD MSTORE PUSH3 0x444E45 PUSH1 0xE8 SHL PUSH1 0x44 DUP3 ADD MSTORE PUSH1 0x64 ADD PUSH2 0xAEC JUMP JUMPDEST PUSH1 0x1 DUP1 SLOAD PUSH1 0xFF AND ISZERO ISZERO EQ PUSH2 0x2B26 JUMPI PUSH1 0x40 MLOAD PUSH3 0x461BCD PUSH1 0xE5 SHL DUP2 MSTORE PUSH1 0x4 ADD PUSH2 0xAEC SWAP1 PUSH2 0x3E81 JUMP JUMPDEST PUSH1 0xF DUP6 PUSH1 0x40 MLOAD PUSH2 0x2B36 SWAP2 SWAP1 PUSH2 0x3E65 JUMP JUMPDEST SWAP1 DUP2 MSTORE PUSH1 0x40 DUP1 MLOAD PUSH1 0x20 SWAP3 DUP2 SWAP1 SUB DUP4 ADD SWAP1 KECCAK256 PUSH1 0x1 PUSH1 0x1 PUSH1 0xA0 SHL SUB DUP7 AND PUSH1 0x0 SWAP1 DUP2 MSTORE SWAP3 MSTORE SWAP1 KECCAK256 SLOAD DUP3 GT ISZERO PUSH2 0x2B7A JUMPI PUSH1 0x40 MLOAD PUSH3 0x461BCD PUSH1 0xE5 SHL DUP2 MSTORE PUSH1 0x4 ADD PUSH2 0xAEC SWAP1 PUSH2 0x4127 JUMP JUMPDEST DUP2 PUSH1 0xF DUP7 PUSH1 0x40 MLOAD PUSH2 0x2B8B SWAP2 SWAP1 PUSH2 0x3E65 JUMP JUMPDEST SWAP1 DUP2 MSTORE PUSH1 0x20 ADD PUSH1 0x40 MLOAD DUP1 SWAP2 SUB SWAP1 KECCAK256 PUSH1 0x0 DUP6 PUSH1 0x1 PUSH1 0x1 PUSH1 0xA0 SHL SUB AND PUSH1 0x1 PUSH1 0x1 PUSH1 0xA0 SHL SUB AND DUP2 MSTORE PUSH1 0x20 ADD SWAP1 DUP2 MSTORE PUSH1 0x20 ADD PUSH1 0x0 KECCAK256 PUSH1 0x0 DUP3 DUP3 SLOAD PUSH2 0x2BCB SWAP2 SWAP1 PUSH2 0x3ED6 JUMP JUMPDEST SWAP1 SWAP2 SSTORE POP POP PUSH1 0x1 PUSH1 0x1 PUSH1 0xA0 SHL SUB DUP4 AND ISZERO PUSH2 0x2CBF JUMPI PUSH1 0xF DUP6 PUSH1 0x40 MLOAD PUSH2 0x2BEF SWAP2 SWAP1 PUSH2 0x3E65 JUMP JUMPDEST SWAP1 DUP2 MSTORE PUSH1 0x40 DUP1 MLOAD PUSH1 0x20 SWAP3 DUP2 SWAP1 SUB DUP4 ADD SWAP1 KECCAK256 PUSH1 0x1 PUSH1 0x1 PUSH1 0xA0 SHL SUB DUP7 AND PUSH1 0x0 SWAP1 DUP2 MSTORE SWAP3 MSTORE DUP2 KECCAK256 SLOAD SWAP1 SUB PUSH2 0x2C4F JUMPI PUSH1 0x1 PUSH1 0xE DUP7 PUSH1 0x40 MLOAD PUSH2 0x2C2C SWAP2 SWAP1 PUSH2 0x3E65 JUMP JUMPDEST SWAP1 DUP2 MSTORE PUSH1 0x20 ADD PUSH1 0x40 MLOAD DUP1 SWAP2 SUB SWAP1 KECCAK256 PUSH1 0x0 DUP3 DUP3 SLOAD PUSH2 0x2C49 SWAP2 SWAP1 PUSH2 0x3ED6 JUMP JUMPDEST SWAP1 SWAP2 SSTORE POP POP JUMPDEST PUSH1 0xF DUP5 PUSH1 0x40 MLOAD PUSH2 0x2C5F SWAP2 SWAP1 PUSH2 0x3E65 JUMP JUMPDEST SWAP1 DUP2 MSTORE PUSH1 0x40 DUP1 MLOAD PUSH1 0x20 SWAP3 DUP2 SWAP1 SUB DUP4 ADD SWAP1 KECCAK256 PUSH1 0x1 PUSH1 0x1 PUSH1 0xA0 SHL SUB DUP7 AND PUSH1 0x0 SWAP1 DUP2 MSTORE SWAP3 MSTORE DUP2 KECCAK256 SLOAD SWAP1 SUB PUSH2 0x2CBF JUMPI PUSH1 0x1 PUSH1 0xE DUP6 PUSH1 0x40 MLOAD PUSH2 0x2C9C SWAP2 SWAP1 PUSH2 0x3E65 JUMP JUMPDEST SWAP1 DUP2 MSTORE PUSH1 0x20 ADD PUSH1 0x40 MLOAD DUP1 SWAP2 SUB SWAP1 KECCAK256 PUSH1 0x0 DUP3 DUP3 SLOAD PUSH2 0x2CB9 SWAP2 SWAP1 PUSH2 0x3DE0 JUMP JUMPDEST SWAP1 SWAP2 SSTORE POP POP JUMPDEST DUP2 PUSH1 0xF DUP6 PUSH1 0x40 MLOAD PUSH2 0x2CD0 SWAP2 SWAP1 PUSH2 0x3E65 JUMP JUMPDEST SWAP1 DUP2 MSTORE PUSH1 0x20 ADD PUSH1 0x40 MLOAD DUP1 SWAP2 SUB SWAP1 KECCAK256 PUSH1 0x0 DUP6 PUSH1 0x1 PUSH1 0x1 PUSH1 0xA0 SHL SUB AND PUSH1 0x1 PUSH1 0x1 PUSH1 0xA0 SHL SUB AND DUP2 MSTORE PUSH1 0x20 ADD SWAP1 DUP2 MSTORE PUSH1 0x20 ADD PUSH1 0x0 KECCAK256 PUSH1 0x0 DUP3 DUP3 SLOAD PUSH2 0x2D10 SWAP2 SWAP1 PUSH2 0x3DE0 JUMP JUMPDEST SWAP1 SWAP2 SSTORE POP POP PUSH1 0x40 MLOAD PUSH1 0x0 DUP1 MLOAD PUSH1 0x20 PUSH2 0x43CD DUP4 CODECOPY DUP2 MLOAD SWAP2 MSTORE SWAP1 PUSH2 0x2D3C SWAP1 DUP8 SWAP1 DUP8 SWAP1 DUP8 SWAP1 DUP8 SWAP1 PUSH1 0x20 ADD PUSH2 0x41FC JUMP JUMPDEST PUSH1 0x40 DUP1 MLOAD PUSH1 0x1F NOT DUP2 DUP5 SUB ADD DUP2 MSTORE SWAP1 DUP3 SWAP1 MSTORE PUSH2 0x1215 SWAP2 CALLER SWAP1 PUSH2 0x423E JUMP JUMPDEST PUSH1 0x1 DUP1 SLOAD PUSH1 0xFF AND ISZERO ISZERO EQ PUSH2 0x2D7E JUMPI PUSH1 0x40 MLOAD PUSH3 0x461BCD PUSH1 0xE5 SHL DUP2 MSTORE PUSH1 0x4 ADD PUSH2 0xAEC SWAP1 PUSH2 0x3E81 JUMP JUMPDEST PUSH2 0x2DA2 PUSH1 0x40 MLOAD DUP1 PUSH1 0x40 ADD PUSH1 0x40 MSTORE DUP1 PUSH1 0x2 DUP2 MSTORE PUSH1 0x20 ADD PUSH2 0x36A1 PUSH1 0xF1 SHL DUP2 MSTORE POP DUP3 PUSH2 0x1CBE JUMP JUMPDEST PUSH2 0x2DD3 JUMPI PUSH1 0x40 MLOAD PUSH3 0x461BCD PUSH1 0xE5 SHL DUP2 MSTORE PUSH1 0x20 PUSH1 0x4 DUP3 ADD MSTORE PUSH1 0x2 PUSH1 0x24 DUP3 ADD MSTORE PUSH2 0x4E5 PUSH1 0xF4 SHL PUSH1 0x44 DUP3 ADD MSTORE PUSH1 0x64 ADD PUSH2 0xAEC JUMP JUMPDEST PUSH1 0x1 PUSH1 0x10 DUP4 PUSH1 0x40 MLOAD PUSH2 0x2DE5 SWAP2 SWAP1 PUSH2 0x3E65 JUMP JUMPDEST SWAP1 DUP2 MSTORE PUSH1 0x40 DUP1 MLOAD PUSH1 0x20 SWAP3 DUP2 SWAP1 SUB DUP4 ADD DUP2 KECCAK256 PUSH1 0x1 PUSH1 0x1 PUSH1 0xA0 SHL SUB DUP7 AND PUSH1 0x0 SWAP1 DUP2 MSTORE SWAP1 DUP5 MSTORE SWAP2 SWAP1 SWAP2 KECCAK256 DUP1 SLOAD PUSH1 0xFF NOT AND SWAP4 ISZERO ISZERO SWAP4 SWAP1 SWAP4 OR SWAP1 SWAP3 SSTORE PUSH1 0x0 DUP1 MLOAD PUSH1 0x20 PUSH2 0x43CD DUP4 CODECOPY DUP2 MLOAD SWAP2 MSTORE SWAP2 PUSH2 0x2E3A SWAP2 DUP6 SWAP2 DUP6 SWAP2 ADD PUSH2 0x403A JUMP JUMPDEST PUSH1 0x40 DUP1 MLOAD PUSH1 0x1F NOT DUP2 DUP5 SUB ADD DUP2 MSTORE SWAP1 DUP3 SWAP1 MSTORE PUSH2 0x1F63 SWAP2 CALLER SWAP1 PUSH2 0x426A JUMP JUMPDEST PUSH1 0x0 DUP1 PUSH1 0x0 DUP5 DUP5 GT PUSH2 0x2E67 JUMPI PUSH1 0x0 DUP1 REVERT JUMPDEST PUSH1 0x0 DUP5 PUSH2 0x2E74 DUP8 DUP10 PUSH2 0x3E9D JUMP JUMPDEST PUSH2 0x2E7E SWAP2 SWAP1 PUSH2 0x3EB4 JUMP JUMPDEST SWAP1 POP PUSH1 0x0 DUP6 PUSH2 0x2E8D DUP9 DUP3 PUSH2 0x3ED6 JUMP JUMPDEST PUSH2 0x2E97 SWAP1 DUP11 PUSH2 0x3E9D JUMP JUMPDEST PUSH2 0x2EA1 SWAP2 SWAP1 PUSH2 0x3EB4 JUMP JUMPDEST SWAP1 POP DUP2 DUP2 PUSH2 0x2EAF DUP2 DUP4 PUSH2 0x3DE0 JUMP JUMPDEST PUSH2 0x2EB9 SWAP1 DUP12 PUSH2 0x3ED6 JUMP JUMPDEST SWAP5 POP SWAP5 POP SWAP5 POP POP POP SWAP4 POP SWAP4 POP SWAP4 SWAP1 POP JUMP JUMPDEST ADDRESS PUSH1 0x1 PUSH1 0x1 PUSH1 0xA0 SHL SUB DUP5 AND SUB PUSH2 0x2EE4 JUMPI PUSH2 0xB8B DUP3 DUP3 PUSH2 0x295C JUMP JUMPDEST PUSH1 0x40 MLOAD PUSH4 0x23B872DD PUSH1 0xE0 SHL DUP2 MSTORE CALLER PUSH1 0x4 DUP3 ADD MSTORE ADDRESS PUSH1 0x24 DUP3 ADD MSTORE PUSH1 0x44 DUP2 ADD DUP3 SWAP1 MSTORE DUP3 SWAP1 PUSH1 0x1 PUSH1 0x1 PUSH1 0xA0 SHL SUB DUP3 AND SWAP1 PUSH4 0x23B872DD SWAP1 PUSH1 0x64 ADD PUSH1 0x20 PUSH1 0x40 MLOAD DUP1 DUP4 SUB DUP2 PUSH1 0x0 DUP8 GAS CALL ISZERO DUP1 ISZERO PUSH2 0x2F39 JUMPI RETURNDATASIZE PUSH1 0x0 DUP1 RETURNDATACOPY RETURNDATASIZE PUSH1 0x0 REVERT JUMPDEST POP POP POP POP PUSH1 0x40 MLOAD RETURNDATASIZE PUSH1 0x1F NOT PUSH1 0x1F DUP3 ADD AND DUP3 ADD DUP1 PUSH1 0x40 MSTORE POP DUP2 ADD SWAP1 PUSH2 0x2F5D SWAP2 SWAP1 PUSH2 0x3F1E JUMP JUMPDEST PUSH2 0xE3E JUMPI PUSH1 0x40 MLOAD PUSH3 0x461BCD PUSH1 0xE5 SHL DUP2 MSTORE PUSH1 0x4 ADD PUSH2 0xAEC SWAP1 PUSH2 0x3F40 JUMP JUMPDEST DUP3 PUSH2 0x2F93 DUP2 PUSH1 0x0 DUP1 SLOAD SWAP2 DUP2 MSTORE PUSH1 0x7 PUSH1 0x20 MSTORE PUSH1 0x40 SWAP1 KECCAK256 SLOAD GT SWAP1 JUMP JUMPDEST PUSH2 0x2FAF JUMPI PUSH1 0x40 MLOAD PUSH3 0x461BCD PUSH1 0xE5 SHL DUP2 MSTORE PUSH1 0x4 ADD PUSH2 0xAEC SWAP1 PUSH2 0x3E0F JUMP JUMPDEST PUSH1 0x1 DUP1 SLOAD PUSH1 0xFF AND ISZERO ISZERO EQ PUSH2 0x2FD5 JUMPI PUSH1 0x40 MLOAD PUSH3 0x461BCD PUSH1 0xE5 SHL DUP2 MSTORE PUSH1 0x4 ADD PUSH2 0xAEC SWAP1 PUSH2 0x3E81 JUMP JUMPDEST PUSH1 0x0 DUP5 DUP2 MSTORE PUSH1 0x3 PUSH1 0x20 MSTORE PUSH1 0x40 SWAP1 KECCAK256 SLOAD DUP4 GT ISZERO PUSH2 0x3018 JUMPI PUSH1 0x40 MLOAD PUSH3 0x461BCD PUSH1 0xE5 SHL DUP2 MSTORE PUSH1 0x20 PUSH1 0x4 DUP3 ADD MSTORE PUSH1 0x2 PUSH1 0x24 DUP3 ADD MSTORE PUSH2 0x4941 PUSH1 0xF0 SHL PUSH1 0x44 DUP3 ADD MSTORE PUSH1 0x64 ADD PUSH2 0xAEC JUMP JUMPDEST PUSH2 0x3021 DUP3 PUSH2 0x1D34 JUMP JUMPDEST ISZERO PUSH2 0x3090 JUMPI PUSH1 0x1 PUSH1 0x1 PUSH1 0xA0 SHL SUB DUP3 AND PUSH1 0x0 SWAP1 DUP2 MSTORE PUSH1 0x4 PUSH1 0x20 SWAP1 DUP2 MSTORE PUSH1 0x40 DUP1 DUP4 KECCAK256 SLOAD DUP4 MSTORE PUSH1 0x3 SWAP1 SWAP2 MSTORE DUP2 KECCAK256 SLOAD PUSH2 0x3056 SWAP1 DUP6 PUSH2 0x3DE0 JUMP JUMPDEST PUSH1 0x1 PUSH1 0x1 PUSH1 0xA0 SHL SUB DUP5 AND PUSH1 0x0 SWAP1 DUP2 MSTORE PUSH1 0x4 PUSH1 0x20 MSTORE PUSH1 0x40 DUP2 KECCAK256 SLOAD SWAP1 SLOAD SWAP2 SWAP3 POP PUSH2 0x307D SWAP2 PUSH2 0x37E0 JUMP JUMPDEST PUSH2 0x308A DUP2 DUP5 PUSH1 0x0 SLOAD PUSH2 0x3827 JUMP JUMPDEST POP PUSH2 0x309D JUMP JUMPDEST PUSH2 0x309D DUP4 DUP4 PUSH1 0x0 SLOAD PUSH2 0x3827 JUMP JUMPDEST PUSH2 0x30A9 DUP5 PUSH1 0x0 SLOAD PUSH2 0x37E0 JUMP JUMPDEST PUSH1 0x0 DUP5 DUP2 MSTORE PUSH1 0x3 PUSH1 0x20 MSTORE PUSH1 0x40 DUP2 KECCAK256 SLOAD PUSH2 0x30C3 SWAP1 DUP6 SWAP1 PUSH2 0x3ED6 JUMP JUMPDEST SWAP1 POP DUP1 ISZERO PUSH2 0x30F6 JUMPI PUSH1 0x0 DUP6 DUP2 MSTORE PUSH1 0x3 PUSH1 0x20 MSTORE PUSH1 0x40 DUP2 KECCAK256 PUSH1 0x1 ADD SLOAD SWAP1 SLOAD PUSH2 0x30F6 SWAP2 DUP4 SWAP2 PUSH1 0x1 PUSH1 0x1 PUSH1 0xA0 SHL SUB SWAP1 SWAP2 AND SWAP1 PUSH2 0x3827 JUMP JUMPDEST POP PUSH1 0x0 DUP1 SLOAD DUP1 DUP3 MSTORE PUSH1 0x2 PUSH1 0x20 DUP2 SWAP1 MSTORE PUSH1 0x40 DUP4 KECCAK256 SLOAD SWAP3 SWAP1 SWAP2 PUSH2 0x3118 SWAP1 PUSH1 0x1 PUSH2 0x3DE0 JUMP JUMPDEST DUP2 MSTORE PUSH1 0x20 ADD SWAP1 DUP2 MSTORE PUSH1 0x20 ADD PUSH1 0x0 KECCAK256 DUP2 SWAP1 SSTORE POP PUSH1 0x0 DUP1 DUP2 SLOAD DUP1 SWAP3 SWAP2 SWAP1 PUSH2 0x313C SWAP1 PUSH2 0x4296 JUMP JUMPDEST SWAP2 SWAP1 POP SSTORE POP POP POP POP POP JUMP JUMPDEST DUP5 PUSH2 0x3161 DUP2 PUSH1 0x0 DUP1 SLOAD SWAP2 DUP2 MSTORE PUSH1 0x7 PUSH1 0x20 MSTORE PUSH1 0x40 SWAP1 KECCAK256 SLOAD GT SWAP1 JUMP JUMPDEST PUSH2 0x317D JUMPI PUSH1 0x40 MLOAD PUSH3 0x461BCD PUSH1 0xE5 SHL DUP2 MSTORE PUSH1 0x4 ADD PUSH2 0xAEC SWAP1 PUSH2 0x3E0F JUMP JUMPDEST PUSH1 0x1 DUP1 SLOAD PUSH1 0xFF AND ISZERO ISZERO EQ PUSH2 0x31A3 JUMPI PUSH1 0x40 MLOAD PUSH3 0x461BCD PUSH1 0xE5 SHL DUP2 MSTORE PUSH1 0x4 ADD PUSH2 0xAEC SWAP1 PUSH2 0x3E81 JUMP JUMPDEST PUSH1 0x0 DUP7 DUP2 MSTORE PUSH1 0x5 PUSH1 0x20 MSTORE PUSH1 0x40 DUP2 KECCAK256 SLOAD PUSH1 0xFF AND PUSH1 0x2 DUP2 GT ISZERO PUSH2 0x31C6 JUMPI PUSH2 0x31C6 PUSH2 0x3E2B JUMP JUMPDEST EQ PUSH2 0x31D0 JUMPI PUSH1 0x0 DUP1 REVERT JUMPDEST PUSH1 0x0 DUP7 DUP2 MSTORE PUSH1 0x3 PUSH1 0x20 MSTORE PUSH1 0x40 SWAP1 KECCAK256 SLOAD DUP6 GT ISZERO PUSH2 0x3213 JUMPI PUSH1 0x40 MLOAD PUSH3 0x461BCD PUSH1 0xE5 SHL DUP2 MSTORE PUSH1 0x20 PUSH1 0x4 DUP3 ADD MSTORE PUSH1 0x2 PUSH1 0x24 DUP3 ADD MSTORE PUSH2 0x4941 PUSH1 0xF0 SHL PUSH1 0x44 DUP3 ADD MSTORE PUSH1 0x64 ADD PUSH2 0xAEC JUMP JUMPDEST PUSH1 0x40 DUP1 MLOAD PUSH1 0x80 DUP2 ADD DUP3 MSTORE DUP7 DUP2 MSTORE PUSH1 0x20 DUP1 DUP3 ADD DUP7 DUP2 MSTORE PUSH1 0x1 PUSH1 0x1 PUSH1 0xA0 SHL SUB DUP9 DUP2 AND DUP5 DUP7 ADD SWAP1 DUP2 MSTORE DUP8 DUP3 AND PUSH1 0x60 DUP7 ADD SWAP1 DUP2 MSTORE PUSH1 0x0 DUP14 DUP2 MSTORE PUSH1 0x6 DUP1 DUP8 MSTORE DUP9 DUP3 KECCAK256 SWAP8 MLOAD DUP9 SSTORE SWAP5 MLOAD PUSH1 0x1 DUP1 DUP10 ADD SWAP2 SWAP1 SWAP2 SSTORE SWAP3 MLOAD PUSH1 0x2 DUP9 ADD DUP1 SLOAD SWAP2 DUP7 AND PUSH1 0x1 PUSH1 0x1 PUSH1 0xA0 SHL SUB NOT SWAP3 DUP4 AND OR SWAP1 SSTORE SWAP2 MLOAD PUSH1 0x3 DUP9 ADD DUP1 SLOAD SWAP2 SWAP1 SWAP6 AND SWAP3 AND SWAP2 SWAP1 SWAP2 OR SWAP1 SWAP3 SSTORE PUSH1 0x5 DUP5 MSTORE SWAP1 DUP6 SWAP1 KECCAK256 DUP1 SLOAD PUSH1 0xFF NOT AND DUP3 OR SWAP1 SSTORE SWAP2 MSTORE SWAP2 MLOAD PUSH32 0xD8CD09EA93B4076AB867588C0D1A52B62C5B605B7A5F1C0189781245631A8353 SWAP3 PUSH2 0x32D4 SWAP3 SWAP1 SWAP2 DUP11 SWAP2 SWAP1 PUSH2 0x42AF JUMP JUMPDEST PUSH1 0x40 MLOAD DUP1 SWAP2 SUB SWAP1 LOG1 POP POP POP POP POP POP JUMP JUMPDEST PUSH1 0x1 DUP1 SLOAD PUSH1 0xFF AND ISZERO ISZERO EQ PUSH2 0x330A JUMPI PUSH1 0x40 MLOAD PUSH3 0x461BCD PUSH1 0xE5 SHL DUP2 MSTORE PUSH1 0x4 ADD PUSH2 0xAEC SWAP1 PUSH2 0x3E81 JUMP JUMPDEST DUP1 PUSH1 0x11 DUP5 PUSH1 0x40 MLOAD PUSH2 0x331B SWAP2 SWAP1 PUSH2 0x3E65 JUMP JUMPDEST SWAP1 DUP2 MSTORE PUSH1 0x40 DUP1 MLOAD PUSH1 0x20 SWAP3 DUP2 SWAP1 SUB DUP4 ADD SWAP1 KECCAK256 PUSH1 0x1 PUSH1 0x1 PUSH1 0xA0 SHL SUB DUP7 AND PUSH1 0x0 SWAP1 DUP2 MSTORE SWAP3 MSTORE SWAP1 KECCAK256 DUP1 SLOAD PUSH1 0xFF NOT AND PUSH1 0x1 DUP4 PUSH1 0x2 DUP2 GT ISZERO PUSH2 0x3359 JUMPI PUSH2 0x3359 PUSH2 0x3E2B JUMP JUMPDEST MUL OR SWAP1 SSTORE POP PUSH1 0x0 DUP1 MLOAD PUSH1 0x20 PUSH2 0x43CD DUP4 CODECOPY DUP2 MLOAD SWAP2 MSTORE DUP4 DUP4 DUP4 PUSH1 0x40 MLOAD PUSH1 0x20 ADD PUSH2 0x3382 SWAP4 SWAP3 SWAP2 SWAP1 PUSH2 0x42FD JUMP JUMPDEST PUSH1 0x40 DUP1 MLOAD PUSH1 0x1F NOT DUP2 DUP5 SUB ADD DUP2 MSTORE SWAP1 DUP3 SWAP1 MSTORE PUSH2 0xA6B SWAP2 CALLER SWAP1 PUSH2 0x4338 JUMP JUMPDEST PUSH1 0x1 DUP1 SLOAD PUSH1 0xFF AND ISZERO ISZERO EQ PUSH2 0x33C4 JUMPI PUSH1 0x40 MLOAD PUSH3 0x461BCD PUSH1 0xE5 SHL DUP2 MSTORE PUSH1 0x4 ADD PUSH2 0xAEC SWAP1 PUSH2 0x3E81 JUMP JUMPDEST PUSH1 0xF DUP5 PUSH1 0x40 MLOAD PUSH2 0x33D4 SWAP2 SWAP1 PUSH2 0x3E65 JUMP JUMPDEST SWAP1 DUP2 MSTORE PUSH1 0x40 DUP1 MLOAD PUSH1 0x20 SWAP3 DUP2 SWAP1 SUB DUP4 ADD SWAP1 KECCAK256 PUSH1 0x1 PUSH1 0x1 PUSH1 0xA0 SHL SUB DUP7 AND PUSH1 0x0 SWAP1 DUP2 MSTORE SWAP3 MSTORE SWAP1 KECCAK256 SLOAD DUP3 GT ISZERO PUSH2 0x3418 JUMPI PUSH1 0x40 MLOAD PUSH3 0x461BCD PUSH1 0xE5 SHL DUP2 MSTORE PUSH1 0x4 ADD PUSH2 0xAEC SWAP1 PUSH2 0x4127 JUMP JUMPDEST PUSH2 0x3423 DUP4 DUP4 DUP4 PUSH2 0x1F6F JUMP JUMPDEST DUP2 PUSH1 0xF DUP6 PUSH1 0x40 MLOAD PUSH2 0x3434 SWAP2 SWAP1 PUSH2 0x3E65 JUMP JUMPDEST SWAP1 DUP2 MSTORE PUSH1 0x20 ADD PUSH1 0x40 MLOAD DUP1 SWAP2 SUB SWAP1 KECCAK256 PUSH1 0x0 DUP6 PUSH1 0x1 PUSH1 0x1 PUSH1 0xA0 SHL SUB AND PUSH1 0x1 PUSH1 0x1 PUSH1 0xA0 SHL SUB AND DUP2 MSTORE PUSH1 0x20 ADD SWAP1 DUP2 MSTORE PUSH1 0x20 ADD PUSH1 0x0 KECCAK256 PUSH1 0x0 DUP3 DUP3 SLOAD PUSH2 0x3474 SWAP2 SWAP1 PUSH2 0x3ED6 JUMP JUMPDEST SWAP1 SWAP2 SSTORE POP POP PUSH1 0x40 MLOAD PUSH1 0xF SWAP1 PUSH2 0x348A SWAP1 DUP7 SWAP1 PUSH2 0x3E65 JUMP JUMPDEST SWAP1 DUP2 MSTORE PUSH1 0x40 DUP1 MLOAD PUSH1 0x20 SWAP3 DUP2 SWAP1 SUB DUP4 ADD SWAP1 KECCAK256 PUSH1 0x1 PUSH1 0x1 PUSH1 0xA0 SHL SUB DUP7 AND PUSH1 0x0 SWAP1 DUP2 MSTORE SWAP3 MSTORE SWAP1 KECCAK256 SLOAD ISZERO DUP1 ISZERO PUSH2 0x34C4 JUMPI POP PUSH1 0x1 PUSH1 0x1 PUSH1 0xA0 SHL SUB DUP4 AND ISZERO ISZERO JUMPDEST ISZERO PUSH2 0x34FE JUMPI PUSH1 0x1 PUSH1 0xE DUP6 PUSH1 0x40 MLOAD PUSH2 0x34DB SWAP2 SWAP1 PUSH2 0x3E65 JUMP JUMPDEST SWAP1 DUP2 MSTORE PUSH1 0x20 ADD PUSH1 0x40 MLOAD DUP1 SWAP2 SUB SWAP1 KECCAK256 PUSH1 0x0 DUP3 DUP3 SLOAD PUSH2 0x34F8 SWAP2 SWAP1 PUSH2 0x3ED6 JUMP JUMPDEST SWAP1 SWAP2 SSTORE POP POP JUMPDEST PUSH1 0x0 DUP1 MLOAD PUSH1 0x20 PUSH2 0x43CD DUP4 CODECOPY DUP2 MLOAD SWAP2 MSTORE DUP5 DUP5 DUP5 DUP5 PUSH1 0x40 MLOAD PUSH1 0x20 ADD PUSH2 0x3524 SWAP5 SWAP4 SWAP3 SWAP2 SWAP1 PUSH2 0x4364 JUMP JUMPDEST PUSH1 0x40 DUP1 MLOAD PUSH1 0x1F NOT DUP2 DUP5 SUB ADD DUP2 MSTORE SWAP1 DUP3 SWAP1 MSTORE PUSH2 0x26B9 SWAP2 CALLER SWAP1 PUSH2 0x43A0 JUMP JUMPDEST PUSH1 0x1 DUP1 SLOAD PUSH1 0xFF AND ISZERO ISZERO EQ PUSH2 0x3566 JUMPI PUSH1 0x40 MLOAD PUSH3 0x461BCD PUSH1 0xE5 SHL DUP2 MSTORE PUSH1 0x4 ADD PUSH2 0xAEC SWAP1 PUSH2 0x3E81 JUMP JUMPDEST PUSH1 0x1 DUP1 SLOAD PUSH1 0xFF NOT AND SWAP1 SSTORE TIMESTAMP PUSH1 0xA SSTORE JUMP JUMPDEST PUSH1 0x0 DUP2 PUSH1 0x1 PUSH1 0x1 PUSH1 0xA0 SHL SUB AND DUP4 PUSH1 0x40 MLOAD PUSH1 0x0 PUSH1 0x40 MLOAD DUP1 DUP4 SUB DUP2 DUP6 DUP8 GAS CALL SWAP3 POP POP POP RETURNDATASIZE DUP1 PUSH1 0x0 DUP2 EQ PUSH2 0x35C3 JUMPI PUSH1 0x40 MLOAD SWAP2 POP PUSH1 0x1F NOT PUSH1 0x3F RETURNDATASIZE ADD AND DUP3 ADD PUSH1 0x40 MSTORE RETURNDATASIZE DUP3 MSTORE RETURNDATASIZE PUSH1 0x0 PUSH1 0x20 DUP5 ADD RETURNDATACOPY PUSH2 0x35C8 JUMP JUMPDEST PUSH1 0x60 SWAP2 POP JUMPDEST POP POP SWAP1 POP DUP1 PUSH2 0xB8B JUMPI PUSH1 0x40 MLOAD PUSH3 0x461BCD PUSH1 0xE5 SHL DUP2 MSTORE PUSH1 0x20 PUSH1 0x4 DUP3 ADD MSTORE PUSH1 0x2 PUSH1 0x24 DUP3 ADD MSTORE PUSH2 0x2A23 PUSH1 0xF1 SHL PUSH1 0x44 DUP3 ADD MSTORE PUSH1 0x64 ADD PUSH2 0xAEC JUMP JUMPDEST PUSH1 0x1 PUSH1 0x1 PUSH1 0xA0 SHL SUB DUP3 AND PUSH1 0x0 SWAP1 DUP2 MSTORE PUSH1 0x9 PUSH1 0x20 MSTORE PUSH1 0x40 DUP2 KECCAK256 DUP1 SLOAD DUP4 SWAP3 SWAP1 PUSH2 0x3626 SWAP1 DUP5 SWAP1 PUSH2 0x3ED6 JUMP JUMPDEST SWAP1 SWAP2 SSTORE POP POP PUSH1 0x1 PUSH1 0x1 PUSH1 0xA0 SHL SUB DUP3 AND PUSH1 0x0 SWAP1 DUP2 MSTORE PUSH1 0xB PUSH1 0x20 MSTORE PUSH1 0x40 DUP2 KECCAK256 DUP1 SLOAD DUP4 SWAP3 SWAP1 PUSH2 0x3653 SWAP1 DUP5 SWAP1 PUSH2 0x3ED6 JUMP JUMPDEST SWAP1 SWAP2 SSTORE POP POP POP POP JUMP JUMPDEST PUSH2 0x3665 DUP4 PUSH2 0x135B JUMP JUMPDEST PUSH2 0x366E JUMPI PUSH1 0x0 DUP1 REVERT JUMPDEST ADDRESS PUSH1 0x0 SWAP1 DUP2 MSTORE PUSH1 0x4 PUSH1 0x20 MSTORE PUSH1 0x40 DUP2 KECCAK256 SLOAD SWAP1 SLOAD PUSH2 0x368A SWAP2 SWAP1 PUSH2 0x37E0 JUMP JUMPDEST ADDRESS PUSH1 0x0 SWAP1 DUP2 MSTORE PUSH1 0x4 PUSH1 0x20 SWAP1 DUP2 MSTORE PUSH1 0x40 DUP1 DUP4 KECCAK256 SLOAD DUP4 MSTORE PUSH1 0x3 SWAP1 SWAP2 MSTORE SWAP1 KECCAK256 SLOAD PUSH2 0x36BE SWAP1 PUSH2 0x36B5 SWAP1 DUP7 PUSH2 0x3DE0 JUMP JUMPDEST ADDRESS PUSH1 0x0 SLOAD PUSH2 0x3827 JUMP JUMPDEST ADDRESS PUSH1 0x0 SWAP1 DUP2 MSTORE PUSH1 0x4 PUSH1 0x20 MSTORE PUSH1 0x40 SWAP1 KECCAK256 SLOAD PUSH2 0xE3E SWAP1 DUP6 DUP6 DUP6 DUP6 PUSH2 0x3147 JUMP JUMPDEST PUSH2 0x36E4 DUP2 PUSH2 0x135B JUMP JUMPDEST PUSH2 0x3715 JUMPI PUSH1 0x40 MLOAD PUSH3 0x461BCD PUSH1 0xE5 SHL DUP2 MSTORE PUSH1 0x20 PUSH1 0x4 DUP3 ADD MSTORE PUSH1 0x2 PUSH1 0x24 DUP3 ADD MSTORE PUSH2 0x1555 PUSH1 0xF2 SHL PUSH1 0x44 DUP3 ADD MSTORE PUSH1 0x64 ADD PUSH2 0xAEC JUMP JUMPDEST PUSH1 0x1 PUSH1 0x1 PUSH1 0xA0 SHL SUB DUP2 AND PUSH1 0x0 SWAP1 DUP2 MSTORE PUSH1 0x9 PUSH1 0x20 MSTORE PUSH1 0x40 SWAP1 KECCAK256 SLOAD ISZERO PUSH2 0x3760 JUMPI PUSH1 0x40 MLOAD PUSH3 0x461BCD PUSH1 0xE5 SHL DUP2 MSTORE PUSH1 0x20 PUSH1 0x4 DUP3 ADD MSTORE PUSH1 0x2 PUSH1 0x24 DUP3 ADD MSTORE PUSH2 0x272D PUSH1 0xF1 SHL PUSH1 0x44 DUP3 ADD MSTORE PUSH1 0x64 ADD PUSH2 0xAEC JUMP JUMPDEST PUSH1 0x1 PUSH1 0x1 PUSH1 0xA0 SHL SUB AND PUSH1 0x0 SWAP1 DUP2 MSTORE PUSH1 0x8 PUSH1 0x20 MSTORE PUSH1 0x40 SWAP1 KECCAK256 DUP1 SLOAD PUSH1 0xFF NOT AND SWAP1 SSTORE JUMP JUMPDEST PUSH2 0x378A DUP2 PUSH2 0x135B JUMP JUMPDEST ISZERO PUSH2 0x37BC JUMPI PUSH1 0x40 MLOAD PUSH3 0x461BCD PUSH1 0xE5 SHL DUP2 MSTORE PUSH1 0x20 PUSH1 0x4 DUP3 ADD MSTORE PUSH1 0x2 PUSH1 0x24 DUP3 ADD MSTORE PUSH2 0x20A9 PUSH1 0xF1 SHL PUSH1 0x44 DUP3 ADD MSTORE PUSH1 0x64 ADD PUSH2 0xAEC JUMP JUMPDEST PUSH1 0x1 PUSH1 0x1 PUSH1 0xA0 SHL SUB AND PUSH1 0x0 SWAP1 DUP2 MSTORE PUSH1 0x8 PUSH1 0x20 MSTORE PUSH1 0x40 SWAP1 KECCAK256 DUP1 SLOAD PUSH1 0xFF NOT AND PUSH1 0x1 OR SWAP1 SSTORE JUMP JUMPDEST PUSH1 0x0 DUP3 DUP2 MSTORE PUSH1 0x7 PUSH1 0x20 SWAP1 DUP2 MSTORE PUSH1 0x40 DUP1 DUP4 KECCAK256 DUP5 SWAP1 SSTORE DUP1 MLOAD SWAP3 DUP4 MSTORE SWAP1 DUP3 ADD DUP5 SWAP1 MSTORE PUSH32 0x12769FD465856C3651942A04374F21755B56A66422AAED87C7E56E936F6DD3D0 SWAP2 ADD PUSH2 0x1F63 JUMP JUMPDEST PUSH1 0x0 DUP4 GT PUSH2 0x385C JUMPI PUSH1 0x40 MLOAD PUSH3 0x461BCD PUSH1 0xE5 SHL DUP2 MSTORE PUSH1 0x20 PUSH1 0x4 DUP3 ADD MSTORE PUSH1 0x2 PUSH1 0x24 DUP3 ADD MSTORE PUSH2 0x29AD PUSH1 0xF1 SHL PUSH1 0x44 DUP3 ADD MSTORE PUSH1 0x64 ADD PUSH2 0xAEC JUMP JUMPDEST PUSH1 0x0 DUP1 JUMPDEST PUSH1 0x40 MLOAD PUSH12 0xFFFFFFFFFFFFFFFFFFFFFFFF NOT PUSH1 0x60 DUP7 SWAP1 SHL AND PUSH1 0x20 DUP3 ADD MSTORE PUSH1 0x34 DUP2 ADD DUP5 SWAP1 MSTORE PUSH1 0x54 DUP2 ADD DUP4 SWAP1 MSTORE PUSH1 0x74 ADD PUSH1 0x40 DUP1 MLOAD PUSH1 0x1F NOT DUP2 DUP5 SUB ADD DUP2 MSTORE SWAP2 DUP2 MSTORE DUP2 MLOAD PUSH1 0x20 SWAP3 DUP4 ADD KECCAK256 PUSH1 0x0 DUP2 DUP2 MSTORE PUSH1 0x3 SWAP1 SWAP4 MSTORE SWAP2 KECCAK256 PUSH1 0x1 ADD SLOAD SWAP1 SWAP2 POP PUSH1 0x1 PUSH1 0x1 PUSH1 0xA0 SHL SUB AND ISZERO PUSH2 0x38D8 JUMPI DUP2 PUSH2 0x38D0 DUP2 PUSH2 0x4296 JUMP JUMPDEST SWAP3 POP POP PUSH2 0x3860 JUMP JUMPDEST PUSH1 0x1 PUSH1 0x1 PUSH1 0xA0 SHL SUB DUP5 DUP2 AND PUSH1 0x0 DUP2 DUP2 MSTORE PUSH1 0x4 PUSH1 0x20 SWAP1 DUP2 MSTORE PUSH1 0x40 DUP1 DUP4 KECCAK256 DUP7 SWAP1 SSTORE DUP6 DUP4 MSTORE PUSH1 0x7 DUP3 MSTORE DUP1 DUP4 KECCAK256 PUSH1 0x0 NOT SWAP1 SSTORE DUP1 MLOAD PUSH1 0x60 DUP2 ADD DUP3 MSTORE DUP11 DUP2 MSTORE DUP1 DUP4 ADD SWAP5 DUP6 MSTORE DUP1 DUP3 ADD DUP10 DUP2 MSTORE DUP8 DUP6 MSTORE PUSH1 0x3 DUP5 MSTORE SWAP4 DUP3 SWAP1 KECCAK256 SWAP1 MLOAD DUP2 SSTORE SWAP4 MLOAD PUSH1 0x1 DUP1 DUP7 ADD DUP1 SLOAD PUSH1 0x1 PUSH1 0x1 PUSH1 0xA0 SHL SUB NOT AND SWAP3 SWAP1 SWAP8 AND SWAP2 SWAP1 SWAP2 OR SWAP1 SWAP6 SSTORE SWAP2 MLOAD PUSH1 0x2 SWAP1 SWAP4 ADD SWAP3 SWAP1 SWAP3 SSTORE DUP1 MLOAD SWAP3 DUP4 MSTORE SWAP1 DUP3 ADD DUP4 SWAP1 MSTORE PUSH32 0x12769FD465856C3651942A04374F21755B56A66422AAED87C7E56E936F6DD3D0 SWAP2 ADD PUSH2 0x1215 JUMP JUMPDEST PUSH1 0x0 PUSH1 0x20 DUP3 DUP5 SUB SLT ISZERO PUSH2 0x399A JUMPI PUSH1 0x0 DUP1 REVERT JUMPDEST POP CALLDATALOAD SWAP2 SWAP1 POP JUMP JUMPDEST DUP1 CALLDATALOAD PUSH1 0x1 PUSH1 0x1 PUSH1 0xA0 SHL SUB DUP2 AND DUP2 EQ PUSH2 0x39B8 JUMPI PUSH1 0x0 DUP1 REVERT JUMPDEST SWAP2 SWAP1 POP JUMP JUMPDEST PUSH1 0x0 PUSH1 0x20 DUP3 DUP5 SUB SLT ISZERO PUSH2 0x39CF JUMPI PUSH1 0x0 DUP1 REVERT JUMPDEST PUSH2 0x1483 DUP3 PUSH2 0x39A1 JUMP JUMPDEST PUSH4 0x4E487B71 PUSH1 0xE0 SHL PUSH1 0x0 MSTORE PUSH1 0x41 PUSH1 0x4 MSTORE PUSH1 0x24 PUSH1 0x0 REVERT JUMPDEST PUSH1 0x0 DUP3 PUSH1 0x1F DUP4 ADD SLT PUSH2 0x39FF JUMPI PUSH1 0x0 DUP1 REVERT JUMPDEST DUP2 CALLDATALOAD PUSH8 0xFFFFFFFFFFFFFFFF DUP1 DUP3 GT ISZERO PUSH2 0x3A1A JUMPI PUSH2 0x3A1A PUSH2 0x39D8 JUMP JUMPDEST PUSH1 0x40 MLOAD PUSH1 0x1F DUP4 ADD PUSH1 0x1F NOT SWAP1 DUP2 AND PUSH1 0x3F ADD AND DUP2 ADD SWAP1 DUP3 DUP3 GT DUP2 DUP4 LT OR ISZERO PUSH2 0x3A42 JUMPI PUSH2 0x3A42 PUSH2 0x39D8 JUMP JUMPDEST DUP2 PUSH1 0x40 MSTORE DUP4 DUP2 MSTORE DUP7 PUSH1 0x20 DUP6 DUP9 ADD ADD GT ISZERO PUSH2 0x3A5B JUMPI PUSH1 0x0 DUP1 REVERT JUMPDEST DUP4 PUSH1 0x20 DUP8 ADD PUSH1 0x20 DUP4 ADD CALLDATACOPY PUSH1 0x0 PUSH1 0x20 DUP6 DUP4 ADD ADD MSTORE DUP1 SWAP5 POP POP POP POP POP SWAP3 SWAP2 POP POP JUMP JUMPDEST PUSH1 0x0 PUSH1 0x20 DUP3 DUP5 SUB SLT ISZERO PUSH2 0x3A8D JUMPI PUSH1 0x0 DUP1 REVERT JUMPDEST DUP2 CALLDATALOAD PUSH8 0xFFFFFFFFFFFFFFFF DUP2 GT ISZERO PUSH2 0x3AA4 JUMPI PUSH1 0x0 DUP1 REVERT JUMPDEST PUSH2 0x3AB0 DUP5 DUP3 DUP6 ADD PUSH2 0x39EE JUMP JUMPDEST SWAP5 SWAP4 POP POP POP POP JUMP JUMPDEST PUSH1 0x0 DUP1 PUSH1 0x40 DUP4 DUP6 SUB SLT ISZERO PUSH2 0x3ACB JUMPI PUSH1 0x0 DUP1 REVERT JUMPDEST DUP3 CALLDATALOAD PUSH8 0xFFFFFFFFFFFFFFFF DUP2 GT ISZERO PUSH2 0x3AE2 JUMPI PUSH1 0x0 DUP1 REVERT JUMPDEST PUSH2 0x3AEE DUP6 DUP3 DUP7 ADD PUSH2 0x39EE JUMP JUMPDEST SWAP3 POP POP PUSH2 0x3AFD PUSH1 0x20 DUP5 ADD PUSH2 0x39A1 JUMP JUMPDEST SWAP1 POP SWAP3 POP SWAP3 SWAP1 POP JUMP JUMPDEST PUSH1 0x0 DUP1 PUSH1 0x40 DUP4 DUP6 SUB SLT ISZERO PUSH2 0x3B19 JUMPI PUSH1 0x0 DUP1 REVERT JUMPDEST POP POP DUP1 CALLDATALOAD SWAP3 PUSH1 0x20 SWAP1 SWAP2 ADD CALLDATALOAD SWAP2 POP JUMP JUMPDEST PUSH1 0x0 DUP1 PUSH1 0x0 DUP1 PUSH1 0x80 DUP6 DUP8 SUB SLT ISZERO PUSH2 0x3B3E JUMPI PUSH1 0x0 DUP1 REVERT JUMPDEST DUP5 CALLDATALOAD SWAP4 POP PUSH2 0x3B4E PUSH1 0x20 DUP7 ADD PUSH2 0x39A1 JUMP JUMPDEST SWAP3 POP PUSH1 0x40 DUP6 ADD CALLDATALOAD SWAP2 POP PUSH2 0x3B63 PUSH1 0x60 DUP7 ADD PUSH2 0x39A1 JUMP JUMPDEST SWAP1 POP SWAP3 SWAP6 SWAP2 SWAP5 POP SWAP3 POP JUMP JUMPDEST PUSH1 0x0 DUP1 PUSH1 0x0 PUSH1 0x60 DUP5 DUP7 SUB SLT ISZERO PUSH2 0x3B83 JUMPI PUSH1 0x0 DUP1 REVERT JUMPDEST DUP4 CALLDATALOAD PUSH8 0xFFFFFFFFFFFFFFFF DUP2 GT ISZERO PUSH2 0x3B9A JUMPI PUSH1 0x0 DUP1 REVERT JUMPDEST PUSH2 0x3BA6 DUP7 DUP3 DUP8 ADD PUSH2 0x39EE JUMP JUMPDEST SWAP4 POP POP PUSH2 0x3BB5 PUSH1 0x20 DUP6 ADD PUSH2 0x39A1 JUMP JUMPDEST SWAP2 POP PUSH1 0x40 DUP5 ADD CALLDATALOAD SWAP1 POP SWAP3 POP SWAP3 POP SWAP3 JUMP JUMPDEST PUSH1 0x0 DUP1 PUSH1 0x40 DUP4 DUP6 SUB SLT ISZERO PUSH2 0x3BD8 JUMPI PUSH1 0x0 DUP1 REVERT JUMPDEST PUSH2 0x3BE1 DUP4 PUSH2 0x39A1 JUMP JUMPDEST SWAP5 PUSH1 0x20 SWAP4 SWAP1 SWAP4 ADD CALLDATALOAD SWAP4 POP POP POP JUMP JUMPDEST PUSH1 0x0 DUP1 PUSH1 0x0 DUP1 PUSH1 0x80 DUP6 DUP8 SUB SLT ISZERO PUSH2 0x3C05 JUMPI PUSH1 0x0 DUP1 REVERT JUMPDEST DUP5 CALLDATALOAD PUSH8 0xFFFFFFFFFFFFFFFF DUP1 DUP3 GT ISZERO PUSH2 0x3C1D JUMPI PUSH1 0x0 DUP1 REVERT JUMPDEST PUSH2 0x3C29 DUP9 DUP4 DUP10 ADD PUSH2 0x39EE JUMP JUMPDEST SWAP6 POP PUSH1 0x20 DUP8 ADD CALLDATALOAD SWAP2 POP DUP1 DUP3 GT ISZERO PUSH2 0x3C3F JUMPI PUSH1 0x0 DUP1 REVERT JUMPDEST POP PUSH2 0x3C4C DUP8 DUP3 DUP9 ADD PUSH2 0x39EE JUMP JUMPDEST SWAP4 POP POP PUSH2 0x3C5B PUSH1 0x40 DUP7 ADD PUSH2 0x39A1 JUMP JUMPDEST SWAP4 SWAP7 SWAP3 SWAP6 POP SWAP3 SWAP4 PUSH1 0x60 ADD CALLDATALOAD SWAP3 POP POP JUMP JUMPDEST PUSH1 0x0 DUP1 PUSH1 0x0 PUSH1 0x60 DUP5 DUP7 SUB SLT ISZERO PUSH2 0x3C80 JUMPI PUSH1 0x0 DUP1 REVERT JUMPDEST POP POP DUP2 CALLDATALOAD SWAP4 PUSH1 0x20 DUP4 ADD CALLDATALOAD SWAP4 POP PUSH1 0x40 SWAP1 SWAP3 ADD CALLDATALOAD SWAP2 SWAP1 POP JUMP JUMPDEST PUSH1 0x0 DUP1 PUSH1 0x0 PUSH1 0x60 DUP5 DUP7 SUB SLT ISZERO PUSH2 0x3CAC JUMPI PUSH1 0x0 DUP1 REVERT JUMPDEST DUP4 CALLDATALOAD SWAP3 POP PUSH1 0x20 DUP5 ADD CALLDATALOAD SWAP2 POP PUSH2 0x3CC3 PUSH1 0x40 DUP6 ADD PUSH2 0x39A1 JUMP JUMPDEST SWAP1 POP SWAP3 POP SWAP3 POP SWAP3 JUMP JUMPDEST PUSH1 0x0 DUP1 PUSH1 0x0 PUSH1 0x60 DUP5 DUP7 SUB SLT ISZERO PUSH2 0x3CE1 JUMPI PUSH1 0x0 DUP1 REVERT JUMPDEST DUP4 CALLDATALOAD PUSH8 0xFFFFFFFFFFFFFFFF DUP2 GT ISZERO PUSH2 0x3CF8 JUMPI PUSH1 0x0 DUP1 REVERT JUMPDEST PUSH2 0x3D04 DUP7 DUP3 DUP8 ADD PUSH2 0x39EE JUMP JUMPDEST SWAP4 POP POP PUSH2 0x3D13 PUSH1 0x20 DUP6 ADD PUSH2 0x39A1 JUMP JUMPDEST SWAP2 POP PUSH1 0x40 DUP5 ADD CALLDATALOAD PUSH1 0x3 DUP2 LT PUSH2 0x3D27 JUMPI PUSH1 0x0 DUP1 REVERT JUMPDEST DUP1 SWAP2 POP POP SWAP3 POP SWAP3 POP SWAP3 JUMP JUMPDEST PUSH1 0x0 DUP1 PUSH1 0x0 DUP1 PUSH1 0x80 DUP6 DUP8 SUB SLT ISZERO PUSH2 0x3D48 JUMPI PUSH1 0x0 DUP1 REVERT JUMPDEST DUP5 CALLDATALOAD PUSH8 0xFFFFFFFFFFFFFFFF DUP2 GT ISZERO PUSH2 0x3D5F JUMPI PUSH1 0x0 DUP1 REVERT JUMPDEST PUSH2 0x3D6B DUP8 DUP3 DUP9 ADD PUSH2 0x39EE JUMP JUMPDEST SWAP5 POP POP PUSH2 0x3B4E PUSH1 0x20 DUP7 ADD PUSH2 0x39A1 JUMP JUMPDEST PUSH1 0x0 DUP1 PUSH1 0x0 DUP1 PUSH1 0x0 PUSH1 0xA0 DUP7 DUP9 SUB SLT ISZERO PUSH2 0x3D92 JUMPI PUSH1 0x0 DUP1 REVERT JUMPDEST DUP6 CALLDATALOAD SWAP5 POP PUSH1 0x20 DUP7 ADD CALLDATALOAD SWAP4 POP PUSH2 0x3DA9 PUSH1 0x40 DUP8 ADD PUSH2 0x39A1 JUMP JUMPDEST SWAP3 POP PUSH1 0x60 DUP7 ADD CALLDATALOAD SWAP2 POP PUSH2 0x3DBE PUSH1 0x80 DUP8 ADD PUSH2 0x39A1 JUMP JUMPDEST SWAP1 POP SWAP3 SWAP6 POP SWAP3 SWAP6 SWAP1 SWAP4 POP JUMP JUMPDEST PUSH4 0x4E487B71 PUSH1 0xE0 SHL PUSH1 0x0 MSTORE PUSH1 0x11 PUSH1 0x4 MSTORE PUSH1 0x24 PUSH1 0x0 REVERT JUMPDEST DUP1 DUP3 ADD DUP1 DUP3 GT ISZERO PUSH2 0xCBD JUMPI PUSH2 0xCBD PUSH2 0x3DCA JUMP JUMPDEST PUSH1 0x20 DUP1 DUP3 MSTORE PUSH1 0x2 SWAP1 DUP3 ADD MSTORE PUSH2 0x9E9 PUSH1 0xF3 SHL PUSH1 0x40 DUP3 ADD MSTORE PUSH1 0x60 ADD SWAP1 JUMP JUMPDEST PUSH1 0x20 DUP1 DUP3 MSTORE PUSH1 0x2 SWAP1 DUP3 ADD MSTORE PUSH2 0x5553 PUSH1 0xF0 SHL PUSH1 0x40 DUP3 ADD MSTORE PUSH1 0x60 ADD SWAP1 JUMP JUMPDEST PUSH4 0x4E487B71 PUSH1 0xE0 SHL PUSH1 0x0 MSTORE PUSH1 0x21 PUSH1 0x4 MSTORE PUSH1 0x24 PUSH1 0x0 REVERT JUMPDEST PUSH1 0x0 JUMPDEST DUP4 DUP2 LT ISZERO PUSH2 0x3E5C JUMPI DUP2 DUP2 ADD MLOAD DUP4 DUP3 ADD MSTORE PUSH1 0x20 ADD PUSH2 0x3E44 JUMP JUMPDEST POP POP PUSH1 0x0 SWAP2 ADD MSTORE JUMP JUMPDEST PUSH1 0x0 DUP3 MLOAD PUSH2 0x3E77 DUP2 DUP5 PUSH1 0x20 DUP8 ADD PUSH2 0x3E41 JUMP JUMPDEST SWAP2 SWAP1 SWAP2 ADD SWAP3 SWAP2 POP POP JUMP JUMPDEST PUSH1 0x20 DUP1 DUP3 MSTORE PUSH1 0x2 SWAP1 DUP3 ADD MSTORE PUSH2 0x1153 PUSH1 0xF2 SHL PUSH1 0x40 DUP3 ADD MSTORE PUSH1 0x60 ADD SWAP1 JUMP JUMPDEST DUP1 DUP3 MUL DUP2 ISZERO DUP3 DUP3 DIV DUP5 EQ OR PUSH2 0xCBD JUMPI PUSH2 0xCBD PUSH2 0x3DCA JUMP JUMPDEST PUSH1 0x0 DUP3 PUSH2 0x3ED1 JUMPI PUSH4 0x4E487B71 PUSH1 0xE0 SHL PUSH1 0x0 MSTORE PUSH1 0x12 PUSH1 0x4 MSTORE PUSH1 0x24 PUSH1 0x0 REVERT JUMPDEST POP DIV SWAP1 JUMP JUMPDEST DUP2 DUP2 SUB DUP2 DUP2 GT ISZERO PUSH2 0xCBD JUMPI PUSH2 0xCBD PUSH2 0x3DCA JUMP JUMPDEST PUSH1 0x0 PUSH1 0x20 DUP3 DUP5 SUB SLT ISZERO PUSH2 0x3EFB JUMPI PUSH1 0x0 DUP1 REVERT JUMPDEST POP MLOAD SWAP2 SWAP1 POP JUMP JUMPDEST PUSH1 0x20 DUP1 DUP3 MSTORE PUSH1 0x2 SWAP1 DUP3 ADD MSTORE PUSH2 0x1255 PUSH1 0xF2 SHL PUSH1 0x40 DUP3 ADD MSTORE PUSH1 0x60 ADD SWAP1 JUMP JUMPDEST PUSH1 0x0 PUSH1 0x20 DUP3 DUP5 SUB SLT ISZERO PUSH2 0x3F30 JUMPI PUSH1 0x0 DUP1 REVERT JUMPDEST DUP2 MLOAD DUP1 ISZERO ISZERO DUP2 EQ PUSH2 0x1483 JUMPI PUSH1 0x0 DUP1 REVERT JUMPDEST PUSH1 0x20 DUP1 DUP3 MSTORE PUSH1 0x2 SWAP1 DUP3 ADD MSTORE PUSH2 0x1395 PUSH1 0xF2 SHL PUSH1 0x40 DUP3 ADD MSTORE PUSH1 0x60 ADD SWAP1 JUMP JUMPDEST PUSH1 0x3 DUP2 LT PUSH2 0xAAE JUMPI PUSH4 0x4E487B71 PUSH1 0xE0 SHL PUSH1 0x0 MSTORE PUSH1 0x21 PUSH1 0x4 MSTORE PUSH1 0x24 PUSH1 0x0 REVERT JUMPDEST PUSH1 0xC0 DUP2 ADD PUSH2 0x3F87 DUP6 PUSH2 0x3F5C JUMP JUMPDEST DUP5 DUP3 MSTORE DUP4 PUSH1 0x20 DUP4 ADD MSTORE DUP3 MLOAD PUSH1 0x40 DUP4 ADD MSTORE PUSH1 0x20 DUP4 ADD MLOAD PUSH1 0x60 DUP4 ADD MSTORE PUSH1 0x40 DUP4 ADD MLOAD PUSH1 0x1 DUP1 PUSH1 0xA0 SHL SUB DUP1 DUP3 AND PUSH1 0x80 DUP6 ADD MSTORE DUP1 PUSH1 0x60 DUP7 ADD MLOAD AND PUSH1 0xA0 DUP6 ADD MSTORE POP POP SWAP5 SWAP4 POP POP POP POP JUMP JUMPDEST PUSH1 0x0 DUP2 MLOAD DUP1 DUP5 MSTORE PUSH2 0x3FE3 DUP2 PUSH1 0x20 DUP7 ADD PUSH1 0x20 DUP7 ADD PUSH2 0x3E41 JUMP JUMPDEST PUSH1 0x1F ADD PUSH1 0x1F NOT AND SWAP3 SWAP1 SWAP3 ADD PUSH1 0x20 ADD SWAP3 SWAP2 POP POP JUMP JUMPDEST PUSH1 0x60 DUP2 MSTORE PUSH1 0x2 PUSH1 0x60 DUP3 ADD MSTORE PUSH2 0x1911 PUSH1 0xF2 SHL PUSH1 0x80 DUP3 ADD MSTORE PUSH1 0xA0 PUSH1 0x20 DUP3 ADD MSTORE PUSH1 0x0 PUSH2 0x4023 PUSH1 0xA0 DUP4 ADD DUP6 PUSH2 0x3FCB JUMP JUMPDEST SWAP1 POP PUSH1 0x1 DUP1 PUSH1 0xA0 SHL SUB DUP4 AND PUSH1 0x40 DUP4 ADD MSTORE SWAP4 SWAP3 POP POP POP JUMP JUMPDEST PUSH1 0x40 DUP2 MSTORE PUSH1 0x0 PUSH2 0x404D PUSH1 0x40 DUP4 ADD DUP6 PUSH2 0x3FCB JUMP JUMPDEST SWAP1 POP PUSH1 0x1 DUP1 PUSH1 0xA0 SHL SUB DUP4 AND PUSH1 0x20 DUP4 ADD MSTORE SWAP4 SWAP3 POP POP POP JUMP JUMPDEST PUSH1 0x60 DUP2 MSTORE PUSH1 0x2 PUSH1 0x60 DUP3 ADD MSTORE PUSH2 0x31A1 PUSH1 0xF1 SHL PUSH1 0x80 DUP3 ADD MSTORE PUSH1 0xA0 PUSH1 0x20 DUP3 ADD MSTORE PUSH1 0x0 PUSH2 0x4023 PUSH1 0xA0 DUP4 ADD DUP6 PUSH2 0x3FCB JUMP JUMPDEST PUSH1 0x60 DUP2 MSTORE PUSH1 0x2 PUSH1 0x60 DUP3 ADD MSTORE PUSH2 0x7241 PUSH1 0xF0 SHL PUSH1 0x80 DUP3 ADD MSTORE PUSH1 0xA0 PUSH1 0x20 DUP3 ADD MSTORE PUSH1 0x0 PUSH2 0x4023 PUSH1 0xA0 DUP4 ADD DUP6 PUSH2 0x3FCB JUMP JUMPDEST PUSH1 0x20 DUP2 MSTORE PUSH1 0x0 PUSH2 0x1483 PUSH1 0x20 DUP4 ADD DUP5 PUSH2 0x3FCB JUMP JUMPDEST PUSH1 0x60 DUP2 MSTORE PUSH1 0x2 PUSH1 0x60 DUP3 ADD MSTORE PUSH2 0x3221 PUSH1 0xF1 SHL PUSH1 0x80 DUP3 ADD MSTORE PUSH1 0xA0 PUSH1 0x20 DUP3 ADD MSTORE PUSH1 0x0 PUSH2 0x4023 PUSH1 0xA0 DUP4 ADD DUP6 PUSH2 0x3FCB JUMP JUMPDEST PUSH1 0x60 DUP2 MSTORE PUSH1 0x2 PUSH1 0x60 DUP3 ADD MSTORE PUSH2 0x6953 PUSH1 0xF0 SHL PUSH1 0x80 DUP3 ADD MSTORE PUSH1 0xA0 PUSH1 0x20 DUP3 ADD MSTORE PUSH1 0x0 PUSH2 0x4023 PUSH1 0xA0 DUP4 ADD DUP6 PUSH2 0x3FCB JUMP JUMPDEST PUSH1 0x20 DUP1 DUP3 MSTORE PUSH1 0x2 SWAP1 DUP3 ADD MSTORE PUSH2 0x24A3 PUSH1 0xF1 SHL PUSH1 0x40 DUP3 ADD MSTORE PUSH1 0x60 ADD SWAP1 JUMP JUMPDEST DUP5 DUP2 MSTORE PUSH1 0x80 PUSH1 0x20 DUP3 ADD MSTORE PUSH1 0x0 PUSH2 0x415C PUSH1 0x80 DUP4 ADD DUP7 PUSH2 0x3FCB JUMP JUMPDEST PUSH1 0x1 PUSH1 0x1 PUSH1 0xA0 SHL SUB SWAP5 SWAP1 SWAP5 AND PUSH1 0x40 DUP4 ADD MSTORE POP PUSH1 0x60 ADD MSTORE SWAP3 SWAP2 POP POP JUMP JUMPDEST PUSH1 0x60 DUP2 MSTORE PUSH1 0x2 PUSH1 0x60 DUP3 ADD MSTORE PUSH2 0x1A51 PUSH1 0xF2 SHL PUSH1 0x80 DUP3 ADD MSTORE PUSH1 0xA0 PUSH1 0x20 DUP3 ADD MSTORE PUSH1 0x0 PUSH2 0x4023 PUSH1 0xA0 DUP4 ADD DUP6 PUSH2 0x3FCB JUMP JUMPDEST PUSH1 0x60 DUP2 MSTORE PUSH1 0x2 PUSH1 0x60 DUP3 ADD MSTORE PUSH2 0x1D55 PUSH1 0xF2 SHL PUSH1 0x80 DUP3 ADD MSTORE PUSH1 0xA0 PUSH1 0x20 DUP3 ADD MSTORE PUSH1 0x0 PUSH2 0x4023 PUSH1 0xA0 DUP4 ADD DUP6 PUSH2 0x3FCB JUMP JUMPDEST PUSH1 0x60 DUP2 MSTORE PUSH1 0x2 PUSH1 0x60 DUP3 ADD MSTORE PUSH2 0x1C95 PUSH1 0xF2 SHL PUSH1 0x80 DUP3 ADD MSTORE PUSH1 0xA0 PUSH1 0x20 DUP3 ADD MSTORE PUSH1 0x0 PUSH2 0x4023 PUSH1 0xA0 DUP4 ADD DUP6 PUSH2 0x3FCB JUMP JUMPDEST PUSH1 0x80 DUP2 MSTORE PUSH1 0x0 PUSH2 0x420F PUSH1 0x80 DUP4 ADD DUP8 PUSH2 0x3FCB JUMP JUMPDEST DUP3 DUP2 SUB PUSH1 0x20 DUP5 ADD MSTORE PUSH2 0x4221 DUP2 DUP8 PUSH2 0x3FCB JUMP JUMPDEST PUSH1 0x1 PUSH1 0x1 PUSH1 0xA0 SHL SUB SWAP6 SWAP1 SWAP6 AND PUSH1 0x40 DUP5 ADD MSTORE POP POP PUSH1 0x60 ADD MSTORE SWAP3 SWAP2 POP POP JUMP JUMPDEST PUSH1 0x60 DUP2 MSTORE PUSH1 0x2 PUSH1 0x60 DUP3 ADD MSTORE PUSH2 0x1B55 PUSH1 0xF2 SHL PUSH1 0x80 DUP3 ADD MSTORE PUSH1 0xA0 PUSH1 0x20 DUP3 ADD MSTORE PUSH1 0x0 PUSH2 0x4023 PUSH1 0xA0 DUP4 ADD DUP6 PUSH2 0x3FCB JUMP JUMPDEST PUSH1 0x60 DUP2 MSTORE PUSH1 0x2 PUSH1 0x60 DUP3 ADD MSTORE PUSH2 0x6141 PUSH1 0xF0 SHL PUSH1 0x80 DUP3 ADD MSTORE PUSH1 0xA0 PUSH1 0x20 DUP3 ADD MSTORE PUSH1 0x0 PUSH2 0x4023 PUSH1 0xA0 DUP4 ADD DUP6 PUSH2 0x3FCB JUMP JUMPDEST PUSH1 0x0 PUSH1 0x1 DUP3 ADD PUSH2 0x42A8 JUMPI PUSH2 0x42A8 PUSH2 0x3DCA JUMP JUMPDEST POP PUSH1 0x1 ADD SWAP1 JUMP JUMPDEST PUSH1 0xC0 DUP2 ADD PUSH2 0x42BC DUP6 PUSH2 0x3F5C JUMP JUMPDEST SWAP4 DUP2 MSTORE PUSH1 0x20 DUP2 ADD SWAP3 SWAP1 SWAP3 MSTORE DUP1 SLOAD PUSH1 0x40 DUP4 ADD MSTORE PUSH1 0x1 DUP2 ADD SLOAD PUSH1 0x60 DUP4 ADD MSTORE PUSH1 0x2 DUP2 ADD SLOAD PUSH1 0x1 PUSH1 0x1 PUSH1 0xA0 SHL SUB SWAP1 DUP2 AND PUSH1 0x80 DUP5 ADD MSTORE PUSH1 0x3 SWAP1 SWAP2 ADD SLOAD AND PUSH1 0xA0 SWAP1 SWAP2 ADD MSTORE SWAP1 JUMP JUMPDEST PUSH1 0x60 DUP2 MSTORE PUSH1 0x0 PUSH2 0x4310 PUSH1 0x60 DUP4 ADD DUP7 PUSH2 0x3FCB JUMP JUMPDEST PUSH1 0x1 PUSH1 0x1 PUSH1 0xA0 SHL SUB DUP6 AND PUSH1 0x20 DUP5 ADD MSTORE SWAP1 POP PUSH2 0x432A DUP4 PUSH2 0x3F5C JUMP JUMPDEST DUP3 PUSH1 0x40 DUP4 ADD MSTORE SWAP5 SWAP4 POP POP POP POP JUMP JUMPDEST PUSH1 0x60 DUP2 MSTORE PUSH1 0x2 PUSH1 0x60 DUP3 ADD MSTORE PUSH2 0x735 PUSH1 0xF4 SHL PUSH1 0x80 DUP3 ADD MSTORE PUSH1 0xA0 PUSH1 0x20 DUP3 ADD MSTORE PUSH1 0x0 PUSH2 0x4023 PUSH1 0xA0 DUP4 ADD DUP6 PUSH2 0x3FCB JUMP JUMPDEST PUSH1 0x80 DUP2 MSTORE PUSH1 0x0 PUSH2 0x4377 PUSH1 0x80 DUP4 ADD DUP8 PUSH2 0x3FCB JUMP JUMPDEST PUSH1 0x1 PUSH1 0x1 PUSH1 0xA0 SHL SUB SWAP6 DUP7 AND PUSH1 0x20 DUP5 ADD MSTORE PUSH1 0x40 DUP4 ADD SWAP5 SWAP1 SWAP5 MSTORE POP SWAP3 AND PUSH1 0x60 SWAP1 SWAP3 ADD SWAP2 SWAP1 SWAP2 MSTORE SWAP2 SWAP1 POP JUMP JUMPDEST PUSH1 0x60 DUP2 MSTORE PUSH1 0x2 PUSH1 0x60 DUP3 ADD MSTORE PUSH2 0x1D15 PUSH1 0xF2 SHL PUSH1 0x80 DUP3 ADD MSTORE PUSH1 0xA0 PUSH1 0x20 DUP3 ADD MSTORE PUSH1 0x0 PUSH2 0x4023 PUSH1 0xA0 DUP4 ADD DUP6 PUSH2 0x3FCB JUMP INVALID NUMBER 0xCD PUSH23 0xB5EB40DA9EA5EB31A199F443F7CF7955EC280BC5981A2E CALLVALUE GASLIMIT 0xC7 SWAP13 SWAP1 SSTORE LOG2 PUSH5 0x6970667358 0x22 SLT KECCAK256 0x1F DUP4 0xED REVERT MOD SWAP11 0xDB 0x2B COINBASE PUSH13 0xA4FB546B5E5A4BA7388AB90141 INVALID DUP6 0xCE 0xCA 0xBF 0xC ADD 0xD7 0xC9 PUSH5 0x736F6C6343 STOP ADDMOD SGT STOP CALLER ",
  "sha1": "668501d0c0f078b74a1636642033672cd56001b2",
  "source": "// SPDX-License-Identifier: GPL-3.0-or-later\n\npragma solidity ^0.8.4;\n\nimport \"./idea.sol\";\n\n/// @title An extension of the Idea providing an administrable interface.\n/// @author Frederik W. L. Christoffersen\n/// @notice This contract adds administrability via permits and internally closed money supplies.\ncontract Administrable is Idea {\n\n    /// @notice An enum representing a Permit State of one of the many permits.\n    /// @param unauthorized The permit is NOT authorized.\n    /// @param authorized The permit is authorized.\n    /// @param administrator The holder of the permit is not only authorized but also an administrator of it too.\n    enum PermitState {\n        unauthorized,\n        authorized,\n        administrator\n    }\n\n    /// @notice A struct representing the information of a Dividend given to all current Shard holders.\n    /// @param tokenAddress The address of the token, in which the value of the Dividend is issued.\n    /// @param value The original value/amount of the Dividend before claims.\n    struct DividendInfo {\n        address tokenAddress;\n        uint256 value;\n    }\n\n    /// @notice A mapping pointing to a boolean stating if a given Bank is valid/exists or not.\n    mapping(string => bool) validBanks;\n    \n    /// @notice A mapping pointing to an unsigned integer representing the amount of stored kinds of tokens of a bank.\n    mapping(string => uint256) storedTokenAddressesByBank;\n\n    /// @notice A mapping pointing to the a value/amount of a stored token of a Bank, given the name of it and the respective token address.\n    mapping(string => mapping(address => uint256)) balanceByBank;\n\n     /// @notice A mapping pointing to a boolean stating if an address is an if a given address is a valid Bank administrator that has restricted control of the Bank's funds.\n    mapping(string => mapping(address => bool)) adminOfBank;\n\n    /// @notice A mapping pointing to another mapping, pointing to a Permit State, given the address of a permit holder, given the name of the permit.\n    /// @custom:illustration permits[permitName][address] == PermitState.authorized || PermitState.administrator;\n    mapping(string => mapping(address => PermitState)) permits;\n    \n    /// @notice A mapping pointing to a boolean stating if a given Dividend is valid or not.\n    mapping(uint256 => bool) validDividends;\n\n    /// @notice A mapping pointing to the info of a Dividend given the creation clock of the Dividend.\n    mapping(uint256 => DividendInfo) infoByDividend;\n\n    /// @notice A mapping pointing to the residual of a Dividend given the creation clock of the Dividend.\n    mapping(uint256 => uint256) residualByDividend;\n\n    /// @notice Mapping pointing to a boolean stating if the owner of a Shard has claimed their fair share of the Dividend, given the bank name and the shard.\n    mapping(uint256 => mapping(bytes32  => bool)) hasClaimedDividend;\n\n    /// @notice Event that triggers when an action is taken by somebody.\n    /// @param func The name of the function that was called.\n    /// @param args The arguments passed to the function call.\n    /// @param by The initiator of the action.\n    event ActionTaken(\n        string func,\n        bytes args,\n        address by\n        );\n\n    /// @notice Event that triggers when part of a dividend is claimed.\n    /// @param dividendClock The clock tied to the dividend.\n    /// @param value The value claimed.\n    /// @param by The claimant of the dividend.\n    event DividendClaimed(\n        uint256 dividendClock,\n        uint256 value,\n        address by\n        );\n\n    /// @notice Modifier that makes sure msg.sender has a given permit.\n    /// @param permitName The name of the permit to be checked for.\n    modifier onlyWithPermit(string memory permitName) {\n        require(hasPermit(permitName, msg.sender));\n        _;\n    }\n    \n    /// @notice Modifier that makes sure msg.sender is an admin of a given permit.\n    /// @param permitName The name of the permit to be checked for.\n    modifier onlyPermitAdmin(string memory permitName) {\n        require(isPermitAdmin(permitName, msg.sender));\n        _;\n\n    }\n\n    /// @notice Modifier that makes sure msg.sender is admin of a given bank.\n    /// @param bankName The name of the Bank to be checked for.\n    modifier onlyBankAdmin(string memory bankName) {\n        require(isBankAdmin(bankName, msg.sender));\n        _;\n    }\n\n    /// @notice Modifier that makes sure a given bank exists\n    /// @param bankName The name of the Bank to be checked for.\n    modifier onlyExistingBank(string memory bankName) {\n        require(bankExists(bankName), \"DNE\");\n        _;\n    }\n    \n    /// @notice Modifier that makes sure a given dividend exists and is valid\n    /// @param dividend The Dividend to be checked for.\n    modifier onlyExistingDividend(uint256 dividend) {\n        require(dividendExists(dividend));\n        _;\n    }\n\n    /// @notice Constructor function connecting the Idea entity and creating a Bank with an administrator.\n    constructor(uint256 amount) Idea(amount) {\n        _createBank(\"main\",msg.sender);\n        _setPermit(\"iS\", msg.sender, PermitState.administrator);\n        _setPermit(\"mD\", msg.sender, PermitState.administrator);\n        _setPermit(\"mB\", msg.sender, PermitState.administrator);\n        _setPermit(\"lE\", msg.sender, PermitState.administrator);\n        _setPermit(\"mAT\", msg.sender, PermitState.administrator);\n    }\n\n    /// @notice Claims the value of an existing dividend corresponding to the shard holder's respective shard fraction.\n    /// @param shard The shard that was valid at the clock of the Dividend creation\n    /// @param dividend The dividend to be claimed.\n    function claimDividend(bytes32 shard, uint256 dividend) external onlyHolder(shard) onlyExistingDividend(dividend) onlyIfActive {\n        require(shardExisted(shard,dividend), \"NAF\");\n        require(hasClaimedDividend[dividend][shard] == false, \"AC\");\n        hasClaimedDividend[dividend][shard] = true;\n        uint256 dividendValue = infoByDividend[dividend].value * infoByShard[shard].amount / totalShardAmountByClock[clock];\n        require(dividendValue != 0, \"DTS\");\n        residualByDividend[dividend] -= dividendValue;\n        _transferToken(infoByDividend[dividend].tokenAddress,dividendValue,msg.sender);\n        emit DividendClaimed(dividend,dividendValue,msg.sender);\n    }\n\n    /// @notice Adds a token address to the registry. Also approves any future receipts of said token unless removed again.\n    /// @param tokenAddress The token address to be registered.\n    function registerTokenAddress(address tokenAddress) external onlyWithPermit(\"mAT\") onlyIfActive {\n        _registerTokenAddress(tokenAddress);\n    }\n\n    /// @notice Removes a token address from the registry. Also cancels any future receipts of said token unless added again.\n    /// @param tokenAddress The token address to be unregistered.\n    function unregisterTokenAddress(address tokenAddress) external onlyWithPermit(\"mAT\") onlyIfActive {\n        _unregisterTokenAddress(tokenAddress);\n    }\n\n    /// @notice Issues new shards and puts them for sale.\n    /// @param tokenAddress The token address the shards are put for sale for.\n    /// @param price The price per token.\n    /// @param to The specifically set buyer of the issued shards. Open to anyone, if address(0).\n    function issueShards(uint256 amount, address tokenAddress, uint256 price, address to) external onlyWithPermit(\"iS\") {\n        _issueShards(amount,tokenAddress,price,to);\n    }\n\n    /// @notice Creates and issues a Dividend (to all current shareholders) of a token amount from a given Bank.\n    /// @param bankName The name of the Bank to issue the Dividend from.\n    /// @param tokenAddress The address of the token to make up the Dividend.\n    /// @param value The value/amount of the token to be issued in the Dividend.\n    function issueDividend(string memory bankName, address tokenAddress, uint256 value) external onlyWithPermit(\"mD\") onlyBankAdmin(bankName) {\n        _issueDividend(bankName,tokenAddress,value);  \n    }\n\n    /// @notice Dissolves a Dividend and moves its last contents to the 'main' Bank.\n    /// @param dividend The Dividend to be dissolved.\n    function dissolveDividend(uint256 dividend) external onlyWithPermit(\"mD\") {\n        _dissolveDividend(dividend);\n    }\n\n    /// @notice Creates a new Bank.\n    /// @param bankName The name of the Bank to be created.\n    /// @param bankAdmin The address of the first Bank administrator.\n    function createBank(string memory bankName, address bankAdmin) external onlyWithPermit(\"mB\") onlyIfActive {\n       _createBank(bankName,bankAdmin);\n    }\n\n    /// @notice Adds a new given administrator to a given Bank.\n    /// @param bankName The name of the Bank to which the new administrator is to be added.\n    /// @param bankAdmin The address of the new Bank administrator to be added.\n    function addBankAdmin(string memory bankName, address bankAdmin) external onlyWithPermit(\"mB\") onlyBankAdmin(bankName) {\n        _addBankAdmin(bankName,bankAdmin);\n    }\n\n    /// @notice Removes a given administrator of a given Bank.\n    /// @param bankName The name of the Bank from which the given administrator is to be removed.\n    /// @param bankAdmin The address of the current Bank administrator to be removed.\n    function removeBankAdmin(string memory bankName, address bankAdmin) external onlyPermitAdmin(\"mB\") onlyBankAdmin(bankName) {\n        _removeBankAdmin(bankName,bankAdmin);\n    }\n\n    /// @notice Deletes a given Bank.\n    /// @param bankName The name of the Bank to be deleted.\n    function deleteBank(string memory bankName) external onlyPermitAdmin(\"mB\") onlyBankAdmin(bankName) {\n        _deleteBank(bankName);\n    }\n\n    /// @notice Transfers a token bankAdmin a Bank to a recipient.\n    /// @param bankName The name of the Bank from which the token is to be transferred.\n    /// @param tokenAddress The address of the token to be transferred.\n    /// @param value The value/amount of the token to be transferred.\n    /// @param to The recipient of the token to be transferred.\n    function transferTokenFromBank(string memory bankName, address tokenAddress, uint256 value, address to) external onlyBankAdmin(bankName) {\n        _transferTokenFromBank(bankName,tokenAddress,value,to);\n    }\n\n    /// @notice Internally moves a token from one Bank to another.\n    /// @param fromBankName The name of the Bank from which the token is to be moved.\n    /// @param toBankName The name of the Bank to which the token is to be moved.\n    /// @param tokenAddress The address of the token to be moved.\n    /// @param value The value/amount of the token to be moved.\n    function moveToken(string memory fromBankName, string memory toBankName, address tokenAddress, uint256 value) external onlyBankAdmin(fromBankName) {\n        _moveToken(fromBankName,toBankName,tokenAddress,value);\n    }\n\n    /// @notice Sets the state of a specified permit of a given address.\n    /// @param account The address, whose permit state is to be set.\n    /// @param permitName The name of the permit, whose state is to be set.\n    /// @param newState The new Permit State to be applied.\n    function setPermit(string memory permitName, address account, PermitState newState) external onlyPermitAdmin(permitName) {\n        require(permits[permitName][account] != newState, \"AHP\");\n        _setPermit(permitName,account,newState);\n\n    }\n\n    /// @notice Liquidizes and dissolves the entity. This cannot be undone.\n    function liquidize() external onlyWithPermit(\"lE\") {\n        _liquidize();\n    }\n\n    /// @notice Returns the balance of a bank.\n    /// @param bankName The name of the Bank.\n    /// @param tokenAddress The address of the token balance to check for.\n    function getBankBalance(string memory bankName, address tokenAddress) public view returns(uint256) {\n        return balanceByBank[bankName][tokenAddress];\n    }\n    \n    /// @notice Returns the token of a dividend.\n    /// @param dividend The Dividend to be checked for.\n    function getDividendToken(uint256 dividend) public view returns(address) {\n        return infoByDividend[dividend].tokenAddress;\n    }\n    \n    /// @notice Returns the total value of a dividend.\n    /// @param dividend The Dividend to be checked for.\n    function getDividendValue(uint256 dividend) public view returns(uint256) {\n        return infoByDividend[dividend].value;\n    }\n\n    /// @notice Returns the residual value of a dividend.\n    /// @param dividend The Dividend to be checked for.\n    function getDividendResidual(uint256 dividend) public view returns(uint256) {\n        return residualByDividend[dividend];\n    }\n\n    /// @notice Returns a boolean stating if a given Bank exists.\n    /// @param bankName The name of the Bank to be checked for.\n    function bankExists(string memory bankName) public view returns(bool) {\n        return validBanks[bankName] == true;\n    }\n\n    /// @notice Returns a boolean stating if a given Bank is empty.\n    /// @param bankName The name of the Bank to be checked for.\n    function bankIsEmpty(string memory bankName) public view returns(bool) {\n        return storedTokenAddressesByBank[bankName] == 0 && balanceByBank[bankName][address(0)] == 0;\n    }\n    \n    /// @notice Returns a boolean stating if a given Dividend exists.\n    /// @param dividend The Dividend to be checked for.\n    function dividendExists(uint256 dividend) public view returns(bool) {\n      return validDividends[dividend];\n    }\n\n    /// @notice Returns a boolean stating if a given address is an admin of a given bank.\n    /// @param account The address to be checked for.\n    /// @param bankName The name of the Bank to be checked for.\n    function isBankAdmin(string memory bankName, address account) public view returns(bool) {\n        return adminOfBank[bankName][account] == true || isPermitAdmin(\"mB\",account);\n    }\n\n    /// @notice Returns a boolean stating if a given address has a given permit or not.\n    /// @param permitName The name of the permit to be checked for.\n    /// @param account The address to be checked for.\n    function hasPermit(string memory permitName, address account) public view returns(bool) {\n        return permits[permitName][account] >= PermitState.authorized;\n    }\n\n    /// @notice Returns a boolean stating if a given address is an admin of a given permit or not.\n    /// @param permitName The name of the permit to be checked for.\n    /// @param account The address to be checked for.\n    function isPermitAdmin(string memory permitName, address account) public view returns(bool) {\n        return permits[permitName][account] == PermitState.administrator;\n    }\n\n    /// @notice Creates and issues a Dividend (to all current shareholders) of a token amount from a given Bank.\n    /// @param bankName The name of the Bank to issue the Dividend from.\n    /// @param tokenAddress The address of the token to make up the Dividend.\n    /// @param value The value/amount of the token to be issued in the Dividend.\n    function _issueDividend(string memory bankName, address tokenAddress, uint256 value) internal onlyIfActive {\n        require(value <= balanceByBank[bankName][tokenAddress], \"IF\");\n        balanceByBank[bankName][tokenAddress] -= value;\n        if (balanceByBank[bankName][tokenAddress] == 0 && tokenAddress != address(0)) {\n            storedTokenAddressesByBank[bankName] -= 1;\n        }\n        infoByDividend[clock] = DividendInfo({\n            tokenAddress:tokenAddress,\n            value:value\n        });\n        residualByDividend[clock] = value;\n        validDividends[clock] = true;\n        emit ActionTaken(\"iD\",abi.encode(clock,bankName,tokenAddress,value),msg.sender);\n    }\n\n    /// @notice Dissolves a Dividend and moves its last contents to the 'main' Bank.\n    /// @param dividend The Dividend to be dissolved.\n    function _dissolveDividend(uint256 dividend) internal onlyExistingDividend(dividend) onlyIfActive {\n        validDividends[dividend] = false; // -1 to distinguish between empty values;\n        balanceByBank[\"main\"][infoByDividend[dividend].tokenAddress] += residualByDividend[dividend];\n        emit ActionTaken(\"dD\",abi.encode(dividend),msg.sender);\n\n    }\n\n    /// @notice Creates a new Bank.\n    /// @param bankName The name of the Bank to be created.\n    /// @param bankAdmin The address of the first Bank administrator.\n    function _createBank(string memory bankName, address bankAdmin) internal onlyIfActive {\n        require(!bankExists(bankName), \"AE\");\n        adminOfBank[bankName][bankAdmin] = true;\n        validBanks[bankName] = true;\n        emit ActionTaken(\"cB\",abi.encode(bankName,bankAdmin),msg.sender);\n\n    }\n\n    /// @notice Adds a new given administrator to a given Bank.\n    /// @param bankName The name of the Bank to which the new administrator is to be added.\n    /// @param bankAdmin The address of the new Bank administrator to be added.\n    function _addBankAdmin(string memory bankName, address bankAdmin) internal onlyIfActive {\n        require(hasPermit(\"mB\",bankAdmin),\"NP\");\n        adminOfBank[bankName][bankAdmin] = true;\n        emit ActionTaken(\"aA\",abi.encode(bankName,bankAdmin),msg.sender);\n\n    }\n\n    /// @notice Removes a given administrator of a given Bank.\n    /// @param bankName The name of the Bank from which the given administrator is to be removed.\n    /// @param bankAdmin The address of the current Bank administrator to be removed.\n    function _removeBankAdmin(string memory bankName, address bankAdmin) internal onlyIfActive {\n        require(isBankAdmin(bankName,bankAdmin));\n        adminOfBank[bankName][bankAdmin] = false;\n        emit ActionTaken(\"rA\",abi.encode(bankName,bankAdmin),msg.sender);\n\n    }\n\n    /// @notice Deletes a given Bank.\n    /// @param bankName The name of the Bank to be deleted.\n    function _deleteBank(string memory bankName) internal onlyIfActive {\n        require(bankExists(bankName), \"UB!\");\n        require(keccak256(bytes(bankName)) != keccak256(bytes(\"main\")), \"MB\");\n        require(bankIsEmpty(bankName), \"BE\");\n        validBanks[bankName] = false;\n        emit ActionTaken(\"dB\",abi.encode(bankName),msg.sender);\n\n    }\n\n    /// @notice Transfers a token from a Bank to a recipient.\n    /// @param bankName The name of the Bank from which the token is to be transferred.\n    /// @param tokenAddress The address of the token to be transferred.\n    /// @param value The value/amount of the token to be transferred.\n    /// @param to The recipient of the token to be transferred.\n    function _transferTokenFromBank(string memory bankName, address tokenAddress, uint256 value, address to) internal onlyIfActive {\n        require(value <= balanceByBank[bankName][tokenAddress], \"IF\");\n        _transferToken(tokenAddress,value,to);\n        balanceByBank[bankName][tokenAddress] -= value;\n        if (balanceByBank[bankName][tokenAddress] == 0 && tokenAddress != address(0)) {\n            storedTokenAddressesByBank[bankName] -= 1;\n        }\n        emit ActionTaken(\"tT\",abi.encode(bankName,tokenAddress,value,to),msg.sender);\n    }\n\n    /// @notice Internally moves a token from one Bank to another.\n    /// @param fromBankName The name of the Bank from which the token is to be moved.\n    /// @param toBankName The name of the Bank to which the token is to be moved.\n    /// @param tokenAddress The address of the token to be moved.\n    /// @param value The value/amount of the token to be moved.\n    function _moveToken(string memory fromBankName, string memory toBankName, address tokenAddress, uint256 value) internal onlyExistingBank(toBankName) onlyIfActive {\n        require(value <= balanceByBank[fromBankName][tokenAddress], \"IF\");\n        balanceByBank[fromBankName][tokenAddress] -= value;\n        if (tokenAddress != address(0)) {\n            if (balanceByBank[fromBankName][tokenAddress] == 0) {\n                storedTokenAddressesByBank[fromBankName] -= 1;\n\n            }\n            if (balanceByBank[toBankName][tokenAddress] == 0) {\n                storedTokenAddressesByBank[toBankName] += 1;\n            }\n        }\n        balanceByBank[toBankName][tokenAddress] += value;\n        emit ActionTaken(\"mT\",abi.encode(fromBankName,toBankName,tokenAddress,value),msg.sender);\n\n    }\n\n    /// @notice Sets the state of a specified permit of a given address.\n    /// @param permitName The name of the permit, whose state is to be set.\n    /// @param account The address, whose permit state is to be set.\n    /// @param newState The new Permit State to be applied.\n    function _setPermit(string memory permitName, address account, PermitState newState) internal onlyIfActive {\n        permits[permitName][account] = newState;\n        emit ActionTaken(\"sP\",abi.encode(permitName,account,newState),msg.sender);\n\n    }\n\n    /// @notice Issues new shards and puts them for sale.\n    /// @param tokenAddress The token address the shards are put for sale for.\n    /// @param price The price per token.\n    /// @param to The specifically set buyer of the issued shards. Open to anyone, if address(0).\n    function _issueShards(uint256 amount, address tokenAddress, uint256 price, address to) override internal {\n        super._issueShards(amount,tokenAddress,price,to);\n        emit ActionTaken(\"iS\",abi.encode(amount,tokenAddress,price,to),msg.sender);\n    }\n\n    /// @notice Removes a token address from the registry. Also cancels any future receipts of said token unless added again.\n    /// @param tokenAddress The token address to be unregistered.\n    function _unregisterTokenAddress(address tokenAddress) override internal {\n        super._unregisterTokenAddress(tokenAddress);\n        emit ActionTaken(\"uT\",abi.encode(tokenAddress),msg.sender);\n    }\n\n    /// @notice Adds a token address to the registry. Also approves any future receipts of said token unless removed again.\n    /// @param tokenAddress The token address to be registered.\n    function _registerTokenAddress(address tokenAddress) override internal {\n        super._registerTokenAddress(tokenAddress);\n        emit ActionTaken(\"rT\",abi.encode(tokenAddress),msg.sender);\n    }\n\n    /// @notice Keeps track of a token receipt by adding it to the registry\n    /// @param tokenAddress The address of the received token.\n    /// @param value The value/amount of the received token.\n    /// @param from The sender of the received token.\n    function _processTokenReceipt(address tokenAddress, uint256 value, address from) override internal {\n        super._processTokenReceipt(tokenAddress, value, from);\n        // Then: Bank logic\n        if (balanceByBank[\"main\"][tokenAddress] == 0 && tokenAddress != address(0)) {\n            storedTokenAddressesByBank[\"main\"] += 1;\n        }\n        balanceByBank[\"main\"][tokenAddress] += value;\n        emit TokenReceived(tokenAddress,value,from);\n    }\n\n    /// @notice Liquidizes and dissolves the entity. This cannot be undone.\n    function _liquidize() override internal {\n        super._liquidize();\n        emit ActionTaken(\"lE\",\"\",msg.sender);\n    }\n\n}",
  "sourcePath": "contracts/administrable.sol",
  "type": "contract"
}