{
  "abi": [
    {
      "inputs": [
        {
          "internalType": "uint256",
          "name": "amount",
          "type": "uint256"
        }
      ],
      "stateMutability": "nonpayable",
      "type": "constructor"
    },
    {
      "anonymous": false,
      "inputs": [
        {
          "indexed": false,
          "internalType": "bytes32",
          "name": "shard",
          "type": "bytes32"
        },
        {
          "indexed": false,
          "internalType": "uint256",
          "name": "expirationClock",
          "type": "uint256"
        }
      ],
      "name": "ExpiredShard",
      "type": "event"
    },
    {
      "anonymous": false,
      "inputs": [
        {
          "indexed": false,
          "internalType": "address",
          "name": "tokenAddress",
          "type": "address"
        },
        {
          "indexed": false,
          "internalType": "uint256",
          "name": "value",
          "type": "uint256"
        },
        {
          "indexed": false,
          "internalType": "address",
          "name": "by",
          "type": "address"
        }
      ],
      "name": "LiquidClaimed",
      "type": "event"
    },
    {
      "anonymous": false,
      "inputs": [
        {
          "indexed": false,
          "internalType": "bytes32",
          "name": "shard",
          "type": "bytes32"
        },
        {
          "indexed": false,
          "internalType": "address",
          "name": "owner",
          "type": "address"
        },
        {
          "indexed": false,
          "internalType": "uint256",
          "name": "creationClock",
          "type": "uint256"
        }
      ],
      "name": "NewShard",
      "type": "event"
    },
    {
      "anonymous": false,
      "inputs": [
        {
          "indexed": false,
          "internalType": "bytes32",
          "name": "shard",
          "type": "bytes32"
        },
        {
          "indexed": false,
          "internalType": "uint256",
          "name": "amount",
          "type": "uint256"
        },
        {
          "indexed": false,
          "internalType": "address",
          "name": "tokenAddress",
          "type": "address"
        },
        {
          "indexed": false,
          "internalType": "uint256",
          "name": "price",
          "type": "uint256"
        },
        {
          "indexed": false,
          "internalType": "address",
          "name": "to",
          "type": "address"
        }
      ],
      "name": "PutForSale",
      "type": "event"
    },
    {
      "anonymous": false,
      "inputs": [
        {
          "indexed": false,
          "internalType": "bytes32",
          "name": "shard",
          "type": "bytes32"
        },
        {
          "indexed": false,
          "internalType": "uint256",
          "name": "amount",
          "type": "uint256"
        },
        {
          "indexed": false,
          "internalType": "address",
          "name": "to",
          "type": "address"
        },
        {
          "indexed": false,
          "internalType": "address",
          "name": "tokenAddress",
          "type": "address"
        },
        {
          "indexed": false,
          "internalType": "uint256",
          "name": "price",
          "type": "uint256"
        }
      ],
      "name": "SaleSold",
      "type": "event"
    },
    {
      "anonymous": false,
      "inputs": [
        {
          "indexed": false,
          "internalType": "address",
          "name": "tokenAddress",
          "type": "address"
        },
        {
          "indexed": false,
          "internalType": "uint256",
          "name": "value",
          "type": "uint256"
        },
        {
          "indexed": false,
          "internalType": "address",
          "name": "from",
          "type": "address"
        }
      ],
      "name": "TokenReceived",
      "type": "event"
    },
    {
      "inputs": [
        {
          "internalType": "address",
          "name": "tokenAddress",
          "type": "address"
        }
      ],
      "name": "acceptsToken",
      "outputs": [
        {
          "internalType": "bool",
          "name": "",
          "type": "bool"
        }
      ],
      "stateMutability": "view",
      "type": "function"
    },
    {
      "inputs": [],
      "name": "active",
      "outputs": [
        {
          "internalType": "bool",
          "name": "",
          "type": "bool"
        }
      ],
      "stateMutability": "view",
      "type": "function"
    },
    {
      "inputs": [
        {
          "internalType": "bytes32",
          "name": "shard",
          "type": "bytes32"
        }
      ],
      "name": "cancelSale",
      "outputs": [],
      "stateMutability": "nonpayable",
      "type": "function"
    },
    {
      "inputs": [
        {
          "internalType": "address",
          "name": "tokenAddress",
          "type": "address"
        }
      ],
      "name": "claimLiquid",
      "outputs": [],
      "stateMutability": "nonpayable",
      "type": "function"
    },
    {
      "inputs": [],
      "name": "getCurrentClock",
      "outputs": [
        {
          "internalType": "uint256",
          "name": "",
          "type": "uint256"
        }
      ],
      "stateMutability": "view",
      "type": "function"
    },
    {
      "inputs": [
        {
          "internalType": "address",
          "name": "tokenAddress",
          "type": "address"
        }
      ],
      "name": "getLiquidResidual",
      "outputs": [
        {
          "internalType": "uint256",
          "name": "",
          "type": "uint256"
        }
      ],
      "stateMutability": "view",
      "type": "function"
    },
    {
      "inputs": [
        {
          "internalType": "bytes32",
          "name": "shard",
          "type": "bytes32"
        }
      ],
      "name": "getShardExpirationClock",
      "outputs": [
        {
          "internalType": "uint256",
          "name": "",
          "type": "uint256"
        }
      ],
      "stateMutability": "view",
      "type": "function"
    },
    {
      "inputs": [
        {
          "internalType": "bytes32",
          "name": "shard",
          "type": "bytes32"
        }
      ],
      "name": "getShardSalePrice",
      "outputs": [
        {
          "internalType": "uint256",
          "name": "",
          "type": "uint256"
        }
      ],
      "stateMutability": "view",
      "type": "function"
    },
    {
      "inputs": [
        {
          "internalType": "bytes32",
          "name": "",
          "type": "bytes32"
        }
      ],
      "name": "infoByShard",
      "outputs": [
        {
          "internalType": "uint256",
          "name": "amount",
          "type": "uint256"
        },
        {
          "internalType": "address",
          "name": "owner",
          "type": "address"
        },
        {
          "internalType": "uint256",
          "name": "creationClock",
          "type": "uint256"
        }
      ],
      "stateMutability": "view",
      "type": "function"
    },
    {
      "inputs": [
        {
          "internalType": "address",
          "name": "account",
          "type": "address"
        }
      ],
      "name": "isShardHolder",
      "outputs": [
        {
          "internalType": "bool",
          "name": "",
          "type": "bool"
        }
      ],
      "stateMutability": "view",
      "type": "function"
    },
    {
      "inputs": [
        {
          "internalType": "bytes32",
          "name": "shard",
          "type": "bytes32"
        }
      ],
      "name": "isValidShard",
      "outputs": [
        {
          "internalType": "bool",
          "name": "",
          "type": "bool"
        }
      ],
      "stateMutability": "view",
      "type": "function"
    },
    {
      "inputs": [
        {
          "internalType": "address",
          "name": "",
          "type": "address"
        }
      ],
      "name": "liquid",
      "outputs": [
        {
          "internalType": "uint256",
          "name": "",
          "type": "uint256"
        }
      ],
      "stateMutability": "view",
      "type": "function"
    },
    {
      "inputs": [
        {
          "internalType": "bytes32",
          "name": "shard",
          "type": "bytes32"
        },
        {
          "internalType": "uint256",
          "name": "amount",
          "type": "uint256"
        }
      ],
      "name": "purchase",
      "outputs": [],
      "stateMutability": "payable",
      "type": "function"
    },
    {
      "inputs": [
        {
          "internalType": "bytes32",
          "name": "shard",
          "type": "bytes32"
        },
        {
          "internalType": "uint256",
          "name": "amount",
          "type": "uint256"
        },
        {
          "internalType": "address",
          "name": "tokenAddress",
          "type": "address"
        },
        {
          "internalType": "uint256",
          "name": "price",
          "type": "uint256"
        },
        {
          "internalType": "address",
          "name": "to",
          "type": "address"
        }
      ],
      "name": "putForSale",
      "outputs": [],
      "stateMutability": "nonpayable",
      "type": "function"
    },
    {
      "inputs": [
        {
          "internalType": "address",
          "name": "tokenAddress",
          "type": "address"
        },
        {
          "internalType": "uint256",
          "name": "value",
          "type": "uint256"
        }
      ],
      "name": "receiveToken",
      "outputs": [],
      "stateMutability": "nonpayable",
      "type": "function"
    },
    {
      "inputs": [
        {
          "internalType": "address",
          "name": "",
          "type": "address"
        }
      ],
      "name": "shardByOwner",
      "outputs": [
        {
          "internalType": "bytes32",
          "name": "",
          "type": "bytes32"
        }
      ],
      "stateMutability": "view",
      "type": "function"
    },
    {
      "inputs": [
        {
          "internalType": "bytes32",
          "name": "shard",
          "type": "bytes32"
        },
        {
          "internalType": "uint256",
          "name": "atClock",
          "type": "uint256"
        }
      ],
      "name": "shardExisted",
      "outputs": [
        {
          "internalType": "bool",
          "name": "",
          "type": "bool"
        }
      ],
      "stateMutability": "view",
      "type": "function"
    },
    {
      "inputs": [
        {
          "internalType": "bytes32",
          "name": "senderShard",
          "type": "bytes32"
        },
        {
          "internalType": "uint256",
          "name": "amount",
          "type": "uint256"
        },
        {
          "internalType": "address",
          "name": "to",
          "type": "address"
        }
      ],
      "name": "split",
      "outputs": [],
      "stateMutability": "nonpayable",
      "type": "function"
    },
    {
      "inputs": [
        {
          "internalType": "uint256",
          "name": "",
          "type": "uint256"
        }
      ],
      "name": "totalShardAmountByClock",
      "outputs": [
        {
          "internalType": "uint256",
          "name": "",
          "type": "uint256"
        }
      ],
      "stateMutability": "view",
      "type": "function"
    },
    {
      "stateMutability": "payable",
      "type": "receive"
    }
  ],
  "bytecode": "6080604052600080553480156200001557600080fd5b5060405162001fac38038062001fac833981016040819052620000389162000197565b8062000047813360006200006a565b60008054815260026020526040902055506001805460ff191681179055620001b1565b60008311620000a45760405162461bcd60e51b815260206004820152600260248201526129ad60f11b604482015260640160405180910390fd5b6040516001600160601b0319606084901b1660208201526034810182905260009060540160408051808303601f1901815282825280516020918201206001600160a01b03878116600081815260048552858120849055838152600785528581206000199055606080880187528b88528588018381528888018b8152868452600388529288902098518955516001890180546001600160a01b0319169190951617909355516002909601959095558351828152928301949094529181018590529092507f90e88e994885f1cdd31d3393f0b012e817804fc9d2adef69d0d7e5053d1e29ad910160405180910390a150505050565b600060208284031215620001aa57600080fd5b5051919050565b611deb80620001c16000396000f3fe6080604052600436106101185760003560e01c80639995b9a9116100a0578063e123182b11610064578063e123182b146103a7578063e1c34c1f146103ba578063efae89f8146103da578063f7aae62114610407578063fd06636b1461042757600080fd5b80639995b9a9146102ad578063a902780f146102dd578063b2cb78ab146102f2578063bcedb2e014610312578063c4802eb21461037a57600080fd5b80633dbeaa54116100e75780633dbeaa54146101da5780635beeff33146102105780637b7854931461023d578063868399a51461026d57806397235a1e1461028d57600080fd5b806302fb0c5e14610130578063066792d21461015f5780630bea89851461019a578063350546d8146101ba57600080fd5b3661012b5761012960003433610447565b005b600080fd5b34801561013c57600080fd5b5060015461014a9060ff1681565b60405190151581526020015b60405180910390f35b34801561016b57600080fd5b5061018c61017a366004611b5b565b60026020526000908152604090205481565b604051908152602001610156565b3480156101a657600080fd5b506101296101b5366004611b5b565b6104f5565b3480156101c657600080fd5b506101296101d5366004611b90565b6105c0565b3480156101e657600080fd5b5061018c6101f5366004611b90565b6001600160a01b03166000908152600a602052604090205490565b34801561021c57600080fd5b5061018c61022b366004611b90565b60096020526000908152604090205481565b34801561024957600080fd5b5061018c610258366004611b5b565b60009081526006602052604090206002015490565b34801561027957600080fd5b5061014a610288366004611b90565b6107af565b34801561029957600080fd5b506101296102a8366004611bab565b6107e8565b3480156102b957600080fd5b5061014a6102c8366004611b5b565b60008054918152600760205260409020541190565b3480156102e957600080fd5b5060005461018c565b3480156102fe57600080fd5b5061012961030d366004611bd5565b6107f6565b34801561031e57600080fd5b5061035761032d366004611b5b565b60036020526000908152604090208054600182015460029092015490916001600160a01b03169083565b604080519384526001600160a01b03909216602084015290820152606001610156565b34801561038657600080fd5b5061018c610395366004611b90565b60046020526000908152604090205481565b6101296103b5366004611c0a565b610879565b3480156103c657600080fd5b5061014a6103d5366004611b90565b610e6c565b3480156103e657600080fd5b5061018c6103f5366004611b5b565b60009081526007602052604090205490565b34801561041357600080fd5b50610129610422366004611c2c565b610e9e565b34801561043357600080fd5b5061014a610442366004611c0a565b610f1c565b6001600160a01b0383166000908152600960205260408120805484929061046f908490611c92565b90915550506001600160a01b0383166000908152600a60205260408120805484929061049c908490611c92565b9091555050604080516001600160a01b038086168252602082018590528316918101919091527fde49bbe8e448cdfa40e6fa0d22592be9a03b28ba746527635dbe5235416659cf906060015b60405180910390a1505050565b60008181526003602052604090206001015481906001600160a01b031633146105395760405162461bcd60e51b815260040161053090611ca5565b60405180910390fd5b816105538160008054918152600760205260409020541190565b61056f5760405162461bcd60e51b815260040161053090611cc1565b60008381526005602052604090205460ff166105b25760405162461bcd60e51b81526020600482015260026024820152614e5360f01b6044820152606401610530565b6105bb83610f51565b505050565b6105c933610e6c565b6105fa5760405162461bcd60e51b81526020600482015260026024820152610aa960f31b6044820152606401610530565b610603816107af565b6106345760405162461bcd60e51b8152602060048201526002602482015261155560f21b6044820152606401610530565b336000908152600460209081526040808320546001600160a01b0385168452600b83528184208185529092529091205460ff16156106995760405162461bcd60e51b8152602060048201526002602482015261414360f01b6044820152606401610530565b6001600160a01b0382166000818152600b602090815260408083208584528252808320805460ff1916600117905582548352600282528083205485845260038352818420549484526009909252822054919290916106f79190611cdd565b6107019190611cf4565b90508060000361072d5760405162461bcd60e51b81526020600482015260006024820152604401610530565b6001600160a01b0383166000908152600a602052604081208054839290610755908490611d16565b909155506107669050838233610fa0565b604080516001600160a01b03851681526020810183905233918101919091527f1397d005a56670cbe383372bd4743eaa779af18164d00dc6d12a6659418e1bbf906060016104e8565b6001600160a01b03811660009081526008602052604081205460ff161515600114806107e257506001600160a01b038216155b92915050565b6107f28282611245565b5050565b60008381526003602052604090206001015483906001600160a01b031633146108315760405162461bcd60e51b815260040161053090611ca5565b8361084b8160008054918152600760205260409020541190565b6108675760405162461bcd60e51b815260040161053090611cc1565b6108728585856113ad565b5050505050565b816108938160008054918152600760205260409020541190565b6108af5760405162461bcd60e51b815260040161053090611cc1565b60008381526005602052604090205460ff166108f25760405162461bcd60e51b81526020600482015260026024820152614e5360f01b6044820152606401610530565b60008381526006602052604081205490036109345760405162461bcd60e51b8152602060048201526002602482015261455360f01b6044820152606401610530565b6000838152600660205260409020548211156109775760405162461bcd60e51b8152602060048201526002602482015261455360f01b6044820152606401610530565b6000838152600660205260409020600301546001600160a01b03163314806109b757506000838152600660205260409020600301546001600160a01b0316155b6109e85760405162461bcd60e51b815260206004820152600260248201526129a960f11b6044820152606401610530565b6109f183610f51565b600083815260066020526040812060020154610a0d9084611cdd565b90506000806000610a228460196103e86115e5565b91945092509050610a338183611c92565b6000888152600660205260409020600101549092506001600160a01b0316610b925783341015610a8a5760405162461bcd60e51b8152602060048201526002602482015261494560f01b6044820152606401610530565b6040516000907349a71890aea5a751e30e740c504f2e9683f347bc9085908381818185875af1925050503d8060008114610ae0576040519150601f19603f3d011682016040523d82523d6000602084013e610ae5565b606091505b505060008981526003602052604080822060010154905192935090916001600160a01b039091169085908381818185875af1925050503d8060008114610b47576040519150601f19603f3d011682016040523d82523d6000602084013e610b4c565b606091505b50509050808015610b5a5750815b610b8b5760405162461bcd60e51b81526020600482015260026024820152612a2360f11b6044820152606401610530565b5050610d18565b60008781526006602052604090819020600101549051636eb1769f60e11b81523360048201523060248201526001600160a01b03909116908590829063dd62ed3e90604401602060405180830381865afa158015610bf4573d6000803e3d6000fd5b505050506040513d601f19601f82011682018060405250810190610c189190611d29565b1015610c365760405162461bcd60e51b815260040161053090611d42565b6040516323b872dd60e01b81523360048201527349a71890aea5a751e30e740c504f2e9683f347bc6024820152604481018590526001600160a01b038216906323b872dd906064016020604051808303816000875af1158015610c9d573d6000803e3d6000fd5b505050506040513d601f19601f82011682018060405250810190610cc19190611d5e565b610cdd5760405162461bcd60e51b815260040161053090611d80565b60008881526003602090815260408083206001908101546006909352922090910154610d16916001600160a01b03908116911685611659565b505b610d238787336113ad565b600087815260036020526040902060010154306001600160a01b0390911603610d6b576000805481526002602052604081208054889290610d65908490611c92565b90915550505b600087815260066020908152604091829020600181015460029091015483518b81529283018a905233838501526001600160a01b039091166060830152608082015290517f443732a78c29282934211eae7aa500dd12db85d4dd795dbcda5f94ee19a67e4f9181900360a00190a16000878152600660205260409020548614610e63576000878152600360209081526040808320600101546001600160a01b0316835260048252808320548a8452600690925290912054610e639190610e32908990611d16565b60008a8152600660205260409020600181015460028201546003909201546001600160a01b0391821692911661170e565b50505050505050565b6001600160a01b0381166000908152600460205260408120546107e29060008054918152600760205260409020541190565b60008581526003602052604090206001015485906001600160a01b03163314610ed95760405162461bcd60e51b815260040161053090611ca5565b85610ef38160008054918152600760205260409020541190565b610f0f5760405162461bcd60e51b815260040161053090611cc1565b610e63878787878761170e565b6000828152600360205260408120600201548210801590610f4a575060008381526007602052604090205482105b9392505050565b80610f6b8160008054918152600760205260409020541190565b610f875760405162461bcd60e51b815260040161053090611cc1565b506000908152600560205260409020805460ff19169055565b6001600160a01b038316600090815260096020526040902054821115610fd85760405162461bcd60e51b815260040161053090611d42565b6001600160a01b038316610ff557610ff082826118d6565b611230565b60405163095ea7b360e01b81526001600160a01b0382811660048301526024820184905284919082169063095ea7b3906044016020604051808303816000875af1158015611047573d6000803e3d6000fd5b505050506040513d601f19601f8201168201806040525081019061106b9190611d5e565b61109c5760405162461bcd60e51b81526020600482015260026024820152614e4160f01b6044820152606401610530565b6001600160a01b0382163b1561119f57604051634b91ad0f60e11b81526001600160a01b038581166004830152602482018590528316906397235a1e90604401600060405180830381600087803b1580156110f657600080fd5b505af1925050508015611107575060015b61119a5760405163a9059cbb60e01b81526001600160a01b0383811660048301526024820185905282169063a9059cbb906044016020604051808303816000875af115801561115a573d6000803e3d6000fd5b505050506040513d601f19601f8201168201806040525081019061117e9190611d5e565b61119a5760405162461bcd60e51b815260040161053090611d80565b61122e565b60405163a9059cbb60e01b81526001600160a01b0383811660048301526024820185905282169063a9059cbb906044016020604051808303816000875af11580156111ee573d6000803e3d6000fd5b505050506040513d601f19601f820116820180604052508101906112129190611d5e565b61122e5760405162461bcd60e51b815260040161053090611d80565b505b60015460ff16156105bb576105bb838361195e565b61124e826107af565b61127f5760405162461bcd60e51b8152602060048201526002602482015261155560f21b6044820152606401610530565b604051636eb1769f60e11b8152336004820152306024820152829082906001600160a01b0383169063dd62ed3e90604401602060405180830381865afa1580156112cd573d6000803e3d6000fd5b505050506040513d601f19601f820116820180604052508101906112f19190611d29565b101561130f5760405162461bcd60e51b815260040161053090611d42565b6040516323b872dd60e01b8152336004820152306024820152604481018390526001600160a01b038216906323b872dd906064016020604051808303816000875af1158015611362573d6000803e3d6000fd5b505050506040513d601f19601f820116820180604052508101906113869190611d5e565b6113a25760405162461bcd60e51b815260040161053090611d80565b6105bb838333610447565b826113c78160008054918152600760205260409020541190565b6113e35760405162461bcd60e51b815260040161053090611cc1565b6001805460ff1615151461141e5760405162461bcd60e51b8152602060048201526002602482015261115360f21b6044820152606401610530565b60008481526003602052604090205483106114605760405162461bcd60e51b8152602060048201526002602482015261494160f01b6044820152606401610530565b61146982610e6c565b156114d8576001600160a01b0382166000908152600460209081526040808320548352600390915281205461149e9085611c92565b90506114ad81846000546119bc565b6001600160a01b03831660009081526004602052604081205490546114d29190611ae9565b506114e5565b6114e583836000546119bc565b6114f184600054611ae9565b60008481526003602052604081205461150b908590611d16565b9050801561153e57600085815260036020526040812060010154905461153e9183916001600160a01b03909116906119bc565b60408051868152602081018690526001600160a01b03851681830152600060608201819052608082015290517f443732a78c29282934211eae7aa500dd12db85d4dd795dbcda5f94ee19a67e4f9181900360a00190a150600080548082526002602081905260408320549290916115b6906001611c92565b8152602001908152602001600020819055506000808154809291906115da90611d9c565b919050555050505050565b60008060008484116115f657600080fd5b6000846116038789611cdd565b61160d9190611cf4565b905060008561161c8882611d16565b611626908a611cdd565b6116309190611cf4565b9050818161163e8183611c92565b611648908b611d16565b945094509450505093509350939050565b306001600160a01b03841603611673576105bb8282611245565b6040516323b872dd60e01b81523360048201523060248201526044810182905282906001600160a01b038216906323b872dd906064016020604051808303816000875af11580156116c8573d6000803e3d6000fd5b505050506040513d601f19601f820116820180604052508101906116ec9190611d5e565b6117085760405162461bcd60e51b815260040161053090611d80565b50505050565b846117288160008054918152600760205260409020541190565b6117445760405162461bcd60e51b815260040161053090611cc1565b6001805460ff1615151461177f5760405162461bcd60e51b8152602060048201526002602482015261115360f21b6044820152606401610530565b60008681526005602052604090205460ff161561179b57600080fd5b6000868152600360205260409020548511156117de5760405162461bcd60e51b8152602060048201526002602482015261494160f01b6044820152606401610530565b604080516080810182528681526001600160a01b0380871660208084019182528385018881528784166060860190815260008d815260068452878120965187559351600180880180549288166001600160a01b031993841617905592516002880155905160039096018054969095169516949094179092556005909152829020805460ff19169091179055517f4126de2c73b6b69d46d3290ee98241c5c18ce39a61b29e4e91f877a6d56bb213906118c6908890889088908890889094855260208501939093526001600160a01b039182166040850152606084015216608082015260a00190565b60405180910390a1505050505050565b6000816001600160a01b03168360405160006040518083038185875af1925050503d8060008114611923576040519150601f19603f3d011682016040523d82523d6000602084013e611928565b606091505b50509050806105bb5760405162461bcd60e51b81526020600482015260026024820152612a2360f11b6044820152606401610530565b6001600160a01b03821660009081526009602052604081208054839290611986908490611d16565b90915550506001600160a01b0382166000908152600a6020526040812080548392906119b3908490611d16565b90915550505050565b600083116119f15760405162461bcd60e51b815260206004820152600260248201526129ad60f11b6044820152606401610530565b6040516bffffffffffffffffffffffff19606084901b1660208201526034810182905260009060540160408051808303601f1901815282825280516020918201206001600160a01b03878116600081815260048552858120849055838152600785528581206000199055606080880187528b88528588018381528888018b8152868452600388529288902098518955516001890180546001600160a01b0319169190951617909355516002909601959095558351828152928301949094529181018590529092507f90e88e994885f1cdd31d3393f0b012e817804fc9d2adef69d0d7e5053d1e29ad910160405180910390a150505050565b6000828152600360209081526040808320600101546001600160a01b0316835260048252808320839055848352600782529182902083905581518481529081018390527fa3deafde27c3ffde83f038b337d8b0405d225455ae09fbed6a211ef4ee465f4f910160405180910390a15050565b600060208284031215611b6d57600080fd5b5035919050565b80356001600160a01b0381168114611b8b57600080fd5b919050565b600060208284031215611ba257600080fd5b610f4a82611b74565b60008060408385031215611bbe57600080fd5b611bc783611b74565b946020939093013593505050565b600080600060608486031215611bea57600080fd5b8335925060208401359150611c0160408501611b74565b90509250925092565b60008060408385031215611c1d57600080fd5b50508035926020909101359150565b600080600080600060a08688031215611c4457600080fd5b8535945060208601359350611c5b60408701611b74565b925060608601359150611c7060808701611b74565b90509295509295909350565b634e487b7160e01b600052601160045260246000fd5b808201808211156107e2576107e2611c7c565b60208082526002908201526109e960f31b604082015260600190565b602080825260029082015261555360f01b604082015260600190565b80820281158282048414176107e2576107e2611c7c565b600082611d1157634e487b7160e01b600052601260045260246000fd5b500490565b818103818111156107e2576107e2611c7c565b600060208284031215611d3b57600080fd5b5051919050565b602080825260029082015261125560f21b604082015260600190565b600060208284031215611d7057600080fd5b81518015158114610f4a57600080fd5b602080825260029082015261139560f21b604082015260600190565b600060018201611dae57611dae611c7c565b506001019056fea26469706673582212204932ddfee7a44202e6bd932f59b52dd1f5f6940a26656643dccfde4f401e807664736f6c63430008130033",
  "bytecodeSha1": "c89c36403c69bd93ce25faaaf827559414883e45",
  "compiler": {
    "evm_version": "istanbul",
    "optimizer": {
      "enabled": true,
      "runs": 200
    },
    "version": "0.8.19+commit.7dd6d404"
  },
  "contractName": "Idea",
  "language": "Solidity",
  "natspec": {
    "author": "Frederik W. L. Christoffersen",
    "custom:beaware": "This is a commercial contract.",
    "custom:illustration": "Idea => Idea.Administration => Idea",
    "kind": "dev",
    "methods": {
      "acceptsToken(address)": {
        "notice": "Returns a boolean value, stating if the given token address is registered as acceptable or not.",
        "params": {
          "tokenAddress": "The address of the token to be checked for."
        }
      },
      "active()": {
        "notice": "Boolean stating if the Shardable is active and tradeable or not."
      },
      "cancelSale(bytes32)": {
        "notice": "Cancels a sell of a given shard.",
        "params": {
          "shard": "The shard to be put off sale."
        }
      },
      "claimLiquid(address)": {
        "notice": "Claims the owed liquid value corresponding to the shard holder's respective shard fraction after the entity has been liquidized/dissolved.",
        "params": {
          "tokenAddress": "The address of the token to be claimed."
        }
      },
      "constructor": {
        "notice": "Constructor function that pushes the first Shard being the property of the Shardable creator.",
        "params": {
          "amount": "Amount of shards to construct Shardable with."
        }
      },
      "getCurrentClock()": {
        "notice": "Returns the clock."
      },
      "getLiquidResidual(address)": {
        "notice": "Returns the residual of a liquid, after liquidization/inactivation.",
        "params": {
          "tokenAddress": "The address of the token to be checked for."
        }
      },
      "getShardExpirationClock(bytes32)": {
        "notice": "Returns the clock, in which a shard will or has expired."
      },
      "getShardSalePrice(bytes32)": {
        "notice": "Returns the price, at which a shard is for sale."
      },
      "infoByShard(bytes32)": {
        "notice": "Mapping pointing to related info of a Shard given the bytes of a unique Shard instance."
      },
      "isShardHolder(address)": {
        "notice": "Checks if address is a shard holder - at least a partial owner of the contract.",
        "params": {
          "account": "The address to be checked for."
        }
      },
      "isValidShard(bytes32)": {
        "notice": "Returns a boolean stating if a given shard is currently valid or not.",
        "params": {
          "shard": "The shard, whose validity is to be checked for."
        }
      },
      "liquid(address)": {
        "notice": "Mapping pointing to a value/amount given the address of an ERC20 token."
      },
      "purchase(bytes32,uint256)": {
        "details": "If the purchase is with tokens (ie. tokenAddress != 0x0), first call 'token.approve(Shardable.address, salePrice);'",
        "notice": "Purchases a listed Shard for sale.",
        "params": {
          "shard": "The shard of which a fraction will be purchased."
        }
      },
      "putForSale(bytes32,uint256,address,uint256,address)": {
        "notice": "Puts a given shard for sale.",
        "params": {
          "amount": "Amount of the Shard to be put for sale.",
          "price": "The amount which the Shard is for sale as. The token address being the valuta.",
          "shard": "The shard to be put for sale.",
          "to": "The specifically set buyer of the sale. Open to anyone, if address(0).",
          "tokenAddress": "The address of the token that is accepted when purchasing. A value of 0x0 represents ether."
        }
      },
      "receiveToken(address,uint256)": {
        "notice": "Receives a specified token and adds it to the registry. Make sure 'token.approve()' is called beforehand.",
        "params": {
          "tokenAddress": "The address of the token to be received.",
          "value": "The value/amount of the token to be received."
        }
      },
      "shardByOwner(address)": {
        "notice": "Mapping pointing to a currently valid shard given the address of its owner."
      },
      "shardExisted(bytes32,uint256)": {
        "notice": "Returns a boolean stating if the given shard was valid at a given clock.",
        "params": {
          "atClock": "The clock to be checked for.",
          "shard": "The shard, whose validity is to be checked for."
        }
      },
      "split(bytes32,uint256,address)": {
        "notice": "Splits a currently valid shard into two new ones. One is assigned to the receiver. The rest to the previous owner.",
        "params": {
          "amount": "Amount, which will be subtracted from the previous shard and sent to the receiver.",
          "senderShard": "The shard to be split.",
          "to": "The receiver of the new Shard."
        }
      },
      "totalShardAmountByClock(uint256)": {
        "notice": "Mapping pointing to integer value representing the total number of shards issued, provided the clock. Used as the denominator to represent a relative shard fraction."
      }
    },
    "notice": "This contract is used as an administrable business entity. ",
    "title": "A proof of fractional ownership of an entity with valuables.",
    "version": 1
  },
  "opcodes": "PUSH1 0x80 PUSH1 0x40 MSTORE PUSH1 0x4 CALLDATASIZE LT PUSH2 0x118 JUMPI PUSH1 0x0 CALLDATALOAD PUSH1 0xE0 SHR DUP1 PUSH4 0x9995B9A9 GT PUSH2 0xA0 JUMPI DUP1 PUSH4 0xE123182B GT PUSH2 0x64 JUMPI DUP1 PUSH4 0xE123182B EQ PUSH2 0x3A7 JUMPI DUP1 PUSH4 0xE1C34C1F EQ PUSH2 0x3BA JUMPI DUP1 PUSH4 0xEFAE89F8 EQ PUSH2 0x3DA JUMPI DUP1 PUSH4 0xF7AAE621 EQ PUSH2 0x407 JUMPI DUP1 PUSH4 0xFD06636B EQ PUSH2 0x427 JUMPI PUSH1 0x0 DUP1 REVERT JUMPDEST DUP1 PUSH4 0x9995B9A9 EQ PUSH2 0x2AD JUMPI DUP1 PUSH4 0xA902780F EQ PUSH2 0x2DD JUMPI DUP1 PUSH4 0xB2CB78AB EQ PUSH2 0x2F2 JUMPI DUP1 PUSH4 0xBCEDB2E0 EQ PUSH2 0x312 JUMPI DUP1 PUSH4 0xC4802EB2 EQ PUSH2 0x37A JUMPI PUSH1 0x0 DUP1 REVERT JUMPDEST DUP1 PUSH4 0x3DBEAA54 GT PUSH2 0xE7 JUMPI DUP1 PUSH4 0x3DBEAA54 EQ PUSH2 0x1DA JUMPI DUP1 PUSH4 0x5BEEFF33 EQ PUSH2 0x210 JUMPI DUP1 PUSH4 0x7B785493 EQ PUSH2 0x23D JUMPI DUP1 PUSH4 0x868399A5 EQ PUSH2 0x26D JUMPI DUP1 PUSH4 0x97235A1E EQ PUSH2 0x28D JUMPI PUSH1 0x0 DUP1 REVERT JUMPDEST DUP1 PUSH4 0x2FB0C5E EQ PUSH2 0x130 JUMPI DUP1 PUSH4 0x66792D2 EQ PUSH2 0x15F JUMPI DUP1 PUSH4 0xBEA8985 EQ PUSH2 0x19A JUMPI DUP1 PUSH4 0x350546D8 EQ PUSH2 0x1BA JUMPI PUSH1 0x0 DUP1 REVERT JUMPDEST CALLDATASIZE PUSH2 0x12B JUMPI PUSH2 0x129 PUSH1 0x0 CALLVALUE CALLER PUSH2 0x447 JUMP JUMPDEST STOP JUMPDEST PUSH1 0x0 DUP1 REVERT JUMPDEST CALLVALUE DUP1 ISZERO PUSH2 0x13C JUMPI PUSH1 0x0 DUP1 REVERT JUMPDEST POP PUSH1 0x1 SLOAD PUSH2 0x14A SWAP1 PUSH1 0xFF AND DUP2 JUMP JUMPDEST PUSH1 0x40 MLOAD SWAP1 ISZERO ISZERO DUP2 MSTORE PUSH1 0x20 ADD JUMPDEST PUSH1 0x40 MLOAD DUP1 SWAP2 SUB SWAP1 RETURN JUMPDEST CALLVALUE DUP1 ISZERO PUSH2 0x16B JUMPI PUSH1 0x0 DUP1 REVERT JUMPDEST POP PUSH2 0x18C PUSH2 0x17A CALLDATASIZE PUSH1 0x4 PUSH2 0x1B5B JUMP JUMPDEST PUSH1 0x2 PUSH1 0x20 MSTORE PUSH1 0x0 SWAP1 DUP2 MSTORE PUSH1 0x40 SWAP1 KECCAK256 SLOAD DUP2 JUMP JUMPDEST PUSH1 0x40 MLOAD SWAP1 DUP2 MSTORE PUSH1 0x20 ADD PUSH2 0x156 JUMP JUMPDEST CALLVALUE DUP1 ISZERO PUSH2 0x1A6 JUMPI PUSH1 0x0 DUP1 REVERT JUMPDEST POP PUSH2 0x129 PUSH2 0x1B5 CALLDATASIZE PUSH1 0x4 PUSH2 0x1B5B JUMP JUMPDEST PUSH2 0x4F5 JUMP JUMPDEST CALLVALUE DUP1 ISZERO PUSH2 0x1C6 JUMPI PUSH1 0x0 DUP1 REVERT JUMPDEST POP PUSH2 0x129 PUSH2 0x1D5 CALLDATASIZE PUSH1 0x4 PUSH2 0x1B90 JUMP JUMPDEST PUSH2 0x5C0 JUMP JUMPDEST CALLVALUE DUP1 ISZERO PUSH2 0x1E6 JUMPI PUSH1 0x0 DUP1 REVERT JUMPDEST POP PUSH2 0x18C PUSH2 0x1F5 CALLDATASIZE PUSH1 0x4 PUSH2 0x1B90 JUMP JUMPDEST PUSH1 0x1 PUSH1 0x1 PUSH1 0xA0 SHL SUB AND PUSH1 0x0 SWAP1 DUP2 MSTORE PUSH1 0xA PUSH1 0x20 MSTORE PUSH1 0x40 SWAP1 KECCAK256 SLOAD SWAP1 JUMP JUMPDEST CALLVALUE DUP1 ISZERO PUSH2 0x21C JUMPI PUSH1 0x0 DUP1 REVERT JUMPDEST POP PUSH2 0x18C PUSH2 0x22B CALLDATASIZE PUSH1 0x4 PUSH2 0x1B90 JUMP JUMPDEST PUSH1 0x9 PUSH1 0x20 MSTORE PUSH1 0x0 SWAP1 DUP2 MSTORE PUSH1 0x40 SWAP1 KECCAK256 SLOAD DUP2 JUMP JUMPDEST CALLVALUE DUP1 ISZERO PUSH2 0x249 JUMPI PUSH1 0x0 DUP1 REVERT JUMPDEST POP PUSH2 0x18C PUSH2 0x258 CALLDATASIZE PUSH1 0x4 PUSH2 0x1B5B JUMP JUMPDEST PUSH1 0x0 SWAP1 DUP2 MSTORE PUSH1 0x6 PUSH1 0x20 MSTORE PUSH1 0x40 SWAP1 KECCAK256 PUSH1 0x2 ADD SLOAD SWAP1 JUMP JUMPDEST CALLVALUE DUP1 ISZERO PUSH2 0x279 JUMPI PUSH1 0x0 DUP1 REVERT JUMPDEST POP PUSH2 0x14A PUSH2 0x288 CALLDATASIZE PUSH1 0x4 PUSH2 0x1B90 JUMP JUMPDEST PUSH2 0x7AF JUMP JUMPDEST CALLVALUE DUP1 ISZERO PUSH2 0x299 JUMPI PUSH1 0x0 DUP1 REVERT JUMPDEST POP PUSH2 0x129 PUSH2 0x2A8 CALLDATASIZE PUSH1 0x4 PUSH2 0x1BAB JUMP JUMPDEST PUSH2 0x7E8 JUMP JUMPDEST CALLVALUE DUP1 ISZERO PUSH2 0x2B9 JUMPI PUSH1 0x0 DUP1 REVERT JUMPDEST POP PUSH2 0x14A PUSH2 0x2C8 CALLDATASIZE PUSH1 0x4 PUSH2 0x1B5B JUMP JUMPDEST PUSH1 0x0 DUP1 SLOAD SWAP2 DUP2 MSTORE PUSH1 0x7 PUSH1 0x20 MSTORE PUSH1 0x40 SWAP1 KECCAK256 SLOAD GT SWAP1 JUMP JUMPDEST CALLVALUE DUP1 ISZERO PUSH2 0x2E9 JUMPI PUSH1 0x0 DUP1 REVERT JUMPDEST POP PUSH1 0x0 SLOAD PUSH2 0x18C JUMP JUMPDEST CALLVALUE DUP1 ISZERO PUSH2 0x2FE JUMPI PUSH1 0x0 DUP1 REVERT JUMPDEST POP PUSH2 0x129 PUSH2 0x30D CALLDATASIZE PUSH1 0x4 PUSH2 0x1BD5 JUMP JUMPDEST PUSH2 0x7F6 JUMP JUMPDEST CALLVALUE DUP1 ISZERO PUSH2 0x31E JUMPI PUSH1 0x0 DUP1 REVERT JUMPDEST POP PUSH2 0x357 PUSH2 0x32D CALLDATASIZE PUSH1 0x4 PUSH2 0x1B5B JUMP JUMPDEST PUSH1 0x3 PUSH1 0x20 MSTORE PUSH1 0x0 SWAP1 DUP2 MSTORE PUSH1 0x40 SWAP1 KECCAK256 DUP1 SLOAD PUSH1 0x1 DUP3 ADD SLOAD PUSH1 0x2 SWAP1 SWAP3 ADD SLOAD SWAP1 SWAP2 PUSH1 0x1 PUSH1 0x1 PUSH1 0xA0 SHL SUB AND SWAP1 DUP4 JUMP JUMPDEST PUSH1 0x40 DUP1 MLOAD SWAP4 DUP5 MSTORE PUSH1 0x1 PUSH1 0x1 PUSH1 0xA0 SHL SUB SWAP1 SWAP3 AND PUSH1 0x20 DUP5 ADD MSTORE SWAP1 DUP3 ADD MSTORE PUSH1 0x60 ADD PUSH2 0x156 JUMP JUMPDEST CALLVALUE DUP1 ISZERO PUSH2 0x386 JUMPI PUSH1 0x0 DUP1 REVERT JUMPDEST POP PUSH2 0x18C PUSH2 0x395 CALLDATASIZE PUSH1 0x4 PUSH2 0x1B90 JUMP JUMPDEST PUSH1 0x4 PUSH1 0x20 MSTORE PUSH1 0x0 SWAP1 DUP2 MSTORE PUSH1 0x40 SWAP1 KECCAK256 SLOAD DUP2 JUMP JUMPDEST PUSH2 0x129 PUSH2 0x3B5 CALLDATASIZE PUSH1 0x4 PUSH2 0x1C0A JUMP JUMPDEST PUSH2 0x879 JUMP JUMPDEST CALLVALUE DUP1 ISZERO PUSH2 0x3C6 JUMPI PUSH1 0x0 DUP1 REVERT JUMPDEST POP PUSH2 0x14A PUSH2 0x3D5 CALLDATASIZE PUSH1 0x4 PUSH2 0x1B90 JUMP JUMPDEST PUSH2 0xE6C JUMP JUMPDEST CALLVALUE DUP1 ISZERO PUSH2 0x3E6 JUMPI PUSH1 0x0 DUP1 REVERT JUMPDEST POP PUSH2 0x18C PUSH2 0x3F5 CALLDATASIZE PUSH1 0x4 PUSH2 0x1B5B JUMP JUMPDEST PUSH1 0x0 SWAP1 DUP2 MSTORE PUSH1 0x7 PUSH1 0x20 MSTORE PUSH1 0x40 SWAP1 KECCAK256 SLOAD SWAP1 JUMP JUMPDEST CALLVALUE DUP1 ISZERO PUSH2 0x413 JUMPI PUSH1 0x0 DUP1 REVERT JUMPDEST POP PUSH2 0x129 PUSH2 0x422 CALLDATASIZE PUSH1 0x4 PUSH2 0x1C2C JUMP JUMPDEST PUSH2 0xE9E JUMP JUMPDEST CALLVALUE DUP1 ISZERO PUSH2 0x433 JUMPI PUSH1 0x0 DUP1 REVERT JUMPDEST POP PUSH2 0x14A PUSH2 0x442 CALLDATASIZE PUSH1 0x4 PUSH2 0x1C0A JUMP JUMPDEST PUSH2 0xF1C JUMP JUMPDEST PUSH1 0x1 PUSH1 0x1 PUSH1 0xA0 SHL SUB DUP4 AND PUSH1 0x0 SWAP1 DUP2 MSTORE PUSH1 0x9 PUSH1 0x20 MSTORE PUSH1 0x40 DUP2 KECCAK256 DUP1 SLOAD DUP5 SWAP3 SWAP1 PUSH2 0x46F SWAP1 DUP5 SWAP1 PUSH2 0x1C92 JUMP JUMPDEST SWAP1 SWAP2 SSTORE POP POP PUSH1 0x1 PUSH1 0x1 PUSH1 0xA0 SHL SUB DUP4 AND PUSH1 0x0 SWAP1 DUP2 MSTORE PUSH1 0xA PUSH1 0x20 MSTORE PUSH1 0x40 DUP2 KECCAK256 DUP1 SLOAD DUP5 SWAP3 SWAP1 PUSH2 0x49C SWAP1 DUP5 SWAP1 PUSH2 0x1C92 JUMP JUMPDEST SWAP1 SWAP2 SSTORE POP POP PUSH1 0x40 DUP1 MLOAD PUSH1 0x1 PUSH1 0x1 PUSH1 0xA0 SHL SUB DUP1 DUP7 AND DUP3 MSTORE PUSH1 0x20 DUP3 ADD DUP6 SWAP1 MSTORE DUP4 AND SWAP2 DUP2 ADD SWAP2 SWAP1 SWAP2 MSTORE PUSH32 0xDE49BBE8E448CDFA40E6FA0D22592BE9A03B28BA746527635DBE5235416659CF SWAP1 PUSH1 0x60 ADD JUMPDEST PUSH1 0x40 MLOAD DUP1 SWAP2 SUB SWAP1 LOG1 POP POP POP JUMP JUMPDEST PUSH1 0x0 DUP2 DUP2 MSTORE PUSH1 0x3 PUSH1 0x20 MSTORE PUSH1 0x40 SWAP1 KECCAK256 PUSH1 0x1 ADD SLOAD DUP2 SWAP1 PUSH1 0x1 PUSH1 0x1 PUSH1 0xA0 SHL SUB AND CALLER EQ PUSH2 0x539 JUMPI PUSH1 0x40 MLOAD PUSH3 0x461BCD PUSH1 0xE5 SHL DUP2 MSTORE PUSH1 0x4 ADD PUSH2 0x530 SWAP1 PUSH2 0x1CA5 JUMP JUMPDEST PUSH1 0x40 MLOAD DUP1 SWAP2 SUB SWAP1 REVERT JUMPDEST DUP2 PUSH2 0x553 DUP2 PUSH1 0x0 DUP1 SLOAD SWAP2 DUP2 MSTORE PUSH1 0x7 PUSH1 0x20 MSTORE PUSH1 0x40 SWAP1 KECCAK256 SLOAD GT SWAP1 JUMP JUMPDEST PUSH2 0x56F JUMPI PUSH1 0x40 MLOAD PUSH3 0x461BCD PUSH1 0xE5 SHL DUP2 MSTORE PUSH1 0x4 ADD PUSH2 0x530 SWAP1 PUSH2 0x1CC1 JUMP JUMPDEST PUSH1 0x0 DUP4 DUP2 MSTORE PUSH1 0x5 PUSH1 0x20 MSTORE PUSH1 0x40 SWAP1 KECCAK256 SLOAD PUSH1 0xFF AND PUSH2 0x5B2 JUMPI PUSH1 0x40 MLOAD PUSH3 0x461BCD PUSH1 0xE5 SHL DUP2 MSTORE PUSH1 0x20 PUSH1 0x4 DUP3 ADD MSTORE PUSH1 0x2 PUSH1 0x24 DUP3 ADD MSTORE PUSH2 0x4E53 PUSH1 0xF0 SHL PUSH1 0x44 DUP3 ADD MSTORE PUSH1 0x64 ADD PUSH2 0x530 JUMP JUMPDEST PUSH2 0x5BB DUP4 PUSH2 0xF51 JUMP JUMPDEST POP POP POP JUMP JUMPDEST PUSH2 0x5C9 CALLER PUSH2 0xE6C JUMP JUMPDEST PUSH2 0x5FA JUMPI PUSH1 0x40 MLOAD PUSH3 0x461BCD PUSH1 0xE5 SHL DUP2 MSTORE PUSH1 0x20 PUSH1 0x4 DUP3 ADD MSTORE PUSH1 0x2 PUSH1 0x24 DUP3 ADD MSTORE PUSH2 0xAA9 PUSH1 0xF3 SHL PUSH1 0x44 DUP3 ADD MSTORE PUSH1 0x64 ADD PUSH2 0x530 JUMP JUMPDEST PUSH2 0x603 DUP2 PUSH2 0x7AF JUMP JUMPDEST PUSH2 0x634 JUMPI PUSH1 0x40 MLOAD PUSH3 0x461BCD PUSH1 0xE5 SHL DUP2 MSTORE PUSH1 0x20 PUSH1 0x4 DUP3 ADD MSTORE PUSH1 0x2 PUSH1 0x24 DUP3 ADD MSTORE PUSH2 0x1555 PUSH1 0xF2 SHL PUSH1 0x44 DUP3 ADD MSTORE PUSH1 0x64 ADD PUSH2 0x530 JUMP JUMPDEST CALLER PUSH1 0x0 SWAP1 DUP2 MSTORE PUSH1 0x4 PUSH1 0x20 SWAP1 DUP2 MSTORE PUSH1 0x40 DUP1 DUP4 KECCAK256 SLOAD PUSH1 0x1 PUSH1 0x1 PUSH1 0xA0 SHL SUB DUP6 AND DUP5 MSTORE PUSH1 0xB DUP4 MSTORE DUP2 DUP5 KECCAK256 DUP2 DUP6 MSTORE SWAP1 SWAP3 MSTORE SWAP1 SWAP2 KECCAK256 SLOAD PUSH1 0xFF AND ISZERO PUSH2 0x699 JUMPI PUSH1 0x40 MLOAD PUSH3 0x461BCD PUSH1 0xE5 SHL DUP2 MSTORE PUSH1 0x20 PUSH1 0x4 DUP3 ADD MSTORE PUSH1 0x2 PUSH1 0x24 DUP3 ADD MSTORE PUSH2 0x4143 PUSH1 0xF0 SHL PUSH1 0x44 DUP3 ADD MSTORE PUSH1 0x64 ADD PUSH2 0x530 JUMP JUMPDEST PUSH1 0x1 PUSH1 0x1 PUSH1 0xA0 SHL SUB DUP3 AND PUSH1 0x0 DUP2 DUP2 MSTORE PUSH1 0xB PUSH1 0x20 SWAP1 DUP2 MSTORE PUSH1 0x40 DUP1 DUP4 KECCAK256 DUP6 DUP5 MSTORE DUP3 MSTORE DUP1 DUP4 KECCAK256 DUP1 SLOAD PUSH1 0xFF NOT AND PUSH1 0x1 OR SWAP1 SSTORE DUP3 SLOAD DUP4 MSTORE PUSH1 0x2 DUP3 MSTORE DUP1 DUP4 KECCAK256 SLOAD DUP6 DUP5 MSTORE PUSH1 0x3 DUP4 MSTORE DUP2 DUP5 KECCAK256 SLOAD SWAP5 DUP5 MSTORE PUSH1 0x9 SWAP1 SWAP3 MSTORE DUP3 KECCAK256 SLOAD SWAP2 SWAP3 SWAP1 SWAP2 PUSH2 0x6F7 SWAP2 SWAP1 PUSH2 0x1CDD JUMP JUMPDEST PUSH2 0x701 SWAP2 SWAP1 PUSH2 0x1CF4 JUMP JUMPDEST SWAP1 POP DUP1 PUSH1 0x0 SUB PUSH2 0x72D JUMPI PUSH1 0x40 MLOAD PUSH3 0x461BCD PUSH1 0xE5 SHL DUP2 MSTORE PUSH1 0x20 PUSH1 0x4 DUP3 ADD MSTORE PUSH1 0x0 PUSH1 0x24 DUP3 ADD MSTORE PUSH1 0x44 ADD PUSH2 0x530 JUMP JUMPDEST PUSH1 0x1 PUSH1 0x1 PUSH1 0xA0 SHL SUB DUP4 AND PUSH1 0x0 SWAP1 DUP2 MSTORE PUSH1 0xA PUSH1 0x20 MSTORE PUSH1 0x40 DUP2 KECCAK256 DUP1 SLOAD DUP4 SWAP3 SWAP1 PUSH2 0x755 SWAP1 DUP5 SWAP1 PUSH2 0x1D16 JUMP JUMPDEST SWAP1 SWAP2 SSTORE POP PUSH2 0x766 SWAP1 POP DUP4 DUP3 CALLER PUSH2 0xFA0 JUMP JUMPDEST PUSH1 0x40 DUP1 MLOAD PUSH1 0x1 PUSH1 0x1 PUSH1 0xA0 SHL SUB DUP6 AND DUP2 MSTORE PUSH1 0x20 DUP2 ADD DUP4 SWAP1 MSTORE CALLER SWAP2 DUP2 ADD SWAP2 SWAP1 SWAP2 MSTORE PUSH32 0x1397D005A56670CBE383372BD4743EAA779AF18164D00DC6D12A6659418E1BBF SWAP1 PUSH1 0x60 ADD PUSH2 0x4E8 JUMP JUMPDEST PUSH1 0x1 PUSH1 0x1 PUSH1 0xA0 SHL SUB DUP2 AND PUSH1 0x0 SWAP1 DUP2 MSTORE PUSH1 0x8 PUSH1 0x20 MSTORE PUSH1 0x40 DUP2 KECCAK256 SLOAD PUSH1 0xFF AND ISZERO ISZERO PUSH1 0x1 EQ DUP1 PUSH2 0x7E2 JUMPI POP PUSH1 0x1 PUSH1 0x1 PUSH1 0xA0 SHL SUB DUP3 AND ISZERO JUMPDEST SWAP3 SWAP2 POP POP JUMP JUMPDEST PUSH2 0x7F2 DUP3 DUP3 PUSH2 0x1245 JUMP JUMPDEST POP POP JUMP JUMPDEST PUSH1 0x0 DUP4 DUP2 MSTORE PUSH1 0x3 PUSH1 0x20 MSTORE PUSH1 0x40 SWAP1 KECCAK256 PUSH1 0x1 ADD SLOAD DUP4 SWAP1 PUSH1 0x1 PUSH1 0x1 PUSH1 0xA0 SHL SUB AND CALLER EQ PUSH2 0x831 JUMPI PUSH1 0x40 MLOAD PUSH3 0x461BCD PUSH1 0xE5 SHL DUP2 MSTORE PUSH1 0x4 ADD PUSH2 0x530 SWAP1 PUSH2 0x1CA5 JUMP JUMPDEST DUP4 PUSH2 0x84B DUP2 PUSH1 0x0 DUP1 SLOAD SWAP2 DUP2 MSTORE PUSH1 0x7 PUSH1 0x20 MSTORE PUSH1 0x40 SWAP1 KECCAK256 SLOAD GT SWAP1 JUMP JUMPDEST PUSH2 0x867 JUMPI PUSH1 0x40 MLOAD PUSH3 0x461BCD PUSH1 0xE5 SHL DUP2 MSTORE PUSH1 0x4 ADD PUSH2 0x530 SWAP1 PUSH2 0x1CC1 JUMP JUMPDEST PUSH2 0x872 DUP6 DUP6 DUP6 PUSH2 0x13AD JUMP JUMPDEST POP POP POP POP POP JUMP JUMPDEST DUP2 PUSH2 0x893 DUP2 PUSH1 0x0 DUP1 SLOAD SWAP2 DUP2 MSTORE PUSH1 0x7 PUSH1 0x20 MSTORE PUSH1 0x40 SWAP1 KECCAK256 SLOAD GT SWAP1 JUMP JUMPDEST PUSH2 0x8AF JUMPI PUSH1 0x40 MLOAD PUSH3 0x461BCD PUSH1 0xE5 SHL DUP2 MSTORE PUSH1 0x4 ADD PUSH2 0x530 SWAP1 PUSH2 0x1CC1 JUMP JUMPDEST PUSH1 0x0 DUP4 DUP2 MSTORE PUSH1 0x5 PUSH1 0x20 MSTORE PUSH1 0x40 SWAP1 KECCAK256 SLOAD PUSH1 0xFF AND PUSH2 0x8F2 JUMPI PUSH1 0x40 MLOAD PUSH3 0x461BCD PUSH1 0xE5 SHL DUP2 MSTORE PUSH1 0x20 PUSH1 0x4 DUP3 ADD MSTORE PUSH1 0x2 PUSH1 0x24 DUP3 ADD MSTORE PUSH2 0x4E53 PUSH1 0xF0 SHL PUSH1 0x44 DUP3 ADD MSTORE PUSH1 0x64 ADD PUSH2 0x530 JUMP JUMPDEST PUSH1 0x0 DUP4 DUP2 MSTORE PUSH1 0x6 PUSH1 0x20 MSTORE PUSH1 0x40 DUP2 KECCAK256 SLOAD SWAP1 SUB PUSH2 0x934 JUMPI PUSH1 0x40 MLOAD PUSH3 0x461BCD PUSH1 0xE5 SHL DUP2 MSTORE PUSH1 0x20 PUSH1 0x4 DUP3 ADD MSTORE PUSH1 0x2 PUSH1 0x24 DUP3 ADD MSTORE PUSH2 0x4553 PUSH1 0xF0 SHL PUSH1 0x44 DUP3 ADD MSTORE PUSH1 0x64 ADD PUSH2 0x530 JUMP JUMPDEST PUSH1 0x0 DUP4 DUP2 MSTORE PUSH1 0x6 PUSH1 0x20 MSTORE PUSH1 0x40 SWAP1 KECCAK256 SLOAD DUP3 GT ISZERO PUSH2 0x977 JUMPI PUSH1 0x40 MLOAD PUSH3 0x461BCD PUSH1 0xE5 SHL DUP2 MSTORE PUSH1 0x20 PUSH1 0x4 DUP3 ADD MSTORE PUSH1 0x2 PUSH1 0x24 DUP3 ADD MSTORE PUSH2 0x4553 PUSH1 0xF0 SHL PUSH1 0x44 DUP3 ADD MSTORE PUSH1 0x64 ADD PUSH2 0x530 JUMP JUMPDEST PUSH1 0x0 DUP4 DUP2 MSTORE PUSH1 0x6 PUSH1 0x20 MSTORE PUSH1 0x40 SWAP1 KECCAK256 PUSH1 0x3 ADD SLOAD PUSH1 0x1 PUSH1 0x1 PUSH1 0xA0 SHL SUB AND CALLER EQ DUP1 PUSH2 0x9B7 JUMPI POP PUSH1 0x0 DUP4 DUP2 MSTORE PUSH1 0x6 PUSH1 0x20 MSTORE PUSH1 0x40 SWAP1 KECCAK256 PUSH1 0x3 ADD SLOAD PUSH1 0x1 PUSH1 0x1 PUSH1 0xA0 SHL SUB AND ISZERO JUMPDEST PUSH2 0x9E8 JUMPI PUSH1 0x40 MLOAD PUSH3 0x461BCD PUSH1 0xE5 SHL DUP2 MSTORE PUSH1 0x20 PUSH1 0x4 DUP3 ADD MSTORE PUSH1 0x2 PUSH1 0x24 DUP3 ADD MSTORE PUSH2 0x29A9 PUSH1 0xF1 SHL PUSH1 0x44 DUP3 ADD MSTORE PUSH1 0x64 ADD PUSH2 0x530 JUMP JUMPDEST PUSH2 0x9F1 DUP4 PUSH2 0xF51 JUMP JUMPDEST PUSH1 0x0 DUP4 DUP2 MSTORE PUSH1 0x6 PUSH1 0x20 MSTORE PUSH1 0x40 DUP2 KECCAK256 PUSH1 0x2 ADD SLOAD PUSH2 0xA0D SWAP1 DUP5 PUSH2 0x1CDD JUMP JUMPDEST SWAP1 POP PUSH1 0x0 DUP1 PUSH1 0x0 PUSH2 0xA22 DUP5 PUSH1 0x19 PUSH2 0x3E8 PUSH2 0x15E5 JUMP JUMPDEST SWAP2 SWAP5 POP SWAP3 POP SWAP1 POP PUSH2 0xA33 DUP2 DUP4 PUSH2 0x1C92 JUMP JUMPDEST PUSH1 0x0 DUP9 DUP2 MSTORE PUSH1 0x6 PUSH1 0x20 MSTORE PUSH1 0x40 SWAP1 KECCAK256 PUSH1 0x1 ADD SLOAD SWAP1 SWAP3 POP PUSH1 0x1 PUSH1 0x1 PUSH1 0xA0 SHL SUB AND PUSH2 0xB92 JUMPI DUP4 CALLVALUE LT ISZERO PUSH2 0xA8A JUMPI PUSH1 0x40 MLOAD PUSH3 0x461BCD PUSH1 0xE5 SHL DUP2 MSTORE PUSH1 0x20 PUSH1 0x4 DUP3 ADD MSTORE PUSH1 0x2 PUSH1 0x24 DUP3 ADD MSTORE PUSH2 0x4945 PUSH1 0xF0 SHL PUSH1 0x44 DUP3 ADD MSTORE PUSH1 0x64 ADD PUSH2 0x530 JUMP JUMPDEST PUSH1 0x40 MLOAD PUSH1 0x0 SWAP1 PUSH20 0x49A71890AEA5A751E30E740C504F2E9683F347BC SWAP1 DUP6 SWAP1 DUP4 DUP2 DUP2 DUP2 DUP6 DUP8 GAS CALL SWAP3 POP POP POP RETURNDATASIZE DUP1 PUSH1 0x0 DUP2 EQ PUSH2 0xAE0 JUMPI PUSH1 0x40 MLOAD SWAP2 POP PUSH1 0x1F NOT PUSH1 0x3F RETURNDATASIZE ADD AND DUP3 ADD PUSH1 0x40 MSTORE RETURNDATASIZE DUP3 MSTORE RETURNDATASIZE PUSH1 0x0 PUSH1 0x20 DUP5 ADD RETURNDATACOPY PUSH2 0xAE5 JUMP JUMPDEST PUSH1 0x60 SWAP2 POP JUMPDEST POP POP PUSH1 0x0 DUP10 DUP2 MSTORE PUSH1 0x3 PUSH1 0x20 MSTORE PUSH1 0x40 DUP1 DUP3 KECCAK256 PUSH1 0x1 ADD SLOAD SWAP1 MLOAD SWAP3 SWAP4 POP SWAP1 SWAP2 PUSH1 0x1 PUSH1 0x1 PUSH1 0xA0 SHL SUB SWAP1 SWAP2 AND SWAP1 DUP6 SWAP1 DUP4 DUP2 DUP2 DUP2 DUP6 DUP8 GAS CALL SWAP3 POP POP POP RETURNDATASIZE DUP1 PUSH1 0x0 DUP2 EQ PUSH2 0xB47 JUMPI PUSH1 0x40 MLOAD SWAP2 POP PUSH1 0x1F NOT PUSH1 0x3F RETURNDATASIZE ADD AND DUP3 ADD PUSH1 0x40 MSTORE RETURNDATASIZE DUP3 MSTORE RETURNDATASIZE PUSH1 0x0 PUSH1 0x20 DUP5 ADD RETURNDATACOPY PUSH2 0xB4C JUMP JUMPDEST PUSH1 0x60 SWAP2 POP JUMPDEST POP POP SWAP1 POP DUP1 DUP1 ISZERO PUSH2 0xB5A JUMPI POP DUP2 JUMPDEST PUSH2 0xB8B JUMPI PUSH1 0x40 MLOAD PUSH3 0x461BCD PUSH1 0xE5 SHL DUP2 MSTORE PUSH1 0x20 PUSH1 0x4 DUP3 ADD MSTORE PUSH1 0x2 PUSH1 0x24 DUP3 ADD MSTORE PUSH2 0x2A23 PUSH1 0xF1 SHL PUSH1 0x44 DUP3 ADD MSTORE PUSH1 0x64 ADD PUSH2 0x530 JUMP JUMPDEST POP POP PUSH2 0xD18 JUMP JUMPDEST PUSH1 0x0 DUP8 DUP2 MSTORE PUSH1 0x6 PUSH1 0x20 MSTORE PUSH1 0x40 SWAP1 DUP2 SWAP1 KECCAK256 PUSH1 0x1 ADD SLOAD SWAP1 MLOAD PUSH4 0x6EB1769F PUSH1 0xE1 SHL DUP2 MSTORE CALLER PUSH1 0x4 DUP3 ADD MSTORE ADDRESS PUSH1 0x24 DUP3 ADD MSTORE PUSH1 0x1 PUSH1 0x1 PUSH1 0xA0 SHL SUB SWAP1 SWAP2 AND SWAP1 DUP6 SWAP1 DUP3 SWAP1 PUSH4 0xDD62ED3E SWAP1 PUSH1 0x44 ADD PUSH1 0x20 PUSH1 0x40 MLOAD DUP1 DUP4 SUB DUP2 DUP7 GAS STATICCALL ISZERO DUP1 ISZERO PUSH2 0xBF4 JUMPI RETURNDATASIZE PUSH1 0x0 DUP1 RETURNDATACOPY RETURNDATASIZE PUSH1 0x0 REVERT JUMPDEST POP POP POP POP PUSH1 0x40 MLOAD RETURNDATASIZE PUSH1 0x1F NOT PUSH1 0x1F DUP3 ADD AND DUP3 ADD DUP1 PUSH1 0x40 MSTORE POP DUP2 ADD SWAP1 PUSH2 0xC18 SWAP2 SWAP1 PUSH2 0x1D29 JUMP JUMPDEST LT ISZERO PUSH2 0xC36 JUMPI PUSH1 0x40 MLOAD PUSH3 0x461BCD PUSH1 0xE5 SHL DUP2 MSTORE PUSH1 0x4 ADD PUSH2 0x530 SWAP1 PUSH2 0x1D42 JUMP JUMPDEST PUSH1 0x40 MLOAD PUSH4 0x23B872DD PUSH1 0xE0 SHL DUP2 MSTORE CALLER PUSH1 0x4 DUP3 ADD MSTORE PUSH20 0x49A71890AEA5A751E30E740C504F2E9683F347BC PUSH1 0x24 DUP3 ADD MSTORE PUSH1 0x44 DUP2 ADD DUP6 SWAP1 MSTORE PUSH1 0x1 PUSH1 0x1 PUSH1 0xA0 SHL SUB DUP3 AND SWAP1 PUSH4 0x23B872DD SWAP1 PUSH1 0x64 ADD PUSH1 0x20 PUSH1 0x40 MLOAD DUP1 DUP4 SUB DUP2 PUSH1 0x0 DUP8 GAS CALL ISZERO DUP1 ISZERO PUSH2 0xC9D JUMPI RETURNDATASIZE PUSH1 0x0 DUP1 RETURNDATACOPY RETURNDATASIZE PUSH1 0x0 REVERT JUMPDEST POP POP POP POP PUSH1 0x40 MLOAD RETURNDATASIZE PUSH1 0x1F NOT PUSH1 0x1F DUP3 ADD AND DUP3 ADD DUP1 PUSH1 0x40 MSTORE POP DUP2 ADD SWAP1 PUSH2 0xCC1 SWAP2 SWAP1 PUSH2 0x1D5E JUMP JUMPDEST PUSH2 0xCDD JUMPI PUSH1 0x40 MLOAD PUSH3 0x461BCD PUSH1 0xE5 SHL DUP2 MSTORE PUSH1 0x4 ADD PUSH2 0x530 SWAP1 PUSH2 0x1D80 JUMP JUMPDEST PUSH1 0x0 DUP9 DUP2 MSTORE PUSH1 0x3 PUSH1 0x20 SWAP1 DUP2 MSTORE PUSH1 0x40 DUP1 DUP4 KECCAK256 PUSH1 0x1 SWAP1 DUP2 ADD SLOAD PUSH1 0x6 SWAP1 SWAP4 MSTORE SWAP3 KECCAK256 SWAP1 SWAP2 ADD SLOAD PUSH2 0xD16 SWAP2 PUSH1 0x1 PUSH1 0x1 PUSH1 0xA0 SHL SUB SWAP1 DUP2 AND SWAP2 AND DUP6 PUSH2 0x1659 JUMP JUMPDEST POP JUMPDEST PUSH2 0xD23 DUP8 DUP8 CALLER PUSH2 0x13AD JUMP JUMPDEST PUSH1 0x0 DUP8 DUP2 MSTORE PUSH1 0x3 PUSH1 0x20 MSTORE PUSH1 0x40 SWAP1 KECCAK256 PUSH1 0x1 ADD SLOAD ADDRESS PUSH1 0x1 PUSH1 0x1 PUSH1 0xA0 SHL SUB SWAP1 SWAP2 AND SUB PUSH2 0xD6B JUMPI PUSH1 0x0 DUP1 SLOAD DUP2 MSTORE PUSH1 0x2 PUSH1 0x20 MSTORE PUSH1 0x40 DUP2 KECCAK256 DUP1 SLOAD DUP9 SWAP3 SWAP1 PUSH2 0xD65 SWAP1 DUP5 SWAP1 PUSH2 0x1C92 JUMP JUMPDEST SWAP1 SWAP2 SSTORE POP POP JUMPDEST PUSH1 0x0 DUP8 DUP2 MSTORE PUSH1 0x6 PUSH1 0x20 SWAP1 DUP2 MSTORE PUSH1 0x40 SWAP2 DUP3 SWAP1 KECCAK256 PUSH1 0x1 DUP2 ADD SLOAD PUSH1 0x2 SWAP1 SWAP2 ADD SLOAD DUP4 MLOAD DUP12 DUP2 MSTORE SWAP3 DUP4 ADD DUP11 SWAP1 MSTORE CALLER DUP4 DUP6 ADD MSTORE PUSH1 0x1 PUSH1 0x1 PUSH1 0xA0 SHL SUB SWAP1 SWAP2 AND PUSH1 0x60 DUP4 ADD MSTORE PUSH1 0x80 DUP3 ADD MSTORE SWAP1 MLOAD PUSH32 0x443732A78C29282934211EAE7AA500DD12DB85D4DD795DBCDA5F94EE19A67E4F SWAP2 DUP2 SWAP1 SUB PUSH1 0xA0 ADD SWAP1 LOG1 PUSH1 0x0 DUP8 DUP2 MSTORE PUSH1 0x6 PUSH1 0x20 MSTORE PUSH1 0x40 SWAP1 KECCAK256 SLOAD DUP7 EQ PUSH2 0xE63 JUMPI PUSH1 0x0 DUP8 DUP2 MSTORE PUSH1 0x3 PUSH1 0x20 SWAP1 DUP2 MSTORE PUSH1 0x40 DUP1 DUP4 KECCAK256 PUSH1 0x1 ADD SLOAD PUSH1 0x1 PUSH1 0x1 PUSH1 0xA0 SHL SUB AND DUP4 MSTORE PUSH1 0x4 DUP3 MSTORE DUP1 DUP4 KECCAK256 SLOAD DUP11 DUP5 MSTORE PUSH1 0x6 SWAP1 SWAP3 MSTORE SWAP1 SWAP2 KECCAK256 SLOAD PUSH2 0xE63 SWAP2 SWAP1 PUSH2 0xE32 SWAP1 DUP10 SWAP1 PUSH2 0x1D16 JUMP JUMPDEST PUSH1 0x0 DUP11 DUP2 MSTORE PUSH1 0x6 PUSH1 0x20 MSTORE PUSH1 0x40 SWAP1 KECCAK256 PUSH1 0x1 DUP2 ADD SLOAD PUSH1 0x2 DUP3 ADD SLOAD PUSH1 0x3 SWAP1 SWAP3 ADD SLOAD PUSH1 0x1 PUSH1 0x1 PUSH1 0xA0 SHL SUB SWAP2 DUP3 AND SWAP3 SWAP2 AND PUSH2 0x170E JUMP JUMPDEST POP POP POP POP POP POP POP JUMP JUMPDEST PUSH1 0x1 PUSH1 0x1 PUSH1 0xA0 SHL SUB DUP2 AND PUSH1 0x0 SWAP1 DUP2 MSTORE PUSH1 0x4 PUSH1 0x20 MSTORE PUSH1 0x40 DUP2 KECCAK256 SLOAD PUSH2 0x7E2 SWAP1 PUSH1 0x0 DUP1 SLOAD SWAP2 DUP2 MSTORE PUSH1 0x7 PUSH1 0x20 MSTORE PUSH1 0x40 SWAP1 KECCAK256 SLOAD GT SWAP1 JUMP JUMPDEST PUSH1 0x0 DUP6 DUP2 MSTORE PUSH1 0x3 PUSH1 0x20 MSTORE PUSH1 0x40 SWAP1 KECCAK256 PUSH1 0x1 ADD SLOAD DUP6 SWAP1 PUSH1 0x1 PUSH1 0x1 PUSH1 0xA0 SHL SUB AND CALLER EQ PUSH2 0xED9 JUMPI PUSH1 0x40 MLOAD PUSH3 0x461BCD PUSH1 0xE5 SHL DUP2 MSTORE PUSH1 0x4 ADD PUSH2 0x530 SWAP1 PUSH2 0x1CA5 JUMP JUMPDEST DUP6 PUSH2 0xEF3 DUP2 PUSH1 0x0 DUP1 SLOAD SWAP2 DUP2 MSTORE PUSH1 0x7 PUSH1 0x20 MSTORE PUSH1 0x40 SWAP1 KECCAK256 SLOAD GT SWAP1 JUMP JUMPDEST PUSH2 0xF0F JUMPI PUSH1 0x40 MLOAD PUSH3 0x461BCD PUSH1 0xE5 SHL DUP2 MSTORE PUSH1 0x4 ADD PUSH2 0x530 SWAP1 PUSH2 0x1CC1 JUMP JUMPDEST PUSH2 0xE63 DUP8 DUP8 DUP8 DUP8 DUP8 PUSH2 0x170E JUMP JUMPDEST PUSH1 0x0 DUP3 DUP2 MSTORE PUSH1 0x3 PUSH1 0x20 MSTORE PUSH1 0x40 DUP2 KECCAK256 PUSH1 0x2 ADD SLOAD DUP3 LT DUP1 ISZERO SWAP1 PUSH2 0xF4A JUMPI POP PUSH1 0x0 DUP4 DUP2 MSTORE PUSH1 0x7 PUSH1 0x20 MSTORE PUSH1 0x40 SWAP1 KECCAK256 SLOAD DUP3 LT JUMPDEST SWAP4 SWAP3 POP POP POP JUMP JUMPDEST DUP1 PUSH2 0xF6B DUP2 PUSH1 0x0 DUP1 SLOAD SWAP2 DUP2 MSTORE PUSH1 0x7 PUSH1 0x20 MSTORE PUSH1 0x40 SWAP1 KECCAK256 SLOAD GT SWAP1 JUMP JUMPDEST PUSH2 0xF87 JUMPI PUSH1 0x40 MLOAD PUSH3 0x461BCD PUSH1 0xE5 SHL DUP2 MSTORE PUSH1 0x4 ADD PUSH2 0x530 SWAP1 PUSH2 0x1CC1 JUMP JUMPDEST POP PUSH1 0x0 SWAP1 DUP2 MSTORE PUSH1 0x5 PUSH1 0x20 MSTORE PUSH1 0x40 SWAP1 KECCAK256 DUP1 SLOAD PUSH1 0xFF NOT AND SWAP1 SSTORE JUMP JUMPDEST PUSH1 0x1 PUSH1 0x1 PUSH1 0xA0 SHL SUB DUP4 AND PUSH1 0x0 SWAP1 DUP2 MSTORE PUSH1 0x9 PUSH1 0x20 MSTORE PUSH1 0x40 SWAP1 KECCAK256 SLOAD DUP3 GT ISZERO PUSH2 0xFD8 JUMPI PUSH1 0x40 MLOAD PUSH3 0x461BCD PUSH1 0xE5 SHL DUP2 MSTORE PUSH1 0x4 ADD PUSH2 0x530 SWAP1 PUSH2 0x1D42 JUMP JUMPDEST PUSH1 0x1 PUSH1 0x1 PUSH1 0xA0 SHL SUB DUP4 AND PUSH2 0xFF5 JUMPI PUSH2 0xFF0 DUP3 DUP3 PUSH2 0x18D6 JUMP JUMPDEST PUSH2 0x1230 JUMP JUMPDEST PUSH1 0x40 MLOAD PUSH4 0x95EA7B3 PUSH1 0xE0 SHL DUP2 MSTORE PUSH1 0x1 PUSH1 0x1 PUSH1 0xA0 SHL SUB DUP3 DUP2 AND PUSH1 0x4 DUP4 ADD MSTORE PUSH1 0x24 DUP3 ADD DUP5 SWAP1 MSTORE DUP5 SWAP2 SWAP1 DUP3 AND SWAP1 PUSH4 0x95EA7B3 SWAP1 PUSH1 0x44 ADD PUSH1 0x20 PUSH1 0x40 MLOAD DUP1 DUP4 SUB DUP2 PUSH1 0x0 DUP8 GAS CALL ISZERO DUP1 ISZERO PUSH2 0x1047 JUMPI RETURNDATASIZE PUSH1 0x0 DUP1 RETURNDATACOPY RETURNDATASIZE PUSH1 0x0 REVERT JUMPDEST POP POP POP POP PUSH1 0x40 MLOAD RETURNDATASIZE PUSH1 0x1F NOT PUSH1 0x1F DUP3 ADD AND DUP3 ADD DUP1 PUSH1 0x40 MSTORE POP DUP2 ADD SWAP1 PUSH2 0x106B SWAP2 SWAP1 PUSH2 0x1D5E JUMP JUMPDEST PUSH2 0x109C JUMPI PUSH1 0x40 MLOAD PUSH3 0x461BCD PUSH1 0xE5 SHL DUP2 MSTORE PUSH1 0x20 PUSH1 0x4 DUP3 ADD MSTORE PUSH1 0x2 PUSH1 0x24 DUP3 ADD MSTORE PUSH2 0x4E41 PUSH1 0xF0 SHL PUSH1 0x44 DUP3 ADD MSTORE PUSH1 0x64 ADD PUSH2 0x530 JUMP JUMPDEST PUSH1 0x1 PUSH1 0x1 PUSH1 0xA0 SHL SUB DUP3 AND EXTCODESIZE ISZERO PUSH2 0x119F JUMPI PUSH1 0x40 MLOAD PUSH4 0x4B91AD0F PUSH1 0xE1 SHL DUP2 MSTORE PUSH1 0x1 PUSH1 0x1 PUSH1 0xA0 SHL SUB DUP6 DUP2 AND PUSH1 0x4 DUP4 ADD MSTORE PUSH1 0x24 DUP3 ADD DUP6 SWAP1 MSTORE DUP4 AND SWAP1 PUSH4 0x97235A1E SWAP1 PUSH1 0x44 ADD PUSH1 0x0 PUSH1 0x40 MLOAD DUP1 DUP4 SUB DUP2 PUSH1 0x0 DUP8 DUP1 EXTCODESIZE ISZERO DUP1 ISZERO PUSH2 0x10F6 JUMPI PUSH1 0x0 DUP1 REVERT JUMPDEST POP GAS CALL SWAP3 POP POP POP DUP1 ISZERO PUSH2 0x1107 JUMPI POP PUSH1 0x1 JUMPDEST PUSH2 0x119A JUMPI PUSH1 0x40 MLOAD PUSH4 0xA9059CBB PUSH1 0xE0 SHL DUP2 MSTORE PUSH1 0x1 PUSH1 0x1 PUSH1 0xA0 SHL SUB DUP4 DUP2 AND PUSH1 0x4 DUP4 ADD MSTORE PUSH1 0x24 DUP3 ADD DUP6 SWAP1 MSTORE DUP3 AND SWAP1 PUSH4 0xA9059CBB SWAP1 PUSH1 0x44 ADD PUSH1 0x20 PUSH1 0x40 MLOAD DUP1 DUP4 SUB DUP2 PUSH1 0x0 DUP8 GAS CALL ISZERO DUP1 ISZERO PUSH2 0x115A JUMPI RETURNDATASIZE PUSH1 0x0 DUP1 RETURNDATACOPY RETURNDATASIZE PUSH1 0x0 REVERT JUMPDEST POP POP POP POP PUSH1 0x40 MLOAD RETURNDATASIZE PUSH1 0x1F NOT PUSH1 0x1F DUP3 ADD AND DUP3 ADD DUP1 PUSH1 0x40 MSTORE POP DUP2 ADD SWAP1 PUSH2 0x117E SWAP2 SWAP1 PUSH2 0x1D5E JUMP JUMPDEST PUSH2 0x119A JUMPI PUSH1 0x40 MLOAD PUSH3 0x461BCD PUSH1 0xE5 SHL DUP2 MSTORE PUSH1 0x4 ADD PUSH2 0x530 SWAP1 PUSH2 0x1D80 JUMP JUMPDEST PUSH2 0x122E JUMP JUMPDEST PUSH1 0x40 MLOAD PUSH4 0xA9059CBB PUSH1 0xE0 SHL DUP2 MSTORE PUSH1 0x1 PUSH1 0x1 PUSH1 0xA0 SHL SUB DUP4 DUP2 AND PUSH1 0x4 DUP4 ADD MSTORE PUSH1 0x24 DUP3 ADD DUP6 SWAP1 MSTORE DUP3 AND SWAP1 PUSH4 0xA9059CBB SWAP1 PUSH1 0x44 ADD PUSH1 0x20 PUSH1 0x40 MLOAD DUP1 DUP4 SUB DUP2 PUSH1 0x0 DUP8 GAS CALL ISZERO DUP1 ISZERO PUSH2 0x11EE JUMPI RETURNDATASIZE PUSH1 0x0 DUP1 RETURNDATACOPY RETURNDATASIZE PUSH1 0x0 REVERT JUMPDEST POP POP POP POP PUSH1 0x40 MLOAD RETURNDATASIZE PUSH1 0x1F NOT PUSH1 0x1F DUP3 ADD AND DUP3 ADD DUP1 PUSH1 0x40 MSTORE POP DUP2 ADD SWAP1 PUSH2 0x1212 SWAP2 SWAP1 PUSH2 0x1D5E JUMP JUMPDEST PUSH2 0x122E JUMPI PUSH1 0x40 MLOAD PUSH3 0x461BCD PUSH1 0xE5 SHL DUP2 MSTORE PUSH1 0x4 ADD PUSH2 0x530 SWAP1 PUSH2 0x1D80 JUMP JUMPDEST POP JUMPDEST PUSH1 0x1 SLOAD PUSH1 0xFF AND ISZERO PUSH2 0x5BB JUMPI PUSH2 0x5BB DUP4 DUP4 PUSH2 0x195E JUMP JUMPDEST PUSH2 0x124E DUP3 PUSH2 0x7AF JUMP JUMPDEST PUSH2 0x127F JUMPI PUSH1 0x40 MLOAD PUSH3 0x461BCD PUSH1 0xE5 SHL DUP2 MSTORE PUSH1 0x20 PUSH1 0x4 DUP3 ADD MSTORE PUSH1 0x2 PUSH1 0x24 DUP3 ADD MSTORE PUSH2 0x1555 PUSH1 0xF2 SHL PUSH1 0x44 DUP3 ADD MSTORE PUSH1 0x64 ADD PUSH2 0x530 JUMP JUMPDEST PUSH1 0x40 MLOAD PUSH4 0x6EB1769F PUSH1 0xE1 SHL DUP2 MSTORE CALLER PUSH1 0x4 DUP3 ADD MSTORE ADDRESS PUSH1 0x24 DUP3 ADD MSTORE DUP3 SWAP1 DUP3 SWAP1 PUSH1 0x1 PUSH1 0x1 PUSH1 0xA0 SHL SUB DUP4 AND SWAP1 PUSH4 0xDD62ED3E SWAP1 PUSH1 0x44 ADD PUSH1 0x20 PUSH1 0x40 MLOAD DUP1 DUP4 SUB DUP2 DUP7 GAS STATICCALL ISZERO DUP1 ISZERO PUSH2 0x12CD JUMPI RETURNDATASIZE PUSH1 0x0 DUP1 RETURNDATACOPY RETURNDATASIZE PUSH1 0x0 REVERT JUMPDEST POP POP POP POP PUSH1 0x40 MLOAD RETURNDATASIZE PUSH1 0x1F NOT PUSH1 0x1F DUP3 ADD AND DUP3 ADD DUP1 PUSH1 0x40 MSTORE POP DUP2 ADD SWAP1 PUSH2 0x12F1 SWAP2 SWAP1 PUSH2 0x1D29 JUMP JUMPDEST LT ISZERO PUSH2 0x130F JUMPI PUSH1 0x40 MLOAD PUSH3 0x461BCD PUSH1 0xE5 SHL DUP2 MSTORE PUSH1 0x4 ADD PUSH2 0x530 SWAP1 PUSH2 0x1D42 JUMP JUMPDEST PUSH1 0x40 MLOAD PUSH4 0x23B872DD PUSH1 0xE0 SHL DUP2 MSTORE CALLER PUSH1 0x4 DUP3 ADD MSTORE ADDRESS PUSH1 0x24 DUP3 ADD MSTORE PUSH1 0x44 DUP2 ADD DUP4 SWAP1 MSTORE PUSH1 0x1 PUSH1 0x1 PUSH1 0xA0 SHL SUB DUP3 AND SWAP1 PUSH4 0x23B872DD SWAP1 PUSH1 0x64 ADD PUSH1 0x20 PUSH1 0x40 MLOAD DUP1 DUP4 SUB DUP2 PUSH1 0x0 DUP8 GAS CALL ISZERO DUP1 ISZERO PUSH2 0x1362 JUMPI RETURNDATASIZE PUSH1 0x0 DUP1 RETURNDATACOPY RETURNDATASIZE PUSH1 0x0 REVERT JUMPDEST POP POP POP POP PUSH1 0x40 MLOAD RETURNDATASIZE PUSH1 0x1F NOT PUSH1 0x1F DUP3 ADD AND DUP3 ADD DUP1 PUSH1 0x40 MSTORE POP DUP2 ADD SWAP1 PUSH2 0x1386 SWAP2 SWAP1 PUSH2 0x1D5E JUMP JUMPDEST PUSH2 0x13A2 JUMPI PUSH1 0x40 MLOAD PUSH3 0x461BCD PUSH1 0xE5 SHL DUP2 MSTORE PUSH1 0x4 ADD PUSH2 0x530 SWAP1 PUSH2 0x1D80 JUMP JUMPDEST PUSH2 0x5BB DUP4 DUP4 CALLER PUSH2 0x447 JUMP JUMPDEST DUP3 PUSH2 0x13C7 DUP2 PUSH1 0x0 DUP1 SLOAD SWAP2 DUP2 MSTORE PUSH1 0x7 PUSH1 0x20 MSTORE PUSH1 0x40 SWAP1 KECCAK256 SLOAD GT SWAP1 JUMP JUMPDEST PUSH2 0x13E3 JUMPI PUSH1 0x40 MLOAD PUSH3 0x461BCD PUSH1 0xE5 SHL DUP2 MSTORE PUSH1 0x4 ADD PUSH2 0x530 SWAP1 PUSH2 0x1CC1 JUMP JUMPDEST PUSH1 0x1 DUP1 SLOAD PUSH1 0xFF AND ISZERO ISZERO EQ PUSH2 0x141E JUMPI PUSH1 0x40 MLOAD PUSH3 0x461BCD PUSH1 0xE5 SHL DUP2 MSTORE PUSH1 0x20 PUSH1 0x4 DUP3 ADD MSTORE PUSH1 0x2 PUSH1 0x24 DUP3 ADD MSTORE PUSH2 0x1153 PUSH1 0xF2 SHL PUSH1 0x44 DUP3 ADD MSTORE PUSH1 0x64 ADD PUSH2 0x530 JUMP JUMPDEST PUSH1 0x0 DUP5 DUP2 MSTORE PUSH1 0x3 PUSH1 0x20 MSTORE PUSH1 0x40 SWAP1 KECCAK256 SLOAD DUP4 LT PUSH2 0x1460 JUMPI PUSH1 0x40 MLOAD PUSH3 0x461BCD PUSH1 0xE5 SHL DUP2 MSTORE PUSH1 0x20 PUSH1 0x4 DUP3 ADD MSTORE PUSH1 0x2 PUSH1 0x24 DUP3 ADD MSTORE PUSH2 0x4941 PUSH1 0xF0 SHL PUSH1 0x44 DUP3 ADD MSTORE PUSH1 0x64 ADD PUSH2 0x530 JUMP JUMPDEST PUSH2 0x1469 DUP3 PUSH2 0xE6C JUMP JUMPDEST ISZERO PUSH2 0x14D8 JUMPI PUSH1 0x1 PUSH1 0x1 PUSH1 0xA0 SHL SUB DUP3 AND PUSH1 0x0 SWAP1 DUP2 MSTORE PUSH1 0x4 PUSH1 0x20 SWAP1 DUP2 MSTORE PUSH1 0x40 DUP1 DUP4 KECCAK256 SLOAD DUP4 MSTORE PUSH1 0x3 SWAP1 SWAP2 MSTORE DUP2 KECCAK256 SLOAD PUSH2 0x149E SWAP1 DUP6 PUSH2 0x1C92 JUMP JUMPDEST SWAP1 POP PUSH2 0x14AD DUP2 DUP5 PUSH1 0x0 SLOAD PUSH2 0x19BC JUMP JUMPDEST PUSH1 0x1 PUSH1 0x1 PUSH1 0xA0 SHL SUB DUP4 AND PUSH1 0x0 SWAP1 DUP2 MSTORE PUSH1 0x4 PUSH1 0x20 MSTORE PUSH1 0x40 DUP2 KECCAK256 SLOAD SWAP1 SLOAD PUSH2 0x14D2 SWAP2 SWAP1 PUSH2 0x1AE9 JUMP JUMPDEST POP PUSH2 0x14E5 JUMP JUMPDEST PUSH2 0x14E5 DUP4 DUP4 PUSH1 0x0 SLOAD PUSH2 0x19BC JUMP JUMPDEST PUSH2 0x14F1 DUP5 PUSH1 0x0 SLOAD PUSH2 0x1AE9 JUMP JUMPDEST PUSH1 0x0 DUP5 DUP2 MSTORE PUSH1 0x3 PUSH1 0x20 MSTORE PUSH1 0x40 DUP2 KECCAK256 SLOAD PUSH2 0x150B SWAP1 DUP6 SWAP1 PUSH2 0x1D16 JUMP JUMPDEST SWAP1 POP DUP1 ISZERO PUSH2 0x153E JUMPI PUSH1 0x0 DUP6 DUP2 MSTORE PUSH1 0x3 PUSH1 0x20 MSTORE PUSH1 0x40 DUP2 KECCAK256 PUSH1 0x1 ADD SLOAD SWAP1 SLOAD PUSH2 0x153E SWAP2 DUP4 SWAP2 PUSH1 0x1 PUSH1 0x1 PUSH1 0xA0 SHL SUB SWAP1 SWAP2 AND SWAP1 PUSH2 0x19BC JUMP JUMPDEST PUSH1 0x40 DUP1 MLOAD DUP7 DUP2 MSTORE PUSH1 0x20 DUP2 ADD DUP7 SWAP1 MSTORE PUSH1 0x1 PUSH1 0x1 PUSH1 0xA0 SHL SUB DUP6 AND DUP2 DUP4 ADD MSTORE PUSH1 0x0 PUSH1 0x60 DUP3 ADD DUP2 SWAP1 MSTORE PUSH1 0x80 DUP3 ADD MSTORE SWAP1 MLOAD PUSH32 0x443732A78C29282934211EAE7AA500DD12DB85D4DD795DBCDA5F94EE19A67E4F SWAP2 DUP2 SWAP1 SUB PUSH1 0xA0 ADD SWAP1 LOG1 POP PUSH1 0x0 DUP1 SLOAD DUP1 DUP3 MSTORE PUSH1 0x2 PUSH1 0x20 DUP2 SWAP1 MSTORE PUSH1 0x40 DUP4 KECCAK256 SLOAD SWAP3 SWAP1 SWAP2 PUSH2 0x15B6 SWAP1 PUSH1 0x1 PUSH2 0x1C92 JUMP JUMPDEST DUP2 MSTORE PUSH1 0x20 ADD SWAP1 DUP2 MSTORE PUSH1 0x20 ADD PUSH1 0x0 KECCAK256 DUP2 SWAP1 SSTORE POP PUSH1 0x0 DUP1 DUP2 SLOAD DUP1 SWAP3 SWAP2 SWAP1 PUSH2 0x15DA SWAP1 PUSH2 0x1D9C JUMP JUMPDEST SWAP2 SWAP1 POP SSTORE POP POP POP POP POP JUMP JUMPDEST PUSH1 0x0 DUP1 PUSH1 0x0 DUP5 DUP5 GT PUSH2 0x15F6 JUMPI PUSH1 0x0 DUP1 REVERT JUMPDEST PUSH1 0x0 DUP5 PUSH2 0x1603 DUP8 DUP10 PUSH2 0x1CDD JUMP JUMPDEST PUSH2 0x160D SWAP2 SWAP1 PUSH2 0x1CF4 JUMP JUMPDEST SWAP1 POP PUSH1 0x0 DUP6 PUSH2 0x161C DUP9 DUP3 PUSH2 0x1D16 JUMP JUMPDEST PUSH2 0x1626 SWAP1 DUP11 PUSH2 0x1CDD JUMP JUMPDEST PUSH2 0x1630 SWAP2 SWAP1 PUSH2 0x1CF4 JUMP JUMPDEST SWAP1 POP DUP2 DUP2 PUSH2 0x163E DUP2 DUP4 PUSH2 0x1C92 JUMP JUMPDEST PUSH2 0x1648 SWAP1 DUP12 PUSH2 0x1D16 JUMP JUMPDEST SWAP5 POP SWAP5 POP SWAP5 POP POP POP SWAP4 POP SWAP4 POP SWAP4 SWAP1 POP JUMP JUMPDEST ADDRESS PUSH1 0x1 PUSH1 0x1 PUSH1 0xA0 SHL SUB DUP5 AND SUB PUSH2 0x1673 JUMPI PUSH2 0x5BB DUP3 DUP3 PUSH2 0x1245 JUMP JUMPDEST PUSH1 0x40 MLOAD PUSH4 0x23B872DD PUSH1 0xE0 SHL DUP2 MSTORE CALLER PUSH1 0x4 DUP3 ADD MSTORE ADDRESS PUSH1 0x24 DUP3 ADD MSTORE PUSH1 0x44 DUP2 ADD DUP3 SWAP1 MSTORE DUP3 SWAP1 PUSH1 0x1 PUSH1 0x1 PUSH1 0xA0 SHL SUB DUP3 AND SWAP1 PUSH4 0x23B872DD SWAP1 PUSH1 0x64 ADD PUSH1 0x20 PUSH1 0x40 MLOAD DUP1 DUP4 SUB DUP2 PUSH1 0x0 DUP8 GAS CALL ISZERO DUP1 ISZERO PUSH2 0x16C8 JUMPI RETURNDATASIZE PUSH1 0x0 DUP1 RETURNDATACOPY RETURNDATASIZE PUSH1 0x0 REVERT JUMPDEST POP POP POP POP PUSH1 0x40 MLOAD RETURNDATASIZE PUSH1 0x1F NOT PUSH1 0x1F DUP3 ADD AND DUP3 ADD DUP1 PUSH1 0x40 MSTORE POP DUP2 ADD SWAP1 PUSH2 0x16EC SWAP2 SWAP1 PUSH2 0x1D5E JUMP JUMPDEST PUSH2 0x1708 JUMPI PUSH1 0x40 MLOAD PUSH3 0x461BCD PUSH1 0xE5 SHL DUP2 MSTORE PUSH1 0x4 ADD PUSH2 0x530 SWAP1 PUSH2 0x1D80 JUMP JUMPDEST POP POP POP POP JUMP JUMPDEST DUP5 PUSH2 0x1728 DUP2 PUSH1 0x0 DUP1 SLOAD SWAP2 DUP2 MSTORE PUSH1 0x7 PUSH1 0x20 MSTORE PUSH1 0x40 SWAP1 KECCAK256 SLOAD GT SWAP1 JUMP JUMPDEST PUSH2 0x1744 JUMPI PUSH1 0x40 MLOAD PUSH3 0x461BCD PUSH1 0xE5 SHL DUP2 MSTORE PUSH1 0x4 ADD PUSH2 0x530 SWAP1 PUSH2 0x1CC1 JUMP JUMPDEST PUSH1 0x1 DUP1 SLOAD PUSH1 0xFF AND ISZERO ISZERO EQ PUSH2 0x177F JUMPI PUSH1 0x40 MLOAD PUSH3 0x461BCD PUSH1 0xE5 SHL DUP2 MSTORE PUSH1 0x20 PUSH1 0x4 DUP3 ADD MSTORE PUSH1 0x2 PUSH1 0x24 DUP3 ADD MSTORE PUSH2 0x1153 PUSH1 0xF2 SHL PUSH1 0x44 DUP3 ADD MSTORE PUSH1 0x64 ADD PUSH2 0x530 JUMP JUMPDEST PUSH1 0x0 DUP7 DUP2 MSTORE PUSH1 0x5 PUSH1 0x20 MSTORE PUSH1 0x40 SWAP1 KECCAK256 SLOAD PUSH1 0xFF AND ISZERO PUSH2 0x179B JUMPI PUSH1 0x0 DUP1 REVERT JUMPDEST PUSH1 0x0 DUP7 DUP2 MSTORE PUSH1 0x3 PUSH1 0x20 MSTORE PUSH1 0x40 SWAP1 KECCAK256 SLOAD DUP6 GT ISZERO PUSH2 0x17DE JUMPI PUSH1 0x40 MLOAD PUSH3 0x461BCD PUSH1 0xE5 SHL DUP2 MSTORE PUSH1 0x20 PUSH1 0x4 DUP3 ADD MSTORE PUSH1 0x2 PUSH1 0x24 DUP3 ADD MSTORE PUSH2 0x4941 PUSH1 0xF0 SHL PUSH1 0x44 DUP3 ADD MSTORE PUSH1 0x64 ADD PUSH2 0x530 JUMP JUMPDEST PUSH1 0x40 DUP1 MLOAD PUSH1 0x80 DUP2 ADD DUP3 MSTORE DUP7 DUP2 MSTORE PUSH1 0x1 PUSH1 0x1 PUSH1 0xA0 SHL SUB DUP1 DUP8 AND PUSH1 0x20 DUP1 DUP5 ADD SWAP2 DUP3 MSTORE DUP4 DUP6 ADD DUP9 DUP2 MSTORE DUP8 DUP5 AND PUSH1 0x60 DUP7 ADD SWAP1 DUP2 MSTORE PUSH1 0x0 DUP14 DUP2 MSTORE PUSH1 0x6 DUP5 MSTORE DUP8 DUP2 KECCAK256 SWAP7 MLOAD DUP8 SSTORE SWAP4 MLOAD PUSH1 0x1 DUP1 DUP9 ADD DUP1 SLOAD SWAP3 DUP9 AND PUSH1 0x1 PUSH1 0x1 PUSH1 0xA0 SHL SUB NOT SWAP4 DUP5 AND OR SWAP1 SSTORE SWAP3 MLOAD PUSH1 0x2 DUP9 ADD SSTORE SWAP1 MLOAD PUSH1 0x3 SWAP1 SWAP7 ADD DUP1 SLOAD SWAP7 SWAP1 SWAP6 AND SWAP6 AND SWAP5 SWAP1 SWAP5 OR SWAP1 SWAP3 SSTORE PUSH1 0x5 SWAP1 SWAP2 MSTORE DUP3 SWAP1 KECCAK256 DUP1 SLOAD PUSH1 0xFF NOT AND SWAP1 SWAP2 OR SWAP1 SSTORE MLOAD PUSH32 0x4126DE2C73B6B69D46D3290EE98241C5C18CE39A61B29E4E91F877A6D56BB213 SWAP1 PUSH2 0x18C6 SWAP1 DUP9 SWAP1 DUP9 SWAP1 DUP9 SWAP1 DUP9 SWAP1 DUP9 SWAP1 SWAP5 DUP6 MSTORE PUSH1 0x20 DUP6 ADD SWAP4 SWAP1 SWAP4 MSTORE PUSH1 0x1 PUSH1 0x1 PUSH1 0xA0 SHL SUB SWAP2 DUP3 AND PUSH1 0x40 DUP6 ADD MSTORE PUSH1 0x60 DUP5 ADD MSTORE AND PUSH1 0x80 DUP3 ADD MSTORE PUSH1 0xA0 ADD SWAP1 JUMP JUMPDEST PUSH1 0x40 MLOAD DUP1 SWAP2 SUB SWAP1 LOG1 POP POP POP POP POP POP JUMP JUMPDEST PUSH1 0x0 DUP2 PUSH1 0x1 PUSH1 0x1 PUSH1 0xA0 SHL SUB AND DUP4 PUSH1 0x40 MLOAD PUSH1 0x0 PUSH1 0x40 MLOAD DUP1 DUP4 SUB DUP2 DUP6 DUP8 GAS CALL SWAP3 POP POP POP RETURNDATASIZE DUP1 PUSH1 0x0 DUP2 EQ PUSH2 0x1923 JUMPI PUSH1 0x40 MLOAD SWAP2 POP PUSH1 0x1F NOT PUSH1 0x3F RETURNDATASIZE ADD AND DUP3 ADD PUSH1 0x40 MSTORE RETURNDATASIZE DUP3 MSTORE RETURNDATASIZE PUSH1 0x0 PUSH1 0x20 DUP5 ADD RETURNDATACOPY PUSH2 0x1928 JUMP JUMPDEST PUSH1 0x60 SWAP2 POP JUMPDEST POP POP SWAP1 POP DUP1 PUSH2 0x5BB JUMPI PUSH1 0x40 MLOAD PUSH3 0x461BCD PUSH1 0xE5 SHL DUP2 MSTORE PUSH1 0x20 PUSH1 0x4 DUP3 ADD MSTORE PUSH1 0x2 PUSH1 0x24 DUP3 ADD MSTORE PUSH2 0x2A23 PUSH1 0xF1 SHL PUSH1 0x44 DUP3 ADD MSTORE PUSH1 0x64 ADD PUSH2 0x530 JUMP JUMPDEST PUSH1 0x1 PUSH1 0x1 PUSH1 0xA0 SHL SUB DUP3 AND PUSH1 0x0 SWAP1 DUP2 MSTORE PUSH1 0x9 PUSH1 0x20 MSTORE PUSH1 0x40 DUP2 KECCAK256 DUP1 SLOAD DUP4 SWAP3 SWAP1 PUSH2 0x1986 SWAP1 DUP5 SWAP1 PUSH2 0x1D16 JUMP JUMPDEST SWAP1 SWAP2 SSTORE POP POP PUSH1 0x1 PUSH1 0x1 PUSH1 0xA0 SHL SUB DUP3 AND PUSH1 0x0 SWAP1 DUP2 MSTORE PUSH1 0xA PUSH1 0x20 MSTORE PUSH1 0x40 DUP2 KECCAK256 DUP1 SLOAD DUP4 SWAP3 SWAP1 PUSH2 0x19B3 SWAP1 DUP5 SWAP1 PUSH2 0x1D16 JUMP JUMPDEST SWAP1 SWAP2 SSTORE POP POP POP POP JUMP JUMPDEST PUSH1 0x0 DUP4 GT PUSH2 0x19F1 JUMPI PUSH1 0x40 MLOAD PUSH3 0x461BCD PUSH1 0xE5 SHL DUP2 MSTORE PUSH1 0x20 PUSH1 0x4 DUP3 ADD MSTORE PUSH1 0x2 PUSH1 0x24 DUP3 ADD MSTORE PUSH2 0x29AD PUSH1 0xF1 SHL PUSH1 0x44 DUP3 ADD MSTORE PUSH1 0x64 ADD PUSH2 0x530 JUMP JUMPDEST PUSH1 0x40 MLOAD PUSH12 0xFFFFFFFFFFFFFFFFFFFFFFFF NOT PUSH1 0x60 DUP5 SWAP1 SHL AND PUSH1 0x20 DUP3 ADD MSTORE PUSH1 0x34 DUP2 ADD DUP3 SWAP1 MSTORE PUSH1 0x0 SWAP1 PUSH1 0x54 ADD PUSH1 0x40 DUP1 MLOAD DUP1 DUP4 SUB PUSH1 0x1F NOT ADD DUP2 MSTORE DUP3 DUP3 MSTORE DUP1 MLOAD PUSH1 0x20 SWAP2 DUP3 ADD KECCAK256 PUSH1 0x1 PUSH1 0x1 PUSH1 0xA0 SHL SUB DUP8 DUP2 AND PUSH1 0x0 DUP2 DUP2 MSTORE PUSH1 0x4 DUP6 MSTORE DUP6 DUP2 KECCAK256 DUP5 SWAP1 SSTORE DUP4 DUP2 MSTORE PUSH1 0x7 DUP6 MSTORE DUP6 DUP2 KECCAK256 PUSH1 0x0 NOT SWAP1 SSTORE PUSH1 0x60 DUP1 DUP9 ADD DUP8 MSTORE DUP12 DUP9 MSTORE DUP6 DUP9 ADD DUP4 DUP2 MSTORE DUP9 DUP9 ADD DUP12 DUP2 MSTORE DUP7 DUP5 MSTORE PUSH1 0x3 DUP9 MSTORE SWAP3 DUP9 SWAP1 KECCAK256 SWAP9 MLOAD DUP10 SSTORE MLOAD PUSH1 0x1 DUP10 ADD DUP1 SLOAD PUSH1 0x1 PUSH1 0x1 PUSH1 0xA0 SHL SUB NOT AND SWAP2 SWAP1 SWAP6 AND OR SWAP1 SWAP4 SSTORE MLOAD PUSH1 0x2 SWAP1 SWAP7 ADD SWAP6 SWAP1 SWAP6 SSTORE DUP4 MLOAD DUP3 DUP2 MSTORE SWAP3 DUP4 ADD SWAP5 SWAP1 SWAP5 MSTORE SWAP2 DUP2 ADD DUP6 SWAP1 MSTORE SWAP1 SWAP3 POP PUSH32 0x90E88E994885F1CDD31D3393F0B012E817804FC9D2ADEF69D0D7E5053D1E29AD SWAP2 ADD PUSH1 0x40 MLOAD DUP1 SWAP2 SUB SWAP1 LOG1 POP POP POP POP JUMP JUMPDEST PUSH1 0x0 DUP3 DUP2 MSTORE PUSH1 0x3 PUSH1 0x20 SWAP1 DUP2 MSTORE PUSH1 0x40 DUP1 DUP4 KECCAK256 PUSH1 0x1 ADD SLOAD PUSH1 0x1 PUSH1 0x1 PUSH1 0xA0 SHL SUB AND DUP4 MSTORE PUSH1 0x4 DUP3 MSTORE DUP1 DUP4 KECCAK256 DUP4 SWAP1 SSTORE DUP5 DUP4 MSTORE PUSH1 0x7 DUP3 MSTORE SWAP2 DUP3 SWAP1 KECCAK256 DUP4 SWAP1 SSTORE DUP2 MLOAD DUP5 DUP2 MSTORE SWAP1 DUP2 ADD DUP4 SWAP1 MSTORE PUSH32 0xA3DEAFDE27C3FFDE83F038B337D8B0405D225455AE09FBED6A211EF4EE465F4F SWAP2 ADD PUSH1 0x40 MLOAD DUP1 SWAP2 SUB SWAP1 LOG1 POP POP JUMP JUMPDEST PUSH1 0x0 PUSH1 0x20 DUP3 DUP5 SUB SLT ISZERO PUSH2 0x1B6D JUMPI PUSH1 0x0 DUP1 REVERT JUMPDEST POP CALLDATALOAD SWAP2 SWAP1 POP JUMP JUMPDEST DUP1 CALLDATALOAD PUSH1 0x1 PUSH1 0x1 PUSH1 0xA0 SHL SUB DUP2 AND DUP2 EQ PUSH2 0x1B8B JUMPI PUSH1 0x0 DUP1 REVERT JUMPDEST SWAP2 SWAP1 POP JUMP JUMPDEST PUSH1 0x0 PUSH1 0x20 DUP3 DUP5 SUB SLT ISZERO PUSH2 0x1BA2 JUMPI PUSH1 0x0 DUP1 REVERT JUMPDEST PUSH2 0xF4A DUP3 PUSH2 0x1B74 JUMP JUMPDEST PUSH1 0x0 DUP1 PUSH1 0x40 DUP4 DUP6 SUB SLT ISZERO PUSH2 0x1BBE JUMPI PUSH1 0x0 DUP1 REVERT JUMPDEST PUSH2 0x1BC7 DUP4 PUSH2 0x1B74 JUMP JUMPDEST SWAP5 PUSH1 0x20 SWAP4 SWAP1 SWAP4 ADD CALLDATALOAD SWAP4 POP POP POP JUMP JUMPDEST PUSH1 0x0 DUP1 PUSH1 0x0 PUSH1 0x60 DUP5 DUP7 SUB SLT ISZERO PUSH2 0x1BEA JUMPI PUSH1 0x0 DUP1 REVERT JUMPDEST DUP4 CALLDATALOAD SWAP3 POP PUSH1 0x20 DUP5 ADD CALLDATALOAD SWAP2 POP PUSH2 0x1C01 PUSH1 0x40 DUP6 ADD PUSH2 0x1B74 JUMP JUMPDEST SWAP1 POP SWAP3 POP SWAP3 POP SWAP3 JUMP JUMPDEST PUSH1 0x0 DUP1 PUSH1 0x40 DUP4 DUP6 SUB SLT ISZERO PUSH2 0x1C1D JUMPI PUSH1 0x0 DUP1 REVERT JUMPDEST POP POP DUP1 CALLDATALOAD SWAP3 PUSH1 0x20 SWAP1 SWAP2 ADD CALLDATALOAD SWAP2 POP JUMP JUMPDEST PUSH1 0x0 DUP1 PUSH1 0x0 DUP1 PUSH1 0x0 PUSH1 0xA0 DUP7 DUP9 SUB SLT ISZERO PUSH2 0x1C44 JUMPI PUSH1 0x0 DUP1 REVERT JUMPDEST DUP6 CALLDATALOAD SWAP5 POP PUSH1 0x20 DUP7 ADD CALLDATALOAD SWAP4 POP PUSH2 0x1C5B PUSH1 0x40 DUP8 ADD PUSH2 0x1B74 JUMP JUMPDEST SWAP3 POP PUSH1 0x60 DUP7 ADD CALLDATALOAD SWAP2 POP PUSH2 0x1C70 PUSH1 0x80 DUP8 ADD PUSH2 0x1B74 JUMP JUMPDEST SWAP1 POP SWAP3 SWAP6 POP SWAP3 SWAP6 SWAP1 SWAP4 POP JUMP JUMPDEST PUSH4 0x4E487B71 PUSH1 0xE0 SHL PUSH1 0x0 MSTORE PUSH1 0x11 PUSH1 0x4 MSTORE PUSH1 0x24 PUSH1 0x0 REVERT JUMPDEST DUP1 DUP3 ADD DUP1 DUP3 GT ISZERO PUSH2 0x7E2 JUMPI PUSH2 0x7E2 PUSH2 0x1C7C JUMP JUMPDEST PUSH1 0x20 DUP1 DUP3 MSTORE PUSH1 0x2 SWAP1 DUP3 ADD MSTORE PUSH2 0x9E9 PUSH1 0xF3 SHL PUSH1 0x40 DUP3 ADD MSTORE PUSH1 0x60 ADD SWAP1 JUMP JUMPDEST PUSH1 0x20 DUP1 DUP3 MSTORE PUSH1 0x2 SWAP1 DUP3 ADD MSTORE PUSH2 0x5553 PUSH1 0xF0 SHL PUSH1 0x40 DUP3 ADD MSTORE PUSH1 0x60 ADD SWAP1 JUMP JUMPDEST DUP1 DUP3 MUL DUP2 ISZERO DUP3 DUP3 DIV DUP5 EQ OR PUSH2 0x7E2 JUMPI PUSH2 0x7E2 PUSH2 0x1C7C JUMP JUMPDEST PUSH1 0x0 DUP3 PUSH2 0x1D11 JUMPI PUSH4 0x4E487B71 PUSH1 0xE0 SHL PUSH1 0x0 MSTORE PUSH1 0x12 PUSH1 0x4 MSTORE PUSH1 0x24 PUSH1 0x0 REVERT JUMPDEST POP DIV SWAP1 JUMP JUMPDEST DUP2 DUP2 SUB DUP2 DUP2 GT ISZERO PUSH2 0x7E2 JUMPI PUSH2 0x7E2 PUSH2 0x1C7C JUMP JUMPDEST PUSH1 0x0 PUSH1 0x20 DUP3 DUP5 SUB SLT ISZERO PUSH2 0x1D3B JUMPI PUSH1 0x0 DUP1 REVERT JUMPDEST POP MLOAD SWAP2 SWAP1 POP JUMP JUMPDEST PUSH1 0x20 DUP1 DUP3 MSTORE PUSH1 0x2 SWAP1 DUP3 ADD MSTORE PUSH2 0x1255 PUSH1 0xF2 SHL PUSH1 0x40 DUP3 ADD MSTORE PUSH1 0x60 ADD SWAP1 JUMP JUMPDEST PUSH1 0x0 PUSH1 0x20 DUP3 DUP5 SUB SLT ISZERO PUSH2 0x1D70 JUMPI PUSH1 0x0 DUP1 REVERT JUMPDEST DUP2 MLOAD DUP1 ISZERO ISZERO DUP2 EQ PUSH2 0xF4A JUMPI PUSH1 0x0 DUP1 REVERT JUMPDEST PUSH1 0x20 DUP1 DUP3 MSTORE PUSH1 0x2 SWAP1 DUP3 ADD MSTORE PUSH2 0x1395 PUSH1 0xF2 SHL PUSH1 0x40 DUP3 ADD MSTORE PUSH1 0x60 ADD SWAP1 JUMP JUMPDEST PUSH1 0x0 PUSH1 0x1 DUP3 ADD PUSH2 0x1DAE JUMPI PUSH2 0x1DAE PUSH2 0x1C7C JUMP JUMPDEST POP PUSH1 0x1 ADD SWAP1 JUMP INVALID LOG2 PUSH5 0x6970667358 0x22 SLT KECCAK256 0x49 ORIGIN 0xDD INVALID 0xE7 LOG4 TIMESTAMP MUL 0xE6 0xBD SWAP4 0x2F MSIZE 0xB5 0x2D 0xD1 CREATE2 0xF6 SWAP5 EXP 0x26 PUSH6 0x6643DCCFDE4F BLOCKHASH 0x1E DUP1 PUSH23 0x64736F6C63430008130033000000000000000000000000 ",
  "sha1": "73441b22b29bad724158c0c35e9d34b2756b659e",
  "source": "// SPDX-License-Identifier: GPL-3.0-or-later\n\npragma solidity ^0.8.4;\n\nimport \"./shardable.sol\";\n\n/// @title A proof of fractional ownership of an entity with valuables.\n/// @author Frederik W. L. Christoffersen\n/// @notice This contract is used as an administrable business entity. \n/// @custom:illustration Idea => Idea.Administration => Idea\n/// @custom:beaware This is a commercial contract.\ncontract Idea is Shardable {\n\n    /// @notice Mapping pointing to boolean stating if a given token address is valid and registered or not.\n    mapping(address => bool) validTokenAddresses;\n\n\t/// @notice Mapping pointing to a value/amount given the address of an ERC20 token.\n    mapping(address => uint256) public liquid;\n\n    /// @notice Mapping pointing to the value/amount of a liquid token left to be claimed after liquidization/inactivation of the Idea.\n    mapping(address => uint256) liquidResidual;\n\n    /// @notice Mapping pointing to another mapping (given a token address) pointing to a boolean stating if the owner of a given Shard has claimed their fair share following a liquidization.\n    mapping(address => mapping(bytes32 => bool)) hasClaimedLiquid;\n\n    /// @notice Event that triggers when a token is received.\n    /// @param tokenAddress The address of the received token.\n    /// @param value The value/amount of the received token.\n    /// @param from The sender of the received token.\n    event TokenReceived(\n        address tokenAddress,\n        uint256 value,\n        address from\n    );\n\n    /// @notice Event that triggers when part of the liquid is claimed following a liquidization.\n    /// @param tokenAddress The address of the claimed token.\n    /// @param value The value/amount of the claimed token.\n    event LiquidClaimed(\n        address tokenAddress,\n        uint256 value,\n        address by\n    );\n\n    /// @notice Constructor function that pushes the first Shard being the property of the Shardable creator.\n    /// @param amount Amount of shards to construct Shardable with.\n    constructor(uint256 amount) Shardable(amount) {\n\n    }\n\n    /// @notice Receive function that receives ether when there's no supplying data\n    receive() external payable {\n        _processTokenReceipt(address(0),msg.value,msg.sender);\n    }\n\n    /// @notice Receives a specified token and adds it to the registry. Make sure 'token.approve()' is called beforehand.\n    /// @param tokenAddress The address of the token to be received.\n    /// @param value The value/amount of the token to be received.\n    function receiveToken(address tokenAddress, uint256 value) external {\n        _receiveToken(tokenAddress,value);\n    }\n\n    /// @notice Claims the owed liquid value corresponding to the shard holder's respective shard fraction after the entity has been liquidized/dissolved.\n    /// @param tokenAddress The address of the token to be claimed.\n    function claimLiquid(address tokenAddress) external onlyShardHolder {\n        require(acceptsToken(tokenAddress), \"UT\");\n        bytes32 shard = shardByOwner[msg.sender];\n        require(!hasClaimedLiquid[tokenAddress][shard], \"AC\");\n        hasClaimedLiquid[tokenAddress][shard] = true;\n        uint256 liquidValue = liquid[tokenAddress] * infoByShard[shard].amount / totalShardAmountByClock[clock];\n        require(liquidValue != 0, \"\");\n        liquidResidual[tokenAddress] -= liquidValue;\n        _transferToken(tokenAddress,liquidValue,msg.sender);\n        emit LiquidClaimed(tokenAddress,liquidValue,msg.sender);\n    }\n\n    /// @notice Returns the residual of a liquid, after liquidization/inactivation.\n    /// @param tokenAddress The address of the token to be checked for.\n    function getLiquidResidual(address tokenAddress) public view returns(uint256) {\n        return liquidResidual[tokenAddress];\n    }\n    \n    /// @notice Returns a boolean value, stating if the given token address is registered as acceptable or not.\n    /// @param tokenAddress The address of the token to be checked for.\n    function acceptsToken(address tokenAddress) public view returns(bool) {\n      return validTokenAddresses[tokenAddress] == true || tokenAddress == address(0);\n    }\n\n    /// @notice Issues new shards and puts them for sale.\n    /// @param tokenAddress The token address the shards are put for sale for.\n    /// @param price The price per token.\n    /// @param to The specifically set buyer of the issued shards. Open to anyone, if address(0).\n    function _issueShards(uint256 amount, address tokenAddress, uint256 price, address to) internal {\n        require(acceptsToken(tokenAddress));\n        _expireShard(shardByOwner[address(this)],clock);\n        _pushShard(amount+infoByShard[shardByOwner[address(this)]].amount,address(this),clock);\n        _putForSale(shardByOwner[address(this)],amount,tokenAddress,price,to);\n    }\n\n    /// @notice Transfers a token from the Idea to a recipient. \n    /// @dev First 'token.approve()' is called, then 'to.receiveToken()', if it's an Idea.\n    /// @param tokenAddress The address of the token to be transferred.\n    /// @param value The value/amount of the token to be transferred.\n    /// @param to The recipient of the token to be transferred.\n    function _transferToken(address tokenAddress, uint256 value, address to) internal {\n        require(liquid[tokenAddress] >= value, \"IT\");\n        if (tokenAddress == address(0)) { _transferEther(value, to);}\n        else {\n            ERC20 token = ERC20(tokenAddress);\n            require(token.approve(to, value), \"NA\");\n            if (to.code.length > 0) {\n                try IIdea(to).receiveToken(tokenAddress, value) {\n                    // do nothing\n                }\n                catch {// do regular and skip the exception}\n                    require(token.transfer(to,value), \"NT\");\n                }\n            }\n            else {\n              require(token.transfer(to,value), \"NT\");\n            }\n        }\n        if (active) {_processTokenTransfer(tokenAddress,value);}\n        \n    }\n\n    /// @notice Transfers ether from the Idea to a recipient\n    /// @param value The value/amount of ether to be transferred.\n    /// @param to The recipient of the ether to be transferred.\n    function _transferEther(uint256 value, address to) internal {\n        (bool success, ) = address(to).call{value:value}(\"\");\n        require(success, \"TF\");\n    }\n\n    /// @notice Receives a specified token and adds it to the registry. Make sure 'token.approve()' is called beforehand.\n    /// @param tokenAddress The address of the token to be received.\n    /// @param value The value/amount of the token to be received.\n    function _receiveToken(address tokenAddress, uint256 value) internal {\n        require(acceptsToken(tokenAddress),\"UT\");\n        ERC20 token = ERC20(tokenAddress);\n        require(token.allowance(msg.sender,address(this)) >= value,\"IT\");\n        require(token.transferFrom(msg.sender,address(this), value), \"NT\");\n        _processTokenReceipt(tokenAddress,value,msg.sender);\n    }\n\n    /// @notice Processes a token receipt and adds it to the token registry.\n    /// @param tokenAddress The address of the received token.\n    /// @param value The value/amount of the received token.\n    /// @param from The sender of the received token.\n    function _processTokenReceipt(address tokenAddress, uint256 value, address from) virtual internal {\n        liquid[tokenAddress] += value;\n        liquidResidual[tokenAddress] += value;\n        emit TokenReceived(tokenAddress,value,from);\n    }\n\n    /// @notice Processes a token transfer and subtracts it from the token registry.\n    /// @param tokenAddress The address of the transferred token.\n    /// @param value The value/amount of the transferred token.\n    function _processTokenTransfer(address tokenAddress, uint256 value) virtual internal {\n        liquid[tokenAddress] -= value;\n        liquidResidual[tokenAddress] -= value;\n    }\n\n    /// @notice Adds a token address to the registry. Also approves any future receipts of said token unless removed again.\n    /// @param tokenAddress The token address to be registered.\n    function _registerTokenAddress(address tokenAddress) virtual internal {\n        require(!acceptsToken(tokenAddress), \"AR\");\n        validTokenAddresses[tokenAddress] = true;\n    }\n\n    /// @notice Removes a token address from the registry. Also cancels any future receipts of said token unless added again.\n    /// @param tokenAddress The token address to be unregistered.\n    function _unregisterTokenAddress(address tokenAddress) virtual internal {\n        require(acceptsToken(tokenAddress), \"UT\");\n        require(liquid[tokenAddress] == 0, \"NZ\");\n        validTokenAddresses[tokenAddress] = false;\n    }\n\n    /// @notice Liquidizes and dissolves the entity. This cannot be undone.\n    function _liquidize() virtual internal onlyIfActive {\n        active = false; // stops trading of Shards\n    }\n\n    /// @notice Pays profit to the seller during a shard purchase. \n    /// @dev Is modified. Takes into account buying of issued shards.\n    /// @param account The address of the seller.\n    /// @param account The address of the token address.\n    /// @param value The value to be sent to the seller as payment. \n    function _payProfitToSeller(address account, address tokenAddress, uint256 value) override internal {\n        if (account == address(this)) { // if seller is this contract (msg.sender buys newly issued shards)\n            _receiveToken(tokenAddress,value); // then the payment gets received and processed\n        }\n        else {\n            ERC20 token = ERC20(tokenAddress);\n            require(token.transferFrom(msg.sender,address(this), value), \"NT\");\n        }\n        \n    }\n\n}\n",
  "sourcePath": "contracts/idea.sol",
  "type": "contract"
}