{
  "abi": [
    {
      "inputs": [],
      "stateMutability": "nonpayable",
      "type": "constructor"
    },
    {
      "anonymous": false,
      "inputs": [
        {
          "indexed": false,
          "internalType": "bytes32",
          "name": "shard",
          "type": "bytes32"
        },
        {
          "indexed": false,
          "internalType": "address",
          "name": "owner",
          "type": "address"
        },
        {
          "indexed": false,
          "internalType": "uint256",
          "name": "creationClock",
          "type": "uint256"
        }
      ],
      "name": "NewShard",
      "type": "event"
    },
    {
      "anonymous": false,
      "inputs": [
        {
          "indexed": false,
          "internalType": "bytes32",
          "name": "shard",
          "type": "bytes32"
        },
        {
          "indexed": false,
          "internalType": "uint256",
          "name": "numerator",
          "type": "uint256"
        },
        {
          "indexed": false,
          "internalType": "uint256",
          "name": "denominator",
          "type": "uint256"
        },
        {
          "indexed": false,
          "internalType": "address",
          "name": "tokenAddress",
          "type": "address"
        },
        {
          "indexed": false,
          "internalType": "uint256",
          "name": "price",
          "type": "uint256"
        },
        {
          "indexed": false,
          "internalType": "address",
          "name": "to",
          "type": "address"
        }
      ],
      "name": "PutForSale",
      "type": "event"
    },
    {
      "anonymous": false,
      "inputs": [
        {
          "indexed": false,
          "internalType": "bytes32",
          "name": "shard",
          "type": "bytes32"
        },
        {
          "indexed": false,
          "internalType": "uint256",
          "name": "numerator",
          "type": "uint256"
        },
        {
          "indexed": false,
          "internalType": "uint256",
          "name": "denominator",
          "type": "uint256"
        },
        {
          "indexed": false,
          "internalType": "address",
          "name": "to",
          "type": "address"
        },
        {
          "indexed": false,
          "internalType": "address",
          "name": "tokenAddress",
          "type": "address"
        },
        {
          "indexed": false,
          "internalType": "uint256",
          "name": "price",
          "type": "uint256"
        }
      ],
      "name": "SaleSold",
      "type": "event"
    },
    {
      "inputs": [],
      "name": "active",
      "outputs": [
        {
          "internalType": "bool",
          "name": "",
          "type": "bool"
        }
      ],
      "stateMutability": "view",
      "type": "function"
    },
    {
      "inputs": [
        {
          "internalType": "bytes32",
          "name": "shard",
          "type": "bytes32"
        }
      ],
      "name": "cancelSale",
      "outputs": [],
      "stateMutability": "nonpayable",
      "type": "function"
    },
    {
      "inputs": [
        {
          "internalType": "bytes32",
          "name": "shard",
          "type": "bytes32"
        }
      ],
      "name": "getShardExpiredClock",
      "outputs": [
        {
          "internalType": "uint256",
          "name": "",
          "type": "uint256"
        }
      ],
      "stateMutability": "view",
      "type": "function"
    },
    {
      "inputs": [
        {
          "internalType": "bytes32",
          "name": "shard",
          "type": "bytes32"
        }
      ],
      "name": "getShardSalePrice",
      "outputs": [
        {
          "internalType": "uint256",
          "name": "",
          "type": "uint256"
        }
      ],
      "stateMutability": "view",
      "type": "function"
    },
    {
      "inputs": [
        {
          "internalType": "bytes32",
          "name": "",
          "type": "bytes32"
        }
      ],
      "name": "infoByShard",
      "outputs": [
        {
          "internalType": "uint256",
          "name": "numerator",
          "type": "uint256"
        },
        {
          "internalType": "uint256",
          "name": "denominator",
          "type": "uint256"
        },
        {
          "internalType": "address",
          "name": "owner",
          "type": "address"
        },
        {
          "internalType": "uint256",
          "name": "creationClock",
          "type": "uint256"
        }
      ],
      "stateMutability": "view",
      "type": "function"
    },
    {
      "inputs": [
        {
          "internalType": "address",
          "name": "account",
          "type": "address"
        }
      ],
      "name": "isShardHolder",
      "outputs": [
        {
          "internalType": "bool",
          "name": "",
          "type": "bool"
        }
      ],
      "stateMutability": "view",
      "type": "function"
    },
    {
      "inputs": [
        {
          "internalType": "bytes32",
          "name": "shard",
          "type": "bytes32"
        }
      ],
      "name": "isValidShard",
      "outputs": [
        {
          "internalType": "bool",
          "name": "",
          "type": "bool"
        }
      ],
      "stateMutability": "view",
      "type": "function"
    },
    {
      "inputs": [
        {
          "internalType": "bytes32",
          "name": "shard",
          "type": "bytes32"
        }
      ],
      "name": "purchase",
      "outputs": [],
      "stateMutability": "payable",
      "type": "function"
    },
    {
      "inputs": [
        {
          "internalType": "bytes32",
          "name": "shard",
          "type": "bytes32"
        },
        {
          "internalType": "uint256",
          "name": "numerator",
          "type": "uint256"
        },
        {
          "internalType": "uint256",
          "name": "denominator",
          "type": "uint256"
        },
        {
          "internalType": "address",
          "name": "tokenAddress",
          "type": "address"
        },
        {
          "internalType": "uint256",
          "name": "price",
          "type": "uint256"
        },
        {
          "internalType": "address",
          "name": "to",
          "type": "address"
        }
      ],
      "name": "putForSale",
      "outputs": [],
      "stateMutability": "nonpayable",
      "type": "function"
    },
    {
      "inputs": [
        {
          "internalType": "address",
          "name": "",
          "type": "address"
        }
      ],
      "name": "shardByOwner",
      "outputs": [
        {
          "internalType": "bytes32",
          "name": "",
          "type": "bytes32"
        }
      ],
      "stateMutability": "view",
      "type": "function"
    },
    {
      "inputs": [
        {
          "internalType": "bytes32",
          "name": "shard",
          "type": "bytes32"
        },
        {
          "internalType": "uint256",
          "name": "atClock",
          "type": "uint256"
        }
      ],
      "name": "shardExisted",
      "outputs": [
        {
          "internalType": "bool",
          "name": "",
          "type": "bool"
        }
      ],
      "stateMutability": "view",
      "type": "function"
    },
    {
      "inputs": [
        {
          "internalType": "bytes32",
          "name": "senderShard",
          "type": "bytes32"
        },
        {
          "internalType": "uint256",
          "name": "numerator",
          "type": "uint256"
        },
        {
          "internalType": "uint256",
          "name": "denominator",
          "type": "uint256"
        },
        {
          "internalType": "address",
          "name": "to",
          "type": "address"
        }
      ],
      "name": "split",
      "outputs": [],
      "stateMutability": "nonpayable",
      "type": "function"
    },
    {
      "inputs": [
        {
          "internalType": "bytes32",
          "name": "senderShard",
          "type": "bytes32"
        },
        {
          "internalType": "address",
          "name": "to",
          "type": "address"
        }
      ],
      "name": "transferShard",
      "outputs": [],
      "stateMutability": "nonpayable",
      "type": "function"
    }
  ],
  "bytecode": "60806040526000805534801561001457600080fd5b50610023600180336000610034565b6001805460ff19168117905561013b565b6040516001600160601b0319606084901b1660208201526034810182905260009060540160408051808303601f1901815282825280516020918201206001600160a01b03878116600081815260038086528682208590558482526006865286822060001990556080880187528c88528588018c81528888018481526060808b018d81528886526002808b52958b90209b518c55925160018c01559051938a0180546001600160a01b0319169490961693909317909455925196909201959095558351828152928301949094529181018590529092507f90e88e994885f1cdd31d3393f0b012e817804fc9d2adef69d0d7e5053d1e29ad910160405180910390a15050505050565b6117018061014a6000396000f3fe6080604052600436106100c25760003560e01c8063b8e85f471161007f578063cc44561111610059578063cc4456111461029c578063e1c34c1f146102af578063f9983896146102cf578063fd06636b146102ef57600080fd5b8063b8e85f47146101c6578063bcedb2e0146101f3578063c4802eb21461026f57600080fd5b806302fb0c5e146100c75780630bea8985146100f65780634f52a71e146101185780637b785493146101385780638d7844a6146101765780639995b9a914610196575b600080fd5b3480156100d357600080fd5b506001546100e19060ff1681565b60405190151581526020015b60405180910390f35b34801561010257600080fd5b50610116610111366004611442565b61030f565b005b34801561012457600080fd5b50610116610133366004611477565b6103db565b34801561014457600080fd5b50610168610153366004611442565b60009081526005602052604090206003015490565b6040519081526020016100ed565b34801561018257600080fd5b506101166101913660046114a3565b61045d565b3480156101a257600080fd5b506100e16101b1366004611442565b60008054918152600660205260409020541190565b3480156101d257600080fd5b506101686101e1366004611442565b60009081526006602052604090205490565b3480156101ff57600080fd5b5061024061020e366004611442565b600260208190526000918252604090912080546001820154928201546003909201549092916001600160a01b03169084565b6040516100ed949392919093845260208401929092526001600160a01b03166040830152606082015260800190565b34801561027b57600080fd5b5061016861028a3660046114e2565b60036020526000908152604090205481565b6101166102aa366004611442565b6104e3565b3480156102bb57600080fd5b506100e16102ca3660046114e2565b610a91565b3480156102db57600080fd5b506101166102ea3660046114fd565b610ac9565b3480156102fb57600080fd5b506100e161030a366004611555565b610b53565b6000818152600260208190526040909120015481906001600160a01b031633146103545760405162461bcd60e51b815260040161034b90611577565b60405180910390fd5b8161036e8160008054918152600660205260409020541190565b61038a5760405162461bcd60e51b815260040161034b90611593565b60008381526004602052604090205460ff166103cd5760405162461bcd60e51b81526020600482015260026024820152614e5360f01b604482015260640161034b565b6103d683610b88565b505050565b6000828152600260208190526040909120015482906001600160a01b031633146104175760405162461bcd60e51b815260040161034b90611577565b826104318160008054918152600660205260409020541190565b61044d5760405162461bcd60e51b815260040161034b90611593565b6104578484610bd7565b50505050565b6000848152600260208190526040909120015484906001600160a01b031633146104995760405162461bcd60e51b815260040161034b90611577565b846104b38160008054918152600660205260409020541190565b6104cf5760405162461bcd60e51b815260040161034b90611593565b6104db86868686610d5e565b505050505050565b806104fd8160008054918152600660205260409020541190565b6105195760405162461bcd60e51b815260040161034b90611593565b60008281526004602052604090205460ff1661055c5760405162461bcd60e51b81526020600482015260026024820152614e5360f01b604482015260640161034b565b6000828152600560205260409020600401546001600160a01b031633148061059c57506000828152600560205260409020600401546001600160a01b0316155b6105cd5760405162461bcd60e51b815260206004820152600260248201526129a960f11b604482015260640161034b565b6105d682610b88565b600082815260056020526040812060030154819081906105fa9060196103e8610f5e565b9194509250905061060b81836115c5565b6000868152600560205260409020600201549092506001600160a01b031661077d576000858152600560205260409020600301543410156106735760405162461bcd60e51b8152602060048201526002602482015261494560f01b604482015260640161034b565b6040516000907349a71890aea5a751e30e740c504f2e9683f347bc9085908381818185875af1925050503d80600081146106c9576040519150601f19603f3d011682016040523d82523d6000602084013e6106ce565b606091505b5050600087815260026020819052604080832090910154905192935090916001600160a01b039091169085908381818185875af1925050503d8060008114610732576040519150601f19603f3d011682016040523d82523d6000602084013e610737565b606091505b505090508080156107455750815b6107765760405162461bcd60e51b81526020600482015260026024820152612a2360f11b604482015260640161034b565b5050610958565b6000858152600560205260409081902060028101546003909101549151636eb1769f60e11b81523360048201523060248201526001600160a01b039091169190829063dd62ed3e90604401602060405180830381865afa1580156107e5573d6000803e3d6000fd5b505050506040513d601f19601f8201168201806040525081019061080991906115d8565b101561083c5760405162461bcd60e51b8152602060048201526002602482015261125560f21b604482015260640161034b565b6040516323b872dd60e01b81523360048201527349a71890aea5a751e30e740c504f2e9683f347bc6024820152604481018590526001600160a01b038216906323b872dd906064016020604051808303816000875af11580156108a3573d6000803e3d6000fd5b505050506040513d601f19601f820116820180604052508101906108c791906115f1565b50600086815260026020819052604091829020015490516323b872dd60e01b81523360048201526001600160a01b03918216602482015260448101859052908216906323b872dd906064016020604051808303816000875af1158015610931573d6000803e3d6000fd5b505050506040513d601f19601f8201168201806040525081019061095591906115f1565b50505b60008581526005602052604090205415801590610985575060008581526005602052604090206001015415155b6109b65760405162461bcd60e51b8152602060048201526002602482015261455360f01b604482015260640161034b565b6000858152600260209081526040808320805460019182015460059094529190932080549301546109ea9391929190610fd2565b156109fe576109f98533610bd7565b610a20565b60008581526005602052604090208054600190910154610a2091879133610d5e565b6000858152600560205260409081902080546001820154600283015460039093015493517fd8d12448acb9a12d0ca44f527c717c0de64f03b49ca4032f87feae10af5eaabe94610a82948b94939233926001600160a01b039092169190611613565b60405180910390a15050505050565b6001600160a01b038116600090815260036020526040812054610ac39060008054918152600660205260409020541190565b92915050565b6000868152600260208190526040909120015486906001600160a01b03163314610b055760405162461bcd60e51b815260040161034b90611577565b86610b1f8160008054918152600660205260409020541190565b610b3b5760405162461bcd60e51b815260040161034b90611593565b610b49888888888888610feb565b5050505050505050565b6000828152600260205260408120600301548210801590610b81575060008381526006602052604090205482105b9392505050565b80610ba28160008054918152600660205260409020541190565b610bbe5760405162461bcd60e51b815260040161034b90611593565b506000908152600460205260409020805460ff19169055565b81610bf18160008054918152600660205260409020541190565b610c0d5760405162461bcd60e51b815260040161034b90611593565b6001805460ff16151514610c335760405162461bcd60e51b815260040161034b90611647565b600054610c3f83610a91565b15610cd4576001600160a01b038316600090815260036020526040902054610c74908260009182526006602052604090912055565b600084815260026020818152604080842080546001918201546001600160a01b038a168752600385528387205487529490935290842080549101548493610cbd93929091611224565b91509150610ccd82828786611260565b5050610cf6565b60008481526002602052604090208054600190910154610cf691908584611260565b60008481526006602090815260408083208490556002909152808220805460019091015491517fd8d12448acb9a12d0ca44f527c717c0de64f03b49ca4032f87feae10af5eaabe93610d5093899392909189918190611613565b60405180910390a150505050565b83610d788160008054918152600660205260409020541190565b610d945760405162461bcd60e51b815260040161034b90611593565b6001805460ff16151514610dba5760405162461bcd60e51b815260040161034b90611647565b600085815260026020526040902060018101549054610dd99190611679565b610de38486611679565b10610e155760405162461bcd60e51b815260206004820152600260248201526124a360f11b604482015260640161034b565b600054610e2183610a91565b15610ea7576001600160a01b03831660009081526003602090815260408083205483526002909152812080546001909101548291610e60918989611224565b91509150610e7082828786611260565b6001600160a01b038516600090815260036020526040902054610ea0908460009182526006602052604090912055565b5050610eb3565b610eb385858584611260565b60008681526006602090815260408083208490556002909152812080546001909101548291610ee3918989611362565b60008a815260026020819052604090912001549193509150610f1290839083906001600160a01b031686611260565b7fd8d12448acb9a12d0ca44f527c717c0de64f03b49ca4032f87feae10af5eaabe88888888600080604051610f4c96959493929190611613565b60405180910390a15050505050505050565b6000806000848411610f6f57600080fd5b600084610f7c878961168d565b610f869190611679565b9050600085610f9588826116a4565b610f9f908a61168d565b610fa99190611679565b90508181610fb781836115c5565b610fc1908b6116a4565b945094509450505093509350939050565b60008285148015610fe257508184145b95945050505050565b856110058160008054918152600660205260409020541190565b6110215760405162461bcd60e51b815260040161034b90611593565b6001805460ff161515146110475760405162461bcd60e51b815260040161034b90611647565b6000878152600260205260409020600181015490546110669190611679565b6110708688611679565b11156110a35760405162461bcd60e51b815260206004820152600260248201526124a360f11b604482015260640161034b565b6110ad8686611391565b80965081975050506040518060a00160405280878152602001868152602001856001600160a01b03168152602001848152602001836001600160a01b031681525060056000898152602001908152602001600020600082015181600001556020820151816001015560408201518160020160006101000a8154816001600160a01b0302191690836001600160a01b031602179055506060820151816003015560808201518160040160006101000a8154816001600160a01b0302191690836001600160a01b0316021790555090505060016004600089815260200190815260200160002060006101000a81548160ff0219169083151502179055507f4c4dcd7b4186fe1c900d89bc3c911766f63cf9c3570750481f0d89bfbcb7528587878787878760405161121396959493929190958652602086019490945260408501929092526001600160a01b03908116606085015260808401919091521660a082015260c00190565b60405180910390a150505050505050565b600080611231838761168d565b955061123d858561168d565b935061124984876115c5565b611253848761168d565b9150915094509492505050565b6040516bffffffffffffffffffffffff19606084901b1660208201526034810182905260009060540160408051808303601f1901815282825280516020918201206001600160a01b03878116600081815260038086528682208590558482526006865286822060001990556080880187528c88528588018c81528888018481526060808b018d81528886526002808b52958b90209b518c55925160018c01559051938a0180546001600160a01b0319169490961693909317909455925196909201959095558351828152928301949094529181018590529092507f90e88e994885f1cdd31d3393f0b012e817804fc9d2adef69d0d7e5053d1e29ad9101610a82565b60008061136f838761168d565b955061137b848661168d565b945061138785876116a4565b611253848661168d565b60008060006113a0858561141d565b90506113ac8185611679565b6113b68287611679565b6113c09190611679565b6113ca8587611679565b146113fd5760405162461bcd60e51b815260206004820152600360248201526215935560ea1b604482015260640161034b565b6114078186611679565b6114118286611679565b92509250509250929050565b60005b811561143b578161143181856116b7565b9093509150611420565b5090919050565b60006020828403121561145457600080fd5b5035919050565b80356001600160a01b038116811461147257600080fd5b919050565b6000806040838503121561148a57600080fd5b8235915061149a6020840161145b565b90509250929050565b600080600080608085870312156114b957600080fd5b8435935060208501359250604085013591506114d76060860161145b565b905092959194509250565b6000602082840312156114f457600080fd5b610b818261145b565b60008060008060008060c0878903121561151657600080fd5b8635955060208701359450604087013593506115346060880161145b565b92506080870135915061154960a0880161145b565b90509295509295509295565b6000806040838503121561156857600080fd5b50508035926020909101359150565b60208082526002908201526109e960f31b604082015260600190565b602080825260029082015261555360f01b604082015260600190565b634e487b7160e01b600052601160045260246000fd5b80820180821115610ac357610ac36115af565b6000602082840312156115ea57600080fd5b5051919050565b60006020828403121561160357600080fd5b81518015158114610b8157600080fd5b958652602086019490945260408501929092526001600160a01b03908116606085015216608083015260a082015260c00190565b602080825260029082015261115360f21b604082015260600190565b634e487b7160e01b600052601260045260246000fd5b60008261168857611688611663565b500490565b8082028115828204841417610ac357610ac36115af565b81810381811115610ac357610ac36115af565b6000826116c6576116c6611663565b50069056fea26469706673582212206c519d945161b5058240f8443066b6116223413066d29023e1e44c79181fe02d64736f6c63430008130033",
  "bytecodeSha1": "597ecb450e57bb608cd8592b368c489cc59cd6a6",
  "compiler": {
    "evm_version": "istanbul",
    "optimizer": {
      "enabled": true,
      "runs": 200
    },
    "version": "0.8.19+commit.7dd6d404"
  },
  "contractName": "Shardable",
  "language": "Solidity",
  "natspec": {
    "author": "Frederik W. L. Christoffersen",
    "custom:beaware": "This is a commercial contract.",
    "details": "historicShards are used to show proof of ownership at different points of time.",
    "kind": "dev",
    "methods": {
      "active()": {
        "notice": "Boolean stating if the Shardable is active and tradeable or not."
      },
      "cancelSale(bytes32)": {
        "notice": "Cancels a sell of a given Shard.",
        "params": {
          "shard": "The shard to be put off sale."
        }
      },
      "constructor": {
        "notice": "Constructor function that pushes the first Shard being the property of the Shardable creator."
      },
      "getShardExpiredClock(bytes32)": {
        "notice": "Returns the clock, in which a shard will or has expired."
      },
      "getShardSalePrice(bytes32)": {
        "notice": "Returns the price, at which a shard is for sale."
      },
      "infoByShard(bytes32)": {
        "notice": "Mapping pointing to related info of a Shard given the bytes of a unique Shard instance."
      },
      "isShardHolder(address)": {
        "notice": "Checks if address is a shard holder - at least a partial owner of the contract.",
        "params": {
          "account": "The address to be checked for."
        }
      },
      "isValidShard(bytes32)": {
        "notice": "Returns a boolean stating if a given shard is currently valid or not.",
        "params": {
          "shard": "The shard, whose validity is to be checked for."
        }
      },
      "purchase(bytes32)": {
        "details": "If the purchase is with tokens (ie. tokenAddress != 0x0), first call 'token.approve(Shardable.address, salePrice);'",
        "notice": "Purchases a listed Shard for sale.",
        "params": {
          "shard": "The shard of which a fraction will be purchased."
        }
      },
      "putForSale(bytes32,uint256,uint256,address,uint256,address)": {
        "notice": "Puts a given shard for sale.",
        "params": {
          "denominator": "Denominator of the absolute fraction of the Shard to be put for sale.",
          "numerator": "Numerator of the absolute fraction of the Shard to be put for sale.",
          "price": "The amount which the Shard is for sale as. The token address being the valuta.",
          "shard": "The shard to be put for sale.",
          "to": "The specifically set buyer of the sale. Open to anyone, if address(0).",
          "tokenAddress": "The address of the token that is accepted when purchasing. A value of 0x0 represents ether."
        }
      },
      "shardByOwner(address)": {
        "notice": "Mapping pointing to a currently valid shard given the address of its owner."
      },
      "shardExisted(bytes32,uint256)": {
        "notice": "Returns a boolean stating if the given shard was valid at a given clock.",
        "params": {
          "atClock": "The clock to be checked for.",
          "shard": "The shard, whose validity is to be checked for."
        }
      },
      "split(bytes32,uint256,uint256,address)": {
        "notice": "Splits a currently valid shard into two new ones. One is assigned to the receiver. The rest to the previous owner.",
        "params": {
          "denominator": "Denominator of the absolute fraction, which will be subtracted from the previous shard and sent to the receiver.",
          "numerator": "Numerator of the absolute fraction, which will be subtracted from the previous shard and sent to the receiver.",
          "senderShard": "The shard to be split.",
          "to": "The receiver of the new Shard."
        }
      },
      "transferShard(bytes32,address)": {
        "notice": "Sends a whole shard to a receiver.",
        "params": {
          "senderShard": "The shard to be transferred.",
          "to": "The receiver of the new Shard."
        }
      }
    },
    "notice": "This contract is used to fractionalize a non-fungible token. Be aware that a sell transfers a service fee of 2.5% to Counekt.",
    "title": "A shardable/fractional non-fungible token that can be fractually owned via Shards.",
    "version": 1
  },
  "opcodes": "PUSH1 0x80 PUSH1 0x40 MSTORE PUSH1 0x4 CALLDATASIZE LT PUSH2 0xC2 JUMPI PUSH1 0x0 CALLDATALOAD PUSH1 0xE0 SHR DUP1 PUSH4 0xB8E85F47 GT PUSH2 0x7F JUMPI DUP1 PUSH4 0xCC445611 GT PUSH2 0x59 JUMPI DUP1 PUSH4 0xCC445611 EQ PUSH2 0x29C JUMPI DUP1 PUSH4 0xE1C34C1F EQ PUSH2 0x2AF JUMPI DUP1 PUSH4 0xF9983896 EQ PUSH2 0x2CF JUMPI DUP1 PUSH4 0xFD06636B EQ PUSH2 0x2EF JUMPI PUSH1 0x0 DUP1 REVERT JUMPDEST DUP1 PUSH4 0xB8E85F47 EQ PUSH2 0x1C6 JUMPI DUP1 PUSH4 0xBCEDB2E0 EQ PUSH2 0x1F3 JUMPI DUP1 PUSH4 0xC4802EB2 EQ PUSH2 0x26F JUMPI PUSH1 0x0 DUP1 REVERT JUMPDEST DUP1 PUSH4 0x2FB0C5E EQ PUSH2 0xC7 JUMPI DUP1 PUSH4 0xBEA8985 EQ PUSH2 0xF6 JUMPI DUP1 PUSH4 0x4F52A71E EQ PUSH2 0x118 JUMPI DUP1 PUSH4 0x7B785493 EQ PUSH2 0x138 JUMPI DUP1 PUSH4 0x8D7844A6 EQ PUSH2 0x176 JUMPI DUP1 PUSH4 0x9995B9A9 EQ PUSH2 0x196 JUMPI JUMPDEST PUSH1 0x0 DUP1 REVERT JUMPDEST CALLVALUE DUP1 ISZERO PUSH2 0xD3 JUMPI PUSH1 0x0 DUP1 REVERT JUMPDEST POP PUSH1 0x1 SLOAD PUSH2 0xE1 SWAP1 PUSH1 0xFF AND DUP2 JUMP JUMPDEST PUSH1 0x40 MLOAD SWAP1 ISZERO ISZERO DUP2 MSTORE PUSH1 0x20 ADD JUMPDEST PUSH1 0x40 MLOAD DUP1 SWAP2 SUB SWAP1 RETURN JUMPDEST CALLVALUE DUP1 ISZERO PUSH2 0x102 JUMPI PUSH1 0x0 DUP1 REVERT JUMPDEST POP PUSH2 0x116 PUSH2 0x111 CALLDATASIZE PUSH1 0x4 PUSH2 0x1442 JUMP JUMPDEST PUSH2 0x30F JUMP JUMPDEST STOP JUMPDEST CALLVALUE DUP1 ISZERO PUSH2 0x124 JUMPI PUSH1 0x0 DUP1 REVERT JUMPDEST POP PUSH2 0x116 PUSH2 0x133 CALLDATASIZE PUSH1 0x4 PUSH2 0x1477 JUMP JUMPDEST PUSH2 0x3DB JUMP JUMPDEST CALLVALUE DUP1 ISZERO PUSH2 0x144 JUMPI PUSH1 0x0 DUP1 REVERT JUMPDEST POP PUSH2 0x168 PUSH2 0x153 CALLDATASIZE PUSH1 0x4 PUSH2 0x1442 JUMP JUMPDEST PUSH1 0x0 SWAP1 DUP2 MSTORE PUSH1 0x5 PUSH1 0x20 MSTORE PUSH1 0x40 SWAP1 KECCAK256 PUSH1 0x3 ADD SLOAD SWAP1 JUMP JUMPDEST PUSH1 0x40 MLOAD SWAP1 DUP2 MSTORE PUSH1 0x20 ADD PUSH2 0xED JUMP JUMPDEST CALLVALUE DUP1 ISZERO PUSH2 0x182 JUMPI PUSH1 0x0 DUP1 REVERT JUMPDEST POP PUSH2 0x116 PUSH2 0x191 CALLDATASIZE PUSH1 0x4 PUSH2 0x14A3 JUMP JUMPDEST PUSH2 0x45D JUMP JUMPDEST CALLVALUE DUP1 ISZERO PUSH2 0x1A2 JUMPI PUSH1 0x0 DUP1 REVERT JUMPDEST POP PUSH2 0xE1 PUSH2 0x1B1 CALLDATASIZE PUSH1 0x4 PUSH2 0x1442 JUMP JUMPDEST PUSH1 0x0 DUP1 SLOAD SWAP2 DUP2 MSTORE PUSH1 0x6 PUSH1 0x20 MSTORE PUSH1 0x40 SWAP1 KECCAK256 SLOAD GT SWAP1 JUMP JUMPDEST CALLVALUE DUP1 ISZERO PUSH2 0x1D2 JUMPI PUSH1 0x0 DUP1 REVERT JUMPDEST POP PUSH2 0x168 PUSH2 0x1E1 CALLDATASIZE PUSH1 0x4 PUSH2 0x1442 JUMP JUMPDEST PUSH1 0x0 SWAP1 DUP2 MSTORE PUSH1 0x6 PUSH1 0x20 MSTORE PUSH1 0x40 SWAP1 KECCAK256 SLOAD SWAP1 JUMP JUMPDEST CALLVALUE DUP1 ISZERO PUSH2 0x1FF JUMPI PUSH1 0x0 DUP1 REVERT JUMPDEST POP PUSH2 0x240 PUSH2 0x20E CALLDATASIZE PUSH1 0x4 PUSH2 0x1442 JUMP JUMPDEST PUSH1 0x2 PUSH1 0x20 DUP2 SWAP1 MSTORE PUSH1 0x0 SWAP2 DUP3 MSTORE PUSH1 0x40 SWAP1 SWAP2 KECCAK256 DUP1 SLOAD PUSH1 0x1 DUP3 ADD SLOAD SWAP3 DUP3 ADD SLOAD PUSH1 0x3 SWAP1 SWAP3 ADD SLOAD SWAP1 SWAP3 SWAP2 PUSH1 0x1 PUSH1 0x1 PUSH1 0xA0 SHL SUB AND SWAP1 DUP5 JUMP JUMPDEST PUSH1 0x40 MLOAD PUSH2 0xED SWAP5 SWAP4 SWAP3 SWAP2 SWAP1 SWAP4 DUP5 MSTORE PUSH1 0x20 DUP5 ADD SWAP3 SWAP1 SWAP3 MSTORE PUSH1 0x1 PUSH1 0x1 PUSH1 0xA0 SHL SUB AND PUSH1 0x40 DUP4 ADD MSTORE PUSH1 0x60 DUP3 ADD MSTORE PUSH1 0x80 ADD SWAP1 JUMP JUMPDEST CALLVALUE DUP1 ISZERO PUSH2 0x27B JUMPI PUSH1 0x0 DUP1 REVERT JUMPDEST POP PUSH2 0x168 PUSH2 0x28A CALLDATASIZE PUSH1 0x4 PUSH2 0x14E2 JUMP JUMPDEST PUSH1 0x3 PUSH1 0x20 MSTORE PUSH1 0x0 SWAP1 DUP2 MSTORE PUSH1 0x40 SWAP1 KECCAK256 SLOAD DUP2 JUMP JUMPDEST PUSH2 0x116 PUSH2 0x2AA CALLDATASIZE PUSH1 0x4 PUSH2 0x1442 JUMP JUMPDEST PUSH2 0x4E3 JUMP JUMPDEST CALLVALUE DUP1 ISZERO PUSH2 0x2BB JUMPI PUSH1 0x0 DUP1 REVERT JUMPDEST POP PUSH2 0xE1 PUSH2 0x2CA CALLDATASIZE PUSH1 0x4 PUSH2 0x14E2 JUMP JUMPDEST PUSH2 0xA91 JUMP JUMPDEST CALLVALUE DUP1 ISZERO PUSH2 0x2DB JUMPI PUSH1 0x0 DUP1 REVERT JUMPDEST POP PUSH2 0x116 PUSH2 0x2EA CALLDATASIZE PUSH1 0x4 PUSH2 0x14FD JUMP JUMPDEST PUSH2 0xAC9 JUMP JUMPDEST CALLVALUE DUP1 ISZERO PUSH2 0x2FB JUMPI PUSH1 0x0 DUP1 REVERT JUMPDEST POP PUSH2 0xE1 PUSH2 0x30A CALLDATASIZE PUSH1 0x4 PUSH2 0x1555 JUMP JUMPDEST PUSH2 0xB53 JUMP JUMPDEST PUSH1 0x0 DUP2 DUP2 MSTORE PUSH1 0x2 PUSH1 0x20 DUP2 SWAP1 MSTORE PUSH1 0x40 SWAP1 SWAP2 KECCAK256 ADD SLOAD DUP2 SWAP1 PUSH1 0x1 PUSH1 0x1 PUSH1 0xA0 SHL SUB AND CALLER EQ PUSH2 0x354 JUMPI PUSH1 0x40 MLOAD PUSH3 0x461BCD PUSH1 0xE5 SHL DUP2 MSTORE PUSH1 0x4 ADD PUSH2 0x34B SWAP1 PUSH2 0x1577 JUMP JUMPDEST PUSH1 0x40 MLOAD DUP1 SWAP2 SUB SWAP1 REVERT JUMPDEST DUP2 PUSH2 0x36E DUP2 PUSH1 0x0 DUP1 SLOAD SWAP2 DUP2 MSTORE PUSH1 0x6 PUSH1 0x20 MSTORE PUSH1 0x40 SWAP1 KECCAK256 SLOAD GT SWAP1 JUMP JUMPDEST PUSH2 0x38A JUMPI PUSH1 0x40 MLOAD PUSH3 0x461BCD PUSH1 0xE5 SHL DUP2 MSTORE PUSH1 0x4 ADD PUSH2 0x34B SWAP1 PUSH2 0x1593 JUMP JUMPDEST PUSH1 0x0 DUP4 DUP2 MSTORE PUSH1 0x4 PUSH1 0x20 MSTORE PUSH1 0x40 SWAP1 KECCAK256 SLOAD PUSH1 0xFF AND PUSH2 0x3CD JUMPI PUSH1 0x40 MLOAD PUSH3 0x461BCD PUSH1 0xE5 SHL DUP2 MSTORE PUSH1 0x20 PUSH1 0x4 DUP3 ADD MSTORE PUSH1 0x2 PUSH1 0x24 DUP3 ADD MSTORE PUSH2 0x4E53 PUSH1 0xF0 SHL PUSH1 0x44 DUP3 ADD MSTORE PUSH1 0x64 ADD PUSH2 0x34B JUMP JUMPDEST PUSH2 0x3D6 DUP4 PUSH2 0xB88 JUMP JUMPDEST POP POP POP JUMP JUMPDEST PUSH1 0x0 DUP3 DUP2 MSTORE PUSH1 0x2 PUSH1 0x20 DUP2 SWAP1 MSTORE PUSH1 0x40 SWAP1 SWAP2 KECCAK256 ADD SLOAD DUP3 SWAP1 PUSH1 0x1 PUSH1 0x1 PUSH1 0xA0 SHL SUB AND CALLER EQ PUSH2 0x417 JUMPI PUSH1 0x40 MLOAD PUSH3 0x461BCD PUSH1 0xE5 SHL DUP2 MSTORE PUSH1 0x4 ADD PUSH2 0x34B SWAP1 PUSH2 0x1577 JUMP JUMPDEST DUP3 PUSH2 0x431 DUP2 PUSH1 0x0 DUP1 SLOAD SWAP2 DUP2 MSTORE PUSH1 0x6 PUSH1 0x20 MSTORE PUSH1 0x40 SWAP1 KECCAK256 SLOAD GT SWAP1 JUMP JUMPDEST PUSH2 0x44D JUMPI PUSH1 0x40 MLOAD PUSH3 0x461BCD PUSH1 0xE5 SHL DUP2 MSTORE PUSH1 0x4 ADD PUSH2 0x34B SWAP1 PUSH2 0x1593 JUMP JUMPDEST PUSH2 0x457 DUP5 DUP5 PUSH2 0xBD7 JUMP JUMPDEST POP POP POP POP JUMP JUMPDEST PUSH1 0x0 DUP5 DUP2 MSTORE PUSH1 0x2 PUSH1 0x20 DUP2 SWAP1 MSTORE PUSH1 0x40 SWAP1 SWAP2 KECCAK256 ADD SLOAD DUP5 SWAP1 PUSH1 0x1 PUSH1 0x1 PUSH1 0xA0 SHL SUB AND CALLER EQ PUSH2 0x499 JUMPI PUSH1 0x40 MLOAD PUSH3 0x461BCD PUSH1 0xE5 SHL DUP2 MSTORE PUSH1 0x4 ADD PUSH2 0x34B SWAP1 PUSH2 0x1577 JUMP JUMPDEST DUP5 PUSH2 0x4B3 DUP2 PUSH1 0x0 DUP1 SLOAD SWAP2 DUP2 MSTORE PUSH1 0x6 PUSH1 0x20 MSTORE PUSH1 0x40 SWAP1 KECCAK256 SLOAD GT SWAP1 JUMP JUMPDEST PUSH2 0x4CF JUMPI PUSH1 0x40 MLOAD PUSH3 0x461BCD PUSH1 0xE5 SHL DUP2 MSTORE PUSH1 0x4 ADD PUSH2 0x34B SWAP1 PUSH2 0x1593 JUMP JUMPDEST PUSH2 0x4DB DUP7 DUP7 DUP7 DUP7 PUSH2 0xD5E JUMP JUMPDEST POP POP POP POP POP POP JUMP JUMPDEST DUP1 PUSH2 0x4FD DUP2 PUSH1 0x0 DUP1 SLOAD SWAP2 DUP2 MSTORE PUSH1 0x6 PUSH1 0x20 MSTORE PUSH1 0x40 SWAP1 KECCAK256 SLOAD GT SWAP1 JUMP JUMPDEST PUSH2 0x519 JUMPI PUSH1 0x40 MLOAD PUSH3 0x461BCD PUSH1 0xE5 SHL DUP2 MSTORE PUSH1 0x4 ADD PUSH2 0x34B SWAP1 PUSH2 0x1593 JUMP JUMPDEST PUSH1 0x0 DUP3 DUP2 MSTORE PUSH1 0x4 PUSH1 0x20 MSTORE PUSH1 0x40 SWAP1 KECCAK256 SLOAD PUSH1 0xFF AND PUSH2 0x55C JUMPI PUSH1 0x40 MLOAD PUSH3 0x461BCD PUSH1 0xE5 SHL DUP2 MSTORE PUSH1 0x20 PUSH1 0x4 DUP3 ADD MSTORE PUSH1 0x2 PUSH1 0x24 DUP3 ADD MSTORE PUSH2 0x4E53 PUSH1 0xF0 SHL PUSH1 0x44 DUP3 ADD MSTORE PUSH1 0x64 ADD PUSH2 0x34B JUMP JUMPDEST PUSH1 0x0 DUP3 DUP2 MSTORE PUSH1 0x5 PUSH1 0x20 MSTORE PUSH1 0x40 SWAP1 KECCAK256 PUSH1 0x4 ADD SLOAD PUSH1 0x1 PUSH1 0x1 PUSH1 0xA0 SHL SUB AND CALLER EQ DUP1 PUSH2 0x59C JUMPI POP PUSH1 0x0 DUP3 DUP2 MSTORE PUSH1 0x5 PUSH1 0x20 MSTORE PUSH1 0x40 SWAP1 KECCAK256 PUSH1 0x4 ADD SLOAD PUSH1 0x1 PUSH1 0x1 PUSH1 0xA0 SHL SUB AND ISZERO JUMPDEST PUSH2 0x5CD JUMPI PUSH1 0x40 MLOAD PUSH3 0x461BCD PUSH1 0xE5 SHL DUP2 MSTORE PUSH1 0x20 PUSH1 0x4 DUP3 ADD MSTORE PUSH1 0x2 PUSH1 0x24 DUP3 ADD MSTORE PUSH2 0x29A9 PUSH1 0xF1 SHL PUSH1 0x44 DUP3 ADD MSTORE PUSH1 0x64 ADD PUSH2 0x34B JUMP JUMPDEST PUSH2 0x5D6 DUP3 PUSH2 0xB88 JUMP JUMPDEST PUSH1 0x0 DUP3 DUP2 MSTORE PUSH1 0x5 PUSH1 0x20 MSTORE PUSH1 0x40 DUP2 KECCAK256 PUSH1 0x3 ADD SLOAD DUP2 SWAP1 DUP2 SWAP1 PUSH2 0x5FA SWAP1 PUSH1 0x19 PUSH2 0x3E8 PUSH2 0xF5E JUMP JUMPDEST SWAP2 SWAP5 POP SWAP3 POP SWAP1 POP PUSH2 0x60B DUP2 DUP4 PUSH2 0x15C5 JUMP JUMPDEST PUSH1 0x0 DUP7 DUP2 MSTORE PUSH1 0x5 PUSH1 0x20 MSTORE PUSH1 0x40 SWAP1 KECCAK256 PUSH1 0x2 ADD SLOAD SWAP1 SWAP3 POP PUSH1 0x1 PUSH1 0x1 PUSH1 0xA0 SHL SUB AND PUSH2 0x77D JUMPI PUSH1 0x0 DUP6 DUP2 MSTORE PUSH1 0x5 PUSH1 0x20 MSTORE PUSH1 0x40 SWAP1 KECCAK256 PUSH1 0x3 ADD SLOAD CALLVALUE LT ISZERO PUSH2 0x673 JUMPI PUSH1 0x40 MLOAD PUSH3 0x461BCD PUSH1 0xE5 SHL DUP2 MSTORE PUSH1 0x20 PUSH1 0x4 DUP3 ADD MSTORE PUSH1 0x2 PUSH1 0x24 DUP3 ADD MSTORE PUSH2 0x4945 PUSH1 0xF0 SHL PUSH1 0x44 DUP3 ADD MSTORE PUSH1 0x64 ADD PUSH2 0x34B JUMP JUMPDEST PUSH1 0x40 MLOAD PUSH1 0x0 SWAP1 PUSH20 0x49A71890AEA5A751E30E740C504F2E9683F347BC SWAP1 DUP6 SWAP1 DUP4 DUP2 DUP2 DUP2 DUP6 DUP8 GAS CALL SWAP3 POP POP POP RETURNDATASIZE DUP1 PUSH1 0x0 DUP2 EQ PUSH2 0x6C9 JUMPI PUSH1 0x40 MLOAD SWAP2 POP PUSH1 0x1F NOT PUSH1 0x3F RETURNDATASIZE ADD AND DUP3 ADD PUSH1 0x40 MSTORE RETURNDATASIZE DUP3 MSTORE RETURNDATASIZE PUSH1 0x0 PUSH1 0x20 DUP5 ADD RETURNDATACOPY PUSH2 0x6CE JUMP JUMPDEST PUSH1 0x60 SWAP2 POP JUMPDEST POP POP PUSH1 0x0 DUP8 DUP2 MSTORE PUSH1 0x2 PUSH1 0x20 DUP2 SWAP1 MSTORE PUSH1 0x40 DUP1 DUP4 KECCAK256 SWAP1 SWAP2 ADD SLOAD SWAP1 MLOAD SWAP3 SWAP4 POP SWAP1 SWAP2 PUSH1 0x1 PUSH1 0x1 PUSH1 0xA0 SHL SUB SWAP1 SWAP2 AND SWAP1 DUP6 SWAP1 DUP4 DUP2 DUP2 DUP2 DUP6 DUP8 GAS CALL SWAP3 POP POP POP RETURNDATASIZE DUP1 PUSH1 0x0 DUP2 EQ PUSH2 0x732 JUMPI PUSH1 0x40 MLOAD SWAP2 POP PUSH1 0x1F NOT PUSH1 0x3F RETURNDATASIZE ADD AND DUP3 ADD PUSH1 0x40 MSTORE RETURNDATASIZE DUP3 MSTORE RETURNDATASIZE PUSH1 0x0 PUSH1 0x20 DUP5 ADD RETURNDATACOPY PUSH2 0x737 JUMP JUMPDEST PUSH1 0x60 SWAP2 POP JUMPDEST POP POP SWAP1 POP DUP1 DUP1 ISZERO PUSH2 0x745 JUMPI POP DUP2 JUMPDEST PUSH2 0x776 JUMPI PUSH1 0x40 MLOAD PUSH3 0x461BCD PUSH1 0xE5 SHL DUP2 MSTORE PUSH1 0x20 PUSH1 0x4 DUP3 ADD MSTORE PUSH1 0x2 PUSH1 0x24 DUP3 ADD MSTORE PUSH2 0x2A23 PUSH1 0xF1 SHL PUSH1 0x44 DUP3 ADD MSTORE PUSH1 0x64 ADD PUSH2 0x34B JUMP JUMPDEST POP POP PUSH2 0x958 JUMP JUMPDEST PUSH1 0x0 DUP6 DUP2 MSTORE PUSH1 0x5 PUSH1 0x20 MSTORE PUSH1 0x40 SWAP1 DUP2 SWAP1 KECCAK256 PUSH1 0x2 DUP2 ADD SLOAD PUSH1 0x3 SWAP1 SWAP2 ADD SLOAD SWAP2 MLOAD PUSH4 0x6EB1769F PUSH1 0xE1 SHL DUP2 MSTORE CALLER PUSH1 0x4 DUP3 ADD MSTORE ADDRESS PUSH1 0x24 DUP3 ADD MSTORE PUSH1 0x1 PUSH1 0x1 PUSH1 0xA0 SHL SUB SWAP1 SWAP2 AND SWAP2 SWAP1 DUP3 SWAP1 PUSH4 0xDD62ED3E SWAP1 PUSH1 0x44 ADD PUSH1 0x20 PUSH1 0x40 MLOAD DUP1 DUP4 SUB DUP2 DUP7 GAS STATICCALL ISZERO DUP1 ISZERO PUSH2 0x7E5 JUMPI RETURNDATASIZE PUSH1 0x0 DUP1 RETURNDATACOPY RETURNDATASIZE PUSH1 0x0 REVERT JUMPDEST POP POP POP POP PUSH1 0x40 MLOAD RETURNDATASIZE PUSH1 0x1F NOT PUSH1 0x1F DUP3 ADD AND DUP3 ADD DUP1 PUSH1 0x40 MSTORE POP DUP2 ADD SWAP1 PUSH2 0x809 SWAP2 SWAP1 PUSH2 0x15D8 JUMP JUMPDEST LT ISZERO PUSH2 0x83C JUMPI PUSH1 0x40 MLOAD PUSH3 0x461BCD PUSH1 0xE5 SHL DUP2 MSTORE PUSH1 0x20 PUSH1 0x4 DUP3 ADD MSTORE PUSH1 0x2 PUSH1 0x24 DUP3 ADD MSTORE PUSH2 0x1255 PUSH1 0xF2 SHL PUSH1 0x44 DUP3 ADD MSTORE PUSH1 0x64 ADD PUSH2 0x34B JUMP JUMPDEST PUSH1 0x40 MLOAD PUSH4 0x23B872DD PUSH1 0xE0 SHL DUP2 MSTORE CALLER PUSH1 0x4 DUP3 ADD MSTORE PUSH20 0x49A71890AEA5A751E30E740C504F2E9683F347BC PUSH1 0x24 DUP3 ADD MSTORE PUSH1 0x44 DUP2 ADD DUP6 SWAP1 MSTORE PUSH1 0x1 PUSH1 0x1 PUSH1 0xA0 SHL SUB DUP3 AND SWAP1 PUSH4 0x23B872DD SWAP1 PUSH1 0x64 ADD PUSH1 0x20 PUSH1 0x40 MLOAD DUP1 DUP4 SUB DUP2 PUSH1 0x0 DUP8 GAS CALL ISZERO DUP1 ISZERO PUSH2 0x8A3 JUMPI RETURNDATASIZE PUSH1 0x0 DUP1 RETURNDATACOPY RETURNDATASIZE PUSH1 0x0 REVERT JUMPDEST POP POP POP POP PUSH1 0x40 MLOAD RETURNDATASIZE PUSH1 0x1F NOT PUSH1 0x1F DUP3 ADD AND DUP3 ADD DUP1 PUSH1 0x40 MSTORE POP DUP2 ADD SWAP1 PUSH2 0x8C7 SWAP2 SWAP1 PUSH2 0x15F1 JUMP JUMPDEST POP PUSH1 0x0 DUP7 DUP2 MSTORE PUSH1 0x2 PUSH1 0x20 DUP2 SWAP1 MSTORE PUSH1 0x40 SWAP2 DUP3 SWAP1 KECCAK256 ADD SLOAD SWAP1 MLOAD PUSH4 0x23B872DD PUSH1 0xE0 SHL DUP2 MSTORE CALLER PUSH1 0x4 DUP3 ADD MSTORE PUSH1 0x1 PUSH1 0x1 PUSH1 0xA0 SHL SUB SWAP2 DUP3 AND PUSH1 0x24 DUP3 ADD MSTORE PUSH1 0x44 DUP2 ADD DUP6 SWAP1 MSTORE SWAP1 DUP3 AND SWAP1 PUSH4 0x23B872DD SWAP1 PUSH1 0x64 ADD PUSH1 0x20 PUSH1 0x40 MLOAD DUP1 DUP4 SUB DUP2 PUSH1 0x0 DUP8 GAS CALL ISZERO DUP1 ISZERO PUSH2 0x931 JUMPI RETURNDATASIZE PUSH1 0x0 DUP1 RETURNDATACOPY RETURNDATASIZE PUSH1 0x0 REVERT JUMPDEST POP POP POP POP PUSH1 0x40 MLOAD RETURNDATASIZE PUSH1 0x1F NOT PUSH1 0x1F DUP3 ADD AND DUP3 ADD DUP1 PUSH1 0x40 MSTORE POP DUP2 ADD SWAP1 PUSH2 0x955 SWAP2 SWAP1 PUSH2 0x15F1 JUMP JUMPDEST POP POP JUMPDEST PUSH1 0x0 DUP6 DUP2 MSTORE PUSH1 0x5 PUSH1 0x20 MSTORE PUSH1 0x40 SWAP1 KECCAK256 SLOAD ISZERO DUP1 ISZERO SWAP1 PUSH2 0x985 JUMPI POP PUSH1 0x0 DUP6 DUP2 MSTORE PUSH1 0x5 PUSH1 0x20 MSTORE PUSH1 0x40 SWAP1 KECCAK256 PUSH1 0x1 ADD SLOAD ISZERO ISZERO JUMPDEST PUSH2 0x9B6 JUMPI PUSH1 0x40 MLOAD PUSH3 0x461BCD PUSH1 0xE5 SHL DUP2 MSTORE PUSH1 0x20 PUSH1 0x4 DUP3 ADD MSTORE PUSH1 0x2 PUSH1 0x24 DUP3 ADD MSTORE PUSH2 0x4553 PUSH1 0xF0 SHL PUSH1 0x44 DUP3 ADD MSTORE PUSH1 0x64 ADD PUSH2 0x34B JUMP JUMPDEST PUSH1 0x0 DUP6 DUP2 MSTORE PUSH1 0x2 PUSH1 0x20 SWAP1 DUP2 MSTORE PUSH1 0x40 DUP1 DUP4 KECCAK256 DUP1 SLOAD PUSH1 0x1 SWAP2 DUP3 ADD SLOAD PUSH1 0x5 SWAP1 SWAP5 MSTORE SWAP2 SWAP1 SWAP4 KECCAK256 DUP1 SLOAD SWAP4 ADD SLOAD PUSH2 0x9EA SWAP4 SWAP2 SWAP3 SWAP2 SWAP1 PUSH2 0xFD2 JUMP JUMPDEST ISZERO PUSH2 0x9FE JUMPI PUSH2 0x9F9 DUP6 CALLER PUSH2 0xBD7 JUMP JUMPDEST PUSH2 0xA20 JUMP JUMPDEST PUSH1 0x0 DUP6 DUP2 MSTORE PUSH1 0x5 PUSH1 0x20 MSTORE PUSH1 0x40 SWAP1 KECCAK256 DUP1 SLOAD PUSH1 0x1 SWAP1 SWAP2 ADD SLOAD PUSH2 0xA20 SWAP2 DUP8 SWAP2 CALLER PUSH2 0xD5E JUMP JUMPDEST PUSH1 0x0 DUP6 DUP2 MSTORE PUSH1 0x5 PUSH1 0x20 MSTORE PUSH1 0x40 SWAP1 DUP2 SWAP1 KECCAK256 DUP1 SLOAD PUSH1 0x1 DUP3 ADD SLOAD PUSH1 0x2 DUP4 ADD SLOAD PUSH1 0x3 SWAP1 SWAP4 ADD SLOAD SWAP4 MLOAD PUSH32 0xD8D12448ACB9A12D0CA44F527C717C0DE64F03B49CA4032F87FEAE10AF5EAABE SWAP5 PUSH2 0xA82 SWAP5 DUP12 SWAP5 SWAP4 SWAP3 CALLER SWAP3 PUSH1 0x1 PUSH1 0x1 PUSH1 0xA0 SHL SUB SWAP1 SWAP3 AND SWAP2 SWAP1 PUSH2 0x1613 JUMP JUMPDEST PUSH1 0x40 MLOAD DUP1 SWAP2 SUB SWAP1 LOG1 POP POP POP POP POP JUMP JUMPDEST PUSH1 0x1 PUSH1 0x1 PUSH1 0xA0 SHL SUB DUP2 AND PUSH1 0x0 SWAP1 DUP2 MSTORE PUSH1 0x3 PUSH1 0x20 MSTORE PUSH1 0x40 DUP2 KECCAK256 SLOAD PUSH2 0xAC3 SWAP1 PUSH1 0x0 DUP1 SLOAD SWAP2 DUP2 MSTORE PUSH1 0x6 PUSH1 0x20 MSTORE PUSH1 0x40 SWAP1 KECCAK256 SLOAD GT SWAP1 JUMP JUMPDEST SWAP3 SWAP2 POP POP JUMP JUMPDEST PUSH1 0x0 DUP7 DUP2 MSTORE PUSH1 0x2 PUSH1 0x20 DUP2 SWAP1 MSTORE PUSH1 0x40 SWAP1 SWAP2 KECCAK256 ADD SLOAD DUP7 SWAP1 PUSH1 0x1 PUSH1 0x1 PUSH1 0xA0 SHL SUB AND CALLER EQ PUSH2 0xB05 JUMPI PUSH1 0x40 MLOAD PUSH3 0x461BCD PUSH1 0xE5 SHL DUP2 MSTORE PUSH1 0x4 ADD PUSH2 0x34B SWAP1 PUSH2 0x1577 JUMP JUMPDEST DUP7 PUSH2 0xB1F DUP2 PUSH1 0x0 DUP1 SLOAD SWAP2 DUP2 MSTORE PUSH1 0x6 PUSH1 0x20 MSTORE PUSH1 0x40 SWAP1 KECCAK256 SLOAD GT SWAP1 JUMP JUMPDEST PUSH2 0xB3B JUMPI PUSH1 0x40 MLOAD PUSH3 0x461BCD PUSH1 0xE5 SHL DUP2 MSTORE PUSH1 0x4 ADD PUSH2 0x34B SWAP1 PUSH2 0x1593 JUMP JUMPDEST PUSH2 0xB49 DUP9 DUP9 DUP9 DUP9 DUP9 DUP9 PUSH2 0xFEB JUMP JUMPDEST POP POP POP POP POP POP POP POP JUMP JUMPDEST PUSH1 0x0 DUP3 DUP2 MSTORE PUSH1 0x2 PUSH1 0x20 MSTORE PUSH1 0x40 DUP2 KECCAK256 PUSH1 0x3 ADD SLOAD DUP3 LT DUP1 ISZERO SWAP1 PUSH2 0xB81 JUMPI POP PUSH1 0x0 DUP4 DUP2 MSTORE PUSH1 0x6 PUSH1 0x20 MSTORE PUSH1 0x40 SWAP1 KECCAK256 SLOAD DUP3 LT JUMPDEST SWAP4 SWAP3 POP POP POP JUMP JUMPDEST DUP1 PUSH2 0xBA2 DUP2 PUSH1 0x0 DUP1 SLOAD SWAP2 DUP2 MSTORE PUSH1 0x6 PUSH1 0x20 MSTORE PUSH1 0x40 SWAP1 KECCAK256 SLOAD GT SWAP1 JUMP JUMPDEST PUSH2 0xBBE JUMPI PUSH1 0x40 MLOAD PUSH3 0x461BCD PUSH1 0xE5 SHL DUP2 MSTORE PUSH1 0x4 ADD PUSH2 0x34B SWAP1 PUSH2 0x1593 JUMP JUMPDEST POP PUSH1 0x0 SWAP1 DUP2 MSTORE PUSH1 0x4 PUSH1 0x20 MSTORE PUSH1 0x40 SWAP1 KECCAK256 DUP1 SLOAD PUSH1 0xFF NOT AND SWAP1 SSTORE JUMP JUMPDEST DUP2 PUSH2 0xBF1 DUP2 PUSH1 0x0 DUP1 SLOAD SWAP2 DUP2 MSTORE PUSH1 0x6 PUSH1 0x20 MSTORE PUSH1 0x40 SWAP1 KECCAK256 SLOAD GT SWAP1 JUMP JUMPDEST PUSH2 0xC0D JUMPI PUSH1 0x40 MLOAD PUSH3 0x461BCD PUSH1 0xE5 SHL DUP2 MSTORE PUSH1 0x4 ADD PUSH2 0x34B SWAP1 PUSH2 0x1593 JUMP JUMPDEST PUSH1 0x1 DUP1 SLOAD PUSH1 0xFF AND ISZERO ISZERO EQ PUSH2 0xC33 JUMPI PUSH1 0x40 MLOAD PUSH3 0x461BCD PUSH1 0xE5 SHL DUP2 MSTORE PUSH1 0x4 ADD PUSH2 0x34B SWAP1 PUSH2 0x1647 JUMP JUMPDEST PUSH1 0x0 SLOAD PUSH2 0xC3F DUP4 PUSH2 0xA91 JUMP JUMPDEST ISZERO PUSH2 0xCD4 JUMPI PUSH1 0x1 PUSH1 0x1 PUSH1 0xA0 SHL SUB DUP4 AND PUSH1 0x0 SWAP1 DUP2 MSTORE PUSH1 0x3 PUSH1 0x20 MSTORE PUSH1 0x40 SWAP1 KECCAK256 SLOAD PUSH2 0xC74 SWAP1 DUP3 PUSH1 0x0 SWAP2 DUP3 MSTORE PUSH1 0x6 PUSH1 0x20 MSTORE PUSH1 0x40 SWAP1 SWAP2 KECCAK256 SSTORE JUMP JUMPDEST PUSH1 0x0 DUP5 DUP2 MSTORE PUSH1 0x2 PUSH1 0x20 DUP2 DUP2 MSTORE PUSH1 0x40 DUP1 DUP5 KECCAK256 DUP1 SLOAD PUSH1 0x1 SWAP2 DUP3 ADD SLOAD PUSH1 0x1 PUSH1 0x1 PUSH1 0xA0 SHL SUB DUP11 AND DUP8 MSTORE PUSH1 0x3 DUP6 MSTORE DUP4 DUP8 KECCAK256 SLOAD DUP8 MSTORE SWAP5 SWAP1 SWAP4 MSTORE SWAP1 DUP5 KECCAK256 DUP1 SLOAD SWAP2 ADD SLOAD DUP5 SWAP4 PUSH2 0xCBD SWAP4 SWAP3 SWAP1 SWAP2 PUSH2 0x1224 JUMP JUMPDEST SWAP2 POP SWAP2 POP PUSH2 0xCCD DUP3 DUP3 DUP8 DUP7 PUSH2 0x1260 JUMP JUMPDEST POP POP PUSH2 0xCF6 JUMP JUMPDEST PUSH1 0x0 DUP5 DUP2 MSTORE PUSH1 0x2 PUSH1 0x20 MSTORE PUSH1 0x40 SWAP1 KECCAK256 DUP1 SLOAD PUSH1 0x1 SWAP1 SWAP2 ADD SLOAD PUSH2 0xCF6 SWAP2 SWAP1 DUP6 DUP5 PUSH2 0x1260 JUMP JUMPDEST PUSH1 0x0 DUP5 DUP2 MSTORE PUSH1 0x6 PUSH1 0x20 SWAP1 DUP2 MSTORE PUSH1 0x40 DUP1 DUP4 KECCAK256 DUP5 SWAP1 SSTORE PUSH1 0x2 SWAP1 SWAP2 MSTORE DUP1 DUP3 KECCAK256 DUP1 SLOAD PUSH1 0x1 SWAP1 SWAP2 ADD SLOAD SWAP2 MLOAD PUSH32 0xD8D12448ACB9A12D0CA44F527C717C0DE64F03B49CA4032F87FEAE10AF5EAABE SWAP4 PUSH2 0xD50 SWAP4 DUP10 SWAP4 SWAP3 SWAP1 SWAP2 DUP10 SWAP2 DUP2 SWAP1 PUSH2 0x1613 JUMP JUMPDEST PUSH1 0x40 MLOAD DUP1 SWAP2 SUB SWAP1 LOG1 POP POP POP POP JUMP JUMPDEST DUP4 PUSH2 0xD78 DUP2 PUSH1 0x0 DUP1 SLOAD SWAP2 DUP2 MSTORE PUSH1 0x6 PUSH1 0x20 MSTORE PUSH1 0x40 SWAP1 KECCAK256 SLOAD GT SWAP1 JUMP JUMPDEST PUSH2 0xD94 JUMPI PUSH1 0x40 MLOAD PUSH3 0x461BCD PUSH1 0xE5 SHL DUP2 MSTORE PUSH1 0x4 ADD PUSH2 0x34B SWAP1 PUSH2 0x1593 JUMP JUMPDEST PUSH1 0x1 DUP1 SLOAD PUSH1 0xFF AND ISZERO ISZERO EQ PUSH2 0xDBA JUMPI PUSH1 0x40 MLOAD PUSH3 0x461BCD PUSH1 0xE5 SHL DUP2 MSTORE PUSH1 0x4 ADD PUSH2 0x34B SWAP1 PUSH2 0x1647 JUMP JUMPDEST PUSH1 0x0 DUP6 DUP2 MSTORE PUSH1 0x2 PUSH1 0x20 MSTORE PUSH1 0x40 SWAP1 KECCAK256 PUSH1 0x1 DUP2 ADD SLOAD SWAP1 SLOAD PUSH2 0xDD9 SWAP2 SWAP1 PUSH2 0x1679 JUMP JUMPDEST PUSH2 0xDE3 DUP5 DUP7 PUSH2 0x1679 JUMP JUMPDEST LT PUSH2 0xE15 JUMPI PUSH1 0x40 MLOAD PUSH3 0x461BCD PUSH1 0xE5 SHL DUP2 MSTORE PUSH1 0x20 PUSH1 0x4 DUP3 ADD MSTORE PUSH1 0x2 PUSH1 0x24 DUP3 ADD MSTORE PUSH2 0x24A3 PUSH1 0xF1 SHL PUSH1 0x44 DUP3 ADD MSTORE PUSH1 0x64 ADD PUSH2 0x34B JUMP JUMPDEST PUSH1 0x0 SLOAD PUSH2 0xE21 DUP4 PUSH2 0xA91 JUMP JUMPDEST ISZERO PUSH2 0xEA7 JUMPI PUSH1 0x1 PUSH1 0x1 PUSH1 0xA0 SHL SUB DUP4 AND PUSH1 0x0 SWAP1 DUP2 MSTORE PUSH1 0x3 PUSH1 0x20 SWAP1 DUP2 MSTORE PUSH1 0x40 DUP1 DUP4 KECCAK256 SLOAD DUP4 MSTORE PUSH1 0x2 SWAP1 SWAP2 MSTORE DUP2 KECCAK256 DUP1 SLOAD PUSH1 0x1 SWAP1 SWAP2 ADD SLOAD DUP3 SWAP2 PUSH2 0xE60 SWAP2 DUP10 DUP10 PUSH2 0x1224 JUMP JUMPDEST SWAP2 POP SWAP2 POP PUSH2 0xE70 DUP3 DUP3 DUP8 DUP7 PUSH2 0x1260 JUMP JUMPDEST PUSH1 0x1 PUSH1 0x1 PUSH1 0xA0 SHL SUB DUP6 AND PUSH1 0x0 SWAP1 DUP2 MSTORE PUSH1 0x3 PUSH1 0x20 MSTORE PUSH1 0x40 SWAP1 KECCAK256 SLOAD PUSH2 0xEA0 SWAP1 DUP5 PUSH1 0x0 SWAP2 DUP3 MSTORE PUSH1 0x6 PUSH1 0x20 MSTORE PUSH1 0x40 SWAP1 SWAP2 KECCAK256 SSTORE JUMP JUMPDEST POP POP PUSH2 0xEB3 JUMP JUMPDEST PUSH2 0xEB3 DUP6 DUP6 DUP6 DUP5 PUSH2 0x1260 JUMP JUMPDEST PUSH1 0x0 DUP7 DUP2 MSTORE PUSH1 0x6 PUSH1 0x20 SWAP1 DUP2 MSTORE PUSH1 0x40 DUP1 DUP4 KECCAK256 DUP5 SWAP1 SSTORE PUSH1 0x2 SWAP1 SWAP2 MSTORE DUP2 KECCAK256 DUP1 SLOAD PUSH1 0x1 SWAP1 SWAP2 ADD SLOAD DUP3 SWAP2 PUSH2 0xEE3 SWAP2 DUP10 DUP10 PUSH2 0x1362 JUMP JUMPDEST PUSH1 0x0 DUP11 DUP2 MSTORE PUSH1 0x2 PUSH1 0x20 DUP2 SWAP1 MSTORE PUSH1 0x40 SWAP1 SWAP2 KECCAK256 ADD SLOAD SWAP2 SWAP4 POP SWAP2 POP PUSH2 0xF12 SWAP1 DUP4 SWAP1 DUP4 SWAP1 PUSH1 0x1 PUSH1 0x1 PUSH1 0xA0 SHL SUB AND DUP7 PUSH2 0x1260 JUMP JUMPDEST PUSH32 0xD8D12448ACB9A12D0CA44F527C717C0DE64F03B49CA4032F87FEAE10AF5EAABE DUP9 DUP9 DUP9 DUP9 PUSH1 0x0 DUP1 PUSH1 0x40 MLOAD PUSH2 0xF4C SWAP7 SWAP6 SWAP5 SWAP4 SWAP3 SWAP2 SWAP1 PUSH2 0x1613 JUMP JUMPDEST PUSH1 0x40 MLOAD DUP1 SWAP2 SUB SWAP1 LOG1 POP POP POP POP POP POP POP POP JUMP JUMPDEST PUSH1 0x0 DUP1 PUSH1 0x0 DUP5 DUP5 GT PUSH2 0xF6F JUMPI PUSH1 0x0 DUP1 REVERT JUMPDEST PUSH1 0x0 DUP5 PUSH2 0xF7C DUP8 DUP10 PUSH2 0x168D JUMP JUMPDEST PUSH2 0xF86 SWAP2 SWAP1 PUSH2 0x1679 JUMP JUMPDEST SWAP1 POP PUSH1 0x0 DUP6 PUSH2 0xF95 DUP9 DUP3 PUSH2 0x16A4 JUMP JUMPDEST PUSH2 0xF9F SWAP1 DUP11 PUSH2 0x168D JUMP JUMPDEST PUSH2 0xFA9 SWAP2 SWAP1 PUSH2 0x1679 JUMP JUMPDEST SWAP1 POP DUP2 DUP2 PUSH2 0xFB7 DUP2 DUP4 PUSH2 0x15C5 JUMP JUMPDEST PUSH2 0xFC1 SWAP1 DUP12 PUSH2 0x16A4 JUMP JUMPDEST SWAP5 POP SWAP5 POP SWAP5 POP POP POP SWAP4 POP SWAP4 POP SWAP4 SWAP1 POP JUMP JUMPDEST PUSH1 0x0 DUP3 DUP6 EQ DUP1 ISZERO PUSH2 0xFE2 JUMPI POP DUP2 DUP5 EQ JUMPDEST SWAP6 SWAP5 POP POP POP POP POP JUMP JUMPDEST DUP6 PUSH2 0x1005 DUP2 PUSH1 0x0 DUP1 SLOAD SWAP2 DUP2 MSTORE PUSH1 0x6 PUSH1 0x20 MSTORE PUSH1 0x40 SWAP1 KECCAK256 SLOAD GT SWAP1 JUMP JUMPDEST PUSH2 0x1021 JUMPI PUSH1 0x40 MLOAD PUSH3 0x461BCD PUSH1 0xE5 SHL DUP2 MSTORE PUSH1 0x4 ADD PUSH2 0x34B SWAP1 PUSH2 0x1593 JUMP JUMPDEST PUSH1 0x1 DUP1 SLOAD PUSH1 0xFF AND ISZERO ISZERO EQ PUSH2 0x1047 JUMPI PUSH1 0x40 MLOAD PUSH3 0x461BCD PUSH1 0xE5 SHL DUP2 MSTORE PUSH1 0x4 ADD PUSH2 0x34B SWAP1 PUSH2 0x1647 JUMP JUMPDEST PUSH1 0x0 DUP8 DUP2 MSTORE PUSH1 0x2 PUSH1 0x20 MSTORE PUSH1 0x40 SWAP1 KECCAK256 PUSH1 0x1 DUP2 ADD SLOAD SWAP1 SLOAD PUSH2 0x1066 SWAP2 SWAP1 PUSH2 0x1679 JUMP JUMPDEST PUSH2 0x1070 DUP7 DUP9 PUSH2 0x1679 JUMP JUMPDEST GT ISZERO PUSH2 0x10A3 JUMPI PUSH1 0x40 MLOAD PUSH3 0x461BCD PUSH1 0xE5 SHL DUP2 MSTORE PUSH1 0x20 PUSH1 0x4 DUP3 ADD MSTORE PUSH1 0x2 PUSH1 0x24 DUP3 ADD MSTORE PUSH2 0x24A3 PUSH1 0xF1 SHL PUSH1 0x44 DUP3 ADD MSTORE PUSH1 0x64 ADD PUSH2 0x34B JUMP JUMPDEST PUSH2 0x10AD DUP7 DUP7 PUSH2 0x1391 JUMP JUMPDEST DUP1 SWAP7 POP DUP2 SWAP8 POP POP POP PUSH1 0x40 MLOAD DUP1 PUSH1 0xA0 ADD PUSH1 0x40 MSTORE DUP1 DUP8 DUP2 MSTORE PUSH1 0x20 ADD DUP7 DUP2 MSTORE PUSH1 0x20 ADD DUP6 PUSH1 0x1 PUSH1 0x1 PUSH1 0xA0 SHL SUB AND DUP2 MSTORE PUSH1 0x20 ADD DUP5 DUP2 MSTORE PUSH1 0x20 ADD DUP4 PUSH1 0x1 PUSH1 0x1 PUSH1 0xA0 SHL SUB AND DUP2 MSTORE POP PUSH1 0x5 PUSH1 0x0 DUP10 DUP2 MSTORE PUSH1 0x20 ADD SWAP1 DUP2 MSTORE PUSH1 0x20 ADD PUSH1 0x0 KECCAK256 PUSH1 0x0 DUP3 ADD MLOAD DUP2 PUSH1 0x0 ADD SSTORE PUSH1 0x20 DUP3 ADD MLOAD DUP2 PUSH1 0x1 ADD SSTORE PUSH1 0x40 DUP3 ADD MLOAD DUP2 PUSH1 0x2 ADD PUSH1 0x0 PUSH2 0x100 EXP DUP2 SLOAD DUP2 PUSH1 0x1 PUSH1 0x1 PUSH1 0xA0 SHL SUB MUL NOT AND SWAP1 DUP4 PUSH1 0x1 PUSH1 0x1 PUSH1 0xA0 SHL SUB AND MUL OR SWAP1 SSTORE POP PUSH1 0x60 DUP3 ADD MLOAD DUP2 PUSH1 0x3 ADD SSTORE PUSH1 0x80 DUP3 ADD MLOAD DUP2 PUSH1 0x4 ADD PUSH1 0x0 PUSH2 0x100 EXP DUP2 SLOAD DUP2 PUSH1 0x1 PUSH1 0x1 PUSH1 0xA0 SHL SUB MUL NOT AND SWAP1 DUP4 PUSH1 0x1 PUSH1 0x1 PUSH1 0xA0 SHL SUB AND MUL OR SWAP1 SSTORE POP SWAP1 POP POP PUSH1 0x1 PUSH1 0x4 PUSH1 0x0 DUP10 DUP2 MSTORE PUSH1 0x20 ADD SWAP1 DUP2 MSTORE PUSH1 0x20 ADD PUSH1 0x0 KECCAK256 PUSH1 0x0 PUSH2 0x100 EXP DUP2 SLOAD DUP2 PUSH1 0xFF MUL NOT AND SWAP1 DUP4 ISZERO ISZERO MUL OR SWAP1 SSTORE POP PUSH32 0x4C4DCD7B4186FE1C900D89BC3C911766F63CF9C3570750481F0D89BFBCB75285 DUP8 DUP8 DUP8 DUP8 DUP8 DUP8 PUSH1 0x40 MLOAD PUSH2 0x1213 SWAP7 SWAP6 SWAP5 SWAP4 SWAP3 SWAP2 SWAP1 SWAP6 DUP7 MSTORE PUSH1 0x20 DUP7 ADD SWAP5 SWAP1 SWAP5 MSTORE PUSH1 0x40 DUP6 ADD SWAP3 SWAP1 SWAP3 MSTORE PUSH1 0x1 PUSH1 0x1 PUSH1 0xA0 SHL SUB SWAP1 DUP2 AND PUSH1 0x60 DUP6 ADD MSTORE PUSH1 0x80 DUP5 ADD SWAP2 SWAP1 SWAP2 MSTORE AND PUSH1 0xA0 DUP3 ADD MSTORE PUSH1 0xC0 ADD SWAP1 JUMP JUMPDEST PUSH1 0x40 MLOAD DUP1 SWAP2 SUB SWAP1 LOG1 POP POP POP POP POP POP POP JUMP JUMPDEST PUSH1 0x0 DUP1 PUSH2 0x1231 DUP4 DUP8 PUSH2 0x168D JUMP JUMPDEST SWAP6 POP PUSH2 0x123D DUP6 DUP6 PUSH2 0x168D JUMP JUMPDEST SWAP4 POP PUSH2 0x1249 DUP5 DUP8 PUSH2 0x15C5 JUMP JUMPDEST PUSH2 0x1253 DUP5 DUP8 PUSH2 0x168D JUMP JUMPDEST SWAP2 POP SWAP2 POP SWAP5 POP SWAP5 SWAP3 POP POP POP JUMP JUMPDEST PUSH1 0x40 MLOAD PUSH12 0xFFFFFFFFFFFFFFFFFFFFFFFF NOT PUSH1 0x60 DUP5 SWAP1 SHL AND PUSH1 0x20 DUP3 ADD MSTORE PUSH1 0x34 DUP2 ADD DUP3 SWAP1 MSTORE PUSH1 0x0 SWAP1 PUSH1 0x54 ADD PUSH1 0x40 DUP1 MLOAD DUP1 DUP4 SUB PUSH1 0x1F NOT ADD DUP2 MSTORE DUP3 DUP3 MSTORE DUP1 MLOAD PUSH1 0x20 SWAP2 DUP3 ADD KECCAK256 PUSH1 0x1 PUSH1 0x1 PUSH1 0xA0 SHL SUB DUP8 DUP2 AND PUSH1 0x0 DUP2 DUP2 MSTORE PUSH1 0x3 DUP1 DUP7 MSTORE DUP7 DUP3 KECCAK256 DUP6 SWAP1 SSTORE DUP5 DUP3 MSTORE PUSH1 0x6 DUP7 MSTORE DUP7 DUP3 KECCAK256 PUSH1 0x0 NOT SWAP1 SSTORE PUSH1 0x80 DUP9 ADD DUP8 MSTORE DUP13 DUP9 MSTORE DUP6 DUP9 ADD DUP13 DUP2 MSTORE DUP9 DUP9 ADD DUP5 DUP2 MSTORE PUSH1 0x60 DUP1 DUP12 ADD DUP14 DUP2 MSTORE DUP9 DUP7 MSTORE PUSH1 0x2 DUP1 DUP12 MSTORE SWAP6 DUP12 SWAP1 KECCAK256 SWAP12 MLOAD DUP13 SSTORE SWAP3 MLOAD PUSH1 0x1 DUP13 ADD SSTORE SWAP1 MLOAD SWAP4 DUP11 ADD DUP1 SLOAD PUSH1 0x1 PUSH1 0x1 PUSH1 0xA0 SHL SUB NOT AND SWAP5 SWAP1 SWAP7 AND SWAP4 SWAP1 SWAP4 OR SWAP1 SWAP5 SSTORE SWAP3 MLOAD SWAP7 SWAP1 SWAP3 ADD SWAP6 SWAP1 SWAP6 SSTORE DUP4 MLOAD DUP3 DUP2 MSTORE SWAP3 DUP4 ADD SWAP5 SWAP1 SWAP5 MSTORE SWAP2 DUP2 ADD DUP6 SWAP1 MSTORE SWAP1 SWAP3 POP PUSH32 0x90E88E994885F1CDD31D3393F0B012E817804FC9D2ADEF69D0D7E5053D1E29AD SWAP2 ADD PUSH2 0xA82 JUMP JUMPDEST PUSH1 0x0 DUP1 PUSH2 0x136F DUP4 DUP8 PUSH2 0x168D JUMP JUMPDEST SWAP6 POP PUSH2 0x137B DUP5 DUP7 PUSH2 0x168D JUMP JUMPDEST SWAP5 POP PUSH2 0x1387 DUP6 DUP8 PUSH2 0x16A4 JUMP JUMPDEST PUSH2 0x1253 DUP5 DUP7 PUSH2 0x168D JUMP JUMPDEST PUSH1 0x0 DUP1 PUSH1 0x0 PUSH2 0x13A0 DUP6 DUP6 PUSH2 0x141D JUMP JUMPDEST SWAP1 POP PUSH2 0x13AC DUP2 DUP6 PUSH2 0x1679 JUMP JUMPDEST PUSH2 0x13B6 DUP3 DUP8 PUSH2 0x1679 JUMP JUMPDEST PUSH2 0x13C0 SWAP2 SWAP1 PUSH2 0x1679 JUMP JUMPDEST PUSH2 0x13CA DUP6 DUP8 PUSH2 0x1679 JUMP JUMPDEST EQ PUSH2 0x13FD JUMPI PUSH1 0x40 MLOAD PUSH3 0x461BCD PUSH1 0xE5 SHL DUP2 MSTORE PUSH1 0x20 PUSH1 0x4 DUP3 ADD MSTORE PUSH1 0x3 PUSH1 0x24 DUP3 ADD MSTORE PUSH3 0x159355 PUSH1 0xEA SHL PUSH1 0x44 DUP3 ADD MSTORE PUSH1 0x64 ADD PUSH2 0x34B JUMP JUMPDEST PUSH2 0x1407 DUP2 DUP7 PUSH2 0x1679 JUMP JUMPDEST PUSH2 0x1411 DUP3 DUP7 PUSH2 0x1679 JUMP JUMPDEST SWAP3 POP SWAP3 POP POP SWAP3 POP SWAP3 SWAP1 POP JUMP JUMPDEST PUSH1 0x0 JUMPDEST DUP2 ISZERO PUSH2 0x143B JUMPI DUP2 PUSH2 0x1431 DUP2 DUP6 PUSH2 0x16B7 JUMP JUMPDEST SWAP1 SWAP4 POP SWAP2 POP PUSH2 0x1420 JUMP JUMPDEST POP SWAP1 SWAP2 SWAP1 POP JUMP JUMPDEST PUSH1 0x0 PUSH1 0x20 DUP3 DUP5 SUB SLT ISZERO PUSH2 0x1454 JUMPI PUSH1 0x0 DUP1 REVERT JUMPDEST POP CALLDATALOAD SWAP2 SWAP1 POP JUMP JUMPDEST DUP1 CALLDATALOAD PUSH1 0x1 PUSH1 0x1 PUSH1 0xA0 SHL SUB DUP2 AND DUP2 EQ PUSH2 0x1472 JUMPI PUSH1 0x0 DUP1 REVERT JUMPDEST SWAP2 SWAP1 POP JUMP JUMPDEST PUSH1 0x0 DUP1 PUSH1 0x40 DUP4 DUP6 SUB SLT ISZERO PUSH2 0x148A JUMPI PUSH1 0x0 DUP1 REVERT JUMPDEST DUP3 CALLDATALOAD SWAP2 POP PUSH2 0x149A PUSH1 0x20 DUP5 ADD PUSH2 0x145B JUMP JUMPDEST SWAP1 POP SWAP3 POP SWAP3 SWAP1 POP JUMP JUMPDEST PUSH1 0x0 DUP1 PUSH1 0x0 DUP1 PUSH1 0x80 DUP6 DUP8 SUB SLT ISZERO PUSH2 0x14B9 JUMPI PUSH1 0x0 DUP1 REVERT JUMPDEST DUP5 CALLDATALOAD SWAP4 POP PUSH1 0x20 DUP6 ADD CALLDATALOAD SWAP3 POP PUSH1 0x40 DUP6 ADD CALLDATALOAD SWAP2 POP PUSH2 0x14D7 PUSH1 0x60 DUP7 ADD PUSH2 0x145B JUMP JUMPDEST SWAP1 POP SWAP3 SWAP6 SWAP2 SWAP5 POP SWAP3 POP JUMP JUMPDEST PUSH1 0x0 PUSH1 0x20 DUP3 DUP5 SUB SLT ISZERO PUSH2 0x14F4 JUMPI PUSH1 0x0 DUP1 REVERT JUMPDEST PUSH2 0xB81 DUP3 PUSH2 0x145B JUMP JUMPDEST PUSH1 0x0 DUP1 PUSH1 0x0 DUP1 PUSH1 0x0 DUP1 PUSH1 0xC0 DUP8 DUP10 SUB SLT ISZERO PUSH2 0x1516 JUMPI PUSH1 0x0 DUP1 REVERT JUMPDEST DUP7 CALLDATALOAD SWAP6 POP PUSH1 0x20 DUP8 ADD CALLDATALOAD SWAP5 POP PUSH1 0x40 DUP8 ADD CALLDATALOAD SWAP4 POP PUSH2 0x1534 PUSH1 0x60 DUP9 ADD PUSH2 0x145B JUMP JUMPDEST SWAP3 POP PUSH1 0x80 DUP8 ADD CALLDATALOAD SWAP2 POP PUSH2 0x1549 PUSH1 0xA0 DUP9 ADD PUSH2 0x145B JUMP JUMPDEST SWAP1 POP SWAP3 SWAP6 POP SWAP3 SWAP6 POP SWAP3 SWAP6 JUMP JUMPDEST PUSH1 0x0 DUP1 PUSH1 0x40 DUP4 DUP6 SUB SLT ISZERO PUSH2 0x1568 JUMPI PUSH1 0x0 DUP1 REVERT JUMPDEST POP POP DUP1 CALLDATALOAD SWAP3 PUSH1 0x20 SWAP1 SWAP2 ADD CALLDATALOAD SWAP2 POP JUMP JUMPDEST PUSH1 0x20 DUP1 DUP3 MSTORE PUSH1 0x2 SWAP1 DUP3 ADD MSTORE PUSH2 0x9E9 PUSH1 0xF3 SHL PUSH1 0x40 DUP3 ADD MSTORE PUSH1 0x60 ADD SWAP1 JUMP JUMPDEST PUSH1 0x20 DUP1 DUP3 MSTORE PUSH1 0x2 SWAP1 DUP3 ADD MSTORE PUSH2 0x5553 PUSH1 0xF0 SHL PUSH1 0x40 DUP3 ADD MSTORE PUSH1 0x60 ADD SWAP1 JUMP JUMPDEST PUSH4 0x4E487B71 PUSH1 0xE0 SHL PUSH1 0x0 MSTORE PUSH1 0x11 PUSH1 0x4 MSTORE PUSH1 0x24 PUSH1 0x0 REVERT JUMPDEST DUP1 DUP3 ADD DUP1 DUP3 GT ISZERO PUSH2 0xAC3 JUMPI PUSH2 0xAC3 PUSH2 0x15AF JUMP JUMPDEST PUSH1 0x0 PUSH1 0x20 DUP3 DUP5 SUB SLT ISZERO PUSH2 0x15EA JUMPI PUSH1 0x0 DUP1 REVERT JUMPDEST POP MLOAD SWAP2 SWAP1 POP JUMP JUMPDEST PUSH1 0x0 PUSH1 0x20 DUP3 DUP5 SUB SLT ISZERO PUSH2 0x1603 JUMPI PUSH1 0x0 DUP1 REVERT JUMPDEST DUP2 MLOAD DUP1 ISZERO ISZERO DUP2 EQ PUSH2 0xB81 JUMPI PUSH1 0x0 DUP1 REVERT JUMPDEST SWAP6 DUP7 MSTORE PUSH1 0x20 DUP7 ADD SWAP5 SWAP1 SWAP5 MSTORE PUSH1 0x40 DUP6 ADD SWAP3 SWAP1 SWAP3 MSTORE PUSH1 0x1 PUSH1 0x1 PUSH1 0xA0 SHL SUB SWAP1 DUP2 AND PUSH1 0x60 DUP6 ADD MSTORE AND PUSH1 0x80 DUP4 ADD MSTORE PUSH1 0xA0 DUP3 ADD MSTORE PUSH1 0xC0 ADD SWAP1 JUMP JUMPDEST PUSH1 0x20 DUP1 DUP3 MSTORE PUSH1 0x2 SWAP1 DUP3 ADD MSTORE PUSH2 0x1153 PUSH1 0xF2 SHL PUSH1 0x40 DUP3 ADD MSTORE PUSH1 0x60 ADD SWAP1 JUMP JUMPDEST PUSH4 0x4E487B71 PUSH1 0xE0 SHL PUSH1 0x0 MSTORE PUSH1 0x12 PUSH1 0x4 MSTORE PUSH1 0x24 PUSH1 0x0 REVERT JUMPDEST PUSH1 0x0 DUP3 PUSH2 0x1688 JUMPI PUSH2 0x1688 PUSH2 0x1663 JUMP JUMPDEST POP DIV SWAP1 JUMP JUMPDEST DUP1 DUP3 MUL DUP2 ISZERO DUP3 DUP3 DIV DUP5 EQ OR PUSH2 0xAC3 JUMPI PUSH2 0xAC3 PUSH2 0x15AF JUMP JUMPDEST DUP2 DUP2 SUB DUP2 DUP2 GT ISZERO PUSH2 0xAC3 JUMPI PUSH2 0xAC3 PUSH2 0x15AF JUMP JUMPDEST PUSH1 0x0 DUP3 PUSH2 0x16C6 JUMPI PUSH2 0x16C6 PUSH2 0x1663 JUMP JUMPDEST POP MOD SWAP1 JUMP INVALID LOG2 PUSH5 0x6970667358 0x22 SLT KECCAK256 PUSH13 0x519D945161B5058240F8443066 0xB6 GT PUSH3 0x234130 PUSH7 0xD29023E1E44C79 XOR 0x1F 0xE0 0x2D PUSH5 0x736F6C6343 STOP ADDMOD SGT STOP CALLER ",
  "sha1": "f2b91ab81c0aba1fccda7870d5333df3796484e6",
  "source": "// SPDX-License-Identifier: GPL-3.0-or-later\n\npragma solidity ^0.8.4;\n\nimport \"../node_modules/@openzeppelin/contracts/token/ERC20/ERC20.sol\";\n\n/// @notice Returns a boolean stating if two given fractions are identical.\n/// @param numerator1 Numerator of first fraction.\n/// @param denominator1 Denominator of first fraction.\n/// @param numerator2 Numerator of second fraction.\n/// @param denominator2 Denominator of second fraction.\nfunction fractionsAreIdentical(uint256 numerator1, uint256  denominator1, uint256 numerator2, uint256 denominator2) pure returns(bool) {\n    return numerator1 == numerator2 && denominator1 == denominator2;\n}\n\n/// @notice Returns the two quotients and the remainder of an uneven division with a fraction. Useful for dividing ether and tokens.\n/// @param dividend The dividend, which will be divided by the fraction.\n/// @param numerator Numerator of fraction, which the dividend will be divided into.\n/// @param denominator Denominator of fraction, which the dividend will be divided into.\nfunction divideUnequallyIntoTwoWithRemainder(uint256 dividend, uint256 numerator, uint256 denominator) pure returns(uint256, uint256, uint256) {\n    require(denominator > numerator);\n    uint256 quotient1 = dividend*numerator/denominator;\n    uint256 quotient2 = dividend*(denominator-numerator)/denominator;\n    return (quotient1, quotient2, dividend - (quotient1 + quotient2));\n}\n\n/// @notice Returns the common denominator between two integers.\n/// @param a First integer.\n/// @param b Second integer.\nfunction getCommonDenominator(uint256 a, uint256 b) pure returns(uint256) {\n        while (b > 0) {\n        (a, b) = (b, a % b);\n        }\n        return a;\n}\n\n/// @notice Returns a simplified version of a fraction.\n/// @param numerator Numerator of fraction to be simplified.\n/// @param denominator Denominator of fraction to be simplified.\nfunction simplifyFraction(uint256 numerator, uint256 denominator) pure returns(uint256, uint256) {\n    uint256 commonDenominator = getCommonDenominator(numerator,denominator);\n    require(numerator/denominator == ((numerator/commonDenominator)/(denominator/commonDenominator)),\"VMT\");\n    return (numerator/commonDenominator,denominator/commonDenominator);\n}\n\n/// @notice Adds two fractions together.\n/// @param numerator1 Numerator of first fraction.\n/// @param denominator1 Denominator of first fraction.\n/// @param numerator2 Numerator of second fraction.\n/// @param denominator2 Denominator of second fraction.\nfunction addFractions(uint256 numerator1, uint256  denominator1, uint256 numerator2, uint256 denominator2) pure returns (uint256, uint256) {\n    numerator1 = numerator1 * denominator2;\n    numerator2 = numerator2 * denominator1;\n    return (numerator1+numerator2,denominator1*denominator2);\n}\n\n/// @notice Subtracts a fraction from another and returns the difference.\n/// @param numerator1 Numerator of minuend fraction.\n/// @param denominator1 Denominator of minuend fraction.\n/// @param numerator2 Numerator of subtrahend fraction.\n/// @param denominator2 Denominator of subtrahend fraction.\nfunction subtractFractions(uint256 numerator1, uint256 numerator2, uint256  denominator1, uint256 denominator2) pure returns (uint256,uint256) {\n    numerator1 = numerator1 * denominator2;\n    numerator2 = numerator2 * denominator1;\n    return (numerator1-numerator2,denominator1*denominator2);\n}\n\n\n/// @title A shardable/fractional non-fungible token that can be fractually owned via Shards.\n/// @author Frederik W. L. Christoffersen\n/// @notice This contract is used to fractionalize a non-fungible token. Be aware that a sell transfers a service fee of 2.5% to Counekt.\n/// @dev historicShards are used to show proof of ownership at different points of time.\n/// @custom:beaware This is a commercial contract.\ncontract Shardable {\n\n    /// @notice A struct representing the related info of a non-fungible Shard token.\n    /// @dev Is represented via a bytes32 value created from the hash: keccak256(owner, creationClock).\n    /// @param numerator Numerator of the fraction that the Shard represents.\n    /// @param denominator Denominator of the fraction that the Shard represents.\n    /// @param owner The owner of the Shard.\n    /// @param creationClock The clock at which the Shard was created.\n    /// @param expiredClock The clock at which the Shard expired. Default is set to the maximum value.\n    struct ShardInfo {\n        uint256 numerator;\n        uint256 denominator;\n        address owner; \n        uint256 creationClock;        \n    }\n\n    /// @notice A struct representing the related sale info of a non-fungible Shard token.\n    /// @param numerator Numerator of the fraction that is for sale.\n    /// @param denominator Denominator of the fraction that is for sale.\n    /// @param tokenAddress The address of the token that is accepted when purchasing. A value of 0x0 represents ether.\n    /// @param price The amount which the Shard is for sale as. The token address being the valuta.\n    /// @param to Address pointing to a potentially specifically set buyer of the sale.\n    struct ShardSale {\n        uint256 numerator;\n        uint256 denominator;\n        address tokenAddress;\n        uint256 price;\n        address to;\n\n    }\n\n    /// @notice Integer value to implement a concept of time independently of the messy block.timestamp\n    uint256 clock = 0;\n\n    /// @notice Boolean stating if the Shardable is active and tradeable or not.\n    bool public active;\n    /// @notice Mapping pointing to related info of a Shard given the bytes of a unique Shard instance.\n    mapping(bytes32 => ShardInfo) public infoByShard;\n    /// @notice Mapping pointing to a currently valid shard given the address of its owner.\n    mapping(address => bytes32) public shardByOwner;\n    /// @notice Mapping pointing to a boolean stating if a given Shard is for sale or not.\n    mapping(bytes32 => bool) shardsForSale;\n    /// @notice Mapping pointing to related sale info of a Shard given the bytes of a unique Shard instance.\n    mapping(bytes32 => ShardSale) saleByShard;\n    // @notice Mapping pointing to an expired clock given a shard.\n    mapping(bytes32 => uint256) shardExpiredClock;\n\n    /// @notice Event emitted when a Shard is created.\n    /// @param shard The Shard byte identifier, which was created.\n    /// @param owner The owner of the created Shard.\n    /// @param creationClock The clock at which the shard was created.\n    event NewShard(\n        bytes32 shard,\n        address owner,\n        uint256 creationClock\n        );\n\n    /// @notice Event emitted when a sale of a Shard is sold.\n    /// @param shard The shard that was sold from.\n    /// @param numerator Numerator of the absolute fraction of the Shard that was sold.\n    /// @param denominator Denominator of the absolute fraction of the Shard that was sold.\n    /// @param to The buyer of the sale.\n    /// @param tokenAddress The address of the token that was accepted in the purchase. A value of 0x0 represents ether.\n    /// @param price The amount which the Shard was for sale for. The token address being the valuta.\n    event SaleSold(\n        bytes32 shard,\n        uint256 numerator,\n        uint256 denominator,\n        address to,\n        address tokenAddress,\n        uint256 price\n        );\n\n    /// @notice Event emitted when a Shard is put up for sale.\n    /// @param shard The shard that was put for sale.\n    /// @param numerator Numerator of the absolute fraction of the Shard put for sale.\n    /// @param denominator Denominator of the absolute fraction of the Shard put for sale.\n    /// @param tokenAddress The address of the token that is accepted when purchasing. A value of 0x0 represents ether.\n    /// @param price The amount which the Shard is for sale as. The token address being the valuta.\n    /// @param to The specifically set buyer of the sale, if any.\n    event PutForSale(\n        bytes32 shard,\n        uint256 numerator,\n        uint256 denominator,\n        address tokenAddress,\n        uint256 price,\n        address to\n        );\n\n    modifier incrementClock {\n        _;\n        clock++;\n    }\n    \n    /// @notice Modifier that requires the msg.sender to be a current valid Shard holder.\n    modifier onlyShardHolder {\n        require(isShardHolder(msg.sender), \"UH\");\n        _;\n    }\n\n    /// @notice Modifier that requires a given Shard to be currently valid.\n    modifier onlyValidShard(bytes32 shard) {\n        require(isValidShard(shard), \"US\");\n        _;\n    }\n\n    /// @notice Modifier that makes sure the entity is active and not liquidized/dissolved.\n    modifier onlyIfActive() {\n        require(active == true, \"EL\");\n        _;\n    }\n\n    /// @notice Modifier that requires the msg.sender to be the owner of a given Shard\n    /// @param shard The Shard, whose ownership is tested for.\n    modifier onlyHolder(bytes32 shard) {\n        require(infoByShard[shard].owner == msg.sender, \"OH\");\n        _;\n    }\n\n    /// @notice Constructor function that pushes the first Shard being the property of the Shardable creator.\n    constructor() {\n        // passes full ownership to creator of contract\n        _pushShard(1, 1, msg.sender, 0);\n        active = true;\n    }\n\n    /// @notice Purchases a listed Shard for sale.\n    /// @dev If the purchase is with tokens (ie. tokenAddress != 0x0), first call 'token.approve(Shardable.address, salePrice);'\n    /// @param shard The shard of which a fraction will be purchased.\n    function purchase(bytes32 shard) external payable onlyValidShard(shard) {\n        require(shardsForSale[shard], \"NS\");\n        require((saleByShard[shard].to == msg.sender) || (saleByShard[shard].to == address(0x0)), \"SR\");\n        _cancelSale(shard);\n        (uint256 profitToCounekt, uint256 profitToSeller, uint256 remainder) = divideUnequallyIntoTwoWithRemainder(saleByShard[shard].price,25,1000);\n        profitToSeller += remainder; // remainder goes to seller\n        // if ether\n        if (saleByShard[shard].tokenAddress == address(0x0)) {\n            require(msg.value >= saleByShard[shard].price, \"IE\");\n            // Pay Service Fee of 2.5% to Counekt\n            (bool successToCounekt,) = payable(0x49a71890aea5A751E30e740C504f2E9683f347bC).call{value:profitToCounekt}(\"\");\n            // Rest goes to the seller\n            (bool successToSeller,) = payable(infoByShard[shard].owner).call{value:profitToSeller}(\"\");\n            require(successToSeller && successToCounekt, \"TF\");\n        } \n        else {\n            ERC20 token = ERC20(saleByShard[shard].tokenAddress);\n            require(token.allowance(msg.sender,address(this)) >= saleByShard[shard].price,\"IT\");\n            // Pay Service Fee of 2.5% to Counekt\n            token.transferFrom(msg.sender, 0x49a71890aea5A751E30e740C504f2E9683f347bC, profitToCounekt);\n            // Rest goes to the seller\n            token.transferFrom(msg.sender,infoByShard[shard].owner,profitToSeller);\n        } \n        require(saleByShard[shard].numerator != 0 && saleByShard[shard].denominator != 0, \"ES\");\n        if (fractionsAreIdentical(infoByShard[shard].numerator,infoByShard[shard].denominator,saleByShard[shard].numerator,saleByShard[shard].denominator)) {_transferShard(shard,msg.sender);}\n        else {_split(shard, saleByShard[shard].numerator,saleByShard[shard].denominator,msg.sender);}\n        emit SaleSold(shard,saleByShard[shard].numerator,saleByShard[shard].denominator,msg.sender,saleByShard[shard].tokenAddress,saleByShard[shard].price);\n    }\n\n    /// @notice Puts a given shard for sale.\n    /// @param shard The shard to be put for sale.\n    /// @param numerator Numerator of the absolute fraction of the Shard to be put for sale.\n    /// @param denominator Denominator of the absolute fraction of the Shard to be put for sale.\n    /// @param tokenAddress The address of the token that is accepted when purchasing. A value of 0x0 represents ether.\n    /// @param price The amount which the Shard is for sale as. The token address being the valuta.\n    /// @param to The specifically set buyer of the sale. Open to anyone, if address(0).\n    function putForSale(bytes32 shard, uint256 numerator, uint256 denominator, address tokenAddress, uint256 price, address to) public onlyHolder(shard) onlyValidShard(shard) {\n        _putForSale(shard,numerator,denominator,tokenAddress,price,to);\n    }\n\n    /// @notice Cancels a sell of a given Shard.\n    /// @param shard The shard to be put off sale.\n    function cancelSale(bytes32 shard) public onlyHolder(shard) onlyValidShard(shard) {\n        require(shardsForSale[shard], \"NS\");\n        _cancelSale(shard);\n    }\n\n    /// @notice Splits a currently valid shard into two new ones. One is assigned to the receiver. The rest to the previous owner.\n    /// @param senderShard The shard to be split.\n    /// @param numerator Numerator of the absolute fraction, which will be subtracted from the previous shard and sent to the receiver.\n    /// @param denominator Denominator of the absolute fraction, which will be subtracted from the previous shard and sent to the receiver.\n    /// @param to The receiver of the new Shard.\n    function split(bytes32 senderShard, uint256 numerator, uint256 denominator, address to) public onlyHolder(senderShard) onlyValidShard(senderShard) {\n        _split(senderShard,numerator,denominator,to);\n    }\n\n    /// @notice Sends a whole shard to a receiver.\n    /// @param senderShard The shard to be transferred.\n    /// @param to The receiver of the new Shard.\n    function transferShard(bytes32 senderShard, address to) public onlyHolder(senderShard) onlyValidShard(senderShard) {\n        _transferShard(senderShard,to);\n    }\n\n    /// @notice Returns the clock, in which a shard will or has expired.\n    function getShardExpiredClock(bytes32 shard) public view returns(uint256) {\n        return shardExpiredClock[shard];\n    }\n\n    /// @notice Returns the price, at which a shard is for sale.\n    function getShardSalePrice(bytes32 shard) public view returns(uint256) {\n        return saleByShard[shard].price;\n    }\n\n    /// @notice Returns a boolean stating if a given shard is currently valid or not.\n    /// @param shard The shard, whose validity is to be checked for.\n    function isValidShard(bytes32 shard) public view returns(bool) {\n        return getShardExpiredClock(shard) > clock;\n    }\n\n    /// @notice Checks if address is a shard holder - at least a partial owner of the contract.\n    /// @param account The address to be checked for.\n    function isShardHolder(address account) public view returns(bool) {\n        return isValidShard(shardByOwner[account]);\n    }\n    \n    /// @notice Returns a boolean stating if the given shard was valid at a given clock.\n    /// @param shard The shard, whose validity is to be checked for.\n    /// @param atClock The clock to be checked for.\n    function shardExisted(bytes32 shard, uint256 atClock) public view returns(bool) {\n        return infoByShard[shard].creationClock <= atClock && atClock < getShardExpiredClock(shard);\n    }\n\n    /// @notice Cancels a sell of a given Shard.\n    /// @param shard The shard to be put off sale.\n    function _cancelSale(bytes32 shard) internal onlyValidShard(shard) {\n        shardsForSale[shard] = false;\n    }\n\n    /// @notice Splits a currently valid shard into two new ones. One is assigned to the receiver. The rest to the previous owner.\n    /// @param senderShard The shard to be split.\n    /// @param numerator Numerator of the absolute fraction, which will be subtracted from the previous shard and sent to the receiver.\n    /// @param denominator Denominator of the absolute fraction, which will be subtracted from the previous shard and sent to the receiver.\n    /// @param to The receiver of the new Shard.\n    function _split(bytes32 senderShard, uint256 numerator, uint256 denominator, address to) internal onlyValidShard(senderShard) onlyIfActive {\n        require(numerator/denominator < infoByShard[senderShard].numerator/infoByShard[senderShard].denominator, \"IF\");\n        uint256 transferClock = clock;\n        if (isShardHolder(to)) { // if Receiver already owns a shard\n            // The fractions are added and upgraded\n            (uint256 sumNumerator, uint256 sumDenominator) = addFractions(infoByShard[shardByOwner[to]].numerator,infoByShard[shardByOwner[to]].denominator,numerator,denominator);\n            _pushShard(sumNumerator,sumDenominator,to,transferClock);\n\n            // Expire the Old Receiver Shard\n            _expireShard(shardByOwner[to], transferClock);\n\n        }\n\n        else {\n            // The Fraction of the Receiver Shard is equal to the one split off of the Sender Shard\n            _pushShard(numerator,denominator,to,transferClock);\n        }\n\n\n        // Expire the Old Sender Shard\n        _expireShard(senderShard, transferClock);\n        // The new Fraction of the Sender Shard has been subtracted by the Split Fraction.\n        (uint256 diffNumerator, uint256 diffDenominator) = subtractFractions(infoByShard[senderShard].numerator,infoByShard[senderShard].denominator,numerator,denominator);\n        _pushShard(diffNumerator,diffDenominator,infoByShard[senderShard].owner,transferClock);\n        emit SaleSold(senderShard,numerator,denominator,to,address(0),0);\n    }\n\n    /// @notice Sends a whole shard to a receiver.\n    /// @param senderShard The shard to be transferred.\n    /// @param to The receiver of the new Shard.\n    function _transferShard(bytes32 senderShard, address to) internal onlyValidShard(senderShard) onlyIfActive {\n        uint256 transferClock = clock;\n        if (isShardHolder(to)) {\n\n            // Destroying the Old receiver\n            _expireShard(shardByOwner[to], transferClock);\n\n            // The fractions are added and upgraded,to,transferClock\n            (uint256 numerator, uint256 denominator) = addFractions(infoByShard[senderShard].numerator,infoByShard[senderShard].denominator,infoByShard[shardByOwner[to]].numerator,infoByShard[shardByOwner[to]].denominator);\n            _pushShard(numerator,denominator,to,transferClock);\n        }\n        else {\n            _pushShard(infoByShard[senderShard].numerator,infoByShard[senderShard].denominator,to,transferClock);\n        }\n\n        // Destroying the Old sender\n        _expireShard(senderShard, transferClock);\n        \n        emit SaleSold(senderShard,infoByShard[senderShard].numerator,infoByShard[senderShard].denominator,to,address(0),0);\n    }\n\n    /// @notice Puts a given shard for sale.\n    /// @param shard The shard to be put for sale.\n    /// @param numerator Numerator of the absolute fraction of the Shard to be put for sale.\n    /// @param denominator Denominator of the absolute fraction of the Shard to be put for sale.\n    /// @param tokenAddress The address of the token that is accepted when purchasing. A value of 0x0 represents ether.\n    /// @param price The amount which the Shard is for sale as. The token address being the valuta.\n    /// @param to The specifically set buyer of the sale. For anyone to buy if address(0).\n    function _putForSale(bytes32 shard, uint256 numerator, uint256 denominator, address tokenAddress, uint256 price, address to) internal onlyValidShard(shard) onlyIfActive {\n        require(numerator/denominator <= infoByShard[shard].numerator/infoByShard[shard].denominator, \"IF\");\n        (numerator, denominator) = simplifyFraction(numerator,denominator);\n        saleByShard[shard] = ShardSale({\n            numerator: numerator,\n            denominator: denominator,\n            tokenAddress: tokenAddress,\n            price: price,\n            to: to\n        });\n        shardsForSale[shard] = true;\n        emit PutForSale(shard,numerator,denominator,tokenAddress,price,to);\n    }\n\n    /// @notice Pushes a shard to the registry of currently valid shards.\n    /// @param numerator Numerator of the fraction that the Shard represents.\n    /// @param denominator Denominator of the fraction that the Shard represents.\n    /// @param owner The owner of the Shard.\n    /// @param creationClock The clock at which the Shard will be created.\n    function _pushShard(uint256 numerator, uint256 denominator, address owner, uint256 creationClock) internal {\n        // The representation, bytes and hash\n        bytes32 shard = keccak256(abi.encodePacked(owner,creationClock));\n        shardByOwner[owner] = shard;\n        shardExpiredClock[shard] = type(uint256).max; // The maximum value: (2^256)-1;\n        // The info, attributes and details\n        infoByShard[shard] = ShardInfo({\n                                numerator:numerator,\n                                denominator:denominator,\n                                owner: owner,\n                                creationClock: creationClock\n                                });\n        emit NewShard(shard,owner,creationClock);\n\n    }\n\n    /// @notice Removes a shard from the registry of currently valid shards.\n    /// @param shard The shard to be expired.\n    /// @param expiredClock The clock at which the Shard will expire.\n    function _expireShard(bytes32 shard, uint256 expiredClock) internal  {\n        shardExpiredClock[shard] = expiredClock;\n    }\n\n}",
  "sourcePath": "contracts/shardable.sol",
  "type": "contract"
}