{
  "abi": [
    {
      "inputs": [],
      "stateMutability": "nonpayable",
      "type": "constructor"
    },
    {
      "anonymous": false,
      "inputs": [
        {
          "indexed": false,
          "internalType": "bytes32",
          "name": "shard",
          "type": "bytes32"
        },
        {
          "indexed": false,
          "internalType": "uint256",
          "name": "expirationClock",
          "type": "uint256"
        }
      ],
      "name": "ExpiredShard",
      "type": "event"
    },
    {
      "anonymous": false,
      "inputs": [
        {
          "indexed": false,
          "internalType": "bytes32",
          "name": "shard",
          "type": "bytes32"
        },
        {
          "indexed": false,
          "internalType": "address",
          "name": "owner",
          "type": "address"
        },
        {
          "indexed": false,
          "internalType": "uint256",
          "name": "creationClock",
          "type": "uint256"
        }
      ],
      "name": "NewShard",
      "type": "event"
    },
    {
      "anonymous": false,
      "inputs": [
        {
          "indexed": false,
          "internalType": "bytes32",
          "name": "shard",
          "type": "bytes32"
        },
        {
          "indexed": false,
          "internalType": "uint256",
          "name": "numerator",
          "type": "uint256"
        },
        {
          "indexed": false,
          "internalType": "uint256",
          "name": "denominator",
          "type": "uint256"
        },
        {
          "indexed": false,
          "internalType": "address",
          "name": "tokenAddress",
          "type": "address"
        },
        {
          "indexed": false,
          "internalType": "uint256",
          "name": "price",
          "type": "uint256"
        },
        {
          "indexed": false,
          "internalType": "address",
          "name": "to",
          "type": "address"
        }
      ],
      "name": "PutForSale",
      "type": "event"
    },
    {
      "anonymous": false,
      "inputs": [
        {
          "indexed": false,
          "internalType": "bytes32",
          "name": "shard",
          "type": "bytes32"
        },
        {
          "indexed": false,
          "internalType": "uint256",
          "name": "numerator",
          "type": "uint256"
        },
        {
          "indexed": false,
          "internalType": "uint256",
          "name": "denominator",
          "type": "uint256"
        },
        {
          "indexed": false,
          "internalType": "address",
          "name": "to",
          "type": "address"
        },
        {
          "indexed": false,
          "internalType": "address",
          "name": "tokenAddress",
          "type": "address"
        },
        {
          "indexed": false,
          "internalType": "uint256",
          "name": "price",
          "type": "uint256"
        }
      ],
      "name": "SaleSold",
      "type": "event"
    },
    {
      "inputs": [],
      "name": "active",
      "outputs": [
        {
          "internalType": "bool",
          "name": "",
          "type": "bool"
        }
      ],
      "stateMutability": "view",
      "type": "function"
    },
    {
      "inputs": [
        {
          "internalType": "bytes32",
          "name": "shard",
          "type": "bytes32"
        }
      ],
      "name": "cancelSale",
      "outputs": [],
      "stateMutability": "nonpayable",
      "type": "function"
    },
    {
      "inputs": [],
      "name": "getCurrentClock",
      "outputs": [
        {
          "internalType": "uint256",
          "name": "",
          "type": "uint256"
        }
      ],
      "stateMutability": "view",
      "type": "function"
    },
    {
      "inputs": [
        {
          "internalType": "bytes32",
          "name": "shard",
          "type": "bytes32"
        }
      ],
      "name": "getShardExpirationClock",
      "outputs": [
        {
          "internalType": "uint256",
          "name": "",
          "type": "uint256"
        }
      ],
      "stateMutability": "view",
      "type": "function"
    },
    {
      "inputs": [
        {
          "internalType": "bytes32",
          "name": "shard",
          "type": "bytes32"
        }
      ],
      "name": "getShardSalePrice",
      "outputs": [
        {
          "internalType": "uint256",
          "name": "",
          "type": "uint256"
        }
      ],
      "stateMutability": "view",
      "type": "function"
    },
    {
      "inputs": [
        {
          "internalType": "bytes32",
          "name": "",
          "type": "bytes32"
        }
      ],
      "name": "infoByShard",
      "outputs": [
        {
          "internalType": "uint256",
          "name": "numerator",
          "type": "uint256"
        },
        {
          "internalType": "uint256",
          "name": "denominator",
          "type": "uint256"
        },
        {
          "internalType": "address",
          "name": "owner",
          "type": "address"
        },
        {
          "internalType": "uint256",
          "name": "creationClock",
          "type": "uint256"
        }
      ],
      "stateMutability": "view",
      "type": "function"
    },
    {
      "inputs": [
        {
          "internalType": "address",
          "name": "account",
          "type": "address"
        }
      ],
      "name": "isShardHolder",
      "outputs": [
        {
          "internalType": "bool",
          "name": "",
          "type": "bool"
        }
      ],
      "stateMutability": "view",
      "type": "function"
    },
    {
      "inputs": [
        {
          "internalType": "bytes32",
          "name": "shard",
          "type": "bytes32"
        }
      ],
      "name": "isValidShard",
      "outputs": [
        {
          "internalType": "bool",
          "name": "",
          "type": "bool"
        }
      ],
      "stateMutability": "view",
      "type": "function"
    },
    {
      "inputs": [
        {
          "internalType": "bytes32",
          "name": "shard",
          "type": "bytes32"
        }
      ],
      "name": "purchase",
      "outputs": [],
      "stateMutability": "payable",
      "type": "function"
    },
    {
      "inputs": [
        {
          "internalType": "bytes32",
          "name": "shard",
          "type": "bytes32"
        },
        {
          "internalType": "uint256",
          "name": "numerator",
          "type": "uint256"
        },
        {
          "internalType": "uint256",
          "name": "denominator",
          "type": "uint256"
        },
        {
          "internalType": "address",
          "name": "tokenAddress",
          "type": "address"
        },
        {
          "internalType": "uint256",
          "name": "price",
          "type": "uint256"
        },
        {
          "internalType": "address",
          "name": "to",
          "type": "address"
        }
      ],
      "name": "putForSale",
      "outputs": [],
      "stateMutability": "nonpayable",
      "type": "function"
    },
    {
      "inputs": [
        {
          "internalType": "address",
          "name": "",
          "type": "address"
        }
      ],
      "name": "shardByOwner",
      "outputs": [
        {
          "internalType": "bytes32",
          "name": "",
          "type": "bytes32"
        }
      ],
      "stateMutability": "view",
      "type": "function"
    },
    {
      "inputs": [
        {
          "internalType": "bytes32",
          "name": "shard",
          "type": "bytes32"
        },
        {
          "internalType": "uint256",
          "name": "atClock",
          "type": "uint256"
        }
      ],
      "name": "shardExisted",
      "outputs": [
        {
          "internalType": "bool",
          "name": "",
          "type": "bool"
        }
      ],
      "stateMutability": "view",
      "type": "function"
    },
    {
      "inputs": [
        {
          "internalType": "bytes32",
          "name": "senderShard",
          "type": "bytes32"
        },
        {
          "internalType": "uint256",
          "name": "numerator",
          "type": "uint256"
        },
        {
          "internalType": "uint256",
          "name": "denominator",
          "type": "uint256"
        },
        {
          "internalType": "address",
          "name": "to",
          "type": "address"
        }
      ],
      "name": "split",
      "outputs": [],
      "stateMutability": "nonpayable",
      "type": "function"
    }
  ],
  "bytecode": "60806040526000805534801561001457600080fd5b50610023600180336000610034565b6001805460ff19168117905561013b565b6040516001600160601b0319606084901b1660208201526034810182905260009060540160408051808303601f1901815282825280516020918201206001600160a01b03878116600081815260038086528682208590558482526006865286822060001990556080880187528c88528588018c81528888018481526060808b018d81528886526002808b52958b90209b518c55925160018c01559051938a0180546001600160a01b0319169490961693909317909455925196909201959095558351828152928301949094529181018590529092507f90e88e994885f1cdd31d3393f0b012e817804fc9d2adef69d0d7e5053d1e29ad910160405180910390a15050505050565b6114b38061014a6000396000f3fe6080604052600436106100c25760003560e01c8063bcedb2e01161007f578063e1c34c1f11610059578063e1c34c1f14610277578063efae89f814610297578063f9983896146102c4578063fd06636b146102e457600080fd5b8063bcedb2e0146101bb578063c4802eb214610237578063cc4456111461026457600080fd5b806302fb0c5e146100c75780630bea8985146100f65780637b785493146101185780638d7844a6146101565780639995b9a914610176578063a902780f146101a6575b600080fd5b3480156100d357600080fd5b506001546100e19060ff1681565b60405190151581526020015b60405180910390f35b34801561010257600080fd5b50610116610111366004611270565b610304565b005b34801561012457600080fd5b50610148610133366004611270565b60009081526005602052604090206003015490565b6040519081526020016100ed565b34801561016257600080fd5b506101166101713660046112a5565b6103d0565b34801561018257600080fd5b506100e1610191366004611270565b60008054918152600660205260409020541190565b3480156101b257600080fd5b50600054610148565b3480156101c757600080fd5b506102086101d6366004611270565b600260208190526000918252604090912080546001820154928201546003909201549092916001600160a01b03169084565b6040516100ed949392919093845260208401929092526001600160a01b03166040830152606082015260800190565b34801561024357600080fd5b506101486102523660046112e4565b60036020526000908152604090205481565b610116610272366004611270565b610456565b34801561028357600080fd5b506100e16102923660046112e4565b6109d3565b3480156102a357600080fd5b506101486102b2366004611270565b60009081526006602052604090205490565b3480156102d057600080fd5b506101166102df3660046112ff565b610a0b565b3480156102f057600080fd5b506100e16102ff366004611357565b610a95565b6000818152600260208190526040909120015481906001600160a01b031633146103495760405162461bcd60e51b815260040161034090611379565b60405180910390fd5b816103638160008054918152600660205260409020541190565b61037f5760405162461bcd60e51b815260040161034090611395565b60008381526004602052604090205460ff166103c25760405162461bcd60e51b81526020600482015260026024820152614e5360f01b6044820152606401610340565b6103cb83610aca565b505050565b6000848152600260208190526040909120015484906001600160a01b0316331461040c5760405162461bcd60e51b815260040161034090611379565b846104268160008054918152600660205260409020541190565b6104425760405162461bcd60e51b815260040161034090611395565b61044e86868686610b19565b505050505050565b806104708160008054918152600660205260409020541190565b61048c5760405162461bcd60e51b815260040161034090611395565b60008281526004602052604090205460ff166104cf5760405162461bcd60e51b81526020600482015260026024820152614e5360f01b6044820152606401610340565b6000828152600560205260409020600401546001600160a01b031633148061050f57506000828152600560205260409020600401546001600160a01b0316155b6105405760405162461bcd60e51b815260206004820152600260248201526129a960f11b6044820152606401610340565b61054982610aca565b6000828152600560205260408120600301548190819061056d9060196103e8610d41565b9194509250905061057e81836113c7565b6000868152600560205260409020600201549092506001600160a01b03166106f0576000858152600560205260409020600301543410156105e65760405162461bcd60e51b8152602060048201526002602482015261494560f01b6044820152606401610340565b6040516000907349a71890aea5a751e30e740c504f2e9683f347bc9085908381818185875af1925050503d806000811461063c576040519150601f19603f3d011682016040523d82523d6000602084013e610641565b606091505b5050600087815260026020819052604080832090910154905192935090916001600160a01b039091169085908381818185875af1925050503d80600081146106a5576040519150601f19603f3d011682016040523d82523d6000602084013e6106aa565b606091505b505090508080156106b85750815b6106e95760405162461bcd60e51b81526020600482015260026024820152612a2360f11b6044820152606401610340565b50506108cb565b6000858152600560205260409081902060028101546003909101549151636eb1769f60e11b81523360048201523060248201526001600160a01b039091169190829063dd62ed3e90604401602060405180830381865afa158015610758573d6000803e3d6000fd5b505050506040513d601f19601f8201168201806040525081019061077c91906113da565b10156107af5760405162461bcd60e51b8152602060048201526002602482015261125560f21b6044820152606401610340565b6040516323b872dd60e01b81523360048201527349a71890aea5a751e30e740c504f2e9683f347bc6024820152604481018590526001600160a01b038216906323b872dd906064016020604051808303816000875af1158015610816573d6000803e3d6000fd5b505050506040513d601f19601f8201168201806040525081019061083a91906113f3565b50600086815260026020819052604091829020015490516323b872dd60e01b81523360048201526001600160a01b03918216602482015260448101859052908216906323b872dd906064016020604051808303816000875af11580156108a4573d6000803e3d6000fd5b505050506040513d601f19601f820116820180604052508101906108c891906113f3565b50505b600085815260056020526040902054158015906108f8575060008581526005602052604090206001015415155b6109295760405162461bcd60e51b8152602060048201526002602482015261455360f01b6044820152606401610340565b6000858152600560205260409020805460019091015461094b91879133610b19565b60008581526005602090815260409182902080546001820154600283015460039093015485518b815294850192909252938301939093523360608301526001600160a01b0316608082015260a08101919091527fd8d12448acb9a12d0ca44f527c717c0de64f03b49ca4032f87feae10af5eaabe9060c0015b60405180910390a15050505050565b6001600160a01b038116600090815260036020526040812054610a059060008054918152600660205260409020541190565b92915050565b6000868152600260208190526040909120015486906001600160a01b03163314610a475760405162461bcd60e51b815260040161034090611379565b86610a618160008054918152600660205260409020541190565b610a7d5760405162461bcd60e51b815260040161034090611395565b610a8b888888888888610db5565b5050505050505050565b6000828152600260205260408120600301548210801590610ac3575060008381526006602052604090205482105b9392505050565b80610ae48160008054918152600660205260409020541190565b610b005760405162461bcd60e51b815260040161034090611395565b506000908152600460205260409020805460ff19169055565b83610b338160008054918152600660205260409020541190565b610b4f5760405162461bcd60e51b815260040161034090611395565b6001805460ff16151514610b8a5760405162461bcd60e51b8152602060048201526002602482015261115360f21b6044820152606401610340565b600085815260026020526040902060018101549054610ba9919061142b565b610bb3848661142b565b10610be55760405162461bcd60e51b815260206004820152600260248201526124a360f11b6044820152606401610340565b600054610bf1836109d3565b15610c6a576001600160a01b03831660009081526003602090815260408083205483526002909152812080546001909101548291610c30918989611003565b91509150610c408282878661103f565b6001600160a01b038516600090815260036020526040902054610c639084611141565b5050610c76565b610c768585858461103f565b610c808682611141565b600086815260026020526040812080546001909101548291610ca3918989611190565b9150915080600014610cd95760008881526002602081905260409091200154610cd990839083906001600160a01b03168661103f565b60408051898152602081018990529081018790526001600160a01b038616606082015260006080820181905260a08201527fd8d12448acb9a12d0ca44f527c717c0de64f03b49ca4032f87feae10af5eaabe9060c00160405180910390a15050505050505050565b6000806000848411610d5257600080fd5b600084610d5f878961143f565b610d69919061142b565b9050600085610d788882611456565b610d82908a61143f565b610d8c919061142b565b90508181610d9a81836113c7565b610da4908b611456565b945094509450505093509350939050565b85610dcf8160008054918152600660205260409020541190565b610deb5760405162461bcd60e51b815260040161034090611395565b6001805460ff16151514610e265760405162461bcd60e51b8152602060048201526002602482015261115360f21b6044820152606401610340565b600087815260026020526040902060018101549054610e45919061142b565b610e4f868861142b565b1115610e825760405162461bcd60e51b815260206004820152600260248201526124a360f11b6044820152606401610340565b610e8c86866111bf565b80965081975050506040518060a00160405280878152602001868152602001856001600160a01b03168152602001848152602001836001600160a01b031681525060056000898152602001908152602001600020600082015181600001556020820151816001015560408201518160020160006101000a8154816001600160a01b0302191690836001600160a01b031602179055506060820151816003015560808201518160040160006101000a8154816001600160a01b0302191690836001600160a01b0316021790555090505060016004600089815260200190815260200160002060006101000a81548160ff0219169083151502179055507f4c4dcd7b4186fe1c900d89bc3c911766f63cf9c3570750481f0d89bfbcb75285878787878787604051610ff296959493929190958652602086019490945260408501929092526001600160a01b03908116606085015260808401919091521660a082015260c00190565b60405180910390a150505050505050565b600080611010838761143f565b955061101c858561143f565b935061102884876113c7565b611032848761143f565b9150915094509492505050565b6040516bffffffffffffffffffffffff19606084901b1660208201526034810182905260009060540160408051808303601f1901815282825280516020918201206001600160a01b03878116600081815260038086528682208590558482526006865286822060001990556080880187528c88528588018c81528888018481526060808b018d81528886526002808b52958b90209b518c55925160018c01559051938a0180546001600160a01b0319169490961693909317909455925196909201959095558351828152928301949094529181018590529092507f90e88e994885f1cdd31d3393f0b012e817804fc9d2adef69d0d7e5053d1e29ad91016109c4565b60008281526006602090815260409182902083905581518481529081018390527fa3deafde27c3ffde83f038b337d8b0405d225455ae09fbed6a211ef4ee465f4f910160405180910390a15050565b60008061119d838761143f565b95506111a9848661143f565b94506111b58587611456565b611032848661143f565b60008060006111ce858561124b565b90506111da818561142b565b6111e4828761142b565b6111ee919061142b565b6111f8858761142b565b1461122b5760405162461bcd60e51b815260206004820152600360248201526215935560ea1b6044820152606401610340565b611235818661142b565b61123f828661142b565b92509250509250929050565b60005b8115611269578161125f8185611469565b909350915061124e565b5090919050565b60006020828403121561128257600080fd5b5035919050565b80356001600160a01b03811681146112a057600080fd5b919050565b600080600080608085870312156112bb57600080fd5b8435935060208501359250604085013591506112d960608601611289565b905092959194509250565b6000602082840312156112f657600080fd5b610ac382611289565b60008060008060008060c0878903121561131857600080fd5b86359550602087013594506040870135935061133660608801611289565b92506080870135915061134b60a08801611289565b90509295509295509295565b6000806040838503121561136a57600080fd5b50508035926020909101359150565b60208082526002908201526109e960f31b604082015260600190565b602080825260029082015261555360f01b604082015260600190565b634e487b7160e01b600052601160045260246000fd5b80820180821115610a0557610a056113b1565b6000602082840312156113ec57600080fd5b5051919050565b60006020828403121561140557600080fd5b81518015158114610ac357600080fd5b634e487b7160e01b600052601260045260246000fd5b60008261143a5761143a611415565b500490565b8082028115828204841417610a0557610a056113b1565b81810381811115610a0557610a056113b1565b60008261147857611478611415565b50069056fea264697066735822122051f5e96d03caf52d117fc9d92c227098df59f4b37ad2c606b7cdc2f0c9b49ef864736f6c63430008130033",
  "bytecodeSha1": "2b02ab7d94835cc2a3d05b0f7cfc113a29e8c215",
  "compiler": {
    "evm_version": "istanbul",
    "optimizer": {
      "enabled": true,
      "runs": 200
    },
    "version": "0.8.19+commit.7dd6d404"
  },
  "contractName": "Shardable",
  "language": "Solidity",
  "natspec": {
    "author": "Frederik W. L. Christoffersen",
    "custom:beaware": "This is a commercial contract.",
    "details": "historicShards are used to show proof of ownership at different points of time.",
    "kind": "dev",
    "methods": {
      "active()": {
        "notice": "Boolean stating if the Shardable is active and tradeable or not."
      },
      "cancelSale(bytes32)": {
        "notice": "Cancels a sell of a given Shard.",
        "params": {
          "shard": "The shard to be put off sale."
        }
      },
      "constructor": {
        "notice": "Constructor function that pushes the first Shard being the property of the Shardable creator."
      },
      "getCurrentClock()": {
        "notice": "Returns the clock."
      },
      "getShardExpirationClock(bytes32)": {
        "notice": "Returns the clock, in which a shard will or has expired."
      },
      "getShardSalePrice(bytes32)": {
        "notice": "Returns the price, at which a shard is for sale."
      },
      "infoByShard(bytes32)": {
        "notice": "Mapping pointing to related info of a Shard given the bytes of a unique Shard instance."
      },
      "isShardHolder(address)": {
        "notice": "Checks if address is a shard holder - at least a partial owner of the contract.",
        "params": {
          "account": "The address to be checked for."
        }
      },
      "isValidShard(bytes32)": {
        "notice": "Returns a boolean stating if a given shard is currently valid or not.",
        "params": {
          "shard": "The shard, whose validity is to be checked for."
        }
      },
      "purchase(bytes32)": {
        "details": "If the purchase is with tokens (ie. tokenAddress != 0x0), first call 'token.approve(Shardable.address, salePrice);'",
        "notice": "Purchases a listed Shard for sale.",
        "params": {
          "shard": "The shard of which a fraction will be purchased."
        }
      },
      "putForSale(bytes32,uint256,uint256,address,uint256,address)": {
        "notice": "Puts a given shard for sale.",
        "params": {
          "denominator": "Denominator of the absolute fraction of the Shard to be put for sale.",
          "numerator": "Numerator of the absolute fraction of the Shard to be put for sale.",
          "price": "The amount which the Shard is for sale as. The token address being the valuta.",
          "shard": "The shard to be put for sale.",
          "to": "The specifically set buyer of the sale. Open to anyone, if address(0).",
          "tokenAddress": "The address of the token that is accepted when purchasing. A value of 0x0 represents ether."
        }
      },
      "shardByOwner(address)": {
        "notice": "Mapping pointing to a currently valid shard given the address of its owner."
      },
      "shardExisted(bytes32,uint256)": {
        "notice": "Returns a boolean stating if the given shard was valid at a given clock.",
        "params": {
          "atClock": "The clock to be checked for.",
          "shard": "The shard, whose validity is to be checked for."
        }
      },
      "split(bytes32,uint256,uint256,address)": {
        "notice": "Splits a currently valid shard into two new ones. One is assigned to the receiver. The rest to the previous owner.",
        "params": {
          "denominator": "Denominator of the absolute fraction, which will be subtracted from the previous shard and sent to the receiver.",
          "numerator": "Numerator of the absolute fraction, which will be subtracted from the previous shard and sent to the receiver.",
          "senderShard": "The shard to be split.",
          "to": "The receiver of the new Shard."
        }
      }
    },
    "notice": "This contract is used to fractionalize a non-fungible token. Be aware that a sell transfers a service fee of 2.5% to Counekt.",
    "title": "A shardable/fractional non-fungible token that can be fractually owned via Shards.",
    "version": 1
  },
  "opcodes": "PUSH1 0x80 PUSH1 0x40 MSTORE PUSH1 0x4 CALLDATASIZE LT PUSH2 0xC2 JUMPI PUSH1 0x0 CALLDATALOAD PUSH1 0xE0 SHR DUP1 PUSH4 0xBCEDB2E0 GT PUSH2 0x7F JUMPI DUP1 PUSH4 0xE1C34C1F GT PUSH2 0x59 JUMPI DUP1 PUSH4 0xE1C34C1F EQ PUSH2 0x277 JUMPI DUP1 PUSH4 0xEFAE89F8 EQ PUSH2 0x297 JUMPI DUP1 PUSH4 0xF9983896 EQ PUSH2 0x2C4 JUMPI DUP1 PUSH4 0xFD06636B EQ PUSH2 0x2E4 JUMPI PUSH1 0x0 DUP1 REVERT JUMPDEST DUP1 PUSH4 0xBCEDB2E0 EQ PUSH2 0x1BB JUMPI DUP1 PUSH4 0xC4802EB2 EQ PUSH2 0x237 JUMPI DUP1 PUSH4 0xCC445611 EQ PUSH2 0x264 JUMPI PUSH1 0x0 DUP1 REVERT JUMPDEST DUP1 PUSH4 0x2FB0C5E EQ PUSH2 0xC7 JUMPI DUP1 PUSH4 0xBEA8985 EQ PUSH2 0xF6 JUMPI DUP1 PUSH4 0x7B785493 EQ PUSH2 0x118 JUMPI DUP1 PUSH4 0x8D7844A6 EQ PUSH2 0x156 JUMPI DUP1 PUSH4 0x9995B9A9 EQ PUSH2 0x176 JUMPI DUP1 PUSH4 0xA902780F EQ PUSH2 0x1A6 JUMPI JUMPDEST PUSH1 0x0 DUP1 REVERT JUMPDEST CALLVALUE DUP1 ISZERO PUSH2 0xD3 JUMPI PUSH1 0x0 DUP1 REVERT JUMPDEST POP PUSH1 0x1 SLOAD PUSH2 0xE1 SWAP1 PUSH1 0xFF AND DUP2 JUMP JUMPDEST PUSH1 0x40 MLOAD SWAP1 ISZERO ISZERO DUP2 MSTORE PUSH1 0x20 ADD JUMPDEST PUSH1 0x40 MLOAD DUP1 SWAP2 SUB SWAP1 RETURN JUMPDEST CALLVALUE DUP1 ISZERO PUSH2 0x102 JUMPI PUSH1 0x0 DUP1 REVERT JUMPDEST POP PUSH2 0x116 PUSH2 0x111 CALLDATASIZE PUSH1 0x4 PUSH2 0x1270 JUMP JUMPDEST PUSH2 0x304 JUMP JUMPDEST STOP JUMPDEST CALLVALUE DUP1 ISZERO PUSH2 0x124 JUMPI PUSH1 0x0 DUP1 REVERT JUMPDEST POP PUSH2 0x148 PUSH2 0x133 CALLDATASIZE PUSH1 0x4 PUSH2 0x1270 JUMP JUMPDEST PUSH1 0x0 SWAP1 DUP2 MSTORE PUSH1 0x5 PUSH1 0x20 MSTORE PUSH1 0x40 SWAP1 KECCAK256 PUSH1 0x3 ADD SLOAD SWAP1 JUMP JUMPDEST PUSH1 0x40 MLOAD SWAP1 DUP2 MSTORE PUSH1 0x20 ADD PUSH2 0xED JUMP JUMPDEST CALLVALUE DUP1 ISZERO PUSH2 0x162 JUMPI PUSH1 0x0 DUP1 REVERT JUMPDEST POP PUSH2 0x116 PUSH2 0x171 CALLDATASIZE PUSH1 0x4 PUSH2 0x12A5 JUMP JUMPDEST PUSH2 0x3D0 JUMP JUMPDEST CALLVALUE DUP1 ISZERO PUSH2 0x182 JUMPI PUSH1 0x0 DUP1 REVERT JUMPDEST POP PUSH2 0xE1 PUSH2 0x191 CALLDATASIZE PUSH1 0x4 PUSH2 0x1270 JUMP JUMPDEST PUSH1 0x0 DUP1 SLOAD SWAP2 DUP2 MSTORE PUSH1 0x6 PUSH1 0x20 MSTORE PUSH1 0x40 SWAP1 KECCAK256 SLOAD GT SWAP1 JUMP JUMPDEST CALLVALUE DUP1 ISZERO PUSH2 0x1B2 JUMPI PUSH1 0x0 DUP1 REVERT JUMPDEST POP PUSH1 0x0 SLOAD PUSH2 0x148 JUMP JUMPDEST CALLVALUE DUP1 ISZERO PUSH2 0x1C7 JUMPI PUSH1 0x0 DUP1 REVERT JUMPDEST POP PUSH2 0x208 PUSH2 0x1D6 CALLDATASIZE PUSH1 0x4 PUSH2 0x1270 JUMP JUMPDEST PUSH1 0x2 PUSH1 0x20 DUP2 SWAP1 MSTORE PUSH1 0x0 SWAP2 DUP3 MSTORE PUSH1 0x40 SWAP1 SWAP2 KECCAK256 DUP1 SLOAD PUSH1 0x1 DUP3 ADD SLOAD SWAP3 DUP3 ADD SLOAD PUSH1 0x3 SWAP1 SWAP3 ADD SLOAD SWAP1 SWAP3 SWAP2 PUSH1 0x1 PUSH1 0x1 PUSH1 0xA0 SHL SUB AND SWAP1 DUP5 JUMP JUMPDEST PUSH1 0x40 MLOAD PUSH2 0xED SWAP5 SWAP4 SWAP3 SWAP2 SWAP1 SWAP4 DUP5 MSTORE PUSH1 0x20 DUP5 ADD SWAP3 SWAP1 SWAP3 MSTORE PUSH1 0x1 PUSH1 0x1 PUSH1 0xA0 SHL SUB AND PUSH1 0x40 DUP4 ADD MSTORE PUSH1 0x60 DUP3 ADD MSTORE PUSH1 0x80 ADD SWAP1 JUMP JUMPDEST CALLVALUE DUP1 ISZERO PUSH2 0x243 JUMPI PUSH1 0x0 DUP1 REVERT JUMPDEST POP PUSH2 0x148 PUSH2 0x252 CALLDATASIZE PUSH1 0x4 PUSH2 0x12E4 JUMP JUMPDEST PUSH1 0x3 PUSH1 0x20 MSTORE PUSH1 0x0 SWAP1 DUP2 MSTORE PUSH1 0x40 SWAP1 KECCAK256 SLOAD DUP2 JUMP JUMPDEST PUSH2 0x116 PUSH2 0x272 CALLDATASIZE PUSH1 0x4 PUSH2 0x1270 JUMP JUMPDEST PUSH2 0x456 JUMP JUMPDEST CALLVALUE DUP1 ISZERO PUSH2 0x283 JUMPI PUSH1 0x0 DUP1 REVERT JUMPDEST POP PUSH2 0xE1 PUSH2 0x292 CALLDATASIZE PUSH1 0x4 PUSH2 0x12E4 JUMP JUMPDEST PUSH2 0x9D3 JUMP JUMPDEST CALLVALUE DUP1 ISZERO PUSH2 0x2A3 JUMPI PUSH1 0x0 DUP1 REVERT JUMPDEST POP PUSH2 0x148 PUSH2 0x2B2 CALLDATASIZE PUSH1 0x4 PUSH2 0x1270 JUMP JUMPDEST PUSH1 0x0 SWAP1 DUP2 MSTORE PUSH1 0x6 PUSH1 0x20 MSTORE PUSH1 0x40 SWAP1 KECCAK256 SLOAD SWAP1 JUMP JUMPDEST CALLVALUE DUP1 ISZERO PUSH2 0x2D0 JUMPI PUSH1 0x0 DUP1 REVERT JUMPDEST POP PUSH2 0x116 PUSH2 0x2DF CALLDATASIZE PUSH1 0x4 PUSH2 0x12FF JUMP JUMPDEST PUSH2 0xA0B JUMP JUMPDEST CALLVALUE DUP1 ISZERO PUSH2 0x2F0 JUMPI PUSH1 0x0 DUP1 REVERT JUMPDEST POP PUSH2 0xE1 PUSH2 0x2FF CALLDATASIZE PUSH1 0x4 PUSH2 0x1357 JUMP JUMPDEST PUSH2 0xA95 JUMP JUMPDEST PUSH1 0x0 DUP2 DUP2 MSTORE PUSH1 0x2 PUSH1 0x20 DUP2 SWAP1 MSTORE PUSH1 0x40 SWAP1 SWAP2 KECCAK256 ADD SLOAD DUP2 SWAP1 PUSH1 0x1 PUSH1 0x1 PUSH1 0xA0 SHL SUB AND CALLER EQ PUSH2 0x349 JUMPI PUSH1 0x40 MLOAD PUSH3 0x461BCD PUSH1 0xE5 SHL DUP2 MSTORE PUSH1 0x4 ADD PUSH2 0x340 SWAP1 PUSH2 0x1379 JUMP JUMPDEST PUSH1 0x40 MLOAD DUP1 SWAP2 SUB SWAP1 REVERT JUMPDEST DUP2 PUSH2 0x363 DUP2 PUSH1 0x0 DUP1 SLOAD SWAP2 DUP2 MSTORE PUSH1 0x6 PUSH1 0x20 MSTORE PUSH1 0x40 SWAP1 KECCAK256 SLOAD GT SWAP1 JUMP JUMPDEST PUSH2 0x37F JUMPI PUSH1 0x40 MLOAD PUSH3 0x461BCD PUSH1 0xE5 SHL DUP2 MSTORE PUSH1 0x4 ADD PUSH2 0x340 SWAP1 PUSH2 0x1395 JUMP JUMPDEST PUSH1 0x0 DUP4 DUP2 MSTORE PUSH1 0x4 PUSH1 0x20 MSTORE PUSH1 0x40 SWAP1 KECCAK256 SLOAD PUSH1 0xFF AND PUSH2 0x3C2 JUMPI PUSH1 0x40 MLOAD PUSH3 0x461BCD PUSH1 0xE5 SHL DUP2 MSTORE PUSH1 0x20 PUSH1 0x4 DUP3 ADD MSTORE PUSH1 0x2 PUSH1 0x24 DUP3 ADD MSTORE PUSH2 0x4E53 PUSH1 0xF0 SHL PUSH1 0x44 DUP3 ADD MSTORE PUSH1 0x64 ADD PUSH2 0x340 JUMP JUMPDEST PUSH2 0x3CB DUP4 PUSH2 0xACA JUMP JUMPDEST POP POP POP JUMP JUMPDEST PUSH1 0x0 DUP5 DUP2 MSTORE PUSH1 0x2 PUSH1 0x20 DUP2 SWAP1 MSTORE PUSH1 0x40 SWAP1 SWAP2 KECCAK256 ADD SLOAD DUP5 SWAP1 PUSH1 0x1 PUSH1 0x1 PUSH1 0xA0 SHL SUB AND CALLER EQ PUSH2 0x40C JUMPI PUSH1 0x40 MLOAD PUSH3 0x461BCD PUSH1 0xE5 SHL DUP2 MSTORE PUSH1 0x4 ADD PUSH2 0x340 SWAP1 PUSH2 0x1379 JUMP JUMPDEST DUP5 PUSH2 0x426 DUP2 PUSH1 0x0 DUP1 SLOAD SWAP2 DUP2 MSTORE PUSH1 0x6 PUSH1 0x20 MSTORE PUSH1 0x40 SWAP1 KECCAK256 SLOAD GT SWAP1 JUMP JUMPDEST PUSH2 0x442 JUMPI PUSH1 0x40 MLOAD PUSH3 0x461BCD PUSH1 0xE5 SHL DUP2 MSTORE PUSH1 0x4 ADD PUSH2 0x340 SWAP1 PUSH2 0x1395 JUMP JUMPDEST PUSH2 0x44E DUP7 DUP7 DUP7 DUP7 PUSH2 0xB19 JUMP JUMPDEST POP POP POP POP POP POP JUMP JUMPDEST DUP1 PUSH2 0x470 DUP2 PUSH1 0x0 DUP1 SLOAD SWAP2 DUP2 MSTORE PUSH1 0x6 PUSH1 0x20 MSTORE PUSH1 0x40 SWAP1 KECCAK256 SLOAD GT SWAP1 JUMP JUMPDEST PUSH2 0x48C JUMPI PUSH1 0x40 MLOAD PUSH3 0x461BCD PUSH1 0xE5 SHL DUP2 MSTORE PUSH1 0x4 ADD PUSH2 0x340 SWAP1 PUSH2 0x1395 JUMP JUMPDEST PUSH1 0x0 DUP3 DUP2 MSTORE PUSH1 0x4 PUSH1 0x20 MSTORE PUSH1 0x40 SWAP1 KECCAK256 SLOAD PUSH1 0xFF AND PUSH2 0x4CF JUMPI PUSH1 0x40 MLOAD PUSH3 0x461BCD PUSH1 0xE5 SHL DUP2 MSTORE PUSH1 0x20 PUSH1 0x4 DUP3 ADD MSTORE PUSH1 0x2 PUSH1 0x24 DUP3 ADD MSTORE PUSH2 0x4E53 PUSH1 0xF0 SHL PUSH1 0x44 DUP3 ADD MSTORE PUSH1 0x64 ADD PUSH2 0x340 JUMP JUMPDEST PUSH1 0x0 DUP3 DUP2 MSTORE PUSH1 0x5 PUSH1 0x20 MSTORE PUSH1 0x40 SWAP1 KECCAK256 PUSH1 0x4 ADD SLOAD PUSH1 0x1 PUSH1 0x1 PUSH1 0xA0 SHL SUB AND CALLER EQ DUP1 PUSH2 0x50F JUMPI POP PUSH1 0x0 DUP3 DUP2 MSTORE PUSH1 0x5 PUSH1 0x20 MSTORE PUSH1 0x40 SWAP1 KECCAK256 PUSH1 0x4 ADD SLOAD PUSH1 0x1 PUSH1 0x1 PUSH1 0xA0 SHL SUB AND ISZERO JUMPDEST PUSH2 0x540 JUMPI PUSH1 0x40 MLOAD PUSH3 0x461BCD PUSH1 0xE5 SHL DUP2 MSTORE PUSH1 0x20 PUSH1 0x4 DUP3 ADD MSTORE PUSH1 0x2 PUSH1 0x24 DUP3 ADD MSTORE PUSH2 0x29A9 PUSH1 0xF1 SHL PUSH1 0x44 DUP3 ADD MSTORE PUSH1 0x64 ADD PUSH2 0x340 JUMP JUMPDEST PUSH2 0x549 DUP3 PUSH2 0xACA JUMP JUMPDEST PUSH1 0x0 DUP3 DUP2 MSTORE PUSH1 0x5 PUSH1 0x20 MSTORE PUSH1 0x40 DUP2 KECCAK256 PUSH1 0x3 ADD SLOAD DUP2 SWAP1 DUP2 SWAP1 PUSH2 0x56D SWAP1 PUSH1 0x19 PUSH2 0x3E8 PUSH2 0xD41 JUMP JUMPDEST SWAP2 SWAP5 POP SWAP3 POP SWAP1 POP PUSH2 0x57E DUP2 DUP4 PUSH2 0x13C7 JUMP JUMPDEST PUSH1 0x0 DUP7 DUP2 MSTORE PUSH1 0x5 PUSH1 0x20 MSTORE PUSH1 0x40 SWAP1 KECCAK256 PUSH1 0x2 ADD SLOAD SWAP1 SWAP3 POP PUSH1 0x1 PUSH1 0x1 PUSH1 0xA0 SHL SUB AND PUSH2 0x6F0 JUMPI PUSH1 0x0 DUP6 DUP2 MSTORE PUSH1 0x5 PUSH1 0x20 MSTORE PUSH1 0x40 SWAP1 KECCAK256 PUSH1 0x3 ADD SLOAD CALLVALUE LT ISZERO PUSH2 0x5E6 JUMPI PUSH1 0x40 MLOAD PUSH3 0x461BCD PUSH1 0xE5 SHL DUP2 MSTORE PUSH1 0x20 PUSH1 0x4 DUP3 ADD MSTORE PUSH1 0x2 PUSH1 0x24 DUP3 ADD MSTORE PUSH2 0x4945 PUSH1 0xF0 SHL PUSH1 0x44 DUP3 ADD MSTORE PUSH1 0x64 ADD PUSH2 0x340 JUMP JUMPDEST PUSH1 0x40 MLOAD PUSH1 0x0 SWAP1 PUSH20 0x49A71890AEA5A751E30E740C504F2E9683F347BC SWAP1 DUP6 SWAP1 DUP4 DUP2 DUP2 DUP2 DUP6 DUP8 GAS CALL SWAP3 POP POP POP RETURNDATASIZE DUP1 PUSH1 0x0 DUP2 EQ PUSH2 0x63C JUMPI PUSH1 0x40 MLOAD SWAP2 POP PUSH1 0x1F NOT PUSH1 0x3F RETURNDATASIZE ADD AND DUP3 ADD PUSH1 0x40 MSTORE RETURNDATASIZE DUP3 MSTORE RETURNDATASIZE PUSH1 0x0 PUSH1 0x20 DUP5 ADD RETURNDATACOPY PUSH2 0x641 JUMP JUMPDEST PUSH1 0x60 SWAP2 POP JUMPDEST POP POP PUSH1 0x0 DUP8 DUP2 MSTORE PUSH1 0x2 PUSH1 0x20 DUP2 SWAP1 MSTORE PUSH1 0x40 DUP1 DUP4 KECCAK256 SWAP1 SWAP2 ADD SLOAD SWAP1 MLOAD SWAP3 SWAP4 POP SWAP1 SWAP2 PUSH1 0x1 PUSH1 0x1 PUSH1 0xA0 SHL SUB SWAP1 SWAP2 AND SWAP1 DUP6 SWAP1 DUP4 DUP2 DUP2 DUP2 DUP6 DUP8 GAS CALL SWAP3 POP POP POP RETURNDATASIZE DUP1 PUSH1 0x0 DUP2 EQ PUSH2 0x6A5 JUMPI PUSH1 0x40 MLOAD SWAP2 POP PUSH1 0x1F NOT PUSH1 0x3F RETURNDATASIZE ADD AND DUP3 ADD PUSH1 0x40 MSTORE RETURNDATASIZE DUP3 MSTORE RETURNDATASIZE PUSH1 0x0 PUSH1 0x20 DUP5 ADD RETURNDATACOPY PUSH2 0x6AA JUMP JUMPDEST PUSH1 0x60 SWAP2 POP JUMPDEST POP POP SWAP1 POP DUP1 DUP1 ISZERO PUSH2 0x6B8 JUMPI POP DUP2 JUMPDEST PUSH2 0x6E9 JUMPI PUSH1 0x40 MLOAD PUSH3 0x461BCD PUSH1 0xE5 SHL DUP2 MSTORE PUSH1 0x20 PUSH1 0x4 DUP3 ADD MSTORE PUSH1 0x2 PUSH1 0x24 DUP3 ADD MSTORE PUSH2 0x2A23 PUSH1 0xF1 SHL PUSH1 0x44 DUP3 ADD MSTORE PUSH1 0x64 ADD PUSH2 0x340 JUMP JUMPDEST POP POP PUSH2 0x8CB JUMP JUMPDEST PUSH1 0x0 DUP6 DUP2 MSTORE PUSH1 0x5 PUSH1 0x20 MSTORE PUSH1 0x40 SWAP1 DUP2 SWAP1 KECCAK256 PUSH1 0x2 DUP2 ADD SLOAD PUSH1 0x3 SWAP1 SWAP2 ADD SLOAD SWAP2 MLOAD PUSH4 0x6EB1769F PUSH1 0xE1 SHL DUP2 MSTORE CALLER PUSH1 0x4 DUP3 ADD MSTORE ADDRESS PUSH1 0x24 DUP3 ADD MSTORE PUSH1 0x1 PUSH1 0x1 PUSH1 0xA0 SHL SUB SWAP1 SWAP2 AND SWAP2 SWAP1 DUP3 SWAP1 PUSH4 0xDD62ED3E SWAP1 PUSH1 0x44 ADD PUSH1 0x20 PUSH1 0x40 MLOAD DUP1 DUP4 SUB DUP2 DUP7 GAS STATICCALL ISZERO DUP1 ISZERO PUSH2 0x758 JUMPI RETURNDATASIZE PUSH1 0x0 DUP1 RETURNDATACOPY RETURNDATASIZE PUSH1 0x0 REVERT JUMPDEST POP POP POP POP PUSH1 0x40 MLOAD RETURNDATASIZE PUSH1 0x1F NOT PUSH1 0x1F DUP3 ADD AND DUP3 ADD DUP1 PUSH1 0x40 MSTORE POP DUP2 ADD SWAP1 PUSH2 0x77C SWAP2 SWAP1 PUSH2 0x13DA JUMP JUMPDEST LT ISZERO PUSH2 0x7AF JUMPI PUSH1 0x40 MLOAD PUSH3 0x461BCD PUSH1 0xE5 SHL DUP2 MSTORE PUSH1 0x20 PUSH1 0x4 DUP3 ADD MSTORE PUSH1 0x2 PUSH1 0x24 DUP3 ADD MSTORE PUSH2 0x1255 PUSH1 0xF2 SHL PUSH1 0x44 DUP3 ADD MSTORE PUSH1 0x64 ADD PUSH2 0x340 JUMP JUMPDEST PUSH1 0x40 MLOAD PUSH4 0x23B872DD PUSH1 0xE0 SHL DUP2 MSTORE CALLER PUSH1 0x4 DUP3 ADD MSTORE PUSH20 0x49A71890AEA5A751E30E740C504F2E9683F347BC PUSH1 0x24 DUP3 ADD MSTORE PUSH1 0x44 DUP2 ADD DUP6 SWAP1 MSTORE PUSH1 0x1 PUSH1 0x1 PUSH1 0xA0 SHL SUB DUP3 AND SWAP1 PUSH4 0x23B872DD SWAP1 PUSH1 0x64 ADD PUSH1 0x20 PUSH1 0x40 MLOAD DUP1 DUP4 SUB DUP2 PUSH1 0x0 DUP8 GAS CALL ISZERO DUP1 ISZERO PUSH2 0x816 JUMPI RETURNDATASIZE PUSH1 0x0 DUP1 RETURNDATACOPY RETURNDATASIZE PUSH1 0x0 REVERT JUMPDEST POP POP POP POP PUSH1 0x40 MLOAD RETURNDATASIZE PUSH1 0x1F NOT PUSH1 0x1F DUP3 ADD AND DUP3 ADD DUP1 PUSH1 0x40 MSTORE POP DUP2 ADD SWAP1 PUSH2 0x83A SWAP2 SWAP1 PUSH2 0x13F3 JUMP JUMPDEST POP PUSH1 0x0 DUP7 DUP2 MSTORE PUSH1 0x2 PUSH1 0x20 DUP2 SWAP1 MSTORE PUSH1 0x40 SWAP2 DUP3 SWAP1 KECCAK256 ADD SLOAD SWAP1 MLOAD PUSH4 0x23B872DD PUSH1 0xE0 SHL DUP2 MSTORE CALLER PUSH1 0x4 DUP3 ADD MSTORE PUSH1 0x1 PUSH1 0x1 PUSH1 0xA0 SHL SUB SWAP2 DUP3 AND PUSH1 0x24 DUP3 ADD MSTORE PUSH1 0x44 DUP2 ADD DUP6 SWAP1 MSTORE SWAP1 DUP3 AND SWAP1 PUSH4 0x23B872DD SWAP1 PUSH1 0x64 ADD PUSH1 0x20 PUSH1 0x40 MLOAD DUP1 DUP4 SUB DUP2 PUSH1 0x0 DUP8 GAS CALL ISZERO DUP1 ISZERO PUSH2 0x8A4 JUMPI RETURNDATASIZE PUSH1 0x0 DUP1 RETURNDATACOPY RETURNDATASIZE PUSH1 0x0 REVERT JUMPDEST POP POP POP POP PUSH1 0x40 MLOAD RETURNDATASIZE PUSH1 0x1F NOT PUSH1 0x1F DUP3 ADD AND DUP3 ADD DUP1 PUSH1 0x40 MSTORE POP DUP2 ADD SWAP1 PUSH2 0x8C8 SWAP2 SWAP1 PUSH2 0x13F3 JUMP JUMPDEST POP POP JUMPDEST PUSH1 0x0 DUP6 DUP2 MSTORE PUSH1 0x5 PUSH1 0x20 MSTORE PUSH1 0x40 SWAP1 KECCAK256 SLOAD ISZERO DUP1 ISZERO SWAP1 PUSH2 0x8F8 JUMPI POP PUSH1 0x0 DUP6 DUP2 MSTORE PUSH1 0x5 PUSH1 0x20 MSTORE PUSH1 0x40 SWAP1 KECCAK256 PUSH1 0x1 ADD SLOAD ISZERO ISZERO JUMPDEST PUSH2 0x929 JUMPI PUSH1 0x40 MLOAD PUSH3 0x461BCD PUSH1 0xE5 SHL DUP2 MSTORE PUSH1 0x20 PUSH1 0x4 DUP3 ADD MSTORE PUSH1 0x2 PUSH1 0x24 DUP3 ADD MSTORE PUSH2 0x4553 PUSH1 0xF0 SHL PUSH1 0x44 DUP3 ADD MSTORE PUSH1 0x64 ADD PUSH2 0x340 JUMP JUMPDEST PUSH1 0x0 DUP6 DUP2 MSTORE PUSH1 0x5 PUSH1 0x20 MSTORE PUSH1 0x40 SWAP1 KECCAK256 DUP1 SLOAD PUSH1 0x1 SWAP1 SWAP2 ADD SLOAD PUSH2 0x94B SWAP2 DUP8 SWAP2 CALLER PUSH2 0xB19 JUMP JUMPDEST PUSH1 0x0 DUP6 DUP2 MSTORE PUSH1 0x5 PUSH1 0x20 SWAP1 DUP2 MSTORE PUSH1 0x40 SWAP2 DUP3 SWAP1 KECCAK256 DUP1 SLOAD PUSH1 0x1 DUP3 ADD SLOAD PUSH1 0x2 DUP4 ADD SLOAD PUSH1 0x3 SWAP1 SWAP4 ADD SLOAD DUP6 MLOAD DUP12 DUP2 MSTORE SWAP5 DUP6 ADD SWAP3 SWAP1 SWAP3 MSTORE SWAP4 DUP4 ADD SWAP4 SWAP1 SWAP4 MSTORE CALLER PUSH1 0x60 DUP4 ADD MSTORE PUSH1 0x1 PUSH1 0x1 PUSH1 0xA0 SHL SUB AND PUSH1 0x80 DUP3 ADD MSTORE PUSH1 0xA0 DUP2 ADD SWAP2 SWAP1 SWAP2 MSTORE PUSH32 0xD8D12448ACB9A12D0CA44F527C717C0DE64F03B49CA4032F87FEAE10AF5EAABE SWAP1 PUSH1 0xC0 ADD JUMPDEST PUSH1 0x40 MLOAD DUP1 SWAP2 SUB SWAP1 LOG1 POP POP POP POP POP JUMP JUMPDEST PUSH1 0x1 PUSH1 0x1 PUSH1 0xA0 SHL SUB DUP2 AND PUSH1 0x0 SWAP1 DUP2 MSTORE PUSH1 0x3 PUSH1 0x20 MSTORE PUSH1 0x40 DUP2 KECCAK256 SLOAD PUSH2 0xA05 SWAP1 PUSH1 0x0 DUP1 SLOAD SWAP2 DUP2 MSTORE PUSH1 0x6 PUSH1 0x20 MSTORE PUSH1 0x40 SWAP1 KECCAK256 SLOAD GT SWAP1 JUMP JUMPDEST SWAP3 SWAP2 POP POP JUMP JUMPDEST PUSH1 0x0 DUP7 DUP2 MSTORE PUSH1 0x2 PUSH1 0x20 DUP2 SWAP1 MSTORE PUSH1 0x40 SWAP1 SWAP2 KECCAK256 ADD SLOAD DUP7 SWAP1 PUSH1 0x1 PUSH1 0x1 PUSH1 0xA0 SHL SUB AND CALLER EQ PUSH2 0xA47 JUMPI PUSH1 0x40 MLOAD PUSH3 0x461BCD PUSH1 0xE5 SHL DUP2 MSTORE PUSH1 0x4 ADD PUSH2 0x340 SWAP1 PUSH2 0x1379 JUMP JUMPDEST DUP7 PUSH2 0xA61 DUP2 PUSH1 0x0 DUP1 SLOAD SWAP2 DUP2 MSTORE PUSH1 0x6 PUSH1 0x20 MSTORE PUSH1 0x40 SWAP1 KECCAK256 SLOAD GT SWAP1 JUMP JUMPDEST PUSH2 0xA7D JUMPI PUSH1 0x40 MLOAD PUSH3 0x461BCD PUSH1 0xE5 SHL DUP2 MSTORE PUSH1 0x4 ADD PUSH2 0x340 SWAP1 PUSH2 0x1395 JUMP JUMPDEST PUSH2 0xA8B DUP9 DUP9 DUP9 DUP9 DUP9 DUP9 PUSH2 0xDB5 JUMP JUMPDEST POP POP POP POP POP POP POP POP JUMP JUMPDEST PUSH1 0x0 DUP3 DUP2 MSTORE PUSH1 0x2 PUSH1 0x20 MSTORE PUSH1 0x40 DUP2 KECCAK256 PUSH1 0x3 ADD SLOAD DUP3 LT DUP1 ISZERO SWAP1 PUSH2 0xAC3 JUMPI POP PUSH1 0x0 DUP4 DUP2 MSTORE PUSH1 0x6 PUSH1 0x20 MSTORE PUSH1 0x40 SWAP1 KECCAK256 SLOAD DUP3 LT JUMPDEST SWAP4 SWAP3 POP POP POP JUMP JUMPDEST DUP1 PUSH2 0xAE4 DUP2 PUSH1 0x0 DUP1 SLOAD SWAP2 DUP2 MSTORE PUSH1 0x6 PUSH1 0x20 MSTORE PUSH1 0x40 SWAP1 KECCAK256 SLOAD GT SWAP1 JUMP JUMPDEST PUSH2 0xB00 JUMPI PUSH1 0x40 MLOAD PUSH3 0x461BCD PUSH1 0xE5 SHL DUP2 MSTORE PUSH1 0x4 ADD PUSH2 0x340 SWAP1 PUSH2 0x1395 JUMP JUMPDEST POP PUSH1 0x0 SWAP1 DUP2 MSTORE PUSH1 0x4 PUSH1 0x20 MSTORE PUSH1 0x40 SWAP1 KECCAK256 DUP1 SLOAD PUSH1 0xFF NOT AND SWAP1 SSTORE JUMP JUMPDEST DUP4 PUSH2 0xB33 DUP2 PUSH1 0x0 DUP1 SLOAD SWAP2 DUP2 MSTORE PUSH1 0x6 PUSH1 0x20 MSTORE PUSH1 0x40 SWAP1 KECCAK256 SLOAD GT SWAP1 JUMP JUMPDEST PUSH2 0xB4F JUMPI PUSH1 0x40 MLOAD PUSH3 0x461BCD PUSH1 0xE5 SHL DUP2 MSTORE PUSH1 0x4 ADD PUSH2 0x340 SWAP1 PUSH2 0x1395 JUMP JUMPDEST PUSH1 0x1 DUP1 SLOAD PUSH1 0xFF AND ISZERO ISZERO EQ PUSH2 0xB8A JUMPI PUSH1 0x40 MLOAD PUSH3 0x461BCD PUSH1 0xE5 SHL DUP2 MSTORE PUSH1 0x20 PUSH1 0x4 DUP3 ADD MSTORE PUSH1 0x2 PUSH1 0x24 DUP3 ADD MSTORE PUSH2 0x1153 PUSH1 0xF2 SHL PUSH1 0x44 DUP3 ADD MSTORE PUSH1 0x64 ADD PUSH2 0x340 JUMP JUMPDEST PUSH1 0x0 DUP6 DUP2 MSTORE PUSH1 0x2 PUSH1 0x20 MSTORE PUSH1 0x40 SWAP1 KECCAK256 PUSH1 0x1 DUP2 ADD SLOAD SWAP1 SLOAD PUSH2 0xBA9 SWAP2 SWAP1 PUSH2 0x142B JUMP JUMPDEST PUSH2 0xBB3 DUP5 DUP7 PUSH2 0x142B JUMP JUMPDEST LT PUSH2 0xBE5 JUMPI PUSH1 0x40 MLOAD PUSH3 0x461BCD PUSH1 0xE5 SHL DUP2 MSTORE PUSH1 0x20 PUSH1 0x4 DUP3 ADD MSTORE PUSH1 0x2 PUSH1 0x24 DUP3 ADD MSTORE PUSH2 0x24A3 PUSH1 0xF1 SHL PUSH1 0x44 DUP3 ADD MSTORE PUSH1 0x64 ADD PUSH2 0x340 JUMP JUMPDEST PUSH1 0x0 SLOAD PUSH2 0xBF1 DUP4 PUSH2 0x9D3 JUMP JUMPDEST ISZERO PUSH2 0xC6A JUMPI PUSH1 0x1 PUSH1 0x1 PUSH1 0xA0 SHL SUB DUP4 AND PUSH1 0x0 SWAP1 DUP2 MSTORE PUSH1 0x3 PUSH1 0x20 SWAP1 DUP2 MSTORE PUSH1 0x40 DUP1 DUP4 KECCAK256 SLOAD DUP4 MSTORE PUSH1 0x2 SWAP1 SWAP2 MSTORE DUP2 KECCAK256 DUP1 SLOAD PUSH1 0x1 SWAP1 SWAP2 ADD SLOAD DUP3 SWAP2 PUSH2 0xC30 SWAP2 DUP10 DUP10 PUSH2 0x1003 JUMP JUMPDEST SWAP2 POP SWAP2 POP PUSH2 0xC40 DUP3 DUP3 DUP8 DUP7 PUSH2 0x103F JUMP JUMPDEST PUSH1 0x1 PUSH1 0x1 PUSH1 0xA0 SHL SUB DUP6 AND PUSH1 0x0 SWAP1 DUP2 MSTORE PUSH1 0x3 PUSH1 0x20 MSTORE PUSH1 0x40 SWAP1 KECCAK256 SLOAD PUSH2 0xC63 SWAP1 DUP5 PUSH2 0x1141 JUMP JUMPDEST POP POP PUSH2 0xC76 JUMP JUMPDEST PUSH2 0xC76 DUP6 DUP6 DUP6 DUP5 PUSH2 0x103F JUMP JUMPDEST PUSH2 0xC80 DUP7 DUP3 PUSH2 0x1141 JUMP JUMPDEST PUSH1 0x0 DUP7 DUP2 MSTORE PUSH1 0x2 PUSH1 0x20 MSTORE PUSH1 0x40 DUP2 KECCAK256 DUP1 SLOAD PUSH1 0x1 SWAP1 SWAP2 ADD SLOAD DUP3 SWAP2 PUSH2 0xCA3 SWAP2 DUP10 DUP10 PUSH2 0x1190 JUMP JUMPDEST SWAP2 POP SWAP2 POP DUP1 PUSH1 0x0 EQ PUSH2 0xCD9 JUMPI PUSH1 0x0 DUP9 DUP2 MSTORE PUSH1 0x2 PUSH1 0x20 DUP2 SWAP1 MSTORE PUSH1 0x40 SWAP1 SWAP2 KECCAK256 ADD SLOAD PUSH2 0xCD9 SWAP1 DUP4 SWAP1 DUP4 SWAP1 PUSH1 0x1 PUSH1 0x1 PUSH1 0xA0 SHL SUB AND DUP7 PUSH2 0x103F JUMP JUMPDEST PUSH1 0x40 DUP1 MLOAD DUP10 DUP2 MSTORE PUSH1 0x20 DUP2 ADD DUP10 SWAP1 MSTORE SWAP1 DUP2 ADD DUP8 SWAP1 MSTORE PUSH1 0x1 PUSH1 0x1 PUSH1 0xA0 SHL SUB DUP7 AND PUSH1 0x60 DUP3 ADD MSTORE PUSH1 0x0 PUSH1 0x80 DUP3 ADD DUP2 SWAP1 MSTORE PUSH1 0xA0 DUP3 ADD MSTORE PUSH32 0xD8D12448ACB9A12D0CA44F527C717C0DE64F03B49CA4032F87FEAE10AF5EAABE SWAP1 PUSH1 0xC0 ADD PUSH1 0x40 MLOAD DUP1 SWAP2 SUB SWAP1 LOG1 POP POP POP POP POP POP POP POP JUMP JUMPDEST PUSH1 0x0 DUP1 PUSH1 0x0 DUP5 DUP5 GT PUSH2 0xD52 JUMPI PUSH1 0x0 DUP1 REVERT JUMPDEST PUSH1 0x0 DUP5 PUSH2 0xD5F DUP8 DUP10 PUSH2 0x143F JUMP JUMPDEST PUSH2 0xD69 SWAP2 SWAP1 PUSH2 0x142B JUMP JUMPDEST SWAP1 POP PUSH1 0x0 DUP6 PUSH2 0xD78 DUP9 DUP3 PUSH2 0x1456 JUMP JUMPDEST PUSH2 0xD82 SWAP1 DUP11 PUSH2 0x143F JUMP JUMPDEST PUSH2 0xD8C SWAP2 SWAP1 PUSH2 0x142B JUMP JUMPDEST SWAP1 POP DUP2 DUP2 PUSH2 0xD9A DUP2 DUP4 PUSH2 0x13C7 JUMP JUMPDEST PUSH2 0xDA4 SWAP1 DUP12 PUSH2 0x1456 JUMP JUMPDEST SWAP5 POP SWAP5 POP SWAP5 POP POP POP SWAP4 POP SWAP4 POP SWAP4 SWAP1 POP JUMP JUMPDEST DUP6 PUSH2 0xDCF DUP2 PUSH1 0x0 DUP1 SLOAD SWAP2 DUP2 MSTORE PUSH1 0x6 PUSH1 0x20 MSTORE PUSH1 0x40 SWAP1 KECCAK256 SLOAD GT SWAP1 JUMP JUMPDEST PUSH2 0xDEB JUMPI PUSH1 0x40 MLOAD PUSH3 0x461BCD PUSH1 0xE5 SHL DUP2 MSTORE PUSH1 0x4 ADD PUSH2 0x340 SWAP1 PUSH2 0x1395 JUMP JUMPDEST PUSH1 0x1 DUP1 SLOAD PUSH1 0xFF AND ISZERO ISZERO EQ PUSH2 0xE26 JUMPI PUSH1 0x40 MLOAD PUSH3 0x461BCD PUSH1 0xE5 SHL DUP2 MSTORE PUSH1 0x20 PUSH1 0x4 DUP3 ADD MSTORE PUSH1 0x2 PUSH1 0x24 DUP3 ADD MSTORE PUSH2 0x1153 PUSH1 0xF2 SHL PUSH1 0x44 DUP3 ADD MSTORE PUSH1 0x64 ADD PUSH2 0x340 JUMP JUMPDEST PUSH1 0x0 DUP8 DUP2 MSTORE PUSH1 0x2 PUSH1 0x20 MSTORE PUSH1 0x40 SWAP1 KECCAK256 PUSH1 0x1 DUP2 ADD SLOAD SWAP1 SLOAD PUSH2 0xE45 SWAP2 SWAP1 PUSH2 0x142B JUMP JUMPDEST PUSH2 0xE4F DUP7 DUP9 PUSH2 0x142B JUMP JUMPDEST GT ISZERO PUSH2 0xE82 JUMPI PUSH1 0x40 MLOAD PUSH3 0x461BCD PUSH1 0xE5 SHL DUP2 MSTORE PUSH1 0x20 PUSH1 0x4 DUP3 ADD MSTORE PUSH1 0x2 PUSH1 0x24 DUP3 ADD MSTORE PUSH2 0x24A3 PUSH1 0xF1 SHL PUSH1 0x44 DUP3 ADD MSTORE PUSH1 0x64 ADD PUSH2 0x340 JUMP JUMPDEST PUSH2 0xE8C DUP7 DUP7 PUSH2 0x11BF JUMP JUMPDEST DUP1 SWAP7 POP DUP2 SWAP8 POP POP POP PUSH1 0x40 MLOAD DUP1 PUSH1 0xA0 ADD PUSH1 0x40 MSTORE DUP1 DUP8 DUP2 MSTORE PUSH1 0x20 ADD DUP7 DUP2 MSTORE PUSH1 0x20 ADD DUP6 PUSH1 0x1 PUSH1 0x1 PUSH1 0xA0 SHL SUB AND DUP2 MSTORE PUSH1 0x20 ADD DUP5 DUP2 MSTORE PUSH1 0x20 ADD DUP4 PUSH1 0x1 PUSH1 0x1 PUSH1 0xA0 SHL SUB AND DUP2 MSTORE POP PUSH1 0x5 PUSH1 0x0 DUP10 DUP2 MSTORE PUSH1 0x20 ADD SWAP1 DUP2 MSTORE PUSH1 0x20 ADD PUSH1 0x0 KECCAK256 PUSH1 0x0 DUP3 ADD MLOAD DUP2 PUSH1 0x0 ADD SSTORE PUSH1 0x20 DUP3 ADD MLOAD DUP2 PUSH1 0x1 ADD SSTORE PUSH1 0x40 DUP3 ADD MLOAD DUP2 PUSH1 0x2 ADD PUSH1 0x0 PUSH2 0x100 EXP DUP2 SLOAD DUP2 PUSH1 0x1 PUSH1 0x1 PUSH1 0xA0 SHL SUB MUL NOT AND SWAP1 DUP4 PUSH1 0x1 PUSH1 0x1 PUSH1 0xA0 SHL SUB AND MUL OR SWAP1 SSTORE POP PUSH1 0x60 DUP3 ADD MLOAD DUP2 PUSH1 0x3 ADD SSTORE PUSH1 0x80 DUP3 ADD MLOAD DUP2 PUSH1 0x4 ADD PUSH1 0x0 PUSH2 0x100 EXP DUP2 SLOAD DUP2 PUSH1 0x1 PUSH1 0x1 PUSH1 0xA0 SHL SUB MUL NOT AND SWAP1 DUP4 PUSH1 0x1 PUSH1 0x1 PUSH1 0xA0 SHL SUB AND MUL OR SWAP1 SSTORE POP SWAP1 POP POP PUSH1 0x1 PUSH1 0x4 PUSH1 0x0 DUP10 DUP2 MSTORE PUSH1 0x20 ADD SWAP1 DUP2 MSTORE PUSH1 0x20 ADD PUSH1 0x0 KECCAK256 PUSH1 0x0 PUSH2 0x100 EXP DUP2 SLOAD DUP2 PUSH1 0xFF MUL NOT AND SWAP1 DUP4 ISZERO ISZERO MUL OR SWAP1 SSTORE POP PUSH32 0x4C4DCD7B4186FE1C900D89BC3C911766F63CF9C3570750481F0D89BFBCB75285 DUP8 DUP8 DUP8 DUP8 DUP8 DUP8 PUSH1 0x40 MLOAD PUSH2 0xFF2 SWAP7 SWAP6 SWAP5 SWAP4 SWAP3 SWAP2 SWAP1 SWAP6 DUP7 MSTORE PUSH1 0x20 DUP7 ADD SWAP5 SWAP1 SWAP5 MSTORE PUSH1 0x40 DUP6 ADD SWAP3 SWAP1 SWAP3 MSTORE PUSH1 0x1 PUSH1 0x1 PUSH1 0xA0 SHL SUB SWAP1 DUP2 AND PUSH1 0x60 DUP6 ADD MSTORE PUSH1 0x80 DUP5 ADD SWAP2 SWAP1 SWAP2 MSTORE AND PUSH1 0xA0 DUP3 ADD MSTORE PUSH1 0xC0 ADD SWAP1 JUMP JUMPDEST PUSH1 0x40 MLOAD DUP1 SWAP2 SUB SWAP1 LOG1 POP POP POP POP POP POP POP JUMP JUMPDEST PUSH1 0x0 DUP1 PUSH2 0x1010 DUP4 DUP8 PUSH2 0x143F JUMP JUMPDEST SWAP6 POP PUSH2 0x101C DUP6 DUP6 PUSH2 0x143F JUMP JUMPDEST SWAP4 POP PUSH2 0x1028 DUP5 DUP8 PUSH2 0x13C7 JUMP JUMPDEST PUSH2 0x1032 DUP5 DUP8 PUSH2 0x143F JUMP JUMPDEST SWAP2 POP SWAP2 POP SWAP5 POP SWAP5 SWAP3 POP POP POP JUMP JUMPDEST PUSH1 0x40 MLOAD PUSH12 0xFFFFFFFFFFFFFFFFFFFFFFFF NOT PUSH1 0x60 DUP5 SWAP1 SHL AND PUSH1 0x20 DUP3 ADD MSTORE PUSH1 0x34 DUP2 ADD DUP3 SWAP1 MSTORE PUSH1 0x0 SWAP1 PUSH1 0x54 ADD PUSH1 0x40 DUP1 MLOAD DUP1 DUP4 SUB PUSH1 0x1F NOT ADD DUP2 MSTORE DUP3 DUP3 MSTORE DUP1 MLOAD PUSH1 0x20 SWAP2 DUP3 ADD KECCAK256 PUSH1 0x1 PUSH1 0x1 PUSH1 0xA0 SHL SUB DUP8 DUP2 AND PUSH1 0x0 DUP2 DUP2 MSTORE PUSH1 0x3 DUP1 DUP7 MSTORE DUP7 DUP3 KECCAK256 DUP6 SWAP1 SSTORE DUP5 DUP3 MSTORE PUSH1 0x6 DUP7 MSTORE DUP7 DUP3 KECCAK256 PUSH1 0x0 NOT SWAP1 SSTORE PUSH1 0x80 DUP9 ADD DUP8 MSTORE DUP13 DUP9 MSTORE DUP6 DUP9 ADD DUP13 DUP2 MSTORE DUP9 DUP9 ADD DUP5 DUP2 MSTORE PUSH1 0x60 DUP1 DUP12 ADD DUP14 DUP2 MSTORE DUP9 DUP7 MSTORE PUSH1 0x2 DUP1 DUP12 MSTORE SWAP6 DUP12 SWAP1 KECCAK256 SWAP12 MLOAD DUP13 SSTORE SWAP3 MLOAD PUSH1 0x1 DUP13 ADD SSTORE SWAP1 MLOAD SWAP4 DUP11 ADD DUP1 SLOAD PUSH1 0x1 PUSH1 0x1 PUSH1 0xA0 SHL SUB NOT AND SWAP5 SWAP1 SWAP7 AND SWAP4 SWAP1 SWAP4 OR SWAP1 SWAP5 SSTORE SWAP3 MLOAD SWAP7 SWAP1 SWAP3 ADD SWAP6 SWAP1 SWAP6 SSTORE DUP4 MLOAD DUP3 DUP2 MSTORE SWAP3 DUP4 ADD SWAP5 SWAP1 SWAP5 MSTORE SWAP2 DUP2 ADD DUP6 SWAP1 MSTORE SWAP1 SWAP3 POP PUSH32 0x90E88E994885F1CDD31D3393F0B012E817804FC9D2ADEF69D0D7E5053D1E29AD SWAP2 ADD PUSH2 0x9C4 JUMP JUMPDEST PUSH1 0x0 DUP3 DUP2 MSTORE PUSH1 0x6 PUSH1 0x20 SWAP1 DUP2 MSTORE PUSH1 0x40 SWAP2 DUP3 SWAP1 KECCAK256 DUP4 SWAP1 SSTORE DUP2 MLOAD DUP5 DUP2 MSTORE SWAP1 DUP2 ADD DUP4 SWAP1 MSTORE PUSH32 0xA3DEAFDE27C3FFDE83F038B337D8B0405D225455AE09FBED6A211EF4EE465F4F SWAP2 ADD PUSH1 0x40 MLOAD DUP1 SWAP2 SUB SWAP1 LOG1 POP POP JUMP JUMPDEST PUSH1 0x0 DUP1 PUSH2 0x119D DUP4 DUP8 PUSH2 0x143F JUMP JUMPDEST SWAP6 POP PUSH2 0x11A9 DUP5 DUP7 PUSH2 0x143F JUMP JUMPDEST SWAP5 POP PUSH2 0x11B5 DUP6 DUP8 PUSH2 0x1456 JUMP JUMPDEST PUSH2 0x1032 DUP5 DUP7 PUSH2 0x143F JUMP JUMPDEST PUSH1 0x0 DUP1 PUSH1 0x0 PUSH2 0x11CE DUP6 DUP6 PUSH2 0x124B JUMP JUMPDEST SWAP1 POP PUSH2 0x11DA DUP2 DUP6 PUSH2 0x142B JUMP JUMPDEST PUSH2 0x11E4 DUP3 DUP8 PUSH2 0x142B JUMP JUMPDEST PUSH2 0x11EE SWAP2 SWAP1 PUSH2 0x142B JUMP JUMPDEST PUSH2 0x11F8 DUP6 DUP8 PUSH2 0x142B JUMP JUMPDEST EQ PUSH2 0x122B JUMPI PUSH1 0x40 MLOAD PUSH3 0x461BCD PUSH1 0xE5 SHL DUP2 MSTORE PUSH1 0x20 PUSH1 0x4 DUP3 ADD MSTORE PUSH1 0x3 PUSH1 0x24 DUP3 ADD MSTORE PUSH3 0x159355 PUSH1 0xEA SHL PUSH1 0x44 DUP3 ADD MSTORE PUSH1 0x64 ADD PUSH2 0x340 JUMP JUMPDEST PUSH2 0x1235 DUP2 DUP7 PUSH2 0x142B JUMP JUMPDEST PUSH2 0x123F DUP3 DUP7 PUSH2 0x142B JUMP JUMPDEST SWAP3 POP SWAP3 POP POP SWAP3 POP SWAP3 SWAP1 POP JUMP JUMPDEST PUSH1 0x0 JUMPDEST DUP2 ISZERO PUSH2 0x1269 JUMPI DUP2 PUSH2 0x125F DUP2 DUP6 PUSH2 0x1469 JUMP JUMPDEST SWAP1 SWAP4 POP SWAP2 POP PUSH2 0x124E JUMP JUMPDEST POP SWAP1 SWAP2 SWAP1 POP JUMP JUMPDEST PUSH1 0x0 PUSH1 0x20 DUP3 DUP5 SUB SLT ISZERO PUSH2 0x1282 JUMPI PUSH1 0x0 DUP1 REVERT JUMPDEST POP CALLDATALOAD SWAP2 SWAP1 POP JUMP JUMPDEST DUP1 CALLDATALOAD PUSH1 0x1 PUSH1 0x1 PUSH1 0xA0 SHL SUB DUP2 AND DUP2 EQ PUSH2 0x12A0 JUMPI PUSH1 0x0 DUP1 REVERT JUMPDEST SWAP2 SWAP1 POP JUMP JUMPDEST PUSH1 0x0 DUP1 PUSH1 0x0 DUP1 PUSH1 0x80 DUP6 DUP8 SUB SLT ISZERO PUSH2 0x12BB JUMPI PUSH1 0x0 DUP1 REVERT JUMPDEST DUP5 CALLDATALOAD SWAP4 POP PUSH1 0x20 DUP6 ADD CALLDATALOAD SWAP3 POP PUSH1 0x40 DUP6 ADD CALLDATALOAD SWAP2 POP PUSH2 0x12D9 PUSH1 0x60 DUP7 ADD PUSH2 0x1289 JUMP JUMPDEST SWAP1 POP SWAP3 SWAP6 SWAP2 SWAP5 POP SWAP3 POP JUMP JUMPDEST PUSH1 0x0 PUSH1 0x20 DUP3 DUP5 SUB SLT ISZERO PUSH2 0x12F6 JUMPI PUSH1 0x0 DUP1 REVERT JUMPDEST PUSH2 0xAC3 DUP3 PUSH2 0x1289 JUMP JUMPDEST PUSH1 0x0 DUP1 PUSH1 0x0 DUP1 PUSH1 0x0 DUP1 PUSH1 0xC0 DUP8 DUP10 SUB SLT ISZERO PUSH2 0x1318 JUMPI PUSH1 0x0 DUP1 REVERT JUMPDEST DUP7 CALLDATALOAD SWAP6 POP PUSH1 0x20 DUP8 ADD CALLDATALOAD SWAP5 POP PUSH1 0x40 DUP8 ADD CALLDATALOAD SWAP4 POP PUSH2 0x1336 PUSH1 0x60 DUP9 ADD PUSH2 0x1289 JUMP JUMPDEST SWAP3 POP PUSH1 0x80 DUP8 ADD CALLDATALOAD SWAP2 POP PUSH2 0x134B PUSH1 0xA0 DUP9 ADD PUSH2 0x1289 JUMP JUMPDEST SWAP1 POP SWAP3 SWAP6 POP SWAP3 SWAP6 POP SWAP3 SWAP6 JUMP JUMPDEST PUSH1 0x0 DUP1 PUSH1 0x40 DUP4 DUP6 SUB SLT ISZERO PUSH2 0x136A JUMPI PUSH1 0x0 DUP1 REVERT JUMPDEST POP POP DUP1 CALLDATALOAD SWAP3 PUSH1 0x20 SWAP1 SWAP2 ADD CALLDATALOAD SWAP2 POP JUMP JUMPDEST PUSH1 0x20 DUP1 DUP3 MSTORE PUSH1 0x2 SWAP1 DUP3 ADD MSTORE PUSH2 0x9E9 PUSH1 0xF3 SHL PUSH1 0x40 DUP3 ADD MSTORE PUSH1 0x60 ADD SWAP1 JUMP JUMPDEST PUSH1 0x20 DUP1 DUP3 MSTORE PUSH1 0x2 SWAP1 DUP3 ADD MSTORE PUSH2 0x5553 PUSH1 0xF0 SHL PUSH1 0x40 DUP3 ADD MSTORE PUSH1 0x60 ADD SWAP1 JUMP JUMPDEST PUSH4 0x4E487B71 PUSH1 0xE0 SHL PUSH1 0x0 MSTORE PUSH1 0x11 PUSH1 0x4 MSTORE PUSH1 0x24 PUSH1 0x0 REVERT JUMPDEST DUP1 DUP3 ADD DUP1 DUP3 GT ISZERO PUSH2 0xA05 JUMPI PUSH2 0xA05 PUSH2 0x13B1 JUMP JUMPDEST PUSH1 0x0 PUSH1 0x20 DUP3 DUP5 SUB SLT ISZERO PUSH2 0x13EC JUMPI PUSH1 0x0 DUP1 REVERT JUMPDEST POP MLOAD SWAP2 SWAP1 POP JUMP JUMPDEST PUSH1 0x0 PUSH1 0x20 DUP3 DUP5 SUB SLT ISZERO PUSH2 0x1405 JUMPI PUSH1 0x0 DUP1 REVERT JUMPDEST DUP2 MLOAD DUP1 ISZERO ISZERO DUP2 EQ PUSH2 0xAC3 JUMPI PUSH1 0x0 DUP1 REVERT JUMPDEST PUSH4 0x4E487B71 PUSH1 0xE0 SHL PUSH1 0x0 MSTORE PUSH1 0x12 PUSH1 0x4 MSTORE PUSH1 0x24 PUSH1 0x0 REVERT JUMPDEST PUSH1 0x0 DUP3 PUSH2 0x143A JUMPI PUSH2 0x143A PUSH2 0x1415 JUMP JUMPDEST POP DIV SWAP1 JUMP JUMPDEST DUP1 DUP3 MUL DUP2 ISZERO DUP3 DUP3 DIV DUP5 EQ OR PUSH2 0xA05 JUMPI PUSH2 0xA05 PUSH2 0x13B1 JUMP JUMPDEST DUP2 DUP2 SUB DUP2 DUP2 GT ISZERO PUSH2 0xA05 JUMPI PUSH2 0xA05 PUSH2 0x13B1 JUMP JUMPDEST PUSH1 0x0 DUP3 PUSH2 0x1478 JUMPI PUSH2 0x1478 PUSH2 0x1415 JUMP JUMPDEST POP MOD SWAP1 JUMP INVALID LOG2 PUSH5 0x6970667358 0x22 SLT KECCAK256 MLOAD CREATE2 0xE9 PUSH14 0x3CAF52D117FC9D92C227098DF59 DELEGATECALL 0xB3 PUSH27 0xD2C606B7CDC2F0C9B49EF864736F6C634300081300330000000000 ",
  "sha1": "4164d8aa69f5de98b43ecc58b38edf3c0c9e3b10",
  "source": "// SPDX-License-Identifier: GPL-3.0-or-later\n\npragma solidity ^0.8.4;\n\nimport \"../node_modules/@openzeppelin/contracts/token/ERC20/ERC20.sol\";\n\n/// @notice Returns the two quotients and the remainder of an uneven division with a fraction. Useful for dividing ether and tokens.\n/// @param dividend The dividend, which will be divided by the fraction.\n/// @param numerator Numerator of fraction, which the dividend will be divided into.\n/// @param denominator Denominator of fraction, which the dividend will be divided into.\nfunction divideUnequallyIntoTwoWithRemainder(uint256 dividend, uint256 numerator, uint256 denominator) pure returns(uint256, uint256, uint256) {\n    require(denominator > numerator);\n    uint256 quotient1 = dividend*numerator/denominator;\n    uint256 quotient2 = dividend*(denominator-numerator)/denominator;\n    return (quotient1, quotient2, dividend - (quotient1 + quotient2));\n}\n\n/// @notice Returns the common denominator between two integers.\n/// @param a First integer.\n/// @param b Second integer.\nfunction getCommonDenominator(uint256 a, uint256 b) pure returns(uint256) {\n        while (b > 0) {\n        (a, b) = (b, a % b);\n        }\n        return a;\n}\n\n/// @notice Returns a simplified version of a fraction.\n/// @param numerator Numerator of fraction to be simplified.\n/// @param denominator Denominator of fraction to be simplified.\nfunction simplifyFraction(uint256 numerator, uint256 denominator) pure returns(uint256, uint256) {\n    uint256 commonDenominator = getCommonDenominator(numerator,denominator);\n    require(numerator/denominator == ((numerator/commonDenominator)/(denominator/commonDenominator)),\"VMT\");\n    return (numerator/commonDenominator,denominator/commonDenominator);\n}\n\n/// @notice Adds two fractions together.\n/// @param numerator1 Numerator of first fraction.\n/// @param denominator1 Denominator of first fraction.\n/// @param numerator2 Numerator of second fraction.\n/// @param denominator2 Denominator of second fraction.\nfunction addFractions(uint256 numerator1, uint256  denominator1, uint256 numerator2, uint256 denominator2) pure returns (uint256, uint256) {\n    numerator1 = numerator1 * denominator2;\n    numerator2 = numerator2 * denominator1;\n    return (numerator1+numerator2,denominator1*denominator2);\n}\n\n/// @notice Subtracts a fraction from another and returns the difference.\n/// @param numerator1 Numerator of minuend fraction.\n/// @param denominator1 Denominator of minuend fraction.\n/// @param numerator2 Numerator of subtrahend fraction.\n/// @param denominator2 Denominator of subtrahend fraction.\nfunction subtractFractions(uint256 numerator1, uint256 numerator2, uint256  denominator1, uint256 denominator2) pure returns (uint256,uint256) {\n    numerator1 = numerator1 * denominator2;\n    numerator2 = numerator2 * denominator1;\n    return (numerator1-numerator2,denominator1*denominator2);\n}\n\n\n/// @title A shardable/fractional non-fungible token that can be fractually owned via Shards.\n/// @author Frederik W. L. Christoffersen\n/// @notice This contract is used to fractionalize a non-fungible token. Be aware that a sell transfers a service fee of 2.5% to Counekt.\n/// @dev historicShards are used to show proof of ownership at different points of time.\n/// @custom:beaware This is a commercial contract.\ncontract Shardable {\n\n    /// @notice A struct representing the related info of a non-fungible Shard token.\n    /// @dev Is represented via a bytes32 value created from the hash: keccak256(owner, creationClock).\n    /// @param numerator Numerator of the fraction that the Shard represents.\n    /// @param denominator Denominator of the fraction that the Shard represents.\n    /// @param owner The owner of the Shard.\n    /// @param creationClock The clock at which the Shard was created.\n    /// @param expiredClock The clock at which the Shard expired. Default is set to the maximum value.\n    struct ShardInfo {\n        uint256 numerator;\n        uint256 denominator;\n        address owner; \n        uint256 creationClock;        \n    }\n\n    /// @notice A struct representing the related sale info of a non-fungible Shard token.\n    /// @param numerator Numerator of the fraction that is for sale.\n    /// @param denominator Denominator of the fraction that is for sale.\n    /// @param tokenAddress The address of the token that is accepted when purchasing. A value of 0x0 represents ether.\n    /// @param price The amount which the Shard is for sale as. The token address being the valuta.\n    /// @param to Address pointing to a potentially specifically set buyer of the sale.\n    struct ShardSale {\n        uint256 numerator;\n        uint256 denominator;\n        address tokenAddress;\n        uint256 price;\n        address to;\n    }\n\n    /// @notice Integer value to implement a concept of time independently of the messy block.timestamp\n    uint256 clock = 0;\n\n    /// @notice Boolean stating if the Shardable is active and tradeable or not.\n    bool public active;\n    /// @notice Mapping pointing to related info of a Shard given the bytes of a unique Shard instance.\n    mapping(bytes32 => ShardInfo) public infoByShard;\n    /// @notice Mapping pointing to a currently valid shard given the address of its owner.\n    mapping(address => bytes32) public shardByOwner;\n    /// @notice Mapping pointing to a boolean stating if a given Shard is for sale or not.\n    mapping(bytes32 => bool) shardsForSale;\n    /// @notice Mapping pointing to related sale info of a Shard given the bytes of a unique Shard instance.\n    mapping(bytes32 => ShardSale) saleByShard;\n    // @notice Mapping pointing to an expired clock given a shard.\n    mapping(bytes32 => uint256) shardExpirationClock;\n\n    /// @notice Event emitted when a Shard is created.\n    /// @param shard The Shard byte identifier, which was created.\n    /// @param owner The owner of the created Shard.\n    /// @param creationClock The clock at which the shard was created.\n    event NewShard(\n        bytes32 shard,\n        address owner,\n        uint256 creationClock\n        );\n\n    /// @notice Event emitted when a Shard expires.\n    /// @param shard The Shard byte identifier, which expired.\n    /// @param expirationClock The clock at which the shard expired.\n    event ExpiredShard(\n        bytes32 shard,\n        uint256 expirationClock\n        );\n\n    /// @notice Event emitted when a sale of a Shard is sold.\n    /// @param shard The shard that was sold from.\n    /// @param numerator Numerator of the absolute fraction of the Shard that was sold.\n    /// @param denominator Denominator of the absolute fraction of the Shard that was sold.\n    /// @param to The buyer of the sale.\n    /// @param tokenAddress The address of the token that was accepted in the purchase. A value of 0x0 represents ether.\n    /// @param price The amount which the Shard was for sale for. The token address being the valuta.\n    event SaleSold(\n        bytes32 shard,\n        uint256 numerator,\n        uint256 denominator,\n        address to,\n        address tokenAddress,\n        uint256 price\n        );\n\n    /// @notice Event emitted when a Shard is put up for sale.\n    /// @param shard The shard that was put for sale.\n    /// @param numerator Numerator of the absolute fraction of the Shard put for sale.\n    /// @param denominator Denominator of the absolute fraction of the Shard put for sale.\n    /// @param tokenAddress The address of the token that is accepted when purchasing. A value of 0x0 represents ether.\n    /// @param price The amount which the Shard is for sale as. The token address being the valuta.\n    /// @param to The specifically set buyer of the sale, if any.\n    event PutForSale(\n        bytes32 shard,\n        uint256 numerator,\n        uint256 denominator,\n        address tokenAddress,\n        uint256 price,\n        address to\n        );\n\n    modifier incrementClock {\n        _;\n        clock++;\n    }\n    \n    /// @notice Modifier that requires the msg.sender to be a current valid Shard holder.\n    modifier onlyShardHolder {\n        require(isShardHolder(msg.sender), \"UH\");\n        _;\n    }\n\n    /// @notice Modifier that requires a given Shard to be currently valid.\n    modifier onlyValidShard(bytes32 shard) {\n        require(isValidShard(shard), \"US\");\n        _;\n    }\n\n    /// @notice Modifier that makes sure the entity is active and not liquidized/dissolved.\n    modifier onlyIfActive() {\n        require(active == true, \"EL\");\n        _;\n    }\n\n    /// @notice Modifier that requires the msg.sender to be the owner of a given Shard\n    /// @param shard The Shard, whose ownership is tested for.\n    modifier onlyHolder(bytes32 shard) {\n        require(infoByShard[shard].owner == msg.sender, \"OH\");\n        _;\n    }\n\n    /// @notice Constructor function that pushes the first Shard being the property of the Shardable creator.\n    constructor() {\n        // passes full ownership to creator of contract\n        _pushShard(1, 1, msg.sender, 0);\n        active = true;\n    }\n\n    /// @notice Purchases a listed Shard for sale.\n    /// @dev If the purchase is with tokens (ie. tokenAddress != 0x0), first call 'token.approve(Shardable.address, salePrice);'\n    /// @param shard The shard of which a fraction will be purchased.\n    function purchase(bytes32 shard) external payable onlyValidShard(shard) {\n        require(shardsForSale[shard], \"NS\");\n        require((saleByShard[shard].to == msg.sender) || (saleByShard[shard].to == address(0x0)), \"SR\");\n        _cancelSale(shard);\n        (uint256 profitToCounekt, uint256 profitToSeller, uint256 remainder) = divideUnequallyIntoTwoWithRemainder(saleByShard[shard].price,25,1000);\n        profitToSeller += remainder; // remainder goes to seller\n        // if ether\n        if (saleByShard[shard].tokenAddress == address(0x0)) {\n            require(msg.value >= saleByShard[shard].price, \"IE\");\n            // Pay Service Fee of 2.5% to Counekt\n            (bool successToCounekt,) = payable(0x49a71890aea5A751E30e740C504f2E9683f347bC).call{value:profitToCounekt}(\"\");\n            // Rest goes to the seller\n            (bool successToSeller,) = payable(infoByShard[shard].owner).call{value:profitToSeller}(\"\");\n            require(successToSeller && successToCounekt, \"TF\");\n        } \n        else {\n            ERC20 token = ERC20(saleByShard[shard].tokenAddress);\n            require(token.allowance(msg.sender,address(this)) >= saleByShard[shard].price,\"IT\");\n            // Pay Service Fee of 2.5% to Counekt\n            token.transferFrom(msg.sender, 0x49a71890aea5A751E30e740C504f2E9683f347bC, profitToCounekt);\n            // Rest goes to the seller\n            token.transferFrom(msg.sender,infoByShard[shard].owner,profitToSeller);\n        } \n        require(saleByShard[shard].numerator != 0 && saleByShard[shard].denominator != 0, \"ES\");\n        _split(shard, saleByShard[shard].numerator,saleByShard[shard].denominator,msg.sender);\n        emit SaleSold(shard,saleByShard[shard].numerator,saleByShard[shard].denominator,msg.sender,saleByShard[shard].tokenAddress,saleByShard[shard].price);\n    }\n\n    /// @notice Puts a given shard for sale.\n    /// @param shard The shard to be put for sale.\n    /// @param numerator Numerator of the absolute fraction of the Shard to be put for sale.\n    /// @param denominator Denominator of the absolute fraction of the Shard to be put for sale.\n    /// @param tokenAddress The address of the token that is accepted when purchasing. A value of 0x0 represents ether.\n    /// @param price The amount which the Shard is for sale as. The token address being the valuta.\n    /// @param to The specifically set buyer of the sale. Open to anyone, if address(0).\n    function putForSale(bytes32 shard, uint256 numerator, uint256 denominator, address tokenAddress, uint256 price, address to) public onlyHolder(shard) onlyValidShard(shard) {\n        _putForSale(shard,numerator,denominator,tokenAddress,price,to);\n    }\n\n    /// @notice Cancels a sell of a given Shard.\n    /// @param shard The shard to be put off sale.\n    function cancelSale(bytes32 shard) public onlyHolder(shard) onlyValidShard(shard) {\n        require(shardsForSale[shard], \"NS\");\n        _cancelSale(shard);\n    }\n\n    /// @notice Splits a currently valid shard into two new ones. One is assigned to the receiver. The rest to the previous owner.\n    /// @param senderShard The shard to be split.\n    /// @param numerator Numerator of the absolute fraction, which will be subtracted from the previous shard and sent to the receiver.\n    /// @param denominator Denominator of the absolute fraction, which will be subtracted from the previous shard and sent to the receiver.\n    /// @param to The receiver of the new Shard.\n    function split(bytes32 senderShard, uint256 numerator, uint256 denominator, address to) public onlyHolder(senderShard) onlyValidShard(senderShard) {\n        _split(senderShard,numerator,denominator,to);\n    }\n\n    /// @notice Returns the clock.\n    function getCurrentClock() public view returns(uint256) {\n        return clock;\n    }\n\n    /// @notice Returns the clock, in which a shard will or has expired.\n    function getShardExpirationClock(bytes32 shard) public view returns(uint256) {\n        return shardExpirationClock[shard];\n    }\n\n    /// @notice Returns the price, at which a shard is for sale.\n    function getShardSalePrice(bytes32 shard) public view returns(uint256) {\n        return saleByShard[shard].price;\n    }\n\n    /// @notice Returns a boolean stating if a given shard is currently valid or not.\n    /// @param shard The shard, whose validity is to be checked for.\n    function isValidShard(bytes32 shard) public view returns(bool) {\n        return getShardExpirationClock(shard) > clock;\n    }\n\n    /// @notice Checks if address is a shard holder - at least a partial owner of the contract.\n    /// @param account The address to be checked for.\n    function isShardHolder(address account) public view returns(bool) {\n        return isValidShard(shardByOwner[account]);\n    }\n    \n    /// @notice Returns a boolean stating if the given shard was valid at a given clock.\n    /// @param shard The shard, whose validity is to be checked for.\n    /// @param atClock The clock to be checked for.\n    function shardExisted(bytes32 shard, uint256 atClock) public view returns(bool) {\n        return infoByShard[shard].creationClock <= atClock && atClock < getShardExpirationClock(shard);\n    }\n\n    /// @notice Cancels a sell of a given Shard.\n    /// @param shard The shard to be put off sale.\n    function _cancelSale(bytes32 shard) internal onlyValidShard(shard) {\n        shardsForSale[shard] = false;\n    }\n\n    /// @notice Splits a currently valid shard into two new ones. One is assigned to the receiver. The rest to the previous owner.\n    /// @param senderShard The shard to be split.\n    /// @param numerator Numerator of the absolute fraction, which will be subtracted from the previous shard and sent to the receiver.\n    /// @param denominator Denominator of the absolute fraction, which will be subtracted from the previous shard and sent to the receiver.\n    /// @param to The receiver of the new Shard.\n    function _split(bytes32 senderShard, uint256 numerator, uint256 denominator, address to) internal onlyValidShard(senderShard) onlyIfActive {\n        require(numerator/denominator < infoByShard[senderShard].numerator/infoByShard[senderShard].denominator, \"IF\");\n        uint256 transferClock = clock;\n        if (isShardHolder(to)) { // if Receiver already owns a shard\n            // The fractions are added and upgraded\n            (uint256 sumNumerator, uint256 sumDenominator) = addFractions(infoByShard[shardByOwner[to]].numerator,infoByShard[shardByOwner[to]].denominator,numerator,denominator);\n            _pushShard(sumNumerator,sumDenominator,to,transferClock);\n            // Expire the Old Receiver Shard\n            _expireShard(shardByOwner[to], transferClock);\n        }\n\n        else {\n            // The Fraction of the Receiver Shard is equal to the one split off of the Sender Shard\n            _pushShard(numerator,denominator,to,transferClock);\n        }\n\n        // Expire the Old Sender Shard\n        _expireShard(senderShard, transferClock);\n        // The new Fraction of the Sender Shard has been subtracted by the Split Fraction.\n        (uint256 diffNumerator, uint256 diffDenominator) = subtractFractions(infoByShard[senderShard].numerator,infoByShard[senderShard].denominator,numerator,denominator);\n        if (diffDenominator != 0) {\n        _pushShard(diffNumerator,diffDenominator,infoByShard[senderShard].owner,transferClock);\n        }\n        emit SaleSold(senderShard,numerator,denominator,to,address(0),0);\n    }\n\n    /// @notice Puts a given shard for sale.\n    /// @param shard The shard to be put for sale.\n    /// @param numerator Numerator of the absolute fraction of the Shard to be put for sale.\n    /// @param denominator Denominator of the absolute fraction of the Shard to be put for sale.\n    /// @param tokenAddress The address of the token that is accepted when purchasing. A value of 0x0 represents ether.\n    /// @param price The amount which the Shard is for sale as. The token address being the valuta.\n    /// @param to The specifically set buyer of the sale. For anyone to buy if address(0).\n    function _putForSale(bytes32 shard, uint256 numerator, uint256 denominator, address tokenAddress, uint256 price, address to) internal onlyValidShard(shard) onlyIfActive {\n        require(numerator/denominator <= infoByShard[shard].numerator/infoByShard[shard].denominator, \"IF\");\n        (numerator, denominator) = simplifyFraction(numerator,denominator);\n        saleByShard[shard] = ShardSale({\n            numerator: numerator,\n            denominator: denominator,\n            tokenAddress: tokenAddress,\n            price: price,\n            to: to\n        });\n        shardsForSale[shard] = true;\n        emit PutForSale(shard,numerator,denominator,tokenAddress,price,to);\n    }\n\n    /// @notice Pushes a shard to the registry of currently valid shards.\n    /// @param numerator Numerator of the fraction that the Shard represents.\n    /// @param denominator Denominator of the fraction that the Shard represents.\n    /// @param owner The owner of the Shard.\n    /// @param creationClock The clock at which the Shard will be created.\n    function _pushShard(uint256 numerator, uint256 denominator, address owner, uint256 creationClock) internal {\n        // The representation, bytes and hash\n        bytes32 shard = keccak256(abi.encodePacked(owner,creationClock));\n        shardByOwner[owner] = shard;\n        shardExpirationClock[shard] = type(uint256).max; // The maximum value: (2^256)-1;\n        // The info, attributes and details\n        infoByShard[shard] = ShardInfo({\n                                numerator:numerator,\n                                denominator:denominator,\n                                owner: owner,\n                                creationClock: creationClock\n                                });\n        emit NewShard(shard,owner,creationClock);\n\n    }\n\n    /// @notice Removes a shard from the registry of currently valid shards.\n    /// @param shard The shard to be expired.\n    /// @param expirationClock The clock at which the Shard will expire.\n    function _expireShard(bytes32 shard, uint256 expirationClock) internal  {\n        shardExpirationClock[shard] = expirationClock;\n        emit ExpiredShard(shard,expirationClock);\n    }\n\n}",
  "sourcePath": "contracts/shardable.sol",
  "type": "contract"
}