{
  "abi": [
    {
      "inputs": [
        {
          "internalType": "uint256",
          "name": "amount",
          "type": "uint256"
        }
      ],
      "stateMutability": "nonpayable",
      "type": "constructor"
    },
    {
      "anonymous": false,
      "inputs": [
        {
          "indexed": false,
          "internalType": "enum Shardable.SaleState",
          "name": "status",
          "type": "uint8"
        },
        {
          "indexed": false,
          "internalType": "bytes32",
          "name": "shard",
          "type": "bytes32"
        },
        {
          "components": [
            {
              "internalType": "uint256",
              "name": "amount",
              "type": "uint256"
            },
            {
              "internalType": "uint256",
              "name": "price",
              "type": "uint256"
            },
            {
              "internalType": "address",
              "name": "tokenAddress",
              "type": "address"
            },
            {
              "internalType": "address",
              "name": "to",
              "type": "address"
            }
          ],
          "indexed": false,
          "internalType": "struct Shardable.ShardSale",
          "name": "sale",
          "type": "tuple"
        }
      ],
      "name": "SaleStateUpdated",
      "type": "event"
    },
    {
      "anonymous": false,
      "inputs": [
        {
          "indexed": false,
          "internalType": "bool",
          "name": "status",
          "type": "bool"
        },
        {
          "indexed": false,
          "internalType": "bytes32",
          "name": "shard",
          "type": "bytes32"
        }
      ],
      "name": "ShardUpdated",
      "type": "event"
    },
    {
      "inputs": [],
      "name": "active",
      "outputs": [
        {
          "internalType": "bool",
          "name": "",
          "type": "bool"
        }
      ],
      "stateMutability": "view",
      "type": "function"
    },
    {
      "inputs": [
        {
          "internalType": "bytes32",
          "name": "shard",
          "type": "bytes32"
        }
      ],
      "name": "cancelSale",
      "outputs": [],
      "stateMutability": "nonpayable",
      "type": "function"
    },
    {
      "inputs": [],
      "name": "getCurrentClock",
      "outputs": [
        {
          "internalType": "uint256",
          "name": "",
          "type": "uint256"
        }
      ],
      "stateMutability": "view",
      "type": "function"
    },
    {
      "inputs": [
        {
          "internalType": "bytes32",
          "name": "shard",
          "type": "bytes32"
        }
      ],
      "name": "getShardExpirationClock",
      "outputs": [
        {
          "internalType": "uint256",
          "name": "",
          "type": "uint256"
        }
      ],
      "stateMutability": "view",
      "type": "function"
    },
    {
      "inputs": [
        {
          "internalType": "bytes32",
          "name": "shard",
          "type": "bytes32"
        }
      ],
      "name": "getShardSalePrice",
      "outputs": [
        {
          "internalType": "uint256",
          "name": "",
          "type": "uint256"
        }
      ],
      "stateMutability": "view",
      "type": "function"
    },
    {
      "inputs": [
        {
          "internalType": "bytes32",
          "name": "",
          "type": "bytes32"
        }
      ],
      "name": "infoByShard",
      "outputs": [
        {
          "internalType": "uint256",
          "name": "amount",
          "type": "uint256"
        },
        {
          "internalType": "address",
          "name": "owner",
          "type": "address"
        },
        {
          "internalType": "uint256",
          "name": "creationClock",
          "type": "uint256"
        }
      ],
      "stateMutability": "view",
      "type": "function"
    },
    {
      "inputs": [
        {
          "internalType": "address",
          "name": "account",
          "type": "address"
        }
      ],
      "name": "isShardHolder",
      "outputs": [
        {
          "internalType": "bool",
          "name": "",
          "type": "bool"
        }
      ],
      "stateMutability": "view",
      "type": "function"
    },
    {
      "inputs": [
        {
          "internalType": "bytes32",
          "name": "shard",
          "type": "bytes32"
        }
      ],
      "name": "isValidShard",
      "outputs": [
        {
          "internalType": "bool",
          "name": "",
          "type": "bool"
        }
      ],
      "stateMutability": "view",
      "type": "function"
    },
    {
      "inputs": [
        {
          "internalType": "bytes32",
          "name": "shard",
          "type": "bytes32"
        },
        {
          "internalType": "uint256",
          "name": "amount",
          "type": "uint256"
        },
        {
          "internalType": "uint256",
          "name": "price",
          "type": "uint256"
        }
      ],
      "name": "purchase",
      "outputs": [],
      "stateMutability": "payable",
      "type": "function"
    },
    {
      "inputs": [
        {
          "internalType": "bytes32",
          "name": "shard",
          "type": "bytes32"
        },
        {
          "internalType": "uint256",
          "name": "amount",
          "type": "uint256"
        },
        {
          "internalType": "address",
          "name": "tokenAddress",
          "type": "address"
        },
        {
          "internalType": "uint256",
          "name": "price",
          "type": "uint256"
        },
        {
          "internalType": "address",
          "name": "to",
          "type": "address"
        }
      ],
      "name": "putForSale",
      "outputs": [],
      "stateMutability": "nonpayable",
      "type": "function"
    },
    {
      "inputs": [
        {
          "internalType": "address",
          "name": "",
          "type": "address"
        }
      ],
      "name": "shardByOwner",
      "outputs": [
        {
          "internalType": "bytes32",
          "name": "",
          "type": "bytes32"
        }
      ],
      "stateMutability": "view",
      "type": "function"
    },
    {
      "inputs": [
        {
          "internalType": "bytes32",
          "name": "shard",
          "type": "bytes32"
        },
        {
          "internalType": "uint256",
          "name": "atClock",
          "type": "uint256"
        }
      ],
      "name": "shardExisted",
      "outputs": [
        {
          "internalType": "bool",
          "name": "",
          "type": "bool"
        }
      ],
      "stateMutability": "view",
      "type": "function"
    },
    {
      "inputs": [
        {
          "internalType": "bytes32",
          "name": "senderShard",
          "type": "bytes32"
        },
        {
          "internalType": "uint256",
          "name": "amount",
          "type": "uint256"
        },
        {
          "internalType": "address",
          "name": "to",
          "type": "address"
        }
      ],
      "name": "split",
      "outputs": [],
      "stateMutability": "nonpayable",
      "type": "function"
    },
    {
      "inputs": [
        {
          "internalType": "uint256",
          "name": "",
          "type": "uint256"
        }
      ],
      "name": "totalShardAmountByClock",
      "outputs": [
        {
          "internalType": "uint256",
          "name": "",
          "type": "uint256"
        }
      ],
      "stateMutability": "view",
      "type": "function"
    }
  ],
  "bytecode": "6080604052600080553480156200001557600080fd5b5060405162001858380380620018588339810160408190526200003891620001d7565b620000468133600062000068565b600080548152600260205260409020556001805460ff19168117905562000219565b60008311620000a25760405162461bcd60e51b815260206004820152600260248201526129ad60f11b604482015260640160405180910390fd5b6000805b6040516001600160601b0319606086901b166020820152603481018490526054810183905260740160408051601f198184030181529181528151602092830120600081815260039093529120600101549091506001600160a01b0316156200011d57816200011481620001f1565b925050620000a6565b6001600160a01b03848116600081815260046020908152604080832086905585835260078252808320600019905580516060810182528a81528083019485528082018981528785526003845293829020905181559351600180860180546001600160a01b0319169290971691909117909555915160029093019290925580519283529082018390527f12769fd465856c3651942a04374f21755b56a66422aaed87c7e56e936f6dd3d0910160405180910390a15050505050565b600060208284031215620001ea57600080fd5b5051919050565b6000600182016200021257634e487b7160e01b600052601160045260246000fd5b5060010190565b61162f80620002296000396000f3fe6080604052600436106100dd5760003560e01c8063b2cb78ab1161007f578063e1c34c1f11610059578063e1c34c1f146102ab578063efae89f8146102cb578063f7aae621146102f8578063fd06636b1461031857600080fd5b8063b2cb78ab146101f6578063bcedb2e014610216578063c4802eb21461027e57600080fd5b80637b785493116100bb5780637b7854931461016e5780639995b9a91461019e578063a902780f146101ce578063ab2d662b146101e357600080fd5b806302fb0c5e146100e2578063066792d2146101115780630bea89851461014c575b600080fd5b3480156100ee57600080fd5b506001546100fc9060ff1681565b60405190151581526020015b60405180910390f35b34801561011d57600080fd5b5061013e61012c3660046112fe565b60026020526000908152604090205481565b604051908152602001610108565b34801561015857600080fd5b5061016c6101673660046112fe565b610338565b005b34801561017a57600080fd5b5061013e6101893660046112fe565b60009081526006602052604090206001015490565b3480156101aa57600080fd5b506100fc6101b93660046112fe565b60008054918152600760205260409020541190565b3480156101da57600080fd5b5060005461013e565b61016c6101f1366004611317565b610417565b34801561020257600080fd5b5061016c61021136600461135f565b610aa6565b34801561022257600080fd5b5061025b6102313660046112fe565b60036020526000908152604090208054600182015460029092015490916001600160a01b03169083565b604080519384526001600160a01b03909216602084015290820152606001610108565b34801561028a57600080fd5b5061013e610299366004611394565b60046020526000908152604090205481565b3480156102b757600080fd5b506100fc6102c6366004611394565b610b29565b3480156102d757600080fd5b5061013e6102e63660046112fe565b60009081526007602052604090205490565b34801561030457600080fd5b5061016c6103133660046113af565b610b61565b34801561032457600080fd5b506100fc6103333660046113ff565b610be8565b60008181526003602052604090206001015481906001600160a01b0316331461037c5760405162461bcd60e51b815260040161037390611421565b60405180910390fd5b816103968160008054918152600760205260409020541190565b6103b25760405162461bcd60e51b81526004016103739061143d565b600160008481526005602052604090205460ff1660028111156103d7576103d7611459565b146104095760405162461bcd60e51b81526020600482015260026024820152614e5360f01b6044820152606401610373565b61041283610c1d565b505050565b826104318160008054918152600760205260409020541190565b61044d5760405162461bcd60e51b81526004016103739061143d565b600160008581526005602052604090205460ff16600281111561047257610472611459565b146104a45760405162461bcd60e51b81526020600482015260026024820152614e5360f01b6044820152606401610373565b60008481526006602052604090206001015482146104e95760405162461bcd60e51b8152602060048201526002602482015261057560f41b6044820152606401610373565b8260000361051e5760405162461bcd60e51b8152602060048201526002602482015261455360f01b6044820152606401610373565b6000848152600660205260409020548311156105615760405162461bcd60e51b8152602060048201526002602482015261455360f01b6044820152606401610373565b6000848152600660205260409020600301546001600160a01b03163314806105a157506000848152600660205260409020600301546001600160a01b0316155b6105d25760405162461bcd60e51b815260206004820152600260248201526129a960f11b6044820152606401610373565b6000848152600560209081526040808320805460ff1916600217905560069091528120600101546106039085611485565b905060008060006106188460196103e8610cc7565b91945092509050610629818361149c565b6000898152600660205260409020600201549092506001600160a01b031661078857833410156106805760405162461bcd60e51b8152602060048201526002602482015261494560f01b6044820152606401610373565b6040516000907349a71890aea5a751e30e740c504f2e9683f347bc9085908381818185875af1925050503d80600081146106d6576040519150601f19603f3d011682016040523d82523d6000602084013e6106db565b606091505b505060008a81526003602052604080822060010154905192935090916001600160a01b039091169085908381818185875af1925050503d806000811461073d576040519150601f19603f3d011682016040523d82523d6000602084013e610742565b606091505b505090508080156107505750815b6107815760405162461bcd60e51b81526020600482015260026024820152612a2360f11b6044820152606401610373565b5050610937565b60008881526006602052604090819020600201549051636eb1769f60e11b81523360048201523060248201526001600160a01b03909116908590829063dd62ed3e90604401602060405180830381865afa1580156107ea573d6000803e3d6000fd5b505050506040513d601f19601f8201168201806040525081019061080e91906114af565b10156108415760405162461bcd60e51b8152602060048201526002602482015261125560f21b6044820152606401610373565b6040516323b872dd60e01b81523360048201527349a71890aea5a751e30e740c504f2e9683f347bc6024820152604481018590526001600160a01b038216906323b872dd906064016020604051808303816000875af11580156108a8573d6000803e3d6000fd5b505050506040513d601f19601f820116820180604052508101906108cc91906114c8565b6108fd5760405162461bcd60e51b8152602060048201526002602482015261139560f21b6044820152606401610373565b600089815260036020908152604080832060010154600690925290912060020154610935916001600160a01b03908116911685610d3b565b505b610942888833610db7565b600088815260036020526040902060010154306001600160a01b039091160361098a57600080548152600260205260408120805489929061098490849061149c565b90915550505b6040805160808101825288815260008a8152600660208181528483206001810154828601526002818101546001600160a01b0390811687890152948f90529290915260030154909116606083015291517fd8cd09ea93b4076ab867588c0d1a52b62c5b605b7a5f1c0189781245631a835392610a0a9290918c919061150c565b60405180910390a16000888152600660205260409020548714610a9c576000888152600360209081526040808320600101546001600160a01b0316835260048252808320548b8452600690925290912054610a9c9190610a6b908a9061155b565b60008b8152600660205260409020600281015460018201546003909201546001600160a01b03918216929116610f9a565b5050505050505050565b60008381526003602052604090206001015483906001600160a01b03163314610ae15760405162461bcd60e51b815260040161037390611421565b83610afb8160008054918152600760205260409020541190565b610b175760405162461bcd60e51b81526004016103739061143d565b610b22858585610db7565b5050505050565b6001600160a01b038116600090815260046020526040812054610b5b9060008054918152600760205260409020541190565b92915050565b60008581526003602052604090206001015485906001600160a01b03163314610b9c5760405162461bcd60e51b815260040161037390611421565b85610bb68160008054918152600760205260409020541190565b610bd25760405162461bcd60e51b81526004016103739061143d565b610bdf8787878787610f9a565b50505050505050565b6000828152600360205260408120600201548210801590610c16575060008381526007602052604090205482105b9392505050565b80610c378160008054918152600760205260409020541190565b610c535760405162461bcd60e51b81526004016103739061143d565b6000828152600560209081526040808320805460ff19169055805160808101825283815291820183905281810183905260608201839052517fd8cd09ea93b4076ab867588c0d1a52b62c5b605b7a5f1c0189781245631a835392610cbb92909186919061150c565b60405180910390a15050565b6000806000848411610cd857600080fd5b600084610ce58789611485565b610cef919061156e565b9050600085610cfe888261155b565b610d08908a611485565b610d12919061156e565b90508181610d20818361149c565b610d2a908b61155b565b945094509450505093509350939050565b6040516323b872dd60e01b81523360048201526001600160a01b038481166024830152604482018390528391908216906323b872dd906064016020604051808303816000875af1158015610d93573d6000803e3d6000fd5b505050506040513d601f19601f82011682018060405250810190610b2291906114c8565b82610dd18160008054918152600760205260409020541190565b610ded5760405162461bcd60e51b81526004016103739061143d565b6001805460ff16151514610e285760405162461bcd60e51b8152602060048201526002602482015261115360f21b6044820152606401610373565b600084815260036020526040902054831115610e6b5760405162461bcd60e51b8152602060048201526002602482015261494160f01b6044820152606401610373565b610e7482610b29565b15610ee3576001600160a01b03821660009081526004602090815260408083205483526003909152812054610ea9908561149c565b6001600160a01b0384166000908152600460205260408120549054919250610ed09161114c565b610edd8184600054611193565b50610ef0565b610ef08383600054611193565b610efc8460005461114c565b600084815260036020526040812054610f1690859061155b565b90508015610f49576000858152600360205260408120600101549054610f499183916001600160a01b0390911690611193565b5060008054808252600260208190526040832054929091610f6b90600161149c565b815260200190815260200160002081905550600080815480929190610f8f90611590565b919050555050505050565b84610fb48160008054918152600760205260409020541190565b610fd05760405162461bcd60e51b81526004016103739061143d565b6001805460ff1615151461100b5760405162461bcd60e51b8152602060048201526002602482015261115360f21b6044820152606401610373565b60008681526005602052604081205460ff16600281111561102e5761102e611459565b1461103857600080fd5b60008681526003602052604090205485111561107b5760405162461bcd60e51b8152602060048201526002602482015261494160f01b6044820152606401610373565b6040805160808101825286815260208082018681526001600160a01b038881168486019081528782166060860190815260008d8152600680875288822097518855945160018089019190915592516002880180549186166001600160a01b03199283161790559151600388018054919095169216919091179092556005845290859020805460ff191682179055915291517fd8cd09ea93b4076ab867588c0d1a52b62c5b605b7a5f1c0189781245631a83539261113c9290918a91906115a9565b60405180910390a1505050505050565b600082815260076020908152604080832084905580519283529082018490527f12769fd465856c3651942a04374f21755b56a66422aaed87c7e56e936f6dd3d09101610cbb565b600083116111c85760405162461bcd60e51b815260206004820152600260248201526129ad60f11b6044820152606401610373565b6000805b6040516bffffffffffffffffffffffff19606086901b166020820152603481018490526054810183905260740160408051601f198184030181529181528151602092830120600081815260039093529120600101549091506001600160a01b031615611244578161123c81611590565b9250506111cc565b6001600160a01b03848116600081815260046020908152604080832086905585835260078252808320600019905580516060810182528a81528083019485528082018981528785526003845293829020905181559351600180860180546001600160a01b0319169290971691909117909555915160029093019290925580519283529082018390527f12769fd465856c3651942a04374f21755b56a66422aaed87c7e56e936f6dd3d0910160405180910390a15050505050565b60006020828403121561131057600080fd5b5035919050565b60008060006060848603121561132c57600080fd5b505081359360208301359350604090920135919050565b80356001600160a01b038116811461135a57600080fd5b919050565b60008060006060848603121561137457600080fd5b833592506020840135915061138b60408501611343565b90509250925092565b6000602082840312156113a657600080fd5b610c1682611343565b600080600080600060a086880312156113c757600080fd5b85359450602086013593506113de60408701611343565b9250606086013591506113f360808701611343565b90509295509295909350565b6000806040838503121561141257600080fd5b50508035926020909101359150565b60208082526002908201526109e960f31b604082015260600190565b602080825260029082015261555360f01b604082015260600190565b634e487b7160e01b600052602160045260246000fd5b634e487b7160e01b600052601160045260246000fd5b8082028115828204841417610b5b57610b5b61146f565b80820180821115610b5b57610b5b61146f565b6000602082840312156114c157600080fd5b5051919050565b6000602082840312156114da57600080fd5b81518015158114610c1657600080fd5b6003811061150857634e487b7160e01b600052602160045260246000fd5b9052565b60c0810161151a82866114ea565b8360208301528251604083015260208301516060830152604083015160018060a01b0380821660808501528060608601511660a08501525050949350505050565b81810381811115610b5b57610b5b61146f565b60008261158b57634e487b7160e01b600052601260045260246000fd5b500490565b6000600182016115a2576115a261146f565b5060010190565b60c081016115b782866114ea565b6020820193909352815460408201526001820154606082015260028201546001600160a01b03908116608083015260039092015490911660a09091015291905056fea26469706673582212205b7e0f873bc05c64e992eb51992d5d86355c7fcb8c253212310021f189aea93e64736f6c63430008130033",
  "bytecodeSha1": "84e06838165465c64c4c06032e5c76619e985212",
  "compiler": {
    "evm_version": "istanbul",
    "optimizer": {
      "enabled": true,
      "runs": 200
    },
    "version": "0.8.19+commit.7dd6d404"
  },
  "contractName": "Shardable",
  "language": "Solidity",
  "natspec": {
    "author": "Frederik W. L. Christoffersen",
    "custom:beaware": "This is a commercial contract.",
    "details": "historicShards are used to show proof of ownership at different points of time.",
    "kind": "dev",
    "methods": {
      "active()": {
        "notice": "Boolean stating if the Shardable is active and tradeable or not."
      },
      "cancelSale(bytes32)": {
        "notice": "Cancels a sell of a given shard.",
        "params": {
          "shard": "The shard to be put off sale."
        }
      },
      "constructor": {
        "notice": "Constructor function that pushes the first Shard being the property of the Shardable creator.",
        "params": {
          "amount": "Amount of shards to construct Shardable with."
        }
      },
      "getCurrentClock()": {
        "notice": "Returns the clock."
      },
      "getShardExpirationClock(bytes32)": {
        "notice": "Returns the clock, in which a shard will or has expired."
      },
      "getShardSalePrice(bytes32)": {
        "notice": "Returns the price, at which a shard is for sale."
      },
      "infoByShard(bytes32)": {
        "notice": "Mapping pointing to related info of a Shard given the bytes of a unique Shard instance."
      },
      "isShardHolder(address)": {
        "notice": "Checks if address is a shard holder - at least a partial owner of the contract.",
        "params": {
          "account": "The address to be checked for."
        }
      },
      "isValidShard(bytes32)": {
        "notice": "Returns a boolean stating if a given shard is currently valid or not.",
        "params": {
          "shard": "The shard, whose validity is to be checked for."
        }
      },
      "purchase(bytes32,uint256,uint256)": {
        "details": "If the purchase is with tokens (ie. tokenAddress != 0x0), first call 'token.approve(Shardable.address, salePrice);'",
        "notice": "Purchases a listed Shard for sale.",
        "params": {
          "shard": "The shard of which a fraction will be purchased."
        }
      },
      "putForSale(bytes32,uint256,address,uint256,address)": {
        "notice": "Puts a given shard for sale.",
        "params": {
          "amount": "Amount of the Shard to be put for sale.",
          "price": "The amount which the Shard is for sale as. The token address being the valuta.",
          "shard": "The shard to be put for sale.",
          "to": "The specifically set buyer of the sale. Open to anyone, if address(0).",
          "tokenAddress": "The address of the token that is accepted when purchasing. A value of 0x0 represents ether."
        }
      },
      "shardByOwner(address)": {
        "notice": "Mapping pointing to a currently valid shard given the address of its owner."
      },
      "shardExisted(bytes32,uint256)": {
        "notice": "Returns a boolean stating if the given shard was valid at a given clock.",
        "params": {
          "atClock": "The clock to be checked for.",
          "shard": "The shard, whose validity is to be checked for."
        }
      },
      "split(bytes32,uint256,address)": {
        "notice": "Splits a currently valid shard into two new ones. One is assigned to the receiver. The rest to the previous owner.",
        "params": {
          "amount": "Amount, which will be subtracted from the previous shard and sent to the receiver.",
          "senderShard": "The shard to be split.",
          "to": "The receiver of the new Shard."
        }
      },
      "totalShardAmountByClock(uint256)": {
        "notice": "Mapping pointing to integer value representing the total number of shards issued, provided the clock. Used as the denominator to represent a relative shard fraction."
      }
    },
    "notice": "This contract is used to fractionalize a non-fungible token. Be aware that a sell transfers a service fee of 2.5% to Counekt.",
    "title": "A shardable/fractional non-fungible token that can be fractually owned via Shards.",
    "version": 1
  },
  "opcodes": "PUSH1 0x80 PUSH1 0x40 MSTORE PUSH1 0x4 CALLDATASIZE LT PUSH2 0xDD JUMPI PUSH1 0x0 CALLDATALOAD PUSH1 0xE0 SHR DUP1 PUSH4 0xB2CB78AB GT PUSH2 0x7F JUMPI DUP1 PUSH4 0xE1C34C1F GT PUSH2 0x59 JUMPI DUP1 PUSH4 0xE1C34C1F EQ PUSH2 0x2AB JUMPI DUP1 PUSH4 0xEFAE89F8 EQ PUSH2 0x2CB JUMPI DUP1 PUSH4 0xF7AAE621 EQ PUSH2 0x2F8 JUMPI DUP1 PUSH4 0xFD06636B EQ PUSH2 0x318 JUMPI PUSH1 0x0 DUP1 REVERT JUMPDEST DUP1 PUSH4 0xB2CB78AB EQ PUSH2 0x1F6 JUMPI DUP1 PUSH4 0xBCEDB2E0 EQ PUSH2 0x216 JUMPI DUP1 PUSH4 0xC4802EB2 EQ PUSH2 0x27E JUMPI PUSH1 0x0 DUP1 REVERT JUMPDEST DUP1 PUSH4 0x7B785493 GT PUSH2 0xBB JUMPI DUP1 PUSH4 0x7B785493 EQ PUSH2 0x16E JUMPI DUP1 PUSH4 0x9995B9A9 EQ PUSH2 0x19E JUMPI DUP1 PUSH4 0xA902780F EQ PUSH2 0x1CE JUMPI DUP1 PUSH4 0xAB2D662B EQ PUSH2 0x1E3 JUMPI PUSH1 0x0 DUP1 REVERT JUMPDEST DUP1 PUSH4 0x2FB0C5E EQ PUSH2 0xE2 JUMPI DUP1 PUSH4 0x66792D2 EQ PUSH2 0x111 JUMPI DUP1 PUSH4 0xBEA8985 EQ PUSH2 0x14C JUMPI JUMPDEST PUSH1 0x0 DUP1 REVERT JUMPDEST CALLVALUE DUP1 ISZERO PUSH2 0xEE JUMPI PUSH1 0x0 DUP1 REVERT JUMPDEST POP PUSH1 0x1 SLOAD PUSH2 0xFC SWAP1 PUSH1 0xFF AND DUP2 JUMP JUMPDEST PUSH1 0x40 MLOAD SWAP1 ISZERO ISZERO DUP2 MSTORE PUSH1 0x20 ADD JUMPDEST PUSH1 0x40 MLOAD DUP1 SWAP2 SUB SWAP1 RETURN JUMPDEST CALLVALUE DUP1 ISZERO PUSH2 0x11D JUMPI PUSH1 0x0 DUP1 REVERT JUMPDEST POP PUSH2 0x13E PUSH2 0x12C CALLDATASIZE PUSH1 0x4 PUSH2 0x12FE JUMP JUMPDEST PUSH1 0x2 PUSH1 0x20 MSTORE PUSH1 0x0 SWAP1 DUP2 MSTORE PUSH1 0x40 SWAP1 KECCAK256 SLOAD DUP2 JUMP JUMPDEST PUSH1 0x40 MLOAD SWAP1 DUP2 MSTORE PUSH1 0x20 ADD PUSH2 0x108 JUMP JUMPDEST CALLVALUE DUP1 ISZERO PUSH2 0x158 JUMPI PUSH1 0x0 DUP1 REVERT JUMPDEST POP PUSH2 0x16C PUSH2 0x167 CALLDATASIZE PUSH1 0x4 PUSH2 0x12FE JUMP JUMPDEST PUSH2 0x338 JUMP JUMPDEST STOP JUMPDEST CALLVALUE DUP1 ISZERO PUSH2 0x17A JUMPI PUSH1 0x0 DUP1 REVERT JUMPDEST POP PUSH2 0x13E PUSH2 0x189 CALLDATASIZE PUSH1 0x4 PUSH2 0x12FE JUMP JUMPDEST PUSH1 0x0 SWAP1 DUP2 MSTORE PUSH1 0x6 PUSH1 0x20 MSTORE PUSH1 0x40 SWAP1 KECCAK256 PUSH1 0x1 ADD SLOAD SWAP1 JUMP JUMPDEST CALLVALUE DUP1 ISZERO PUSH2 0x1AA JUMPI PUSH1 0x0 DUP1 REVERT JUMPDEST POP PUSH2 0xFC PUSH2 0x1B9 CALLDATASIZE PUSH1 0x4 PUSH2 0x12FE JUMP JUMPDEST PUSH1 0x0 DUP1 SLOAD SWAP2 DUP2 MSTORE PUSH1 0x7 PUSH1 0x20 MSTORE PUSH1 0x40 SWAP1 KECCAK256 SLOAD GT SWAP1 JUMP JUMPDEST CALLVALUE DUP1 ISZERO PUSH2 0x1DA JUMPI PUSH1 0x0 DUP1 REVERT JUMPDEST POP PUSH1 0x0 SLOAD PUSH2 0x13E JUMP JUMPDEST PUSH2 0x16C PUSH2 0x1F1 CALLDATASIZE PUSH1 0x4 PUSH2 0x1317 JUMP JUMPDEST PUSH2 0x417 JUMP JUMPDEST CALLVALUE DUP1 ISZERO PUSH2 0x202 JUMPI PUSH1 0x0 DUP1 REVERT JUMPDEST POP PUSH2 0x16C PUSH2 0x211 CALLDATASIZE PUSH1 0x4 PUSH2 0x135F JUMP JUMPDEST PUSH2 0xAA6 JUMP JUMPDEST CALLVALUE DUP1 ISZERO PUSH2 0x222 JUMPI PUSH1 0x0 DUP1 REVERT JUMPDEST POP PUSH2 0x25B PUSH2 0x231 CALLDATASIZE PUSH1 0x4 PUSH2 0x12FE JUMP JUMPDEST PUSH1 0x3 PUSH1 0x20 MSTORE PUSH1 0x0 SWAP1 DUP2 MSTORE PUSH1 0x40 SWAP1 KECCAK256 DUP1 SLOAD PUSH1 0x1 DUP3 ADD SLOAD PUSH1 0x2 SWAP1 SWAP3 ADD SLOAD SWAP1 SWAP2 PUSH1 0x1 PUSH1 0x1 PUSH1 0xA0 SHL SUB AND SWAP1 DUP4 JUMP JUMPDEST PUSH1 0x40 DUP1 MLOAD SWAP4 DUP5 MSTORE PUSH1 0x1 PUSH1 0x1 PUSH1 0xA0 SHL SUB SWAP1 SWAP3 AND PUSH1 0x20 DUP5 ADD MSTORE SWAP1 DUP3 ADD MSTORE PUSH1 0x60 ADD PUSH2 0x108 JUMP JUMPDEST CALLVALUE DUP1 ISZERO PUSH2 0x28A JUMPI PUSH1 0x0 DUP1 REVERT JUMPDEST POP PUSH2 0x13E PUSH2 0x299 CALLDATASIZE PUSH1 0x4 PUSH2 0x1394 JUMP JUMPDEST PUSH1 0x4 PUSH1 0x20 MSTORE PUSH1 0x0 SWAP1 DUP2 MSTORE PUSH1 0x40 SWAP1 KECCAK256 SLOAD DUP2 JUMP JUMPDEST CALLVALUE DUP1 ISZERO PUSH2 0x2B7 JUMPI PUSH1 0x0 DUP1 REVERT JUMPDEST POP PUSH2 0xFC PUSH2 0x2C6 CALLDATASIZE PUSH1 0x4 PUSH2 0x1394 JUMP JUMPDEST PUSH2 0xB29 JUMP JUMPDEST CALLVALUE DUP1 ISZERO PUSH2 0x2D7 JUMPI PUSH1 0x0 DUP1 REVERT JUMPDEST POP PUSH2 0x13E PUSH2 0x2E6 CALLDATASIZE PUSH1 0x4 PUSH2 0x12FE JUMP JUMPDEST PUSH1 0x0 SWAP1 DUP2 MSTORE PUSH1 0x7 PUSH1 0x20 MSTORE PUSH1 0x40 SWAP1 KECCAK256 SLOAD SWAP1 JUMP JUMPDEST CALLVALUE DUP1 ISZERO PUSH2 0x304 JUMPI PUSH1 0x0 DUP1 REVERT JUMPDEST POP PUSH2 0x16C PUSH2 0x313 CALLDATASIZE PUSH1 0x4 PUSH2 0x13AF JUMP JUMPDEST PUSH2 0xB61 JUMP JUMPDEST CALLVALUE DUP1 ISZERO PUSH2 0x324 JUMPI PUSH1 0x0 DUP1 REVERT JUMPDEST POP PUSH2 0xFC PUSH2 0x333 CALLDATASIZE PUSH1 0x4 PUSH2 0x13FF JUMP JUMPDEST PUSH2 0xBE8 JUMP JUMPDEST PUSH1 0x0 DUP2 DUP2 MSTORE PUSH1 0x3 PUSH1 0x20 MSTORE PUSH1 0x40 SWAP1 KECCAK256 PUSH1 0x1 ADD SLOAD DUP2 SWAP1 PUSH1 0x1 PUSH1 0x1 PUSH1 0xA0 SHL SUB AND CALLER EQ PUSH2 0x37C JUMPI PUSH1 0x40 MLOAD PUSH3 0x461BCD PUSH1 0xE5 SHL DUP2 MSTORE PUSH1 0x4 ADD PUSH2 0x373 SWAP1 PUSH2 0x1421 JUMP JUMPDEST PUSH1 0x40 MLOAD DUP1 SWAP2 SUB SWAP1 REVERT JUMPDEST DUP2 PUSH2 0x396 DUP2 PUSH1 0x0 DUP1 SLOAD SWAP2 DUP2 MSTORE PUSH1 0x7 PUSH1 0x20 MSTORE PUSH1 0x40 SWAP1 KECCAK256 SLOAD GT SWAP1 JUMP JUMPDEST PUSH2 0x3B2 JUMPI PUSH1 0x40 MLOAD PUSH3 0x461BCD PUSH1 0xE5 SHL DUP2 MSTORE PUSH1 0x4 ADD PUSH2 0x373 SWAP1 PUSH2 0x143D JUMP JUMPDEST PUSH1 0x1 PUSH1 0x0 DUP5 DUP2 MSTORE PUSH1 0x5 PUSH1 0x20 MSTORE PUSH1 0x40 SWAP1 KECCAK256 SLOAD PUSH1 0xFF AND PUSH1 0x2 DUP2 GT ISZERO PUSH2 0x3D7 JUMPI PUSH2 0x3D7 PUSH2 0x1459 JUMP JUMPDEST EQ PUSH2 0x409 JUMPI PUSH1 0x40 MLOAD PUSH3 0x461BCD PUSH1 0xE5 SHL DUP2 MSTORE PUSH1 0x20 PUSH1 0x4 DUP3 ADD MSTORE PUSH1 0x2 PUSH1 0x24 DUP3 ADD MSTORE PUSH2 0x4E53 PUSH1 0xF0 SHL PUSH1 0x44 DUP3 ADD MSTORE PUSH1 0x64 ADD PUSH2 0x373 JUMP JUMPDEST PUSH2 0x412 DUP4 PUSH2 0xC1D JUMP JUMPDEST POP POP POP JUMP JUMPDEST DUP3 PUSH2 0x431 DUP2 PUSH1 0x0 DUP1 SLOAD SWAP2 DUP2 MSTORE PUSH1 0x7 PUSH1 0x20 MSTORE PUSH1 0x40 SWAP1 KECCAK256 SLOAD GT SWAP1 JUMP JUMPDEST PUSH2 0x44D JUMPI PUSH1 0x40 MLOAD PUSH3 0x461BCD PUSH1 0xE5 SHL DUP2 MSTORE PUSH1 0x4 ADD PUSH2 0x373 SWAP1 PUSH2 0x143D JUMP JUMPDEST PUSH1 0x1 PUSH1 0x0 DUP6 DUP2 MSTORE PUSH1 0x5 PUSH1 0x20 MSTORE PUSH1 0x40 SWAP1 KECCAK256 SLOAD PUSH1 0xFF AND PUSH1 0x2 DUP2 GT ISZERO PUSH2 0x472 JUMPI PUSH2 0x472 PUSH2 0x1459 JUMP JUMPDEST EQ PUSH2 0x4A4 JUMPI PUSH1 0x40 MLOAD PUSH3 0x461BCD PUSH1 0xE5 SHL DUP2 MSTORE PUSH1 0x20 PUSH1 0x4 DUP3 ADD MSTORE PUSH1 0x2 PUSH1 0x24 DUP3 ADD MSTORE PUSH2 0x4E53 PUSH1 0xF0 SHL PUSH1 0x44 DUP3 ADD MSTORE PUSH1 0x64 ADD PUSH2 0x373 JUMP JUMPDEST PUSH1 0x0 DUP5 DUP2 MSTORE PUSH1 0x6 PUSH1 0x20 MSTORE PUSH1 0x40 SWAP1 KECCAK256 PUSH1 0x1 ADD SLOAD DUP3 EQ PUSH2 0x4E9 JUMPI PUSH1 0x40 MLOAD PUSH3 0x461BCD PUSH1 0xE5 SHL DUP2 MSTORE PUSH1 0x20 PUSH1 0x4 DUP3 ADD MSTORE PUSH1 0x2 PUSH1 0x24 DUP3 ADD MSTORE PUSH2 0x575 PUSH1 0xF4 SHL PUSH1 0x44 DUP3 ADD MSTORE PUSH1 0x64 ADD PUSH2 0x373 JUMP JUMPDEST DUP3 PUSH1 0x0 SUB PUSH2 0x51E JUMPI PUSH1 0x40 MLOAD PUSH3 0x461BCD PUSH1 0xE5 SHL DUP2 MSTORE PUSH1 0x20 PUSH1 0x4 DUP3 ADD MSTORE PUSH1 0x2 PUSH1 0x24 DUP3 ADD MSTORE PUSH2 0x4553 PUSH1 0xF0 SHL PUSH1 0x44 DUP3 ADD MSTORE PUSH1 0x64 ADD PUSH2 0x373 JUMP JUMPDEST PUSH1 0x0 DUP5 DUP2 MSTORE PUSH1 0x6 PUSH1 0x20 MSTORE PUSH1 0x40 SWAP1 KECCAK256 SLOAD DUP4 GT ISZERO PUSH2 0x561 JUMPI PUSH1 0x40 MLOAD PUSH3 0x461BCD PUSH1 0xE5 SHL DUP2 MSTORE PUSH1 0x20 PUSH1 0x4 DUP3 ADD MSTORE PUSH1 0x2 PUSH1 0x24 DUP3 ADD MSTORE PUSH2 0x4553 PUSH1 0xF0 SHL PUSH1 0x44 DUP3 ADD MSTORE PUSH1 0x64 ADD PUSH2 0x373 JUMP JUMPDEST PUSH1 0x0 DUP5 DUP2 MSTORE PUSH1 0x6 PUSH1 0x20 MSTORE PUSH1 0x40 SWAP1 KECCAK256 PUSH1 0x3 ADD SLOAD PUSH1 0x1 PUSH1 0x1 PUSH1 0xA0 SHL SUB AND CALLER EQ DUP1 PUSH2 0x5A1 JUMPI POP PUSH1 0x0 DUP5 DUP2 MSTORE PUSH1 0x6 PUSH1 0x20 MSTORE PUSH1 0x40 SWAP1 KECCAK256 PUSH1 0x3 ADD SLOAD PUSH1 0x1 PUSH1 0x1 PUSH1 0xA0 SHL SUB AND ISZERO JUMPDEST PUSH2 0x5D2 JUMPI PUSH1 0x40 MLOAD PUSH3 0x461BCD PUSH1 0xE5 SHL DUP2 MSTORE PUSH1 0x20 PUSH1 0x4 DUP3 ADD MSTORE PUSH1 0x2 PUSH1 0x24 DUP3 ADD MSTORE PUSH2 0x29A9 PUSH1 0xF1 SHL PUSH1 0x44 DUP3 ADD MSTORE PUSH1 0x64 ADD PUSH2 0x373 JUMP JUMPDEST PUSH1 0x0 DUP5 DUP2 MSTORE PUSH1 0x5 PUSH1 0x20 SWAP1 DUP2 MSTORE PUSH1 0x40 DUP1 DUP4 KECCAK256 DUP1 SLOAD PUSH1 0xFF NOT AND PUSH1 0x2 OR SWAP1 SSTORE PUSH1 0x6 SWAP1 SWAP2 MSTORE DUP2 KECCAK256 PUSH1 0x1 ADD SLOAD PUSH2 0x603 SWAP1 DUP6 PUSH2 0x1485 JUMP JUMPDEST SWAP1 POP PUSH1 0x0 DUP1 PUSH1 0x0 PUSH2 0x618 DUP5 PUSH1 0x19 PUSH2 0x3E8 PUSH2 0xCC7 JUMP JUMPDEST SWAP2 SWAP5 POP SWAP3 POP SWAP1 POP PUSH2 0x629 DUP2 DUP4 PUSH2 0x149C JUMP JUMPDEST PUSH1 0x0 DUP10 DUP2 MSTORE PUSH1 0x6 PUSH1 0x20 MSTORE PUSH1 0x40 SWAP1 KECCAK256 PUSH1 0x2 ADD SLOAD SWAP1 SWAP3 POP PUSH1 0x1 PUSH1 0x1 PUSH1 0xA0 SHL SUB AND PUSH2 0x788 JUMPI DUP4 CALLVALUE LT ISZERO PUSH2 0x680 JUMPI PUSH1 0x40 MLOAD PUSH3 0x461BCD PUSH1 0xE5 SHL DUP2 MSTORE PUSH1 0x20 PUSH1 0x4 DUP3 ADD MSTORE PUSH1 0x2 PUSH1 0x24 DUP3 ADD MSTORE PUSH2 0x4945 PUSH1 0xF0 SHL PUSH1 0x44 DUP3 ADD MSTORE PUSH1 0x64 ADD PUSH2 0x373 JUMP JUMPDEST PUSH1 0x40 MLOAD PUSH1 0x0 SWAP1 PUSH20 0x49A71890AEA5A751E30E740C504F2E9683F347BC SWAP1 DUP6 SWAP1 DUP4 DUP2 DUP2 DUP2 DUP6 DUP8 GAS CALL SWAP3 POP POP POP RETURNDATASIZE DUP1 PUSH1 0x0 DUP2 EQ PUSH2 0x6D6 JUMPI PUSH1 0x40 MLOAD SWAP2 POP PUSH1 0x1F NOT PUSH1 0x3F RETURNDATASIZE ADD AND DUP3 ADD PUSH1 0x40 MSTORE RETURNDATASIZE DUP3 MSTORE RETURNDATASIZE PUSH1 0x0 PUSH1 0x20 DUP5 ADD RETURNDATACOPY PUSH2 0x6DB JUMP JUMPDEST PUSH1 0x60 SWAP2 POP JUMPDEST POP POP PUSH1 0x0 DUP11 DUP2 MSTORE PUSH1 0x3 PUSH1 0x20 MSTORE PUSH1 0x40 DUP1 DUP3 KECCAK256 PUSH1 0x1 ADD SLOAD SWAP1 MLOAD SWAP3 SWAP4 POP SWAP1 SWAP2 PUSH1 0x1 PUSH1 0x1 PUSH1 0xA0 SHL SUB SWAP1 SWAP2 AND SWAP1 DUP6 SWAP1 DUP4 DUP2 DUP2 DUP2 DUP6 DUP8 GAS CALL SWAP3 POP POP POP RETURNDATASIZE DUP1 PUSH1 0x0 DUP2 EQ PUSH2 0x73D JUMPI PUSH1 0x40 MLOAD SWAP2 POP PUSH1 0x1F NOT PUSH1 0x3F RETURNDATASIZE ADD AND DUP3 ADD PUSH1 0x40 MSTORE RETURNDATASIZE DUP3 MSTORE RETURNDATASIZE PUSH1 0x0 PUSH1 0x20 DUP5 ADD RETURNDATACOPY PUSH2 0x742 JUMP JUMPDEST PUSH1 0x60 SWAP2 POP JUMPDEST POP POP SWAP1 POP DUP1 DUP1 ISZERO PUSH2 0x750 JUMPI POP DUP2 JUMPDEST PUSH2 0x781 JUMPI PUSH1 0x40 MLOAD PUSH3 0x461BCD PUSH1 0xE5 SHL DUP2 MSTORE PUSH1 0x20 PUSH1 0x4 DUP3 ADD MSTORE PUSH1 0x2 PUSH1 0x24 DUP3 ADD MSTORE PUSH2 0x2A23 PUSH1 0xF1 SHL PUSH1 0x44 DUP3 ADD MSTORE PUSH1 0x64 ADD PUSH2 0x373 JUMP JUMPDEST POP POP PUSH2 0x937 JUMP JUMPDEST PUSH1 0x0 DUP9 DUP2 MSTORE PUSH1 0x6 PUSH1 0x20 MSTORE PUSH1 0x40 SWAP1 DUP2 SWAP1 KECCAK256 PUSH1 0x2 ADD SLOAD SWAP1 MLOAD PUSH4 0x6EB1769F PUSH1 0xE1 SHL DUP2 MSTORE CALLER PUSH1 0x4 DUP3 ADD MSTORE ADDRESS PUSH1 0x24 DUP3 ADD MSTORE PUSH1 0x1 PUSH1 0x1 PUSH1 0xA0 SHL SUB SWAP1 SWAP2 AND SWAP1 DUP6 SWAP1 DUP3 SWAP1 PUSH4 0xDD62ED3E SWAP1 PUSH1 0x44 ADD PUSH1 0x20 PUSH1 0x40 MLOAD DUP1 DUP4 SUB DUP2 DUP7 GAS STATICCALL ISZERO DUP1 ISZERO PUSH2 0x7EA JUMPI RETURNDATASIZE PUSH1 0x0 DUP1 RETURNDATACOPY RETURNDATASIZE PUSH1 0x0 REVERT JUMPDEST POP POP POP POP PUSH1 0x40 MLOAD RETURNDATASIZE PUSH1 0x1F NOT PUSH1 0x1F DUP3 ADD AND DUP3 ADD DUP1 PUSH1 0x40 MSTORE POP DUP2 ADD SWAP1 PUSH2 0x80E SWAP2 SWAP1 PUSH2 0x14AF JUMP JUMPDEST LT ISZERO PUSH2 0x841 JUMPI PUSH1 0x40 MLOAD PUSH3 0x461BCD PUSH1 0xE5 SHL DUP2 MSTORE PUSH1 0x20 PUSH1 0x4 DUP3 ADD MSTORE PUSH1 0x2 PUSH1 0x24 DUP3 ADD MSTORE PUSH2 0x1255 PUSH1 0xF2 SHL PUSH1 0x44 DUP3 ADD MSTORE PUSH1 0x64 ADD PUSH2 0x373 JUMP JUMPDEST PUSH1 0x40 MLOAD PUSH4 0x23B872DD PUSH1 0xE0 SHL DUP2 MSTORE CALLER PUSH1 0x4 DUP3 ADD MSTORE PUSH20 0x49A71890AEA5A751E30E740C504F2E9683F347BC PUSH1 0x24 DUP3 ADD MSTORE PUSH1 0x44 DUP2 ADD DUP6 SWAP1 MSTORE PUSH1 0x1 PUSH1 0x1 PUSH1 0xA0 SHL SUB DUP3 AND SWAP1 PUSH4 0x23B872DD SWAP1 PUSH1 0x64 ADD PUSH1 0x20 PUSH1 0x40 MLOAD DUP1 DUP4 SUB DUP2 PUSH1 0x0 DUP8 GAS CALL ISZERO DUP1 ISZERO PUSH2 0x8A8 JUMPI RETURNDATASIZE PUSH1 0x0 DUP1 RETURNDATACOPY RETURNDATASIZE PUSH1 0x0 REVERT JUMPDEST POP POP POP POP PUSH1 0x40 MLOAD RETURNDATASIZE PUSH1 0x1F NOT PUSH1 0x1F DUP3 ADD AND DUP3 ADD DUP1 PUSH1 0x40 MSTORE POP DUP2 ADD SWAP1 PUSH2 0x8CC SWAP2 SWAP1 PUSH2 0x14C8 JUMP JUMPDEST PUSH2 0x8FD JUMPI PUSH1 0x40 MLOAD PUSH3 0x461BCD PUSH1 0xE5 SHL DUP2 MSTORE PUSH1 0x20 PUSH1 0x4 DUP3 ADD MSTORE PUSH1 0x2 PUSH1 0x24 DUP3 ADD MSTORE PUSH2 0x1395 PUSH1 0xF2 SHL PUSH1 0x44 DUP3 ADD MSTORE PUSH1 0x64 ADD PUSH2 0x373 JUMP JUMPDEST PUSH1 0x0 DUP10 DUP2 MSTORE PUSH1 0x3 PUSH1 0x20 SWAP1 DUP2 MSTORE PUSH1 0x40 DUP1 DUP4 KECCAK256 PUSH1 0x1 ADD SLOAD PUSH1 0x6 SWAP1 SWAP3 MSTORE SWAP1 SWAP2 KECCAK256 PUSH1 0x2 ADD SLOAD PUSH2 0x935 SWAP2 PUSH1 0x1 PUSH1 0x1 PUSH1 0xA0 SHL SUB SWAP1 DUP2 AND SWAP2 AND DUP6 PUSH2 0xD3B JUMP JUMPDEST POP JUMPDEST PUSH2 0x942 DUP9 DUP9 CALLER PUSH2 0xDB7 JUMP JUMPDEST PUSH1 0x0 DUP9 DUP2 MSTORE PUSH1 0x3 PUSH1 0x20 MSTORE PUSH1 0x40 SWAP1 KECCAK256 PUSH1 0x1 ADD SLOAD ADDRESS PUSH1 0x1 PUSH1 0x1 PUSH1 0xA0 SHL SUB SWAP1 SWAP2 AND SUB PUSH2 0x98A JUMPI PUSH1 0x0 DUP1 SLOAD DUP2 MSTORE PUSH1 0x2 PUSH1 0x20 MSTORE PUSH1 0x40 DUP2 KECCAK256 DUP1 SLOAD DUP10 SWAP3 SWAP1 PUSH2 0x984 SWAP1 DUP5 SWAP1 PUSH2 0x149C JUMP JUMPDEST SWAP1 SWAP2 SSTORE POP POP JUMPDEST PUSH1 0x40 DUP1 MLOAD PUSH1 0x80 DUP2 ADD DUP3 MSTORE DUP9 DUP2 MSTORE PUSH1 0x0 DUP11 DUP2 MSTORE PUSH1 0x6 PUSH1 0x20 DUP2 DUP2 MSTORE DUP5 DUP4 KECCAK256 PUSH1 0x1 DUP2 ADD SLOAD DUP3 DUP7 ADD MSTORE PUSH1 0x2 DUP2 DUP2 ADD SLOAD PUSH1 0x1 PUSH1 0x1 PUSH1 0xA0 SHL SUB SWAP1 DUP2 AND DUP8 DUP10 ADD MSTORE SWAP5 DUP16 SWAP1 MSTORE SWAP3 SWAP1 SWAP2 MSTORE PUSH1 0x3 ADD SLOAD SWAP1 SWAP2 AND PUSH1 0x60 DUP4 ADD MSTORE SWAP2 MLOAD PUSH32 0xD8CD09EA93B4076AB867588C0D1A52B62C5B605B7A5F1C0189781245631A8353 SWAP3 PUSH2 0xA0A SWAP3 SWAP1 SWAP2 DUP13 SWAP2 SWAP1 PUSH2 0x150C JUMP JUMPDEST PUSH1 0x40 MLOAD DUP1 SWAP2 SUB SWAP1 LOG1 PUSH1 0x0 DUP9 DUP2 MSTORE PUSH1 0x6 PUSH1 0x20 MSTORE PUSH1 0x40 SWAP1 KECCAK256 SLOAD DUP8 EQ PUSH2 0xA9C JUMPI PUSH1 0x0 DUP9 DUP2 MSTORE PUSH1 0x3 PUSH1 0x20 SWAP1 DUP2 MSTORE PUSH1 0x40 DUP1 DUP4 KECCAK256 PUSH1 0x1 ADD SLOAD PUSH1 0x1 PUSH1 0x1 PUSH1 0xA0 SHL SUB AND DUP4 MSTORE PUSH1 0x4 DUP3 MSTORE DUP1 DUP4 KECCAK256 SLOAD DUP12 DUP5 MSTORE PUSH1 0x6 SWAP1 SWAP3 MSTORE SWAP1 SWAP2 KECCAK256 SLOAD PUSH2 0xA9C SWAP2 SWAP1 PUSH2 0xA6B SWAP1 DUP11 SWAP1 PUSH2 0x155B JUMP JUMPDEST PUSH1 0x0 DUP12 DUP2 MSTORE PUSH1 0x6 PUSH1 0x20 MSTORE PUSH1 0x40 SWAP1 KECCAK256 PUSH1 0x2 DUP2 ADD SLOAD PUSH1 0x1 DUP3 ADD SLOAD PUSH1 0x3 SWAP1 SWAP3 ADD SLOAD PUSH1 0x1 PUSH1 0x1 PUSH1 0xA0 SHL SUB SWAP2 DUP3 AND SWAP3 SWAP2 AND PUSH2 0xF9A JUMP JUMPDEST POP POP POP POP POP POP POP POP JUMP JUMPDEST PUSH1 0x0 DUP4 DUP2 MSTORE PUSH1 0x3 PUSH1 0x20 MSTORE PUSH1 0x40 SWAP1 KECCAK256 PUSH1 0x1 ADD SLOAD DUP4 SWAP1 PUSH1 0x1 PUSH1 0x1 PUSH1 0xA0 SHL SUB AND CALLER EQ PUSH2 0xAE1 JUMPI PUSH1 0x40 MLOAD PUSH3 0x461BCD PUSH1 0xE5 SHL DUP2 MSTORE PUSH1 0x4 ADD PUSH2 0x373 SWAP1 PUSH2 0x1421 JUMP JUMPDEST DUP4 PUSH2 0xAFB DUP2 PUSH1 0x0 DUP1 SLOAD SWAP2 DUP2 MSTORE PUSH1 0x7 PUSH1 0x20 MSTORE PUSH1 0x40 SWAP1 KECCAK256 SLOAD GT SWAP1 JUMP JUMPDEST PUSH2 0xB17 JUMPI PUSH1 0x40 MLOAD PUSH3 0x461BCD PUSH1 0xE5 SHL DUP2 MSTORE PUSH1 0x4 ADD PUSH2 0x373 SWAP1 PUSH2 0x143D JUMP JUMPDEST PUSH2 0xB22 DUP6 DUP6 DUP6 PUSH2 0xDB7 JUMP JUMPDEST POP POP POP POP POP JUMP JUMPDEST PUSH1 0x1 PUSH1 0x1 PUSH1 0xA0 SHL SUB DUP2 AND PUSH1 0x0 SWAP1 DUP2 MSTORE PUSH1 0x4 PUSH1 0x20 MSTORE PUSH1 0x40 DUP2 KECCAK256 SLOAD PUSH2 0xB5B SWAP1 PUSH1 0x0 DUP1 SLOAD SWAP2 DUP2 MSTORE PUSH1 0x7 PUSH1 0x20 MSTORE PUSH1 0x40 SWAP1 KECCAK256 SLOAD GT SWAP1 JUMP JUMPDEST SWAP3 SWAP2 POP POP JUMP JUMPDEST PUSH1 0x0 DUP6 DUP2 MSTORE PUSH1 0x3 PUSH1 0x20 MSTORE PUSH1 0x40 SWAP1 KECCAK256 PUSH1 0x1 ADD SLOAD DUP6 SWAP1 PUSH1 0x1 PUSH1 0x1 PUSH1 0xA0 SHL SUB AND CALLER EQ PUSH2 0xB9C JUMPI PUSH1 0x40 MLOAD PUSH3 0x461BCD PUSH1 0xE5 SHL DUP2 MSTORE PUSH1 0x4 ADD PUSH2 0x373 SWAP1 PUSH2 0x1421 JUMP JUMPDEST DUP6 PUSH2 0xBB6 DUP2 PUSH1 0x0 DUP1 SLOAD SWAP2 DUP2 MSTORE PUSH1 0x7 PUSH1 0x20 MSTORE PUSH1 0x40 SWAP1 KECCAK256 SLOAD GT SWAP1 JUMP JUMPDEST PUSH2 0xBD2 JUMPI PUSH1 0x40 MLOAD PUSH3 0x461BCD PUSH1 0xE5 SHL DUP2 MSTORE PUSH1 0x4 ADD PUSH2 0x373 SWAP1 PUSH2 0x143D JUMP JUMPDEST PUSH2 0xBDF DUP8 DUP8 DUP8 DUP8 DUP8 PUSH2 0xF9A JUMP JUMPDEST POP POP POP POP POP POP POP JUMP JUMPDEST PUSH1 0x0 DUP3 DUP2 MSTORE PUSH1 0x3 PUSH1 0x20 MSTORE PUSH1 0x40 DUP2 KECCAK256 PUSH1 0x2 ADD SLOAD DUP3 LT DUP1 ISZERO SWAP1 PUSH2 0xC16 JUMPI POP PUSH1 0x0 DUP4 DUP2 MSTORE PUSH1 0x7 PUSH1 0x20 MSTORE PUSH1 0x40 SWAP1 KECCAK256 SLOAD DUP3 LT JUMPDEST SWAP4 SWAP3 POP POP POP JUMP JUMPDEST DUP1 PUSH2 0xC37 DUP2 PUSH1 0x0 DUP1 SLOAD SWAP2 DUP2 MSTORE PUSH1 0x7 PUSH1 0x20 MSTORE PUSH1 0x40 SWAP1 KECCAK256 SLOAD GT SWAP1 JUMP JUMPDEST PUSH2 0xC53 JUMPI PUSH1 0x40 MLOAD PUSH3 0x461BCD PUSH1 0xE5 SHL DUP2 MSTORE PUSH1 0x4 ADD PUSH2 0x373 SWAP1 PUSH2 0x143D JUMP JUMPDEST PUSH1 0x0 DUP3 DUP2 MSTORE PUSH1 0x5 PUSH1 0x20 SWAP1 DUP2 MSTORE PUSH1 0x40 DUP1 DUP4 KECCAK256 DUP1 SLOAD PUSH1 0xFF NOT AND SWAP1 SSTORE DUP1 MLOAD PUSH1 0x80 DUP2 ADD DUP3 MSTORE DUP4 DUP2 MSTORE SWAP2 DUP3 ADD DUP4 SWAP1 MSTORE DUP2 DUP2 ADD DUP4 SWAP1 MSTORE PUSH1 0x60 DUP3 ADD DUP4 SWAP1 MSTORE MLOAD PUSH32 0xD8CD09EA93B4076AB867588C0D1A52B62C5B605B7A5F1C0189781245631A8353 SWAP3 PUSH2 0xCBB SWAP3 SWAP1 SWAP2 DUP7 SWAP2 SWAP1 PUSH2 0x150C JUMP JUMPDEST PUSH1 0x40 MLOAD DUP1 SWAP2 SUB SWAP1 LOG1 POP POP JUMP JUMPDEST PUSH1 0x0 DUP1 PUSH1 0x0 DUP5 DUP5 GT PUSH2 0xCD8 JUMPI PUSH1 0x0 DUP1 REVERT JUMPDEST PUSH1 0x0 DUP5 PUSH2 0xCE5 DUP8 DUP10 PUSH2 0x1485 JUMP JUMPDEST PUSH2 0xCEF SWAP2 SWAP1 PUSH2 0x156E JUMP JUMPDEST SWAP1 POP PUSH1 0x0 DUP6 PUSH2 0xCFE DUP9 DUP3 PUSH2 0x155B JUMP JUMPDEST PUSH2 0xD08 SWAP1 DUP11 PUSH2 0x1485 JUMP JUMPDEST PUSH2 0xD12 SWAP2 SWAP1 PUSH2 0x156E JUMP JUMPDEST SWAP1 POP DUP2 DUP2 PUSH2 0xD20 DUP2 DUP4 PUSH2 0x149C JUMP JUMPDEST PUSH2 0xD2A SWAP1 DUP12 PUSH2 0x155B JUMP JUMPDEST SWAP5 POP SWAP5 POP SWAP5 POP POP POP SWAP4 POP SWAP4 POP SWAP4 SWAP1 POP JUMP JUMPDEST PUSH1 0x40 MLOAD PUSH4 0x23B872DD PUSH1 0xE0 SHL DUP2 MSTORE CALLER PUSH1 0x4 DUP3 ADD MSTORE PUSH1 0x1 PUSH1 0x1 PUSH1 0xA0 SHL SUB DUP5 DUP2 AND PUSH1 0x24 DUP4 ADD MSTORE PUSH1 0x44 DUP3 ADD DUP4 SWAP1 MSTORE DUP4 SWAP2 SWAP1 DUP3 AND SWAP1 PUSH4 0x23B872DD SWAP1 PUSH1 0x64 ADD PUSH1 0x20 PUSH1 0x40 MLOAD DUP1 DUP4 SUB DUP2 PUSH1 0x0 DUP8 GAS CALL ISZERO DUP1 ISZERO PUSH2 0xD93 JUMPI RETURNDATASIZE PUSH1 0x0 DUP1 RETURNDATACOPY RETURNDATASIZE PUSH1 0x0 REVERT JUMPDEST POP POP POP POP PUSH1 0x40 MLOAD RETURNDATASIZE PUSH1 0x1F NOT PUSH1 0x1F DUP3 ADD AND DUP3 ADD DUP1 PUSH1 0x40 MSTORE POP DUP2 ADD SWAP1 PUSH2 0xB22 SWAP2 SWAP1 PUSH2 0x14C8 JUMP JUMPDEST DUP3 PUSH2 0xDD1 DUP2 PUSH1 0x0 DUP1 SLOAD SWAP2 DUP2 MSTORE PUSH1 0x7 PUSH1 0x20 MSTORE PUSH1 0x40 SWAP1 KECCAK256 SLOAD GT SWAP1 JUMP JUMPDEST PUSH2 0xDED JUMPI PUSH1 0x40 MLOAD PUSH3 0x461BCD PUSH1 0xE5 SHL DUP2 MSTORE PUSH1 0x4 ADD PUSH2 0x373 SWAP1 PUSH2 0x143D JUMP JUMPDEST PUSH1 0x1 DUP1 SLOAD PUSH1 0xFF AND ISZERO ISZERO EQ PUSH2 0xE28 JUMPI PUSH1 0x40 MLOAD PUSH3 0x461BCD PUSH1 0xE5 SHL DUP2 MSTORE PUSH1 0x20 PUSH1 0x4 DUP3 ADD MSTORE PUSH1 0x2 PUSH1 0x24 DUP3 ADD MSTORE PUSH2 0x1153 PUSH1 0xF2 SHL PUSH1 0x44 DUP3 ADD MSTORE PUSH1 0x64 ADD PUSH2 0x373 JUMP JUMPDEST PUSH1 0x0 DUP5 DUP2 MSTORE PUSH1 0x3 PUSH1 0x20 MSTORE PUSH1 0x40 SWAP1 KECCAK256 SLOAD DUP4 GT ISZERO PUSH2 0xE6B JUMPI PUSH1 0x40 MLOAD PUSH3 0x461BCD PUSH1 0xE5 SHL DUP2 MSTORE PUSH1 0x20 PUSH1 0x4 DUP3 ADD MSTORE PUSH1 0x2 PUSH1 0x24 DUP3 ADD MSTORE PUSH2 0x4941 PUSH1 0xF0 SHL PUSH1 0x44 DUP3 ADD MSTORE PUSH1 0x64 ADD PUSH2 0x373 JUMP JUMPDEST PUSH2 0xE74 DUP3 PUSH2 0xB29 JUMP JUMPDEST ISZERO PUSH2 0xEE3 JUMPI PUSH1 0x1 PUSH1 0x1 PUSH1 0xA0 SHL SUB DUP3 AND PUSH1 0x0 SWAP1 DUP2 MSTORE PUSH1 0x4 PUSH1 0x20 SWAP1 DUP2 MSTORE PUSH1 0x40 DUP1 DUP4 KECCAK256 SLOAD DUP4 MSTORE PUSH1 0x3 SWAP1 SWAP2 MSTORE DUP2 KECCAK256 SLOAD PUSH2 0xEA9 SWAP1 DUP6 PUSH2 0x149C JUMP JUMPDEST PUSH1 0x1 PUSH1 0x1 PUSH1 0xA0 SHL SUB DUP5 AND PUSH1 0x0 SWAP1 DUP2 MSTORE PUSH1 0x4 PUSH1 0x20 MSTORE PUSH1 0x40 DUP2 KECCAK256 SLOAD SWAP1 SLOAD SWAP2 SWAP3 POP PUSH2 0xED0 SWAP2 PUSH2 0x114C JUMP JUMPDEST PUSH2 0xEDD DUP2 DUP5 PUSH1 0x0 SLOAD PUSH2 0x1193 JUMP JUMPDEST POP PUSH2 0xEF0 JUMP JUMPDEST PUSH2 0xEF0 DUP4 DUP4 PUSH1 0x0 SLOAD PUSH2 0x1193 JUMP JUMPDEST PUSH2 0xEFC DUP5 PUSH1 0x0 SLOAD PUSH2 0x114C JUMP JUMPDEST PUSH1 0x0 DUP5 DUP2 MSTORE PUSH1 0x3 PUSH1 0x20 MSTORE PUSH1 0x40 DUP2 KECCAK256 SLOAD PUSH2 0xF16 SWAP1 DUP6 SWAP1 PUSH2 0x155B JUMP JUMPDEST SWAP1 POP DUP1 ISZERO PUSH2 0xF49 JUMPI PUSH1 0x0 DUP6 DUP2 MSTORE PUSH1 0x3 PUSH1 0x20 MSTORE PUSH1 0x40 DUP2 KECCAK256 PUSH1 0x1 ADD SLOAD SWAP1 SLOAD PUSH2 0xF49 SWAP2 DUP4 SWAP2 PUSH1 0x1 PUSH1 0x1 PUSH1 0xA0 SHL SUB SWAP1 SWAP2 AND SWAP1 PUSH2 0x1193 JUMP JUMPDEST POP PUSH1 0x0 DUP1 SLOAD DUP1 DUP3 MSTORE PUSH1 0x2 PUSH1 0x20 DUP2 SWAP1 MSTORE PUSH1 0x40 DUP4 KECCAK256 SLOAD SWAP3 SWAP1 SWAP2 PUSH2 0xF6B SWAP1 PUSH1 0x1 PUSH2 0x149C JUMP JUMPDEST DUP2 MSTORE PUSH1 0x20 ADD SWAP1 DUP2 MSTORE PUSH1 0x20 ADD PUSH1 0x0 KECCAK256 DUP2 SWAP1 SSTORE POP PUSH1 0x0 DUP1 DUP2 SLOAD DUP1 SWAP3 SWAP2 SWAP1 PUSH2 0xF8F SWAP1 PUSH2 0x1590 JUMP JUMPDEST SWAP2 SWAP1 POP SSTORE POP POP POP POP POP JUMP JUMPDEST DUP5 PUSH2 0xFB4 DUP2 PUSH1 0x0 DUP1 SLOAD SWAP2 DUP2 MSTORE PUSH1 0x7 PUSH1 0x20 MSTORE PUSH1 0x40 SWAP1 KECCAK256 SLOAD GT SWAP1 JUMP JUMPDEST PUSH2 0xFD0 JUMPI PUSH1 0x40 MLOAD PUSH3 0x461BCD PUSH1 0xE5 SHL DUP2 MSTORE PUSH1 0x4 ADD PUSH2 0x373 SWAP1 PUSH2 0x143D JUMP JUMPDEST PUSH1 0x1 DUP1 SLOAD PUSH1 0xFF AND ISZERO ISZERO EQ PUSH2 0x100B JUMPI PUSH1 0x40 MLOAD PUSH3 0x461BCD PUSH1 0xE5 SHL DUP2 MSTORE PUSH1 0x20 PUSH1 0x4 DUP3 ADD MSTORE PUSH1 0x2 PUSH1 0x24 DUP3 ADD MSTORE PUSH2 0x1153 PUSH1 0xF2 SHL PUSH1 0x44 DUP3 ADD MSTORE PUSH1 0x64 ADD PUSH2 0x373 JUMP JUMPDEST PUSH1 0x0 DUP7 DUP2 MSTORE PUSH1 0x5 PUSH1 0x20 MSTORE PUSH1 0x40 DUP2 KECCAK256 SLOAD PUSH1 0xFF AND PUSH1 0x2 DUP2 GT ISZERO PUSH2 0x102E JUMPI PUSH2 0x102E PUSH2 0x1459 JUMP JUMPDEST EQ PUSH2 0x1038 JUMPI PUSH1 0x0 DUP1 REVERT JUMPDEST PUSH1 0x0 DUP7 DUP2 MSTORE PUSH1 0x3 PUSH1 0x20 MSTORE PUSH1 0x40 SWAP1 KECCAK256 SLOAD DUP6 GT ISZERO PUSH2 0x107B JUMPI PUSH1 0x40 MLOAD PUSH3 0x461BCD PUSH1 0xE5 SHL DUP2 MSTORE PUSH1 0x20 PUSH1 0x4 DUP3 ADD MSTORE PUSH1 0x2 PUSH1 0x24 DUP3 ADD MSTORE PUSH2 0x4941 PUSH1 0xF0 SHL PUSH1 0x44 DUP3 ADD MSTORE PUSH1 0x64 ADD PUSH2 0x373 JUMP JUMPDEST PUSH1 0x40 DUP1 MLOAD PUSH1 0x80 DUP2 ADD DUP3 MSTORE DUP7 DUP2 MSTORE PUSH1 0x20 DUP1 DUP3 ADD DUP7 DUP2 MSTORE PUSH1 0x1 PUSH1 0x1 PUSH1 0xA0 SHL SUB DUP9 DUP2 AND DUP5 DUP7 ADD SWAP1 DUP2 MSTORE DUP8 DUP3 AND PUSH1 0x60 DUP7 ADD SWAP1 DUP2 MSTORE PUSH1 0x0 DUP14 DUP2 MSTORE PUSH1 0x6 DUP1 DUP8 MSTORE DUP9 DUP3 KECCAK256 SWAP8 MLOAD DUP9 SSTORE SWAP5 MLOAD PUSH1 0x1 DUP1 DUP10 ADD SWAP2 SWAP1 SWAP2 SSTORE SWAP3 MLOAD PUSH1 0x2 DUP9 ADD DUP1 SLOAD SWAP2 DUP7 AND PUSH1 0x1 PUSH1 0x1 PUSH1 0xA0 SHL SUB NOT SWAP3 DUP4 AND OR SWAP1 SSTORE SWAP2 MLOAD PUSH1 0x3 DUP9 ADD DUP1 SLOAD SWAP2 SWAP1 SWAP6 AND SWAP3 AND SWAP2 SWAP1 SWAP2 OR SWAP1 SWAP3 SSTORE PUSH1 0x5 DUP5 MSTORE SWAP1 DUP6 SWAP1 KECCAK256 DUP1 SLOAD PUSH1 0xFF NOT AND DUP3 OR SWAP1 SSTORE SWAP2 MSTORE SWAP2 MLOAD PUSH32 0xD8CD09EA93B4076AB867588C0D1A52B62C5B605B7A5F1C0189781245631A8353 SWAP3 PUSH2 0x113C SWAP3 SWAP1 SWAP2 DUP11 SWAP2 SWAP1 PUSH2 0x15A9 JUMP JUMPDEST PUSH1 0x40 MLOAD DUP1 SWAP2 SUB SWAP1 LOG1 POP POP POP POP POP POP JUMP JUMPDEST PUSH1 0x0 DUP3 DUP2 MSTORE PUSH1 0x7 PUSH1 0x20 SWAP1 DUP2 MSTORE PUSH1 0x40 DUP1 DUP4 KECCAK256 DUP5 SWAP1 SSTORE DUP1 MLOAD SWAP3 DUP4 MSTORE SWAP1 DUP3 ADD DUP5 SWAP1 MSTORE PUSH32 0x12769FD465856C3651942A04374F21755B56A66422AAED87C7E56E936F6DD3D0 SWAP2 ADD PUSH2 0xCBB JUMP JUMPDEST PUSH1 0x0 DUP4 GT PUSH2 0x11C8 JUMPI PUSH1 0x40 MLOAD PUSH3 0x461BCD PUSH1 0xE5 SHL DUP2 MSTORE PUSH1 0x20 PUSH1 0x4 DUP3 ADD MSTORE PUSH1 0x2 PUSH1 0x24 DUP3 ADD MSTORE PUSH2 0x29AD PUSH1 0xF1 SHL PUSH1 0x44 DUP3 ADD MSTORE PUSH1 0x64 ADD PUSH2 0x373 JUMP JUMPDEST PUSH1 0x0 DUP1 JUMPDEST PUSH1 0x40 MLOAD PUSH12 0xFFFFFFFFFFFFFFFFFFFFFFFF NOT PUSH1 0x60 DUP7 SWAP1 SHL AND PUSH1 0x20 DUP3 ADD MSTORE PUSH1 0x34 DUP2 ADD DUP5 SWAP1 MSTORE PUSH1 0x54 DUP2 ADD DUP4 SWAP1 MSTORE PUSH1 0x74 ADD PUSH1 0x40 DUP1 MLOAD PUSH1 0x1F NOT DUP2 DUP5 SUB ADD DUP2 MSTORE SWAP2 DUP2 MSTORE DUP2 MLOAD PUSH1 0x20 SWAP3 DUP4 ADD KECCAK256 PUSH1 0x0 DUP2 DUP2 MSTORE PUSH1 0x3 SWAP1 SWAP4 MSTORE SWAP2 KECCAK256 PUSH1 0x1 ADD SLOAD SWAP1 SWAP2 POP PUSH1 0x1 PUSH1 0x1 PUSH1 0xA0 SHL SUB AND ISZERO PUSH2 0x1244 JUMPI DUP2 PUSH2 0x123C DUP2 PUSH2 0x1590 JUMP JUMPDEST SWAP3 POP POP PUSH2 0x11CC JUMP JUMPDEST PUSH1 0x1 PUSH1 0x1 PUSH1 0xA0 SHL SUB DUP5 DUP2 AND PUSH1 0x0 DUP2 DUP2 MSTORE PUSH1 0x4 PUSH1 0x20 SWAP1 DUP2 MSTORE PUSH1 0x40 DUP1 DUP4 KECCAK256 DUP7 SWAP1 SSTORE DUP6 DUP4 MSTORE PUSH1 0x7 DUP3 MSTORE DUP1 DUP4 KECCAK256 PUSH1 0x0 NOT SWAP1 SSTORE DUP1 MLOAD PUSH1 0x60 DUP2 ADD DUP3 MSTORE DUP11 DUP2 MSTORE DUP1 DUP4 ADD SWAP5 DUP6 MSTORE DUP1 DUP3 ADD DUP10 DUP2 MSTORE DUP8 DUP6 MSTORE PUSH1 0x3 DUP5 MSTORE SWAP4 DUP3 SWAP1 KECCAK256 SWAP1 MLOAD DUP2 SSTORE SWAP4 MLOAD PUSH1 0x1 DUP1 DUP7 ADD DUP1 SLOAD PUSH1 0x1 PUSH1 0x1 PUSH1 0xA0 SHL SUB NOT AND SWAP3 SWAP1 SWAP8 AND SWAP2 SWAP1 SWAP2 OR SWAP1 SWAP6 SSTORE SWAP2 MLOAD PUSH1 0x2 SWAP1 SWAP4 ADD SWAP3 SWAP1 SWAP3 SSTORE DUP1 MLOAD SWAP3 DUP4 MSTORE SWAP1 DUP3 ADD DUP4 SWAP1 MSTORE PUSH32 0x12769FD465856C3651942A04374F21755B56A66422AAED87C7E56E936F6DD3D0 SWAP2 ADD PUSH1 0x40 MLOAD DUP1 SWAP2 SUB SWAP1 LOG1 POP POP POP POP POP JUMP JUMPDEST PUSH1 0x0 PUSH1 0x20 DUP3 DUP5 SUB SLT ISZERO PUSH2 0x1310 JUMPI PUSH1 0x0 DUP1 REVERT JUMPDEST POP CALLDATALOAD SWAP2 SWAP1 POP JUMP JUMPDEST PUSH1 0x0 DUP1 PUSH1 0x0 PUSH1 0x60 DUP5 DUP7 SUB SLT ISZERO PUSH2 0x132C JUMPI PUSH1 0x0 DUP1 REVERT JUMPDEST POP POP DUP2 CALLDATALOAD SWAP4 PUSH1 0x20 DUP4 ADD CALLDATALOAD SWAP4 POP PUSH1 0x40 SWAP1 SWAP3 ADD CALLDATALOAD SWAP2 SWAP1 POP JUMP JUMPDEST DUP1 CALLDATALOAD PUSH1 0x1 PUSH1 0x1 PUSH1 0xA0 SHL SUB DUP2 AND DUP2 EQ PUSH2 0x135A JUMPI PUSH1 0x0 DUP1 REVERT JUMPDEST SWAP2 SWAP1 POP JUMP JUMPDEST PUSH1 0x0 DUP1 PUSH1 0x0 PUSH1 0x60 DUP5 DUP7 SUB SLT ISZERO PUSH2 0x1374 JUMPI PUSH1 0x0 DUP1 REVERT JUMPDEST DUP4 CALLDATALOAD SWAP3 POP PUSH1 0x20 DUP5 ADD CALLDATALOAD SWAP2 POP PUSH2 0x138B PUSH1 0x40 DUP6 ADD PUSH2 0x1343 JUMP JUMPDEST SWAP1 POP SWAP3 POP SWAP3 POP SWAP3 JUMP JUMPDEST PUSH1 0x0 PUSH1 0x20 DUP3 DUP5 SUB SLT ISZERO PUSH2 0x13A6 JUMPI PUSH1 0x0 DUP1 REVERT JUMPDEST PUSH2 0xC16 DUP3 PUSH2 0x1343 JUMP JUMPDEST PUSH1 0x0 DUP1 PUSH1 0x0 DUP1 PUSH1 0x0 PUSH1 0xA0 DUP7 DUP9 SUB SLT ISZERO PUSH2 0x13C7 JUMPI PUSH1 0x0 DUP1 REVERT JUMPDEST DUP6 CALLDATALOAD SWAP5 POP PUSH1 0x20 DUP7 ADD CALLDATALOAD SWAP4 POP PUSH2 0x13DE PUSH1 0x40 DUP8 ADD PUSH2 0x1343 JUMP JUMPDEST SWAP3 POP PUSH1 0x60 DUP7 ADD CALLDATALOAD SWAP2 POP PUSH2 0x13F3 PUSH1 0x80 DUP8 ADD PUSH2 0x1343 JUMP JUMPDEST SWAP1 POP SWAP3 SWAP6 POP SWAP3 SWAP6 SWAP1 SWAP4 POP JUMP JUMPDEST PUSH1 0x0 DUP1 PUSH1 0x40 DUP4 DUP6 SUB SLT ISZERO PUSH2 0x1412 JUMPI PUSH1 0x0 DUP1 REVERT JUMPDEST POP POP DUP1 CALLDATALOAD SWAP3 PUSH1 0x20 SWAP1 SWAP2 ADD CALLDATALOAD SWAP2 POP JUMP JUMPDEST PUSH1 0x20 DUP1 DUP3 MSTORE PUSH1 0x2 SWAP1 DUP3 ADD MSTORE PUSH2 0x9E9 PUSH1 0xF3 SHL PUSH1 0x40 DUP3 ADD MSTORE PUSH1 0x60 ADD SWAP1 JUMP JUMPDEST PUSH1 0x20 DUP1 DUP3 MSTORE PUSH1 0x2 SWAP1 DUP3 ADD MSTORE PUSH2 0x5553 PUSH1 0xF0 SHL PUSH1 0x40 DUP3 ADD MSTORE PUSH1 0x60 ADD SWAP1 JUMP JUMPDEST PUSH4 0x4E487B71 PUSH1 0xE0 SHL PUSH1 0x0 MSTORE PUSH1 0x21 PUSH1 0x4 MSTORE PUSH1 0x24 PUSH1 0x0 REVERT JUMPDEST PUSH4 0x4E487B71 PUSH1 0xE0 SHL PUSH1 0x0 MSTORE PUSH1 0x11 PUSH1 0x4 MSTORE PUSH1 0x24 PUSH1 0x0 REVERT JUMPDEST DUP1 DUP3 MUL DUP2 ISZERO DUP3 DUP3 DIV DUP5 EQ OR PUSH2 0xB5B JUMPI PUSH2 0xB5B PUSH2 0x146F JUMP JUMPDEST DUP1 DUP3 ADD DUP1 DUP3 GT ISZERO PUSH2 0xB5B JUMPI PUSH2 0xB5B PUSH2 0x146F JUMP JUMPDEST PUSH1 0x0 PUSH1 0x20 DUP3 DUP5 SUB SLT ISZERO PUSH2 0x14C1 JUMPI PUSH1 0x0 DUP1 REVERT JUMPDEST POP MLOAD SWAP2 SWAP1 POP JUMP JUMPDEST PUSH1 0x0 PUSH1 0x20 DUP3 DUP5 SUB SLT ISZERO PUSH2 0x14DA JUMPI PUSH1 0x0 DUP1 REVERT JUMPDEST DUP2 MLOAD DUP1 ISZERO ISZERO DUP2 EQ PUSH2 0xC16 JUMPI PUSH1 0x0 DUP1 REVERT JUMPDEST PUSH1 0x3 DUP2 LT PUSH2 0x1508 JUMPI PUSH4 0x4E487B71 PUSH1 0xE0 SHL PUSH1 0x0 MSTORE PUSH1 0x21 PUSH1 0x4 MSTORE PUSH1 0x24 PUSH1 0x0 REVERT JUMPDEST SWAP1 MSTORE JUMP JUMPDEST PUSH1 0xC0 DUP2 ADD PUSH2 0x151A DUP3 DUP7 PUSH2 0x14EA JUMP JUMPDEST DUP4 PUSH1 0x20 DUP4 ADD MSTORE DUP3 MLOAD PUSH1 0x40 DUP4 ADD MSTORE PUSH1 0x20 DUP4 ADD MLOAD PUSH1 0x60 DUP4 ADD MSTORE PUSH1 0x40 DUP4 ADD MLOAD PUSH1 0x1 DUP1 PUSH1 0xA0 SHL SUB DUP1 DUP3 AND PUSH1 0x80 DUP6 ADD MSTORE DUP1 PUSH1 0x60 DUP7 ADD MLOAD AND PUSH1 0xA0 DUP6 ADD MSTORE POP POP SWAP5 SWAP4 POP POP POP POP JUMP JUMPDEST DUP2 DUP2 SUB DUP2 DUP2 GT ISZERO PUSH2 0xB5B JUMPI PUSH2 0xB5B PUSH2 0x146F JUMP JUMPDEST PUSH1 0x0 DUP3 PUSH2 0x158B JUMPI PUSH4 0x4E487B71 PUSH1 0xE0 SHL PUSH1 0x0 MSTORE PUSH1 0x12 PUSH1 0x4 MSTORE PUSH1 0x24 PUSH1 0x0 REVERT JUMPDEST POP DIV SWAP1 JUMP JUMPDEST PUSH1 0x0 PUSH1 0x1 DUP3 ADD PUSH2 0x15A2 JUMPI PUSH2 0x15A2 PUSH2 0x146F JUMP JUMPDEST POP PUSH1 0x1 ADD SWAP1 JUMP JUMPDEST PUSH1 0xC0 DUP2 ADD PUSH2 0x15B7 DUP3 DUP7 PUSH2 0x14EA JUMP JUMPDEST PUSH1 0x20 DUP3 ADD SWAP4 SWAP1 SWAP4 MSTORE DUP2 SLOAD PUSH1 0x40 DUP3 ADD MSTORE PUSH1 0x1 DUP3 ADD SLOAD PUSH1 0x60 DUP3 ADD MSTORE PUSH1 0x2 DUP3 ADD SLOAD PUSH1 0x1 PUSH1 0x1 PUSH1 0xA0 SHL SUB SWAP1 DUP2 AND PUSH1 0x80 DUP4 ADD MSTORE PUSH1 0x3 SWAP1 SWAP3 ADD SLOAD SWAP1 SWAP2 AND PUSH1 0xA0 SWAP1 SWAP2 ADD MSTORE SWAP2 SWAP1 POP JUMP INVALID LOG2 PUSH5 0x6970667358 0x22 SLT KECCAK256 JUMPDEST PUSH31 0xF873BC05C64E992EB51992D5D86355C7FCB8C253212310021F189AEA93E64 PUSH20 0x6F6C634300081300330000000000000000000000 ",
  "sha1": "a0fa9a00c29c99ac0e12203a5f050cb072d21892",
  "source": "// SPDX-License-Identifier: GPL-3.0-or-later\n\npragma solidity ^0.8.4;\n\nimport \"../node_modules/@openzeppelin/contracts/token/ERC20/ERC20.sol\";\n\n/// @notice Returns the two quotients and the remainder of an uneven division with a fraction. Useful for dividing ether and tokens.\n/// @param dividend The dividend, which will be divided by the fraction.\n/// @param numerator Numerator of fraction, which the dividend will be divided into.\n/// @param denominator Denominator of fraction, which the dividend will be divided into.\nfunction divideUnequallyIntoTwoWithRemainder(uint256 dividend, uint256 numerator, uint256 denominator) pure returns(uint256, uint256, uint256) {\n    require(denominator > numerator);\n    uint256 quotient1 = dividend*numerator/denominator;\n    uint256 quotient2 = dividend*(denominator-numerator)/denominator;\n    return (quotient1, quotient2, dividend - (quotient1 + quotient2));\n}\n\n/// @title A shardable/fractional non-fungible token that can be fractually owned via Shards.\n/// @author Frederik W. L. Christoffersen\n/// @notice This contract is used to fractionalize a non-fungible token. Be aware that a sell transfers a service fee of 2.5% to Counekt.\n/// @dev historicShards are used to show proof of ownership at different points of time.\n/// @custom:beaware This is a commercial contract.\ncontract Shardable {\n\n    /// @notice An enum representing a Sale State of a Shard.\n    /// @param notForSale The Shard is NOT for sale.\n    /// @param forSale The Shard IS for sale.\n    /// @param sold The Shard has been sold.\n    enum SaleState {\n        notForSale,\n        forSale,\n        sold\n    }\n\n    /// @notice A struct representing the related info of a non-fungible Shard token.\n    /// @dev Is represented via a bytes32 value created from the hash: keccak256(owner, creationClock).\n    /// @param amount Amount that the Shard represents.\n    /// @param owner The owner of the Shard.\n    /// @param creationClock The clock at which the Shard was created.\n    /// @param expiredClock The clock at which the Shard expired. Default is set to the maximum value.\n    struct ShardInfo {\n        uint256 amount;\n        address owner; \n        uint256 creationClock;        \n    }\n\n    /// @notice A struct representing the related sale info of a non-fungible Shard token.\n    /// @param amount Amount that is for sale.\n    /// @param price The amount which the Shard is for sale as. The token address being the valuta.\n    /// @param tokenAddress The address of the token that is accepted when purchasing. A value of 0x0 represents ether.\n    /// @param to Address pointing to a potentially specifically set buyer of the sale.\n    struct ShardSale {\n        uint256 amount;\n        uint256 price;\n        address tokenAddress;\n        address to;\n    }\n\n    /// @notice Integer value to implement a concept of time independently of the messy block.timestamp\n    uint256 clock = 0;\n\n    /// @notice Boolean stating if the Shardable is active and tradeable or not.\n    bool public active;\n\n    /// @notice Mapping pointing to integer value representing the total number of shards issued, provided the clock. Used as the denominator to represent a relative shard fraction.\n    mapping(uint256 => uint256) public totalShardAmountByClock;\n\n    /// @notice Mapping pointing to related info of a Shard given the bytes of a unique Shard instance.\n    mapping(bytes32 => ShardInfo) public infoByShard;\n    /// @notice Mapping pointing to a currently valid shard given the address of its owner.\n    mapping(address => bytes32) public shardByOwner;\n    /// @notice Mapping pointing to an enum stating whether a given Shard isn't, is for sale, or has been sold.\n    mapping(bytes32 => SaleState) saleStateByShard;\n    /// @notice Mapping pointing to related sale info of a Shard given the bytes of a unique Shard instance.\n    mapping(bytes32 => ShardSale) saleByShard;\n    // @notice Mapping pointing to an expired clock given a shard.\n    mapping(bytes32 => uint256) shardExpirationClock;\n\n    /// @notice Event emitted when a Shard is created.\n    /// @param status The boolean indicating whether a shard is newly created (true) or expired (false).\n    /// @param shard The Shard byte identifier, which was created.\n    event ShardUpdated(\n        bool status,\n        bytes32 shard\n        );\n\n    /// @notice Event emitted when a sale of a Shard is sold.\n    /// @param status The enum stating whether the given Shard now isn't, is for sale, or has been sold.\n    /// @param shard The shard whose sale state was updated.\n    /// @param sale The sale info reffering to either a listing or a purchase, depending on the status.\n    event SaleStateUpdated(\n        SaleState status,\n        bytes32 shard,\n        ShardSale sale\n        );\n\n    modifier incrementClock {\n        _;\n        totalShardAmountByClock[clock+1] = totalShardAmountByClock[clock]; // remember the total shard amount at previous clock\n        clock++;\n    }\n    \n    /// @notice Modifier that requires the msg.sender to be a current valid Shard holder.\n    modifier onlyShardHolder {\n        require(isShardHolder(msg.sender), \"UH\");\n        _;\n    }\n\n    /// @notice Modifier that requires a given Shard to be currently valid.\n    modifier onlyValidShard(bytes32 shard) {\n        require(isValidShard(shard), \"US\");\n        _;\n    }\n\n    /// @notice Modifier that makes sure the entity is active and not liquidized/dissolved.\n    modifier onlyIfActive() {\n        require(active == true, \"EL\");\n        _;\n    }\n\n    /// @notice Modifier that requires the msg.sender to be the owner of a given Shard\n    /// @param shard The Shard, whose ownership is tested for.\n    modifier onlyHolder(bytes32 shard) {\n        require(infoByShard[shard].owner == msg.sender, \"OH\");\n        _;\n    }\n\n    /// @notice Constructor function that pushes the first Shard being the property of the Shardable creator.\n    /// @param amount Amount of shards to construct Shardable with.\n    constructor(uint256 amount) {\n        // passes full ownership to creator of contract\n        _pushShard(amount, msg.sender, 0);\n        totalShardAmountByClock[clock] = amount;\n        active = true;\n    }\n\n    /// @notice Purchases a listed Shard for sale.\n    /// @dev If the purchase is with tokens (ie. tokenAddress != 0x0), first call 'token.approve(Shardable.address, salePrice);'\n    /// @param shard The shard of which a fraction will be purchased.\n    function purchase(bytes32 shard, uint256 amount, uint256 price) external payable onlyValidShard(shard) {\n        require(saleStateByShard[shard]==SaleState.forSale, \"NS\");\n        require(price == saleByShard[shard].price, \"WP\");\n        require(amount != 0, \"ES\");\n        require(saleByShard[shard].amount >= amount, \"ES\");\n        require((saleByShard[shard].to == msg.sender) || (saleByShard[shard].to == address(0x0)), \"SR\");\n        saleStateByShard[shard] = SaleState.sold; // shard has been sold\n        uint256 totalPrice = amount * saleByShard[shard].price;\n        (uint256 profitToCounekt, uint256 profitToSeller, uint256 remainder) = divideUnequallyIntoTwoWithRemainder(totalPrice,25,1000);\n        profitToSeller += remainder; // remainder goes to seller\n        // if ether\n        if (saleByShard[shard].tokenAddress == address(0x0)) {\n            require(msg.value >= totalPrice, \"IE\");\n            // Pay Service Fee of 2.5% to Counekt\n            (bool successToCounekt,) = payable(0x49a71890aea5A751E30e740C504f2E9683f347bC).call{value:profitToCounekt}(\"\");\n            // Rest goes to the seller\n            (bool successToSeller,) = payable(infoByShard[shard].owner).call{value:profitToSeller}(\"\");\n            require(successToSeller && successToCounekt, \"TF\");\n        } \n        else {\n            ERC20 token = ERC20(saleByShard[shard].tokenAddress);\n            require(token.allowance(msg.sender,address(this)) >= totalPrice,\"IT\");\n            // Pay Service Fee of 2.5% to Counekt\n            require(token.transferFrom(msg.sender, 0x49a71890aea5A751E30e740C504f2E9683f347bC, profitToCounekt), \"NT\");\n            // Rest goes to the seller\n            _payProfitToSeller(infoByShard[shard].owner,saleByShard[shard].tokenAddress,profitToSeller);\n        }\n        _split(shard, amount,msg.sender);\n        if (infoByShard[shard].owner == address(this)) { // if newly issued shards\n            // add those to the outstanding shard amount\n            totalShardAmountByClock[clock] += amount;\n        }\n        emit SaleStateUpdated(SaleState.sold,shard,ShardSale(amount,saleByShard[shard].price,saleByShard[shard].tokenAddress,saleByShard[shard].to));\n        // if not whole shard is bought\n        if (saleByShard[shard].amount != amount) { \n            // put the rest to sale again\n            _putForSale(shardByOwner[infoByShard[shard].owner],saleByShard[shard].amount-amount,saleByShard[shard].tokenAddress,saleByShard[shard].price,saleByShard[shard].to);\n        }\n    }\n\n    /// @notice Puts a given shard for sale.\n    /// @param shard The shard to be put for sale.\n    /// @param amount Amount of the Shard to be put for sale.\n    /// @param tokenAddress The address of the token that is accepted when purchasing. A value of 0x0 represents ether.\n    /// @param price The amount which the Shard is for sale as. The token address being the valuta.\n    /// @param to The specifically set buyer of the sale. Open to anyone, if address(0).\n    function putForSale(bytes32 shard, uint256 amount, address tokenAddress, uint256 price, address to) public onlyHolder(shard) onlyValidShard(shard) {\n        _putForSale(shard,amount,tokenAddress,price,to);\n    }\n\n    /// @notice Cancels a sell of a given shard.\n    /// @param shard The shard to be put off sale.\n    function cancelSale(bytes32 shard) public onlyHolder(shard) onlyValidShard(shard) {\n        require(saleStateByShard[shard]==SaleState.forSale, \"NS\");\n        _cancelSale(shard);\n    }\n\n    /// @notice Splits a currently valid shard into two new ones. One is assigned to the receiver. The rest to the previous owner.\n    /// @param senderShard The shard to be split.\n    /// @param amount Amount, which will be subtracted from the previous shard and sent to the receiver.\n    /// @param to The receiver of the new Shard.\n    function split(bytes32 senderShard, uint256 amount, address to) public onlyHolder(senderShard) onlyValidShard(senderShard) {\n        _split(senderShard,amount,to);\n    }\n\n    /// @notice Returns the clock.\n    function getCurrentClock() public view returns(uint256) {\n        return clock;\n    }\n\n    /// @notice Returns the clock, in which a shard will or has expired.\n    function getShardExpirationClock(bytes32 shard) public view returns(uint256) {\n        return shardExpirationClock[shard];\n    }\n\n    /// @notice Returns the price, at which a shard is for sale.\n    function getShardSalePrice(bytes32 shard) public view returns(uint256) {\n        return saleByShard[shard].price;\n    }\n\n    /// @notice Returns a boolean stating if a given shard is currently valid or not.\n    /// @param shard The shard, whose validity is to be checked for.\n    function isValidShard(bytes32 shard) public view returns(bool) {\n        return getShardExpirationClock(shard) > clock;\n    }\n\n    /// @notice Checks if address is a shard holder - at least a partial owner of the contract.\n    /// @param account The address to be checked for.\n    function isShardHolder(address account) public view returns(bool) {\n        return isValidShard(shardByOwner[account]);\n    }\n    \n    /// @notice Returns a boolean stating if the given shard was valid at a given clock.\n    /// @param shard The shard, whose validity is to be checked for.\n    /// @param atClock The clock to be checked for.\n    function shardExisted(bytes32 shard, uint256 atClock) public view returns(bool) {\n        return infoByShard[shard].creationClock <= atClock && atClock < getShardExpirationClock(shard);\n    }\n\n    /// @notice Cancels a sell of a given Shard.\n    /// @param shard The shard to be put off sale.\n    function _cancelSale(bytes32 shard) internal onlyValidShard(shard) {\n        saleStateByShard[shard] = SaleState.notForSale;\n        emit SaleStateUpdated(SaleState.notForSale,shard,ShardSale(0,0,address(0),address(0)));\n    }\n\n    /// @notice Splits a currently valid shard into two new ones. One is assigned to the receiver. The rest to the previous owner.\n    /// @param senderShard The shard to be split.\n    /// @param amount Amount, which will be subtracted from the previous shard and sent to the receiver.\n    /// @param to The receiver of the new Shard.\n    function _split(bytes32 senderShard, uint256 amount, address to) internal onlyValidShard(senderShard) onlyIfActive incrementClock {\n        require(amount <= infoByShard[senderShard].amount, \"IA\");\n        if (isShardHolder(to)) { // if Receiver already owns a shard\n            // The amounts are added and the shard thereby upgraded\n            uint256 sumAmount = amount + infoByShard[shardByOwner[to]].amount;\n            // Expire the Old Receiver Shard\n            _expireShard(shardByOwner[to], clock);\n            _pushShard(sumAmount,to,clock);\n        }\n        else {\n            // The amount of the Receiver Shard is equal to the one split off of the Sender Shard\n            _pushShard(amount,to,clock);\n        }\n\n        // Expire the Old Sender Shard\n        _expireShard(senderShard, clock);\n        // The new amount of the Sender Shard has been subtracted by the Split amount.\n        uint256 diff = infoByShard[senderShard].amount - amount;\n        if (diff != 0) {\n        _pushShard(diff,infoByShard[senderShard].owner,clock);\n        }\n    }\n\n    /// @notice Puts a given shard for sale.\n    /// @param shard The shard to be put for sale.\n    /// @param amount Amount of the Shard to be put for sale.\n    /// @param tokenAddress The address of the token that is accepted when purchasing. A value of 0x0 represents ether.\n    /// @param price The amount which the Shard is for sale as. The token address being the valuta.\n    /// @param to The specifically set buyer of the sale. For anyone to buy if address(0).\n    function _putForSale(bytes32 shard, uint256 amount, address tokenAddress, uint256 price, address to) internal onlyValidShard(shard) onlyIfActive {\n        require(saleStateByShard[shard]==SaleState.notForSale);\n        require(amount <= infoByShard[shard].amount, \"IA\");\n        saleByShard[shard] = ShardSale({\n            amount: amount,\n            price: price,\n            tokenAddress: tokenAddress,\n            to: to\n        });\n        saleStateByShard[shard] = SaleState.forSale;\n        emit SaleStateUpdated(SaleState.forSale,shard,saleByShard[shard]);\n    }\n\n    /// @notice Pushes a shard to the registry of currently valid shards.\n    /// @param amount Amount of the Shard represents.\n    /// @param owner The owner of the Shard.\n    /// @param creationClock The clock at which the Shard will be created.\n    function _pushShard(uint256 amount, address owner, uint256 creationClock) internal {\n        require(amount > 0, \"SZ\");\n        uint256 counter;\n        bytes32 shard;\n        while (true) {\n            // The representation, bytes and hash\n            shard = keccak256(abi.encodePacked(owner,creationClock,counter));\n            if (infoByShard[shard].owner == address(0)) { // make sure shard byte does not already exist\n                break;\n            }\n            counter++;\n        }\n        shardByOwner[owner] = shard;\n        shardExpirationClock[shard] = type(uint256).max; // The maximum value: (2^256)-1;\n        // The info, attributes and details\n        infoByShard[shard] = ShardInfo({\n                                amount:amount,\n                                owner: owner,\n                                creationClock: creationClock\n                                });\n        emit ShardUpdated(true,shard);\n\n    }\n\n    /// @notice Removes a shard from the registry of currently valid shards.\n    /// @param shard The shard to be expired.\n    /// @param expirationClock The clock at which the Shard will expire.\n    function _expireShard(bytes32 shard, uint256 expirationClock) internal {\n        shardExpirationClock[shard] = expirationClock;\n        emit ShardUpdated(false,shard);\n    }\n\n    /// @notice Pays profit to the seller. \n    /// @dev Is modifiable. Takes into account buying of issued shards in Idea.\n    /// @param account The address of the seller.\n    /// @param account The address of the token address.\n    /// @param value The value to be sent to the seller as payment. \n    function _payProfitToSeller(address account, address tokenAddress, uint256 value) virtual internal {\n        ERC20 token = ERC20(tokenAddress);\n        token.transferFrom(msg.sender, account, value);\n    }\n\n}",
  "sourcePath": "contracts/shardable.sol",
  "type": "contract"
}