{
  "abi": [
    {
      "inputs": [],
      "stateMutability": "nonpayable",
      "type": "constructor"
    },
    {
      "anonymous": false,
      "inputs": [
        {
          "indexed": false,
          "internalType": "bytes32",
          "name": "shard",
          "type": "bytes32"
        },
        {
          "indexed": false,
          "internalType": "uint256",
          "name": "numerator",
          "type": "uint256"
        },
        {
          "indexed": false,
          "internalType": "uint256",
          "name": "denominator",
          "type": "uint256"
        },
        {
          "indexed": false,
          "internalType": "address",
          "name": "tokenAddress",
          "type": "address"
        },
        {
          "indexed": false,
          "internalType": "uint256",
          "name": "price",
          "type": "uint256"
        },
        {
          "indexed": false,
          "internalType": "address",
          "name": "to",
          "type": "address"
        }
      ],
      "name": "PutForSale",
      "type": "event"
    },
    {
      "anonymous": false,
      "inputs": [
        {
          "indexed": false,
          "internalType": "bytes32",
          "name": "shard",
          "type": "bytes32"
        },
        {
          "indexed": false,
          "internalType": "uint256",
          "name": "numerator",
          "type": "uint256"
        },
        {
          "indexed": false,
          "internalType": "uint256",
          "name": "denominator",
          "type": "uint256"
        },
        {
          "indexed": false,
          "internalType": "address",
          "name": "tokenAddress",
          "type": "address"
        },
        {
          "indexed": false,
          "internalType": "uint256",
          "name": "price",
          "type": "uint256"
        },
        {
          "indexed": false,
          "internalType": "address",
          "name": "to",
          "type": "address"
        }
      ],
      "name": "SaleSold",
      "type": "event"
    },
    {
      "anonymous": false,
      "inputs": [
        {
          "indexed": false,
          "internalType": "bytes32",
          "name": "shard",
          "type": "bytes32"
        },
        {
          "indexed": false,
          "internalType": "uint256",
          "name": "numerator",
          "type": "uint256"
        },
        {
          "indexed": false,
          "internalType": "uint256",
          "name": "denominator",
          "type": "uint256"
        },
        {
          "indexed": false,
          "internalType": "address",
          "name": "to",
          "type": "address"
        }
      ],
      "name": "SplitMade",
      "type": "event"
    },
    {
      "inputs": [],
      "name": "active",
      "outputs": [
        {
          "internalType": "bool",
          "name": "",
          "type": "bool"
        }
      ],
      "stateMutability": "view",
      "type": "function"
    },
    {
      "inputs": [
        {
          "internalType": "bytes32",
          "name": "shard",
          "type": "bytes32"
        }
      ],
      "name": "cancelSale",
      "outputs": [],
      "stateMutability": "nonpayable",
      "type": "function"
    },
    {
      "inputs": [
        {
          "internalType": "bytes32",
          "name": "shard",
          "type": "bytes32"
        }
      ],
      "name": "getShardExpiredTime",
      "outputs": [
        {
          "internalType": "uint256",
          "name": "",
          "type": "uint256"
        }
      ],
      "stateMutability": "view",
      "type": "function"
    },
    {
      "inputs": [
        {
          "internalType": "bytes32",
          "name": "shard",
          "type": "bytes32"
        }
      ],
      "name": "getShardSalePrice",
      "outputs": [
        {
          "internalType": "uint256",
          "name": "",
          "type": "uint256"
        }
      ],
      "stateMutability": "view",
      "type": "function"
    },
    {
      "inputs": [
        {
          "internalType": "bytes32",
          "name": "",
          "type": "bytes32"
        }
      ],
      "name": "infoByShard",
      "outputs": [
        {
          "internalType": "uint256",
          "name": "numerator",
          "type": "uint256"
        },
        {
          "internalType": "uint256",
          "name": "denominator",
          "type": "uint256"
        },
        {
          "internalType": "address",
          "name": "owner",
          "type": "address"
        },
        {
          "internalType": "uint256",
          "name": "creationTime",
          "type": "uint256"
        }
      ],
      "stateMutability": "view",
      "type": "function"
    },
    {
      "inputs": [
        {
          "internalType": "address",
          "name": "account",
          "type": "address"
        }
      ],
      "name": "isShardHolder",
      "outputs": [
        {
          "internalType": "bool",
          "name": "",
          "type": "bool"
        }
      ],
      "stateMutability": "view",
      "type": "function"
    },
    {
      "inputs": [
        {
          "internalType": "bytes32",
          "name": "shard",
          "type": "bytes32"
        }
      ],
      "name": "isValidShard",
      "outputs": [
        {
          "internalType": "bool",
          "name": "",
          "type": "bool"
        }
      ],
      "stateMutability": "view",
      "type": "function"
    },
    {
      "inputs": [
        {
          "internalType": "bytes32",
          "name": "shard",
          "type": "bytes32"
        }
      ],
      "name": "purchase",
      "outputs": [],
      "stateMutability": "payable",
      "type": "function"
    },
    {
      "inputs": [
        {
          "internalType": "bytes32",
          "name": "shard",
          "type": "bytes32"
        },
        {
          "internalType": "uint256",
          "name": "numerator",
          "type": "uint256"
        },
        {
          "internalType": "uint256",
          "name": "denominator",
          "type": "uint256"
        },
        {
          "internalType": "address",
          "name": "tokenAddress",
          "type": "address"
        },
        {
          "internalType": "uint256",
          "name": "price",
          "type": "uint256"
        },
        {
          "internalType": "address",
          "name": "to",
          "type": "address"
        }
      ],
      "name": "putForSale",
      "outputs": [],
      "stateMutability": "nonpayable",
      "type": "function"
    },
    {
      "inputs": [
        {
          "internalType": "address",
          "name": "",
          "type": "address"
        }
      ],
      "name": "shardByOwner",
      "outputs": [
        {
          "internalType": "bytes32",
          "name": "",
          "type": "bytes32"
        }
      ],
      "stateMutability": "view",
      "type": "function"
    },
    {
      "inputs": [
        {
          "internalType": "bytes32",
          "name": "shard",
          "type": "bytes32"
        },
        {
          "internalType": "uint256",
          "name": "time",
          "type": "uint256"
        }
      ],
      "name": "shardExisted",
      "outputs": [
        {
          "internalType": "bool",
          "name": "",
          "type": "bool"
        }
      ],
      "stateMutability": "view",
      "type": "function"
    },
    {
      "inputs": [
        {
          "internalType": "bytes32",
          "name": "senderShard",
          "type": "bytes32"
        },
        {
          "internalType": "uint256",
          "name": "numerator",
          "type": "uint256"
        },
        {
          "internalType": "uint256",
          "name": "denominator",
          "type": "uint256"
        },
        {
          "internalType": "address",
          "name": "to",
          "type": "address"
        }
      ],
      "name": "split",
      "outputs": [],
      "stateMutability": "nonpayable",
      "type": "function"
    },
    {
      "inputs": [
        {
          "internalType": "bytes32",
          "name": "senderShard",
          "type": "bytes32"
        },
        {
          "internalType": "address",
          "name": "to",
          "type": "address"
        }
      ],
      "name": "transferShard",
      "outputs": [],
      "stateMutability": "nonpayable",
      "type": "function"
    }
  ],
  "bytecode": "60806040526000805534801561001457600080fd5b506100db6001803360006040516001600160601b0319606084901b1660208201526034810182905260009060540160408051808303601f1901815282825280516020918201206001600160a01b03968716600081815260038085528582208490558382526006855285822060001990556080870186529a8652838601998a528585019182526060860197885291825260029283905292902092518355955160018301555194810180546001600160a01b031916959094169490941790925551919092015550565b6001805460ff1916811790556116a9806100f66000396000f3fe6080604052600436106100b25760003560e01c8063bcedb2e01161006f578063bcedb2e0146101b6578063c4802eb214610232578063cc4456111461025f578063d0b8b54214610272578063e1c34c1f1461029f578063f9983896146102bf578063fd06636b146102df57600080fd5b806302fb0c5e146100b75780630bea8985146100e65780634f52a71e146101085780637b785493146101285780638d7844a6146101665780639995b9a914610186575b600080fd5b3480156100c357600080fd5b506001546100d19060ff1681565b60405190151581526020015b60405180910390f35b3480156100f257600080fd5b50610106610101366004611367565b6102ff565b005b34801561011457600080fd5b5061010661012336600461139c565b6103b6565b34801561013457600080fd5b50610158610143366004611367565b60009081526005602052604090206003015490565b6040519081526020016100dd565b34801561017257600080fd5b506101066101813660046113c8565b610438565b34801561019257600080fd5b506100d16101a1366004611367565b60008054918152600660205260409020541190565b3480156101c257600080fd5b506102036101d1366004611367565b600260208190526000918252604090912080546001820154928201546003909201549092916001600160a01b03169084565b6040516100dd949392919093845260208401929092526001600160a01b03166040830152606082015260800190565b34801561023e57600080fd5b5061015861024d366004611407565b60036020526000908152604090205481565b61010661026d366004611367565b6104be565b34801561027e57600080fd5b5061015861028d366004611367565b60009081526006602052604090205490565b3480156102ab57600080fd5b506100d16102ba366004611407565b610a4d565b3480156102cb57600080fd5b506101066102da366004611422565b610a85565b3480156102eb57600080fd5b506100d16102fa36600461147a565b610b0f565b6000818152600260208190526040909120015481906001600160a01b031633146103445760405162461bcd60e51b815260040161033b9061149c565b60405180910390fd5b8161035e8160008054918152600660205260409020541190565b61037a5760405162461bcd60e51b815260040161033b906114b8565b60008381526004602052604090205460ff166103a85760405162461bcd60e51b815260040161033b906114d4565b6103b183610b44565b505050565b6000828152600260208190526040909120015482906001600160a01b031633146103f25760405162461bcd60e51b815260040161033b9061149c565b8261040c8160008054918152600660205260409020541190565b6104285760405162461bcd60e51b815260040161033b906114b8565b6104328484610b93565b50505050565b6000848152600260208190526040909120015484906001600160a01b031633146104745760405162461bcd60e51b815260040161033b9061149c565b8461048e8160008054918152600660205260409020541190565b6104aa5760405162461bcd60e51b815260040161033b906114b8565b6104b686868686610d1d565b505050505050565b806104d88160008054918152600660205260409020541190565b6104f45760405162461bcd60e51b815260040161033b906114b8565b60008281526004602052604090205460ff166105225760405162461bcd60e51b815260040161033b906114d4565b6000828152600560205260409020600401546001600160a01b031633148061056257506000828152600560205260409020600401546001600160a01b0316155b6105935760405162461bcd60e51b815260206004820152600260248201526129a960f11b604482015260640161033b565b61059c82610b44565b600082815260056020526040812060030154819081906105c09060196103e8610f0a565b919450925090506105d18183611506565b6000868152600560205260409020600201549092506001600160a01b0316610743576000858152600560205260409020600301543410156106395760405162461bcd60e51b8152602060048201526002602482015261494560f01b604482015260640161033b565b6040516000907349a71890aea5a751e30e740c504f2e9683f347bc9085908381818185875af1925050503d806000811461068f576040519150601f19603f3d011682016040523d82523d6000602084013e610694565b606091505b5050600087815260026020819052604080832090910154905192935090916001600160a01b039091169085908381818185875af1925050503d80600081146106f8576040519150601f19603f3d011682016040523d82523d6000602084013e6106fd565b606091505b5050905080801561070b5750815b61073c5760405162461bcd60e51b81526020600482015260026024820152612a2360f11b604482015260640161033b565b5050610914565b6000858152600560205260409081902060028101546003909101549151636eb1769f60e11b81523360048201523060248201526001600160a01b039091169190829063dd62ed3e90604401602060405180830381865afa1580156107ab573d6000803e3d6000fd5b505050506040513d601f19601f820116820180604052508101906107cf9190611519565b10156108025760405162461bcd60e51b8152602060048201526002602482015261125560f21b604482015260640161033b565b6040516323b872dd60e01b81526001600160a01b038216906323b872dd906108469033907349a71890aea5a751e30e740c504f2e9683f347bc908990600401611532565b6020604051808303816000875af1158015610865573d6000803e3d6000fd5b505050506040513d601f19601f820116820180604052508101906108899190611556565b50600086815260026020819052604091829020015490516323b872dd60e01b81526001600160a01b03808416926323b872dd926108ce92339216908890600401611532565b6020604051808303816000875af11580156108ed573d6000803e3d6000fd5b505050506040513d601f19601f820116820180604052508101906109119190611556565b50505b60008581526005602052604090205415801590610941575060008581526005602052604090206001015415155b6109725760405162461bcd60e51b8152602060048201526002602482015261455360f01b604482015260640161033b565b6000858152600260209081526040808320805460019182015460059094529190932080549301546109a69391929190610f7e565b156109ba576109b58533610b93565b6109dc565b600085815260056020526040902080546001909101546109dc91879133610d1d565b6000858152600560205260409081902080546001820154600283015460039093015493517f86d5a30b627b7d52f998c20ab46abe9fbe1c7c4863cd3259d09e7c22072dc1c194610a3e948b9493926001600160a01b0390911691903390611578565b60405180910390a15050505050565b6001600160a01b038116600090815260036020526040812054610a7f9060008054918152600660205260409020541190565b92915050565b6000868152600260208190526040909120015486906001600160a01b03163314610ac15760405162461bcd60e51b815260040161033b9061149c565b86610adb8160008054918152600660205260409020541190565b610af75760405162461bcd60e51b815260040161033b906114b8565b610b05888888888888610f97565b5050505050505050565b6000828152600260205260408120600301548210801590610b3d575060008381526006602052604090205482105b9392505050565b80610b5e8160008054918152600660205260409020541190565b610b7a5760405162461bcd60e51b815260040161033b906114b8565b506000908152600460205260409020805460ff19169055565b81610bad8160008054918152600660205260409020541190565b610bc95760405162461bcd60e51b815260040161033b906114b8565b6001805460ff16151514610bef5760405162461bcd60e51b815260040161033b906115af565b600054610bfb83610a4d565b15610c90576001600160a01b038316600090815260036020526040902054610c30908260009182526006602052604090912055565b600084815260026020818152604080842080546001918201546001600160a01b038a168752600385528387205487529490935290842080549101548493610c7993929091611189565b91509150610c89828287866111c5565b5050610cb2565b60008481526002602052604090208054600190910154610cb2919085846111c5565b600084815260066020526040902081905533301461043257600084815260026020526040908190205490517fe9643ef80195846c85962c67deed262d01c3ced15d351cfca16ac0c82daeb1c791610d0f91879190819088906115cb565b60405180910390a150505050565b83610d378160008054918152600660205260409020541190565b610d535760405162461bcd60e51b815260040161033b906114b8565b6001805460ff16151514610d795760405162461bcd60e51b815260040161033b906115af565b600085815260026020526040902060018101549054610d989190611605565b610da28486611605565b10610dbf5760405162461bcd60e51b815260040161033b90611619565b600054610dcb83610a4d565b15610e51576001600160a01b03831660009081526003602090815260408083205483526002909152812080546001909101548291610e0a918989611189565b91509150610e1a828287866111c5565b6001600160a01b038516600090815260036020526040902054610e4a908460009182526006602052604090912055565b5050610e5d565b610e5d858585846111c5565b60008681526006602090815260408083208490556002909152812080546001909101548291610e8d918989611287565b60008a815260026020819052604090912001549193509150610ebc90839083906001600160a01b0316866111c5565b333014610b05577fe9643ef80195846c85962c67deed262d01c3ced15d351cfca16ac0c82daeb1c788888888604051610ef894939291906115cb565b60405180910390a15050505050505050565b6000806000848411610f1b57600080fd5b600084610f288789611635565b610f329190611605565b9050600085610f41888261164c565b610f4b908a611635565b610f559190611605565b90508181610f638183611506565b610f6d908b61164c565b945094509450505093509350939050565b60008285148015610f8e57508184145b95945050505050565b85610fb18160008054918152600660205260409020541190565b610fcd5760405162461bcd60e51b815260040161033b906114b8565b6001805460ff16151514610ff35760405162461bcd60e51b815260040161033b906115af565b6000878152600260205260409020600181015490546110129190611605565b61101c8688611605565b111561103a5760405162461bcd60e51b815260040161033b90611619565b61104486866112b6565b80965081975050506040518060a00160405280878152602001868152602001856001600160a01b03168152602001848152602001836001600160a01b031681525060056000898152602001908152602001600020600082015181600001556020820151816001015560408201518160020160006101000a8154816001600160a01b0302191690836001600160a01b031602179055506060820151816003015560808201518160040160006101000a8154816001600160a01b0302191690836001600160a01b0316021790555090505060016004600089815260200190815260200160002060006101000a81548160ff0219169083151502179055507f4c4dcd7b4186fe1c900d89bc3c911766f63cf9c3570750481f0d89bfbcb7528587878787878760405161117896959493929190611578565b60405180910390a150505050505050565b6000806111968387611635565b95506111a28585611635565b93506111ae8487611506565b6111b88487611635565b9150915094509492505050565b6040516bffffffffffffffffffffffff19606084901b1660208201526034810182905260009060540160408051808303601f1901815282825280516020918201206001600160a01b03968716600081815260038085528582208490558382526006855285822060001990556080870186529a8652838601998a528585019182526060860197885291825260029283905292902092518355955160018301555194810180546001600160a01b031916959094169490941790925551919092015550565b6000806112948387611635565b95506112a08486611635565b94506112ac858761164c565b6111b88486611635565b60008060006112c58585611342565b90506112d18185611605565b6112db8287611605565b6112e59190611605565b6112ef8587611605565b146113225760405162461bcd60e51b815260206004820152600360248201526215935560ea1b604482015260640161033b565b61132c8186611605565b6113368286611605565b92509250509250929050565b60005b81156113605781611356818561165f565b9093509150611345565b5090919050565b60006020828403121561137957600080fd5b5035919050565b80356001600160a01b038116811461139757600080fd5b919050565b600080604083850312156113af57600080fd5b823591506113bf60208401611380565b90509250929050565b600080600080608085870312156113de57600080fd5b8435935060208501359250604085013591506113fc60608601611380565b905092959194509250565b60006020828403121561141957600080fd5b610b3d82611380565b60008060008060008060c0878903121561143b57600080fd5b86359550602087013594506040870135935061145960608801611380565b92506080870135915061146e60a08801611380565b90509295509295509295565b6000806040838503121561148d57600080fd5b50508035926020909101359150565b60208082526002908201526109e960f31b604082015260600190565b602080825260029082015261555360f01b604082015260600190565b6020808252600290820152614e5360f01b604082015260600190565b634e487b7160e01b600052601160045260246000fd5b80820180821115610a7f57610a7f6114f0565b60006020828403121561152b57600080fd5b5051919050565b6001600160a01b039384168152919092166020820152604081019190915260600190565b60006020828403121561156857600080fd5b81518015158114610b3d57600080fd5b958652602086019490945260408501929092526001600160a01b03908116606085015260808401919091521660a082015260c00190565b602080825260029082015261115360f21b604082015260600190565b938452602084019290925260408301526001600160a01b0316606082015260800190565b634e487b7160e01b600052601260045260246000fd5b600082611614576116146115ef565b500490565b60208082526002908201526124a360f11b604082015260600190565b8082028115828204841417610a7f57610a7f6114f0565b81810381811115610a7f57610a7f6114f0565b60008261166e5761166e6115ef565b50069056fea264697066735822122044c4b45037ada292167834540da6434497ef57fc52514eae191996c491faa2b164736f6c63430008130033",
  "bytecodeSha1": "403273a1444a15b8ab0006738b0726ce1e71d95a",
  "compiler": {
    "evm_version": "istanbul",
    "optimizer": {
      "enabled": true,
      "runs": 100
    },
    "version": "0.8.19+commit.7dd6d404"
  },
  "contractName": "Shardable",
  "language": "Solidity",
  "natspec": {
    "author": "Frederik W. L. Christoffersen",
    "custom:beaware": "This is a commercial contract.",
    "details": "historicShards are used to show proof of ownership at different points of time.",
    "kind": "dev",
    "methods": {
      "active()": {
        "notice": "Boolean stating if the Shardable is active and tradeable or not."
      },
      "cancelSale(bytes32)": {
        "notice": "Cancels a sell of a given Shard.",
        "params": {
          "shard": "The shard to be put off sale."
        }
      },
      "constructor": {
        "notice": "Constructor function that pushes the first Shard being the property of the Shardable creator."
      },
      "getShardExpiredTime(bytes32)": {
        "notice": "Returns the time, in which a shard will or has expired."
      },
      "getShardSalePrice(bytes32)": {
        "notice": "Returns the price, at which a shard is for sale."
      },
      "infoByShard(bytes32)": {
        "notice": "Mapping pointing to related info of a Shard given the bytes of a unique Shard instance."
      },
      "isShardHolder(address)": {
        "notice": "Checks if address is a shard holder - at least a partial owner of the contract.",
        "params": {
          "account": "The address to be checked for."
        }
      },
      "isValidShard(bytes32)": {
        "notice": "Returns a boolean stating if a given shard is currently valid or not.",
        "params": {
          "shard": "The shard, whose validity is to be checked for."
        }
      },
      "purchase(bytes32)": {
        "details": "If the purchase is with tokens (ie. tokenAddress != 0x0), first call 'token.approve(Shardable.address, salePrice);'",
        "notice": "Purchases a listed Shard for sale.",
        "params": {
          "shard": "The shard of which a fraction will be purchased."
        }
      },
      "putForSale(bytes32,uint256,uint256,address,uint256,address)": {
        "notice": "Puts a given shard for sale.",
        "params": {
          "denominator": "Denominator of the absolute fraction of the Shard to be put for sale.",
          "numerator": "Numerator of the absolute fraction of the Shard to be put for sale.",
          "price": "The amount which the Shard is for sale as. The token address being the valuta.",
          "shard": "The shard to be put for sale.",
          "to": "The specifically set buyer of the sale. Open to anyone, if address(0).",
          "tokenAddress": "The address of the token that is accepted when purchasing. A value of 0x0 represents ether."
        }
      },
      "shardByOwner(address)": {
        "notice": "Mapping pointing to a currently valid shard given the address of its owner."
      },
      "shardExisted(bytes32,uint256)": {
        "notice": "Returns a boolean stating if the given shard was valid at a given timestamp.",
        "params": {
          "shard": "The shard, whose validity is to be checked for.",
          "time": "The timestamp to be checked for."
        }
      },
      "split(bytes32,uint256,uint256,address)": {
        "notice": "Splits a currently valid shard into two new ones. One is assigned to the receiver. The rest to the previous owner.",
        "params": {
          "denominator": "Denominator of the absolute fraction, which will be subtracted from the previous shard and sent to the receiver.",
          "numerator": "Numerator of the absolute fraction, which will be subtracted from the previous shard and sent to the receiver.",
          "senderShard": "The shard to be split.",
          "to": "The receiver of the new Shard."
        }
      },
      "transferShard(bytes32,address)": {
        "notice": "Sends a whole shard to a receiver.",
        "params": {
          "senderShard": "The shard to be transferred.",
          "to": "The receiver of the new Shard."
        }
      }
    },
    "notice": "This contract is used to fractionalize a non-fungible token. Be aware that a sell transfers a service fee of 2.5% to Counekt.",
    "title": "A shardable/fractional non-fungible token that can be fractually owned via Shards.",
    "version": 1
  },
  "opcodes": "PUSH1 0x80 PUSH1 0x40 MSTORE PUSH1 0x4 CALLDATASIZE LT PUSH2 0xB2 JUMPI PUSH1 0x0 CALLDATALOAD PUSH1 0xE0 SHR DUP1 PUSH4 0xBCEDB2E0 GT PUSH2 0x6F JUMPI DUP1 PUSH4 0xBCEDB2E0 EQ PUSH2 0x1B6 JUMPI DUP1 PUSH4 0xC4802EB2 EQ PUSH2 0x232 JUMPI DUP1 PUSH4 0xCC445611 EQ PUSH2 0x25F JUMPI DUP1 PUSH4 0xD0B8B542 EQ PUSH2 0x272 JUMPI DUP1 PUSH4 0xE1C34C1F EQ PUSH2 0x29F JUMPI DUP1 PUSH4 0xF9983896 EQ PUSH2 0x2BF JUMPI DUP1 PUSH4 0xFD06636B EQ PUSH2 0x2DF JUMPI PUSH1 0x0 DUP1 REVERT JUMPDEST DUP1 PUSH4 0x2FB0C5E EQ PUSH2 0xB7 JUMPI DUP1 PUSH4 0xBEA8985 EQ PUSH2 0xE6 JUMPI DUP1 PUSH4 0x4F52A71E EQ PUSH2 0x108 JUMPI DUP1 PUSH4 0x7B785493 EQ PUSH2 0x128 JUMPI DUP1 PUSH4 0x8D7844A6 EQ PUSH2 0x166 JUMPI DUP1 PUSH4 0x9995B9A9 EQ PUSH2 0x186 JUMPI JUMPDEST PUSH1 0x0 DUP1 REVERT JUMPDEST CALLVALUE DUP1 ISZERO PUSH2 0xC3 JUMPI PUSH1 0x0 DUP1 REVERT JUMPDEST POP PUSH1 0x1 SLOAD PUSH2 0xD1 SWAP1 PUSH1 0xFF AND DUP2 JUMP JUMPDEST PUSH1 0x40 MLOAD SWAP1 ISZERO ISZERO DUP2 MSTORE PUSH1 0x20 ADD JUMPDEST PUSH1 0x40 MLOAD DUP1 SWAP2 SUB SWAP1 RETURN JUMPDEST CALLVALUE DUP1 ISZERO PUSH2 0xF2 JUMPI PUSH1 0x0 DUP1 REVERT JUMPDEST POP PUSH2 0x106 PUSH2 0x101 CALLDATASIZE PUSH1 0x4 PUSH2 0x1367 JUMP JUMPDEST PUSH2 0x2FF JUMP JUMPDEST STOP JUMPDEST CALLVALUE DUP1 ISZERO PUSH2 0x114 JUMPI PUSH1 0x0 DUP1 REVERT JUMPDEST POP PUSH2 0x106 PUSH2 0x123 CALLDATASIZE PUSH1 0x4 PUSH2 0x139C JUMP JUMPDEST PUSH2 0x3B6 JUMP JUMPDEST CALLVALUE DUP1 ISZERO PUSH2 0x134 JUMPI PUSH1 0x0 DUP1 REVERT JUMPDEST POP PUSH2 0x158 PUSH2 0x143 CALLDATASIZE PUSH1 0x4 PUSH2 0x1367 JUMP JUMPDEST PUSH1 0x0 SWAP1 DUP2 MSTORE PUSH1 0x5 PUSH1 0x20 MSTORE PUSH1 0x40 SWAP1 KECCAK256 PUSH1 0x3 ADD SLOAD SWAP1 JUMP JUMPDEST PUSH1 0x40 MLOAD SWAP1 DUP2 MSTORE PUSH1 0x20 ADD PUSH2 0xDD JUMP JUMPDEST CALLVALUE DUP1 ISZERO PUSH2 0x172 JUMPI PUSH1 0x0 DUP1 REVERT JUMPDEST POP PUSH2 0x106 PUSH2 0x181 CALLDATASIZE PUSH1 0x4 PUSH2 0x13C8 JUMP JUMPDEST PUSH2 0x438 JUMP JUMPDEST CALLVALUE DUP1 ISZERO PUSH2 0x192 JUMPI PUSH1 0x0 DUP1 REVERT JUMPDEST POP PUSH2 0xD1 PUSH2 0x1A1 CALLDATASIZE PUSH1 0x4 PUSH2 0x1367 JUMP JUMPDEST PUSH1 0x0 DUP1 SLOAD SWAP2 DUP2 MSTORE PUSH1 0x6 PUSH1 0x20 MSTORE PUSH1 0x40 SWAP1 KECCAK256 SLOAD GT SWAP1 JUMP JUMPDEST CALLVALUE DUP1 ISZERO PUSH2 0x1C2 JUMPI PUSH1 0x0 DUP1 REVERT JUMPDEST POP PUSH2 0x203 PUSH2 0x1D1 CALLDATASIZE PUSH1 0x4 PUSH2 0x1367 JUMP JUMPDEST PUSH1 0x2 PUSH1 0x20 DUP2 SWAP1 MSTORE PUSH1 0x0 SWAP2 DUP3 MSTORE PUSH1 0x40 SWAP1 SWAP2 KECCAK256 DUP1 SLOAD PUSH1 0x1 DUP3 ADD SLOAD SWAP3 DUP3 ADD SLOAD PUSH1 0x3 SWAP1 SWAP3 ADD SLOAD SWAP1 SWAP3 SWAP2 PUSH1 0x1 PUSH1 0x1 PUSH1 0xA0 SHL SUB AND SWAP1 DUP5 JUMP JUMPDEST PUSH1 0x40 MLOAD PUSH2 0xDD SWAP5 SWAP4 SWAP3 SWAP2 SWAP1 SWAP4 DUP5 MSTORE PUSH1 0x20 DUP5 ADD SWAP3 SWAP1 SWAP3 MSTORE PUSH1 0x1 PUSH1 0x1 PUSH1 0xA0 SHL SUB AND PUSH1 0x40 DUP4 ADD MSTORE PUSH1 0x60 DUP3 ADD MSTORE PUSH1 0x80 ADD SWAP1 JUMP JUMPDEST CALLVALUE DUP1 ISZERO PUSH2 0x23E JUMPI PUSH1 0x0 DUP1 REVERT JUMPDEST POP PUSH2 0x158 PUSH2 0x24D CALLDATASIZE PUSH1 0x4 PUSH2 0x1407 JUMP JUMPDEST PUSH1 0x3 PUSH1 0x20 MSTORE PUSH1 0x0 SWAP1 DUP2 MSTORE PUSH1 0x40 SWAP1 KECCAK256 SLOAD DUP2 JUMP JUMPDEST PUSH2 0x106 PUSH2 0x26D CALLDATASIZE PUSH1 0x4 PUSH2 0x1367 JUMP JUMPDEST PUSH2 0x4BE JUMP JUMPDEST CALLVALUE DUP1 ISZERO PUSH2 0x27E JUMPI PUSH1 0x0 DUP1 REVERT JUMPDEST POP PUSH2 0x158 PUSH2 0x28D CALLDATASIZE PUSH1 0x4 PUSH2 0x1367 JUMP JUMPDEST PUSH1 0x0 SWAP1 DUP2 MSTORE PUSH1 0x6 PUSH1 0x20 MSTORE PUSH1 0x40 SWAP1 KECCAK256 SLOAD SWAP1 JUMP JUMPDEST CALLVALUE DUP1 ISZERO PUSH2 0x2AB JUMPI PUSH1 0x0 DUP1 REVERT JUMPDEST POP PUSH2 0xD1 PUSH2 0x2BA CALLDATASIZE PUSH1 0x4 PUSH2 0x1407 JUMP JUMPDEST PUSH2 0xA4D JUMP JUMPDEST CALLVALUE DUP1 ISZERO PUSH2 0x2CB JUMPI PUSH1 0x0 DUP1 REVERT JUMPDEST POP PUSH2 0x106 PUSH2 0x2DA CALLDATASIZE PUSH1 0x4 PUSH2 0x1422 JUMP JUMPDEST PUSH2 0xA85 JUMP JUMPDEST CALLVALUE DUP1 ISZERO PUSH2 0x2EB JUMPI PUSH1 0x0 DUP1 REVERT JUMPDEST POP PUSH2 0xD1 PUSH2 0x2FA CALLDATASIZE PUSH1 0x4 PUSH2 0x147A JUMP JUMPDEST PUSH2 0xB0F JUMP JUMPDEST PUSH1 0x0 DUP2 DUP2 MSTORE PUSH1 0x2 PUSH1 0x20 DUP2 SWAP1 MSTORE PUSH1 0x40 SWAP1 SWAP2 KECCAK256 ADD SLOAD DUP2 SWAP1 PUSH1 0x1 PUSH1 0x1 PUSH1 0xA0 SHL SUB AND CALLER EQ PUSH2 0x344 JUMPI PUSH1 0x40 MLOAD PUSH3 0x461BCD PUSH1 0xE5 SHL DUP2 MSTORE PUSH1 0x4 ADD PUSH2 0x33B SWAP1 PUSH2 0x149C JUMP JUMPDEST PUSH1 0x40 MLOAD DUP1 SWAP2 SUB SWAP1 REVERT JUMPDEST DUP2 PUSH2 0x35E DUP2 PUSH1 0x0 DUP1 SLOAD SWAP2 DUP2 MSTORE PUSH1 0x6 PUSH1 0x20 MSTORE PUSH1 0x40 SWAP1 KECCAK256 SLOAD GT SWAP1 JUMP JUMPDEST PUSH2 0x37A JUMPI PUSH1 0x40 MLOAD PUSH3 0x461BCD PUSH1 0xE5 SHL DUP2 MSTORE PUSH1 0x4 ADD PUSH2 0x33B SWAP1 PUSH2 0x14B8 JUMP JUMPDEST PUSH1 0x0 DUP4 DUP2 MSTORE PUSH1 0x4 PUSH1 0x20 MSTORE PUSH1 0x40 SWAP1 KECCAK256 SLOAD PUSH1 0xFF AND PUSH2 0x3A8 JUMPI PUSH1 0x40 MLOAD PUSH3 0x461BCD PUSH1 0xE5 SHL DUP2 MSTORE PUSH1 0x4 ADD PUSH2 0x33B SWAP1 PUSH2 0x14D4 JUMP JUMPDEST PUSH2 0x3B1 DUP4 PUSH2 0xB44 JUMP JUMPDEST POP POP POP JUMP JUMPDEST PUSH1 0x0 DUP3 DUP2 MSTORE PUSH1 0x2 PUSH1 0x20 DUP2 SWAP1 MSTORE PUSH1 0x40 SWAP1 SWAP2 KECCAK256 ADD SLOAD DUP3 SWAP1 PUSH1 0x1 PUSH1 0x1 PUSH1 0xA0 SHL SUB AND CALLER EQ PUSH2 0x3F2 JUMPI PUSH1 0x40 MLOAD PUSH3 0x461BCD PUSH1 0xE5 SHL DUP2 MSTORE PUSH1 0x4 ADD PUSH2 0x33B SWAP1 PUSH2 0x149C JUMP JUMPDEST DUP3 PUSH2 0x40C DUP2 PUSH1 0x0 DUP1 SLOAD SWAP2 DUP2 MSTORE PUSH1 0x6 PUSH1 0x20 MSTORE PUSH1 0x40 SWAP1 KECCAK256 SLOAD GT SWAP1 JUMP JUMPDEST PUSH2 0x428 JUMPI PUSH1 0x40 MLOAD PUSH3 0x461BCD PUSH1 0xE5 SHL DUP2 MSTORE PUSH1 0x4 ADD PUSH2 0x33B SWAP1 PUSH2 0x14B8 JUMP JUMPDEST PUSH2 0x432 DUP5 DUP5 PUSH2 0xB93 JUMP JUMPDEST POP POP POP POP JUMP JUMPDEST PUSH1 0x0 DUP5 DUP2 MSTORE PUSH1 0x2 PUSH1 0x20 DUP2 SWAP1 MSTORE PUSH1 0x40 SWAP1 SWAP2 KECCAK256 ADD SLOAD DUP5 SWAP1 PUSH1 0x1 PUSH1 0x1 PUSH1 0xA0 SHL SUB AND CALLER EQ PUSH2 0x474 JUMPI PUSH1 0x40 MLOAD PUSH3 0x461BCD PUSH1 0xE5 SHL DUP2 MSTORE PUSH1 0x4 ADD PUSH2 0x33B SWAP1 PUSH2 0x149C JUMP JUMPDEST DUP5 PUSH2 0x48E DUP2 PUSH1 0x0 DUP1 SLOAD SWAP2 DUP2 MSTORE PUSH1 0x6 PUSH1 0x20 MSTORE PUSH1 0x40 SWAP1 KECCAK256 SLOAD GT SWAP1 JUMP JUMPDEST PUSH2 0x4AA JUMPI PUSH1 0x40 MLOAD PUSH3 0x461BCD PUSH1 0xE5 SHL DUP2 MSTORE PUSH1 0x4 ADD PUSH2 0x33B SWAP1 PUSH2 0x14B8 JUMP JUMPDEST PUSH2 0x4B6 DUP7 DUP7 DUP7 DUP7 PUSH2 0xD1D JUMP JUMPDEST POP POP POP POP POP POP JUMP JUMPDEST DUP1 PUSH2 0x4D8 DUP2 PUSH1 0x0 DUP1 SLOAD SWAP2 DUP2 MSTORE PUSH1 0x6 PUSH1 0x20 MSTORE PUSH1 0x40 SWAP1 KECCAK256 SLOAD GT SWAP1 JUMP JUMPDEST PUSH2 0x4F4 JUMPI PUSH1 0x40 MLOAD PUSH3 0x461BCD PUSH1 0xE5 SHL DUP2 MSTORE PUSH1 0x4 ADD PUSH2 0x33B SWAP1 PUSH2 0x14B8 JUMP JUMPDEST PUSH1 0x0 DUP3 DUP2 MSTORE PUSH1 0x4 PUSH1 0x20 MSTORE PUSH1 0x40 SWAP1 KECCAK256 SLOAD PUSH1 0xFF AND PUSH2 0x522 JUMPI PUSH1 0x40 MLOAD PUSH3 0x461BCD PUSH1 0xE5 SHL DUP2 MSTORE PUSH1 0x4 ADD PUSH2 0x33B SWAP1 PUSH2 0x14D4 JUMP JUMPDEST PUSH1 0x0 DUP3 DUP2 MSTORE PUSH1 0x5 PUSH1 0x20 MSTORE PUSH1 0x40 SWAP1 KECCAK256 PUSH1 0x4 ADD SLOAD PUSH1 0x1 PUSH1 0x1 PUSH1 0xA0 SHL SUB AND CALLER EQ DUP1 PUSH2 0x562 JUMPI POP PUSH1 0x0 DUP3 DUP2 MSTORE PUSH1 0x5 PUSH1 0x20 MSTORE PUSH1 0x40 SWAP1 KECCAK256 PUSH1 0x4 ADD SLOAD PUSH1 0x1 PUSH1 0x1 PUSH1 0xA0 SHL SUB AND ISZERO JUMPDEST PUSH2 0x593 JUMPI PUSH1 0x40 MLOAD PUSH3 0x461BCD PUSH1 0xE5 SHL DUP2 MSTORE PUSH1 0x20 PUSH1 0x4 DUP3 ADD MSTORE PUSH1 0x2 PUSH1 0x24 DUP3 ADD MSTORE PUSH2 0x29A9 PUSH1 0xF1 SHL PUSH1 0x44 DUP3 ADD MSTORE PUSH1 0x64 ADD PUSH2 0x33B JUMP JUMPDEST PUSH2 0x59C DUP3 PUSH2 0xB44 JUMP JUMPDEST PUSH1 0x0 DUP3 DUP2 MSTORE PUSH1 0x5 PUSH1 0x20 MSTORE PUSH1 0x40 DUP2 KECCAK256 PUSH1 0x3 ADD SLOAD DUP2 SWAP1 DUP2 SWAP1 PUSH2 0x5C0 SWAP1 PUSH1 0x19 PUSH2 0x3E8 PUSH2 0xF0A JUMP JUMPDEST SWAP2 SWAP5 POP SWAP3 POP SWAP1 POP PUSH2 0x5D1 DUP2 DUP4 PUSH2 0x1506 JUMP JUMPDEST PUSH1 0x0 DUP7 DUP2 MSTORE PUSH1 0x5 PUSH1 0x20 MSTORE PUSH1 0x40 SWAP1 KECCAK256 PUSH1 0x2 ADD SLOAD SWAP1 SWAP3 POP PUSH1 0x1 PUSH1 0x1 PUSH1 0xA0 SHL SUB AND PUSH2 0x743 JUMPI PUSH1 0x0 DUP6 DUP2 MSTORE PUSH1 0x5 PUSH1 0x20 MSTORE PUSH1 0x40 SWAP1 KECCAK256 PUSH1 0x3 ADD SLOAD CALLVALUE LT ISZERO PUSH2 0x639 JUMPI PUSH1 0x40 MLOAD PUSH3 0x461BCD PUSH1 0xE5 SHL DUP2 MSTORE PUSH1 0x20 PUSH1 0x4 DUP3 ADD MSTORE PUSH1 0x2 PUSH1 0x24 DUP3 ADD MSTORE PUSH2 0x4945 PUSH1 0xF0 SHL PUSH1 0x44 DUP3 ADD MSTORE PUSH1 0x64 ADD PUSH2 0x33B JUMP JUMPDEST PUSH1 0x40 MLOAD PUSH1 0x0 SWAP1 PUSH20 0x49A71890AEA5A751E30E740C504F2E9683F347BC SWAP1 DUP6 SWAP1 DUP4 DUP2 DUP2 DUP2 DUP6 DUP8 GAS CALL SWAP3 POP POP POP RETURNDATASIZE DUP1 PUSH1 0x0 DUP2 EQ PUSH2 0x68F JUMPI PUSH1 0x40 MLOAD SWAP2 POP PUSH1 0x1F NOT PUSH1 0x3F RETURNDATASIZE ADD AND DUP3 ADD PUSH1 0x40 MSTORE RETURNDATASIZE DUP3 MSTORE RETURNDATASIZE PUSH1 0x0 PUSH1 0x20 DUP5 ADD RETURNDATACOPY PUSH2 0x694 JUMP JUMPDEST PUSH1 0x60 SWAP2 POP JUMPDEST POP POP PUSH1 0x0 DUP8 DUP2 MSTORE PUSH1 0x2 PUSH1 0x20 DUP2 SWAP1 MSTORE PUSH1 0x40 DUP1 DUP4 KECCAK256 SWAP1 SWAP2 ADD SLOAD SWAP1 MLOAD SWAP3 SWAP4 POP SWAP1 SWAP2 PUSH1 0x1 PUSH1 0x1 PUSH1 0xA0 SHL SUB SWAP1 SWAP2 AND SWAP1 DUP6 SWAP1 DUP4 DUP2 DUP2 DUP2 DUP6 DUP8 GAS CALL SWAP3 POP POP POP RETURNDATASIZE DUP1 PUSH1 0x0 DUP2 EQ PUSH2 0x6F8 JUMPI PUSH1 0x40 MLOAD SWAP2 POP PUSH1 0x1F NOT PUSH1 0x3F RETURNDATASIZE ADD AND DUP3 ADD PUSH1 0x40 MSTORE RETURNDATASIZE DUP3 MSTORE RETURNDATASIZE PUSH1 0x0 PUSH1 0x20 DUP5 ADD RETURNDATACOPY PUSH2 0x6FD JUMP JUMPDEST PUSH1 0x60 SWAP2 POP JUMPDEST POP POP SWAP1 POP DUP1 DUP1 ISZERO PUSH2 0x70B JUMPI POP DUP2 JUMPDEST PUSH2 0x73C JUMPI PUSH1 0x40 MLOAD PUSH3 0x461BCD PUSH1 0xE5 SHL DUP2 MSTORE PUSH1 0x20 PUSH1 0x4 DUP3 ADD MSTORE PUSH1 0x2 PUSH1 0x24 DUP3 ADD MSTORE PUSH2 0x2A23 PUSH1 0xF1 SHL PUSH1 0x44 DUP3 ADD MSTORE PUSH1 0x64 ADD PUSH2 0x33B JUMP JUMPDEST POP POP PUSH2 0x914 JUMP JUMPDEST PUSH1 0x0 DUP6 DUP2 MSTORE PUSH1 0x5 PUSH1 0x20 MSTORE PUSH1 0x40 SWAP1 DUP2 SWAP1 KECCAK256 PUSH1 0x2 DUP2 ADD SLOAD PUSH1 0x3 SWAP1 SWAP2 ADD SLOAD SWAP2 MLOAD PUSH4 0x6EB1769F PUSH1 0xE1 SHL DUP2 MSTORE CALLER PUSH1 0x4 DUP3 ADD MSTORE ADDRESS PUSH1 0x24 DUP3 ADD MSTORE PUSH1 0x1 PUSH1 0x1 PUSH1 0xA0 SHL SUB SWAP1 SWAP2 AND SWAP2 SWAP1 DUP3 SWAP1 PUSH4 0xDD62ED3E SWAP1 PUSH1 0x44 ADD PUSH1 0x20 PUSH1 0x40 MLOAD DUP1 DUP4 SUB DUP2 DUP7 GAS STATICCALL ISZERO DUP1 ISZERO PUSH2 0x7AB JUMPI RETURNDATASIZE PUSH1 0x0 DUP1 RETURNDATACOPY RETURNDATASIZE PUSH1 0x0 REVERT JUMPDEST POP POP POP POP PUSH1 0x40 MLOAD RETURNDATASIZE PUSH1 0x1F NOT PUSH1 0x1F DUP3 ADD AND DUP3 ADD DUP1 PUSH1 0x40 MSTORE POP DUP2 ADD SWAP1 PUSH2 0x7CF SWAP2 SWAP1 PUSH2 0x1519 JUMP JUMPDEST LT ISZERO PUSH2 0x802 JUMPI PUSH1 0x40 MLOAD PUSH3 0x461BCD PUSH1 0xE5 SHL DUP2 MSTORE PUSH1 0x20 PUSH1 0x4 DUP3 ADD MSTORE PUSH1 0x2 PUSH1 0x24 DUP3 ADD MSTORE PUSH2 0x1255 PUSH1 0xF2 SHL PUSH1 0x44 DUP3 ADD MSTORE PUSH1 0x64 ADD PUSH2 0x33B JUMP JUMPDEST PUSH1 0x40 MLOAD PUSH4 0x23B872DD PUSH1 0xE0 SHL DUP2 MSTORE PUSH1 0x1 PUSH1 0x1 PUSH1 0xA0 SHL SUB DUP3 AND SWAP1 PUSH4 0x23B872DD SWAP1 PUSH2 0x846 SWAP1 CALLER SWAP1 PUSH20 0x49A71890AEA5A751E30E740C504F2E9683F347BC SWAP1 DUP10 SWAP1 PUSH1 0x4 ADD PUSH2 0x1532 JUMP JUMPDEST PUSH1 0x20 PUSH1 0x40 MLOAD DUP1 DUP4 SUB DUP2 PUSH1 0x0 DUP8 GAS CALL ISZERO DUP1 ISZERO PUSH2 0x865 JUMPI RETURNDATASIZE PUSH1 0x0 DUP1 RETURNDATACOPY RETURNDATASIZE PUSH1 0x0 REVERT JUMPDEST POP POP POP POP PUSH1 0x40 MLOAD RETURNDATASIZE PUSH1 0x1F NOT PUSH1 0x1F DUP3 ADD AND DUP3 ADD DUP1 PUSH1 0x40 MSTORE POP DUP2 ADD SWAP1 PUSH2 0x889 SWAP2 SWAP1 PUSH2 0x1556 JUMP JUMPDEST POP PUSH1 0x0 DUP7 DUP2 MSTORE PUSH1 0x2 PUSH1 0x20 DUP2 SWAP1 MSTORE PUSH1 0x40 SWAP2 DUP3 SWAP1 KECCAK256 ADD SLOAD SWAP1 MLOAD PUSH4 0x23B872DD PUSH1 0xE0 SHL DUP2 MSTORE PUSH1 0x1 PUSH1 0x1 PUSH1 0xA0 SHL SUB DUP1 DUP5 AND SWAP3 PUSH4 0x23B872DD SWAP3 PUSH2 0x8CE SWAP3 CALLER SWAP3 AND SWAP1 DUP9 SWAP1 PUSH1 0x4 ADD PUSH2 0x1532 JUMP JUMPDEST PUSH1 0x20 PUSH1 0x40 MLOAD DUP1 DUP4 SUB DUP2 PUSH1 0x0 DUP8 GAS CALL ISZERO DUP1 ISZERO PUSH2 0x8ED JUMPI RETURNDATASIZE PUSH1 0x0 DUP1 RETURNDATACOPY RETURNDATASIZE PUSH1 0x0 REVERT JUMPDEST POP POP POP POP PUSH1 0x40 MLOAD RETURNDATASIZE PUSH1 0x1F NOT PUSH1 0x1F DUP3 ADD AND DUP3 ADD DUP1 PUSH1 0x40 MSTORE POP DUP2 ADD SWAP1 PUSH2 0x911 SWAP2 SWAP1 PUSH2 0x1556 JUMP JUMPDEST POP POP JUMPDEST PUSH1 0x0 DUP6 DUP2 MSTORE PUSH1 0x5 PUSH1 0x20 MSTORE PUSH1 0x40 SWAP1 KECCAK256 SLOAD ISZERO DUP1 ISZERO SWAP1 PUSH2 0x941 JUMPI POP PUSH1 0x0 DUP6 DUP2 MSTORE PUSH1 0x5 PUSH1 0x20 MSTORE PUSH1 0x40 SWAP1 KECCAK256 PUSH1 0x1 ADD SLOAD ISZERO ISZERO JUMPDEST PUSH2 0x972 JUMPI PUSH1 0x40 MLOAD PUSH3 0x461BCD PUSH1 0xE5 SHL DUP2 MSTORE PUSH1 0x20 PUSH1 0x4 DUP3 ADD MSTORE PUSH1 0x2 PUSH1 0x24 DUP3 ADD MSTORE PUSH2 0x4553 PUSH1 0xF0 SHL PUSH1 0x44 DUP3 ADD MSTORE PUSH1 0x64 ADD PUSH2 0x33B JUMP JUMPDEST PUSH1 0x0 DUP6 DUP2 MSTORE PUSH1 0x2 PUSH1 0x20 SWAP1 DUP2 MSTORE PUSH1 0x40 DUP1 DUP4 KECCAK256 DUP1 SLOAD PUSH1 0x1 SWAP2 DUP3 ADD SLOAD PUSH1 0x5 SWAP1 SWAP5 MSTORE SWAP2 SWAP1 SWAP4 KECCAK256 DUP1 SLOAD SWAP4 ADD SLOAD PUSH2 0x9A6 SWAP4 SWAP2 SWAP3 SWAP2 SWAP1 PUSH2 0xF7E JUMP JUMPDEST ISZERO PUSH2 0x9BA JUMPI PUSH2 0x9B5 DUP6 CALLER PUSH2 0xB93 JUMP JUMPDEST PUSH2 0x9DC JUMP JUMPDEST PUSH1 0x0 DUP6 DUP2 MSTORE PUSH1 0x5 PUSH1 0x20 MSTORE PUSH1 0x40 SWAP1 KECCAK256 DUP1 SLOAD PUSH1 0x1 SWAP1 SWAP2 ADD SLOAD PUSH2 0x9DC SWAP2 DUP8 SWAP2 CALLER PUSH2 0xD1D JUMP JUMPDEST PUSH1 0x0 DUP6 DUP2 MSTORE PUSH1 0x5 PUSH1 0x20 MSTORE PUSH1 0x40 SWAP1 DUP2 SWAP1 KECCAK256 DUP1 SLOAD PUSH1 0x1 DUP3 ADD SLOAD PUSH1 0x2 DUP4 ADD SLOAD PUSH1 0x3 SWAP1 SWAP4 ADD SLOAD SWAP4 MLOAD PUSH32 0x86D5A30B627B7D52F998C20AB46ABE9FBE1C7C4863CD3259D09E7C22072DC1C1 SWAP5 PUSH2 0xA3E SWAP5 DUP12 SWAP5 SWAP4 SWAP3 PUSH1 0x1 PUSH1 0x1 PUSH1 0xA0 SHL SUB SWAP1 SWAP2 AND SWAP2 SWAP1 CALLER SWAP1 PUSH2 0x1578 JUMP JUMPDEST PUSH1 0x40 MLOAD DUP1 SWAP2 SUB SWAP1 LOG1 POP POP POP POP POP JUMP JUMPDEST PUSH1 0x1 PUSH1 0x1 PUSH1 0xA0 SHL SUB DUP2 AND PUSH1 0x0 SWAP1 DUP2 MSTORE PUSH1 0x3 PUSH1 0x20 MSTORE PUSH1 0x40 DUP2 KECCAK256 SLOAD PUSH2 0xA7F SWAP1 PUSH1 0x0 DUP1 SLOAD SWAP2 DUP2 MSTORE PUSH1 0x6 PUSH1 0x20 MSTORE PUSH1 0x40 SWAP1 KECCAK256 SLOAD GT SWAP1 JUMP JUMPDEST SWAP3 SWAP2 POP POP JUMP JUMPDEST PUSH1 0x0 DUP7 DUP2 MSTORE PUSH1 0x2 PUSH1 0x20 DUP2 SWAP1 MSTORE PUSH1 0x40 SWAP1 SWAP2 KECCAK256 ADD SLOAD DUP7 SWAP1 PUSH1 0x1 PUSH1 0x1 PUSH1 0xA0 SHL SUB AND CALLER EQ PUSH2 0xAC1 JUMPI PUSH1 0x40 MLOAD PUSH3 0x461BCD PUSH1 0xE5 SHL DUP2 MSTORE PUSH1 0x4 ADD PUSH2 0x33B SWAP1 PUSH2 0x149C JUMP JUMPDEST DUP7 PUSH2 0xADB DUP2 PUSH1 0x0 DUP1 SLOAD SWAP2 DUP2 MSTORE PUSH1 0x6 PUSH1 0x20 MSTORE PUSH1 0x40 SWAP1 KECCAK256 SLOAD GT SWAP1 JUMP JUMPDEST PUSH2 0xAF7 JUMPI PUSH1 0x40 MLOAD PUSH3 0x461BCD PUSH1 0xE5 SHL DUP2 MSTORE PUSH1 0x4 ADD PUSH2 0x33B SWAP1 PUSH2 0x14B8 JUMP JUMPDEST PUSH2 0xB05 DUP9 DUP9 DUP9 DUP9 DUP9 DUP9 PUSH2 0xF97 JUMP JUMPDEST POP POP POP POP POP POP POP POP JUMP JUMPDEST PUSH1 0x0 DUP3 DUP2 MSTORE PUSH1 0x2 PUSH1 0x20 MSTORE PUSH1 0x40 DUP2 KECCAK256 PUSH1 0x3 ADD SLOAD DUP3 LT DUP1 ISZERO SWAP1 PUSH2 0xB3D JUMPI POP PUSH1 0x0 DUP4 DUP2 MSTORE PUSH1 0x6 PUSH1 0x20 MSTORE PUSH1 0x40 SWAP1 KECCAK256 SLOAD DUP3 LT JUMPDEST SWAP4 SWAP3 POP POP POP JUMP JUMPDEST DUP1 PUSH2 0xB5E DUP2 PUSH1 0x0 DUP1 SLOAD SWAP2 DUP2 MSTORE PUSH1 0x6 PUSH1 0x20 MSTORE PUSH1 0x40 SWAP1 KECCAK256 SLOAD GT SWAP1 JUMP JUMPDEST PUSH2 0xB7A JUMPI PUSH1 0x40 MLOAD PUSH3 0x461BCD PUSH1 0xE5 SHL DUP2 MSTORE PUSH1 0x4 ADD PUSH2 0x33B SWAP1 PUSH2 0x14B8 JUMP JUMPDEST POP PUSH1 0x0 SWAP1 DUP2 MSTORE PUSH1 0x4 PUSH1 0x20 MSTORE PUSH1 0x40 SWAP1 KECCAK256 DUP1 SLOAD PUSH1 0xFF NOT AND SWAP1 SSTORE JUMP JUMPDEST DUP2 PUSH2 0xBAD DUP2 PUSH1 0x0 DUP1 SLOAD SWAP2 DUP2 MSTORE PUSH1 0x6 PUSH1 0x20 MSTORE PUSH1 0x40 SWAP1 KECCAK256 SLOAD GT SWAP1 JUMP JUMPDEST PUSH2 0xBC9 JUMPI PUSH1 0x40 MLOAD PUSH3 0x461BCD PUSH1 0xE5 SHL DUP2 MSTORE PUSH1 0x4 ADD PUSH2 0x33B SWAP1 PUSH2 0x14B8 JUMP JUMPDEST PUSH1 0x1 DUP1 SLOAD PUSH1 0xFF AND ISZERO ISZERO EQ PUSH2 0xBEF JUMPI PUSH1 0x40 MLOAD PUSH3 0x461BCD PUSH1 0xE5 SHL DUP2 MSTORE PUSH1 0x4 ADD PUSH2 0x33B SWAP1 PUSH2 0x15AF JUMP JUMPDEST PUSH1 0x0 SLOAD PUSH2 0xBFB DUP4 PUSH2 0xA4D JUMP JUMPDEST ISZERO PUSH2 0xC90 JUMPI PUSH1 0x1 PUSH1 0x1 PUSH1 0xA0 SHL SUB DUP4 AND PUSH1 0x0 SWAP1 DUP2 MSTORE PUSH1 0x3 PUSH1 0x20 MSTORE PUSH1 0x40 SWAP1 KECCAK256 SLOAD PUSH2 0xC30 SWAP1 DUP3 PUSH1 0x0 SWAP2 DUP3 MSTORE PUSH1 0x6 PUSH1 0x20 MSTORE PUSH1 0x40 SWAP1 SWAP2 KECCAK256 SSTORE JUMP JUMPDEST PUSH1 0x0 DUP5 DUP2 MSTORE PUSH1 0x2 PUSH1 0x20 DUP2 DUP2 MSTORE PUSH1 0x40 DUP1 DUP5 KECCAK256 DUP1 SLOAD PUSH1 0x1 SWAP2 DUP3 ADD SLOAD PUSH1 0x1 PUSH1 0x1 PUSH1 0xA0 SHL SUB DUP11 AND DUP8 MSTORE PUSH1 0x3 DUP6 MSTORE DUP4 DUP8 KECCAK256 SLOAD DUP8 MSTORE SWAP5 SWAP1 SWAP4 MSTORE SWAP1 DUP5 KECCAK256 DUP1 SLOAD SWAP2 ADD SLOAD DUP5 SWAP4 PUSH2 0xC79 SWAP4 SWAP3 SWAP1 SWAP2 PUSH2 0x1189 JUMP JUMPDEST SWAP2 POP SWAP2 POP PUSH2 0xC89 DUP3 DUP3 DUP8 DUP7 PUSH2 0x11C5 JUMP JUMPDEST POP POP PUSH2 0xCB2 JUMP JUMPDEST PUSH1 0x0 DUP5 DUP2 MSTORE PUSH1 0x2 PUSH1 0x20 MSTORE PUSH1 0x40 SWAP1 KECCAK256 DUP1 SLOAD PUSH1 0x1 SWAP1 SWAP2 ADD SLOAD PUSH2 0xCB2 SWAP2 SWAP1 DUP6 DUP5 PUSH2 0x11C5 JUMP JUMPDEST PUSH1 0x0 DUP5 DUP2 MSTORE PUSH1 0x6 PUSH1 0x20 MSTORE PUSH1 0x40 SWAP1 KECCAK256 DUP2 SWAP1 SSTORE CALLER ADDRESS EQ PUSH2 0x432 JUMPI PUSH1 0x0 DUP5 DUP2 MSTORE PUSH1 0x2 PUSH1 0x20 MSTORE PUSH1 0x40 SWAP1 DUP2 SWAP1 KECCAK256 SLOAD SWAP1 MLOAD PUSH32 0xE9643EF80195846C85962C67DEED262D01C3CED15D351CFCA16AC0C82DAEB1C7 SWAP2 PUSH2 0xD0F SWAP2 DUP8 SWAP2 SWAP1 DUP2 SWAP1 DUP9 SWAP1 PUSH2 0x15CB JUMP JUMPDEST PUSH1 0x40 MLOAD DUP1 SWAP2 SUB SWAP1 LOG1 POP POP POP POP JUMP JUMPDEST DUP4 PUSH2 0xD37 DUP2 PUSH1 0x0 DUP1 SLOAD SWAP2 DUP2 MSTORE PUSH1 0x6 PUSH1 0x20 MSTORE PUSH1 0x40 SWAP1 KECCAK256 SLOAD GT SWAP1 JUMP JUMPDEST PUSH2 0xD53 JUMPI PUSH1 0x40 MLOAD PUSH3 0x461BCD PUSH1 0xE5 SHL DUP2 MSTORE PUSH1 0x4 ADD PUSH2 0x33B SWAP1 PUSH2 0x14B8 JUMP JUMPDEST PUSH1 0x1 DUP1 SLOAD PUSH1 0xFF AND ISZERO ISZERO EQ PUSH2 0xD79 JUMPI PUSH1 0x40 MLOAD PUSH3 0x461BCD PUSH1 0xE5 SHL DUP2 MSTORE PUSH1 0x4 ADD PUSH2 0x33B SWAP1 PUSH2 0x15AF JUMP JUMPDEST PUSH1 0x0 DUP6 DUP2 MSTORE PUSH1 0x2 PUSH1 0x20 MSTORE PUSH1 0x40 SWAP1 KECCAK256 PUSH1 0x1 DUP2 ADD SLOAD SWAP1 SLOAD PUSH2 0xD98 SWAP2 SWAP1 PUSH2 0x1605 JUMP JUMPDEST PUSH2 0xDA2 DUP5 DUP7 PUSH2 0x1605 JUMP JUMPDEST LT PUSH2 0xDBF JUMPI PUSH1 0x40 MLOAD PUSH3 0x461BCD PUSH1 0xE5 SHL DUP2 MSTORE PUSH1 0x4 ADD PUSH2 0x33B SWAP1 PUSH2 0x1619 JUMP JUMPDEST PUSH1 0x0 SLOAD PUSH2 0xDCB DUP4 PUSH2 0xA4D JUMP JUMPDEST ISZERO PUSH2 0xE51 JUMPI PUSH1 0x1 PUSH1 0x1 PUSH1 0xA0 SHL SUB DUP4 AND PUSH1 0x0 SWAP1 DUP2 MSTORE PUSH1 0x3 PUSH1 0x20 SWAP1 DUP2 MSTORE PUSH1 0x40 DUP1 DUP4 KECCAK256 SLOAD DUP4 MSTORE PUSH1 0x2 SWAP1 SWAP2 MSTORE DUP2 KECCAK256 DUP1 SLOAD PUSH1 0x1 SWAP1 SWAP2 ADD SLOAD DUP3 SWAP2 PUSH2 0xE0A SWAP2 DUP10 DUP10 PUSH2 0x1189 JUMP JUMPDEST SWAP2 POP SWAP2 POP PUSH2 0xE1A DUP3 DUP3 DUP8 DUP7 PUSH2 0x11C5 JUMP JUMPDEST PUSH1 0x1 PUSH1 0x1 PUSH1 0xA0 SHL SUB DUP6 AND PUSH1 0x0 SWAP1 DUP2 MSTORE PUSH1 0x3 PUSH1 0x20 MSTORE PUSH1 0x40 SWAP1 KECCAK256 SLOAD PUSH2 0xE4A SWAP1 DUP5 PUSH1 0x0 SWAP2 DUP3 MSTORE PUSH1 0x6 PUSH1 0x20 MSTORE PUSH1 0x40 SWAP1 SWAP2 KECCAK256 SSTORE JUMP JUMPDEST POP POP PUSH2 0xE5D JUMP JUMPDEST PUSH2 0xE5D DUP6 DUP6 DUP6 DUP5 PUSH2 0x11C5 JUMP JUMPDEST PUSH1 0x0 DUP7 DUP2 MSTORE PUSH1 0x6 PUSH1 0x20 SWAP1 DUP2 MSTORE PUSH1 0x40 DUP1 DUP4 KECCAK256 DUP5 SWAP1 SSTORE PUSH1 0x2 SWAP1 SWAP2 MSTORE DUP2 KECCAK256 DUP1 SLOAD PUSH1 0x1 SWAP1 SWAP2 ADD SLOAD DUP3 SWAP2 PUSH2 0xE8D SWAP2 DUP10 DUP10 PUSH2 0x1287 JUMP JUMPDEST PUSH1 0x0 DUP11 DUP2 MSTORE PUSH1 0x2 PUSH1 0x20 DUP2 SWAP1 MSTORE PUSH1 0x40 SWAP1 SWAP2 KECCAK256 ADD SLOAD SWAP2 SWAP4 POP SWAP2 POP PUSH2 0xEBC SWAP1 DUP4 SWAP1 DUP4 SWAP1 PUSH1 0x1 PUSH1 0x1 PUSH1 0xA0 SHL SUB AND DUP7 PUSH2 0x11C5 JUMP JUMPDEST CALLER ADDRESS EQ PUSH2 0xB05 JUMPI PUSH32 0xE9643EF80195846C85962C67DEED262D01C3CED15D351CFCA16AC0C82DAEB1C7 DUP9 DUP9 DUP9 DUP9 PUSH1 0x40 MLOAD PUSH2 0xEF8 SWAP5 SWAP4 SWAP3 SWAP2 SWAP1 PUSH2 0x15CB JUMP JUMPDEST PUSH1 0x40 MLOAD DUP1 SWAP2 SUB SWAP1 LOG1 POP POP POP POP POP POP POP POP JUMP JUMPDEST PUSH1 0x0 DUP1 PUSH1 0x0 DUP5 DUP5 GT PUSH2 0xF1B JUMPI PUSH1 0x0 DUP1 REVERT JUMPDEST PUSH1 0x0 DUP5 PUSH2 0xF28 DUP8 DUP10 PUSH2 0x1635 JUMP JUMPDEST PUSH2 0xF32 SWAP2 SWAP1 PUSH2 0x1605 JUMP JUMPDEST SWAP1 POP PUSH1 0x0 DUP6 PUSH2 0xF41 DUP9 DUP3 PUSH2 0x164C JUMP JUMPDEST PUSH2 0xF4B SWAP1 DUP11 PUSH2 0x1635 JUMP JUMPDEST PUSH2 0xF55 SWAP2 SWAP1 PUSH2 0x1605 JUMP JUMPDEST SWAP1 POP DUP2 DUP2 PUSH2 0xF63 DUP2 DUP4 PUSH2 0x1506 JUMP JUMPDEST PUSH2 0xF6D SWAP1 DUP12 PUSH2 0x164C JUMP JUMPDEST SWAP5 POP SWAP5 POP SWAP5 POP POP POP SWAP4 POP SWAP4 POP SWAP4 SWAP1 POP JUMP JUMPDEST PUSH1 0x0 DUP3 DUP6 EQ DUP1 ISZERO PUSH2 0xF8E JUMPI POP DUP2 DUP5 EQ JUMPDEST SWAP6 SWAP5 POP POP POP POP POP JUMP JUMPDEST DUP6 PUSH2 0xFB1 DUP2 PUSH1 0x0 DUP1 SLOAD SWAP2 DUP2 MSTORE PUSH1 0x6 PUSH1 0x20 MSTORE PUSH1 0x40 SWAP1 KECCAK256 SLOAD GT SWAP1 JUMP JUMPDEST PUSH2 0xFCD JUMPI PUSH1 0x40 MLOAD PUSH3 0x461BCD PUSH1 0xE5 SHL DUP2 MSTORE PUSH1 0x4 ADD PUSH2 0x33B SWAP1 PUSH2 0x14B8 JUMP JUMPDEST PUSH1 0x1 DUP1 SLOAD PUSH1 0xFF AND ISZERO ISZERO EQ PUSH2 0xFF3 JUMPI PUSH1 0x40 MLOAD PUSH3 0x461BCD PUSH1 0xE5 SHL DUP2 MSTORE PUSH1 0x4 ADD PUSH2 0x33B SWAP1 PUSH2 0x15AF JUMP JUMPDEST PUSH1 0x0 DUP8 DUP2 MSTORE PUSH1 0x2 PUSH1 0x20 MSTORE PUSH1 0x40 SWAP1 KECCAK256 PUSH1 0x1 DUP2 ADD SLOAD SWAP1 SLOAD PUSH2 0x1012 SWAP2 SWAP1 PUSH2 0x1605 JUMP JUMPDEST PUSH2 0x101C DUP7 DUP9 PUSH2 0x1605 JUMP JUMPDEST GT ISZERO PUSH2 0x103A JUMPI PUSH1 0x40 MLOAD PUSH3 0x461BCD PUSH1 0xE5 SHL DUP2 MSTORE PUSH1 0x4 ADD PUSH2 0x33B SWAP1 PUSH2 0x1619 JUMP JUMPDEST PUSH2 0x1044 DUP7 DUP7 PUSH2 0x12B6 JUMP JUMPDEST DUP1 SWAP7 POP DUP2 SWAP8 POP POP POP PUSH1 0x40 MLOAD DUP1 PUSH1 0xA0 ADD PUSH1 0x40 MSTORE DUP1 DUP8 DUP2 MSTORE PUSH1 0x20 ADD DUP7 DUP2 MSTORE PUSH1 0x20 ADD DUP6 PUSH1 0x1 PUSH1 0x1 PUSH1 0xA0 SHL SUB AND DUP2 MSTORE PUSH1 0x20 ADD DUP5 DUP2 MSTORE PUSH1 0x20 ADD DUP4 PUSH1 0x1 PUSH1 0x1 PUSH1 0xA0 SHL SUB AND DUP2 MSTORE POP PUSH1 0x5 PUSH1 0x0 DUP10 DUP2 MSTORE PUSH1 0x20 ADD SWAP1 DUP2 MSTORE PUSH1 0x20 ADD PUSH1 0x0 KECCAK256 PUSH1 0x0 DUP3 ADD MLOAD DUP2 PUSH1 0x0 ADD SSTORE PUSH1 0x20 DUP3 ADD MLOAD DUP2 PUSH1 0x1 ADD SSTORE PUSH1 0x40 DUP3 ADD MLOAD DUP2 PUSH1 0x2 ADD PUSH1 0x0 PUSH2 0x100 EXP DUP2 SLOAD DUP2 PUSH1 0x1 PUSH1 0x1 PUSH1 0xA0 SHL SUB MUL NOT AND SWAP1 DUP4 PUSH1 0x1 PUSH1 0x1 PUSH1 0xA0 SHL SUB AND MUL OR SWAP1 SSTORE POP PUSH1 0x60 DUP3 ADD MLOAD DUP2 PUSH1 0x3 ADD SSTORE PUSH1 0x80 DUP3 ADD MLOAD DUP2 PUSH1 0x4 ADD PUSH1 0x0 PUSH2 0x100 EXP DUP2 SLOAD DUP2 PUSH1 0x1 PUSH1 0x1 PUSH1 0xA0 SHL SUB MUL NOT AND SWAP1 DUP4 PUSH1 0x1 PUSH1 0x1 PUSH1 0xA0 SHL SUB AND MUL OR SWAP1 SSTORE POP SWAP1 POP POP PUSH1 0x1 PUSH1 0x4 PUSH1 0x0 DUP10 DUP2 MSTORE PUSH1 0x20 ADD SWAP1 DUP2 MSTORE PUSH1 0x20 ADD PUSH1 0x0 KECCAK256 PUSH1 0x0 PUSH2 0x100 EXP DUP2 SLOAD DUP2 PUSH1 0xFF MUL NOT AND SWAP1 DUP4 ISZERO ISZERO MUL OR SWAP1 SSTORE POP PUSH32 0x4C4DCD7B4186FE1C900D89BC3C911766F63CF9C3570750481F0D89BFBCB75285 DUP8 DUP8 DUP8 DUP8 DUP8 DUP8 PUSH1 0x40 MLOAD PUSH2 0x1178 SWAP7 SWAP6 SWAP5 SWAP4 SWAP3 SWAP2 SWAP1 PUSH2 0x1578 JUMP JUMPDEST PUSH1 0x40 MLOAD DUP1 SWAP2 SUB SWAP1 LOG1 POP POP POP POP POP POP POP JUMP JUMPDEST PUSH1 0x0 DUP1 PUSH2 0x1196 DUP4 DUP8 PUSH2 0x1635 JUMP JUMPDEST SWAP6 POP PUSH2 0x11A2 DUP6 DUP6 PUSH2 0x1635 JUMP JUMPDEST SWAP4 POP PUSH2 0x11AE DUP5 DUP8 PUSH2 0x1506 JUMP JUMPDEST PUSH2 0x11B8 DUP5 DUP8 PUSH2 0x1635 JUMP JUMPDEST SWAP2 POP SWAP2 POP SWAP5 POP SWAP5 SWAP3 POP POP POP JUMP JUMPDEST PUSH1 0x40 MLOAD PUSH12 0xFFFFFFFFFFFFFFFFFFFFFFFF NOT PUSH1 0x60 DUP5 SWAP1 SHL AND PUSH1 0x20 DUP3 ADD MSTORE PUSH1 0x34 DUP2 ADD DUP3 SWAP1 MSTORE PUSH1 0x0 SWAP1 PUSH1 0x54 ADD PUSH1 0x40 DUP1 MLOAD DUP1 DUP4 SUB PUSH1 0x1F NOT ADD DUP2 MSTORE DUP3 DUP3 MSTORE DUP1 MLOAD PUSH1 0x20 SWAP2 DUP3 ADD KECCAK256 PUSH1 0x1 PUSH1 0x1 PUSH1 0xA0 SHL SUB SWAP7 DUP8 AND PUSH1 0x0 DUP2 DUP2 MSTORE PUSH1 0x3 DUP1 DUP6 MSTORE DUP6 DUP3 KECCAK256 DUP5 SWAP1 SSTORE DUP4 DUP3 MSTORE PUSH1 0x6 DUP6 MSTORE DUP6 DUP3 KECCAK256 PUSH1 0x0 NOT SWAP1 SSTORE PUSH1 0x80 DUP8 ADD DUP7 MSTORE SWAP11 DUP7 MSTORE DUP4 DUP7 ADD SWAP10 DUP11 MSTORE DUP6 DUP6 ADD SWAP2 DUP3 MSTORE PUSH1 0x60 DUP7 ADD SWAP8 DUP9 MSTORE SWAP2 DUP3 MSTORE PUSH1 0x2 SWAP3 DUP4 SWAP1 MSTORE SWAP3 SWAP1 KECCAK256 SWAP3 MLOAD DUP4 SSTORE SWAP6 MLOAD PUSH1 0x1 DUP4 ADD SSTORE MLOAD SWAP5 DUP2 ADD DUP1 SLOAD PUSH1 0x1 PUSH1 0x1 PUSH1 0xA0 SHL SUB NOT AND SWAP6 SWAP1 SWAP5 AND SWAP5 SWAP1 SWAP5 OR SWAP1 SWAP3 SSTORE MLOAD SWAP2 SWAP1 SWAP3 ADD SSTORE POP JUMP JUMPDEST PUSH1 0x0 DUP1 PUSH2 0x1294 DUP4 DUP8 PUSH2 0x1635 JUMP JUMPDEST SWAP6 POP PUSH2 0x12A0 DUP5 DUP7 PUSH2 0x1635 JUMP JUMPDEST SWAP5 POP PUSH2 0x12AC DUP6 DUP8 PUSH2 0x164C JUMP JUMPDEST PUSH2 0x11B8 DUP5 DUP7 PUSH2 0x1635 JUMP JUMPDEST PUSH1 0x0 DUP1 PUSH1 0x0 PUSH2 0x12C5 DUP6 DUP6 PUSH2 0x1342 JUMP JUMPDEST SWAP1 POP PUSH2 0x12D1 DUP2 DUP6 PUSH2 0x1605 JUMP JUMPDEST PUSH2 0x12DB DUP3 DUP8 PUSH2 0x1605 JUMP JUMPDEST PUSH2 0x12E5 SWAP2 SWAP1 PUSH2 0x1605 JUMP JUMPDEST PUSH2 0x12EF DUP6 DUP8 PUSH2 0x1605 JUMP JUMPDEST EQ PUSH2 0x1322 JUMPI PUSH1 0x40 MLOAD PUSH3 0x461BCD PUSH1 0xE5 SHL DUP2 MSTORE PUSH1 0x20 PUSH1 0x4 DUP3 ADD MSTORE PUSH1 0x3 PUSH1 0x24 DUP3 ADD MSTORE PUSH3 0x159355 PUSH1 0xEA SHL PUSH1 0x44 DUP3 ADD MSTORE PUSH1 0x64 ADD PUSH2 0x33B JUMP JUMPDEST PUSH2 0x132C DUP2 DUP7 PUSH2 0x1605 JUMP JUMPDEST PUSH2 0x1336 DUP3 DUP7 PUSH2 0x1605 JUMP JUMPDEST SWAP3 POP SWAP3 POP POP SWAP3 POP SWAP3 SWAP1 POP JUMP JUMPDEST PUSH1 0x0 JUMPDEST DUP2 ISZERO PUSH2 0x1360 JUMPI DUP2 PUSH2 0x1356 DUP2 DUP6 PUSH2 0x165F JUMP JUMPDEST SWAP1 SWAP4 POP SWAP2 POP PUSH2 0x1345 JUMP JUMPDEST POP SWAP1 SWAP2 SWAP1 POP JUMP JUMPDEST PUSH1 0x0 PUSH1 0x20 DUP3 DUP5 SUB SLT ISZERO PUSH2 0x1379 JUMPI PUSH1 0x0 DUP1 REVERT JUMPDEST POP CALLDATALOAD SWAP2 SWAP1 POP JUMP JUMPDEST DUP1 CALLDATALOAD PUSH1 0x1 PUSH1 0x1 PUSH1 0xA0 SHL SUB DUP2 AND DUP2 EQ PUSH2 0x1397 JUMPI PUSH1 0x0 DUP1 REVERT JUMPDEST SWAP2 SWAP1 POP JUMP JUMPDEST PUSH1 0x0 DUP1 PUSH1 0x40 DUP4 DUP6 SUB SLT ISZERO PUSH2 0x13AF JUMPI PUSH1 0x0 DUP1 REVERT JUMPDEST DUP3 CALLDATALOAD SWAP2 POP PUSH2 0x13BF PUSH1 0x20 DUP5 ADD PUSH2 0x1380 JUMP JUMPDEST SWAP1 POP SWAP3 POP SWAP3 SWAP1 POP JUMP JUMPDEST PUSH1 0x0 DUP1 PUSH1 0x0 DUP1 PUSH1 0x80 DUP6 DUP8 SUB SLT ISZERO PUSH2 0x13DE JUMPI PUSH1 0x0 DUP1 REVERT JUMPDEST DUP5 CALLDATALOAD SWAP4 POP PUSH1 0x20 DUP6 ADD CALLDATALOAD SWAP3 POP PUSH1 0x40 DUP6 ADD CALLDATALOAD SWAP2 POP PUSH2 0x13FC PUSH1 0x60 DUP7 ADD PUSH2 0x1380 JUMP JUMPDEST SWAP1 POP SWAP3 SWAP6 SWAP2 SWAP5 POP SWAP3 POP JUMP JUMPDEST PUSH1 0x0 PUSH1 0x20 DUP3 DUP5 SUB SLT ISZERO PUSH2 0x1419 JUMPI PUSH1 0x0 DUP1 REVERT JUMPDEST PUSH2 0xB3D DUP3 PUSH2 0x1380 JUMP JUMPDEST PUSH1 0x0 DUP1 PUSH1 0x0 DUP1 PUSH1 0x0 DUP1 PUSH1 0xC0 DUP8 DUP10 SUB SLT ISZERO PUSH2 0x143B JUMPI PUSH1 0x0 DUP1 REVERT JUMPDEST DUP7 CALLDATALOAD SWAP6 POP PUSH1 0x20 DUP8 ADD CALLDATALOAD SWAP5 POP PUSH1 0x40 DUP8 ADD CALLDATALOAD SWAP4 POP PUSH2 0x1459 PUSH1 0x60 DUP9 ADD PUSH2 0x1380 JUMP JUMPDEST SWAP3 POP PUSH1 0x80 DUP8 ADD CALLDATALOAD SWAP2 POP PUSH2 0x146E PUSH1 0xA0 DUP9 ADD PUSH2 0x1380 JUMP JUMPDEST SWAP1 POP SWAP3 SWAP6 POP SWAP3 SWAP6 POP SWAP3 SWAP6 JUMP JUMPDEST PUSH1 0x0 DUP1 PUSH1 0x40 DUP4 DUP6 SUB SLT ISZERO PUSH2 0x148D JUMPI PUSH1 0x0 DUP1 REVERT JUMPDEST POP POP DUP1 CALLDATALOAD SWAP3 PUSH1 0x20 SWAP1 SWAP2 ADD CALLDATALOAD SWAP2 POP JUMP JUMPDEST PUSH1 0x20 DUP1 DUP3 MSTORE PUSH1 0x2 SWAP1 DUP3 ADD MSTORE PUSH2 0x9E9 PUSH1 0xF3 SHL PUSH1 0x40 DUP3 ADD MSTORE PUSH1 0x60 ADD SWAP1 JUMP JUMPDEST PUSH1 0x20 DUP1 DUP3 MSTORE PUSH1 0x2 SWAP1 DUP3 ADD MSTORE PUSH2 0x5553 PUSH1 0xF0 SHL PUSH1 0x40 DUP3 ADD MSTORE PUSH1 0x60 ADD SWAP1 JUMP JUMPDEST PUSH1 0x20 DUP1 DUP3 MSTORE PUSH1 0x2 SWAP1 DUP3 ADD MSTORE PUSH2 0x4E53 PUSH1 0xF0 SHL PUSH1 0x40 DUP3 ADD MSTORE PUSH1 0x60 ADD SWAP1 JUMP JUMPDEST PUSH4 0x4E487B71 PUSH1 0xE0 SHL PUSH1 0x0 MSTORE PUSH1 0x11 PUSH1 0x4 MSTORE PUSH1 0x24 PUSH1 0x0 REVERT JUMPDEST DUP1 DUP3 ADD DUP1 DUP3 GT ISZERO PUSH2 0xA7F JUMPI PUSH2 0xA7F PUSH2 0x14F0 JUMP JUMPDEST PUSH1 0x0 PUSH1 0x20 DUP3 DUP5 SUB SLT ISZERO PUSH2 0x152B JUMPI PUSH1 0x0 DUP1 REVERT JUMPDEST POP MLOAD SWAP2 SWAP1 POP JUMP JUMPDEST PUSH1 0x1 PUSH1 0x1 PUSH1 0xA0 SHL SUB SWAP4 DUP5 AND DUP2 MSTORE SWAP2 SWAP1 SWAP3 AND PUSH1 0x20 DUP3 ADD MSTORE PUSH1 0x40 DUP2 ADD SWAP2 SWAP1 SWAP2 MSTORE PUSH1 0x60 ADD SWAP1 JUMP JUMPDEST PUSH1 0x0 PUSH1 0x20 DUP3 DUP5 SUB SLT ISZERO PUSH2 0x1568 JUMPI PUSH1 0x0 DUP1 REVERT JUMPDEST DUP2 MLOAD DUP1 ISZERO ISZERO DUP2 EQ PUSH2 0xB3D JUMPI PUSH1 0x0 DUP1 REVERT JUMPDEST SWAP6 DUP7 MSTORE PUSH1 0x20 DUP7 ADD SWAP5 SWAP1 SWAP5 MSTORE PUSH1 0x40 DUP6 ADD SWAP3 SWAP1 SWAP3 MSTORE PUSH1 0x1 PUSH1 0x1 PUSH1 0xA0 SHL SUB SWAP1 DUP2 AND PUSH1 0x60 DUP6 ADD MSTORE PUSH1 0x80 DUP5 ADD SWAP2 SWAP1 SWAP2 MSTORE AND PUSH1 0xA0 DUP3 ADD MSTORE PUSH1 0xC0 ADD SWAP1 JUMP JUMPDEST PUSH1 0x20 DUP1 DUP3 MSTORE PUSH1 0x2 SWAP1 DUP3 ADD MSTORE PUSH2 0x1153 PUSH1 0xF2 SHL PUSH1 0x40 DUP3 ADD MSTORE PUSH1 0x60 ADD SWAP1 JUMP JUMPDEST SWAP4 DUP5 MSTORE PUSH1 0x20 DUP5 ADD SWAP3 SWAP1 SWAP3 MSTORE PUSH1 0x40 DUP4 ADD MSTORE PUSH1 0x1 PUSH1 0x1 PUSH1 0xA0 SHL SUB AND PUSH1 0x60 DUP3 ADD MSTORE PUSH1 0x80 ADD SWAP1 JUMP JUMPDEST PUSH4 0x4E487B71 PUSH1 0xE0 SHL PUSH1 0x0 MSTORE PUSH1 0x12 PUSH1 0x4 MSTORE PUSH1 0x24 PUSH1 0x0 REVERT JUMPDEST PUSH1 0x0 DUP3 PUSH2 0x1614 JUMPI PUSH2 0x1614 PUSH2 0x15EF JUMP JUMPDEST POP DIV SWAP1 JUMP JUMPDEST PUSH1 0x20 DUP1 DUP3 MSTORE PUSH1 0x2 SWAP1 DUP3 ADD MSTORE PUSH2 0x24A3 PUSH1 0xF1 SHL PUSH1 0x40 DUP3 ADD MSTORE PUSH1 0x60 ADD SWAP1 JUMP JUMPDEST DUP1 DUP3 MUL DUP2 ISZERO DUP3 DUP3 DIV DUP5 EQ OR PUSH2 0xA7F JUMPI PUSH2 0xA7F PUSH2 0x14F0 JUMP JUMPDEST DUP2 DUP2 SUB DUP2 DUP2 GT ISZERO PUSH2 0xA7F JUMPI PUSH2 0xA7F PUSH2 0x14F0 JUMP JUMPDEST PUSH1 0x0 DUP3 PUSH2 0x166E JUMPI PUSH2 0x166E PUSH2 0x15EF JUMP JUMPDEST POP MOD SWAP1 JUMP INVALID LOG2 PUSH5 0x6970667358 0x22 SLT KECCAK256 DIFFICULTY 0xC4 0xB4 POP CALLDATACOPY 0xAD LOG2 SWAP3 AND PUSH25 0x34540DA6434497EF57FC52514EAE191996C491FAA2B164736F PUSH13 0x63430008130033000000000000 ",
  "sha1": "3e66e2b3345c9cb825502d9289aca458e27fab87",
  "source": "// SPDX-License-Identifier: GPL-3.0-or-later\n\npragma solidity ^0.8.4;\n\nimport \"../node_modules/@openzeppelin/contracts/token/ERC20/ERC20.sol\";\n\n/// @notice Returns a boolean stating if two given fractions are identical.\n/// @param numerator1 Numerator of first fraction.\n/// @param denominator1 Denominator of first fraction.\n/// @param numerator2 Numerator of second fraction.\n/// @param denominator2 Denominator of second fraction.\nfunction fractionsAreIdentical(uint256 numerator1, uint256  denominator1, uint256 numerator2, uint256 denominator2) pure returns(bool) {\n    return numerator1 == numerator2 && denominator1 == denominator2;\n}\n\n/// @notice Returns the two quotients and the remainder of an uneven division with a fraction. Useful for dividing ether and tokens.\n/// @param dividend The dividend, which will be divided by the fraction.\n/// @param numerator Numerator of fraction, which the dividend will be divided into.\n/// @param denominator Denominator of fraction, which the dividend will be divided into.\nfunction divideUnequallyIntoTwoWithRemainder(uint256 dividend, uint256 numerator, uint256 denominator) pure returns(uint256, uint256, uint256) {\n    require(denominator > numerator);\n    uint256 quotient1 = dividend*numerator/denominator;\n    uint256 quotient2 = dividend*(denominator-numerator)/denominator;\n    return (quotient1, quotient2, dividend - (quotient1 + quotient2));\n}\n\n/// @notice Returns the common denominator between two integers.\n/// @param a First integer.\n/// @param b Second integer.\nfunction getCommonDenominator(uint256 a, uint256 b) pure returns(uint256) {\n        while (b > 0) {\n        (a, b) = (b, a % b);\n        }\n        return a;\n}\n\n/// @notice Returns a simplified version of a fraction.\n/// @param numerator Numerator of fraction to be simplified.\n/// @param denominator Denominator of fraction to be simplified.\nfunction simplifyFraction(uint256 numerator, uint256 denominator) pure returns(uint256, uint256) {\n    uint256 commonDenominator = getCommonDenominator(numerator,denominator);\n    require(numerator/denominator == ((numerator/commonDenominator)/(denominator/commonDenominator)),\"VMT\");\n    return (numerator/commonDenominator,denominator/commonDenominator);\n}\n\n/// @notice Adds two fractions together.\n/// @param numerator1 Numerator of first fraction.\n/// @param denominator1 Denominator of first fraction.\n/// @param numerator2 Numerator of second fraction.\n/// @param denominator2 Denominator of second fraction.\nfunction addFractions(uint256 numerator1, uint256  denominator1, uint256 numerator2, uint256 denominator2) pure returns (uint256, uint256) {\n    numerator1 = numerator1 * denominator2;\n    numerator2 = numerator2 * denominator1;\n    return (numerator1+numerator2,denominator1*denominator2);\n}\n\n/// @notice Subtracts a fraction from another and returns the difference.\n/// @param numerator1 Numerator of minuend fraction.\n/// @param denominator1 Denominator of minuend fraction.\n/// @param numerator2 Numerator of subtrahend fraction.\n/// @param denominator2 Denominator of subtrahend fraction.\nfunction subtractFractions(uint256 numerator1, uint256 numerator2, uint256  denominator1, uint256 denominator2) pure returns (uint256,uint256) {\n    numerator1 = numerator1 * denominator2;\n    numerator2 = numerator2 * denominator1;\n    return (numerator1-numerator2,denominator1*denominator2);\n}\n\n\n/// @title A shardable/fractional non-fungible token that can be fractually owned via Shards.\n/// @author Frederik W. L. Christoffersen\n/// @notice This contract is used to fractionalize a non-fungible token. Be aware that a sell transfers a service fee of 2.5% to Counekt.\n/// @dev historicShards are used to show proof of ownership at different points of time.\n/// @custom:beaware This is a commercial contract.\ncontract Shardable {\n\n    /// @notice A struct representing the related info of a non-fungible Shard token.\n    /// @dev Is represented via a bytes32 value created from the hash: keccak256(owner, creationTime).\n    /// @param numerator Numerator of the fraction that the Shard represents.\n    /// @param denominator Denominator of the fraction that the Shard represents.\n    /// @param owner The owner of the Shard.\n    /// @param creationTime The clock at which the Shard was created.\n    /// @param expiredTime The clock at which the Shard expired. Default is set to the maximum value.\n    struct ShardInfo {\n        uint256 numerator;\n        uint256 denominator;\n        address owner; \n        uint256 creationTime;        \n    }\n\n    /// @notice A struct representing the related sale info of a non-fungible Shard token.\n    /// @param numerator Numerator of the fraction that is for sale.\n    /// @param denominator Denominator of the fraction that is for sale.\n    /// @param tokenAddress The address of the token that is accepted when purchasing. A value of 0x0 represents ether.\n    /// @param price The amount which the Shard is for sale as. The token address being the valuta.\n    /// @param to Address pointing to a potentially specifically set buyer of the sale.\n    struct ShardSale {\n        uint256 numerator;\n        uint256 denominator;\n        address tokenAddress;\n        uint256 price;\n        address to;\n\n    }\n\n    /// @notice Integer value to implement a concept of time\n    uint256 clock = 0;\n\n    /// @notice Boolean stating if the Shardable is active and tradeable or not.\n    bool public active;\n    /// @notice Mapping pointing to related info of a Shard given the bytes of a unique Shard instance.\n    mapping(bytes32 => ShardInfo) public infoByShard;\n    /// @notice Mapping pointing to a currently valid shard given the address of its owner.\n    mapping(address => bytes32) public shardByOwner;\n    /// @notice Mapping pointing to a boolean stating if a given Shard is for sale or not.\n    mapping(bytes32 => bool) shardsForSale;\n    /// @notice Mapping pointing to related sale info of a Shard given the bytes of a unique Shard instance.\n    mapping(bytes32 => ShardSale) saleByShard;\n    // @notice Mapping pointing to an expired time given a shard.\n    mapping(bytes32 => uint256) shardExpiredTime;\n    \n    /// @notice Event emitted when a Shard is split into two and fractionally transferred.\n    /// @param shard The Shard, which was split.\n    /// @param numerator Numerator of the absolute fraction of the offspring Shard.\n    /// @param denominator Denominator of the absolute fraction of the offspring Shard.\n    /// @param to The receiver of the splitted Shard.\n    event SplitMade(\n        bytes32 shard,\n        uint256 numerator,\n        uint256 denominator,\n        address to\n        );\n\n    /// @notice Event emitted when a sale of a Shard is sold.\n    /// @param shard The shard that was sold from.\n    /// @param numerator Numerator of the absolute fraction of the Shard that was sold.\n    /// @param denominator Denominator of the absolute fraction of the Shard that was sold.\n    /// @param tokenAddress The address of the token that was accepted in the purchase. A value of 0x0 represents ether.\n    /// @param price The amount which the Shard was for sale for. The token address being the valuta.\n    /// @param to The buyer of the sale.\n    event SaleSold(\n        bytes32 shard,\n        uint256 numerator,\n        uint256 denominator,\n        address tokenAddress,\n        uint256 price,\n        address to\n        );\n\n    /// @notice Event emitted when a Shard is put up for sale.\n    /// @param shard The shard that was put for sale.\n    /// @param numerator Numerator of the absolute fraction of the Shard put for sale.\n    /// @param denominator Denominator of the absolute fraction of the Shard put for sale.\n    /// @param tokenAddress The address of the token that is accepted when purchasing. A value of 0x0 represents ether.\n    /// @param price The amount which the Shard is for sale as. The token address being the valuta.\n    /// @param to The specifically set buyer of the sale, if any.\n    event PutForSale(\n        bytes32 shard,\n        uint256 numerator,\n        uint256 denominator,\n        address tokenAddress,\n        uint256 price,\n        address to\n        );\n\n    modifier incrementClock {\n        _;\n        clock++;\n    }\n    \n    /// @notice Modifier that requires the msg.sender to be a current valid Shard holder.\n    modifier onlyShardHolder {\n        require(isShardHolder(msg.sender), \"UH\");\n        _;\n    }\n\n    /// @notice Modifier that requires a given Shard to be currently valid.\n    modifier onlyValidShard(bytes32 shard) {\n        require(isValidShard(shard), \"US\");\n        _;\n    }\n\n    /// @notice Modifier that makes sure the entity is active and not liquidized/dissolved.\n    modifier onlyIfActive() {\n        require(active == true, \"EL\");\n        _;\n    }\n\n    /// @notice Modifier that requires the msg.sender to be the owner of a given Shard\n    /// @param shard The Shard, whose ownership is tested for.\n    modifier onlyHolder(bytes32 shard) {\n        require(infoByShard[shard].owner == msg.sender, \"OH\");\n        _;\n    }\n\n    /// @notice Constructor function that pushes the first Shard being the property of the Shardable creator.\n    constructor() {\n        // passes full ownership to creator of contract\n        _pushShard(1, 1, msg.sender, 0);\n        active = true;\n    }\n\n    /// @notice Purchases a listed Shard for sale.\n    /// @dev If the purchase is with tokens (ie. tokenAddress != 0x0), first call 'token.approve(Shardable.address, salePrice);'\n    /// @param shard The shard of which a fraction will be purchased.\n    function purchase(bytes32 shard) external payable onlyValidShard(shard) {\n        require(shardsForSale[shard], \"NS\");\n        require((saleByShard[shard].to == msg.sender) || (saleByShard[shard].to == address(0x0)), \"SR\");\n        _cancelSale(shard);\n        (uint256 profitToCounekt, uint256 profitToSeller, uint256 remainder) = divideUnequallyIntoTwoWithRemainder(saleByShard[shard].price,25,1000);\n        profitToSeller += remainder; // remainder goes to seller\n        // if ether\n        if (saleByShard[shard].tokenAddress == address(0x0)) {\n            require(msg.value >= saleByShard[shard].price, \"IE\");\n            // Pay Service Fee of 2.5% to Counekt\n            (bool successToCounekt,) = payable(0x49a71890aea5A751E30e740C504f2E9683f347bC).call{value:profitToCounekt}(\"\");\n            // Rest goes to the seller\n            (bool successToSeller,) = payable(infoByShard[shard].owner).call{value:profitToSeller}(\"\");\n            require(successToSeller && successToCounekt, \"TF\");\n        } \n        else {\n            ERC20 token = ERC20(saleByShard[shard].tokenAddress);\n            require(token.allowance(msg.sender,address(this)) >= saleByShard[shard].price,\"IT\");\n            // Pay Service Fee of 2.5% to Counekt\n            token.transferFrom(msg.sender, 0x49a71890aea5A751E30e740C504f2E9683f347bC, profitToCounekt);\n            // Rest goes to the seller\n            token.transferFrom(msg.sender,infoByShard[shard].owner,profitToSeller);\n        } \n        require(saleByShard[shard].numerator != 0 && saleByShard[shard].denominator != 0, \"ES\");\n        if (fractionsAreIdentical(infoByShard[shard].numerator,infoByShard[shard].denominator,saleByShard[shard].numerator,saleByShard[shard].denominator)) {_transferShard(shard,msg.sender);}\n        else {_split(shard, saleByShard[shard].numerator,saleByShard[shard].denominator,msg.sender);}\n        emit SaleSold(shard,saleByShard[shard].numerator,saleByShard[shard].denominator,saleByShard[shard].tokenAddress,saleByShard[shard].price,msg.sender);\n    }\n\n    /// @notice Puts a given shard for sale.\n    /// @param shard The shard to be put for sale.\n    /// @param numerator Numerator of the absolute fraction of the Shard to be put for sale.\n    /// @param denominator Denominator of the absolute fraction of the Shard to be put for sale.\n    /// @param tokenAddress The address of the token that is accepted when purchasing. A value of 0x0 represents ether.\n    /// @param price The amount which the Shard is for sale as. The token address being the valuta.\n    /// @param to The specifically set buyer of the sale. Open to anyone, if address(0).\n    function putForSale(bytes32 shard, uint256 numerator, uint256 denominator, address tokenAddress, uint256 price, address to) public onlyHolder(shard) onlyValidShard(shard) {\n        _putForSale(shard,numerator,denominator,tokenAddress,price,to);\n    }\n\n    /// @notice Cancels a sell of a given Shard.\n    /// @param shard The shard to be put off sale.\n    function cancelSale(bytes32 shard) public onlyHolder(shard) onlyValidShard(shard) {\n        require(shardsForSale[shard], \"NS\");\n        _cancelSale(shard);\n    }\n\n    /// @notice Splits a currently valid shard into two new ones. One is assigned to the receiver. The rest to the previous owner.\n    /// @param senderShard The shard to be split.\n    /// @param numerator Numerator of the absolute fraction, which will be subtracted from the previous shard and sent to the receiver.\n    /// @param denominator Denominator of the absolute fraction, which will be subtracted from the previous shard and sent to the receiver.\n    /// @param to The receiver of the new Shard.\n    function split(bytes32 senderShard, uint256 numerator, uint256 denominator, address to) public onlyHolder(senderShard) onlyValidShard(senderShard) {\n        _split(senderShard,numerator,denominator,to);\n    }\n\n    /// @notice Sends a whole shard to a receiver.\n    /// @param senderShard The shard to be transferred.\n    /// @param to The receiver of the new Shard.\n    function transferShard(bytes32 senderShard, address to) public onlyHolder(senderShard) onlyValidShard(senderShard) {\n        _transferShard(senderShard,to);\n    }\n\n    /// @notice Returns the time, in which a shard will or has expired.\n    function getShardExpiredTime(bytes32 shard) public view returns(uint256) {\n        return shardExpiredTime[shard];\n    }\n\n    /// @notice Returns the price, at which a shard is for sale.\n    function getShardSalePrice(bytes32 shard) public view returns(uint256) {\n        return saleByShard[shard].price;\n    }\n\n    /// @notice Returns a boolean stating if a given shard is currently valid or not.\n    /// @param shard The shard, whose validity is to be checked for.\n    function isValidShard(bytes32 shard) public view returns(bool) {\n        return getShardExpiredTime(shard) > clock;\n    }\n\n    /// @notice Checks if address is a shard holder - at least a partial owner of the contract.\n    /// @param account The address to be checked for.\n    function isShardHolder(address account) public view returns(bool) {\n        return isValidShard(shardByOwner[account]);\n    }\n    \n    /// @notice Returns a boolean stating if the given shard was valid at a given timestamp.\n    /// @param shard The shard, whose validity is to be checked for.\n    /// @param time The timestamp to be checked for.\n    function shardExisted(bytes32 shard, uint256 time) public view returns(bool) {\n        return infoByShard[shard].creationTime <= time && time < getShardExpiredTime(shard);\n    }\n\n    /// @notice Cancels a sell of a given Shard.\n    /// @param shard The shard to be put off sale.\n    function _cancelSale(bytes32 shard) internal onlyValidShard(shard) {\n        shardsForSale[shard] = false;\n    }\n\n    /// @notice Splits a currently valid shard into two new ones. One is assigned to the receiver. The rest to the previous owner.\n    /// @param senderShard The shard to be split.\n    /// @param numerator Numerator of the absolute fraction, which will be subtracted from the previous shard and sent to the receiver.\n    /// @param denominator Denominator of the absolute fraction, which will be subtracted from the previous shard and sent to the receiver.\n    /// @param to The receiver of the new Shard.\n    function _split(bytes32 senderShard, uint256 numerator, uint256 denominator, address to) internal onlyValidShard(senderShard) onlyIfActive {\n        require(numerator/denominator < infoByShard[senderShard].numerator/infoByShard[senderShard].denominator, \"IF\");\n        uint256 transferTime = clock;\n        if (isShardHolder(to)) { // if Receiver already owns a shard\n            // The fractions are added and upgraded\n            (uint256 sumNumerator, uint256 sumDenominator) = addFractions(infoByShard[shardByOwner[to]].numerator,infoByShard[shardByOwner[to]].denominator,numerator,denominator);\n            _pushShard(sumNumerator,sumDenominator,to,transferTime);\n\n            // Expire the Old Receiver Shard\n            _expireShard(shardByOwner[to], transferTime);\n\n        }\n\n        else {\n            // The Fraction of the Receiver Shard is equal to the one split off of the Sender Shard\n            _pushShard(numerator,denominator,to,transferTime);\n        }\n\n\n        // Expire the Old Sender Shard\n        _expireShard(senderShard, transferTime);\n        // The new Fraction of the Sender Shard has been subtracted by the Split Fraction.\n        (uint256 diffNumerator, uint256 diffDenominator) = subtractFractions(infoByShard[senderShard].numerator,infoByShard[senderShard].denominator,numerator,denominator);\n        _pushShard(diffNumerator,diffDenominator,infoByShard[senderShard].owner,transferTime);\n        if (msg.sender != address(this)) {\n            emit SplitMade(senderShard,numerator,denominator,to);\n        }\n        \n    }\n\n    /// @notice Sends a whole shard to a receiver.\n    /// @param senderShard The shard to be transferred.\n    /// @param to The receiver of the new Shard.\n    function _transferShard(bytes32 senderShard, address to) internal onlyValidShard(senderShard) onlyIfActive {\n        uint256 transferTime = clock;\n        if (isShardHolder(to)) {\n\n            // Destroying the Old receiver\n            _expireShard(shardByOwner[to], transferTime);\n\n            // The fractions are added and upgraded,to,transferTime\n            (uint256 numerator, uint256 denominator) = addFractions(infoByShard[senderShard].numerator,infoByShard[senderShard].denominator,infoByShard[shardByOwner[to]].numerator,infoByShard[shardByOwner[to]].denominator);\n            _pushShard(numerator,denominator,to,transferTime);\n        }\n        else {\n            _pushShard(infoByShard[senderShard].numerator,infoByShard[senderShard].denominator,to,transferTime);\n        }\n\n        // Destroying the Old sender\n        _expireShard(senderShard, transferTime);\n        \n        if (msg.sender != address(this)) {\n            emit SplitMade(senderShard,infoByShard[senderShard].numerator,infoByShard[senderShard].numerator,to);\n        }\n    }\n\n    /// @notice Puts a given shard for sale.\n    /// @param shard The shard to be put for sale.\n    /// @param numerator Numerator of the absolute fraction of the Shard to be put for sale.\n    /// @param denominator Denominator of the absolute fraction of the Shard to be put for sale.\n    /// @param tokenAddress The address of the token that is accepted when purchasing. A value of 0x0 represents ether.\n    /// @param price The amount which the Shard is for sale as. The token address being the valuta.\n    /// @param to The specifically set buyer of the sale. For anyone to buy if address(0).\n    function _putForSale(bytes32 shard, uint256 numerator, uint256 denominator, address tokenAddress, uint256 price, address to) internal onlyValidShard(shard) onlyIfActive {\n        require(numerator/denominator <= infoByShard[shard].numerator/infoByShard[shard].denominator, \"IF\");\n        (numerator, denominator) = simplifyFraction(numerator,denominator);\n        saleByShard[shard] = ShardSale({\n            numerator: numerator,\n            denominator: denominator,\n            tokenAddress: tokenAddress,\n            price: price,\n            to: to\n        });\n        shardsForSale[shard] = true;\n        emit PutForSale(shard,numerator,denominator,tokenAddress,price,to);\n    }\n\n    /// @notice Pushes a shard to the registry of currently valid shards.\n    /// @param numerator Numerator of the fraction that the Shard represents.\n    /// @param denominator Denominator of the fraction that the Shard represents.\n    /// @param owner The owner of the Shard.\n    /// @param creationTime The clock at which the Shard will be created.\n    function _pushShard(uint256 numerator, uint256 denominator, address owner, uint256 creationTime) internal {\n        // The representation, bytes and hash\n        bytes32 shard = keccak256(abi.encodePacked(owner,creationTime));\n        shardByOwner[owner] = shard;\n        shardExpiredTime[shard] = type(uint256).max; // The maximum value: (2^256)-1;\n        // The info, attributes and details\n        infoByShard[shard] = ShardInfo({\n                                numerator:numerator,\n                                denominator:denominator,\n                                owner: owner,\n                                creationTime: creationTime\n                                });\n    }\n\n    /// @notice Removes a shard from the registry of currently valid shards.\n    /// @param shard The shard to be expired.\n    /// @param expiredTime The clock at which the Shard will expire.\n    function _expireShard(bytes32 shard, uint256 expiredTime) internal  {\n        shardExpiredTime[shard] = expiredTime;\n    }\n\n}",
  "sourcePath": "contracts/shardable.sol",
  "type": "contract"
}