{
  "abi": [
    {
      "inputs": [
        {
          "internalType": "uint256",
          "name": "amount",
          "type": "uint256"
        }
      ],
      "stateMutability": "nonpayable",
      "type": "constructor"
    },
    {
      "anonymous": false,
      "inputs": [
        {
          "indexed": false,
          "internalType": "bytes32",
          "name": "shard",
          "type": "bytes32"
        },
        {
          "indexed": false,
          "internalType": "uint256",
          "name": "expirationClock",
          "type": "uint256"
        }
      ],
      "name": "ExpiredShard",
      "type": "event"
    },
    {
      "anonymous": false,
      "inputs": [
        {
          "indexed": false,
          "internalType": "bytes32",
          "name": "shard",
          "type": "bytes32"
        },
        {
          "indexed": false,
          "internalType": "address",
          "name": "owner",
          "type": "address"
        },
        {
          "indexed": false,
          "internalType": "uint256",
          "name": "creationClock",
          "type": "uint256"
        }
      ],
      "name": "NewShard",
      "type": "event"
    },
    {
      "anonymous": false,
      "inputs": [
        {
          "indexed": false,
          "internalType": "bytes32",
          "name": "shard",
          "type": "bytes32"
        },
        {
          "indexed": false,
          "internalType": "uint256",
          "name": "amount",
          "type": "uint256"
        },
        {
          "indexed": false,
          "internalType": "address",
          "name": "tokenAddress",
          "type": "address"
        },
        {
          "indexed": false,
          "internalType": "uint256",
          "name": "price",
          "type": "uint256"
        },
        {
          "indexed": false,
          "internalType": "address",
          "name": "to",
          "type": "address"
        }
      ],
      "name": "PutForSale",
      "type": "event"
    },
    {
      "anonymous": false,
      "inputs": [
        {
          "indexed": false,
          "internalType": "bytes32",
          "name": "shard",
          "type": "bytes32"
        },
        {
          "indexed": false,
          "internalType": "uint256",
          "name": "amount",
          "type": "uint256"
        },
        {
          "indexed": false,
          "internalType": "address",
          "name": "to",
          "type": "address"
        },
        {
          "indexed": false,
          "internalType": "address",
          "name": "tokenAddress",
          "type": "address"
        },
        {
          "indexed": false,
          "internalType": "uint256",
          "name": "price",
          "type": "uint256"
        }
      ],
      "name": "SaleSold",
      "type": "event"
    },
    {
      "inputs": [],
      "name": "active",
      "outputs": [
        {
          "internalType": "bool",
          "name": "",
          "type": "bool"
        }
      ],
      "stateMutability": "view",
      "type": "function"
    },
    {
      "inputs": [
        {
          "internalType": "bytes32",
          "name": "shard",
          "type": "bytes32"
        }
      ],
      "name": "cancelSale",
      "outputs": [],
      "stateMutability": "nonpayable",
      "type": "function"
    },
    {
      "inputs": [],
      "name": "getCurrentClock",
      "outputs": [
        {
          "internalType": "uint256",
          "name": "",
          "type": "uint256"
        }
      ],
      "stateMutability": "view",
      "type": "function"
    },
    {
      "inputs": [
        {
          "internalType": "bytes32",
          "name": "shard",
          "type": "bytes32"
        }
      ],
      "name": "getShardExpirationClock",
      "outputs": [
        {
          "internalType": "uint256",
          "name": "",
          "type": "uint256"
        }
      ],
      "stateMutability": "view",
      "type": "function"
    },
    {
      "inputs": [
        {
          "internalType": "bytes32",
          "name": "shard",
          "type": "bytes32"
        }
      ],
      "name": "getShardSalePrice",
      "outputs": [
        {
          "internalType": "uint256",
          "name": "",
          "type": "uint256"
        }
      ],
      "stateMutability": "view",
      "type": "function"
    },
    {
      "inputs": [
        {
          "internalType": "bytes32",
          "name": "",
          "type": "bytes32"
        }
      ],
      "name": "infoByShard",
      "outputs": [
        {
          "internalType": "uint256",
          "name": "amount",
          "type": "uint256"
        },
        {
          "internalType": "address",
          "name": "owner",
          "type": "address"
        },
        {
          "internalType": "uint256",
          "name": "creationClock",
          "type": "uint256"
        }
      ],
      "stateMutability": "view",
      "type": "function"
    },
    {
      "inputs": [
        {
          "internalType": "address",
          "name": "account",
          "type": "address"
        }
      ],
      "name": "isShardHolder",
      "outputs": [
        {
          "internalType": "bool",
          "name": "",
          "type": "bool"
        }
      ],
      "stateMutability": "view",
      "type": "function"
    },
    {
      "inputs": [
        {
          "internalType": "bytes32",
          "name": "shard",
          "type": "bytes32"
        }
      ],
      "name": "isValidShard",
      "outputs": [
        {
          "internalType": "bool",
          "name": "",
          "type": "bool"
        }
      ],
      "stateMutability": "view",
      "type": "function"
    },
    {
      "inputs": [
        {
          "internalType": "bytes32",
          "name": "shard",
          "type": "bytes32"
        },
        {
          "internalType": "uint256",
          "name": "amount",
          "type": "uint256"
        }
      ],
      "name": "purchase",
      "outputs": [],
      "stateMutability": "payable",
      "type": "function"
    },
    {
      "inputs": [
        {
          "internalType": "bytes32",
          "name": "shard",
          "type": "bytes32"
        },
        {
          "internalType": "uint256",
          "name": "amount",
          "type": "uint256"
        },
        {
          "internalType": "address",
          "name": "tokenAddress",
          "type": "address"
        },
        {
          "internalType": "uint256",
          "name": "price",
          "type": "uint256"
        },
        {
          "internalType": "address",
          "name": "to",
          "type": "address"
        }
      ],
      "name": "putForSale",
      "outputs": [],
      "stateMutability": "nonpayable",
      "type": "function"
    },
    {
      "inputs": [
        {
          "internalType": "address",
          "name": "",
          "type": "address"
        }
      ],
      "name": "shardByOwner",
      "outputs": [
        {
          "internalType": "bytes32",
          "name": "",
          "type": "bytes32"
        }
      ],
      "stateMutability": "view",
      "type": "function"
    },
    {
      "inputs": [
        {
          "internalType": "bytes32",
          "name": "shard",
          "type": "bytes32"
        },
        {
          "internalType": "uint256",
          "name": "atClock",
          "type": "uint256"
        }
      ],
      "name": "shardExisted",
      "outputs": [
        {
          "internalType": "bool",
          "name": "",
          "type": "bool"
        }
      ],
      "stateMutability": "view",
      "type": "function"
    },
    {
      "inputs": [
        {
          "internalType": "bytes32",
          "name": "senderShard",
          "type": "bytes32"
        },
        {
          "internalType": "uint256",
          "name": "amount",
          "type": "uint256"
        },
        {
          "internalType": "address",
          "name": "to",
          "type": "address"
        }
      ],
      "name": "split",
      "outputs": [],
      "stateMutability": "nonpayable",
      "type": "function"
    },
    {
      "inputs": [
        {
          "internalType": "uint256",
          "name": "",
          "type": "uint256"
        }
      ],
      "name": "totalShardAmountByClock",
      "outputs": [
        {
          "internalType": "uint256",
          "name": "",
          "type": "uint256"
        }
      ],
      "stateMutability": "view",
      "type": "function"
    }
  ],
  "bytecode": "60806040526000805534801561001457600080fd5b506040516116423803806116428339810160408190526100339161018c565b61003f81336000610060565b600080548152600260205260409020556001805460ff1916811790556101a5565b600083116100995760405162461bcd60e51b815260206004820152600260248201526129ad60f11b604482015260640160405180910390fd5b6040516001600160601b0319606084901b1660208201526034810182905260009060540160408051808303601f1901815282825280516020918201206001600160a01b03878116600081815260048552858120849055838152600785528581206000199055606080880187528b88528588018381528888018b8152868452600388529288902098518955516001890180546001600160a01b0319169190951617909355516002909601959095558351828152928301949094529181018590529092507f90e88e994885f1cdd31d3393f0b012e817804fc9d2adef69d0d7e5053d1e29ad910160405180910390a150505050565b60006020828403121561019e57600080fd5b5051919050565b61148e806101b46000396000f3fe6080604052600436106100dd5760003560e01c8063bcedb2e01161007f578063e1c34c1f11610059578063e1c34c1f146102ab578063efae89f8146102cb578063f7aae621146102f8578063fd06636b1461031857600080fd5b8063bcedb2e014610203578063c4802eb21461026b578063e123182b1461029857600080fd5b80637b785493116100bb5780637b7854931461016e5780639995b9a91461019e578063a902780f146101ce578063b2cb78ab146101e357600080fd5b806302fb0c5e146100e2578063066792d2146101115780630bea89851461014c575b600080fd5b3480156100ee57600080fd5b506001546100fc9060ff1681565b60405190151581526020015b60405180910390f35b34801561011d57600080fd5b5061013e61012c366004611260565b60026020526000908152604090205481565b604051908152602001610108565b34801561015857600080fd5b5061016c610167366004611260565b610338565b005b34801561017a57600080fd5b5061013e610189366004611260565b60009081526006602052604090206002015490565b3480156101aa57600080fd5b506100fc6101b9366004611260565b60008054918152600760205260409020541190565b3480156101da57600080fd5b5060005461013e565b3480156101ef57600080fd5b5061016c6101fe366004611295565b610403565b34801561020f57600080fd5b5061024861021e366004611260565b60036020526000908152604090208054600182015460029092015490916001600160a01b03169083565b604080519384526001600160a01b03909216602084015290820152606001610108565b34801561027757600080fd5b5061013e6102863660046112ca565b60046020526000908152604090205481565b61016c6102a63660046112e5565b610486565b3480156102b757600080fd5b506100fc6102c63660046112ca565b610a96565b3480156102d757600080fd5b5061013e6102e6366004611260565b60009081526007602052604090205490565b34801561030457600080fd5b5061016c610313366004611307565b610ace565b34801561032457600080fd5b506100fc6103333660046112e5565b610b4c565b60008181526003602052604090206001015481906001600160a01b0316331461037c5760405162461bcd60e51b815260040161037390611357565b60405180910390fd5b816103968160008054918152600760205260409020541190565b6103b25760405162461bcd60e51b815260040161037390611373565b60008381526005602052604090205460ff166103f55760405162461bcd60e51b81526020600482015260026024820152614e5360f01b6044820152606401610373565b6103fe83610b81565b505050565b60008381526003602052604090206001015483906001600160a01b0316331461043e5760405162461bcd60e51b815260040161037390611357565b836104588160008054918152600760205260409020541190565b6104745760405162461bcd60e51b815260040161037390611373565b61047f858585610bd0565b5050505050565b816104a08160008054918152600760205260409020541190565b6104bc5760405162461bcd60e51b815260040161037390611373565b60008381526005602052604090205460ff166104ff5760405162461bcd60e51b81526020600482015260026024820152614e5360f01b6044820152606401610373565b816000036105345760405162461bcd60e51b8152602060048201526002602482015261455360f01b6044820152606401610373565b6000838152600660205260409020548211156105775760405162461bcd60e51b8152602060048201526002602482015261455360f01b6044820152606401610373565b6000838152600660205260409020600301546001600160a01b03163314806105b757506000838152600660205260409020600301546001600160a01b0316155b6105e85760405162461bcd60e51b815260206004820152600260248201526129a960f11b6044820152606401610373565b6105f183610b81565b60008381526006602052604081206002015461060d90846113a5565b905060008060006106228460196103e8610e09565b9194509250905061063381836113bc565b6000888152600660205260409020600101549092506001600160a01b0316610792578334101561068a5760405162461bcd60e51b8152602060048201526002602482015261494560f01b6044820152606401610373565b6040516000907349a71890aea5a751e30e740c504f2e9683f347bc9085908381818185875af1925050503d80600081146106e0576040519150601f19603f3d011682016040523d82523d6000602084013e6106e5565b606091505b505060008981526003602052604080822060010154905192935090916001600160a01b039091169085908381818185875af1925050503d8060008114610747576040519150601f19603f3d011682016040523d82523d6000602084013e61074c565b606091505b5050905080801561075a5750815b61078b5760405162461bcd60e51b81526020600482015260026024820152612a2360f11b6044820152606401610373565b5050610942565b60008781526006602052604090819020600101549051636eb1769f60e11b81523360048201523060248201526001600160a01b03909116908590829063dd62ed3e90604401602060405180830381865afa1580156107f4573d6000803e3d6000fd5b505050506040513d601f19601f8201168201806040525081019061081891906113cf565b101561084b5760405162461bcd60e51b8152602060048201526002602482015261125560f21b6044820152606401610373565b6040516323b872dd60e01b81523360048201527349a71890aea5a751e30e740c504f2e9683f347bc6024820152604481018590526001600160a01b038216906323b872dd906064016020604051808303816000875af11580156108b2573d6000803e3d6000fd5b505050506040513d601f19601f820116820180604052508101906108d691906113e8565b6109075760405162461bcd60e51b8152602060048201526002602482015261139560f21b6044820152606401610373565b60008881526003602090815260408083206001908101546006909352922090910154610940916001600160a01b03908116911685610e7d565b505b61094d878733610bd0565b600087815260036020526040902060010154306001600160a01b039091160361099557600080548152600260205260408120805488929061098f9084906113bc565b90915550505b600087815260066020908152604091829020600181015460029091015483518b81529283018a905233838501526001600160a01b039091166060830152608082015290517f443732a78c29282934211eae7aa500dd12db85d4dd795dbcda5f94ee19a67e4f9181900360a00190a16000878152600660205260409020548614610a8d576000878152600360209081526040808320600101546001600160a01b0316835260048252808320548a8452600690925290912054610a8d9190610a5c90899061140a565b60008a8152600660205260409020600181015460028201546003909201546001600160a01b03918216929116610ef9565b50505050505050565b6001600160a01b038116600090815260046020526040812054610ac89060008054918152600760205260409020541190565b92915050565b60008581526003602052604090206001015485906001600160a01b03163314610b095760405162461bcd60e51b815260040161037390611357565b85610b238160008054918152600760205260409020541190565b610b3f5760405162461bcd60e51b815260040161037390611373565b610a8d8787878787610ef9565b6000828152600360205260408120600201548210801590610b7a575060008381526007602052604090205482105b9392505050565b80610b9b8160008054918152600760205260409020541190565b610bb75760405162461bcd60e51b815260040161037390611373565b506000908152600560205260409020805460ff19169055565b82610bea8160008054918152600760205260409020541190565b610c065760405162461bcd60e51b815260040161037390611373565b6001805460ff16151514610c415760405162461bcd60e51b8152602060048201526002602482015261115360f21b6044820152606401610373565b600084815260036020526040902054831115610c845760405162461bcd60e51b8152602060048201526002602482015261494160f01b6044820152606401610373565b610c8d82610a96565b15610cfc576001600160a01b03821660009081526004602090815260408083205483526003909152812054610cc290856113bc565b9050610cd181846000546110c1565b6001600160a01b0383166000908152600460205260408120549054610cf691906111ee565b50610d09565b610d0983836000546110c1565b610d15846000546111ee565b600084815260036020526040812054610d2f90859061140a565b90508015610d62576000858152600360205260408120600101549054610d629183916001600160a01b03909116906110c1565b60408051868152602081018690526001600160a01b03851681830152600060608201819052608082015290517f443732a78c29282934211eae7aa500dd12db85d4dd795dbcda5f94ee19a67e4f9181900360a00190a15060008054808252600260208190526040832054929091610dda9060016113bc565b815260200190815260200160002081905550600080815480929190610dfe9061141d565b919050555050505050565b6000806000848411610e1a57600080fd5b600084610e2787896113a5565b610e319190611436565b9050600085610e40888261140a565b610e4a908a6113a5565b610e549190611436565b90508181610e6281836113bc565b610e6c908b61140a565b945094509450505093509350939050565b6040516323b872dd60e01b81523360048201526001600160a01b038481166024830152604482018390528391908216906323b872dd906064016020604051808303816000875af1158015610ed5573d6000803e3d6000fd5b505050506040513d601f19601f8201168201806040525081019061047f91906113e8565b84610f138160008054918152600760205260409020541190565b610f2f5760405162461bcd60e51b815260040161037390611373565b6001805460ff16151514610f6a5760405162461bcd60e51b8152602060048201526002602482015261115360f21b6044820152606401610373565b60008681526005602052604090205460ff1615610f8657600080fd5b600086815260036020526040902054851115610fc95760405162461bcd60e51b8152602060048201526002602482015261494160f01b6044820152606401610373565b604080516080810182528681526001600160a01b0380871660208084019182528385018881528784166060860190815260008d815260068452878120965187559351600180880180549288166001600160a01b031993841617905592516002880155905160039096018054969095169516949094179092556005909152829020805460ff19169091179055517f4126de2c73b6b69d46d3290ee98241c5c18ce39a61b29e4e91f877a6d56bb213906110b1908890889088908890889094855260208501939093526001600160a01b039182166040850152606084015216608082015260a00190565b60405180910390a1505050505050565b600083116110f65760405162461bcd60e51b815260206004820152600260248201526129ad60f11b6044820152606401610373565b6040516bffffffffffffffffffffffff19606084901b1660208201526034810182905260009060540160408051808303601f1901815282825280516020918201206001600160a01b03878116600081815260048552858120849055838152600785528581206000199055606080880187528b88528588018381528888018b8152868452600388529288902098518955516001890180546001600160a01b0319169190951617909355516002909601959095558351828152928301949094529181018590529092507f90e88e994885f1cdd31d3393f0b012e817804fc9d2adef69d0d7e5053d1e29ad910160405180910390a150505050565b6000828152600360209081526040808320600101546001600160a01b0316835260048252808320839055848352600782529182902083905581518481529081018390527fa3deafde27c3ffde83f038b337d8b0405d225455ae09fbed6a211ef4ee465f4f910160405180910390a15050565b60006020828403121561127257600080fd5b5035919050565b80356001600160a01b038116811461129057600080fd5b919050565b6000806000606084860312156112aa57600080fd5b83359250602084013591506112c160408501611279565b90509250925092565b6000602082840312156112dc57600080fd5b610b7a82611279565b600080604083850312156112f857600080fd5b50508035926020909101359150565b600080600080600060a0868803121561131f57600080fd5b853594506020860135935061133660408701611279565b92506060860135915061134b60808701611279565b90509295509295909350565b60208082526002908201526109e960f31b604082015260600190565b602080825260029082015261555360f01b604082015260600190565b634e487b7160e01b600052601160045260246000fd5b8082028115828204841417610ac857610ac861138f565b80820180821115610ac857610ac861138f565b6000602082840312156113e157600080fd5b5051919050565b6000602082840312156113fa57600080fd5b81518015158114610b7a57600080fd5b81810381811115610ac857610ac861138f565b60006001820161142f5761142f61138f565b5060010190565b60008261145357634e487b7160e01b600052601260045260246000fd5b50049056fea264697066735822122027ca38fdc91521e5dd7c3b4d42230722abc547a48c13ea202435febfa8c230f964736f6c63430008130033",
  "bytecodeSha1": "630e76e2a3ed4041dc560ea980c91edd85d11adb",
  "compiler": {
    "evm_version": "istanbul",
    "optimizer": {
      "enabled": true,
      "runs": 200
    },
    "version": "0.8.19+commit.7dd6d404"
  },
  "contractName": "Shardable",
  "language": "Solidity",
  "natspec": {
    "author": "Frederik W. L. Christoffersen",
    "custom:beaware": "This is a commercial contract.",
    "details": "historicShards are used to show proof of ownership at different points of time.",
    "kind": "dev",
    "methods": {
      "active()": {
        "notice": "Boolean stating if the Shardable is active and tradeable or not."
      },
      "cancelSale(bytes32)": {
        "notice": "Cancels a sell of a given shard.",
        "params": {
          "shard": "The shard to be put off sale."
        }
      },
      "constructor": {
        "notice": "Constructor function that pushes the first Shard being the property of the Shardable creator.",
        "params": {
          "amount": "Amount of shards to construct Shardable with."
        }
      },
      "getCurrentClock()": {
        "notice": "Returns the clock."
      },
      "getShardExpirationClock(bytes32)": {
        "notice": "Returns the clock, in which a shard will or has expired."
      },
      "getShardSalePrice(bytes32)": {
        "notice": "Returns the price, at which a shard is for sale."
      },
      "infoByShard(bytes32)": {
        "notice": "Mapping pointing to related info of a Shard given the bytes of a unique Shard instance."
      },
      "isShardHolder(address)": {
        "notice": "Checks if address is a shard holder - at least a partial owner of the contract.",
        "params": {
          "account": "The address to be checked for."
        }
      },
      "isValidShard(bytes32)": {
        "notice": "Returns a boolean stating if a given shard is currently valid or not.",
        "params": {
          "shard": "The shard, whose validity is to be checked for."
        }
      },
      "purchase(bytes32,uint256)": {
        "details": "If the purchase is with tokens (ie. tokenAddress != 0x0), first call 'token.approve(Shardable.address, salePrice);'",
        "notice": "Purchases a listed Shard for sale.",
        "params": {
          "shard": "The shard of which a fraction will be purchased."
        }
      },
      "putForSale(bytes32,uint256,address,uint256,address)": {
        "notice": "Puts a given shard for sale.",
        "params": {
          "amount": "Amount of the Shard to be put for sale.",
          "price": "The amount which the Shard is for sale as. The token address being the valuta.",
          "shard": "The shard to be put for sale.",
          "to": "The specifically set buyer of the sale. Open to anyone, if address(0).",
          "tokenAddress": "The address of the token that is accepted when purchasing. A value of 0x0 represents ether."
        }
      },
      "shardByOwner(address)": {
        "notice": "Mapping pointing to a currently valid shard given the address of its owner."
      },
      "shardExisted(bytes32,uint256)": {
        "notice": "Returns a boolean stating if the given shard was valid at a given clock.",
        "params": {
          "atClock": "The clock to be checked for.",
          "shard": "The shard, whose validity is to be checked for."
        }
      },
      "split(bytes32,uint256,address)": {
        "notice": "Splits a currently valid shard into two new ones. One is assigned to the receiver. The rest to the previous owner.",
        "params": {
          "amount": "Amount, which will be subtracted from the previous shard and sent to the receiver.",
          "senderShard": "The shard to be split.",
          "to": "The receiver of the new Shard."
        }
      },
      "totalShardAmountByClock(uint256)": {
        "notice": "Mapping pointing to integer value representing the total number of shards issued, provided the clock. Used as the denominator to represent a relative shard fraction."
      }
    },
    "notice": "This contract is used to fractionalize a non-fungible token. Be aware that a sell transfers a service fee of 2.5% to Counekt.",
    "title": "A shardable/fractional non-fungible token that can be fractually owned via Shards.",
    "version": 1
  },
  "opcodes": "PUSH1 0x80 PUSH1 0x40 MSTORE PUSH1 0x4 CALLDATASIZE LT PUSH2 0xDD JUMPI PUSH1 0x0 CALLDATALOAD PUSH1 0xE0 SHR DUP1 PUSH4 0xBCEDB2E0 GT PUSH2 0x7F JUMPI DUP1 PUSH4 0xE1C34C1F GT PUSH2 0x59 JUMPI DUP1 PUSH4 0xE1C34C1F EQ PUSH2 0x2AB JUMPI DUP1 PUSH4 0xEFAE89F8 EQ PUSH2 0x2CB JUMPI DUP1 PUSH4 0xF7AAE621 EQ PUSH2 0x2F8 JUMPI DUP1 PUSH4 0xFD06636B EQ PUSH2 0x318 JUMPI PUSH1 0x0 DUP1 REVERT JUMPDEST DUP1 PUSH4 0xBCEDB2E0 EQ PUSH2 0x203 JUMPI DUP1 PUSH4 0xC4802EB2 EQ PUSH2 0x26B JUMPI DUP1 PUSH4 0xE123182B EQ PUSH2 0x298 JUMPI PUSH1 0x0 DUP1 REVERT JUMPDEST DUP1 PUSH4 0x7B785493 GT PUSH2 0xBB JUMPI DUP1 PUSH4 0x7B785493 EQ PUSH2 0x16E JUMPI DUP1 PUSH4 0x9995B9A9 EQ PUSH2 0x19E JUMPI DUP1 PUSH4 0xA902780F EQ PUSH2 0x1CE JUMPI DUP1 PUSH4 0xB2CB78AB EQ PUSH2 0x1E3 JUMPI PUSH1 0x0 DUP1 REVERT JUMPDEST DUP1 PUSH4 0x2FB0C5E EQ PUSH2 0xE2 JUMPI DUP1 PUSH4 0x66792D2 EQ PUSH2 0x111 JUMPI DUP1 PUSH4 0xBEA8985 EQ PUSH2 0x14C JUMPI JUMPDEST PUSH1 0x0 DUP1 REVERT JUMPDEST CALLVALUE DUP1 ISZERO PUSH2 0xEE JUMPI PUSH1 0x0 DUP1 REVERT JUMPDEST POP PUSH1 0x1 SLOAD PUSH2 0xFC SWAP1 PUSH1 0xFF AND DUP2 JUMP JUMPDEST PUSH1 0x40 MLOAD SWAP1 ISZERO ISZERO DUP2 MSTORE PUSH1 0x20 ADD JUMPDEST PUSH1 0x40 MLOAD DUP1 SWAP2 SUB SWAP1 RETURN JUMPDEST CALLVALUE DUP1 ISZERO PUSH2 0x11D JUMPI PUSH1 0x0 DUP1 REVERT JUMPDEST POP PUSH2 0x13E PUSH2 0x12C CALLDATASIZE PUSH1 0x4 PUSH2 0x1260 JUMP JUMPDEST PUSH1 0x2 PUSH1 0x20 MSTORE PUSH1 0x0 SWAP1 DUP2 MSTORE PUSH1 0x40 SWAP1 KECCAK256 SLOAD DUP2 JUMP JUMPDEST PUSH1 0x40 MLOAD SWAP1 DUP2 MSTORE PUSH1 0x20 ADD PUSH2 0x108 JUMP JUMPDEST CALLVALUE DUP1 ISZERO PUSH2 0x158 JUMPI PUSH1 0x0 DUP1 REVERT JUMPDEST POP PUSH2 0x16C PUSH2 0x167 CALLDATASIZE PUSH1 0x4 PUSH2 0x1260 JUMP JUMPDEST PUSH2 0x338 JUMP JUMPDEST STOP JUMPDEST CALLVALUE DUP1 ISZERO PUSH2 0x17A JUMPI PUSH1 0x0 DUP1 REVERT JUMPDEST POP PUSH2 0x13E PUSH2 0x189 CALLDATASIZE PUSH1 0x4 PUSH2 0x1260 JUMP JUMPDEST PUSH1 0x0 SWAP1 DUP2 MSTORE PUSH1 0x6 PUSH1 0x20 MSTORE PUSH1 0x40 SWAP1 KECCAK256 PUSH1 0x2 ADD SLOAD SWAP1 JUMP JUMPDEST CALLVALUE DUP1 ISZERO PUSH2 0x1AA JUMPI PUSH1 0x0 DUP1 REVERT JUMPDEST POP PUSH2 0xFC PUSH2 0x1B9 CALLDATASIZE PUSH1 0x4 PUSH2 0x1260 JUMP JUMPDEST PUSH1 0x0 DUP1 SLOAD SWAP2 DUP2 MSTORE PUSH1 0x7 PUSH1 0x20 MSTORE PUSH1 0x40 SWAP1 KECCAK256 SLOAD GT SWAP1 JUMP JUMPDEST CALLVALUE DUP1 ISZERO PUSH2 0x1DA JUMPI PUSH1 0x0 DUP1 REVERT JUMPDEST POP PUSH1 0x0 SLOAD PUSH2 0x13E JUMP JUMPDEST CALLVALUE DUP1 ISZERO PUSH2 0x1EF JUMPI PUSH1 0x0 DUP1 REVERT JUMPDEST POP PUSH2 0x16C PUSH2 0x1FE CALLDATASIZE PUSH1 0x4 PUSH2 0x1295 JUMP JUMPDEST PUSH2 0x403 JUMP JUMPDEST CALLVALUE DUP1 ISZERO PUSH2 0x20F JUMPI PUSH1 0x0 DUP1 REVERT JUMPDEST POP PUSH2 0x248 PUSH2 0x21E CALLDATASIZE PUSH1 0x4 PUSH2 0x1260 JUMP JUMPDEST PUSH1 0x3 PUSH1 0x20 MSTORE PUSH1 0x0 SWAP1 DUP2 MSTORE PUSH1 0x40 SWAP1 KECCAK256 DUP1 SLOAD PUSH1 0x1 DUP3 ADD SLOAD PUSH1 0x2 SWAP1 SWAP3 ADD SLOAD SWAP1 SWAP2 PUSH1 0x1 PUSH1 0x1 PUSH1 0xA0 SHL SUB AND SWAP1 DUP4 JUMP JUMPDEST PUSH1 0x40 DUP1 MLOAD SWAP4 DUP5 MSTORE PUSH1 0x1 PUSH1 0x1 PUSH1 0xA0 SHL SUB SWAP1 SWAP3 AND PUSH1 0x20 DUP5 ADD MSTORE SWAP1 DUP3 ADD MSTORE PUSH1 0x60 ADD PUSH2 0x108 JUMP JUMPDEST CALLVALUE DUP1 ISZERO PUSH2 0x277 JUMPI PUSH1 0x0 DUP1 REVERT JUMPDEST POP PUSH2 0x13E PUSH2 0x286 CALLDATASIZE PUSH1 0x4 PUSH2 0x12CA JUMP JUMPDEST PUSH1 0x4 PUSH1 0x20 MSTORE PUSH1 0x0 SWAP1 DUP2 MSTORE PUSH1 0x40 SWAP1 KECCAK256 SLOAD DUP2 JUMP JUMPDEST PUSH2 0x16C PUSH2 0x2A6 CALLDATASIZE PUSH1 0x4 PUSH2 0x12E5 JUMP JUMPDEST PUSH2 0x486 JUMP JUMPDEST CALLVALUE DUP1 ISZERO PUSH2 0x2B7 JUMPI PUSH1 0x0 DUP1 REVERT JUMPDEST POP PUSH2 0xFC PUSH2 0x2C6 CALLDATASIZE PUSH1 0x4 PUSH2 0x12CA JUMP JUMPDEST PUSH2 0xA96 JUMP JUMPDEST CALLVALUE DUP1 ISZERO PUSH2 0x2D7 JUMPI PUSH1 0x0 DUP1 REVERT JUMPDEST POP PUSH2 0x13E PUSH2 0x2E6 CALLDATASIZE PUSH1 0x4 PUSH2 0x1260 JUMP JUMPDEST PUSH1 0x0 SWAP1 DUP2 MSTORE PUSH1 0x7 PUSH1 0x20 MSTORE PUSH1 0x40 SWAP1 KECCAK256 SLOAD SWAP1 JUMP JUMPDEST CALLVALUE DUP1 ISZERO PUSH2 0x304 JUMPI PUSH1 0x0 DUP1 REVERT JUMPDEST POP PUSH2 0x16C PUSH2 0x313 CALLDATASIZE PUSH1 0x4 PUSH2 0x1307 JUMP JUMPDEST PUSH2 0xACE JUMP JUMPDEST CALLVALUE DUP1 ISZERO PUSH2 0x324 JUMPI PUSH1 0x0 DUP1 REVERT JUMPDEST POP PUSH2 0xFC PUSH2 0x333 CALLDATASIZE PUSH1 0x4 PUSH2 0x12E5 JUMP JUMPDEST PUSH2 0xB4C JUMP JUMPDEST PUSH1 0x0 DUP2 DUP2 MSTORE PUSH1 0x3 PUSH1 0x20 MSTORE PUSH1 0x40 SWAP1 KECCAK256 PUSH1 0x1 ADD SLOAD DUP2 SWAP1 PUSH1 0x1 PUSH1 0x1 PUSH1 0xA0 SHL SUB AND CALLER EQ PUSH2 0x37C JUMPI PUSH1 0x40 MLOAD PUSH3 0x461BCD PUSH1 0xE5 SHL DUP2 MSTORE PUSH1 0x4 ADD PUSH2 0x373 SWAP1 PUSH2 0x1357 JUMP JUMPDEST PUSH1 0x40 MLOAD DUP1 SWAP2 SUB SWAP1 REVERT JUMPDEST DUP2 PUSH2 0x396 DUP2 PUSH1 0x0 DUP1 SLOAD SWAP2 DUP2 MSTORE PUSH1 0x7 PUSH1 0x20 MSTORE PUSH1 0x40 SWAP1 KECCAK256 SLOAD GT SWAP1 JUMP JUMPDEST PUSH2 0x3B2 JUMPI PUSH1 0x40 MLOAD PUSH3 0x461BCD PUSH1 0xE5 SHL DUP2 MSTORE PUSH1 0x4 ADD PUSH2 0x373 SWAP1 PUSH2 0x1373 JUMP JUMPDEST PUSH1 0x0 DUP4 DUP2 MSTORE PUSH1 0x5 PUSH1 0x20 MSTORE PUSH1 0x40 SWAP1 KECCAK256 SLOAD PUSH1 0xFF AND PUSH2 0x3F5 JUMPI PUSH1 0x40 MLOAD PUSH3 0x461BCD PUSH1 0xE5 SHL DUP2 MSTORE PUSH1 0x20 PUSH1 0x4 DUP3 ADD MSTORE PUSH1 0x2 PUSH1 0x24 DUP3 ADD MSTORE PUSH2 0x4E53 PUSH1 0xF0 SHL PUSH1 0x44 DUP3 ADD MSTORE PUSH1 0x64 ADD PUSH2 0x373 JUMP JUMPDEST PUSH2 0x3FE DUP4 PUSH2 0xB81 JUMP JUMPDEST POP POP POP JUMP JUMPDEST PUSH1 0x0 DUP4 DUP2 MSTORE PUSH1 0x3 PUSH1 0x20 MSTORE PUSH1 0x40 SWAP1 KECCAK256 PUSH1 0x1 ADD SLOAD DUP4 SWAP1 PUSH1 0x1 PUSH1 0x1 PUSH1 0xA0 SHL SUB AND CALLER EQ PUSH2 0x43E JUMPI PUSH1 0x40 MLOAD PUSH3 0x461BCD PUSH1 0xE5 SHL DUP2 MSTORE PUSH1 0x4 ADD PUSH2 0x373 SWAP1 PUSH2 0x1357 JUMP JUMPDEST DUP4 PUSH2 0x458 DUP2 PUSH1 0x0 DUP1 SLOAD SWAP2 DUP2 MSTORE PUSH1 0x7 PUSH1 0x20 MSTORE PUSH1 0x40 SWAP1 KECCAK256 SLOAD GT SWAP1 JUMP JUMPDEST PUSH2 0x474 JUMPI PUSH1 0x40 MLOAD PUSH3 0x461BCD PUSH1 0xE5 SHL DUP2 MSTORE PUSH1 0x4 ADD PUSH2 0x373 SWAP1 PUSH2 0x1373 JUMP JUMPDEST PUSH2 0x47F DUP6 DUP6 DUP6 PUSH2 0xBD0 JUMP JUMPDEST POP POP POP POP POP JUMP JUMPDEST DUP2 PUSH2 0x4A0 DUP2 PUSH1 0x0 DUP1 SLOAD SWAP2 DUP2 MSTORE PUSH1 0x7 PUSH1 0x20 MSTORE PUSH1 0x40 SWAP1 KECCAK256 SLOAD GT SWAP1 JUMP JUMPDEST PUSH2 0x4BC JUMPI PUSH1 0x40 MLOAD PUSH3 0x461BCD PUSH1 0xE5 SHL DUP2 MSTORE PUSH1 0x4 ADD PUSH2 0x373 SWAP1 PUSH2 0x1373 JUMP JUMPDEST PUSH1 0x0 DUP4 DUP2 MSTORE PUSH1 0x5 PUSH1 0x20 MSTORE PUSH1 0x40 SWAP1 KECCAK256 SLOAD PUSH1 0xFF AND PUSH2 0x4FF JUMPI PUSH1 0x40 MLOAD PUSH3 0x461BCD PUSH1 0xE5 SHL DUP2 MSTORE PUSH1 0x20 PUSH1 0x4 DUP3 ADD MSTORE PUSH1 0x2 PUSH1 0x24 DUP3 ADD MSTORE PUSH2 0x4E53 PUSH1 0xF0 SHL PUSH1 0x44 DUP3 ADD MSTORE PUSH1 0x64 ADD PUSH2 0x373 JUMP JUMPDEST DUP2 PUSH1 0x0 SUB PUSH2 0x534 JUMPI PUSH1 0x40 MLOAD PUSH3 0x461BCD PUSH1 0xE5 SHL DUP2 MSTORE PUSH1 0x20 PUSH1 0x4 DUP3 ADD MSTORE PUSH1 0x2 PUSH1 0x24 DUP3 ADD MSTORE PUSH2 0x4553 PUSH1 0xF0 SHL PUSH1 0x44 DUP3 ADD MSTORE PUSH1 0x64 ADD PUSH2 0x373 JUMP JUMPDEST PUSH1 0x0 DUP4 DUP2 MSTORE PUSH1 0x6 PUSH1 0x20 MSTORE PUSH1 0x40 SWAP1 KECCAK256 SLOAD DUP3 GT ISZERO PUSH2 0x577 JUMPI PUSH1 0x40 MLOAD PUSH3 0x461BCD PUSH1 0xE5 SHL DUP2 MSTORE PUSH1 0x20 PUSH1 0x4 DUP3 ADD MSTORE PUSH1 0x2 PUSH1 0x24 DUP3 ADD MSTORE PUSH2 0x4553 PUSH1 0xF0 SHL PUSH1 0x44 DUP3 ADD MSTORE PUSH1 0x64 ADD PUSH2 0x373 JUMP JUMPDEST PUSH1 0x0 DUP4 DUP2 MSTORE PUSH1 0x6 PUSH1 0x20 MSTORE PUSH1 0x40 SWAP1 KECCAK256 PUSH1 0x3 ADD SLOAD PUSH1 0x1 PUSH1 0x1 PUSH1 0xA0 SHL SUB AND CALLER EQ DUP1 PUSH2 0x5B7 JUMPI POP PUSH1 0x0 DUP4 DUP2 MSTORE PUSH1 0x6 PUSH1 0x20 MSTORE PUSH1 0x40 SWAP1 KECCAK256 PUSH1 0x3 ADD SLOAD PUSH1 0x1 PUSH1 0x1 PUSH1 0xA0 SHL SUB AND ISZERO JUMPDEST PUSH2 0x5E8 JUMPI PUSH1 0x40 MLOAD PUSH3 0x461BCD PUSH1 0xE5 SHL DUP2 MSTORE PUSH1 0x20 PUSH1 0x4 DUP3 ADD MSTORE PUSH1 0x2 PUSH1 0x24 DUP3 ADD MSTORE PUSH2 0x29A9 PUSH1 0xF1 SHL PUSH1 0x44 DUP3 ADD MSTORE PUSH1 0x64 ADD PUSH2 0x373 JUMP JUMPDEST PUSH2 0x5F1 DUP4 PUSH2 0xB81 JUMP JUMPDEST PUSH1 0x0 DUP4 DUP2 MSTORE PUSH1 0x6 PUSH1 0x20 MSTORE PUSH1 0x40 DUP2 KECCAK256 PUSH1 0x2 ADD SLOAD PUSH2 0x60D SWAP1 DUP5 PUSH2 0x13A5 JUMP JUMPDEST SWAP1 POP PUSH1 0x0 DUP1 PUSH1 0x0 PUSH2 0x622 DUP5 PUSH1 0x19 PUSH2 0x3E8 PUSH2 0xE09 JUMP JUMPDEST SWAP2 SWAP5 POP SWAP3 POP SWAP1 POP PUSH2 0x633 DUP2 DUP4 PUSH2 0x13BC JUMP JUMPDEST PUSH1 0x0 DUP9 DUP2 MSTORE PUSH1 0x6 PUSH1 0x20 MSTORE PUSH1 0x40 SWAP1 KECCAK256 PUSH1 0x1 ADD SLOAD SWAP1 SWAP3 POP PUSH1 0x1 PUSH1 0x1 PUSH1 0xA0 SHL SUB AND PUSH2 0x792 JUMPI DUP4 CALLVALUE LT ISZERO PUSH2 0x68A JUMPI PUSH1 0x40 MLOAD PUSH3 0x461BCD PUSH1 0xE5 SHL DUP2 MSTORE PUSH1 0x20 PUSH1 0x4 DUP3 ADD MSTORE PUSH1 0x2 PUSH1 0x24 DUP3 ADD MSTORE PUSH2 0x4945 PUSH1 0xF0 SHL PUSH1 0x44 DUP3 ADD MSTORE PUSH1 0x64 ADD PUSH2 0x373 JUMP JUMPDEST PUSH1 0x40 MLOAD PUSH1 0x0 SWAP1 PUSH20 0x49A71890AEA5A751E30E740C504F2E9683F347BC SWAP1 DUP6 SWAP1 DUP4 DUP2 DUP2 DUP2 DUP6 DUP8 GAS CALL SWAP3 POP POP POP RETURNDATASIZE DUP1 PUSH1 0x0 DUP2 EQ PUSH2 0x6E0 JUMPI PUSH1 0x40 MLOAD SWAP2 POP PUSH1 0x1F NOT PUSH1 0x3F RETURNDATASIZE ADD AND DUP3 ADD PUSH1 0x40 MSTORE RETURNDATASIZE DUP3 MSTORE RETURNDATASIZE PUSH1 0x0 PUSH1 0x20 DUP5 ADD RETURNDATACOPY PUSH2 0x6E5 JUMP JUMPDEST PUSH1 0x60 SWAP2 POP JUMPDEST POP POP PUSH1 0x0 DUP10 DUP2 MSTORE PUSH1 0x3 PUSH1 0x20 MSTORE PUSH1 0x40 DUP1 DUP3 KECCAK256 PUSH1 0x1 ADD SLOAD SWAP1 MLOAD SWAP3 SWAP4 POP SWAP1 SWAP2 PUSH1 0x1 PUSH1 0x1 PUSH1 0xA0 SHL SUB SWAP1 SWAP2 AND SWAP1 DUP6 SWAP1 DUP4 DUP2 DUP2 DUP2 DUP6 DUP8 GAS CALL SWAP3 POP POP POP RETURNDATASIZE DUP1 PUSH1 0x0 DUP2 EQ PUSH2 0x747 JUMPI PUSH1 0x40 MLOAD SWAP2 POP PUSH1 0x1F NOT PUSH1 0x3F RETURNDATASIZE ADD AND DUP3 ADD PUSH1 0x40 MSTORE RETURNDATASIZE DUP3 MSTORE RETURNDATASIZE PUSH1 0x0 PUSH1 0x20 DUP5 ADD RETURNDATACOPY PUSH2 0x74C JUMP JUMPDEST PUSH1 0x60 SWAP2 POP JUMPDEST POP POP SWAP1 POP DUP1 DUP1 ISZERO PUSH2 0x75A JUMPI POP DUP2 JUMPDEST PUSH2 0x78B JUMPI PUSH1 0x40 MLOAD PUSH3 0x461BCD PUSH1 0xE5 SHL DUP2 MSTORE PUSH1 0x20 PUSH1 0x4 DUP3 ADD MSTORE PUSH1 0x2 PUSH1 0x24 DUP3 ADD MSTORE PUSH2 0x2A23 PUSH1 0xF1 SHL PUSH1 0x44 DUP3 ADD MSTORE PUSH1 0x64 ADD PUSH2 0x373 JUMP JUMPDEST POP POP PUSH2 0x942 JUMP JUMPDEST PUSH1 0x0 DUP8 DUP2 MSTORE PUSH1 0x6 PUSH1 0x20 MSTORE PUSH1 0x40 SWAP1 DUP2 SWAP1 KECCAK256 PUSH1 0x1 ADD SLOAD SWAP1 MLOAD PUSH4 0x6EB1769F PUSH1 0xE1 SHL DUP2 MSTORE CALLER PUSH1 0x4 DUP3 ADD MSTORE ADDRESS PUSH1 0x24 DUP3 ADD MSTORE PUSH1 0x1 PUSH1 0x1 PUSH1 0xA0 SHL SUB SWAP1 SWAP2 AND SWAP1 DUP6 SWAP1 DUP3 SWAP1 PUSH4 0xDD62ED3E SWAP1 PUSH1 0x44 ADD PUSH1 0x20 PUSH1 0x40 MLOAD DUP1 DUP4 SUB DUP2 DUP7 GAS STATICCALL ISZERO DUP1 ISZERO PUSH2 0x7F4 JUMPI RETURNDATASIZE PUSH1 0x0 DUP1 RETURNDATACOPY RETURNDATASIZE PUSH1 0x0 REVERT JUMPDEST POP POP POP POP PUSH1 0x40 MLOAD RETURNDATASIZE PUSH1 0x1F NOT PUSH1 0x1F DUP3 ADD AND DUP3 ADD DUP1 PUSH1 0x40 MSTORE POP DUP2 ADD SWAP1 PUSH2 0x818 SWAP2 SWAP1 PUSH2 0x13CF JUMP JUMPDEST LT ISZERO PUSH2 0x84B JUMPI PUSH1 0x40 MLOAD PUSH3 0x461BCD PUSH1 0xE5 SHL DUP2 MSTORE PUSH1 0x20 PUSH1 0x4 DUP3 ADD MSTORE PUSH1 0x2 PUSH1 0x24 DUP3 ADD MSTORE PUSH2 0x1255 PUSH1 0xF2 SHL PUSH1 0x44 DUP3 ADD MSTORE PUSH1 0x64 ADD PUSH2 0x373 JUMP JUMPDEST PUSH1 0x40 MLOAD PUSH4 0x23B872DD PUSH1 0xE0 SHL DUP2 MSTORE CALLER PUSH1 0x4 DUP3 ADD MSTORE PUSH20 0x49A71890AEA5A751E30E740C504F2E9683F347BC PUSH1 0x24 DUP3 ADD MSTORE PUSH1 0x44 DUP2 ADD DUP6 SWAP1 MSTORE PUSH1 0x1 PUSH1 0x1 PUSH1 0xA0 SHL SUB DUP3 AND SWAP1 PUSH4 0x23B872DD SWAP1 PUSH1 0x64 ADD PUSH1 0x20 PUSH1 0x40 MLOAD DUP1 DUP4 SUB DUP2 PUSH1 0x0 DUP8 GAS CALL ISZERO DUP1 ISZERO PUSH2 0x8B2 JUMPI RETURNDATASIZE PUSH1 0x0 DUP1 RETURNDATACOPY RETURNDATASIZE PUSH1 0x0 REVERT JUMPDEST POP POP POP POP PUSH1 0x40 MLOAD RETURNDATASIZE PUSH1 0x1F NOT PUSH1 0x1F DUP3 ADD AND DUP3 ADD DUP1 PUSH1 0x40 MSTORE POP DUP2 ADD SWAP1 PUSH2 0x8D6 SWAP2 SWAP1 PUSH2 0x13E8 JUMP JUMPDEST PUSH2 0x907 JUMPI PUSH1 0x40 MLOAD PUSH3 0x461BCD PUSH1 0xE5 SHL DUP2 MSTORE PUSH1 0x20 PUSH1 0x4 DUP3 ADD MSTORE PUSH1 0x2 PUSH1 0x24 DUP3 ADD MSTORE PUSH2 0x1395 PUSH1 0xF2 SHL PUSH1 0x44 DUP3 ADD MSTORE PUSH1 0x64 ADD PUSH2 0x373 JUMP JUMPDEST PUSH1 0x0 DUP9 DUP2 MSTORE PUSH1 0x3 PUSH1 0x20 SWAP1 DUP2 MSTORE PUSH1 0x40 DUP1 DUP4 KECCAK256 PUSH1 0x1 SWAP1 DUP2 ADD SLOAD PUSH1 0x6 SWAP1 SWAP4 MSTORE SWAP3 KECCAK256 SWAP1 SWAP2 ADD SLOAD PUSH2 0x940 SWAP2 PUSH1 0x1 PUSH1 0x1 PUSH1 0xA0 SHL SUB SWAP1 DUP2 AND SWAP2 AND DUP6 PUSH2 0xE7D JUMP JUMPDEST POP JUMPDEST PUSH2 0x94D DUP8 DUP8 CALLER PUSH2 0xBD0 JUMP JUMPDEST PUSH1 0x0 DUP8 DUP2 MSTORE PUSH1 0x3 PUSH1 0x20 MSTORE PUSH1 0x40 SWAP1 KECCAK256 PUSH1 0x1 ADD SLOAD ADDRESS PUSH1 0x1 PUSH1 0x1 PUSH1 0xA0 SHL SUB SWAP1 SWAP2 AND SUB PUSH2 0x995 JUMPI PUSH1 0x0 DUP1 SLOAD DUP2 MSTORE PUSH1 0x2 PUSH1 0x20 MSTORE PUSH1 0x40 DUP2 KECCAK256 DUP1 SLOAD DUP9 SWAP3 SWAP1 PUSH2 0x98F SWAP1 DUP5 SWAP1 PUSH2 0x13BC JUMP JUMPDEST SWAP1 SWAP2 SSTORE POP POP JUMPDEST PUSH1 0x0 DUP8 DUP2 MSTORE PUSH1 0x6 PUSH1 0x20 SWAP1 DUP2 MSTORE PUSH1 0x40 SWAP2 DUP3 SWAP1 KECCAK256 PUSH1 0x1 DUP2 ADD SLOAD PUSH1 0x2 SWAP1 SWAP2 ADD SLOAD DUP4 MLOAD DUP12 DUP2 MSTORE SWAP3 DUP4 ADD DUP11 SWAP1 MSTORE CALLER DUP4 DUP6 ADD MSTORE PUSH1 0x1 PUSH1 0x1 PUSH1 0xA0 SHL SUB SWAP1 SWAP2 AND PUSH1 0x60 DUP4 ADD MSTORE PUSH1 0x80 DUP3 ADD MSTORE SWAP1 MLOAD PUSH32 0x443732A78C29282934211EAE7AA500DD12DB85D4DD795DBCDA5F94EE19A67E4F SWAP2 DUP2 SWAP1 SUB PUSH1 0xA0 ADD SWAP1 LOG1 PUSH1 0x0 DUP8 DUP2 MSTORE PUSH1 0x6 PUSH1 0x20 MSTORE PUSH1 0x40 SWAP1 KECCAK256 SLOAD DUP7 EQ PUSH2 0xA8D JUMPI PUSH1 0x0 DUP8 DUP2 MSTORE PUSH1 0x3 PUSH1 0x20 SWAP1 DUP2 MSTORE PUSH1 0x40 DUP1 DUP4 KECCAK256 PUSH1 0x1 ADD SLOAD PUSH1 0x1 PUSH1 0x1 PUSH1 0xA0 SHL SUB AND DUP4 MSTORE PUSH1 0x4 DUP3 MSTORE DUP1 DUP4 KECCAK256 SLOAD DUP11 DUP5 MSTORE PUSH1 0x6 SWAP1 SWAP3 MSTORE SWAP1 SWAP2 KECCAK256 SLOAD PUSH2 0xA8D SWAP2 SWAP1 PUSH2 0xA5C SWAP1 DUP10 SWAP1 PUSH2 0x140A JUMP JUMPDEST PUSH1 0x0 DUP11 DUP2 MSTORE PUSH1 0x6 PUSH1 0x20 MSTORE PUSH1 0x40 SWAP1 KECCAK256 PUSH1 0x1 DUP2 ADD SLOAD PUSH1 0x2 DUP3 ADD SLOAD PUSH1 0x3 SWAP1 SWAP3 ADD SLOAD PUSH1 0x1 PUSH1 0x1 PUSH1 0xA0 SHL SUB SWAP2 DUP3 AND SWAP3 SWAP2 AND PUSH2 0xEF9 JUMP JUMPDEST POP POP POP POP POP POP POP JUMP JUMPDEST PUSH1 0x1 PUSH1 0x1 PUSH1 0xA0 SHL SUB DUP2 AND PUSH1 0x0 SWAP1 DUP2 MSTORE PUSH1 0x4 PUSH1 0x20 MSTORE PUSH1 0x40 DUP2 KECCAK256 SLOAD PUSH2 0xAC8 SWAP1 PUSH1 0x0 DUP1 SLOAD SWAP2 DUP2 MSTORE PUSH1 0x7 PUSH1 0x20 MSTORE PUSH1 0x40 SWAP1 KECCAK256 SLOAD GT SWAP1 JUMP JUMPDEST SWAP3 SWAP2 POP POP JUMP JUMPDEST PUSH1 0x0 DUP6 DUP2 MSTORE PUSH1 0x3 PUSH1 0x20 MSTORE PUSH1 0x40 SWAP1 KECCAK256 PUSH1 0x1 ADD SLOAD DUP6 SWAP1 PUSH1 0x1 PUSH1 0x1 PUSH1 0xA0 SHL SUB AND CALLER EQ PUSH2 0xB09 JUMPI PUSH1 0x40 MLOAD PUSH3 0x461BCD PUSH1 0xE5 SHL DUP2 MSTORE PUSH1 0x4 ADD PUSH2 0x373 SWAP1 PUSH2 0x1357 JUMP JUMPDEST DUP6 PUSH2 0xB23 DUP2 PUSH1 0x0 DUP1 SLOAD SWAP2 DUP2 MSTORE PUSH1 0x7 PUSH1 0x20 MSTORE PUSH1 0x40 SWAP1 KECCAK256 SLOAD GT SWAP1 JUMP JUMPDEST PUSH2 0xB3F JUMPI PUSH1 0x40 MLOAD PUSH3 0x461BCD PUSH1 0xE5 SHL DUP2 MSTORE PUSH1 0x4 ADD PUSH2 0x373 SWAP1 PUSH2 0x1373 JUMP JUMPDEST PUSH2 0xA8D DUP8 DUP8 DUP8 DUP8 DUP8 PUSH2 0xEF9 JUMP JUMPDEST PUSH1 0x0 DUP3 DUP2 MSTORE PUSH1 0x3 PUSH1 0x20 MSTORE PUSH1 0x40 DUP2 KECCAK256 PUSH1 0x2 ADD SLOAD DUP3 LT DUP1 ISZERO SWAP1 PUSH2 0xB7A JUMPI POP PUSH1 0x0 DUP4 DUP2 MSTORE PUSH1 0x7 PUSH1 0x20 MSTORE PUSH1 0x40 SWAP1 KECCAK256 SLOAD DUP3 LT JUMPDEST SWAP4 SWAP3 POP POP POP JUMP JUMPDEST DUP1 PUSH2 0xB9B DUP2 PUSH1 0x0 DUP1 SLOAD SWAP2 DUP2 MSTORE PUSH1 0x7 PUSH1 0x20 MSTORE PUSH1 0x40 SWAP1 KECCAK256 SLOAD GT SWAP1 JUMP JUMPDEST PUSH2 0xBB7 JUMPI PUSH1 0x40 MLOAD PUSH3 0x461BCD PUSH1 0xE5 SHL DUP2 MSTORE PUSH1 0x4 ADD PUSH2 0x373 SWAP1 PUSH2 0x1373 JUMP JUMPDEST POP PUSH1 0x0 SWAP1 DUP2 MSTORE PUSH1 0x5 PUSH1 0x20 MSTORE PUSH1 0x40 SWAP1 KECCAK256 DUP1 SLOAD PUSH1 0xFF NOT AND SWAP1 SSTORE JUMP JUMPDEST DUP3 PUSH2 0xBEA DUP2 PUSH1 0x0 DUP1 SLOAD SWAP2 DUP2 MSTORE PUSH1 0x7 PUSH1 0x20 MSTORE PUSH1 0x40 SWAP1 KECCAK256 SLOAD GT SWAP1 JUMP JUMPDEST PUSH2 0xC06 JUMPI PUSH1 0x40 MLOAD PUSH3 0x461BCD PUSH1 0xE5 SHL DUP2 MSTORE PUSH1 0x4 ADD PUSH2 0x373 SWAP1 PUSH2 0x1373 JUMP JUMPDEST PUSH1 0x1 DUP1 SLOAD PUSH1 0xFF AND ISZERO ISZERO EQ PUSH2 0xC41 JUMPI PUSH1 0x40 MLOAD PUSH3 0x461BCD PUSH1 0xE5 SHL DUP2 MSTORE PUSH1 0x20 PUSH1 0x4 DUP3 ADD MSTORE PUSH1 0x2 PUSH1 0x24 DUP3 ADD MSTORE PUSH2 0x1153 PUSH1 0xF2 SHL PUSH1 0x44 DUP3 ADD MSTORE PUSH1 0x64 ADD PUSH2 0x373 JUMP JUMPDEST PUSH1 0x0 DUP5 DUP2 MSTORE PUSH1 0x3 PUSH1 0x20 MSTORE PUSH1 0x40 SWAP1 KECCAK256 SLOAD DUP4 GT ISZERO PUSH2 0xC84 JUMPI PUSH1 0x40 MLOAD PUSH3 0x461BCD PUSH1 0xE5 SHL DUP2 MSTORE PUSH1 0x20 PUSH1 0x4 DUP3 ADD MSTORE PUSH1 0x2 PUSH1 0x24 DUP3 ADD MSTORE PUSH2 0x4941 PUSH1 0xF0 SHL PUSH1 0x44 DUP3 ADD MSTORE PUSH1 0x64 ADD PUSH2 0x373 JUMP JUMPDEST PUSH2 0xC8D DUP3 PUSH2 0xA96 JUMP JUMPDEST ISZERO PUSH2 0xCFC JUMPI PUSH1 0x1 PUSH1 0x1 PUSH1 0xA0 SHL SUB DUP3 AND PUSH1 0x0 SWAP1 DUP2 MSTORE PUSH1 0x4 PUSH1 0x20 SWAP1 DUP2 MSTORE PUSH1 0x40 DUP1 DUP4 KECCAK256 SLOAD DUP4 MSTORE PUSH1 0x3 SWAP1 SWAP2 MSTORE DUP2 KECCAK256 SLOAD PUSH2 0xCC2 SWAP1 DUP6 PUSH2 0x13BC JUMP JUMPDEST SWAP1 POP PUSH2 0xCD1 DUP2 DUP5 PUSH1 0x0 SLOAD PUSH2 0x10C1 JUMP JUMPDEST PUSH1 0x1 PUSH1 0x1 PUSH1 0xA0 SHL SUB DUP4 AND PUSH1 0x0 SWAP1 DUP2 MSTORE PUSH1 0x4 PUSH1 0x20 MSTORE PUSH1 0x40 DUP2 KECCAK256 SLOAD SWAP1 SLOAD PUSH2 0xCF6 SWAP2 SWAP1 PUSH2 0x11EE JUMP JUMPDEST POP PUSH2 0xD09 JUMP JUMPDEST PUSH2 0xD09 DUP4 DUP4 PUSH1 0x0 SLOAD PUSH2 0x10C1 JUMP JUMPDEST PUSH2 0xD15 DUP5 PUSH1 0x0 SLOAD PUSH2 0x11EE JUMP JUMPDEST PUSH1 0x0 DUP5 DUP2 MSTORE PUSH1 0x3 PUSH1 0x20 MSTORE PUSH1 0x40 DUP2 KECCAK256 SLOAD PUSH2 0xD2F SWAP1 DUP6 SWAP1 PUSH2 0x140A JUMP JUMPDEST SWAP1 POP DUP1 ISZERO PUSH2 0xD62 JUMPI PUSH1 0x0 DUP6 DUP2 MSTORE PUSH1 0x3 PUSH1 0x20 MSTORE PUSH1 0x40 DUP2 KECCAK256 PUSH1 0x1 ADD SLOAD SWAP1 SLOAD PUSH2 0xD62 SWAP2 DUP4 SWAP2 PUSH1 0x1 PUSH1 0x1 PUSH1 0xA0 SHL SUB SWAP1 SWAP2 AND SWAP1 PUSH2 0x10C1 JUMP JUMPDEST PUSH1 0x40 DUP1 MLOAD DUP7 DUP2 MSTORE PUSH1 0x20 DUP2 ADD DUP7 SWAP1 MSTORE PUSH1 0x1 PUSH1 0x1 PUSH1 0xA0 SHL SUB DUP6 AND DUP2 DUP4 ADD MSTORE PUSH1 0x0 PUSH1 0x60 DUP3 ADD DUP2 SWAP1 MSTORE PUSH1 0x80 DUP3 ADD MSTORE SWAP1 MLOAD PUSH32 0x443732A78C29282934211EAE7AA500DD12DB85D4DD795DBCDA5F94EE19A67E4F SWAP2 DUP2 SWAP1 SUB PUSH1 0xA0 ADD SWAP1 LOG1 POP PUSH1 0x0 DUP1 SLOAD DUP1 DUP3 MSTORE PUSH1 0x2 PUSH1 0x20 DUP2 SWAP1 MSTORE PUSH1 0x40 DUP4 KECCAK256 SLOAD SWAP3 SWAP1 SWAP2 PUSH2 0xDDA SWAP1 PUSH1 0x1 PUSH2 0x13BC JUMP JUMPDEST DUP2 MSTORE PUSH1 0x20 ADD SWAP1 DUP2 MSTORE PUSH1 0x20 ADD PUSH1 0x0 KECCAK256 DUP2 SWAP1 SSTORE POP PUSH1 0x0 DUP1 DUP2 SLOAD DUP1 SWAP3 SWAP2 SWAP1 PUSH2 0xDFE SWAP1 PUSH2 0x141D JUMP JUMPDEST SWAP2 SWAP1 POP SSTORE POP POP POP POP POP JUMP JUMPDEST PUSH1 0x0 DUP1 PUSH1 0x0 DUP5 DUP5 GT PUSH2 0xE1A JUMPI PUSH1 0x0 DUP1 REVERT JUMPDEST PUSH1 0x0 DUP5 PUSH2 0xE27 DUP8 DUP10 PUSH2 0x13A5 JUMP JUMPDEST PUSH2 0xE31 SWAP2 SWAP1 PUSH2 0x1436 JUMP JUMPDEST SWAP1 POP PUSH1 0x0 DUP6 PUSH2 0xE40 DUP9 DUP3 PUSH2 0x140A JUMP JUMPDEST PUSH2 0xE4A SWAP1 DUP11 PUSH2 0x13A5 JUMP JUMPDEST PUSH2 0xE54 SWAP2 SWAP1 PUSH2 0x1436 JUMP JUMPDEST SWAP1 POP DUP2 DUP2 PUSH2 0xE62 DUP2 DUP4 PUSH2 0x13BC JUMP JUMPDEST PUSH2 0xE6C SWAP1 DUP12 PUSH2 0x140A JUMP JUMPDEST SWAP5 POP SWAP5 POP SWAP5 POP POP POP SWAP4 POP SWAP4 POP SWAP4 SWAP1 POP JUMP JUMPDEST PUSH1 0x40 MLOAD PUSH4 0x23B872DD PUSH1 0xE0 SHL DUP2 MSTORE CALLER PUSH1 0x4 DUP3 ADD MSTORE PUSH1 0x1 PUSH1 0x1 PUSH1 0xA0 SHL SUB DUP5 DUP2 AND PUSH1 0x24 DUP4 ADD MSTORE PUSH1 0x44 DUP3 ADD DUP4 SWAP1 MSTORE DUP4 SWAP2 SWAP1 DUP3 AND SWAP1 PUSH4 0x23B872DD SWAP1 PUSH1 0x64 ADD PUSH1 0x20 PUSH1 0x40 MLOAD DUP1 DUP4 SUB DUP2 PUSH1 0x0 DUP8 GAS CALL ISZERO DUP1 ISZERO PUSH2 0xED5 JUMPI RETURNDATASIZE PUSH1 0x0 DUP1 RETURNDATACOPY RETURNDATASIZE PUSH1 0x0 REVERT JUMPDEST POP POP POP POP PUSH1 0x40 MLOAD RETURNDATASIZE PUSH1 0x1F NOT PUSH1 0x1F DUP3 ADD AND DUP3 ADD DUP1 PUSH1 0x40 MSTORE POP DUP2 ADD SWAP1 PUSH2 0x47F SWAP2 SWAP1 PUSH2 0x13E8 JUMP JUMPDEST DUP5 PUSH2 0xF13 DUP2 PUSH1 0x0 DUP1 SLOAD SWAP2 DUP2 MSTORE PUSH1 0x7 PUSH1 0x20 MSTORE PUSH1 0x40 SWAP1 KECCAK256 SLOAD GT SWAP1 JUMP JUMPDEST PUSH2 0xF2F JUMPI PUSH1 0x40 MLOAD PUSH3 0x461BCD PUSH1 0xE5 SHL DUP2 MSTORE PUSH1 0x4 ADD PUSH2 0x373 SWAP1 PUSH2 0x1373 JUMP JUMPDEST PUSH1 0x1 DUP1 SLOAD PUSH1 0xFF AND ISZERO ISZERO EQ PUSH2 0xF6A JUMPI PUSH1 0x40 MLOAD PUSH3 0x461BCD PUSH1 0xE5 SHL DUP2 MSTORE PUSH1 0x20 PUSH1 0x4 DUP3 ADD MSTORE PUSH1 0x2 PUSH1 0x24 DUP3 ADD MSTORE PUSH2 0x1153 PUSH1 0xF2 SHL PUSH1 0x44 DUP3 ADD MSTORE PUSH1 0x64 ADD PUSH2 0x373 JUMP JUMPDEST PUSH1 0x0 DUP7 DUP2 MSTORE PUSH1 0x5 PUSH1 0x20 MSTORE PUSH1 0x40 SWAP1 KECCAK256 SLOAD PUSH1 0xFF AND ISZERO PUSH2 0xF86 JUMPI PUSH1 0x0 DUP1 REVERT JUMPDEST PUSH1 0x0 DUP7 DUP2 MSTORE PUSH1 0x3 PUSH1 0x20 MSTORE PUSH1 0x40 SWAP1 KECCAK256 SLOAD DUP6 GT ISZERO PUSH2 0xFC9 JUMPI PUSH1 0x40 MLOAD PUSH3 0x461BCD PUSH1 0xE5 SHL DUP2 MSTORE PUSH1 0x20 PUSH1 0x4 DUP3 ADD MSTORE PUSH1 0x2 PUSH1 0x24 DUP3 ADD MSTORE PUSH2 0x4941 PUSH1 0xF0 SHL PUSH1 0x44 DUP3 ADD MSTORE PUSH1 0x64 ADD PUSH2 0x373 JUMP JUMPDEST PUSH1 0x40 DUP1 MLOAD PUSH1 0x80 DUP2 ADD DUP3 MSTORE DUP7 DUP2 MSTORE PUSH1 0x1 PUSH1 0x1 PUSH1 0xA0 SHL SUB DUP1 DUP8 AND PUSH1 0x20 DUP1 DUP5 ADD SWAP2 DUP3 MSTORE DUP4 DUP6 ADD DUP9 DUP2 MSTORE DUP8 DUP5 AND PUSH1 0x60 DUP7 ADD SWAP1 DUP2 MSTORE PUSH1 0x0 DUP14 DUP2 MSTORE PUSH1 0x6 DUP5 MSTORE DUP8 DUP2 KECCAK256 SWAP7 MLOAD DUP8 SSTORE SWAP4 MLOAD PUSH1 0x1 DUP1 DUP9 ADD DUP1 SLOAD SWAP3 DUP9 AND PUSH1 0x1 PUSH1 0x1 PUSH1 0xA0 SHL SUB NOT SWAP4 DUP5 AND OR SWAP1 SSTORE SWAP3 MLOAD PUSH1 0x2 DUP9 ADD SSTORE SWAP1 MLOAD PUSH1 0x3 SWAP1 SWAP7 ADD DUP1 SLOAD SWAP7 SWAP1 SWAP6 AND SWAP6 AND SWAP5 SWAP1 SWAP5 OR SWAP1 SWAP3 SSTORE PUSH1 0x5 SWAP1 SWAP2 MSTORE DUP3 SWAP1 KECCAK256 DUP1 SLOAD PUSH1 0xFF NOT AND SWAP1 SWAP2 OR SWAP1 SSTORE MLOAD PUSH32 0x4126DE2C73B6B69D46D3290EE98241C5C18CE39A61B29E4E91F877A6D56BB213 SWAP1 PUSH2 0x10B1 SWAP1 DUP9 SWAP1 DUP9 SWAP1 DUP9 SWAP1 DUP9 SWAP1 DUP9 SWAP1 SWAP5 DUP6 MSTORE PUSH1 0x20 DUP6 ADD SWAP4 SWAP1 SWAP4 MSTORE PUSH1 0x1 PUSH1 0x1 PUSH1 0xA0 SHL SUB SWAP2 DUP3 AND PUSH1 0x40 DUP6 ADD MSTORE PUSH1 0x60 DUP5 ADD MSTORE AND PUSH1 0x80 DUP3 ADD MSTORE PUSH1 0xA0 ADD SWAP1 JUMP JUMPDEST PUSH1 0x40 MLOAD DUP1 SWAP2 SUB SWAP1 LOG1 POP POP POP POP POP POP JUMP JUMPDEST PUSH1 0x0 DUP4 GT PUSH2 0x10F6 JUMPI PUSH1 0x40 MLOAD PUSH3 0x461BCD PUSH1 0xE5 SHL DUP2 MSTORE PUSH1 0x20 PUSH1 0x4 DUP3 ADD MSTORE PUSH1 0x2 PUSH1 0x24 DUP3 ADD MSTORE PUSH2 0x29AD PUSH1 0xF1 SHL PUSH1 0x44 DUP3 ADD MSTORE PUSH1 0x64 ADD PUSH2 0x373 JUMP JUMPDEST PUSH1 0x40 MLOAD PUSH12 0xFFFFFFFFFFFFFFFFFFFFFFFF NOT PUSH1 0x60 DUP5 SWAP1 SHL AND PUSH1 0x20 DUP3 ADD MSTORE PUSH1 0x34 DUP2 ADD DUP3 SWAP1 MSTORE PUSH1 0x0 SWAP1 PUSH1 0x54 ADD PUSH1 0x40 DUP1 MLOAD DUP1 DUP4 SUB PUSH1 0x1F NOT ADD DUP2 MSTORE DUP3 DUP3 MSTORE DUP1 MLOAD PUSH1 0x20 SWAP2 DUP3 ADD KECCAK256 PUSH1 0x1 PUSH1 0x1 PUSH1 0xA0 SHL SUB DUP8 DUP2 AND PUSH1 0x0 DUP2 DUP2 MSTORE PUSH1 0x4 DUP6 MSTORE DUP6 DUP2 KECCAK256 DUP5 SWAP1 SSTORE DUP4 DUP2 MSTORE PUSH1 0x7 DUP6 MSTORE DUP6 DUP2 KECCAK256 PUSH1 0x0 NOT SWAP1 SSTORE PUSH1 0x60 DUP1 DUP9 ADD DUP8 MSTORE DUP12 DUP9 MSTORE DUP6 DUP9 ADD DUP4 DUP2 MSTORE DUP9 DUP9 ADD DUP12 DUP2 MSTORE DUP7 DUP5 MSTORE PUSH1 0x3 DUP9 MSTORE SWAP3 DUP9 SWAP1 KECCAK256 SWAP9 MLOAD DUP10 SSTORE MLOAD PUSH1 0x1 DUP10 ADD DUP1 SLOAD PUSH1 0x1 PUSH1 0x1 PUSH1 0xA0 SHL SUB NOT AND SWAP2 SWAP1 SWAP6 AND OR SWAP1 SWAP4 SSTORE MLOAD PUSH1 0x2 SWAP1 SWAP7 ADD SWAP6 SWAP1 SWAP6 SSTORE DUP4 MLOAD DUP3 DUP2 MSTORE SWAP3 DUP4 ADD SWAP5 SWAP1 SWAP5 MSTORE SWAP2 DUP2 ADD DUP6 SWAP1 MSTORE SWAP1 SWAP3 POP PUSH32 0x90E88E994885F1CDD31D3393F0B012E817804FC9D2ADEF69D0D7E5053D1E29AD SWAP2 ADD PUSH1 0x40 MLOAD DUP1 SWAP2 SUB SWAP1 LOG1 POP POP POP POP JUMP JUMPDEST PUSH1 0x0 DUP3 DUP2 MSTORE PUSH1 0x3 PUSH1 0x20 SWAP1 DUP2 MSTORE PUSH1 0x40 DUP1 DUP4 KECCAK256 PUSH1 0x1 ADD SLOAD PUSH1 0x1 PUSH1 0x1 PUSH1 0xA0 SHL SUB AND DUP4 MSTORE PUSH1 0x4 DUP3 MSTORE DUP1 DUP4 KECCAK256 DUP4 SWAP1 SSTORE DUP5 DUP4 MSTORE PUSH1 0x7 DUP3 MSTORE SWAP2 DUP3 SWAP1 KECCAK256 DUP4 SWAP1 SSTORE DUP2 MLOAD DUP5 DUP2 MSTORE SWAP1 DUP2 ADD DUP4 SWAP1 MSTORE PUSH32 0xA3DEAFDE27C3FFDE83F038B337D8B0405D225455AE09FBED6A211EF4EE465F4F SWAP2 ADD PUSH1 0x40 MLOAD DUP1 SWAP2 SUB SWAP1 LOG1 POP POP JUMP JUMPDEST PUSH1 0x0 PUSH1 0x20 DUP3 DUP5 SUB SLT ISZERO PUSH2 0x1272 JUMPI PUSH1 0x0 DUP1 REVERT JUMPDEST POP CALLDATALOAD SWAP2 SWAP1 POP JUMP JUMPDEST DUP1 CALLDATALOAD PUSH1 0x1 PUSH1 0x1 PUSH1 0xA0 SHL SUB DUP2 AND DUP2 EQ PUSH2 0x1290 JUMPI PUSH1 0x0 DUP1 REVERT JUMPDEST SWAP2 SWAP1 POP JUMP JUMPDEST PUSH1 0x0 DUP1 PUSH1 0x0 PUSH1 0x60 DUP5 DUP7 SUB SLT ISZERO PUSH2 0x12AA JUMPI PUSH1 0x0 DUP1 REVERT JUMPDEST DUP4 CALLDATALOAD SWAP3 POP PUSH1 0x20 DUP5 ADD CALLDATALOAD SWAP2 POP PUSH2 0x12C1 PUSH1 0x40 DUP6 ADD PUSH2 0x1279 JUMP JUMPDEST SWAP1 POP SWAP3 POP SWAP3 POP SWAP3 JUMP JUMPDEST PUSH1 0x0 PUSH1 0x20 DUP3 DUP5 SUB SLT ISZERO PUSH2 0x12DC JUMPI PUSH1 0x0 DUP1 REVERT JUMPDEST PUSH2 0xB7A DUP3 PUSH2 0x1279 JUMP JUMPDEST PUSH1 0x0 DUP1 PUSH1 0x40 DUP4 DUP6 SUB SLT ISZERO PUSH2 0x12F8 JUMPI PUSH1 0x0 DUP1 REVERT JUMPDEST POP POP DUP1 CALLDATALOAD SWAP3 PUSH1 0x20 SWAP1 SWAP2 ADD CALLDATALOAD SWAP2 POP JUMP JUMPDEST PUSH1 0x0 DUP1 PUSH1 0x0 DUP1 PUSH1 0x0 PUSH1 0xA0 DUP7 DUP9 SUB SLT ISZERO PUSH2 0x131F JUMPI PUSH1 0x0 DUP1 REVERT JUMPDEST DUP6 CALLDATALOAD SWAP5 POP PUSH1 0x20 DUP7 ADD CALLDATALOAD SWAP4 POP PUSH2 0x1336 PUSH1 0x40 DUP8 ADD PUSH2 0x1279 JUMP JUMPDEST SWAP3 POP PUSH1 0x60 DUP7 ADD CALLDATALOAD SWAP2 POP PUSH2 0x134B PUSH1 0x80 DUP8 ADD PUSH2 0x1279 JUMP JUMPDEST SWAP1 POP SWAP3 SWAP6 POP SWAP3 SWAP6 SWAP1 SWAP4 POP JUMP JUMPDEST PUSH1 0x20 DUP1 DUP3 MSTORE PUSH1 0x2 SWAP1 DUP3 ADD MSTORE PUSH2 0x9E9 PUSH1 0xF3 SHL PUSH1 0x40 DUP3 ADD MSTORE PUSH1 0x60 ADD SWAP1 JUMP JUMPDEST PUSH1 0x20 DUP1 DUP3 MSTORE PUSH1 0x2 SWAP1 DUP3 ADD MSTORE PUSH2 0x5553 PUSH1 0xF0 SHL PUSH1 0x40 DUP3 ADD MSTORE PUSH1 0x60 ADD SWAP1 JUMP JUMPDEST PUSH4 0x4E487B71 PUSH1 0xE0 SHL PUSH1 0x0 MSTORE PUSH1 0x11 PUSH1 0x4 MSTORE PUSH1 0x24 PUSH1 0x0 REVERT JUMPDEST DUP1 DUP3 MUL DUP2 ISZERO DUP3 DUP3 DIV DUP5 EQ OR PUSH2 0xAC8 JUMPI PUSH2 0xAC8 PUSH2 0x138F JUMP JUMPDEST DUP1 DUP3 ADD DUP1 DUP3 GT ISZERO PUSH2 0xAC8 JUMPI PUSH2 0xAC8 PUSH2 0x138F JUMP JUMPDEST PUSH1 0x0 PUSH1 0x20 DUP3 DUP5 SUB SLT ISZERO PUSH2 0x13E1 JUMPI PUSH1 0x0 DUP1 REVERT JUMPDEST POP MLOAD SWAP2 SWAP1 POP JUMP JUMPDEST PUSH1 0x0 PUSH1 0x20 DUP3 DUP5 SUB SLT ISZERO PUSH2 0x13FA JUMPI PUSH1 0x0 DUP1 REVERT JUMPDEST DUP2 MLOAD DUP1 ISZERO ISZERO DUP2 EQ PUSH2 0xB7A JUMPI PUSH1 0x0 DUP1 REVERT JUMPDEST DUP2 DUP2 SUB DUP2 DUP2 GT ISZERO PUSH2 0xAC8 JUMPI PUSH2 0xAC8 PUSH2 0x138F JUMP JUMPDEST PUSH1 0x0 PUSH1 0x1 DUP3 ADD PUSH2 0x142F JUMPI PUSH2 0x142F PUSH2 0x138F JUMP JUMPDEST POP PUSH1 0x1 ADD SWAP1 JUMP JUMPDEST PUSH1 0x0 DUP3 PUSH2 0x1453 JUMPI PUSH4 0x4E487B71 PUSH1 0xE0 SHL PUSH1 0x0 MSTORE PUSH1 0x12 PUSH1 0x4 MSTORE PUSH1 0x24 PUSH1 0x0 REVERT JUMPDEST POP DIV SWAP1 JUMP INVALID LOG2 PUSH5 0x6970667358 0x22 SLT KECCAK256 0x27 0xCA CODESIZE REVERT 0xC9 ISZERO 0x21 0xE5 0xDD PUSH29 0x3B4D42230722ABC547A48C13EA202435FEBFA8C230F964736F6C634300 ADDMOD SGT STOP CALLER ",
  "sha1": "8669be83f5bbfea8d8e11cad76cf355b3715f11c",
  "source": "// SPDX-License-Identifier: GPL-3.0-or-later\n\npragma solidity ^0.8.4;\n\nimport \"../node_modules/@openzeppelin/contracts/token/ERC20/ERC20.sol\";\n\ninterface IIdea {\n\n    function receiveToken(address,uint256) external;\n}\n\n/// @notice Returns the two quotients and the remainder of an uneven division with a fraction. Useful for dividing ether and tokens.\n/// @param dividend The dividend, which will be divided by the fraction.\n/// @param numerator Numerator of fraction, which the dividend will be divided into.\n/// @param denominator Denominator of fraction, which the dividend will be divided into.\nfunction divideUnequallyIntoTwoWithRemainder(uint256 dividend, uint256 numerator, uint256 denominator) pure returns(uint256, uint256, uint256) {\n    require(denominator > numerator);\n    uint256 quotient1 = dividend*numerator/denominator;\n    uint256 quotient2 = dividend*(denominator-numerator)/denominator;\n    return (quotient1, quotient2, dividend - (quotient1 + quotient2));\n}\n\n/// @title A shardable/fractional non-fungible token that can be fractually owned via Shards.\n/// @author Frederik W. L. Christoffersen\n/// @notice This contract is used to fractionalize a non-fungible token. Be aware that a sell transfers a service fee of 2.5% to Counekt.\n/// @dev historicShards are used to show proof of ownership at different points of time.\n/// @custom:beaware This is a commercial contract.\ncontract Shardable {\n\n    /// @notice A struct representing the related info of a non-fungible Shard token.\n    /// @dev Is represented via a bytes32 value created from the hash: keccak256(owner, creationClock).\n    /// @param amount Amount that the Shard represents.\n    /// @param owner The owner of the Shard.\n    /// @param creationClock The clock at which the Shard was created.\n    /// @param expiredClock The clock at which the Shard expired. Default is set to the maximum value.\n    struct ShardInfo {\n        uint256 amount;\n        address owner; \n        uint256 creationClock;        \n    }\n\n    /// @notice A struct representing the related sale info of a non-fungible Shard token.\n    /// @param amount Amount that is for sale.\n    /// @param tokenAddress The address of the token that is accepted when purchasing. A value of 0x0 represents ether.\n    /// @param price The amount which the Shard is for sale as. The token address being the valuta.\n    /// @param to Address pointing to a potentially specifically set buyer of the sale.\n    struct ShardSale {\n        uint256 amount;\n        address tokenAddress;\n        uint256 price;\n        address to;\n    }\n\n    /// @notice Integer value to implement a concept of time independently of the messy block.timestamp\n    uint256 clock = 0;\n\n    /// @notice Boolean stating if the Shardable is active and tradeable or not.\n    bool public active;\n\n    /// @notice Mapping pointing to integer value representing the total number of shards issued, provided the clock. Used as the denominator to represent a relative shard fraction.\n    mapping(uint256 => uint256) public totalShardAmountByClock;\n\n    /// @notice Mapping pointing to related info of a Shard given the bytes of a unique Shard instance.\n    mapping(bytes32 => ShardInfo) public infoByShard;\n    /// @notice Mapping pointing to a currently valid shard given the address of its owner.\n    mapping(address => bytes32) public shardByOwner;\n    /// @notice Mapping pointing to a boolean stating if a given Shard is for sale or not.\n    mapping(bytes32 => bool) shardsForSale;\n    /// @notice Mapping pointing to related sale info of a Shard given the bytes of a unique Shard instance.\n    mapping(bytes32 => ShardSale) saleByShard;\n    // @notice Mapping pointing to an expired clock given a shard.\n    mapping(bytes32 => uint256) shardExpirationClock;\n\n    /// @notice Event emitted when a Shard is created.\n    /// @param shard The Shard byte identifier, which was created.\n    /// @param owner The owner of the created Shard.\n    /// @param creationClock The clock at which the shard was created.\n    event NewShard(\n        bytes32 shard,\n        address owner,\n        uint256 creationClock\n        );\n\n    /// @notice Event emitted when a Shard expires.\n    /// @param shard The Shard byte identifier, which expired.\n    /// @param expirationClock The clock at which the shard expired.\n    event ExpiredShard(\n        bytes32 shard,\n        uint256 expirationClock\n        );\n\n    /// @notice Event emitted when a sale of a Shard is sold.\n    /// @param shard The shard that was sold from.\n    /// @param amount Amount of the Shard that was sold.\n    /// @param to The buyer of the sale.\n    /// @param tokenAddress The address of the token that was accepted in the purchase. A value of 0x0 represents ether.\n    /// @param price The amount which the Shard was for sale for. The token address being the valuta.\n    event SaleSold(\n        bytes32 shard,\n        uint256 amount,\n        address to,\n        address tokenAddress,\n        uint256 price\n        );\n\n    /// @notice Event emitted when a Shard is put up for sale.\n    /// @param shard The shard that was put for sale.\n    /// @param amount Amount of the Shard put for sale.\n    /// @param tokenAddress The address of the token that is accepted when purchasing. A value of 0x0 represents ether.\n    /// @param price The amount which the Shard is for sale as. The token address being the valuta.\n    /// @param to The specifically set buyer of the sale, if any.\n    event PutForSale(\n        bytes32 shard,\n        uint256 amount,\n        address tokenAddress,\n        uint256 price,\n        address to\n        );\n\n    modifier incrementClock {\n        _;\n        totalShardAmountByClock[clock+1] = totalShardAmountByClock[clock]; // remember the total shard amount at previous clock\n        clock++;\n    }\n    \n    /// @notice Modifier that requires the msg.sender to be a current valid Shard holder.\n    modifier onlyShardHolder {\n        require(isShardHolder(msg.sender), \"UH\");\n        _;\n    }\n\n    /// @notice Modifier that requires a given Shard to be currently valid.\n    modifier onlyValidShard(bytes32 shard) {\n        require(isValidShard(shard), \"US\");\n        _;\n    }\n\n    /// @notice Modifier that makes sure the entity is active and not liquidized/dissolved.\n    modifier onlyIfActive() {\n        require(active == true, \"EL\");\n        _;\n    }\n\n    /// @notice Modifier that requires the msg.sender to be the owner of a given Shard\n    /// @param shard The Shard, whose ownership is tested for.\n    modifier onlyHolder(bytes32 shard) {\n        require(infoByShard[shard].owner == msg.sender, \"OH\");\n        _;\n    }\n\n    /// @notice Constructor function that pushes the first Shard being the property of the Shardable creator.\n    /// @param amount Amount of shards to construct Shardable with.\n    constructor(uint256 amount) {\n        // passes full ownership to creator of contract\n        _pushShard(amount, msg.sender, 0);\n        totalShardAmountByClock[clock] = amount;\n        active = true;\n    }\n\n    /// @notice Purchases a listed Shard for sale.\n    /// @dev If the purchase is with tokens (ie. tokenAddress != 0x0), first call 'token.approve(Shardable.address, salePrice);'\n    /// @param shard The shard of which a fraction will be purchased.\n    function purchase(bytes32 shard, uint256 amount) external payable onlyValidShard(shard) {\n        require(shardsForSale[shard], \"NS\");\n        require(amount != 0, \"ES\");\n        require(saleByShard[shard].amount >= amount, \"ES\");\n        require((saleByShard[shard].to == msg.sender) || (saleByShard[shard].to == address(0x0)), \"SR\");\n        _cancelSale(shard);\n        uint256 totalPrice = amount * saleByShard[shard].price;\n        (uint256 profitToCounekt, uint256 profitToSeller, uint256 remainder) = divideUnequallyIntoTwoWithRemainder(totalPrice,25,1000);\n        profitToSeller += remainder; // remainder goes to seller\n        // if ether\n        if (saleByShard[shard].tokenAddress == address(0x0)) {\n            require(msg.value >= totalPrice, \"IE\");\n            // Pay Service Fee of 2.5% to Counekt\n            (bool successToCounekt,) = payable(0x49a71890aea5A751E30e740C504f2E9683f347bC).call{value:profitToCounekt}(\"\");\n            // Rest goes to the seller\n            (bool successToSeller,) = payable(infoByShard[shard].owner).call{value:profitToSeller}(\"\");\n            require(successToSeller && successToCounekt, \"TF\");\n        } \n        else {\n            ERC20 token = ERC20(saleByShard[shard].tokenAddress);\n            require(token.allowance(msg.sender,address(this)) >= totalPrice,\"IT\");\n            // Pay Service Fee of 2.5% to Counekt\n            require(token.transferFrom(msg.sender, 0x49a71890aea5A751E30e740C504f2E9683f347bC, profitToCounekt), \"NT\");\n            // Rest goes to the seller\n            _payProfitToSeller(infoByShard[shard].owner,saleByShard[shard].tokenAddress,profitToSeller);\n        }\n        _split(shard, amount,msg.sender);\n        if (infoByShard[shard].owner == address(this)) { // if newly issued shards\n            // add those to the outstanding shard amount\n            totalShardAmountByClock[clock] += amount;\n        }\n        emit SaleSold(shard,amount,msg.sender,saleByShard[shard].tokenAddress,saleByShard[shard].price);\n        // if not whole shard is bought\n        if (saleByShard[shard].amount != amount) { \n            // put the rest to sale again\n            _putForSale(shardByOwner[infoByShard[shard].owner],saleByShard[shard].amount-amount,saleByShard[shard].tokenAddress,saleByShard[shard].price,saleByShard[shard].to);\n        }\n    }\n\n    /// @notice Puts a given shard for sale.\n    /// @param shard The shard to be put for sale.\n    /// @param amount Amount of the Shard to be put for sale.\n    /// @param tokenAddress The address of the token that is accepted when purchasing. A value of 0x0 represents ether.\n    /// @param price The amount which the Shard is for sale as. The token address being the valuta.\n    /// @param to The specifically set buyer of the sale. Open to anyone, if address(0).\n    function putForSale(bytes32 shard, uint256 amount, address tokenAddress, uint256 price, address to) public onlyHolder(shard) onlyValidShard(shard) {\n        _putForSale(shard,amount,tokenAddress,price,to);\n    }\n\n    /// @notice Cancels a sell of a given shard.\n    /// @param shard The shard to be put off sale.\n    function cancelSale(bytes32 shard) public onlyHolder(shard) onlyValidShard(shard) {\n        require(shardsForSale[shard], \"NS\");\n        _cancelSale(shard);\n    }\n\n    /// @notice Splits a currently valid shard into two new ones. One is assigned to the receiver. The rest to the previous owner.\n    /// @param senderShard The shard to be split.\n    /// @param amount Amount, which will be subtracted from the previous shard and sent to the receiver.\n    /// @param to The receiver of the new Shard.\n    function split(bytes32 senderShard, uint256 amount, address to) public onlyHolder(senderShard) onlyValidShard(senderShard) {\n        _split(senderShard,amount,to);\n    }\n\n    /// @notice Returns the clock.\n    function getCurrentClock() public view returns(uint256) {\n        return clock;\n    }\n\n    /// @notice Returns the clock, in which a shard will or has expired.\n    function getShardExpirationClock(bytes32 shard) public view returns(uint256) {\n        return shardExpirationClock[shard];\n    }\n\n    /// @notice Returns the price, at which a shard is for sale.\n    function getShardSalePrice(bytes32 shard) public view returns(uint256) {\n        return saleByShard[shard].price;\n    }\n\n    /// @notice Returns a boolean stating if a given shard is currently valid or not.\n    /// @param shard The shard, whose validity is to be checked for.\n    function isValidShard(bytes32 shard) public view returns(bool) {\n        return getShardExpirationClock(shard) > clock;\n    }\n\n    /// @notice Checks if address is a shard holder - at least a partial owner of the contract.\n    /// @param account The address to be checked for.\n    function isShardHolder(address account) public view returns(bool) {\n        return isValidShard(shardByOwner[account]);\n    }\n    \n    /// @notice Returns a boolean stating if the given shard was valid at a given clock.\n    /// @param shard The shard, whose validity is to be checked for.\n    /// @param atClock The clock to be checked for.\n    function shardExisted(bytes32 shard, uint256 atClock) public view returns(bool) {\n        return infoByShard[shard].creationClock <= atClock && atClock < getShardExpirationClock(shard);\n    }\n\n    /// @notice Cancels a sell of a given Shard.\n    /// @param shard The shard to be put off sale.\n    function _cancelSale(bytes32 shard) internal onlyValidShard(shard) {\n        shardsForSale[shard] = false;\n    }\n\n    /// @notice Splits a currently valid shard into two new ones. One is assigned to the receiver. The rest to the previous owner.\n    /// @param senderShard The shard to be split.\n    /// @param amount Amount, which will be subtracted from the previous shard and sent to the receiver.\n    /// @param to The receiver of the new Shard.\n    function _split(bytes32 senderShard, uint256 amount, address to) internal onlyValidShard(senderShard) onlyIfActive incrementClock {\n        require(amount <= infoByShard[senderShard].amount, \"IA\");\n        if (isShardHolder(to)) { // if Receiver already owns a shard\n            // The amounts are added and the shard thereby upgraded\n            uint256 sumAmount = amount + infoByShard[shardByOwner[to]].amount;\n            _pushShard(sumAmount,to,clock);\n            // Expire the Old Receiver Shard\n            _expireShard(shardByOwner[to], clock);\n        }\n\n        else {\n            // The amount of the Receiver Shard is equal to the one split off of the Sender Shard\n            _pushShard(amount,to,clock);\n        }\n\n        // Expire the Old Sender Shard\n        _expireShard(senderShard, clock);\n        // The new amount of the Sender Shard has been subtracted by the Split amount.\n        uint256 diff = infoByShard[senderShard].amount - amount;\n        if (diff != 0) {\n        _pushShard(diff,infoByShard[senderShard].owner,clock);\n        }\n        emit SaleSold(senderShard,amount,to,address(0),0);\n    }\n\n    /// @notice Puts a given shard for sale.\n    /// @param shard The shard to be put for sale.\n    /// @param amount Amount of the Shard to be put for sale.\n    /// @param tokenAddress The address of the token that is accepted when purchasing. A value of 0x0 represents ether.\n    /// @param price The amount which the Shard is for sale as. The token address being the valuta.\n    /// @param to The specifically set buyer of the sale. For anyone to buy if address(0).\n    function _putForSale(bytes32 shard, uint256 amount, address tokenAddress, uint256 price, address to) internal onlyValidShard(shard) onlyIfActive {\n        require(shardsForSale[shard] == false);\n        require(amount <= infoByShard[shard].amount, \"IA\");\n        saleByShard[shard] = ShardSale({\n            amount: amount,\n            tokenAddress: tokenAddress,\n            price: price,\n            to: to\n        });\n        shardsForSale[shard] = true;\n        emit PutForSale(shard,amount,tokenAddress,price,to);\n    }\n\n    /// @notice Pushes a shard to the registry of currently valid shards.\n    /// @param amount Amount of the Shard represents.\n    /// @param owner The owner of the Shard.\n    /// @param creationClock The clock at which the Shard will be created.\n    function _pushShard(uint256 amount, address owner, uint256 creationClock) internal {\n        require(amount > 0, \"SZ\");\n        // The representation, bytes and hash\n        bytes32 shard = keccak256(abi.encodePacked(owner,creationClock));\n        shardByOwner[owner] = shard;\n        shardExpirationClock[shard] = type(uint256).max; // The maximum value: (2^256)-1;\n        // The info, attributes and details\n        infoByShard[shard] = ShardInfo({\n                                amount:amount,\n                                owner: owner,\n                                creationClock: creationClock\n                                });\n        emit NewShard(shard,owner,creationClock);\n\n    }\n\n    /// @notice Removes a shard from the registry of currently valid shards.\n    /// @param shard The shard to be expired.\n    /// @param expirationClock The clock at which the Shard will expire.\n    function _expireShard(bytes32 shard, uint256 expirationClock) internal {\n        shardByOwner[infoByShard[shard].owner] = bytes32(0);\n        shardExpirationClock[shard] = expirationClock;\n        emit ExpiredShard(shard,expirationClock);\n    }\n\n    /// @notice Pays profit to the seller. \n    /// @dev Is modifiable. Takes into account buying of issued shards in Idea.\n    /// @param account The address of the seller.\n    /// @param account The address of the token address.\n    /// @param value The value to be sent to the seller as payment. \n    function _payProfitToSeller(address account, address tokenAddress, uint256 value) virtual internal {\n        ERC20 token = ERC20(tokenAddress);\n        token.transferFrom(msg.sender, account, value);\n    }\n\n}",
  "sourcePath": "contracts/shardable.sol",
  "type": "contract"
}