{
  "abi": [
    {
      "inputs": [
        {
          "internalType": "uint256",
          "name": "amount",
          "type": "uint256"
        }
      ],
      "stateMutability": "nonpayable",
      "type": "constructor"
    },
    {
      "anonymous": false,
      "inputs": [
        {
          "indexed": false,
          "internalType": "string",
          "name": "func",
          "type": "string"
        },
        {
          "indexed": false,
          "internalType": "bytes",
          "name": "args",
          "type": "bytes"
        },
        {
          "indexed": false,
          "internalType": "address",
          "name": "by",
          "type": "address"
        }
      ],
      "name": "ActionTaken",
      "type": "event"
    },
    {
      "anonymous": false,
      "inputs": [
        {
          "indexed": false,
          "internalType": "uint256",
          "name": "dividendClock",
          "type": "uint256"
        },
        {
          "indexed": false,
          "internalType": "uint256",
          "name": "value",
          "type": "uint256"
        },
        {
          "indexed": false,
          "internalType": "address",
          "name": "by",
          "type": "address"
        }
      ],
      "name": "DividendClaimed",
      "type": "event"
    },
    {
      "anonymous": false,
      "inputs": [
        {
          "indexed": false,
          "internalType": "uint256",
          "name": "referendum",
          "type": "uint256"
        }
      ],
      "name": "ReferendumClosed",
      "type": "event"
    },
    {
      "anonymous": false,
      "inputs": [
        {
          "indexed": false,
          "internalType": "uint256",
          "name": "referendum",
          "type": "uint256"
        }
      ],
      "name": "ReferendumImplemented",
      "type": "event"
    },
    {
      "anonymous": false,
      "inputs": [
        {
          "indexed": false,
          "internalType": "enum Shardable.SaleState",
          "name": "status",
          "type": "uint8"
        },
        {
          "indexed": false,
          "internalType": "bytes32",
          "name": "shard",
          "type": "bytes32"
        },
        {
          "components": [
            {
              "internalType": "uint256",
              "name": "amount",
              "type": "uint256"
            },
            {
              "internalType": "uint256",
              "name": "price",
              "type": "uint256"
            },
            {
              "internalType": "address",
              "name": "tokenAddress",
              "type": "address"
            },
            {
              "internalType": "address",
              "name": "to",
              "type": "address"
            }
          ],
          "indexed": false,
          "internalType": "struct Shardable.ShardSale",
          "name": "sale",
          "type": "tuple"
        }
      ],
      "name": "SaleStateUpdated",
      "type": "event"
    },
    {
      "anonymous": false,
      "inputs": [
        {
          "indexed": false,
          "internalType": "bool",
          "name": "status",
          "type": "bool"
        },
        {
          "indexed": false,
          "internalType": "bytes32",
          "name": "shard",
          "type": "bytes32"
        }
      ],
      "name": "ShardUpdated",
      "type": "event"
    },
    {
      "anonymous": false,
      "inputs": [
        {
          "indexed": false,
          "internalType": "address",
          "name": "tokenAddress",
          "type": "address"
        },
        {
          "indexed": false,
          "internalType": "uint256",
          "name": "value",
          "type": "uint256"
        },
        {
          "indexed": false,
          "internalType": "address",
          "name": "from",
          "type": "address"
        }
      ],
      "name": "TokenReceived",
      "type": "event"
    },
    {
      "anonymous": false,
      "inputs": [
        {
          "indexed": false,
          "internalType": "uint256",
          "name": "referendumClock",
          "type": "uint256"
        },
        {
          "indexed": false,
          "internalType": "bool",
          "name": "favor",
          "type": "bool"
        },
        {
          "indexed": false,
          "internalType": "address",
          "name": "by",
          "type": "address"
        }
      ],
      "name": "VoteCast",
      "type": "event"
    },
    {
      "inputs": [
        {
          "internalType": "address",
          "name": "tokenAddress",
          "type": "address"
        }
      ],
      "name": "acceptsToken",
      "outputs": [
        {
          "internalType": "bool",
          "name": "",
          "type": "bool"
        }
      ],
      "stateMutability": "view",
      "type": "function"
    },
    {
      "inputs": [],
      "name": "active",
      "outputs": [
        {
          "internalType": "bool",
          "name": "",
          "type": "bool"
        }
      ],
      "stateMutability": "view",
      "type": "function"
    },
    {
      "inputs": [
        {
          "internalType": "string",
          "name": "bankName",
          "type": "string"
        },
        {
          "internalType": "address",
          "name": "bankAdmin",
          "type": "address"
        }
      ],
      "name": "addBankAdmin",
      "outputs": [],
      "stateMutability": "nonpayable",
      "type": "function"
    },
    {
      "inputs": [
        {
          "internalType": "string",
          "name": "bankName",
          "type": "string"
        }
      ],
      "name": "bankExists",
      "outputs": [
        {
          "internalType": "bool",
          "name": "",
          "type": "bool"
        }
      ],
      "stateMutability": "view",
      "type": "function"
    },
    {
      "inputs": [
        {
          "internalType": "string",
          "name": "bankName",
          "type": "string"
        }
      ],
      "name": "bankIsEmpty",
      "outputs": [
        {
          "internalType": "bool",
          "name": "",
          "type": "bool"
        }
      ],
      "stateMutability": "view",
      "type": "function"
    },
    {
      "inputs": [
        {
          "internalType": "bytes32",
          "name": "shard",
          "type": "bytes32"
        }
      ],
      "name": "cancelSale",
      "outputs": [],
      "stateMutability": "nonpayable",
      "type": "function"
    },
    {
      "inputs": [
        {
          "internalType": "bytes32",
          "name": "shard",
          "type": "bytes32"
        },
        {
          "internalType": "uint256",
          "name": "dividend",
          "type": "uint256"
        }
      ],
      "name": "claimDividend",
      "outputs": [],
      "stateMutability": "nonpayable",
      "type": "function"
    },
    {
      "inputs": [
        {
          "internalType": "address",
          "name": "tokenAddress",
          "type": "address"
        }
      ],
      "name": "claimLiquid",
      "outputs": [],
      "stateMutability": "nonpayable",
      "type": "function"
    },
    {
      "inputs": [
        {
          "internalType": "address",
          "name": "tokenAddress",
          "type": "address"
        }
      ],
      "name": "claimTerminatedLiquid",
      "outputs": [],
      "stateMutability": "nonpayable",
      "type": "function"
    },
    {
      "inputs": [
        {
          "internalType": "string",
          "name": "bankName",
          "type": "string"
        },
        {
          "internalType": "address",
          "name": "bankAdmin",
          "type": "address"
        }
      ],
      "name": "createBank",
      "outputs": [],
      "stateMutability": "nonpayable",
      "type": "function"
    },
    {
      "inputs": [
        {
          "internalType": "string",
          "name": "bankName",
          "type": "string"
        }
      ],
      "name": "deleteBank",
      "outputs": [],
      "stateMutability": "nonpayable",
      "type": "function"
    },
    {
      "inputs": [
        {
          "internalType": "uint256",
          "name": "dividend",
          "type": "uint256"
        }
      ],
      "name": "dissolveDividend",
      "outputs": [],
      "stateMutability": "nonpayable",
      "type": "function"
    },
    {
      "inputs": [
        {
          "internalType": "uint256",
          "name": "dividend",
          "type": "uint256"
        }
      ],
      "name": "dividendExists",
      "outputs": [
        {
          "internalType": "bool",
          "name": "",
          "type": "bool"
        }
      ],
      "stateMutability": "view",
      "type": "function"
    },
    {
      "inputs": [
        {
          "internalType": "string",
          "name": "bankName",
          "type": "string"
        },
        {
          "internalType": "address",
          "name": "tokenAddress",
          "type": "address"
        }
      ],
      "name": "getBankBalance",
      "outputs": [
        {
          "internalType": "uint256",
          "name": "",
          "type": "uint256"
        }
      ],
      "stateMutability": "view",
      "type": "function"
    },
    {
      "inputs": [],
      "name": "getCurrentClock",
      "outputs": [
        {
          "internalType": "uint256",
          "name": "",
          "type": "uint256"
        }
      ],
      "stateMutability": "view",
      "type": "function"
    },
    {
      "inputs": [
        {
          "internalType": "uint256",
          "name": "dividend",
          "type": "uint256"
        }
      ],
      "name": "getDividendResidual",
      "outputs": [
        {
          "internalType": "uint256",
          "name": "",
          "type": "uint256"
        }
      ],
      "stateMutability": "view",
      "type": "function"
    },
    {
      "inputs": [
        {
          "internalType": "uint256",
          "name": "dividend",
          "type": "uint256"
        }
      ],
      "name": "getDividendToken",
      "outputs": [
        {
          "internalType": "address",
          "name": "",
          "type": "address"
        }
      ],
      "stateMutability": "view",
      "type": "function"
    },
    {
      "inputs": [
        {
          "internalType": "uint256",
          "name": "dividend",
          "type": "uint256"
        }
      ],
      "name": "getDividendValue",
      "outputs": [
        {
          "internalType": "uint256",
          "name": "",
          "type": "uint256"
        }
      ],
      "stateMutability": "view",
      "type": "function"
    },
    {
      "inputs": [
        {
          "internalType": "address",
          "name": "tokenAddress",
          "type": "address"
        }
      ],
      "name": "getLiquidResidual",
      "outputs": [
        {
          "internalType": "uint256",
          "name": "",
          "type": "uint256"
        }
      ],
      "stateMutability": "view",
      "type": "function"
    },
    {
      "inputs": [
        {
          "internalType": "uint256",
          "name": "referendum",
          "type": "uint256"
        }
      ],
      "name": "getReferendumResult",
      "outputs": [
        {
          "internalType": "bool",
          "name": "",
          "type": "bool"
        }
      ],
      "stateMutability": "view",
      "type": "function"
    },
    {
      "inputs": [
        {
          "internalType": "bytes32",
          "name": "shard",
          "type": "bytes32"
        }
      ],
      "name": "getShardExpirationClock",
      "outputs": [
        {
          "internalType": "uint256",
          "name": "",
          "type": "uint256"
        }
      ],
      "stateMutability": "view",
      "type": "function"
    },
    {
      "inputs": [
        {
          "internalType": "bytes32",
          "name": "shard",
          "type": "bytes32"
        }
      ],
      "name": "getShardSalePrice",
      "outputs": [
        {
          "internalType": "uint256",
          "name": "",
          "type": "uint256"
        }
      ],
      "stateMutability": "view",
      "type": "function"
    },
    {
      "inputs": [
        {
          "internalType": "string",
          "name": "permitName",
          "type": "string"
        },
        {
          "internalType": "address",
          "name": "account",
          "type": "address"
        }
      ],
      "name": "hasPermit",
      "outputs": [
        {
          "internalType": "bool",
          "name": "",
          "type": "bool"
        }
      ],
      "stateMutability": "view",
      "type": "function"
    },
    {
      "inputs": [
        {
          "internalType": "uint256",
          "name": "referendum",
          "type": "uint256"
        },
        {
          "internalType": "address",
          "name": "account",
          "type": "address"
        }
      ],
      "name": "hasVoted",
      "outputs": [
        {
          "internalType": "bool",
          "name": "",
          "type": "bool"
        }
      ],
      "stateMutability": "view",
      "type": "function"
    },
    {
      "inputs": [
        {
          "internalType": "uint256",
          "name": "referendum",
          "type": "uint256"
        },
        {
          "internalType": "uint256",
          "name": "proposalIndex",
          "type": "uint256"
        }
      ],
      "name": "implementProposal",
      "outputs": [],
      "stateMutability": "nonpayable",
      "type": "function"
    },
    {
      "inputs": [
        {
          "internalType": "uint256",
          "name": "",
          "type": "uint256"
        }
      ],
      "name": "infoByReferendum",
      "outputs": [
        {
          "internalType": "address",
          "name": "issuer",
          "type": "address"
        }
      ],
      "stateMutability": "view",
      "type": "function"
    },
    {
      "inputs": [
        {
          "internalType": "bytes32",
          "name": "",
          "type": "bytes32"
        }
      ],
      "name": "infoByShard",
      "outputs": [
        {
          "internalType": "uint256",
          "name": "amount",
          "type": "uint256"
        },
        {
          "internalType": "address",
          "name": "owner",
          "type": "address"
        },
        {
          "internalType": "uint256",
          "name": "creationClock",
          "type": "uint256"
        }
      ],
      "stateMutability": "view",
      "type": "function"
    },
    {
      "inputs": [
        {
          "internalType": "string",
          "name": "bankName",
          "type": "string"
        },
        {
          "internalType": "address",
          "name": "account",
          "type": "address"
        }
      ],
      "name": "isBankAdmin",
      "outputs": [
        {
          "internalType": "bool",
          "name": "",
          "type": "bool"
        }
      ],
      "stateMutability": "view",
      "type": "function"
    },
    {
      "inputs": [
        {
          "internalType": "string",
          "name": "permitName",
          "type": "string"
        },
        {
          "internalType": "address",
          "name": "account",
          "type": "address"
        }
      ],
      "name": "isPermitAdmin",
      "outputs": [
        {
          "internalType": "bool",
          "name": "",
          "type": "bool"
        }
      ],
      "stateMutability": "view",
      "type": "function"
    },
    {
      "inputs": [
        {
          "internalType": "address",
          "name": "account",
          "type": "address"
        }
      ],
      "name": "isShardHolder",
      "outputs": [
        {
          "internalType": "bool",
          "name": "",
          "type": "bool"
        }
      ],
      "stateMutability": "view",
      "type": "function"
    },
    {
      "inputs": [],
      "name": "isTerminated",
      "outputs": [
        {
          "internalType": "bool",
          "name": "",
          "type": "bool"
        }
      ],
      "stateMutability": "view",
      "type": "function"
    },
    {
      "inputs": [
        {
          "internalType": "bytes32",
          "name": "shard",
          "type": "bytes32"
        }
      ],
      "name": "isValidShard",
      "outputs": [
        {
          "internalType": "bool",
          "name": "",
          "type": "bool"
        }
      ],
      "stateMutability": "view",
      "type": "function"
    },
    {
      "inputs": [
        {
          "internalType": "string",
          "name": "bankName",
          "type": "string"
        },
        {
          "internalType": "address",
          "name": "tokenAddress",
          "type": "address"
        },
        {
          "internalType": "uint256",
          "name": "value",
          "type": "uint256"
        }
      ],
      "name": "issueDividend",
      "outputs": [],
      "stateMutability": "nonpayable",
      "type": "function"
    },
    {
      "inputs": [
        {
          "internalType": "string[]",
          "name": "proposalFuncs",
          "type": "string[]"
        },
        {
          "internalType": "bytes[]",
          "name": "proposalArgs",
          "type": "bytes[]"
        }
      ],
      "name": "issueReferendum",
      "outputs": [],
      "stateMutability": "nonpayable",
      "type": "function"
    },
    {
      "inputs": [
        {
          "internalType": "uint256",
          "name": "amount",
          "type": "uint256"
        },
        {
          "internalType": "address",
          "name": "tokenAddress",
          "type": "address"
        },
        {
          "internalType": "uint256",
          "name": "price",
          "type": "uint256"
        },
        {
          "internalType": "address",
          "name": "to",
          "type": "address"
        }
      ],
      "name": "issueShards",
      "outputs": [],
      "stateMutability": "nonpayable",
      "type": "function"
    },
    {
      "inputs": [
        {
          "internalType": "address",
          "name": "",
          "type": "address"
        }
      ],
      "name": "liquid",
      "outputs": [
        {
          "internalType": "uint256",
          "name": "",
          "type": "uint256"
        }
      ],
      "stateMutability": "view",
      "type": "function"
    },
    {
      "inputs": [],
      "name": "liquidize",
      "outputs": [],
      "stateMutability": "nonpayable",
      "type": "function"
    },
    {
      "inputs": [
        {
          "internalType": "string",
          "name": "fromBankName",
          "type": "string"
        },
        {
          "internalType": "string",
          "name": "toBankName",
          "type": "string"
        },
        {
          "internalType": "address",
          "name": "tokenAddress",
          "type": "address"
        },
        {
          "internalType": "uint256",
          "name": "value",
          "type": "uint256"
        }
      ],
      "name": "moveToken",
      "outputs": [],
      "stateMutability": "nonpayable",
      "type": "function"
    },
    {
      "inputs": [
        {
          "internalType": "uint256",
          "name": "referendum",
          "type": "uint256"
        },
        {
          "internalType": "uint256",
          "name": "proposalIndex",
          "type": "uint256"
        }
      ],
      "name": "proposalExists",
      "outputs": [
        {
          "internalType": "bool",
          "name": "",
          "type": "bool"
        }
      ],
      "stateMutability": "view",
      "type": "function"
    },
    {
      "inputs": [
        {
          "internalType": "bytes32",
          "name": "shard",
          "type": "bytes32"
        },
        {
          "internalType": "uint256",
          "name": "amount",
          "type": "uint256"
        },
        {
          "internalType": "uint256",
          "name": "price",
          "type": "uint256"
        }
      ],
      "name": "purchase",
      "outputs": [],
      "stateMutability": "payable",
      "type": "function"
    },
    {
      "inputs": [
        {
          "internalType": "bytes32",
          "name": "shard",
          "type": "bytes32"
        },
        {
          "internalType": "uint256",
          "name": "amount",
          "type": "uint256"
        },
        {
          "internalType": "address",
          "name": "tokenAddress",
          "type": "address"
        },
        {
          "internalType": "uint256",
          "name": "price",
          "type": "uint256"
        },
        {
          "internalType": "address",
          "name": "to",
          "type": "address"
        }
      ],
      "name": "putForSale",
      "outputs": [],
      "stateMutability": "nonpayable",
      "type": "function"
    },
    {
      "inputs": [
        {
          "internalType": "address",
          "name": "tokenAddress",
          "type": "address"
        },
        {
          "internalType": "uint256",
          "name": "value",
          "type": "uint256"
        }
      ],
      "name": "receiveToken",
      "outputs": [],
      "stateMutability": "nonpayable",
      "type": "function"
    },
    {
      "inputs": [
        {
          "internalType": "uint256",
          "name": "referendum",
          "type": "uint256"
        }
      ],
      "name": "referendumIsImplemented",
      "outputs": [
        {
          "internalType": "bool",
          "name": "",
          "type": "bool"
        }
      ],
      "stateMutability": "view",
      "type": "function"
    },
    {
      "inputs": [
        {
          "internalType": "uint256",
          "name": "referendum",
          "type": "uint256"
        }
      ],
      "name": "referendumIsPassed",
      "outputs": [
        {
          "internalType": "bool",
          "name": "",
          "type": "bool"
        }
      ],
      "stateMutability": "view",
      "type": "function"
    },
    {
      "inputs": [
        {
          "internalType": "uint256",
          "name": "referendum",
          "type": "uint256"
        }
      ],
      "name": "referendumIsPending",
      "outputs": [
        {
          "internalType": "bool",
          "name": "",
          "type": "bool"
        }
      ],
      "stateMutability": "view",
      "type": "function"
    },
    {
      "inputs": [
        {
          "internalType": "address",
          "name": "tokenAddress",
          "type": "address"
        }
      ],
      "name": "registerTokenAddress",
      "outputs": [],
      "stateMutability": "nonpayable",
      "type": "function"
    },
    {
      "inputs": [
        {
          "internalType": "string",
          "name": "bankName",
          "type": "string"
        },
        {
          "internalType": "address",
          "name": "bankAdmin",
          "type": "address"
        }
      ],
      "name": "removeBankAdmin",
      "outputs": [],
      "stateMutability": "nonpayable",
      "type": "function"
    },
    {
      "inputs": [
        {
          "internalType": "string",
          "name": "permitName",
          "type": "string"
        },
        {
          "internalType": "address",
          "name": "account",
          "type": "address"
        },
        {
          "internalType": "enum Administrable.PermitState",
          "name": "newState",
          "type": "uint8"
        }
      ],
      "name": "setPermit",
      "outputs": [],
      "stateMutability": "nonpayable",
      "type": "function"
    },
    {
      "inputs": [
        {
          "internalType": "address",
          "name": "",
          "type": "address"
        }
      ],
      "name": "shardByOwner",
      "outputs": [
        {
          "internalType": "bytes32",
          "name": "",
          "type": "bytes32"
        }
      ],
      "stateMutability": "view",
      "type": "function"
    },
    {
      "inputs": [
        {
          "internalType": "bytes32",
          "name": "shard",
          "type": "bytes32"
        },
        {
          "internalType": "uint256",
          "name": "atClock",
          "type": "uint256"
        }
      ],
      "name": "shardExisted",
      "outputs": [
        {
          "internalType": "bool",
          "name": "",
          "type": "bool"
        }
      ],
      "stateMutability": "view",
      "type": "function"
    },
    {
      "inputs": [
        {
          "internalType": "bytes32",
          "name": "senderShard",
          "type": "bytes32"
        },
        {
          "internalType": "uint256",
          "name": "amount",
          "type": "uint256"
        },
        {
          "internalType": "address",
          "name": "to",
          "type": "address"
        }
      ],
      "name": "split",
      "outputs": [],
      "stateMutability": "nonpayable",
      "type": "function"
    },
    {
      "inputs": [
        {
          "internalType": "uint256",
          "name": "",
          "type": "uint256"
        }
      ],
      "name": "totalShardAmountByClock",
      "outputs": [
        {
          "internalType": "uint256",
          "name": "",
          "type": "uint256"
        }
      ],
      "stateMutability": "view",
      "type": "function"
    },
    {
      "inputs": [
        {
          "internalType": "string",
          "name": "bankName",
          "type": "string"
        },
        {
          "internalType": "address",
          "name": "tokenAddress",
          "type": "address"
        },
        {
          "internalType": "uint256",
          "name": "value",
          "type": "uint256"
        },
        {
          "internalType": "address",
          "name": "to",
          "type": "address"
        }
      ],
      "name": "transferTokenFromBank",
      "outputs": [],
      "stateMutability": "nonpayable",
      "type": "function"
    },
    {
      "inputs": [
        {
          "internalType": "address",
          "name": "tokenAddress",
          "type": "address"
        }
      ],
      "name": "unregisterTokenAddress",
      "outputs": [],
      "stateMutability": "nonpayable",
      "type": "function"
    },
    {
      "inputs": [
        {
          "internalType": "bytes32",
          "name": "shard",
          "type": "bytes32"
        },
        {
          "internalType": "uint256",
          "name": "referendum",
          "type": "uint256"
        },
        {
          "internalType": "bool",
          "name": "favor",
          "type": "bool"
        }
      ],
      "name": "vote",
      "outputs": [],
      "stateMutability": "nonpayable",
      "type": "function"
    },
    {
      "stateMutability": "payable",
      "type": "receive"
    }
  ],
  "bytecode": "6080604052600080553480156200001557600080fd5b50604051620064343803806200643483398101604081905262000038916200055e565b8080806200004981336000620001d8565b60008054815260026020908152604091829020929092556001805460ff1916811790558051808201909152600481526336b0b4b760e11b918101919091526200009491503362000302565b620000c260405180604001604052806002815260200161695360f01b8152503360026200044460201b60201c565b620000f0604051806040016040528060028152602001611b5160f21b8152503360026200044460201b60201c565b6200011e6040518060400160405280600281526020016136a160f11b8152503360026200044460201b60201c565b6200014c604051806040016040528060028152602001616c4560f01b8152503360026200044460201b60201c565b6040805180820190915260038152621b505560ea1b6020820152620001749033600262000444565b50620001a36040518060400160405280600281526020016134a960f11b8152503360026200044460201b60201c565b620001d160405180604001604052806002815260200161069560f41b8152503360026200044460201b60201c565b50620006f2565b60008311620002135760405162461bcd60e51b815260206004820152600260248201526129ad60f11b60448201526064015b60405180910390fd5b6040516001600160601b0319606084901b1660208201526034810182905260009060540160408051808303601f1901815282825280516020918201206001600160a01b038781166000818152600485528581208490558381526007855285812060001990556060870186528a87528487019182528686018981528482526003865290869020965187559051600180880180546001600160a01b031916929094169190911790925551600290950194909455825193845290830181905292507f12769fd465856c3651942a04374f21755b56a66422aaed87c7e56e936f6dd3d0910160405180910390a150505050565b6001805460ff161515146200033f5760405162461bcd60e51b8152602060048201526002602482015261115360f21b60448201526064016200020a565b6200034a826200052c565b156200037e5760405162461bcd60e51b8152602060048201526002602482015261414560f01b60448201526064016200020a565b60016010836040516200039291906200059e565b90815260408051602092819003830181206001600160a01b038616600090815293529120805460ff191692151592909217909155600190600d90620003d99085906200059e565b90815260405160209181900382018120805460ff19169315159390931790925560008051602062006414833981519152916200041a918591859101620005ea565b60408051601f19818403018152908290526200043891339062000616565b60405180910390a15050565b6001805460ff16151514620004815760405162461bcd60e51b8152602060048201526002602482015261115360f21b60448201526064016200020a565b806011846040516200049491906200059e565b90815260408051602092819003830190206001600160a01b038616600090815292529020805460ff19166001836002811115620004d557620004d56200065b565b021790555060008051602062006414833981519152838383604051602001620005019392919062000671565b60408051601f19818403018152908290526200051f913390620006c4565b60405180910390a1505050565b6000600d826040516200054091906200059e565b9081526040519081900360200190205460ff16151560011492915050565b6000602082840312156200057157600080fd5b5051919050565b60005b83811015620005955781810151838201526020016200057b565b50506000910152565b60008251620005b281846020870162000578565b9190910192915050565b60008151808452620005d681602086016020860162000578565b601f01601f19169290920160200192915050565b604081526000620005ff6040830185620005bc565b905060018060a01b03831660208301529392505050565b60608152600260608201526131a160f11b608082015260a0602082015260006200064460a0830185620005bc565b905060018060a01b03831660408301529392505050565b634e487b7160e01b600052602160045260246000fd5b606081526000620006866060830186620005bc565b6001600160a01b0385166020840152905060038310620006b657634e487b7160e01b600052602160045260246000fd5b826040830152949350505050565b606081526002606082015261073560f41b608082015260a0602082015260006200064460a0830185620005bc565b615d1280620007026000396000f3fe6080604052600436106103545760003560e01c8063868399a5116101c6578063b4af7d59116100f7578063de9d680511610095578063eadb97081161006f578063eadb970814610b3e578063efae89f814610b70578063f7aae62114610b9d578063fd06636b14610bbd57600080fd5b8063de9d680514610ad1578063e1c34c1f14610af1578063e6778fce14610b1157600080fd5b8063c5438a55116100d1578063c5438a5514610a4c578063c8c56af014610a6c578063d1cc997614610a9c578063db5dc9b714610ab157600080fd5b8063b4af7d5914610997578063bcedb2e0146109b7578063c4802eb214610a1f57600080fd5b8063a343c53511610164578063a907b6c51161013e578063a907b6c514610914578063ab2d662b14610934578063b2cb78ab14610947578063b35ca4f31461096757600080fd5b8063a343c535146108a9578063a80aed76146108df578063a902780f146108ff57600080fd5b806397235a1e116101a057806397235a1e1461081957806397890db9146108395780639995b9a914610859578063a1916aef1461088957600080fd5b8063868399a5146107a95780638786df6a146107c95780639211b7b3146107e957600080fd5b8063354cd135116102a05780634c46360b1161023e57806363879c0b1161021857806363879c0b146106fc57806364e5378f1461071c5780637b78549314610759578063859d9fd51461078957600080fd5b80634c46360b146106515780635beeff331461068157806362748dcc146106ae57600080fd5b80633baf28f81161027a5780633baf28f81461058b5780633c06df46146105ab5780633dbeaa54146105cb578063438596321461060157600080fd5b8063354cd1351461052b5780633601f0621461054b578063384fe2b51461056b57600080fd5b8063236566421161030d5780632dec7cd2116102e75780632dec7cd2146104ab5780632ef37926146104cb5780632f2e9a2a146104eb578063350546d81461050b57600080fd5b8063236566421461044b578063258e4d9f1461046b5780632c729fd11461048b57600080fd5b806302fb0c5e1461036c57806305c558f51461039b578063066792d2146103b05780630bea8985146103eb5780630d3330a11461040b578063169936b41461042b57600080fd5b366103675761036560003433610bdd565b005b600080fd5b34801561037857600080fd5b506001546103869060ff1681565b60405190151581526020015b60405180910390f35b3480156103a757600080fd5b50610365610d2b565b3480156103bc57600080fd5b506103dd6103cb366004614aa2565b60026020526000908152604090205481565b604051908152602001610392565b3480156103f757600080fd5b50610365610406366004614aa2565b610d64565b34801561041757600080fd5b50610365610426366004614ad0565b610e43565b34801561043757600080fd5b50610386610446366004614bb8565b610f18565b34801561045757600080fd5b50610365610466366004614aa2565b610f76565b34801561047757600080fd5b50610386610486366004614bf4565b610fb1565b34801561049757600080fd5b506103656104a6366004614c53565b611006565b3480156104b757600080fd5b506103dd6104c6366004614bf4565b611292565b3480156104d757600080fd5b506103656104e6366004614bf4565b6112d3565b3480156104f757600080fd5b50610365610506366004614bf4565b611331565b34801561051757600080fd5b50610365610526366004614ad0565b611383565b34801561053757600080fd5b50610365610546366004614c8c565b611531565b34801561055757600080fd5b50610365610566366004614d70565b611763565b34801561057757600080fd5b50610365610586366004614bb8565b61179b565b34801561059757600080fd5b506103656105a6366004614e43565b6117e6565b3480156105b757600080fd5b506103656105c6366004614c8c565b611827565b3480156105d757600080fd5b506103dd6105e6366004614ad0565b6001600160a01b03166000908152600b602052604090205490565b34801561060d57600080fd5b5061038661061c366004614e8d565b6000918252601a602090815260408084206001600160a01b039390931684526004825280842054845291905290205460ff1690565b34801561065d57600080fd5b506103dd61066c366004614aa2565b60009081526013602052604090206001015490565b34801561068d57600080fd5b506103dd61069c366004614ad0565b60096020526000908152604090205481565b3480156106ba57600080fd5b506106e46106c9366004614aa2565b6000908152601360205260409020546001600160a01b031690565b6040516001600160a01b039091168152602001610392565b34801561070857600080fd5b50610365610717366004614eb2565b61185f565b34801561072857600080fd5b50610386610737366004614aa2565b6000908152601660209081526040808320600101546019909252909120541490565b34801561076557600080fd5b506103dd610774366004614aa2565b60009081526006602052604090206001015490565b34801561079557600080fd5b506103656107a4366004614ad0565b6118ac565b3480156107b557600080fd5b506103866107c4366004614ad0565b61190a565b3480156107d557600080fd5b506103656107e4366004614ad0565b61193f565b3480156107f557600080fd5b50610386610804366004614aa2565b60009081526012602052604090205460ff1690565b34801561082557600080fd5b50610365610834366004614f0b565b61199d565b34801561084557600080fd5b50610386610854366004614aa2565b6119a7565b34801561086557600080fd5b50610386610874366004614aa2565b60008054918152600760205260409020541190565b34801561089557600080fd5b506103656108a4366004614f37565b6119ee565b3480156108b557600080fd5b506106e46108c4366004614aa2565b6016602052600090815260409020546001600160a01b031681565b3480156108eb57600080fd5b506103866108fa366004614bf4565b611a0e565b34801561090b57600080fd5b506000546103dd565b34801561092057600080fd5b5061036561092f366004614bf4565b611a80565b610365610942366004614fb4565b611acc565b34801561095357600080fd5b50610365610962366004614fe0565b612131565b34801561097357600080fd5b50610386610982366004614aa2565b6000908152601c602052604090205460ff1690565b3480156109a357600080fd5b506103866109b2366004614bb8565b6121ad565b3480156109c357600080fd5b506109fc6109d2366004614aa2565b60036020526000908152604090208054600182015460029092015490916001600160a01b03169083565b604080519384526001600160a01b03909216602084015290820152606001610392565b348015610a2b57600080fd5b506103dd610a3a366004614ad0565b60046020526000908152604090205481565b348015610a5857600080fd5b50610365610a6736600461501b565b6121dd565b348015610a7857600080fd5b50610386610a87366004614aa2565b6000908152601b602052604090205460ff1690565b348015610aa857600080fd5b5061038661228a565b348015610abd57600080fd5b50610386610acc366004614bf4565b6122b4565b348015610add57600080fd5b50610365610aec366004615073565b61230a565b348015610afd57600080fd5b50610386610b0c366004614ad0565b61232a565b348015610b1d57600080fd5b506103dd610b2c366004614aa2565b60009081526014602052604090205490565b348015610b4a57600080fd5b50610386610b59366004614c8c565b600091825260166020526040909120600101541190565b348015610b7c57600080fd5b506103dd610b8b366004614aa2565b60009081526007602052604090205490565b348015610ba957600080fd5b50610365610bb83660046150bc565b61235c565b348015610bc957600080fd5b50610386610bd8366004614c8c565b6123e3565b610be8838383612414565b6040516336b0b4b760e11b8152600f9060040190815260408051602092819003830190206001600160a01b03861660009081529252902054158015610c3557506001600160a01b03831615155b15610c78576001600e604051610c55906336b0b4b760e11b815260040190565b90815260200160405180910390206000828254610c729190615128565b90915550505b81600f604051610c92906336b0b4b760e11b815260040190565b90815260200160405180910390206000856001600160a01b03166001600160a01b031681526020019081526020016000206000828254610cd29190615128565b9091555050604080516001600160a01b038086168252602082018590528316918101919091527fde49bbe8e448cdfa40e6fa0d22592be9a03b28ba746527635dbe5235416659cf906060015b60405180910390a1505050565b604051806040016040528060028152602001616c4560f01b815250610d5081336122b4565b610d5957600080fd5b610d61612469565b50565b60008181526003602052604090206001015481906001600160a01b03163314610da85760405162461bcd60e51b8152600401610d9f9061513b565b60405180910390fd5b81610dc28160008054918152600760205260409020541190565b610dde5760405162461bcd60e51b8152600401610d9f90615157565b600160008481526005602052604090205460ff166002811115610e0357610e03615173565b14610e355760405162461bcd60e51b81526020600482015260026024820152614e5360f01b6044820152606401610d9f565b610e3e836124bb565b505050565b610e4b61228a565b610e7c5760405162461bcd60e51b81526020600482015260026024820152610ae960f31b6044820152606401610d9f565b6001600160a01b0381166000908152600b6020526040902054610ec55760405162461bcd60e51b81526020600482015260016024820152604560f81b6044820152606401610d9f565b6001600160a01b0381166000908152600b6020526040902054610efe9082907349a71890aea5a751e30e740c504f2e9683f347bc612565565b6001600160a01b03166000908152600b6020526040812055565b6000600e82604051610f2a91906151ad565b9081526020016040518091039020546000148015610f705750600f82604051610f5391906151ad565b908152604080516020928190038301902060008080529252902054155b92915050565b604051806040016040528060028152602001611b5160f21b815250610f9b81336122b4565b610fa457600080fd5b610fad8261280a565b5050565b60006002601184604051610fc591906151ad565b90815260408051602092819003830190206001600160a01b0386166000908152925290205460ff166002811115610ffe57610ffe615173565b149392505050565b60008381526003602052604090206001015483906001600160a01b031633146110415760405162461bcd60e51b8152600401610d9f9061513b565b6000838152601b6020526040902054839060ff166110875760405162461bcd60e51b81526020600482015260036024820152620524e560ec1b6044820152606401610d9f565b6001805460ff161515146110ad5760405162461bcd60e51b8152600401610d9f906151c9565b6000848152601a602090815260408083203384526004835281842054845290915290205460ff16156110de57600080fd5b6110e885856123e3565b61111a5760405162461bcd60e51b815260206004820152600360248201526229a72b60e91b6044820152606401610d9f565b6000848152601a602090815260408083208884529091529020805460ff1916600117905582156111775760008581526003602090815260408083205487845260179092528220805491929091611171908490615128565b90915550505b600085815260036020908152604080832054878452601890925282208054919290916111a4908490615128565b9091555050604080518581528415156020820152338183015290517f4a341f5494c396c29c9e30033ec7900b3b51340ac726dc58726e583ea2aceeb29181900360600190a160006111f4856119a7565b9050808061121a5750600085815260026020908152604080832054601890925290912054145b1561128a576000858152601b60205260409020805460ff191690558015611255576000858152601c60205260409020805460ff191660011790555b6040518581527fb7af3044d10dc1be59f482d5c460c7c711f80137a36184cdf4f49d973e95acb1906020015b60405180910390a15b505050505050565b6000600f836040516112a491906151ad565b908152604080519182900360209081019092206001600160a01b03851660009081529252902054905092915050565b6040518060400160405280600281526020016136a160f11b8152506112f881336122b4565b61130157600080fd5b6001805460ff161515146113275760405162461bcd60e51b8152600401610d9f906151c9565b610e3e83836128f5565b6040518060400160405280600281526020016136a160f11b8152506113568133610fb1565b61135f57600080fd5b8261136a8133611a0e565b61137357600080fd5b61137d8484612a07565b50505050565b61138c3361232a565b6113bd5760405162461bcd60e51b81526020600482015260026024820152610aa960f31b6044820152606401610d9f565b60015460ff16156113f55760405162461bcd60e51b8152602060048201526002602482015261534160f01b6044820152606401610d9f565b336000908152600460209081526040808320546001600160a01b0385168452600c83528184208185529092529091205460ff161561145a5760405162461bcd60e51b8152602060048201526002602482015261414360f01b6044820152606401610d9f565b6001600160a01b0382166000818152600c602090815260408083208584528252808320805460ff1916600117905582548352600282528083205485845260038352818420549484526009909252822054919290916114b891906151e5565b6114c291906151fc565b9050806000036114f85760405162461bcd60e51b81526020600482015260016024820152604560f81b6044820152606401610d9f565b6001600160a01b0383166000908152600b60205260408120805483929061152090849061521e565b90915550610e3e9050838233612565565b60008281526003602052604090206001015482906001600160a01b0316331461156c5760405162461bcd60e51b8152600401610d9f9061513b565b600082815260126020526040902054829060ff1661158957600080fd5b6001805460ff161515146115af5760405162461bcd60e51b8152600401610d9f906151c9565b6115b984846123e3565b6115eb5760405162461bcd60e51b81526020600482015260036024820152622720a360e91b6044820152606401610d9f565b600083815260156020908152604080832087845290915290205460ff161561163a5760405162461bcd60e51b8152602060048201526002602482015261414360f01b6044820152606401610d9f565b60008381526015602090815260408083208784528252808320805460ff191660019081179091558354845260028352818420548885526003845282852054888652601390945291842001549091611690916151e5565b61169a91906151fc565b9050806000036116d25760405162461bcd60e51b815260206004820152600360248201526244545360e81b6044820152606401610d9f565b600084815260146020526040812080548392906116f090849061521e565b9091555050600084815260136020526040902054611718906001600160a01b03168233612565565b604080518581526020810183905233918101919091527f67dd3d116bf53e0ddda53bb148a5fdc129854e1c507c0eeda9190049a9bbc84f906060015b60405180910390a15050505050565b6040518060400160405280600281526020016134a960f11b81525061178881336122b4565b61179157600080fd5b610e3e8383612ac3565b6040518060400160405280600281526020016136a160f11b8152506117c08133610fb1565b6117c957600080fd5b816117d48133611a0e565b6117dd57600080fd5b610e3e83612c4c565b60405180604001604052806002815260200161695360f01b81525061180b81336122b4565b61181457600080fd5b61182085858585612dd1565b5050505050565b60405180604001604052806002815260200161069560f41b81525061184c81336122b4565b61185557600080fd5b610e3e8383612e46565b604051806040016040528060028152602001611b5160f21b81525061188481336122b4565b61188d57600080fd5b836118988133611a0e565b6118a157600080fd5b611820858585613706565b604051806040016040528060038152602001621b505560ea1b8152506118d281336122b4565b6118db57600080fd5b6001805460ff161515146119015760405162461bcd60e51b8152600401610d9f906151c9565b610fad82613909565b6001600160a01b03811660009081526008602052604081205460ff16151560011480610f705750506001600160a01b03161590565b604051806040016040528060038152602001621b505560ea1b81525061196581336122b4565b61196e57600080fd5b6001805460ff161515146119945760405162461bcd60e51b8152600401610d9f906151c9565b610fad82613952565b610fad828261399b565b60008181526002602090815260408083205460179092528220546001916119cd916151fc565b6119d89060026151e5565b11156119e657506001919050565b506000919050565b836119f98133611a0e565b611a0257600080fd5b61182085858585613b03565b6000601083604051611a2091906151ad565b908152604080519182900360209081019092206001600160a01b0385166000908152925290205460ff16151560011480611a795750611a796040518060400160405280600281526020016136a160f11b81525083610fb1565b9392505050565b6040518060400160405280600281526020016136a160f11b815250611aa581336122b4565b611aae57600080fd5b82611ab98133611a0e565b611ac257600080fd5b61137d8484613d97565b82611ae68160008054918152600760205260409020541190565b611b025760405162461bcd60e51b8152600401610d9f90615157565b600160008581526005602052604090205460ff166002811115611b2757611b27615173565b14611b595760405162461bcd60e51b81526020600482015260026024820152614e5360f01b6044820152606401610d9f565b6000848152600660205260409020600101548214611b9e5760405162461bcd60e51b8152602060048201526002602482015261057560f41b6044820152606401610d9f565b82600003611bd35760405162461bcd60e51b8152602060048201526002602482015261455360f01b6044820152606401610d9f565b600084815260066020526040902054831115611c165760405162461bcd60e51b8152602060048201526002602482015261455360f01b6044820152606401610d9f565b6000848152600660205260409020600301546001600160a01b0316331480611c5657506000848152600660205260409020600301546001600160a01b0316155b611c875760405162461bcd60e51b815260206004820152600260248201526129a960f11b6044820152606401610d9f565b6000848152600560209081526040808320805460ff191660021790556006909152812060010154611cb890856151e5565b90506000806000611ccd8460196103e8613e95565b91945092509050611cde8183615128565b6000898152600660205260409020600201549092506001600160a01b0316611e3d5783341015611d355760405162461bcd60e51b8152602060048201526002602482015261494560f01b6044820152606401610d9f565b6040516000907349a71890aea5a751e30e740c504f2e9683f347bc9085908381818185875af1925050503d8060008114611d8b576040519150601f19603f3d011682016040523d82523d6000602084013e611d90565b606091505b505060008a81526003602052604080822060010154905192935090916001600160a01b039091169085908381818185875af1925050503d8060008114611df2576040519150601f19603f3d011682016040523d82523d6000602084013e611df7565b606091505b50509050808015611e055750815b611e365760405162461bcd60e51b81526020600482015260026024820152612a2360f11b6044820152606401610d9f565b5050611fc2565b60008881526006602052604090819020600201549051636eb1769f60e11b81523360048201523060248201526001600160a01b03909116908590829063dd62ed3e90604401602060405180830381865afa158015611e9f573d6000803e3d6000fd5b505050506040513d601f19601f82011682018060405250810190611ec39190615231565b1015611ee15760405162461bcd60e51b8152600401610d9f9061524a565b6040516323b872dd60e01b81523360048201527349a71890aea5a751e30e740c504f2e9683f347bc6024820152604481018590526001600160a01b038216906323b872dd906064016020604051808303816000875af1158015611f48573d6000803e3d6000fd5b505050506040513d601f19601f82011682018060405250810190611f6c9190615266565b611f885760405162461bcd60e51b8152600401610d9f90615283565b600089815260036020908152604080832060010154600690925290912060020154611fc0916001600160a01b03908116911685613f09565b505b611fcd888833613fb8565b600088815260036020526040902060010154306001600160a01b039091160361201557600080548152600260205260408120805489929061200f908490615128565b90915550505b6040805160808101825288815260008a8152600660208181528483206001810154828601526002818101546001600160a01b0390811687890152948f90529290915260030154909116606083015291517fd8cd09ea93b4076ab867588c0d1a52b62c5b605b7a5f1c0189781245631a8353926120959290918c91906152bd565b60405180910390a16000888152600660205260409020548714612127576000888152600360209081526040808320600101546001600160a01b0316835260048252808320548b845260069092529091205461212791906120f6908a9061521e565b60008b8152600660205260409020600281015460018201546003909201546001600160a01b03918216929116614186565b5050505050505050565b60008381526003602052604090206001015483906001600160a01b0316331461216c5760405162461bcd60e51b8152600401610d9f9061513b565b836121868160008054918152600760205260409020541190565b6121a25760405162461bcd60e51b8152600401610d9f90615157565b611820858585613fb8565b6000600d826040516121bf91906151ad565b9081526040519081900360200190205460ff16151560011492915050565b826121e88133610fb1565b6121f157600080fd5b81600281111561220357612203615173565b60118560405161221391906151ad565b90815260408051602092819003830190206001600160a01b0387166000908152925290205460ff16600281111561224c5761224c615173565b0361227f5760405162461bcd60e51b815260206004820152600360248201526204148560ec1b6044820152606401610d9f565b61137d848484614313565b60015460009060ff161580156122af575061012c600a54426122ac919061521e565b10155b905090565b600060016011846040516122c891906151ad565b90815260408051602092819003830190206001600160a01b0386166000908152925290205460ff16600281111561230157612301615173565b10159392505050565b836123158133611a0e565b61231e57600080fd5b611820858585856143cd565b6001600160a01b038116600090815260046020526040812054610f709060008054918152600760205260409020541190565b60008581526003602052604090206001015485906001600160a01b031633146123975760405162461bcd60e51b8152600401610d9f9061513b565b856123b18160008054918152600760205260409020541190565b6123cd5760405162461bcd60e51b8152600401610d9f90615157565b6123da8787878787614186565b50505050505050565b6000828152600360205260408120600201548210801590611a79575050600091825260076020526040909120541190565b6001600160a01b0383166000908152600960205260408120805484929061243c908490615128565b90915550506001600160a01b0383166000908152600b602052604081208054849290610cd2908490615128565b61247161456f565b604080516060808252600290820152616c4560f01b608082015260a06020820181905260009082015233818301529051600080516020615cbd8339815191529181900360c00190a1565b806124d58160008054918152600760205260409020541190565b6124f15760405162461bcd60e51b8152600401610d9f90615157565b6000828152600560209081526040808320805460ff19169055805160808101825283815291820183905281810183905260608201839052517fd8cd09ea93b4076ab867588c0d1a52b62c5b605b7a5f1c0189781245631a8353926125599290918691906152bd565b60405180910390a15050565b6001600160a01b03831660009081526009602052604090205482111561259d5760405162461bcd60e51b8152600401610d9f9061524a565b6001600160a01b0383166125ba576125b582826145a5565b6127f5565b60405163095ea7b360e01b81526001600160a01b0382811660048301526024820184905284919082169063095ea7b3906044016020604051808303816000875af115801561260c573d6000803e3d6000fd5b505050506040513d601f19601f820116820180604052508101906126309190615266565b6126615760405162461bcd60e51b81526020600482015260026024820152614e4160f01b6044820152606401610d9f565b6001600160a01b0382163b1561276457604051634b91ad0f60e11b81526001600160a01b038581166004830152602482018590528316906397235a1e90604401600060405180830381600087803b1580156126bb57600080fd5b505af19250505080156126cc575060015b61275f5760405163a9059cbb60e01b81526001600160a01b0383811660048301526024820185905282169063a9059cbb906044016020604051808303816000875af115801561271f573d6000803e3d6000fd5b505050506040513d601f19601f820116820180604052508101906127439190615266565b61275f5760405162461bcd60e51b8152600401610d9f90615283565b6127f3565b60405163a9059cbb60e01b81526001600160a01b0383811660048301526024820185905282169063a9059cbb906044016020604051808303816000875af11580156127b3573d6000803e3d6000fd5b505050506040513d601f19601f820116820180604052508101906127d79190615266565b6127f35760405162461bcd60e51b8152600401610d9f90615283565b505b60015460ff1615610e3e57610e3e838361462d565b600081815260126020526040902054819060ff1661282757600080fd5b6001805460ff1615151461284d5760405162461bcd60e51b8152600401610d9f906151c9565b6000828152601260209081526040808320805460ff19169055601482528083205481516336b0b4b760e11b8152600f6004820152825190819003602401902086855260138452828520546001600160a01b0316855290925282208054919290916128b8908490615128565b90915550506040805160208101849052600080516020615cbd833981519152910160408051601f198184030181529082905261255991339061533a565b6001805460ff1615151461291b5760405162461bcd60e51b8152600401610d9f906151c9565b612924826121ad565b156129565760405162461bcd60e51b8152602060048201526002602482015261414560f01b6044820152606401610d9f565b600160108360405161296891906151ad565b90815260408051602092819003830181206001600160a01b038616600090815293529120805460ff191692151592909217909155600190600d906129ad9085906151ad565b90815260405160209181900382018120805460ff191693151593909317909255600080516020615cbd833981519152916129eb91859185910161537d565b60408051601f19818403018152908290526125599133906153a7565b6001805460ff16151514612a2d5760405162461bcd60e51b8152600401610d9f906151c9565b612a378282611a0e565b612a4057600080fd5b6000601083604051612a5291906151ad565b90815260408051602092819003830181206001600160a01b038616600090815290845291909120805460ff191693151593909317909255600080516020615cbd83398151915291612aa791859185910161537d565b60408051601f19818403018152908290526125599133906153d3565b6001805460ff16151514612ae95760405162461bcd60e51b8152600401610d9f906151c9565b8051825114612b205760405162461bcd60e51b815260206004820152600360248201526250435760e81b6044820152606401610d9f565b600080548152601b602090815260408083208054600160ff1990911681179091558151606081018352338152808401878152818401879052855486526016855292909420845181546001600160a01b0319166001600160a01b03909116178155915180519293612b969392850192910190614976565b5060408201518051612bb29160028401916020909101906149cc565b50905050600080516020615cbd833981519152600054604051602001612bda91815260200190565b60408051601f1981840301815290829052612bf69133906153ff565b60405180910390a160008054808252600260208190526040832054929091612c1f906001615128565b815260200190815260200160002081905550600080815480929190612c439061542b565b91905055505050565b6001805460ff16151514612c725760405162461bcd60e51b8152600401610d9f906151c9565b612c7b816121ad565b612cad5760405162461bcd60e51b815260206004820152600360248201526255422160e81b6044820152606401610d9f565b60408051808201909152600481526336b0b4b760e11b6020918201528151908201207f471dfab0756edc981c75dd3188ccd700755407f7d3bedf452610f7a1e240d65901612d225760405162461bcd60e51b815260206004820152600260248201526126a160f11b6044820152606401610d9f565b612d2b81610f18565b612d5c5760405162461bcd60e51b8152602060048201526002602482015261424560f01b6044820152606401610d9f565b6000600d82604051612d6e91906151ad565b90815260405160209181900382018120805460ff191693151593909317909255600080516020615cbd83398151915291612daa91849101615444565b60408051601f1981840301815290829052612dc6913390615457565b60405180910390a150565b612ddd8484848461468b565b60408051602081018690526001600160a01b0380861692820192909252606081018490529082166080820152600080516020615cbd8339815191529060a00160408051601f1981840301815290829052612e38913390615483565b60405180910390a150505050565b6001805460ff16151514612e6c5760405162461bcd60e51b8152600401610d9f906151c9565b6000828152601660205260409020600101548110612eb25760405162461bcd60e51b815260206004820152600360248201526250444560e81b6044820152606401610d9f565b6000828152601960205260409020548114612ef55760405162461bcd60e51b815260206004820152600360248201526257504f60e81b6044820152606401610d9f565b6000828152601960205260408120805460019290612f14908490615128565b90915550506000828152601660205260408120600101805483908110612f3c57612f3c6154af565b906000526020600020018054612f51906154c5565b80601f0160208091040260200160405190810160405280929190818152602001828054612f7d906154c5565b8015612fca5780601f10612f9f57610100808354040283529160200191612fca565b820191906000526020600020905b815481529060010190602001808311612fad57829003601f168201915b505050505090506000601660008581526020019081526020016000206002018381548110612ffa57612ffa6154af565b90600052602060002001805461300f906154c5565b80601f016020809104026020016040519081016040528092919081815260200182805461303b906154c5565b80156130885780601f1061305d57610100808354040283529160200191613088565b820191906000526020600020905b81548152906001019060200180831161306b57829003601f168201915b505050505090506000828051906020012090506040518060400160405280600281526020016134a960f11b8152508051906020012081036130eb57600080838060200190518101906130da91906155e3565b915091506130e88282612ac3565b50505b604080518082019091526002815261073560f41b6020909101527ff1b1bbc74e4df8608497e5eed3180a4b18c6b574ff7c886247e917619e157587810161315a5760008060008480602001905181019061314591906156af565b925092509250613156838284614313565b5050505b6040805180820190915260028152611d1560f21b6020909101527f36ddd33e7a7f4736d675524b57ae6969fba9049312747b57679f33a51849c6b181016131ce57600080600080858060200190518101906131b59190615708565b93509350935093506131c9848484846143cd565b505050505b6040805180820190915260028152611b5560f21b6020909101527f6f27458a75a197963a149d891ee01b4f59e7dfbcd1a8c7bc1095dc063775c5e9810161324257600080600080858060200190518101906132299190615769565b935093509350935061323d84848484613b03565b505050505b6040805180820190915260028152611a5160f21b6020909101527f1cf0197aed3b237c637010856237afeb1ec5367fd4b836bf00f3bd32eef1ef7781016132b15760008060008480602001905181019061329c91906157e6565b9250925092506132ad838383613706565b5050505b604080518082019091526002815261695360f01b6020909101527f011302f5e4c5c3a196db2f07f09e2f91274031e3f83e172b68276385c26ac6088101613325576000806000808580602001905181019061330c9190615840565b935093509350935061332084848484612dd1565b505050505b604080518082019091526002815261191160f21b6020909101527fedd0ee4c0d87c45f9edc0b9ba6f7373336c241b06c885e00f23c1ab5ec82a74781016133895760008280602001905181019061337c9190615231565b90506133878161280a565b505b60408051808201909152600281526131a160f11b6020909101527f2108e84f920e4eee7d6ac9ef2abeb540a1d7f56715d474e0b06b236cf4e7031281016133f257600080838060200190518101906133e19190615868565b915091506133ef82826128f5565b50505b604080518082019091526002815261322160f11b6020909101527f46e76fb60cbfea5dc4e313412f858c830e50e6e875d17b0921db6456f8ac9cdb81016134565760008280602001905181019061344991906158ae565b905061345481612c4c565b505b604080518082019091526002815261614160f01b6020909101527f6ab7c4e3ca485932091a923d53dd425eb4d94c6a7dc8ed536077e0c9c68e7bfe81016134bf57600080838060200190518101906134ae9190615868565b915091506134bc8282613d97565b50505b604080518082019091526002815261724160f01b6020909101527f45dbbd6089762caa052d17a86ea8cc77e402f559662b3cb9f7d2fbe50f11e6cb810161352857600080838060200190518101906135179190615868565b915091506135258282612a07565b50505b6040805180820190915260028152611c9560f21b6020909101527f42a0a33c65fccbb156f00aad076fe5690728e88a2a16d6dc6a8c8fbb7f656027810161358c5760008280602001905181019061357f91906158e2565b905061358a81613952565b505b6040805180820190915260028152611d5560f21b6020909101527fa9c7393048385836fa2c098e221d0ea111beb9a44f58922662cbbd8b6447585e81016135f0576000828060200190518101906135e391906158e2565b90506135ee81613909565b505b6040805180820190915260028152616c4560f01b6020909101527fdb51409824affaf893516504171b78835cb61ad014b6889940145b5796625f41810161363e57613639612469565b61366b565b60405162461bcd60e51b81526020600482015260026024820152612ba360f11b6044820152606401610d9f565b6040805160208101879052908101859052600080516020615cbd8339815191529060600160408051601f19818403018152908290526136ab9133906158ff565b60405180910390a160008581526016602090815260408083206001015460199092529091205403611820576040518581527f8d0d26399c7b999f9067e92dcf5a21ebc7bf6cd77bd186e721e4dfc2654e783090602001611754565b6001805460ff1615151461372c5760405162461bcd60e51b8152600401610d9f906151c9565b600f8360405161373c91906151ad565b90815260408051602092819003830190206001600160a01b038516600090815292529020548111156137805760405162461bcd60e51b8152600401610d9f9061592b565b80600f8460405161379191906151ad565b90815260200160405180910390206000846001600160a01b03166001600160a01b0316815260200190815260200160002060008282546137d1919061521e565b9091555050604051600f906137e79085906151ad565b90815260408051602092819003830190206001600160a01b0385166000908152925290205415801561382157506001600160a01b03821615155b1561385b576001600e8460405161383891906151ad565b90815260200160405180910390206000828254613855919061521e565b90915550505b6040805180820182526001600160a01b038481168252602080830185815260008054815260138352858120945185546001600160a01b03191694169390931784555160019384015581548252601481528382208590558154825260128152838220805460ff1916909317909255549151600080516020615cbd833981519152926138ed92909187918791879101615947565b60408051601f1981840301815290829052610d1e91339061597c565b6139128161470a565b604080516001600160a01b0383166020820152600080516020615cbd833981519152910160408051601f1981840301815290829052612dc69133906159a8565b61395b816147b0565b604080516001600160a01b0383166020820152600080516020615cbd833981519152910160408051601f1981840301815290829052612dc69133906159d4565b6139a48261190a565b6139d55760405162461bcd60e51b8152602060048201526002602482015261155560f21b6044820152606401610d9f565b604051636eb1769f60e11b8152336004820152306024820152829082906001600160a01b0383169063dd62ed3e90604401602060405180830381865afa158015613a23573d6000803e3d6000fd5b505050506040513d601f19601f82011682018060405250810190613a479190615231565b1015613a655760405162461bcd60e51b8152600401610d9f9061524a565b6040516323b872dd60e01b8152336004820152306024820152604481018390526001600160a01b038216906323b872dd906064016020604051808303816000875af1158015613ab8573d6000803e3d6000fd5b505050506040513d601f19601f82011682018060405250810190613adc9190615266565b613af85760405162461bcd60e51b8152600401610d9f90615283565b610e3e838333610bdd565b82613b0d816121ad565b613b3f5760405162461bcd60e51b8152602060048201526003602482015262444e4560e81b6044820152606401610d9f565b6001805460ff16151514613b655760405162461bcd60e51b8152600401610d9f906151c9565b600f85604051613b7591906151ad565b90815260408051602092819003830190206001600160a01b03861660009081529252902054821115613bb95760405162461bcd60e51b8152600401610d9f9061592b565b81600f86604051613bca91906151ad565b90815260200160405180910390206000856001600160a01b03166001600160a01b031681526020019081526020016000206000828254613c0a919061521e565b90915550506001600160a01b03831615613cfe57600f85604051613c2e91906151ad565b90815260408051602092819003830190206001600160a01b038616600090815292528120549003613c8e576001600e86604051613c6b91906151ad565b90815260200160405180910390206000828254613c88919061521e565b90915550505b600f84604051613c9e91906151ad565b90815260408051602092819003830190206001600160a01b038616600090815292528120549003613cfe576001600e85604051613cdb91906151ad565b90815260200160405180910390206000828254613cf89190615128565b90915550505b81600f85604051613d0f91906151ad565b90815260200160405180910390206000856001600160a01b03166001600160a01b031681526020019081526020016000206000828254613d4f9190615128565b9091555050604051600080516020615cbd83398151915290613d7b908790879087908790602001615a00565b60408051601f1981840301815290829052611754913390615a42565b6001805460ff16151514613dbd5760405162461bcd60e51b8152600401610d9f906151c9565b613de16040518060400160405280600281526020016136a160f11b815250826122b4565b613e125760405162461bcd60e51b815260206004820152600260248201526104e560f41b6044820152606401610d9f565b6001601083604051613e2491906151ad565b90815260408051602092819003830181206001600160a01b038616600090815290845291909120805460ff191693151593909317909255600080516020615cbd83398151915291613e7991859185910161537d565b60408051601f1981840301815290829052612559913390615a6e565b6000806000848411613ea657600080fd5b600084613eb387896151e5565b613ebd91906151fc565b9050600085613ecc888261521e565b613ed6908a6151e5565b613ee091906151fc565b90508181613eee8183615128565b613ef8908b61521e565b945094509450505093509350939050565b306001600160a01b03841603613f2357610e3e828261399b565b6040516323b872dd60e01b81523360048201523060248201526044810182905282906001600160a01b038216906323b872dd906064016020604051808303816000875af1158015613f78573d6000803e3d6000fd5b505050506040513d601f19601f82011682018060405250810190613f9c9190615266565b61137d5760405162461bcd60e51b8152600401610d9f90615283565b82613fd28160008054918152600760205260409020541190565b613fee5760405162461bcd60e51b8152600401610d9f90615157565b6001805460ff161515146140145760405162461bcd60e51b8152600401610d9f906151c9565b6000848152600360205260409020548311156140575760405162461bcd60e51b8152602060048201526002602482015261494160f01b6044820152606401610d9f565b6140608261232a565b156140cf576001600160a01b038216600090815260046020908152604080832054835260039091528120546140959085615128565b6001600160a01b03841660009081526004602052604081205490549192506140bc9161480f565b6140c98184600054614856565b506140dc565b6140dc8383600054614856565b6140e88460005461480f565b60008481526003602052604081205461410290859061521e565b905080156141355760008581526003602052604081206001015490546141359183916001600160a01b0390911690614856565b5060008054808252600260208190526040832054929091614157906001615128565b81526020019081526020016000208190555060008081548092919061417b9061542b565b919050555050505050565b846141a08160008054918152600760205260409020541190565b6141bc5760405162461bcd60e51b8152600401610d9f90615157565b6001805460ff161515146141e25760405162461bcd60e51b8152600401610d9f906151c9565b60008681526005602052604081205460ff16600281111561420557614205615173565b1461420f57600080fd5b6000868152600360205260409020548511156142525760405162461bcd60e51b8152602060048201526002602482015261494160f01b6044820152606401610d9f565b6040805160808101825286815260208082018681526001600160a01b038881168486019081528782166060860190815260008d8152600680875288822097518855945160018089019190915592516002880180549186166001600160a01b03199283161790559151600388018054919095169216919091179092556005845290859020805460ff191682179055915291517fd8cd09ea93b4076ab867588c0d1a52b62c5b605b7a5f1c0189781245631a8353926112819290918a9190615a9a565b6001805460ff161515146143395760405162461bcd60e51b8152600401610d9f906151c9565b8060118460405161434a91906151ad565b90815260408051602092819003830190206001600160a01b038616600090815292529020805460ff1916600183600281111561438857614388615173565b0217905550600080516020615cbd8339815191528383836040516020016143b193929190615ae8565b60408051601f1981840301815290829052610d1e913390615b23565b6001805460ff161515146143f35760405162461bcd60e51b8152600401610d9f906151c9565b600f8460405161440391906151ad565b90815260408051602092819003830190206001600160a01b038616600090815292529020548211156144475760405162461bcd60e51b8152600401610d9f9061592b565b614452838383612565565b81600f8560405161446391906151ad565b90815260200160405180910390206000856001600160a01b03166001600160a01b0316815260200190815260200160002060008282546144a3919061521e565b9091555050604051600f906144b99086906151ad565b90815260408051602092819003830190206001600160a01b038616600090815292529020541580156144f357506001600160a01b03831615155b1561452d576001600e8560405161450a91906151ad565b90815260200160405180910390206000828254614527919061521e565b90915550505b600080516020615cbd833981519152848484846040516020016145539493929190615b4f565b60408051601f1981840301815290829052612e38913390615b8b565b6001805460ff161515146145955760405162461bcd60e51b8152600401610d9f906151c9565b6001805460ff1916905542600a55565b6000816001600160a01b03168360405160006040518083038185875af1925050503d80600081146145f2576040519150601f19603f3d011682016040523d82523d6000602084013e6145f7565b606091505b5050905080610e3e5760405162461bcd60e51b81526020600482015260026024820152612a2360f11b6044820152606401610d9f565b6001600160a01b0382166000908152600960205260408120805483929061465590849061521e565b90915550506001600160a01b0382166000908152600b60205260408120805483929061468290849061521e565b90915550505050565b6146948361190a565b61469d57600080fd5b3060009081526004602052604081205490546146b9919061480f565b30600090815260046020908152604080832054835260039091529020546146ed906146e49086615128565b30600054614856565b3060009081526004602052604090205461137d9085858585614186565b6147138161190a565b6147445760405162461bcd60e51b8152602060048201526002602482015261155560f21b6044820152606401610d9f565b6001600160a01b0381166000908152600960205260409020541561478f5760405162461bcd60e51b8152602060048201526002602482015261272d60f11b6044820152606401610d9f565b6001600160a01b03166000908152600860205260409020805460ff19169055565b6147b98161190a565b156147eb5760405162461bcd60e51b815260206004820152600260248201526120a960f11b6044820152606401610d9f565b6001600160a01b03166000908152600860205260409020805460ff19166001179055565b600082815260076020908152604080832084905580519283529082018490527f12769fd465856c3651942a04374f21755b56a66422aaed87c7e56e936f6dd3d09101612559565b6000831161488b5760405162461bcd60e51b815260206004820152600260248201526129ad60f11b6044820152606401610d9f565b6040516bffffffffffffffffffffffff19606084901b1660208201526034810182905260009060540160408051808303601f1901815282825280516020918201206001600160a01b038781166000818152600485528581208490558381526007855285812060001990556060870186528a87528487019182528686018981528482526003865290869020965187559051600180880180546001600160a01b031916929094169190911790925551600290950194909455825193845290830181905292507f12769fd465856c3651942a04374f21755b56a66422aaed87c7e56e936f6dd3d09101612e38565b8280548282559060005260206000209081019282156149bc579160200282015b828111156149bc57825182906149ac9082615bfd565b5091602001919060010190614996565b506149c8929150614a1e565b5090565b828054828255906000526020600020908101928215614a12579160200282015b82811115614a125782518290614a029082615bfd565b50916020019190600101906149ec565b506149c8929150614a3b565b808211156149c8576000614a328282614a58565b50600101614a1e565b808211156149c8576000614a4f8282614a58565b50600101614a3b565b508054614a64906154c5565b6000825580601f10614a74575050565b601f016020900490600052602060002090810190610d6191905b808211156149c85760008155600101614a8e565b600060208284031215614ab457600080fd5b5035919050565b6001600160a01b0381168114610d6157600080fd5b600060208284031215614ae257600080fd5b8135611a7981614abb565b634e487b7160e01b600052604160045260246000fd5b604051601f8201601f191681016001600160401b0381118282101715614b2b57614b2b614aed565b604052919050565b60006001600160401b03821115614b4c57614b4c614aed565b50601f01601f191660200190565b6000614b6d614b6884614b33565b614b03565b9050828152838383011115614b8157600080fd5b828260208301376000602084830101529392505050565b600082601f830112614ba957600080fd5b611a7983833560208501614b5a565b600060208284031215614bca57600080fd5b81356001600160401b03811115614be057600080fd5b614bec84828501614b98565b949350505050565b60008060408385031215614c0757600080fd5b82356001600160401b03811115614c1d57600080fd5b614c2985828601614b98565b9250506020830135614c3a81614abb565b809150509250929050565b8015158114610d6157600080fd5b600080600060608486031215614c6857600080fd5b83359250602084013591506040840135614c8181614c45565b809150509250925092565b60008060408385031215614c9f57600080fd5b50508035926020909101359150565b60006001600160401b03821115614cc757614cc7614aed565b5060051b60200190565b600082601f830112614ce257600080fd5b81356020614cf2614b6883614cae565b82815260059290921b84018101918181019086841115614d1157600080fd5b8286015b84811015614d655780356001600160401b03811115614d345760008081fd5b8701603f81018913614d465760008081fd5b614d57898683013560408401614b5a565b845250918301918301614d15565b509695505050505050565b60008060408385031215614d8357600080fd5b82356001600160401b0380821115614d9a57600080fd5b818501915085601f830112614dae57600080fd5b81356020614dbe614b6883614cae565b82815260059290921b84018101918181019089841115614ddd57600080fd5b8286015b84811015614e1557803586811115614df95760008081fd5b614e078c86838b0101614b98565b845250918301918301614de1565b5096505086013592505080821115614e2c57600080fd5b50614e3985828601614cd1565b9150509250929050565b60008060008060808587031215614e5957600080fd5b843593506020850135614e6b81614abb565b9250604085013591506060850135614e8281614abb565b939692955090935050565b60008060408385031215614ea057600080fd5b823591506020830135614c3a81614abb565b600080600060608486031215614ec757600080fd5b83356001600160401b03811115614edd57600080fd5b614ee986828701614b98565b9350506020840135614efa81614abb565b929592945050506040919091013590565b60008060408385031215614f1e57600080fd5b8235614f2981614abb565b946020939093013593505050565b60008060008060808587031215614f4d57600080fd5b84356001600160401b0380821115614f6457600080fd5b614f7088838901614b98565b95506020870135915080821115614f8657600080fd5b50614f9387828801614b98565b9350506040850135614fa481614abb565b9396929550929360600135925050565b600080600060608486031215614fc957600080fd5b505081359360208301359350604090920135919050565b600080600060608486031215614ff557600080fd5b83359250602084013591506040840135614c8181614abb565b60038110610d6157600080fd5b60008060006060848603121561503057600080fd5b83356001600160401b0381111561504657600080fd5b61505286828701614b98565b935050602084013561506381614abb565b91506040840135614c818161500e565b6000806000806080858703121561508957600080fd5b84356001600160401b0381111561509f57600080fd5b6150ab87828801614b98565b9450506020850135614e6b81614abb565b600080600080600060a086880312156150d457600080fd5b853594506020860135935060408601356150ed81614abb565b925060608601359150608086013561510481614abb565b809150509295509295909350565b634e487b7160e01b600052601160045260246000fd5b80820180821115610f7057610f70615112565b60208082526002908201526109e960f31b604082015260600190565b602080825260029082015261555360f01b604082015260600190565b634e487b7160e01b600052602160045260246000fd5b60005b838110156151a457818101518382015260200161518c565b50506000910152565b600082516151bf818460208701615189565b9190910192915050565b602080825260029082015261115360f21b604082015260600190565b8082028115828204841417610f7057610f70615112565b60008261521957634e487b7160e01b600052601260045260246000fd5b500490565b81810381811115610f7057610f70615112565b60006020828403121561524357600080fd5b5051919050565b602080825260029082015261125560f21b604082015260600190565b60006020828403121561527857600080fd5b8151611a7981614c45565b602080825260029082015261139560f21b604082015260600190565b60038110610d6157634e487b7160e01b600052602160045260246000fd5b60c081016152ca8561529f565b8482528360208301528251604083015260208301516060830152604083015160018060a01b0380821660808501528060608601511660a08501525050949350505050565b60008151808452615326816020860160208601615189565b601f01601f19169290920160200192915050565b606081526002606082015261191160f21b608082015260a06020820152600061536660a083018561530e565b905060018060a01b03831660408301529392505050565b604081526000615390604083018561530e565b905060018060a01b03831660208301529392505050565b60608152600260608201526131a160f11b608082015260a06020820152600061536660a083018561530e565b606081526002606082015261724160f01b608082015260a06020820152600061536660a083018561530e565b60608152600260608201526134a960f11b608082015260a06020820152600061536660a083018561530e565b60006001820161543d5761543d615112565b5060010190565b602081526000611a79602083018461530e565b606081526002606082015261322160f11b608082015260a06020820152600061536660a083018561530e565b606081526002606082015261695360f01b608082015260a06020820152600061536660a083018561530e565b634e487b7160e01b600052603260045260246000fd5b600181811c908216806154d957607f821691505b6020821081036154f957634e487b7160e01b600052602260045260246000fd5b50919050565b600061550d614b6884614b33565b905082815283838301111561552157600080fd5b611a79836020830184615189565b600082601f83011261554057600080fd5b611a79838351602085016154ff565b600082601f83011261556057600080fd5b81516020615570614b6883614cae565b82815260059290921b8401810191818101908684111561558f57600080fd5b8286015b84811015614d655780516001600160401b038111156155b25760008081fd5b8701603f810189136155c45760008081fd5b6155d58986830151604084016154ff565b845250918301918301615593565b600080604083850312156155f657600080fd5b82516001600160401b038082111561560d57600080fd5b818501915085601f83011261562157600080fd5b81516020615631614b6883614cae565b82815260059290921b8401810191818101908984111561565057600080fd5b8286015b848110156156885780518681111561566c5760008081fd5b61567a8c86838b010161552f565b845250918301918301615654565b50918801519196509093505050808211156156a257600080fd5b50614e398582860161554f565b6000806000606084860312156156c457600080fd5b83516001600160401b038111156156da57600080fd5b6156e68682870161552f565b93505060208401516156f78161500e565b6040850151909250614c8181614abb565b6000806000806080858703121561571e57600080fd5b84516001600160401b0381111561573457600080fd5b6157408782880161552f565b945050602085015161575181614abb565b604086015160608701519194509250614e8281614abb565b6000806000806080858703121561577f57600080fd5b84516001600160401b038082111561579657600080fd5b6157a28883890161552f565b955060208701519150808211156157b857600080fd5b506157c58782880161552f565b93505060408501516157d681614abb565b6060959095015193969295505050565b6000806000606084860312156157fb57600080fd5b83516001600160401b0381111561581157600080fd5b61581d8682870161552f565b935050602084015161582e81614abb565b80925050604084015190509250925092565b6000806000806080858703121561585657600080fd5b84519350602085015161575181614abb565b6000806040838503121561587b57600080fd5b82516001600160401b0381111561589157600080fd5b61589d8582860161552f565b9250506020830151614c3a81614abb565b6000602082840312156158c057600080fd5b81516001600160401b038111156158d657600080fd5b614bec8482850161552f565b6000602082840312156158f457600080fd5b8151611a7981614abb565b606081526002606082015261069560f41b608082015260a06020820152600061536660a083018561530e565b60208082526002908201526124a360f11b604082015260600190565b848152608060208201526000615960608083018661530e565b6001600160a01b03949094166040830152506060015292915050565b6060815260026060820152611a5160f21b608082015260a06020820152600061536660a083018561530e565b6060815260026060820152611d5560f21b608082015260a06020820152600061536660a083018561530e565b6060815260026060820152611c9560f21b608082015260a06020820152600061536660a083018561530e565b608081526000615a13608083018761530e565b8281036020840152615a25818761530e565b6001600160a01b0395909516604084015250506060015292915050565b6060815260026060820152611b5560f21b608082015260a06020820152600061536660a083018561530e565b606081526002606082015261614160f01b608082015260a06020820152600061536660a083018561530e565b60c08101615aa78561529f565b9381526020810192909252805460408301526001810154606083015260028101546001600160a01b0390811660808401526003909101541660a09091015290565b606081526000615afb606083018661530e565b6001600160a01b03851660208401529050615b158361529f565b826040830152949350505050565b606081526002606082015261073560f41b608082015260a06020820152600061536660a083018561530e565b608081526000615b62608083018761530e565b6001600160a01b0395861660208401526040830194909452509216606090920191909152919050565b6060815260026060820152611d1560f21b608082015260a06020820152600061536660a083018561530e565b601f821115610e3e57600081815260208120601f850160051c81016020861015615bde5750805b601f850160051c820191505b8181101561128a57828155600101615bea565b81516001600160401b03811115615c1657615c16614aed565b615c2a81615c2484546154c5565b84615bb7565b602080601f831160018114615c5f5760008415615c475750858301515b600019600386901b1c1916600185901b17855561128a565b600085815260208120601f198616915b82811015615c8e57888601518255948401946001909101908401615c6f565b5085821015615cac5787850151600019600388901b60f8161c191681555b5050505050600190811b0190555056fe43cd76b5eb40da9ea5eb31a199f443f7cf7955ec280bc5981a2e3445c79c9055a26469706673582212200d1776ca66d7a59f8b56631228c5b75b27666aa7e4b5f13009c1b8b280bf417c64736f6c6343000813003343cd76b5eb40da9ea5eb31a199f443f7cf7955ec280bc5981a2e3445c79c9055",
  "bytecodeSha1": "da39a3ee5e6b4b0d3255bfef95601890afd80709",
  "compiler": {
    "evm_version": "istanbul",
    "optimizer": {
      "enabled": true,
      "runs": 200
    },
    "version": "0.8.19+commit.7dd6d404"
  },
  "contractName": "Votable",
  "language": "Solidity",
  "natspec": {
    "author": "Frederik W. L. Christoffersen",
    "custom:beaware": "This is a commercial contract.",
    "kind": "dev",
    "methods": {
      "acceptsToken(address)": {
        "notice": "Returns a boolean value, stating if the given token address is registered as acceptable or not.",
        "params": {
          "tokenAddress": "The address of the token to be checked for."
        }
      },
      "active()": {
        "notice": "Boolean stating if the Shardable is active and tradeable or not."
      },
      "addBankAdmin(string,address)": {
        "notice": "Adds a new given administrator to a given Bank.",
        "params": {
          "bankAdmin": "The address of the new Bank administrator to be added.",
          "bankName": "The name of the Bank to which the new administrator is to be added."
        }
      },
      "bankExists(string)": {
        "notice": "Returns a boolean stating if a given Bank exists.",
        "params": {
          "bankName": "The name of the Bank to be checked for."
        }
      },
      "bankIsEmpty(string)": {
        "notice": "Returns a boolean stating if a given Bank is empty.",
        "params": {
          "bankName": "The name of the Bank to be checked for."
        }
      },
      "cancelSale(bytes32)": {
        "notice": "Cancels a sell of a given shard.",
        "params": {
          "shard": "The shard to be put off sale."
        }
      },
      "claimDividend(bytes32,uint256)": {
        "notice": "Claims the value of an existing dividend corresponding to the shard holder's respective shard fraction.",
        "params": {
          "dividend": "The dividend to be claimed.",
          "shard": "The shard that was valid at the clock of the Dividend creation"
        }
      },
      "claimLiquid(address)": {
        "notice": "Claims the owed liquid value corresponding to the shard holder's respective shard fraction after the entity has been liquidized/dissolved.",
        "params": {
          "tokenAddress": "The address of the token to be claimed."
        }
      },
      "claimTerminatedLiquid(address)": {
        "notice": "Claims the remaining unclaimed liquid value after termination (100 days passed since liquidization) as the property of Counekt.",
        "params": {
          "tokenAddress": "The address of the token to be claimed."
        }
      },
      "createBank(string,address)": {
        "notice": "Creates a new Bank.",
        "params": {
          "bankAdmin": "The address of the first Bank administrator.",
          "bankName": "The name of the Bank to be created."
        }
      },
      "deleteBank(string)": {
        "notice": "Deletes a given Bank.",
        "params": {
          "bankName": "The name of the Bank to be deleted."
        }
      },
      "dissolveDividend(uint256)": {
        "notice": "Dissolves a Dividend and moves its last contents to the 'main' Bank.",
        "params": {
          "dividend": "The Dividend to be dissolved."
        }
      },
      "dividendExists(uint256)": {
        "notice": "Returns a boolean stating if a given Dividend exists.",
        "params": {
          "dividend": "The Dividend to be checked for."
        }
      },
      "getBankBalance(string,address)": {
        "notice": "Returns the balance of a bank.",
        "params": {
          "bankName": "The name of the Bank.",
          "tokenAddress": "The address of the token balance to check for."
        }
      },
      "getCurrentClock()": {
        "notice": "Returns the clock."
      },
      "getDividendResidual(uint256)": {
        "notice": "Returns the residual value of a dividend.",
        "params": {
          "dividend": "The Dividend to be checked for."
        }
      },
      "getDividendToken(uint256)": {
        "notice": "Returns the token of a dividend.",
        "params": {
          "dividend": "The Dividend to be checked for."
        }
      },
      "getDividendValue(uint256)": {
        "notice": "Returns the total value of a dividend.",
        "params": {
          "dividend": "The Dividend to be checked for."
        }
      },
      "getLiquidResidual(address)": {
        "notice": "Returns the residual of a liquid, after liquidization/inactivation.",
        "params": {
          "tokenAddress": "The address of the token to be checked for."
        }
      },
      "getReferendumResult(uint256)": {
        "notice": "Returns a boolean stating if a given Referendum has been voted through (>=50% FAVOR) or not.",
        "params": {
          "referendum": "The Referendum to be checked for."
        }
      },
      "getShardExpirationClock(bytes32)": {
        "notice": "Returns the clock, in which a shard will or has expired."
      },
      "getShardSalePrice(bytes32)": {
        "notice": "Returns the price, at which a shard is for sale."
      },
      "hasPermit(string,address)": {
        "notice": "Returns a boolean stating if a given address has a given permit or not.",
        "params": {
          "account": "The address to be checked for.",
          "permitName": "The name of the permit to be checked for."
        }
      },
      "hasVoted(uint256,address)": {
        "notice": "Returns a boolean stating if a given Shard Holder has voted on a given Referendum.",
        "params": {
          "account": "The address of the potential Shard Holder voter to be checked for.",
          "referendum": "The Referendum to be checked for."
        }
      },
      "implementProposal(uint256,uint256)": {
        "notice": "Implements a given Proposal, within a given passed Referendum.",
        "params": {
          "proposalIndex": "The index of the proposal to be implemented.",
          "referendum": "The passed Referendum containing the Proposal."
        }
      },
      "infoByReferendum(uint256)": {
        "notice": "Mapping pointing to dynamic info of a Referendum given a unique Referendum instance."
      },
      "infoByShard(bytes32)": {
        "notice": "Mapping pointing to related info of a Shard given the bytes of a unique Shard instance."
      },
      "isBankAdmin(string,address)": {
        "notice": "Returns a boolean stating if a given address is an admin of a given bank.",
        "params": {
          "account": "The address to be checked for.",
          "bankName": "The name of the Bank to be checked for."
        }
      },
      "isPermitAdmin(string,address)": {
        "notice": "Returns a boolean stating if a given address is an admin of a given permit or not.",
        "params": {
          "account": "The address to be checked for.",
          "permitName": "The name of the permit to be checked for."
        }
      },
      "isShardHolder(address)": {
        "notice": "Checks if address is a shard holder - at least a partial owner of the contract.",
        "params": {
          "account": "The address to be checked for."
        }
      },
      "isTerminated()": {
        "notice": "Returns a boolean value, stating if the liquidization is terminated (100 days have passed since)."
      },
      "isValidShard(bytes32)": {
        "notice": "Returns a boolean stating if a given shard is currently valid or not.",
        "params": {
          "shard": "The shard, whose validity is to be checked for."
        }
      },
      "issueDividend(string,address,uint256)": {
        "notice": "Creates and issues a Dividend (to all current shareholders) of a token amount from a given Bank.",
        "params": {
          "bankName": "The name of the Bank to issue the Dividend from.",
          "tokenAddress": "The address of the token to make up the Dividend.",
          "value": "The value/amount of the token to be issued in the Dividend."
        }
      },
      "issueReferendum(string[],bytes[])": {
        "notice": "The potential errors of the Proposals aren't checked for before implementation!!!",
        "params": {
          "proposalArgs": "The encoded parameters passed to the function calls as part of the implementation of the proposals.",
          "proposalFuncs": "The names of the functions to be called as a result of the implementation of the proposals."
        }
      },
      "issueShards(uint256,address,uint256,address)": {
        "notice": "Issues new shards and puts them for sale.",
        "params": {
          "price": "The price per token.",
          "to": "The specifically set buyer of the issued shards. Open to anyone, if address(0).",
          "tokenAddress": "The token address the shards are put for sale for."
        }
      },
      "liquid(address)": {
        "notice": "Mapping pointing to a value/amount given the address of an ERC20 token."
      },
      "liquidize()": {
        "notice": "Liquidizes and dissolves the entity. This cannot be undone."
      },
      "moveToken(string,string,address,uint256)": {
        "notice": "Internally moves a token from one Bank to another.",
        "params": {
          "fromBankName": "The name of the Bank from which the token is to be moved.",
          "toBankName": "The name of the Bank to which the token is to be moved.",
          "tokenAddress": "The address of the token to be moved.",
          "value": "The value/amount of the token to be moved."
        }
      },
      "proposalExists(uint256,uint256)": {
        "notice": "Returns a boolean stating if a given Proposal exists within a given Referendum.",
        "params": {
          "proposalIndex": "The index of the proposal to be checked for.",
          "referendum": "The Referendum to be checked for."
        }
      },
      "purchase(bytes32,uint256,uint256)": {
        "details": "If the purchase is with tokens (ie. tokenAddress != 0x0), first call 'token.approve(Shardable.address, salePrice);'",
        "notice": "Purchases a listed Shard for sale.",
        "params": {
          "shard": "The shard of which a fraction will be purchased."
        }
      },
      "putForSale(bytes32,uint256,address,uint256,address)": {
        "notice": "Puts a given shard for sale.",
        "params": {
          "amount": "Amount of the Shard to be put for sale.",
          "price": "The amount which the Shard is for sale as. The token address being the valuta.",
          "shard": "The shard to be put for sale.",
          "to": "The specifically set buyer of the sale. Open to anyone, if address(0).",
          "tokenAddress": "The address of the token that is accepted when purchasing. A value of 0x0 represents ether."
        }
      },
      "receiveToken(address,uint256)": {
        "notice": "Receives a specified token and adds it to the registry. Make sure 'token.approve()' is called beforehand.",
        "params": {
          "tokenAddress": "The address of the token to be received.",
          "value": "The value/amount of the token to be received."
        }
      },
      "referendumIsImplemented(uint256)": {
        "notice": "Returns a boolean stating if a given Referendum is implemented or not.",
        "params": {
          "referendum": "The Referendum to be checked for."
        }
      },
      "referendumIsPassed(uint256)": {
        "notice": "Returns a boolean stating if a given Referendum is passed or not.",
        "params": {
          "referendum": "The Referendum to be checked for."
        }
      },
      "referendumIsPending(uint256)": {
        "notice": "Returns a boolean stating if a given Referendum is pending or not.",
        "params": {
          "referendum": "The Referendum to be checked for."
        }
      },
      "registerTokenAddress(address)": {
        "notice": "Adds a token address to the registry. Also approves any future receipts of said token unless removed again.",
        "params": {
          "tokenAddress": "The token address to be registered."
        }
      },
      "removeBankAdmin(string,address)": {
        "notice": "Removes a given administrator of a given Bank.",
        "params": {
          "bankAdmin": "The address of the current Bank administrator to be removed.",
          "bankName": "The name of the Bank from which the given administrator is to be removed."
        }
      },
      "setPermit(string,address,uint8)": {
        "notice": "Sets the state of a specified permit of a given address.",
        "params": {
          "account": "The address, whose permit state is to be set.",
          "newState": "The new Permit State to be applied.",
          "permitName": "The name of the permit, whose state is to be set."
        }
      },
      "shardByOwner(address)": {
        "notice": "Mapping pointing to a currently valid shard given the address of its owner."
      },
      "shardExisted(bytes32,uint256)": {
        "notice": "Returns a boolean stating if the given shard was valid at a given clock.",
        "params": {
          "atClock": "The clock to be checked for.",
          "shard": "The shard, whose validity is to be checked for."
        }
      },
      "split(bytes32,uint256,address)": {
        "notice": "Splits a currently valid shard into two new ones. One is assigned to the receiver. The rest to the previous owner.",
        "params": {
          "amount": "Amount, which will be subtracted from the previous shard and sent to the receiver.",
          "senderShard": "The shard to be split.",
          "to": "The receiver of the new Shard."
        }
      },
      "totalShardAmountByClock(uint256)": {
        "notice": "Mapping pointing to integer value representing the total number of shards issued, provided the clock. Used as the denominator to represent a relative shard fraction."
      },
      "transferTokenFromBank(string,address,uint256,address)": {
        "notice": "Transfers a token bankAdmin a Bank to a recipient.",
        "params": {
          "bankName": "The name of the Bank from which the token is to be transferred.",
          "to": "The recipient of the token to be transferred.",
          "tokenAddress": "The address of the token to be transferred.",
          "value": "The value/amount of the token to be transferred."
        }
      },
      "unregisterTokenAddress(address)": {
        "notice": "Removes a token address from the registry. Also cancels any future receipts of said token unless added again.",
        "params": {
          "tokenAddress": "The token address to be unregistered."
        }
      },
      "vote(bytes32,uint256,bool)": {
        "notice": "Votes on a existing referendum, with a fraction corresponding to the shard of the holder.",
        "params": {
          "favor": "The boolean value signalling a FOR or AGAINST vote.",
          "referendum": "The referendum to be voted on.",
          "shard": "The Shard to vote with."
        }
      }
    },
    "notice": "This contract is used as a votable administerable business entity.",
    "title": "A fractional DAO-like contract whose decisions can be voted upon by its shareholders",
    "version": 1
  },
  "opcodes": "PUSH1 0x80 PUSH1 0x40 MSTORE PUSH1 0x4 CALLDATASIZE LT PUSH2 0x354 JUMPI PUSH1 0x0 CALLDATALOAD PUSH1 0xE0 SHR DUP1 PUSH4 0x868399A5 GT PUSH2 0x1C6 JUMPI DUP1 PUSH4 0xB4AF7D59 GT PUSH2 0xF7 JUMPI DUP1 PUSH4 0xDE9D6805 GT PUSH2 0x95 JUMPI DUP1 PUSH4 0xEADB9708 GT PUSH2 0x6F JUMPI DUP1 PUSH4 0xEADB9708 EQ PUSH2 0xB3E JUMPI DUP1 PUSH4 0xEFAE89F8 EQ PUSH2 0xB70 JUMPI DUP1 PUSH4 0xF7AAE621 EQ PUSH2 0xB9D JUMPI DUP1 PUSH4 0xFD06636B EQ PUSH2 0xBBD JUMPI PUSH1 0x0 DUP1 REVERT JUMPDEST DUP1 PUSH4 0xDE9D6805 EQ PUSH2 0xAD1 JUMPI DUP1 PUSH4 0xE1C34C1F EQ PUSH2 0xAF1 JUMPI DUP1 PUSH4 0xE6778FCE EQ PUSH2 0xB11 JUMPI PUSH1 0x0 DUP1 REVERT JUMPDEST DUP1 PUSH4 0xC5438A55 GT PUSH2 0xD1 JUMPI DUP1 PUSH4 0xC5438A55 EQ PUSH2 0xA4C JUMPI DUP1 PUSH4 0xC8C56AF0 EQ PUSH2 0xA6C JUMPI DUP1 PUSH4 0xD1CC9976 EQ PUSH2 0xA9C JUMPI DUP1 PUSH4 0xDB5DC9B7 EQ PUSH2 0xAB1 JUMPI PUSH1 0x0 DUP1 REVERT JUMPDEST DUP1 PUSH4 0xB4AF7D59 EQ PUSH2 0x997 JUMPI DUP1 PUSH4 0xBCEDB2E0 EQ PUSH2 0x9B7 JUMPI DUP1 PUSH4 0xC4802EB2 EQ PUSH2 0xA1F JUMPI PUSH1 0x0 DUP1 REVERT JUMPDEST DUP1 PUSH4 0xA343C535 GT PUSH2 0x164 JUMPI DUP1 PUSH4 0xA907B6C5 GT PUSH2 0x13E JUMPI DUP1 PUSH4 0xA907B6C5 EQ PUSH2 0x914 JUMPI DUP1 PUSH4 0xAB2D662B EQ PUSH2 0x934 JUMPI DUP1 PUSH4 0xB2CB78AB EQ PUSH2 0x947 JUMPI DUP1 PUSH4 0xB35CA4F3 EQ PUSH2 0x967 JUMPI PUSH1 0x0 DUP1 REVERT JUMPDEST DUP1 PUSH4 0xA343C535 EQ PUSH2 0x8A9 JUMPI DUP1 PUSH4 0xA80AED76 EQ PUSH2 0x8DF JUMPI DUP1 PUSH4 0xA902780F EQ PUSH2 0x8FF JUMPI PUSH1 0x0 DUP1 REVERT JUMPDEST DUP1 PUSH4 0x97235A1E GT PUSH2 0x1A0 JUMPI DUP1 PUSH4 0x97235A1E EQ PUSH2 0x819 JUMPI DUP1 PUSH4 0x97890DB9 EQ PUSH2 0x839 JUMPI DUP1 PUSH4 0x9995B9A9 EQ PUSH2 0x859 JUMPI DUP1 PUSH4 0xA1916AEF EQ PUSH2 0x889 JUMPI PUSH1 0x0 DUP1 REVERT JUMPDEST DUP1 PUSH4 0x868399A5 EQ PUSH2 0x7A9 JUMPI DUP1 PUSH4 0x8786DF6A EQ PUSH2 0x7C9 JUMPI DUP1 PUSH4 0x9211B7B3 EQ PUSH2 0x7E9 JUMPI PUSH1 0x0 DUP1 REVERT JUMPDEST DUP1 PUSH4 0x354CD135 GT PUSH2 0x2A0 JUMPI DUP1 PUSH4 0x4C46360B GT PUSH2 0x23E JUMPI DUP1 PUSH4 0x63879C0B GT PUSH2 0x218 JUMPI DUP1 PUSH4 0x63879C0B EQ PUSH2 0x6FC JUMPI DUP1 PUSH4 0x64E5378F EQ PUSH2 0x71C JUMPI DUP1 PUSH4 0x7B785493 EQ PUSH2 0x759 JUMPI DUP1 PUSH4 0x859D9FD5 EQ PUSH2 0x789 JUMPI PUSH1 0x0 DUP1 REVERT JUMPDEST DUP1 PUSH4 0x4C46360B EQ PUSH2 0x651 JUMPI DUP1 PUSH4 0x5BEEFF33 EQ PUSH2 0x681 JUMPI DUP1 PUSH4 0x62748DCC EQ PUSH2 0x6AE JUMPI PUSH1 0x0 DUP1 REVERT JUMPDEST DUP1 PUSH4 0x3BAF28F8 GT PUSH2 0x27A JUMPI DUP1 PUSH4 0x3BAF28F8 EQ PUSH2 0x58B JUMPI DUP1 PUSH4 0x3C06DF46 EQ PUSH2 0x5AB JUMPI DUP1 PUSH4 0x3DBEAA54 EQ PUSH2 0x5CB JUMPI DUP1 PUSH4 0x43859632 EQ PUSH2 0x601 JUMPI PUSH1 0x0 DUP1 REVERT JUMPDEST DUP1 PUSH4 0x354CD135 EQ PUSH2 0x52B JUMPI DUP1 PUSH4 0x3601F062 EQ PUSH2 0x54B JUMPI DUP1 PUSH4 0x384FE2B5 EQ PUSH2 0x56B JUMPI PUSH1 0x0 DUP1 REVERT JUMPDEST DUP1 PUSH4 0x23656642 GT PUSH2 0x30D JUMPI DUP1 PUSH4 0x2DEC7CD2 GT PUSH2 0x2E7 JUMPI DUP1 PUSH4 0x2DEC7CD2 EQ PUSH2 0x4AB JUMPI DUP1 PUSH4 0x2EF37926 EQ PUSH2 0x4CB JUMPI DUP1 PUSH4 0x2F2E9A2A EQ PUSH2 0x4EB JUMPI DUP1 PUSH4 0x350546D8 EQ PUSH2 0x50B JUMPI PUSH1 0x0 DUP1 REVERT JUMPDEST DUP1 PUSH4 0x23656642 EQ PUSH2 0x44B JUMPI DUP1 PUSH4 0x258E4D9F EQ PUSH2 0x46B JUMPI DUP1 PUSH4 0x2C729FD1 EQ PUSH2 0x48B JUMPI PUSH1 0x0 DUP1 REVERT JUMPDEST DUP1 PUSH4 0x2FB0C5E EQ PUSH2 0x36C JUMPI DUP1 PUSH4 0x5C558F5 EQ PUSH2 0x39B JUMPI DUP1 PUSH4 0x66792D2 EQ PUSH2 0x3B0 JUMPI DUP1 PUSH4 0xBEA8985 EQ PUSH2 0x3EB JUMPI DUP1 PUSH4 0xD3330A1 EQ PUSH2 0x40B JUMPI DUP1 PUSH4 0x169936B4 EQ PUSH2 0x42B JUMPI PUSH1 0x0 DUP1 REVERT JUMPDEST CALLDATASIZE PUSH2 0x367 JUMPI PUSH2 0x365 PUSH1 0x0 CALLVALUE CALLER PUSH2 0xBDD JUMP JUMPDEST STOP JUMPDEST PUSH1 0x0 DUP1 REVERT JUMPDEST CALLVALUE DUP1 ISZERO PUSH2 0x378 JUMPI PUSH1 0x0 DUP1 REVERT JUMPDEST POP PUSH1 0x1 SLOAD PUSH2 0x386 SWAP1 PUSH1 0xFF AND DUP2 JUMP JUMPDEST PUSH1 0x40 MLOAD SWAP1 ISZERO ISZERO DUP2 MSTORE PUSH1 0x20 ADD JUMPDEST PUSH1 0x40 MLOAD DUP1 SWAP2 SUB SWAP1 RETURN JUMPDEST CALLVALUE DUP1 ISZERO PUSH2 0x3A7 JUMPI PUSH1 0x0 DUP1 REVERT JUMPDEST POP PUSH2 0x365 PUSH2 0xD2B JUMP JUMPDEST CALLVALUE DUP1 ISZERO PUSH2 0x3BC JUMPI PUSH1 0x0 DUP1 REVERT JUMPDEST POP PUSH2 0x3DD PUSH2 0x3CB CALLDATASIZE PUSH1 0x4 PUSH2 0x4AA2 JUMP JUMPDEST PUSH1 0x2 PUSH1 0x20 MSTORE PUSH1 0x0 SWAP1 DUP2 MSTORE PUSH1 0x40 SWAP1 KECCAK256 SLOAD DUP2 JUMP JUMPDEST PUSH1 0x40 MLOAD SWAP1 DUP2 MSTORE PUSH1 0x20 ADD PUSH2 0x392 JUMP JUMPDEST CALLVALUE DUP1 ISZERO PUSH2 0x3F7 JUMPI PUSH1 0x0 DUP1 REVERT JUMPDEST POP PUSH2 0x365 PUSH2 0x406 CALLDATASIZE PUSH1 0x4 PUSH2 0x4AA2 JUMP JUMPDEST PUSH2 0xD64 JUMP JUMPDEST CALLVALUE DUP1 ISZERO PUSH2 0x417 JUMPI PUSH1 0x0 DUP1 REVERT JUMPDEST POP PUSH2 0x365 PUSH2 0x426 CALLDATASIZE PUSH1 0x4 PUSH2 0x4AD0 JUMP JUMPDEST PUSH2 0xE43 JUMP JUMPDEST CALLVALUE DUP1 ISZERO PUSH2 0x437 JUMPI PUSH1 0x0 DUP1 REVERT JUMPDEST POP PUSH2 0x386 PUSH2 0x446 CALLDATASIZE PUSH1 0x4 PUSH2 0x4BB8 JUMP JUMPDEST PUSH2 0xF18 JUMP JUMPDEST CALLVALUE DUP1 ISZERO PUSH2 0x457 JUMPI PUSH1 0x0 DUP1 REVERT JUMPDEST POP PUSH2 0x365 PUSH2 0x466 CALLDATASIZE PUSH1 0x4 PUSH2 0x4AA2 JUMP JUMPDEST PUSH2 0xF76 JUMP JUMPDEST CALLVALUE DUP1 ISZERO PUSH2 0x477 JUMPI PUSH1 0x0 DUP1 REVERT JUMPDEST POP PUSH2 0x386 PUSH2 0x486 CALLDATASIZE PUSH1 0x4 PUSH2 0x4BF4 JUMP JUMPDEST PUSH2 0xFB1 JUMP JUMPDEST CALLVALUE DUP1 ISZERO PUSH2 0x497 JUMPI PUSH1 0x0 DUP1 REVERT JUMPDEST POP PUSH2 0x365 PUSH2 0x4A6 CALLDATASIZE PUSH1 0x4 PUSH2 0x4C53 JUMP JUMPDEST PUSH2 0x1006 JUMP JUMPDEST CALLVALUE DUP1 ISZERO PUSH2 0x4B7 JUMPI PUSH1 0x0 DUP1 REVERT JUMPDEST POP PUSH2 0x3DD PUSH2 0x4C6 CALLDATASIZE PUSH1 0x4 PUSH2 0x4BF4 JUMP JUMPDEST PUSH2 0x1292 JUMP JUMPDEST CALLVALUE DUP1 ISZERO PUSH2 0x4D7 JUMPI PUSH1 0x0 DUP1 REVERT JUMPDEST POP PUSH2 0x365 PUSH2 0x4E6 CALLDATASIZE PUSH1 0x4 PUSH2 0x4BF4 JUMP JUMPDEST PUSH2 0x12D3 JUMP JUMPDEST CALLVALUE DUP1 ISZERO PUSH2 0x4F7 JUMPI PUSH1 0x0 DUP1 REVERT JUMPDEST POP PUSH2 0x365 PUSH2 0x506 CALLDATASIZE PUSH1 0x4 PUSH2 0x4BF4 JUMP JUMPDEST PUSH2 0x1331 JUMP JUMPDEST CALLVALUE DUP1 ISZERO PUSH2 0x517 JUMPI PUSH1 0x0 DUP1 REVERT JUMPDEST POP PUSH2 0x365 PUSH2 0x526 CALLDATASIZE PUSH1 0x4 PUSH2 0x4AD0 JUMP JUMPDEST PUSH2 0x1383 JUMP JUMPDEST CALLVALUE DUP1 ISZERO PUSH2 0x537 JUMPI PUSH1 0x0 DUP1 REVERT JUMPDEST POP PUSH2 0x365 PUSH2 0x546 CALLDATASIZE PUSH1 0x4 PUSH2 0x4C8C JUMP JUMPDEST PUSH2 0x1531 JUMP JUMPDEST CALLVALUE DUP1 ISZERO PUSH2 0x557 JUMPI PUSH1 0x0 DUP1 REVERT JUMPDEST POP PUSH2 0x365 PUSH2 0x566 CALLDATASIZE PUSH1 0x4 PUSH2 0x4D70 JUMP JUMPDEST PUSH2 0x1763 JUMP JUMPDEST CALLVALUE DUP1 ISZERO PUSH2 0x577 JUMPI PUSH1 0x0 DUP1 REVERT JUMPDEST POP PUSH2 0x365 PUSH2 0x586 CALLDATASIZE PUSH1 0x4 PUSH2 0x4BB8 JUMP JUMPDEST PUSH2 0x179B JUMP JUMPDEST CALLVALUE DUP1 ISZERO PUSH2 0x597 JUMPI PUSH1 0x0 DUP1 REVERT JUMPDEST POP PUSH2 0x365 PUSH2 0x5A6 CALLDATASIZE PUSH1 0x4 PUSH2 0x4E43 JUMP JUMPDEST PUSH2 0x17E6 JUMP JUMPDEST CALLVALUE DUP1 ISZERO PUSH2 0x5B7 JUMPI PUSH1 0x0 DUP1 REVERT JUMPDEST POP PUSH2 0x365 PUSH2 0x5C6 CALLDATASIZE PUSH1 0x4 PUSH2 0x4C8C JUMP JUMPDEST PUSH2 0x1827 JUMP JUMPDEST CALLVALUE DUP1 ISZERO PUSH2 0x5D7 JUMPI PUSH1 0x0 DUP1 REVERT JUMPDEST POP PUSH2 0x3DD PUSH2 0x5E6 CALLDATASIZE PUSH1 0x4 PUSH2 0x4AD0 JUMP JUMPDEST PUSH1 0x1 PUSH1 0x1 PUSH1 0xA0 SHL SUB AND PUSH1 0x0 SWAP1 DUP2 MSTORE PUSH1 0xB PUSH1 0x20 MSTORE PUSH1 0x40 SWAP1 KECCAK256 SLOAD SWAP1 JUMP JUMPDEST CALLVALUE DUP1 ISZERO PUSH2 0x60D JUMPI PUSH1 0x0 DUP1 REVERT JUMPDEST POP PUSH2 0x386 PUSH2 0x61C CALLDATASIZE PUSH1 0x4 PUSH2 0x4E8D JUMP JUMPDEST PUSH1 0x0 SWAP2 DUP3 MSTORE PUSH1 0x1A PUSH1 0x20 SWAP1 DUP2 MSTORE PUSH1 0x40 DUP1 DUP5 KECCAK256 PUSH1 0x1 PUSH1 0x1 PUSH1 0xA0 SHL SUB SWAP4 SWAP1 SWAP4 AND DUP5 MSTORE PUSH1 0x4 DUP3 MSTORE DUP1 DUP5 KECCAK256 SLOAD DUP5 MSTORE SWAP2 SWAP1 MSTORE SWAP1 KECCAK256 SLOAD PUSH1 0xFF AND SWAP1 JUMP JUMPDEST CALLVALUE DUP1 ISZERO PUSH2 0x65D JUMPI PUSH1 0x0 DUP1 REVERT JUMPDEST POP PUSH2 0x3DD PUSH2 0x66C CALLDATASIZE PUSH1 0x4 PUSH2 0x4AA2 JUMP JUMPDEST PUSH1 0x0 SWAP1 DUP2 MSTORE PUSH1 0x13 PUSH1 0x20 MSTORE PUSH1 0x40 SWAP1 KECCAK256 PUSH1 0x1 ADD SLOAD SWAP1 JUMP JUMPDEST CALLVALUE DUP1 ISZERO PUSH2 0x68D JUMPI PUSH1 0x0 DUP1 REVERT JUMPDEST POP PUSH2 0x3DD PUSH2 0x69C CALLDATASIZE PUSH1 0x4 PUSH2 0x4AD0 JUMP JUMPDEST PUSH1 0x9 PUSH1 0x20 MSTORE PUSH1 0x0 SWAP1 DUP2 MSTORE PUSH1 0x40 SWAP1 KECCAK256 SLOAD DUP2 JUMP JUMPDEST CALLVALUE DUP1 ISZERO PUSH2 0x6BA JUMPI PUSH1 0x0 DUP1 REVERT JUMPDEST POP PUSH2 0x6E4 PUSH2 0x6C9 CALLDATASIZE PUSH1 0x4 PUSH2 0x4AA2 JUMP JUMPDEST PUSH1 0x0 SWAP1 DUP2 MSTORE PUSH1 0x13 PUSH1 0x20 MSTORE PUSH1 0x40 SWAP1 KECCAK256 SLOAD PUSH1 0x1 PUSH1 0x1 PUSH1 0xA0 SHL SUB AND SWAP1 JUMP JUMPDEST PUSH1 0x40 MLOAD PUSH1 0x1 PUSH1 0x1 PUSH1 0xA0 SHL SUB SWAP1 SWAP2 AND DUP2 MSTORE PUSH1 0x20 ADD PUSH2 0x392 JUMP JUMPDEST CALLVALUE DUP1 ISZERO PUSH2 0x708 JUMPI PUSH1 0x0 DUP1 REVERT JUMPDEST POP PUSH2 0x365 PUSH2 0x717 CALLDATASIZE PUSH1 0x4 PUSH2 0x4EB2 JUMP JUMPDEST PUSH2 0x185F JUMP JUMPDEST CALLVALUE DUP1 ISZERO PUSH2 0x728 JUMPI PUSH1 0x0 DUP1 REVERT JUMPDEST POP PUSH2 0x386 PUSH2 0x737 CALLDATASIZE PUSH1 0x4 PUSH2 0x4AA2 JUMP JUMPDEST PUSH1 0x0 SWAP1 DUP2 MSTORE PUSH1 0x16 PUSH1 0x20 SWAP1 DUP2 MSTORE PUSH1 0x40 DUP1 DUP4 KECCAK256 PUSH1 0x1 ADD SLOAD PUSH1 0x19 SWAP1 SWAP3 MSTORE SWAP1 SWAP2 KECCAK256 SLOAD EQ SWAP1 JUMP JUMPDEST CALLVALUE DUP1 ISZERO PUSH2 0x765 JUMPI PUSH1 0x0 DUP1 REVERT JUMPDEST POP PUSH2 0x3DD PUSH2 0x774 CALLDATASIZE PUSH1 0x4 PUSH2 0x4AA2 JUMP JUMPDEST PUSH1 0x0 SWAP1 DUP2 MSTORE PUSH1 0x6 PUSH1 0x20 MSTORE PUSH1 0x40 SWAP1 KECCAK256 PUSH1 0x1 ADD SLOAD SWAP1 JUMP JUMPDEST CALLVALUE DUP1 ISZERO PUSH2 0x795 JUMPI PUSH1 0x0 DUP1 REVERT JUMPDEST POP PUSH2 0x365 PUSH2 0x7A4 CALLDATASIZE PUSH1 0x4 PUSH2 0x4AD0 JUMP JUMPDEST PUSH2 0x18AC JUMP JUMPDEST CALLVALUE DUP1 ISZERO PUSH2 0x7B5 JUMPI PUSH1 0x0 DUP1 REVERT JUMPDEST POP PUSH2 0x386 PUSH2 0x7C4 CALLDATASIZE PUSH1 0x4 PUSH2 0x4AD0 JUMP JUMPDEST PUSH2 0x190A JUMP JUMPDEST CALLVALUE DUP1 ISZERO PUSH2 0x7D5 JUMPI PUSH1 0x0 DUP1 REVERT JUMPDEST POP PUSH2 0x365 PUSH2 0x7E4 CALLDATASIZE PUSH1 0x4 PUSH2 0x4AD0 JUMP JUMPDEST PUSH2 0x193F JUMP JUMPDEST CALLVALUE DUP1 ISZERO PUSH2 0x7F5 JUMPI PUSH1 0x0 DUP1 REVERT JUMPDEST POP PUSH2 0x386 PUSH2 0x804 CALLDATASIZE PUSH1 0x4 PUSH2 0x4AA2 JUMP JUMPDEST PUSH1 0x0 SWAP1 DUP2 MSTORE PUSH1 0x12 PUSH1 0x20 MSTORE PUSH1 0x40 SWAP1 KECCAK256 SLOAD PUSH1 0xFF AND SWAP1 JUMP JUMPDEST CALLVALUE DUP1 ISZERO PUSH2 0x825 JUMPI PUSH1 0x0 DUP1 REVERT JUMPDEST POP PUSH2 0x365 PUSH2 0x834 CALLDATASIZE PUSH1 0x4 PUSH2 0x4F0B JUMP JUMPDEST PUSH2 0x199D JUMP JUMPDEST CALLVALUE DUP1 ISZERO PUSH2 0x845 JUMPI PUSH1 0x0 DUP1 REVERT JUMPDEST POP PUSH2 0x386 PUSH2 0x854 CALLDATASIZE PUSH1 0x4 PUSH2 0x4AA2 JUMP JUMPDEST PUSH2 0x19A7 JUMP JUMPDEST CALLVALUE DUP1 ISZERO PUSH2 0x865 JUMPI PUSH1 0x0 DUP1 REVERT JUMPDEST POP PUSH2 0x386 PUSH2 0x874 CALLDATASIZE PUSH1 0x4 PUSH2 0x4AA2 JUMP JUMPDEST PUSH1 0x0 DUP1 SLOAD SWAP2 DUP2 MSTORE PUSH1 0x7 PUSH1 0x20 MSTORE PUSH1 0x40 SWAP1 KECCAK256 SLOAD GT SWAP1 JUMP JUMPDEST CALLVALUE DUP1 ISZERO PUSH2 0x895 JUMPI PUSH1 0x0 DUP1 REVERT JUMPDEST POP PUSH2 0x365 PUSH2 0x8A4 CALLDATASIZE PUSH1 0x4 PUSH2 0x4F37 JUMP JUMPDEST PUSH2 0x19EE JUMP JUMPDEST CALLVALUE DUP1 ISZERO PUSH2 0x8B5 JUMPI PUSH1 0x0 DUP1 REVERT JUMPDEST POP PUSH2 0x6E4 PUSH2 0x8C4 CALLDATASIZE PUSH1 0x4 PUSH2 0x4AA2 JUMP JUMPDEST PUSH1 0x16 PUSH1 0x20 MSTORE PUSH1 0x0 SWAP1 DUP2 MSTORE PUSH1 0x40 SWAP1 KECCAK256 SLOAD PUSH1 0x1 PUSH1 0x1 PUSH1 0xA0 SHL SUB AND DUP2 JUMP JUMPDEST CALLVALUE DUP1 ISZERO PUSH2 0x8EB JUMPI PUSH1 0x0 DUP1 REVERT JUMPDEST POP PUSH2 0x386 PUSH2 0x8FA CALLDATASIZE PUSH1 0x4 PUSH2 0x4BF4 JUMP JUMPDEST PUSH2 0x1A0E JUMP JUMPDEST CALLVALUE DUP1 ISZERO PUSH2 0x90B JUMPI PUSH1 0x0 DUP1 REVERT JUMPDEST POP PUSH1 0x0 SLOAD PUSH2 0x3DD JUMP JUMPDEST CALLVALUE DUP1 ISZERO PUSH2 0x920 JUMPI PUSH1 0x0 DUP1 REVERT JUMPDEST POP PUSH2 0x365 PUSH2 0x92F CALLDATASIZE PUSH1 0x4 PUSH2 0x4BF4 JUMP JUMPDEST PUSH2 0x1A80 JUMP JUMPDEST PUSH2 0x365 PUSH2 0x942 CALLDATASIZE PUSH1 0x4 PUSH2 0x4FB4 JUMP JUMPDEST PUSH2 0x1ACC JUMP JUMPDEST CALLVALUE DUP1 ISZERO PUSH2 0x953 JUMPI PUSH1 0x0 DUP1 REVERT JUMPDEST POP PUSH2 0x365 PUSH2 0x962 CALLDATASIZE PUSH1 0x4 PUSH2 0x4FE0 JUMP JUMPDEST PUSH2 0x2131 JUMP JUMPDEST CALLVALUE DUP1 ISZERO PUSH2 0x973 JUMPI PUSH1 0x0 DUP1 REVERT JUMPDEST POP PUSH2 0x386 PUSH2 0x982 CALLDATASIZE PUSH1 0x4 PUSH2 0x4AA2 JUMP JUMPDEST PUSH1 0x0 SWAP1 DUP2 MSTORE PUSH1 0x1C PUSH1 0x20 MSTORE PUSH1 0x40 SWAP1 KECCAK256 SLOAD PUSH1 0xFF AND SWAP1 JUMP JUMPDEST CALLVALUE DUP1 ISZERO PUSH2 0x9A3 JUMPI PUSH1 0x0 DUP1 REVERT JUMPDEST POP PUSH2 0x386 PUSH2 0x9B2 CALLDATASIZE PUSH1 0x4 PUSH2 0x4BB8 JUMP JUMPDEST PUSH2 0x21AD JUMP JUMPDEST CALLVALUE DUP1 ISZERO PUSH2 0x9C3 JUMPI PUSH1 0x0 DUP1 REVERT JUMPDEST POP PUSH2 0x9FC PUSH2 0x9D2 CALLDATASIZE PUSH1 0x4 PUSH2 0x4AA2 JUMP JUMPDEST PUSH1 0x3 PUSH1 0x20 MSTORE PUSH1 0x0 SWAP1 DUP2 MSTORE PUSH1 0x40 SWAP1 KECCAK256 DUP1 SLOAD PUSH1 0x1 DUP3 ADD SLOAD PUSH1 0x2 SWAP1 SWAP3 ADD SLOAD SWAP1 SWAP2 PUSH1 0x1 PUSH1 0x1 PUSH1 0xA0 SHL SUB AND SWAP1 DUP4 JUMP JUMPDEST PUSH1 0x40 DUP1 MLOAD SWAP4 DUP5 MSTORE PUSH1 0x1 PUSH1 0x1 PUSH1 0xA0 SHL SUB SWAP1 SWAP3 AND PUSH1 0x20 DUP5 ADD MSTORE SWAP1 DUP3 ADD MSTORE PUSH1 0x60 ADD PUSH2 0x392 JUMP JUMPDEST CALLVALUE DUP1 ISZERO PUSH2 0xA2B JUMPI PUSH1 0x0 DUP1 REVERT JUMPDEST POP PUSH2 0x3DD PUSH2 0xA3A CALLDATASIZE PUSH1 0x4 PUSH2 0x4AD0 JUMP JUMPDEST PUSH1 0x4 PUSH1 0x20 MSTORE PUSH1 0x0 SWAP1 DUP2 MSTORE PUSH1 0x40 SWAP1 KECCAK256 SLOAD DUP2 JUMP JUMPDEST CALLVALUE DUP1 ISZERO PUSH2 0xA58 JUMPI PUSH1 0x0 DUP1 REVERT JUMPDEST POP PUSH2 0x365 PUSH2 0xA67 CALLDATASIZE PUSH1 0x4 PUSH2 0x501B JUMP JUMPDEST PUSH2 0x21DD JUMP JUMPDEST CALLVALUE DUP1 ISZERO PUSH2 0xA78 JUMPI PUSH1 0x0 DUP1 REVERT JUMPDEST POP PUSH2 0x386 PUSH2 0xA87 CALLDATASIZE PUSH1 0x4 PUSH2 0x4AA2 JUMP JUMPDEST PUSH1 0x0 SWAP1 DUP2 MSTORE PUSH1 0x1B PUSH1 0x20 MSTORE PUSH1 0x40 SWAP1 KECCAK256 SLOAD PUSH1 0xFF AND SWAP1 JUMP JUMPDEST CALLVALUE DUP1 ISZERO PUSH2 0xAA8 JUMPI PUSH1 0x0 DUP1 REVERT JUMPDEST POP PUSH2 0x386 PUSH2 0x228A JUMP JUMPDEST CALLVALUE DUP1 ISZERO PUSH2 0xABD JUMPI PUSH1 0x0 DUP1 REVERT JUMPDEST POP PUSH2 0x386 PUSH2 0xACC CALLDATASIZE PUSH1 0x4 PUSH2 0x4BF4 JUMP JUMPDEST PUSH2 0x22B4 JUMP JUMPDEST CALLVALUE DUP1 ISZERO PUSH2 0xADD JUMPI PUSH1 0x0 DUP1 REVERT JUMPDEST POP PUSH2 0x365 PUSH2 0xAEC CALLDATASIZE PUSH1 0x4 PUSH2 0x5073 JUMP JUMPDEST PUSH2 0x230A JUMP JUMPDEST CALLVALUE DUP1 ISZERO PUSH2 0xAFD JUMPI PUSH1 0x0 DUP1 REVERT JUMPDEST POP PUSH2 0x386 PUSH2 0xB0C CALLDATASIZE PUSH1 0x4 PUSH2 0x4AD0 JUMP JUMPDEST PUSH2 0x232A JUMP JUMPDEST CALLVALUE DUP1 ISZERO PUSH2 0xB1D JUMPI PUSH1 0x0 DUP1 REVERT JUMPDEST POP PUSH2 0x3DD PUSH2 0xB2C CALLDATASIZE PUSH1 0x4 PUSH2 0x4AA2 JUMP JUMPDEST PUSH1 0x0 SWAP1 DUP2 MSTORE PUSH1 0x14 PUSH1 0x20 MSTORE PUSH1 0x40 SWAP1 KECCAK256 SLOAD SWAP1 JUMP JUMPDEST CALLVALUE DUP1 ISZERO PUSH2 0xB4A JUMPI PUSH1 0x0 DUP1 REVERT JUMPDEST POP PUSH2 0x386 PUSH2 0xB59 CALLDATASIZE PUSH1 0x4 PUSH2 0x4C8C JUMP JUMPDEST PUSH1 0x0 SWAP2 DUP3 MSTORE PUSH1 0x16 PUSH1 0x20 MSTORE PUSH1 0x40 SWAP1 SWAP2 KECCAK256 PUSH1 0x1 ADD SLOAD GT SWAP1 JUMP JUMPDEST CALLVALUE DUP1 ISZERO PUSH2 0xB7C JUMPI PUSH1 0x0 DUP1 REVERT JUMPDEST POP PUSH2 0x3DD PUSH2 0xB8B CALLDATASIZE PUSH1 0x4 PUSH2 0x4AA2 JUMP JUMPDEST PUSH1 0x0 SWAP1 DUP2 MSTORE PUSH1 0x7 PUSH1 0x20 MSTORE PUSH1 0x40 SWAP1 KECCAK256 SLOAD SWAP1 JUMP JUMPDEST CALLVALUE DUP1 ISZERO PUSH2 0xBA9 JUMPI PUSH1 0x0 DUP1 REVERT JUMPDEST POP PUSH2 0x365 PUSH2 0xBB8 CALLDATASIZE PUSH1 0x4 PUSH2 0x50BC JUMP JUMPDEST PUSH2 0x235C JUMP JUMPDEST CALLVALUE DUP1 ISZERO PUSH2 0xBC9 JUMPI PUSH1 0x0 DUP1 REVERT JUMPDEST POP PUSH2 0x386 PUSH2 0xBD8 CALLDATASIZE PUSH1 0x4 PUSH2 0x4C8C JUMP JUMPDEST PUSH2 0x23E3 JUMP JUMPDEST PUSH2 0xBE8 DUP4 DUP4 DUP4 PUSH2 0x2414 JUMP JUMPDEST PUSH1 0x40 MLOAD PUSH4 0x36B0B4B7 PUSH1 0xE1 SHL DUP2 MSTORE PUSH1 0xF SWAP1 PUSH1 0x4 ADD SWAP1 DUP2 MSTORE PUSH1 0x40 DUP1 MLOAD PUSH1 0x20 SWAP3 DUP2 SWAP1 SUB DUP4 ADD SWAP1 KECCAK256 PUSH1 0x1 PUSH1 0x1 PUSH1 0xA0 SHL SUB DUP7 AND PUSH1 0x0 SWAP1 DUP2 MSTORE SWAP3 MSTORE SWAP1 KECCAK256 SLOAD ISZERO DUP1 ISZERO PUSH2 0xC35 JUMPI POP PUSH1 0x1 PUSH1 0x1 PUSH1 0xA0 SHL SUB DUP4 AND ISZERO ISZERO JUMPDEST ISZERO PUSH2 0xC78 JUMPI PUSH1 0x1 PUSH1 0xE PUSH1 0x40 MLOAD PUSH2 0xC55 SWAP1 PUSH4 0x36B0B4B7 PUSH1 0xE1 SHL DUP2 MSTORE PUSH1 0x4 ADD SWAP1 JUMP JUMPDEST SWAP1 DUP2 MSTORE PUSH1 0x20 ADD PUSH1 0x40 MLOAD DUP1 SWAP2 SUB SWAP1 KECCAK256 PUSH1 0x0 DUP3 DUP3 SLOAD PUSH2 0xC72 SWAP2 SWAP1 PUSH2 0x5128 JUMP JUMPDEST SWAP1 SWAP2 SSTORE POP POP JUMPDEST DUP2 PUSH1 0xF PUSH1 0x40 MLOAD PUSH2 0xC92 SWAP1 PUSH4 0x36B0B4B7 PUSH1 0xE1 SHL DUP2 MSTORE PUSH1 0x4 ADD SWAP1 JUMP JUMPDEST SWAP1 DUP2 MSTORE PUSH1 0x20 ADD PUSH1 0x40 MLOAD DUP1 SWAP2 SUB SWAP1 KECCAK256 PUSH1 0x0 DUP6 PUSH1 0x1 PUSH1 0x1 PUSH1 0xA0 SHL SUB AND PUSH1 0x1 PUSH1 0x1 PUSH1 0xA0 SHL SUB AND DUP2 MSTORE PUSH1 0x20 ADD SWAP1 DUP2 MSTORE PUSH1 0x20 ADD PUSH1 0x0 KECCAK256 PUSH1 0x0 DUP3 DUP3 SLOAD PUSH2 0xCD2 SWAP2 SWAP1 PUSH2 0x5128 JUMP JUMPDEST SWAP1 SWAP2 SSTORE POP POP PUSH1 0x40 DUP1 MLOAD PUSH1 0x1 PUSH1 0x1 PUSH1 0xA0 SHL SUB DUP1 DUP7 AND DUP3 MSTORE PUSH1 0x20 DUP3 ADD DUP6 SWAP1 MSTORE DUP4 AND SWAP2 DUP2 ADD SWAP2 SWAP1 SWAP2 MSTORE PUSH32 0xDE49BBE8E448CDFA40E6FA0D22592BE9A03B28BA746527635DBE5235416659CF SWAP1 PUSH1 0x60 ADD JUMPDEST PUSH1 0x40 MLOAD DUP1 SWAP2 SUB SWAP1 LOG1 POP POP POP JUMP JUMPDEST PUSH1 0x40 MLOAD DUP1 PUSH1 0x40 ADD PUSH1 0x40 MSTORE DUP1 PUSH1 0x2 DUP2 MSTORE PUSH1 0x20 ADD PUSH2 0x6C45 PUSH1 0xF0 SHL DUP2 MSTORE POP PUSH2 0xD50 DUP2 CALLER PUSH2 0x22B4 JUMP JUMPDEST PUSH2 0xD59 JUMPI PUSH1 0x0 DUP1 REVERT JUMPDEST PUSH2 0xD61 PUSH2 0x2469 JUMP JUMPDEST POP JUMP JUMPDEST PUSH1 0x0 DUP2 DUP2 MSTORE PUSH1 0x3 PUSH1 0x20 MSTORE PUSH1 0x40 SWAP1 KECCAK256 PUSH1 0x1 ADD SLOAD DUP2 SWAP1 PUSH1 0x1 PUSH1 0x1 PUSH1 0xA0 SHL SUB AND CALLER EQ PUSH2 0xDA8 JUMPI PUSH1 0x40 MLOAD PUSH3 0x461BCD PUSH1 0xE5 SHL DUP2 MSTORE PUSH1 0x4 ADD PUSH2 0xD9F SWAP1 PUSH2 0x513B JUMP JUMPDEST PUSH1 0x40 MLOAD DUP1 SWAP2 SUB SWAP1 REVERT JUMPDEST DUP2 PUSH2 0xDC2 DUP2 PUSH1 0x0 DUP1 SLOAD SWAP2 DUP2 MSTORE PUSH1 0x7 PUSH1 0x20 MSTORE PUSH1 0x40 SWAP1 KECCAK256 SLOAD GT SWAP1 JUMP JUMPDEST PUSH2 0xDDE JUMPI PUSH1 0x40 MLOAD PUSH3 0x461BCD PUSH1 0xE5 SHL DUP2 MSTORE PUSH1 0x4 ADD PUSH2 0xD9F SWAP1 PUSH2 0x5157 JUMP JUMPDEST PUSH1 0x1 PUSH1 0x0 DUP5 DUP2 MSTORE PUSH1 0x5 PUSH1 0x20 MSTORE PUSH1 0x40 SWAP1 KECCAK256 SLOAD PUSH1 0xFF AND PUSH1 0x2 DUP2 GT ISZERO PUSH2 0xE03 JUMPI PUSH2 0xE03 PUSH2 0x5173 JUMP JUMPDEST EQ PUSH2 0xE35 JUMPI PUSH1 0x40 MLOAD PUSH3 0x461BCD PUSH1 0xE5 SHL DUP2 MSTORE PUSH1 0x20 PUSH1 0x4 DUP3 ADD MSTORE PUSH1 0x2 PUSH1 0x24 DUP3 ADD MSTORE PUSH2 0x4E53 PUSH1 0xF0 SHL PUSH1 0x44 DUP3 ADD MSTORE PUSH1 0x64 ADD PUSH2 0xD9F JUMP JUMPDEST PUSH2 0xE3E DUP4 PUSH2 0x24BB JUMP JUMPDEST POP POP POP JUMP JUMPDEST PUSH2 0xE4B PUSH2 0x228A JUMP JUMPDEST PUSH2 0xE7C JUMPI PUSH1 0x40 MLOAD PUSH3 0x461BCD PUSH1 0xE5 SHL DUP2 MSTORE PUSH1 0x20 PUSH1 0x4 DUP3 ADD MSTORE PUSH1 0x2 PUSH1 0x24 DUP3 ADD MSTORE PUSH2 0xAE9 PUSH1 0xF3 SHL PUSH1 0x44 DUP3 ADD MSTORE PUSH1 0x64 ADD PUSH2 0xD9F JUMP JUMPDEST PUSH1 0x1 PUSH1 0x1 PUSH1 0xA0 SHL SUB DUP2 AND PUSH1 0x0 SWAP1 DUP2 MSTORE PUSH1 0xB PUSH1 0x20 MSTORE PUSH1 0x40 SWAP1 KECCAK256 SLOAD PUSH2 0xEC5 JUMPI PUSH1 0x40 MLOAD PUSH3 0x461BCD PUSH1 0xE5 SHL DUP2 MSTORE PUSH1 0x20 PUSH1 0x4 DUP3 ADD MSTORE PUSH1 0x1 PUSH1 0x24 DUP3 ADD MSTORE PUSH1 0x45 PUSH1 0xF8 SHL PUSH1 0x44 DUP3 ADD MSTORE PUSH1 0x64 ADD PUSH2 0xD9F JUMP JUMPDEST PUSH1 0x1 PUSH1 0x1 PUSH1 0xA0 SHL SUB DUP2 AND PUSH1 0x0 SWAP1 DUP2 MSTORE PUSH1 0xB PUSH1 0x20 MSTORE PUSH1 0x40 SWAP1 KECCAK256 SLOAD PUSH2 0xEFE SWAP1 DUP3 SWAP1 PUSH20 0x49A71890AEA5A751E30E740C504F2E9683F347BC PUSH2 0x2565 JUMP JUMPDEST PUSH1 0x1 PUSH1 0x1 PUSH1 0xA0 SHL SUB AND PUSH1 0x0 SWAP1 DUP2 MSTORE PUSH1 0xB PUSH1 0x20 MSTORE PUSH1 0x40 DUP2 KECCAK256 SSTORE JUMP JUMPDEST PUSH1 0x0 PUSH1 0xE DUP3 PUSH1 0x40 MLOAD PUSH2 0xF2A SWAP2 SWAP1 PUSH2 0x51AD JUMP JUMPDEST SWAP1 DUP2 MSTORE PUSH1 0x20 ADD PUSH1 0x40 MLOAD DUP1 SWAP2 SUB SWAP1 KECCAK256 SLOAD PUSH1 0x0 EQ DUP1 ISZERO PUSH2 0xF70 JUMPI POP PUSH1 0xF DUP3 PUSH1 0x40 MLOAD PUSH2 0xF53 SWAP2 SWAP1 PUSH2 0x51AD JUMP JUMPDEST SWAP1 DUP2 MSTORE PUSH1 0x40 DUP1 MLOAD PUSH1 0x20 SWAP3 DUP2 SWAP1 SUB DUP4 ADD SWAP1 KECCAK256 PUSH1 0x0 DUP1 DUP1 MSTORE SWAP3 MSTORE SWAP1 KECCAK256 SLOAD ISZERO JUMPDEST SWAP3 SWAP2 POP POP JUMP JUMPDEST PUSH1 0x40 MLOAD DUP1 PUSH1 0x40 ADD PUSH1 0x40 MSTORE DUP1 PUSH1 0x2 DUP2 MSTORE PUSH1 0x20 ADD PUSH2 0x1B51 PUSH1 0xF2 SHL DUP2 MSTORE POP PUSH2 0xF9B DUP2 CALLER PUSH2 0x22B4 JUMP JUMPDEST PUSH2 0xFA4 JUMPI PUSH1 0x0 DUP1 REVERT JUMPDEST PUSH2 0xFAD DUP3 PUSH2 0x280A JUMP JUMPDEST POP POP JUMP JUMPDEST PUSH1 0x0 PUSH1 0x2 PUSH1 0x11 DUP5 PUSH1 0x40 MLOAD PUSH2 0xFC5 SWAP2 SWAP1 PUSH2 0x51AD JUMP JUMPDEST SWAP1 DUP2 MSTORE PUSH1 0x40 DUP1 MLOAD PUSH1 0x20 SWAP3 DUP2 SWAP1 SUB DUP4 ADD SWAP1 KECCAK256 PUSH1 0x1 PUSH1 0x1 PUSH1 0xA0 SHL SUB DUP7 AND PUSH1 0x0 SWAP1 DUP2 MSTORE SWAP3 MSTORE SWAP1 KECCAK256 SLOAD PUSH1 0xFF AND PUSH1 0x2 DUP2 GT ISZERO PUSH2 0xFFE JUMPI PUSH2 0xFFE PUSH2 0x5173 JUMP JUMPDEST EQ SWAP4 SWAP3 POP POP POP JUMP JUMPDEST PUSH1 0x0 DUP4 DUP2 MSTORE PUSH1 0x3 PUSH1 0x20 MSTORE PUSH1 0x40 SWAP1 KECCAK256 PUSH1 0x1 ADD SLOAD DUP4 SWAP1 PUSH1 0x1 PUSH1 0x1 PUSH1 0xA0 SHL SUB AND CALLER EQ PUSH2 0x1041 JUMPI PUSH1 0x40 MLOAD PUSH3 0x461BCD PUSH1 0xE5 SHL DUP2 MSTORE PUSH1 0x4 ADD PUSH2 0xD9F SWAP1 PUSH2 0x513B JUMP JUMPDEST PUSH1 0x0 DUP4 DUP2 MSTORE PUSH1 0x1B PUSH1 0x20 MSTORE PUSH1 0x40 SWAP1 KECCAK256 SLOAD DUP4 SWAP1 PUSH1 0xFF AND PUSH2 0x1087 JUMPI PUSH1 0x40 MLOAD PUSH3 0x461BCD PUSH1 0xE5 SHL DUP2 MSTORE PUSH1 0x20 PUSH1 0x4 DUP3 ADD MSTORE PUSH1 0x3 PUSH1 0x24 DUP3 ADD MSTORE PUSH3 0x524E5 PUSH1 0xEC SHL PUSH1 0x44 DUP3 ADD MSTORE PUSH1 0x64 ADD PUSH2 0xD9F JUMP JUMPDEST PUSH1 0x1 DUP1 SLOAD PUSH1 0xFF AND ISZERO ISZERO EQ PUSH2 0x10AD JUMPI PUSH1 0x40 MLOAD PUSH3 0x461BCD PUSH1 0xE5 SHL DUP2 MSTORE PUSH1 0x4 ADD PUSH2 0xD9F SWAP1 PUSH2 0x51C9 JUMP JUMPDEST PUSH1 0x0 DUP5 DUP2 MSTORE PUSH1 0x1A PUSH1 0x20 SWAP1 DUP2 MSTORE PUSH1 0x40 DUP1 DUP4 KECCAK256 CALLER DUP5 MSTORE PUSH1 0x4 DUP4 MSTORE DUP2 DUP5 KECCAK256 SLOAD DUP5 MSTORE SWAP1 SWAP2 MSTORE SWAP1 KECCAK256 SLOAD PUSH1 0xFF AND ISZERO PUSH2 0x10DE JUMPI PUSH1 0x0 DUP1 REVERT JUMPDEST PUSH2 0x10E8 DUP6 DUP6 PUSH2 0x23E3 JUMP JUMPDEST PUSH2 0x111A JUMPI PUSH1 0x40 MLOAD PUSH3 0x461BCD PUSH1 0xE5 SHL DUP2 MSTORE PUSH1 0x20 PUSH1 0x4 DUP3 ADD MSTORE PUSH1 0x3 PUSH1 0x24 DUP3 ADD MSTORE PUSH3 0x29A72B PUSH1 0xE9 SHL PUSH1 0x44 DUP3 ADD MSTORE PUSH1 0x64 ADD PUSH2 0xD9F JUMP JUMPDEST PUSH1 0x0 DUP5 DUP2 MSTORE PUSH1 0x1A PUSH1 0x20 SWAP1 DUP2 MSTORE PUSH1 0x40 DUP1 DUP4 KECCAK256 DUP9 DUP5 MSTORE SWAP1 SWAP2 MSTORE SWAP1 KECCAK256 DUP1 SLOAD PUSH1 0xFF NOT AND PUSH1 0x1 OR SWAP1 SSTORE DUP3 ISZERO PUSH2 0x1177 JUMPI PUSH1 0x0 DUP6 DUP2 MSTORE PUSH1 0x3 PUSH1 0x20 SWAP1 DUP2 MSTORE PUSH1 0x40 DUP1 DUP4 KECCAK256 SLOAD DUP8 DUP5 MSTORE PUSH1 0x17 SWAP1 SWAP3 MSTORE DUP3 KECCAK256 DUP1 SLOAD SWAP2 SWAP3 SWAP1 SWAP2 PUSH2 0x1171 SWAP1 DUP5 SWAP1 PUSH2 0x5128 JUMP JUMPDEST SWAP1 SWAP2 SSTORE POP POP JUMPDEST PUSH1 0x0 DUP6 DUP2 MSTORE PUSH1 0x3 PUSH1 0x20 SWAP1 DUP2 MSTORE PUSH1 0x40 DUP1 DUP4 KECCAK256 SLOAD DUP8 DUP5 MSTORE PUSH1 0x18 SWAP1 SWAP3 MSTORE DUP3 KECCAK256 DUP1 SLOAD SWAP2 SWAP3 SWAP1 SWAP2 PUSH2 0x11A4 SWAP1 DUP5 SWAP1 PUSH2 0x5128 JUMP JUMPDEST SWAP1 SWAP2 SSTORE POP POP PUSH1 0x40 DUP1 MLOAD DUP6 DUP2 MSTORE DUP5 ISZERO ISZERO PUSH1 0x20 DUP3 ADD MSTORE CALLER DUP2 DUP4 ADD MSTORE SWAP1 MLOAD PUSH32 0x4A341F5494C396C29C9E30033EC7900B3B51340AC726DC58726E583EA2ACEEB2 SWAP2 DUP2 SWAP1 SUB PUSH1 0x60 ADD SWAP1 LOG1 PUSH1 0x0 PUSH2 0x11F4 DUP6 PUSH2 0x19A7 JUMP JUMPDEST SWAP1 POP DUP1 DUP1 PUSH2 0x121A JUMPI POP PUSH1 0x0 DUP6 DUP2 MSTORE PUSH1 0x2 PUSH1 0x20 SWAP1 DUP2 MSTORE PUSH1 0x40 DUP1 DUP4 KECCAK256 SLOAD PUSH1 0x18 SWAP1 SWAP3 MSTORE SWAP1 SWAP2 KECCAK256 SLOAD EQ JUMPDEST ISZERO PUSH2 0x128A JUMPI PUSH1 0x0 DUP6 DUP2 MSTORE PUSH1 0x1B PUSH1 0x20 MSTORE PUSH1 0x40 SWAP1 KECCAK256 DUP1 SLOAD PUSH1 0xFF NOT AND SWAP1 SSTORE DUP1 ISZERO PUSH2 0x1255 JUMPI PUSH1 0x0 DUP6 DUP2 MSTORE PUSH1 0x1C PUSH1 0x20 MSTORE PUSH1 0x40 SWAP1 KECCAK256 DUP1 SLOAD PUSH1 0xFF NOT AND PUSH1 0x1 OR SWAP1 SSTORE JUMPDEST PUSH1 0x40 MLOAD DUP6 DUP2 MSTORE PUSH32 0xB7AF3044D10DC1BE59F482D5C460C7C711F80137A36184CDF4F49D973E95ACB1 SWAP1 PUSH1 0x20 ADD JUMPDEST PUSH1 0x40 MLOAD DUP1 SWAP2 SUB SWAP1 LOG1 JUMPDEST POP POP POP POP POP POP JUMP JUMPDEST PUSH1 0x0 PUSH1 0xF DUP4 PUSH1 0x40 MLOAD PUSH2 0x12A4 SWAP2 SWAP1 PUSH2 0x51AD JUMP JUMPDEST SWAP1 DUP2 MSTORE PUSH1 0x40 DUP1 MLOAD SWAP2 DUP3 SWAP1 SUB PUSH1 0x20 SWAP1 DUP2 ADD SWAP1 SWAP3 KECCAK256 PUSH1 0x1 PUSH1 0x1 PUSH1 0xA0 SHL SUB DUP6 AND PUSH1 0x0 SWAP1 DUP2 MSTORE SWAP3 MSTORE SWAP1 KECCAK256 SLOAD SWAP1 POP SWAP3 SWAP2 POP POP JUMP JUMPDEST PUSH1 0x40 MLOAD DUP1 PUSH1 0x40 ADD PUSH1 0x40 MSTORE DUP1 PUSH1 0x2 DUP2 MSTORE PUSH1 0x20 ADD PUSH2 0x36A1 PUSH1 0xF1 SHL DUP2 MSTORE POP PUSH2 0x12F8 DUP2 CALLER PUSH2 0x22B4 JUMP JUMPDEST PUSH2 0x1301 JUMPI PUSH1 0x0 DUP1 REVERT JUMPDEST PUSH1 0x1 DUP1 SLOAD PUSH1 0xFF AND ISZERO ISZERO EQ PUSH2 0x1327 JUMPI PUSH1 0x40 MLOAD PUSH3 0x461BCD PUSH1 0xE5 SHL DUP2 MSTORE PUSH1 0x4 ADD PUSH2 0xD9F SWAP1 PUSH2 0x51C9 JUMP JUMPDEST PUSH2 0xE3E DUP4 DUP4 PUSH2 0x28F5 JUMP JUMPDEST PUSH1 0x40 MLOAD DUP1 PUSH1 0x40 ADD PUSH1 0x40 MSTORE DUP1 PUSH1 0x2 DUP2 MSTORE PUSH1 0x20 ADD PUSH2 0x36A1 PUSH1 0xF1 SHL DUP2 MSTORE POP PUSH2 0x1356 DUP2 CALLER PUSH2 0xFB1 JUMP JUMPDEST PUSH2 0x135F JUMPI PUSH1 0x0 DUP1 REVERT JUMPDEST DUP3 PUSH2 0x136A DUP2 CALLER PUSH2 0x1A0E JUMP JUMPDEST PUSH2 0x1373 JUMPI PUSH1 0x0 DUP1 REVERT JUMPDEST PUSH2 0x137D DUP5 DUP5 PUSH2 0x2A07 JUMP JUMPDEST POP POP POP POP JUMP JUMPDEST PUSH2 0x138C CALLER PUSH2 0x232A JUMP JUMPDEST PUSH2 0x13BD JUMPI PUSH1 0x40 MLOAD PUSH3 0x461BCD PUSH1 0xE5 SHL DUP2 MSTORE PUSH1 0x20 PUSH1 0x4 DUP3 ADD MSTORE PUSH1 0x2 PUSH1 0x24 DUP3 ADD MSTORE PUSH2 0xAA9 PUSH1 0xF3 SHL PUSH1 0x44 DUP3 ADD MSTORE PUSH1 0x64 ADD PUSH2 0xD9F JUMP JUMPDEST PUSH1 0x1 SLOAD PUSH1 0xFF AND ISZERO PUSH2 0x13F5 JUMPI PUSH1 0x40 MLOAD PUSH3 0x461BCD PUSH1 0xE5 SHL DUP2 MSTORE PUSH1 0x20 PUSH1 0x4 DUP3 ADD MSTORE PUSH1 0x2 PUSH1 0x24 DUP3 ADD MSTORE PUSH2 0x5341 PUSH1 0xF0 SHL PUSH1 0x44 DUP3 ADD MSTORE PUSH1 0x64 ADD PUSH2 0xD9F JUMP JUMPDEST CALLER PUSH1 0x0 SWAP1 DUP2 MSTORE PUSH1 0x4 PUSH1 0x20 SWAP1 DUP2 MSTORE PUSH1 0x40 DUP1 DUP4 KECCAK256 SLOAD PUSH1 0x1 PUSH1 0x1 PUSH1 0xA0 SHL SUB DUP6 AND DUP5 MSTORE PUSH1 0xC DUP4 MSTORE DUP2 DUP5 KECCAK256 DUP2 DUP6 MSTORE SWAP1 SWAP3 MSTORE SWAP1 SWAP2 KECCAK256 SLOAD PUSH1 0xFF AND ISZERO PUSH2 0x145A JUMPI PUSH1 0x40 MLOAD PUSH3 0x461BCD PUSH1 0xE5 SHL DUP2 MSTORE PUSH1 0x20 PUSH1 0x4 DUP3 ADD MSTORE PUSH1 0x2 PUSH1 0x24 DUP3 ADD MSTORE PUSH2 0x4143 PUSH1 0xF0 SHL PUSH1 0x44 DUP3 ADD MSTORE PUSH1 0x64 ADD PUSH2 0xD9F JUMP JUMPDEST PUSH1 0x1 PUSH1 0x1 PUSH1 0xA0 SHL SUB DUP3 AND PUSH1 0x0 DUP2 DUP2 MSTORE PUSH1 0xC PUSH1 0x20 SWAP1 DUP2 MSTORE PUSH1 0x40 DUP1 DUP4 KECCAK256 DUP6 DUP5 MSTORE DUP3 MSTORE DUP1 DUP4 KECCAK256 DUP1 SLOAD PUSH1 0xFF NOT AND PUSH1 0x1 OR SWAP1 SSTORE DUP3 SLOAD DUP4 MSTORE PUSH1 0x2 DUP3 MSTORE DUP1 DUP4 KECCAK256 SLOAD DUP6 DUP5 MSTORE PUSH1 0x3 DUP4 MSTORE DUP2 DUP5 KECCAK256 SLOAD SWAP5 DUP5 MSTORE PUSH1 0x9 SWAP1 SWAP3 MSTORE DUP3 KECCAK256 SLOAD SWAP2 SWAP3 SWAP1 SWAP2 PUSH2 0x14B8 SWAP2 SWAP1 PUSH2 0x51E5 JUMP JUMPDEST PUSH2 0x14C2 SWAP2 SWAP1 PUSH2 0x51FC JUMP JUMPDEST SWAP1 POP DUP1 PUSH1 0x0 SUB PUSH2 0x14F8 JUMPI PUSH1 0x40 MLOAD PUSH3 0x461BCD PUSH1 0xE5 SHL DUP2 MSTORE PUSH1 0x20 PUSH1 0x4 DUP3 ADD MSTORE PUSH1 0x1 PUSH1 0x24 DUP3 ADD MSTORE PUSH1 0x45 PUSH1 0xF8 SHL PUSH1 0x44 DUP3 ADD MSTORE PUSH1 0x64 ADD PUSH2 0xD9F JUMP JUMPDEST PUSH1 0x1 PUSH1 0x1 PUSH1 0xA0 SHL SUB DUP4 AND PUSH1 0x0 SWAP1 DUP2 MSTORE PUSH1 0xB PUSH1 0x20 MSTORE PUSH1 0x40 DUP2 KECCAK256 DUP1 SLOAD DUP4 SWAP3 SWAP1 PUSH2 0x1520 SWAP1 DUP5 SWAP1 PUSH2 0x521E JUMP JUMPDEST SWAP1 SWAP2 SSTORE POP PUSH2 0xE3E SWAP1 POP DUP4 DUP3 CALLER PUSH2 0x2565 JUMP JUMPDEST PUSH1 0x0 DUP3 DUP2 MSTORE PUSH1 0x3 PUSH1 0x20 MSTORE PUSH1 0x40 SWAP1 KECCAK256 PUSH1 0x1 ADD SLOAD DUP3 SWAP1 PUSH1 0x1 PUSH1 0x1 PUSH1 0xA0 SHL SUB AND CALLER EQ PUSH2 0x156C JUMPI PUSH1 0x40 MLOAD PUSH3 0x461BCD PUSH1 0xE5 SHL DUP2 MSTORE PUSH1 0x4 ADD PUSH2 0xD9F SWAP1 PUSH2 0x513B JUMP JUMPDEST PUSH1 0x0 DUP3 DUP2 MSTORE PUSH1 0x12 PUSH1 0x20 MSTORE PUSH1 0x40 SWAP1 KECCAK256 SLOAD DUP3 SWAP1 PUSH1 0xFF AND PUSH2 0x1589 JUMPI PUSH1 0x0 DUP1 REVERT JUMPDEST PUSH1 0x1 DUP1 SLOAD PUSH1 0xFF AND ISZERO ISZERO EQ PUSH2 0x15AF JUMPI PUSH1 0x40 MLOAD PUSH3 0x461BCD PUSH1 0xE5 SHL DUP2 MSTORE PUSH1 0x4 ADD PUSH2 0xD9F SWAP1 PUSH2 0x51C9 JUMP JUMPDEST PUSH2 0x15B9 DUP5 DUP5 PUSH2 0x23E3 JUMP JUMPDEST PUSH2 0x15EB JUMPI PUSH1 0x40 MLOAD PUSH3 0x461BCD PUSH1 0xE5 SHL DUP2 MSTORE PUSH1 0x20 PUSH1 0x4 DUP3 ADD MSTORE PUSH1 0x3 PUSH1 0x24 DUP3 ADD MSTORE PUSH3 0x2720A3 PUSH1 0xE9 SHL PUSH1 0x44 DUP3 ADD MSTORE PUSH1 0x64 ADD PUSH2 0xD9F JUMP JUMPDEST PUSH1 0x0 DUP4 DUP2 MSTORE PUSH1 0x15 PUSH1 0x20 SWAP1 DUP2 MSTORE PUSH1 0x40 DUP1 DUP4 KECCAK256 DUP8 DUP5 MSTORE SWAP1 SWAP2 MSTORE SWAP1 KECCAK256 SLOAD PUSH1 0xFF AND ISZERO PUSH2 0x163A JUMPI PUSH1 0x40 MLOAD PUSH3 0x461BCD PUSH1 0xE5 SHL DUP2 MSTORE PUSH1 0x20 PUSH1 0x4 DUP3 ADD MSTORE PUSH1 0x2 PUSH1 0x24 DUP3 ADD MSTORE PUSH2 0x4143 PUSH1 0xF0 SHL PUSH1 0x44 DUP3 ADD MSTORE PUSH1 0x64 ADD PUSH2 0xD9F JUMP JUMPDEST PUSH1 0x0 DUP4 DUP2 MSTORE PUSH1 0x15 PUSH1 0x20 SWAP1 DUP2 MSTORE PUSH1 0x40 DUP1 DUP4 KECCAK256 DUP8 DUP5 MSTORE DUP3 MSTORE DUP1 DUP4 KECCAK256 DUP1 SLOAD PUSH1 0xFF NOT AND PUSH1 0x1 SWAP1 DUP2 OR SWAP1 SWAP2 SSTORE DUP4 SLOAD DUP5 MSTORE PUSH1 0x2 DUP4 MSTORE DUP2 DUP5 KECCAK256 SLOAD DUP9 DUP6 MSTORE PUSH1 0x3 DUP5 MSTORE DUP3 DUP6 KECCAK256 SLOAD DUP9 DUP7 MSTORE PUSH1 0x13 SWAP1 SWAP5 MSTORE SWAP2 DUP5 KECCAK256 ADD SLOAD SWAP1 SWAP2 PUSH2 0x1690 SWAP2 PUSH2 0x51E5 JUMP JUMPDEST PUSH2 0x169A SWAP2 SWAP1 PUSH2 0x51FC JUMP JUMPDEST SWAP1 POP DUP1 PUSH1 0x0 SUB PUSH2 0x16D2 JUMPI PUSH1 0x40 MLOAD PUSH3 0x461BCD PUSH1 0xE5 SHL DUP2 MSTORE PUSH1 0x20 PUSH1 0x4 DUP3 ADD MSTORE PUSH1 0x3 PUSH1 0x24 DUP3 ADD MSTORE PUSH3 0x445453 PUSH1 0xE8 SHL PUSH1 0x44 DUP3 ADD MSTORE PUSH1 0x64 ADD PUSH2 0xD9F JUMP JUMPDEST PUSH1 0x0 DUP5 DUP2 MSTORE PUSH1 0x14 PUSH1 0x20 MSTORE PUSH1 0x40 DUP2 KECCAK256 DUP1 SLOAD DUP4 SWAP3 SWAP1 PUSH2 0x16F0 SWAP1 DUP5 SWAP1 PUSH2 0x521E JUMP JUMPDEST SWAP1 SWAP2 SSTORE POP POP PUSH1 0x0 DUP5 DUP2 MSTORE PUSH1 0x13 PUSH1 0x20 MSTORE PUSH1 0x40 SWAP1 KECCAK256 SLOAD PUSH2 0x1718 SWAP1 PUSH1 0x1 PUSH1 0x1 PUSH1 0xA0 SHL SUB AND DUP3 CALLER PUSH2 0x2565 JUMP JUMPDEST PUSH1 0x40 DUP1 MLOAD DUP6 DUP2 MSTORE PUSH1 0x20 DUP2 ADD DUP4 SWAP1 MSTORE CALLER SWAP2 DUP2 ADD SWAP2 SWAP1 SWAP2 MSTORE PUSH32 0x67DD3D116BF53E0DDDA53BB148A5FDC129854E1C507C0EEDA9190049A9BBC84F SWAP1 PUSH1 0x60 ADD JUMPDEST PUSH1 0x40 MLOAD DUP1 SWAP2 SUB SWAP1 LOG1 POP POP POP POP POP JUMP JUMPDEST PUSH1 0x40 MLOAD DUP1 PUSH1 0x40 ADD PUSH1 0x40 MSTORE DUP1 PUSH1 0x2 DUP2 MSTORE PUSH1 0x20 ADD PUSH2 0x34A9 PUSH1 0xF1 SHL DUP2 MSTORE POP PUSH2 0x1788 DUP2 CALLER PUSH2 0x22B4 JUMP JUMPDEST PUSH2 0x1791 JUMPI PUSH1 0x0 DUP1 REVERT JUMPDEST PUSH2 0xE3E DUP4 DUP4 PUSH2 0x2AC3 JUMP JUMPDEST PUSH1 0x40 MLOAD DUP1 PUSH1 0x40 ADD PUSH1 0x40 MSTORE DUP1 PUSH1 0x2 DUP2 MSTORE PUSH1 0x20 ADD PUSH2 0x36A1 PUSH1 0xF1 SHL DUP2 MSTORE POP PUSH2 0x17C0 DUP2 CALLER PUSH2 0xFB1 JUMP JUMPDEST PUSH2 0x17C9 JUMPI PUSH1 0x0 DUP1 REVERT JUMPDEST DUP2 PUSH2 0x17D4 DUP2 CALLER PUSH2 0x1A0E JUMP JUMPDEST PUSH2 0x17DD JUMPI PUSH1 0x0 DUP1 REVERT JUMPDEST PUSH2 0xE3E DUP4 PUSH2 0x2C4C JUMP JUMPDEST PUSH1 0x40 MLOAD DUP1 PUSH1 0x40 ADD PUSH1 0x40 MSTORE DUP1 PUSH1 0x2 DUP2 MSTORE PUSH1 0x20 ADD PUSH2 0x6953 PUSH1 0xF0 SHL DUP2 MSTORE POP PUSH2 0x180B DUP2 CALLER PUSH2 0x22B4 JUMP JUMPDEST PUSH2 0x1814 JUMPI PUSH1 0x0 DUP1 REVERT JUMPDEST PUSH2 0x1820 DUP6 DUP6 DUP6 DUP6 PUSH2 0x2DD1 JUMP JUMPDEST POP POP POP POP POP JUMP JUMPDEST PUSH1 0x40 MLOAD DUP1 PUSH1 0x40 ADD PUSH1 0x40 MSTORE DUP1 PUSH1 0x2 DUP2 MSTORE PUSH1 0x20 ADD PUSH2 0x695 PUSH1 0xF4 SHL DUP2 MSTORE POP PUSH2 0x184C DUP2 CALLER PUSH2 0x22B4 JUMP JUMPDEST PUSH2 0x1855 JUMPI PUSH1 0x0 DUP1 REVERT JUMPDEST PUSH2 0xE3E DUP4 DUP4 PUSH2 0x2E46 JUMP JUMPDEST PUSH1 0x40 MLOAD DUP1 PUSH1 0x40 ADD PUSH1 0x40 MSTORE DUP1 PUSH1 0x2 DUP2 MSTORE PUSH1 0x20 ADD PUSH2 0x1B51 PUSH1 0xF2 SHL DUP2 MSTORE POP PUSH2 0x1884 DUP2 CALLER PUSH2 0x22B4 JUMP JUMPDEST PUSH2 0x188D JUMPI PUSH1 0x0 DUP1 REVERT JUMPDEST DUP4 PUSH2 0x1898 DUP2 CALLER PUSH2 0x1A0E JUMP JUMPDEST PUSH2 0x18A1 JUMPI PUSH1 0x0 DUP1 REVERT JUMPDEST PUSH2 0x1820 DUP6 DUP6 DUP6 PUSH2 0x3706 JUMP JUMPDEST PUSH1 0x40 MLOAD DUP1 PUSH1 0x40 ADD PUSH1 0x40 MSTORE DUP1 PUSH1 0x3 DUP2 MSTORE PUSH1 0x20 ADD PUSH3 0x1B5055 PUSH1 0xEA SHL DUP2 MSTORE POP PUSH2 0x18D2 DUP2 CALLER PUSH2 0x22B4 JUMP JUMPDEST PUSH2 0x18DB JUMPI PUSH1 0x0 DUP1 REVERT JUMPDEST PUSH1 0x1 DUP1 SLOAD PUSH1 0xFF AND ISZERO ISZERO EQ PUSH2 0x1901 JUMPI PUSH1 0x40 MLOAD PUSH3 0x461BCD PUSH1 0xE5 SHL DUP2 MSTORE PUSH1 0x4 ADD PUSH2 0xD9F SWAP1 PUSH2 0x51C9 JUMP JUMPDEST PUSH2 0xFAD DUP3 PUSH2 0x3909 JUMP JUMPDEST PUSH1 0x1 PUSH1 0x1 PUSH1 0xA0 SHL SUB DUP2 AND PUSH1 0x0 SWAP1 DUP2 MSTORE PUSH1 0x8 PUSH1 0x20 MSTORE PUSH1 0x40 DUP2 KECCAK256 SLOAD PUSH1 0xFF AND ISZERO ISZERO PUSH1 0x1 EQ DUP1 PUSH2 0xF70 JUMPI POP POP PUSH1 0x1 PUSH1 0x1 PUSH1 0xA0 SHL SUB AND ISZERO SWAP1 JUMP JUMPDEST PUSH1 0x40 MLOAD DUP1 PUSH1 0x40 ADD PUSH1 0x40 MSTORE DUP1 PUSH1 0x3 DUP2 MSTORE PUSH1 0x20 ADD PUSH3 0x1B5055 PUSH1 0xEA SHL DUP2 MSTORE POP PUSH2 0x1965 DUP2 CALLER PUSH2 0x22B4 JUMP JUMPDEST PUSH2 0x196E JUMPI PUSH1 0x0 DUP1 REVERT JUMPDEST PUSH1 0x1 DUP1 SLOAD PUSH1 0xFF AND ISZERO ISZERO EQ PUSH2 0x1994 JUMPI PUSH1 0x40 MLOAD PUSH3 0x461BCD PUSH1 0xE5 SHL DUP2 MSTORE PUSH1 0x4 ADD PUSH2 0xD9F SWAP1 PUSH2 0x51C9 JUMP JUMPDEST PUSH2 0xFAD DUP3 PUSH2 0x3952 JUMP JUMPDEST PUSH2 0xFAD DUP3 DUP3 PUSH2 0x399B JUMP JUMPDEST PUSH1 0x0 DUP2 DUP2 MSTORE PUSH1 0x2 PUSH1 0x20 SWAP1 DUP2 MSTORE PUSH1 0x40 DUP1 DUP4 KECCAK256 SLOAD PUSH1 0x17 SWAP1 SWAP3 MSTORE DUP3 KECCAK256 SLOAD PUSH1 0x1 SWAP2 PUSH2 0x19CD SWAP2 PUSH2 0x51FC JUMP JUMPDEST PUSH2 0x19D8 SWAP1 PUSH1 0x2 PUSH2 0x51E5 JUMP JUMPDEST GT ISZERO PUSH2 0x19E6 JUMPI POP PUSH1 0x1 SWAP2 SWAP1 POP JUMP JUMPDEST POP PUSH1 0x0 SWAP2 SWAP1 POP JUMP JUMPDEST DUP4 PUSH2 0x19F9 DUP2 CALLER PUSH2 0x1A0E JUMP JUMPDEST PUSH2 0x1A02 JUMPI PUSH1 0x0 DUP1 REVERT JUMPDEST PUSH2 0x1820 DUP6 DUP6 DUP6 DUP6 PUSH2 0x3B03 JUMP JUMPDEST PUSH1 0x0 PUSH1 0x10 DUP4 PUSH1 0x40 MLOAD PUSH2 0x1A20 SWAP2 SWAP1 PUSH2 0x51AD JUMP JUMPDEST SWAP1 DUP2 MSTORE PUSH1 0x40 DUP1 MLOAD SWAP2 DUP3 SWAP1 SUB PUSH1 0x20 SWAP1 DUP2 ADD SWAP1 SWAP3 KECCAK256 PUSH1 0x1 PUSH1 0x1 PUSH1 0xA0 SHL SUB DUP6 AND PUSH1 0x0 SWAP1 DUP2 MSTORE SWAP3 MSTORE SWAP1 KECCAK256 SLOAD PUSH1 0xFF AND ISZERO ISZERO PUSH1 0x1 EQ DUP1 PUSH2 0x1A79 JUMPI POP PUSH2 0x1A79 PUSH1 0x40 MLOAD DUP1 PUSH1 0x40 ADD PUSH1 0x40 MSTORE DUP1 PUSH1 0x2 DUP2 MSTORE PUSH1 0x20 ADD PUSH2 0x36A1 PUSH1 0xF1 SHL DUP2 MSTORE POP DUP4 PUSH2 0xFB1 JUMP JUMPDEST SWAP4 SWAP3 POP POP POP JUMP JUMPDEST PUSH1 0x40 MLOAD DUP1 PUSH1 0x40 ADD PUSH1 0x40 MSTORE DUP1 PUSH1 0x2 DUP2 MSTORE PUSH1 0x20 ADD PUSH2 0x36A1 PUSH1 0xF1 SHL DUP2 MSTORE POP PUSH2 0x1AA5 DUP2 CALLER PUSH2 0x22B4 JUMP JUMPDEST PUSH2 0x1AAE JUMPI PUSH1 0x0 DUP1 REVERT JUMPDEST DUP3 PUSH2 0x1AB9 DUP2 CALLER PUSH2 0x1A0E JUMP JUMPDEST PUSH2 0x1AC2 JUMPI PUSH1 0x0 DUP1 REVERT JUMPDEST PUSH2 0x137D DUP5 DUP5 PUSH2 0x3D97 JUMP JUMPDEST DUP3 PUSH2 0x1AE6 DUP2 PUSH1 0x0 DUP1 SLOAD SWAP2 DUP2 MSTORE PUSH1 0x7 PUSH1 0x20 MSTORE PUSH1 0x40 SWAP1 KECCAK256 SLOAD GT SWAP1 JUMP JUMPDEST PUSH2 0x1B02 JUMPI PUSH1 0x40 MLOAD PUSH3 0x461BCD PUSH1 0xE5 SHL DUP2 MSTORE PUSH1 0x4 ADD PUSH2 0xD9F SWAP1 PUSH2 0x5157 JUMP JUMPDEST PUSH1 0x1 PUSH1 0x0 DUP6 DUP2 MSTORE PUSH1 0x5 PUSH1 0x20 MSTORE PUSH1 0x40 SWAP1 KECCAK256 SLOAD PUSH1 0xFF AND PUSH1 0x2 DUP2 GT ISZERO PUSH2 0x1B27 JUMPI PUSH2 0x1B27 PUSH2 0x5173 JUMP JUMPDEST EQ PUSH2 0x1B59 JUMPI PUSH1 0x40 MLOAD PUSH3 0x461BCD PUSH1 0xE5 SHL DUP2 MSTORE PUSH1 0x20 PUSH1 0x4 DUP3 ADD MSTORE PUSH1 0x2 PUSH1 0x24 DUP3 ADD MSTORE PUSH2 0x4E53 PUSH1 0xF0 SHL PUSH1 0x44 DUP3 ADD MSTORE PUSH1 0x64 ADD PUSH2 0xD9F JUMP JUMPDEST PUSH1 0x0 DUP5 DUP2 MSTORE PUSH1 0x6 PUSH1 0x20 MSTORE PUSH1 0x40 SWAP1 KECCAK256 PUSH1 0x1 ADD SLOAD DUP3 EQ PUSH2 0x1B9E JUMPI PUSH1 0x40 MLOAD PUSH3 0x461BCD PUSH1 0xE5 SHL DUP2 MSTORE PUSH1 0x20 PUSH1 0x4 DUP3 ADD MSTORE PUSH1 0x2 PUSH1 0x24 DUP3 ADD MSTORE PUSH2 0x575 PUSH1 0xF4 SHL PUSH1 0x44 DUP3 ADD MSTORE PUSH1 0x64 ADD PUSH2 0xD9F JUMP JUMPDEST DUP3 PUSH1 0x0 SUB PUSH2 0x1BD3 JUMPI PUSH1 0x40 MLOAD PUSH3 0x461BCD PUSH1 0xE5 SHL DUP2 MSTORE PUSH1 0x20 PUSH1 0x4 DUP3 ADD MSTORE PUSH1 0x2 PUSH1 0x24 DUP3 ADD MSTORE PUSH2 0x4553 PUSH1 0xF0 SHL PUSH1 0x44 DUP3 ADD MSTORE PUSH1 0x64 ADD PUSH2 0xD9F JUMP JUMPDEST PUSH1 0x0 DUP5 DUP2 MSTORE PUSH1 0x6 PUSH1 0x20 MSTORE PUSH1 0x40 SWAP1 KECCAK256 SLOAD DUP4 GT ISZERO PUSH2 0x1C16 JUMPI PUSH1 0x40 MLOAD PUSH3 0x461BCD PUSH1 0xE5 SHL DUP2 MSTORE PUSH1 0x20 PUSH1 0x4 DUP3 ADD MSTORE PUSH1 0x2 PUSH1 0x24 DUP3 ADD MSTORE PUSH2 0x4553 PUSH1 0xF0 SHL PUSH1 0x44 DUP3 ADD MSTORE PUSH1 0x64 ADD PUSH2 0xD9F JUMP JUMPDEST PUSH1 0x0 DUP5 DUP2 MSTORE PUSH1 0x6 PUSH1 0x20 MSTORE PUSH1 0x40 SWAP1 KECCAK256 PUSH1 0x3 ADD SLOAD PUSH1 0x1 PUSH1 0x1 PUSH1 0xA0 SHL SUB AND CALLER EQ DUP1 PUSH2 0x1C56 JUMPI POP PUSH1 0x0 DUP5 DUP2 MSTORE PUSH1 0x6 PUSH1 0x20 MSTORE PUSH1 0x40 SWAP1 KECCAK256 PUSH1 0x3 ADD SLOAD PUSH1 0x1 PUSH1 0x1 PUSH1 0xA0 SHL SUB AND ISZERO JUMPDEST PUSH2 0x1C87 JUMPI PUSH1 0x40 MLOAD PUSH3 0x461BCD PUSH1 0xE5 SHL DUP2 MSTORE PUSH1 0x20 PUSH1 0x4 DUP3 ADD MSTORE PUSH1 0x2 PUSH1 0x24 DUP3 ADD MSTORE PUSH2 0x29A9 PUSH1 0xF1 SHL PUSH1 0x44 DUP3 ADD MSTORE PUSH1 0x64 ADD PUSH2 0xD9F JUMP JUMPDEST PUSH1 0x0 DUP5 DUP2 MSTORE PUSH1 0x5 PUSH1 0x20 SWAP1 DUP2 MSTORE PUSH1 0x40 DUP1 DUP4 KECCAK256 DUP1 SLOAD PUSH1 0xFF NOT AND PUSH1 0x2 OR SWAP1 SSTORE PUSH1 0x6 SWAP1 SWAP2 MSTORE DUP2 KECCAK256 PUSH1 0x1 ADD SLOAD PUSH2 0x1CB8 SWAP1 DUP6 PUSH2 0x51E5 JUMP JUMPDEST SWAP1 POP PUSH1 0x0 DUP1 PUSH1 0x0 PUSH2 0x1CCD DUP5 PUSH1 0x19 PUSH2 0x3E8 PUSH2 0x3E95 JUMP JUMPDEST SWAP2 SWAP5 POP SWAP3 POP SWAP1 POP PUSH2 0x1CDE DUP2 DUP4 PUSH2 0x5128 JUMP JUMPDEST PUSH1 0x0 DUP10 DUP2 MSTORE PUSH1 0x6 PUSH1 0x20 MSTORE PUSH1 0x40 SWAP1 KECCAK256 PUSH1 0x2 ADD SLOAD SWAP1 SWAP3 POP PUSH1 0x1 PUSH1 0x1 PUSH1 0xA0 SHL SUB AND PUSH2 0x1E3D JUMPI DUP4 CALLVALUE LT ISZERO PUSH2 0x1D35 JUMPI PUSH1 0x40 MLOAD PUSH3 0x461BCD PUSH1 0xE5 SHL DUP2 MSTORE PUSH1 0x20 PUSH1 0x4 DUP3 ADD MSTORE PUSH1 0x2 PUSH1 0x24 DUP3 ADD MSTORE PUSH2 0x4945 PUSH1 0xF0 SHL PUSH1 0x44 DUP3 ADD MSTORE PUSH1 0x64 ADD PUSH2 0xD9F JUMP JUMPDEST PUSH1 0x40 MLOAD PUSH1 0x0 SWAP1 PUSH20 0x49A71890AEA5A751E30E740C504F2E9683F347BC SWAP1 DUP6 SWAP1 DUP4 DUP2 DUP2 DUP2 DUP6 DUP8 GAS CALL SWAP3 POP POP POP RETURNDATASIZE DUP1 PUSH1 0x0 DUP2 EQ PUSH2 0x1D8B JUMPI PUSH1 0x40 MLOAD SWAP2 POP PUSH1 0x1F NOT PUSH1 0x3F RETURNDATASIZE ADD AND DUP3 ADD PUSH1 0x40 MSTORE RETURNDATASIZE DUP3 MSTORE RETURNDATASIZE PUSH1 0x0 PUSH1 0x20 DUP5 ADD RETURNDATACOPY PUSH2 0x1D90 JUMP JUMPDEST PUSH1 0x60 SWAP2 POP JUMPDEST POP POP PUSH1 0x0 DUP11 DUP2 MSTORE PUSH1 0x3 PUSH1 0x20 MSTORE PUSH1 0x40 DUP1 DUP3 KECCAK256 PUSH1 0x1 ADD SLOAD SWAP1 MLOAD SWAP3 SWAP4 POP SWAP1 SWAP2 PUSH1 0x1 PUSH1 0x1 PUSH1 0xA0 SHL SUB SWAP1 SWAP2 AND SWAP1 DUP6 SWAP1 DUP4 DUP2 DUP2 DUP2 DUP6 DUP8 GAS CALL SWAP3 POP POP POP RETURNDATASIZE DUP1 PUSH1 0x0 DUP2 EQ PUSH2 0x1DF2 JUMPI PUSH1 0x40 MLOAD SWAP2 POP PUSH1 0x1F NOT PUSH1 0x3F RETURNDATASIZE ADD AND DUP3 ADD PUSH1 0x40 MSTORE RETURNDATASIZE DUP3 MSTORE RETURNDATASIZE PUSH1 0x0 PUSH1 0x20 DUP5 ADD RETURNDATACOPY PUSH2 0x1DF7 JUMP JUMPDEST PUSH1 0x60 SWAP2 POP JUMPDEST POP POP SWAP1 POP DUP1 DUP1 ISZERO PUSH2 0x1E05 JUMPI POP DUP2 JUMPDEST PUSH2 0x1E36 JUMPI PUSH1 0x40 MLOAD PUSH3 0x461BCD PUSH1 0xE5 SHL DUP2 MSTORE PUSH1 0x20 PUSH1 0x4 DUP3 ADD MSTORE PUSH1 0x2 PUSH1 0x24 DUP3 ADD MSTORE PUSH2 0x2A23 PUSH1 0xF1 SHL PUSH1 0x44 DUP3 ADD MSTORE PUSH1 0x64 ADD PUSH2 0xD9F JUMP JUMPDEST POP POP PUSH2 0x1FC2 JUMP JUMPDEST PUSH1 0x0 DUP9 DUP2 MSTORE PUSH1 0x6 PUSH1 0x20 MSTORE PUSH1 0x40 SWAP1 DUP2 SWAP1 KECCAK256 PUSH1 0x2 ADD SLOAD SWAP1 MLOAD PUSH4 0x6EB1769F PUSH1 0xE1 SHL DUP2 MSTORE CALLER PUSH1 0x4 DUP3 ADD MSTORE ADDRESS PUSH1 0x24 DUP3 ADD MSTORE PUSH1 0x1 PUSH1 0x1 PUSH1 0xA0 SHL SUB SWAP1 SWAP2 AND SWAP1 DUP6 SWAP1 DUP3 SWAP1 PUSH4 0xDD62ED3E SWAP1 PUSH1 0x44 ADD PUSH1 0x20 PUSH1 0x40 MLOAD DUP1 DUP4 SUB DUP2 DUP7 GAS STATICCALL ISZERO DUP1 ISZERO PUSH2 0x1E9F JUMPI RETURNDATASIZE PUSH1 0x0 DUP1 RETURNDATACOPY RETURNDATASIZE PUSH1 0x0 REVERT JUMPDEST POP POP POP POP PUSH1 0x40 MLOAD RETURNDATASIZE PUSH1 0x1F NOT PUSH1 0x1F DUP3 ADD AND DUP3 ADD DUP1 PUSH1 0x40 MSTORE POP DUP2 ADD SWAP1 PUSH2 0x1EC3 SWAP2 SWAP1 PUSH2 0x5231 JUMP JUMPDEST LT ISZERO PUSH2 0x1EE1 JUMPI PUSH1 0x40 MLOAD PUSH3 0x461BCD PUSH1 0xE5 SHL DUP2 MSTORE PUSH1 0x4 ADD PUSH2 0xD9F SWAP1 PUSH2 0x524A JUMP JUMPDEST PUSH1 0x40 MLOAD PUSH4 0x23B872DD PUSH1 0xE0 SHL DUP2 MSTORE CALLER PUSH1 0x4 DUP3 ADD MSTORE PUSH20 0x49A71890AEA5A751E30E740C504F2E9683F347BC PUSH1 0x24 DUP3 ADD MSTORE PUSH1 0x44 DUP2 ADD DUP6 SWAP1 MSTORE PUSH1 0x1 PUSH1 0x1 PUSH1 0xA0 SHL SUB DUP3 AND SWAP1 PUSH4 0x23B872DD SWAP1 PUSH1 0x64 ADD PUSH1 0x20 PUSH1 0x40 MLOAD DUP1 DUP4 SUB DUP2 PUSH1 0x0 DUP8 GAS CALL ISZERO DUP1 ISZERO PUSH2 0x1F48 JUMPI RETURNDATASIZE PUSH1 0x0 DUP1 RETURNDATACOPY RETURNDATASIZE PUSH1 0x0 REVERT JUMPDEST POP POP POP POP PUSH1 0x40 MLOAD RETURNDATASIZE PUSH1 0x1F NOT PUSH1 0x1F DUP3 ADD AND DUP3 ADD DUP1 PUSH1 0x40 MSTORE POP DUP2 ADD SWAP1 PUSH2 0x1F6C SWAP2 SWAP1 PUSH2 0x5266 JUMP JUMPDEST PUSH2 0x1F88 JUMPI PUSH1 0x40 MLOAD PUSH3 0x461BCD PUSH1 0xE5 SHL DUP2 MSTORE PUSH1 0x4 ADD PUSH2 0xD9F SWAP1 PUSH2 0x5283 JUMP JUMPDEST PUSH1 0x0 DUP10 DUP2 MSTORE PUSH1 0x3 PUSH1 0x20 SWAP1 DUP2 MSTORE PUSH1 0x40 DUP1 DUP4 KECCAK256 PUSH1 0x1 ADD SLOAD PUSH1 0x6 SWAP1 SWAP3 MSTORE SWAP1 SWAP2 KECCAK256 PUSH1 0x2 ADD SLOAD PUSH2 0x1FC0 SWAP2 PUSH1 0x1 PUSH1 0x1 PUSH1 0xA0 SHL SUB SWAP1 DUP2 AND SWAP2 AND DUP6 PUSH2 0x3F09 JUMP JUMPDEST POP JUMPDEST PUSH2 0x1FCD DUP9 DUP9 CALLER PUSH2 0x3FB8 JUMP JUMPDEST PUSH1 0x0 DUP9 DUP2 MSTORE PUSH1 0x3 PUSH1 0x20 MSTORE PUSH1 0x40 SWAP1 KECCAK256 PUSH1 0x1 ADD SLOAD ADDRESS PUSH1 0x1 PUSH1 0x1 PUSH1 0xA0 SHL SUB SWAP1 SWAP2 AND SUB PUSH2 0x2015 JUMPI PUSH1 0x0 DUP1 SLOAD DUP2 MSTORE PUSH1 0x2 PUSH1 0x20 MSTORE PUSH1 0x40 DUP2 KECCAK256 DUP1 SLOAD DUP10 SWAP3 SWAP1 PUSH2 0x200F SWAP1 DUP5 SWAP1 PUSH2 0x5128 JUMP JUMPDEST SWAP1 SWAP2 SSTORE POP POP JUMPDEST PUSH1 0x40 DUP1 MLOAD PUSH1 0x80 DUP2 ADD DUP3 MSTORE DUP9 DUP2 MSTORE PUSH1 0x0 DUP11 DUP2 MSTORE PUSH1 0x6 PUSH1 0x20 DUP2 DUP2 MSTORE DUP5 DUP4 KECCAK256 PUSH1 0x1 DUP2 ADD SLOAD DUP3 DUP7 ADD MSTORE PUSH1 0x2 DUP2 DUP2 ADD SLOAD PUSH1 0x1 PUSH1 0x1 PUSH1 0xA0 SHL SUB SWAP1 DUP2 AND DUP8 DUP10 ADD MSTORE SWAP5 DUP16 SWAP1 MSTORE SWAP3 SWAP1 SWAP2 MSTORE PUSH1 0x3 ADD SLOAD SWAP1 SWAP2 AND PUSH1 0x60 DUP4 ADD MSTORE SWAP2 MLOAD PUSH32 0xD8CD09EA93B4076AB867588C0D1A52B62C5B605B7A5F1C0189781245631A8353 SWAP3 PUSH2 0x2095 SWAP3 SWAP1 SWAP2 DUP13 SWAP2 SWAP1 PUSH2 0x52BD JUMP JUMPDEST PUSH1 0x40 MLOAD DUP1 SWAP2 SUB SWAP1 LOG1 PUSH1 0x0 DUP9 DUP2 MSTORE PUSH1 0x6 PUSH1 0x20 MSTORE PUSH1 0x40 SWAP1 KECCAK256 SLOAD DUP8 EQ PUSH2 0x2127 JUMPI PUSH1 0x0 DUP9 DUP2 MSTORE PUSH1 0x3 PUSH1 0x20 SWAP1 DUP2 MSTORE PUSH1 0x40 DUP1 DUP4 KECCAK256 PUSH1 0x1 ADD SLOAD PUSH1 0x1 PUSH1 0x1 PUSH1 0xA0 SHL SUB AND DUP4 MSTORE PUSH1 0x4 DUP3 MSTORE DUP1 DUP4 KECCAK256 SLOAD DUP12 DUP5 MSTORE PUSH1 0x6 SWAP1 SWAP3 MSTORE SWAP1 SWAP2 KECCAK256 SLOAD PUSH2 0x2127 SWAP2 SWAP1 PUSH2 0x20F6 SWAP1 DUP11 SWAP1 PUSH2 0x521E JUMP JUMPDEST PUSH1 0x0 DUP12 DUP2 MSTORE PUSH1 0x6 PUSH1 0x20 MSTORE PUSH1 0x40 SWAP1 KECCAK256 PUSH1 0x2 DUP2 ADD SLOAD PUSH1 0x1 DUP3 ADD SLOAD PUSH1 0x3 SWAP1 SWAP3 ADD SLOAD PUSH1 0x1 PUSH1 0x1 PUSH1 0xA0 SHL SUB SWAP2 DUP3 AND SWAP3 SWAP2 AND PUSH2 0x4186 JUMP JUMPDEST POP POP POP POP POP POP POP POP JUMP JUMPDEST PUSH1 0x0 DUP4 DUP2 MSTORE PUSH1 0x3 PUSH1 0x20 MSTORE PUSH1 0x40 SWAP1 KECCAK256 PUSH1 0x1 ADD SLOAD DUP4 SWAP1 PUSH1 0x1 PUSH1 0x1 PUSH1 0xA0 SHL SUB AND CALLER EQ PUSH2 0x216C JUMPI PUSH1 0x40 MLOAD PUSH3 0x461BCD PUSH1 0xE5 SHL DUP2 MSTORE PUSH1 0x4 ADD PUSH2 0xD9F SWAP1 PUSH2 0x513B JUMP JUMPDEST DUP4 PUSH2 0x2186 DUP2 PUSH1 0x0 DUP1 SLOAD SWAP2 DUP2 MSTORE PUSH1 0x7 PUSH1 0x20 MSTORE PUSH1 0x40 SWAP1 KECCAK256 SLOAD GT SWAP1 JUMP JUMPDEST PUSH2 0x21A2 JUMPI PUSH1 0x40 MLOAD PUSH3 0x461BCD PUSH1 0xE5 SHL DUP2 MSTORE PUSH1 0x4 ADD PUSH2 0xD9F SWAP1 PUSH2 0x5157 JUMP JUMPDEST PUSH2 0x1820 DUP6 DUP6 DUP6 PUSH2 0x3FB8 JUMP JUMPDEST PUSH1 0x0 PUSH1 0xD DUP3 PUSH1 0x40 MLOAD PUSH2 0x21BF SWAP2 SWAP1 PUSH2 0x51AD JUMP JUMPDEST SWAP1 DUP2 MSTORE PUSH1 0x40 MLOAD SWAP1 DUP2 SWAP1 SUB PUSH1 0x20 ADD SWAP1 KECCAK256 SLOAD PUSH1 0xFF AND ISZERO ISZERO PUSH1 0x1 EQ SWAP3 SWAP2 POP POP JUMP JUMPDEST DUP3 PUSH2 0x21E8 DUP2 CALLER PUSH2 0xFB1 JUMP JUMPDEST PUSH2 0x21F1 JUMPI PUSH1 0x0 DUP1 REVERT JUMPDEST DUP2 PUSH1 0x2 DUP2 GT ISZERO PUSH2 0x2203 JUMPI PUSH2 0x2203 PUSH2 0x5173 JUMP JUMPDEST PUSH1 0x11 DUP6 PUSH1 0x40 MLOAD PUSH2 0x2213 SWAP2 SWAP1 PUSH2 0x51AD JUMP JUMPDEST SWAP1 DUP2 MSTORE PUSH1 0x40 DUP1 MLOAD PUSH1 0x20 SWAP3 DUP2 SWAP1 SUB DUP4 ADD SWAP1 KECCAK256 PUSH1 0x1 PUSH1 0x1 PUSH1 0xA0 SHL SUB DUP8 AND PUSH1 0x0 SWAP1 DUP2 MSTORE SWAP3 MSTORE SWAP1 KECCAK256 SLOAD PUSH1 0xFF AND PUSH1 0x2 DUP2 GT ISZERO PUSH2 0x224C JUMPI PUSH2 0x224C PUSH2 0x5173 JUMP JUMPDEST SUB PUSH2 0x227F JUMPI PUSH1 0x40 MLOAD PUSH3 0x461BCD PUSH1 0xE5 SHL DUP2 MSTORE PUSH1 0x20 PUSH1 0x4 DUP3 ADD MSTORE PUSH1 0x3 PUSH1 0x24 DUP3 ADD MSTORE PUSH3 0x41485 PUSH1 0xEC SHL PUSH1 0x44 DUP3 ADD MSTORE PUSH1 0x64 ADD PUSH2 0xD9F JUMP JUMPDEST PUSH2 0x137D DUP5 DUP5 DUP5 PUSH2 0x4313 JUMP JUMPDEST PUSH1 0x1 SLOAD PUSH1 0x0 SWAP1 PUSH1 0xFF AND ISZERO DUP1 ISZERO PUSH2 0x22AF JUMPI POP PUSH2 0x12C PUSH1 0xA SLOAD TIMESTAMP PUSH2 0x22AC SWAP2 SWAP1 PUSH2 0x521E JUMP JUMPDEST LT ISZERO JUMPDEST SWAP1 POP SWAP1 JUMP JUMPDEST PUSH1 0x0 PUSH1 0x1 PUSH1 0x11 DUP5 PUSH1 0x40 MLOAD PUSH2 0x22C8 SWAP2 SWAP1 PUSH2 0x51AD JUMP JUMPDEST SWAP1 DUP2 MSTORE PUSH1 0x40 DUP1 MLOAD PUSH1 0x20 SWAP3 DUP2 SWAP1 SUB DUP4 ADD SWAP1 KECCAK256 PUSH1 0x1 PUSH1 0x1 PUSH1 0xA0 SHL SUB DUP7 AND PUSH1 0x0 SWAP1 DUP2 MSTORE SWAP3 MSTORE SWAP1 KECCAK256 SLOAD PUSH1 0xFF AND PUSH1 0x2 DUP2 GT ISZERO PUSH2 0x2301 JUMPI PUSH2 0x2301 PUSH2 0x5173 JUMP JUMPDEST LT ISZERO SWAP4 SWAP3 POP POP POP JUMP JUMPDEST DUP4 PUSH2 0x2315 DUP2 CALLER PUSH2 0x1A0E JUMP JUMPDEST PUSH2 0x231E JUMPI PUSH1 0x0 DUP1 REVERT JUMPDEST PUSH2 0x1820 DUP6 DUP6 DUP6 DUP6 PUSH2 0x43CD JUMP JUMPDEST PUSH1 0x1 PUSH1 0x1 PUSH1 0xA0 SHL SUB DUP2 AND PUSH1 0x0 SWAP1 DUP2 MSTORE PUSH1 0x4 PUSH1 0x20 MSTORE PUSH1 0x40 DUP2 KECCAK256 SLOAD PUSH2 0xF70 SWAP1 PUSH1 0x0 DUP1 SLOAD SWAP2 DUP2 MSTORE PUSH1 0x7 PUSH1 0x20 MSTORE PUSH1 0x40 SWAP1 KECCAK256 SLOAD GT SWAP1 JUMP JUMPDEST PUSH1 0x0 DUP6 DUP2 MSTORE PUSH1 0x3 PUSH1 0x20 MSTORE PUSH1 0x40 SWAP1 KECCAK256 PUSH1 0x1 ADD SLOAD DUP6 SWAP1 PUSH1 0x1 PUSH1 0x1 PUSH1 0xA0 SHL SUB AND CALLER EQ PUSH2 0x2397 JUMPI PUSH1 0x40 MLOAD PUSH3 0x461BCD PUSH1 0xE5 SHL DUP2 MSTORE PUSH1 0x4 ADD PUSH2 0xD9F SWAP1 PUSH2 0x513B JUMP JUMPDEST DUP6 PUSH2 0x23B1 DUP2 PUSH1 0x0 DUP1 SLOAD SWAP2 DUP2 MSTORE PUSH1 0x7 PUSH1 0x20 MSTORE PUSH1 0x40 SWAP1 KECCAK256 SLOAD GT SWAP1 JUMP JUMPDEST PUSH2 0x23CD JUMPI PUSH1 0x40 MLOAD PUSH3 0x461BCD PUSH1 0xE5 SHL DUP2 MSTORE PUSH1 0x4 ADD PUSH2 0xD9F SWAP1 PUSH2 0x5157 JUMP JUMPDEST PUSH2 0x23DA DUP8 DUP8 DUP8 DUP8 DUP8 PUSH2 0x4186 JUMP JUMPDEST POP POP POP POP POP POP POP JUMP JUMPDEST PUSH1 0x0 DUP3 DUP2 MSTORE PUSH1 0x3 PUSH1 0x20 MSTORE PUSH1 0x40 DUP2 KECCAK256 PUSH1 0x2 ADD SLOAD DUP3 LT DUP1 ISZERO SWAP1 PUSH2 0x1A79 JUMPI POP POP PUSH1 0x0 SWAP2 DUP3 MSTORE PUSH1 0x7 PUSH1 0x20 MSTORE PUSH1 0x40 SWAP1 SWAP2 KECCAK256 SLOAD GT SWAP1 JUMP JUMPDEST PUSH1 0x1 PUSH1 0x1 PUSH1 0xA0 SHL SUB DUP4 AND PUSH1 0x0 SWAP1 DUP2 MSTORE PUSH1 0x9 PUSH1 0x20 MSTORE PUSH1 0x40 DUP2 KECCAK256 DUP1 SLOAD DUP5 SWAP3 SWAP1 PUSH2 0x243C SWAP1 DUP5 SWAP1 PUSH2 0x5128 JUMP JUMPDEST SWAP1 SWAP2 SSTORE POP POP PUSH1 0x1 PUSH1 0x1 PUSH1 0xA0 SHL SUB DUP4 AND PUSH1 0x0 SWAP1 DUP2 MSTORE PUSH1 0xB PUSH1 0x20 MSTORE PUSH1 0x40 DUP2 KECCAK256 DUP1 SLOAD DUP5 SWAP3 SWAP1 PUSH2 0xCD2 SWAP1 DUP5 SWAP1 PUSH2 0x5128 JUMP JUMPDEST PUSH2 0x2471 PUSH2 0x456F JUMP JUMPDEST PUSH1 0x40 DUP1 MLOAD PUSH1 0x60 DUP1 DUP3 MSTORE PUSH1 0x2 SWAP1 DUP3 ADD MSTORE PUSH2 0x6C45 PUSH1 0xF0 SHL PUSH1 0x80 DUP3 ADD MSTORE PUSH1 0xA0 PUSH1 0x20 DUP3 ADD DUP2 SWAP1 MSTORE PUSH1 0x0 SWAP1 DUP3 ADD MSTORE CALLER DUP2 DUP4 ADD MSTORE SWAP1 MLOAD PUSH1 0x0 DUP1 MLOAD PUSH1 0x20 PUSH2 0x5CBD DUP4 CODECOPY DUP2 MLOAD SWAP2 MSTORE SWAP2 DUP2 SWAP1 SUB PUSH1 0xC0 ADD SWAP1 LOG1 JUMP JUMPDEST DUP1 PUSH2 0x24D5 DUP2 PUSH1 0x0 DUP1 SLOAD SWAP2 DUP2 MSTORE PUSH1 0x7 PUSH1 0x20 MSTORE PUSH1 0x40 SWAP1 KECCAK256 SLOAD GT SWAP1 JUMP JUMPDEST PUSH2 0x24F1 JUMPI PUSH1 0x40 MLOAD PUSH3 0x461BCD PUSH1 0xE5 SHL DUP2 MSTORE PUSH1 0x4 ADD PUSH2 0xD9F SWAP1 PUSH2 0x5157 JUMP JUMPDEST PUSH1 0x0 DUP3 DUP2 MSTORE PUSH1 0x5 PUSH1 0x20 SWAP1 DUP2 MSTORE PUSH1 0x40 DUP1 DUP4 KECCAK256 DUP1 SLOAD PUSH1 0xFF NOT AND SWAP1 SSTORE DUP1 MLOAD PUSH1 0x80 DUP2 ADD DUP3 MSTORE DUP4 DUP2 MSTORE SWAP2 DUP3 ADD DUP4 SWAP1 MSTORE DUP2 DUP2 ADD DUP4 SWAP1 MSTORE PUSH1 0x60 DUP3 ADD DUP4 SWAP1 MSTORE MLOAD PUSH32 0xD8CD09EA93B4076AB867588C0D1A52B62C5B605B7A5F1C0189781245631A8353 SWAP3 PUSH2 0x2559 SWAP3 SWAP1 SWAP2 DUP7 SWAP2 SWAP1 PUSH2 0x52BD JUMP JUMPDEST PUSH1 0x40 MLOAD DUP1 SWAP2 SUB SWAP1 LOG1 POP POP JUMP JUMPDEST PUSH1 0x1 PUSH1 0x1 PUSH1 0xA0 SHL SUB DUP4 AND PUSH1 0x0 SWAP1 DUP2 MSTORE PUSH1 0x9 PUSH1 0x20 MSTORE PUSH1 0x40 SWAP1 KECCAK256 SLOAD DUP3 GT ISZERO PUSH2 0x259D JUMPI PUSH1 0x40 MLOAD PUSH3 0x461BCD PUSH1 0xE5 SHL DUP2 MSTORE PUSH1 0x4 ADD PUSH2 0xD9F SWAP1 PUSH2 0x524A JUMP JUMPDEST PUSH1 0x1 PUSH1 0x1 PUSH1 0xA0 SHL SUB DUP4 AND PUSH2 0x25BA JUMPI PUSH2 0x25B5 DUP3 DUP3 PUSH2 0x45A5 JUMP JUMPDEST PUSH2 0x27F5 JUMP JUMPDEST PUSH1 0x40 MLOAD PUSH4 0x95EA7B3 PUSH1 0xE0 SHL DUP2 MSTORE PUSH1 0x1 PUSH1 0x1 PUSH1 0xA0 SHL SUB DUP3 DUP2 AND PUSH1 0x4 DUP4 ADD MSTORE PUSH1 0x24 DUP3 ADD DUP5 SWAP1 MSTORE DUP5 SWAP2 SWAP1 DUP3 AND SWAP1 PUSH4 0x95EA7B3 SWAP1 PUSH1 0x44 ADD PUSH1 0x20 PUSH1 0x40 MLOAD DUP1 DUP4 SUB DUP2 PUSH1 0x0 DUP8 GAS CALL ISZERO DUP1 ISZERO PUSH2 0x260C JUMPI RETURNDATASIZE PUSH1 0x0 DUP1 RETURNDATACOPY RETURNDATASIZE PUSH1 0x0 REVERT JUMPDEST POP POP POP POP PUSH1 0x40 MLOAD RETURNDATASIZE PUSH1 0x1F NOT PUSH1 0x1F DUP3 ADD AND DUP3 ADD DUP1 PUSH1 0x40 MSTORE POP DUP2 ADD SWAP1 PUSH2 0x2630 SWAP2 SWAP1 PUSH2 0x5266 JUMP JUMPDEST PUSH2 0x2661 JUMPI PUSH1 0x40 MLOAD PUSH3 0x461BCD PUSH1 0xE5 SHL DUP2 MSTORE PUSH1 0x20 PUSH1 0x4 DUP3 ADD MSTORE PUSH1 0x2 PUSH1 0x24 DUP3 ADD MSTORE PUSH2 0x4E41 PUSH1 0xF0 SHL PUSH1 0x44 DUP3 ADD MSTORE PUSH1 0x64 ADD PUSH2 0xD9F JUMP JUMPDEST PUSH1 0x1 PUSH1 0x1 PUSH1 0xA0 SHL SUB DUP3 AND EXTCODESIZE ISZERO PUSH2 0x2764 JUMPI PUSH1 0x40 MLOAD PUSH4 0x4B91AD0F PUSH1 0xE1 SHL DUP2 MSTORE PUSH1 0x1 PUSH1 0x1 PUSH1 0xA0 SHL SUB DUP6 DUP2 AND PUSH1 0x4 DUP4 ADD MSTORE PUSH1 0x24 DUP3 ADD DUP6 SWAP1 MSTORE DUP4 AND SWAP1 PUSH4 0x97235A1E SWAP1 PUSH1 0x44 ADD PUSH1 0x0 PUSH1 0x40 MLOAD DUP1 DUP4 SUB DUP2 PUSH1 0x0 DUP8 DUP1 EXTCODESIZE ISZERO DUP1 ISZERO PUSH2 0x26BB JUMPI PUSH1 0x0 DUP1 REVERT JUMPDEST POP GAS CALL SWAP3 POP POP POP DUP1 ISZERO PUSH2 0x26CC JUMPI POP PUSH1 0x1 JUMPDEST PUSH2 0x275F JUMPI PUSH1 0x40 MLOAD PUSH4 0xA9059CBB PUSH1 0xE0 SHL DUP2 MSTORE PUSH1 0x1 PUSH1 0x1 PUSH1 0xA0 SHL SUB DUP4 DUP2 AND PUSH1 0x4 DUP4 ADD MSTORE PUSH1 0x24 DUP3 ADD DUP6 SWAP1 MSTORE DUP3 AND SWAP1 PUSH4 0xA9059CBB SWAP1 PUSH1 0x44 ADD PUSH1 0x20 PUSH1 0x40 MLOAD DUP1 DUP4 SUB DUP2 PUSH1 0x0 DUP8 GAS CALL ISZERO DUP1 ISZERO PUSH2 0x271F JUMPI RETURNDATASIZE PUSH1 0x0 DUP1 RETURNDATACOPY RETURNDATASIZE PUSH1 0x0 REVERT JUMPDEST POP POP POP POP PUSH1 0x40 MLOAD RETURNDATASIZE PUSH1 0x1F NOT PUSH1 0x1F DUP3 ADD AND DUP3 ADD DUP1 PUSH1 0x40 MSTORE POP DUP2 ADD SWAP1 PUSH2 0x2743 SWAP2 SWAP1 PUSH2 0x5266 JUMP JUMPDEST PUSH2 0x275F JUMPI PUSH1 0x40 MLOAD PUSH3 0x461BCD PUSH1 0xE5 SHL DUP2 MSTORE PUSH1 0x4 ADD PUSH2 0xD9F SWAP1 PUSH2 0x5283 JUMP JUMPDEST PUSH2 0x27F3 JUMP JUMPDEST PUSH1 0x40 MLOAD PUSH4 0xA9059CBB PUSH1 0xE0 SHL DUP2 MSTORE PUSH1 0x1 PUSH1 0x1 PUSH1 0xA0 SHL SUB DUP4 DUP2 AND PUSH1 0x4 DUP4 ADD MSTORE PUSH1 0x24 DUP3 ADD DUP6 SWAP1 MSTORE DUP3 AND SWAP1 PUSH4 0xA9059CBB SWAP1 PUSH1 0x44 ADD PUSH1 0x20 PUSH1 0x40 MLOAD DUP1 DUP4 SUB DUP2 PUSH1 0x0 DUP8 GAS CALL ISZERO DUP1 ISZERO PUSH2 0x27B3 JUMPI RETURNDATASIZE PUSH1 0x0 DUP1 RETURNDATACOPY RETURNDATASIZE PUSH1 0x0 REVERT JUMPDEST POP POP POP POP PUSH1 0x40 MLOAD RETURNDATASIZE PUSH1 0x1F NOT PUSH1 0x1F DUP3 ADD AND DUP3 ADD DUP1 PUSH1 0x40 MSTORE POP DUP2 ADD SWAP1 PUSH2 0x27D7 SWAP2 SWAP1 PUSH2 0x5266 JUMP JUMPDEST PUSH2 0x27F3 JUMPI PUSH1 0x40 MLOAD PUSH3 0x461BCD PUSH1 0xE5 SHL DUP2 MSTORE PUSH1 0x4 ADD PUSH2 0xD9F SWAP1 PUSH2 0x5283 JUMP JUMPDEST POP JUMPDEST PUSH1 0x1 SLOAD PUSH1 0xFF AND ISZERO PUSH2 0xE3E JUMPI PUSH2 0xE3E DUP4 DUP4 PUSH2 0x462D JUMP JUMPDEST PUSH1 0x0 DUP2 DUP2 MSTORE PUSH1 0x12 PUSH1 0x20 MSTORE PUSH1 0x40 SWAP1 KECCAK256 SLOAD DUP2 SWAP1 PUSH1 0xFF AND PUSH2 0x2827 JUMPI PUSH1 0x0 DUP1 REVERT JUMPDEST PUSH1 0x1 DUP1 SLOAD PUSH1 0xFF AND ISZERO ISZERO EQ PUSH2 0x284D JUMPI PUSH1 0x40 MLOAD PUSH3 0x461BCD PUSH1 0xE5 SHL DUP2 MSTORE PUSH1 0x4 ADD PUSH2 0xD9F SWAP1 PUSH2 0x51C9 JUMP JUMPDEST PUSH1 0x0 DUP3 DUP2 MSTORE PUSH1 0x12 PUSH1 0x20 SWAP1 DUP2 MSTORE PUSH1 0x40 DUP1 DUP4 KECCAK256 DUP1 SLOAD PUSH1 0xFF NOT AND SWAP1 SSTORE PUSH1 0x14 DUP3 MSTORE DUP1 DUP4 KECCAK256 SLOAD DUP2 MLOAD PUSH4 0x36B0B4B7 PUSH1 0xE1 SHL DUP2 MSTORE PUSH1 0xF PUSH1 0x4 DUP3 ADD MSTORE DUP3 MLOAD SWAP1 DUP2 SWAP1 SUB PUSH1 0x24 ADD SWAP1 KECCAK256 DUP7 DUP6 MSTORE PUSH1 0x13 DUP5 MSTORE DUP3 DUP6 KECCAK256 SLOAD PUSH1 0x1 PUSH1 0x1 PUSH1 0xA0 SHL SUB AND DUP6 MSTORE SWAP1 SWAP3 MSTORE DUP3 KECCAK256 DUP1 SLOAD SWAP2 SWAP3 SWAP1 SWAP2 PUSH2 0x28B8 SWAP1 DUP5 SWAP1 PUSH2 0x5128 JUMP JUMPDEST SWAP1 SWAP2 SSTORE POP POP PUSH1 0x40 DUP1 MLOAD PUSH1 0x20 DUP2 ADD DUP5 SWAP1 MSTORE PUSH1 0x0 DUP1 MLOAD PUSH1 0x20 PUSH2 0x5CBD DUP4 CODECOPY DUP2 MLOAD SWAP2 MSTORE SWAP2 ADD PUSH1 0x40 DUP1 MLOAD PUSH1 0x1F NOT DUP2 DUP5 SUB ADD DUP2 MSTORE SWAP1 DUP3 SWAP1 MSTORE PUSH2 0x2559 SWAP2 CALLER SWAP1 PUSH2 0x533A JUMP JUMPDEST PUSH1 0x1 DUP1 SLOAD PUSH1 0xFF AND ISZERO ISZERO EQ PUSH2 0x291B JUMPI PUSH1 0x40 MLOAD PUSH3 0x461BCD PUSH1 0xE5 SHL DUP2 MSTORE PUSH1 0x4 ADD PUSH2 0xD9F SWAP1 PUSH2 0x51C9 JUMP JUMPDEST PUSH2 0x2924 DUP3 PUSH2 0x21AD JUMP JUMPDEST ISZERO PUSH2 0x2956 JUMPI PUSH1 0x40 MLOAD PUSH3 0x461BCD PUSH1 0xE5 SHL DUP2 MSTORE PUSH1 0x20 PUSH1 0x4 DUP3 ADD MSTORE PUSH1 0x2 PUSH1 0x24 DUP3 ADD MSTORE PUSH2 0x4145 PUSH1 0xF0 SHL PUSH1 0x44 DUP3 ADD MSTORE PUSH1 0x64 ADD PUSH2 0xD9F JUMP JUMPDEST PUSH1 0x1 PUSH1 0x10 DUP4 PUSH1 0x40 MLOAD PUSH2 0x2968 SWAP2 SWAP1 PUSH2 0x51AD JUMP JUMPDEST SWAP1 DUP2 MSTORE PUSH1 0x40 DUP1 MLOAD PUSH1 0x20 SWAP3 DUP2 SWAP1 SUB DUP4 ADD DUP2 KECCAK256 PUSH1 0x1 PUSH1 0x1 PUSH1 0xA0 SHL SUB DUP7 AND PUSH1 0x0 SWAP1 DUP2 MSTORE SWAP4 MSTORE SWAP2 KECCAK256 DUP1 SLOAD PUSH1 0xFF NOT AND SWAP3 ISZERO ISZERO SWAP3 SWAP1 SWAP3 OR SWAP1 SWAP2 SSTORE PUSH1 0x1 SWAP1 PUSH1 0xD SWAP1 PUSH2 0x29AD SWAP1 DUP6 SWAP1 PUSH2 0x51AD JUMP JUMPDEST SWAP1 DUP2 MSTORE PUSH1 0x40 MLOAD PUSH1 0x20 SWAP2 DUP2 SWAP1 SUB DUP3 ADD DUP2 KECCAK256 DUP1 SLOAD PUSH1 0xFF NOT AND SWAP4 ISZERO ISZERO SWAP4 SWAP1 SWAP4 OR SWAP1 SWAP3 SSTORE PUSH1 0x0 DUP1 MLOAD PUSH1 0x20 PUSH2 0x5CBD DUP4 CODECOPY DUP2 MLOAD SWAP2 MSTORE SWAP2 PUSH2 0x29EB SWAP2 DUP6 SWAP2 DUP6 SWAP2 ADD PUSH2 0x537D JUMP JUMPDEST PUSH1 0x40 DUP1 MLOAD PUSH1 0x1F NOT DUP2 DUP5 SUB ADD DUP2 MSTORE SWAP1 DUP3 SWAP1 MSTORE PUSH2 0x2559 SWAP2 CALLER SWAP1 PUSH2 0x53A7 JUMP JUMPDEST PUSH1 0x1 DUP1 SLOAD PUSH1 0xFF AND ISZERO ISZERO EQ PUSH2 0x2A2D JUMPI PUSH1 0x40 MLOAD PUSH3 0x461BCD PUSH1 0xE5 SHL DUP2 MSTORE PUSH1 0x4 ADD PUSH2 0xD9F SWAP1 PUSH2 0x51C9 JUMP JUMPDEST PUSH2 0x2A37 DUP3 DUP3 PUSH2 0x1A0E JUMP JUMPDEST PUSH2 0x2A40 JUMPI PUSH1 0x0 DUP1 REVERT JUMPDEST PUSH1 0x0 PUSH1 0x10 DUP4 PUSH1 0x40 MLOAD PUSH2 0x2A52 SWAP2 SWAP1 PUSH2 0x51AD JUMP JUMPDEST SWAP1 DUP2 MSTORE PUSH1 0x40 DUP1 MLOAD PUSH1 0x20 SWAP3 DUP2 SWAP1 SUB DUP4 ADD DUP2 KECCAK256 PUSH1 0x1 PUSH1 0x1 PUSH1 0xA0 SHL SUB DUP7 AND PUSH1 0x0 SWAP1 DUP2 MSTORE SWAP1 DUP5 MSTORE SWAP2 SWAP1 SWAP2 KECCAK256 DUP1 SLOAD PUSH1 0xFF NOT AND SWAP4 ISZERO ISZERO SWAP4 SWAP1 SWAP4 OR SWAP1 SWAP3 SSTORE PUSH1 0x0 DUP1 MLOAD PUSH1 0x20 PUSH2 0x5CBD DUP4 CODECOPY DUP2 MLOAD SWAP2 MSTORE SWAP2 PUSH2 0x2AA7 SWAP2 DUP6 SWAP2 DUP6 SWAP2 ADD PUSH2 0x537D JUMP JUMPDEST PUSH1 0x40 DUP1 MLOAD PUSH1 0x1F NOT DUP2 DUP5 SUB ADD DUP2 MSTORE SWAP1 DUP3 SWAP1 MSTORE PUSH2 0x2559 SWAP2 CALLER SWAP1 PUSH2 0x53D3 JUMP JUMPDEST PUSH1 0x1 DUP1 SLOAD PUSH1 0xFF AND ISZERO ISZERO EQ PUSH2 0x2AE9 JUMPI PUSH1 0x40 MLOAD PUSH3 0x461BCD PUSH1 0xE5 SHL DUP2 MSTORE PUSH1 0x4 ADD PUSH2 0xD9F SWAP1 PUSH2 0x51C9 JUMP JUMPDEST DUP1 MLOAD DUP3 MLOAD EQ PUSH2 0x2B20 JUMPI PUSH1 0x40 MLOAD PUSH3 0x461BCD PUSH1 0xE5 SHL DUP2 MSTORE PUSH1 0x20 PUSH1 0x4 DUP3 ADD MSTORE PUSH1 0x3 PUSH1 0x24 DUP3 ADD MSTORE PUSH3 0x504357 PUSH1 0xE8 SHL PUSH1 0x44 DUP3 ADD MSTORE PUSH1 0x64 ADD PUSH2 0xD9F JUMP JUMPDEST PUSH1 0x0 DUP1 SLOAD DUP2 MSTORE PUSH1 0x1B PUSH1 0x20 SWAP1 DUP2 MSTORE PUSH1 0x40 DUP1 DUP4 KECCAK256 DUP1 SLOAD PUSH1 0x1 PUSH1 0xFF NOT SWAP1 SWAP2 AND DUP2 OR SWAP1 SWAP2 SSTORE DUP2 MLOAD PUSH1 0x60 DUP2 ADD DUP4 MSTORE CALLER DUP2 MSTORE DUP1 DUP5 ADD DUP8 DUP2 MSTORE DUP2 DUP5 ADD DUP8 SWAP1 MSTORE DUP6 SLOAD DUP7 MSTORE PUSH1 0x16 DUP6 MSTORE SWAP3 SWAP1 SWAP5 KECCAK256 DUP5 MLOAD DUP2 SLOAD PUSH1 0x1 PUSH1 0x1 PUSH1 0xA0 SHL SUB NOT AND PUSH1 0x1 PUSH1 0x1 PUSH1 0xA0 SHL SUB SWAP1 SWAP2 AND OR DUP2 SSTORE SWAP2 MLOAD DUP1 MLOAD SWAP3 SWAP4 PUSH2 0x2B96 SWAP4 SWAP3 DUP6 ADD SWAP3 SWAP2 ADD SWAP1 PUSH2 0x4976 JUMP JUMPDEST POP PUSH1 0x40 DUP3 ADD MLOAD DUP1 MLOAD PUSH2 0x2BB2 SWAP2 PUSH1 0x2 DUP5 ADD SWAP2 PUSH1 0x20 SWAP1 SWAP2 ADD SWAP1 PUSH2 0x49CC JUMP JUMPDEST POP SWAP1 POP POP PUSH1 0x0 DUP1 MLOAD PUSH1 0x20 PUSH2 0x5CBD DUP4 CODECOPY DUP2 MLOAD SWAP2 MSTORE PUSH1 0x0 SLOAD PUSH1 0x40 MLOAD PUSH1 0x20 ADD PUSH2 0x2BDA SWAP2 DUP2 MSTORE PUSH1 0x20 ADD SWAP1 JUMP JUMPDEST PUSH1 0x40 DUP1 MLOAD PUSH1 0x1F NOT DUP2 DUP5 SUB ADD DUP2 MSTORE SWAP1 DUP3 SWAP1 MSTORE PUSH2 0x2BF6 SWAP2 CALLER SWAP1 PUSH2 0x53FF JUMP JUMPDEST PUSH1 0x40 MLOAD DUP1 SWAP2 SUB SWAP1 LOG1 PUSH1 0x0 DUP1 SLOAD DUP1 DUP3 MSTORE PUSH1 0x2 PUSH1 0x20 DUP2 SWAP1 MSTORE PUSH1 0x40 DUP4 KECCAK256 SLOAD SWAP3 SWAP1 SWAP2 PUSH2 0x2C1F SWAP1 PUSH1 0x1 PUSH2 0x5128 JUMP JUMPDEST DUP2 MSTORE PUSH1 0x20 ADD SWAP1 DUP2 MSTORE PUSH1 0x20 ADD PUSH1 0x0 KECCAK256 DUP2 SWAP1 SSTORE POP PUSH1 0x0 DUP1 DUP2 SLOAD DUP1 SWAP3 SWAP2 SWAP1 PUSH2 0x2C43 SWAP1 PUSH2 0x542B JUMP JUMPDEST SWAP2 SWAP1 POP SSTORE POP POP POP JUMP JUMPDEST PUSH1 0x1 DUP1 SLOAD PUSH1 0xFF AND ISZERO ISZERO EQ PUSH2 0x2C72 JUMPI PUSH1 0x40 MLOAD PUSH3 0x461BCD PUSH1 0xE5 SHL DUP2 MSTORE PUSH1 0x4 ADD PUSH2 0xD9F SWAP1 PUSH2 0x51C9 JUMP JUMPDEST PUSH2 0x2C7B DUP2 PUSH2 0x21AD JUMP JUMPDEST PUSH2 0x2CAD JUMPI PUSH1 0x40 MLOAD PUSH3 0x461BCD PUSH1 0xE5 SHL DUP2 MSTORE PUSH1 0x20 PUSH1 0x4 DUP3 ADD MSTORE PUSH1 0x3 PUSH1 0x24 DUP3 ADD MSTORE PUSH3 0x554221 PUSH1 0xE8 SHL PUSH1 0x44 DUP3 ADD MSTORE PUSH1 0x64 ADD PUSH2 0xD9F JUMP JUMPDEST PUSH1 0x40 DUP1 MLOAD DUP1 DUP3 ADD SWAP1 SWAP2 MSTORE PUSH1 0x4 DUP2 MSTORE PUSH4 0x36B0B4B7 PUSH1 0xE1 SHL PUSH1 0x20 SWAP2 DUP3 ADD MSTORE DUP2 MLOAD SWAP1 DUP3 ADD KECCAK256 PUSH32 0x471DFAB0756EDC981C75DD3188CCD700755407F7D3BEDF452610F7A1E240D659 ADD PUSH2 0x2D22 JUMPI PUSH1 0x40 MLOAD PUSH3 0x461BCD PUSH1 0xE5 SHL DUP2 MSTORE PUSH1 0x20 PUSH1 0x4 DUP3 ADD MSTORE PUSH1 0x2 PUSH1 0x24 DUP3 ADD MSTORE PUSH2 0x26A1 PUSH1 0xF1 SHL PUSH1 0x44 DUP3 ADD MSTORE PUSH1 0x64 ADD PUSH2 0xD9F JUMP JUMPDEST PUSH2 0x2D2B DUP2 PUSH2 0xF18 JUMP JUMPDEST PUSH2 0x2D5C JUMPI PUSH1 0x40 MLOAD PUSH3 0x461BCD PUSH1 0xE5 SHL DUP2 MSTORE PUSH1 0x20 PUSH1 0x4 DUP3 ADD MSTORE PUSH1 0x2 PUSH1 0x24 DUP3 ADD MSTORE PUSH2 0x4245 PUSH1 0xF0 SHL PUSH1 0x44 DUP3 ADD MSTORE PUSH1 0x64 ADD PUSH2 0xD9F JUMP JUMPDEST PUSH1 0x0 PUSH1 0xD DUP3 PUSH1 0x40 MLOAD PUSH2 0x2D6E SWAP2 SWAP1 PUSH2 0x51AD JUMP JUMPDEST SWAP1 DUP2 MSTORE PUSH1 0x40 MLOAD PUSH1 0x20 SWAP2 DUP2 SWAP1 SUB DUP3 ADD DUP2 KECCAK256 DUP1 SLOAD PUSH1 0xFF NOT AND SWAP4 ISZERO ISZERO SWAP4 SWAP1 SWAP4 OR SWAP1 SWAP3 SSTORE PUSH1 0x0 DUP1 MLOAD PUSH1 0x20 PUSH2 0x5CBD DUP4 CODECOPY DUP2 MLOAD SWAP2 MSTORE SWAP2 PUSH2 0x2DAA SWAP2 DUP5 SWAP2 ADD PUSH2 0x5444 JUMP JUMPDEST PUSH1 0x40 DUP1 MLOAD PUSH1 0x1F NOT DUP2 DUP5 SUB ADD DUP2 MSTORE SWAP1 DUP3 SWAP1 MSTORE PUSH2 0x2DC6 SWAP2 CALLER SWAP1 PUSH2 0x5457 JUMP JUMPDEST PUSH1 0x40 MLOAD DUP1 SWAP2 SUB SWAP1 LOG1 POP JUMP JUMPDEST PUSH2 0x2DDD DUP5 DUP5 DUP5 DUP5 PUSH2 0x468B JUMP JUMPDEST PUSH1 0x40 DUP1 MLOAD PUSH1 0x20 DUP2 ADD DUP7 SWAP1 MSTORE PUSH1 0x1 PUSH1 0x1 PUSH1 0xA0 SHL SUB DUP1 DUP7 AND SWAP3 DUP3 ADD SWAP3 SWAP1 SWAP3 MSTORE PUSH1 0x60 DUP2 ADD DUP5 SWAP1 MSTORE SWAP1 DUP3 AND PUSH1 0x80 DUP3 ADD MSTORE PUSH1 0x0 DUP1 MLOAD PUSH1 0x20 PUSH2 0x5CBD DUP4 CODECOPY DUP2 MLOAD SWAP2 MSTORE SWAP1 PUSH1 0xA0 ADD PUSH1 0x40 DUP1 MLOAD PUSH1 0x1F NOT DUP2 DUP5 SUB ADD DUP2 MSTORE SWAP1 DUP3 SWAP1 MSTORE PUSH2 0x2E38 SWAP2 CALLER SWAP1 PUSH2 0x5483 JUMP JUMPDEST PUSH1 0x40 MLOAD DUP1 SWAP2 SUB SWAP1 LOG1 POP POP POP POP JUMP JUMPDEST PUSH1 0x1 DUP1 SLOAD PUSH1 0xFF AND ISZERO ISZERO EQ PUSH2 0x2E6C JUMPI PUSH1 0x40 MLOAD PUSH3 0x461BCD PUSH1 0xE5 SHL DUP2 MSTORE PUSH1 0x4 ADD PUSH2 0xD9F SWAP1 PUSH2 0x51C9 JUMP JUMPDEST PUSH1 0x0 DUP3 DUP2 MSTORE PUSH1 0x16 PUSH1 0x20 MSTORE PUSH1 0x40 SWAP1 KECCAK256 PUSH1 0x1 ADD SLOAD DUP2 LT PUSH2 0x2EB2 JUMPI PUSH1 0x40 MLOAD PUSH3 0x461BCD PUSH1 0xE5 SHL DUP2 MSTORE PUSH1 0x20 PUSH1 0x4 DUP3 ADD MSTORE PUSH1 0x3 PUSH1 0x24 DUP3 ADD MSTORE PUSH3 0x504445 PUSH1 0xE8 SHL PUSH1 0x44 DUP3 ADD MSTORE PUSH1 0x64 ADD PUSH2 0xD9F JUMP JUMPDEST PUSH1 0x0 DUP3 DUP2 MSTORE PUSH1 0x19 PUSH1 0x20 MSTORE PUSH1 0x40 SWAP1 KECCAK256 SLOAD DUP2 EQ PUSH2 0x2EF5 JUMPI PUSH1 0x40 MLOAD PUSH3 0x461BCD PUSH1 0xE5 SHL DUP2 MSTORE PUSH1 0x20 PUSH1 0x4 DUP3 ADD MSTORE PUSH1 0x3 PUSH1 0x24 DUP3 ADD MSTORE PUSH3 0x57504F PUSH1 0xE8 SHL PUSH1 0x44 DUP3 ADD MSTORE PUSH1 0x64 ADD PUSH2 0xD9F JUMP JUMPDEST PUSH1 0x0 DUP3 DUP2 MSTORE PUSH1 0x19 PUSH1 0x20 MSTORE PUSH1 0x40 DUP2 KECCAK256 DUP1 SLOAD PUSH1 0x1 SWAP3 SWAP1 PUSH2 0x2F14 SWAP1 DUP5 SWAP1 PUSH2 0x5128 JUMP JUMPDEST SWAP1 SWAP2 SSTORE POP POP PUSH1 0x0 DUP3 DUP2 MSTORE PUSH1 0x16 PUSH1 0x20 MSTORE PUSH1 0x40 DUP2 KECCAK256 PUSH1 0x1 ADD DUP1 SLOAD DUP4 SWAP1 DUP2 LT PUSH2 0x2F3C JUMPI PUSH2 0x2F3C PUSH2 0x54AF JUMP JUMPDEST SWAP1 PUSH1 0x0 MSTORE PUSH1 0x20 PUSH1 0x0 KECCAK256 ADD DUP1 SLOAD PUSH2 0x2F51 SWAP1 PUSH2 0x54C5 JUMP JUMPDEST DUP1 PUSH1 0x1F ADD PUSH1 0x20 DUP1 SWAP2 DIV MUL PUSH1 0x20 ADD PUSH1 0x40 MLOAD SWAP1 DUP2 ADD PUSH1 0x40 MSTORE DUP1 SWAP3 SWAP2 SWAP1 DUP2 DUP2 MSTORE PUSH1 0x20 ADD DUP3 DUP1 SLOAD PUSH2 0x2F7D SWAP1 PUSH2 0x54C5 JUMP JUMPDEST DUP1 ISZERO PUSH2 0x2FCA JUMPI DUP1 PUSH1 0x1F LT PUSH2 0x2F9F JUMPI PUSH2 0x100 DUP1 DUP4 SLOAD DIV MUL DUP4 MSTORE SWAP2 PUSH1 0x20 ADD SWAP2 PUSH2 0x2FCA JUMP JUMPDEST DUP3 ADD SWAP2 SWAP1 PUSH1 0x0 MSTORE PUSH1 0x20 PUSH1 0x0 KECCAK256 SWAP1 JUMPDEST DUP2 SLOAD DUP2 MSTORE SWAP1 PUSH1 0x1 ADD SWAP1 PUSH1 0x20 ADD DUP1 DUP4 GT PUSH2 0x2FAD JUMPI DUP3 SWAP1 SUB PUSH1 0x1F AND DUP3 ADD SWAP2 JUMPDEST POP POP POP POP POP SWAP1 POP PUSH1 0x0 PUSH1 0x16 PUSH1 0x0 DUP6 DUP2 MSTORE PUSH1 0x20 ADD SWAP1 DUP2 MSTORE PUSH1 0x20 ADD PUSH1 0x0 KECCAK256 PUSH1 0x2 ADD DUP4 DUP2 SLOAD DUP2 LT PUSH2 0x2FFA JUMPI PUSH2 0x2FFA PUSH2 0x54AF JUMP JUMPDEST SWAP1 PUSH1 0x0 MSTORE PUSH1 0x20 PUSH1 0x0 KECCAK256 ADD DUP1 SLOAD PUSH2 0x300F SWAP1 PUSH2 0x54C5 JUMP JUMPDEST DUP1 PUSH1 0x1F ADD PUSH1 0x20 DUP1 SWAP2 DIV MUL PUSH1 0x20 ADD PUSH1 0x40 MLOAD SWAP1 DUP2 ADD PUSH1 0x40 MSTORE DUP1 SWAP3 SWAP2 SWAP1 DUP2 DUP2 MSTORE PUSH1 0x20 ADD DUP3 DUP1 SLOAD PUSH2 0x303B SWAP1 PUSH2 0x54C5 JUMP JUMPDEST DUP1 ISZERO PUSH2 0x3088 JUMPI DUP1 PUSH1 0x1F LT PUSH2 0x305D JUMPI PUSH2 0x100 DUP1 DUP4 SLOAD DIV MUL DUP4 MSTORE SWAP2 PUSH1 0x20 ADD SWAP2 PUSH2 0x3088 JUMP JUMPDEST DUP3 ADD SWAP2 SWAP1 PUSH1 0x0 MSTORE PUSH1 0x20 PUSH1 0x0 KECCAK256 SWAP1 JUMPDEST DUP2 SLOAD DUP2 MSTORE SWAP1 PUSH1 0x1 ADD SWAP1 PUSH1 0x20 ADD DUP1 DUP4 GT PUSH2 0x306B JUMPI DUP3 SWAP1 SUB PUSH1 0x1F AND DUP3 ADD SWAP2 JUMPDEST POP POP POP POP POP SWAP1 POP PUSH1 0x0 DUP3 DUP1 MLOAD SWAP1 PUSH1 0x20 ADD KECCAK256 SWAP1 POP PUSH1 0x40 MLOAD DUP1 PUSH1 0x40 ADD PUSH1 0x40 MSTORE DUP1 PUSH1 0x2 DUP2 MSTORE PUSH1 0x20 ADD PUSH2 0x34A9 PUSH1 0xF1 SHL DUP2 MSTORE POP DUP1 MLOAD SWAP1 PUSH1 0x20 ADD KECCAK256 DUP2 SUB PUSH2 0x30EB JUMPI PUSH1 0x0 DUP1 DUP4 DUP1 PUSH1 0x20 ADD SWAP1 MLOAD DUP2 ADD SWAP1 PUSH2 0x30DA SWAP2 SWAP1 PUSH2 0x55E3 JUMP JUMPDEST SWAP2 POP SWAP2 POP PUSH2 0x30E8 DUP3 DUP3 PUSH2 0x2AC3 JUMP JUMPDEST POP POP JUMPDEST PUSH1 0x40 DUP1 MLOAD DUP1 DUP3 ADD SWAP1 SWAP2 MSTORE PUSH1 0x2 DUP2 MSTORE PUSH2 0x735 PUSH1 0xF4 SHL PUSH1 0x20 SWAP1 SWAP2 ADD MSTORE PUSH32 0xF1B1BBC74E4DF8608497E5EED3180A4B18C6B574FF7C886247E917619E157587 DUP2 ADD PUSH2 0x315A JUMPI PUSH1 0x0 DUP1 PUSH1 0x0 DUP5 DUP1 PUSH1 0x20 ADD SWAP1 MLOAD DUP2 ADD SWAP1 PUSH2 0x3145 SWAP2 SWAP1 PUSH2 0x56AF JUMP JUMPDEST SWAP3 POP SWAP3 POP SWAP3 POP PUSH2 0x3156 DUP4 DUP3 DUP5 PUSH2 0x4313 JUMP JUMPDEST POP POP POP JUMPDEST PUSH1 0x40 DUP1 MLOAD DUP1 DUP3 ADD SWAP1 SWAP2 MSTORE PUSH1 0x2 DUP2 MSTORE PUSH2 0x1D15 PUSH1 0xF2 SHL PUSH1 0x20 SWAP1 SWAP2 ADD MSTORE PUSH32 0x36DDD33E7A7F4736D675524B57AE6969FBA9049312747B57679F33A51849C6B1 DUP2 ADD PUSH2 0x31CE JUMPI PUSH1 0x0 DUP1 PUSH1 0x0 DUP1 DUP6 DUP1 PUSH1 0x20 ADD SWAP1 MLOAD DUP2 ADD SWAP1 PUSH2 0x31B5 SWAP2 SWAP1 PUSH2 0x5708 JUMP JUMPDEST SWAP4 POP SWAP4 POP SWAP4 POP SWAP4 POP PUSH2 0x31C9 DUP5 DUP5 DUP5 DUP5 PUSH2 0x43CD JUMP JUMPDEST POP POP POP POP JUMPDEST PUSH1 0x40 DUP1 MLOAD DUP1 DUP3 ADD SWAP1 SWAP2 MSTORE PUSH1 0x2 DUP2 MSTORE PUSH2 0x1B55 PUSH1 0xF2 SHL PUSH1 0x20 SWAP1 SWAP2 ADD MSTORE PUSH32 0x6F27458A75A197963A149D891EE01B4F59E7DFBCD1A8C7BC1095DC063775C5E9 DUP2 ADD PUSH2 0x3242 JUMPI PUSH1 0x0 DUP1 PUSH1 0x0 DUP1 DUP6 DUP1 PUSH1 0x20 ADD SWAP1 MLOAD DUP2 ADD SWAP1 PUSH2 0x3229 SWAP2 SWAP1 PUSH2 0x5769 JUMP JUMPDEST SWAP4 POP SWAP4 POP SWAP4 POP SWAP4 POP PUSH2 0x323D DUP5 DUP5 DUP5 DUP5 PUSH2 0x3B03 JUMP JUMPDEST POP POP POP POP JUMPDEST PUSH1 0x40 DUP1 MLOAD DUP1 DUP3 ADD SWAP1 SWAP2 MSTORE PUSH1 0x2 DUP2 MSTORE PUSH2 0x1A51 PUSH1 0xF2 SHL PUSH1 0x20 SWAP1 SWAP2 ADD MSTORE PUSH32 0x1CF0197AED3B237C637010856237AFEB1EC5367FD4B836BF00F3BD32EEF1EF77 DUP2 ADD PUSH2 0x32B1 JUMPI PUSH1 0x0 DUP1 PUSH1 0x0 DUP5 DUP1 PUSH1 0x20 ADD SWAP1 MLOAD DUP2 ADD SWAP1 PUSH2 0x329C SWAP2 SWAP1 PUSH2 0x57E6 JUMP JUMPDEST SWAP3 POP SWAP3 POP SWAP3 POP PUSH2 0x32AD DUP4 DUP4 DUP4 PUSH2 0x3706 JUMP JUMPDEST POP POP POP JUMPDEST PUSH1 0x40 DUP1 MLOAD DUP1 DUP3 ADD SWAP1 SWAP2 MSTORE PUSH1 0x2 DUP2 MSTORE PUSH2 0x6953 PUSH1 0xF0 SHL PUSH1 0x20 SWAP1 SWAP2 ADD MSTORE PUSH32 0x11302F5E4C5C3A196DB2F07F09E2F91274031E3F83E172B68276385C26AC608 DUP2 ADD PUSH2 0x3325 JUMPI PUSH1 0x0 DUP1 PUSH1 0x0 DUP1 DUP6 DUP1 PUSH1 0x20 ADD SWAP1 MLOAD DUP2 ADD SWAP1 PUSH2 0x330C SWAP2 SWAP1 PUSH2 0x5840 JUMP JUMPDEST SWAP4 POP SWAP4 POP SWAP4 POP SWAP4 POP PUSH2 0x3320 DUP5 DUP5 DUP5 DUP5 PUSH2 0x2DD1 JUMP JUMPDEST POP POP POP POP JUMPDEST PUSH1 0x40 DUP1 MLOAD DUP1 DUP3 ADD SWAP1 SWAP2 MSTORE PUSH1 0x2 DUP2 MSTORE PUSH2 0x1911 PUSH1 0xF2 SHL PUSH1 0x20 SWAP1 SWAP2 ADD MSTORE PUSH32 0xEDD0EE4C0D87C45F9EDC0B9BA6F7373336C241B06C885E00F23C1AB5EC82A747 DUP2 ADD PUSH2 0x3389 JUMPI PUSH1 0x0 DUP3 DUP1 PUSH1 0x20 ADD SWAP1 MLOAD DUP2 ADD SWAP1 PUSH2 0x337C SWAP2 SWAP1 PUSH2 0x5231 JUMP JUMPDEST SWAP1 POP PUSH2 0x3387 DUP2 PUSH2 0x280A JUMP JUMPDEST POP JUMPDEST PUSH1 0x40 DUP1 MLOAD DUP1 DUP3 ADD SWAP1 SWAP2 MSTORE PUSH1 0x2 DUP2 MSTORE PUSH2 0x31A1 PUSH1 0xF1 SHL PUSH1 0x20 SWAP1 SWAP2 ADD MSTORE PUSH32 0x2108E84F920E4EEE7D6AC9EF2ABEB540A1D7F56715D474E0B06B236CF4E70312 DUP2 ADD PUSH2 0x33F2 JUMPI PUSH1 0x0 DUP1 DUP4 DUP1 PUSH1 0x20 ADD SWAP1 MLOAD DUP2 ADD SWAP1 PUSH2 0x33E1 SWAP2 SWAP1 PUSH2 0x5868 JUMP JUMPDEST SWAP2 POP SWAP2 POP PUSH2 0x33EF DUP3 DUP3 PUSH2 0x28F5 JUMP JUMPDEST POP POP JUMPDEST PUSH1 0x40 DUP1 MLOAD DUP1 DUP3 ADD SWAP1 SWAP2 MSTORE PUSH1 0x2 DUP2 MSTORE PUSH2 0x3221 PUSH1 0xF1 SHL PUSH1 0x20 SWAP1 SWAP2 ADD MSTORE PUSH32 0x46E76FB60CBFEA5DC4E313412F858C830E50E6E875D17B0921DB6456F8AC9CDB DUP2 ADD PUSH2 0x3456 JUMPI PUSH1 0x0 DUP3 DUP1 PUSH1 0x20 ADD SWAP1 MLOAD DUP2 ADD SWAP1 PUSH2 0x3449 SWAP2 SWAP1 PUSH2 0x58AE JUMP JUMPDEST SWAP1 POP PUSH2 0x3454 DUP2 PUSH2 0x2C4C JUMP JUMPDEST POP JUMPDEST PUSH1 0x40 DUP1 MLOAD DUP1 DUP3 ADD SWAP1 SWAP2 MSTORE PUSH1 0x2 DUP2 MSTORE PUSH2 0x6141 PUSH1 0xF0 SHL PUSH1 0x20 SWAP1 SWAP2 ADD MSTORE PUSH32 0x6AB7C4E3CA485932091A923D53DD425EB4D94C6A7DC8ED536077E0C9C68E7BFE DUP2 ADD PUSH2 0x34BF JUMPI PUSH1 0x0 DUP1 DUP4 DUP1 PUSH1 0x20 ADD SWAP1 MLOAD DUP2 ADD SWAP1 PUSH2 0x34AE SWAP2 SWAP1 PUSH2 0x5868 JUMP JUMPDEST SWAP2 POP SWAP2 POP PUSH2 0x34BC DUP3 DUP3 PUSH2 0x3D97 JUMP JUMPDEST POP POP JUMPDEST PUSH1 0x40 DUP1 MLOAD DUP1 DUP3 ADD SWAP1 SWAP2 MSTORE PUSH1 0x2 DUP2 MSTORE PUSH2 0x7241 PUSH1 0xF0 SHL PUSH1 0x20 SWAP1 SWAP2 ADD MSTORE PUSH32 0x45DBBD6089762CAA052D17A86EA8CC77E402F559662B3CB9F7D2FBE50F11E6CB DUP2 ADD PUSH2 0x3528 JUMPI PUSH1 0x0 DUP1 DUP4 DUP1 PUSH1 0x20 ADD SWAP1 MLOAD DUP2 ADD SWAP1 PUSH2 0x3517 SWAP2 SWAP1 PUSH2 0x5868 JUMP JUMPDEST SWAP2 POP SWAP2 POP PUSH2 0x3525 DUP3 DUP3 PUSH2 0x2A07 JUMP JUMPDEST POP POP JUMPDEST PUSH1 0x40 DUP1 MLOAD DUP1 DUP3 ADD SWAP1 SWAP2 MSTORE PUSH1 0x2 DUP2 MSTORE PUSH2 0x1C95 PUSH1 0xF2 SHL PUSH1 0x20 SWAP1 SWAP2 ADD MSTORE PUSH32 0x42A0A33C65FCCBB156F00AAD076FE5690728E88A2A16D6DC6A8C8FBB7F656027 DUP2 ADD PUSH2 0x358C JUMPI PUSH1 0x0 DUP3 DUP1 PUSH1 0x20 ADD SWAP1 MLOAD DUP2 ADD SWAP1 PUSH2 0x357F SWAP2 SWAP1 PUSH2 0x58E2 JUMP JUMPDEST SWAP1 POP PUSH2 0x358A DUP2 PUSH2 0x3952 JUMP JUMPDEST POP JUMPDEST PUSH1 0x40 DUP1 MLOAD DUP1 DUP3 ADD SWAP1 SWAP2 MSTORE PUSH1 0x2 DUP2 MSTORE PUSH2 0x1D55 PUSH1 0xF2 SHL PUSH1 0x20 SWAP1 SWAP2 ADD MSTORE PUSH32 0xA9C7393048385836FA2C098E221D0EA111BEB9A44F58922662CBBD8B6447585E DUP2 ADD PUSH2 0x35F0 JUMPI PUSH1 0x0 DUP3 DUP1 PUSH1 0x20 ADD SWAP1 MLOAD DUP2 ADD SWAP1 PUSH2 0x35E3 SWAP2 SWAP1 PUSH2 0x58E2 JUMP JUMPDEST SWAP1 POP PUSH2 0x35EE DUP2 PUSH2 0x3909 JUMP JUMPDEST POP JUMPDEST PUSH1 0x40 DUP1 MLOAD DUP1 DUP3 ADD SWAP1 SWAP2 MSTORE PUSH1 0x2 DUP2 MSTORE PUSH2 0x6C45 PUSH1 0xF0 SHL PUSH1 0x20 SWAP1 SWAP2 ADD MSTORE PUSH32 0xDB51409824AFFAF893516504171B78835CB61AD014B6889940145B5796625F41 DUP2 ADD PUSH2 0x363E JUMPI PUSH2 0x3639 PUSH2 0x2469 JUMP JUMPDEST PUSH2 0x366B JUMP JUMPDEST PUSH1 0x40 MLOAD PUSH3 0x461BCD PUSH1 0xE5 SHL DUP2 MSTORE PUSH1 0x20 PUSH1 0x4 DUP3 ADD MSTORE PUSH1 0x2 PUSH1 0x24 DUP3 ADD MSTORE PUSH2 0x2BA3 PUSH1 0xF1 SHL PUSH1 0x44 DUP3 ADD MSTORE PUSH1 0x64 ADD PUSH2 0xD9F JUMP JUMPDEST PUSH1 0x40 DUP1 MLOAD PUSH1 0x20 DUP2 ADD DUP8 SWAP1 MSTORE SWAP1 DUP2 ADD DUP6 SWAP1 MSTORE PUSH1 0x0 DUP1 MLOAD PUSH1 0x20 PUSH2 0x5CBD DUP4 CODECOPY DUP2 MLOAD SWAP2 MSTORE SWAP1 PUSH1 0x60 ADD PUSH1 0x40 DUP1 MLOAD PUSH1 0x1F NOT DUP2 DUP5 SUB ADD DUP2 MSTORE SWAP1 DUP3 SWAP1 MSTORE PUSH2 0x36AB SWAP2 CALLER SWAP1 PUSH2 0x58FF JUMP JUMPDEST PUSH1 0x40 MLOAD DUP1 SWAP2 SUB SWAP1 LOG1 PUSH1 0x0 DUP6 DUP2 MSTORE PUSH1 0x16 PUSH1 0x20 SWAP1 DUP2 MSTORE PUSH1 0x40 DUP1 DUP4 KECCAK256 PUSH1 0x1 ADD SLOAD PUSH1 0x19 SWAP1 SWAP3 MSTORE SWAP1 SWAP2 KECCAK256 SLOAD SUB PUSH2 0x1820 JUMPI PUSH1 0x40 MLOAD DUP6 DUP2 MSTORE PUSH32 0x8D0D26399C7B999F9067E92DCF5A21EBC7BF6CD77BD186E721E4DFC2654E7830 SWAP1 PUSH1 0x20 ADD PUSH2 0x1754 JUMP JUMPDEST PUSH1 0x1 DUP1 SLOAD PUSH1 0xFF AND ISZERO ISZERO EQ PUSH2 0x372C JUMPI PUSH1 0x40 MLOAD PUSH3 0x461BCD PUSH1 0xE5 SHL DUP2 MSTORE PUSH1 0x4 ADD PUSH2 0xD9F SWAP1 PUSH2 0x51C9 JUMP JUMPDEST PUSH1 0xF DUP4 PUSH1 0x40 MLOAD PUSH2 0x373C SWAP2 SWAP1 PUSH2 0x51AD JUMP JUMPDEST SWAP1 DUP2 MSTORE PUSH1 0x40 DUP1 MLOAD PUSH1 0x20 SWAP3 DUP2 SWAP1 SUB DUP4 ADD SWAP1 KECCAK256 PUSH1 0x1 PUSH1 0x1 PUSH1 0xA0 SHL SUB DUP6 AND PUSH1 0x0 SWAP1 DUP2 MSTORE SWAP3 MSTORE SWAP1 KECCAK256 SLOAD DUP2 GT ISZERO PUSH2 0x3780 JUMPI PUSH1 0x40 MLOAD PUSH3 0x461BCD PUSH1 0xE5 SHL DUP2 MSTORE PUSH1 0x4 ADD PUSH2 0xD9F SWAP1 PUSH2 0x592B JUMP JUMPDEST DUP1 PUSH1 0xF DUP5 PUSH1 0x40 MLOAD PUSH2 0x3791 SWAP2 SWAP1 PUSH2 0x51AD JUMP JUMPDEST SWAP1 DUP2 MSTORE PUSH1 0x20 ADD PUSH1 0x40 MLOAD DUP1 SWAP2 SUB SWAP1 KECCAK256 PUSH1 0x0 DUP5 PUSH1 0x1 PUSH1 0x1 PUSH1 0xA0 SHL SUB AND PUSH1 0x1 PUSH1 0x1 PUSH1 0xA0 SHL SUB AND DUP2 MSTORE PUSH1 0x20 ADD SWAP1 DUP2 MSTORE PUSH1 0x20 ADD PUSH1 0x0 KECCAK256 PUSH1 0x0 DUP3 DUP3 SLOAD PUSH2 0x37D1 SWAP2 SWAP1 PUSH2 0x521E JUMP JUMPDEST SWAP1 SWAP2 SSTORE POP POP PUSH1 0x40 MLOAD PUSH1 0xF SWAP1 PUSH2 0x37E7 SWAP1 DUP6 SWAP1 PUSH2 0x51AD JUMP JUMPDEST SWAP1 DUP2 MSTORE PUSH1 0x40 DUP1 MLOAD PUSH1 0x20 SWAP3 DUP2 SWAP1 SUB DUP4 ADD SWAP1 KECCAK256 PUSH1 0x1 PUSH1 0x1 PUSH1 0xA0 SHL SUB DUP6 AND PUSH1 0x0 SWAP1 DUP2 MSTORE SWAP3 MSTORE SWAP1 KECCAK256 SLOAD ISZERO DUP1 ISZERO PUSH2 0x3821 JUMPI POP PUSH1 0x1 PUSH1 0x1 PUSH1 0xA0 SHL SUB DUP3 AND ISZERO ISZERO JUMPDEST ISZERO PUSH2 0x385B JUMPI PUSH1 0x1 PUSH1 0xE DUP5 PUSH1 0x40 MLOAD PUSH2 0x3838 SWAP2 SWAP1 PUSH2 0x51AD JUMP JUMPDEST SWAP1 DUP2 MSTORE PUSH1 0x20 ADD PUSH1 0x40 MLOAD DUP1 SWAP2 SUB SWAP1 KECCAK256 PUSH1 0x0 DUP3 DUP3 SLOAD PUSH2 0x3855 SWAP2 SWAP1 PUSH2 0x521E JUMP JUMPDEST SWAP1 SWAP2 SSTORE POP POP JUMPDEST PUSH1 0x40 DUP1 MLOAD DUP1 DUP3 ADD DUP3 MSTORE PUSH1 0x1 PUSH1 0x1 PUSH1 0xA0 SHL SUB DUP5 DUP2 AND DUP3 MSTORE PUSH1 0x20 DUP1 DUP4 ADD DUP6 DUP2 MSTORE PUSH1 0x0 DUP1 SLOAD DUP2 MSTORE PUSH1 0x13 DUP4 MSTORE DUP6 DUP2 KECCAK256 SWAP5 MLOAD DUP6 SLOAD PUSH1 0x1 PUSH1 0x1 PUSH1 0xA0 SHL SUB NOT AND SWAP5 AND SWAP4 SWAP1 SWAP4 OR DUP5 SSTORE MLOAD PUSH1 0x1 SWAP4 DUP5 ADD SSTORE DUP2 SLOAD DUP3 MSTORE PUSH1 0x14 DUP2 MSTORE DUP4 DUP3 KECCAK256 DUP6 SWAP1 SSTORE DUP2 SLOAD DUP3 MSTORE PUSH1 0x12 DUP2 MSTORE DUP4 DUP3 KECCAK256 DUP1 SLOAD PUSH1 0xFF NOT AND SWAP1 SWAP4 OR SWAP1 SWAP3 SSTORE SLOAD SWAP2 MLOAD PUSH1 0x0 DUP1 MLOAD PUSH1 0x20 PUSH2 0x5CBD DUP4 CODECOPY DUP2 MLOAD SWAP2 MSTORE SWAP3 PUSH2 0x38ED SWAP3 SWAP1 SWAP2 DUP8 SWAP2 DUP8 SWAP2 DUP8 SWAP2 ADD PUSH2 0x5947 JUMP JUMPDEST PUSH1 0x40 DUP1 MLOAD PUSH1 0x1F NOT DUP2 DUP5 SUB ADD DUP2 MSTORE SWAP1 DUP3 SWAP1 MSTORE PUSH2 0xD1E SWAP2 CALLER SWAP1 PUSH2 0x597C JUMP JUMPDEST PUSH2 0x3912 DUP2 PUSH2 0x470A JUMP JUMPDEST PUSH1 0x40 DUP1 MLOAD PUSH1 0x1 PUSH1 0x1 PUSH1 0xA0 SHL SUB DUP4 AND PUSH1 0x20 DUP3 ADD MSTORE PUSH1 0x0 DUP1 MLOAD PUSH1 0x20 PUSH2 0x5CBD DUP4 CODECOPY DUP2 MLOAD SWAP2 MSTORE SWAP2 ADD PUSH1 0x40 DUP1 MLOAD PUSH1 0x1F NOT DUP2 DUP5 SUB ADD DUP2 MSTORE SWAP1 DUP3 SWAP1 MSTORE PUSH2 0x2DC6 SWAP2 CALLER SWAP1 PUSH2 0x59A8 JUMP JUMPDEST PUSH2 0x395B DUP2 PUSH2 0x47B0 JUMP JUMPDEST PUSH1 0x40 DUP1 MLOAD PUSH1 0x1 PUSH1 0x1 PUSH1 0xA0 SHL SUB DUP4 AND PUSH1 0x20 DUP3 ADD MSTORE PUSH1 0x0 DUP1 MLOAD PUSH1 0x20 PUSH2 0x5CBD DUP4 CODECOPY DUP2 MLOAD SWAP2 MSTORE SWAP2 ADD PUSH1 0x40 DUP1 MLOAD PUSH1 0x1F NOT DUP2 DUP5 SUB ADD DUP2 MSTORE SWAP1 DUP3 SWAP1 MSTORE PUSH2 0x2DC6 SWAP2 CALLER SWAP1 PUSH2 0x59D4 JUMP JUMPDEST PUSH2 0x39A4 DUP3 PUSH2 0x190A JUMP JUMPDEST PUSH2 0x39D5 JUMPI PUSH1 0x40 MLOAD PUSH3 0x461BCD PUSH1 0xE5 SHL DUP2 MSTORE PUSH1 0x20 PUSH1 0x4 DUP3 ADD MSTORE PUSH1 0x2 PUSH1 0x24 DUP3 ADD MSTORE PUSH2 0x1555 PUSH1 0xF2 SHL PUSH1 0x44 DUP3 ADD MSTORE PUSH1 0x64 ADD PUSH2 0xD9F JUMP JUMPDEST PUSH1 0x40 MLOAD PUSH4 0x6EB1769F PUSH1 0xE1 SHL DUP2 MSTORE CALLER PUSH1 0x4 DUP3 ADD MSTORE ADDRESS PUSH1 0x24 DUP3 ADD MSTORE DUP3 SWAP1 DUP3 SWAP1 PUSH1 0x1 PUSH1 0x1 PUSH1 0xA0 SHL SUB DUP4 AND SWAP1 PUSH4 0xDD62ED3E SWAP1 PUSH1 0x44 ADD PUSH1 0x20 PUSH1 0x40 MLOAD DUP1 DUP4 SUB DUP2 DUP7 GAS STATICCALL ISZERO DUP1 ISZERO PUSH2 0x3A23 JUMPI RETURNDATASIZE PUSH1 0x0 DUP1 RETURNDATACOPY RETURNDATASIZE PUSH1 0x0 REVERT JUMPDEST POP POP POP POP PUSH1 0x40 MLOAD RETURNDATASIZE PUSH1 0x1F NOT PUSH1 0x1F DUP3 ADD AND DUP3 ADD DUP1 PUSH1 0x40 MSTORE POP DUP2 ADD SWAP1 PUSH2 0x3A47 SWAP2 SWAP1 PUSH2 0x5231 JUMP JUMPDEST LT ISZERO PUSH2 0x3A65 JUMPI PUSH1 0x40 MLOAD PUSH3 0x461BCD PUSH1 0xE5 SHL DUP2 MSTORE PUSH1 0x4 ADD PUSH2 0xD9F SWAP1 PUSH2 0x524A JUMP JUMPDEST PUSH1 0x40 MLOAD PUSH4 0x23B872DD PUSH1 0xE0 SHL DUP2 MSTORE CALLER PUSH1 0x4 DUP3 ADD MSTORE ADDRESS PUSH1 0x24 DUP3 ADD MSTORE PUSH1 0x44 DUP2 ADD DUP4 SWAP1 MSTORE PUSH1 0x1 PUSH1 0x1 PUSH1 0xA0 SHL SUB DUP3 AND SWAP1 PUSH4 0x23B872DD SWAP1 PUSH1 0x64 ADD PUSH1 0x20 PUSH1 0x40 MLOAD DUP1 DUP4 SUB DUP2 PUSH1 0x0 DUP8 GAS CALL ISZERO DUP1 ISZERO PUSH2 0x3AB8 JUMPI RETURNDATASIZE PUSH1 0x0 DUP1 RETURNDATACOPY RETURNDATASIZE PUSH1 0x0 REVERT JUMPDEST POP POP POP POP PUSH1 0x40 MLOAD RETURNDATASIZE PUSH1 0x1F NOT PUSH1 0x1F DUP3 ADD AND DUP3 ADD DUP1 PUSH1 0x40 MSTORE POP DUP2 ADD SWAP1 PUSH2 0x3ADC SWAP2 SWAP1 PUSH2 0x5266 JUMP JUMPDEST PUSH2 0x3AF8 JUMPI PUSH1 0x40 MLOAD PUSH3 0x461BCD PUSH1 0xE5 SHL DUP2 MSTORE PUSH1 0x4 ADD PUSH2 0xD9F SWAP1 PUSH2 0x5283 JUMP JUMPDEST PUSH2 0xE3E DUP4 DUP4 CALLER PUSH2 0xBDD JUMP JUMPDEST DUP3 PUSH2 0x3B0D DUP2 PUSH2 0x21AD JUMP JUMPDEST PUSH2 0x3B3F JUMPI PUSH1 0x40 MLOAD PUSH3 0x461BCD PUSH1 0xE5 SHL DUP2 MSTORE PUSH1 0x20 PUSH1 0x4 DUP3 ADD MSTORE PUSH1 0x3 PUSH1 0x24 DUP3 ADD MSTORE PUSH3 0x444E45 PUSH1 0xE8 SHL PUSH1 0x44 DUP3 ADD MSTORE PUSH1 0x64 ADD PUSH2 0xD9F JUMP JUMPDEST PUSH1 0x1 DUP1 SLOAD PUSH1 0xFF AND ISZERO ISZERO EQ PUSH2 0x3B65 JUMPI PUSH1 0x40 MLOAD PUSH3 0x461BCD PUSH1 0xE5 SHL DUP2 MSTORE PUSH1 0x4 ADD PUSH2 0xD9F SWAP1 PUSH2 0x51C9 JUMP JUMPDEST PUSH1 0xF DUP6 PUSH1 0x40 MLOAD PUSH2 0x3B75 SWAP2 SWAP1 PUSH2 0x51AD JUMP JUMPDEST SWAP1 DUP2 MSTORE PUSH1 0x40 DUP1 MLOAD PUSH1 0x20 SWAP3 DUP2 SWAP1 SUB DUP4 ADD SWAP1 KECCAK256 PUSH1 0x1 PUSH1 0x1 PUSH1 0xA0 SHL SUB DUP7 AND PUSH1 0x0 SWAP1 DUP2 MSTORE SWAP3 MSTORE SWAP1 KECCAK256 SLOAD DUP3 GT ISZERO PUSH2 0x3BB9 JUMPI PUSH1 0x40 MLOAD PUSH3 0x461BCD PUSH1 0xE5 SHL DUP2 MSTORE PUSH1 0x4 ADD PUSH2 0xD9F SWAP1 PUSH2 0x592B JUMP JUMPDEST DUP2 PUSH1 0xF DUP7 PUSH1 0x40 MLOAD PUSH2 0x3BCA SWAP2 SWAP1 PUSH2 0x51AD JUMP JUMPDEST SWAP1 DUP2 MSTORE PUSH1 0x20 ADD PUSH1 0x40 MLOAD DUP1 SWAP2 SUB SWAP1 KECCAK256 PUSH1 0x0 DUP6 PUSH1 0x1 PUSH1 0x1 PUSH1 0xA0 SHL SUB AND PUSH1 0x1 PUSH1 0x1 PUSH1 0xA0 SHL SUB AND DUP2 MSTORE PUSH1 0x20 ADD SWAP1 DUP2 MSTORE PUSH1 0x20 ADD PUSH1 0x0 KECCAK256 PUSH1 0x0 DUP3 DUP3 SLOAD PUSH2 0x3C0A SWAP2 SWAP1 PUSH2 0x521E JUMP JUMPDEST SWAP1 SWAP2 SSTORE POP POP PUSH1 0x1 PUSH1 0x1 PUSH1 0xA0 SHL SUB DUP4 AND ISZERO PUSH2 0x3CFE JUMPI PUSH1 0xF DUP6 PUSH1 0x40 MLOAD PUSH2 0x3C2E SWAP2 SWAP1 PUSH2 0x51AD JUMP JUMPDEST SWAP1 DUP2 MSTORE PUSH1 0x40 DUP1 MLOAD PUSH1 0x20 SWAP3 DUP2 SWAP1 SUB DUP4 ADD SWAP1 KECCAK256 PUSH1 0x1 PUSH1 0x1 PUSH1 0xA0 SHL SUB DUP7 AND PUSH1 0x0 SWAP1 DUP2 MSTORE SWAP3 MSTORE DUP2 KECCAK256 SLOAD SWAP1 SUB PUSH2 0x3C8E JUMPI PUSH1 0x1 PUSH1 0xE DUP7 PUSH1 0x40 MLOAD PUSH2 0x3C6B SWAP2 SWAP1 PUSH2 0x51AD JUMP JUMPDEST SWAP1 DUP2 MSTORE PUSH1 0x20 ADD PUSH1 0x40 MLOAD DUP1 SWAP2 SUB SWAP1 KECCAK256 PUSH1 0x0 DUP3 DUP3 SLOAD PUSH2 0x3C88 SWAP2 SWAP1 PUSH2 0x521E JUMP JUMPDEST SWAP1 SWAP2 SSTORE POP POP JUMPDEST PUSH1 0xF DUP5 PUSH1 0x40 MLOAD PUSH2 0x3C9E SWAP2 SWAP1 PUSH2 0x51AD JUMP JUMPDEST SWAP1 DUP2 MSTORE PUSH1 0x40 DUP1 MLOAD PUSH1 0x20 SWAP3 DUP2 SWAP1 SUB DUP4 ADD SWAP1 KECCAK256 PUSH1 0x1 PUSH1 0x1 PUSH1 0xA0 SHL SUB DUP7 AND PUSH1 0x0 SWAP1 DUP2 MSTORE SWAP3 MSTORE DUP2 KECCAK256 SLOAD SWAP1 SUB PUSH2 0x3CFE JUMPI PUSH1 0x1 PUSH1 0xE DUP6 PUSH1 0x40 MLOAD PUSH2 0x3CDB SWAP2 SWAP1 PUSH2 0x51AD JUMP JUMPDEST SWAP1 DUP2 MSTORE PUSH1 0x20 ADD PUSH1 0x40 MLOAD DUP1 SWAP2 SUB SWAP1 KECCAK256 PUSH1 0x0 DUP3 DUP3 SLOAD PUSH2 0x3CF8 SWAP2 SWAP1 PUSH2 0x5128 JUMP JUMPDEST SWAP1 SWAP2 SSTORE POP POP JUMPDEST DUP2 PUSH1 0xF DUP6 PUSH1 0x40 MLOAD PUSH2 0x3D0F SWAP2 SWAP1 PUSH2 0x51AD JUMP JUMPDEST SWAP1 DUP2 MSTORE PUSH1 0x20 ADD PUSH1 0x40 MLOAD DUP1 SWAP2 SUB SWAP1 KECCAK256 PUSH1 0x0 DUP6 PUSH1 0x1 PUSH1 0x1 PUSH1 0xA0 SHL SUB AND PUSH1 0x1 PUSH1 0x1 PUSH1 0xA0 SHL SUB AND DUP2 MSTORE PUSH1 0x20 ADD SWAP1 DUP2 MSTORE PUSH1 0x20 ADD PUSH1 0x0 KECCAK256 PUSH1 0x0 DUP3 DUP3 SLOAD PUSH2 0x3D4F SWAP2 SWAP1 PUSH2 0x5128 JUMP JUMPDEST SWAP1 SWAP2 SSTORE POP POP PUSH1 0x40 MLOAD PUSH1 0x0 DUP1 MLOAD PUSH1 0x20 PUSH2 0x5CBD DUP4 CODECOPY DUP2 MLOAD SWAP2 MSTORE SWAP1 PUSH2 0x3D7B SWAP1 DUP8 SWAP1 DUP8 SWAP1 DUP8 SWAP1 DUP8 SWAP1 PUSH1 0x20 ADD PUSH2 0x5A00 JUMP JUMPDEST PUSH1 0x40 DUP1 MLOAD PUSH1 0x1F NOT DUP2 DUP5 SUB ADD DUP2 MSTORE SWAP1 DUP3 SWAP1 MSTORE PUSH2 0x1754 SWAP2 CALLER SWAP1 PUSH2 0x5A42 JUMP JUMPDEST PUSH1 0x1 DUP1 SLOAD PUSH1 0xFF AND ISZERO ISZERO EQ PUSH2 0x3DBD JUMPI PUSH1 0x40 MLOAD PUSH3 0x461BCD PUSH1 0xE5 SHL DUP2 MSTORE PUSH1 0x4 ADD PUSH2 0xD9F SWAP1 PUSH2 0x51C9 JUMP JUMPDEST PUSH2 0x3DE1 PUSH1 0x40 MLOAD DUP1 PUSH1 0x40 ADD PUSH1 0x40 MSTORE DUP1 PUSH1 0x2 DUP2 MSTORE PUSH1 0x20 ADD PUSH2 0x36A1 PUSH1 0xF1 SHL DUP2 MSTORE POP DUP3 PUSH2 0x22B4 JUMP JUMPDEST PUSH2 0x3E12 JUMPI PUSH1 0x40 MLOAD PUSH3 0x461BCD PUSH1 0xE5 SHL DUP2 MSTORE PUSH1 0x20 PUSH1 0x4 DUP3 ADD MSTORE PUSH1 0x2 PUSH1 0x24 DUP3 ADD MSTORE PUSH2 0x4E5 PUSH1 0xF4 SHL PUSH1 0x44 DUP3 ADD MSTORE PUSH1 0x64 ADD PUSH2 0xD9F JUMP JUMPDEST PUSH1 0x1 PUSH1 0x10 DUP4 PUSH1 0x40 MLOAD PUSH2 0x3E24 SWAP2 SWAP1 PUSH2 0x51AD JUMP JUMPDEST SWAP1 DUP2 MSTORE PUSH1 0x40 DUP1 MLOAD PUSH1 0x20 SWAP3 DUP2 SWAP1 SUB DUP4 ADD DUP2 KECCAK256 PUSH1 0x1 PUSH1 0x1 PUSH1 0xA0 SHL SUB DUP7 AND PUSH1 0x0 SWAP1 DUP2 MSTORE SWAP1 DUP5 MSTORE SWAP2 SWAP1 SWAP2 KECCAK256 DUP1 SLOAD PUSH1 0xFF NOT AND SWAP4 ISZERO ISZERO SWAP4 SWAP1 SWAP4 OR SWAP1 SWAP3 SSTORE PUSH1 0x0 DUP1 MLOAD PUSH1 0x20 PUSH2 0x5CBD DUP4 CODECOPY DUP2 MLOAD SWAP2 MSTORE SWAP2 PUSH2 0x3E79 SWAP2 DUP6 SWAP2 DUP6 SWAP2 ADD PUSH2 0x537D JUMP JUMPDEST PUSH1 0x40 DUP1 MLOAD PUSH1 0x1F NOT DUP2 DUP5 SUB ADD DUP2 MSTORE SWAP1 DUP3 SWAP1 MSTORE PUSH2 0x2559 SWAP2 CALLER SWAP1 PUSH2 0x5A6E JUMP JUMPDEST PUSH1 0x0 DUP1 PUSH1 0x0 DUP5 DUP5 GT PUSH2 0x3EA6 JUMPI PUSH1 0x0 DUP1 REVERT JUMPDEST PUSH1 0x0 DUP5 PUSH2 0x3EB3 DUP8 DUP10 PUSH2 0x51E5 JUMP JUMPDEST PUSH2 0x3EBD SWAP2 SWAP1 PUSH2 0x51FC JUMP JUMPDEST SWAP1 POP PUSH1 0x0 DUP6 PUSH2 0x3ECC DUP9 DUP3 PUSH2 0x521E JUMP JUMPDEST PUSH2 0x3ED6 SWAP1 DUP11 PUSH2 0x51E5 JUMP JUMPDEST PUSH2 0x3EE0 SWAP2 SWAP1 PUSH2 0x51FC JUMP JUMPDEST SWAP1 POP DUP2 DUP2 PUSH2 0x3EEE DUP2 DUP4 PUSH2 0x5128 JUMP JUMPDEST PUSH2 0x3EF8 SWAP1 DUP12 PUSH2 0x521E JUMP JUMPDEST SWAP5 POP SWAP5 POP SWAP5 POP POP POP SWAP4 POP SWAP4 POP SWAP4 SWAP1 POP JUMP JUMPDEST ADDRESS PUSH1 0x1 PUSH1 0x1 PUSH1 0xA0 SHL SUB DUP5 AND SUB PUSH2 0x3F23 JUMPI PUSH2 0xE3E DUP3 DUP3 PUSH2 0x399B JUMP JUMPDEST PUSH1 0x40 MLOAD PUSH4 0x23B872DD PUSH1 0xE0 SHL DUP2 MSTORE CALLER PUSH1 0x4 DUP3 ADD MSTORE ADDRESS PUSH1 0x24 DUP3 ADD MSTORE PUSH1 0x44 DUP2 ADD DUP3 SWAP1 MSTORE DUP3 SWAP1 PUSH1 0x1 PUSH1 0x1 PUSH1 0xA0 SHL SUB DUP3 AND SWAP1 PUSH4 0x23B872DD SWAP1 PUSH1 0x64 ADD PUSH1 0x20 PUSH1 0x40 MLOAD DUP1 DUP4 SUB DUP2 PUSH1 0x0 DUP8 GAS CALL ISZERO DUP1 ISZERO PUSH2 0x3F78 JUMPI RETURNDATASIZE PUSH1 0x0 DUP1 RETURNDATACOPY RETURNDATASIZE PUSH1 0x0 REVERT JUMPDEST POP POP POP POP PUSH1 0x40 MLOAD RETURNDATASIZE PUSH1 0x1F NOT PUSH1 0x1F DUP3 ADD AND DUP3 ADD DUP1 PUSH1 0x40 MSTORE POP DUP2 ADD SWAP1 PUSH2 0x3F9C SWAP2 SWAP1 PUSH2 0x5266 JUMP JUMPDEST PUSH2 0x137D JUMPI PUSH1 0x40 MLOAD PUSH3 0x461BCD PUSH1 0xE5 SHL DUP2 MSTORE PUSH1 0x4 ADD PUSH2 0xD9F SWAP1 PUSH2 0x5283 JUMP JUMPDEST DUP3 PUSH2 0x3FD2 DUP2 PUSH1 0x0 DUP1 SLOAD SWAP2 DUP2 MSTORE PUSH1 0x7 PUSH1 0x20 MSTORE PUSH1 0x40 SWAP1 KECCAK256 SLOAD GT SWAP1 JUMP JUMPDEST PUSH2 0x3FEE JUMPI PUSH1 0x40 MLOAD PUSH3 0x461BCD PUSH1 0xE5 SHL DUP2 MSTORE PUSH1 0x4 ADD PUSH2 0xD9F SWAP1 PUSH2 0x5157 JUMP JUMPDEST PUSH1 0x1 DUP1 SLOAD PUSH1 0xFF AND ISZERO ISZERO EQ PUSH2 0x4014 JUMPI PUSH1 0x40 MLOAD PUSH3 0x461BCD PUSH1 0xE5 SHL DUP2 MSTORE PUSH1 0x4 ADD PUSH2 0xD9F SWAP1 PUSH2 0x51C9 JUMP JUMPDEST PUSH1 0x0 DUP5 DUP2 MSTORE PUSH1 0x3 PUSH1 0x20 MSTORE PUSH1 0x40 SWAP1 KECCAK256 SLOAD DUP4 GT ISZERO PUSH2 0x4057 JUMPI PUSH1 0x40 MLOAD PUSH3 0x461BCD PUSH1 0xE5 SHL DUP2 MSTORE PUSH1 0x20 PUSH1 0x4 DUP3 ADD MSTORE PUSH1 0x2 PUSH1 0x24 DUP3 ADD MSTORE PUSH2 0x4941 PUSH1 0xF0 SHL PUSH1 0x44 DUP3 ADD MSTORE PUSH1 0x64 ADD PUSH2 0xD9F JUMP JUMPDEST PUSH2 0x4060 DUP3 PUSH2 0x232A JUMP JUMPDEST ISZERO PUSH2 0x40CF JUMPI PUSH1 0x1 PUSH1 0x1 PUSH1 0xA0 SHL SUB DUP3 AND PUSH1 0x0 SWAP1 DUP2 MSTORE PUSH1 0x4 PUSH1 0x20 SWAP1 DUP2 MSTORE PUSH1 0x40 DUP1 DUP4 KECCAK256 SLOAD DUP4 MSTORE PUSH1 0x3 SWAP1 SWAP2 MSTORE DUP2 KECCAK256 SLOAD PUSH2 0x4095 SWAP1 DUP6 PUSH2 0x5128 JUMP JUMPDEST PUSH1 0x1 PUSH1 0x1 PUSH1 0xA0 SHL SUB DUP5 AND PUSH1 0x0 SWAP1 DUP2 MSTORE PUSH1 0x4 PUSH1 0x20 MSTORE PUSH1 0x40 DUP2 KECCAK256 SLOAD SWAP1 SLOAD SWAP2 SWAP3 POP PUSH2 0x40BC SWAP2 PUSH2 0x480F JUMP JUMPDEST PUSH2 0x40C9 DUP2 DUP5 PUSH1 0x0 SLOAD PUSH2 0x4856 JUMP JUMPDEST POP PUSH2 0x40DC JUMP JUMPDEST PUSH2 0x40DC DUP4 DUP4 PUSH1 0x0 SLOAD PUSH2 0x4856 JUMP JUMPDEST PUSH2 0x40E8 DUP5 PUSH1 0x0 SLOAD PUSH2 0x480F JUMP JUMPDEST PUSH1 0x0 DUP5 DUP2 MSTORE PUSH1 0x3 PUSH1 0x20 MSTORE PUSH1 0x40 DUP2 KECCAK256 SLOAD PUSH2 0x4102 SWAP1 DUP6 SWAP1 PUSH2 0x521E JUMP JUMPDEST SWAP1 POP DUP1 ISZERO PUSH2 0x4135 JUMPI PUSH1 0x0 DUP6 DUP2 MSTORE PUSH1 0x3 PUSH1 0x20 MSTORE PUSH1 0x40 DUP2 KECCAK256 PUSH1 0x1 ADD SLOAD SWAP1 SLOAD PUSH2 0x4135 SWAP2 DUP4 SWAP2 PUSH1 0x1 PUSH1 0x1 PUSH1 0xA0 SHL SUB SWAP1 SWAP2 AND SWAP1 PUSH2 0x4856 JUMP JUMPDEST POP PUSH1 0x0 DUP1 SLOAD DUP1 DUP3 MSTORE PUSH1 0x2 PUSH1 0x20 DUP2 SWAP1 MSTORE PUSH1 0x40 DUP4 KECCAK256 SLOAD SWAP3 SWAP1 SWAP2 PUSH2 0x4157 SWAP1 PUSH1 0x1 PUSH2 0x5128 JUMP JUMPDEST DUP2 MSTORE PUSH1 0x20 ADD SWAP1 DUP2 MSTORE PUSH1 0x20 ADD PUSH1 0x0 KECCAK256 DUP2 SWAP1 SSTORE POP PUSH1 0x0 DUP1 DUP2 SLOAD DUP1 SWAP3 SWAP2 SWAP1 PUSH2 0x417B SWAP1 PUSH2 0x542B JUMP JUMPDEST SWAP2 SWAP1 POP SSTORE POP POP POP POP POP JUMP JUMPDEST DUP5 PUSH2 0x41A0 DUP2 PUSH1 0x0 DUP1 SLOAD SWAP2 DUP2 MSTORE PUSH1 0x7 PUSH1 0x20 MSTORE PUSH1 0x40 SWAP1 KECCAK256 SLOAD GT SWAP1 JUMP JUMPDEST PUSH2 0x41BC JUMPI PUSH1 0x40 MLOAD PUSH3 0x461BCD PUSH1 0xE5 SHL DUP2 MSTORE PUSH1 0x4 ADD PUSH2 0xD9F SWAP1 PUSH2 0x5157 JUMP JUMPDEST PUSH1 0x1 DUP1 SLOAD PUSH1 0xFF AND ISZERO ISZERO EQ PUSH2 0x41E2 JUMPI PUSH1 0x40 MLOAD PUSH3 0x461BCD PUSH1 0xE5 SHL DUP2 MSTORE PUSH1 0x4 ADD PUSH2 0xD9F SWAP1 PUSH2 0x51C9 JUMP JUMPDEST PUSH1 0x0 DUP7 DUP2 MSTORE PUSH1 0x5 PUSH1 0x20 MSTORE PUSH1 0x40 DUP2 KECCAK256 SLOAD PUSH1 0xFF AND PUSH1 0x2 DUP2 GT ISZERO PUSH2 0x4205 JUMPI PUSH2 0x4205 PUSH2 0x5173 JUMP JUMPDEST EQ PUSH2 0x420F JUMPI PUSH1 0x0 DUP1 REVERT JUMPDEST PUSH1 0x0 DUP7 DUP2 MSTORE PUSH1 0x3 PUSH1 0x20 MSTORE PUSH1 0x40 SWAP1 KECCAK256 SLOAD DUP6 GT ISZERO PUSH2 0x4252 JUMPI PUSH1 0x40 MLOAD PUSH3 0x461BCD PUSH1 0xE5 SHL DUP2 MSTORE PUSH1 0x20 PUSH1 0x4 DUP3 ADD MSTORE PUSH1 0x2 PUSH1 0x24 DUP3 ADD MSTORE PUSH2 0x4941 PUSH1 0xF0 SHL PUSH1 0x44 DUP3 ADD MSTORE PUSH1 0x64 ADD PUSH2 0xD9F JUMP JUMPDEST PUSH1 0x40 DUP1 MLOAD PUSH1 0x80 DUP2 ADD DUP3 MSTORE DUP7 DUP2 MSTORE PUSH1 0x20 DUP1 DUP3 ADD DUP7 DUP2 MSTORE PUSH1 0x1 PUSH1 0x1 PUSH1 0xA0 SHL SUB DUP9 DUP2 AND DUP5 DUP7 ADD SWAP1 DUP2 MSTORE DUP8 DUP3 AND PUSH1 0x60 DUP7 ADD SWAP1 DUP2 MSTORE PUSH1 0x0 DUP14 DUP2 MSTORE PUSH1 0x6 DUP1 DUP8 MSTORE DUP9 DUP3 KECCAK256 SWAP8 MLOAD DUP9 SSTORE SWAP5 MLOAD PUSH1 0x1 DUP1 DUP10 ADD SWAP2 SWAP1 SWAP2 SSTORE SWAP3 MLOAD PUSH1 0x2 DUP9 ADD DUP1 SLOAD SWAP2 DUP7 AND PUSH1 0x1 PUSH1 0x1 PUSH1 0xA0 SHL SUB NOT SWAP3 DUP4 AND OR SWAP1 SSTORE SWAP2 MLOAD PUSH1 0x3 DUP9 ADD DUP1 SLOAD SWAP2 SWAP1 SWAP6 AND SWAP3 AND SWAP2 SWAP1 SWAP2 OR SWAP1 SWAP3 SSTORE PUSH1 0x5 DUP5 MSTORE SWAP1 DUP6 SWAP1 KECCAK256 DUP1 SLOAD PUSH1 0xFF NOT AND DUP3 OR SWAP1 SSTORE SWAP2 MSTORE SWAP2 MLOAD PUSH32 0xD8CD09EA93B4076AB867588C0D1A52B62C5B605B7A5F1C0189781245631A8353 SWAP3 PUSH2 0x1281 SWAP3 SWAP1 SWAP2 DUP11 SWAP2 SWAP1 PUSH2 0x5A9A JUMP JUMPDEST PUSH1 0x1 DUP1 SLOAD PUSH1 0xFF AND ISZERO ISZERO EQ PUSH2 0x4339 JUMPI PUSH1 0x40 MLOAD PUSH3 0x461BCD PUSH1 0xE5 SHL DUP2 MSTORE PUSH1 0x4 ADD PUSH2 0xD9F SWAP1 PUSH2 0x51C9 JUMP JUMPDEST DUP1 PUSH1 0x11 DUP5 PUSH1 0x40 MLOAD PUSH2 0x434A SWAP2 SWAP1 PUSH2 0x51AD JUMP JUMPDEST SWAP1 DUP2 MSTORE PUSH1 0x40 DUP1 MLOAD PUSH1 0x20 SWAP3 DUP2 SWAP1 SUB DUP4 ADD SWAP1 KECCAK256 PUSH1 0x1 PUSH1 0x1 PUSH1 0xA0 SHL SUB DUP7 AND PUSH1 0x0 SWAP1 DUP2 MSTORE SWAP3 MSTORE SWAP1 KECCAK256 DUP1 SLOAD PUSH1 0xFF NOT AND PUSH1 0x1 DUP4 PUSH1 0x2 DUP2 GT ISZERO PUSH2 0x4388 JUMPI PUSH2 0x4388 PUSH2 0x5173 JUMP JUMPDEST MUL OR SWAP1 SSTORE POP PUSH1 0x0 DUP1 MLOAD PUSH1 0x20 PUSH2 0x5CBD DUP4 CODECOPY DUP2 MLOAD SWAP2 MSTORE DUP4 DUP4 DUP4 PUSH1 0x40 MLOAD PUSH1 0x20 ADD PUSH2 0x43B1 SWAP4 SWAP3 SWAP2 SWAP1 PUSH2 0x5AE8 JUMP JUMPDEST PUSH1 0x40 DUP1 MLOAD PUSH1 0x1F NOT DUP2 DUP5 SUB ADD DUP2 MSTORE SWAP1 DUP3 SWAP1 MSTORE PUSH2 0xD1E SWAP2 CALLER SWAP1 PUSH2 0x5B23 JUMP JUMPDEST PUSH1 0x1 DUP1 SLOAD PUSH1 0xFF AND ISZERO ISZERO EQ PUSH2 0x43F3 JUMPI PUSH1 0x40 MLOAD PUSH3 0x461BCD PUSH1 0xE5 SHL DUP2 MSTORE PUSH1 0x4 ADD PUSH2 0xD9F SWAP1 PUSH2 0x51C9 JUMP JUMPDEST PUSH1 0xF DUP5 PUSH1 0x40 MLOAD PUSH2 0x4403 SWAP2 SWAP1 PUSH2 0x51AD JUMP JUMPDEST SWAP1 DUP2 MSTORE PUSH1 0x40 DUP1 MLOAD PUSH1 0x20 SWAP3 DUP2 SWAP1 SUB DUP4 ADD SWAP1 KECCAK256 PUSH1 0x1 PUSH1 0x1 PUSH1 0xA0 SHL SUB DUP7 AND PUSH1 0x0 SWAP1 DUP2 MSTORE SWAP3 MSTORE SWAP1 KECCAK256 SLOAD DUP3 GT ISZERO PUSH2 0x4447 JUMPI PUSH1 0x40 MLOAD PUSH3 0x461BCD PUSH1 0xE5 SHL DUP2 MSTORE PUSH1 0x4 ADD PUSH2 0xD9F SWAP1 PUSH2 0x592B JUMP JUMPDEST PUSH2 0x4452 DUP4 DUP4 DUP4 PUSH2 0x2565 JUMP JUMPDEST DUP2 PUSH1 0xF DUP6 PUSH1 0x40 MLOAD PUSH2 0x4463 SWAP2 SWAP1 PUSH2 0x51AD JUMP JUMPDEST SWAP1 DUP2 MSTORE PUSH1 0x20 ADD PUSH1 0x40 MLOAD DUP1 SWAP2 SUB SWAP1 KECCAK256 PUSH1 0x0 DUP6 PUSH1 0x1 PUSH1 0x1 PUSH1 0xA0 SHL SUB AND PUSH1 0x1 PUSH1 0x1 PUSH1 0xA0 SHL SUB AND DUP2 MSTORE PUSH1 0x20 ADD SWAP1 DUP2 MSTORE PUSH1 0x20 ADD PUSH1 0x0 KECCAK256 PUSH1 0x0 DUP3 DUP3 SLOAD PUSH2 0x44A3 SWAP2 SWAP1 PUSH2 0x521E JUMP JUMPDEST SWAP1 SWAP2 SSTORE POP POP PUSH1 0x40 MLOAD PUSH1 0xF SWAP1 PUSH2 0x44B9 SWAP1 DUP7 SWAP1 PUSH2 0x51AD JUMP JUMPDEST SWAP1 DUP2 MSTORE PUSH1 0x40 DUP1 MLOAD PUSH1 0x20 SWAP3 DUP2 SWAP1 SUB DUP4 ADD SWAP1 KECCAK256 PUSH1 0x1 PUSH1 0x1 PUSH1 0xA0 SHL SUB DUP7 AND PUSH1 0x0 SWAP1 DUP2 MSTORE SWAP3 MSTORE SWAP1 KECCAK256 SLOAD ISZERO DUP1 ISZERO PUSH2 0x44F3 JUMPI POP PUSH1 0x1 PUSH1 0x1 PUSH1 0xA0 SHL SUB DUP4 AND ISZERO ISZERO JUMPDEST ISZERO PUSH2 0x452D JUMPI PUSH1 0x1 PUSH1 0xE DUP6 PUSH1 0x40 MLOAD PUSH2 0x450A SWAP2 SWAP1 PUSH2 0x51AD JUMP JUMPDEST SWAP1 DUP2 MSTORE PUSH1 0x20 ADD PUSH1 0x40 MLOAD DUP1 SWAP2 SUB SWAP1 KECCAK256 PUSH1 0x0 DUP3 DUP3 SLOAD PUSH2 0x4527 SWAP2 SWAP1 PUSH2 0x521E JUMP JUMPDEST SWAP1 SWAP2 SSTORE POP POP JUMPDEST PUSH1 0x0 DUP1 MLOAD PUSH1 0x20 PUSH2 0x5CBD DUP4 CODECOPY DUP2 MLOAD SWAP2 MSTORE DUP5 DUP5 DUP5 DUP5 PUSH1 0x40 MLOAD PUSH1 0x20 ADD PUSH2 0x4553 SWAP5 SWAP4 SWAP3 SWAP2 SWAP1 PUSH2 0x5B4F JUMP JUMPDEST PUSH1 0x40 DUP1 MLOAD PUSH1 0x1F NOT DUP2 DUP5 SUB ADD DUP2 MSTORE SWAP1 DUP3 SWAP1 MSTORE PUSH2 0x2E38 SWAP2 CALLER SWAP1 PUSH2 0x5B8B JUMP JUMPDEST PUSH1 0x1 DUP1 SLOAD PUSH1 0xFF AND ISZERO ISZERO EQ PUSH2 0x4595 JUMPI PUSH1 0x40 MLOAD PUSH3 0x461BCD PUSH1 0xE5 SHL DUP2 MSTORE PUSH1 0x4 ADD PUSH2 0xD9F SWAP1 PUSH2 0x51C9 JUMP JUMPDEST PUSH1 0x1 DUP1 SLOAD PUSH1 0xFF NOT AND SWAP1 SSTORE TIMESTAMP PUSH1 0xA SSTORE JUMP JUMPDEST PUSH1 0x0 DUP2 PUSH1 0x1 PUSH1 0x1 PUSH1 0xA0 SHL SUB AND DUP4 PUSH1 0x40 MLOAD PUSH1 0x0 PUSH1 0x40 MLOAD DUP1 DUP4 SUB DUP2 DUP6 DUP8 GAS CALL SWAP3 POP POP POP RETURNDATASIZE DUP1 PUSH1 0x0 DUP2 EQ PUSH2 0x45F2 JUMPI PUSH1 0x40 MLOAD SWAP2 POP PUSH1 0x1F NOT PUSH1 0x3F RETURNDATASIZE ADD AND DUP3 ADD PUSH1 0x40 MSTORE RETURNDATASIZE DUP3 MSTORE RETURNDATASIZE PUSH1 0x0 PUSH1 0x20 DUP5 ADD RETURNDATACOPY PUSH2 0x45F7 JUMP JUMPDEST PUSH1 0x60 SWAP2 POP JUMPDEST POP POP SWAP1 POP DUP1 PUSH2 0xE3E JUMPI PUSH1 0x40 MLOAD PUSH3 0x461BCD PUSH1 0xE5 SHL DUP2 MSTORE PUSH1 0x20 PUSH1 0x4 DUP3 ADD MSTORE PUSH1 0x2 PUSH1 0x24 DUP3 ADD MSTORE PUSH2 0x2A23 PUSH1 0xF1 SHL PUSH1 0x44 DUP3 ADD MSTORE PUSH1 0x64 ADD PUSH2 0xD9F JUMP JUMPDEST PUSH1 0x1 PUSH1 0x1 PUSH1 0xA0 SHL SUB DUP3 AND PUSH1 0x0 SWAP1 DUP2 MSTORE PUSH1 0x9 PUSH1 0x20 MSTORE PUSH1 0x40 DUP2 KECCAK256 DUP1 SLOAD DUP4 SWAP3 SWAP1 PUSH2 0x4655 SWAP1 DUP5 SWAP1 PUSH2 0x521E JUMP JUMPDEST SWAP1 SWAP2 SSTORE POP POP PUSH1 0x1 PUSH1 0x1 PUSH1 0xA0 SHL SUB DUP3 AND PUSH1 0x0 SWAP1 DUP2 MSTORE PUSH1 0xB PUSH1 0x20 MSTORE PUSH1 0x40 DUP2 KECCAK256 DUP1 SLOAD DUP4 SWAP3 SWAP1 PUSH2 0x4682 SWAP1 DUP5 SWAP1 PUSH2 0x521E JUMP JUMPDEST SWAP1 SWAP2 SSTORE POP POP POP POP JUMP JUMPDEST PUSH2 0x4694 DUP4 PUSH2 0x190A JUMP JUMPDEST PUSH2 0x469D JUMPI PUSH1 0x0 DUP1 REVERT JUMPDEST ADDRESS PUSH1 0x0 SWAP1 DUP2 MSTORE PUSH1 0x4 PUSH1 0x20 MSTORE PUSH1 0x40 DUP2 KECCAK256 SLOAD SWAP1 SLOAD PUSH2 0x46B9 SWAP2 SWAP1 PUSH2 0x480F JUMP JUMPDEST ADDRESS PUSH1 0x0 SWAP1 DUP2 MSTORE PUSH1 0x4 PUSH1 0x20 SWAP1 DUP2 MSTORE PUSH1 0x40 DUP1 DUP4 KECCAK256 SLOAD DUP4 MSTORE PUSH1 0x3 SWAP1 SWAP2 MSTORE SWAP1 KECCAK256 SLOAD PUSH2 0x46ED SWAP1 PUSH2 0x46E4 SWAP1 DUP7 PUSH2 0x5128 JUMP JUMPDEST ADDRESS PUSH1 0x0 SLOAD PUSH2 0x4856 JUMP JUMPDEST ADDRESS PUSH1 0x0 SWAP1 DUP2 MSTORE PUSH1 0x4 PUSH1 0x20 MSTORE PUSH1 0x40 SWAP1 KECCAK256 SLOAD PUSH2 0x137D SWAP1 DUP6 DUP6 DUP6 DUP6 PUSH2 0x4186 JUMP JUMPDEST PUSH2 0x4713 DUP2 PUSH2 0x190A JUMP JUMPDEST PUSH2 0x4744 JUMPI PUSH1 0x40 MLOAD PUSH3 0x461BCD PUSH1 0xE5 SHL DUP2 MSTORE PUSH1 0x20 PUSH1 0x4 DUP3 ADD MSTORE PUSH1 0x2 PUSH1 0x24 DUP3 ADD MSTORE PUSH2 0x1555 PUSH1 0xF2 SHL PUSH1 0x44 DUP3 ADD MSTORE PUSH1 0x64 ADD PUSH2 0xD9F JUMP JUMPDEST PUSH1 0x1 PUSH1 0x1 PUSH1 0xA0 SHL SUB DUP2 AND PUSH1 0x0 SWAP1 DUP2 MSTORE PUSH1 0x9 PUSH1 0x20 MSTORE PUSH1 0x40 SWAP1 KECCAK256 SLOAD ISZERO PUSH2 0x478F JUMPI PUSH1 0x40 MLOAD PUSH3 0x461BCD PUSH1 0xE5 SHL DUP2 MSTORE PUSH1 0x20 PUSH1 0x4 DUP3 ADD MSTORE PUSH1 0x2 PUSH1 0x24 DUP3 ADD MSTORE PUSH2 0x272D PUSH1 0xF1 SHL PUSH1 0x44 DUP3 ADD MSTORE PUSH1 0x64 ADD PUSH2 0xD9F JUMP JUMPDEST PUSH1 0x1 PUSH1 0x1 PUSH1 0xA0 SHL SUB AND PUSH1 0x0 SWAP1 DUP2 MSTORE PUSH1 0x8 PUSH1 0x20 MSTORE PUSH1 0x40 SWAP1 KECCAK256 DUP1 SLOAD PUSH1 0xFF NOT AND SWAP1 SSTORE JUMP JUMPDEST PUSH2 0x47B9 DUP2 PUSH2 0x190A JUMP JUMPDEST ISZERO PUSH2 0x47EB JUMPI PUSH1 0x40 MLOAD PUSH3 0x461BCD PUSH1 0xE5 SHL DUP2 MSTORE PUSH1 0x20 PUSH1 0x4 DUP3 ADD MSTORE PUSH1 0x2 PUSH1 0x24 DUP3 ADD MSTORE PUSH2 0x20A9 PUSH1 0xF1 SHL PUSH1 0x44 DUP3 ADD MSTORE PUSH1 0x64 ADD PUSH2 0xD9F JUMP JUMPDEST PUSH1 0x1 PUSH1 0x1 PUSH1 0xA0 SHL SUB AND PUSH1 0x0 SWAP1 DUP2 MSTORE PUSH1 0x8 PUSH1 0x20 MSTORE PUSH1 0x40 SWAP1 KECCAK256 DUP1 SLOAD PUSH1 0xFF NOT AND PUSH1 0x1 OR SWAP1 SSTORE JUMP JUMPDEST PUSH1 0x0 DUP3 DUP2 MSTORE PUSH1 0x7 PUSH1 0x20 SWAP1 DUP2 MSTORE PUSH1 0x40 DUP1 DUP4 KECCAK256 DUP5 SWAP1 SSTORE DUP1 MLOAD SWAP3 DUP4 MSTORE SWAP1 DUP3 ADD DUP5 SWAP1 MSTORE PUSH32 0x12769FD465856C3651942A04374F21755B56A66422AAED87C7E56E936F6DD3D0 SWAP2 ADD PUSH2 0x2559 JUMP JUMPDEST PUSH1 0x0 DUP4 GT PUSH2 0x488B JUMPI PUSH1 0x40 MLOAD PUSH3 0x461BCD PUSH1 0xE5 SHL DUP2 MSTORE PUSH1 0x20 PUSH1 0x4 DUP3 ADD MSTORE PUSH1 0x2 PUSH1 0x24 DUP3 ADD MSTORE PUSH2 0x29AD PUSH1 0xF1 SHL PUSH1 0x44 DUP3 ADD MSTORE PUSH1 0x64 ADD PUSH2 0xD9F JUMP JUMPDEST PUSH1 0x40 MLOAD PUSH12 0xFFFFFFFFFFFFFFFFFFFFFFFF NOT PUSH1 0x60 DUP5 SWAP1 SHL AND PUSH1 0x20 DUP3 ADD MSTORE PUSH1 0x34 DUP2 ADD DUP3 SWAP1 MSTORE PUSH1 0x0 SWAP1 PUSH1 0x54 ADD PUSH1 0x40 DUP1 MLOAD DUP1 DUP4 SUB PUSH1 0x1F NOT ADD DUP2 MSTORE DUP3 DUP3 MSTORE DUP1 MLOAD PUSH1 0x20 SWAP2 DUP3 ADD KECCAK256 PUSH1 0x1 PUSH1 0x1 PUSH1 0xA0 SHL SUB DUP8 DUP2 AND PUSH1 0x0 DUP2 DUP2 MSTORE PUSH1 0x4 DUP6 MSTORE DUP6 DUP2 KECCAK256 DUP5 SWAP1 SSTORE DUP4 DUP2 MSTORE PUSH1 0x7 DUP6 MSTORE DUP6 DUP2 KECCAK256 PUSH1 0x0 NOT SWAP1 SSTORE PUSH1 0x60 DUP8 ADD DUP7 MSTORE DUP11 DUP8 MSTORE DUP5 DUP8 ADD SWAP2 DUP3 MSTORE DUP7 DUP7 ADD DUP10 DUP2 MSTORE DUP5 DUP3 MSTORE PUSH1 0x3 DUP7 MSTORE SWAP1 DUP7 SWAP1 KECCAK256 SWAP7 MLOAD DUP8 SSTORE SWAP1 MLOAD PUSH1 0x1 DUP1 DUP9 ADD DUP1 SLOAD PUSH1 0x1 PUSH1 0x1 PUSH1 0xA0 SHL SUB NOT AND SWAP3 SWAP1 SWAP5 AND SWAP2 SWAP1 SWAP2 OR SWAP1 SWAP3 SSTORE MLOAD PUSH1 0x2 SWAP1 SWAP6 ADD SWAP5 SWAP1 SWAP5 SSTORE DUP3 MLOAD SWAP4 DUP5 MSTORE SWAP1 DUP4 ADD DUP2 SWAP1 MSTORE SWAP3 POP PUSH32 0x12769FD465856C3651942A04374F21755B56A66422AAED87C7E56E936F6DD3D0 SWAP2 ADD PUSH2 0x2E38 JUMP JUMPDEST DUP3 DUP1 SLOAD DUP3 DUP3 SSTORE SWAP1 PUSH1 0x0 MSTORE PUSH1 0x20 PUSH1 0x0 KECCAK256 SWAP1 DUP2 ADD SWAP3 DUP3 ISZERO PUSH2 0x49BC JUMPI SWAP2 PUSH1 0x20 MUL DUP3 ADD JUMPDEST DUP3 DUP2 GT ISZERO PUSH2 0x49BC JUMPI DUP3 MLOAD DUP3 SWAP1 PUSH2 0x49AC SWAP1 DUP3 PUSH2 0x5BFD JUMP JUMPDEST POP SWAP2 PUSH1 0x20 ADD SWAP2 SWAP1 PUSH1 0x1 ADD SWAP1 PUSH2 0x4996 JUMP JUMPDEST POP PUSH2 0x49C8 SWAP3 SWAP2 POP PUSH2 0x4A1E JUMP JUMPDEST POP SWAP1 JUMP JUMPDEST DUP3 DUP1 SLOAD DUP3 DUP3 SSTORE SWAP1 PUSH1 0x0 MSTORE PUSH1 0x20 PUSH1 0x0 KECCAK256 SWAP1 DUP2 ADD SWAP3 DUP3 ISZERO PUSH2 0x4A12 JUMPI SWAP2 PUSH1 0x20 MUL DUP3 ADD JUMPDEST DUP3 DUP2 GT ISZERO PUSH2 0x4A12 JUMPI DUP3 MLOAD DUP3 SWAP1 PUSH2 0x4A02 SWAP1 DUP3 PUSH2 0x5BFD JUMP JUMPDEST POP SWAP2 PUSH1 0x20 ADD SWAP2 SWAP1 PUSH1 0x1 ADD SWAP1 PUSH2 0x49EC JUMP JUMPDEST POP PUSH2 0x49C8 SWAP3 SWAP2 POP PUSH2 0x4A3B JUMP JUMPDEST DUP1 DUP3 GT ISZERO PUSH2 0x49C8 JUMPI PUSH1 0x0 PUSH2 0x4A32 DUP3 DUP3 PUSH2 0x4A58 JUMP JUMPDEST POP PUSH1 0x1 ADD PUSH2 0x4A1E JUMP JUMPDEST DUP1 DUP3 GT ISZERO PUSH2 0x49C8 JUMPI PUSH1 0x0 PUSH2 0x4A4F DUP3 DUP3 PUSH2 0x4A58 JUMP JUMPDEST POP PUSH1 0x1 ADD PUSH2 0x4A3B JUMP JUMPDEST POP DUP1 SLOAD PUSH2 0x4A64 SWAP1 PUSH2 0x54C5 JUMP JUMPDEST PUSH1 0x0 DUP3 SSTORE DUP1 PUSH1 0x1F LT PUSH2 0x4A74 JUMPI POP POP JUMP JUMPDEST PUSH1 0x1F ADD PUSH1 0x20 SWAP1 DIV SWAP1 PUSH1 0x0 MSTORE PUSH1 0x20 PUSH1 0x0 KECCAK256 SWAP1 DUP2 ADD SWAP1 PUSH2 0xD61 SWAP2 SWAP1 JUMPDEST DUP1 DUP3 GT ISZERO PUSH2 0x49C8 JUMPI PUSH1 0x0 DUP2 SSTORE PUSH1 0x1 ADD PUSH2 0x4A8E JUMP JUMPDEST PUSH1 0x0 PUSH1 0x20 DUP3 DUP5 SUB SLT ISZERO PUSH2 0x4AB4 JUMPI PUSH1 0x0 DUP1 REVERT JUMPDEST POP CALLDATALOAD SWAP2 SWAP1 POP JUMP JUMPDEST PUSH1 0x1 PUSH1 0x1 PUSH1 0xA0 SHL SUB DUP2 AND DUP2 EQ PUSH2 0xD61 JUMPI PUSH1 0x0 DUP1 REVERT JUMPDEST PUSH1 0x0 PUSH1 0x20 DUP3 DUP5 SUB SLT ISZERO PUSH2 0x4AE2 JUMPI PUSH1 0x0 DUP1 REVERT JUMPDEST DUP2 CALLDATALOAD PUSH2 0x1A79 DUP2 PUSH2 0x4ABB JUMP JUMPDEST PUSH4 0x4E487B71 PUSH1 0xE0 SHL PUSH1 0x0 MSTORE PUSH1 0x41 PUSH1 0x4 MSTORE PUSH1 0x24 PUSH1 0x0 REVERT JUMPDEST PUSH1 0x40 MLOAD PUSH1 0x1F DUP3 ADD PUSH1 0x1F NOT AND DUP2 ADD PUSH1 0x1 PUSH1 0x1 PUSH1 0x40 SHL SUB DUP2 GT DUP3 DUP3 LT OR ISZERO PUSH2 0x4B2B JUMPI PUSH2 0x4B2B PUSH2 0x4AED JUMP JUMPDEST PUSH1 0x40 MSTORE SWAP2 SWAP1 POP JUMP JUMPDEST PUSH1 0x0 PUSH1 0x1 PUSH1 0x1 PUSH1 0x40 SHL SUB DUP3 GT ISZERO PUSH2 0x4B4C JUMPI PUSH2 0x4B4C PUSH2 0x4AED JUMP JUMPDEST POP PUSH1 0x1F ADD PUSH1 0x1F NOT AND PUSH1 0x20 ADD SWAP1 JUMP JUMPDEST PUSH1 0x0 PUSH2 0x4B6D PUSH2 0x4B68 DUP5 PUSH2 0x4B33 JUMP JUMPDEST PUSH2 0x4B03 JUMP JUMPDEST SWAP1 POP DUP3 DUP2 MSTORE DUP4 DUP4 DUP4 ADD GT ISZERO PUSH2 0x4B81 JUMPI PUSH1 0x0 DUP1 REVERT JUMPDEST DUP3 DUP3 PUSH1 0x20 DUP4 ADD CALLDATACOPY PUSH1 0x0 PUSH1 0x20 DUP5 DUP4 ADD ADD MSTORE SWAP4 SWAP3 POP POP POP JUMP JUMPDEST PUSH1 0x0 DUP3 PUSH1 0x1F DUP4 ADD SLT PUSH2 0x4BA9 JUMPI PUSH1 0x0 DUP1 REVERT JUMPDEST PUSH2 0x1A79 DUP4 DUP4 CALLDATALOAD PUSH1 0x20 DUP6 ADD PUSH2 0x4B5A JUMP JUMPDEST PUSH1 0x0 PUSH1 0x20 DUP3 DUP5 SUB SLT ISZERO PUSH2 0x4BCA JUMPI PUSH1 0x0 DUP1 REVERT JUMPDEST DUP2 CALLDATALOAD PUSH1 0x1 PUSH1 0x1 PUSH1 0x40 SHL SUB DUP2 GT ISZERO PUSH2 0x4BE0 JUMPI PUSH1 0x0 DUP1 REVERT JUMPDEST PUSH2 0x4BEC DUP5 DUP3 DUP6 ADD PUSH2 0x4B98 JUMP JUMPDEST SWAP5 SWAP4 POP POP POP POP JUMP JUMPDEST PUSH1 0x0 DUP1 PUSH1 0x40 DUP4 DUP6 SUB SLT ISZERO PUSH2 0x4C07 JUMPI PUSH1 0x0 DUP1 REVERT JUMPDEST DUP3 CALLDATALOAD PUSH1 0x1 PUSH1 0x1 PUSH1 0x40 SHL SUB DUP2 GT ISZERO PUSH2 0x4C1D JUMPI PUSH1 0x0 DUP1 REVERT JUMPDEST PUSH2 0x4C29 DUP6 DUP3 DUP7 ADD PUSH2 0x4B98 JUMP JUMPDEST SWAP3 POP POP PUSH1 0x20 DUP4 ADD CALLDATALOAD PUSH2 0x4C3A DUP2 PUSH2 0x4ABB JUMP JUMPDEST DUP1 SWAP2 POP POP SWAP3 POP SWAP3 SWAP1 POP JUMP JUMPDEST DUP1 ISZERO ISZERO DUP2 EQ PUSH2 0xD61 JUMPI PUSH1 0x0 DUP1 REVERT JUMPDEST PUSH1 0x0 DUP1 PUSH1 0x0 PUSH1 0x60 DUP5 DUP7 SUB SLT ISZERO PUSH2 0x4C68 JUMPI PUSH1 0x0 DUP1 REVERT JUMPDEST DUP4 CALLDATALOAD SWAP3 POP PUSH1 0x20 DUP5 ADD CALLDATALOAD SWAP2 POP PUSH1 0x40 DUP5 ADD CALLDATALOAD PUSH2 0x4C81 DUP2 PUSH2 0x4C45 JUMP JUMPDEST DUP1 SWAP2 POP POP SWAP3 POP SWAP3 POP SWAP3 JUMP JUMPDEST PUSH1 0x0 DUP1 PUSH1 0x40 DUP4 DUP6 SUB SLT ISZERO PUSH2 0x4C9F JUMPI PUSH1 0x0 DUP1 REVERT JUMPDEST POP POP DUP1 CALLDATALOAD SWAP3 PUSH1 0x20 SWAP1 SWAP2 ADD CALLDATALOAD SWAP2 POP JUMP JUMPDEST PUSH1 0x0 PUSH1 0x1 PUSH1 0x1 PUSH1 0x40 SHL SUB DUP3 GT ISZERO PUSH2 0x4CC7 JUMPI PUSH2 0x4CC7 PUSH2 0x4AED JUMP JUMPDEST POP PUSH1 0x5 SHL PUSH1 0x20 ADD SWAP1 JUMP JUMPDEST PUSH1 0x0 DUP3 PUSH1 0x1F DUP4 ADD SLT PUSH2 0x4CE2 JUMPI PUSH1 0x0 DUP1 REVERT JUMPDEST DUP2 CALLDATALOAD PUSH1 0x20 PUSH2 0x4CF2 PUSH2 0x4B68 DUP4 PUSH2 0x4CAE JUMP JUMPDEST DUP3 DUP2 MSTORE PUSH1 0x5 SWAP3 SWAP1 SWAP3 SHL DUP5 ADD DUP2 ADD SWAP2 DUP2 DUP2 ADD SWAP1 DUP7 DUP5 GT ISZERO PUSH2 0x4D11 JUMPI PUSH1 0x0 DUP1 REVERT JUMPDEST DUP3 DUP7 ADD JUMPDEST DUP5 DUP2 LT ISZERO PUSH2 0x4D65 JUMPI DUP1 CALLDATALOAD PUSH1 0x1 PUSH1 0x1 PUSH1 0x40 SHL SUB DUP2 GT ISZERO PUSH2 0x4D34 JUMPI PUSH1 0x0 DUP1 DUP2 REVERT JUMPDEST DUP8 ADD PUSH1 0x3F DUP2 ADD DUP10 SGT PUSH2 0x4D46 JUMPI PUSH1 0x0 DUP1 DUP2 REVERT JUMPDEST PUSH2 0x4D57 DUP10 DUP7 DUP4 ADD CALLDATALOAD PUSH1 0x40 DUP5 ADD PUSH2 0x4B5A JUMP JUMPDEST DUP5 MSTORE POP SWAP2 DUP4 ADD SWAP2 DUP4 ADD PUSH2 0x4D15 JUMP JUMPDEST POP SWAP7 SWAP6 POP POP POP POP POP POP JUMP JUMPDEST PUSH1 0x0 DUP1 PUSH1 0x40 DUP4 DUP6 SUB SLT ISZERO PUSH2 0x4D83 JUMPI PUSH1 0x0 DUP1 REVERT JUMPDEST DUP3 CALLDATALOAD PUSH1 0x1 PUSH1 0x1 PUSH1 0x40 SHL SUB DUP1 DUP3 GT ISZERO PUSH2 0x4D9A JUMPI PUSH1 0x0 DUP1 REVERT JUMPDEST DUP2 DUP6 ADD SWAP2 POP DUP6 PUSH1 0x1F DUP4 ADD SLT PUSH2 0x4DAE JUMPI PUSH1 0x0 DUP1 REVERT JUMPDEST DUP2 CALLDATALOAD PUSH1 0x20 PUSH2 0x4DBE PUSH2 0x4B68 DUP4 PUSH2 0x4CAE JUMP JUMPDEST DUP3 DUP2 MSTORE PUSH1 0x5 SWAP3 SWAP1 SWAP3 SHL DUP5 ADD DUP2 ADD SWAP2 DUP2 DUP2 ADD SWAP1 DUP10 DUP5 GT ISZERO PUSH2 0x4DDD JUMPI PUSH1 0x0 DUP1 REVERT JUMPDEST DUP3 DUP7 ADD JUMPDEST DUP5 DUP2 LT ISZERO PUSH2 0x4E15 JUMPI DUP1 CALLDATALOAD DUP7 DUP2 GT ISZERO PUSH2 0x4DF9 JUMPI PUSH1 0x0 DUP1 DUP2 REVERT JUMPDEST PUSH2 0x4E07 DUP13 DUP7 DUP4 DUP12 ADD ADD PUSH2 0x4B98 JUMP JUMPDEST DUP5 MSTORE POP SWAP2 DUP4 ADD SWAP2 DUP4 ADD PUSH2 0x4DE1 JUMP JUMPDEST POP SWAP7 POP POP DUP7 ADD CALLDATALOAD SWAP3 POP POP DUP1 DUP3 GT ISZERO PUSH2 0x4E2C JUMPI PUSH1 0x0 DUP1 REVERT JUMPDEST POP PUSH2 0x4E39 DUP6 DUP3 DUP7 ADD PUSH2 0x4CD1 JUMP JUMPDEST SWAP2 POP POP SWAP3 POP SWAP3 SWAP1 POP JUMP JUMPDEST PUSH1 0x0 DUP1 PUSH1 0x0 DUP1 PUSH1 0x80 DUP6 DUP8 SUB SLT ISZERO PUSH2 0x4E59 JUMPI PUSH1 0x0 DUP1 REVERT JUMPDEST DUP5 CALLDATALOAD SWAP4 POP PUSH1 0x20 DUP6 ADD CALLDATALOAD PUSH2 0x4E6B DUP2 PUSH2 0x4ABB JUMP JUMPDEST SWAP3 POP PUSH1 0x40 DUP6 ADD CALLDATALOAD SWAP2 POP PUSH1 0x60 DUP6 ADD CALLDATALOAD PUSH2 0x4E82 DUP2 PUSH2 0x4ABB JUMP JUMPDEST SWAP4 SWAP7 SWAP3 SWAP6 POP SWAP1 SWAP4 POP POP JUMP JUMPDEST PUSH1 0x0 DUP1 PUSH1 0x40 DUP4 DUP6 SUB SLT ISZERO PUSH2 0x4EA0 JUMPI PUSH1 0x0 DUP1 REVERT JUMPDEST DUP3 CALLDATALOAD SWAP2 POP PUSH1 0x20 DUP4 ADD CALLDATALOAD PUSH2 0x4C3A DUP2 PUSH2 0x4ABB JUMP JUMPDEST PUSH1 0x0 DUP1 PUSH1 0x0 PUSH1 0x60 DUP5 DUP7 SUB SLT ISZERO PUSH2 0x4EC7 JUMPI PUSH1 0x0 DUP1 REVERT JUMPDEST DUP4 CALLDATALOAD PUSH1 0x1 PUSH1 0x1 PUSH1 0x40 SHL SUB DUP2 GT ISZERO PUSH2 0x4EDD JUMPI PUSH1 0x0 DUP1 REVERT JUMPDEST PUSH2 0x4EE9 DUP7 DUP3 DUP8 ADD PUSH2 0x4B98 JUMP JUMPDEST SWAP4 POP POP PUSH1 0x20 DUP5 ADD CALLDATALOAD PUSH2 0x4EFA DUP2 PUSH2 0x4ABB JUMP JUMPDEST SWAP3 SWAP6 SWAP3 SWAP5 POP POP POP PUSH1 0x40 SWAP2 SWAP1 SWAP2 ADD CALLDATALOAD SWAP1 JUMP JUMPDEST PUSH1 0x0 DUP1 PUSH1 0x40 DUP4 DUP6 SUB SLT ISZERO PUSH2 0x4F1E JUMPI PUSH1 0x0 DUP1 REVERT JUMPDEST DUP3 CALLDATALOAD PUSH2 0x4F29 DUP2 PUSH2 0x4ABB JUMP JUMPDEST SWAP5 PUSH1 0x20 SWAP4 SWAP1 SWAP4 ADD CALLDATALOAD SWAP4 POP POP POP JUMP JUMPDEST PUSH1 0x0 DUP1 PUSH1 0x0 DUP1 PUSH1 0x80 DUP6 DUP8 SUB SLT ISZERO PUSH2 0x4F4D JUMPI PUSH1 0x0 DUP1 REVERT JUMPDEST DUP5 CALLDATALOAD PUSH1 0x1 PUSH1 0x1 PUSH1 0x40 SHL SUB DUP1 DUP3 GT ISZERO PUSH2 0x4F64 JUMPI PUSH1 0x0 DUP1 REVERT JUMPDEST PUSH2 0x4F70 DUP9 DUP4 DUP10 ADD PUSH2 0x4B98 JUMP JUMPDEST SWAP6 POP PUSH1 0x20 DUP8 ADD CALLDATALOAD SWAP2 POP DUP1 DUP3 GT ISZERO PUSH2 0x4F86 JUMPI PUSH1 0x0 DUP1 REVERT JUMPDEST POP PUSH2 0x4F93 DUP8 DUP3 DUP9 ADD PUSH2 0x4B98 JUMP JUMPDEST SWAP4 POP POP PUSH1 0x40 DUP6 ADD CALLDATALOAD PUSH2 0x4FA4 DUP2 PUSH2 0x4ABB JUMP JUMPDEST SWAP4 SWAP7 SWAP3 SWAP6 POP SWAP3 SWAP4 PUSH1 0x60 ADD CALLDATALOAD SWAP3 POP POP JUMP JUMPDEST PUSH1 0x0 DUP1 PUSH1 0x0 PUSH1 0x60 DUP5 DUP7 SUB SLT ISZERO PUSH2 0x4FC9 JUMPI PUSH1 0x0 DUP1 REVERT JUMPDEST POP POP DUP2 CALLDATALOAD SWAP4 PUSH1 0x20 DUP4 ADD CALLDATALOAD SWAP4 POP PUSH1 0x40 SWAP1 SWAP3 ADD CALLDATALOAD SWAP2 SWAP1 POP JUMP JUMPDEST PUSH1 0x0 DUP1 PUSH1 0x0 PUSH1 0x60 DUP5 DUP7 SUB SLT ISZERO PUSH2 0x4FF5 JUMPI PUSH1 0x0 DUP1 REVERT JUMPDEST DUP4 CALLDATALOAD SWAP3 POP PUSH1 0x20 DUP5 ADD CALLDATALOAD SWAP2 POP PUSH1 0x40 DUP5 ADD CALLDATALOAD PUSH2 0x4C81 DUP2 PUSH2 0x4ABB JUMP JUMPDEST PUSH1 0x3 DUP2 LT PUSH2 0xD61 JUMPI PUSH1 0x0 DUP1 REVERT JUMPDEST PUSH1 0x0 DUP1 PUSH1 0x0 PUSH1 0x60 DUP5 DUP7 SUB SLT ISZERO PUSH2 0x5030 JUMPI PUSH1 0x0 DUP1 REVERT JUMPDEST DUP4 CALLDATALOAD PUSH1 0x1 PUSH1 0x1 PUSH1 0x40 SHL SUB DUP2 GT ISZERO PUSH2 0x5046 JUMPI PUSH1 0x0 DUP1 REVERT JUMPDEST PUSH2 0x5052 DUP7 DUP3 DUP8 ADD PUSH2 0x4B98 JUMP JUMPDEST SWAP4 POP POP PUSH1 0x20 DUP5 ADD CALLDATALOAD PUSH2 0x5063 DUP2 PUSH2 0x4ABB JUMP JUMPDEST SWAP2 POP PUSH1 0x40 DUP5 ADD CALLDATALOAD PUSH2 0x4C81 DUP2 PUSH2 0x500E JUMP JUMPDEST PUSH1 0x0 DUP1 PUSH1 0x0 DUP1 PUSH1 0x80 DUP6 DUP8 SUB SLT ISZERO PUSH2 0x5089 JUMPI PUSH1 0x0 DUP1 REVERT JUMPDEST DUP5 CALLDATALOAD PUSH1 0x1 PUSH1 0x1 PUSH1 0x40 SHL SUB DUP2 GT ISZERO PUSH2 0x509F JUMPI PUSH1 0x0 DUP1 REVERT JUMPDEST PUSH2 0x50AB DUP8 DUP3 DUP9 ADD PUSH2 0x4B98 JUMP JUMPDEST SWAP5 POP POP PUSH1 0x20 DUP6 ADD CALLDATALOAD PUSH2 0x4E6B DUP2 PUSH2 0x4ABB JUMP JUMPDEST PUSH1 0x0 DUP1 PUSH1 0x0 DUP1 PUSH1 0x0 PUSH1 0xA0 DUP7 DUP9 SUB SLT ISZERO PUSH2 0x50D4 JUMPI PUSH1 0x0 DUP1 REVERT JUMPDEST DUP6 CALLDATALOAD SWAP5 POP PUSH1 0x20 DUP7 ADD CALLDATALOAD SWAP4 POP PUSH1 0x40 DUP7 ADD CALLDATALOAD PUSH2 0x50ED DUP2 PUSH2 0x4ABB JUMP JUMPDEST SWAP3 POP PUSH1 0x60 DUP7 ADD CALLDATALOAD SWAP2 POP PUSH1 0x80 DUP7 ADD CALLDATALOAD PUSH2 0x5104 DUP2 PUSH2 0x4ABB JUMP JUMPDEST DUP1 SWAP2 POP POP SWAP3 SWAP6 POP SWAP3 SWAP6 SWAP1 SWAP4 POP JUMP JUMPDEST PUSH4 0x4E487B71 PUSH1 0xE0 SHL PUSH1 0x0 MSTORE PUSH1 0x11 PUSH1 0x4 MSTORE PUSH1 0x24 PUSH1 0x0 REVERT JUMPDEST DUP1 DUP3 ADD DUP1 DUP3 GT ISZERO PUSH2 0xF70 JUMPI PUSH2 0xF70 PUSH2 0x5112 JUMP JUMPDEST PUSH1 0x20 DUP1 DUP3 MSTORE PUSH1 0x2 SWAP1 DUP3 ADD MSTORE PUSH2 0x9E9 PUSH1 0xF3 SHL PUSH1 0x40 DUP3 ADD MSTORE PUSH1 0x60 ADD SWAP1 JUMP JUMPDEST PUSH1 0x20 DUP1 DUP3 MSTORE PUSH1 0x2 SWAP1 DUP3 ADD MSTORE PUSH2 0x5553 PUSH1 0xF0 SHL PUSH1 0x40 DUP3 ADD MSTORE PUSH1 0x60 ADD SWAP1 JUMP JUMPDEST PUSH4 0x4E487B71 PUSH1 0xE0 SHL PUSH1 0x0 MSTORE PUSH1 0x21 PUSH1 0x4 MSTORE PUSH1 0x24 PUSH1 0x0 REVERT JUMPDEST PUSH1 0x0 JUMPDEST DUP4 DUP2 LT ISZERO PUSH2 0x51A4 JUMPI DUP2 DUP2 ADD MLOAD DUP4 DUP3 ADD MSTORE PUSH1 0x20 ADD PUSH2 0x518C JUMP JUMPDEST POP POP PUSH1 0x0 SWAP2 ADD MSTORE JUMP JUMPDEST PUSH1 0x0 DUP3 MLOAD PUSH2 0x51BF DUP2 DUP5 PUSH1 0x20 DUP8 ADD PUSH2 0x5189 JUMP JUMPDEST SWAP2 SWAP1 SWAP2 ADD SWAP3 SWAP2 POP POP JUMP JUMPDEST PUSH1 0x20 DUP1 DUP3 MSTORE PUSH1 0x2 SWAP1 DUP3 ADD MSTORE PUSH2 0x1153 PUSH1 0xF2 SHL PUSH1 0x40 DUP3 ADD MSTORE PUSH1 0x60 ADD SWAP1 JUMP JUMPDEST DUP1 DUP3 MUL DUP2 ISZERO DUP3 DUP3 DIV DUP5 EQ OR PUSH2 0xF70 JUMPI PUSH2 0xF70 PUSH2 0x5112 JUMP JUMPDEST PUSH1 0x0 DUP3 PUSH2 0x5219 JUMPI PUSH4 0x4E487B71 PUSH1 0xE0 SHL PUSH1 0x0 MSTORE PUSH1 0x12 PUSH1 0x4 MSTORE PUSH1 0x24 PUSH1 0x0 REVERT JUMPDEST POP DIV SWAP1 JUMP JUMPDEST DUP2 DUP2 SUB DUP2 DUP2 GT ISZERO PUSH2 0xF70 JUMPI PUSH2 0xF70 PUSH2 0x5112 JUMP JUMPDEST PUSH1 0x0 PUSH1 0x20 DUP3 DUP5 SUB SLT ISZERO PUSH2 0x5243 JUMPI PUSH1 0x0 DUP1 REVERT JUMPDEST POP MLOAD SWAP2 SWAP1 POP JUMP JUMPDEST PUSH1 0x20 DUP1 DUP3 MSTORE PUSH1 0x2 SWAP1 DUP3 ADD MSTORE PUSH2 0x1255 PUSH1 0xF2 SHL PUSH1 0x40 DUP3 ADD MSTORE PUSH1 0x60 ADD SWAP1 JUMP JUMPDEST PUSH1 0x0 PUSH1 0x20 DUP3 DUP5 SUB SLT ISZERO PUSH2 0x5278 JUMPI PUSH1 0x0 DUP1 REVERT JUMPDEST DUP2 MLOAD PUSH2 0x1A79 DUP2 PUSH2 0x4C45 JUMP JUMPDEST PUSH1 0x20 DUP1 DUP3 MSTORE PUSH1 0x2 SWAP1 DUP3 ADD MSTORE PUSH2 0x1395 PUSH1 0xF2 SHL PUSH1 0x40 DUP3 ADD MSTORE PUSH1 0x60 ADD SWAP1 JUMP JUMPDEST PUSH1 0x3 DUP2 LT PUSH2 0xD61 JUMPI PUSH4 0x4E487B71 PUSH1 0xE0 SHL PUSH1 0x0 MSTORE PUSH1 0x21 PUSH1 0x4 MSTORE PUSH1 0x24 PUSH1 0x0 REVERT JUMPDEST PUSH1 0xC0 DUP2 ADD PUSH2 0x52CA DUP6 PUSH2 0x529F JUMP JUMPDEST DUP5 DUP3 MSTORE DUP4 PUSH1 0x20 DUP4 ADD MSTORE DUP3 MLOAD PUSH1 0x40 DUP4 ADD MSTORE PUSH1 0x20 DUP4 ADD MLOAD PUSH1 0x60 DUP4 ADD MSTORE PUSH1 0x40 DUP4 ADD MLOAD PUSH1 0x1 DUP1 PUSH1 0xA0 SHL SUB DUP1 DUP3 AND PUSH1 0x80 DUP6 ADD MSTORE DUP1 PUSH1 0x60 DUP7 ADD MLOAD AND PUSH1 0xA0 DUP6 ADD MSTORE POP POP SWAP5 SWAP4 POP POP POP POP JUMP JUMPDEST PUSH1 0x0 DUP2 MLOAD DUP1 DUP5 MSTORE PUSH2 0x5326 DUP2 PUSH1 0x20 DUP7 ADD PUSH1 0x20 DUP7 ADD PUSH2 0x5189 JUMP JUMPDEST PUSH1 0x1F ADD PUSH1 0x1F NOT AND SWAP3 SWAP1 SWAP3 ADD PUSH1 0x20 ADD SWAP3 SWAP2 POP POP JUMP JUMPDEST PUSH1 0x60 DUP2 MSTORE PUSH1 0x2 PUSH1 0x60 DUP3 ADD MSTORE PUSH2 0x1911 PUSH1 0xF2 SHL PUSH1 0x80 DUP3 ADD MSTORE PUSH1 0xA0 PUSH1 0x20 DUP3 ADD MSTORE PUSH1 0x0 PUSH2 0x5366 PUSH1 0xA0 DUP4 ADD DUP6 PUSH2 0x530E JUMP JUMPDEST SWAP1 POP PUSH1 0x1 DUP1 PUSH1 0xA0 SHL SUB DUP4 AND PUSH1 0x40 DUP4 ADD MSTORE SWAP4 SWAP3 POP POP POP JUMP JUMPDEST PUSH1 0x40 DUP2 MSTORE PUSH1 0x0 PUSH2 0x5390 PUSH1 0x40 DUP4 ADD DUP6 PUSH2 0x530E JUMP JUMPDEST SWAP1 POP PUSH1 0x1 DUP1 PUSH1 0xA0 SHL SUB DUP4 AND PUSH1 0x20 DUP4 ADD MSTORE SWAP4 SWAP3 POP POP POP JUMP JUMPDEST PUSH1 0x60 DUP2 MSTORE PUSH1 0x2 PUSH1 0x60 DUP3 ADD MSTORE PUSH2 0x31A1 PUSH1 0xF1 SHL PUSH1 0x80 DUP3 ADD MSTORE PUSH1 0xA0 PUSH1 0x20 DUP3 ADD MSTORE PUSH1 0x0 PUSH2 0x5366 PUSH1 0xA0 DUP4 ADD DUP6 PUSH2 0x530E JUMP JUMPDEST PUSH1 0x60 DUP2 MSTORE PUSH1 0x2 PUSH1 0x60 DUP3 ADD MSTORE PUSH2 0x7241 PUSH1 0xF0 SHL PUSH1 0x80 DUP3 ADD MSTORE PUSH1 0xA0 PUSH1 0x20 DUP3 ADD MSTORE PUSH1 0x0 PUSH2 0x5366 PUSH1 0xA0 DUP4 ADD DUP6 PUSH2 0x530E JUMP JUMPDEST PUSH1 0x60 DUP2 MSTORE PUSH1 0x2 PUSH1 0x60 DUP3 ADD MSTORE PUSH2 0x34A9 PUSH1 0xF1 SHL PUSH1 0x80 DUP3 ADD MSTORE PUSH1 0xA0 PUSH1 0x20 DUP3 ADD MSTORE PUSH1 0x0 PUSH2 0x5366 PUSH1 0xA0 DUP4 ADD DUP6 PUSH2 0x530E JUMP JUMPDEST PUSH1 0x0 PUSH1 0x1 DUP3 ADD PUSH2 0x543D JUMPI PUSH2 0x543D PUSH2 0x5112 JUMP JUMPDEST POP PUSH1 0x1 ADD SWAP1 JUMP JUMPDEST PUSH1 0x20 DUP2 MSTORE PUSH1 0x0 PUSH2 0x1A79 PUSH1 0x20 DUP4 ADD DUP5 PUSH2 0x530E JUMP JUMPDEST PUSH1 0x60 DUP2 MSTORE PUSH1 0x2 PUSH1 0x60 DUP3 ADD MSTORE PUSH2 0x3221 PUSH1 0xF1 SHL PUSH1 0x80 DUP3 ADD MSTORE PUSH1 0xA0 PUSH1 0x20 DUP3 ADD MSTORE PUSH1 0x0 PUSH2 0x5366 PUSH1 0xA0 DUP4 ADD DUP6 PUSH2 0x530E JUMP JUMPDEST PUSH1 0x60 DUP2 MSTORE PUSH1 0x2 PUSH1 0x60 DUP3 ADD MSTORE PUSH2 0x6953 PUSH1 0xF0 SHL PUSH1 0x80 DUP3 ADD MSTORE PUSH1 0xA0 PUSH1 0x20 DUP3 ADD MSTORE PUSH1 0x0 PUSH2 0x5366 PUSH1 0xA0 DUP4 ADD DUP6 PUSH2 0x530E JUMP JUMPDEST PUSH4 0x4E487B71 PUSH1 0xE0 SHL PUSH1 0x0 MSTORE PUSH1 0x32 PUSH1 0x4 MSTORE PUSH1 0x24 PUSH1 0x0 REVERT JUMPDEST PUSH1 0x1 DUP2 DUP2 SHR SWAP1 DUP3 AND DUP1 PUSH2 0x54D9 JUMPI PUSH1 0x7F DUP3 AND SWAP2 POP JUMPDEST PUSH1 0x20 DUP3 LT DUP2 SUB PUSH2 0x54F9 JUMPI PUSH4 0x4E487B71 PUSH1 0xE0 SHL PUSH1 0x0 MSTORE PUSH1 0x22 PUSH1 0x4 MSTORE PUSH1 0x24 PUSH1 0x0 REVERT JUMPDEST POP SWAP2 SWAP1 POP JUMP JUMPDEST PUSH1 0x0 PUSH2 0x550D PUSH2 0x4B68 DUP5 PUSH2 0x4B33 JUMP JUMPDEST SWAP1 POP DUP3 DUP2 MSTORE DUP4 DUP4 DUP4 ADD GT ISZERO PUSH2 0x5521 JUMPI PUSH1 0x0 DUP1 REVERT JUMPDEST PUSH2 0x1A79 DUP4 PUSH1 0x20 DUP4 ADD DUP5 PUSH2 0x5189 JUMP JUMPDEST PUSH1 0x0 DUP3 PUSH1 0x1F DUP4 ADD SLT PUSH2 0x5540 JUMPI PUSH1 0x0 DUP1 REVERT JUMPDEST PUSH2 0x1A79 DUP4 DUP4 MLOAD PUSH1 0x20 DUP6 ADD PUSH2 0x54FF JUMP JUMPDEST PUSH1 0x0 DUP3 PUSH1 0x1F DUP4 ADD SLT PUSH2 0x5560 JUMPI PUSH1 0x0 DUP1 REVERT JUMPDEST DUP2 MLOAD PUSH1 0x20 PUSH2 0x5570 PUSH2 0x4B68 DUP4 PUSH2 0x4CAE JUMP JUMPDEST DUP3 DUP2 MSTORE PUSH1 0x5 SWAP3 SWAP1 SWAP3 SHL DUP5 ADD DUP2 ADD SWAP2 DUP2 DUP2 ADD SWAP1 DUP7 DUP5 GT ISZERO PUSH2 0x558F JUMPI PUSH1 0x0 DUP1 REVERT JUMPDEST DUP3 DUP7 ADD JUMPDEST DUP5 DUP2 LT ISZERO PUSH2 0x4D65 JUMPI DUP1 MLOAD PUSH1 0x1 PUSH1 0x1 PUSH1 0x40 SHL SUB DUP2 GT ISZERO PUSH2 0x55B2 JUMPI PUSH1 0x0 DUP1 DUP2 REVERT JUMPDEST DUP8 ADD PUSH1 0x3F DUP2 ADD DUP10 SGT PUSH2 0x55C4 JUMPI PUSH1 0x0 DUP1 DUP2 REVERT JUMPDEST PUSH2 0x55D5 DUP10 DUP7 DUP4 ADD MLOAD PUSH1 0x40 DUP5 ADD PUSH2 0x54FF JUMP JUMPDEST DUP5 MSTORE POP SWAP2 DUP4 ADD SWAP2 DUP4 ADD PUSH2 0x5593 JUMP JUMPDEST PUSH1 0x0 DUP1 PUSH1 0x40 DUP4 DUP6 SUB SLT ISZERO PUSH2 0x55F6 JUMPI PUSH1 0x0 DUP1 REVERT JUMPDEST DUP3 MLOAD PUSH1 0x1 PUSH1 0x1 PUSH1 0x40 SHL SUB DUP1 DUP3 GT ISZERO PUSH2 0x560D JUMPI PUSH1 0x0 DUP1 REVERT JUMPDEST DUP2 DUP6 ADD SWAP2 POP DUP6 PUSH1 0x1F DUP4 ADD SLT PUSH2 0x5621 JUMPI PUSH1 0x0 DUP1 REVERT JUMPDEST DUP2 MLOAD PUSH1 0x20 PUSH2 0x5631 PUSH2 0x4B68 DUP4 PUSH2 0x4CAE JUMP JUMPDEST DUP3 DUP2 MSTORE PUSH1 0x5 SWAP3 SWAP1 SWAP3 SHL DUP5 ADD DUP2 ADD SWAP2 DUP2 DUP2 ADD SWAP1 DUP10 DUP5 GT ISZERO PUSH2 0x5650 JUMPI PUSH1 0x0 DUP1 REVERT JUMPDEST DUP3 DUP7 ADD JUMPDEST DUP5 DUP2 LT ISZERO PUSH2 0x5688 JUMPI DUP1 MLOAD DUP7 DUP2 GT ISZERO PUSH2 0x566C JUMPI PUSH1 0x0 DUP1 DUP2 REVERT JUMPDEST PUSH2 0x567A DUP13 DUP7 DUP4 DUP12 ADD ADD PUSH2 0x552F JUMP JUMPDEST DUP5 MSTORE POP SWAP2 DUP4 ADD SWAP2 DUP4 ADD PUSH2 0x5654 JUMP JUMPDEST POP SWAP2 DUP9 ADD MLOAD SWAP2 SWAP7 POP SWAP1 SWAP4 POP POP POP DUP1 DUP3 GT ISZERO PUSH2 0x56A2 JUMPI PUSH1 0x0 DUP1 REVERT JUMPDEST POP PUSH2 0x4E39 DUP6 DUP3 DUP7 ADD PUSH2 0x554F JUMP JUMPDEST PUSH1 0x0 DUP1 PUSH1 0x0 PUSH1 0x60 DUP5 DUP7 SUB SLT ISZERO PUSH2 0x56C4 JUMPI PUSH1 0x0 DUP1 REVERT JUMPDEST DUP4 MLOAD PUSH1 0x1 PUSH1 0x1 PUSH1 0x40 SHL SUB DUP2 GT ISZERO PUSH2 0x56DA JUMPI PUSH1 0x0 DUP1 REVERT JUMPDEST PUSH2 0x56E6 DUP7 DUP3 DUP8 ADD PUSH2 0x552F JUMP JUMPDEST SWAP4 POP POP PUSH1 0x20 DUP5 ADD MLOAD PUSH2 0x56F7 DUP2 PUSH2 0x500E JUMP JUMPDEST PUSH1 0x40 DUP6 ADD MLOAD SWAP1 SWAP3 POP PUSH2 0x4C81 DUP2 PUSH2 0x4ABB JUMP JUMPDEST PUSH1 0x0 DUP1 PUSH1 0x0 DUP1 PUSH1 0x80 DUP6 DUP8 SUB SLT ISZERO PUSH2 0x571E JUMPI PUSH1 0x0 DUP1 REVERT JUMPDEST DUP5 MLOAD PUSH1 0x1 PUSH1 0x1 PUSH1 0x40 SHL SUB DUP2 GT ISZERO PUSH2 0x5734 JUMPI PUSH1 0x0 DUP1 REVERT JUMPDEST PUSH2 0x5740 DUP8 DUP3 DUP9 ADD PUSH2 0x552F JUMP JUMPDEST SWAP5 POP POP PUSH1 0x20 DUP6 ADD MLOAD PUSH2 0x5751 DUP2 PUSH2 0x4ABB JUMP JUMPDEST PUSH1 0x40 DUP7 ADD MLOAD PUSH1 0x60 DUP8 ADD MLOAD SWAP2 SWAP5 POP SWAP3 POP PUSH2 0x4E82 DUP2 PUSH2 0x4ABB JUMP JUMPDEST PUSH1 0x0 DUP1 PUSH1 0x0 DUP1 PUSH1 0x80 DUP6 DUP8 SUB SLT ISZERO PUSH2 0x577F JUMPI PUSH1 0x0 DUP1 REVERT JUMPDEST DUP5 MLOAD PUSH1 0x1 PUSH1 0x1 PUSH1 0x40 SHL SUB DUP1 DUP3 GT ISZERO PUSH2 0x5796 JUMPI PUSH1 0x0 DUP1 REVERT JUMPDEST PUSH2 0x57A2 DUP9 DUP4 DUP10 ADD PUSH2 0x552F JUMP JUMPDEST SWAP6 POP PUSH1 0x20 DUP8 ADD MLOAD SWAP2 POP DUP1 DUP3 GT ISZERO PUSH2 0x57B8 JUMPI PUSH1 0x0 DUP1 REVERT JUMPDEST POP PUSH2 0x57C5 DUP8 DUP3 DUP9 ADD PUSH2 0x552F JUMP JUMPDEST SWAP4 POP POP PUSH1 0x40 DUP6 ADD MLOAD PUSH2 0x57D6 DUP2 PUSH2 0x4ABB JUMP JUMPDEST PUSH1 0x60 SWAP6 SWAP1 SWAP6 ADD MLOAD SWAP4 SWAP7 SWAP3 SWAP6 POP POP POP JUMP JUMPDEST PUSH1 0x0 DUP1 PUSH1 0x0 PUSH1 0x60 DUP5 DUP7 SUB SLT ISZERO PUSH2 0x57FB JUMPI PUSH1 0x0 DUP1 REVERT JUMPDEST DUP4 MLOAD PUSH1 0x1 PUSH1 0x1 PUSH1 0x40 SHL SUB DUP2 GT ISZERO PUSH2 0x5811 JUMPI PUSH1 0x0 DUP1 REVERT JUMPDEST PUSH2 0x581D DUP7 DUP3 DUP8 ADD PUSH2 0x552F JUMP JUMPDEST SWAP4 POP POP PUSH1 0x20 DUP5 ADD MLOAD PUSH2 0x582E DUP2 PUSH2 0x4ABB JUMP JUMPDEST DUP1 SWAP3 POP POP PUSH1 0x40 DUP5 ADD MLOAD SWAP1 POP SWAP3 POP SWAP3 POP SWAP3 JUMP JUMPDEST PUSH1 0x0 DUP1 PUSH1 0x0 DUP1 PUSH1 0x80 DUP6 DUP8 SUB SLT ISZERO PUSH2 0x5856 JUMPI PUSH1 0x0 DUP1 REVERT JUMPDEST DUP5 MLOAD SWAP4 POP PUSH1 0x20 DUP6 ADD MLOAD PUSH2 0x5751 DUP2 PUSH2 0x4ABB JUMP JUMPDEST PUSH1 0x0 DUP1 PUSH1 0x40 DUP4 DUP6 SUB SLT ISZERO PUSH2 0x587B JUMPI PUSH1 0x0 DUP1 REVERT JUMPDEST DUP3 MLOAD PUSH1 0x1 PUSH1 0x1 PUSH1 0x40 SHL SUB DUP2 GT ISZERO PUSH2 0x5891 JUMPI PUSH1 0x0 DUP1 REVERT JUMPDEST PUSH2 0x589D DUP6 DUP3 DUP7 ADD PUSH2 0x552F JUMP JUMPDEST SWAP3 POP POP PUSH1 0x20 DUP4 ADD MLOAD PUSH2 0x4C3A DUP2 PUSH2 0x4ABB JUMP JUMPDEST PUSH1 0x0 PUSH1 0x20 DUP3 DUP5 SUB SLT ISZERO PUSH2 0x58C0 JUMPI PUSH1 0x0 DUP1 REVERT JUMPDEST DUP2 MLOAD PUSH1 0x1 PUSH1 0x1 PUSH1 0x40 SHL SUB DUP2 GT ISZERO PUSH2 0x58D6 JUMPI PUSH1 0x0 DUP1 REVERT JUMPDEST PUSH2 0x4BEC DUP5 DUP3 DUP6 ADD PUSH2 0x552F JUMP JUMPDEST PUSH1 0x0 PUSH1 0x20 DUP3 DUP5 SUB SLT ISZERO PUSH2 0x58F4 JUMPI PUSH1 0x0 DUP1 REVERT JUMPDEST DUP2 MLOAD PUSH2 0x1A79 DUP2 PUSH2 0x4ABB JUMP JUMPDEST PUSH1 0x60 DUP2 MSTORE PUSH1 0x2 PUSH1 0x60 DUP3 ADD MSTORE PUSH2 0x695 PUSH1 0xF4 SHL PUSH1 0x80 DUP3 ADD MSTORE PUSH1 0xA0 PUSH1 0x20 DUP3 ADD MSTORE PUSH1 0x0 PUSH2 0x5366 PUSH1 0xA0 DUP4 ADD DUP6 PUSH2 0x530E JUMP JUMPDEST PUSH1 0x20 DUP1 DUP3 MSTORE PUSH1 0x2 SWAP1 DUP3 ADD MSTORE PUSH2 0x24A3 PUSH1 0xF1 SHL PUSH1 0x40 DUP3 ADD MSTORE PUSH1 0x60 ADD SWAP1 JUMP JUMPDEST DUP5 DUP2 MSTORE PUSH1 0x80 PUSH1 0x20 DUP3 ADD MSTORE PUSH1 0x0 PUSH2 0x5960 PUSH1 0x80 DUP4 ADD DUP7 PUSH2 0x530E JUMP JUMPDEST PUSH1 0x1 PUSH1 0x1 PUSH1 0xA0 SHL SUB SWAP5 SWAP1 SWAP5 AND PUSH1 0x40 DUP4 ADD MSTORE POP PUSH1 0x60 ADD MSTORE SWAP3 SWAP2 POP POP JUMP JUMPDEST PUSH1 0x60 DUP2 MSTORE PUSH1 0x2 PUSH1 0x60 DUP3 ADD MSTORE PUSH2 0x1A51 PUSH1 0xF2 SHL PUSH1 0x80 DUP3 ADD MSTORE PUSH1 0xA0 PUSH1 0x20 DUP3 ADD MSTORE PUSH1 0x0 PUSH2 0x5366 PUSH1 0xA0 DUP4 ADD DUP6 PUSH2 0x530E JUMP JUMPDEST PUSH1 0x60 DUP2 MSTORE PUSH1 0x2 PUSH1 0x60 DUP3 ADD MSTORE PUSH2 0x1D55 PUSH1 0xF2 SHL PUSH1 0x80 DUP3 ADD MSTORE PUSH1 0xA0 PUSH1 0x20 DUP3 ADD MSTORE PUSH1 0x0 PUSH2 0x5366 PUSH1 0xA0 DUP4 ADD DUP6 PUSH2 0x530E JUMP JUMPDEST PUSH1 0x60 DUP2 MSTORE PUSH1 0x2 PUSH1 0x60 DUP3 ADD MSTORE PUSH2 0x1C95 PUSH1 0xF2 SHL PUSH1 0x80 DUP3 ADD MSTORE PUSH1 0xA0 PUSH1 0x20 DUP3 ADD MSTORE PUSH1 0x0 PUSH2 0x5366 PUSH1 0xA0 DUP4 ADD DUP6 PUSH2 0x530E JUMP JUMPDEST PUSH1 0x80 DUP2 MSTORE PUSH1 0x0 PUSH2 0x5A13 PUSH1 0x80 DUP4 ADD DUP8 PUSH2 0x530E JUMP JUMPDEST DUP3 DUP2 SUB PUSH1 0x20 DUP5 ADD MSTORE PUSH2 0x5A25 DUP2 DUP8 PUSH2 0x530E JUMP JUMPDEST PUSH1 0x1 PUSH1 0x1 PUSH1 0xA0 SHL SUB SWAP6 SWAP1 SWAP6 AND PUSH1 0x40 DUP5 ADD MSTORE POP POP PUSH1 0x60 ADD MSTORE SWAP3 SWAP2 POP POP JUMP JUMPDEST PUSH1 0x60 DUP2 MSTORE PUSH1 0x2 PUSH1 0x60 DUP3 ADD MSTORE PUSH2 0x1B55 PUSH1 0xF2 SHL PUSH1 0x80 DUP3 ADD MSTORE PUSH1 0xA0 PUSH1 0x20 DUP3 ADD MSTORE PUSH1 0x0 PUSH2 0x5366 PUSH1 0xA0 DUP4 ADD DUP6 PUSH2 0x530E JUMP JUMPDEST PUSH1 0x60 DUP2 MSTORE PUSH1 0x2 PUSH1 0x60 DUP3 ADD MSTORE PUSH2 0x6141 PUSH1 0xF0 SHL PUSH1 0x80 DUP3 ADD MSTORE PUSH1 0xA0 PUSH1 0x20 DUP3 ADD MSTORE PUSH1 0x0 PUSH2 0x5366 PUSH1 0xA0 DUP4 ADD DUP6 PUSH2 0x530E JUMP JUMPDEST PUSH1 0xC0 DUP2 ADD PUSH2 0x5AA7 DUP6 PUSH2 0x529F JUMP JUMPDEST SWAP4 DUP2 MSTORE PUSH1 0x20 DUP2 ADD SWAP3 SWAP1 SWAP3 MSTORE DUP1 SLOAD PUSH1 0x40 DUP4 ADD MSTORE PUSH1 0x1 DUP2 ADD SLOAD PUSH1 0x60 DUP4 ADD MSTORE PUSH1 0x2 DUP2 ADD SLOAD PUSH1 0x1 PUSH1 0x1 PUSH1 0xA0 SHL SUB SWAP1 DUP2 AND PUSH1 0x80 DUP5 ADD MSTORE PUSH1 0x3 SWAP1 SWAP2 ADD SLOAD AND PUSH1 0xA0 SWAP1 SWAP2 ADD MSTORE SWAP1 JUMP JUMPDEST PUSH1 0x60 DUP2 MSTORE PUSH1 0x0 PUSH2 0x5AFB PUSH1 0x60 DUP4 ADD DUP7 PUSH2 0x530E JUMP JUMPDEST PUSH1 0x1 PUSH1 0x1 PUSH1 0xA0 SHL SUB DUP6 AND PUSH1 0x20 DUP5 ADD MSTORE SWAP1 POP PUSH2 0x5B15 DUP4 PUSH2 0x529F JUMP JUMPDEST DUP3 PUSH1 0x40 DUP4 ADD MSTORE SWAP5 SWAP4 POP POP POP POP JUMP JUMPDEST PUSH1 0x60 DUP2 MSTORE PUSH1 0x2 PUSH1 0x60 DUP3 ADD MSTORE PUSH2 0x735 PUSH1 0xF4 SHL PUSH1 0x80 DUP3 ADD MSTORE PUSH1 0xA0 PUSH1 0x20 DUP3 ADD MSTORE PUSH1 0x0 PUSH2 0x5366 PUSH1 0xA0 DUP4 ADD DUP6 PUSH2 0x530E JUMP JUMPDEST PUSH1 0x80 DUP2 MSTORE PUSH1 0x0 PUSH2 0x5B62 PUSH1 0x80 DUP4 ADD DUP8 PUSH2 0x530E JUMP JUMPDEST PUSH1 0x1 PUSH1 0x1 PUSH1 0xA0 SHL SUB SWAP6 DUP7 AND PUSH1 0x20 DUP5 ADD MSTORE PUSH1 0x40 DUP4 ADD SWAP5 SWAP1 SWAP5 MSTORE POP SWAP3 AND PUSH1 0x60 SWAP1 SWAP3 ADD SWAP2 SWAP1 SWAP2 MSTORE SWAP2 SWAP1 POP JUMP JUMPDEST PUSH1 0x60 DUP2 MSTORE PUSH1 0x2 PUSH1 0x60 DUP3 ADD MSTORE PUSH2 0x1D15 PUSH1 0xF2 SHL PUSH1 0x80 DUP3 ADD MSTORE PUSH1 0xA0 PUSH1 0x20 DUP3 ADD MSTORE PUSH1 0x0 PUSH2 0x5366 PUSH1 0xA0 DUP4 ADD DUP6 PUSH2 0x530E JUMP JUMPDEST PUSH1 0x1F DUP3 GT ISZERO PUSH2 0xE3E JUMPI PUSH1 0x0 DUP2 DUP2 MSTORE PUSH1 0x20 DUP2 KECCAK256 PUSH1 0x1F DUP6 ADD PUSH1 0x5 SHR DUP2 ADD PUSH1 0x20 DUP7 LT ISZERO PUSH2 0x5BDE JUMPI POP DUP1 JUMPDEST PUSH1 0x1F DUP6 ADD PUSH1 0x5 SHR DUP3 ADD SWAP2 POP JUMPDEST DUP2 DUP2 LT ISZERO PUSH2 0x128A JUMPI DUP3 DUP2 SSTORE PUSH1 0x1 ADD PUSH2 0x5BEA JUMP JUMPDEST DUP2 MLOAD PUSH1 0x1 PUSH1 0x1 PUSH1 0x40 SHL SUB DUP2 GT ISZERO PUSH2 0x5C16 JUMPI PUSH2 0x5C16 PUSH2 0x4AED JUMP JUMPDEST PUSH2 0x5C2A DUP2 PUSH2 0x5C24 DUP5 SLOAD PUSH2 0x54C5 JUMP JUMPDEST DUP5 PUSH2 0x5BB7 JUMP JUMPDEST PUSH1 0x20 DUP1 PUSH1 0x1F DUP4 GT PUSH1 0x1 DUP2 EQ PUSH2 0x5C5F JUMPI PUSH1 0x0 DUP5 ISZERO PUSH2 0x5C47 JUMPI POP DUP6 DUP4 ADD MLOAD JUMPDEST PUSH1 0x0 NOT PUSH1 0x3 DUP7 SWAP1 SHL SHR NOT AND PUSH1 0x1 DUP6 SWAP1 SHL OR DUP6 SSTORE PUSH2 0x128A JUMP JUMPDEST PUSH1 0x0 DUP6 DUP2 MSTORE PUSH1 0x20 DUP2 KECCAK256 PUSH1 0x1F NOT DUP7 AND SWAP2 JUMPDEST DUP3 DUP2 LT ISZERO PUSH2 0x5C8E JUMPI DUP9 DUP7 ADD MLOAD DUP3 SSTORE SWAP5 DUP5 ADD SWAP5 PUSH1 0x1 SWAP1 SWAP2 ADD SWAP1 DUP5 ADD PUSH2 0x5C6F JUMP JUMPDEST POP DUP6 DUP3 LT ISZERO PUSH2 0x5CAC JUMPI DUP8 DUP6 ADD MLOAD PUSH1 0x0 NOT PUSH1 0x3 DUP9 SWAP1 SHL PUSH1 0xF8 AND SHR NOT AND DUP2 SSTORE JUMPDEST POP POP POP POP POP PUSH1 0x1 SWAP1 DUP2 SHL ADD SWAP1 SSTORE POP JUMP INVALID NUMBER 0xCD PUSH23 0xB5EB40DA9EA5EB31A199F443F7CF7955EC280BC5981A2E CALLVALUE GASLIMIT 0xC7 SWAP13 SWAP1 SSTORE LOG2 PUSH5 0x6970667358 0x22 SLT KECCAK256 0xD OR PUSH23 0xCA66D7A59F8B56631228C5B75B27666AA7E4B5F13009C1 0xB8 0xB2 DUP1 0xBF COINBASE PUSH29 0x64736F6C63430008130033000000000000000000000000000000000000 ",
  "sha1": "1c5eaff0540b1ee16ad7c240d6e0cca0d7b57c1d",
  "source": "// SPDX-License-Identifier: GPL-3.0-or-later\n\npragma solidity ^0.8.4;\n\nimport \"./administrable.sol\";\n\n/// @title A fractional DAO-like contract whose decisions can be voted upon by its shareholders\n/// @author Frederik W. L. Christoffersen\n/// @notice This contract is used as a votable administerable business entity.\n/// @custom:beaware This is a commercial contract.\ncontract Votable is Administrable {\n\n    /// @notice Struct representing info of a Referendum.\n    /// @param issuer The issuer of the Referendum.\n    /// @param proposalFuncs Names of functions to be called during implementation.\n    /// @param proposalArgs The encoded parameters passed to the function calls as part of the implementation of the proposals.\n    struct ReferendumInfo {\n        address issuer;\n        string[] proposalFuncs;\n        bytes[] proposalArgs;\n    }\n\n    /// @notice Mapping pointing to dynamic info of a Referendum given a unique Referendum instance.\n    mapping(uint256 => ReferendumInfo) public infoByReferendum;\n\n    /// @notice Mapping pointing to amount of favor votes on given Referendum.\n    mapping(uint256 => uint256) favorAmountByReferendum;\n\n    /// @notice Mapping pointing to amount of total votes on given Referendum.\n    mapping(uint256 => uint256) totalAmountByReferendum;\n\n    /// @notice Mapping pointing to amount proposals implemented of a given Referendum.\n    mapping(uint256 => uint256) amountImplementedByReferendum;\n\n    /// @notice Mapping pointing to a boolean stating if the holder of a given Shard has voted on the given Referendum.\n    mapping(uint256 => mapping(bytes32 => bool)) hasVotedOnReferendum;\n\n    /// @notice Mapping pointing to a boolean stating if a given Referendum is pending.\n    mapping(uint256 => bool) pendingReferendums;\n\n    /// @notice Mapping pointing to a boolean stating if a given Referendum is to be implemented.\n    mapping(uint256 => bool) passedReferendums;\n\n    /// @notice Event that triggers when a Referendum is closed.\n    /// @param referendum The passed Referendum that was closed.\n    event ReferendumClosed(\n        uint256 referendum\n        );\n\n    /// @notice Event that triggers when a whole Referendum has been implemented.\n    /// @param referendum The passed Referendum that was implemented.\n    event ReferendumImplemented(\n        uint256 referendum\n        );\n\n    /// @notice Event that triggers when a vote is cast on a Referendum.\n    /// @param referendumClock The clock tied to the referendum that was voted on.\n    /// @param favor The boolean value signalling a FOR or AGAINST vote.\n    /// @param by The voter.\n    event VoteCast(\n        uint256 referendumClock,\n        bool favor,\n        address by\n        );\n\n    /// @notice Modifier that makes sure a given Referendum is pending.\n    /// @param referendum The Referendum to be checked for.\n    modifier onlyPendingReferendum(uint256 referendum) {\n        require(referendumIsPending(referendum), \"RNP\");\n        _;\n    }\n\n    constructor(uint256 amount) Administrable(amount) {\n        _setPermit(\"iR\",msg.sender,PermitState.administrator);\n        _setPermit(\"iP\",msg.sender,PermitState.administrator);\n    }\n\n    /// @notice Votes on a existing referendum, with a fraction corresponding to the shard of the holder.\n    /// @param shard The Shard to vote with.\n    /// @param referendum The referendum to be voted on.\n    /// @param favor The boolean value signalling a FOR or AGAINST vote.\n    function vote(bytes32 shard, uint256 referendum, bool favor) external onlyHolder(shard) onlyPendingReferendum(referendum) onlyIfActive {\n        require(!hasVoted(referendum, msg.sender));\n        require(shardExisted(shard,referendum), \"SNV\");\n        hasVotedOnReferendum[referendum][shard] = true;\n        if (favor) {\n            favorAmountByReferendum[referendum] += infoByShard[shard].amount;\n        }\n        totalAmountByReferendum[referendum] += infoByShard[shard].amount;\n        \n        emit VoteCast(referendum, favor, msg.sender);\n        bool passed = getReferendumResult(referendum);\n        if (passed || totalAmountByReferendum[referendum] == totalShardAmountByClock[referendum] ) {\n\n            pendingReferendums[referendum] = false;\n            if (passed) { // if it got voted through\n                passedReferendums[referendum] = true;\n            }\n            emit ReferendumClosed(referendum);\n        }\n    }\n\n    /// @notice The potential errors of the Proposals aren't checked for before implementation!!!\n    /// @param proposalFuncs The names of the functions to be called as a result of the implementation of the proposals.\n    /// @param proposalArgs The encoded parameters passed to the function calls as part of the implementation of the proposals.\n    function issueReferendum(string[] memory proposalFuncs, bytes[] memory proposalArgs) external onlyWithPermit(\"iR\") {\n        _issueReferendum(proposalFuncs,proposalArgs);\n    }\n\n    /// @notice Implements a given Proposal, within a given passed Referendum.\n    /// @param referendum The passed Referendum containing the Proposal.\n    /// @param proposalIndex The index of the proposal to be implemented.\n    function implementProposal(uint256 referendum, uint256 proposalIndex) external onlyWithPermit(\"iP\") {\n        _implementProposal(referendum,proposalIndex);\n    }\n\n    /// @notice Returns a boolean stating if a given Shard Holder has voted on a given Referendum.\n    /// @param referendum The Referendum to be checked for.\n    /// @param account The address of the potential Shard Holder voter to be checked for.\n    function hasVoted(uint256 referendum, address account) public view returns(bool) {\n        return hasVotedOnReferendum[referendum][shardByOwner[account]];\n    }\n\n    /// @notice Returns a boolean stating if a given Referendum has been voted through (>=50% FAVOR) or not.\n    /// @param referendum The Referendum to be checked for.\n    function getReferendumResult(uint256 referendum) public view returns(bool) {\n        // if forFraction is bigger than 50%, then the vote is FOR\n        if ((favorAmountByReferendum[referendum] / totalShardAmountByClock[referendum]) * 2 > 1) {\n            return true;\n        }\n        return false;\n    }\n    \n    /// @notice Returns a boolean stating if a given Referendum is pending or not.\n    /// @param referendum The Referendum to be checked for.\n    function referendumIsPending(uint256 referendum) public view returns(bool) {\n        return pendingReferendums[referendum]; \n    }\n\n    /// @notice Returns a boolean stating if a given Referendum is passed or not.\n    /// @param referendum The Referendum to be checked for.\n    function referendumIsPassed(uint256 referendum) public view returns(bool) {\n        return passedReferendums[referendum]; \n    }\n\n    /// @notice Returns a boolean stating if a given Referendum is implemented or not.\n    /// @param referendum The Referendum to be checked for.\n    function referendumIsImplemented(uint256 referendum) public view returns(bool) {\n        return amountImplementedByReferendum[referendum] == infoByReferendum[referendum].proposalFuncs.length; \n    }\n\n    /// @notice Returns a boolean stating if a given Proposal exists within a given Referendum.\n    /// @param referendum The Referendum to be checked for.\n    /// @param proposalIndex The index of the proposal to be checked for.\n    function proposalExists(uint256 referendum, uint256 proposalIndex) public view returns(bool) {\n        return infoByReferendum[referendum].proposalFuncs.length > proposalIndex;\n    }\n\n    /// @notice The potential errors of the Proposals aren't checked for before implementation!!!\n    /// @param proposalFuncs The names of the functions to be called as a result of the implementation of the proposals.\n    /// @param proposalArgs The encoded parameters passed to the function calls as part of the implementation of the proposals.\n    function _issueReferendum(string[] memory proposalFuncs, bytes[] memory proposalArgs) internal onlyIfActive incrementClock {\n        require(proposalFuncs.length == proposalArgs.length, \"PCW\");\n        pendingReferendums[clock] = true;\n        infoByReferendum[clock] = ReferendumInfo({\n            issuer: msg.sender,\n            proposalFuncs: proposalFuncs,\n            proposalArgs: proposalArgs\n            });\n        emit ActionTaken(\"iR\",abi.encode(clock),msg.sender);\n    }\n\n    /// @notice Implements a given Proposal, within a given passed Referendum.\n    /// @param referendum The passed Referendum containing the Proposal.\n    /// @param proposalIndex The index of the proposal to be implemented.\n    function _implementProposal(uint256 referendum, uint256 proposalIndex) internal onlyIfActive {\n        require(proposalExists(referendum,proposalIndex),\"PDE\");\n        require(amountImplementedByReferendum[referendum] == proposalIndex, \"WPO\");\n        amountImplementedByReferendum[referendum] += 1;\n        string memory proposalFunc = infoByReferendum[referendum].proposalFuncs[proposalIndex];\n        bytes memory proposalArgs = infoByReferendum[referendum].proposalArgs[proposalIndex];\n        bytes32 funcHash = keccak256(bytes(proposalFunc));\n                    if (funcHash == keccak256(bytes(\"iR\"))) {\n                        (string[] memory proposalFuncs, bytes[] memory _proposalArgs) = abi.decode(proposalArgs, (string[], bytes[]));\n                        _issueReferendum(proposalFuncs, _proposalArgs);\n                    }\n                    if (funcHash == keccak256(bytes(\"sP\"))) {\n                        (string memory permitName, PermitState newState, address account) = abi.decode(proposalArgs, (string, PermitState,address));\n                        _setPermit(permitName,account,newState);\n                    }\n                    if (funcHash == keccak256(bytes(\"tT\"))) {\n                        (string memory fromBankName, address tokenAddress, uint256 value, address to) = abi.decode(proposalArgs, (string, address, uint256,address));\n                        _transferTokenFromBank(fromBankName,tokenAddress,value,to);\n                    }\n                    if (funcHash == keccak256(bytes(\"mT\"))) {\n                        (string memory fromBankName, string memory toBankName, address tokenAddress, uint256 value) = abi.decode(proposalArgs, (string, string, address, uint256));\n                        _moveToken(fromBankName,toBankName,tokenAddress,value);\n                    }\n                    if (funcHash == keccak256(bytes(\"iD\"))) {\n                        (string memory bankName, address tokenAddress, uint256 value) = abi.decode(proposalArgs, (string,address,uint256));\n                        _issueDividend(bankName,tokenAddress,value);\n                    }\n                    if (funcHash == keccak256(bytes(\"iS\"))) {\n                        (uint256 amount, address tokenAddress, uint256 price, address to) = abi.decode(proposalArgs, (uint256,address,uint256,address));\n                        _issueShards(amount,tokenAddress,price,to);\n                    }\n                    if (funcHash == keccak256(bytes(\"dD\"))) {\n                        (uint256 dividend) = abi.decode(proposalArgs, (uint256));\n                        _dissolveDividend(dividend);\n                    }\n                    if (funcHash == keccak256(bytes(\"cB\"))) {\n                        (string memory bankName, address bankAdmin) = abi.decode(proposalArgs, (string, address));\n                        _createBank(bankName,bankAdmin);\n                    }\n                    if (funcHash == keccak256(bytes(\"dB\"))) {\n                        (string memory bankName) = abi.decode(proposalArgs, (string));\n                        _deleteBank(bankName);\n                    }\n                    if (funcHash == keccak256(bytes(\"aA\"))) {\n                        (string memory bankName, address bankAdmin) = abi.decode(proposalArgs, (string, address));\n                        _addBankAdmin(bankName,bankAdmin);\n                    }\n                    if (funcHash == keccak256(bytes(\"rA\"))) {\n                        (string memory bankName, address bankAdmin) = abi.decode(proposalArgs, (string, address));\n                        _removeBankAdmin(bankName,bankAdmin);\n                    }\n                    if (funcHash == keccak256(bytes(\"rT\"))) {\n                        (address tokenAddress) = abi.decode(proposalArgs, (address));\n                        _registerTokenAddress(tokenAddress);\n                    }\n                    if (funcHash == keccak256(bytes(\"uT\"))) {\n                        (address tokenAddress) = abi.decode(proposalArgs, (address));\n                        _unregisterTokenAddress(tokenAddress);\n                    }\n                    if (funcHash == keccak256(bytes(\"lE\"))) {\n                        _liquidize();\n                    }\n                    else {\n                        revert(\"WF\");\n                    }\n                    emit ActionTaken(\"iP\",abi.encode(referendum,proposalIndex),msg.sender);\n\n        if (amountImplementedByReferendum[referendum] == infoByReferendum[referendum].proposalFuncs.length) {\n            emit ReferendumImplemented(referendum);\n        }\n    }\n}",
  "sourcePath": "contracts/votable.sol",
  "type": "contract"
}