{
  "abi": [
    {
      "inputs": [],
      "stateMutability": "nonpayable",
      "type": "constructor"
    },
    {
      "anonymous": false,
      "inputs": [
        {
          "indexed": false,
          "internalType": "string",
          "name": "fName",
          "type": "string"
        },
        {
          "indexed": false,
          "internalType": "bytes",
          "name": "args",
          "type": "bytes"
        },
        {
          "indexed": false,
          "internalType": "address",
          "name": "by",
          "type": "address"
        }
      ],
      "name": "ActionTaken",
      "type": "event"
    },
    {
      "anonymous": false,
      "inputs": [
        {
          "indexed": false,
          "internalType": "address",
          "name": "by",
          "type": "address"
        }
      ],
      "name": "EntityLiquidized",
      "type": "event"
    },
    {
      "anonymous": false,
      "inputs": [
        {
          "indexed": false,
          "internalType": "address",
          "name": "tokenAddress",
          "type": "address"
        },
        {
          "indexed": false,
          "internalType": "uint256",
          "name": "value",
          "type": "uint256"
        },
        {
          "indexed": false,
          "internalType": "address",
          "name": "by",
          "type": "address"
        }
      ],
      "name": "LiquidClaimed",
      "type": "event"
    },
    {
      "anonymous": false,
      "inputs": [
        {
          "indexed": false,
          "internalType": "bytes32",
          "name": "shard",
          "type": "bytes32"
        },
        {
          "indexed": false,
          "internalType": "uint256",
          "name": "numerator",
          "type": "uint256"
        },
        {
          "indexed": false,
          "internalType": "uint256",
          "name": "denominator",
          "type": "uint256"
        },
        {
          "indexed": false,
          "internalType": "address",
          "name": "tokenAddress",
          "type": "address"
        },
        {
          "indexed": false,
          "internalType": "uint256",
          "name": "price",
          "type": "uint256"
        },
        {
          "indexed": false,
          "internalType": "address",
          "name": "to",
          "type": "address"
        }
      ],
      "name": "PutForSale",
      "type": "event"
    },
    {
      "anonymous": false,
      "inputs": [
        {
          "indexed": false,
          "internalType": "uint256",
          "name": "referendum",
          "type": "uint256"
        }
      ],
      "name": "ReferendumClosed",
      "type": "event"
    },
    {
      "anonymous": false,
      "inputs": [
        {
          "indexed": false,
          "internalType": "uint256",
          "name": "referendum",
          "type": "uint256"
        }
      ],
      "name": "ReferendumImplemented",
      "type": "event"
    },
    {
      "anonymous": false,
      "inputs": [
        {
          "indexed": false,
          "internalType": "uint256",
          "name": "referendum",
          "type": "uint256"
        }
      ],
      "name": "ReferendumIssued",
      "type": "event"
    },
    {
      "anonymous": false,
      "inputs": [
        {
          "indexed": false,
          "internalType": "bytes32",
          "name": "shard",
          "type": "bytes32"
        },
        {
          "indexed": false,
          "internalType": "uint256",
          "name": "numerator",
          "type": "uint256"
        },
        {
          "indexed": false,
          "internalType": "uint256",
          "name": "denominator",
          "type": "uint256"
        },
        {
          "indexed": false,
          "internalType": "address",
          "name": "tokenAddress",
          "type": "address"
        },
        {
          "indexed": false,
          "internalType": "uint256",
          "name": "price",
          "type": "uint256"
        },
        {
          "indexed": false,
          "internalType": "address",
          "name": "to",
          "type": "address"
        }
      ],
      "name": "SaleSold",
      "type": "event"
    },
    {
      "anonymous": false,
      "inputs": [
        {
          "indexed": false,
          "internalType": "bytes32",
          "name": "shard",
          "type": "bytes32"
        },
        {
          "indexed": false,
          "internalType": "uint256",
          "name": "numerator",
          "type": "uint256"
        },
        {
          "indexed": false,
          "internalType": "uint256",
          "name": "denominator",
          "type": "uint256"
        },
        {
          "indexed": false,
          "internalType": "address",
          "name": "to",
          "type": "address"
        }
      ],
      "name": "SplitMade",
      "type": "event"
    },
    {
      "anonymous": false,
      "inputs": [
        {
          "indexed": false,
          "internalType": "address",
          "name": "tokenAddress",
          "type": "address"
        },
        {
          "indexed": false,
          "internalType": "uint256",
          "name": "value",
          "type": "uint256"
        },
        {
          "indexed": false,
          "internalType": "address",
          "name": "from",
          "type": "address"
        }
      ],
      "name": "TokenReceived",
      "type": "event"
    },
    {
      "anonymous": false,
      "inputs": [
        {
          "indexed": false,
          "internalType": "address",
          "name": "tokenAddress",
          "type": "address"
        },
        {
          "indexed": false,
          "internalType": "address",
          "name": "by",
          "type": "address"
        }
      ],
      "name": "TokenRegistered",
      "type": "event"
    },
    {
      "anonymous": false,
      "inputs": [
        {
          "indexed": false,
          "internalType": "address",
          "name": "tokenAddress",
          "type": "address"
        },
        {
          "indexed": false,
          "internalType": "address",
          "name": "by",
          "type": "address"
        }
      ],
      "name": "TokenUnregistered",
      "type": "event"
    },
    {
      "anonymous": false,
      "inputs": [
        {
          "indexed": false,
          "internalType": "uint256",
          "name": "referendum",
          "type": "uint256"
        },
        {
          "indexed": false,
          "internalType": "bool",
          "name": "favor",
          "type": "bool"
        },
        {
          "indexed": false,
          "internalType": "address",
          "name": "by",
          "type": "address"
        }
      ],
      "name": "VoteCast",
      "type": "event"
    },
    {
      "inputs": [
        {
          "internalType": "address",
          "name": "tokenAddress",
          "type": "address"
        }
      ],
      "name": "acceptsToken",
      "outputs": [
        {
          "internalType": "bool",
          "name": "",
          "type": "bool"
        }
      ],
      "stateMutability": "view",
      "type": "function"
    },
    {
      "inputs": [],
      "name": "active",
      "outputs": [
        {
          "internalType": "bool",
          "name": "",
          "type": "bool"
        }
      ],
      "stateMutability": "view",
      "type": "function"
    },
    {
      "inputs": [
        {
          "internalType": "string",
          "name": "bankName",
          "type": "string"
        },
        {
          "internalType": "address",
          "name": "bankAdmin",
          "type": "address"
        }
      ],
      "name": "addBankAdmin",
      "outputs": [],
      "stateMutability": "nonpayable",
      "type": "function"
    },
    {
      "inputs": [
        {
          "internalType": "string",
          "name": "bankName",
          "type": "string"
        }
      ],
      "name": "bankExists",
      "outputs": [
        {
          "internalType": "bool",
          "name": "",
          "type": "bool"
        }
      ],
      "stateMutability": "view",
      "type": "function"
    },
    {
      "inputs": [
        {
          "internalType": "string",
          "name": "bankName",
          "type": "string"
        }
      ],
      "name": "bankIsEmpty",
      "outputs": [
        {
          "internalType": "bool",
          "name": "",
          "type": "bool"
        }
      ],
      "stateMutability": "view",
      "type": "function"
    },
    {
      "inputs": [
        {
          "internalType": "bytes32",
          "name": "shard",
          "type": "bytes32"
        }
      ],
      "name": "cancelSale",
      "outputs": [],
      "stateMutability": "nonpayable",
      "type": "function"
    },
    {
      "inputs": [
        {
          "internalType": "bytes32",
          "name": "shard",
          "type": "bytes32"
        },
        {
          "internalType": "uint256",
          "name": "dividend",
          "type": "uint256"
        }
      ],
      "name": "claimDividend",
      "outputs": [],
      "stateMutability": "nonpayable",
      "type": "function"
    },
    {
      "inputs": [
        {
          "internalType": "address",
          "name": "tokenAddress",
          "type": "address"
        }
      ],
      "name": "claimLiquid",
      "outputs": [],
      "stateMutability": "nonpayable",
      "type": "function"
    },
    {
      "inputs": [
        {
          "internalType": "string",
          "name": "bankName",
          "type": "string"
        },
        {
          "internalType": "address",
          "name": "bankAdmin",
          "type": "address"
        }
      ],
      "name": "createBank",
      "outputs": [],
      "stateMutability": "nonpayable",
      "type": "function"
    },
    {
      "inputs": [
        {
          "internalType": "string",
          "name": "bankName",
          "type": "string"
        }
      ],
      "name": "deleteBank",
      "outputs": [],
      "stateMutability": "nonpayable",
      "type": "function"
    },
    {
      "inputs": [
        {
          "internalType": "uint256",
          "name": "dividend",
          "type": "uint256"
        }
      ],
      "name": "dissolveDividend",
      "outputs": [],
      "stateMutability": "nonpayable",
      "type": "function"
    },
    {
      "inputs": [
        {
          "internalType": "uint256",
          "name": "dividend",
          "type": "uint256"
        }
      ],
      "name": "dividendExists",
      "outputs": [
        {
          "internalType": "bool",
          "name": "",
          "type": "bool"
        }
      ],
      "stateMutability": "view",
      "type": "function"
    },
    {
      "inputs": [
        {
          "internalType": "string",
          "name": "bankName",
          "type": "string"
        },
        {
          "internalType": "address",
          "name": "tokenAddress",
          "type": "address"
        }
      ],
      "name": "getBankBalance",
      "outputs": [
        {
          "internalType": "uint256",
          "name": "",
          "type": "uint256"
        }
      ],
      "stateMutability": "view",
      "type": "function"
    },
    {
      "inputs": [
        {
          "internalType": "uint256",
          "name": "dividend",
          "type": "uint256"
        }
      ],
      "name": "getDividendResidual",
      "outputs": [
        {
          "internalType": "uint256",
          "name": "",
          "type": "uint256"
        }
      ],
      "stateMutability": "view",
      "type": "function"
    },
    {
      "inputs": [
        {
          "internalType": "uint256",
          "name": "dividend",
          "type": "uint256"
        }
      ],
      "name": "getDividendToken",
      "outputs": [
        {
          "internalType": "address",
          "name": "",
          "type": "address"
        }
      ],
      "stateMutability": "view",
      "type": "function"
    },
    {
      "inputs": [
        {
          "internalType": "uint256",
          "name": "dividend",
          "type": "uint256"
        }
      ],
      "name": "getDividendValue",
      "outputs": [
        {
          "internalType": "uint256",
          "name": "",
          "type": "uint256"
        }
      ],
      "stateMutability": "view",
      "type": "function"
    },
    {
      "inputs": [
        {
          "internalType": "address",
          "name": "tokenAddress",
          "type": "address"
        }
      ],
      "name": "getLiquidResidual",
      "outputs": [
        {
          "internalType": "uint256",
          "name": "",
          "type": "uint256"
        }
      ],
      "stateMutability": "view",
      "type": "function"
    },
    {
      "inputs": [
        {
          "internalType": "uint256",
          "name": "referendum",
          "type": "uint256"
        }
      ],
      "name": "getReferendumResult",
      "outputs": [
        {
          "internalType": "bool",
          "name": "",
          "type": "bool"
        }
      ],
      "stateMutability": "view",
      "type": "function"
    },
    {
      "inputs": [
        {
          "internalType": "bytes32",
          "name": "shard",
          "type": "bytes32"
        }
      ],
      "name": "getShardExpiredTime",
      "outputs": [
        {
          "internalType": "uint256",
          "name": "",
          "type": "uint256"
        }
      ],
      "stateMutability": "view",
      "type": "function"
    },
    {
      "inputs": [
        {
          "internalType": "bytes32",
          "name": "shard",
          "type": "bytes32"
        }
      ],
      "name": "getShardSalePrice",
      "outputs": [
        {
          "internalType": "uint256",
          "name": "",
          "type": "uint256"
        }
      ],
      "stateMutability": "view",
      "type": "function"
    },
    {
      "inputs": [
        {
          "internalType": "string",
          "name": "permitName",
          "type": "string"
        },
        {
          "internalType": "address",
          "name": "account",
          "type": "address"
        }
      ],
      "name": "hasPermit",
      "outputs": [
        {
          "internalType": "bool",
          "name": "",
          "type": "bool"
        }
      ],
      "stateMutability": "view",
      "type": "function"
    },
    {
      "inputs": [
        {
          "internalType": "uint256",
          "name": "referendum",
          "type": "uint256"
        },
        {
          "internalType": "address",
          "name": "account",
          "type": "address"
        }
      ],
      "name": "hasVoted",
      "outputs": [
        {
          "internalType": "bool",
          "name": "",
          "type": "bool"
        }
      ],
      "stateMutability": "view",
      "type": "function"
    },
    {
      "inputs": [
        {
          "internalType": "uint256",
          "name": "referendum",
          "type": "uint256"
        },
        {
          "internalType": "uint256",
          "name": "proposalIndex",
          "type": "uint256"
        }
      ],
      "name": "implementProposal",
      "outputs": [],
      "stateMutability": "nonpayable",
      "type": "function"
    },
    {
      "inputs": [
        {
          "internalType": "uint256",
          "name": "",
          "type": "uint256"
        }
      ],
      "name": "infoByReferendum",
      "outputs": [
        {
          "internalType": "address",
          "name": "issuer",
          "type": "address"
        }
      ],
      "stateMutability": "view",
      "type": "function"
    },
    {
      "inputs": [
        {
          "internalType": "bytes32",
          "name": "",
          "type": "bytes32"
        }
      ],
      "name": "infoByShard",
      "outputs": [
        {
          "internalType": "uint256",
          "name": "numerator",
          "type": "uint256"
        },
        {
          "internalType": "uint256",
          "name": "denominator",
          "type": "uint256"
        },
        {
          "internalType": "address",
          "name": "owner",
          "type": "address"
        },
        {
          "internalType": "uint256",
          "name": "creationTime",
          "type": "uint256"
        }
      ],
      "stateMutability": "view",
      "type": "function"
    },
    {
      "inputs": [
        {
          "internalType": "string",
          "name": "bankName",
          "type": "string"
        },
        {
          "internalType": "address",
          "name": "account",
          "type": "address"
        }
      ],
      "name": "isBankAdmin",
      "outputs": [
        {
          "internalType": "bool",
          "name": "",
          "type": "bool"
        }
      ],
      "stateMutability": "view",
      "type": "function"
    },
    {
      "inputs": [
        {
          "internalType": "string",
          "name": "permitName",
          "type": "string"
        },
        {
          "internalType": "address",
          "name": "account",
          "type": "address"
        }
      ],
      "name": "isPermitAdmin",
      "outputs": [
        {
          "internalType": "bool",
          "name": "",
          "type": "bool"
        }
      ],
      "stateMutability": "view",
      "type": "function"
    },
    {
      "inputs": [
        {
          "internalType": "address",
          "name": "account",
          "type": "address"
        }
      ],
      "name": "isShardHolder",
      "outputs": [
        {
          "internalType": "bool",
          "name": "",
          "type": "bool"
        }
      ],
      "stateMutability": "view",
      "type": "function"
    },
    {
      "inputs": [
        {
          "internalType": "bytes32",
          "name": "shard",
          "type": "bytes32"
        }
      ],
      "name": "isValidShard",
      "outputs": [
        {
          "internalType": "bool",
          "name": "",
          "type": "bool"
        }
      ],
      "stateMutability": "view",
      "type": "function"
    },
    {
      "inputs": [
        {
          "internalType": "string",
          "name": "bankName",
          "type": "string"
        },
        {
          "internalType": "address",
          "name": "tokenAddress",
          "type": "address"
        },
        {
          "internalType": "uint256",
          "name": "value",
          "type": "uint256"
        }
      ],
      "name": "issueDividend",
      "outputs": [],
      "stateMutability": "nonpayable",
      "type": "function"
    },
    {
      "inputs": [
        {
          "internalType": "string[]",
          "name": "proposalFunctionNames",
          "type": "string[]"
        },
        {
          "internalType": "bytes[]",
          "name": "proposalArgumentData",
          "type": "bytes[]"
        }
      ],
      "name": "issueVote",
      "outputs": [],
      "stateMutability": "nonpayable",
      "type": "function"
    },
    {
      "inputs": [
        {
          "internalType": "address",
          "name": "",
          "type": "address"
        }
      ],
      "name": "liquid",
      "outputs": [
        {
          "internalType": "uint256",
          "name": "",
          "type": "uint256"
        }
      ],
      "stateMutability": "view",
      "type": "function"
    },
    {
      "inputs": [],
      "name": "liquidize",
      "outputs": [],
      "stateMutability": "nonpayable",
      "type": "function"
    },
    {
      "inputs": [
        {
          "internalType": "string",
          "name": "fromBankName",
          "type": "string"
        },
        {
          "internalType": "string",
          "name": "toBankName",
          "type": "string"
        },
        {
          "internalType": "address",
          "name": "tokenAddress",
          "type": "address"
        },
        {
          "internalType": "uint256",
          "name": "value",
          "type": "uint256"
        }
      ],
      "name": "moveToken",
      "outputs": [],
      "stateMutability": "nonpayable",
      "type": "function"
    },
    {
      "inputs": [
        {
          "internalType": "uint256",
          "name": "referendum",
          "type": "uint256"
        },
        {
          "internalType": "uint256",
          "name": "proposalIndex",
          "type": "uint256"
        }
      ],
      "name": "proposalExists",
      "outputs": [
        {
          "internalType": "bool",
          "name": "",
          "type": "bool"
        }
      ],
      "stateMutability": "view",
      "type": "function"
    },
    {
      "inputs": [
        {
          "internalType": "bytes32",
          "name": "shard",
          "type": "bytes32"
        }
      ],
      "name": "purchase",
      "outputs": [],
      "stateMutability": "payable",
      "type": "function"
    },
    {
      "inputs": [
        {
          "internalType": "bytes32",
          "name": "shard",
          "type": "bytes32"
        },
        {
          "internalType": "uint256",
          "name": "numerator",
          "type": "uint256"
        },
        {
          "internalType": "uint256",
          "name": "denominator",
          "type": "uint256"
        },
        {
          "internalType": "address",
          "name": "tokenAddress",
          "type": "address"
        },
        {
          "internalType": "uint256",
          "name": "price",
          "type": "uint256"
        },
        {
          "internalType": "address",
          "name": "to",
          "type": "address"
        }
      ],
      "name": "putForSale",
      "outputs": [],
      "stateMutability": "nonpayable",
      "type": "function"
    },
    {
      "inputs": [
        {
          "internalType": "address",
          "name": "tokenAddress",
          "type": "address"
        },
        {
          "internalType": "uint256",
          "name": "value",
          "type": "uint256"
        }
      ],
      "name": "receiveToken",
      "outputs": [],
      "stateMutability": "nonpayable",
      "type": "function"
    },
    {
      "inputs": [
        {
          "internalType": "uint256",
          "name": "referendum",
          "type": "uint256"
        }
      ],
      "name": "referendumIsImplemented",
      "outputs": [
        {
          "internalType": "bool",
          "name": "",
          "type": "bool"
        }
      ],
      "stateMutability": "view",
      "type": "function"
    },
    {
      "inputs": [
        {
          "internalType": "uint256",
          "name": "referendum",
          "type": "uint256"
        }
      ],
      "name": "referendumIsPassed",
      "outputs": [
        {
          "internalType": "bool",
          "name": "",
          "type": "bool"
        }
      ],
      "stateMutability": "view",
      "type": "function"
    },
    {
      "inputs": [
        {
          "internalType": "uint256",
          "name": "referendum",
          "type": "uint256"
        }
      ],
      "name": "referendumIsPending",
      "outputs": [
        {
          "internalType": "bool",
          "name": "",
          "type": "bool"
        }
      ],
      "stateMutability": "view",
      "type": "function"
    },
    {
      "inputs": [
        {
          "internalType": "address",
          "name": "tokenAddress",
          "type": "address"
        }
      ],
      "name": "registerTokenAddress",
      "outputs": [],
      "stateMutability": "nonpayable",
      "type": "function"
    },
    {
      "inputs": [
        {
          "internalType": "string",
          "name": "bankName",
          "type": "string"
        },
        {
          "internalType": "address",
          "name": "bankAdmin",
          "type": "address"
        }
      ],
      "name": "removeBankAdmin",
      "outputs": [],
      "stateMutability": "nonpayable",
      "type": "function"
    },
    {
      "inputs": [
        {
          "internalType": "string",
          "name": "permitName",
          "type": "string"
        },
        {
          "internalType": "enum Administrable.PermitState",
          "name": "newState",
          "type": "uint8"
        }
      ],
      "name": "setBasePermit",
      "outputs": [],
      "stateMutability": "nonpayable",
      "type": "function"
    },
    {
      "inputs": [
        {
          "internalType": "bool",
          "name": "newState",
          "type": "bool"
        }
      ],
      "name": "setNonShardHolderState",
      "outputs": [],
      "stateMutability": "nonpayable",
      "type": "function"
    },
    {
      "inputs": [
        {
          "internalType": "string",
          "name": "permitName",
          "type": "string"
        },
        {
          "internalType": "address",
          "name": "account",
          "type": "address"
        },
        {
          "internalType": "enum Administrable.PermitState",
          "name": "newState",
          "type": "uint8"
        }
      ],
      "name": "setPermit",
      "outputs": [],
      "stateMutability": "nonpayable",
      "type": "function"
    },
    {
      "inputs": [
        {
          "internalType": "address",
          "name": "",
          "type": "address"
        }
      ],
      "name": "shardByOwner",
      "outputs": [
        {
          "internalType": "bytes32",
          "name": "",
          "type": "bytes32"
        }
      ],
      "stateMutability": "view",
      "type": "function"
    },
    {
      "inputs": [
        {
          "internalType": "bytes32",
          "name": "shard",
          "type": "bytes32"
        },
        {
          "internalType": "uint256",
          "name": "time",
          "type": "uint256"
        }
      ],
      "name": "shardExisted",
      "outputs": [
        {
          "internalType": "bool",
          "name": "",
          "type": "bool"
        }
      ],
      "stateMutability": "view",
      "type": "function"
    },
    {
      "inputs": [
        {
          "internalType": "bytes32",
          "name": "senderShard",
          "type": "bytes32"
        },
        {
          "internalType": "uint256",
          "name": "numerator",
          "type": "uint256"
        },
        {
          "internalType": "uint256",
          "name": "denominator",
          "type": "uint256"
        },
        {
          "internalType": "address",
          "name": "to",
          "type": "address"
        }
      ],
      "name": "split",
      "outputs": [],
      "stateMutability": "nonpayable",
      "type": "function"
    },
    {
      "inputs": [
        {
          "internalType": "bytes32",
          "name": "senderShard",
          "type": "bytes32"
        },
        {
          "internalType": "address",
          "name": "to",
          "type": "address"
        }
      ],
      "name": "transferShard",
      "outputs": [],
      "stateMutability": "nonpayable",
      "type": "function"
    },
    {
      "inputs": [
        {
          "internalType": "string",
          "name": "bankName",
          "type": "string"
        },
        {
          "internalType": "address",
          "name": "tokenAddress",
          "type": "address"
        },
        {
          "internalType": "uint256",
          "name": "value",
          "type": "uint256"
        },
        {
          "internalType": "address",
          "name": "to",
          "type": "address"
        }
      ],
      "name": "transferTokenFromBank",
      "outputs": [],
      "stateMutability": "nonpayable",
      "type": "function"
    },
    {
      "inputs": [
        {
          "internalType": "address",
          "name": "tokenAddress",
          "type": "address"
        }
      ],
      "name": "unregisterTokenAddress",
      "outputs": [],
      "stateMutability": "nonpayable",
      "type": "function"
    },
    {
      "inputs": [
        {
          "internalType": "bytes32",
          "name": "shard",
          "type": "bytes32"
        },
        {
          "internalType": "uint256",
          "name": "referendum",
          "type": "uint256"
        },
        {
          "internalType": "bool",
          "name": "favor",
          "type": "bool"
        }
      ],
      "name": "vote",
      "outputs": [],
      "stateMutability": "nonpayable",
      "type": "function"
    },
    {
      "stateMutability": "payable",
      "type": "receive"
    }
  ],
  "bytecode": "6080604052600080553480156200001557600080fd5b50620000dd6001803360006040516001600160601b0319606084901b1660208201526034810182905260009060540160408051808303601f1901815282825280516020918201206001600160a01b03968716600081815260038085528582208490558382526006855285822060001990556080870186529a8652838601998a528585019182526060860197885291825260029283905292902092518355955160018301555194810180546001600160a01b031916959094169490941790925551919092015550565b6001805460ff19168117905560408051808201909152600481526336b0b4b760e11b60208201526200011190333062000283565b604080518082019091526003815262734e5360e81b60208201526200013a9033600230620003ca565b62000169604051806040016040528060028152602001611a5160f21b81525033600230620003ca60201b60201c565b6200019860405180604001604052806002815260200161191160f21b81525033600230620003ca60201b60201c565b620001c76040518060400160405280600281526020016136a160f11b81525033600230620003ca60201b60201c565b620001f6604051806040016040528060028152602001616c4560f01b81525033600230620003ca60201b60201c565b6040805180820190915260038152621b505560ea1b60208201526200021f9033600230620003ca565b6200024e6040518060400160405280600281526020016134ab60f11b81525033600230620003ca60201b60201c565b6200027d60405180604001604052806002815260200161069560f41b81525033600230620003ca60201b60201c565b6200065f565b6001805460ff16151514620002c45760405162461bcd60e51b8152602060048201526002602482015261115360f21b60448201526064015b60405180910390fd5b620002cf83620004b3565b15620003035760405162461bcd60e51b8152602060048201526002602482015261414560f01b6044820152606401620002bb565b6001600f846040516200031791906200050b565b90815260408051602092819003830181206001600160a01b038716600090815293529120805460ff191692151592909217909155600190600c906200035e9086906200050b565b90815260405160209181900382018120805460ff19169315159390931790925560008051602062006523833981519152916200039f91869186910162000557565b60408051601f1981840301815290829052620003bd91849062000583565b60405180910390a1505050565b6001805460ff16151514620004075760405162461bcd60e51b8152602060048201526002602482015261115360f21b6044820152606401620002bb565b816010856040516200041a91906200050b565b90815260408051602092819003830190206001600160a01b038716600090815292529020805460ff191660018360028111156200045b576200045b620005c8565b0217905550600080516020620065238339815191528484846040516020016200048793929190620005de565b60408051601f1981840301815290829052620004a591849062000631565b60405180910390a150505050565b6000600c82604051620004c791906200050b565b9081526040519081900360200190205460ff16151560011492915050565b60005b8381101562000502578181015183820152602001620004e8565b50506000910152565b600082516200051f818460208701620004e5565b9190910192915050565b6000815180845262000543816020860160208601620004e5565b601f01601f19169290920160200192915050565b6040815260006200056c604083018562000529565b905060018060a01b03831660208301529392505050565b60608152600260608201526131a160f11b608082015260a060208201526000620005b160a083018562000529565b905060018060a01b03831660408301529392505050565b634e487b7160e01b600052602160045260246000fd5b606081526000620005f3606083018662000529565b6001600160a01b03851660208401529050600383106200062357634e487b7160e01b600052602160045260246000fd5b826040830152949350505050565b606081526002606082015261073560f41b608082015260a060208201526000620005b160a083018562000529565b615eb4806200066f6000396000f3fe6080604052600436106102ce5760003560e01c8063859d9fd51161017b578063b4af7d59116100d7578063db5dc9b711610085578063db5dc9b714610a08578063de9d680514610a28578063e1c34c1f14610a48578063e6778fce14610a68578063eadb970814610a95578063f998389614610ac7578063fd06636b14610ae757600080fd5b8063b4af7d59146108af578063bcedb2e0146108cf578063c4802eb21461094b578063c5438a5514610978578063c8c56af014610998578063cc445611146109c8578063d0b8b542146109db57600080fd5b806397890db91161013457806397890db9146107995780639995b9a9146107b9578063a1916aef146107e9578063a343c53514610809578063a80aed761461083f578063a907b6c51461085f578063b35ca4f31461087f57600080fd5b8063859d9fd5146106c9578063868399a5146106e95780638786df6a146107095780638d7844a6146107295780639211b7b31461074957806397235a1e1461077957600080fd5b8063354cd1351161022a5780634f52a71e116101e35780634f52a71e1461057e5780635beeff331461059e57806362748dcc146105cb57806363879c0b1461061c57806364e5378f1461063c5780637b7854931461067957806381005219146106a957600080fd5b8063354cd13514610498578063384fe2b5146104b85780633c06df46146104d85780633dbeaa54146104f8578063438596321461052e5780634c46360b1461054e57600080fd5b8063258e4d9f11610287578063258e4d9f146103aa5780632956de91146103ca5780632c729fd1146103ea5780632dec7cd21461040a5780632ef37926146104385780632f2e9a2a14610458578063350546d81461047857600080fd5b806302fb0c5e146102e6578063036f3aec1461031557806305c558f5146103355780630bea89851461034a578063169936b41461036a578063236566421461038a57600080fd5b366102e1576102df60003433610b07565b005b600080fd5b3480156102f257600080fd5b506001546103009060ff1681565b60405190151581526020015b60405180910390f35b34801561032157600080fd5b506102df610330366004614c1c565b610c27565b34801561034157600080fd5b506102df610cb7565b34801561035657600080fd5b506102df610365366004614c6d565b610cf1565b34801561037657600080fd5b50610300610385366004614c86565b610d9a565b34801561039657600080fd5b506102df6103a5366004614c6d565b610df8565b3480156103b657600080fd5b506103006103c5366004614ccf565b610e34565b3480156103d657600080fd5b506102df6103e5366004614dd7565b610ee9565b3480156103f657600080fd5b506102df610405366004614eb8565b610f22565b34801561041657600080fd5b5061042a610425366004614ccf565b61120d565b60405190815260200161030c565b34801561044457600080fd5b506102df610453366004614ccf565b61124e565b34801561046457600080fd5b506102df610473366004614ccf565b6112ad565b34801561048457600080fd5b506102df610493366004614ef1565b611300565b3480156104a457600080fd5b506102df6104b3366004614f0e565b6114a8565b3480156104c457600080fd5b506102df6104d3366004614c86565b6116c6565b3480156104e457600080fd5b506102df6104f3366004614f0e565b611712565b34801561050457600080fd5b5061042a610513366004614ef1565b6001600160a01b031660009081526009602052604090205490565b34801561053a57600080fd5b50610300610549366004614f30565b61174b565b34801561055a57600080fd5b5061042a610569366004614c6d565b60009081526013602052604090206002015490565b34801561058a57600080fd5b506102df610599366004614f30565b611780565b3480156105aa57600080fd5b5061042a6105b9366004614ef1565b60086020526000908152604090205481565b3480156105d757600080fd5b506106046105e6366004614c6d565b6000908152601360205260409020600101546001600160a01b031690565b6040516001600160a01b03909116815260200161030c565b34801561062857600080fd5b506102df610637366004614f55565b6117fc565b34801561064857600080fd5b50610300610657366004614c6d565b600090815260166020908152604080832060010154601b909252909120541490565b34801561068557600080fd5b5061042a610694366004614c6d565b60009081526005602052604090206003015490565b3480156106b557600080fd5b506102df6106c4366004614fae565b611851565b3480156106d557600080fd5b506102df6106e4366004614ef1565b6118b4565b3480156106f557600080fd5b50610300610704366004614ef1565b611913565b34801561071557600080fd5b506102df610724366004614ef1565b611948565b34801561073557600080fd5b506102df610744366004614fcb565b6119a7565b34801561075557600080fd5b50610300610764366004614c6d565b60009081526012602052604090205460ff1690565b34801561078557600080fd5b506102df61079436600461500c565b611a2d565b3480156107a557600080fd5b506103006107b4366004614c6d565b611b7d565b3480156107c557600080fd5b506103006107d4366004614c6d565b60008054918152600660205260409020541190565b3480156107f557600080fd5b506102df610804366004615038565b611bc4565b34801561081557600080fd5b50610604610824366004614c6d565b6016602052600090815260409020546001600160a01b031681565b34801561084b57600080fd5b5061030061085a366004614ccf565b611be5565b34801561086b57600080fd5b506102df61087a366004614ccf565b611c50565b34801561088b57600080fd5b5061030061089a366004614c6d565b6000908152601e602052604090205460ff1690565b3480156108bb57600080fd5b506103006108ca366004614c86565b611ccf565b3480156108db57600080fd5b5061091c6108ea366004614c6d565b600260208190526000918252604090912080546001820154928201546003909201549092916001600160a01b03169084565b60405161030c949392919093845260208401929092526001600160a01b03166040830152606082015260800190565b34801561095757600080fd5b5061042a610966366004614ef1565b60036020526000908152604090205481565b34801561098457600080fd5b506102df6109933660046150b5565b611cff565b3480156109a457600080fd5b506103006109b3366004614c6d565b6000908152601d602052604090205460ff1690565b6102df6109d6366004614c6d565b611ddf565b3480156109e757600080fd5b5061042a6109f6366004614c6d565b60009081526006602052604090205490565b348015610a1457600080fd5b50610300610a23366004614ccf565b612336565b348015610a3457600080fd5b506102df610a4336600461510d565b6123ec565b348015610a5457600080fd5b50610300610a63366004614ef1565b61240d565b348015610a7457600080fd5b5061042a610a83366004614c6d565b60009081526014602052604090205490565b348015610aa157600080fd5b50610300610ab0366004614f0e565b600091825260166020526040909120600101541190565b348015610ad357600080fd5b506102df610ae236600461516d565b61243f565b348015610af357600080fd5b50610300610b02366004614f0e565b6124bf565b610b128383836124f0565b600e604051610b20906151cb565b90815260408051602092819003830190206001600160a01b03861660009081529252902054158015610b5a57506001600160a01b03831615155b15610b92576001600d604051610b6f906151cb565b90815260200160405180910390206000828254610b8c91906151f1565b90915550505b81600e604051610ba1906151cb565b90815260200160405180910390206000856001600160a01b03166001600160a01b031681526020019081526020016000206000828254610be191906151f1565b90915550506040517fde49bbe8e448cdfa40e6fa0d22592be9a03b28ba746527635dbe5235416659cf90610c1a90859085908590615204565b60405180910390a1505050565b81610c328133610e34565b610c3b57600080fd5b816002811115610c4d57610c4d615227565b601184604051610c5d9190615261565b9081526040519081900360200190205460ff166002811115610c8157610c81615227565b03610ca75760405162461bcd60e51b8152600401610c9e9061527d565b60405180910390fd5b610cb2838333612545565b505050565b604051806040016040528060028152602001616c4560f01b815250610cdc8133612336565b610ce557600080fd5b610cee336125e8565b50565b6000818152600260208190526040909120015481906001600160a01b03163314610d2d5760405162461bcd60e51b8152600401610c9e90615299565b81610d478160008054918152600660205260409020541190565b610d635760405162461bcd60e51b8152600401610c9e906152b5565b60008381526004602052604090205460ff16610d915760405162461bcd60e51b8152600401610c9e906152d1565b610cb283612657565b6000600d82604051610dac9190615261565b9081526020016040518091039020546000148015610df25750600e82604051610dd59190615261565b908152604080516020928190038301902060008080529252902054155b92915050565b60405180604001604052806002815260200161191160f21b815250610e1d8133612336565b610e2657600080fd5b610e3082336126a6565b5050565b6000610e3f8261240d565b80610e4c5750600b5460ff165b610e5857506000610df2565b6002601084604051610e6a9190615261565b90815260408051602092819003830190206001600160a01b0386166000908152925290205460ff166002811115610ea357610ea3615227565b1480610ee257506002601184604051610ebc9190615261565b9081526040519081900360200190205460ff166002811115610ee057610ee0615227565b145b9392505050565b6040518060400160405280600281526020016134ab60f11b815250610f0e8133612336565b610f1757600080fd5b610cb2838333612797565b6000838152600260208190526040909120015483906001600160a01b03163314610f5e5760405162461bcd60e51b8152600401610c9e90615299565b6000838152601d6020526040902054839060ff16610fa45760405162461bcd60e51b81526020600482015260036024820152620524e560ec1b6044820152606401610c9e565b6001805460ff16151514610fca5760405162461bcd60e51b8152600401610c9e906152ed565b610fd4843361174b565b15610fde57600080fd5b610fe885856124bf565b61101a5760405162461bcd60e51b815260206004820152600360248201526229a72b60e91b6044820152606401610c9e565b6000848152601c602090815260408083208884529091529020805460ff1916600117905582156110ae57600084815260176020908152604080832054601883528184205489855260029093529083208054600190910154849361107f93929091612902565b9150915061108d828261293e565b60008881526017602090815260408083206018909252909120919091555550505b600084815260196020908152604080832054601a8352818420548985526002909352908320805460019091015484936110e993929091612902565b915091506110f7828261293e565b6000888152601960209081526040808320601a835292819020939093559290558051888152871515928101929092523382820152517f4a341f5494c396c29c9e30033ec7900b3b51340ac726dc58726e583ea2aceeb29181900360600190a1600061116187611b7d565b9050808061119357506000878152601a602090815260408083205460199092529091205461118f919061531f565b6001145b15611203576000878152601d60205260409020805460ff1916905580156111ce576000878152601e60205260409020805460ff191660011790555b6040518781527fb7af3044d10dc1be59f482d5c460c7c711f80137a36184cdf4f49d973e95acb1906020015b60405180910390a15b5050505050505050565b6000600e8360405161121f9190615261565b908152604080519182900360209081019092206001600160a01b03851660009081529252902054905092915050565b6040518060400160405280600281526020016136a160f11b8152506112738133612336565b61127c57600080fd5b6001805460ff161515146112a25760405162461bcd60e51b8152600401610c9e906152ed565b610cb28383336129ca565b6040518060400160405280600281526020016136a160f11b8152506112d28133610e34565b6112db57600080fd5b826112e68133611be5565b6112ef57600080fd5b6112fa848433612adc565b50505050565b6113093361240d565b61133a5760405162461bcd60e51b81526020600482015260026024820152610aa960f31b6044820152606401610c9e565b61134381611913565b61135f5760405162461bcd60e51b8152600401610c9e90615333565b336000908152600360209081526040808320546001600160a01b0385168452600a83528184208185529092529091205460ff16156113af5760405162461bcd60e51b8152600401610c9e9061534f565b6001600160a01b0382166000818152600a602090815260408083208584528252808320805460ff1916600190811790915560028352818420908101549054948452600890925282205491929091611406919061536b565b611410919061531f565b90508060000361143c5760405162461bcd60e51b81526020600482015260006024820152604401610c9e565b6001600160a01b03831660009081526009602052604081208054839290611464908490615382565b909155506114759050838233612b98565b7f1397d005a56670cbe383372bd4743eaa779af18164d00dc6d12a6659418e1bbf838233604051610c1a93929190615204565b6000828152600260208190526040909120015482906001600160a01b031633146114e45760405162461bcd60e51b8152600401610c9e90615299565b600082815260126020526040902054829060ff1661150157600080fd5b6001805460ff161515146115275760405162461bcd60e51b8152600401610c9e906152ed565b61153184846124bf565b6115635760405162461bcd60e51b81526020600482015260036024820152622720a360e91b6044820152606401610c9e565b600083815260156020908152604080832087845290915290205460ff161561159d5760405162461bcd60e51b8152600401610c9e9061534f565b60008381526015602090815260408083208784528252808320805460ff19166001908117909155600280845282852091820154915488865260139094529184209091015490916115ec9161536b565b6115f6919061531f565b90508060000361162e5760405162461bcd60e51b815260206004820152600360248201526244545360e81b6044820152606401610c9e565b6000848152601460205260408120805483929061164c908490615382565b9091555050600084815260136020526040902060010154611677906001600160a01b03168233612b98565b6040805160208101869052908101829052600080516020615e5f8339815191529060600160408051601f19818403018152908290526116b79133906153c1565b60405180910390a15050505050565b6040518060400160405280600281526020016136a160f11b8152506116eb8133610e34565b6116f457600080fd5b816116ff8133611be5565b61170857600080fd5b610cb28333612da8565b60405180604001604052806002815260200161069560f41b8152506117378133612336565b61174057600080fd5b610cb2838333612f2e565b6000918252601c602090815260408084206001600160a01b039390931684526003825280842054845291905290205460ff1690565b6000828152600260208190526040909120015482906001600160a01b031633146117bc5760405162461bcd60e51b8152600401610c9e90615299565b826117d68160008054918152600660205260409020541190565b6117f25760405162461bcd60e51b8152600401610c9e906152b5565b6112fa8484613867565b604051806040016040528060028152602001611a5160f21b8152506118218133612336565b61182a57600080fd5b836118358133611be5565b61183e57600080fd5b61184a858585336139f1565b5050505050565b60405180604001604052806003815260200162734e5360e81b8152506118778133612336565b61188057600080fd5b600b5482151560ff9091161515036118aa5760405162461bcd60e51b8152600401610c9e9061527d565b610e308233613c25565b604051806040016040528060038152602001621b505560ea1b8152506118da8133612336565b6118e357600080fd5b6001805460ff161515146119095760405162461bcd60e51b8152600401610c9e906152ed565b610e308233613c95565b6001600160a01b03811660009081526007602052604081205460ff16151560011480610df25750506001600160a01b03161590565b604051806040016040528060038152602001621b505560ea1b81525061196e8133612336565b61197757600080fd5b6001805460ff1615151461199d5760405162461bcd60e51b8152600401610c9e906152ed565b610e308233613d57565b6000848152600260208190526040909120015484906001600160a01b031633146119e35760405162461bcd60e51b8152600401610c9e90615299565b846119fd8160008054918152600660205260409020541190565b611a195760405162461bcd60e51b8152600401610c9e906152b5565b611a2586868686613de7565b505050505050565b611a3682611913565b611a525760405162461bcd60e51b8152600401610c9e90615333565b604051636eb1769f60e11b8152829082906001600160a01b0383169063dd62ed3e90611a849033903090600401615404565b602060405180830381865afa158015611aa1573d6000803e3d6000fd5b505050506040513d601f19601f82011682018060405250810190611ac5919061541e565b1015611ae35760405162461bcd60e51b8152600401610c9e90615437565b6040516323b872dd60e01b81526001600160a01b038216906323b872dd90611b1390339030908790600401615453565b6020604051808303816000875af1158015611b32573d6000803e3d6000fd5b505050506040513d601f19601f82011682018060405250810190611b569190615477565b611b725760405162461bcd60e51b8152600401610c9e90615494565b610cb2838333610b07565b6000818152601860209081526040808320546017909252822054600191611ba39161531f565b611bae90600261536b565b1115611bbc57506001919050565b506000919050565b83611bcf8133611be5565b611bd857600080fd5b61184a8585858533613fc2565b6000600f83604051611bf79190615261565b908152604080519182900360209081019092206001600160a01b0385166000908152925290205460ff16151560011480610ee25750610ee26040518060400160405280600281526020016136a160f11b81525083610e34565b6040518060400160405280600281526020016136a160f11b815250611c758133612336565b611c7e57600080fd5b82611c898133611be5565b611c9257600080fd5b611c9b8361240d565b80611ca85750600b5460ff165b611cc45760405162461bcd60e51b8152600401610c9e906154b0565b6112fa848433614256565b6000600c82604051611ce19190615261565b9081526040519081900360200190205460ff16151560011492915050565b82611d0a8133610e34565b611d1357600080fd5b611d1c8361240d565b80611d295750600b5460ff165b611d455760405162461bcd60e51b8152600401610c9e906154b0565b816002811115611d5757611d57615227565b601085604051611d679190615261565b90815260408051602092819003830190206001600160a01b0387166000908152925290205460ff166002811115611da057611da0615227565b03611dd35760405162461bcd60e51b815260206004820152600360248201526204148560ec1b6044820152606401610c9e565b6112fa84848433614354565b80611df98160008054918152600660205260409020541190565b611e155760405162461bcd60e51b8152600401610c9e906152b5565b60008281526004602052604090205460ff16611e435760405162461bcd60e51b8152600401610c9e906152d1565b6000828152600560205260409020600401546001600160a01b0316331480611e8357506000828152600560205260409020600401546001600160a01b0316155b611eb45760405162461bcd60e51b815260206004820152600260248201526129a960f11b6044820152606401610c9e565b611ebd82612657565b60008281526005602052604081206003015481908190611ee19060196103e861440e565b91945092509050611ef281836151f1565b6000868152600560205260409020600201549092506001600160a01b031661204f57600085815260056020526040902060030154341015611f5a5760405162461bcd60e51b8152602060048201526002602482015261494560f01b6044820152606401610c9e565b6040516000907349a71890aea5a751e30e740c504f2e9683f347bc9085908381818185875af1925050503d8060008114611fb0576040519150601f19603f3d011682016040523d82523d6000602084013e611fb5565b606091505b5050600087815260026020819052604080832090910154905192935090916001600160a01b039091169085908381818185875af1925050503d8060008114612019576040519150601f19603f3d011682016040523d82523d6000602084013e61201e565b606091505b5050905080801561202c5750815b6120485760405162461bcd60e51b8152600401610c9e906154cf565b505061220c565b6000858152600560205260409081902060028101546003909101549151636eb1769f60e11b81526001600160a01b039091169190829063dd62ed3e9061209b9033903090600401615404565b602060405180830381865afa1580156120b8573d6000803e3d6000fd5b505050506040513d601f19601f820116820180604052508101906120dc919061541e565b10156120fa5760405162461bcd60e51b8152600401610c9e90615437565b6040516323b872dd60e01b81526001600160a01b038216906323b872dd9061213e9033907349a71890aea5a751e30e740c504f2e9683f347bc908990600401615453565b6020604051808303816000875af115801561215d573d6000803e3d6000fd5b505050506040513d601f19601f820116820180604052508101906121819190615477565b50600086815260026020819052604091829020015490516323b872dd60e01b81526001600160a01b03808416926323b872dd926121c692339216908890600401615453565b6020604051808303816000875af11580156121e5573d6000803e3d6000fd5b505050506040513d601f19601f820116820180604052508101906122099190615477565b50505b60008581526005602052604090205415801590612239575060008581526005602052604090206001015415155b61226a5760405162461bcd60e51b8152602060048201526002602482015261455360f01b6044820152606401610c9e565b60008581526002602090815260408083208054600191820154600590945291909320805493015461229e9391929190614482565b156122b2576122ad8533613867565b6122d4565b600085815260056020526040902080546001909101546122d491879133613de7565b6000858152600560205260409081902080546001820154600283015460039093015493517f86d5a30b627b7d52f998c20ab46abe9fbe1c7c4863cd3259d09e7c22072dc1c1946116b7948b9493926001600160a01b03909116919033906154eb565b60006123418261240d565b8061234e5750600b5460ff165b61235a57506000610df2565b600160108460405161236c9190615261565b90815260408051602092819003830190206001600160a01b0386166000908152925290205460ff1660028111156123a5576123a5615227565b101580610ee2575060016011846040516123bf9190615261565b9081526040519081900360200190205460ff1660028111156123e3576123e3615227565b10159392505050565b836123f78133611be5565b61240057600080fd5b61184a858585853361449d565b6001600160a01b038116600090815260036020526040812054610df29060008054918152600660205260409020541190565b6000868152600260208190526040909120015486906001600160a01b0316331461247b5760405162461bcd60e51b8152600401610c9e90615299565b866124958160008054918152600660205260409020541190565b6124b15760405162461bcd60e51b8152600401610c9e906152b5565b61120388888888888861463f565b6000828152600260205260408120600301548210801590610ee2575050600091825260066020526040909120541190565b6001600160a01b038316600090815260086020526040812080548492906125189084906151f1565b90915550506001600160a01b03831660009081526009602052604081208054849290610be19084906151f1565b6001805460ff1615151461256b5760405162461bcd60e51b8152600401610c9e906152ed565b8160118460405161257c9190615261565b908152604051908190036020019020805460ff191660018360028111156125a5576125a5615227565b0217905550600080516020615e5f83398151915283836040516020016125cc929190615544565b60408051601f1981840301815290829052610c1a918490615566565b6001805460ff1615151461260e5760405162461bcd60e51b8152600401610c9e906152ed565b6001805460ff191690556040516001600160a01b03821681527f1522879623a3943e5c352efdf9c2adbd7825d2a97d4680ea50466b9709785da49060200160405180910390a150565b806126718160008054918152600660205260409020541190565b61268d5760405162461bcd60e51b8152600401610c9e906152b5565b506000908152600460205260409020805460ff19169055565b600082815260126020526040902054829060ff166126c357600080fd5b6001805460ff161515146126e95760405162461bcd60e51b8152600401610c9e906152ed565b6000838152601260209081526040808320805460ff19169055601490915290819020549051600e9061271a906151cb565b9081526040805160209281900383019020600087815260138452828120600101546001600160a01b0316815292528120805490919061275a9084906151f1565b90915550506040805160208101859052600080516020615e5f833981519152910160408051601f1981840301815290829052610c1a918590615592565b6001805460ff161515146127bd5760405162461bcd60e51b8152600401610c9e906152ed565b60005482518451146127f75760405162461bcd60e51b815260206004820152600360248201526250435760e81b6044820152606401610c9e565b6000818152601d602090815260408083208054600160ff19909116811790915581516060810183526001600160a01b0387811682528185018a81528285018a90528787526016865293909520815181546001600160a01b0319169616959095178555915180519294936128709392850192910190614a18565b506040820151805161288c916002840191602090910190614a6e565b5050506000818152601860209081526040808320600190819055601a9092529182902055517f3beb2501a436dc1031b7cc3728f824767d0b618f755364d9853face0786e2dcc906128e09083815260200190565b60405180910390a1506000805490806128f8836155be565b9190505550505050565b60008061290f838761536b565b955061291b858561536b565b935061292784876151f1565b612931848761536b565b9150915094509492505050565b600080600061294d8585614831565b9050612959818561531f565b612963828761531f565b61296d919061531f565b612977858761531f565b146129aa5760405162461bcd60e51b815260206004820152600360248201526215935560ea1b6044820152606401610c9e565b6129b4818661531f565b6129be828661531f565b92509250509250929050565b6001805460ff161515146129f05760405162461bcd60e51b8152600401610c9e906152ed565b6129f983611ccf565b15612a2b5760405162461bcd60e51b8152602060048201526002602482015261414560f01b6044820152606401610c9e565b6001600f84604051612a3d9190615261565b90815260408051602092819003830181206001600160a01b038716600090815293529120805460ff191692151592909217909155600190600c90612a82908690615261565b90815260405160209181900382018120805460ff191693151593909317909255600080516020615e5f83398151915291612ac09186918691016155d7565b60408051601f1981840301815290829052610c1a918490615601565b6001805460ff16151514612b025760405162461bcd60e51b8152600401610c9e906152ed565b612b0c8383611be5565b612b1557600080fd5b6000600f84604051612b279190615261565b90815260408051602092819003830181206001600160a01b038716600090815290845291909120805460ff191693151593909317909255600080516020615e5f83398151915291612b7c9186918691016155d7565b60408051601f1981840301815290829052610c1a91849061562d565b6001600160a01b038316600090815260086020526040902054821115612bd05760405162461bcd60e51b8152600401610c9e90615437565b6001600160a01b038316612bed57612be88282614856565b612d93565b60405163095ea7b360e01b815283906001600160a01b0382169063095ea7b390612c1d9085908790600401615659565b6020604051808303816000875af1158015612c3c573d6000803e3d6000fd5b505050506040513d601f19601f82011682018060405250810190612c609190615477565b612c915760405162461bcd60e51b81526020600482015260026024820152614e4160f01b6044820152606401610c9e565b6001600160a01b0382163b15612d0457604051634b91ad0f60e11b81526001600160a01b038316906397235a1e90612ccf9087908790600401615659565b600060405180830381600087803b158015612ce957600080fd5b505af1925050508015612cfa575060015b15612d9157612d91565b60405163a9059cbb60e01b81526001600160a01b0382169063a9059cbb90612d329085908790600401615659565b6020604051808303816000875af1158015612d51573d6000803e3d6000fd5b505050506040513d601f19601f82011682018060405250810190612d759190615477565b612d915760405162461bcd60e51b8152600401610c9e90615494565b505b60015460ff1615610cb257610cb283836148c9565b6001805460ff16151514612dce5760405162461bcd60e51b8152600401610c9e906152ed565b612dd782611ccf565b612e095760405162461bcd60e51b815260206004820152600360248201526255422160e81b6044820152606401610c9e565b60408051808201909152600481526336b0b4b760e11b6020918201528251908301207f471dfab0756edc981c75dd3188ccd700755407f7d3bedf452610f7a1e240d65901612e7e5760405162461bcd60e51b815260206004820152600260248201526126a160f11b6044820152606401610c9e565b612e8782610d9a565b612eb85760405162461bcd60e51b8152602060048201526002602482015261424560f01b6044820152606401610c9e565b6000600c83604051612eca9190615261565b90815260405160209181900382018120805460ff191693151593909317909255600080516020615e5f83398151915291612f0691859101615672565b60408051601f1981840301815290829052612f22918490615685565b60405180910390a15050565b6001805460ff16151514612f545760405162461bcd60e51b8152600401610c9e906152ed565b6000838152601660205260409020600101548210612f9a5760405162461bcd60e51b815260206004820152600360248201526250444560e81b6044820152606401610c9e565b6000838152601b60205260409020548214612fdd5760405162461bcd60e51b815260206004820152600360248201526257504f60e81b6044820152606401610c9e565b6000838152601b60205260408120805460019290612ffc9084906151f1565b90915550506000838152601660205260408120600101805484908110613024576130246156b1565b906000526020600020018054613039906156c7565b80601f0160208091040260200160405190810160405280929190818152602001828054613065906156c7565b80156130b25780601f10613087576101008083540402835291602001916130b2565b820191906000526020600020905b81548152906001019060200180831161309557829003601f168201915b5050505050905060006016600086815260200190815260200160002060020184815481106130e2576130e26156b1565b9060005260206000200180546130f7906156c7565b80601f0160208091040260200160405190810160405280929190818152602001828054613123906156c7565b80156131705780601f1061314557610100808354040283529160200191613170565b820191906000526020600020905b81548152906001019060200180831161315357829003601f168201915b505050505090506000828051906020012090506040518060400160405280600281526020016134ab60f11b8152508051906020012081036131d457600080838060200190518101906131c291906157e5565b915091506131d1828230612797565b50505b604080518082019091526002815261073560f41b6020909101527ff1b1bbc74e4df8608497e5eed3180a4b18c6b574ff7c886247e917619e15758781016132445760008060008480602001905181019061322e91906158b1565b92509250925061324083828430614354565b5050505b60408051808201909152600381526207342560ec1b6020909101527f5b71168f95ae2c654fb9df9617e8e982f0d567b89d6b73e33c893b3f66ce719a81016132af576000808380602001905181019061329d919061590a565b915091506132ac828230612545565b50505b604080518082019091526003815262734e5360e81b6020909101527f4958d6109b82bd5e477d31199f35c1dc2623c0547eee74c1a266daa5e0d228638101613315576000828060200190518101906133079190615477565b90506133138130613c25565b505b6040805180820190915260028152611d1560f21b6020909101527f36ddd33e7a7f4736d675524b57ae6969fba9049312747b57679f33a51849c6b1810161338a57600080600080858060200190518101906133709190615950565b9350935093509350613385848484843061449d565b505050505b6040805180820190915260028152611b5560f21b6020909101527f6f27458a75a197963a149d891ee01b4f59e7dfbcd1a8c7bc1095dc063775c5e981016133ff57600080600080858060200190518101906133e591906159b1565b93509350935093506133fa8484848430613fc2565b505050505b6040805180820190915260028152611a5160f21b6020909101527f1cf0197aed3b237c637010856237afeb1ec5367fd4b836bf00f3bd32eef1ef77810161346f576000806000848060200190518101906134599190615a2e565b92509250925061346b838383306139f1565b5050505b604080518082019091526002815261191160f21b6020909101527fedd0ee4c0d87c45f9edc0b9ba6f7373336c241b06c885e00f23c1ab5ec82a74781016134d4576000828060200190518101906134c6919061541e565b90506134d281306126a6565b505b60408051808201909152600281526131a160f11b6020909101527f2108e84f920e4eee7d6ac9ef2abeb540a1d7f56715d474e0b06b236cf4e70312810161353e576000808380602001905181019061352c9190615a88565b9150915061353b8282306129ca565b50505b604080518082019091526002815261322160f11b6020909101527f46e76fb60cbfea5dc4e313412f858c830e50e6e875d17b0921db6456f8ac9cdb81016135a3576000828060200190518101906135959190615ace565b90506135a18130612da8565b505b60408051808201909152600381526261424160e81b6020909101527f747edc76097bccd90f0d440c26b5930408266bbe117772d2c1d5b62a81070bd2810161360e57600080838060200190518101906135fc9190615a88565b9150915061360b828230614256565b50505b60408051808201909152600381526272424160e81b6020909101527fe01588f2b7120b2685ead94790242f17d977e3d7967bb132b1110f04a44120a7810161367957600080838060200190518101906136679190615a88565b91509150613676828230612adc565b50505b60408051808201909152600381526272544160e81b6020909101527fe2347e35bd161f6471726760ee12a18a4bd894ec18d0e8149dabe9c97a20681981016136df576000828060200190518101906136d19190615b02565b90506136dd8130613d57565b505b60408051808201909152600381526275544160e81b6020909101527fc2c2a7f0073a768c7bffc087093eceffd50955ad08a9ba26982dc60f1859eb808101613745576000828060200190518101906137379190615b02565b90506137438130613c95565b505b6040805180820190915260018152601b60fa1b6020909101527f95f2da642b046f8cc602839a5eccf7c3e16aab0d359cda47f99ed372092820de81016137935761378e306125e8565b6137c0565b60405162461bcd60e51b81526020600482015260026024820152612ba360f11b6044820152606401610c9e565b6040805160208101889052908101869052600080516020615e5f8339815191529060600160408051601f1981840301815290829052613800918790615b1f565b60405180910390a1600086815260166020908152604080832060010154601b9092529091205403611a25576040518681527f8d0d26399c7b999f9067e92dcf5a21ebc7bf6cd77bd186e721e4dfc2654e7830906020015b60405180910390a1505050505050565b816138818160008054918152600660205260409020541190565b61389d5760405162461bcd60e51b8152600401610c9e906152b5565b6001805460ff161515146138c35760405162461bcd60e51b8152600401610c9e906152ed565b6000546138cf8361240d565b15613964576001600160a01b038316600090815260036020526040902054613904908260009182526006602052604090912055565b600084815260026020818152604080842080546001918201546001600160a01b038a16875260038552838720548752949093529084208054910154849361394d93929091612902565b9150915061395d82828786614927565b5050613986565b6000848152600260205260409020805460019091015461398691908584614927565b60008481526006602052604090208190553330146112fa57600084815260026020526040908190205490517fe9643ef80195846c85962c67deed262d01c3ced15d351cfca16ac0c82daeb1c7916139e39187919081908890615b4b565b60405180910390a150505050565b6001805460ff16151514613a175760405162461bcd60e51b8152600401610c9e906152ed565b600054604051600e90613a2b908790615261565b90815260408051602092819003830190206001600160a01b03871660009081529252902054831115613a6f5760405162461bcd60e51b8152600401610c9e90615b6f565b82600e86604051613a809190615261565b90815260200160405180910390206000866001600160a01b03166001600160a01b031681526020019081526020016000206000828254613ac09190615382565b9091555050604051600e90613ad6908790615261565b90815260408051602092819003830190206001600160a01b03871660009081529252902054158015613b1057506001600160a01b03841615155b15613b4a576001600d86604051613b279190615261565b90815260200160405180910390206000828254613b449190615382565b90915550505b604080516060810182528281526001600160a01b038681166020808401918252838501888152600087815260138352868120955186559251600180870180546001600160a01b0319169290961691909117909455516002909401939093556014835283812087905560128352839020805460ff191690911790559051600080516020615e5f83398151915291613be69188918891889101615b8b565b60408051601f1981840301815290829052613c02918590615bb9565b60405180910390a150600080549080613c1a836155be565b919050555050505050565b6001805460ff16151514613c4b5760405162461bcd60e51b8152600401610c9e906152ed565b600b805460ff1916831515908117909155604080516020810192909252600080516020615e5f833981519152910160408051601f1981840301815290829052612f22918490615be5565b613c9e82611913565b613cba5760405162461bcd60e51b8152600401610c9e90615333565b6001600160a01b03821660009081526008602052604090205415613d055760405162461bcd60e51b8152602060048201526002602482015261272d60f11b6044820152606401610c9e565b6001600160a01b03821660009081526007602052604090819020805460ff19169055517fb178d00e152d646a7476fba94e5bca377176ccb09a1c1569ece19824d228d0a890612f229084908490615404565b613d6082611913565b15613d925760405162461bcd60e51b815260206004820152600260248201526120a960f11b6044820152606401610c9e565b6001600160a01b03821660009081526007602052604090819020805460ff19166001179055517f487c37289624c10056468f1f98ebffbad01edce11374975179672e32e2543bf090612f229084908490615404565b83613e018160008054918152600660205260409020541190565b613e1d5760405162461bcd60e51b8152600401610c9e906152b5565b6001805460ff16151514613e435760405162461bcd60e51b8152600401610c9e906152ed565b600085815260026020526040902060018101549054613e62919061531f565b613e6c848661531f565b10613e895760405162461bcd60e51b8152600401610c9e90615b6f565b600054613e958361240d565b15613f1b576001600160a01b03831660009081526003602090815260408083205483526002909152812080546001909101548291613ed4918989612902565b91509150613ee482828786614927565b6001600160a01b038516600090815260036020526040902054613f14908460009182526006602052604090912055565b5050613f27565b613f2785858584614927565b60008681526006602090815260408083208490556002909152812080546001909101548291613f579189896149e9565b60008a815260026020819052604090912001549193509150613f8690839083906001600160a01b031686614927565b333014611203577fe9643ef80195846c85962c67deed262d01c3ced15d351cfca16ac0c82daeb1c7888888886040516111fa9493929190615b4b565b83613fcc81611ccf565b613ffe5760405162461bcd60e51b8152602060048201526003602482015262444e4560e81b6044820152606401610c9e565b6001805460ff161515146140245760405162461bcd60e51b8152600401610c9e906152ed565b600e866040516140349190615261565b90815260408051602092819003830190206001600160a01b038716600090815292529020548311156140785760405162461bcd60e51b8152600401610c9e90615b6f565b82600e876040516140899190615261565b90815260200160405180910390206000866001600160a01b03166001600160a01b0316815260200190815260200160002060008282546140c99190615382565b90915550506001600160a01b038416156141bd57600e866040516140ed9190615261565b90815260408051602092819003830190206001600160a01b03871660009081529252812054900361414d576001600d8760405161412a9190615261565b908152602001604051809103902060008282546141479190615382565b90915550505b600e8560405161415d9190615261565b90815260408051602092819003830190206001600160a01b0387166000908152925281205490036141bd576001600d8660405161419a9190615261565b908152602001604051809103902060008282546141b791906151f1565b90915550505b82600e866040516141ce9190615261565b90815260200160405180910390206000866001600160a01b03166001600160a01b03168152602001908152602001600020600082825461420e91906151f1565b9091555050604051600080516020615e5f8339815191529061423a908890889088908890602001615c12565b60408051601f1981840301815290829052613857918590615c54565b6001805460ff1615151461427c5760405162461bcd60e51b8152600401610c9e906152ed565b6142a06040518060400160405280600281526020016136a160f11b81525083612336565b6142d15760405162461bcd60e51b815260206004820152600260248201526104e560f41b6044820152606401610c9e565b6001600f846040516142e39190615261565b90815260408051602092819003830181206001600160a01b038716600090815290845291909120805460ff191693151593909317909255600080516020615e5f833981519152916143389186918691016155d7565b60408051601f1981840301815290829052610c1a918490615c80565b6001805460ff1615151461437a5760405162461bcd60e51b8152600401610c9e906152ed565b8160108560405161438b9190615261565b90815260408051602092819003830190206001600160a01b038716600090815292529020805460ff191660018360028111156143c9576143c9615227565b0217905550600080516020615e5f8339815191528484846040516020016143f293929190615cac565b60408051601f19818403018152908290526139e3918490615566565b600080600084841161441f57600080fd5b60008461442c878961536b565b614436919061531f565b90506000856144458882615382565b61444f908a61536b565b614459919061531f565b9050818161446781836151f1565b614471908b615382565b945094509450505093509350939050565b6000828514801561449257508184145b90505b949350505050565b6001805460ff161515146144c35760405162461bcd60e51b8152600401610c9e906152ed565b600e856040516144d39190615261565b90815260408051602092819003830190206001600160a01b038716600090815292529020548311156145175760405162461bcd60e51b8152600401610c9e90615b6f565b614522848484612b98565b82600e866040516145339190615261565b90815260200160405180910390206000866001600160a01b03166001600160a01b0316815260200190815260200160002060008282546145739190615382565b9091555050604051600e90614589908790615261565b90815260408051602092819003830190206001600160a01b038716600090815292529020541580156145c357506001600160a01b03841615155b156145fd576001600d866040516145da9190615261565b908152602001604051809103902060008282546145f79190615382565b90915550505b600080516020615e5f833981519152858585856040516020016146239493929190615cdd565b60408051601f19818403018152908290526116b7918490615d19565b856146598160008054918152600660205260409020541190565b6146755760405162461bcd60e51b8152600401610c9e906152b5565b6001805460ff1615151461469b5760405162461bcd60e51b8152600401610c9e906152ed565b6000878152600260205260409020600181015490546146ba919061531f565b6146c4868861531f565b11156146e25760405162461bcd60e51b8152600401610c9e90615b6f565b6146ec868661293e565b80965081975050506040518060a00160405280878152602001868152602001856001600160a01b03168152602001848152602001836001600160a01b031681525060056000898152602001908152602001600020600082015181600001556020820151816001015560408201518160020160006101000a8154816001600160a01b0302191690836001600160a01b031602179055506060820151816003015560808201518160040160006101000a8154816001600160a01b0302191690836001600160a01b0316021790555090505060016004600089815260200190815260200160002060006101000a81548160ff0219169083151502179055507f4c4dcd7b4186fe1c900d89bc3c911766f63cf9c3570750481f0d89bfbcb75285878787878787604051614820969594939291906154eb565b60405180910390a150505050505050565b60005b811561484f57816148458185615d45565b9093509150614834565b5090919050565b6000816001600160a01b03168360405160006040518083038185875af1925050503d80600081146148a3576040519150601f19603f3d011682016040523d82523d6000602084013e6148a8565b606091505b5050905080610cb25760405162461bcd60e51b8152600401610c9e906154cf565b6001600160a01b038216600090815260086020526040812080548392906148f1908490615382565b90915550506001600160a01b0382166000908152600960205260408120805483929061491e908490615382565b90915550505050565b6040516bffffffffffffffffffffffff19606084901b1660208201526034810182905260009060540160408051808303601f1901815282825280516020918201206001600160a01b03968716600081815260038085528582208490558382526006855285822060001990556080870186529a8652838601998a528585019182526060860197885291825260029283905292902092518355955160018301555194810180546001600160a01b031916959094169490941790925551919092015550565b6000806149f6838761536b565b9550614a02848661536b565b9450614a0e8587615382565b612931848661536b565b828054828255906000526020600020908101928215614a5e579160200282015b82811115614a5e5782518290614a4e9082615d9f565b5091602001919060010190614a38565b50614a6a929150614ac0565b5090565b828054828255906000526020600020908101928215614ab4579160200282015b82811115614ab45782518290614aa49082615d9f565b5091602001919060010190614a8e565b50614a6a929150614add565b80821115614a6a576000614ad48282614afa565b50600101614ac0565b80821115614a6a576000614af18282614afa565b50600101614add565b508054614b06906156c7565b6000825580601f10614b16575050565b601f016020900490600052602060002090810190610cee91905b80821115614a6a5760008155600101614b30565b634e487b7160e01b600052604160045260246000fd5b604051601f8201601f191681016001600160401b0381118282101715614b8257614b82614b44565b604052919050565b60006001600160401b03821115614ba357614ba3614b44565b50601f01601f191660200190565b6000614bc4614bbf84614b8a565b614b5a565b9050828152838383011115614bd857600080fd5b828260208301376000602084830101529392505050565b600082601f830112614c0057600080fd5b610ee283833560208501614bb1565b60038110610cee57600080fd5b60008060408385031215614c2f57600080fd5b82356001600160401b03811115614c4557600080fd5b614c5185828601614bef565b9250506020830135614c6281614c0f565b809150509250929050565b600060208284031215614c7f57600080fd5b5035919050565b600060208284031215614c9857600080fd5b81356001600160401b03811115614cae57600080fd5b61449584828501614bef565b6001600160a01b0381168114610cee57600080fd5b60008060408385031215614ce257600080fd5b82356001600160401b03811115614cf857600080fd5b614d0485828601614bef565b9250506020830135614c6281614cba565b60006001600160401b03821115614d2e57614d2e614b44565b5060051b60200190565b600082601f830112614d4957600080fd5b81356020614d59614bbf83614d15565b82815260059290921b84018101918181019086841115614d7857600080fd5b8286015b84811015614dcc5780356001600160401b03811115614d9b5760008081fd5b8701603f81018913614dad5760008081fd5b614dbe898683013560408401614bb1565b845250918301918301614d7c565b509695505050505050565b60008060408385031215614dea57600080fd5b82356001600160401b0380821115614e0157600080fd5b818501915085601f830112614e1557600080fd5b81356020614e25614bbf83614d15565b82815260059290921b84018101918181019089841115614e4457600080fd5b8286015b84811015614e7c57803586811115614e605760008081fd5b614e6e8c86838b0101614bef565b845250918301918301614e48565b5096505086013592505080821115614e9357600080fd5b50614ea085828601614d38565b9150509250929050565b8015158114610cee57600080fd5b600080600060608486031215614ecd57600080fd5b83359250602084013591506040840135614ee681614eaa565b809150509250925092565b600060208284031215614f0357600080fd5b8135610ee281614cba565b60008060408385031215614f2157600080fd5b50508035926020909101359150565b60008060408385031215614f4357600080fd5b823591506020830135614c6281614cba565b600080600060608486031215614f6a57600080fd5b83356001600160401b03811115614f8057600080fd5b614f8c86828701614bef565b9350506020840135614f9d81614cba565b929592945050506040919091013590565b600060208284031215614fc057600080fd5b8135610ee281614eaa565b60008060008060808587031215614fe157600080fd5b843593506020850135925060408501359150606085013561500181614cba565b939692955090935050565b6000806040838503121561501f57600080fd5b823561502a81614cba565b946020939093013593505050565b6000806000806080858703121561504e57600080fd5b84356001600160401b038082111561506557600080fd5b61507188838901614bef565b9550602087013591508082111561508757600080fd5b5061509487828801614bef565b93505060408501356150a581614cba565b9396929550929360600135925050565b6000806000606084860312156150ca57600080fd5b83356001600160401b038111156150e057600080fd5b6150ec86828701614bef565b93505060208401356150fd81614cba565b91506040840135614ee681614c0f565b6000806000806080858703121561512357600080fd5b84356001600160401b0381111561513957600080fd5b61514587828801614bef565b945050602085013561515681614cba565b925060408501359150606085013561500181614cba565b60008060008060008060c0878903121561518657600080fd5b86359550602087013594506040870135935060608701356151a681614cba565b92506080870135915060a08701356151bd81614cba565b809150509295509295509295565b6336b0b4b760e11b815260040190565b634e487b7160e01b600052601160045260246000fd5b80820180821115610df257610df26151db565b6001600160a01b0393841681526020810192909252909116604082015260600190565b634e487b7160e01b600052602160045260246000fd5b60005b83811015615258578181015183820152602001615240565b50506000910152565b6000825161527381846020870161523d565b9190910192915050565b602080825260029082015261415360f01b604082015260600190565b60208082526002908201526109e960f31b604082015260600190565b602080825260029082015261555360f01b604082015260600190565b6020808252600290820152614e5360f01b604082015260600190565b602080825260029082015261115360f21b604082015260600190565b634e487b7160e01b600052601260045260246000fd5b60008261532e5761532e615309565b500490565b602080825260029082015261155560f21b604082015260600190565b602080825260029082015261414360f01b604082015260600190565b8082028115828204841417610df257610df26151db565b81810381811115610df257610df26151db565b600081518084526153ad81602086016020860161523d565b601f01601f19169290920160200192915050565b60608152600260608201526118d160f21b608082015260a0602082015260006153ed60a0830185615395565b905060018060a01b03831660408301529392505050565b6001600160a01b0392831681529116602082015260400190565b60006020828403121561543057600080fd5b5051919050565b602080825260029082015261125560f21b604082015260600190565b6001600160a01b039384168152919092166020820152604081019190915260600190565b60006020828403121561548957600080fd5b8151610ee281614eaa565b602080825260029082015261139560f21b604082015260600190565b6020808252600590820152644e53484e4160d81b604082015260600190565b6020808252600290820152612a2360f11b604082015260600190565b958652602086019490945260408501929092526001600160a01b03908116606085015260808401919091521660a082015260c00190565b6003811061554057634e487b7160e01b600052602160045260246000fd5b9052565b6040815260006155576040830185615395565b9050610ee26020830184615522565b606081526002606082015261073560f41b608082015260a0602082015260006153ed60a0830185615395565b606081526002606082015261191160f21b608082015260a0602082015260006153ed60a0830185615395565b6000600182016155d0576155d06151db565b5060010190565b6040815260006155ea6040830185615395565b905060018060a01b03831660208301529392505050565b60608152600260608201526131a160f11b608082015260a0602082015260006153ed60a0830185615395565b606081526002606082015261724160f01b608082015260a0602082015260006153ed60a0830185615395565b6001600160a01b03929092168252602082015260400190565b602081526000610ee26020830184615395565b606081526002606082015261322160f11b608082015260a0602082015260006153ed60a0830185615395565b634e487b7160e01b600052603260045260246000fd5b600181811c908216806156db57607f821691505b6020821081036156fb57634e487b7160e01b600052602260045260246000fd5b50919050565b600061570f614bbf84614b8a565b905082815283838301111561572357600080fd5b610ee283602083018461523d565b600082601f83011261574257600080fd5b610ee283835160208501615701565b600082601f83011261576257600080fd5b81516020615772614bbf83614d15565b82815260059290921b8401810191818101908684111561579157600080fd5b8286015b84811015614dcc5780516001600160401b038111156157b45760008081fd5b8701603f810189136157c65760008081fd5b6157d7898683015160408401615701565b845250918301918301615795565b600080604083850312156157f857600080fd5b82516001600160401b038082111561580f57600080fd5b818501915085601f83011261582357600080fd5b81516020615833614bbf83614d15565b82815260059290921b8401810191818101908984111561585257600080fd5b8286015b8481101561588a5780518681111561586e5760008081fd5b61587c8c86838b0101615731565b845250918301918301615856565b50918801519196509093505050808211156158a457600080fd5b50614ea085828601615751565b6000806000606084860312156158c657600080fd5b83516001600160401b038111156158dc57600080fd5b6158e886828701615731565b93505060208401516158f981614c0f565b6040850151909250614ee681614cba565b6000806040838503121561591d57600080fd5b82516001600160401b0381111561593357600080fd5b61593f85828601615731565b9250506020830151614c6281614c0f565b6000806000806080858703121561596657600080fd5b84516001600160401b0381111561597c57600080fd5b61598887828801615731565b945050602085015161599981614cba565b60408601516060870151919450925061500181614cba565b600080600080608085870312156159c757600080fd5b84516001600160401b03808211156159de57600080fd5b6159ea88838901615731565b95506020870151915080821115615a0057600080fd5b50615a0d87828801615731565b9350506040850151615a1e81614cba565b6060959095015193969295505050565b600080600060608486031215615a4357600080fd5b83516001600160401b03811115615a5957600080fd5b615a6586828701615731565b9350506020840151615a7681614cba565b80925050604084015190509250925092565b60008060408385031215615a9b57600080fd5b82516001600160401b03811115615ab157600080fd5b615abd85828601615731565b9250506020830151614c6281614cba565b600060208284031215615ae057600080fd5b81516001600160401b03811115615af657600080fd5b61449584828501615731565b600060208284031215615b1457600080fd5b8151610ee281614cba565b606081526002606082015261069560f41b608082015260a0602082015260006153ed60a0830185615395565b938452602084019290925260408301526001600160a01b0316606082015260800190565b60208082526002908201526124a360f11b604082015260600190565b606081526000615b9e6060830186615395565b6001600160a01b039490941660208301525060400152919050565b6060815260026060820152611a5160f21b608082015260a0602082015260006153ed60a0830185615395565b606081526003606082015262734e5360e81b608082015260a0602082015260006153ed60a0830185615395565b608081526000615c256080830187615395565b8281036020840152615c378187615395565b6001600160a01b0395909516604084015250506060015292915050565b6060815260026060820152611b5560f21b608082015260a0602082015260006153ed60a0830185615395565b606081526002606082015261614160f01b608082015260a0602082015260006153ed60a0830185615395565b606081526000615cbf6060830186615395565b6001600160a01b038516602084015290506144956040830184615522565b608081526000615cf06080830187615395565b6001600160a01b0395861660208401526040830194909452509216606090920191909152919050565b6060815260026060820152611d1560f21b608082015260a0602082015260006153ed60a0830185615395565b600082615d5457615d54615309565b500690565b601f821115610cb257600081815260208120601f850160051c81016020861015615d805750805b601f850160051c820191505b81811015611a2557828155600101615d8c565b81516001600160401b03811115615db857615db8614b44565b615dcc81615dc684546156c7565b84615d59565b602080601f831160018114615e015760008415615de95750858301515b600019600386901b1c1916600185901b178555611a25565b600085815260208120601f198616915b82811015615e3057888601518255948401946001909101908401615e11565b5085821015615e4e5787850151600019600388901b60f8161c191681555b5050505050600190811b0190555056fe43cd76b5eb40da9ea5eb31a199f443f7cf7955ec280bc5981a2e3445c79c9055a2646970667358221220d6da8f2b19506e738cad461c8b6cff4b24bf710be76ea91886e376a80ec2624364736f6c6343000813003343cd76b5eb40da9ea5eb31a199f443f7cf7955ec280bc5981a2e3445c79c9055",
  "bytecodeSha1": "da39a3ee5e6b4b0d3255bfef95601890afd80709",
  "compiler": {
    "evm_version": "istanbul",
    "optimizer": {
      "enabled": true,
      "runs": 100
    },
    "version": "0.8.19+commit.7dd6d404"
  },
  "contractName": "Votable",
  "language": "Solidity",
  "natspec": {
    "author": "Frederik W. L. Christoffersen",
    "custom:beaware": "This is a commercial contract.",
    "kind": "dev",
    "methods": {
      "acceptsToken(address)": {
        "notice": "Returns a boolean value, stating if the given token address is registered as acceptable or not.",
        "params": {
          "tokenAddress": "The address of the token to be checked for."
        }
      },
      "active()": {
        "notice": "Boolean stating if the Shardable is active and tradeable or not."
      },
      "addBankAdmin(string,address)": {
        "notice": "Adds a new given administrator to a given Bank.",
        "params": {
          "bankAdmin": "The address of the new Bank administrator to be added.",
          "bankName": "The name of the Bank to which the new administrator is to be added."
        }
      },
      "bankExists(string)": {
        "notice": "Returns a boolean stating if a given Bank exists.",
        "params": {
          "bankName": "The name of the Bank to be checked for."
        }
      },
      "bankIsEmpty(string)": {
        "notice": "Returns a boolean stating if a given Bank is empty.",
        "params": {
          "bankName": "The name of the Bank to be checked for."
        }
      },
      "cancelSale(bytes32)": {
        "notice": "Cancels a sell of a given Shard.",
        "params": {
          "shard": "The shard to be put off sale."
        }
      },
      "claimDividend(bytes32,uint256)": {
        "notice": "Claims the value of an existing dividend corresponding to the shard holder's respective shard fraction.",
        "params": {
          "dividend": "The dividend to be claimed.",
          "shard": "The shard that was valid at the time of the Dividend creation"
        }
      },
      "claimLiquid(address)": {
        "notice": "Claims the owed liquid value corresponding to the shard holder's respective shard fraction after the entity has been liquidized/dissolved.",
        "params": {
          "tokenAddress": "The address of the token to be claimed."
        }
      },
      "createBank(string,address)": {
        "notice": "Creates a new Bank.",
        "params": {
          "bankAdmin": "The address of the first Bank administrator.",
          "bankName": "The name of the Bank to be created."
        }
      },
      "deleteBank(string)": {
        "notice": "Deletes a given Bank.",
        "params": {
          "bankName": "The name of the Bank to be deleted."
        }
      },
      "dissolveDividend(uint256)": {
        "notice": "Dissolves a Dividend and moves its last contents to the 'main' Bank.",
        "params": {
          "dividend": "The Dividend to be dissolved."
        }
      },
      "dividendExists(uint256)": {
        "notice": "Returns a boolean stating if a given Dividend exists.",
        "params": {
          "dividend": "The Dividend to be checked for."
        }
      },
      "getBankBalance(string,address)": {
        "notice": "Returns the balance of a bank.",
        "params": {
          "bankName": "The name of the Bank.",
          "tokenAddress": "The address of the token balance to check for."
        }
      },
      "getDividendResidual(uint256)": {
        "notice": "Returns the residual value of a dividend.",
        "params": {
          "dividend": "The Dividend to be checked for."
        }
      },
      "getDividendToken(uint256)": {
        "notice": "Returns the token of a dividend.",
        "params": {
          "dividend": "The Dividend to be checked for."
        }
      },
      "getDividendValue(uint256)": {
        "notice": "Returns the total value of a dividend.",
        "params": {
          "dividend": "The Dividend to be checked for."
        }
      },
      "getLiquidResidual(address)": {
        "notice": "Returns the residual of a liquid, after liquidization/inactivation.",
        "params": {
          "tokenAddress": "The address of the token to be checked for."
        }
      },
      "getReferendumResult(uint256)": {
        "notice": "Returns a boolean stating if a given Referendum has been voted through (>=50% FAVOR) or not.",
        "params": {
          "referendum": "The Referendum to be checked for."
        }
      },
      "getShardExpiredTime(bytes32)": {
        "notice": "Returns the time, in which a shard will or has expired."
      },
      "getShardSalePrice(bytes32)": {
        "notice": "Returns the price, at which a shard is for sale."
      },
      "hasPermit(string,address)": {
        "notice": "Returns a boolean stating if a given address has a given permit or not.",
        "params": {
          "account": "The address to be checked for.",
          "permitName": "The name of the permit to be checked for."
        }
      },
      "hasVoted(uint256,address)": {
        "notice": "Returns a boolean stating if a given Shard Holder has voted on a given Referendum.",
        "params": {
          "account": "The address of the potential Shard Holder voter to be checked for.",
          "referendum": "The Referendum to be checked for."
        }
      },
      "implementProposal(uint256,uint256)": {
        "notice": "Implements a given Proposal, within a given passed Referendum.",
        "params": {
          "proposalIndex": "The index of the proposal to be implemented.",
          "referendum": "The passed Referendum containing the Proposal."
        }
      },
      "infoByReferendum(uint256)": {
        "notice": "Mapping pointing to dynamic info of a Referendum given a unique Referendum instance."
      },
      "infoByShard(bytes32)": {
        "notice": "Mapping pointing to related info of a Shard given the bytes of a unique Shard instance."
      },
      "isBankAdmin(string,address)": {
        "notice": "Returns a boolean stating if a given address is an admin of a given bank.",
        "params": {
          "account": "The address to be checked for.",
          "bankName": "The name of the Bank to be checked for."
        }
      },
      "isPermitAdmin(string,address)": {
        "notice": "Returns a boolean stating if a given address is an admin of a given permit or not.",
        "params": {
          "account": "The address to be checked for.",
          "permitName": "The name of the permit to be checked for."
        }
      },
      "isShardHolder(address)": {
        "notice": "Checks if address is a shard holder - at least a partial owner of the contract.",
        "params": {
          "account": "The address to be checked for."
        }
      },
      "isValidShard(bytes32)": {
        "notice": "Returns a boolean stating if a given shard is currently valid or not.",
        "params": {
          "shard": "The shard, whose validity is to be checked for."
        }
      },
      "issueDividend(string,address,uint256)": {
        "notice": "Creates and issues a Dividend (to all current shareholders) of a token amount from a given Bank.",
        "params": {
          "bankName": "The name of the Bank to issue the Dividend from.",
          "tokenAddress": "The address of the token to make up the Dividend.",
          "value": "The value/amount of the token to be issued in the Dividend."
        }
      },
      "issueVote(string[],bytes[])": {
        "notice": "The potential errors of the Proposals aren't checked for before implementation!!!",
        "params": {
          "proposalArgumentData": "The parameters passed to the function calls as part of the implementation of the proposals.",
          "proposalFunctionNames": "The names of the functions to be called as a result of the implementation of the proposals."
        }
      },
      "liquid(address)": {
        "notice": "Mapping pointing to a value/amount given the address of an ERC20 token."
      },
      "liquidize()": {
        "notice": "Liquidizes and dissolves the entity. This cannot be undone."
      },
      "moveToken(string,string,address,uint256)": {
        "notice": "Internally moves a token from one Bank to another.",
        "params": {
          "fromBankName": "The name of the Bank from which the token is to be moved.",
          "toBankName": "The name of the Bank to which the token is to be moved.",
          "tokenAddress": "The address of the token to be moved.",
          "value": "The value/amount of the token to be moved."
        }
      },
      "proposalExists(uint256,uint256)": {
        "notice": "Returns a boolean stating if a given Proposal exists within a given Referendum.",
        "params": {
          "proposalIndex": "The index of the proposal to be checked for.",
          "referendum": "The Referendum to be checked for."
        }
      },
      "purchase(bytes32)": {
        "details": "If the purchase is with tokens (ie. tokenAddress != 0x0), first call 'token.approve(Shardable.address, salePrice);'",
        "notice": "Purchases a listed Shard for sale.",
        "params": {
          "shard": "The shard of which a fraction will be purchased."
        }
      },
      "putForSale(bytes32,uint256,uint256,address,uint256,address)": {
        "notice": "Puts a given shard for sale.",
        "params": {
          "denominator": "Denominator of the absolute fraction of the Shard to be put for sale.",
          "numerator": "Numerator of the absolute fraction of the Shard to be put for sale.",
          "price": "The amount which the Shard is for sale as. The token address being the valuta.",
          "shard": "The shard to be put for sale.",
          "to": "The specifically set buyer of the sale. Open to anyone, if address(0).",
          "tokenAddress": "The address of the token that is accepted when purchasing. A value of 0x0 represents ether."
        }
      },
      "receiveToken(address,uint256)": {
        "notice": "Receives a specified token and adds it to the registry. Make sure 'token.approve()' is called beforehand.",
        "params": {
          "tokenAddress": "The address of the token to be received.",
          "value": "The value/amount of the token to be received."
        }
      },
      "referendumIsImplemented(uint256)": {
        "notice": "Returns a boolean stating if a given Referendum is implemented or not.",
        "params": {
          "referendum": "The Referendum to be checked for."
        }
      },
      "referendumIsPassed(uint256)": {
        "notice": "Returns a boolean stating if a given Referendum is passed or not.",
        "params": {
          "referendum": "The Referendum to be checked for."
        }
      },
      "referendumIsPending(uint256)": {
        "notice": "Returns a boolean stating if a given Referendum is pending or not.",
        "params": {
          "referendum": "The Referendum to be checked for."
        }
      },
      "registerTokenAddress(address)": {
        "notice": "Adds a token address to the registry. Also approves any future receipts of said token unless removed again.",
        "params": {
          "tokenAddress": "The token address to be registered."
        }
      },
      "removeBankAdmin(string,address)": {
        "notice": "Removes a given administrator of a given Bank.",
        "params": {
          "bankAdmin": "The address of the current Bank administrator to be removed.",
          "bankName": "The name of the Bank from which the given administrator is to be removed."
        }
      },
      "setBasePermit(string,uint8)": {
        "notice": "Sets the state of a specified base permit.",
        "params": {
          "newState": "The new base Permit State to be applied.",
          "permitName": "The name of the base permit, whose state is to be set."
        }
      },
      "setNonShardHolderState(bool)": {
        "notice": "Sets the state of the Non Shard Holders.",
        "params": {
          "newState": "The Boolean state to be applied."
        }
      },
      "setPermit(string,address,uint8)": {
        "notice": "Sets the state of a specified permit of a given address.",
        "params": {
          "account": "The address, whose permit state is to be set.",
          "newState": "The new Permit State to be applied.",
          "permitName": "The name of the permit, whose state is to be set."
        }
      },
      "shardByOwner(address)": {
        "notice": "Mapping pointing to a currently valid shard given the address of its owner."
      },
      "shardExisted(bytes32,uint256)": {
        "notice": "Returns a boolean stating if the given shard was valid at a given timestamp.",
        "params": {
          "shard": "The shard, whose validity is to be checked for.",
          "time": "The timestamp to be checked for."
        }
      },
      "split(bytes32,uint256,uint256,address)": {
        "notice": "Splits a currently valid shard into two new ones. One is assigned to the receiver. The rest to the previous owner.",
        "params": {
          "denominator": "Denominator of the absolute fraction, which will be subtracted from the previous shard and sent to the receiver.",
          "numerator": "Numerator of the absolute fraction, which will be subtracted from the previous shard and sent to the receiver.",
          "senderShard": "The shard to be split.",
          "to": "The receiver of the new Shard."
        }
      },
      "transferShard(bytes32,address)": {
        "notice": "Sends a whole shard to a receiver.",
        "params": {
          "senderShard": "The shard to be transferred.",
          "to": "The receiver of the new Shard."
        }
      },
      "transferTokenFromBank(string,address,uint256,address)": {
        "notice": "Transfers a token bankAdmin a Bank to a recipient.",
        "params": {
          "bankName": "The name of the Bank from which the token is to be transferred.",
          "to": "The recipient of the token to be transferred.",
          "tokenAddress": "The address of the token to be transferred.",
          "value": "The value/amount of the token to be transferred."
        }
      },
      "unregisterTokenAddress(address)": {
        "notice": "Removes a token address from the registry. Also cancels any future receipts of said token unless added again.",
        "params": {
          "tokenAddress": "The token address to be unregistered."
        }
      },
      "vote(bytes32,uint256,bool)": {
        "notice": "Votes on a existing referendum, with a fraction corresponding to the shard of the holder.",
        "params": {
          "favor": "The boolean value signalling a FOR or AGAINST vote.",
          "referendum": "The referendum to be voted on.",
          "shard": "The Shard to vote with."
        }
      }
    },
    "notice": "This contract is used as a votable administerable business entity.",
    "title": "A fractional DAO-like contract whose decisions can be voted upon by its shareholders",
    "version": 1
  },
  "opcodes": "PUSH1 0x80 PUSH1 0x40 MSTORE PUSH1 0x4 CALLDATASIZE LT PUSH2 0x2CE JUMPI PUSH1 0x0 CALLDATALOAD PUSH1 0xE0 SHR DUP1 PUSH4 0x859D9FD5 GT PUSH2 0x17B JUMPI DUP1 PUSH4 0xB4AF7D59 GT PUSH2 0xD7 JUMPI DUP1 PUSH4 0xDB5DC9B7 GT PUSH2 0x85 JUMPI DUP1 PUSH4 0xDB5DC9B7 EQ PUSH2 0xA08 JUMPI DUP1 PUSH4 0xDE9D6805 EQ PUSH2 0xA28 JUMPI DUP1 PUSH4 0xE1C34C1F EQ PUSH2 0xA48 JUMPI DUP1 PUSH4 0xE6778FCE EQ PUSH2 0xA68 JUMPI DUP1 PUSH4 0xEADB9708 EQ PUSH2 0xA95 JUMPI DUP1 PUSH4 0xF9983896 EQ PUSH2 0xAC7 JUMPI DUP1 PUSH4 0xFD06636B EQ PUSH2 0xAE7 JUMPI PUSH1 0x0 DUP1 REVERT JUMPDEST DUP1 PUSH4 0xB4AF7D59 EQ PUSH2 0x8AF JUMPI DUP1 PUSH4 0xBCEDB2E0 EQ PUSH2 0x8CF JUMPI DUP1 PUSH4 0xC4802EB2 EQ PUSH2 0x94B JUMPI DUP1 PUSH4 0xC5438A55 EQ PUSH2 0x978 JUMPI DUP1 PUSH4 0xC8C56AF0 EQ PUSH2 0x998 JUMPI DUP1 PUSH4 0xCC445611 EQ PUSH2 0x9C8 JUMPI DUP1 PUSH4 0xD0B8B542 EQ PUSH2 0x9DB JUMPI PUSH1 0x0 DUP1 REVERT JUMPDEST DUP1 PUSH4 0x97890DB9 GT PUSH2 0x134 JUMPI DUP1 PUSH4 0x97890DB9 EQ PUSH2 0x799 JUMPI DUP1 PUSH4 0x9995B9A9 EQ PUSH2 0x7B9 JUMPI DUP1 PUSH4 0xA1916AEF EQ PUSH2 0x7E9 JUMPI DUP1 PUSH4 0xA343C535 EQ PUSH2 0x809 JUMPI DUP1 PUSH4 0xA80AED76 EQ PUSH2 0x83F JUMPI DUP1 PUSH4 0xA907B6C5 EQ PUSH2 0x85F JUMPI DUP1 PUSH4 0xB35CA4F3 EQ PUSH2 0x87F JUMPI PUSH1 0x0 DUP1 REVERT JUMPDEST DUP1 PUSH4 0x859D9FD5 EQ PUSH2 0x6C9 JUMPI DUP1 PUSH4 0x868399A5 EQ PUSH2 0x6E9 JUMPI DUP1 PUSH4 0x8786DF6A EQ PUSH2 0x709 JUMPI DUP1 PUSH4 0x8D7844A6 EQ PUSH2 0x729 JUMPI DUP1 PUSH4 0x9211B7B3 EQ PUSH2 0x749 JUMPI DUP1 PUSH4 0x97235A1E EQ PUSH2 0x779 JUMPI PUSH1 0x0 DUP1 REVERT JUMPDEST DUP1 PUSH4 0x354CD135 GT PUSH2 0x22A JUMPI DUP1 PUSH4 0x4F52A71E GT PUSH2 0x1E3 JUMPI DUP1 PUSH4 0x4F52A71E EQ PUSH2 0x57E JUMPI DUP1 PUSH4 0x5BEEFF33 EQ PUSH2 0x59E JUMPI DUP1 PUSH4 0x62748DCC EQ PUSH2 0x5CB JUMPI DUP1 PUSH4 0x63879C0B EQ PUSH2 0x61C JUMPI DUP1 PUSH4 0x64E5378F EQ PUSH2 0x63C JUMPI DUP1 PUSH4 0x7B785493 EQ PUSH2 0x679 JUMPI DUP1 PUSH4 0x81005219 EQ PUSH2 0x6A9 JUMPI PUSH1 0x0 DUP1 REVERT JUMPDEST DUP1 PUSH4 0x354CD135 EQ PUSH2 0x498 JUMPI DUP1 PUSH4 0x384FE2B5 EQ PUSH2 0x4B8 JUMPI DUP1 PUSH4 0x3C06DF46 EQ PUSH2 0x4D8 JUMPI DUP1 PUSH4 0x3DBEAA54 EQ PUSH2 0x4F8 JUMPI DUP1 PUSH4 0x43859632 EQ PUSH2 0x52E JUMPI DUP1 PUSH4 0x4C46360B EQ PUSH2 0x54E JUMPI PUSH1 0x0 DUP1 REVERT JUMPDEST DUP1 PUSH4 0x258E4D9F GT PUSH2 0x287 JUMPI DUP1 PUSH4 0x258E4D9F EQ PUSH2 0x3AA JUMPI DUP1 PUSH4 0x2956DE91 EQ PUSH2 0x3CA JUMPI DUP1 PUSH4 0x2C729FD1 EQ PUSH2 0x3EA JUMPI DUP1 PUSH4 0x2DEC7CD2 EQ PUSH2 0x40A JUMPI DUP1 PUSH4 0x2EF37926 EQ PUSH2 0x438 JUMPI DUP1 PUSH4 0x2F2E9A2A EQ PUSH2 0x458 JUMPI DUP1 PUSH4 0x350546D8 EQ PUSH2 0x478 JUMPI PUSH1 0x0 DUP1 REVERT JUMPDEST DUP1 PUSH4 0x2FB0C5E EQ PUSH2 0x2E6 JUMPI DUP1 PUSH4 0x36F3AEC EQ PUSH2 0x315 JUMPI DUP1 PUSH4 0x5C558F5 EQ PUSH2 0x335 JUMPI DUP1 PUSH4 0xBEA8985 EQ PUSH2 0x34A JUMPI DUP1 PUSH4 0x169936B4 EQ PUSH2 0x36A JUMPI DUP1 PUSH4 0x23656642 EQ PUSH2 0x38A JUMPI PUSH1 0x0 DUP1 REVERT JUMPDEST CALLDATASIZE PUSH2 0x2E1 JUMPI PUSH2 0x2DF PUSH1 0x0 CALLVALUE CALLER PUSH2 0xB07 JUMP JUMPDEST STOP JUMPDEST PUSH1 0x0 DUP1 REVERT JUMPDEST CALLVALUE DUP1 ISZERO PUSH2 0x2F2 JUMPI PUSH1 0x0 DUP1 REVERT JUMPDEST POP PUSH1 0x1 SLOAD PUSH2 0x300 SWAP1 PUSH1 0xFF AND DUP2 JUMP JUMPDEST PUSH1 0x40 MLOAD SWAP1 ISZERO ISZERO DUP2 MSTORE PUSH1 0x20 ADD JUMPDEST PUSH1 0x40 MLOAD DUP1 SWAP2 SUB SWAP1 RETURN JUMPDEST CALLVALUE DUP1 ISZERO PUSH2 0x321 JUMPI PUSH1 0x0 DUP1 REVERT JUMPDEST POP PUSH2 0x2DF PUSH2 0x330 CALLDATASIZE PUSH1 0x4 PUSH2 0x4C1C JUMP JUMPDEST PUSH2 0xC27 JUMP JUMPDEST CALLVALUE DUP1 ISZERO PUSH2 0x341 JUMPI PUSH1 0x0 DUP1 REVERT JUMPDEST POP PUSH2 0x2DF PUSH2 0xCB7 JUMP JUMPDEST CALLVALUE DUP1 ISZERO PUSH2 0x356 JUMPI PUSH1 0x0 DUP1 REVERT JUMPDEST POP PUSH2 0x2DF PUSH2 0x365 CALLDATASIZE PUSH1 0x4 PUSH2 0x4C6D JUMP JUMPDEST PUSH2 0xCF1 JUMP JUMPDEST CALLVALUE DUP1 ISZERO PUSH2 0x376 JUMPI PUSH1 0x0 DUP1 REVERT JUMPDEST POP PUSH2 0x300 PUSH2 0x385 CALLDATASIZE PUSH1 0x4 PUSH2 0x4C86 JUMP JUMPDEST PUSH2 0xD9A JUMP JUMPDEST CALLVALUE DUP1 ISZERO PUSH2 0x396 JUMPI PUSH1 0x0 DUP1 REVERT JUMPDEST POP PUSH2 0x2DF PUSH2 0x3A5 CALLDATASIZE PUSH1 0x4 PUSH2 0x4C6D JUMP JUMPDEST PUSH2 0xDF8 JUMP JUMPDEST CALLVALUE DUP1 ISZERO PUSH2 0x3B6 JUMPI PUSH1 0x0 DUP1 REVERT JUMPDEST POP PUSH2 0x300 PUSH2 0x3C5 CALLDATASIZE PUSH1 0x4 PUSH2 0x4CCF JUMP JUMPDEST PUSH2 0xE34 JUMP JUMPDEST CALLVALUE DUP1 ISZERO PUSH2 0x3D6 JUMPI PUSH1 0x0 DUP1 REVERT JUMPDEST POP PUSH2 0x2DF PUSH2 0x3E5 CALLDATASIZE PUSH1 0x4 PUSH2 0x4DD7 JUMP JUMPDEST PUSH2 0xEE9 JUMP JUMPDEST CALLVALUE DUP1 ISZERO PUSH2 0x3F6 JUMPI PUSH1 0x0 DUP1 REVERT JUMPDEST POP PUSH2 0x2DF PUSH2 0x405 CALLDATASIZE PUSH1 0x4 PUSH2 0x4EB8 JUMP JUMPDEST PUSH2 0xF22 JUMP JUMPDEST CALLVALUE DUP1 ISZERO PUSH2 0x416 JUMPI PUSH1 0x0 DUP1 REVERT JUMPDEST POP PUSH2 0x42A PUSH2 0x425 CALLDATASIZE PUSH1 0x4 PUSH2 0x4CCF JUMP JUMPDEST PUSH2 0x120D JUMP JUMPDEST PUSH1 0x40 MLOAD SWAP1 DUP2 MSTORE PUSH1 0x20 ADD PUSH2 0x30C JUMP JUMPDEST CALLVALUE DUP1 ISZERO PUSH2 0x444 JUMPI PUSH1 0x0 DUP1 REVERT JUMPDEST POP PUSH2 0x2DF PUSH2 0x453 CALLDATASIZE PUSH1 0x4 PUSH2 0x4CCF JUMP JUMPDEST PUSH2 0x124E JUMP JUMPDEST CALLVALUE DUP1 ISZERO PUSH2 0x464 JUMPI PUSH1 0x0 DUP1 REVERT JUMPDEST POP PUSH2 0x2DF PUSH2 0x473 CALLDATASIZE PUSH1 0x4 PUSH2 0x4CCF JUMP JUMPDEST PUSH2 0x12AD JUMP JUMPDEST CALLVALUE DUP1 ISZERO PUSH2 0x484 JUMPI PUSH1 0x0 DUP1 REVERT JUMPDEST POP PUSH2 0x2DF PUSH2 0x493 CALLDATASIZE PUSH1 0x4 PUSH2 0x4EF1 JUMP JUMPDEST PUSH2 0x1300 JUMP JUMPDEST CALLVALUE DUP1 ISZERO PUSH2 0x4A4 JUMPI PUSH1 0x0 DUP1 REVERT JUMPDEST POP PUSH2 0x2DF PUSH2 0x4B3 CALLDATASIZE PUSH1 0x4 PUSH2 0x4F0E JUMP JUMPDEST PUSH2 0x14A8 JUMP JUMPDEST CALLVALUE DUP1 ISZERO PUSH2 0x4C4 JUMPI PUSH1 0x0 DUP1 REVERT JUMPDEST POP PUSH2 0x2DF PUSH2 0x4D3 CALLDATASIZE PUSH1 0x4 PUSH2 0x4C86 JUMP JUMPDEST PUSH2 0x16C6 JUMP JUMPDEST CALLVALUE DUP1 ISZERO PUSH2 0x4E4 JUMPI PUSH1 0x0 DUP1 REVERT JUMPDEST POP PUSH2 0x2DF PUSH2 0x4F3 CALLDATASIZE PUSH1 0x4 PUSH2 0x4F0E JUMP JUMPDEST PUSH2 0x1712 JUMP JUMPDEST CALLVALUE DUP1 ISZERO PUSH2 0x504 JUMPI PUSH1 0x0 DUP1 REVERT JUMPDEST POP PUSH2 0x42A PUSH2 0x513 CALLDATASIZE PUSH1 0x4 PUSH2 0x4EF1 JUMP JUMPDEST PUSH1 0x1 PUSH1 0x1 PUSH1 0xA0 SHL SUB AND PUSH1 0x0 SWAP1 DUP2 MSTORE PUSH1 0x9 PUSH1 0x20 MSTORE PUSH1 0x40 SWAP1 KECCAK256 SLOAD SWAP1 JUMP JUMPDEST CALLVALUE DUP1 ISZERO PUSH2 0x53A JUMPI PUSH1 0x0 DUP1 REVERT JUMPDEST POP PUSH2 0x300 PUSH2 0x549 CALLDATASIZE PUSH1 0x4 PUSH2 0x4F30 JUMP JUMPDEST PUSH2 0x174B JUMP JUMPDEST CALLVALUE DUP1 ISZERO PUSH2 0x55A JUMPI PUSH1 0x0 DUP1 REVERT JUMPDEST POP PUSH2 0x42A PUSH2 0x569 CALLDATASIZE PUSH1 0x4 PUSH2 0x4C6D JUMP JUMPDEST PUSH1 0x0 SWAP1 DUP2 MSTORE PUSH1 0x13 PUSH1 0x20 MSTORE PUSH1 0x40 SWAP1 KECCAK256 PUSH1 0x2 ADD SLOAD SWAP1 JUMP JUMPDEST CALLVALUE DUP1 ISZERO PUSH2 0x58A JUMPI PUSH1 0x0 DUP1 REVERT JUMPDEST POP PUSH2 0x2DF PUSH2 0x599 CALLDATASIZE PUSH1 0x4 PUSH2 0x4F30 JUMP JUMPDEST PUSH2 0x1780 JUMP JUMPDEST CALLVALUE DUP1 ISZERO PUSH2 0x5AA JUMPI PUSH1 0x0 DUP1 REVERT JUMPDEST POP PUSH2 0x42A PUSH2 0x5B9 CALLDATASIZE PUSH1 0x4 PUSH2 0x4EF1 JUMP JUMPDEST PUSH1 0x8 PUSH1 0x20 MSTORE PUSH1 0x0 SWAP1 DUP2 MSTORE PUSH1 0x40 SWAP1 KECCAK256 SLOAD DUP2 JUMP JUMPDEST CALLVALUE DUP1 ISZERO PUSH2 0x5D7 JUMPI PUSH1 0x0 DUP1 REVERT JUMPDEST POP PUSH2 0x604 PUSH2 0x5E6 CALLDATASIZE PUSH1 0x4 PUSH2 0x4C6D JUMP JUMPDEST PUSH1 0x0 SWAP1 DUP2 MSTORE PUSH1 0x13 PUSH1 0x20 MSTORE PUSH1 0x40 SWAP1 KECCAK256 PUSH1 0x1 ADD SLOAD PUSH1 0x1 PUSH1 0x1 PUSH1 0xA0 SHL SUB AND SWAP1 JUMP JUMPDEST PUSH1 0x40 MLOAD PUSH1 0x1 PUSH1 0x1 PUSH1 0xA0 SHL SUB SWAP1 SWAP2 AND DUP2 MSTORE PUSH1 0x20 ADD PUSH2 0x30C JUMP JUMPDEST CALLVALUE DUP1 ISZERO PUSH2 0x628 JUMPI PUSH1 0x0 DUP1 REVERT JUMPDEST POP PUSH2 0x2DF PUSH2 0x637 CALLDATASIZE PUSH1 0x4 PUSH2 0x4F55 JUMP JUMPDEST PUSH2 0x17FC JUMP JUMPDEST CALLVALUE DUP1 ISZERO PUSH2 0x648 JUMPI PUSH1 0x0 DUP1 REVERT JUMPDEST POP PUSH2 0x300 PUSH2 0x657 CALLDATASIZE PUSH1 0x4 PUSH2 0x4C6D JUMP JUMPDEST PUSH1 0x0 SWAP1 DUP2 MSTORE PUSH1 0x16 PUSH1 0x20 SWAP1 DUP2 MSTORE PUSH1 0x40 DUP1 DUP4 KECCAK256 PUSH1 0x1 ADD SLOAD PUSH1 0x1B SWAP1 SWAP3 MSTORE SWAP1 SWAP2 KECCAK256 SLOAD EQ SWAP1 JUMP JUMPDEST CALLVALUE DUP1 ISZERO PUSH2 0x685 JUMPI PUSH1 0x0 DUP1 REVERT JUMPDEST POP PUSH2 0x42A PUSH2 0x694 CALLDATASIZE PUSH1 0x4 PUSH2 0x4C6D JUMP JUMPDEST PUSH1 0x0 SWAP1 DUP2 MSTORE PUSH1 0x5 PUSH1 0x20 MSTORE PUSH1 0x40 SWAP1 KECCAK256 PUSH1 0x3 ADD SLOAD SWAP1 JUMP JUMPDEST CALLVALUE DUP1 ISZERO PUSH2 0x6B5 JUMPI PUSH1 0x0 DUP1 REVERT JUMPDEST POP PUSH2 0x2DF PUSH2 0x6C4 CALLDATASIZE PUSH1 0x4 PUSH2 0x4FAE JUMP JUMPDEST PUSH2 0x1851 JUMP JUMPDEST CALLVALUE DUP1 ISZERO PUSH2 0x6D5 JUMPI PUSH1 0x0 DUP1 REVERT JUMPDEST POP PUSH2 0x2DF PUSH2 0x6E4 CALLDATASIZE PUSH1 0x4 PUSH2 0x4EF1 JUMP JUMPDEST PUSH2 0x18B4 JUMP JUMPDEST CALLVALUE DUP1 ISZERO PUSH2 0x6F5 JUMPI PUSH1 0x0 DUP1 REVERT JUMPDEST POP PUSH2 0x300 PUSH2 0x704 CALLDATASIZE PUSH1 0x4 PUSH2 0x4EF1 JUMP JUMPDEST PUSH2 0x1913 JUMP JUMPDEST CALLVALUE DUP1 ISZERO PUSH2 0x715 JUMPI PUSH1 0x0 DUP1 REVERT JUMPDEST POP PUSH2 0x2DF PUSH2 0x724 CALLDATASIZE PUSH1 0x4 PUSH2 0x4EF1 JUMP JUMPDEST PUSH2 0x1948 JUMP JUMPDEST CALLVALUE DUP1 ISZERO PUSH2 0x735 JUMPI PUSH1 0x0 DUP1 REVERT JUMPDEST POP PUSH2 0x2DF PUSH2 0x744 CALLDATASIZE PUSH1 0x4 PUSH2 0x4FCB JUMP JUMPDEST PUSH2 0x19A7 JUMP JUMPDEST CALLVALUE DUP1 ISZERO PUSH2 0x755 JUMPI PUSH1 0x0 DUP1 REVERT JUMPDEST POP PUSH2 0x300 PUSH2 0x764 CALLDATASIZE PUSH1 0x4 PUSH2 0x4C6D JUMP JUMPDEST PUSH1 0x0 SWAP1 DUP2 MSTORE PUSH1 0x12 PUSH1 0x20 MSTORE PUSH1 0x40 SWAP1 KECCAK256 SLOAD PUSH1 0xFF AND SWAP1 JUMP JUMPDEST CALLVALUE DUP1 ISZERO PUSH2 0x785 JUMPI PUSH1 0x0 DUP1 REVERT JUMPDEST POP PUSH2 0x2DF PUSH2 0x794 CALLDATASIZE PUSH1 0x4 PUSH2 0x500C JUMP JUMPDEST PUSH2 0x1A2D JUMP JUMPDEST CALLVALUE DUP1 ISZERO PUSH2 0x7A5 JUMPI PUSH1 0x0 DUP1 REVERT JUMPDEST POP PUSH2 0x300 PUSH2 0x7B4 CALLDATASIZE PUSH1 0x4 PUSH2 0x4C6D JUMP JUMPDEST PUSH2 0x1B7D JUMP JUMPDEST CALLVALUE DUP1 ISZERO PUSH2 0x7C5 JUMPI PUSH1 0x0 DUP1 REVERT JUMPDEST POP PUSH2 0x300 PUSH2 0x7D4 CALLDATASIZE PUSH1 0x4 PUSH2 0x4C6D JUMP JUMPDEST PUSH1 0x0 DUP1 SLOAD SWAP2 DUP2 MSTORE PUSH1 0x6 PUSH1 0x20 MSTORE PUSH1 0x40 SWAP1 KECCAK256 SLOAD GT SWAP1 JUMP JUMPDEST CALLVALUE DUP1 ISZERO PUSH2 0x7F5 JUMPI PUSH1 0x0 DUP1 REVERT JUMPDEST POP PUSH2 0x2DF PUSH2 0x804 CALLDATASIZE PUSH1 0x4 PUSH2 0x5038 JUMP JUMPDEST PUSH2 0x1BC4 JUMP JUMPDEST CALLVALUE DUP1 ISZERO PUSH2 0x815 JUMPI PUSH1 0x0 DUP1 REVERT JUMPDEST POP PUSH2 0x604 PUSH2 0x824 CALLDATASIZE PUSH1 0x4 PUSH2 0x4C6D JUMP JUMPDEST PUSH1 0x16 PUSH1 0x20 MSTORE PUSH1 0x0 SWAP1 DUP2 MSTORE PUSH1 0x40 SWAP1 KECCAK256 SLOAD PUSH1 0x1 PUSH1 0x1 PUSH1 0xA0 SHL SUB AND DUP2 JUMP JUMPDEST CALLVALUE DUP1 ISZERO PUSH2 0x84B JUMPI PUSH1 0x0 DUP1 REVERT JUMPDEST POP PUSH2 0x300 PUSH2 0x85A CALLDATASIZE PUSH1 0x4 PUSH2 0x4CCF JUMP JUMPDEST PUSH2 0x1BE5 JUMP JUMPDEST CALLVALUE DUP1 ISZERO PUSH2 0x86B JUMPI PUSH1 0x0 DUP1 REVERT JUMPDEST POP PUSH2 0x2DF PUSH2 0x87A CALLDATASIZE PUSH1 0x4 PUSH2 0x4CCF JUMP JUMPDEST PUSH2 0x1C50 JUMP JUMPDEST CALLVALUE DUP1 ISZERO PUSH2 0x88B JUMPI PUSH1 0x0 DUP1 REVERT JUMPDEST POP PUSH2 0x300 PUSH2 0x89A CALLDATASIZE PUSH1 0x4 PUSH2 0x4C6D JUMP JUMPDEST PUSH1 0x0 SWAP1 DUP2 MSTORE PUSH1 0x1E PUSH1 0x20 MSTORE PUSH1 0x40 SWAP1 KECCAK256 SLOAD PUSH1 0xFF AND SWAP1 JUMP JUMPDEST CALLVALUE DUP1 ISZERO PUSH2 0x8BB JUMPI PUSH1 0x0 DUP1 REVERT JUMPDEST POP PUSH2 0x300 PUSH2 0x8CA CALLDATASIZE PUSH1 0x4 PUSH2 0x4C86 JUMP JUMPDEST PUSH2 0x1CCF JUMP JUMPDEST CALLVALUE DUP1 ISZERO PUSH2 0x8DB JUMPI PUSH1 0x0 DUP1 REVERT JUMPDEST POP PUSH2 0x91C PUSH2 0x8EA CALLDATASIZE PUSH1 0x4 PUSH2 0x4C6D JUMP JUMPDEST PUSH1 0x2 PUSH1 0x20 DUP2 SWAP1 MSTORE PUSH1 0x0 SWAP2 DUP3 MSTORE PUSH1 0x40 SWAP1 SWAP2 KECCAK256 DUP1 SLOAD PUSH1 0x1 DUP3 ADD SLOAD SWAP3 DUP3 ADD SLOAD PUSH1 0x3 SWAP1 SWAP3 ADD SLOAD SWAP1 SWAP3 SWAP2 PUSH1 0x1 PUSH1 0x1 PUSH1 0xA0 SHL SUB AND SWAP1 DUP5 JUMP JUMPDEST PUSH1 0x40 MLOAD PUSH2 0x30C SWAP5 SWAP4 SWAP3 SWAP2 SWAP1 SWAP4 DUP5 MSTORE PUSH1 0x20 DUP5 ADD SWAP3 SWAP1 SWAP3 MSTORE PUSH1 0x1 PUSH1 0x1 PUSH1 0xA0 SHL SUB AND PUSH1 0x40 DUP4 ADD MSTORE PUSH1 0x60 DUP3 ADD MSTORE PUSH1 0x80 ADD SWAP1 JUMP JUMPDEST CALLVALUE DUP1 ISZERO PUSH2 0x957 JUMPI PUSH1 0x0 DUP1 REVERT JUMPDEST POP PUSH2 0x42A PUSH2 0x966 CALLDATASIZE PUSH1 0x4 PUSH2 0x4EF1 JUMP JUMPDEST PUSH1 0x3 PUSH1 0x20 MSTORE PUSH1 0x0 SWAP1 DUP2 MSTORE PUSH1 0x40 SWAP1 KECCAK256 SLOAD DUP2 JUMP JUMPDEST CALLVALUE DUP1 ISZERO PUSH2 0x984 JUMPI PUSH1 0x0 DUP1 REVERT JUMPDEST POP PUSH2 0x2DF PUSH2 0x993 CALLDATASIZE PUSH1 0x4 PUSH2 0x50B5 JUMP JUMPDEST PUSH2 0x1CFF JUMP JUMPDEST CALLVALUE DUP1 ISZERO PUSH2 0x9A4 JUMPI PUSH1 0x0 DUP1 REVERT JUMPDEST POP PUSH2 0x300 PUSH2 0x9B3 CALLDATASIZE PUSH1 0x4 PUSH2 0x4C6D JUMP JUMPDEST PUSH1 0x0 SWAP1 DUP2 MSTORE PUSH1 0x1D PUSH1 0x20 MSTORE PUSH1 0x40 SWAP1 KECCAK256 SLOAD PUSH1 0xFF AND SWAP1 JUMP JUMPDEST PUSH2 0x2DF PUSH2 0x9D6 CALLDATASIZE PUSH1 0x4 PUSH2 0x4C6D JUMP JUMPDEST PUSH2 0x1DDF JUMP JUMPDEST CALLVALUE DUP1 ISZERO PUSH2 0x9E7 JUMPI PUSH1 0x0 DUP1 REVERT JUMPDEST POP PUSH2 0x42A PUSH2 0x9F6 CALLDATASIZE PUSH1 0x4 PUSH2 0x4C6D JUMP JUMPDEST PUSH1 0x0 SWAP1 DUP2 MSTORE PUSH1 0x6 PUSH1 0x20 MSTORE PUSH1 0x40 SWAP1 KECCAK256 SLOAD SWAP1 JUMP JUMPDEST CALLVALUE DUP1 ISZERO PUSH2 0xA14 JUMPI PUSH1 0x0 DUP1 REVERT JUMPDEST POP PUSH2 0x300 PUSH2 0xA23 CALLDATASIZE PUSH1 0x4 PUSH2 0x4CCF JUMP JUMPDEST PUSH2 0x2336 JUMP JUMPDEST CALLVALUE DUP1 ISZERO PUSH2 0xA34 JUMPI PUSH1 0x0 DUP1 REVERT JUMPDEST POP PUSH2 0x2DF PUSH2 0xA43 CALLDATASIZE PUSH1 0x4 PUSH2 0x510D JUMP JUMPDEST PUSH2 0x23EC JUMP JUMPDEST CALLVALUE DUP1 ISZERO PUSH2 0xA54 JUMPI PUSH1 0x0 DUP1 REVERT JUMPDEST POP PUSH2 0x300 PUSH2 0xA63 CALLDATASIZE PUSH1 0x4 PUSH2 0x4EF1 JUMP JUMPDEST PUSH2 0x240D JUMP JUMPDEST CALLVALUE DUP1 ISZERO PUSH2 0xA74 JUMPI PUSH1 0x0 DUP1 REVERT JUMPDEST POP PUSH2 0x42A PUSH2 0xA83 CALLDATASIZE PUSH1 0x4 PUSH2 0x4C6D JUMP JUMPDEST PUSH1 0x0 SWAP1 DUP2 MSTORE PUSH1 0x14 PUSH1 0x20 MSTORE PUSH1 0x40 SWAP1 KECCAK256 SLOAD SWAP1 JUMP JUMPDEST CALLVALUE DUP1 ISZERO PUSH2 0xAA1 JUMPI PUSH1 0x0 DUP1 REVERT JUMPDEST POP PUSH2 0x300 PUSH2 0xAB0 CALLDATASIZE PUSH1 0x4 PUSH2 0x4F0E JUMP JUMPDEST PUSH1 0x0 SWAP2 DUP3 MSTORE PUSH1 0x16 PUSH1 0x20 MSTORE PUSH1 0x40 SWAP1 SWAP2 KECCAK256 PUSH1 0x1 ADD SLOAD GT SWAP1 JUMP JUMPDEST CALLVALUE DUP1 ISZERO PUSH2 0xAD3 JUMPI PUSH1 0x0 DUP1 REVERT JUMPDEST POP PUSH2 0x2DF PUSH2 0xAE2 CALLDATASIZE PUSH1 0x4 PUSH2 0x516D JUMP JUMPDEST PUSH2 0x243F JUMP JUMPDEST CALLVALUE DUP1 ISZERO PUSH2 0xAF3 JUMPI PUSH1 0x0 DUP1 REVERT JUMPDEST POP PUSH2 0x300 PUSH2 0xB02 CALLDATASIZE PUSH1 0x4 PUSH2 0x4F0E JUMP JUMPDEST PUSH2 0x24BF JUMP JUMPDEST PUSH2 0xB12 DUP4 DUP4 DUP4 PUSH2 0x24F0 JUMP JUMPDEST PUSH1 0xE PUSH1 0x40 MLOAD PUSH2 0xB20 SWAP1 PUSH2 0x51CB JUMP JUMPDEST SWAP1 DUP2 MSTORE PUSH1 0x40 DUP1 MLOAD PUSH1 0x20 SWAP3 DUP2 SWAP1 SUB DUP4 ADD SWAP1 KECCAK256 PUSH1 0x1 PUSH1 0x1 PUSH1 0xA0 SHL SUB DUP7 AND PUSH1 0x0 SWAP1 DUP2 MSTORE SWAP3 MSTORE SWAP1 KECCAK256 SLOAD ISZERO DUP1 ISZERO PUSH2 0xB5A JUMPI POP PUSH1 0x1 PUSH1 0x1 PUSH1 0xA0 SHL SUB DUP4 AND ISZERO ISZERO JUMPDEST ISZERO PUSH2 0xB92 JUMPI PUSH1 0x1 PUSH1 0xD PUSH1 0x40 MLOAD PUSH2 0xB6F SWAP1 PUSH2 0x51CB JUMP JUMPDEST SWAP1 DUP2 MSTORE PUSH1 0x20 ADD PUSH1 0x40 MLOAD DUP1 SWAP2 SUB SWAP1 KECCAK256 PUSH1 0x0 DUP3 DUP3 SLOAD PUSH2 0xB8C SWAP2 SWAP1 PUSH2 0x51F1 JUMP JUMPDEST SWAP1 SWAP2 SSTORE POP POP JUMPDEST DUP2 PUSH1 0xE PUSH1 0x40 MLOAD PUSH2 0xBA1 SWAP1 PUSH2 0x51CB JUMP JUMPDEST SWAP1 DUP2 MSTORE PUSH1 0x20 ADD PUSH1 0x40 MLOAD DUP1 SWAP2 SUB SWAP1 KECCAK256 PUSH1 0x0 DUP6 PUSH1 0x1 PUSH1 0x1 PUSH1 0xA0 SHL SUB AND PUSH1 0x1 PUSH1 0x1 PUSH1 0xA0 SHL SUB AND DUP2 MSTORE PUSH1 0x20 ADD SWAP1 DUP2 MSTORE PUSH1 0x20 ADD PUSH1 0x0 KECCAK256 PUSH1 0x0 DUP3 DUP3 SLOAD PUSH2 0xBE1 SWAP2 SWAP1 PUSH2 0x51F1 JUMP JUMPDEST SWAP1 SWAP2 SSTORE POP POP PUSH1 0x40 MLOAD PUSH32 0xDE49BBE8E448CDFA40E6FA0D22592BE9A03B28BA746527635DBE5235416659CF SWAP1 PUSH2 0xC1A SWAP1 DUP6 SWAP1 DUP6 SWAP1 DUP6 SWAP1 PUSH2 0x5204 JUMP JUMPDEST PUSH1 0x40 MLOAD DUP1 SWAP2 SUB SWAP1 LOG1 POP POP POP JUMP JUMPDEST DUP2 PUSH2 0xC32 DUP2 CALLER PUSH2 0xE34 JUMP JUMPDEST PUSH2 0xC3B JUMPI PUSH1 0x0 DUP1 REVERT JUMPDEST DUP2 PUSH1 0x2 DUP2 GT ISZERO PUSH2 0xC4D JUMPI PUSH2 0xC4D PUSH2 0x5227 JUMP JUMPDEST PUSH1 0x11 DUP5 PUSH1 0x40 MLOAD PUSH2 0xC5D SWAP2 SWAP1 PUSH2 0x5261 JUMP JUMPDEST SWAP1 DUP2 MSTORE PUSH1 0x40 MLOAD SWAP1 DUP2 SWAP1 SUB PUSH1 0x20 ADD SWAP1 KECCAK256 SLOAD PUSH1 0xFF AND PUSH1 0x2 DUP2 GT ISZERO PUSH2 0xC81 JUMPI PUSH2 0xC81 PUSH2 0x5227 JUMP JUMPDEST SUB PUSH2 0xCA7 JUMPI PUSH1 0x40 MLOAD PUSH3 0x461BCD PUSH1 0xE5 SHL DUP2 MSTORE PUSH1 0x4 ADD PUSH2 0xC9E SWAP1 PUSH2 0x527D JUMP JUMPDEST PUSH1 0x40 MLOAD DUP1 SWAP2 SUB SWAP1 REVERT JUMPDEST PUSH2 0xCB2 DUP4 DUP4 CALLER PUSH2 0x2545 JUMP JUMPDEST POP POP POP JUMP JUMPDEST PUSH1 0x40 MLOAD DUP1 PUSH1 0x40 ADD PUSH1 0x40 MSTORE DUP1 PUSH1 0x2 DUP2 MSTORE PUSH1 0x20 ADD PUSH2 0x6C45 PUSH1 0xF0 SHL DUP2 MSTORE POP PUSH2 0xCDC DUP2 CALLER PUSH2 0x2336 JUMP JUMPDEST PUSH2 0xCE5 JUMPI PUSH1 0x0 DUP1 REVERT JUMPDEST PUSH2 0xCEE CALLER PUSH2 0x25E8 JUMP JUMPDEST POP JUMP JUMPDEST PUSH1 0x0 DUP2 DUP2 MSTORE PUSH1 0x2 PUSH1 0x20 DUP2 SWAP1 MSTORE PUSH1 0x40 SWAP1 SWAP2 KECCAK256 ADD SLOAD DUP2 SWAP1 PUSH1 0x1 PUSH1 0x1 PUSH1 0xA0 SHL SUB AND CALLER EQ PUSH2 0xD2D JUMPI PUSH1 0x40 MLOAD PUSH3 0x461BCD PUSH1 0xE5 SHL DUP2 MSTORE PUSH1 0x4 ADD PUSH2 0xC9E SWAP1 PUSH2 0x5299 JUMP JUMPDEST DUP2 PUSH2 0xD47 DUP2 PUSH1 0x0 DUP1 SLOAD SWAP2 DUP2 MSTORE PUSH1 0x6 PUSH1 0x20 MSTORE PUSH1 0x40 SWAP1 KECCAK256 SLOAD GT SWAP1 JUMP JUMPDEST PUSH2 0xD63 JUMPI PUSH1 0x40 MLOAD PUSH3 0x461BCD PUSH1 0xE5 SHL DUP2 MSTORE PUSH1 0x4 ADD PUSH2 0xC9E SWAP1 PUSH2 0x52B5 JUMP JUMPDEST PUSH1 0x0 DUP4 DUP2 MSTORE PUSH1 0x4 PUSH1 0x20 MSTORE PUSH1 0x40 SWAP1 KECCAK256 SLOAD PUSH1 0xFF AND PUSH2 0xD91 JUMPI PUSH1 0x40 MLOAD PUSH3 0x461BCD PUSH1 0xE5 SHL DUP2 MSTORE PUSH1 0x4 ADD PUSH2 0xC9E SWAP1 PUSH2 0x52D1 JUMP JUMPDEST PUSH2 0xCB2 DUP4 PUSH2 0x2657 JUMP JUMPDEST PUSH1 0x0 PUSH1 0xD DUP3 PUSH1 0x40 MLOAD PUSH2 0xDAC SWAP2 SWAP1 PUSH2 0x5261 JUMP JUMPDEST SWAP1 DUP2 MSTORE PUSH1 0x20 ADD PUSH1 0x40 MLOAD DUP1 SWAP2 SUB SWAP1 KECCAK256 SLOAD PUSH1 0x0 EQ DUP1 ISZERO PUSH2 0xDF2 JUMPI POP PUSH1 0xE DUP3 PUSH1 0x40 MLOAD PUSH2 0xDD5 SWAP2 SWAP1 PUSH2 0x5261 JUMP JUMPDEST SWAP1 DUP2 MSTORE PUSH1 0x40 DUP1 MLOAD PUSH1 0x20 SWAP3 DUP2 SWAP1 SUB DUP4 ADD SWAP1 KECCAK256 PUSH1 0x0 DUP1 DUP1 MSTORE SWAP3 MSTORE SWAP1 KECCAK256 SLOAD ISZERO JUMPDEST SWAP3 SWAP2 POP POP JUMP JUMPDEST PUSH1 0x40 MLOAD DUP1 PUSH1 0x40 ADD PUSH1 0x40 MSTORE DUP1 PUSH1 0x2 DUP2 MSTORE PUSH1 0x20 ADD PUSH2 0x1911 PUSH1 0xF2 SHL DUP2 MSTORE POP PUSH2 0xE1D DUP2 CALLER PUSH2 0x2336 JUMP JUMPDEST PUSH2 0xE26 JUMPI PUSH1 0x0 DUP1 REVERT JUMPDEST PUSH2 0xE30 DUP3 CALLER PUSH2 0x26A6 JUMP JUMPDEST POP POP JUMP JUMPDEST PUSH1 0x0 PUSH2 0xE3F DUP3 PUSH2 0x240D JUMP JUMPDEST DUP1 PUSH2 0xE4C JUMPI POP PUSH1 0xB SLOAD PUSH1 0xFF AND JUMPDEST PUSH2 0xE58 JUMPI POP PUSH1 0x0 PUSH2 0xDF2 JUMP JUMPDEST PUSH1 0x2 PUSH1 0x10 DUP5 PUSH1 0x40 MLOAD PUSH2 0xE6A SWAP2 SWAP1 PUSH2 0x5261 JUMP JUMPDEST SWAP1 DUP2 MSTORE PUSH1 0x40 DUP1 MLOAD PUSH1 0x20 SWAP3 DUP2 SWAP1 SUB DUP4 ADD SWAP1 KECCAK256 PUSH1 0x1 PUSH1 0x1 PUSH1 0xA0 SHL SUB DUP7 AND PUSH1 0x0 SWAP1 DUP2 MSTORE SWAP3 MSTORE SWAP1 KECCAK256 SLOAD PUSH1 0xFF AND PUSH1 0x2 DUP2 GT ISZERO PUSH2 0xEA3 JUMPI PUSH2 0xEA3 PUSH2 0x5227 JUMP JUMPDEST EQ DUP1 PUSH2 0xEE2 JUMPI POP PUSH1 0x2 PUSH1 0x11 DUP5 PUSH1 0x40 MLOAD PUSH2 0xEBC SWAP2 SWAP1 PUSH2 0x5261 JUMP JUMPDEST SWAP1 DUP2 MSTORE PUSH1 0x40 MLOAD SWAP1 DUP2 SWAP1 SUB PUSH1 0x20 ADD SWAP1 KECCAK256 SLOAD PUSH1 0xFF AND PUSH1 0x2 DUP2 GT ISZERO PUSH2 0xEE0 JUMPI PUSH2 0xEE0 PUSH2 0x5227 JUMP JUMPDEST EQ JUMPDEST SWAP4 SWAP3 POP POP POP JUMP JUMPDEST PUSH1 0x40 MLOAD DUP1 PUSH1 0x40 ADD PUSH1 0x40 MSTORE DUP1 PUSH1 0x2 DUP2 MSTORE PUSH1 0x20 ADD PUSH2 0x34AB PUSH1 0xF1 SHL DUP2 MSTORE POP PUSH2 0xF0E DUP2 CALLER PUSH2 0x2336 JUMP JUMPDEST PUSH2 0xF17 JUMPI PUSH1 0x0 DUP1 REVERT JUMPDEST PUSH2 0xCB2 DUP4 DUP4 CALLER PUSH2 0x2797 JUMP JUMPDEST PUSH1 0x0 DUP4 DUP2 MSTORE PUSH1 0x2 PUSH1 0x20 DUP2 SWAP1 MSTORE PUSH1 0x40 SWAP1 SWAP2 KECCAK256 ADD SLOAD DUP4 SWAP1 PUSH1 0x1 PUSH1 0x1 PUSH1 0xA0 SHL SUB AND CALLER EQ PUSH2 0xF5E JUMPI PUSH1 0x40 MLOAD PUSH3 0x461BCD PUSH1 0xE5 SHL DUP2 MSTORE PUSH1 0x4 ADD PUSH2 0xC9E SWAP1 PUSH2 0x5299 JUMP JUMPDEST PUSH1 0x0 DUP4 DUP2 MSTORE PUSH1 0x1D PUSH1 0x20 MSTORE PUSH1 0x40 SWAP1 KECCAK256 SLOAD DUP4 SWAP1 PUSH1 0xFF AND PUSH2 0xFA4 JUMPI PUSH1 0x40 MLOAD PUSH3 0x461BCD PUSH1 0xE5 SHL DUP2 MSTORE PUSH1 0x20 PUSH1 0x4 DUP3 ADD MSTORE PUSH1 0x3 PUSH1 0x24 DUP3 ADD MSTORE PUSH3 0x524E5 PUSH1 0xEC SHL PUSH1 0x44 DUP3 ADD MSTORE PUSH1 0x64 ADD PUSH2 0xC9E JUMP JUMPDEST PUSH1 0x1 DUP1 SLOAD PUSH1 0xFF AND ISZERO ISZERO EQ PUSH2 0xFCA JUMPI PUSH1 0x40 MLOAD PUSH3 0x461BCD PUSH1 0xE5 SHL DUP2 MSTORE PUSH1 0x4 ADD PUSH2 0xC9E SWAP1 PUSH2 0x52ED JUMP JUMPDEST PUSH2 0xFD4 DUP5 CALLER PUSH2 0x174B JUMP JUMPDEST ISZERO PUSH2 0xFDE JUMPI PUSH1 0x0 DUP1 REVERT JUMPDEST PUSH2 0xFE8 DUP6 DUP6 PUSH2 0x24BF JUMP JUMPDEST PUSH2 0x101A JUMPI PUSH1 0x40 MLOAD PUSH3 0x461BCD PUSH1 0xE5 SHL DUP2 MSTORE PUSH1 0x20 PUSH1 0x4 DUP3 ADD MSTORE PUSH1 0x3 PUSH1 0x24 DUP3 ADD MSTORE PUSH3 0x29A72B PUSH1 0xE9 SHL PUSH1 0x44 DUP3 ADD MSTORE PUSH1 0x64 ADD PUSH2 0xC9E JUMP JUMPDEST PUSH1 0x0 DUP5 DUP2 MSTORE PUSH1 0x1C PUSH1 0x20 SWAP1 DUP2 MSTORE PUSH1 0x40 DUP1 DUP4 KECCAK256 DUP9 DUP5 MSTORE SWAP1 SWAP2 MSTORE SWAP1 KECCAK256 DUP1 SLOAD PUSH1 0xFF NOT AND PUSH1 0x1 OR SWAP1 SSTORE DUP3 ISZERO PUSH2 0x10AE JUMPI PUSH1 0x0 DUP5 DUP2 MSTORE PUSH1 0x17 PUSH1 0x20 SWAP1 DUP2 MSTORE PUSH1 0x40 DUP1 DUP4 KECCAK256 SLOAD PUSH1 0x18 DUP4 MSTORE DUP2 DUP5 KECCAK256 SLOAD DUP10 DUP6 MSTORE PUSH1 0x2 SWAP1 SWAP4 MSTORE SWAP1 DUP4 KECCAK256 DUP1 SLOAD PUSH1 0x1 SWAP1 SWAP2 ADD SLOAD DUP5 SWAP4 PUSH2 0x107F SWAP4 SWAP3 SWAP1 SWAP2 PUSH2 0x2902 JUMP JUMPDEST SWAP2 POP SWAP2 POP PUSH2 0x108D DUP3 DUP3 PUSH2 0x293E JUMP JUMPDEST PUSH1 0x0 DUP9 DUP2 MSTORE PUSH1 0x17 PUSH1 0x20 SWAP1 DUP2 MSTORE PUSH1 0x40 DUP1 DUP4 KECCAK256 PUSH1 0x18 SWAP1 SWAP3 MSTORE SWAP1 SWAP2 KECCAK256 SWAP2 SWAP1 SWAP2 SSTORE SSTORE POP POP JUMPDEST PUSH1 0x0 DUP5 DUP2 MSTORE PUSH1 0x19 PUSH1 0x20 SWAP1 DUP2 MSTORE PUSH1 0x40 DUP1 DUP4 KECCAK256 SLOAD PUSH1 0x1A DUP4 MSTORE DUP2 DUP5 KECCAK256 SLOAD DUP10 DUP6 MSTORE PUSH1 0x2 SWAP1 SWAP4 MSTORE SWAP1 DUP4 KECCAK256 DUP1 SLOAD PUSH1 0x1 SWAP1 SWAP2 ADD SLOAD DUP5 SWAP4 PUSH2 0x10E9 SWAP4 SWAP3 SWAP1 SWAP2 PUSH2 0x2902 JUMP JUMPDEST SWAP2 POP SWAP2 POP PUSH2 0x10F7 DUP3 DUP3 PUSH2 0x293E JUMP JUMPDEST PUSH1 0x0 DUP9 DUP2 MSTORE PUSH1 0x19 PUSH1 0x20 SWAP1 DUP2 MSTORE PUSH1 0x40 DUP1 DUP4 KECCAK256 PUSH1 0x1A DUP4 MSTORE SWAP3 DUP2 SWAP1 KECCAK256 SWAP4 SWAP1 SWAP4 SSTORE SWAP3 SWAP1 SSTORE DUP1 MLOAD DUP9 DUP2 MSTORE DUP8 ISZERO ISZERO SWAP3 DUP2 ADD SWAP3 SWAP1 SWAP3 MSTORE CALLER DUP3 DUP3 ADD MSTORE MLOAD PUSH32 0x4A341F5494C396C29C9E30033EC7900B3B51340AC726DC58726E583EA2ACEEB2 SWAP2 DUP2 SWAP1 SUB PUSH1 0x60 ADD SWAP1 LOG1 PUSH1 0x0 PUSH2 0x1161 DUP8 PUSH2 0x1B7D JUMP JUMPDEST SWAP1 POP DUP1 DUP1 PUSH2 0x1193 JUMPI POP PUSH1 0x0 DUP8 DUP2 MSTORE PUSH1 0x1A PUSH1 0x20 SWAP1 DUP2 MSTORE PUSH1 0x40 DUP1 DUP4 KECCAK256 SLOAD PUSH1 0x19 SWAP1 SWAP3 MSTORE SWAP1 SWAP2 KECCAK256 SLOAD PUSH2 0x118F SWAP2 SWAP1 PUSH2 0x531F JUMP JUMPDEST PUSH1 0x1 EQ JUMPDEST ISZERO PUSH2 0x1203 JUMPI PUSH1 0x0 DUP8 DUP2 MSTORE PUSH1 0x1D PUSH1 0x20 MSTORE PUSH1 0x40 SWAP1 KECCAK256 DUP1 SLOAD PUSH1 0xFF NOT AND SWAP1 SSTORE DUP1 ISZERO PUSH2 0x11CE JUMPI PUSH1 0x0 DUP8 DUP2 MSTORE PUSH1 0x1E PUSH1 0x20 MSTORE PUSH1 0x40 SWAP1 KECCAK256 DUP1 SLOAD PUSH1 0xFF NOT AND PUSH1 0x1 OR SWAP1 SSTORE JUMPDEST PUSH1 0x40 MLOAD DUP8 DUP2 MSTORE PUSH32 0xB7AF3044D10DC1BE59F482D5C460C7C711F80137A36184CDF4F49D973E95ACB1 SWAP1 PUSH1 0x20 ADD JUMPDEST PUSH1 0x40 MLOAD DUP1 SWAP2 SUB SWAP1 LOG1 JUMPDEST POP POP POP POP POP POP POP POP JUMP JUMPDEST PUSH1 0x0 PUSH1 0xE DUP4 PUSH1 0x40 MLOAD PUSH2 0x121F SWAP2 SWAP1 PUSH2 0x5261 JUMP JUMPDEST SWAP1 DUP2 MSTORE PUSH1 0x40 DUP1 MLOAD SWAP2 DUP3 SWAP1 SUB PUSH1 0x20 SWAP1 DUP2 ADD SWAP1 SWAP3 KECCAK256 PUSH1 0x1 PUSH1 0x1 PUSH1 0xA0 SHL SUB DUP6 AND PUSH1 0x0 SWAP1 DUP2 MSTORE SWAP3 MSTORE SWAP1 KECCAK256 SLOAD SWAP1 POP SWAP3 SWAP2 POP POP JUMP JUMPDEST PUSH1 0x40 MLOAD DUP1 PUSH1 0x40 ADD PUSH1 0x40 MSTORE DUP1 PUSH1 0x2 DUP2 MSTORE PUSH1 0x20 ADD PUSH2 0x36A1 PUSH1 0xF1 SHL DUP2 MSTORE POP PUSH2 0x1273 DUP2 CALLER PUSH2 0x2336 JUMP JUMPDEST PUSH2 0x127C JUMPI PUSH1 0x0 DUP1 REVERT JUMPDEST PUSH1 0x1 DUP1 SLOAD PUSH1 0xFF AND ISZERO ISZERO EQ PUSH2 0x12A2 JUMPI PUSH1 0x40 MLOAD PUSH3 0x461BCD PUSH1 0xE5 SHL DUP2 MSTORE PUSH1 0x4 ADD PUSH2 0xC9E SWAP1 PUSH2 0x52ED JUMP JUMPDEST PUSH2 0xCB2 DUP4 DUP4 CALLER PUSH2 0x29CA JUMP JUMPDEST PUSH1 0x40 MLOAD DUP1 PUSH1 0x40 ADD PUSH1 0x40 MSTORE DUP1 PUSH1 0x2 DUP2 MSTORE PUSH1 0x20 ADD PUSH2 0x36A1 PUSH1 0xF1 SHL DUP2 MSTORE POP PUSH2 0x12D2 DUP2 CALLER PUSH2 0xE34 JUMP JUMPDEST PUSH2 0x12DB JUMPI PUSH1 0x0 DUP1 REVERT JUMPDEST DUP3 PUSH2 0x12E6 DUP2 CALLER PUSH2 0x1BE5 JUMP JUMPDEST PUSH2 0x12EF JUMPI PUSH1 0x0 DUP1 REVERT JUMPDEST PUSH2 0x12FA DUP5 DUP5 CALLER PUSH2 0x2ADC JUMP JUMPDEST POP POP POP POP JUMP JUMPDEST PUSH2 0x1309 CALLER PUSH2 0x240D JUMP JUMPDEST PUSH2 0x133A JUMPI PUSH1 0x40 MLOAD PUSH3 0x461BCD PUSH1 0xE5 SHL DUP2 MSTORE PUSH1 0x20 PUSH1 0x4 DUP3 ADD MSTORE PUSH1 0x2 PUSH1 0x24 DUP3 ADD MSTORE PUSH2 0xAA9 PUSH1 0xF3 SHL PUSH1 0x44 DUP3 ADD MSTORE PUSH1 0x64 ADD PUSH2 0xC9E JUMP JUMPDEST PUSH2 0x1343 DUP2 PUSH2 0x1913 JUMP JUMPDEST PUSH2 0x135F JUMPI PUSH1 0x40 MLOAD PUSH3 0x461BCD PUSH1 0xE5 SHL DUP2 MSTORE PUSH1 0x4 ADD PUSH2 0xC9E SWAP1 PUSH2 0x5333 JUMP JUMPDEST CALLER PUSH1 0x0 SWAP1 DUP2 MSTORE PUSH1 0x3 PUSH1 0x20 SWAP1 DUP2 MSTORE PUSH1 0x40 DUP1 DUP4 KECCAK256 SLOAD PUSH1 0x1 PUSH1 0x1 PUSH1 0xA0 SHL SUB DUP6 AND DUP5 MSTORE PUSH1 0xA DUP4 MSTORE DUP2 DUP5 KECCAK256 DUP2 DUP6 MSTORE SWAP1 SWAP3 MSTORE SWAP1 SWAP2 KECCAK256 SLOAD PUSH1 0xFF AND ISZERO PUSH2 0x13AF JUMPI PUSH1 0x40 MLOAD PUSH3 0x461BCD PUSH1 0xE5 SHL DUP2 MSTORE PUSH1 0x4 ADD PUSH2 0xC9E SWAP1 PUSH2 0x534F JUMP JUMPDEST PUSH1 0x1 PUSH1 0x1 PUSH1 0xA0 SHL SUB DUP3 AND PUSH1 0x0 DUP2 DUP2 MSTORE PUSH1 0xA PUSH1 0x20 SWAP1 DUP2 MSTORE PUSH1 0x40 DUP1 DUP4 KECCAK256 DUP6 DUP5 MSTORE DUP3 MSTORE DUP1 DUP4 KECCAK256 DUP1 SLOAD PUSH1 0xFF NOT AND PUSH1 0x1 SWAP1 DUP2 OR SWAP1 SWAP2 SSTORE PUSH1 0x2 DUP4 MSTORE DUP2 DUP5 KECCAK256 SWAP1 DUP2 ADD SLOAD SWAP1 SLOAD SWAP5 DUP5 MSTORE PUSH1 0x8 SWAP1 SWAP3 MSTORE DUP3 KECCAK256 SLOAD SWAP2 SWAP3 SWAP1 SWAP2 PUSH2 0x1406 SWAP2 SWAP1 PUSH2 0x536B JUMP JUMPDEST PUSH2 0x1410 SWAP2 SWAP1 PUSH2 0x531F JUMP JUMPDEST SWAP1 POP DUP1 PUSH1 0x0 SUB PUSH2 0x143C JUMPI PUSH1 0x40 MLOAD PUSH3 0x461BCD PUSH1 0xE5 SHL DUP2 MSTORE PUSH1 0x20 PUSH1 0x4 DUP3 ADD MSTORE PUSH1 0x0 PUSH1 0x24 DUP3 ADD MSTORE PUSH1 0x44 ADD PUSH2 0xC9E JUMP JUMPDEST PUSH1 0x1 PUSH1 0x1 PUSH1 0xA0 SHL SUB DUP4 AND PUSH1 0x0 SWAP1 DUP2 MSTORE PUSH1 0x9 PUSH1 0x20 MSTORE PUSH1 0x40 DUP2 KECCAK256 DUP1 SLOAD DUP4 SWAP3 SWAP1 PUSH2 0x1464 SWAP1 DUP5 SWAP1 PUSH2 0x5382 JUMP JUMPDEST SWAP1 SWAP2 SSTORE POP PUSH2 0x1475 SWAP1 POP DUP4 DUP3 CALLER PUSH2 0x2B98 JUMP JUMPDEST PUSH32 0x1397D005A56670CBE383372BD4743EAA779AF18164D00DC6D12A6659418E1BBF DUP4 DUP3 CALLER PUSH1 0x40 MLOAD PUSH2 0xC1A SWAP4 SWAP3 SWAP2 SWAP1 PUSH2 0x5204 JUMP JUMPDEST PUSH1 0x0 DUP3 DUP2 MSTORE PUSH1 0x2 PUSH1 0x20 DUP2 SWAP1 MSTORE PUSH1 0x40 SWAP1 SWAP2 KECCAK256 ADD SLOAD DUP3 SWAP1 PUSH1 0x1 PUSH1 0x1 PUSH1 0xA0 SHL SUB AND CALLER EQ PUSH2 0x14E4 JUMPI PUSH1 0x40 MLOAD PUSH3 0x461BCD PUSH1 0xE5 SHL DUP2 MSTORE PUSH1 0x4 ADD PUSH2 0xC9E SWAP1 PUSH2 0x5299 JUMP JUMPDEST PUSH1 0x0 DUP3 DUP2 MSTORE PUSH1 0x12 PUSH1 0x20 MSTORE PUSH1 0x40 SWAP1 KECCAK256 SLOAD DUP3 SWAP1 PUSH1 0xFF AND PUSH2 0x1501 JUMPI PUSH1 0x0 DUP1 REVERT JUMPDEST PUSH1 0x1 DUP1 SLOAD PUSH1 0xFF AND ISZERO ISZERO EQ PUSH2 0x1527 JUMPI PUSH1 0x40 MLOAD PUSH3 0x461BCD PUSH1 0xE5 SHL DUP2 MSTORE PUSH1 0x4 ADD PUSH2 0xC9E SWAP1 PUSH2 0x52ED JUMP JUMPDEST PUSH2 0x1531 DUP5 DUP5 PUSH2 0x24BF JUMP JUMPDEST PUSH2 0x1563 JUMPI PUSH1 0x40 MLOAD PUSH3 0x461BCD PUSH1 0xE5 SHL DUP2 MSTORE PUSH1 0x20 PUSH1 0x4 DUP3 ADD MSTORE PUSH1 0x3 PUSH1 0x24 DUP3 ADD MSTORE PUSH3 0x2720A3 PUSH1 0xE9 SHL PUSH1 0x44 DUP3 ADD MSTORE PUSH1 0x64 ADD PUSH2 0xC9E JUMP JUMPDEST PUSH1 0x0 DUP4 DUP2 MSTORE PUSH1 0x15 PUSH1 0x20 SWAP1 DUP2 MSTORE PUSH1 0x40 DUP1 DUP4 KECCAK256 DUP8 DUP5 MSTORE SWAP1 SWAP2 MSTORE SWAP1 KECCAK256 SLOAD PUSH1 0xFF AND ISZERO PUSH2 0x159D JUMPI PUSH1 0x40 MLOAD PUSH3 0x461BCD PUSH1 0xE5 SHL DUP2 MSTORE PUSH1 0x4 ADD PUSH2 0xC9E SWAP1 PUSH2 0x534F JUMP JUMPDEST PUSH1 0x0 DUP4 DUP2 MSTORE PUSH1 0x15 PUSH1 0x20 SWAP1 DUP2 MSTORE PUSH1 0x40 DUP1 DUP4 KECCAK256 DUP8 DUP5 MSTORE DUP3 MSTORE DUP1 DUP4 KECCAK256 DUP1 SLOAD PUSH1 0xFF NOT AND PUSH1 0x1 SWAP1 DUP2 OR SWAP1 SWAP2 SSTORE PUSH1 0x2 DUP1 DUP5 MSTORE DUP3 DUP6 KECCAK256 SWAP2 DUP3 ADD SLOAD SWAP2 SLOAD DUP9 DUP7 MSTORE PUSH1 0x13 SWAP1 SWAP5 MSTORE SWAP2 DUP5 KECCAK256 SWAP1 SWAP2 ADD SLOAD SWAP1 SWAP2 PUSH2 0x15EC SWAP2 PUSH2 0x536B JUMP JUMPDEST PUSH2 0x15F6 SWAP2 SWAP1 PUSH2 0x531F JUMP JUMPDEST SWAP1 POP DUP1 PUSH1 0x0 SUB PUSH2 0x162E JUMPI PUSH1 0x40 MLOAD PUSH3 0x461BCD PUSH1 0xE5 SHL DUP2 MSTORE PUSH1 0x20 PUSH1 0x4 DUP3 ADD MSTORE PUSH1 0x3 PUSH1 0x24 DUP3 ADD MSTORE PUSH3 0x445453 PUSH1 0xE8 SHL PUSH1 0x44 DUP3 ADD MSTORE PUSH1 0x64 ADD PUSH2 0xC9E JUMP JUMPDEST PUSH1 0x0 DUP5 DUP2 MSTORE PUSH1 0x14 PUSH1 0x20 MSTORE PUSH1 0x40 DUP2 KECCAK256 DUP1 SLOAD DUP4 SWAP3 SWAP1 PUSH2 0x164C SWAP1 DUP5 SWAP1 PUSH2 0x5382 JUMP JUMPDEST SWAP1 SWAP2 SSTORE POP POP PUSH1 0x0 DUP5 DUP2 MSTORE PUSH1 0x13 PUSH1 0x20 MSTORE PUSH1 0x40 SWAP1 KECCAK256 PUSH1 0x1 ADD SLOAD PUSH2 0x1677 SWAP1 PUSH1 0x1 PUSH1 0x1 PUSH1 0xA0 SHL SUB AND DUP3 CALLER PUSH2 0x2B98 JUMP JUMPDEST PUSH1 0x40 DUP1 MLOAD PUSH1 0x20 DUP2 ADD DUP7 SWAP1 MSTORE SWAP1 DUP2 ADD DUP3 SWAP1 MSTORE PUSH1 0x0 DUP1 MLOAD PUSH1 0x20 PUSH2 0x5E5F DUP4 CODECOPY DUP2 MLOAD SWAP2 MSTORE SWAP1 PUSH1 0x60 ADD PUSH1 0x40 DUP1 MLOAD PUSH1 0x1F NOT DUP2 DUP5 SUB ADD DUP2 MSTORE SWAP1 DUP3 SWAP1 MSTORE PUSH2 0x16B7 SWAP2 CALLER SWAP1 PUSH2 0x53C1 JUMP JUMPDEST PUSH1 0x40 MLOAD DUP1 SWAP2 SUB SWAP1 LOG1 POP POP POP POP POP JUMP JUMPDEST PUSH1 0x40 MLOAD DUP1 PUSH1 0x40 ADD PUSH1 0x40 MSTORE DUP1 PUSH1 0x2 DUP2 MSTORE PUSH1 0x20 ADD PUSH2 0x36A1 PUSH1 0xF1 SHL DUP2 MSTORE POP PUSH2 0x16EB DUP2 CALLER PUSH2 0xE34 JUMP JUMPDEST PUSH2 0x16F4 JUMPI PUSH1 0x0 DUP1 REVERT JUMPDEST DUP2 PUSH2 0x16FF DUP2 CALLER PUSH2 0x1BE5 JUMP JUMPDEST PUSH2 0x1708 JUMPI PUSH1 0x0 DUP1 REVERT JUMPDEST PUSH2 0xCB2 DUP4 CALLER PUSH2 0x2DA8 JUMP JUMPDEST PUSH1 0x40 MLOAD DUP1 PUSH1 0x40 ADD PUSH1 0x40 MSTORE DUP1 PUSH1 0x2 DUP2 MSTORE PUSH1 0x20 ADD PUSH2 0x695 PUSH1 0xF4 SHL DUP2 MSTORE POP PUSH2 0x1737 DUP2 CALLER PUSH2 0x2336 JUMP JUMPDEST PUSH2 0x1740 JUMPI PUSH1 0x0 DUP1 REVERT JUMPDEST PUSH2 0xCB2 DUP4 DUP4 CALLER PUSH2 0x2F2E JUMP JUMPDEST PUSH1 0x0 SWAP2 DUP3 MSTORE PUSH1 0x1C PUSH1 0x20 SWAP1 DUP2 MSTORE PUSH1 0x40 DUP1 DUP5 KECCAK256 PUSH1 0x1 PUSH1 0x1 PUSH1 0xA0 SHL SUB SWAP4 SWAP1 SWAP4 AND DUP5 MSTORE PUSH1 0x3 DUP3 MSTORE DUP1 DUP5 KECCAK256 SLOAD DUP5 MSTORE SWAP2 SWAP1 MSTORE SWAP1 KECCAK256 SLOAD PUSH1 0xFF AND SWAP1 JUMP JUMPDEST PUSH1 0x0 DUP3 DUP2 MSTORE PUSH1 0x2 PUSH1 0x20 DUP2 SWAP1 MSTORE PUSH1 0x40 SWAP1 SWAP2 KECCAK256 ADD SLOAD DUP3 SWAP1 PUSH1 0x1 PUSH1 0x1 PUSH1 0xA0 SHL SUB AND CALLER EQ PUSH2 0x17BC JUMPI PUSH1 0x40 MLOAD PUSH3 0x461BCD PUSH1 0xE5 SHL DUP2 MSTORE PUSH1 0x4 ADD PUSH2 0xC9E SWAP1 PUSH2 0x5299 JUMP JUMPDEST DUP3 PUSH2 0x17D6 DUP2 PUSH1 0x0 DUP1 SLOAD SWAP2 DUP2 MSTORE PUSH1 0x6 PUSH1 0x20 MSTORE PUSH1 0x40 SWAP1 KECCAK256 SLOAD GT SWAP1 JUMP JUMPDEST PUSH2 0x17F2 JUMPI PUSH1 0x40 MLOAD PUSH3 0x461BCD PUSH1 0xE5 SHL DUP2 MSTORE PUSH1 0x4 ADD PUSH2 0xC9E SWAP1 PUSH2 0x52B5 JUMP JUMPDEST PUSH2 0x12FA DUP5 DUP5 PUSH2 0x3867 JUMP JUMPDEST PUSH1 0x40 MLOAD DUP1 PUSH1 0x40 ADD PUSH1 0x40 MSTORE DUP1 PUSH1 0x2 DUP2 MSTORE PUSH1 0x20 ADD PUSH2 0x1A51 PUSH1 0xF2 SHL DUP2 MSTORE POP PUSH2 0x1821 DUP2 CALLER PUSH2 0x2336 JUMP JUMPDEST PUSH2 0x182A JUMPI PUSH1 0x0 DUP1 REVERT JUMPDEST DUP4 PUSH2 0x1835 DUP2 CALLER PUSH2 0x1BE5 JUMP JUMPDEST PUSH2 0x183E JUMPI PUSH1 0x0 DUP1 REVERT JUMPDEST PUSH2 0x184A DUP6 DUP6 DUP6 CALLER PUSH2 0x39F1 JUMP JUMPDEST POP POP POP POP POP JUMP JUMPDEST PUSH1 0x40 MLOAD DUP1 PUSH1 0x40 ADD PUSH1 0x40 MSTORE DUP1 PUSH1 0x3 DUP2 MSTORE PUSH1 0x20 ADD PUSH3 0x734E53 PUSH1 0xE8 SHL DUP2 MSTORE POP PUSH2 0x1877 DUP2 CALLER PUSH2 0x2336 JUMP JUMPDEST PUSH2 0x1880 JUMPI PUSH1 0x0 DUP1 REVERT JUMPDEST PUSH1 0xB SLOAD DUP3 ISZERO ISZERO PUSH1 0xFF SWAP1 SWAP2 AND ISZERO ISZERO SUB PUSH2 0x18AA JUMPI PUSH1 0x40 MLOAD PUSH3 0x461BCD PUSH1 0xE5 SHL DUP2 MSTORE PUSH1 0x4 ADD PUSH2 0xC9E SWAP1 PUSH2 0x527D JUMP JUMPDEST PUSH2 0xE30 DUP3 CALLER PUSH2 0x3C25 JUMP JUMPDEST PUSH1 0x40 MLOAD DUP1 PUSH1 0x40 ADD PUSH1 0x40 MSTORE DUP1 PUSH1 0x3 DUP2 MSTORE PUSH1 0x20 ADD PUSH3 0x1B5055 PUSH1 0xEA SHL DUP2 MSTORE POP PUSH2 0x18DA DUP2 CALLER PUSH2 0x2336 JUMP JUMPDEST PUSH2 0x18E3 JUMPI PUSH1 0x0 DUP1 REVERT JUMPDEST PUSH1 0x1 DUP1 SLOAD PUSH1 0xFF AND ISZERO ISZERO EQ PUSH2 0x1909 JUMPI PUSH1 0x40 MLOAD PUSH3 0x461BCD PUSH1 0xE5 SHL DUP2 MSTORE PUSH1 0x4 ADD PUSH2 0xC9E SWAP1 PUSH2 0x52ED JUMP JUMPDEST PUSH2 0xE30 DUP3 CALLER PUSH2 0x3C95 JUMP JUMPDEST PUSH1 0x1 PUSH1 0x1 PUSH1 0xA0 SHL SUB DUP2 AND PUSH1 0x0 SWAP1 DUP2 MSTORE PUSH1 0x7 PUSH1 0x20 MSTORE PUSH1 0x40 DUP2 KECCAK256 SLOAD PUSH1 0xFF AND ISZERO ISZERO PUSH1 0x1 EQ DUP1 PUSH2 0xDF2 JUMPI POP POP PUSH1 0x1 PUSH1 0x1 PUSH1 0xA0 SHL SUB AND ISZERO SWAP1 JUMP JUMPDEST PUSH1 0x40 MLOAD DUP1 PUSH1 0x40 ADD PUSH1 0x40 MSTORE DUP1 PUSH1 0x3 DUP2 MSTORE PUSH1 0x20 ADD PUSH3 0x1B5055 PUSH1 0xEA SHL DUP2 MSTORE POP PUSH2 0x196E DUP2 CALLER PUSH2 0x2336 JUMP JUMPDEST PUSH2 0x1977 JUMPI PUSH1 0x0 DUP1 REVERT JUMPDEST PUSH1 0x1 DUP1 SLOAD PUSH1 0xFF AND ISZERO ISZERO EQ PUSH2 0x199D JUMPI PUSH1 0x40 MLOAD PUSH3 0x461BCD PUSH1 0xE5 SHL DUP2 MSTORE PUSH1 0x4 ADD PUSH2 0xC9E SWAP1 PUSH2 0x52ED JUMP JUMPDEST PUSH2 0xE30 DUP3 CALLER PUSH2 0x3D57 JUMP JUMPDEST PUSH1 0x0 DUP5 DUP2 MSTORE PUSH1 0x2 PUSH1 0x20 DUP2 SWAP1 MSTORE PUSH1 0x40 SWAP1 SWAP2 KECCAK256 ADD SLOAD DUP5 SWAP1 PUSH1 0x1 PUSH1 0x1 PUSH1 0xA0 SHL SUB AND CALLER EQ PUSH2 0x19E3 JUMPI PUSH1 0x40 MLOAD PUSH3 0x461BCD PUSH1 0xE5 SHL DUP2 MSTORE PUSH1 0x4 ADD PUSH2 0xC9E SWAP1 PUSH2 0x5299 JUMP JUMPDEST DUP5 PUSH2 0x19FD DUP2 PUSH1 0x0 DUP1 SLOAD SWAP2 DUP2 MSTORE PUSH1 0x6 PUSH1 0x20 MSTORE PUSH1 0x40 SWAP1 KECCAK256 SLOAD GT SWAP1 JUMP JUMPDEST PUSH2 0x1A19 JUMPI PUSH1 0x40 MLOAD PUSH3 0x461BCD PUSH1 0xE5 SHL DUP2 MSTORE PUSH1 0x4 ADD PUSH2 0xC9E SWAP1 PUSH2 0x52B5 JUMP JUMPDEST PUSH2 0x1A25 DUP7 DUP7 DUP7 DUP7 PUSH2 0x3DE7 JUMP JUMPDEST POP POP POP POP POP POP JUMP JUMPDEST PUSH2 0x1A36 DUP3 PUSH2 0x1913 JUMP JUMPDEST PUSH2 0x1A52 JUMPI PUSH1 0x40 MLOAD PUSH3 0x461BCD PUSH1 0xE5 SHL DUP2 MSTORE PUSH1 0x4 ADD PUSH2 0xC9E SWAP1 PUSH2 0x5333 JUMP JUMPDEST PUSH1 0x40 MLOAD PUSH4 0x6EB1769F PUSH1 0xE1 SHL DUP2 MSTORE DUP3 SWAP1 DUP3 SWAP1 PUSH1 0x1 PUSH1 0x1 PUSH1 0xA0 SHL SUB DUP4 AND SWAP1 PUSH4 0xDD62ED3E SWAP1 PUSH2 0x1A84 SWAP1 CALLER SWAP1 ADDRESS SWAP1 PUSH1 0x4 ADD PUSH2 0x5404 JUMP JUMPDEST PUSH1 0x20 PUSH1 0x40 MLOAD DUP1 DUP4 SUB DUP2 DUP7 GAS STATICCALL ISZERO DUP1 ISZERO PUSH2 0x1AA1 JUMPI RETURNDATASIZE PUSH1 0x0 DUP1 RETURNDATACOPY RETURNDATASIZE PUSH1 0x0 REVERT JUMPDEST POP POP POP POP PUSH1 0x40 MLOAD RETURNDATASIZE PUSH1 0x1F NOT PUSH1 0x1F DUP3 ADD AND DUP3 ADD DUP1 PUSH1 0x40 MSTORE POP DUP2 ADD SWAP1 PUSH2 0x1AC5 SWAP2 SWAP1 PUSH2 0x541E JUMP JUMPDEST LT ISZERO PUSH2 0x1AE3 JUMPI PUSH1 0x40 MLOAD PUSH3 0x461BCD PUSH1 0xE5 SHL DUP2 MSTORE PUSH1 0x4 ADD PUSH2 0xC9E SWAP1 PUSH2 0x5437 JUMP JUMPDEST PUSH1 0x40 MLOAD PUSH4 0x23B872DD PUSH1 0xE0 SHL DUP2 MSTORE PUSH1 0x1 PUSH1 0x1 PUSH1 0xA0 SHL SUB DUP3 AND SWAP1 PUSH4 0x23B872DD SWAP1 PUSH2 0x1B13 SWAP1 CALLER SWAP1 ADDRESS SWAP1 DUP8 SWAP1 PUSH1 0x4 ADD PUSH2 0x5453 JUMP JUMPDEST PUSH1 0x20 PUSH1 0x40 MLOAD DUP1 DUP4 SUB DUP2 PUSH1 0x0 DUP8 GAS CALL ISZERO DUP1 ISZERO PUSH2 0x1B32 JUMPI RETURNDATASIZE PUSH1 0x0 DUP1 RETURNDATACOPY RETURNDATASIZE PUSH1 0x0 REVERT JUMPDEST POP POP POP POP PUSH1 0x40 MLOAD RETURNDATASIZE PUSH1 0x1F NOT PUSH1 0x1F DUP3 ADD AND DUP3 ADD DUP1 PUSH1 0x40 MSTORE POP DUP2 ADD SWAP1 PUSH2 0x1B56 SWAP2 SWAP1 PUSH2 0x5477 JUMP JUMPDEST PUSH2 0x1B72 JUMPI PUSH1 0x40 MLOAD PUSH3 0x461BCD PUSH1 0xE5 SHL DUP2 MSTORE PUSH1 0x4 ADD PUSH2 0xC9E SWAP1 PUSH2 0x5494 JUMP JUMPDEST PUSH2 0xCB2 DUP4 DUP4 CALLER PUSH2 0xB07 JUMP JUMPDEST PUSH1 0x0 DUP2 DUP2 MSTORE PUSH1 0x18 PUSH1 0x20 SWAP1 DUP2 MSTORE PUSH1 0x40 DUP1 DUP4 KECCAK256 SLOAD PUSH1 0x17 SWAP1 SWAP3 MSTORE DUP3 KECCAK256 SLOAD PUSH1 0x1 SWAP2 PUSH2 0x1BA3 SWAP2 PUSH2 0x531F JUMP JUMPDEST PUSH2 0x1BAE SWAP1 PUSH1 0x2 PUSH2 0x536B JUMP JUMPDEST GT ISZERO PUSH2 0x1BBC JUMPI POP PUSH1 0x1 SWAP2 SWAP1 POP JUMP JUMPDEST POP PUSH1 0x0 SWAP2 SWAP1 POP JUMP JUMPDEST DUP4 PUSH2 0x1BCF DUP2 CALLER PUSH2 0x1BE5 JUMP JUMPDEST PUSH2 0x1BD8 JUMPI PUSH1 0x0 DUP1 REVERT JUMPDEST PUSH2 0x184A DUP6 DUP6 DUP6 DUP6 CALLER PUSH2 0x3FC2 JUMP JUMPDEST PUSH1 0x0 PUSH1 0xF DUP4 PUSH1 0x40 MLOAD PUSH2 0x1BF7 SWAP2 SWAP1 PUSH2 0x5261 JUMP JUMPDEST SWAP1 DUP2 MSTORE PUSH1 0x40 DUP1 MLOAD SWAP2 DUP3 SWAP1 SUB PUSH1 0x20 SWAP1 DUP2 ADD SWAP1 SWAP3 KECCAK256 PUSH1 0x1 PUSH1 0x1 PUSH1 0xA0 SHL SUB DUP6 AND PUSH1 0x0 SWAP1 DUP2 MSTORE SWAP3 MSTORE SWAP1 KECCAK256 SLOAD PUSH1 0xFF AND ISZERO ISZERO PUSH1 0x1 EQ DUP1 PUSH2 0xEE2 JUMPI POP PUSH2 0xEE2 PUSH1 0x40 MLOAD DUP1 PUSH1 0x40 ADD PUSH1 0x40 MSTORE DUP1 PUSH1 0x2 DUP2 MSTORE PUSH1 0x20 ADD PUSH2 0x36A1 PUSH1 0xF1 SHL DUP2 MSTORE POP DUP4 PUSH2 0xE34 JUMP JUMPDEST PUSH1 0x40 MLOAD DUP1 PUSH1 0x40 ADD PUSH1 0x40 MSTORE DUP1 PUSH1 0x2 DUP2 MSTORE PUSH1 0x20 ADD PUSH2 0x36A1 PUSH1 0xF1 SHL DUP2 MSTORE POP PUSH2 0x1C75 DUP2 CALLER PUSH2 0x2336 JUMP JUMPDEST PUSH2 0x1C7E JUMPI PUSH1 0x0 DUP1 REVERT JUMPDEST DUP3 PUSH2 0x1C89 DUP2 CALLER PUSH2 0x1BE5 JUMP JUMPDEST PUSH2 0x1C92 JUMPI PUSH1 0x0 DUP1 REVERT JUMPDEST PUSH2 0x1C9B DUP4 PUSH2 0x240D JUMP JUMPDEST DUP1 PUSH2 0x1CA8 JUMPI POP PUSH1 0xB SLOAD PUSH1 0xFF AND JUMPDEST PUSH2 0x1CC4 JUMPI PUSH1 0x40 MLOAD PUSH3 0x461BCD PUSH1 0xE5 SHL DUP2 MSTORE PUSH1 0x4 ADD PUSH2 0xC9E SWAP1 PUSH2 0x54B0 JUMP JUMPDEST PUSH2 0x12FA DUP5 DUP5 CALLER PUSH2 0x4256 JUMP JUMPDEST PUSH1 0x0 PUSH1 0xC DUP3 PUSH1 0x40 MLOAD PUSH2 0x1CE1 SWAP2 SWAP1 PUSH2 0x5261 JUMP JUMPDEST SWAP1 DUP2 MSTORE PUSH1 0x40 MLOAD SWAP1 DUP2 SWAP1 SUB PUSH1 0x20 ADD SWAP1 KECCAK256 SLOAD PUSH1 0xFF AND ISZERO ISZERO PUSH1 0x1 EQ SWAP3 SWAP2 POP POP JUMP JUMPDEST DUP3 PUSH2 0x1D0A DUP2 CALLER PUSH2 0xE34 JUMP JUMPDEST PUSH2 0x1D13 JUMPI PUSH1 0x0 DUP1 REVERT JUMPDEST PUSH2 0x1D1C DUP4 PUSH2 0x240D JUMP JUMPDEST DUP1 PUSH2 0x1D29 JUMPI POP PUSH1 0xB SLOAD PUSH1 0xFF AND JUMPDEST PUSH2 0x1D45 JUMPI PUSH1 0x40 MLOAD PUSH3 0x461BCD PUSH1 0xE5 SHL DUP2 MSTORE PUSH1 0x4 ADD PUSH2 0xC9E SWAP1 PUSH2 0x54B0 JUMP JUMPDEST DUP2 PUSH1 0x2 DUP2 GT ISZERO PUSH2 0x1D57 JUMPI PUSH2 0x1D57 PUSH2 0x5227 JUMP JUMPDEST PUSH1 0x10 DUP6 PUSH1 0x40 MLOAD PUSH2 0x1D67 SWAP2 SWAP1 PUSH2 0x5261 JUMP JUMPDEST SWAP1 DUP2 MSTORE PUSH1 0x40 DUP1 MLOAD PUSH1 0x20 SWAP3 DUP2 SWAP1 SUB DUP4 ADD SWAP1 KECCAK256 PUSH1 0x1 PUSH1 0x1 PUSH1 0xA0 SHL SUB DUP8 AND PUSH1 0x0 SWAP1 DUP2 MSTORE SWAP3 MSTORE SWAP1 KECCAK256 SLOAD PUSH1 0xFF AND PUSH1 0x2 DUP2 GT ISZERO PUSH2 0x1DA0 JUMPI PUSH2 0x1DA0 PUSH2 0x5227 JUMP JUMPDEST SUB PUSH2 0x1DD3 JUMPI PUSH1 0x40 MLOAD PUSH3 0x461BCD PUSH1 0xE5 SHL DUP2 MSTORE PUSH1 0x20 PUSH1 0x4 DUP3 ADD MSTORE PUSH1 0x3 PUSH1 0x24 DUP3 ADD MSTORE PUSH3 0x41485 PUSH1 0xEC SHL PUSH1 0x44 DUP3 ADD MSTORE PUSH1 0x64 ADD PUSH2 0xC9E JUMP JUMPDEST PUSH2 0x12FA DUP5 DUP5 DUP5 CALLER PUSH2 0x4354 JUMP JUMPDEST DUP1 PUSH2 0x1DF9 DUP2 PUSH1 0x0 DUP1 SLOAD SWAP2 DUP2 MSTORE PUSH1 0x6 PUSH1 0x20 MSTORE PUSH1 0x40 SWAP1 KECCAK256 SLOAD GT SWAP1 JUMP JUMPDEST PUSH2 0x1E15 JUMPI PUSH1 0x40 MLOAD PUSH3 0x461BCD PUSH1 0xE5 SHL DUP2 MSTORE PUSH1 0x4 ADD PUSH2 0xC9E SWAP1 PUSH2 0x52B5 JUMP JUMPDEST PUSH1 0x0 DUP3 DUP2 MSTORE PUSH1 0x4 PUSH1 0x20 MSTORE PUSH1 0x40 SWAP1 KECCAK256 SLOAD PUSH1 0xFF AND PUSH2 0x1E43 JUMPI PUSH1 0x40 MLOAD PUSH3 0x461BCD PUSH1 0xE5 SHL DUP2 MSTORE PUSH1 0x4 ADD PUSH2 0xC9E SWAP1 PUSH2 0x52D1 JUMP JUMPDEST PUSH1 0x0 DUP3 DUP2 MSTORE PUSH1 0x5 PUSH1 0x20 MSTORE PUSH1 0x40 SWAP1 KECCAK256 PUSH1 0x4 ADD SLOAD PUSH1 0x1 PUSH1 0x1 PUSH1 0xA0 SHL SUB AND CALLER EQ DUP1 PUSH2 0x1E83 JUMPI POP PUSH1 0x0 DUP3 DUP2 MSTORE PUSH1 0x5 PUSH1 0x20 MSTORE PUSH1 0x40 SWAP1 KECCAK256 PUSH1 0x4 ADD SLOAD PUSH1 0x1 PUSH1 0x1 PUSH1 0xA0 SHL SUB AND ISZERO JUMPDEST PUSH2 0x1EB4 JUMPI PUSH1 0x40 MLOAD PUSH3 0x461BCD PUSH1 0xE5 SHL DUP2 MSTORE PUSH1 0x20 PUSH1 0x4 DUP3 ADD MSTORE PUSH1 0x2 PUSH1 0x24 DUP3 ADD MSTORE PUSH2 0x29A9 PUSH1 0xF1 SHL PUSH1 0x44 DUP3 ADD MSTORE PUSH1 0x64 ADD PUSH2 0xC9E JUMP JUMPDEST PUSH2 0x1EBD DUP3 PUSH2 0x2657 JUMP JUMPDEST PUSH1 0x0 DUP3 DUP2 MSTORE PUSH1 0x5 PUSH1 0x20 MSTORE PUSH1 0x40 DUP2 KECCAK256 PUSH1 0x3 ADD SLOAD DUP2 SWAP1 DUP2 SWAP1 PUSH2 0x1EE1 SWAP1 PUSH1 0x19 PUSH2 0x3E8 PUSH2 0x440E JUMP JUMPDEST SWAP2 SWAP5 POP SWAP3 POP SWAP1 POP PUSH2 0x1EF2 DUP2 DUP4 PUSH2 0x51F1 JUMP JUMPDEST PUSH1 0x0 DUP7 DUP2 MSTORE PUSH1 0x5 PUSH1 0x20 MSTORE PUSH1 0x40 SWAP1 KECCAK256 PUSH1 0x2 ADD SLOAD SWAP1 SWAP3 POP PUSH1 0x1 PUSH1 0x1 PUSH1 0xA0 SHL SUB AND PUSH2 0x204F JUMPI PUSH1 0x0 DUP6 DUP2 MSTORE PUSH1 0x5 PUSH1 0x20 MSTORE PUSH1 0x40 SWAP1 KECCAK256 PUSH1 0x3 ADD SLOAD CALLVALUE LT ISZERO PUSH2 0x1F5A JUMPI PUSH1 0x40 MLOAD PUSH3 0x461BCD PUSH1 0xE5 SHL DUP2 MSTORE PUSH1 0x20 PUSH1 0x4 DUP3 ADD MSTORE PUSH1 0x2 PUSH1 0x24 DUP3 ADD MSTORE PUSH2 0x4945 PUSH1 0xF0 SHL PUSH1 0x44 DUP3 ADD MSTORE PUSH1 0x64 ADD PUSH2 0xC9E JUMP JUMPDEST PUSH1 0x40 MLOAD PUSH1 0x0 SWAP1 PUSH20 0x49A71890AEA5A751E30E740C504F2E9683F347BC SWAP1 DUP6 SWAP1 DUP4 DUP2 DUP2 DUP2 DUP6 DUP8 GAS CALL SWAP3 POP POP POP RETURNDATASIZE DUP1 PUSH1 0x0 DUP2 EQ PUSH2 0x1FB0 JUMPI PUSH1 0x40 MLOAD SWAP2 POP PUSH1 0x1F NOT PUSH1 0x3F RETURNDATASIZE ADD AND DUP3 ADD PUSH1 0x40 MSTORE RETURNDATASIZE DUP3 MSTORE RETURNDATASIZE PUSH1 0x0 PUSH1 0x20 DUP5 ADD RETURNDATACOPY PUSH2 0x1FB5 JUMP JUMPDEST PUSH1 0x60 SWAP2 POP JUMPDEST POP POP PUSH1 0x0 DUP8 DUP2 MSTORE PUSH1 0x2 PUSH1 0x20 DUP2 SWAP1 MSTORE PUSH1 0x40 DUP1 DUP4 KECCAK256 SWAP1 SWAP2 ADD SLOAD SWAP1 MLOAD SWAP3 SWAP4 POP SWAP1 SWAP2 PUSH1 0x1 PUSH1 0x1 PUSH1 0xA0 SHL SUB SWAP1 SWAP2 AND SWAP1 DUP6 SWAP1 DUP4 DUP2 DUP2 DUP2 DUP6 DUP8 GAS CALL SWAP3 POP POP POP RETURNDATASIZE DUP1 PUSH1 0x0 DUP2 EQ PUSH2 0x2019 JUMPI PUSH1 0x40 MLOAD SWAP2 POP PUSH1 0x1F NOT PUSH1 0x3F RETURNDATASIZE ADD AND DUP3 ADD PUSH1 0x40 MSTORE RETURNDATASIZE DUP3 MSTORE RETURNDATASIZE PUSH1 0x0 PUSH1 0x20 DUP5 ADD RETURNDATACOPY PUSH2 0x201E JUMP JUMPDEST PUSH1 0x60 SWAP2 POP JUMPDEST POP POP SWAP1 POP DUP1 DUP1 ISZERO PUSH2 0x202C JUMPI POP DUP2 JUMPDEST PUSH2 0x2048 JUMPI PUSH1 0x40 MLOAD PUSH3 0x461BCD PUSH1 0xE5 SHL DUP2 MSTORE PUSH1 0x4 ADD PUSH2 0xC9E SWAP1 PUSH2 0x54CF JUMP JUMPDEST POP POP PUSH2 0x220C JUMP JUMPDEST PUSH1 0x0 DUP6 DUP2 MSTORE PUSH1 0x5 PUSH1 0x20 MSTORE PUSH1 0x40 SWAP1 DUP2 SWAP1 KECCAK256 PUSH1 0x2 DUP2 ADD SLOAD PUSH1 0x3 SWAP1 SWAP2 ADD SLOAD SWAP2 MLOAD PUSH4 0x6EB1769F PUSH1 0xE1 SHL DUP2 MSTORE PUSH1 0x1 PUSH1 0x1 PUSH1 0xA0 SHL SUB SWAP1 SWAP2 AND SWAP2 SWAP1 DUP3 SWAP1 PUSH4 0xDD62ED3E SWAP1 PUSH2 0x209B SWAP1 CALLER SWAP1 ADDRESS SWAP1 PUSH1 0x4 ADD PUSH2 0x5404 JUMP JUMPDEST PUSH1 0x20 PUSH1 0x40 MLOAD DUP1 DUP4 SUB DUP2 DUP7 GAS STATICCALL ISZERO DUP1 ISZERO PUSH2 0x20B8 JUMPI RETURNDATASIZE PUSH1 0x0 DUP1 RETURNDATACOPY RETURNDATASIZE PUSH1 0x0 REVERT JUMPDEST POP POP POP POP PUSH1 0x40 MLOAD RETURNDATASIZE PUSH1 0x1F NOT PUSH1 0x1F DUP3 ADD AND DUP3 ADD DUP1 PUSH1 0x40 MSTORE POP DUP2 ADD SWAP1 PUSH2 0x20DC SWAP2 SWAP1 PUSH2 0x541E JUMP JUMPDEST LT ISZERO PUSH2 0x20FA JUMPI PUSH1 0x40 MLOAD PUSH3 0x461BCD PUSH1 0xE5 SHL DUP2 MSTORE PUSH1 0x4 ADD PUSH2 0xC9E SWAP1 PUSH2 0x5437 JUMP JUMPDEST PUSH1 0x40 MLOAD PUSH4 0x23B872DD PUSH1 0xE0 SHL DUP2 MSTORE PUSH1 0x1 PUSH1 0x1 PUSH1 0xA0 SHL SUB DUP3 AND SWAP1 PUSH4 0x23B872DD SWAP1 PUSH2 0x213E SWAP1 CALLER SWAP1 PUSH20 0x49A71890AEA5A751E30E740C504F2E9683F347BC SWAP1 DUP10 SWAP1 PUSH1 0x4 ADD PUSH2 0x5453 JUMP JUMPDEST PUSH1 0x20 PUSH1 0x40 MLOAD DUP1 DUP4 SUB DUP2 PUSH1 0x0 DUP8 GAS CALL ISZERO DUP1 ISZERO PUSH2 0x215D JUMPI RETURNDATASIZE PUSH1 0x0 DUP1 RETURNDATACOPY RETURNDATASIZE PUSH1 0x0 REVERT JUMPDEST POP POP POP POP PUSH1 0x40 MLOAD RETURNDATASIZE PUSH1 0x1F NOT PUSH1 0x1F DUP3 ADD AND DUP3 ADD DUP1 PUSH1 0x40 MSTORE POP DUP2 ADD SWAP1 PUSH2 0x2181 SWAP2 SWAP1 PUSH2 0x5477 JUMP JUMPDEST POP PUSH1 0x0 DUP7 DUP2 MSTORE PUSH1 0x2 PUSH1 0x20 DUP2 SWAP1 MSTORE PUSH1 0x40 SWAP2 DUP3 SWAP1 KECCAK256 ADD SLOAD SWAP1 MLOAD PUSH4 0x23B872DD PUSH1 0xE0 SHL DUP2 MSTORE PUSH1 0x1 PUSH1 0x1 PUSH1 0xA0 SHL SUB DUP1 DUP5 AND SWAP3 PUSH4 0x23B872DD SWAP3 PUSH2 0x21C6 SWAP3 CALLER SWAP3 AND SWAP1 DUP9 SWAP1 PUSH1 0x4 ADD PUSH2 0x5453 JUMP JUMPDEST PUSH1 0x20 PUSH1 0x40 MLOAD DUP1 DUP4 SUB DUP2 PUSH1 0x0 DUP8 GAS CALL ISZERO DUP1 ISZERO PUSH2 0x21E5 JUMPI RETURNDATASIZE PUSH1 0x0 DUP1 RETURNDATACOPY RETURNDATASIZE PUSH1 0x0 REVERT JUMPDEST POP POP POP POP PUSH1 0x40 MLOAD RETURNDATASIZE PUSH1 0x1F NOT PUSH1 0x1F DUP3 ADD AND DUP3 ADD DUP1 PUSH1 0x40 MSTORE POP DUP2 ADD SWAP1 PUSH2 0x2209 SWAP2 SWAP1 PUSH2 0x5477 JUMP JUMPDEST POP POP JUMPDEST PUSH1 0x0 DUP6 DUP2 MSTORE PUSH1 0x5 PUSH1 0x20 MSTORE PUSH1 0x40 SWAP1 KECCAK256 SLOAD ISZERO DUP1 ISZERO SWAP1 PUSH2 0x2239 JUMPI POP PUSH1 0x0 DUP6 DUP2 MSTORE PUSH1 0x5 PUSH1 0x20 MSTORE PUSH1 0x40 SWAP1 KECCAK256 PUSH1 0x1 ADD SLOAD ISZERO ISZERO JUMPDEST PUSH2 0x226A JUMPI PUSH1 0x40 MLOAD PUSH3 0x461BCD PUSH1 0xE5 SHL DUP2 MSTORE PUSH1 0x20 PUSH1 0x4 DUP3 ADD MSTORE PUSH1 0x2 PUSH1 0x24 DUP3 ADD MSTORE PUSH2 0x4553 PUSH1 0xF0 SHL PUSH1 0x44 DUP3 ADD MSTORE PUSH1 0x64 ADD PUSH2 0xC9E JUMP JUMPDEST PUSH1 0x0 DUP6 DUP2 MSTORE PUSH1 0x2 PUSH1 0x20 SWAP1 DUP2 MSTORE PUSH1 0x40 DUP1 DUP4 KECCAK256 DUP1 SLOAD PUSH1 0x1 SWAP2 DUP3 ADD SLOAD PUSH1 0x5 SWAP1 SWAP5 MSTORE SWAP2 SWAP1 SWAP4 KECCAK256 DUP1 SLOAD SWAP4 ADD SLOAD PUSH2 0x229E SWAP4 SWAP2 SWAP3 SWAP2 SWAP1 PUSH2 0x4482 JUMP JUMPDEST ISZERO PUSH2 0x22B2 JUMPI PUSH2 0x22AD DUP6 CALLER PUSH2 0x3867 JUMP JUMPDEST PUSH2 0x22D4 JUMP JUMPDEST PUSH1 0x0 DUP6 DUP2 MSTORE PUSH1 0x5 PUSH1 0x20 MSTORE PUSH1 0x40 SWAP1 KECCAK256 DUP1 SLOAD PUSH1 0x1 SWAP1 SWAP2 ADD SLOAD PUSH2 0x22D4 SWAP2 DUP8 SWAP2 CALLER PUSH2 0x3DE7 JUMP JUMPDEST PUSH1 0x0 DUP6 DUP2 MSTORE PUSH1 0x5 PUSH1 0x20 MSTORE PUSH1 0x40 SWAP1 DUP2 SWAP1 KECCAK256 DUP1 SLOAD PUSH1 0x1 DUP3 ADD SLOAD PUSH1 0x2 DUP4 ADD SLOAD PUSH1 0x3 SWAP1 SWAP4 ADD SLOAD SWAP4 MLOAD PUSH32 0x86D5A30B627B7D52F998C20AB46ABE9FBE1C7C4863CD3259D09E7C22072DC1C1 SWAP5 PUSH2 0x16B7 SWAP5 DUP12 SWAP5 SWAP4 SWAP3 PUSH1 0x1 PUSH1 0x1 PUSH1 0xA0 SHL SUB SWAP1 SWAP2 AND SWAP2 SWAP1 CALLER SWAP1 PUSH2 0x54EB JUMP JUMPDEST PUSH1 0x0 PUSH2 0x2341 DUP3 PUSH2 0x240D JUMP JUMPDEST DUP1 PUSH2 0x234E JUMPI POP PUSH1 0xB SLOAD PUSH1 0xFF AND JUMPDEST PUSH2 0x235A JUMPI POP PUSH1 0x0 PUSH2 0xDF2 JUMP JUMPDEST PUSH1 0x1 PUSH1 0x10 DUP5 PUSH1 0x40 MLOAD PUSH2 0x236C SWAP2 SWAP1 PUSH2 0x5261 JUMP JUMPDEST SWAP1 DUP2 MSTORE PUSH1 0x40 DUP1 MLOAD PUSH1 0x20 SWAP3 DUP2 SWAP1 SUB DUP4 ADD SWAP1 KECCAK256 PUSH1 0x1 PUSH1 0x1 PUSH1 0xA0 SHL SUB DUP7 AND PUSH1 0x0 SWAP1 DUP2 MSTORE SWAP3 MSTORE SWAP1 KECCAK256 SLOAD PUSH1 0xFF AND PUSH1 0x2 DUP2 GT ISZERO PUSH2 0x23A5 JUMPI PUSH2 0x23A5 PUSH2 0x5227 JUMP JUMPDEST LT ISZERO DUP1 PUSH2 0xEE2 JUMPI POP PUSH1 0x1 PUSH1 0x11 DUP5 PUSH1 0x40 MLOAD PUSH2 0x23BF SWAP2 SWAP1 PUSH2 0x5261 JUMP JUMPDEST SWAP1 DUP2 MSTORE PUSH1 0x40 MLOAD SWAP1 DUP2 SWAP1 SUB PUSH1 0x20 ADD SWAP1 KECCAK256 SLOAD PUSH1 0xFF AND PUSH1 0x2 DUP2 GT ISZERO PUSH2 0x23E3 JUMPI PUSH2 0x23E3 PUSH2 0x5227 JUMP JUMPDEST LT ISZERO SWAP4 SWAP3 POP POP POP JUMP JUMPDEST DUP4 PUSH2 0x23F7 DUP2 CALLER PUSH2 0x1BE5 JUMP JUMPDEST PUSH2 0x2400 JUMPI PUSH1 0x0 DUP1 REVERT JUMPDEST PUSH2 0x184A DUP6 DUP6 DUP6 DUP6 CALLER PUSH2 0x449D JUMP JUMPDEST PUSH1 0x1 PUSH1 0x1 PUSH1 0xA0 SHL SUB DUP2 AND PUSH1 0x0 SWAP1 DUP2 MSTORE PUSH1 0x3 PUSH1 0x20 MSTORE PUSH1 0x40 DUP2 KECCAK256 SLOAD PUSH2 0xDF2 SWAP1 PUSH1 0x0 DUP1 SLOAD SWAP2 DUP2 MSTORE PUSH1 0x6 PUSH1 0x20 MSTORE PUSH1 0x40 SWAP1 KECCAK256 SLOAD GT SWAP1 JUMP JUMPDEST PUSH1 0x0 DUP7 DUP2 MSTORE PUSH1 0x2 PUSH1 0x20 DUP2 SWAP1 MSTORE PUSH1 0x40 SWAP1 SWAP2 KECCAK256 ADD SLOAD DUP7 SWAP1 PUSH1 0x1 PUSH1 0x1 PUSH1 0xA0 SHL SUB AND CALLER EQ PUSH2 0x247B JUMPI PUSH1 0x40 MLOAD PUSH3 0x461BCD PUSH1 0xE5 SHL DUP2 MSTORE PUSH1 0x4 ADD PUSH2 0xC9E SWAP1 PUSH2 0x5299 JUMP JUMPDEST DUP7 PUSH2 0x2495 DUP2 PUSH1 0x0 DUP1 SLOAD SWAP2 DUP2 MSTORE PUSH1 0x6 PUSH1 0x20 MSTORE PUSH1 0x40 SWAP1 KECCAK256 SLOAD GT SWAP1 JUMP JUMPDEST PUSH2 0x24B1 JUMPI PUSH1 0x40 MLOAD PUSH3 0x461BCD PUSH1 0xE5 SHL DUP2 MSTORE PUSH1 0x4 ADD PUSH2 0xC9E SWAP1 PUSH2 0x52B5 JUMP JUMPDEST PUSH2 0x1203 DUP9 DUP9 DUP9 DUP9 DUP9 DUP9 PUSH2 0x463F JUMP JUMPDEST PUSH1 0x0 DUP3 DUP2 MSTORE PUSH1 0x2 PUSH1 0x20 MSTORE PUSH1 0x40 DUP2 KECCAK256 PUSH1 0x3 ADD SLOAD DUP3 LT DUP1 ISZERO SWAP1 PUSH2 0xEE2 JUMPI POP POP PUSH1 0x0 SWAP2 DUP3 MSTORE PUSH1 0x6 PUSH1 0x20 MSTORE PUSH1 0x40 SWAP1 SWAP2 KECCAK256 SLOAD GT SWAP1 JUMP JUMPDEST PUSH1 0x1 PUSH1 0x1 PUSH1 0xA0 SHL SUB DUP4 AND PUSH1 0x0 SWAP1 DUP2 MSTORE PUSH1 0x8 PUSH1 0x20 MSTORE PUSH1 0x40 DUP2 KECCAK256 DUP1 SLOAD DUP5 SWAP3 SWAP1 PUSH2 0x2518 SWAP1 DUP5 SWAP1 PUSH2 0x51F1 JUMP JUMPDEST SWAP1 SWAP2 SSTORE POP POP PUSH1 0x1 PUSH1 0x1 PUSH1 0xA0 SHL SUB DUP4 AND PUSH1 0x0 SWAP1 DUP2 MSTORE PUSH1 0x9 PUSH1 0x20 MSTORE PUSH1 0x40 DUP2 KECCAK256 DUP1 SLOAD DUP5 SWAP3 SWAP1 PUSH2 0xBE1 SWAP1 DUP5 SWAP1 PUSH2 0x51F1 JUMP JUMPDEST PUSH1 0x1 DUP1 SLOAD PUSH1 0xFF AND ISZERO ISZERO EQ PUSH2 0x256B JUMPI PUSH1 0x40 MLOAD PUSH3 0x461BCD PUSH1 0xE5 SHL DUP2 MSTORE PUSH1 0x4 ADD PUSH2 0xC9E SWAP1 PUSH2 0x52ED JUMP JUMPDEST DUP2 PUSH1 0x11 DUP5 PUSH1 0x40 MLOAD PUSH2 0x257C SWAP2 SWAP1 PUSH2 0x5261 JUMP JUMPDEST SWAP1 DUP2 MSTORE PUSH1 0x40 MLOAD SWAP1 DUP2 SWAP1 SUB PUSH1 0x20 ADD SWAP1 KECCAK256 DUP1 SLOAD PUSH1 0xFF NOT AND PUSH1 0x1 DUP4 PUSH1 0x2 DUP2 GT ISZERO PUSH2 0x25A5 JUMPI PUSH2 0x25A5 PUSH2 0x5227 JUMP JUMPDEST MUL OR SWAP1 SSTORE POP PUSH1 0x0 DUP1 MLOAD PUSH1 0x20 PUSH2 0x5E5F DUP4 CODECOPY DUP2 MLOAD SWAP2 MSTORE DUP4 DUP4 PUSH1 0x40 MLOAD PUSH1 0x20 ADD PUSH2 0x25CC SWAP3 SWAP2 SWAP1 PUSH2 0x5544 JUMP JUMPDEST PUSH1 0x40 DUP1 MLOAD PUSH1 0x1F NOT DUP2 DUP5 SUB ADD DUP2 MSTORE SWAP1 DUP3 SWAP1 MSTORE PUSH2 0xC1A SWAP2 DUP5 SWAP1 PUSH2 0x5566 JUMP JUMPDEST PUSH1 0x1 DUP1 SLOAD PUSH1 0xFF AND ISZERO ISZERO EQ PUSH2 0x260E JUMPI PUSH1 0x40 MLOAD PUSH3 0x461BCD PUSH1 0xE5 SHL DUP2 MSTORE PUSH1 0x4 ADD PUSH2 0xC9E SWAP1 PUSH2 0x52ED JUMP JUMPDEST PUSH1 0x1 DUP1 SLOAD PUSH1 0xFF NOT AND SWAP1 SSTORE PUSH1 0x40 MLOAD PUSH1 0x1 PUSH1 0x1 PUSH1 0xA0 SHL SUB DUP3 AND DUP2 MSTORE PUSH32 0x1522879623A3943E5C352EFDF9C2ADBD7825D2A97D4680EA50466B9709785DA4 SWAP1 PUSH1 0x20 ADD PUSH1 0x40 MLOAD DUP1 SWAP2 SUB SWAP1 LOG1 POP JUMP JUMPDEST DUP1 PUSH2 0x2671 DUP2 PUSH1 0x0 DUP1 SLOAD SWAP2 DUP2 MSTORE PUSH1 0x6 PUSH1 0x20 MSTORE PUSH1 0x40 SWAP1 KECCAK256 SLOAD GT SWAP1 JUMP JUMPDEST PUSH2 0x268D JUMPI PUSH1 0x40 MLOAD PUSH3 0x461BCD PUSH1 0xE5 SHL DUP2 MSTORE PUSH1 0x4 ADD PUSH2 0xC9E SWAP1 PUSH2 0x52B5 JUMP JUMPDEST POP PUSH1 0x0 SWAP1 DUP2 MSTORE PUSH1 0x4 PUSH1 0x20 MSTORE PUSH1 0x40 SWAP1 KECCAK256 DUP1 SLOAD PUSH1 0xFF NOT AND SWAP1 SSTORE JUMP JUMPDEST PUSH1 0x0 DUP3 DUP2 MSTORE PUSH1 0x12 PUSH1 0x20 MSTORE PUSH1 0x40 SWAP1 KECCAK256 SLOAD DUP3 SWAP1 PUSH1 0xFF AND PUSH2 0x26C3 JUMPI PUSH1 0x0 DUP1 REVERT JUMPDEST PUSH1 0x1 DUP1 SLOAD PUSH1 0xFF AND ISZERO ISZERO EQ PUSH2 0x26E9 JUMPI PUSH1 0x40 MLOAD PUSH3 0x461BCD PUSH1 0xE5 SHL DUP2 MSTORE PUSH1 0x4 ADD PUSH2 0xC9E SWAP1 PUSH2 0x52ED JUMP JUMPDEST PUSH1 0x0 DUP4 DUP2 MSTORE PUSH1 0x12 PUSH1 0x20 SWAP1 DUP2 MSTORE PUSH1 0x40 DUP1 DUP4 KECCAK256 DUP1 SLOAD PUSH1 0xFF NOT AND SWAP1 SSTORE PUSH1 0x14 SWAP1 SWAP2 MSTORE SWAP1 DUP2 SWAP1 KECCAK256 SLOAD SWAP1 MLOAD PUSH1 0xE SWAP1 PUSH2 0x271A SWAP1 PUSH2 0x51CB JUMP JUMPDEST SWAP1 DUP2 MSTORE PUSH1 0x40 DUP1 MLOAD PUSH1 0x20 SWAP3 DUP2 SWAP1 SUB DUP4 ADD SWAP1 KECCAK256 PUSH1 0x0 DUP8 DUP2 MSTORE PUSH1 0x13 DUP5 MSTORE DUP3 DUP2 KECCAK256 PUSH1 0x1 ADD SLOAD PUSH1 0x1 PUSH1 0x1 PUSH1 0xA0 SHL SUB AND DUP2 MSTORE SWAP3 MSTORE DUP2 KECCAK256 DUP1 SLOAD SWAP1 SWAP2 SWAP1 PUSH2 0x275A SWAP1 DUP5 SWAP1 PUSH2 0x51F1 JUMP JUMPDEST SWAP1 SWAP2 SSTORE POP POP PUSH1 0x40 DUP1 MLOAD PUSH1 0x20 DUP2 ADD DUP6 SWAP1 MSTORE PUSH1 0x0 DUP1 MLOAD PUSH1 0x20 PUSH2 0x5E5F DUP4 CODECOPY DUP2 MLOAD SWAP2 MSTORE SWAP2 ADD PUSH1 0x40 DUP1 MLOAD PUSH1 0x1F NOT DUP2 DUP5 SUB ADD DUP2 MSTORE SWAP1 DUP3 SWAP1 MSTORE PUSH2 0xC1A SWAP2 DUP6 SWAP1 PUSH2 0x5592 JUMP JUMPDEST PUSH1 0x1 DUP1 SLOAD PUSH1 0xFF AND ISZERO ISZERO EQ PUSH2 0x27BD JUMPI PUSH1 0x40 MLOAD PUSH3 0x461BCD PUSH1 0xE5 SHL DUP2 MSTORE PUSH1 0x4 ADD PUSH2 0xC9E SWAP1 PUSH2 0x52ED JUMP JUMPDEST PUSH1 0x0 SLOAD DUP3 MLOAD DUP5 MLOAD EQ PUSH2 0x27F7 JUMPI PUSH1 0x40 MLOAD PUSH3 0x461BCD PUSH1 0xE5 SHL DUP2 MSTORE PUSH1 0x20 PUSH1 0x4 DUP3 ADD MSTORE PUSH1 0x3 PUSH1 0x24 DUP3 ADD MSTORE PUSH3 0x504357 PUSH1 0xE8 SHL PUSH1 0x44 DUP3 ADD MSTORE PUSH1 0x64 ADD PUSH2 0xC9E JUMP JUMPDEST PUSH1 0x0 DUP2 DUP2 MSTORE PUSH1 0x1D PUSH1 0x20 SWAP1 DUP2 MSTORE PUSH1 0x40 DUP1 DUP4 KECCAK256 DUP1 SLOAD PUSH1 0x1 PUSH1 0xFF NOT SWAP1 SWAP2 AND DUP2 OR SWAP1 SWAP2 SSTORE DUP2 MLOAD PUSH1 0x60 DUP2 ADD DUP4 MSTORE PUSH1 0x1 PUSH1 0x1 PUSH1 0xA0 SHL SUB DUP8 DUP2 AND DUP3 MSTORE DUP2 DUP6 ADD DUP11 DUP2 MSTORE DUP3 DUP6 ADD DUP11 SWAP1 MSTORE DUP8 DUP8 MSTORE PUSH1 0x16 DUP7 MSTORE SWAP4 SWAP1 SWAP6 KECCAK256 DUP2 MLOAD DUP2 SLOAD PUSH1 0x1 PUSH1 0x1 PUSH1 0xA0 SHL SUB NOT AND SWAP7 AND SWAP6 SWAP1 SWAP6 OR DUP6 SSTORE SWAP2 MLOAD DUP1 MLOAD SWAP3 SWAP5 SWAP4 PUSH2 0x2870 SWAP4 SWAP3 DUP6 ADD SWAP3 SWAP2 ADD SWAP1 PUSH2 0x4A18 JUMP JUMPDEST POP PUSH1 0x40 DUP3 ADD MLOAD DUP1 MLOAD PUSH2 0x288C SWAP2 PUSH1 0x2 DUP5 ADD SWAP2 PUSH1 0x20 SWAP1 SWAP2 ADD SWAP1 PUSH2 0x4A6E JUMP JUMPDEST POP POP POP PUSH1 0x0 DUP2 DUP2 MSTORE PUSH1 0x18 PUSH1 0x20 SWAP1 DUP2 MSTORE PUSH1 0x40 DUP1 DUP4 KECCAK256 PUSH1 0x1 SWAP1 DUP2 SWAP1 SSTORE PUSH1 0x1A SWAP1 SWAP3 MSTORE SWAP2 DUP3 SWAP1 KECCAK256 SSTORE MLOAD PUSH32 0x3BEB2501A436DC1031B7CC3728F824767D0B618F755364D9853FACE0786E2DCC SWAP1 PUSH2 0x28E0 SWAP1 DUP4 DUP2 MSTORE PUSH1 0x20 ADD SWAP1 JUMP JUMPDEST PUSH1 0x40 MLOAD DUP1 SWAP2 SUB SWAP1 LOG1 POP PUSH1 0x0 DUP1 SLOAD SWAP1 DUP1 PUSH2 0x28F8 DUP4 PUSH2 0x55BE JUMP JUMPDEST SWAP2 SWAP1 POP SSTORE POP POP POP POP JUMP JUMPDEST PUSH1 0x0 DUP1 PUSH2 0x290F DUP4 DUP8 PUSH2 0x536B JUMP JUMPDEST SWAP6 POP PUSH2 0x291B DUP6 DUP6 PUSH2 0x536B JUMP JUMPDEST SWAP4 POP PUSH2 0x2927 DUP5 DUP8 PUSH2 0x51F1 JUMP JUMPDEST PUSH2 0x2931 DUP5 DUP8 PUSH2 0x536B JUMP JUMPDEST SWAP2 POP SWAP2 POP SWAP5 POP SWAP5 SWAP3 POP POP POP JUMP JUMPDEST PUSH1 0x0 DUP1 PUSH1 0x0 PUSH2 0x294D DUP6 DUP6 PUSH2 0x4831 JUMP JUMPDEST SWAP1 POP PUSH2 0x2959 DUP2 DUP6 PUSH2 0x531F JUMP JUMPDEST PUSH2 0x2963 DUP3 DUP8 PUSH2 0x531F JUMP JUMPDEST PUSH2 0x296D SWAP2 SWAP1 PUSH2 0x531F JUMP JUMPDEST PUSH2 0x2977 DUP6 DUP8 PUSH2 0x531F JUMP JUMPDEST EQ PUSH2 0x29AA JUMPI PUSH1 0x40 MLOAD PUSH3 0x461BCD PUSH1 0xE5 SHL DUP2 MSTORE PUSH1 0x20 PUSH1 0x4 DUP3 ADD MSTORE PUSH1 0x3 PUSH1 0x24 DUP3 ADD MSTORE PUSH3 0x159355 PUSH1 0xEA SHL PUSH1 0x44 DUP3 ADD MSTORE PUSH1 0x64 ADD PUSH2 0xC9E JUMP JUMPDEST PUSH2 0x29B4 DUP2 DUP7 PUSH2 0x531F JUMP JUMPDEST PUSH2 0x29BE DUP3 DUP7 PUSH2 0x531F JUMP JUMPDEST SWAP3 POP SWAP3 POP POP SWAP3 POP SWAP3 SWAP1 POP JUMP JUMPDEST PUSH1 0x1 DUP1 SLOAD PUSH1 0xFF AND ISZERO ISZERO EQ PUSH2 0x29F0 JUMPI PUSH1 0x40 MLOAD PUSH3 0x461BCD PUSH1 0xE5 SHL DUP2 MSTORE PUSH1 0x4 ADD PUSH2 0xC9E SWAP1 PUSH2 0x52ED JUMP JUMPDEST PUSH2 0x29F9 DUP4 PUSH2 0x1CCF JUMP JUMPDEST ISZERO PUSH2 0x2A2B JUMPI PUSH1 0x40 MLOAD PUSH3 0x461BCD PUSH1 0xE5 SHL DUP2 MSTORE PUSH1 0x20 PUSH1 0x4 DUP3 ADD MSTORE PUSH1 0x2 PUSH1 0x24 DUP3 ADD MSTORE PUSH2 0x4145 PUSH1 0xF0 SHL PUSH1 0x44 DUP3 ADD MSTORE PUSH1 0x64 ADD PUSH2 0xC9E JUMP JUMPDEST PUSH1 0x1 PUSH1 0xF DUP5 PUSH1 0x40 MLOAD PUSH2 0x2A3D SWAP2 SWAP1 PUSH2 0x5261 JUMP JUMPDEST SWAP1 DUP2 MSTORE PUSH1 0x40 DUP1 MLOAD PUSH1 0x20 SWAP3 DUP2 SWAP1 SUB DUP4 ADD DUP2 KECCAK256 PUSH1 0x1 PUSH1 0x1 PUSH1 0xA0 SHL SUB DUP8 AND PUSH1 0x0 SWAP1 DUP2 MSTORE SWAP4 MSTORE SWAP2 KECCAK256 DUP1 SLOAD PUSH1 0xFF NOT AND SWAP3 ISZERO ISZERO SWAP3 SWAP1 SWAP3 OR SWAP1 SWAP2 SSTORE PUSH1 0x1 SWAP1 PUSH1 0xC SWAP1 PUSH2 0x2A82 SWAP1 DUP7 SWAP1 PUSH2 0x5261 JUMP JUMPDEST SWAP1 DUP2 MSTORE PUSH1 0x40 MLOAD PUSH1 0x20 SWAP2 DUP2 SWAP1 SUB DUP3 ADD DUP2 KECCAK256 DUP1 SLOAD PUSH1 0xFF NOT AND SWAP4 ISZERO ISZERO SWAP4 SWAP1 SWAP4 OR SWAP1 SWAP3 SSTORE PUSH1 0x0 DUP1 MLOAD PUSH1 0x20 PUSH2 0x5E5F DUP4 CODECOPY DUP2 MLOAD SWAP2 MSTORE SWAP2 PUSH2 0x2AC0 SWAP2 DUP7 SWAP2 DUP7 SWAP2 ADD PUSH2 0x55D7 JUMP JUMPDEST PUSH1 0x40 DUP1 MLOAD PUSH1 0x1F NOT DUP2 DUP5 SUB ADD DUP2 MSTORE SWAP1 DUP3 SWAP1 MSTORE PUSH2 0xC1A SWAP2 DUP5 SWAP1 PUSH2 0x5601 JUMP JUMPDEST PUSH1 0x1 DUP1 SLOAD PUSH1 0xFF AND ISZERO ISZERO EQ PUSH2 0x2B02 JUMPI PUSH1 0x40 MLOAD PUSH3 0x461BCD PUSH1 0xE5 SHL DUP2 MSTORE PUSH1 0x4 ADD PUSH2 0xC9E SWAP1 PUSH2 0x52ED JUMP JUMPDEST PUSH2 0x2B0C DUP4 DUP4 PUSH2 0x1BE5 JUMP JUMPDEST PUSH2 0x2B15 JUMPI PUSH1 0x0 DUP1 REVERT JUMPDEST PUSH1 0x0 PUSH1 0xF DUP5 PUSH1 0x40 MLOAD PUSH2 0x2B27 SWAP2 SWAP1 PUSH2 0x5261 JUMP JUMPDEST SWAP1 DUP2 MSTORE PUSH1 0x40 DUP1 MLOAD PUSH1 0x20 SWAP3 DUP2 SWAP1 SUB DUP4 ADD DUP2 KECCAK256 PUSH1 0x1 PUSH1 0x1 PUSH1 0xA0 SHL SUB DUP8 AND PUSH1 0x0 SWAP1 DUP2 MSTORE SWAP1 DUP5 MSTORE SWAP2 SWAP1 SWAP2 KECCAK256 DUP1 SLOAD PUSH1 0xFF NOT AND SWAP4 ISZERO ISZERO SWAP4 SWAP1 SWAP4 OR SWAP1 SWAP3 SSTORE PUSH1 0x0 DUP1 MLOAD PUSH1 0x20 PUSH2 0x5E5F DUP4 CODECOPY DUP2 MLOAD SWAP2 MSTORE SWAP2 PUSH2 0x2B7C SWAP2 DUP7 SWAP2 DUP7 SWAP2 ADD PUSH2 0x55D7 JUMP JUMPDEST PUSH1 0x40 DUP1 MLOAD PUSH1 0x1F NOT DUP2 DUP5 SUB ADD DUP2 MSTORE SWAP1 DUP3 SWAP1 MSTORE PUSH2 0xC1A SWAP2 DUP5 SWAP1 PUSH2 0x562D JUMP JUMPDEST PUSH1 0x1 PUSH1 0x1 PUSH1 0xA0 SHL SUB DUP4 AND PUSH1 0x0 SWAP1 DUP2 MSTORE PUSH1 0x8 PUSH1 0x20 MSTORE PUSH1 0x40 SWAP1 KECCAK256 SLOAD DUP3 GT ISZERO PUSH2 0x2BD0 JUMPI PUSH1 0x40 MLOAD PUSH3 0x461BCD PUSH1 0xE5 SHL DUP2 MSTORE PUSH1 0x4 ADD PUSH2 0xC9E SWAP1 PUSH2 0x5437 JUMP JUMPDEST PUSH1 0x1 PUSH1 0x1 PUSH1 0xA0 SHL SUB DUP4 AND PUSH2 0x2BED JUMPI PUSH2 0x2BE8 DUP3 DUP3 PUSH2 0x4856 JUMP JUMPDEST PUSH2 0x2D93 JUMP JUMPDEST PUSH1 0x40 MLOAD PUSH4 0x95EA7B3 PUSH1 0xE0 SHL DUP2 MSTORE DUP4 SWAP1 PUSH1 0x1 PUSH1 0x1 PUSH1 0xA0 SHL SUB DUP3 AND SWAP1 PUSH4 0x95EA7B3 SWAP1 PUSH2 0x2C1D SWAP1 DUP6 SWAP1 DUP8 SWAP1 PUSH1 0x4 ADD PUSH2 0x5659 JUMP JUMPDEST PUSH1 0x20 PUSH1 0x40 MLOAD DUP1 DUP4 SUB DUP2 PUSH1 0x0 DUP8 GAS CALL ISZERO DUP1 ISZERO PUSH2 0x2C3C JUMPI RETURNDATASIZE PUSH1 0x0 DUP1 RETURNDATACOPY RETURNDATASIZE PUSH1 0x0 REVERT JUMPDEST POP POP POP POP PUSH1 0x40 MLOAD RETURNDATASIZE PUSH1 0x1F NOT PUSH1 0x1F DUP3 ADD AND DUP3 ADD DUP1 PUSH1 0x40 MSTORE POP DUP2 ADD SWAP1 PUSH2 0x2C60 SWAP2 SWAP1 PUSH2 0x5477 JUMP JUMPDEST PUSH2 0x2C91 JUMPI PUSH1 0x40 MLOAD PUSH3 0x461BCD PUSH1 0xE5 SHL DUP2 MSTORE PUSH1 0x20 PUSH1 0x4 DUP3 ADD MSTORE PUSH1 0x2 PUSH1 0x24 DUP3 ADD MSTORE PUSH2 0x4E41 PUSH1 0xF0 SHL PUSH1 0x44 DUP3 ADD MSTORE PUSH1 0x64 ADD PUSH2 0xC9E JUMP JUMPDEST PUSH1 0x1 PUSH1 0x1 PUSH1 0xA0 SHL SUB DUP3 AND EXTCODESIZE ISZERO PUSH2 0x2D04 JUMPI PUSH1 0x40 MLOAD PUSH4 0x4B91AD0F PUSH1 0xE1 SHL DUP2 MSTORE PUSH1 0x1 PUSH1 0x1 PUSH1 0xA0 SHL SUB DUP4 AND SWAP1 PUSH4 0x97235A1E SWAP1 PUSH2 0x2CCF SWAP1 DUP8 SWAP1 DUP8 SWAP1 PUSH1 0x4 ADD PUSH2 0x5659 JUMP JUMPDEST PUSH1 0x0 PUSH1 0x40 MLOAD DUP1 DUP4 SUB DUP2 PUSH1 0x0 DUP8 DUP1 EXTCODESIZE ISZERO DUP1 ISZERO PUSH2 0x2CE9 JUMPI PUSH1 0x0 DUP1 REVERT JUMPDEST POP GAS CALL SWAP3 POP POP POP DUP1 ISZERO PUSH2 0x2CFA JUMPI POP PUSH1 0x1 JUMPDEST ISZERO PUSH2 0x2D91 JUMPI PUSH2 0x2D91 JUMP JUMPDEST PUSH1 0x40 MLOAD PUSH4 0xA9059CBB PUSH1 0xE0 SHL DUP2 MSTORE PUSH1 0x1 PUSH1 0x1 PUSH1 0xA0 SHL SUB DUP3 AND SWAP1 PUSH4 0xA9059CBB SWAP1 PUSH2 0x2D32 SWAP1 DUP6 SWAP1 DUP8 SWAP1 PUSH1 0x4 ADD PUSH2 0x5659 JUMP JUMPDEST PUSH1 0x20 PUSH1 0x40 MLOAD DUP1 DUP4 SUB DUP2 PUSH1 0x0 DUP8 GAS CALL ISZERO DUP1 ISZERO PUSH2 0x2D51 JUMPI RETURNDATASIZE PUSH1 0x0 DUP1 RETURNDATACOPY RETURNDATASIZE PUSH1 0x0 REVERT JUMPDEST POP POP POP POP PUSH1 0x40 MLOAD RETURNDATASIZE PUSH1 0x1F NOT PUSH1 0x1F DUP3 ADD AND DUP3 ADD DUP1 PUSH1 0x40 MSTORE POP DUP2 ADD SWAP1 PUSH2 0x2D75 SWAP2 SWAP1 PUSH2 0x5477 JUMP JUMPDEST PUSH2 0x2D91 JUMPI PUSH1 0x40 MLOAD PUSH3 0x461BCD PUSH1 0xE5 SHL DUP2 MSTORE PUSH1 0x4 ADD PUSH2 0xC9E SWAP1 PUSH2 0x5494 JUMP JUMPDEST POP JUMPDEST PUSH1 0x1 SLOAD PUSH1 0xFF AND ISZERO PUSH2 0xCB2 JUMPI PUSH2 0xCB2 DUP4 DUP4 PUSH2 0x48C9 JUMP JUMPDEST PUSH1 0x1 DUP1 SLOAD PUSH1 0xFF AND ISZERO ISZERO EQ PUSH2 0x2DCE JUMPI PUSH1 0x40 MLOAD PUSH3 0x461BCD PUSH1 0xE5 SHL DUP2 MSTORE PUSH1 0x4 ADD PUSH2 0xC9E SWAP1 PUSH2 0x52ED JUMP JUMPDEST PUSH2 0x2DD7 DUP3 PUSH2 0x1CCF JUMP JUMPDEST PUSH2 0x2E09 JUMPI PUSH1 0x40 MLOAD PUSH3 0x461BCD PUSH1 0xE5 SHL DUP2 MSTORE PUSH1 0x20 PUSH1 0x4 DUP3 ADD MSTORE PUSH1 0x3 PUSH1 0x24 DUP3 ADD MSTORE PUSH3 0x554221 PUSH1 0xE8 SHL PUSH1 0x44 DUP3 ADD MSTORE PUSH1 0x64 ADD PUSH2 0xC9E JUMP JUMPDEST PUSH1 0x40 DUP1 MLOAD DUP1 DUP3 ADD SWAP1 SWAP2 MSTORE PUSH1 0x4 DUP2 MSTORE PUSH4 0x36B0B4B7 PUSH1 0xE1 SHL PUSH1 0x20 SWAP2 DUP3 ADD MSTORE DUP3 MLOAD SWAP1 DUP4 ADD KECCAK256 PUSH32 0x471DFAB0756EDC981C75DD3188CCD700755407F7D3BEDF452610F7A1E240D659 ADD PUSH2 0x2E7E JUMPI PUSH1 0x40 MLOAD PUSH3 0x461BCD PUSH1 0xE5 SHL DUP2 MSTORE PUSH1 0x20 PUSH1 0x4 DUP3 ADD MSTORE PUSH1 0x2 PUSH1 0x24 DUP3 ADD MSTORE PUSH2 0x26A1 PUSH1 0xF1 SHL PUSH1 0x44 DUP3 ADD MSTORE PUSH1 0x64 ADD PUSH2 0xC9E JUMP JUMPDEST PUSH2 0x2E87 DUP3 PUSH2 0xD9A JUMP JUMPDEST PUSH2 0x2EB8 JUMPI PUSH1 0x40 MLOAD PUSH3 0x461BCD PUSH1 0xE5 SHL DUP2 MSTORE PUSH1 0x20 PUSH1 0x4 DUP3 ADD MSTORE PUSH1 0x2 PUSH1 0x24 DUP3 ADD MSTORE PUSH2 0x4245 PUSH1 0xF0 SHL PUSH1 0x44 DUP3 ADD MSTORE PUSH1 0x64 ADD PUSH2 0xC9E JUMP JUMPDEST PUSH1 0x0 PUSH1 0xC DUP4 PUSH1 0x40 MLOAD PUSH2 0x2ECA SWAP2 SWAP1 PUSH2 0x5261 JUMP JUMPDEST SWAP1 DUP2 MSTORE PUSH1 0x40 MLOAD PUSH1 0x20 SWAP2 DUP2 SWAP1 SUB DUP3 ADD DUP2 KECCAK256 DUP1 SLOAD PUSH1 0xFF NOT AND SWAP4 ISZERO ISZERO SWAP4 SWAP1 SWAP4 OR SWAP1 SWAP3 SSTORE PUSH1 0x0 DUP1 MLOAD PUSH1 0x20 PUSH2 0x5E5F DUP4 CODECOPY DUP2 MLOAD SWAP2 MSTORE SWAP2 PUSH2 0x2F06 SWAP2 DUP6 SWAP2 ADD PUSH2 0x5672 JUMP JUMPDEST PUSH1 0x40 DUP1 MLOAD PUSH1 0x1F NOT DUP2 DUP5 SUB ADD DUP2 MSTORE SWAP1 DUP3 SWAP1 MSTORE PUSH2 0x2F22 SWAP2 DUP5 SWAP1 PUSH2 0x5685 JUMP JUMPDEST PUSH1 0x40 MLOAD DUP1 SWAP2 SUB SWAP1 LOG1 POP POP JUMP JUMPDEST PUSH1 0x1 DUP1 SLOAD PUSH1 0xFF AND ISZERO ISZERO EQ PUSH2 0x2F54 JUMPI PUSH1 0x40 MLOAD PUSH3 0x461BCD PUSH1 0xE5 SHL DUP2 MSTORE PUSH1 0x4 ADD PUSH2 0xC9E SWAP1 PUSH2 0x52ED JUMP JUMPDEST PUSH1 0x0 DUP4 DUP2 MSTORE PUSH1 0x16 PUSH1 0x20 MSTORE PUSH1 0x40 SWAP1 KECCAK256 PUSH1 0x1 ADD SLOAD DUP3 LT PUSH2 0x2F9A JUMPI PUSH1 0x40 MLOAD PUSH3 0x461BCD PUSH1 0xE5 SHL DUP2 MSTORE PUSH1 0x20 PUSH1 0x4 DUP3 ADD MSTORE PUSH1 0x3 PUSH1 0x24 DUP3 ADD MSTORE PUSH3 0x504445 PUSH1 0xE8 SHL PUSH1 0x44 DUP3 ADD MSTORE PUSH1 0x64 ADD PUSH2 0xC9E JUMP JUMPDEST PUSH1 0x0 DUP4 DUP2 MSTORE PUSH1 0x1B PUSH1 0x20 MSTORE PUSH1 0x40 SWAP1 KECCAK256 SLOAD DUP3 EQ PUSH2 0x2FDD JUMPI PUSH1 0x40 MLOAD PUSH3 0x461BCD PUSH1 0xE5 SHL DUP2 MSTORE PUSH1 0x20 PUSH1 0x4 DUP3 ADD MSTORE PUSH1 0x3 PUSH1 0x24 DUP3 ADD MSTORE PUSH3 0x57504F PUSH1 0xE8 SHL PUSH1 0x44 DUP3 ADD MSTORE PUSH1 0x64 ADD PUSH2 0xC9E JUMP JUMPDEST PUSH1 0x0 DUP4 DUP2 MSTORE PUSH1 0x1B PUSH1 0x20 MSTORE PUSH1 0x40 DUP2 KECCAK256 DUP1 SLOAD PUSH1 0x1 SWAP3 SWAP1 PUSH2 0x2FFC SWAP1 DUP5 SWAP1 PUSH2 0x51F1 JUMP JUMPDEST SWAP1 SWAP2 SSTORE POP POP PUSH1 0x0 DUP4 DUP2 MSTORE PUSH1 0x16 PUSH1 0x20 MSTORE PUSH1 0x40 DUP2 KECCAK256 PUSH1 0x1 ADD DUP1 SLOAD DUP5 SWAP1 DUP2 LT PUSH2 0x3024 JUMPI PUSH2 0x3024 PUSH2 0x56B1 JUMP JUMPDEST SWAP1 PUSH1 0x0 MSTORE PUSH1 0x20 PUSH1 0x0 KECCAK256 ADD DUP1 SLOAD PUSH2 0x3039 SWAP1 PUSH2 0x56C7 JUMP JUMPDEST DUP1 PUSH1 0x1F ADD PUSH1 0x20 DUP1 SWAP2 DIV MUL PUSH1 0x20 ADD PUSH1 0x40 MLOAD SWAP1 DUP2 ADD PUSH1 0x40 MSTORE DUP1 SWAP3 SWAP2 SWAP1 DUP2 DUP2 MSTORE PUSH1 0x20 ADD DUP3 DUP1 SLOAD PUSH2 0x3065 SWAP1 PUSH2 0x56C7 JUMP JUMPDEST DUP1 ISZERO PUSH2 0x30B2 JUMPI DUP1 PUSH1 0x1F LT PUSH2 0x3087 JUMPI PUSH2 0x100 DUP1 DUP4 SLOAD DIV MUL DUP4 MSTORE SWAP2 PUSH1 0x20 ADD SWAP2 PUSH2 0x30B2 JUMP JUMPDEST DUP3 ADD SWAP2 SWAP1 PUSH1 0x0 MSTORE PUSH1 0x20 PUSH1 0x0 KECCAK256 SWAP1 JUMPDEST DUP2 SLOAD DUP2 MSTORE SWAP1 PUSH1 0x1 ADD SWAP1 PUSH1 0x20 ADD DUP1 DUP4 GT PUSH2 0x3095 JUMPI DUP3 SWAP1 SUB PUSH1 0x1F AND DUP3 ADD SWAP2 JUMPDEST POP POP POP POP POP SWAP1 POP PUSH1 0x0 PUSH1 0x16 PUSH1 0x0 DUP7 DUP2 MSTORE PUSH1 0x20 ADD SWAP1 DUP2 MSTORE PUSH1 0x20 ADD PUSH1 0x0 KECCAK256 PUSH1 0x2 ADD DUP5 DUP2 SLOAD DUP2 LT PUSH2 0x30E2 JUMPI PUSH2 0x30E2 PUSH2 0x56B1 JUMP JUMPDEST SWAP1 PUSH1 0x0 MSTORE PUSH1 0x20 PUSH1 0x0 KECCAK256 ADD DUP1 SLOAD PUSH2 0x30F7 SWAP1 PUSH2 0x56C7 JUMP JUMPDEST DUP1 PUSH1 0x1F ADD PUSH1 0x20 DUP1 SWAP2 DIV MUL PUSH1 0x20 ADD PUSH1 0x40 MLOAD SWAP1 DUP2 ADD PUSH1 0x40 MSTORE DUP1 SWAP3 SWAP2 SWAP1 DUP2 DUP2 MSTORE PUSH1 0x20 ADD DUP3 DUP1 SLOAD PUSH2 0x3123 SWAP1 PUSH2 0x56C7 JUMP JUMPDEST DUP1 ISZERO PUSH2 0x3170 JUMPI DUP1 PUSH1 0x1F LT PUSH2 0x3145 JUMPI PUSH2 0x100 DUP1 DUP4 SLOAD DIV MUL DUP4 MSTORE SWAP2 PUSH1 0x20 ADD SWAP2 PUSH2 0x3170 JUMP JUMPDEST DUP3 ADD SWAP2 SWAP1 PUSH1 0x0 MSTORE PUSH1 0x20 PUSH1 0x0 KECCAK256 SWAP1 JUMPDEST DUP2 SLOAD DUP2 MSTORE SWAP1 PUSH1 0x1 ADD SWAP1 PUSH1 0x20 ADD DUP1 DUP4 GT PUSH2 0x3153 JUMPI DUP3 SWAP1 SUB PUSH1 0x1F AND DUP3 ADD SWAP2 JUMPDEST POP POP POP POP POP SWAP1 POP PUSH1 0x0 DUP3 DUP1 MLOAD SWAP1 PUSH1 0x20 ADD KECCAK256 SWAP1 POP PUSH1 0x40 MLOAD DUP1 PUSH1 0x40 ADD PUSH1 0x40 MSTORE DUP1 PUSH1 0x2 DUP2 MSTORE PUSH1 0x20 ADD PUSH2 0x34AB PUSH1 0xF1 SHL DUP2 MSTORE POP DUP1 MLOAD SWAP1 PUSH1 0x20 ADD KECCAK256 DUP2 SUB PUSH2 0x31D4 JUMPI PUSH1 0x0 DUP1 DUP4 DUP1 PUSH1 0x20 ADD SWAP1 MLOAD DUP2 ADD SWAP1 PUSH2 0x31C2 SWAP2 SWAP1 PUSH2 0x57E5 JUMP JUMPDEST SWAP2 POP SWAP2 POP PUSH2 0x31D1 DUP3 DUP3 ADDRESS PUSH2 0x2797 JUMP JUMPDEST POP POP JUMPDEST PUSH1 0x40 DUP1 MLOAD DUP1 DUP3 ADD SWAP1 SWAP2 MSTORE PUSH1 0x2 DUP2 MSTORE PUSH2 0x735 PUSH1 0xF4 SHL PUSH1 0x20 SWAP1 SWAP2 ADD MSTORE PUSH32 0xF1B1BBC74E4DF8608497E5EED3180A4B18C6B574FF7C886247E917619E157587 DUP2 ADD PUSH2 0x3244 JUMPI PUSH1 0x0 DUP1 PUSH1 0x0 DUP5 DUP1 PUSH1 0x20 ADD SWAP1 MLOAD DUP2 ADD SWAP1 PUSH2 0x322E SWAP2 SWAP1 PUSH2 0x58B1 JUMP JUMPDEST SWAP3 POP SWAP3 POP SWAP3 POP PUSH2 0x3240 DUP4 DUP3 DUP5 ADDRESS PUSH2 0x4354 JUMP JUMPDEST POP POP POP JUMPDEST PUSH1 0x40 DUP1 MLOAD DUP1 DUP3 ADD SWAP1 SWAP2 MSTORE PUSH1 0x3 DUP2 MSTORE PUSH3 0x73425 PUSH1 0xEC SHL PUSH1 0x20 SWAP1 SWAP2 ADD MSTORE PUSH32 0x5B71168F95AE2C654FB9DF9617E8E982F0D567B89D6B73E33C893B3F66CE719A DUP2 ADD PUSH2 0x32AF JUMPI PUSH1 0x0 DUP1 DUP4 DUP1 PUSH1 0x20 ADD SWAP1 MLOAD DUP2 ADD SWAP1 PUSH2 0x329D SWAP2 SWAP1 PUSH2 0x590A JUMP JUMPDEST SWAP2 POP SWAP2 POP PUSH2 0x32AC DUP3 DUP3 ADDRESS PUSH2 0x2545 JUMP JUMPDEST POP POP JUMPDEST PUSH1 0x40 DUP1 MLOAD DUP1 DUP3 ADD SWAP1 SWAP2 MSTORE PUSH1 0x3 DUP2 MSTORE PUSH3 0x734E53 PUSH1 0xE8 SHL PUSH1 0x20 SWAP1 SWAP2 ADD MSTORE PUSH32 0x4958D6109B82BD5E477D31199F35C1DC2623C0547EEE74C1A266DAA5E0D22863 DUP2 ADD PUSH2 0x3315 JUMPI PUSH1 0x0 DUP3 DUP1 PUSH1 0x20 ADD SWAP1 MLOAD DUP2 ADD SWAP1 PUSH2 0x3307 SWAP2 SWAP1 PUSH2 0x5477 JUMP JUMPDEST SWAP1 POP PUSH2 0x3313 DUP2 ADDRESS PUSH2 0x3C25 JUMP JUMPDEST POP JUMPDEST PUSH1 0x40 DUP1 MLOAD DUP1 DUP3 ADD SWAP1 SWAP2 MSTORE PUSH1 0x2 DUP2 MSTORE PUSH2 0x1D15 PUSH1 0xF2 SHL PUSH1 0x20 SWAP1 SWAP2 ADD MSTORE PUSH32 0x36DDD33E7A7F4736D675524B57AE6969FBA9049312747B57679F33A51849C6B1 DUP2 ADD PUSH2 0x338A JUMPI PUSH1 0x0 DUP1 PUSH1 0x0 DUP1 DUP6 DUP1 PUSH1 0x20 ADD SWAP1 MLOAD DUP2 ADD SWAP1 PUSH2 0x3370 SWAP2 SWAP1 PUSH2 0x5950 JUMP JUMPDEST SWAP4 POP SWAP4 POP SWAP4 POP SWAP4 POP PUSH2 0x3385 DUP5 DUP5 DUP5 DUP5 ADDRESS PUSH2 0x449D JUMP JUMPDEST POP POP POP POP JUMPDEST PUSH1 0x40 DUP1 MLOAD DUP1 DUP3 ADD SWAP1 SWAP2 MSTORE PUSH1 0x2 DUP2 MSTORE PUSH2 0x1B55 PUSH1 0xF2 SHL PUSH1 0x20 SWAP1 SWAP2 ADD MSTORE PUSH32 0x6F27458A75A197963A149D891EE01B4F59E7DFBCD1A8C7BC1095DC063775C5E9 DUP2 ADD PUSH2 0x33FF JUMPI PUSH1 0x0 DUP1 PUSH1 0x0 DUP1 DUP6 DUP1 PUSH1 0x20 ADD SWAP1 MLOAD DUP2 ADD SWAP1 PUSH2 0x33E5 SWAP2 SWAP1 PUSH2 0x59B1 JUMP JUMPDEST SWAP4 POP SWAP4 POP SWAP4 POP SWAP4 POP PUSH2 0x33FA DUP5 DUP5 DUP5 DUP5 ADDRESS PUSH2 0x3FC2 JUMP JUMPDEST POP POP POP POP JUMPDEST PUSH1 0x40 DUP1 MLOAD DUP1 DUP3 ADD SWAP1 SWAP2 MSTORE PUSH1 0x2 DUP2 MSTORE PUSH2 0x1A51 PUSH1 0xF2 SHL PUSH1 0x20 SWAP1 SWAP2 ADD MSTORE PUSH32 0x1CF0197AED3B237C637010856237AFEB1EC5367FD4B836BF00F3BD32EEF1EF77 DUP2 ADD PUSH2 0x346F JUMPI PUSH1 0x0 DUP1 PUSH1 0x0 DUP5 DUP1 PUSH1 0x20 ADD SWAP1 MLOAD DUP2 ADD SWAP1 PUSH2 0x3459 SWAP2 SWAP1 PUSH2 0x5A2E JUMP JUMPDEST SWAP3 POP SWAP3 POP SWAP3 POP PUSH2 0x346B DUP4 DUP4 DUP4 ADDRESS PUSH2 0x39F1 JUMP JUMPDEST POP POP POP JUMPDEST PUSH1 0x40 DUP1 MLOAD DUP1 DUP3 ADD SWAP1 SWAP2 MSTORE PUSH1 0x2 DUP2 MSTORE PUSH2 0x1911 PUSH1 0xF2 SHL PUSH1 0x20 SWAP1 SWAP2 ADD MSTORE PUSH32 0xEDD0EE4C0D87C45F9EDC0B9BA6F7373336C241B06C885E00F23C1AB5EC82A747 DUP2 ADD PUSH2 0x34D4 JUMPI PUSH1 0x0 DUP3 DUP1 PUSH1 0x20 ADD SWAP1 MLOAD DUP2 ADD SWAP1 PUSH2 0x34C6 SWAP2 SWAP1 PUSH2 0x541E JUMP JUMPDEST SWAP1 POP PUSH2 0x34D2 DUP2 ADDRESS PUSH2 0x26A6 JUMP JUMPDEST POP JUMPDEST PUSH1 0x40 DUP1 MLOAD DUP1 DUP3 ADD SWAP1 SWAP2 MSTORE PUSH1 0x2 DUP2 MSTORE PUSH2 0x31A1 PUSH1 0xF1 SHL PUSH1 0x20 SWAP1 SWAP2 ADD MSTORE PUSH32 0x2108E84F920E4EEE7D6AC9EF2ABEB540A1D7F56715D474E0B06B236CF4E70312 DUP2 ADD PUSH2 0x353E JUMPI PUSH1 0x0 DUP1 DUP4 DUP1 PUSH1 0x20 ADD SWAP1 MLOAD DUP2 ADD SWAP1 PUSH2 0x352C SWAP2 SWAP1 PUSH2 0x5A88 JUMP JUMPDEST SWAP2 POP SWAP2 POP PUSH2 0x353B DUP3 DUP3 ADDRESS PUSH2 0x29CA JUMP JUMPDEST POP POP JUMPDEST PUSH1 0x40 DUP1 MLOAD DUP1 DUP3 ADD SWAP1 SWAP2 MSTORE PUSH1 0x2 DUP2 MSTORE PUSH2 0x3221 PUSH1 0xF1 SHL PUSH1 0x20 SWAP1 SWAP2 ADD MSTORE PUSH32 0x46E76FB60CBFEA5DC4E313412F858C830E50E6E875D17B0921DB6456F8AC9CDB DUP2 ADD PUSH2 0x35A3 JUMPI PUSH1 0x0 DUP3 DUP1 PUSH1 0x20 ADD SWAP1 MLOAD DUP2 ADD SWAP1 PUSH2 0x3595 SWAP2 SWAP1 PUSH2 0x5ACE JUMP JUMPDEST SWAP1 POP PUSH2 0x35A1 DUP2 ADDRESS PUSH2 0x2DA8 JUMP JUMPDEST POP JUMPDEST PUSH1 0x40 DUP1 MLOAD DUP1 DUP3 ADD SWAP1 SWAP2 MSTORE PUSH1 0x3 DUP2 MSTORE PUSH3 0x614241 PUSH1 0xE8 SHL PUSH1 0x20 SWAP1 SWAP2 ADD MSTORE PUSH32 0x747EDC76097BCCD90F0D440C26B5930408266BBE117772D2C1D5B62A81070BD2 DUP2 ADD PUSH2 0x360E JUMPI PUSH1 0x0 DUP1 DUP4 DUP1 PUSH1 0x20 ADD SWAP1 MLOAD DUP2 ADD SWAP1 PUSH2 0x35FC SWAP2 SWAP1 PUSH2 0x5A88 JUMP JUMPDEST SWAP2 POP SWAP2 POP PUSH2 0x360B DUP3 DUP3 ADDRESS PUSH2 0x4256 JUMP JUMPDEST POP POP JUMPDEST PUSH1 0x40 DUP1 MLOAD DUP1 DUP3 ADD SWAP1 SWAP2 MSTORE PUSH1 0x3 DUP2 MSTORE PUSH3 0x724241 PUSH1 0xE8 SHL PUSH1 0x20 SWAP1 SWAP2 ADD MSTORE PUSH32 0xE01588F2B7120B2685EAD94790242F17D977E3D7967BB132B1110F04A44120A7 DUP2 ADD PUSH2 0x3679 JUMPI PUSH1 0x0 DUP1 DUP4 DUP1 PUSH1 0x20 ADD SWAP1 MLOAD DUP2 ADD SWAP1 PUSH2 0x3667 SWAP2 SWAP1 PUSH2 0x5A88 JUMP JUMPDEST SWAP2 POP SWAP2 POP PUSH2 0x3676 DUP3 DUP3 ADDRESS PUSH2 0x2ADC JUMP JUMPDEST POP POP JUMPDEST PUSH1 0x40 DUP1 MLOAD DUP1 DUP3 ADD SWAP1 SWAP2 MSTORE PUSH1 0x3 DUP2 MSTORE PUSH3 0x725441 PUSH1 0xE8 SHL PUSH1 0x20 SWAP1 SWAP2 ADD MSTORE PUSH32 0xE2347E35BD161F6471726760EE12A18A4BD894EC18D0E8149DABE9C97A206819 DUP2 ADD PUSH2 0x36DF JUMPI PUSH1 0x0 DUP3 DUP1 PUSH1 0x20 ADD SWAP1 MLOAD DUP2 ADD SWAP1 PUSH2 0x36D1 SWAP2 SWAP1 PUSH2 0x5B02 JUMP JUMPDEST SWAP1 POP PUSH2 0x36DD DUP2 ADDRESS PUSH2 0x3D57 JUMP JUMPDEST POP JUMPDEST PUSH1 0x40 DUP1 MLOAD DUP1 DUP3 ADD SWAP1 SWAP2 MSTORE PUSH1 0x3 DUP2 MSTORE PUSH3 0x755441 PUSH1 0xE8 SHL PUSH1 0x20 SWAP1 SWAP2 ADD MSTORE PUSH32 0xC2C2A7F0073A768C7BFFC087093ECEFFD50955AD08A9BA26982DC60F1859EB80 DUP2 ADD PUSH2 0x3745 JUMPI PUSH1 0x0 DUP3 DUP1 PUSH1 0x20 ADD SWAP1 MLOAD DUP2 ADD SWAP1 PUSH2 0x3737 SWAP2 SWAP1 PUSH2 0x5B02 JUMP JUMPDEST SWAP1 POP PUSH2 0x3743 DUP2 ADDRESS PUSH2 0x3C95 JUMP JUMPDEST POP JUMPDEST PUSH1 0x40 DUP1 MLOAD DUP1 DUP3 ADD SWAP1 SWAP2 MSTORE PUSH1 0x1 DUP2 MSTORE PUSH1 0x1B PUSH1 0xFA SHL PUSH1 0x20 SWAP1 SWAP2 ADD MSTORE PUSH32 0x95F2DA642B046F8CC602839A5ECCF7C3E16AAB0D359CDA47F99ED372092820DE DUP2 ADD PUSH2 0x3793 JUMPI PUSH2 0x378E ADDRESS PUSH2 0x25E8 JUMP JUMPDEST PUSH2 0x37C0 JUMP JUMPDEST PUSH1 0x40 MLOAD PUSH3 0x461BCD PUSH1 0xE5 SHL DUP2 MSTORE PUSH1 0x20 PUSH1 0x4 DUP3 ADD MSTORE PUSH1 0x2 PUSH1 0x24 DUP3 ADD MSTORE PUSH2 0x2BA3 PUSH1 0xF1 SHL PUSH1 0x44 DUP3 ADD MSTORE PUSH1 0x64 ADD PUSH2 0xC9E JUMP JUMPDEST PUSH1 0x40 DUP1 MLOAD PUSH1 0x20 DUP2 ADD DUP9 SWAP1 MSTORE SWAP1 DUP2 ADD DUP7 SWAP1 MSTORE PUSH1 0x0 DUP1 MLOAD PUSH1 0x20 PUSH2 0x5E5F DUP4 CODECOPY DUP2 MLOAD SWAP2 MSTORE SWAP1 PUSH1 0x60 ADD PUSH1 0x40 DUP1 MLOAD PUSH1 0x1F NOT DUP2 DUP5 SUB ADD DUP2 MSTORE SWAP1 DUP3 SWAP1 MSTORE PUSH2 0x3800 SWAP2 DUP8 SWAP1 PUSH2 0x5B1F JUMP JUMPDEST PUSH1 0x40 MLOAD DUP1 SWAP2 SUB SWAP1 LOG1 PUSH1 0x0 DUP7 DUP2 MSTORE PUSH1 0x16 PUSH1 0x20 SWAP1 DUP2 MSTORE PUSH1 0x40 DUP1 DUP4 KECCAK256 PUSH1 0x1 ADD SLOAD PUSH1 0x1B SWAP1 SWAP3 MSTORE SWAP1 SWAP2 KECCAK256 SLOAD SUB PUSH2 0x1A25 JUMPI PUSH1 0x40 MLOAD DUP7 DUP2 MSTORE PUSH32 0x8D0D26399C7B999F9067E92DCF5A21EBC7BF6CD77BD186E721E4DFC2654E7830 SWAP1 PUSH1 0x20 ADD JUMPDEST PUSH1 0x40 MLOAD DUP1 SWAP2 SUB SWAP1 LOG1 POP POP POP POP POP POP JUMP JUMPDEST DUP2 PUSH2 0x3881 DUP2 PUSH1 0x0 DUP1 SLOAD SWAP2 DUP2 MSTORE PUSH1 0x6 PUSH1 0x20 MSTORE PUSH1 0x40 SWAP1 KECCAK256 SLOAD GT SWAP1 JUMP JUMPDEST PUSH2 0x389D JUMPI PUSH1 0x40 MLOAD PUSH3 0x461BCD PUSH1 0xE5 SHL DUP2 MSTORE PUSH1 0x4 ADD PUSH2 0xC9E SWAP1 PUSH2 0x52B5 JUMP JUMPDEST PUSH1 0x1 DUP1 SLOAD PUSH1 0xFF AND ISZERO ISZERO EQ PUSH2 0x38C3 JUMPI PUSH1 0x40 MLOAD PUSH3 0x461BCD PUSH1 0xE5 SHL DUP2 MSTORE PUSH1 0x4 ADD PUSH2 0xC9E SWAP1 PUSH2 0x52ED JUMP JUMPDEST PUSH1 0x0 SLOAD PUSH2 0x38CF DUP4 PUSH2 0x240D JUMP JUMPDEST ISZERO PUSH2 0x3964 JUMPI PUSH1 0x1 PUSH1 0x1 PUSH1 0xA0 SHL SUB DUP4 AND PUSH1 0x0 SWAP1 DUP2 MSTORE PUSH1 0x3 PUSH1 0x20 MSTORE PUSH1 0x40 SWAP1 KECCAK256 SLOAD PUSH2 0x3904 SWAP1 DUP3 PUSH1 0x0 SWAP2 DUP3 MSTORE PUSH1 0x6 PUSH1 0x20 MSTORE PUSH1 0x40 SWAP1 SWAP2 KECCAK256 SSTORE JUMP JUMPDEST PUSH1 0x0 DUP5 DUP2 MSTORE PUSH1 0x2 PUSH1 0x20 DUP2 DUP2 MSTORE PUSH1 0x40 DUP1 DUP5 KECCAK256 DUP1 SLOAD PUSH1 0x1 SWAP2 DUP3 ADD SLOAD PUSH1 0x1 PUSH1 0x1 PUSH1 0xA0 SHL SUB DUP11 AND DUP8 MSTORE PUSH1 0x3 DUP6 MSTORE DUP4 DUP8 KECCAK256 SLOAD DUP8 MSTORE SWAP5 SWAP1 SWAP4 MSTORE SWAP1 DUP5 KECCAK256 DUP1 SLOAD SWAP2 ADD SLOAD DUP5 SWAP4 PUSH2 0x394D SWAP4 SWAP3 SWAP1 SWAP2 PUSH2 0x2902 JUMP JUMPDEST SWAP2 POP SWAP2 POP PUSH2 0x395D DUP3 DUP3 DUP8 DUP7 PUSH2 0x4927 JUMP JUMPDEST POP POP PUSH2 0x3986 JUMP JUMPDEST PUSH1 0x0 DUP5 DUP2 MSTORE PUSH1 0x2 PUSH1 0x20 MSTORE PUSH1 0x40 SWAP1 KECCAK256 DUP1 SLOAD PUSH1 0x1 SWAP1 SWAP2 ADD SLOAD PUSH2 0x3986 SWAP2 SWAP1 DUP6 DUP5 PUSH2 0x4927 JUMP JUMPDEST PUSH1 0x0 DUP5 DUP2 MSTORE PUSH1 0x6 PUSH1 0x20 MSTORE PUSH1 0x40 SWAP1 KECCAK256 DUP2 SWAP1 SSTORE CALLER ADDRESS EQ PUSH2 0x12FA JUMPI PUSH1 0x0 DUP5 DUP2 MSTORE PUSH1 0x2 PUSH1 0x20 MSTORE PUSH1 0x40 SWAP1 DUP2 SWAP1 KECCAK256 SLOAD SWAP1 MLOAD PUSH32 0xE9643EF80195846C85962C67DEED262D01C3CED15D351CFCA16AC0C82DAEB1C7 SWAP2 PUSH2 0x39E3 SWAP2 DUP8 SWAP2 SWAP1 DUP2 SWAP1 DUP9 SWAP1 PUSH2 0x5B4B JUMP JUMPDEST PUSH1 0x40 MLOAD DUP1 SWAP2 SUB SWAP1 LOG1 POP POP POP POP JUMP JUMPDEST PUSH1 0x1 DUP1 SLOAD PUSH1 0xFF AND ISZERO ISZERO EQ PUSH2 0x3A17 JUMPI PUSH1 0x40 MLOAD PUSH3 0x461BCD PUSH1 0xE5 SHL DUP2 MSTORE PUSH1 0x4 ADD PUSH2 0xC9E SWAP1 PUSH2 0x52ED JUMP JUMPDEST PUSH1 0x0 SLOAD PUSH1 0x40 MLOAD PUSH1 0xE SWAP1 PUSH2 0x3A2B SWAP1 DUP8 SWAP1 PUSH2 0x5261 JUMP JUMPDEST SWAP1 DUP2 MSTORE PUSH1 0x40 DUP1 MLOAD PUSH1 0x20 SWAP3 DUP2 SWAP1 SUB DUP4 ADD SWAP1 KECCAK256 PUSH1 0x1 PUSH1 0x1 PUSH1 0xA0 SHL SUB DUP8 AND PUSH1 0x0 SWAP1 DUP2 MSTORE SWAP3 MSTORE SWAP1 KECCAK256 SLOAD DUP4 GT ISZERO PUSH2 0x3A6F JUMPI PUSH1 0x40 MLOAD PUSH3 0x461BCD PUSH1 0xE5 SHL DUP2 MSTORE PUSH1 0x4 ADD PUSH2 0xC9E SWAP1 PUSH2 0x5B6F JUMP JUMPDEST DUP3 PUSH1 0xE DUP7 PUSH1 0x40 MLOAD PUSH2 0x3A80 SWAP2 SWAP1 PUSH2 0x5261 JUMP JUMPDEST SWAP1 DUP2 MSTORE PUSH1 0x20 ADD PUSH1 0x40 MLOAD DUP1 SWAP2 SUB SWAP1 KECCAK256 PUSH1 0x0 DUP7 PUSH1 0x1 PUSH1 0x1 PUSH1 0xA0 SHL SUB AND PUSH1 0x1 PUSH1 0x1 PUSH1 0xA0 SHL SUB AND DUP2 MSTORE PUSH1 0x20 ADD SWAP1 DUP2 MSTORE PUSH1 0x20 ADD PUSH1 0x0 KECCAK256 PUSH1 0x0 DUP3 DUP3 SLOAD PUSH2 0x3AC0 SWAP2 SWAP1 PUSH2 0x5382 JUMP JUMPDEST SWAP1 SWAP2 SSTORE POP POP PUSH1 0x40 MLOAD PUSH1 0xE SWAP1 PUSH2 0x3AD6 SWAP1 DUP8 SWAP1 PUSH2 0x5261 JUMP JUMPDEST SWAP1 DUP2 MSTORE PUSH1 0x40 DUP1 MLOAD PUSH1 0x20 SWAP3 DUP2 SWAP1 SUB DUP4 ADD SWAP1 KECCAK256 PUSH1 0x1 PUSH1 0x1 PUSH1 0xA0 SHL SUB DUP8 AND PUSH1 0x0 SWAP1 DUP2 MSTORE SWAP3 MSTORE SWAP1 KECCAK256 SLOAD ISZERO DUP1 ISZERO PUSH2 0x3B10 JUMPI POP PUSH1 0x1 PUSH1 0x1 PUSH1 0xA0 SHL SUB DUP5 AND ISZERO ISZERO JUMPDEST ISZERO PUSH2 0x3B4A JUMPI PUSH1 0x1 PUSH1 0xD DUP7 PUSH1 0x40 MLOAD PUSH2 0x3B27 SWAP2 SWAP1 PUSH2 0x5261 JUMP JUMPDEST SWAP1 DUP2 MSTORE PUSH1 0x20 ADD PUSH1 0x40 MLOAD DUP1 SWAP2 SUB SWAP1 KECCAK256 PUSH1 0x0 DUP3 DUP3 SLOAD PUSH2 0x3B44 SWAP2 SWAP1 PUSH2 0x5382 JUMP JUMPDEST SWAP1 SWAP2 SSTORE POP POP JUMPDEST PUSH1 0x40 DUP1 MLOAD PUSH1 0x60 DUP2 ADD DUP3 MSTORE DUP3 DUP2 MSTORE PUSH1 0x1 PUSH1 0x1 PUSH1 0xA0 SHL SUB DUP7 DUP2 AND PUSH1 0x20 DUP1 DUP5 ADD SWAP2 DUP3 MSTORE DUP4 DUP6 ADD DUP9 DUP2 MSTORE PUSH1 0x0 DUP8 DUP2 MSTORE PUSH1 0x13 DUP4 MSTORE DUP7 DUP2 KECCAK256 SWAP6 MLOAD DUP7 SSTORE SWAP3 MLOAD PUSH1 0x1 DUP1 DUP8 ADD DUP1 SLOAD PUSH1 0x1 PUSH1 0x1 PUSH1 0xA0 SHL SUB NOT AND SWAP3 SWAP1 SWAP7 AND SWAP2 SWAP1 SWAP2 OR SWAP1 SWAP5 SSTORE MLOAD PUSH1 0x2 SWAP1 SWAP5 ADD SWAP4 SWAP1 SWAP4 SSTORE PUSH1 0x14 DUP4 MSTORE DUP4 DUP2 KECCAK256 DUP8 SWAP1 SSTORE PUSH1 0x12 DUP4 MSTORE DUP4 SWAP1 KECCAK256 DUP1 SLOAD PUSH1 0xFF NOT AND SWAP1 SWAP2 OR SWAP1 SSTORE SWAP1 MLOAD PUSH1 0x0 DUP1 MLOAD PUSH1 0x20 PUSH2 0x5E5F DUP4 CODECOPY DUP2 MLOAD SWAP2 MSTORE SWAP2 PUSH2 0x3BE6 SWAP2 DUP9 SWAP2 DUP9 SWAP2 DUP9 SWAP2 ADD PUSH2 0x5B8B JUMP JUMPDEST PUSH1 0x40 DUP1 MLOAD PUSH1 0x1F NOT DUP2 DUP5 SUB ADD DUP2 MSTORE SWAP1 DUP3 SWAP1 MSTORE PUSH2 0x3C02 SWAP2 DUP6 SWAP1 PUSH2 0x5BB9 JUMP JUMPDEST PUSH1 0x40 MLOAD DUP1 SWAP2 SUB SWAP1 LOG1 POP PUSH1 0x0 DUP1 SLOAD SWAP1 DUP1 PUSH2 0x3C1A DUP4 PUSH2 0x55BE JUMP JUMPDEST SWAP2 SWAP1 POP SSTORE POP POP POP POP POP JUMP JUMPDEST PUSH1 0x1 DUP1 SLOAD PUSH1 0xFF AND ISZERO ISZERO EQ PUSH2 0x3C4B JUMPI PUSH1 0x40 MLOAD PUSH3 0x461BCD PUSH1 0xE5 SHL DUP2 MSTORE PUSH1 0x4 ADD PUSH2 0xC9E SWAP1 PUSH2 0x52ED JUMP JUMPDEST PUSH1 0xB DUP1 SLOAD PUSH1 0xFF NOT AND DUP4 ISZERO ISZERO SWAP1 DUP2 OR SWAP1 SWAP2 SSTORE PUSH1 0x40 DUP1 MLOAD PUSH1 0x20 DUP2 ADD SWAP3 SWAP1 SWAP3 MSTORE PUSH1 0x0 DUP1 MLOAD PUSH1 0x20 PUSH2 0x5E5F DUP4 CODECOPY DUP2 MLOAD SWAP2 MSTORE SWAP2 ADD PUSH1 0x40 DUP1 MLOAD PUSH1 0x1F NOT DUP2 DUP5 SUB ADD DUP2 MSTORE SWAP1 DUP3 SWAP1 MSTORE PUSH2 0x2F22 SWAP2 DUP5 SWAP1 PUSH2 0x5BE5 JUMP JUMPDEST PUSH2 0x3C9E DUP3 PUSH2 0x1913 JUMP JUMPDEST PUSH2 0x3CBA JUMPI PUSH1 0x40 MLOAD PUSH3 0x461BCD PUSH1 0xE5 SHL DUP2 MSTORE PUSH1 0x4 ADD PUSH2 0xC9E SWAP1 PUSH2 0x5333 JUMP JUMPDEST PUSH1 0x1 PUSH1 0x1 PUSH1 0xA0 SHL SUB DUP3 AND PUSH1 0x0 SWAP1 DUP2 MSTORE PUSH1 0x8 PUSH1 0x20 MSTORE PUSH1 0x40 SWAP1 KECCAK256 SLOAD ISZERO PUSH2 0x3D05 JUMPI PUSH1 0x40 MLOAD PUSH3 0x461BCD PUSH1 0xE5 SHL DUP2 MSTORE PUSH1 0x20 PUSH1 0x4 DUP3 ADD MSTORE PUSH1 0x2 PUSH1 0x24 DUP3 ADD MSTORE PUSH2 0x272D PUSH1 0xF1 SHL PUSH1 0x44 DUP3 ADD MSTORE PUSH1 0x64 ADD PUSH2 0xC9E JUMP JUMPDEST PUSH1 0x1 PUSH1 0x1 PUSH1 0xA0 SHL SUB DUP3 AND PUSH1 0x0 SWAP1 DUP2 MSTORE PUSH1 0x7 PUSH1 0x20 MSTORE PUSH1 0x40 SWAP1 DUP2 SWAP1 KECCAK256 DUP1 SLOAD PUSH1 0xFF NOT AND SWAP1 SSTORE MLOAD PUSH32 0xB178D00E152D646A7476FBA94E5BCA377176CCB09A1C1569ECE19824D228D0A8 SWAP1 PUSH2 0x2F22 SWAP1 DUP5 SWAP1 DUP5 SWAP1 PUSH2 0x5404 JUMP JUMPDEST PUSH2 0x3D60 DUP3 PUSH2 0x1913 JUMP JUMPDEST ISZERO PUSH2 0x3D92 JUMPI PUSH1 0x40 MLOAD PUSH3 0x461BCD PUSH1 0xE5 SHL DUP2 MSTORE PUSH1 0x20 PUSH1 0x4 DUP3 ADD MSTORE PUSH1 0x2 PUSH1 0x24 DUP3 ADD MSTORE PUSH2 0x20A9 PUSH1 0xF1 SHL PUSH1 0x44 DUP3 ADD MSTORE PUSH1 0x64 ADD PUSH2 0xC9E JUMP JUMPDEST PUSH1 0x1 PUSH1 0x1 PUSH1 0xA0 SHL SUB DUP3 AND PUSH1 0x0 SWAP1 DUP2 MSTORE PUSH1 0x7 PUSH1 0x20 MSTORE PUSH1 0x40 SWAP1 DUP2 SWAP1 KECCAK256 DUP1 SLOAD PUSH1 0xFF NOT AND PUSH1 0x1 OR SWAP1 SSTORE MLOAD PUSH32 0x487C37289624C10056468F1F98EBFFBAD01EDCE11374975179672E32E2543BF0 SWAP1 PUSH2 0x2F22 SWAP1 DUP5 SWAP1 DUP5 SWAP1 PUSH2 0x5404 JUMP JUMPDEST DUP4 PUSH2 0x3E01 DUP2 PUSH1 0x0 DUP1 SLOAD SWAP2 DUP2 MSTORE PUSH1 0x6 PUSH1 0x20 MSTORE PUSH1 0x40 SWAP1 KECCAK256 SLOAD GT SWAP1 JUMP JUMPDEST PUSH2 0x3E1D JUMPI PUSH1 0x40 MLOAD PUSH3 0x461BCD PUSH1 0xE5 SHL DUP2 MSTORE PUSH1 0x4 ADD PUSH2 0xC9E SWAP1 PUSH2 0x52B5 JUMP JUMPDEST PUSH1 0x1 DUP1 SLOAD PUSH1 0xFF AND ISZERO ISZERO EQ PUSH2 0x3E43 JUMPI PUSH1 0x40 MLOAD PUSH3 0x461BCD PUSH1 0xE5 SHL DUP2 MSTORE PUSH1 0x4 ADD PUSH2 0xC9E SWAP1 PUSH2 0x52ED JUMP JUMPDEST PUSH1 0x0 DUP6 DUP2 MSTORE PUSH1 0x2 PUSH1 0x20 MSTORE PUSH1 0x40 SWAP1 KECCAK256 PUSH1 0x1 DUP2 ADD SLOAD SWAP1 SLOAD PUSH2 0x3E62 SWAP2 SWAP1 PUSH2 0x531F JUMP JUMPDEST PUSH2 0x3E6C DUP5 DUP7 PUSH2 0x531F JUMP JUMPDEST LT PUSH2 0x3E89 JUMPI PUSH1 0x40 MLOAD PUSH3 0x461BCD PUSH1 0xE5 SHL DUP2 MSTORE PUSH1 0x4 ADD PUSH2 0xC9E SWAP1 PUSH2 0x5B6F JUMP JUMPDEST PUSH1 0x0 SLOAD PUSH2 0x3E95 DUP4 PUSH2 0x240D JUMP JUMPDEST ISZERO PUSH2 0x3F1B JUMPI PUSH1 0x1 PUSH1 0x1 PUSH1 0xA0 SHL SUB DUP4 AND PUSH1 0x0 SWAP1 DUP2 MSTORE PUSH1 0x3 PUSH1 0x20 SWAP1 DUP2 MSTORE PUSH1 0x40 DUP1 DUP4 KECCAK256 SLOAD DUP4 MSTORE PUSH1 0x2 SWAP1 SWAP2 MSTORE DUP2 KECCAK256 DUP1 SLOAD PUSH1 0x1 SWAP1 SWAP2 ADD SLOAD DUP3 SWAP2 PUSH2 0x3ED4 SWAP2 DUP10 DUP10 PUSH2 0x2902 JUMP JUMPDEST SWAP2 POP SWAP2 POP PUSH2 0x3EE4 DUP3 DUP3 DUP8 DUP7 PUSH2 0x4927 JUMP JUMPDEST PUSH1 0x1 PUSH1 0x1 PUSH1 0xA0 SHL SUB DUP6 AND PUSH1 0x0 SWAP1 DUP2 MSTORE PUSH1 0x3 PUSH1 0x20 MSTORE PUSH1 0x40 SWAP1 KECCAK256 SLOAD PUSH2 0x3F14 SWAP1 DUP5 PUSH1 0x0 SWAP2 DUP3 MSTORE PUSH1 0x6 PUSH1 0x20 MSTORE PUSH1 0x40 SWAP1 SWAP2 KECCAK256 SSTORE JUMP JUMPDEST POP POP PUSH2 0x3F27 JUMP JUMPDEST PUSH2 0x3F27 DUP6 DUP6 DUP6 DUP5 PUSH2 0x4927 JUMP JUMPDEST PUSH1 0x0 DUP7 DUP2 MSTORE PUSH1 0x6 PUSH1 0x20 SWAP1 DUP2 MSTORE PUSH1 0x40 DUP1 DUP4 KECCAK256 DUP5 SWAP1 SSTORE PUSH1 0x2 SWAP1 SWAP2 MSTORE DUP2 KECCAK256 DUP1 SLOAD PUSH1 0x1 SWAP1 SWAP2 ADD SLOAD DUP3 SWAP2 PUSH2 0x3F57 SWAP2 DUP10 DUP10 PUSH2 0x49E9 JUMP JUMPDEST PUSH1 0x0 DUP11 DUP2 MSTORE PUSH1 0x2 PUSH1 0x20 DUP2 SWAP1 MSTORE PUSH1 0x40 SWAP1 SWAP2 KECCAK256 ADD SLOAD SWAP2 SWAP4 POP SWAP2 POP PUSH2 0x3F86 SWAP1 DUP4 SWAP1 DUP4 SWAP1 PUSH1 0x1 PUSH1 0x1 PUSH1 0xA0 SHL SUB AND DUP7 PUSH2 0x4927 JUMP JUMPDEST CALLER ADDRESS EQ PUSH2 0x1203 JUMPI PUSH32 0xE9643EF80195846C85962C67DEED262D01C3CED15D351CFCA16AC0C82DAEB1C7 DUP9 DUP9 DUP9 DUP9 PUSH1 0x40 MLOAD PUSH2 0x11FA SWAP5 SWAP4 SWAP3 SWAP2 SWAP1 PUSH2 0x5B4B JUMP JUMPDEST DUP4 PUSH2 0x3FCC DUP2 PUSH2 0x1CCF JUMP JUMPDEST PUSH2 0x3FFE JUMPI PUSH1 0x40 MLOAD PUSH3 0x461BCD PUSH1 0xE5 SHL DUP2 MSTORE PUSH1 0x20 PUSH1 0x4 DUP3 ADD MSTORE PUSH1 0x3 PUSH1 0x24 DUP3 ADD MSTORE PUSH3 0x444E45 PUSH1 0xE8 SHL PUSH1 0x44 DUP3 ADD MSTORE PUSH1 0x64 ADD PUSH2 0xC9E JUMP JUMPDEST PUSH1 0x1 DUP1 SLOAD PUSH1 0xFF AND ISZERO ISZERO EQ PUSH2 0x4024 JUMPI PUSH1 0x40 MLOAD PUSH3 0x461BCD PUSH1 0xE5 SHL DUP2 MSTORE PUSH1 0x4 ADD PUSH2 0xC9E SWAP1 PUSH2 0x52ED JUMP JUMPDEST PUSH1 0xE DUP7 PUSH1 0x40 MLOAD PUSH2 0x4034 SWAP2 SWAP1 PUSH2 0x5261 JUMP JUMPDEST SWAP1 DUP2 MSTORE PUSH1 0x40 DUP1 MLOAD PUSH1 0x20 SWAP3 DUP2 SWAP1 SUB DUP4 ADD SWAP1 KECCAK256 PUSH1 0x1 PUSH1 0x1 PUSH1 0xA0 SHL SUB DUP8 AND PUSH1 0x0 SWAP1 DUP2 MSTORE SWAP3 MSTORE SWAP1 KECCAK256 SLOAD DUP4 GT ISZERO PUSH2 0x4078 JUMPI PUSH1 0x40 MLOAD PUSH3 0x461BCD PUSH1 0xE5 SHL DUP2 MSTORE PUSH1 0x4 ADD PUSH2 0xC9E SWAP1 PUSH2 0x5B6F JUMP JUMPDEST DUP3 PUSH1 0xE DUP8 PUSH1 0x40 MLOAD PUSH2 0x4089 SWAP2 SWAP1 PUSH2 0x5261 JUMP JUMPDEST SWAP1 DUP2 MSTORE PUSH1 0x20 ADD PUSH1 0x40 MLOAD DUP1 SWAP2 SUB SWAP1 KECCAK256 PUSH1 0x0 DUP7 PUSH1 0x1 PUSH1 0x1 PUSH1 0xA0 SHL SUB AND PUSH1 0x1 PUSH1 0x1 PUSH1 0xA0 SHL SUB AND DUP2 MSTORE PUSH1 0x20 ADD SWAP1 DUP2 MSTORE PUSH1 0x20 ADD PUSH1 0x0 KECCAK256 PUSH1 0x0 DUP3 DUP3 SLOAD PUSH2 0x40C9 SWAP2 SWAP1 PUSH2 0x5382 JUMP JUMPDEST SWAP1 SWAP2 SSTORE POP POP PUSH1 0x1 PUSH1 0x1 PUSH1 0xA0 SHL SUB DUP5 AND ISZERO PUSH2 0x41BD JUMPI PUSH1 0xE DUP7 PUSH1 0x40 MLOAD PUSH2 0x40ED SWAP2 SWAP1 PUSH2 0x5261 JUMP JUMPDEST SWAP1 DUP2 MSTORE PUSH1 0x40 DUP1 MLOAD PUSH1 0x20 SWAP3 DUP2 SWAP1 SUB DUP4 ADD SWAP1 KECCAK256 PUSH1 0x1 PUSH1 0x1 PUSH1 0xA0 SHL SUB DUP8 AND PUSH1 0x0 SWAP1 DUP2 MSTORE SWAP3 MSTORE DUP2 KECCAK256 SLOAD SWAP1 SUB PUSH2 0x414D JUMPI PUSH1 0x1 PUSH1 0xD DUP8 PUSH1 0x40 MLOAD PUSH2 0x412A SWAP2 SWAP1 PUSH2 0x5261 JUMP JUMPDEST SWAP1 DUP2 MSTORE PUSH1 0x20 ADD PUSH1 0x40 MLOAD DUP1 SWAP2 SUB SWAP1 KECCAK256 PUSH1 0x0 DUP3 DUP3 SLOAD PUSH2 0x4147 SWAP2 SWAP1 PUSH2 0x5382 JUMP JUMPDEST SWAP1 SWAP2 SSTORE POP POP JUMPDEST PUSH1 0xE DUP6 PUSH1 0x40 MLOAD PUSH2 0x415D SWAP2 SWAP1 PUSH2 0x5261 JUMP JUMPDEST SWAP1 DUP2 MSTORE PUSH1 0x40 DUP1 MLOAD PUSH1 0x20 SWAP3 DUP2 SWAP1 SUB DUP4 ADD SWAP1 KECCAK256 PUSH1 0x1 PUSH1 0x1 PUSH1 0xA0 SHL SUB DUP8 AND PUSH1 0x0 SWAP1 DUP2 MSTORE SWAP3 MSTORE DUP2 KECCAK256 SLOAD SWAP1 SUB PUSH2 0x41BD JUMPI PUSH1 0x1 PUSH1 0xD DUP7 PUSH1 0x40 MLOAD PUSH2 0x419A SWAP2 SWAP1 PUSH2 0x5261 JUMP JUMPDEST SWAP1 DUP2 MSTORE PUSH1 0x20 ADD PUSH1 0x40 MLOAD DUP1 SWAP2 SUB SWAP1 KECCAK256 PUSH1 0x0 DUP3 DUP3 SLOAD PUSH2 0x41B7 SWAP2 SWAP1 PUSH2 0x51F1 JUMP JUMPDEST SWAP1 SWAP2 SSTORE POP POP JUMPDEST DUP3 PUSH1 0xE DUP7 PUSH1 0x40 MLOAD PUSH2 0x41CE SWAP2 SWAP1 PUSH2 0x5261 JUMP JUMPDEST SWAP1 DUP2 MSTORE PUSH1 0x20 ADD PUSH1 0x40 MLOAD DUP1 SWAP2 SUB SWAP1 KECCAK256 PUSH1 0x0 DUP7 PUSH1 0x1 PUSH1 0x1 PUSH1 0xA0 SHL SUB AND PUSH1 0x1 PUSH1 0x1 PUSH1 0xA0 SHL SUB AND DUP2 MSTORE PUSH1 0x20 ADD SWAP1 DUP2 MSTORE PUSH1 0x20 ADD PUSH1 0x0 KECCAK256 PUSH1 0x0 DUP3 DUP3 SLOAD PUSH2 0x420E SWAP2 SWAP1 PUSH2 0x51F1 JUMP JUMPDEST SWAP1 SWAP2 SSTORE POP POP PUSH1 0x40 MLOAD PUSH1 0x0 DUP1 MLOAD PUSH1 0x20 PUSH2 0x5E5F DUP4 CODECOPY DUP2 MLOAD SWAP2 MSTORE SWAP1 PUSH2 0x423A SWAP1 DUP9 SWAP1 DUP9 SWAP1 DUP9 SWAP1 DUP9 SWAP1 PUSH1 0x20 ADD PUSH2 0x5C12 JUMP JUMPDEST PUSH1 0x40 DUP1 MLOAD PUSH1 0x1F NOT DUP2 DUP5 SUB ADD DUP2 MSTORE SWAP1 DUP3 SWAP1 MSTORE PUSH2 0x3857 SWAP2 DUP6 SWAP1 PUSH2 0x5C54 JUMP JUMPDEST PUSH1 0x1 DUP1 SLOAD PUSH1 0xFF AND ISZERO ISZERO EQ PUSH2 0x427C JUMPI PUSH1 0x40 MLOAD PUSH3 0x461BCD PUSH1 0xE5 SHL DUP2 MSTORE PUSH1 0x4 ADD PUSH2 0xC9E SWAP1 PUSH2 0x52ED JUMP JUMPDEST PUSH2 0x42A0 PUSH1 0x40 MLOAD DUP1 PUSH1 0x40 ADD PUSH1 0x40 MSTORE DUP1 PUSH1 0x2 DUP2 MSTORE PUSH1 0x20 ADD PUSH2 0x36A1 PUSH1 0xF1 SHL DUP2 MSTORE POP DUP4 PUSH2 0x2336 JUMP JUMPDEST PUSH2 0x42D1 JUMPI PUSH1 0x40 MLOAD PUSH3 0x461BCD PUSH1 0xE5 SHL DUP2 MSTORE PUSH1 0x20 PUSH1 0x4 DUP3 ADD MSTORE PUSH1 0x2 PUSH1 0x24 DUP3 ADD MSTORE PUSH2 0x4E5 PUSH1 0xF4 SHL PUSH1 0x44 DUP3 ADD MSTORE PUSH1 0x64 ADD PUSH2 0xC9E JUMP JUMPDEST PUSH1 0x1 PUSH1 0xF DUP5 PUSH1 0x40 MLOAD PUSH2 0x42E3 SWAP2 SWAP1 PUSH2 0x5261 JUMP JUMPDEST SWAP1 DUP2 MSTORE PUSH1 0x40 DUP1 MLOAD PUSH1 0x20 SWAP3 DUP2 SWAP1 SUB DUP4 ADD DUP2 KECCAK256 PUSH1 0x1 PUSH1 0x1 PUSH1 0xA0 SHL SUB DUP8 AND PUSH1 0x0 SWAP1 DUP2 MSTORE SWAP1 DUP5 MSTORE SWAP2 SWAP1 SWAP2 KECCAK256 DUP1 SLOAD PUSH1 0xFF NOT AND SWAP4 ISZERO ISZERO SWAP4 SWAP1 SWAP4 OR SWAP1 SWAP3 SSTORE PUSH1 0x0 DUP1 MLOAD PUSH1 0x20 PUSH2 0x5E5F DUP4 CODECOPY DUP2 MLOAD SWAP2 MSTORE SWAP2 PUSH2 0x4338 SWAP2 DUP7 SWAP2 DUP7 SWAP2 ADD PUSH2 0x55D7 JUMP JUMPDEST PUSH1 0x40 DUP1 MLOAD PUSH1 0x1F NOT DUP2 DUP5 SUB ADD DUP2 MSTORE SWAP1 DUP3 SWAP1 MSTORE PUSH2 0xC1A SWAP2 DUP5 SWAP1 PUSH2 0x5C80 JUMP JUMPDEST PUSH1 0x1 DUP1 SLOAD PUSH1 0xFF AND ISZERO ISZERO EQ PUSH2 0x437A JUMPI PUSH1 0x40 MLOAD PUSH3 0x461BCD PUSH1 0xE5 SHL DUP2 MSTORE PUSH1 0x4 ADD PUSH2 0xC9E SWAP1 PUSH2 0x52ED JUMP JUMPDEST DUP2 PUSH1 0x10 DUP6 PUSH1 0x40 MLOAD PUSH2 0x438B SWAP2 SWAP1 PUSH2 0x5261 JUMP JUMPDEST SWAP1 DUP2 MSTORE PUSH1 0x40 DUP1 MLOAD PUSH1 0x20 SWAP3 DUP2 SWAP1 SUB DUP4 ADD SWAP1 KECCAK256 PUSH1 0x1 PUSH1 0x1 PUSH1 0xA0 SHL SUB DUP8 AND PUSH1 0x0 SWAP1 DUP2 MSTORE SWAP3 MSTORE SWAP1 KECCAK256 DUP1 SLOAD PUSH1 0xFF NOT AND PUSH1 0x1 DUP4 PUSH1 0x2 DUP2 GT ISZERO PUSH2 0x43C9 JUMPI PUSH2 0x43C9 PUSH2 0x5227 JUMP JUMPDEST MUL OR SWAP1 SSTORE POP PUSH1 0x0 DUP1 MLOAD PUSH1 0x20 PUSH2 0x5E5F DUP4 CODECOPY DUP2 MLOAD SWAP2 MSTORE DUP5 DUP5 DUP5 PUSH1 0x40 MLOAD PUSH1 0x20 ADD PUSH2 0x43F2 SWAP4 SWAP3 SWAP2 SWAP1 PUSH2 0x5CAC JUMP JUMPDEST PUSH1 0x40 DUP1 MLOAD PUSH1 0x1F NOT DUP2 DUP5 SUB ADD DUP2 MSTORE SWAP1 DUP3 SWAP1 MSTORE PUSH2 0x39E3 SWAP2 DUP5 SWAP1 PUSH2 0x5566 JUMP JUMPDEST PUSH1 0x0 DUP1 PUSH1 0x0 DUP5 DUP5 GT PUSH2 0x441F JUMPI PUSH1 0x0 DUP1 REVERT JUMPDEST PUSH1 0x0 DUP5 PUSH2 0x442C DUP8 DUP10 PUSH2 0x536B JUMP JUMPDEST PUSH2 0x4436 SWAP2 SWAP1 PUSH2 0x531F JUMP JUMPDEST SWAP1 POP PUSH1 0x0 DUP6 PUSH2 0x4445 DUP9 DUP3 PUSH2 0x5382 JUMP JUMPDEST PUSH2 0x444F SWAP1 DUP11 PUSH2 0x536B JUMP JUMPDEST PUSH2 0x4459 SWAP2 SWAP1 PUSH2 0x531F JUMP JUMPDEST SWAP1 POP DUP2 DUP2 PUSH2 0x4467 DUP2 DUP4 PUSH2 0x51F1 JUMP JUMPDEST PUSH2 0x4471 SWAP1 DUP12 PUSH2 0x5382 JUMP JUMPDEST SWAP5 POP SWAP5 POP SWAP5 POP POP POP SWAP4 POP SWAP4 POP SWAP4 SWAP1 POP JUMP JUMPDEST PUSH1 0x0 DUP3 DUP6 EQ DUP1 ISZERO PUSH2 0x4492 JUMPI POP DUP2 DUP5 EQ JUMPDEST SWAP1 POP JUMPDEST SWAP5 SWAP4 POP POP POP POP JUMP JUMPDEST PUSH1 0x1 DUP1 SLOAD PUSH1 0xFF AND ISZERO ISZERO EQ PUSH2 0x44C3 JUMPI PUSH1 0x40 MLOAD PUSH3 0x461BCD PUSH1 0xE5 SHL DUP2 MSTORE PUSH1 0x4 ADD PUSH2 0xC9E SWAP1 PUSH2 0x52ED JUMP JUMPDEST PUSH1 0xE DUP6 PUSH1 0x40 MLOAD PUSH2 0x44D3 SWAP2 SWAP1 PUSH2 0x5261 JUMP JUMPDEST SWAP1 DUP2 MSTORE PUSH1 0x40 DUP1 MLOAD PUSH1 0x20 SWAP3 DUP2 SWAP1 SUB DUP4 ADD SWAP1 KECCAK256 PUSH1 0x1 PUSH1 0x1 PUSH1 0xA0 SHL SUB DUP8 AND PUSH1 0x0 SWAP1 DUP2 MSTORE SWAP3 MSTORE SWAP1 KECCAK256 SLOAD DUP4 GT ISZERO PUSH2 0x4517 JUMPI PUSH1 0x40 MLOAD PUSH3 0x461BCD PUSH1 0xE5 SHL DUP2 MSTORE PUSH1 0x4 ADD PUSH2 0xC9E SWAP1 PUSH2 0x5B6F JUMP JUMPDEST PUSH2 0x4522 DUP5 DUP5 DUP5 PUSH2 0x2B98 JUMP JUMPDEST DUP3 PUSH1 0xE DUP7 PUSH1 0x40 MLOAD PUSH2 0x4533 SWAP2 SWAP1 PUSH2 0x5261 JUMP JUMPDEST SWAP1 DUP2 MSTORE PUSH1 0x20 ADD PUSH1 0x40 MLOAD DUP1 SWAP2 SUB SWAP1 KECCAK256 PUSH1 0x0 DUP7 PUSH1 0x1 PUSH1 0x1 PUSH1 0xA0 SHL SUB AND PUSH1 0x1 PUSH1 0x1 PUSH1 0xA0 SHL SUB AND DUP2 MSTORE PUSH1 0x20 ADD SWAP1 DUP2 MSTORE PUSH1 0x20 ADD PUSH1 0x0 KECCAK256 PUSH1 0x0 DUP3 DUP3 SLOAD PUSH2 0x4573 SWAP2 SWAP1 PUSH2 0x5382 JUMP JUMPDEST SWAP1 SWAP2 SSTORE POP POP PUSH1 0x40 MLOAD PUSH1 0xE SWAP1 PUSH2 0x4589 SWAP1 DUP8 SWAP1 PUSH2 0x5261 JUMP JUMPDEST SWAP1 DUP2 MSTORE PUSH1 0x40 DUP1 MLOAD PUSH1 0x20 SWAP3 DUP2 SWAP1 SUB DUP4 ADD SWAP1 KECCAK256 PUSH1 0x1 PUSH1 0x1 PUSH1 0xA0 SHL SUB DUP8 AND PUSH1 0x0 SWAP1 DUP2 MSTORE SWAP3 MSTORE SWAP1 KECCAK256 SLOAD ISZERO DUP1 ISZERO PUSH2 0x45C3 JUMPI POP PUSH1 0x1 PUSH1 0x1 PUSH1 0xA0 SHL SUB DUP5 AND ISZERO ISZERO JUMPDEST ISZERO PUSH2 0x45FD JUMPI PUSH1 0x1 PUSH1 0xD DUP7 PUSH1 0x40 MLOAD PUSH2 0x45DA SWAP2 SWAP1 PUSH2 0x5261 JUMP JUMPDEST SWAP1 DUP2 MSTORE PUSH1 0x20 ADD PUSH1 0x40 MLOAD DUP1 SWAP2 SUB SWAP1 KECCAK256 PUSH1 0x0 DUP3 DUP3 SLOAD PUSH2 0x45F7 SWAP2 SWAP1 PUSH2 0x5382 JUMP JUMPDEST SWAP1 SWAP2 SSTORE POP POP JUMPDEST PUSH1 0x0 DUP1 MLOAD PUSH1 0x20 PUSH2 0x5E5F DUP4 CODECOPY DUP2 MLOAD SWAP2 MSTORE DUP6 DUP6 DUP6 DUP6 PUSH1 0x40 MLOAD PUSH1 0x20 ADD PUSH2 0x4623 SWAP5 SWAP4 SWAP3 SWAP2 SWAP1 PUSH2 0x5CDD JUMP JUMPDEST PUSH1 0x40 DUP1 MLOAD PUSH1 0x1F NOT DUP2 DUP5 SUB ADD DUP2 MSTORE SWAP1 DUP3 SWAP1 MSTORE PUSH2 0x16B7 SWAP2 DUP5 SWAP1 PUSH2 0x5D19 JUMP JUMPDEST DUP6 PUSH2 0x4659 DUP2 PUSH1 0x0 DUP1 SLOAD SWAP2 DUP2 MSTORE PUSH1 0x6 PUSH1 0x20 MSTORE PUSH1 0x40 SWAP1 KECCAK256 SLOAD GT SWAP1 JUMP JUMPDEST PUSH2 0x4675 JUMPI PUSH1 0x40 MLOAD PUSH3 0x461BCD PUSH1 0xE5 SHL DUP2 MSTORE PUSH1 0x4 ADD PUSH2 0xC9E SWAP1 PUSH2 0x52B5 JUMP JUMPDEST PUSH1 0x1 DUP1 SLOAD PUSH1 0xFF AND ISZERO ISZERO EQ PUSH2 0x469B JUMPI PUSH1 0x40 MLOAD PUSH3 0x461BCD PUSH1 0xE5 SHL DUP2 MSTORE PUSH1 0x4 ADD PUSH2 0xC9E SWAP1 PUSH2 0x52ED JUMP JUMPDEST PUSH1 0x0 DUP8 DUP2 MSTORE PUSH1 0x2 PUSH1 0x20 MSTORE PUSH1 0x40 SWAP1 KECCAK256 PUSH1 0x1 DUP2 ADD SLOAD SWAP1 SLOAD PUSH2 0x46BA SWAP2 SWAP1 PUSH2 0x531F JUMP JUMPDEST PUSH2 0x46C4 DUP7 DUP9 PUSH2 0x531F JUMP JUMPDEST GT ISZERO PUSH2 0x46E2 JUMPI PUSH1 0x40 MLOAD PUSH3 0x461BCD PUSH1 0xE5 SHL DUP2 MSTORE PUSH1 0x4 ADD PUSH2 0xC9E SWAP1 PUSH2 0x5B6F JUMP JUMPDEST PUSH2 0x46EC DUP7 DUP7 PUSH2 0x293E JUMP JUMPDEST DUP1 SWAP7 POP DUP2 SWAP8 POP POP POP PUSH1 0x40 MLOAD DUP1 PUSH1 0xA0 ADD PUSH1 0x40 MSTORE DUP1 DUP8 DUP2 MSTORE PUSH1 0x20 ADD DUP7 DUP2 MSTORE PUSH1 0x20 ADD DUP6 PUSH1 0x1 PUSH1 0x1 PUSH1 0xA0 SHL SUB AND DUP2 MSTORE PUSH1 0x20 ADD DUP5 DUP2 MSTORE PUSH1 0x20 ADD DUP4 PUSH1 0x1 PUSH1 0x1 PUSH1 0xA0 SHL SUB AND DUP2 MSTORE POP PUSH1 0x5 PUSH1 0x0 DUP10 DUP2 MSTORE PUSH1 0x20 ADD SWAP1 DUP2 MSTORE PUSH1 0x20 ADD PUSH1 0x0 KECCAK256 PUSH1 0x0 DUP3 ADD MLOAD DUP2 PUSH1 0x0 ADD SSTORE PUSH1 0x20 DUP3 ADD MLOAD DUP2 PUSH1 0x1 ADD SSTORE PUSH1 0x40 DUP3 ADD MLOAD DUP2 PUSH1 0x2 ADD PUSH1 0x0 PUSH2 0x100 EXP DUP2 SLOAD DUP2 PUSH1 0x1 PUSH1 0x1 PUSH1 0xA0 SHL SUB MUL NOT AND SWAP1 DUP4 PUSH1 0x1 PUSH1 0x1 PUSH1 0xA0 SHL SUB AND MUL OR SWAP1 SSTORE POP PUSH1 0x60 DUP3 ADD MLOAD DUP2 PUSH1 0x3 ADD SSTORE PUSH1 0x80 DUP3 ADD MLOAD DUP2 PUSH1 0x4 ADD PUSH1 0x0 PUSH2 0x100 EXP DUP2 SLOAD DUP2 PUSH1 0x1 PUSH1 0x1 PUSH1 0xA0 SHL SUB MUL NOT AND SWAP1 DUP4 PUSH1 0x1 PUSH1 0x1 PUSH1 0xA0 SHL SUB AND MUL OR SWAP1 SSTORE POP SWAP1 POP POP PUSH1 0x1 PUSH1 0x4 PUSH1 0x0 DUP10 DUP2 MSTORE PUSH1 0x20 ADD SWAP1 DUP2 MSTORE PUSH1 0x20 ADD PUSH1 0x0 KECCAK256 PUSH1 0x0 PUSH2 0x100 EXP DUP2 SLOAD DUP2 PUSH1 0xFF MUL NOT AND SWAP1 DUP4 ISZERO ISZERO MUL OR SWAP1 SSTORE POP PUSH32 0x4C4DCD7B4186FE1C900D89BC3C911766F63CF9C3570750481F0D89BFBCB75285 DUP8 DUP8 DUP8 DUP8 DUP8 DUP8 PUSH1 0x40 MLOAD PUSH2 0x4820 SWAP7 SWAP6 SWAP5 SWAP4 SWAP3 SWAP2 SWAP1 PUSH2 0x54EB JUMP JUMPDEST PUSH1 0x40 MLOAD DUP1 SWAP2 SUB SWAP1 LOG1 POP POP POP POP POP POP POP JUMP JUMPDEST PUSH1 0x0 JUMPDEST DUP2 ISZERO PUSH2 0x484F JUMPI DUP2 PUSH2 0x4845 DUP2 DUP6 PUSH2 0x5D45 JUMP JUMPDEST SWAP1 SWAP4 POP SWAP2 POP PUSH2 0x4834 JUMP JUMPDEST POP SWAP1 SWAP2 SWAP1 POP JUMP JUMPDEST PUSH1 0x0 DUP2 PUSH1 0x1 PUSH1 0x1 PUSH1 0xA0 SHL SUB AND DUP4 PUSH1 0x40 MLOAD PUSH1 0x0 PUSH1 0x40 MLOAD DUP1 DUP4 SUB DUP2 DUP6 DUP8 GAS CALL SWAP3 POP POP POP RETURNDATASIZE DUP1 PUSH1 0x0 DUP2 EQ PUSH2 0x48A3 JUMPI PUSH1 0x40 MLOAD SWAP2 POP PUSH1 0x1F NOT PUSH1 0x3F RETURNDATASIZE ADD AND DUP3 ADD PUSH1 0x40 MSTORE RETURNDATASIZE DUP3 MSTORE RETURNDATASIZE PUSH1 0x0 PUSH1 0x20 DUP5 ADD RETURNDATACOPY PUSH2 0x48A8 JUMP JUMPDEST PUSH1 0x60 SWAP2 POP JUMPDEST POP POP SWAP1 POP DUP1 PUSH2 0xCB2 JUMPI PUSH1 0x40 MLOAD PUSH3 0x461BCD PUSH1 0xE5 SHL DUP2 MSTORE PUSH1 0x4 ADD PUSH2 0xC9E SWAP1 PUSH2 0x54CF JUMP JUMPDEST PUSH1 0x1 PUSH1 0x1 PUSH1 0xA0 SHL SUB DUP3 AND PUSH1 0x0 SWAP1 DUP2 MSTORE PUSH1 0x8 PUSH1 0x20 MSTORE PUSH1 0x40 DUP2 KECCAK256 DUP1 SLOAD DUP4 SWAP3 SWAP1 PUSH2 0x48F1 SWAP1 DUP5 SWAP1 PUSH2 0x5382 JUMP JUMPDEST SWAP1 SWAP2 SSTORE POP POP PUSH1 0x1 PUSH1 0x1 PUSH1 0xA0 SHL SUB DUP3 AND PUSH1 0x0 SWAP1 DUP2 MSTORE PUSH1 0x9 PUSH1 0x20 MSTORE PUSH1 0x40 DUP2 KECCAK256 DUP1 SLOAD DUP4 SWAP3 SWAP1 PUSH2 0x491E SWAP1 DUP5 SWAP1 PUSH2 0x5382 JUMP JUMPDEST SWAP1 SWAP2 SSTORE POP POP POP POP JUMP JUMPDEST PUSH1 0x40 MLOAD PUSH12 0xFFFFFFFFFFFFFFFFFFFFFFFF NOT PUSH1 0x60 DUP5 SWAP1 SHL AND PUSH1 0x20 DUP3 ADD MSTORE PUSH1 0x34 DUP2 ADD DUP3 SWAP1 MSTORE PUSH1 0x0 SWAP1 PUSH1 0x54 ADD PUSH1 0x40 DUP1 MLOAD DUP1 DUP4 SUB PUSH1 0x1F NOT ADD DUP2 MSTORE DUP3 DUP3 MSTORE DUP1 MLOAD PUSH1 0x20 SWAP2 DUP3 ADD KECCAK256 PUSH1 0x1 PUSH1 0x1 PUSH1 0xA0 SHL SUB SWAP7 DUP8 AND PUSH1 0x0 DUP2 DUP2 MSTORE PUSH1 0x3 DUP1 DUP6 MSTORE DUP6 DUP3 KECCAK256 DUP5 SWAP1 SSTORE DUP4 DUP3 MSTORE PUSH1 0x6 DUP6 MSTORE DUP6 DUP3 KECCAK256 PUSH1 0x0 NOT SWAP1 SSTORE PUSH1 0x80 DUP8 ADD DUP7 MSTORE SWAP11 DUP7 MSTORE DUP4 DUP7 ADD SWAP10 DUP11 MSTORE DUP6 DUP6 ADD SWAP2 DUP3 MSTORE PUSH1 0x60 DUP7 ADD SWAP8 DUP9 MSTORE SWAP2 DUP3 MSTORE PUSH1 0x2 SWAP3 DUP4 SWAP1 MSTORE SWAP3 SWAP1 KECCAK256 SWAP3 MLOAD DUP4 SSTORE SWAP6 MLOAD PUSH1 0x1 DUP4 ADD SSTORE MLOAD SWAP5 DUP2 ADD DUP1 SLOAD PUSH1 0x1 PUSH1 0x1 PUSH1 0xA0 SHL SUB NOT AND SWAP6 SWAP1 SWAP5 AND SWAP5 SWAP1 SWAP5 OR SWAP1 SWAP3 SSTORE MLOAD SWAP2 SWAP1 SWAP3 ADD SSTORE POP JUMP JUMPDEST PUSH1 0x0 DUP1 PUSH2 0x49F6 DUP4 DUP8 PUSH2 0x536B JUMP JUMPDEST SWAP6 POP PUSH2 0x4A02 DUP5 DUP7 PUSH2 0x536B JUMP JUMPDEST SWAP5 POP PUSH2 0x4A0E DUP6 DUP8 PUSH2 0x5382 JUMP JUMPDEST PUSH2 0x2931 DUP5 DUP7 PUSH2 0x536B JUMP JUMPDEST DUP3 DUP1 SLOAD DUP3 DUP3 SSTORE SWAP1 PUSH1 0x0 MSTORE PUSH1 0x20 PUSH1 0x0 KECCAK256 SWAP1 DUP2 ADD SWAP3 DUP3 ISZERO PUSH2 0x4A5E JUMPI SWAP2 PUSH1 0x20 MUL DUP3 ADD JUMPDEST DUP3 DUP2 GT ISZERO PUSH2 0x4A5E JUMPI DUP3 MLOAD DUP3 SWAP1 PUSH2 0x4A4E SWAP1 DUP3 PUSH2 0x5D9F JUMP JUMPDEST POP SWAP2 PUSH1 0x20 ADD SWAP2 SWAP1 PUSH1 0x1 ADD SWAP1 PUSH2 0x4A38 JUMP JUMPDEST POP PUSH2 0x4A6A SWAP3 SWAP2 POP PUSH2 0x4AC0 JUMP JUMPDEST POP SWAP1 JUMP JUMPDEST DUP3 DUP1 SLOAD DUP3 DUP3 SSTORE SWAP1 PUSH1 0x0 MSTORE PUSH1 0x20 PUSH1 0x0 KECCAK256 SWAP1 DUP2 ADD SWAP3 DUP3 ISZERO PUSH2 0x4AB4 JUMPI SWAP2 PUSH1 0x20 MUL DUP3 ADD JUMPDEST DUP3 DUP2 GT ISZERO PUSH2 0x4AB4 JUMPI DUP3 MLOAD DUP3 SWAP1 PUSH2 0x4AA4 SWAP1 DUP3 PUSH2 0x5D9F JUMP JUMPDEST POP SWAP2 PUSH1 0x20 ADD SWAP2 SWAP1 PUSH1 0x1 ADD SWAP1 PUSH2 0x4A8E JUMP JUMPDEST POP PUSH2 0x4A6A SWAP3 SWAP2 POP PUSH2 0x4ADD JUMP JUMPDEST DUP1 DUP3 GT ISZERO PUSH2 0x4A6A JUMPI PUSH1 0x0 PUSH2 0x4AD4 DUP3 DUP3 PUSH2 0x4AFA JUMP JUMPDEST POP PUSH1 0x1 ADD PUSH2 0x4AC0 JUMP JUMPDEST DUP1 DUP3 GT ISZERO PUSH2 0x4A6A JUMPI PUSH1 0x0 PUSH2 0x4AF1 DUP3 DUP3 PUSH2 0x4AFA JUMP JUMPDEST POP PUSH1 0x1 ADD PUSH2 0x4ADD JUMP JUMPDEST POP DUP1 SLOAD PUSH2 0x4B06 SWAP1 PUSH2 0x56C7 JUMP JUMPDEST PUSH1 0x0 DUP3 SSTORE DUP1 PUSH1 0x1F LT PUSH2 0x4B16 JUMPI POP POP JUMP JUMPDEST PUSH1 0x1F ADD PUSH1 0x20 SWAP1 DIV SWAP1 PUSH1 0x0 MSTORE PUSH1 0x20 PUSH1 0x0 KECCAK256 SWAP1 DUP2 ADD SWAP1 PUSH2 0xCEE SWAP2 SWAP1 JUMPDEST DUP1 DUP3 GT ISZERO PUSH2 0x4A6A JUMPI PUSH1 0x0 DUP2 SSTORE PUSH1 0x1 ADD PUSH2 0x4B30 JUMP JUMPDEST PUSH4 0x4E487B71 PUSH1 0xE0 SHL PUSH1 0x0 MSTORE PUSH1 0x41 PUSH1 0x4 MSTORE PUSH1 0x24 PUSH1 0x0 REVERT JUMPDEST PUSH1 0x40 MLOAD PUSH1 0x1F DUP3 ADD PUSH1 0x1F NOT AND DUP2 ADD PUSH1 0x1 PUSH1 0x1 PUSH1 0x40 SHL SUB DUP2 GT DUP3 DUP3 LT OR ISZERO PUSH2 0x4B82 JUMPI PUSH2 0x4B82 PUSH2 0x4B44 JUMP JUMPDEST PUSH1 0x40 MSTORE SWAP2 SWAP1 POP JUMP JUMPDEST PUSH1 0x0 PUSH1 0x1 PUSH1 0x1 PUSH1 0x40 SHL SUB DUP3 GT ISZERO PUSH2 0x4BA3 JUMPI PUSH2 0x4BA3 PUSH2 0x4B44 JUMP JUMPDEST POP PUSH1 0x1F ADD PUSH1 0x1F NOT AND PUSH1 0x20 ADD SWAP1 JUMP JUMPDEST PUSH1 0x0 PUSH2 0x4BC4 PUSH2 0x4BBF DUP5 PUSH2 0x4B8A JUMP JUMPDEST PUSH2 0x4B5A JUMP JUMPDEST SWAP1 POP DUP3 DUP2 MSTORE DUP4 DUP4 DUP4 ADD GT ISZERO PUSH2 0x4BD8 JUMPI PUSH1 0x0 DUP1 REVERT JUMPDEST DUP3 DUP3 PUSH1 0x20 DUP4 ADD CALLDATACOPY PUSH1 0x0 PUSH1 0x20 DUP5 DUP4 ADD ADD MSTORE SWAP4 SWAP3 POP POP POP JUMP JUMPDEST PUSH1 0x0 DUP3 PUSH1 0x1F DUP4 ADD SLT PUSH2 0x4C00 JUMPI PUSH1 0x0 DUP1 REVERT JUMPDEST PUSH2 0xEE2 DUP4 DUP4 CALLDATALOAD PUSH1 0x20 DUP6 ADD PUSH2 0x4BB1 JUMP JUMPDEST PUSH1 0x3 DUP2 LT PUSH2 0xCEE JUMPI PUSH1 0x0 DUP1 REVERT JUMPDEST PUSH1 0x0 DUP1 PUSH1 0x40 DUP4 DUP6 SUB SLT ISZERO PUSH2 0x4C2F JUMPI PUSH1 0x0 DUP1 REVERT JUMPDEST DUP3 CALLDATALOAD PUSH1 0x1 PUSH1 0x1 PUSH1 0x40 SHL SUB DUP2 GT ISZERO PUSH2 0x4C45 JUMPI PUSH1 0x0 DUP1 REVERT JUMPDEST PUSH2 0x4C51 DUP6 DUP3 DUP7 ADD PUSH2 0x4BEF JUMP JUMPDEST SWAP3 POP POP PUSH1 0x20 DUP4 ADD CALLDATALOAD PUSH2 0x4C62 DUP2 PUSH2 0x4C0F JUMP JUMPDEST DUP1 SWAP2 POP POP SWAP3 POP SWAP3 SWAP1 POP JUMP JUMPDEST PUSH1 0x0 PUSH1 0x20 DUP3 DUP5 SUB SLT ISZERO PUSH2 0x4C7F JUMPI PUSH1 0x0 DUP1 REVERT JUMPDEST POP CALLDATALOAD SWAP2 SWAP1 POP JUMP JUMPDEST PUSH1 0x0 PUSH1 0x20 DUP3 DUP5 SUB SLT ISZERO PUSH2 0x4C98 JUMPI PUSH1 0x0 DUP1 REVERT JUMPDEST DUP2 CALLDATALOAD PUSH1 0x1 PUSH1 0x1 PUSH1 0x40 SHL SUB DUP2 GT ISZERO PUSH2 0x4CAE JUMPI PUSH1 0x0 DUP1 REVERT JUMPDEST PUSH2 0x4495 DUP5 DUP3 DUP6 ADD PUSH2 0x4BEF JUMP JUMPDEST PUSH1 0x1 PUSH1 0x1 PUSH1 0xA0 SHL SUB DUP2 AND DUP2 EQ PUSH2 0xCEE JUMPI PUSH1 0x0 DUP1 REVERT JUMPDEST PUSH1 0x0 DUP1 PUSH1 0x40 DUP4 DUP6 SUB SLT ISZERO PUSH2 0x4CE2 JUMPI PUSH1 0x0 DUP1 REVERT JUMPDEST DUP3 CALLDATALOAD PUSH1 0x1 PUSH1 0x1 PUSH1 0x40 SHL SUB DUP2 GT ISZERO PUSH2 0x4CF8 JUMPI PUSH1 0x0 DUP1 REVERT JUMPDEST PUSH2 0x4D04 DUP6 DUP3 DUP7 ADD PUSH2 0x4BEF JUMP JUMPDEST SWAP3 POP POP PUSH1 0x20 DUP4 ADD CALLDATALOAD PUSH2 0x4C62 DUP2 PUSH2 0x4CBA JUMP JUMPDEST PUSH1 0x0 PUSH1 0x1 PUSH1 0x1 PUSH1 0x40 SHL SUB DUP3 GT ISZERO PUSH2 0x4D2E JUMPI PUSH2 0x4D2E PUSH2 0x4B44 JUMP JUMPDEST POP PUSH1 0x5 SHL PUSH1 0x20 ADD SWAP1 JUMP JUMPDEST PUSH1 0x0 DUP3 PUSH1 0x1F DUP4 ADD SLT PUSH2 0x4D49 JUMPI PUSH1 0x0 DUP1 REVERT JUMPDEST DUP2 CALLDATALOAD PUSH1 0x20 PUSH2 0x4D59 PUSH2 0x4BBF DUP4 PUSH2 0x4D15 JUMP JUMPDEST DUP3 DUP2 MSTORE PUSH1 0x5 SWAP3 SWAP1 SWAP3 SHL DUP5 ADD DUP2 ADD SWAP2 DUP2 DUP2 ADD SWAP1 DUP7 DUP5 GT ISZERO PUSH2 0x4D78 JUMPI PUSH1 0x0 DUP1 REVERT JUMPDEST DUP3 DUP7 ADD JUMPDEST DUP5 DUP2 LT ISZERO PUSH2 0x4DCC JUMPI DUP1 CALLDATALOAD PUSH1 0x1 PUSH1 0x1 PUSH1 0x40 SHL SUB DUP2 GT ISZERO PUSH2 0x4D9B JUMPI PUSH1 0x0 DUP1 DUP2 REVERT JUMPDEST DUP8 ADD PUSH1 0x3F DUP2 ADD DUP10 SGT PUSH2 0x4DAD JUMPI PUSH1 0x0 DUP1 DUP2 REVERT JUMPDEST PUSH2 0x4DBE DUP10 DUP7 DUP4 ADD CALLDATALOAD PUSH1 0x40 DUP5 ADD PUSH2 0x4BB1 JUMP JUMPDEST DUP5 MSTORE POP SWAP2 DUP4 ADD SWAP2 DUP4 ADD PUSH2 0x4D7C JUMP JUMPDEST POP SWAP7 SWAP6 POP POP POP POP POP POP JUMP JUMPDEST PUSH1 0x0 DUP1 PUSH1 0x40 DUP4 DUP6 SUB SLT ISZERO PUSH2 0x4DEA JUMPI PUSH1 0x0 DUP1 REVERT JUMPDEST DUP3 CALLDATALOAD PUSH1 0x1 PUSH1 0x1 PUSH1 0x40 SHL SUB DUP1 DUP3 GT ISZERO PUSH2 0x4E01 JUMPI PUSH1 0x0 DUP1 REVERT JUMPDEST DUP2 DUP6 ADD SWAP2 POP DUP6 PUSH1 0x1F DUP4 ADD SLT PUSH2 0x4E15 JUMPI PUSH1 0x0 DUP1 REVERT JUMPDEST DUP2 CALLDATALOAD PUSH1 0x20 PUSH2 0x4E25 PUSH2 0x4BBF DUP4 PUSH2 0x4D15 JUMP JUMPDEST DUP3 DUP2 MSTORE PUSH1 0x5 SWAP3 SWAP1 SWAP3 SHL DUP5 ADD DUP2 ADD SWAP2 DUP2 DUP2 ADD SWAP1 DUP10 DUP5 GT ISZERO PUSH2 0x4E44 JUMPI PUSH1 0x0 DUP1 REVERT JUMPDEST DUP3 DUP7 ADD JUMPDEST DUP5 DUP2 LT ISZERO PUSH2 0x4E7C JUMPI DUP1 CALLDATALOAD DUP7 DUP2 GT ISZERO PUSH2 0x4E60 JUMPI PUSH1 0x0 DUP1 DUP2 REVERT JUMPDEST PUSH2 0x4E6E DUP13 DUP7 DUP4 DUP12 ADD ADD PUSH2 0x4BEF JUMP JUMPDEST DUP5 MSTORE POP SWAP2 DUP4 ADD SWAP2 DUP4 ADD PUSH2 0x4E48 JUMP JUMPDEST POP SWAP7 POP POP DUP7 ADD CALLDATALOAD SWAP3 POP POP DUP1 DUP3 GT ISZERO PUSH2 0x4E93 JUMPI PUSH1 0x0 DUP1 REVERT JUMPDEST POP PUSH2 0x4EA0 DUP6 DUP3 DUP7 ADD PUSH2 0x4D38 JUMP JUMPDEST SWAP2 POP POP SWAP3 POP SWAP3 SWAP1 POP JUMP JUMPDEST DUP1 ISZERO ISZERO DUP2 EQ PUSH2 0xCEE JUMPI PUSH1 0x0 DUP1 REVERT JUMPDEST PUSH1 0x0 DUP1 PUSH1 0x0 PUSH1 0x60 DUP5 DUP7 SUB SLT ISZERO PUSH2 0x4ECD JUMPI PUSH1 0x0 DUP1 REVERT JUMPDEST DUP4 CALLDATALOAD SWAP3 POP PUSH1 0x20 DUP5 ADD CALLDATALOAD SWAP2 POP PUSH1 0x40 DUP5 ADD CALLDATALOAD PUSH2 0x4EE6 DUP2 PUSH2 0x4EAA JUMP JUMPDEST DUP1 SWAP2 POP POP SWAP3 POP SWAP3 POP SWAP3 JUMP JUMPDEST PUSH1 0x0 PUSH1 0x20 DUP3 DUP5 SUB SLT ISZERO PUSH2 0x4F03 JUMPI PUSH1 0x0 DUP1 REVERT JUMPDEST DUP2 CALLDATALOAD PUSH2 0xEE2 DUP2 PUSH2 0x4CBA JUMP JUMPDEST PUSH1 0x0 DUP1 PUSH1 0x40 DUP4 DUP6 SUB SLT ISZERO PUSH2 0x4F21 JUMPI PUSH1 0x0 DUP1 REVERT JUMPDEST POP POP DUP1 CALLDATALOAD SWAP3 PUSH1 0x20 SWAP1 SWAP2 ADD CALLDATALOAD SWAP2 POP JUMP JUMPDEST PUSH1 0x0 DUP1 PUSH1 0x40 DUP4 DUP6 SUB SLT ISZERO PUSH2 0x4F43 JUMPI PUSH1 0x0 DUP1 REVERT JUMPDEST DUP3 CALLDATALOAD SWAP2 POP PUSH1 0x20 DUP4 ADD CALLDATALOAD PUSH2 0x4C62 DUP2 PUSH2 0x4CBA JUMP JUMPDEST PUSH1 0x0 DUP1 PUSH1 0x0 PUSH1 0x60 DUP5 DUP7 SUB SLT ISZERO PUSH2 0x4F6A JUMPI PUSH1 0x0 DUP1 REVERT JUMPDEST DUP4 CALLDATALOAD PUSH1 0x1 PUSH1 0x1 PUSH1 0x40 SHL SUB DUP2 GT ISZERO PUSH2 0x4F80 JUMPI PUSH1 0x0 DUP1 REVERT JUMPDEST PUSH2 0x4F8C DUP7 DUP3 DUP8 ADD PUSH2 0x4BEF JUMP JUMPDEST SWAP4 POP POP PUSH1 0x20 DUP5 ADD CALLDATALOAD PUSH2 0x4F9D DUP2 PUSH2 0x4CBA JUMP JUMPDEST SWAP3 SWAP6 SWAP3 SWAP5 POP POP POP PUSH1 0x40 SWAP2 SWAP1 SWAP2 ADD CALLDATALOAD SWAP1 JUMP JUMPDEST PUSH1 0x0 PUSH1 0x20 DUP3 DUP5 SUB SLT ISZERO PUSH2 0x4FC0 JUMPI PUSH1 0x0 DUP1 REVERT JUMPDEST DUP2 CALLDATALOAD PUSH2 0xEE2 DUP2 PUSH2 0x4EAA JUMP JUMPDEST PUSH1 0x0 DUP1 PUSH1 0x0 DUP1 PUSH1 0x80 DUP6 DUP8 SUB SLT ISZERO PUSH2 0x4FE1 JUMPI PUSH1 0x0 DUP1 REVERT JUMPDEST DUP5 CALLDATALOAD SWAP4 POP PUSH1 0x20 DUP6 ADD CALLDATALOAD SWAP3 POP PUSH1 0x40 DUP6 ADD CALLDATALOAD SWAP2 POP PUSH1 0x60 DUP6 ADD CALLDATALOAD PUSH2 0x5001 DUP2 PUSH2 0x4CBA JUMP JUMPDEST SWAP4 SWAP7 SWAP3 SWAP6 POP SWAP1 SWAP4 POP POP JUMP JUMPDEST PUSH1 0x0 DUP1 PUSH1 0x40 DUP4 DUP6 SUB SLT ISZERO PUSH2 0x501F JUMPI PUSH1 0x0 DUP1 REVERT JUMPDEST DUP3 CALLDATALOAD PUSH2 0x502A DUP2 PUSH2 0x4CBA JUMP JUMPDEST SWAP5 PUSH1 0x20 SWAP4 SWAP1 SWAP4 ADD CALLDATALOAD SWAP4 POP POP POP JUMP JUMPDEST PUSH1 0x0 DUP1 PUSH1 0x0 DUP1 PUSH1 0x80 DUP6 DUP8 SUB SLT ISZERO PUSH2 0x504E JUMPI PUSH1 0x0 DUP1 REVERT JUMPDEST DUP5 CALLDATALOAD PUSH1 0x1 PUSH1 0x1 PUSH1 0x40 SHL SUB DUP1 DUP3 GT ISZERO PUSH2 0x5065 JUMPI PUSH1 0x0 DUP1 REVERT JUMPDEST PUSH2 0x5071 DUP9 DUP4 DUP10 ADD PUSH2 0x4BEF JUMP JUMPDEST SWAP6 POP PUSH1 0x20 DUP8 ADD CALLDATALOAD SWAP2 POP DUP1 DUP3 GT ISZERO PUSH2 0x5087 JUMPI PUSH1 0x0 DUP1 REVERT JUMPDEST POP PUSH2 0x5094 DUP8 DUP3 DUP9 ADD PUSH2 0x4BEF JUMP JUMPDEST SWAP4 POP POP PUSH1 0x40 DUP6 ADD CALLDATALOAD PUSH2 0x50A5 DUP2 PUSH2 0x4CBA JUMP JUMPDEST SWAP4 SWAP7 SWAP3 SWAP6 POP SWAP3 SWAP4 PUSH1 0x60 ADD CALLDATALOAD SWAP3 POP POP JUMP JUMPDEST PUSH1 0x0 DUP1 PUSH1 0x0 PUSH1 0x60 DUP5 DUP7 SUB SLT ISZERO PUSH2 0x50CA JUMPI PUSH1 0x0 DUP1 REVERT JUMPDEST DUP4 CALLDATALOAD PUSH1 0x1 PUSH1 0x1 PUSH1 0x40 SHL SUB DUP2 GT ISZERO PUSH2 0x50E0 JUMPI PUSH1 0x0 DUP1 REVERT JUMPDEST PUSH2 0x50EC DUP7 DUP3 DUP8 ADD PUSH2 0x4BEF JUMP JUMPDEST SWAP4 POP POP PUSH1 0x20 DUP5 ADD CALLDATALOAD PUSH2 0x50FD DUP2 PUSH2 0x4CBA JUMP JUMPDEST SWAP2 POP PUSH1 0x40 DUP5 ADD CALLDATALOAD PUSH2 0x4EE6 DUP2 PUSH2 0x4C0F JUMP JUMPDEST PUSH1 0x0 DUP1 PUSH1 0x0 DUP1 PUSH1 0x80 DUP6 DUP8 SUB SLT ISZERO PUSH2 0x5123 JUMPI PUSH1 0x0 DUP1 REVERT JUMPDEST DUP5 CALLDATALOAD PUSH1 0x1 PUSH1 0x1 PUSH1 0x40 SHL SUB DUP2 GT ISZERO PUSH2 0x5139 JUMPI PUSH1 0x0 DUP1 REVERT JUMPDEST PUSH2 0x5145 DUP8 DUP3 DUP9 ADD PUSH2 0x4BEF JUMP JUMPDEST SWAP5 POP POP PUSH1 0x20 DUP6 ADD CALLDATALOAD PUSH2 0x5156 DUP2 PUSH2 0x4CBA JUMP JUMPDEST SWAP3 POP PUSH1 0x40 DUP6 ADD CALLDATALOAD SWAP2 POP PUSH1 0x60 DUP6 ADD CALLDATALOAD PUSH2 0x5001 DUP2 PUSH2 0x4CBA JUMP JUMPDEST PUSH1 0x0 DUP1 PUSH1 0x0 DUP1 PUSH1 0x0 DUP1 PUSH1 0xC0 DUP8 DUP10 SUB SLT ISZERO PUSH2 0x5186 JUMPI PUSH1 0x0 DUP1 REVERT JUMPDEST DUP7 CALLDATALOAD SWAP6 POP PUSH1 0x20 DUP8 ADD CALLDATALOAD SWAP5 POP PUSH1 0x40 DUP8 ADD CALLDATALOAD SWAP4 POP PUSH1 0x60 DUP8 ADD CALLDATALOAD PUSH2 0x51A6 DUP2 PUSH2 0x4CBA JUMP JUMPDEST SWAP3 POP PUSH1 0x80 DUP8 ADD CALLDATALOAD SWAP2 POP PUSH1 0xA0 DUP8 ADD CALLDATALOAD PUSH2 0x51BD DUP2 PUSH2 0x4CBA JUMP JUMPDEST DUP1 SWAP2 POP POP SWAP3 SWAP6 POP SWAP3 SWAP6 POP SWAP3 SWAP6 JUMP JUMPDEST PUSH4 0x36B0B4B7 PUSH1 0xE1 SHL DUP2 MSTORE PUSH1 0x4 ADD SWAP1 JUMP JUMPDEST PUSH4 0x4E487B71 PUSH1 0xE0 SHL PUSH1 0x0 MSTORE PUSH1 0x11 PUSH1 0x4 MSTORE PUSH1 0x24 PUSH1 0x0 REVERT JUMPDEST DUP1 DUP3 ADD DUP1 DUP3 GT ISZERO PUSH2 0xDF2 JUMPI PUSH2 0xDF2 PUSH2 0x51DB JUMP JUMPDEST PUSH1 0x1 PUSH1 0x1 PUSH1 0xA0 SHL SUB SWAP4 DUP5 AND DUP2 MSTORE PUSH1 0x20 DUP2 ADD SWAP3 SWAP1 SWAP3 MSTORE SWAP1 SWAP2 AND PUSH1 0x40 DUP3 ADD MSTORE PUSH1 0x60 ADD SWAP1 JUMP JUMPDEST PUSH4 0x4E487B71 PUSH1 0xE0 SHL PUSH1 0x0 MSTORE PUSH1 0x21 PUSH1 0x4 MSTORE PUSH1 0x24 PUSH1 0x0 REVERT JUMPDEST PUSH1 0x0 JUMPDEST DUP4 DUP2 LT ISZERO PUSH2 0x5258 JUMPI DUP2 DUP2 ADD MLOAD DUP4 DUP3 ADD MSTORE PUSH1 0x20 ADD PUSH2 0x5240 JUMP JUMPDEST POP POP PUSH1 0x0 SWAP2 ADD MSTORE JUMP JUMPDEST PUSH1 0x0 DUP3 MLOAD PUSH2 0x5273 DUP2 DUP5 PUSH1 0x20 DUP8 ADD PUSH2 0x523D JUMP JUMPDEST SWAP2 SWAP1 SWAP2 ADD SWAP3 SWAP2 POP POP JUMP JUMPDEST PUSH1 0x20 DUP1 DUP3 MSTORE PUSH1 0x2 SWAP1 DUP3 ADD MSTORE PUSH2 0x4153 PUSH1 0xF0 SHL PUSH1 0x40 DUP3 ADD MSTORE PUSH1 0x60 ADD SWAP1 JUMP JUMPDEST PUSH1 0x20 DUP1 DUP3 MSTORE PUSH1 0x2 SWAP1 DUP3 ADD MSTORE PUSH2 0x9E9 PUSH1 0xF3 SHL PUSH1 0x40 DUP3 ADD MSTORE PUSH1 0x60 ADD SWAP1 JUMP JUMPDEST PUSH1 0x20 DUP1 DUP3 MSTORE PUSH1 0x2 SWAP1 DUP3 ADD MSTORE PUSH2 0x5553 PUSH1 0xF0 SHL PUSH1 0x40 DUP3 ADD MSTORE PUSH1 0x60 ADD SWAP1 JUMP JUMPDEST PUSH1 0x20 DUP1 DUP3 MSTORE PUSH1 0x2 SWAP1 DUP3 ADD MSTORE PUSH2 0x4E53 PUSH1 0xF0 SHL PUSH1 0x40 DUP3 ADD MSTORE PUSH1 0x60 ADD SWAP1 JUMP JUMPDEST PUSH1 0x20 DUP1 DUP3 MSTORE PUSH1 0x2 SWAP1 DUP3 ADD MSTORE PUSH2 0x1153 PUSH1 0xF2 SHL PUSH1 0x40 DUP3 ADD MSTORE PUSH1 0x60 ADD SWAP1 JUMP JUMPDEST PUSH4 0x4E487B71 PUSH1 0xE0 SHL PUSH1 0x0 MSTORE PUSH1 0x12 PUSH1 0x4 MSTORE PUSH1 0x24 PUSH1 0x0 REVERT JUMPDEST PUSH1 0x0 DUP3 PUSH2 0x532E JUMPI PUSH2 0x532E PUSH2 0x5309 JUMP JUMPDEST POP DIV SWAP1 JUMP JUMPDEST PUSH1 0x20 DUP1 DUP3 MSTORE PUSH1 0x2 SWAP1 DUP3 ADD MSTORE PUSH2 0x1555 PUSH1 0xF2 SHL PUSH1 0x40 DUP3 ADD MSTORE PUSH1 0x60 ADD SWAP1 JUMP JUMPDEST PUSH1 0x20 DUP1 DUP3 MSTORE PUSH1 0x2 SWAP1 DUP3 ADD MSTORE PUSH2 0x4143 PUSH1 0xF0 SHL PUSH1 0x40 DUP3 ADD MSTORE PUSH1 0x60 ADD SWAP1 JUMP JUMPDEST DUP1 DUP3 MUL DUP2 ISZERO DUP3 DUP3 DIV DUP5 EQ OR PUSH2 0xDF2 JUMPI PUSH2 0xDF2 PUSH2 0x51DB JUMP JUMPDEST DUP2 DUP2 SUB DUP2 DUP2 GT ISZERO PUSH2 0xDF2 JUMPI PUSH2 0xDF2 PUSH2 0x51DB JUMP JUMPDEST PUSH1 0x0 DUP2 MLOAD DUP1 DUP5 MSTORE PUSH2 0x53AD DUP2 PUSH1 0x20 DUP7 ADD PUSH1 0x20 DUP7 ADD PUSH2 0x523D JUMP JUMPDEST PUSH1 0x1F ADD PUSH1 0x1F NOT AND SWAP3 SWAP1 SWAP3 ADD PUSH1 0x20 ADD SWAP3 SWAP2 POP POP JUMP JUMPDEST PUSH1 0x60 DUP2 MSTORE PUSH1 0x2 PUSH1 0x60 DUP3 ADD MSTORE PUSH2 0x18D1 PUSH1 0xF2 SHL PUSH1 0x80 DUP3 ADD MSTORE PUSH1 0xA0 PUSH1 0x20 DUP3 ADD MSTORE PUSH1 0x0 PUSH2 0x53ED PUSH1 0xA0 DUP4 ADD DUP6 PUSH2 0x5395 JUMP JUMPDEST SWAP1 POP PUSH1 0x1 DUP1 PUSH1 0xA0 SHL SUB DUP4 AND PUSH1 0x40 DUP4 ADD MSTORE SWAP4 SWAP3 POP POP POP JUMP JUMPDEST PUSH1 0x1 PUSH1 0x1 PUSH1 0xA0 SHL SUB SWAP3 DUP4 AND DUP2 MSTORE SWAP2 AND PUSH1 0x20 DUP3 ADD MSTORE PUSH1 0x40 ADD SWAP1 JUMP JUMPDEST PUSH1 0x0 PUSH1 0x20 DUP3 DUP5 SUB SLT ISZERO PUSH2 0x5430 JUMPI PUSH1 0x0 DUP1 REVERT JUMPDEST POP MLOAD SWAP2 SWAP1 POP JUMP JUMPDEST PUSH1 0x20 DUP1 DUP3 MSTORE PUSH1 0x2 SWAP1 DUP3 ADD MSTORE PUSH2 0x1255 PUSH1 0xF2 SHL PUSH1 0x40 DUP3 ADD MSTORE PUSH1 0x60 ADD SWAP1 JUMP JUMPDEST PUSH1 0x1 PUSH1 0x1 PUSH1 0xA0 SHL SUB SWAP4 DUP5 AND DUP2 MSTORE SWAP2 SWAP1 SWAP3 AND PUSH1 0x20 DUP3 ADD MSTORE PUSH1 0x40 DUP2 ADD SWAP2 SWAP1 SWAP2 MSTORE PUSH1 0x60 ADD SWAP1 JUMP JUMPDEST PUSH1 0x0 PUSH1 0x20 DUP3 DUP5 SUB SLT ISZERO PUSH2 0x5489 JUMPI PUSH1 0x0 DUP1 REVERT JUMPDEST DUP2 MLOAD PUSH2 0xEE2 DUP2 PUSH2 0x4EAA JUMP JUMPDEST PUSH1 0x20 DUP1 DUP3 MSTORE PUSH1 0x2 SWAP1 DUP3 ADD MSTORE PUSH2 0x1395 PUSH1 0xF2 SHL PUSH1 0x40 DUP3 ADD MSTORE PUSH1 0x60 ADD SWAP1 JUMP JUMPDEST PUSH1 0x20 DUP1 DUP3 MSTORE PUSH1 0x5 SWAP1 DUP3 ADD MSTORE PUSH5 0x4E53484E41 PUSH1 0xD8 SHL PUSH1 0x40 DUP3 ADD MSTORE PUSH1 0x60 ADD SWAP1 JUMP JUMPDEST PUSH1 0x20 DUP1 DUP3 MSTORE PUSH1 0x2 SWAP1 DUP3 ADD MSTORE PUSH2 0x2A23 PUSH1 0xF1 SHL PUSH1 0x40 DUP3 ADD MSTORE PUSH1 0x60 ADD SWAP1 JUMP JUMPDEST SWAP6 DUP7 MSTORE PUSH1 0x20 DUP7 ADD SWAP5 SWAP1 SWAP5 MSTORE PUSH1 0x40 DUP6 ADD SWAP3 SWAP1 SWAP3 MSTORE PUSH1 0x1 PUSH1 0x1 PUSH1 0xA0 SHL SUB SWAP1 DUP2 AND PUSH1 0x60 DUP6 ADD MSTORE PUSH1 0x80 DUP5 ADD SWAP2 SWAP1 SWAP2 MSTORE AND PUSH1 0xA0 DUP3 ADD MSTORE PUSH1 0xC0 ADD SWAP1 JUMP JUMPDEST PUSH1 0x3 DUP2 LT PUSH2 0x5540 JUMPI PUSH4 0x4E487B71 PUSH1 0xE0 SHL PUSH1 0x0 MSTORE PUSH1 0x21 PUSH1 0x4 MSTORE PUSH1 0x24 PUSH1 0x0 REVERT JUMPDEST SWAP1 MSTORE JUMP JUMPDEST PUSH1 0x40 DUP2 MSTORE PUSH1 0x0 PUSH2 0x5557 PUSH1 0x40 DUP4 ADD DUP6 PUSH2 0x5395 JUMP JUMPDEST SWAP1 POP PUSH2 0xEE2 PUSH1 0x20 DUP4 ADD DUP5 PUSH2 0x5522 JUMP JUMPDEST PUSH1 0x60 DUP2 MSTORE PUSH1 0x2 PUSH1 0x60 DUP3 ADD MSTORE PUSH2 0x735 PUSH1 0xF4 SHL PUSH1 0x80 DUP3 ADD MSTORE PUSH1 0xA0 PUSH1 0x20 DUP3 ADD MSTORE PUSH1 0x0 PUSH2 0x53ED PUSH1 0xA0 DUP4 ADD DUP6 PUSH2 0x5395 JUMP JUMPDEST PUSH1 0x60 DUP2 MSTORE PUSH1 0x2 PUSH1 0x60 DUP3 ADD MSTORE PUSH2 0x1911 PUSH1 0xF2 SHL PUSH1 0x80 DUP3 ADD MSTORE PUSH1 0xA0 PUSH1 0x20 DUP3 ADD MSTORE PUSH1 0x0 PUSH2 0x53ED PUSH1 0xA0 DUP4 ADD DUP6 PUSH2 0x5395 JUMP JUMPDEST PUSH1 0x0 PUSH1 0x1 DUP3 ADD PUSH2 0x55D0 JUMPI PUSH2 0x55D0 PUSH2 0x51DB JUMP JUMPDEST POP PUSH1 0x1 ADD SWAP1 JUMP JUMPDEST PUSH1 0x40 DUP2 MSTORE PUSH1 0x0 PUSH2 0x55EA PUSH1 0x40 DUP4 ADD DUP6 PUSH2 0x5395 JUMP JUMPDEST SWAP1 POP PUSH1 0x1 DUP1 PUSH1 0xA0 SHL SUB DUP4 AND PUSH1 0x20 DUP4 ADD MSTORE SWAP4 SWAP3 POP POP POP JUMP JUMPDEST PUSH1 0x60 DUP2 MSTORE PUSH1 0x2 PUSH1 0x60 DUP3 ADD MSTORE PUSH2 0x31A1 PUSH1 0xF1 SHL PUSH1 0x80 DUP3 ADD MSTORE PUSH1 0xA0 PUSH1 0x20 DUP3 ADD MSTORE PUSH1 0x0 PUSH2 0x53ED PUSH1 0xA0 DUP4 ADD DUP6 PUSH2 0x5395 JUMP JUMPDEST PUSH1 0x60 DUP2 MSTORE PUSH1 0x2 PUSH1 0x60 DUP3 ADD MSTORE PUSH2 0x7241 PUSH1 0xF0 SHL PUSH1 0x80 DUP3 ADD MSTORE PUSH1 0xA0 PUSH1 0x20 DUP3 ADD MSTORE PUSH1 0x0 PUSH2 0x53ED PUSH1 0xA0 DUP4 ADD DUP6 PUSH2 0x5395 JUMP JUMPDEST PUSH1 0x1 PUSH1 0x1 PUSH1 0xA0 SHL SUB SWAP3 SWAP1 SWAP3 AND DUP3 MSTORE PUSH1 0x20 DUP3 ADD MSTORE PUSH1 0x40 ADD SWAP1 JUMP JUMPDEST PUSH1 0x20 DUP2 MSTORE PUSH1 0x0 PUSH2 0xEE2 PUSH1 0x20 DUP4 ADD DUP5 PUSH2 0x5395 JUMP JUMPDEST PUSH1 0x60 DUP2 MSTORE PUSH1 0x2 PUSH1 0x60 DUP3 ADD MSTORE PUSH2 0x3221 PUSH1 0xF1 SHL PUSH1 0x80 DUP3 ADD MSTORE PUSH1 0xA0 PUSH1 0x20 DUP3 ADD MSTORE PUSH1 0x0 PUSH2 0x53ED PUSH1 0xA0 DUP4 ADD DUP6 PUSH2 0x5395 JUMP JUMPDEST PUSH4 0x4E487B71 PUSH1 0xE0 SHL PUSH1 0x0 MSTORE PUSH1 0x32 PUSH1 0x4 MSTORE PUSH1 0x24 PUSH1 0x0 REVERT JUMPDEST PUSH1 0x1 DUP2 DUP2 SHR SWAP1 DUP3 AND DUP1 PUSH2 0x56DB JUMPI PUSH1 0x7F DUP3 AND SWAP2 POP JUMPDEST PUSH1 0x20 DUP3 LT DUP2 SUB PUSH2 0x56FB JUMPI PUSH4 0x4E487B71 PUSH1 0xE0 SHL PUSH1 0x0 MSTORE PUSH1 0x22 PUSH1 0x4 MSTORE PUSH1 0x24 PUSH1 0x0 REVERT JUMPDEST POP SWAP2 SWAP1 POP JUMP JUMPDEST PUSH1 0x0 PUSH2 0x570F PUSH2 0x4BBF DUP5 PUSH2 0x4B8A JUMP JUMPDEST SWAP1 POP DUP3 DUP2 MSTORE DUP4 DUP4 DUP4 ADD GT ISZERO PUSH2 0x5723 JUMPI PUSH1 0x0 DUP1 REVERT JUMPDEST PUSH2 0xEE2 DUP4 PUSH1 0x20 DUP4 ADD DUP5 PUSH2 0x523D JUMP JUMPDEST PUSH1 0x0 DUP3 PUSH1 0x1F DUP4 ADD SLT PUSH2 0x5742 JUMPI PUSH1 0x0 DUP1 REVERT JUMPDEST PUSH2 0xEE2 DUP4 DUP4 MLOAD PUSH1 0x20 DUP6 ADD PUSH2 0x5701 JUMP JUMPDEST PUSH1 0x0 DUP3 PUSH1 0x1F DUP4 ADD SLT PUSH2 0x5762 JUMPI PUSH1 0x0 DUP1 REVERT JUMPDEST DUP2 MLOAD PUSH1 0x20 PUSH2 0x5772 PUSH2 0x4BBF DUP4 PUSH2 0x4D15 JUMP JUMPDEST DUP3 DUP2 MSTORE PUSH1 0x5 SWAP3 SWAP1 SWAP3 SHL DUP5 ADD DUP2 ADD SWAP2 DUP2 DUP2 ADD SWAP1 DUP7 DUP5 GT ISZERO PUSH2 0x5791 JUMPI PUSH1 0x0 DUP1 REVERT JUMPDEST DUP3 DUP7 ADD JUMPDEST DUP5 DUP2 LT ISZERO PUSH2 0x4DCC JUMPI DUP1 MLOAD PUSH1 0x1 PUSH1 0x1 PUSH1 0x40 SHL SUB DUP2 GT ISZERO PUSH2 0x57B4 JUMPI PUSH1 0x0 DUP1 DUP2 REVERT JUMPDEST DUP8 ADD PUSH1 0x3F DUP2 ADD DUP10 SGT PUSH2 0x57C6 JUMPI PUSH1 0x0 DUP1 DUP2 REVERT JUMPDEST PUSH2 0x57D7 DUP10 DUP7 DUP4 ADD MLOAD PUSH1 0x40 DUP5 ADD PUSH2 0x5701 JUMP JUMPDEST DUP5 MSTORE POP SWAP2 DUP4 ADD SWAP2 DUP4 ADD PUSH2 0x5795 JUMP JUMPDEST PUSH1 0x0 DUP1 PUSH1 0x40 DUP4 DUP6 SUB SLT ISZERO PUSH2 0x57F8 JUMPI PUSH1 0x0 DUP1 REVERT JUMPDEST DUP3 MLOAD PUSH1 0x1 PUSH1 0x1 PUSH1 0x40 SHL SUB DUP1 DUP3 GT ISZERO PUSH2 0x580F JUMPI PUSH1 0x0 DUP1 REVERT JUMPDEST DUP2 DUP6 ADD SWAP2 POP DUP6 PUSH1 0x1F DUP4 ADD SLT PUSH2 0x5823 JUMPI PUSH1 0x0 DUP1 REVERT JUMPDEST DUP2 MLOAD PUSH1 0x20 PUSH2 0x5833 PUSH2 0x4BBF DUP4 PUSH2 0x4D15 JUMP JUMPDEST DUP3 DUP2 MSTORE PUSH1 0x5 SWAP3 SWAP1 SWAP3 SHL DUP5 ADD DUP2 ADD SWAP2 DUP2 DUP2 ADD SWAP1 DUP10 DUP5 GT ISZERO PUSH2 0x5852 JUMPI PUSH1 0x0 DUP1 REVERT JUMPDEST DUP3 DUP7 ADD JUMPDEST DUP5 DUP2 LT ISZERO PUSH2 0x588A JUMPI DUP1 MLOAD DUP7 DUP2 GT ISZERO PUSH2 0x586E JUMPI PUSH1 0x0 DUP1 DUP2 REVERT JUMPDEST PUSH2 0x587C DUP13 DUP7 DUP4 DUP12 ADD ADD PUSH2 0x5731 JUMP JUMPDEST DUP5 MSTORE POP SWAP2 DUP4 ADD SWAP2 DUP4 ADD PUSH2 0x5856 JUMP JUMPDEST POP SWAP2 DUP9 ADD MLOAD SWAP2 SWAP7 POP SWAP1 SWAP4 POP POP POP DUP1 DUP3 GT ISZERO PUSH2 0x58A4 JUMPI PUSH1 0x0 DUP1 REVERT JUMPDEST POP PUSH2 0x4EA0 DUP6 DUP3 DUP7 ADD PUSH2 0x5751 JUMP JUMPDEST PUSH1 0x0 DUP1 PUSH1 0x0 PUSH1 0x60 DUP5 DUP7 SUB SLT ISZERO PUSH2 0x58C6 JUMPI PUSH1 0x0 DUP1 REVERT JUMPDEST DUP4 MLOAD PUSH1 0x1 PUSH1 0x1 PUSH1 0x40 SHL SUB DUP2 GT ISZERO PUSH2 0x58DC JUMPI PUSH1 0x0 DUP1 REVERT JUMPDEST PUSH2 0x58E8 DUP7 DUP3 DUP8 ADD PUSH2 0x5731 JUMP JUMPDEST SWAP4 POP POP PUSH1 0x20 DUP5 ADD MLOAD PUSH2 0x58F9 DUP2 PUSH2 0x4C0F JUMP JUMPDEST PUSH1 0x40 DUP6 ADD MLOAD SWAP1 SWAP3 POP PUSH2 0x4EE6 DUP2 PUSH2 0x4CBA JUMP JUMPDEST PUSH1 0x0 DUP1 PUSH1 0x40 DUP4 DUP6 SUB SLT ISZERO PUSH2 0x591D JUMPI PUSH1 0x0 DUP1 REVERT JUMPDEST DUP3 MLOAD PUSH1 0x1 PUSH1 0x1 PUSH1 0x40 SHL SUB DUP2 GT ISZERO PUSH2 0x5933 JUMPI PUSH1 0x0 DUP1 REVERT JUMPDEST PUSH2 0x593F DUP6 DUP3 DUP7 ADD PUSH2 0x5731 JUMP JUMPDEST SWAP3 POP POP PUSH1 0x20 DUP4 ADD MLOAD PUSH2 0x4C62 DUP2 PUSH2 0x4C0F JUMP JUMPDEST PUSH1 0x0 DUP1 PUSH1 0x0 DUP1 PUSH1 0x80 DUP6 DUP8 SUB SLT ISZERO PUSH2 0x5966 JUMPI PUSH1 0x0 DUP1 REVERT JUMPDEST DUP5 MLOAD PUSH1 0x1 PUSH1 0x1 PUSH1 0x40 SHL SUB DUP2 GT ISZERO PUSH2 0x597C JUMPI PUSH1 0x0 DUP1 REVERT JUMPDEST PUSH2 0x5988 DUP8 DUP3 DUP9 ADD PUSH2 0x5731 JUMP JUMPDEST SWAP5 POP POP PUSH1 0x20 DUP6 ADD MLOAD PUSH2 0x5999 DUP2 PUSH2 0x4CBA JUMP JUMPDEST PUSH1 0x40 DUP7 ADD MLOAD PUSH1 0x60 DUP8 ADD MLOAD SWAP2 SWAP5 POP SWAP3 POP PUSH2 0x5001 DUP2 PUSH2 0x4CBA JUMP JUMPDEST PUSH1 0x0 DUP1 PUSH1 0x0 DUP1 PUSH1 0x80 DUP6 DUP8 SUB SLT ISZERO PUSH2 0x59C7 JUMPI PUSH1 0x0 DUP1 REVERT JUMPDEST DUP5 MLOAD PUSH1 0x1 PUSH1 0x1 PUSH1 0x40 SHL SUB DUP1 DUP3 GT ISZERO PUSH2 0x59DE JUMPI PUSH1 0x0 DUP1 REVERT JUMPDEST PUSH2 0x59EA DUP9 DUP4 DUP10 ADD PUSH2 0x5731 JUMP JUMPDEST SWAP6 POP PUSH1 0x20 DUP8 ADD MLOAD SWAP2 POP DUP1 DUP3 GT ISZERO PUSH2 0x5A00 JUMPI PUSH1 0x0 DUP1 REVERT JUMPDEST POP PUSH2 0x5A0D DUP8 DUP3 DUP9 ADD PUSH2 0x5731 JUMP JUMPDEST SWAP4 POP POP PUSH1 0x40 DUP6 ADD MLOAD PUSH2 0x5A1E DUP2 PUSH2 0x4CBA JUMP JUMPDEST PUSH1 0x60 SWAP6 SWAP1 SWAP6 ADD MLOAD SWAP4 SWAP7 SWAP3 SWAP6 POP POP POP JUMP JUMPDEST PUSH1 0x0 DUP1 PUSH1 0x0 PUSH1 0x60 DUP5 DUP7 SUB SLT ISZERO PUSH2 0x5A43 JUMPI PUSH1 0x0 DUP1 REVERT JUMPDEST DUP4 MLOAD PUSH1 0x1 PUSH1 0x1 PUSH1 0x40 SHL SUB DUP2 GT ISZERO PUSH2 0x5A59 JUMPI PUSH1 0x0 DUP1 REVERT JUMPDEST PUSH2 0x5A65 DUP7 DUP3 DUP8 ADD PUSH2 0x5731 JUMP JUMPDEST SWAP4 POP POP PUSH1 0x20 DUP5 ADD MLOAD PUSH2 0x5A76 DUP2 PUSH2 0x4CBA JUMP JUMPDEST DUP1 SWAP3 POP POP PUSH1 0x40 DUP5 ADD MLOAD SWAP1 POP SWAP3 POP SWAP3 POP SWAP3 JUMP JUMPDEST PUSH1 0x0 DUP1 PUSH1 0x40 DUP4 DUP6 SUB SLT ISZERO PUSH2 0x5A9B JUMPI PUSH1 0x0 DUP1 REVERT JUMPDEST DUP3 MLOAD PUSH1 0x1 PUSH1 0x1 PUSH1 0x40 SHL SUB DUP2 GT ISZERO PUSH2 0x5AB1 JUMPI PUSH1 0x0 DUP1 REVERT JUMPDEST PUSH2 0x5ABD DUP6 DUP3 DUP7 ADD PUSH2 0x5731 JUMP JUMPDEST SWAP3 POP POP PUSH1 0x20 DUP4 ADD MLOAD PUSH2 0x4C62 DUP2 PUSH2 0x4CBA JUMP JUMPDEST PUSH1 0x0 PUSH1 0x20 DUP3 DUP5 SUB SLT ISZERO PUSH2 0x5AE0 JUMPI PUSH1 0x0 DUP1 REVERT JUMPDEST DUP2 MLOAD PUSH1 0x1 PUSH1 0x1 PUSH1 0x40 SHL SUB DUP2 GT ISZERO PUSH2 0x5AF6 JUMPI PUSH1 0x0 DUP1 REVERT JUMPDEST PUSH2 0x4495 DUP5 DUP3 DUP6 ADD PUSH2 0x5731 JUMP JUMPDEST PUSH1 0x0 PUSH1 0x20 DUP3 DUP5 SUB SLT ISZERO PUSH2 0x5B14 JUMPI PUSH1 0x0 DUP1 REVERT JUMPDEST DUP2 MLOAD PUSH2 0xEE2 DUP2 PUSH2 0x4CBA JUMP JUMPDEST PUSH1 0x60 DUP2 MSTORE PUSH1 0x2 PUSH1 0x60 DUP3 ADD MSTORE PUSH2 0x695 PUSH1 0xF4 SHL PUSH1 0x80 DUP3 ADD MSTORE PUSH1 0xA0 PUSH1 0x20 DUP3 ADD MSTORE PUSH1 0x0 PUSH2 0x53ED PUSH1 0xA0 DUP4 ADD DUP6 PUSH2 0x5395 JUMP JUMPDEST SWAP4 DUP5 MSTORE PUSH1 0x20 DUP5 ADD SWAP3 SWAP1 SWAP3 MSTORE PUSH1 0x40 DUP4 ADD MSTORE PUSH1 0x1 PUSH1 0x1 PUSH1 0xA0 SHL SUB AND PUSH1 0x60 DUP3 ADD MSTORE PUSH1 0x80 ADD SWAP1 JUMP JUMPDEST PUSH1 0x20 DUP1 DUP3 MSTORE PUSH1 0x2 SWAP1 DUP3 ADD MSTORE PUSH2 0x24A3 PUSH1 0xF1 SHL PUSH1 0x40 DUP3 ADD MSTORE PUSH1 0x60 ADD SWAP1 JUMP JUMPDEST PUSH1 0x60 DUP2 MSTORE PUSH1 0x0 PUSH2 0x5B9E PUSH1 0x60 DUP4 ADD DUP7 PUSH2 0x5395 JUMP JUMPDEST PUSH1 0x1 PUSH1 0x1 PUSH1 0xA0 SHL SUB SWAP5 SWAP1 SWAP5 AND PUSH1 0x20 DUP4 ADD MSTORE POP PUSH1 0x40 ADD MSTORE SWAP2 SWAP1 POP JUMP JUMPDEST PUSH1 0x60 DUP2 MSTORE PUSH1 0x2 PUSH1 0x60 DUP3 ADD MSTORE PUSH2 0x1A51 PUSH1 0xF2 SHL PUSH1 0x80 DUP3 ADD MSTORE PUSH1 0xA0 PUSH1 0x20 DUP3 ADD MSTORE PUSH1 0x0 PUSH2 0x53ED PUSH1 0xA0 DUP4 ADD DUP6 PUSH2 0x5395 JUMP JUMPDEST PUSH1 0x60 DUP2 MSTORE PUSH1 0x3 PUSH1 0x60 DUP3 ADD MSTORE PUSH3 0x734E53 PUSH1 0xE8 SHL PUSH1 0x80 DUP3 ADD MSTORE PUSH1 0xA0 PUSH1 0x20 DUP3 ADD MSTORE PUSH1 0x0 PUSH2 0x53ED PUSH1 0xA0 DUP4 ADD DUP6 PUSH2 0x5395 JUMP JUMPDEST PUSH1 0x80 DUP2 MSTORE PUSH1 0x0 PUSH2 0x5C25 PUSH1 0x80 DUP4 ADD DUP8 PUSH2 0x5395 JUMP JUMPDEST DUP3 DUP2 SUB PUSH1 0x20 DUP5 ADD MSTORE PUSH2 0x5C37 DUP2 DUP8 PUSH2 0x5395 JUMP JUMPDEST PUSH1 0x1 PUSH1 0x1 PUSH1 0xA0 SHL SUB SWAP6 SWAP1 SWAP6 AND PUSH1 0x40 DUP5 ADD MSTORE POP POP PUSH1 0x60 ADD MSTORE SWAP3 SWAP2 POP POP JUMP JUMPDEST PUSH1 0x60 DUP2 MSTORE PUSH1 0x2 PUSH1 0x60 DUP3 ADD MSTORE PUSH2 0x1B55 PUSH1 0xF2 SHL PUSH1 0x80 DUP3 ADD MSTORE PUSH1 0xA0 PUSH1 0x20 DUP3 ADD MSTORE PUSH1 0x0 PUSH2 0x53ED PUSH1 0xA0 DUP4 ADD DUP6 PUSH2 0x5395 JUMP JUMPDEST PUSH1 0x60 DUP2 MSTORE PUSH1 0x2 PUSH1 0x60 DUP3 ADD MSTORE PUSH2 0x6141 PUSH1 0xF0 SHL PUSH1 0x80 DUP3 ADD MSTORE PUSH1 0xA0 PUSH1 0x20 DUP3 ADD MSTORE PUSH1 0x0 PUSH2 0x53ED PUSH1 0xA0 DUP4 ADD DUP6 PUSH2 0x5395 JUMP JUMPDEST PUSH1 0x60 DUP2 MSTORE PUSH1 0x0 PUSH2 0x5CBF PUSH1 0x60 DUP4 ADD DUP7 PUSH2 0x5395 JUMP JUMPDEST PUSH1 0x1 PUSH1 0x1 PUSH1 0xA0 SHL SUB DUP6 AND PUSH1 0x20 DUP5 ADD MSTORE SWAP1 POP PUSH2 0x4495 PUSH1 0x40 DUP4 ADD DUP5 PUSH2 0x5522 JUMP JUMPDEST PUSH1 0x80 DUP2 MSTORE PUSH1 0x0 PUSH2 0x5CF0 PUSH1 0x80 DUP4 ADD DUP8 PUSH2 0x5395 JUMP JUMPDEST PUSH1 0x1 PUSH1 0x1 PUSH1 0xA0 SHL SUB SWAP6 DUP7 AND PUSH1 0x20 DUP5 ADD MSTORE PUSH1 0x40 DUP4 ADD SWAP5 SWAP1 SWAP5 MSTORE POP SWAP3 AND PUSH1 0x60 SWAP1 SWAP3 ADD SWAP2 SWAP1 SWAP2 MSTORE SWAP2 SWAP1 POP JUMP JUMPDEST PUSH1 0x60 DUP2 MSTORE PUSH1 0x2 PUSH1 0x60 DUP3 ADD MSTORE PUSH2 0x1D15 PUSH1 0xF2 SHL PUSH1 0x80 DUP3 ADD MSTORE PUSH1 0xA0 PUSH1 0x20 DUP3 ADD MSTORE PUSH1 0x0 PUSH2 0x53ED PUSH1 0xA0 DUP4 ADD DUP6 PUSH2 0x5395 JUMP JUMPDEST PUSH1 0x0 DUP3 PUSH2 0x5D54 JUMPI PUSH2 0x5D54 PUSH2 0x5309 JUMP JUMPDEST POP MOD SWAP1 JUMP JUMPDEST PUSH1 0x1F DUP3 GT ISZERO PUSH2 0xCB2 JUMPI PUSH1 0x0 DUP2 DUP2 MSTORE PUSH1 0x20 DUP2 KECCAK256 PUSH1 0x1F DUP6 ADD PUSH1 0x5 SHR DUP2 ADD PUSH1 0x20 DUP7 LT ISZERO PUSH2 0x5D80 JUMPI POP DUP1 JUMPDEST PUSH1 0x1F DUP6 ADD PUSH1 0x5 SHR DUP3 ADD SWAP2 POP JUMPDEST DUP2 DUP2 LT ISZERO PUSH2 0x1A25 JUMPI DUP3 DUP2 SSTORE PUSH1 0x1 ADD PUSH2 0x5D8C JUMP JUMPDEST DUP2 MLOAD PUSH1 0x1 PUSH1 0x1 PUSH1 0x40 SHL SUB DUP2 GT ISZERO PUSH2 0x5DB8 JUMPI PUSH2 0x5DB8 PUSH2 0x4B44 JUMP JUMPDEST PUSH2 0x5DCC DUP2 PUSH2 0x5DC6 DUP5 SLOAD PUSH2 0x56C7 JUMP JUMPDEST DUP5 PUSH2 0x5D59 JUMP JUMPDEST PUSH1 0x20 DUP1 PUSH1 0x1F DUP4 GT PUSH1 0x1 DUP2 EQ PUSH2 0x5E01 JUMPI PUSH1 0x0 DUP5 ISZERO PUSH2 0x5DE9 JUMPI POP DUP6 DUP4 ADD MLOAD JUMPDEST PUSH1 0x0 NOT PUSH1 0x3 DUP7 SWAP1 SHL SHR NOT AND PUSH1 0x1 DUP6 SWAP1 SHL OR DUP6 SSTORE PUSH2 0x1A25 JUMP JUMPDEST PUSH1 0x0 DUP6 DUP2 MSTORE PUSH1 0x20 DUP2 KECCAK256 PUSH1 0x1F NOT DUP7 AND SWAP2 JUMPDEST DUP3 DUP2 LT ISZERO PUSH2 0x5E30 JUMPI DUP9 DUP7 ADD MLOAD DUP3 SSTORE SWAP5 DUP5 ADD SWAP5 PUSH1 0x1 SWAP1 SWAP2 ADD SWAP1 DUP5 ADD PUSH2 0x5E11 JUMP JUMPDEST POP DUP6 DUP3 LT ISZERO PUSH2 0x5E4E JUMPI DUP8 DUP6 ADD MLOAD PUSH1 0x0 NOT PUSH1 0x3 DUP9 SWAP1 SHL PUSH1 0xF8 AND SHR NOT AND DUP2 SSTORE JUMPDEST POP POP POP POP POP PUSH1 0x1 SWAP1 DUP2 SHL ADD SWAP1 SSTORE POP JUMP INVALID NUMBER 0xCD PUSH23 0xB5EB40DA9EA5EB31A199F443F7CF7955EC280BC5981A2E CALLVALUE GASLIMIT 0xC7 SWAP13 SWAP1 SSTORE LOG2 PUSH5 0x6970667358 0x22 SLT KECCAK256 0xD6 0xDA DUP16 0x2B NOT POP PUSH15 0x738CAD461C8B6CFF4B24BF710BE76E 0xA9 XOR DUP7 0xE3 PUSH23 0xA80EC2624364736F6C6343000813003300000000000000 ",
  "sha1": "89801d184af89a934d37f241c155137836fbedd5",
  "source": "// SPDX-License-Identifier: GPL-3.0-or-later\n\npragma solidity ^0.8.4;\n\nimport \"./administrable.sol\";\n\n/// @title A fractional DAO-like contract whose decisions can be voted upon by its shareholders\n/// @author Frederik W. L. Christoffersen\n/// @notice This contract is used as a votable administerable business entity.\n/// @custom:beaware This is a commercial contract.\ncontract Votable is Administrable {\n\n    /// @notice Struct representing info of a Referendum.\n    /// @param issuer The issuer of the Referendum.\n    /// @param proposalFunctionNames Names of functions to be called during implementation.\n    /// @param proposalArgumentData The parameters passed to the function calls as part of the implementation of the proposals.\n    struct ReferendumInfo {\n        address issuer;\n        string[] proposalFunctionNames;\n        bytes[] proposalArgumentData;\n    }\n\n    /// @notice Mapping pointing to dynamic info of a Referendum given a unique Referendum instance.\n    mapping(uint256 => ReferendumInfo) public infoByReferendum;\n\n    /// @notice Mapping pointing to favor numerator of a given Referendum.\n    mapping(uint256 => uint256) favorNumeratorByReferendum;\n    /// @notice Mapping pointing to favor denominator of a given Referendum.\n    mapping(uint256 => uint256) favorDenominatorByReferendum;\n\n    /// @notice Mapping pointing to numerator of total votes on a given Referendum.\n    mapping(uint256 => uint256) totalNumeratorByReferendum;\n    /// @notice Mapping pointing to denominator of total votes on given Referendum.\n    mapping(uint256 => uint256) totalDenominatorByReferendum;\n\n    /// @notice Mapping pointing to amount proposals implemented of a given Referendum.\n    mapping(uint256 => uint256) amountImplementedByReferendum;\n\n    /// @notice Mapping pointing to a boolean stating if the holder of a given Shard has voted on the given Referendum.\n    mapping(uint256 => mapping(bytes32 => bool)) hasVotedOnReferendum;\n\n    /// @notice Mapping pointing to a boolean stating if a given Referendum is pending.\n    mapping(uint256 => bool) pendingReferendums;\n\n    /// @notice Mapping pointing to a boolean stating if a given Referendum is to be implemented.\n    mapping(uint256 => bool) passedReferendums;\n\n\n    /// @notice Event that triggers when a Referendum is issued.\n    /// @param referendum The now pending Referendum that was issued.\n    event ReferendumIssued(\n        uint256 referendum\n        );\n\n    /// @notice Event that triggers when a Referendum is closed.\n    /// @param referendum The passed Referendum that was closed.\n    event ReferendumClosed(\n        uint256 referendum\n        );\n\n    /// @notice Event that triggers when a whole Referendum has been implemented.\n    /// @param referendum The passed Referendum that was implemented.\n    event ReferendumImplemented(\n        uint256 referendum\n        );\n\n    /// @notice Event that triggers when a vote is cast on a Referendum.\n    /// @param referendum The referendum that was voted on.\n    /// @param favor The boolean value signalling a FOR or AGAINST vote.\n    /// @param by The voter.\n    event VoteCast(\n        uint256 referendum,\n        bool favor,\n        address by\n        );\n\n    /// @notice Modifier that makes sure a given Referendum is pending.\n    /// @param referendum The Referendum to be checked for.\n    modifier onlyPendingReferendum(uint256 referendum) {\n        require(referendumIsPending(referendum), \"RNP\");\n        _;\n    }\n\n    constructor() {\n        _setPermit(\"iV\",msg.sender,PermitState.administrator,address(this));\n        _setPermit(\"iP\",msg.sender,PermitState.administrator,address(this));\n    }\n\n    /// @notice Votes on a existing referendum, with a fraction corresponding to the shard of the holder.\n    /// @param shard The Shard to vote with.\n    /// @param referendum The referendum to be voted on.\n    /// @param favor The boolean value signalling a FOR or AGAINST vote.\n    function vote(bytes32 shard, uint256 referendum, bool favor) external onlyHolder(shard) onlyPendingReferendum(referendum) onlyIfActive {\n        require(!hasVoted(referendum, msg.sender));\n        require(shardExisted(shard,referendum), \"SNV\");\n        hasVotedOnReferendum[referendum][shard] = true;\n        if (favor) {\n            (uint256 favorNumerator, uint256 favorDenominator) = addFractions(favorNumeratorByReferendum[referendum],favorDenominatorByReferendum[referendum],infoByShard[shard].numerator,infoByShard[shard].denominator);\n            (favorNumeratorByReferendum[referendum],favorDenominatorByReferendum[referendum]) = simplifyFraction(favorNumerator, favorDenominator);\n        }\n        (uint256 totalNumerator, uint256 totalDenominator) = addFractions(totalNumeratorByReferendum[referendum],totalDenominatorByReferendum[referendum],infoByShard[shard].numerator,infoByShard[shard].denominator);\n        (totalNumeratorByReferendum[referendum],totalDenominatorByReferendum[referendum]) = simplifyFraction(totalNumerator,totalDenominator);\n        \n        emit VoteCast(referendum, favor, msg.sender);\n        bool passed = getReferendumResult(referendum);\n        if (passed || totalNumeratorByReferendum[referendum] / totalDenominatorByReferendum[referendum] == 1 ) {\n\n            pendingReferendums[referendum] = false;\n            if (passed) { // if it got voted through\n                passedReferendums[referendum] = true;\n            }\n            emit ReferendumClosed(referendum);\n        }\n    }\n\n    /// @notice The potential errors of the Proposals aren't checked for before implementation!!!\n    /// @param proposalFunctionNames The names of the functions to be called as a result of the implementation of the proposals.\n    /// @param proposalArgumentData The parameters passed to the function calls as part of the implementation of the proposals.\n    function issueVote(string[] memory proposalFunctionNames, bytes[] memory proposalArgumentData) external onlyWithPermit(\"iV\") {\n        _issueVote(proposalFunctionNames,proposalArgumentData,msg.sender);\n    }\n\n    /// @notice Implements a given Proposal, within a given passed Referendum.\n    /// @param referendum The passed Referendum containing the Proposal.\n    /// @param proposalIndex The index of the proposal to be implemented.\n    function implementProposal(uint256 referendum, uint256 proposalIndex) external onlyWithPermit(\"iP\") {\n        _implementProposal(referendum,proposalIndex,msg.sender);\n    }\n\n    /// @notice Returns a boolean stating if a given Shard Holder has voted on a given Referendum.\n    /// @param referendum The Referendum to be checked for.\n    /// @param account The address of the potential Shard Holder voter to be checked for.\n    function hasVoted(uint256 referendum, address account) public view returns(bool) {\n        return hasVotedOnReferendum[referendum][shardByOwner[account]];\n    }\n\n    /// @notice Returns a boolean stating if a given Referendum has been voted through (>=50% FAVOR) or not.\n    /// @param referendum The Referendum to be checked for.\n    function getReferendumResult(uint256 referendum) public view returns(bool) {\n        // if forFraction is bigger than 50%, then the vote is FOR\n        if ((favorNumeratorByReferendum[referendum] / favorDenominatorByReferendum[referendum]) * 2 > 1) {\n            return true;\n        }\n        return false;\n    }\n    \n    /// @notice Returns a boolean stating if a given Referendum is pending or not.\n    /// @param referendum The Referendum to be checked for.\n    function referendumIsPending(uint256 referendum) public view returns(bool) {\n        return pendingReferendums[referendum]; \n    }\n\n    /// @notice Returns a boolean stating if a given Referendum is passed or not.\n    /// @param referendum The Referendum to be checked for.\n    function referendumIsPassed(uint256 referendum) public view returns(bool) {\n        return passedReferendums[referendum]; \n    }\n\n    /// @notice Returns a boolean stating if a given Referendum is implemented or not.\n    /// @param referendum The Referendum to be checked for.\n    function referendumIsImplemented(uint256 referendum) public view returns(bool) {\n        return amountImplementedByReferendum[referendum] == infoByReferendum[referendum].proposalFunctionNames.length; \n    }\n\n    /// @notice Returns a boolean stating if a given Proposal exists within a given Referendum.\n    /// @param referendum The Referendum to be checked for.\n    /// @param proposalIndex The index of the proposal to be checked for.\n    function proposalExists(uint256 referendum, uint256 proposalIndex) public view returns(bool) {\n        return infoByReferendum[referendum].proposalFunctionNames.length > proposalIndex;\n    }\n\n    /// @notice The potential errors of the Proposals aren't checked for before implementation!!!\n    /// @param proposalFunctionNames The names of the functions to be called as a result of the implementation of the proposals.\n    /// @param proposalArgumentData The parameters passed to the function calls as part of the implementation of the proposals.\n    function _issueVote(string[] memory proposalFunctionNames, bytes[] memory proposalArgumentData, address by) internal onlyIfActive incrementClock {\n        uint256 transferTime = clock;\n        require(proposalFunctionNames.length == proposalArgumentData.length, \"PCW\");\n        pendingReferendums[transferTime] = true;\n        infoByReferendum[transferTime] = ReferendumInfo({\n            issuer: by,\n            proposalFunctionNames: proposalFunctionNames,\n            proposalArgumentData: proposalArgumentData\n            });\n        favorDenominatorByReferendum[transferTime] = 1;\n        totalDenominatorByReferendum[transferTime] = 1;\n        emit ReferendumIssued(transferTime);\n    }\n\n    /// @notice Implements a given Proposal, within a given passed Referendum.\n    /// @param referendum The passed Referendum containing the Proposal.\n    /// @param proposalIndex The index of the proposal to be implemented.\n    /// @param by The issuer of the proposal implementation.\n    function _implementProposal(uint256 referendum, uint256 proposalIndex, address by) internal onlyIfActive {\n        require(proposalExists(referendum,proposalIndex),\"PDE\");\n        require(amountImplementedByReferendum[referendum] == proposalIndex, \"WPO\");\n        amountImplementedByReferendum[referendum] += 1;\n        string memory proposalFunctionName = infoByReferendum[referendum].proposalFunctionNames[proposalIndex];\n        bytes memory proposalArgumentData = infoByReferendum[referendum].proposalArgumentData[proposalIndex];\n        bytes32 functionNameHash = keccak256(bytes(proposalFunctionName));\n                    if (functionNameHash == keccak256(bytes(\"iV\"))) {\n                        (string[] memory proposalFunctionNames, bytes[] memory _proposalArgumentData) = abi.decode(proposalArgumentData, (string[], bytes[]));\n                        _issueVote(proposalFunctionNames, _proposalArgumentData,address(this));\n                    }\n                    if (functionNameHash == keccak256(bytes(\"sP\"))) {\n                        (string memory permitName, PermitState newState, address account) = abi.decode(proposalArgumentData, (string, PermitState,address));\n                        _setPermit(permitName,account,newState,address(this));\n                    }\n                    if (functionNameHash == keccak256(bytes(\"sBP\"))) {\n                        (string memory permitName, PermitState newState) = abi.decode(proposalArgumentData, (string, PermitState));\n                        _setBasePermit(permitName,newState,address(this));\n                    }\n                    if (functionNameHash == keccak256(bytes(\"sNS\"))) {\n                        (bool newState) = abi.decode(proposalArgumentData, (bool));\n                        _setNonShardHolderState(newState,address(this));\n                    }\n                    if (functionNameHash == keccak256(bytes(\"tT\"))) {\n                        (string memory fromBankName, address tokenAddress, uint256 value, address to) = abi.decode(proposalArgumentData, (string, address, uint256,address));\n                        _transferTokenFromBank(fromBankName,tokenAddress,value,to,address(this));\n                    }\n                    if (functionNameHash == keccak256(bytes(\"mT\"))) {\n                        (string memory fromBankName, string memory toBankName, address tokenAddress, uint256 value) = abi.decode(proposalArgumentData, (string, string, address, uint256));\n                        _moveToken(fromBankName,toBankName,tokenAddress,value,address(this));\n                    }\n                    if (functionNameHash == keccak256(bytes(\"iD\"))) {\n                        (string memory bankName, address tokenAddress, uint256 value) = abi.decode(proposalArgumentData, (string,address,uint256));\n                        _issueDividend(bankName,tokenAddress,value,address(this));\n                    }\n                    if (functionNameHash == keccak256(bytes(\"dD\"))) {\n                        (uint256 dividend) = abi.decode(proposalArgumentData, (uint256));\n                        _dissolveDividend(dividend,address(this));\n                    }\n                    if (functionNameHash == keccak256(bytes(\"cB\"))) {\n                        (string memory bankName, address bankAdmin) = abi.decode(proposalArgumentData, (string, address));\n                        _createBank(bankName,bankAdmin,address(this));\n                    }\n                    if (functionNameHash == keccak256(bytes(\"dB\"))) {\n                        (string memory bankName) = abi.decode(proposalArgumentData, (string));\n                        _deleteBank(bankName,address(this));\n                    }\n                    if (functionNameHash == keccak256(bytes(\"aBA\"))) {\n                        (string memory bankName, address bankAdmin) = abi.decode(proposalArgumentData, (string, address));\n                        _addBankAdmin(bankName,bankAdmin,address(this));\n                    }\n                    if (functionNameHash == keccak256(bytes(\"rBA\"))) {\n                        (string memory bankName, address bankAdmin) = abi.decode(proposalArgumentData, (string, address));\n                        _removeBankAdmin(bankName,bankAdmin,address(this));\n                    }\n                    if (functionNameHash == keccak256(bytes(\"rTA\"))) {\n                        (address tokenAddress) = abi.decode(proposalArgumentData, (address));\n                        _registerTokenAddress(tokenAddress,address(this));\n                    }\n                    if (functionNameHash == keccak256(bytes(\"uTA\"))) {\n                        (address tokenAddress) = abi.decode(proposalArgumentData, (address));\n                        _unregisterTokenAddress(tokenAddress,address(this));\n                    }\n                    if (functionNameHash == keccak256(bytes(\"l\"))) {\n                        _liquidize(address(this));\n                    }\n                    else {\n                        revert(\"WF\");\n                    }\n                    emit ActionTaken(\"iP\",abi.encode(referendum,proposalIndex),by);\n\n        if (amountImplementedByReferendum[referendum] == infoByReferendum[referendum].proposalFunctionNames.length) {\n            emit ReferendumImplemented(referendum);\n        }\n    }\n}",
  "sourcePath": "contracts/votable.sol",
  "type": "contract"
}