{
  "abi": [
    {
      "inputs": [
        {
          "internalType": "uint256",
          "name": "amount",
          "type": "uint256"
        }
      ],
      "stateMutability": "nonpayable",
      "type": "constructor"
    },
    {
      "anonymous": false,
      "inputs": [
        {
          "indexed": false,
          "internalType": "string",
          "name": "func",
          "type": "string"
        },
        {
          "indexed": false,
          "internalType": "bytes",
          "name": "args",
          "type": "bytes"
        },
        {
          "indexed": false,
          "internalType": "address",
          "name": "by",
          "type": "address"
        }
      ],
      "name": "ActionTaken",
      "type": "event"
    },
    {
      "anonymous": false,
      "inputs": [
        {
          "indexed": false,
          "internalType": "uint256",
          "name": "dividendClock",
          "type": "uint256"
        },
        {
          "indexed": false,
          "internalType": "uint256",
          "name": "value",
          "type": "uint256"
        },
        {
          "indexed": false,
          "internalType": "address",
          "name": "by",
          "type": "address"
        }
      ],
      "name": "DividendClaimed",
      "type": "event"
    },
    {
      "anonymous": false,
      "inputs": [
        {
          "indexed": false,
          "internalType": "uint256",
          "name": "referendum",
          "type": "uint256"
        }
      ],
      "name": "ReferendumClosed",
      "type": "event"
    },
    {
      "anonymous": false,
      "inputs": [
        {
          "indexed": false,
          "internalType": "uint256",
          "name": "referendum",
          "type": "uint256"
        }
      ],
      "name": "ReferendumImplemented",
      "type": "event"
    },
    {
      "anonymous": false,
      "inputs": [
        {
          "indexed": false,
          "internalType": "enum Shardable.SaleState",
          "name": "status",
          "type": "uint8"
        },
        {
          "indexed": false,
          "internalType": "bytes32",
          "name": "shard",
          "type": "bytes32"
        },
        {
          "components": [
            {
              "internalType": "uint256",
              "name": "amount",
              "type": "uint256"
            },
            {
              "internalType": "uint256",
              "name": "price",
              "type": "uint256"
            },
            {
              "internalType": "address",
              "name": "tokenAddress",
              "type": "address"
            },
            {
              "internalType": "address",
              "name": "to",
              "type": "address"
            }
          ],
          "indexed": false,
          "internalType": "struct Shardable.ShardSale",
          "name": "sale",
          "type": "tuple"
        }
      ],
      "name": "SaleStateUpdated",
      "type": "event"
    },
    {
      "anonymous": false,
      "inputs": [
        {
          "indexed": false,
          "internalType": "bool",
          "name": "status",
          "type": "bool"
        },
        {
          "indexed": false,
          "internalType": "bytes32",
          "name": "shard",
          "type": "bytes32"
        }
      ],
      "name": "ShardUpdated",
      "type": "event"
    },
    {
      "anonymous": false,
      "inputs": [
        {
          "indexed": false,
          "internalType": "uint256",
          "name": "referendumClock",
          "type": "uint256"
        },
        {
          "indexed": false,
          "internalType": "bool",
          "name": "favor",
          "type": "bool"
        },
        {
          "indexed": false,
          "internalType": "address",
          "name": "by",
          "type": "address"
        }
      ],
      "name": "VoteCast",
      "type": "event"
    },
    {
      "inputs": [
        {
          "internalType": "address",
          "name": "tokenAddress",
          "type": "address"
        }
      ],
      "name": "acceptsToken",
      "outputs": [
        {
          "internalType": "bool",
          "name": "",
          "type": "bool"
        }
      ],
      "stateMutability": "view",
      "type": "function"
    },
    {
      "inputs": [],
      "name": "active",
      "outputs": [
        {
          "internalType": "bool",
          "name": "",
          "type": "bool"
        }
      ],
      "stateMutability": "view",
      "type": "function"
    },
    {
      "inputs": [
        {
          "internalType": "string",
          "name": "bankName",
          "type": "string"
        },
        {
          "internalType": "address",
          "name": "bankAdmin",
          "type": "address"
        }
      ],
      "name": "addBankAdmin",
      "outputs": [],
      "stateMutability": "nonpayable",
      "type": "function"
    },
    {
      "inputs": [
        {
          "internalType": "string",
          "name": "bankName",
          "type": "string"
        }
      ],
      "name": "bankExists",
      "outputs": [
        {
          "internalType": "bool",
          "name": "",
          "type": "bool"
        }
      ],
      "stateMutability": "view",
      "type": "function"
    },
    {
      "inputs": [
        {
          "internalType": "string",
          "name": "bankName",
          "type": "string"
        }
      ],
      "name": "bankIsEmpty",
      "outputs": [
        {
          "internalType": "bool",
          "name": "",
          "type": "bool"
        }
      ],
      "stateMutability": "view",
      "type": "function"
    },
    {
      "inputs": [
        {
          "internalType": "bytes32",
          "name": "shard",
          "type": "bytes32"
        }
      ],
      "name": "cancelSale",
      "outputs": [],
      "stateMutability": "nonpayable",
      "type": "function"
    },
    {
      "inputs": [
        {
          "internalType": "bytes32",
          "name": "shard",
          "type": "bytes32"
        },
        {
          "internalType": "uint256",
          "name": "dividend",
          "type": "uint256"
        }
      ],
      "name": "claimDividend",
      "outputs": [],
      "stateMutability": "nonpayable",
      "type": "function"
    },
    {
      "inputs": [
        {
          "internalType": "address",
          "name": "tokenAddress",
          "type": "address"
        }
      ],
      "name": "claimLiquid",
      "outputs": [],
      "stateMutability": "nonpayable",
      "type": "function"
    },
    {
      "inputs": [
        {
          "internalType": "address",
          "name": "tokenAddress",
          "type": "address"
        }
      ],
      "name": "claimTerminatedLiquid",
      "outputs": [],
      "stateMutability": "nonpayable",
      "type": "function"
    },
    {
      "inputs": [
        {
          "internalType": "string",
          "name": "bankName",
          "type": "string"
        },
        {
          "internalType": "address",
          "name": "bankAdmin",
          "type": "address"
        }
      ],
      "name": "createBank",
      "outputs": [],
      "stateMutability": "nonpayable",
      "type": "function"
    },
    {
      "inputs": [
        {
          "internalType": "string",
          "name": "bankName",
          "type": "string"
        }
      ],
      "name": "deleteBank",
      "outputs": [],
      "stateMutability": "nonpayable",
      "type": "function"
    },
    {
      "inputs": [
        {
          "internalType": "uint256",
          "name": "dividend",
          "type": "uint256"
        }
      ],
      "name": "dissolveDividend",
      "outputs": [],
      "stateMutability": "nonpayable",
      "type": "function"
    },
    {
      "inputs": [
        {
          "internalType": "uint256",
          "name": "dividend",
          "type": "uint256"
        }
      ],
      "name": "dividendExists",
      "outputs": [
        {
          "internalType": "bool",
          "name": "",
          "type": "bool"
        }
      ],
      "stateMutability": "view",
      "type": "function"
    },
    {
      "inputs": [
        {
          "internalType": "string",
          "name": "bankName",
          "type": "string"
        },
        {
          "internalType": "address",
          "name": "tokenAddress",
          "type": "address"
        }
      ],
      "name": "getBankBalance",
      "outputs": [
        {
          "internalType": "uint256",
          "name": "",
          "type": "uint256"
        }
      ],
      "stateMutability": "view",
      "type": "function"
    },
    {
      "inputs": [],
      "name": "getCurrentClock",
      "outputs": [
        {
          "internalType": "uint256",
          "name": "",
          "type": "uint256"
        }
      ],
      "stateMutability": "view",
      "type": "function"
    },
    {
      "inputs": [
        {
          "internalType": "uint256",
          "name": "dividend",
          "type": "uint256"
        }
      ],
      "name": "getDividendResidual",
      "outputs": [
        {
          "internalType": "uint256",
          "name": "",
          "type": "uint256"
        }
      ],
      "stateMutability": "view",
      "type": "function"
    },
    {
      "inputs": [
        {
          "internalType": "uint256",
          "name": "dividend",
          "type": "uint256"
        }
      ],
      "name": "getDividendToken",
      "outputs": [
        {
          "internalType": "address",
          "name": "",
          "type": "address"
        }
      ],
      "stateMutability": "view",
      "type": "function"
    },
    {
      "inputs": [
        {
          "internalType": "uint256",
          "name": "dividend",
          "type": "uint256"
        }
      ],
      "name": "getDividendValue",
      "outputs": [
        {
          "internalType": "uint256",
          "name": "",
          "type": "uint256"
        }
      ],
      "stateMutability": "view",
      "type": "function"
    },
    {
      "inputs": [
        {
          "internalType": "address",
          "name": "tokenAddress",
          "type": "address"
        }
      ],
      "name": "getLiquidResidual",
      "outputs": [
        {
          "internalType": "uint256",
          "name": "",
          "type": "uint256"
        }
      ],
      "stateMutability": "view",
      "type": "function"
    },
    {
      "inputs": [
        {
          "internalType": "uint256",
          "name": "referendum",
          "type": "uint256"
        }
      ],
      "name": "getReferendumResult",
      "outputs": [
        {
          "internalType": "bool",
          "name": "",
          "type": "bool"
        }
      ],
      "stateMutability": "view",
      "type": "function"
    },
    {
      "inputs": [
        {
          "internalType": "bytes32",
          "name": "shard",
          "type": "bytes32"
        }
      ],
      "name": "getShardExpirationClock",
      "outputs": [
        {
          "internalType": "uint256",
          "name": "",
          "type": "uint256"
        }
      ],
      "stateMutability": "view",
      "type": "function"
    },
    {
      "inputs": [
        {
          "internalType": "bytes32",
          "name": "shard",
          "type": "bytes32"
        }
      ],
      "name": "getShardSalePrice",
      "outputs": [
        {
          "internalType": "uint256",
          "name": "",
          "type": "uint256"
        }
      ],
      "stateMutability": "view",
      "type": "function"
    },
    {
      "inputs": [
        {
          "internalType": "string",
          "name": "permitName",
          "type": "string"
        },
        {
          "internalType": "address",
          "name": "account",
          "type": "address"
        }
      ],
      "name": "hasPermit",
      "outputs": [
        {
          "internalType": "bool",
          "name": "",
          "type": "bool"
        }
      ],
      "stateMutability": "view",
      "type": "function"
    },
    {
      "inputs": [
        {
          "internalType": "uint256",
          "name": "referendum",
          "type": "uint256"
        },
        {
          "internalType": "address",
          "name": "account",
          "type": "address"
        }
      ],
      "name": "hasVoted",
      "outputs": [
        {
          "internalType": "bool",
          "name": "",
          "type": "bool"
        }
      ],
      "stateMutability": "view",
      "type": "function"
    },
    {
      "inputs": [
        {
          "internalType": "uint256",
          "name": "referendum",
          "type": "uint256"
        },
        {
          "internalType": "uint256",
          "name": "proposalIndex",
          "type": "uint256"
        }
      ],
      "name": "implementProposal",
      "outputs": [],
      "stateMutability": "nonpayable",
      "type": "function"
    },
    {
      "inputs": [
        {
          "internalType": "uint256",
          "name": "",
          "type": "uint256"
        }
      ],
      "name": "infoByReferendum",
      "outputs": [
        {
          "internalType": "address",
          "name": "issuer",
          "type": "address"
        }
      ],
      "stateMutability": "view",
      "type": "function"
    },
    {
      "inputs": [
        {
          "internalType": "bytes32",
          "name": "",
          "type": "bytes32"
        }
      ],
      "name": "infoByShard",
      "outputs": [
        {
          "internalType": "uint256",
          "name": "amount",
          "type": "uint256"
        },
        {
          "internalType": "address",
          "name": "owner",
          "type": "address"
        },
        {
          "internalType": "uint256",
          "name": "creationClock",
          "type": "uint256"
        }
      ],
      "stateMutability": "view",
      "type": "function"
    },
    {
      "inputs": [
        {
          "internalType": "string",
          "name": "bankName",
          "type": "string"
        },
        {
          "internalType": "address",
          "name": "account",
          "type": "address"
        }
      ],
      "name": "isBankAdmin",
      "outputs": [
        {
          "internalType": "bool",
          "name": "",
          "type": "bool"
        }
      ],
      "stateMutability": "view",
      "type": "function"
    },
    {
      "inputs": [
        {
          "internalType": "string",
          "name": "permitName",
          "type": "string"
        },
        {
          "internalType": "address",
          "name": "account",
          "type": "address"
        }
      ],
      "name": "isPermitAdmin",
      "outputs": [
        {
          "internalType": "bool",
          "name": "",
          "type": "bool"
        }
      ],
      "stateMutability": "view",
      "type": "function"
    },
    {
      "inputs": [
        {
          "internalType": "address",
          "name": "account",
          "type": "address"
        }
      ],
      "name": "isShardHolder",
      "outputs": [
        {
          "internalType": "bool",
          "name": "",
          "type": "bool"
        }
      ],
      "stateMutability": "view",
      "type": "function"
    },
    {
      "inputs": [],
      "name": "isTerminated",
      "outputs": [
        {
          "internalType": "bool",
          "name": "",
          "type": "bool"
        }
      ],
      "stateMutability": "view",
      "type": "function"
    },
    {
      "inputs": [
        {
          "internalType": "bytes32",
          "name": "shard",
          "type": "bytes32"
        }
      ],
      "name": "isValidShard",
      "outputs": [
        {
          "internalType": "bool",
          "name": "",
          "type": "bool"
        }
      ],
      "stateMutability": "view",
      "type": "function"
    },
    {
      "inputs": [
        {
          "internalType": "string",
          "name": "bankName",
          "type": "string"
        },
        {
          "internalType": "address",
          "name": "tokenAddress",
          "type": "address"
        },
        {
          "internalType": "uint256",
          "name": "value",
          "type": "uint256"
        }
      ],
      "name": "issueDividend",
      "outputs": [],
      "stateMutability": "nonpayable",
      "type": "function"
    },
    {
      "inputs": [
        {
          "internalType": "string[]",
          "name": "proposalFuncs",
          "type": "string[]"
        },
        {
          "internalType": "bytes[]",
          "name": "proposalArgs",
          "type": "bytes[]"
        }
      ],
      "name": "issueReferendum",
      "outputs": [],
      "stateMutability": "nonpayable",
      "type": "function"
    },
    {
      "inputs": [
        {
          "internalType": "uint256",
          "name": "amount",
          "type": "uint256"
        },
        {
          "internalType": "address",
          "name": "tokenAddress",
          "type": "address"
        },
        {
          "internalType": "uint256",
          "name": "price",
          "type": "uint256"
        },
        {
          "internalType": "address",
          "name": "to",
          "type": "address"
        }
      ],
      "name": "issueShards",
      "outputs": [],
      "stateMutability": "nonpayable",
      "type": "function"
    },
    {
      "inputs": [
        {
          "internalType": "address",
          "name": "",
          "type": "address"
        }
      ],
      "name": "liquid",
      "outputs": [
        {
          "internalType": "uint256",
          "name": "",
          "type": "uint256"
        }
      ],
      "stateMutability": "view",
      "type": "function"
    },
    {
      "inputs": [],
      "name": "liquidize",
      "outputs": [],
      "stateMutability": "nonpayable",
      "type": "function"
    },
    {
      "inputs": [
        {
          "internalType": "string",
          "name": "fromBankName",
          "type": "string"
        },
        {
          "internalType": "string",
          "name": "toBankName",
          "type": "string"
        },
        {
          "internalType": "address",
          "name": "tokenAddress",
          "type": "address"
        },
        {
          "internalType": "uint256",
          "name": "value",
          "type": "uint256"
        }
      ],
      "name": "moveToken",
      "outputs": [],
      "stateMutability": "nonpayable",
      "type": "function"
    },
    {
      "inputs": [
        {
          "internalType": "uint256",
          "name": "referendum",
          "type": "uint256"
        },
        {
          "internalType": "uint256",
          "name": "proposalIndex",
          "type": "uint256"
        }
      ],
      "name": "proposalExists",
      "outputs": [
        {
          "internalType": "bool",
          "name": "",
          "type": "bool"
        }
      ],
      "stateMutability": "view",
      "type": "function"
    },
    {
      "inputs": [
        {
          "internalType": "bytes32",
          "name": "shard",
          "type": "bytes32"
        },
        {
          "internalType": "uint256",
          "name": "amount",
          "type": "uint256"
        },
        {
          "internalType": "uint256",
          "name": "price",
          "type": "uint256"
        }
      ],
      "name": "purchase",
      "outputs": [],
      "stateMutability": "payable",
      "type": "function"
    },
    {
      "inputs": [
        {
          "internalType": "bytes32",
          "name": "shard",
          "type": "bytes32"
        },
        {
          "internalType": "uint256",
          "name": "amount",
          "type": "uint256"
        },
        {
          "internalType": "address",
          "name": "tokenAddress",
          "type": "address"
        },
        {
          "internalType": "uint256",
          "name": "price",
          "type": "uint256"
        },
        {
          "internalType": "address",
          "name": "to",
          "type": "address"
        }
      ],
      "name": "putForSale",
      "outputs": [],
      "stateMutability": "nonpayable",
      "type": "function"
    },
    {
      "inputs": [
        {
          "internalType": "string",
          "name": "bankName",
          "type": "string"
        }
      ],
      "name": "receiveEther",
      "outputs": [],
      "stateMutability": "payable",
      "type": "function"
    },
    {
      "inputs": [
        {
          "internalType": "address",
          "name": "tokenAddress",
          "type": "address"
        },
        {
          "internalType": "uint256",
          "name": "value",
          "type": "uint256"
        },
        {
          "internalType": "string",
          "name": "bankName",
          "type": "string"
        }
      ],
      "name": "receiveToken",
      "outputs": [],
      "stateMutability": "nonpayable",
      "type": "function"
    },
    {
      "inputs": [
        {
          "internalType": "uint256",
          "name": "referendum",
          "type": "uint256"
        }
      ],
      "name": "referendumIsImplemented",
      "outputs": [
        {
          "internalType": "bool",
          "name": "",
          "type": "bool"
        }
      ],
      "stateMutability": "view",
      "type": "function"
    },
    {
      "inputs": [
        {
          "internalType": "uint256",
          "name": "referendum",
          "type": "uint256"
        }
      ],
      "name": "referendumIsPassed",
      "outputs": [
        {
          "internalType": "bool",
          "name": "",
          "type": "bool"
        }
      ],
      "stateMutability": "view",
      "type": "function"
    },
    {
      "inputs": [
        {
          "internalType": "uint256",
          "name": "referendum",
          "type": "uint256"
        }
      ],
      "name": "referendumIsPending",
      "outputs": [
        {
          "internalType": "bool",
          "name": "",
          "type": "bool"
        }
      ],
      "stateMutability": "view",
      "type": "function"
    },
    {
      "inputs": [
        {
          "internalType": "address",
          "name": "tokenAddress",
          "type": "address"
        }
      ],
      "name": "registerTokenAddress",
      "outputs": [],
      "stateMutability": "nonpayable",
      "type": "function"
    },
    {
      "inputs": [
        {
          "internalType": "string",
          "name": "bankName",
          "type": "string"
        },
        {
          "internalType": "address",
          "name": "bankAdmin",
          "type": "address"
        }
      ],
      "name": "removeBankAdmin",
      "outputs": [],
      "stateMutability": "nonpayable",
      "type": "function"
    },
    {
      "inputs": [
        {
          "internalType": "string",
          "name": "permitName",
          "type": "string"
        },
        {
          "internalType": "address",
          "name": "account",
          "type": "address"
        },
        {
          "internalType": "enum Administrable.PermitState",
          "name": "newState",
          "type": "uint8"
        }
      ],
      "name": "setPermit",
      "outputs": [],
      "stateMutability": "nonpayable",
      "type": "function"
    },
    {
      "inputs": [
        {
          "internalType": "address",
          "name": "",
          "type": "address"
        }
      ],
      "name": "shardByOwner",
      "outputs": [
        {
          "internalType": "bytes32",
          "name": "",
          "type": "bytes32"
        }
      ],
      "stateMutability": "view",
      "type": "function"
    },
    {
      "inputs": [
        {
          "internalType": "bytes32",
          "name": "shard",
          "type": "bytes32"
        },
        {
          "internalType": "uint256",
          "name": "atClock",
          "type": "uint256"
        }
      ],
      "name": "shardExisted",
      "outputs": [
        {
          "internalType": "bool",
          "name": "",
          "type": "bool"
        }
      ],
      "stateMutability": "view",
      "type": "function"
    },
    {
      "inputs": [
        {
          "internalType": "bytes32",
          "name": "senderShard",
          "type": "bytes32"
        },
        {
          "internalType": "uint256",
          "name": "amount",
          "type": "uint256"
        },
        {
          "internalType": "address",
          "name": "to",
          "type": "address"
        }
      ],
      "name": "split",
      "outputs": [],
      "stateMutability": "nonpayable",
      "type": "function"
    },
    {
      "inputs": [
        {
          "internalType": "uint256",
          "name": "",
          "type": "uint256"
        }
      ],
      "name": "totalShardAmountByClock",
      "outputs": [
        {
          "internalType": "uint256",
          "name": "",
          "type": "uint256"
        }
      ],
      "stateMutability": "view",
      "type": "function"
    },
    {
      "inputs": [
        {
          "internalType": "string",
          "name": "fromBankName",
          "type": "string"
        },
        {
          "internalType": "address",
          "name": "tokenAddress",
          "type": "address"
        },
        {
          "internalType": "uint256",
          "name": "value",
          "type": "uint256"
        },
        {
          "internalType": "address",
          "name": "to",
          "type": "address"
        },
        {
          "internalType": "string",
          "name": "toBankName",
          "type": "string"
        }
      ],
      "name": "transferTokenFromBank",
      "outputs": [],
      "stateMutability": "nonpayable",
      "type": "function"
    },
    {
      "inputs": [
        {
          "internalType": "address",
          "name": "tokenAddress",
          "type": "address"
        }
      ],
      "name": "unregisterTokenAddress",
      "outputs": [],
      "stateMutability": "nonpayable",
      "type": "function"
    },
    {
      "inputs": [
        {
          "internalType": "bytes32",
          "name": "shard",
          "type": "bytes32"
        },
        {
          "internalType": "uint256",
          "name": "referendum",
          "type": "uint256"
        },
        {
          "internalType": "bool",
          "name": "favor",
          "type": "bool"
        }
      ],
      "name": "vote",
      "outputs": [],
      "stateMutability": "nonpayable",
      "type": "function"
    },
    {
      "stateMutability": "payable",
      "type": "receive"
    }
  ],
  "bytecode": "6080604052600080553480156200001557600080fd5b50604051620068ef380380620068ef833981016040819052620000389162000592565b8080806200004981336000620001c6565b600080548152600260209081526040808320939093556001805460ff191681179055825190810190925281526200008291503362000336565b620000b060405180604001604052806002815260200161695360f01b8152503360026200047860201b60201c565b620000de604051806040016040528060028152602001611b5160f21b8152503360026200047860201b60201c565b6200010c6040518060400160405280600281526020016136a160f11b8152503360026200047860201b60201c565b6200013a604051806040016040528060028152602001616c4560f01b8152503360026200047860201b60201c565b6040805180820190915260038152621b505560ea1b6020820152620001629033600262000478565b50620001916040518060400160405280600281526020016134a960f11b8152503360026200047860201b60201c565b620001bf60405180604001604052806002815260200161069560f41b8152503360026200047860201b60201c565b506200074e565b60008311620002015760405162461bcd60e51b815260206004820152600260248201526129ad60f11b60448201526064015b60405180910390fd5b6000805b6040516001600160601b0319606086901b166020820152603481018490526054810183905260740160408051601f198184030181529181528151602092830120600081815260039093529120600101549091506001600160a01b0316156200027c57816200027381620005ac565b92505062000205565b6001600160a01b03848116600081815260046020908152604080832086905585835260078252808320600019905580516060810182528a81528083019485528082018981528785526003845293829020905181559351600180860180546001600160a01b0319169290971691909117909555915160029093019290925580519283529082018390527f12769fd465856c3651942a04374f21755b56a66422aaed87c7e56e936f6dd3d0910160405180910390a15050505050565b6001805460ff16151514620003735760405162461bcd60e51b8152602060048201526002602482015261115360f21b6044820152606401620001f8565b6200037e8262000560565b15620003b25760405162461bcd60e51b8152602060048201526002602482015261414560f01b6044820152606401620001f8565b6001601083604051620003c69190620005fa565b90815260408051602092819003830181206001600160a01b038616600090815293529120805460ff191692151592909217909155600190600d906200040d908590620005fa565b90815260405160209181900382018120805460ff191693151593909317909255600080516020620068cf833981519152916200044e91859185910162000646565b60408051601f19818403018152908290526200046c91339062000672565b60405180910390a15050565b6001805460ff16151514620004b55760405162461bcd60e51b8152602060048201526002602482015261115360f21b6044820152606401620001f8565b80601184604051620004c89190620005fa565b90815260408051602092819003830190206001600160a01b038616600090815292529020805460ff19166001836002811115620005095762000509620006b7565b0217905550600080516020620068cf8339815191528383836040516020016200053593929190620006cd565b60408051601f19818403018152908290526200055391339062000720565b60405180910390a1505050565b6000600d82604051620005749190620005fa565b9081526040519081900360200190205460ff16151560011492915050565b600060208284031215620005a557600080fd5b5051919050565b600060018201620005cd57634e487b7160e01b600052601160045260246000fd5b5060010190565b60005b83811015620005f1578181015183820152602001620005d7565b50506000910152565b600082516200060e818460208701620005d4565b9190910192915050565b6000815180845262000632816020860160208601620005d4565b601f01601f19169290920160200192915050565b6040815260006200065b604083018562000618565b905060018060a01b03831660208301529392505050565b60608152600260608201526131a160f11b608082015260a060208201526000620006a060a083018562000618565b905060018060a01b03831660408301529392505050565b634e487b7160e01b600052602160045260246000fd5b606081526000620006e2606083018662000618565b6001600160a01b03851660208401529050600383106200071257634e487b7160e01b600052602160045260246000fd5b826040830152949350505050565b606081526002606082015261073560f41b608082015260a060208201526000620006a060a083018562000618565b616171806200075e6000396000f3fe60806040526004361061036f5760003560e01c8063859d9fd5116101c6578063b35ca4f3116100f7578063db5dc9b711610095578063eadb97081161006f578063eadb970814610b7b578063efae89f814610bad578063f7aae62114610bda578063fd06636b14610bfa57600080fd5b8063db5dc9b714610b0e578063e1c34c1f14610b2e578063e6778fce14610b4e57600080fd5b8063c4802eb2116100d1578063c4802eb214610a7c578063c5438a5514610aa9578063c8c56af014610ac9578063d1cc997614610af957600080fd5b8063b35ca4f3146109c4578063b4af7d59146109f4578063bcedb2e014610a1457600080fd5b8063a320992d11610164578063a902780f1161013e578063a902780f1461095c578063a907b6c514610971578063ab2d662b14610991578063b2cb78ab146109a457600080fd5b8063a320992d146108e6578063a343c53514610906578063a80aed761461093c57600080fd5b80639211b7b3116101a05780639211b7b31461084657806397890db9146108765780639995b9a914610896578063a1916aef146108c657600080fd5b8063859d9fd5146107e6578063868399a5146108065780638786df6a1461082657600080fd5b80633601f062116102a05780634c46360b1161023e57806363879c0b1161021857806363879c0b1461073957806364e5378f146107595780636d36e209146107965780637b785493146107b657600080fd5b80634c46360b1461068e5780635beeff33146106be57806362748dcc146106eb57600080fd5b80633baf28f81161027a5780633baf28f8146105c85780633c06df46146105e85780633dbeaa5414610608578063438596321461063e57600080fd5b80633601f06214610575578063384fe2b5146105955780633a6c81d2146105b557600080fd5b8063258e4d9f1161030d5780632ef37926116102e75780632ef37926146104f55780632f2e9a2a14610515578063350546d814610535578063354cd1351461055557600080fd5b8063258e4d9f146104955780632c729fd1146104b55780632dec7cd2146104d557600080fd5b80630bea8985116103495780630bea8985146104155780630d3330a114610435578063169936b414610455578063236566421461047557600080fd5b806302fb0c5e1461039657806305c558f5146103c5578063066792d2146103da57600080fd5b366103915761038f60003460405180602001604052806000815250610c1a565b005b600080fd5b3480156103a257600080fd5b506001546103b09060ff1681565b60405190151581526020015b60405180910390f35b3480156103d157600080fd5b5061038f610dcd565b3480156103e657600080fd5b506104076103f5366004614dd8565b60026020526000908152604090205481565b6040519081526020016103bc565b34801561042157600080fd5b5061038f610430366004614dd8565b610e06565b34801561044157600080fd5b5061038f610450366004614e06565b610edc565b34801561046157600080fd5b506103b0610470366004614eee565b610fb1565b34801561048157600080fd5b5061038f610490366004614dd8565b61100f565b3480156104a157600080fd5b506103b06104b0366004614f2a565b61104a565b3480156104c157600080fd5b5061038f6104d0366004614f89565b61109f565b3480156104e157600080fd5b506104076104f0366004614f2a565b61132b565b34801561050157600080fd5b5061038f610510366004614f2a565b61136c565b34801561052157600080fd5b5061038f610530366004614f2a565b6113ca565b34801561054157600080fd5b5061038f610550366004614e06565b61141c565b34801561056157600080fd5b5061038f610570366004614fc2565b6115ca565b34801561058157600080fd5b5061038f6105903660046150a6565b6117fc565b3480156105a157600080fd5b5061038f6105b0366004614eee565b611834565b61038f6105c3366004614eee565b61187f565b3480156105d457600080fd5b5061038f6105e3366004615179565b61188b565b3480156105f457600080fd5b5061038f610603366004614fc2565b6118cc565b34801561061457600080fd5b50610407610623366004614e06565b6001600160a01b03166000908152600b602052604090205490565b34801561064a57600080fd5b506103b06106593660046151c3565b6000918252601a602090815260408084206001600160a01b039390931684526004825280842054845291905290205460ff1690565b34801561069a57600080fd5b506104076106a9366004614dd8565b60009081526013602052604090206001015490565b3480156106ca57600080fd5b506104076106d9366004614e06565b60096020526000908152604090205481565b3480156106f757600080fd5b50610721610706366004614dd8565b6000908152601360205260409020546001600160a01b031690565b6040516001600160a01b0390911681526020016103bc565b34801561074557600080fd5b5061038f6107543660046151e8565b611904565b34801561076557600080fd5b506103b0610774366004614dd8565b6000908152601660209081526040808320600101546019909252909120541490565b3480156107a257600080fd5b5061038f6107b1366004615241565b611951565b3480156107c257600080fd5b506104076107d1366004614dd8565b60009081526006602052604090206001015490565b3480156107f257600080fd5b5061038f610801366004614e06565b611972565b34801561081257600080fd5b506103b0610821366004614e06565b6119d0565b34801561083257600080fd5b5061038f610841366004614e06565b611a05565b34801561085257600080fd5b506103b0610861366004614dd8565b60009081526012602052604090205460ff1690565b34801561088257600080fd5b506103b0610891366004614dd8565b611a63565b3480156108a257600080fd5b506103b06108b1366004614dd8565b60008054918152600760205260409020541190565b3480156108d257600080fd5b5061038f6108e13660046152d7565b611aaa565b3480156108f257600080fd5b5061038f610901366004615354565b611aca565b34801561091257600080fd5b50610721610921366004614dd8565b6016602052600090815260409020546001600160a01b031681565b34801561094857600080fd5b506103b0610957366004614f2a565b611ad5565b34801561096857600080fd5b50600054610407565b34801561097d57600080fd5b5061038f61098c366004614f2a565b611b47565b61038f61099f3660046153ac565b611b93565b3480156109b057600080fd5b5061038f6109bf3660046153d8565b6121f8565b3480156109d057600080fd5b506103b06109df366004614dd8565b6000908152601c602052604090205460ff1690565b348015610a0057600080fd5b506103b0610a0f366004614eee565b612274565b348015610a2057600080fd5b50610a59610a2f366004614dd8565b60036020526000908152604090208054600182015460029092015490916001600160a01b03169083565b604080519384526001600160a01b039092166020840152908201526060016103bc565b348015610a8857600080fd5b50610407610a97366004614e06565b60046020526000908152604090205481565b348015610ab557600080fd5b5061038f610ac4366004615413565b6122a4565b348015610ad557600080fd5b506103b0610ae4366004614dd8565b6000908152601b602052604090205460ff1690565b348015610b0557600080fd5b506103b0612351565b348015610b1a57600080fd5b506103b0610b29366004614f2a565b61237b565b348015610b3a57600080fd5b506103b0610b49366004614e06565b6123d1565b348015610b5a57600080fd5b50610407610b69366004614dd8565b60009081526014602052604090205490565b348015610b8757600080fd5b506103b0610b96366004614fc2565b600091825260166020526040909120600101541190565b348015610bb957600080fd5b50610407610bc8366004614dd8565b60009081526007602052604090205490565b348015610be657600080fd5b5061038f610bf536600461546b565b612403565b348015610c0657600080fd5b506103b0610c15366004614fc2565b61248a565b80610c2481612274565b610c495760405162461bcd60e51b8152600401610c40906154c1565b60405180910390fd5b6001600160a01b03841660009081526009602052604081208054859290610c719084906154f4565b90915550506001600160a01b0384166000908152600b602052604081208054859290610c9e9084906154f4565b9091555050604051600f90610cb490849061552b565b90815260408051602092819003830190206001600160a01b03871660009081529252902054158015610cee57506001600160a01b03841615155b15610d28576001600e83604051610d05919061552b565b90815260200160405180910390206000828254610d2291906154f4565b90915550505b82600f83604051610d39919061552b565b90815260200160405180910390206000866001600160a01b03166001600160a01b031681526020019081526020016000206000828254610d7991906154f4565b909155505060405160008051602061611c83398151915290610da390849087908790602001615573565b60408051601f1981840301815290829052610dbf9133906155a1565b60405180910390a150505050565b604051806040016040528060028152602001616c4560f01b815250610df2813361237b565b610dfb57600080fd5b610e036124bb565b50565b60008181526003602052604090206001015481906001600160a01b03163314610e415760405162461bcd60e51b8152600401610c40906155e4565b81610e5b8160008054918152600760205260409020541190565b610e775760405162461bcd60e51b8152600401610c4090615600565b600160008481526005602052604090205460ff166002811115610e9c57610e9c61561c565b14610ece5760405162461bcd60e51b81526020600482015260026024820152614e5360f01b6044820152606401610c40565b610ed78361250d565b505050565b610ee4612351565b610f155760405162461bcd60e51b81526020600482015260026024820152610ae960f31b6044820152606401610c40565b6001600160a01b0381166000908152600b6020526040902054610f5e5760405162461bcd60e51b81526020600482015260016024820152604560f81b6044820152606401610c40565b6001600160a01b0381166000908152600b6020526040902054610f979082907349a71890aea5a751e30e740c504f2e9683f347bc6125b7565b6001600160a01b03166000908152600b6020526040812055565b6000600e82604051610fc3919061552b565b90815260200160405180910390205460001480156110095750600f82604051610fec919061552b565b908152604080516020928190038301902060008080529252902054155b92915050565b604051806040016040528060028152602001611b5160f21b815250611034813361237b565b61103d57600080fd5b61104682612706565b5050565b6000600260118460405161105e919061552b565b90815260408051602092819003830190206001600160a01b0386166000908152925290205460ff1660028111156110975761109761561c565b149392505050565b60008381526003602052604090206001015483906001600160a01b031633146110da5760405162461bcd60e51b8152600401610c40906155e4565b6000838152601b6020526040902054839060ff166111205760405162461bcd60e51b81526020600482015260036024820152620524e560ec1b6044820152606401610c40565b6001805460ff161515146111465760405162461bcd60e51b8152600401610c4090615632565b6000848152601a602090815260408083203384526004835281842054845290915290205460ff161561117757600080fd5b611181858561248a565b6111b35760405162461bcd60e51b815260206004820152600360248201526229a72b60e91b6044820152606401610c40565b6000848152601a602090815260408083208884529091529020805460ff191660011790558215611210576000858152600360209081526040808320548784526017909252822080549192909161120a9084906154f4565b90915550505b6000858152600360209081526040808320548784526018909252822080549192909161123d9084906154f4565b9091555050604080518581528415156020820152338183015290517f4a341f5494c396c29c9e30033ec7900b3b51340ac726dc58726e583ea2aceeb29181900360600190a1600061128d85611a63565b905080806112b35750600085815260026020908152604080832054601890925290912054145b15611323576000858152601b60205260409020805460ff1916905580156112ee576000858152601c60205260409020805460ff191660011790555b6040518581527fb7af3044d10dc1be59f482d5c460c7c711f80137a36184cdf4f49d973e95acb1906020015b60405180910390a15b505050505050565b6000600f8360405161133d919061552b565b908152604080519182900360209081019092206001600160a01b03851660009081529252902054905092915050565b6040518060400160405280600281526020016136a160f11b815250611391813361237b565b61139a57600080fd5b6001805460ff161515146113c05760405162461bcd60e51b8152600401610c4090615632565b610ed783836127f1565b6040518060400160405280600281526020016136a160f11b8152506113ef813361104a565b6113f857600080fd5b826114038133611ad5565b61140c57600080fd5b6114168484612903565b50505050565b611425336123d1565b6114565760405162461bcd60e51b81526020600482015260026024820152610aa960f31b6044820152606401610c40565b60015460ff161561148e5760405162461bcd60e51b8152602060048201526002602482015261534160f01b6044820152606401610c40565b336000908152600460209081526040808320546001600160a01b0385168452600c83528184208185529092529091205460ff16156114f35760405162461bcd60e51b8152602060048201526002602482015261414360f01b6044820152606401610c40565b6001600160a01b0382166000818152600c602090815260408083208584528252808320805460ff191660011790558254835260028252808320548584526003835281842054948452600990925282205491929091611551919061564e565b61155b9190615665565b9050806000036115915760405162461bcd60e51b81526020600482015260016024820152604560f81b6044820152606401610c40565b6001600160a01b0383166000908152600b6020526040812080548392906115b9908490615687565b90915550610ed790508382336125b7565b60008281526003602052604090206001015482906001600160a01b031633146116055760405162461bcd60e51b8152600401610c40906155e4565b600082815260126020526040902054829060ff1661162257600080fd5b6001805460ff161515146116485760405162461bcd60e51b8152600401610c4090615632565b611652848461248a565b6116845760405162461bcd60e51b81526020600482015260036024820152622720a360e91b6044820152606401610c40565b600083815260156020908152604080832087845290915290205460ff16156116d35760405162461bcd60e51b8152602060048201526002602482015261414360f01b6044820152606401610c40565b60008381526015602090815260408083208784528252808320805460ff1916600190811790915583548452600283528184205488855260038452828520548886526013909452918420015490916117299161564e565b6117339190615665565b90508060000361176b5760405162461bcd60e51b815260206004820152600360248201526244545360e81b6044820152606401610c40565b60008481526014602052604081208054839290611789908490615687565b90915550506000848152601360205260409020546117b1906001600160a01b031682336125b7565b604080518581526020810183905233918101919091527f67dd3d116bf53e0ddda53bb148a5fdc129854e1c507c0eeda9190049a9bbc84f906060015b60405180910390a15050505050565b6040518060400160405280600281526020016134a960f11b815250611821813361237b565b61182a57600080fd5b610ed783836129bf565b6040518060400160405280600281526020016136a160f11b815250611859813361104a565b61186257600080fd5b8161186d8133611ad5565b61187657600080fd5b610ed783612b48565b610e0360003483610c1a565b60405180604001604052806002815260200161695360f01b8152506118b0813361237b565b6118b957600080fd5b6118c585858585612cc0565b5050505050565b60405180604001604052806002815260200161069560f41b8152506118f1813361237b565b6118fa57600080fd5b610ed78383612d27565b604051806040016040528060028152602001611b5160f21b815250611929813361237b565b61193257600080fd5b8361193d8133611ad5565b61194657600080fd5b6118c58585856135f1565b8461195c8133611ad5565b61196557600080fd5b611323868686868661382f565b604051806040016040528060038152602001621b505560ea1b815250611998813361237b565b6119a157600080fd5b6001805460ff161515146119c75760405162461bcd60e51b8152600401610c4090615632565b61104682613c37565b6001600160a01b03811660009081526008602052604081205460ff161515600114806110095750506001600160a01b03161590565b604051806040016040528060038152602001621b505560ea1b815250611a2b813361237b565b611a3457600080fd5b6001805460ff16151514611a5a5760405162461bcd60e51b8152600401610c4090615632565b61104682613c80565b6000818152600260209081526040808320546017909252822054600191611a8991615665565b611a9490600261564e565b1115611aa257506001919050565b506000919050565b83611ab58133611ad5565b611abe57600080fd5b6118c585858585613cc9565b610ed7838383613f82565b6000601083604051611ae7919061552b565b908152604080519182900360209081019092206001600160a01b0385166000908152925290205460ff16151560011480611b405750611b406040518060400160405280600281526020016136a160f11b8152508361104a565b9392505050565b6040518060400160405280600281526020016136a160f11b815250611b6c813361237b565b611b7557600080fd5b82611b808133611ad5565b611b8957600080fd5b61141684846140fd565b82611bad8160008054918152600760205260409020541190565b611bc95760405162461bcd60e51b8152600401610c4090615600565b600160008581526005602052604090205460ff166002811115611bee57611bee61561c565b14611c205760405162461bcd60e51b81526020600482015260026024820152614e5360f01b6044820152606401610c40565b6000848152600660205260409020600101548214611c655760405162461bcd60e51b8152602060048201526002602482015261057560f41b6044820152606401610c40565b82600003611c9a5760405162461bcd60e51b8152602060048201526002602482015261455360f01b6044820152606401610c40565b600084815260066020526040902054831115611cdd5760405162461bcd60e51b8152602060048201526002602482015261455360f01b6044820152606401610c40565b6000848152600660205260409020600301546001600160a01b0316331480611d1d57506000848152600660205260409020600301546001600160a01b0316155b611d4e5760405162461bcd60e51b815260206004820152600260248201526129a960f11b6044820152606401610c40565b6000848152600560209081526040808320805460ff191660021790556006909152812060010154611d7f908561564e565b90506000806000611d948460196103e86141fb565b91945092509050611da581836154f4565b6000898152600660205260409020600201549092506001600160a01b0316611f045783341015611dfc5760405162461bcd60e51b8152602060048201526002602482015261494560f01b6044820152606401610c40565b6040516000907349a71890aea5a751e30e740c504f2e9683f347bc9085908381818185875af1925050503d8060008114611e52576040519150601f19603f3d011682016040523d82523d6000602084013e611e57565b606091505b505060008a81526003602052604080822060010154905192935090916001600160a01b039091169085908381818185875af1925050503d8060008114611eb9576040519150601f19603f3d011682016040523d82523d6000602084013e611ebe565b606091505b50509050808015611ecc5750815b611efd5760405162461bcd60e51b81526020600482015260026024820152612a2360f11b6044820152606401610c40565b5050612089565b60008881526006602052604090819020600201549051636eb1769f60e11b81523360048201523060248201526001600160a01b03909116908590829063dd62ed3e90604401602060405180830381865afa158015611f66573d6000803e3d6000fd5b505050506040513d601f19601f82011682018060405250810190611f8a919061569a565b1015611fa85760405162461bcd60e51b8152600401610c40906156b3565b6040516323b872dd60e01b81523360048201527349a71890aea5a751e30e740c504f2e9683f347bc6024820152604481018590526001600160a01b038216906323b872dd906064016020604051808303816000875af115801561200f573d6000803e3d6000fd5b505050506040513d601f19601f8201168201806040525081019061203391906156cf565b61204f5760405162461bcd60e51b8152600401610c40906156ec565b600089815260036020908152604080832060010154600690925290912060020154612087916001600160a01b0390811691168561426f565b505b6120948888336142ff565b600088815260036020526040902060010154306001600160a01b03909116036120dc5760008054815260026020526040812080548992906120d69084906154f4565b90915550505b6040805160808101825288815260008a8152600660208181528483206001810154828601526002818101546001600160a01b0390811687890152948f90529290915260030154909116606083015291517fd8cd09ea93b4076ab867588c0d1a52b62c5b605b7a5f1c0189781245631a83539261215c9290918c9190615726565b60405180910390a160008881526006602052604090205487146121ee576000888152600360209081526040808320600101546001600160a01b0316835260048252808320548b84526006909252909120546121ee91906121bd908a90615687565b60008b8152600660205260409020600281015460018201546003909201546001600160a01b039182169291166144cd565b5050505050505050565b60008381526003602052604090206001015483906001600160a01b031633146122335760405162461bcd60e51b8152600401610c40906155e4565b8361224d8160008054918152600760205260409020541190565b6122695760405162461bcd60e51b8152600401610c4090615600565b6118c58585856142ff565b6000600d82604051612286919061552b565b9081526040519081900360200190205460ff16151560011492915050565b826122af813361104a565b6122b857600080fd5b8160028111156122ca576122ca61561c565b6011856040516122da919061552b565b90815260408051602092819003830190206001600160a01b0387166000908152925290205460ff1660028111156123135761231361561c565b036123465760405162461bcd60e51b815260206004820152600360248201526204148560ec1b6044820152606401610c40565b61141684848461465a565b60015460009060ff16158015612376575061012c600a54426123739190615687565b10155b905090565b6000600160118460405161238f919061552b565b90815260408051602092819003830190206001600160a01b0386166000908152925290205460ff1660028111156123c8576123c861561c565b10159392505050565b6001600160a01b0381166000908152600460205260408120546110099060008054918152600760205260409020541190565b60008581526003602052604090206001015485906001600160a01b0316331461243e5760405162461bcd60e51b8152600401610c40906155e4565b856124588160008054918152600760205260409020541190565b6124745760405162461bcd60e51b8152600401610c4090615600565b61248187878787876144cd565b50505050505050565b6000828152600360205260408120600201548210801590611b40575050600091825260076020526040909120541190565b6124c3614721565b604080516060808252600290820152616c4560f01b608082015260a0602082018190526000908201523381830152905160008051602061611c8339815191529181900360c00190a1565b806125278160008054918152600760205260409020541190565b6125435760405162461bcd60e51b8152600401610c4090615600565b6000828152600560209081526040808320805460ff19169055805160808101825283815291820183905281810183905260608201839052517fd8cd09ea93b4076ab867588c0d1a52b62c5b605b7a5f1c0189781245631a8353926125ab929091869190615726565b60405180910390a15050565b6001600160a01b0383166125cf57610ed78282614757565b60405163095ea7b360e01b81526001600160a01b0382811660048301526024820184905284919082169063095ea7b3906044016020604051808303816000875af1158015612621573d6000803e3d6000fd5b505050506040513d601f19601f8201168201806040525081019061264591906156cf565b6126765760405162461bcd60e51b81526020600482015260026024820152614e4160f01b6044820152606401610c40565b60405163a9059cbb60e01b81526001600160a01b0383811660048301526024820185905282169063a9059cbb906044015b6020604051808303816000875af11580156126c6573d6000803e3d6000fd5b505050506040513d601f19601f820116820180604052508101906126ea91906156cf565b6114165760405162461bcd60e51b8152600401610c40906156ec565b600081815260126020526040902054819060ff1661272357600080fd5b6001805460ff161515146127495760405162461bcd60e51b8152600401610c4090615632565b6000828152601260209081526040808320805460ff19169055601482528083205481516336b0b4b760e11b8152600f6004820152825190819003602401902086855260138452828520546001600160a01b0316855290925282208054919290916127b49084906154f4565b9091555050604080516020810184905260008051602061611c833981519152910160408051601f19818403018152908290526125ab913390615777565b6001805460ff161515146128175760405162461bcd60e51b8152600401610c4090615632565b61282082612274565b156128525760405162461bcd60e51b8152602060048201526002602482015261414560f01b6044820152606401610c40565b6001601083604051612864919061552b565b90815260408051602092819003830181206001600160a01b038616600090815293529120805460ff191692151592909217909155600190600d906128a990859061552b565b90815260405160209181900382018120805460ff19169315159390931790925560008051602061611c833981519152916128e79185918591016157a3565b60408051601f19818403018152908290526125ab9133906157cd565b6001805460ff161515146129295760405162461bcd60e51b8152600401610c4090615632565b6129338282611ad5565b61293c57600080fd5b600060108360405161294e919061552b565b90815260408051602092819003830181206001600160a01b038616600090815290845291909120805460ff19169315159390931790925560008051602061611c833981519152916129a39185918591016157a3565b60408051601f19818403018152908290526125ab9133906157f9565b6001805460ff161515146129e55760405162461bcd60e51b8152600401610c4090615632565b8051825114612a1c5760405162461bcd60e51b815260206004820152600360248201526250435760e81b6044820152606401610c40565b600080548152601b602090815260408083208054600160ff1990911681179091558151606081018352338152808401878152818401879052855486526016855292909420845181546001600160a01b0319166001600160a01b03909116178155915180519293612a929392850192910190614cac565b5060408201518051612aae916002840191602090910190614d02565b5090505060008051602061611c833981519152600054604051602001612ad691815260200190565b60408051601f1981840301815290829052612af2913390615826565b60405180910390a160008054808252600260208190526040832054929091612b1b9060016154f4565b815260200190815260200160002081905550600080815480929190612b3f90615852565b91905055505050565b6001805460ff16151514612b6e5760405162461bcd60e51b8152600401610c4090615632565b612b7781612274565b612ba85760405162461bcd60e51b81526020600482015260026024820152612aa160f11b6044820152606401610c40565b604080516020808201909252600090528151908201207f3a2db9fe7908dcc36d81824d2338fc3f1aff49ac357dd8c4840527fba27a5b9001612c115760405162461bcd60e51b815260206004820152600260248201526126a160f11b6044820152606401610c40565b612c1a81610fb1565b612c4b5760405162461bcd60e51b8152602060048201526002602482015261424560f01b6044820152606401610c40565b6000600d82604051612c5d919061552b565b90815260405160209181900382018120805460ff19169315159390931790925560008051602061611c83398151915291612c999184910161586b565b60408051601f1981840301815290829052612cb591339061587e565b60405180910390a150565b612ccc848484846147df565b60408051602081018690526001600160a01b038086169282019290925260608101849052908216608082015260008051602061611c8339815191529060a00160408051601f1981840301815290829052610dbf9133906158aa565b6001805460ff16151514612d4d5760405162461bcd60e51b8152600401610c4090615632565b6000828152601660205260409020600101548110612d935760405162461bcd60e51b815260206004820152600360248201526250444560e81b6044820152606401610c40565b6000828152601960205260409020548114612dd65760405162461bcd60e51b815260206004820152600360248201526257504f60e81b6044820152606401610c40565b6000828152601960205260408120805460019290612df59084906154f4565b90915550506000828152601660205260408120600101805483908110612e1d57612e1d6158d6565b906000526020600020018054612e32906158ec565b80601f0160208091040260200160405190810160405280929190818152602001828054612e5e906158ec565b8015612eab5780601f10612e8057610100808354040283529160200191612eab565b820191906000526020600020905b815481529060010190602001808311612e8e57829003601f168201915b505050505090506000601660008581526020019081526020016000206002018381548110612edb57612edb6158d6565b906000526020600020018054612ef0906158ec565b80601f0160208091040260200160405190810160405280929190818152602001828054612f1c906158ec565b8015612f695780601f10612f3e57610100808354040283529160200191612f69565b820191906000526020600020905b815481529060010190602001808311612f4c57829003601f168201915b505050505090506000828051906020012090506040518060400160405280600281526020016134a960f11b815250805190602001208103612fcc5760008083806020019051810190612fbb9190615a0a565b91509150612fc982826129bf565b50505b604080518082019091526002815261073560f41b6020909101527ff1b1bbc74e4df8608497e5eed3180a4b18c6b574ff7c886247e917619e157587810161303b576000806000848060200190518101906130269190615ad6565b92509250925061303783828461465a565b5050505b6040805180820190915260028152611d1560f21b6020909101527f36ddd33e7a7f4736d675524b57ae6969fba9049312747b57679f33a51849c6b181016130b5576000806000806000868060200190518101906130989190615b2f565b945094509450945094506130af858585858561382f565b50505050505b6040805180820190915260028152611b5560f21b6020909101527f6f27458a75a197963a149d891ee01b4f59e7dfbcd1a8c7bc1095dc063775c5e9810161312957600080600080858060200190518101906131109190615bb6565b935093509350935061312484848484613cc9565b505050505b6040805180820190915260028152611a5160f21b6020909101527f1cf0197aed3b237c637010856237afeb1ec5367fd4b836bf00f3bd32eef1ef778101613198576000806000848060200190518101906131839190615c33565b9250925092506131948383836135f1565b5050505b604080518082019091526002815261695360f01b6020909101527f011302f5e4c5c3a196db2f07f09e2f91274031e3f83e172b68276385c26ac608810161320c57600080600080858060200190518101906131f39190615c8d565b935093509350935061320784848484612cc0565b505050505b604080518082019091526002815261191160f21b6020909101527fedd0ee4c0d87c45f9edc0b9ba6f7373336c241b06c885e00f23c1ab5ec82a747810161327057600082806020019051810190613263919061569a565b905061326e81612706565b505b60408051808201909152600281526131a160f11b6020909101527f2108e84f920e4eee7d6ac9ef2abeb540a1d7f56715d474e0b06b236cf4e7031281016132d957600080838060200190518101906132c89190615ccd565b915091506132d682826127f1565b50505b604080518082019091526002815261322160f11b6020909101527f46e76fb60cbfea5dc4e313412f858c830e50e6e875d17b0921db6456f8ac9cdb810161333d576000828060200190518101906133309190615d13565b905061333b81612b48565b505b60408051808201909152600381526261424160e81b6020909101527f747edc76097bccd90f0d440c26b5930408266bbe117772d2c1d5b62a81070bd281016133a757600080838060200190518101906133969190615ccd565b915091506133a482826140fd565b50505b60408051808201909152600381526272424160e81b6020909101527fe01588f2b7120b2685ead94790242f17d977e3d7967bb132b1110f04a44120a7810161341157600080838060200190518101906134009190615ccd565b9150915061340e8282612903565b50505b60408051808201909152600381526272544160e81b6020909101527fe2347e35bd161f6471726760ee12a18a4bd894ec18d0e8149dabe9c97a2068198101613476576000828060200190518101906134699190615d47565b905061347481613c80565b505b60408051808201909152600381526275544160e81b6020909101527fc2c2a7f0073a768c7bffc087093eceffd50955ad08a9ba26982dc60f1859eb8081016134db576000828060200190518101906134ce9190615d47565b90506134d981613c37565b505b6040805180820190915260028152616c4560f01b6020909101527fdb51409824affaf893516504171b78835cb61ad014b6889940145b5796625f418101613529576135246124bb565b613556565b60405162461bcd60e51b81526020600482015260026024820152612ba360f11b6044820152606401610c40565b604080516020810187905290810185905260008051602061611c8339815191529060600160408051601f1981840301815290829052613596913390615d64565b60405180910390a1600085815260166020908152604080832060010154601990925290912054036118c5576040518581527f8d0d26399c7b999f9067e92dcf5a21ebc7bf6cd77bd186e721e4dfc2654e7830906020016117ed565b6001805460ff161515146136175760405162461bcd60e51b8152600401610c4090615632565b8261362181612274565b61363d5760405162461bcd60e51b8152600401610c40906154c1565b600f8460405161364d919061552b565b90815260408051602092819003830190206001600160a01b038616600090815292529020548211156136a65760405162461bcd60e51b815260206004820152600260248201526124a360f11b6044820152606401610c40565b81600f856040516136b7919061552b565b90815260200160405180910390206000856001600160a01b03166001600160a01b0316815260200190815260200160002060008282546136f79190615687565b9091555050604051600f9061370d90869061552b565b90815260408051602092819003830190206001600160a01b0386166000908152925290205415801561374757506001600160a01b03831615155b15613781576001600e8560405161375e919061552b565b9081526020016040518091039020600082825461377b9190615687565b90915550505b6040805180820182526001600160a01b038581168252602080830186815260008054815260138352858120945185546001600160a01b03191694169390931784555160019384015581548252601481528382208690558154825260128152838220805460ff191690931790925554915160008051602061611c8339815191529261381392909188918891889101615d90565b60408051601f1981840301815290829052610dbf913390615dc5565b6001600160a01b0384166000908152600960205260409020548311156138675760405162461bcd60e51b8152600401610c40906156b3565b6001600160a01b038416613970576001600160a01b0382163b1561396657604051631d3640e960e11b81526001600160a01b03831690633a6c81d29085906138b390859060040161586b565b6000604051808303818588803b1580156138cc57600080fd5b505af1935050505080156138de575060015b613961575060408051602081018252600081529051631d3640e960e11b81526001600160a01b03831690633a6c81d290859061392890600401602080825260009082015260400190565b6000604051808303818588803b15801561394157600080fd5b505af193505050508015613953575060015b613961576139618383614757565b613c2a565b6139618383614757565b60405163095ea7b360e01b81526001600160a01b0383811660048301526024820185905285919082169063095ea7b3906044016020604051808303816000875af11580156139c2573d6000803e3d6000fd5b505050506040513d601f19601f820116820180604052508101906139e691906156cf565b613a175760405162461bcd60e51b81526020600482015260026024820152614e4160f01b6044820152606401610c40565b6001600160a01b0383163b15613b9957604051637fb6679d60e01b81526001600160a01b03841690637fb6679d90613a5790859089908990600401615573565b600060405180830381600087803b158015613a7157600080fd5b505af1925050508015613a82575060015b613b94576040805160208101825260008082529151637fb6679d60e01b81526060600482015260648101929092526001600160a01b03878116602484015260448301879052909350841690637fb6679d90608401600060405180830381600087803b158015613af057600080fd5b505af1925050508015613b01575060015b613b945760405163a9059cbb60e01b81526001600160a01b0384811660048301526024820186905282169063a9059cbb906044016020604051808303816000875af1158015613b54573d6000803e3d6000fd5b505050506040513d601f19601f82011682018060405250810190613b7891906156cf565b613b945760405162461bcd60e51b8152600401610c40906156ec565b613c28565b60405163a9059cbb60e01b81526001600160a01b0384811660048301526024820186905282169063a9059cbb906044016020604051808303816000875af1158015613be8573d6000803e3d6000fd5b505050506040513d601f19601f82011682018060405250810190613c0c91906156cf565b613c285760405162461bcd60e51b8152600401610c40906156ec565b505b6118c5858585858561485e565b613c40816149ff565b604080516001600160a01b038316602082015260008051602061611c833981519152910160408051601f1981840301815290829052612cb5913390615df1565b613c8981614aa5565b604080516001600160a01b038316602082015260008051602061611c833981519152910160408051601f1981840301815290829052612cb5913390615e1e565b83613cd381612274565b613cef5760405162461bcd60e51b8152600401610c40906154c1565b83613cf981612274565b613d155760405162461bcd60e51b8152600401610c40906154c1565b6001805460ff16151514613d3b5760405162461bcd60e51b8152600401610c4090615632565b600f86604051613d4b919061552b565b90815260408051602092819003830190206001600160a01b03871660009081529252902054831115613da45760405162461bcd60e51b815260206004820152600260248201526124a360f11b6044820152606401610c40565b82600f87604051613db5919061552b565b90815260200160405180910390206000866001600160a01b03166001600160a01b031681526020019081526020016000206000828254613df59190615687565b90915550506001600160a01b03841615613ee957600f86604051613e19919061552b565b90815260408051602092819003830190206001600160a01b038716600090815292528120549003613e79576001600e87604051613e56919061552b565b90815260200160405180910390206000828254613e739190615687565b90915550505b600f85604051613e89919061552b565b90815260408051602092819003830190206001600160a01b038716600090815292528120549003613ee9576001600e86604051613ec6919061552b565b90815260200160405180910390206000828254613ee391906154f4565b90915550505b82600f86604051613efa919061552b565b90815260200160405180910390206000866001600160a01b03166001600160a01b031681526020019081526020016000206000828254613f3a91906154f4565b909155505060405160008051602061611c83398151915290613f66908890889088908890602001615e4b565b60408051601f198184030181529082905261131a913390615e8d565b6001600160a01b038316613f9557600080fd5b613f9e836119d0565b613fcf5760405162461bcd60e51b8152602060048201526002602482015261155560f21b6044820152606401610c40565b604051636eb1769f60e11b8152336004820152306024820152839083906001600160a01b0383169063dd62ed3e90604401602060405180830381865afa15801561401d573d6000803e3d6000fd5b505050506040513d601f19601f82011682018060405250810190614041919061569a565b101561405f5760405162461bcd60e51b8152600401610c40906156b3565b6040516323b872dd60e01b8152336004820152306024820152604481018490526001600160a01b038216906323b872dd906064016020604051808303816000875af11580156140b2573d6000803e3d6000fd5b505050506040513d601f19601f820116820180604052508101906140d691906156cf565b6140f25760405162461bcd60e51b8152600401610c40906156ec565b611416848484610c1a565b6001805460ff161515146141235760405162461bcd60e51b8152600401610c4090615632565b6141476040518060400160405280600281526020016136a160f11b8152508261237b565b6141785760405162461bcd60e51b815260206004820152600260248201526104e560f41b6044820152606401610c40565b600160108360405161418a919061552b565b90815260408051602092819003830181206001600160a01b038616600090815290845291909120805460ff19169315159390931790925560008051602061611c833981519152916141df9185918591016157a3565b60408051601f19818403018152908290526125ab913390615eb9565b600080600084841161420c57600080fd5b600084614219878961564e565b6142239190615665565b90506000856142328882615687565b61423c908a61564e565b6142469190615665565b9050818161425481836154f4565b61425e908b615687565b945094509450505093509350939050565b306001600160a01b038416036142c1576001600160a01b0382166142a757610ed7828260405180602001604052806000815250610c1a565b610ed7828260405180602001604052806000815250613f82565b6040516323b872dd60e01b81523360048201526001600160a01b038481166024830152604482018390528391908216906323b872dd906064016126a7565b826143198160008054918152600760205260409020541190565b6143355760405162461bcd60e51b8152600401610c4090615600565b6001805460ff1615151461435b5760405162461bcd60e51b8152600401610c4090615632565b60008481526003602052604090205483111561439e5760405162461bcd60e51b8152602060048201526002602482015261494160f01b6044820152606401610c40565b6143a7826123d1565b15614416576001600160a01b038216600090815260046020908152604080832054835260039091528120546143dc90856154f4565b6001600160a01b038416600090815260046020526040812054905491925061440391614b04565b6144108184600054614b4b565b50614423565b6144238383600054614b4b565b61442f84600054614b04565b600084815260036020526040812054614449908590615687565b9050801561447c57600085815260036020526040812060010154905461447c9183916001600160a01b0390911690614b4b565b506000805480825260026020819052604083205492909161449e9060016154f4565b8152602001908152602001600020819055506000808154809291906144c290615852565b919050555050505050565b846144e78160008054918152600760205260409020541190565b6145035760405162461bcd60e51b8152600401610c4090615600565b6001805460ff161515146145295760405162461bcd60e51b8152600401610c4090615632565b60008681526005602052604081205460ff16600281111561454c5761454c61561c565b1461455657600080fd5b6000868152600360205260409020548511156145995760405162461bcd60e51b8152602060048201526002602482015261494160f01b6044820152606401610c40565b6040805160808101825286815260208082018681526001600160a01b038881168486019081528782166060860190815260008d8152600680875288822097518855945160018089019190915592516002880180549186166001600160a01b03199283161790559151600388018054919095169216919091179092556005845290859020805460ff191682179055915291517fd8cd09ea93b4076ab867588c0d1a52b62c5b605b7a5f1c0189781245631a83539261131a9290918a9190615ee6565b6001805460ff161515146146805760405162461bcd60e51b8152600401610c4090615632565b80601184604051614691919061552b565b90815260408051602092819003830190206001600160a01b038616600090815292529020805460ff191660018360028111156146cf576146cf61561c565b021790555060008051602061611c8339815191528383836040516020016146f893929190615f34565b60408051601f1981840301815290829052614714913390615f6f565b60405180910390a1505050565b6001805460ff161515146147475760405162461bcd60e51b8152600401610c4090615632565b6001805460ff1916905542600a55565b6000816001600160a01b03168360405160006040518083038185875af1925050503d80600081146147a4576040519150601f19603f3d011682016040523d82523d6000602084013e6147a9565b606091505b5050905080610ed75760405162461bcd60e51b81526020600482015260026024820152612a2360f11b6044820152606401610c40565b6147e8836119d0565b6147f157600080fd5b30600090815260046020526040812054905461480d9190614b04565b30600090815260046020908152604080832054835260039091529020546148419061483890866154f4565b30600054614b4b565b3060009081526004602052604090205461141690858585856144cd565b8461486881612274565b6148845760405162461bcd60e51b8152600401610c40906154c1565b6001600160a01b038516600090815260096020526040812080548692906148ac908490615687565b90915550506001600160a01b0385166000908152600b6020526040812080548692906148d9908490615687565b9250508190555083600f876040516148f1919061552b565b90815260200160405180910390206000876001600160a01b03166001600160a01b0316815260200190815260200160002060008282546149319190615687565b9091555050604051600f9061494790889061552b565b90815260408051602092819003830190206001600160a01b0388166000908152925290205415801561498157506001600160a01b03851615155b156149bb576001600e87604051614998919061552b565b908152602001604051809103902060008282546149b59190615687565b90915550505b60008051602061611c83398151915286868686866040516020016149e3959493929190615f9b565b60408051601f198184030181529082905261131a913390615fea565b614a08816119d0565b614a395760405162461bcd60e51b8152602060048201526002602482015261155560f21b6044820152606401610c40565b6001600160a01b03811660009081526009602052604090205415614a845760405162461bcd60e51b8152602060048201526002602482015261272d60f11b6044820152606401610c40565b6001600160a01b03166000908152600860205260409020805460ff19169055565b614aae816119d0565b15614ae05760405162461bcd60e51b815260206004820152600260248201526120a960f11b6044820152606401610c40565b6001600160a01b03166000908152600860205260409020805460ff19166001179055565b600082815260076020908152604080832084905580519283529082018490527f12769fd465856c3651942a04374f21755b56a66422aaed87c7e56e936f6dd3d091016125ab565b60008311614b805760405162461bcd60e51b815260206004820152600260248201526129ad60f11b6044820152606401610c40565b6000805b6040516bffffffffffffffffffffffff19606086901b166020820152603481018490526054810183905260740160408051601f198184030181529181528151602092830120600081815260039093529120600101549091506001600160a01b031615614bfc5781614bf481615852565b925050614b84565b6001600160a01b03848116600081815260046020908152604080832086905585835260078252808320600019905580516060810182528a81528083019485528082018981528785526003845293829020905181559351600180860180546001600160a01b0319169290971691909117909555915160029093019290925580519283529082018390527f12769fd465856c3651942a04374f21755b56a66422aaed87c7e56e936f6dd3d091016117ed565b828054828255906000526020600020908101928215614cf2579160200282015b82811115614cf25782518290614ce2908261605c565b5091602001919060010190614ccc565b50614cfe929150614d54565b5090565b828054828255906000526020600020908101928215614d48579160200282015b82811115614d485782518290614d38908261605c565b5091602001919060010190614d22565b50614cfe929150614d71565b80821115614cfe576000614d688282614d8e565b50600101614d54565b80821115614cfe576000614d858282614d8e565b50600101614d71565b508054614d9a906158ec565b6000825580601f10614daa575050565b601f016020900490600052602060002090810190610e0391905b80821115614cfe5760008155600101614dc4565b600060208284031215614dea57600080fd5b5035919050565b6001600160a01b0381168114610e0357600080fd5b600060208284031215614e1857600080fd5b8135611b4081614df1565b634e487b7160e01b600052604160045260246000fd5b604051601f8201601f191681016001600160401b0381118282101715614e6157614e61614e23565b604052919050565b60006001600160401b03821115614e8257614e82614e23565b50601f01601f191660200190565b6000614ea3614e9e84614e69565b614e39565b9050828152838383011115614eb757600080fd5b828260208301376000602084830101529392505050565b600082601f830112614edf57600080fd5b611b4083833560208501614e90565b600060208284031215614f0057600080fd5b81356001600160401b03811115614f1657600080fd5b614f2284828501614ece565b949350505050565b60008060408385031215614f3d57600080fd5b82356001600160401b03811115614f5357600080fd5b614f5f85828601614ece565b9250506020830135614f7081614df1565b809150509250929050565b8015158114610e0357600080fd5b600080600060608486031215614f9e57600080fd5b83359250602084013591506040840135614fb781614f7b565b809150509250925092565b60008060408385031215614fd557600080fd5b50508035926020909101359150565b60006001600160401b03821115614ffd57614ffd614e23565b5060051b60200190565b600082601f83011261501857600080fd5b81356020615028614e9e83614fe4565b82815260059290921b8401810191818101908684111561504757600080fd5b8286015b8481101561509b5780356001600160401b0381111561506a5760008081fd5b8701603f8101891361507c5760008081fd5b61508d898683013560408401614e90565b84525091830191830161504b565b509695505050505050565b600080604083850312156150b957600080fd5b82356001600160401b03808211156150d057600080fd5b818501915085601f8301126150e457600080fd5b813560206150f4614e9e83614fe4565b82815260059290921b8401810191818101908984111561511357600080fd5b8286015b8481101561514b5780358681111561512f5760008081fd5b61513d8c86838b0101614ece565b845250918301918301615117565b509650508601359250508082111561516257600080fd5b5061516f85828601615007565b9150509250929050565b6000806000806080858703121561518f57600080fd5b8435935060208501356151a181614df1565b92506040850135915060608501356151b881614df1565b939692955090935050565b600080604083850312156151d657600080fd5b823591506020830135614f7081614df1565b6000806000606084860312156151fd57600080fd5b83356001600160401b0381111561521357600080fd5b61521f86828701614ece565b935050602084013561523081614df1565b929592945050506040919091013590565b600080600080600060a0868803121561525957600080fd5b85356001600160401b038082111561527057600080fd5b61527c89838a01614ece565b96506020880135915061528e82614df1565b909450604087013593506060870135906152a782614df1565b909250608087013590808211156152bd57600080fd5b506152ca88828901614ece565b9150509295509295909350565b600080600080608085870312156152ed57600080fd5b84356001600160401b038082111561530457600080fd5b61531088838901614ece565b9550602087013591508082111561532657600080fd5b5061533387828801614ece565b935050604085013561534481614df1565b9396929550929360600135925050565b60008060006060848603121561536957600080fd5b833561537481614df1565b92506020840135915060408401356001600160401b0381111561539657600080fd5b6153a286828701614ece565b9150509250925092565b6000806000606084860312156153c157600080fd5b505081359360208301359350604090920135919050565b6000806000606084860312156153ed57600080fd5b83359250602084013591506040840135614fb781614df1565b60038110610e0357600080fd5b60008060006060848603121561542857600080fd5b83356001600160401b0381111561543e57600080fd5b61544a86828701614ece565b935050602084013561545b81614df1565b91506040840135614fb781615406565b600080600080600060a0868803121561548357600080fd5b8535945060208601359350604086013561549c81614df1565b92506060860135915060808601356154b381614df1565b809150509295509295909350565b602080825260039082015262444e4560e81b604082015260600190565b634e487b7160e01b600052601160045260246000fd5b80820180821115611009576110096154de565b60005b8381101561552257818101518382015260200161550a565b50506000910152565b6000825161553d818460208701615507565b9190910192915050565b6000815180845261555f816020860160208601615507565b601f01601f19169290920160200192915050565b6060815260006155866060830186615547565b6001600160a01b039490941660208301525060400152919050565b6060815260026060820152611c9560f21b608082015260a0602082015260006155cd60a0830185615547565b905060018060a01b03831660408301529392505050565b60208082526002908201526109e960f31b604082015260600190565b602080825260029082015261555360f01b604082015260600190565b634e487b7160e01b600052602160045260246000fd5b602080825260029082015261115360f21b604082015260600190565b8082028115828204841417611009576110096154de565b60008261568257634e487b7160e01b600052601260045260246000fd5b500490565b81810381811115611009576110096154de565b6000602082840312156156ac57600080fd5b5051919050565b602080825260029082015261125560f21b604082015260600190565b6000602082840312156156e157600080fd5b8151611b4081614f7b565b602080825260029082015261139560f21b604082015260600190565b60038110610e0357634e487b7160e01b600052602160045260246000fd5b60c0810161573385615708565b8482528360208301528251604083015260208301516060830152604083015160018060a01b0380821660808501528060608601511660a08501525050949350505050565b606081526002606082015261191160f21b608082015260a0602082015260006155cd60a0830185615547565b6040815260006157b66040830185615547565b905060018060a01b03831660208301529392505050565b60608152600260608201526131a160f11b608082015260a0602082015260006155cd60a0830185615547565b60608152600360608201526272424160e81b608082015260a0602082015260006155cd60a0830185615547565b60608152600260608201526134a960f11b608082015260a0602082015260006155cd60a0830185615547565b600060018201615864576158646154de565b5060010190565b602081526000611b406020830184615547565b606081526002606082015261322160f11b608082015260a0602082015260006155cd60a0830185615547565b606081526002606082015261695360f01b608082015260a0602082015260006155cd60a0830185615547565b634e487b7160e01b600052603260045260246000fd5b600181811c9082168061590057607f821691505b60208210810361592057634e487b7160e01b600052602260045260246000fd5b50919050565b6000615934614e9e84614e69565b905082815283838301111561594857600080fd5b611b40836020830184615507565b600082601f83011261596757600080fd5b611b4083835160208501615926565b600082601f83011261598757600080fd5b81516020615997614e9e83614fe4565b82815260059290921b840181019181810190868411156159b657600080fd5b8286015b8481101561509b5780516001600160401b038111156159d95760008081fd5b8701603f810189136159eb5760008081fd5b6159fc898683015160408401615926565b8452509183019183016159ba565b60008060408385031215615a1d57600080fd5b82516001600160401b0380821115615a3457600080fd5b818501915085601f830112615a4857600080fd5b81516020615a58614e9e83614fe4565b82815260059290921b84018101918181019089841115615a7757600080fd5b8286015b84811015615aaf57805186811115615a935760008081fd5b615aa18c86838b0101615956565b845250918301918301615a7b565b5091880151919650909350505080821115615ac957600080fd5b5061516f85828601615976565b600080600060608486031215615aeb57600080fd5b83516001600160401b03811115615b0157600080fd5b615b0d86828701615956565b9350506020840151615b1e81615406565b6040850151909250614fb781614df1565b600080600080600060a08688031215615b4757600080fd5b85516001600160401b0380821115615b5e57600080fd5b615b6a89838a01615956565b965060208801519150615b7c82614df1565b604088015160608901519296509450615b9482614df1565b608088015191935080821115615ba957600080fd5b506152ca88828901615956565b60008060008060808587031215615bcc57600080fd5b84516001600160401b0380821115615be357600080fd5b615bef88838901615956565b95506020870151915080821115615c0557600080fd5b50615c1287828801615956565b9350506040850151615c2381614df1565b6060959095015193969295505050565b600080600060608486031215615c4857600080fd5b83516001600160401b03811115615c5e57600080fd5b615c6a86828701615956565b9350506020840151615c7b81614df1565b80925050604084015190509250925092565b60008060008060808587031215615ca357600080fd5b845193506020850151615cb581614df1565b6040860151606087015191945092506151b881614df1565b60008060408385031215615ce057600080fd5b82516001600160401b03811115615cf657600080fd5b615d0285828601615956565b9250506020830151614f7081614df1565b600060208284031215615d2557600080fd5b81516001600160401b03811115615d3b57600080fd5b614f2284828501615956565b600060208284031215615d5957600080fd5b8151611b4081614df1565b606081526002606082015261069560f41b608082015260a0602082015260006155cd60a0830185615547565b848152608060208201526000615da96080830186615547565b6001600160a01b03949094166040830152506060015292915050565b6060815260026060820152611a5160f21b608082015260a0602082015260006155cd60a0830185615547565b60608152600360608201526275544160e81b608082015260a0602082015260006155cd60a0830185615547565b60608152600360608201526272544160e81b608082015260a0602082015260006155cd60a0830185615547565b608081526000615e5e6080830187615547565b8281036020840152615e708187615547565b6001600160a01b0395909516604084015250506060015292915050565b6060815260026060820152611b5560f21b608082015260a0602082015260006155cd60a0830185615547565b60608152600360608201526261424160e81b608082015260a0602082015260006155cd60a0830185615547565b60c08101615ef385615708565b9381526020810192909252805460408301526001810154606083015260028101546001600160a01b0390811660808401526003909101541660a09091015290565b606081526000615f476060830186615547565b6001600160a01b03851660208401529050615f6183615708565b826040830152949350505050565b606081526002606082015261073560f41b608082015260a0602082015260006155cd60a0830185615547565b60a081526000615fae60a0830188615547565b6001600160a01b03878116602085015260408401879052851660608401528281036080840152615fde8185615547565b98975050505050505050565b6060815260026060820152611d1560f21b608082015260a0602082015260006155cd60a0830185615547565b601f821115610ed757600081815260208120601f850160051c8101602086101561603d5750805b601f850160051c820191505b8181101561132357828155600101616049565b81516001600160401b0381111561607557616075614e23565b6160898161608384546158ec565b84616016565b602080601f8311600181146160be57600084156160a65750858301515b600019600386901b1c1916600185901b178555611323565b600085815260208120601f198616915b828110156160ed578886015182559484019460019091019084016160ce565b508582101561610b5787850151600019600388901b60f8161c191681555b5050505050600190811b0190555056fe43cd76b5eb40da9ea5eb31a199f443f7cf7955ec280bc5981a2e3445c79c9055a26469706673582212205a3f9435c240fbd4873e43fed9da08d4cdb224163f447aa22fbec1b9f90f20c664736f6c6343000813003343cd76b5eb40da9ea5eb31a199f443f7cf7955ec280bc5981a2e3445c79c9055",
  "bytecodeSha1": "da39a3ee5e6b4b0d3255bfef95601890afd80709",
  "compiler": {
    "evm_version": "istanbul",
    "optimizer": {
      "enabled": true,
      "runs": 200
    },
    "version": "0.8.19+commit.7dd6d404"
  },
  "contractName": "Votable",
  "language": "Solidity",
  "natspec": {
    "author": "Frederik W. L. Christoffersen",
    "custom:beaware": "This is a commercial contract.",
    "kind": "dev",
    "methods": {
      "acceptsToken(address)": {
        "notice": "Returns a boolean value, stating if the given token address is registered as acceptable or not.",
        "params": {
          "tokenAddress": "The address of the token to be checked for."
        }
      },
      "active()": {
        "notice": "Boolean stating if the Shardable is active and tradeable or not."
      },
      "addBankAdmin(string,address)": {
        "notice": "Adds a new given administrator to a given Bank.",
        "params": {
          "bankAdmin": "The address of the new Bank administrator to be added.",
          "bankName": "The name of the Bank to which the new administrator is to be added."
        }
      },
      "bankExists(string)": {
        "notice": "Returns a boolean stating if a given Bank exists.",
        "params": {
          "bankName": "The name of the Bank to be checked for."
        }
      },
      "bankIsEmpty(string)": {
        "notice": "Returns a boolean stating if a given Bank is empty.",
        "params": {
          "bankName": "The name of the Bank to be checked for."
        }
      },
      "cancelSale(bytes32)": {
        "notice": "Cancels a sell of a given shard.",
        "params": {
          "shard": "The shard to be put off sale."
        }
      },
      "claimDividend(bytes32,uint256)": {
        "notice": "Claims the value of an existing dividend corresponding to the shard holder's respective shard fraction.",
        "params": {
          "dividend": "The dividend to be claimed.",
          "shard": "The shard that was valid at the clock of the Dividend creation"
        }
      },
      "claimLiquid(address)": {
        "notice": "Claims the owed liquid value corresponding to the shard holder's respective shard fraction after the entity has been liquidized/dissolved.",
        "params": {
          "tokenAddress": "The address of the token to be claimed."
        }
      },
      "claimTerminatedLiquid(address)": {
        "notice": "Claims the remaining unclaimed liquid value after termination (100 days passed since liquidization) as the property of Counekt.",
        "params": {
          "tokenAddress": "The address of the token to be claimed."
        }
      },
      "createBank(string,address)": {
        "notice": "Creates a new Bank.",
        "params": {
          "bankAdmin": "The address of the first Bank administrator.",
          "bankName": "The name of the Bank to be created."
        }
      },
      "deleteBank(string)": {
        "notice": "Deletes a given Bank.",
        "params": {
          "bankName": "The name of the Bank to be deleted."
        }
      },
      "dissolveDividend(uint256)": {
        "notice": "Dissolves a Dividend and moves its last contents to the 'main' Bank.",
        "params": {
          "dividend": "The Dividend to be dissolved."
        }
      },
      "dividendExists(uint256)": {
        "notice": "Returns a boolean stating if a given Dividend exists.",
        "params": {
          "dividend": "The Dividend to be checked for."
        }
      },
      "getBankBalance(string,address)": {
        "notice": "Returns the balance of a bank.",
        "params": {
          "bankName": "The name of the Bank.",
          "tokenAddress": "The address of the token balance to check for."
        }
      },
      "getCurrentClock()": {
        "notice": "Returns the clock."
      },
      "getDividendResidual(uint256)": {
        "notice": "Returns the residual value of a dividend.",
        "params": {
          "dividend": "The Dividend to be checked for."
        }
      },
      "getDividendToken(uint256)": {
        "notice": "Returns the token of a dividend.",
        "params": {
          "dividend": "The Dividend to be checked for."
        }
      },
      "getDividendValue(uint256)": {
        "notice": "Returns the total value of a dividend.",
        "params": {
          "dividend": "The Dividend to be checked for."
        }
      },
      "getLiquidResidual(address)": {
        "notice": "Returns the residual of a liquid, after liquidization/inactivation.",
        "params": {
          "tokenAddress": "The address of the token to be checked for."
        }
      },
      "getReferendumResult(uint256)": {
        "notice": "Returns a boolean stating if a given Referendum has been voted through (>=50% FAVOR) or not.",
        "params": {
          "referendum": "The Referendum to be checked for."
        }
      },
      "getShardExpirationClock(bytes32)": {
        "notice": "Returns the clock, in which a shard will or has expired."
      },
      "getShardSalePrice(bytes32)": {
        "notice": "Returns the price, at which a shard is for sale."
      },
      "hasPermit(string,address)": {
        "notice": "Returns a boolean stating if a given address has a given permit or not.",
        "params": {
          "account": "The address to be checked for.",
          "permitName": "The name of the permit to be checked for."
        }
      },
      "hasVoted(uint256,address)": {
        "notice": "Returns a boolean stating if a given Shard Holder has voted on a given Referendum.",
        "params": {
          "account": "The address of the potential Shard Holder voter to be checked for.",
          "referendum": "The Referendum to be checked for."
        }
      },
      "implementProposal(uint256,uint256)": {
        "notice": "Implements a given Proposal, within a given passed Referendum.",
        "params": {
          "proposalIndex": "The index of the proposal to be implemented.",
          "referendum": "The passed Referendum containing the Proposal."
        }
      },
      "infoByReferendum(uint256)": {
        "notice": "Mapping pointing to dynamic info of a Referendum given a unique Referendum instance."
      },
      "infoByShard(bytes32)": {
        "notice": "Mapping pointing to related info of a Shard given the bytes of a unique Shard instance."
      },
      "isBankAdmin(string,address)": {
        "notice": "Returns a boolean stating if a given address is an admin of a given bank.",
        "params": {
          "account": "The address to be checked for.",
          "bankName": "The name of the Bank to be checked for."
        }
      },
      "isPermitAdmin(string,address)": {
        "notice": "Returns a boolean stating if a given address is an admin of a given permit or not.",
        "params": {
          "account": "The address to be checked for.",
          "permitName": "The name of the permit to be checked for."
        }
      },
      "isShardHolder(address)": {
        "notice": "Checks if address is a shard holder - at least a partial owner of the contract.",
        "params": {
          "account": "The address to be checked for."
        }
      },
      "isTerminated()": {
        "notice": "Returns a boolean value, stating if the liquidization is terminated (100 days have passed since)."
      },
      "isValidShard(bytes32)": {
        "notice": "Returns a boolean stating if a given shard is currently valid or not.",
        "params": {
          "shard": "The shard, whose validity is to be checked for."
        }
      },
      "issueDividend(string,address,uint256)": {
        "notice": "Creates and issues a Dividend (to all current shareholders) of a token amount from a given Bank.",
        "params": {
          "bankName": "The name of the Bank to issue the Dividend from.",
          "tokenAddress": "The address of the token to make up the Dividend.",
          "value": "The value/amount of the token to be issued in the Dividend."
        }
      },
      "issueReferendum(string[],bytes[])": {
        "notice": "The potential errors of the Proposals aren't checked for before implementation!!!",
        "params": {
          "proposalArgs": "The encoded parameters passed to the function calls as part of the implementation of the proposals.",
          "proposalFuncs": "The names of the functions to be called as a result of the implementation of the proposals."
        }
      },
      "issueShards(uint256,address,uint256,address)": {
        "notice": "Issues new shards and puts them for sale.",
        "params": {
          "price": "The price per token.",
          "to": "The specifically set buyer of the issued shards. Open to anyone, if address(0).",
          "tokenAddress": "The token address the shards are put for sale for."
        }
      },
      "liquid(address)": {
        "notice": "Mapping pointing to a value/amount given the address of an ERC20 token."
      },
      "liquidize()": {
        "notice": "Liquidizes and dissolves the entity. This cannot be undone."
      },
      "moveToken(string,string,address,uint256)": {
        "notice": "Internally moves a token from one Bank to another.",
        "params": {
          "fromBankName": "The name of the Bank from which the token is to be moved.",
          "toBankName": "The name of the Bank to which the token is to be moved.",
          "tokenAddress": "The address of the token to be moved.",
          "value": "The value/amount of the token to be moved."
        }
      },
      "proposalExists(uint256,uint256)": {
        "notice": "Returns a boolean stating if a given Proposal exists within a given Referendum.",
        "params": {
          "proposalIndex": "The index of the proposal to be checked for.",
          "referendum": "The Referendum to be checked for."
        }
      },
      "purchase(bytes32,uint256,uint256)": {
        "details": "If the purchase is with tokens (ie. tokenAddress != 0x0), first call 'token.approve(Shardable.address, salePrice);'",
        "notice": "Purchases a listed Shard for sale.",
        "params": {
          "shard": "The shard of which a fraction will be purchased."
        }
      },
      "putForSale(bytes32,uint256,address,uint256,address)": {
        "notice": "Puts a given shard for sale.",
        "params": {
          "amount": "Amount of the Shard to be put for sale.",
          "price": "The amount which the Shard is for sale as. The token address being the valuta.",
          "shard": "The shard to be put for sale.",
          "to": "The specifically set buyer of the sale. Open to anyone, if address(0).",
          "tokenAddress": "The address of the token that is accepted when purchasing. A value of 0x0 represents ether."
        }
      },
      "receiveEther(string)": {
        "notice": "Receives Ether and adds it to the registry.",
        "params": {
          "bankName": "The name of the Bank where the ether is to be received."
        }
      },
      "receiveToken(address,uint256,string)": {
        "notice": "Receives a specified token and adds it to the registry. Make sure 'token.approve()' is called beforehand.",
        "params": {
          "bankName": "The name of the Bank where the token is to be received.",
          "tokenAddress": "The address of the token to be received.",
          "value": "The value/amount of the token to be received."
        }
      },
      "referendumIsImplemented(uint256)": {
        "notice": "Returns a boolean stating if a given Referendum is implemented or not.",
        "params": {
          "referendum": "The Referendum to be checked for."
        }
      },
      "referendumIsPassed(uint256)": {
        "notice": "Returns a boolean stating if a given Referendum is passed or not.",
        "params": {
          "referendum": "The Referendum to be checked for."
        }
      },
      "referendumIsPending(uint256)": {
        "notice": "Returns a boolean stating if a given Referendum is pending or not.",
        "params": {
          "referendum": "The Referendum to be checked for."
        }
      },
      "registerTokenAddress(address)": {
        "notice": "Adds a token address to the registry. Also approves any future receipts of said token unless removed again.",
        "params": {
          "tokenAddress": "The token address to be registered."
        }
      },
      "removeBankAdmin(string,address)": {
        "notice": "Removes a given administrator of a given Bank.",
        "params": {
          "bankAdmin": "The address of the current Bank administrator to be removed.",
          "bankName": "The name of the Bank from which the given administrator is to be removed."
        }
      },
      "setPermit(string,address,uint8)": {
        "notice": "Sets the state of a specified permit of a given address.",
        "params": {
          "account": "The address, whose permit state is to be set.",
          "newState": "The new Permit State to be applied.",
          "permitName": "The name of the permit, whose state is to be set."
        }
      },
      "shardByOwner(address)": {
        "notice": "Mapping pointing to a currently valid shard given the address of its owner."
      },
      "shardExisted(bytes32,uint256)": {
        "notice": "Returns a boolean stating if the given shard was valid at a given clock.",
        "params": {
          "atClock": "The clock to be checked for.",
          "shard": "The shard, whose validity is to be checked for."
        }
      },
      "split(bytes32,uint256,address)": {
        "notice": "Splits a currently valid shard into two new ones. One is assigned to the receiver. The rest to the previous owner.",
        "params": {
          "amount": "Amount, which will be subtracted from the previous shard and sent to the receiver.",
          "senderShard": "The shard to be split.",
          "to": "The receiver of the new Shard."
        }
      },
      "totalShardAmountByClock(uint256)": {
        "notice": "Mapping pointing to integer value representing the total number of shards issued, provided the clock. Used as the denominator to represent a relative shard fraction."
      },
      "transferTokenFromBank(string,address,uint256,address,string)": {
        "notice": "Transfers a token bankAdmin a Bank to a recipient.",
        "params": {
          "fromBankName": "The name of the Bank from which the token is to be transferred.",
          "to": "The recipient of the token to be transferred.",
          "toBankName": "If the recipient is an Idea: The name of the Bank where the token is to be received.",
          "tokenAddress": "The address of the token to be transferred.",
          "value": "The value/amount of the token to be transferred."
        }
      },
      "unregisterTokenAddress(address)": {
        "notice": "Removes a token address from the registry. Also cancels any future receipts of said token unless added again.",
        "params": {
          "tokenAddress": "The token address to be unregistered."
        }
      },
      "vote(bytes32,uint256,bool)": {
        "notice": "Votes on a existing referendum, with a fraction corresponding to the shard of the holder.",
        "params": {
          "favor": "The boolean value signalling a FOR or AGAINST vote.",
          "referendum": "The referendum to be voted on.",
          "shard": "The Shard to vote with."
        }
      }
    },
    "notice": "This contract is used as a votable administerable business entity.",
    "title": "A fractional DAO-like contract whose decisions can be voted upon by its shareholders",
    "version": 1
  },
  "opcodes": "PUSH1 0x80 PUSH1 0x40 MSTORE PUSH1 0x4 CALLDATASIZE LT PUSH2 0x36F JUMPI PUSH1 0x0 CALLDATALOAD PUSH1 0xE0 SHR DUP1 PUSH4 0x859D9FD5 GT PUSH2 0x1C6 JUMPI DUP1 PUSH4 0xB35CA4F3 GT PUSH2 0xF7 JUMPI DUP1 PUSH4 0xDB5DC9B7 GT PUSH2 0x95 JUMPI DUP1 PUSH4 0xEADB9708 GT PUSH2 0x6F JUMPI DUP1 PUSH4 0xEADB9708 EQ PUSH2 0xB7B JUMPI DUP1 PUSH4 0xEFAE89F8 EQ PUSH2 0xBAD JUMPI DUP1 PUSH4 0xF7AAE621 EQ PUSH2 0xBDA JUMPI DUP1 PUSH4 0xFD06636B EQ PUSH2 0xBFA JUMPI PUSH1 0x0 DUP1 REVERT JUMPDEST DUP1 PUSH4 0xDB5DC9B7 EQ PUSH2 0xB0E JUMPI DUP1 PUSH4 0xE1C34C1F EQ PUSH2 0xB2E JUMPI DUP1 PUSH4 0xE6778FCE EQ PUSH2 0xB4E JUMPI PUSH1 0x0 DUP1 REVERT JUMPDEST DUP1 PUSH4 0xC4802EB2 GT PUSH2 0xD1 JUMPI DUP1 PUSH4 0xC4802EB2 EQ PUSH2 0xA7C JUMPI DUP1 PUSH4 0xC5438A55 EQ PUSH2 0xAA9 JUMPI DUP1 PUSH4 0xC8C56AF0 EQ PUSH2 0xAC9 JUMPI DUP1 PUSH4 0xD1CC9976 EQ PUSH2 0xAF9 JUMPI PUSH1 0x0 DUP1 REVERT JUMPDEST DUP1 PUSH4 0xB35CA4F3 EQ PUSH2 0x9C4 JUMPI DUP1 PUSH4 0xB4AF7D59 EQ PUSH2 0x9F4 JUMPI DUP1 PUSH4 0xBCEDB2E0 EQ PUSH2 0xA14 JUMPI PUSH1 0x0 DUP1 REVERT JUMPDEST DUP1 PUSH4 0xA320992D GT PUSH2 0x164 JUMPI DUP1 PUSH4 0xA902780F GT PUSH2 0x13E JUMPI DUP1 PUSH4 0xA902780F EQ PUSH2 0x95C JUMPI DUP1 PUSH4 0xA907B6C5 EQ PUSH2 0x971 JUMPI DUP1 PUSH4 0xAB2D662B EQ PUSH2 0x991 JUMPI DUP1 PUSH4 0xB2CB78AB EQ PUSH2 0x9A4 JUMPI PUSH1 0x0 DUP1 REVERT JUMPDEST DUP1 PUSH4 0xA320992D EQ PUSH2 0x8E6 JUMPI DUP1 PUSH4 0xA343C535 EQ PUSH2 0x906 JUMPI DUP1 PUSH4 0xA80AED76 EQ PUSH2 0x93C JUMPI PUSH1 0x0 DUP1 REVERT JUMPDEST DUP1 PUSH4 0x9211B7B3 GT PUSH2 0x1A0 JUMPI DUP1 PUSH4 0x9211B7B3 EQ PUSH2 0x846 JUMPI DUP1 PUSH4 0x97890DB9 EQ PUSH2 0x876 JUMPI DUP1 PUSH4 0x9995B9A9 EQ PUSH2 0x896 JUMPI DUP1 PUSH4 0xA1916AEF EQ PUSH2 0x8C6 JUMPI PUSH1 0x0 DUP1 REVERT JUMPDEST DUP1 PUSH4 0x859D9FD5 EQ PUSH2 0x7E6 JUMPI DUP1 PUSH4 0x868399A5 EQ PUSH2 0x806 JUMPI DUP1 PUSH4 0x8786DF6A EQ PUSH2 0x826 JUMPI PUSH1 0x0 DUP1 REVERT JUMPDEST DUP1 PUSH4 0x3601F062 GT PUSH2 0x2A0 JUMPI DUP1 PUSH4 0x4C46360B GT PUSH2 0x23E JUMPI DUP1 PUSH4 0x63879C0B GT PUSH2 0x218 JUMPI DUP1 PUSH4 0x63879C0B EQ PUSH2 0x739 JUMPI DUP1 PUSH4 0x64E5378F EQ PUSH2 0x759 JUMPI DUP1 PUSH4 0x6D36E209 EQ PUSH2 0x796 JUMPI DUP1 PUSH4 0x7B785493 EQ PUSH2 0x7B6 JUMPI PUSH1 0x0 DUP1 REVERT JUMPDEST DUP1 PUSH4 0x4C46360B EQ PUSH2 0x68E JUMPI DUP1 PUSH4 0x5BEEFF33 EQ PUSH2 0x6BE JUMPI DUP1 PUSH4 0x62748DCC EQ PUSH2 0x6EB JUMPI PUSH1 0x0 DUP1 REVERT JUMPDEST DUP1 PUSH4 0x3BAF28F8 GT PUSH2 0x27A JUMPI DUP1 PUSH4 0x3BAF28F8 EQ PUSH2 0x5C8 JUMPI DUP1 PUSH4 0x3C06DF46 EQ PUSH2 0x5E8 JUMPI DUP1 PUSH4 0x3DBEAA54 EQ PUSH2 0x608 JUMPI DUP1 PUSH4 0x43859632 EQ PUSH2 0x63E JUMPI PUSH1 0x0 DUP1 REVERT JUMPDEST DUP1 PUSH4 0x3601F062 EQ PUSH2 0x575 JUMPI DUP1 PUSH4 0x384FE2B5 EQ PUSH2 0x595 JUMPI DUP1 PUSH4 0x3A6C81D2 EQ PUSH2 0x5B5 JUMPI PUSH1 0x0 DUP1 REVERT JUMPDEST DUP1 PUSH4 0x258E4D9F GT PUSH2 0x30D JUMPI DUP1 PUSH4 0x2EF37926 GT PUSH2 0x2E7 JUMPI DUP1 PUSH4 0x2EF37926 EQ PUSH2 0x4F5 JUMPI DUP1 PUSH4 0x2F2E9A2A EQ PUSH2 0x515 JUMPI DUP1 PUSH4 0x350546D8 EQ PUSH2 0x535 JUMPI DUP1 PUSH4 0x354CD135 EQ PUSH2 0x555 JUMPI PUSH1 0x0 DUP1 REVERT JUMPDEST DUP1 PUSH4 0x258E4D9F EQ PUSH2 0x495 JUMPI DUP1 PUSH4 0x2C729FD1 EQ PUSH2 0x4B5 JUMPI DUP1 PUSH4 0x2DEC7CD2 EQ PUSH2 0x4D5 JUMPI PUSH1 0x0 DUP1 REVERT JUMPDEST DUP1 PUSH4 0xBEA8985 GT PUSH2 0x349 JUMPI DUP1 PUSH4 0xBEA8985 EQ PUSH2 0x415 JUMPI DUP1 PUSH4 0xD3330A1 EQ PUSH2 0x435 JUMPI DUP1 PUSH4 0x169936B4 EQ PUSH2 0x455 JUMPI DUP1 PUSH4 0x23656642 EQ PUSH2 0x475 JUMPI PUSH1 0x0 DUP1 REVERT JUMPDEST DUP1 PUSH4 0x2FB0C5E EQ PUSH2 0x396 JUMPI DUP1 PUSH4 0x5C558F5 EQ PUSH2 0x3C5 JUMPI DUP1 PUSH4 0x66792D2 EQ PUSH2 0x3DA JUMPI PUSH1 0x0 DUP1 REVERT JUMPDEST CALLDATASIZE PUSH2 0x391 JUMPI PUSH2 0x38F PUSH1 0x0 CALLVALUE PUSH1 0x40 MLOAD DUP1 PUSH1 0x20 ADD PUSH1 0x40 MSTORE DUP1 PUSH1 0x0 DUP2 MSTORE POP PUSH2 0xC1A JUMP JUMPDEST STOP JUMPDEST PUSH1 0x0 DUP1 REVERT JUMPDEST CALLVALUE DUP1 ISZERO PUSH2 0x3A2 JUMPI PUSH1 0x0 DUP1 REVERT JUMPDEST POP PUSH1 0x1 SLOAD PUSH2 0x3B0 SWAP1 PUSH1 0xFF AND DUP2 JUMP JUMPDEST PUSH1 0x40 MLOAD SWAP1 ISZERO ISZERO DUP2 MSTORE PUSH1 0x20 ADD JUMPDEST PUSH1 0x40 MLOAD DUP1 SWAP2 SUB SWAP1 RETURN JUMPDEST CALLVALUE DUP1 ISZERO PUSH2 0x3D1 JUMPI PUSH1 0x0 DUP1 REVERT JUMPDEST POP PUSH2 0x38F PUSH2 0xDCD JUMP JUMPDEST CALLVALUE DUP1 ISZERO PUSH2 0x3E6 JUMPI PUSH1 0x0 DUP1 REVERT JUMPDEST POP PUSH2 0x407 PUSH2 0x3F5 CALLDATASIZE PUSH1 0x4 PUSH2 0x4DD8 JUMP JUMPDEST PUSH1 0x2 PUSH1 0x20 MSTORE PUSH1 0x0 SWAP1 DUP2 MSTORE PUSH1 0x40 SWAP1 KECCAK256 SLOAD DUP2 JUMP JUMPDEST PUSH1 0x40 MLOAD SWAP1 DUP2 MSTORE PUSH1 0x20 ADD PUSH2 0x3BC JUMP JUMPDEST CALLVALUE DUP1 ISZERO PUSH2 0x421 JUMPI PUSH1 0x0 DUP1 REVERT JUMPDEST POP PUSH2 0x38F PUSH2 0x430 CALLDATASIZE PUSH1 0x4 PUSH2 0x4DD8 JUMP JUMPDEST PUSH2 0xE06 JUMP JUMPDEST CALLVALUE DUP1 ISZERO PUSH2 0x441 JUMPI PUSH1 0x0 DUP1 REVERT JUMPDEST POP PUSH2 0x38F PUSH2 0x450 CALLDATASIZE PUSH1 0x4 PUSH2 0x4E06 JUMP JUMPDEST PUSH2 0xEDC JUMP JUMPDEST CALLVALUE DUP1 ISZERO PUSH2 0x461 JUMPI PUSH1 0x0 DUP1 REVERT JUMPDEST POP PUSH2 0x3B0 PUSH2 0x470 CALLDATASIZE PUSH1 0x4 PUSH2 0x4EEE JUMP JUMPDEST PUSH2 0xFB1 JUMP JUMPDEST CALLVALUE DUP1 ISZERO PUSH2 0x481 JUMPI PUSH1 0x0 DUP1 REVERT JUMPDEST POP PUSH2 0x38F PUSH2 0x490 CALLDATASIZE PUSH1 0x4 PUSH2 0x4DD8 JUMP JUMPDEST PUSH2 0x100F JUMP JUMPDEST CALLVALUE DUP1 ISZERO PUSH2 0x4A1 JUMPI PUSH1 0x0 DUP1 REVERT JUMPDEST POP PUSH2 0x3B0 PUSH2 0x4B0 CALLDATASIZE PUSH1 0x4 PUSH2 0x4F2A JUMP JUMPDEST PUSH2 0x104A JUMP JUMPDEST CALLVALUE DUP1 ISZERO PUSH2 0x4C1 JUMPI PUSH1 0x0 DUP1 REVERT JUMPDEST POP PUSH2 0x38F PUSH2 0x4D0 CALLDATASIZE PUSH1 0x4 PUSH2 0x4F89 JUMP JUMPDEST PUSH2 0x109F JUMP JUMPDEST CALLVALUE DUP1 ISZERO PUSH2 0x4E1 JUMPI PUSH1 0x0 DUP1 REVERT JUMPDEST POP PUSH2 0x407 PUSH2 0x4F0 CALLDATASIZE PUSH1 0x4 PUSH2 0x4F2A JUMP JUMPDEST PUSH2 0x132B JUMP JUMPDEST CALLVALUE DUP1 ISZERO PUSH2 0x501 JUMPI PUSH1 0x0 DUP1 REVERT JUMPDEST POP PUSH2 0x38F PUSH2 0x510 CALLDATASIZE PUSH1 0x4 PUSH2 0x4F2A JUMP JUMPDEST PUSH2 0x136C JUMP JUMPDEST CALLVALUE DUP1 ISZERO PUSH2 0x521 JUMPI PUSH1 0x0 DUP1 REVERT JUMPDEST POP PUSH2 0x38F PUSH2 0x530 CALLDATASIZE PUSH1 0x4 PUSH2 0x4F2A JUMP JUMPDEST PUSH2 0x13CA JUMP JUMPDEST CALLVALUE DUP1 ISZERO PUSH2 0x541 JUMPI PUSH1 0x0 DUP1 REVERT JUMPDEST POP PUSH2 0x38F PUSH2 0x550 CALLDATASIZE PUSH1 0x4 PUSH2 0x4E06 JUMP JUMPDEST PUSH2 0x141C JUMP JUMPDEST CALLVALUE DUP1 ISZERO PUSH2 0x561 JUMPI PUSH1 0x0 DUP1 REVERT JUMPDEST POP PUSH2 0x38F PUSH2 0x570 CALLDATASIZE PUSH1 0x4 PUSH2 0x4FC2 JUMP JUMPDEST PUSH2 0x15CA JUMP JUMPDEST CALLVALUE DUP1 ISZERO PUSH2 0x581 JUMPI PUSH1 0x0 DUP1 REVERT JUMPDEST POP PUSH2 0x38F PUSH2 0x590 CALLDATASIZE PUSH1 0x4 PUSH2 0x50A6 JUMP JUMPDEST PUSH2 0x17FC JUMP JUMPDEST CALLVALUE DUP1 ISZERO PUSH2 0x5A1 JUMPI PUSH1 0x0 DUP1 REVERT JUMPDEST POP PUSH2 0x38F PUSH2 0x5B0 CALLDATASIZE PUSH1 0x4 PUSH2 0x4EEE JUMP JUMPDEST PUSH2 0x1834 JUMP JUMPDEST PUSH2 0x38F PUSH2 0x5C3 CALLDATASIZE PUSH1 0x4 PUSH2 0x4EEE JUMP JUMPDEST PUSH2 0x187F JUMP JUMPDEST CALLVALUE DUP1 ISZERO PUSH2 0x5D4 JUMPI PUSH1 0x0 DUP1 REVERT JUMPDEST POP PUSH2 0x38F PUSH2 0x5E3 CALLDATASIZE PUSH1 0x4 PUSH2 0x5179 JUMP JUMPDEST PUSH2 0x188B JUMP JUMPDEST CALLVALUE DUP1 ISZERO PUSH2 0x5F4 JUMPI PUSH1 0x0 DUP1 REVERT JUMPDEST POP PUSH2 0x38F PUSH2 0x603 CALLDATASIZE PUSH1 0x4 PUSH2 0x4FC2 JUMP JUMPDEST PUSH2 0x18CC JUMP JUMPDEST CALLVALUE DUP1 ISZERO PUSH2 0x614 JUMPI PUSH1 0x0 DUP1 REVERT JUMPDEST POP PUSH2 0x407 PUSH2 0x623 CALLDATASIZE PUSH1 0x4 PUSH2 0x4E06 JUMP JUMPDEST PUSH1 0x1 PUSH1 0x1 PUSH1 0xA0 SHL SUB AND PUSH1 0x0 SWAP1 DUP2 MSTORE PUSH1 0xB PUSH1 0x20 MSTORE PUSH1 0x40 SWAP1 KECCAK256 SLOAD SWAP1 JUMP JUMPDEST CALLVALUE DUP1 ISZERO PUSH2 0x64A JUMPI PUSH1 0x0 DUP1 REVERT JUMPDEST POP PUSH2 0x3B0 PUSH2 0x659 CALLDATASIZE PUSH1 0x4 PUSH2 0x51C3 JUMP JUMPDEST PUSH1 0x0 SWAP2 DUP3 MSTORE PUSH1 0x1A PUSH1 0x20 SWAP1 DUP2 MSTORE PUSH1 0x40 DUP1 DUP5 KECCAK256 PUSH1 0x1 PUSH1 0x1 PUSH1 0xA0 SHL SUB SWAP4 SWAP1 SWAP4 AND DUP5 MSTORE PUSH1 0x4 DUP3 MSTORE DUP1 DUP5 KECCAK256 SLOAD DUP5 MSTORE SWAP2 SWAP1 MSTORE SWAP1 KECCAK256 SLOAD PUSH1 0xFF AND SWAP1 JUMP JUMPDEST CALLVALUE DUP1 ISZERO PUSH2 0x69A JUMPI PUSH1 0x0 DUP1 REVERT JUMPDEST POP PUSH2 0x407 PUSH2 0x6A9 CALLDATASIZE PUSH1 0x4 PUSH2 0x4DD8 JUMP JUMPDEST PUSH1 0x0 SWAP1 DUP2 MSTORE PUSH1 0x13 PUSH1 0x20 MSTORE PUSH1 0x40 SWAP1 KECCAK256 PUSH1 0x1 ADD SLOAD SWAP1 JUMP JUMPDEST CALLVALUE DUP1 ISZERO PUSH2 0x6CA JUMPI PUSH1 0x0 DUP1 REVERT JUMPDEST POP PUSH2 0x407 PUSH2 0x6D9 CALLDATASIZE PUSH1 0x4 PUSH2 0x4E06 JUMP JUMPDEST PUSH1 0x9 PUSH1 0x20 MSTORE PUSH1 0x0 SWAP1 DUP2 MSTORE PUSH1 0x40 SWAP1 KECCAK256 SLOAD DUP2 JUMP JUMPDEST CALLVALUE DUP1 ISZERO PUSH2 0x6F7 JUMPI PUSH1 0x0 DUP1 REVERT JUMPDEST POP PUSH2 0x721 PUSH2 0x706 CALLDATASIZE PUSH1 0x4 PUSH2 0x4DD8 JUMP JUMPDEST PUSH1 0x0 SWAP1 DUP2 MSTORE PUSH1 0x13 PUSH1 0x20 MSTORE PUSH1 0x40 SWAP1 KECCAK256 SLOAD PUSH1 0x1 PUSH1 0x1 PUSH1 0xA0 SHL SUB AND SWAP1 JUMP JUMPDEST PUSH1 0x40 MLOAD PUSH1 0x1 PUSH1 0x1 PUSH1 0xA0 SHL SUB SWAP1 SWAP2 AND DUP2 MSTORE PUSH1 0x20 ADD PUSH2 0x3BC JUMP JUMPDEST CALLVALUE DUP1 ISZERO PUSH2 0x745 JUMPI PUSH1 0x0 DUP1 REVERT JUMPDEST POP PUSH2 0x38F PUSH2 0x754 CALLDATASIZE PUSH1 0x4 PUSH2 0x51E8 JUMP JUMPDEST PUSH2 0x1904 JUMP JUMPDEST CALLVALUE DUP1 ISZERO PUSH2 0x765 JUMPI PUSH1 0x0 DUP1 REVERT JUMPDEST POP PUSH2 0x3B0 PUSH2 0x774 CALLDATASIZE PUSH1 0x4 PUSH2 0x4DD8 JUMP JUMPDEST PUSH1 0x0 SWAP1 DUP2 MSTORE PUSH1 0x16 PUSH1 0x20 SWAP1 DUP2 MSTORE PUSH1 0x40 DUP1 DUP4 KECCAK256 PUSH1 0x1 ADD SLOAD PUSH1 0x19 SWAP1 SWAP3 MSTORE SWAP1 SWAP2 KECCAK256 SLOAD EQ SWAP1 JUMP JUMPDEST CALLVALUE DUP1 ISZERO PUSH2 0x7A2 JUMPI PUSH1 0x0 DUP1 REVERT JUMPDEST POP PUSH2 0x38F PUSH2 0x7B1 CALLDATASIZE PUSH1 0x4 PUSH2 0x5241 JUMP JUMPDEST PUSH2 0x1951 JUMP JUMPDEST CALLVALUE DUP1 ISZERO PUSH2 0x7C2 JUMPI PUSH1 0x0 DUP1 REVERT JUMPDEST POP PUSH2 0x407 PUSH2 0x7D1 CALLDATASIZE PUSH1 0x4 PUSH2 0x4DD8 JUMP JUMPDEST PUSH1 0x0 SWAP1 DUP2 MSTORE PUSH1 0x6 PUSH1 0x20 MSTORE PUSH1 0x40 SWAP1 KECCAK256 PUSH1 0x1 ADD SLOAD SWAP1 JUMP JUMPDEST CALLVALUE DUP1 ISZERO PUSH2 0x7F2 JUMPI PUSH1 0x0 DUP1 REVERT JUMPDEST POP PUSH2 0x38F PUSH2 0x801 CALLDATASIZE PUSH1 0x4 PUSH2 0x4E06 JUMP JUMPDEST PUSH2 0x1972 JUMP JUMPDEST CALLVALUE DUP1 ISZERO PUSH2 0x812 JUMPI PUSH1 0x0 DUP1 REVERT JUMPDEST POP PUSH2 0x3B0 PUSH2 0x821 CALLDATASIZE PUSH1 0x4 PUSH2 0x4E06 JUMP JUMPDEST PUSH2 0x19D0 JUMP JUMPDEST CALLVALUE DUP1 ISZERO PUSH2 0x832 JUMPI PUSH1 0x0 DUP1 REVERT JUMPDEST POP PUSH2 0x38F PUSH2 0x841 CALLDATASIZE PUSH1 0x4 PUSH2 0x4E06 JUMP JUMPDEST PUSH2 0x1A05 JUMP JUMPDEST CALLVALUE DUP1 ISZERO PUSH2 0x852 JUMPI PUSH1 0x0 DUP1 REVERT JUMPDEST POP PUSH2 0x3B0 PUSH2 0x861 CALLDATASIZE PUSH1 0x4 PUSH2 0x4DD8 JUMP JUMPDEST PUSH1 0x0 SWAP1 DUP2 MSTORE PUSH1 0x12 PUSH1 0x20 MSTORE PUSH1 0x40 SWAP1 KECCAK256 SLOAD PUSH1 0xFF AND SWAP1 JUMP JUMPDEST CALLVALUE DUP1 ISZERO PUSH2 0x882 JUMPI PUSH1 0x0 DUP1 REVERT JUMPDEST POP PUSH2 0x3B0 PUSH2 0x891 CALLDATASIZE PUSH1 0x4 PUSH2 0x4DD8 JUMP JUMPDEST PUSH2 0x1A63 JUMP JUMPDEST CALLVALUE DUP1 ISZERO PUSH2 0x8A2 JUMPI PUSH1 0x0 DUP1 REVERT JUMPDEST POP PUSH2 0x3B0 PUSH2 0x8B1 CALLDATASIZE PUSH1 0x4 PUSH2 0x4DD8 JUMP JUMPDEST PUSH1 0x0 DUP1 SLOAD SWAP2 DUP2 MSTORE PUSH1 0x7 PUSH1 0x20 MSTORE PUSH1 0x40 SWAP1 KECCAK256 SLOAD GT SWAP1 JUMP JUMPDEST CALLVALUE DUP1 ISZERO PUSH2 0x8D2 JUMPI PUSH1 0x0 DUP1 REVERT JUMPDEST POP PUSH2 0x38F PUSH2 0x8E1 CALLDATASIZE PUSH1 0x4 PUSH2 0x52D7 JUMP JUMPDEST PUSH2 0x1AAA JUMP JUMPDEST CALLVALUE DUP1 ISZERO PUSH2 0x8F2 JUMPI PUSH1 0x0 DUP1 REVERT JUMPDEST POP PUSH2 0x38F PUSH2 0x901 CALLDATASIZE PUSH1 0x4 PUSH2 0x5354 JUMP JUMPDEST PUSH2 0x1ACA JUMP JUMPDEST CALLVALUE DUP1 ISZERO PUSH2 0x912 JUMPI PUSH1 0x0 DUP1 REVERT JUMPDEST POP PUSH2 0x721 PUSH2 0x921 CALLDATASIZE PUSH1 0x4 PUSH2 0x4DD8 JUMP JUMPDEST PUSH1 0x16 PUSH1 0x20 MSTORE PUSH1 0x0 SWAP1 DUP2 MSTORE PUSH1 0x40 SWAP1 KECCAK256 SLOAD PUSH1 0x1 PUSH1 0x1 PUSH1 0xA0 SHL SUB AND DUP2 JUMP JUMPDEST CALLVALUE DUP1 ISZERO PUSH2 0x948 JUMPI PUSH1 0x0 DUP1 REVERT JUMPDEST POP PUSH2 0x3B0 PUSH2 0x957 CALLDATASIZE PUSH1 0x4 PUSH2 0x4F2A JUMP JUMPDEST PUSH2 0x1AD5 JUMP JUMPDEST CALLVALUE DUP1 ISZERO PUSH2 0x968 JUMPI PUSH1 0x0 DUP1 REVERT JUMPDEST POP PUSH1 0x0 SLOAD PUSH2 0x407 JUMP JUMPDEST CALLVALUE DUP1 ISZERO PUSH2 0x97D JUMPI PUSH1 0x0 DUP1 REVERT JUMPDEST POP PUSH2 0x38F PUSH2 0x98C CALLDATASIZE PUSH1 0x4 PUSH2 0x4F2A JUMP JUMPDEST PUSH2 0x1B47 JUMP JUMPDEST PUSH2 0x38F PUSH2 0x99F CALLDATASIZE PUSH1 0x4 PUSH2 0x53AC JUMP JUMPDEST PUSH2 0x1B93 JUMP JUMPDEST CALLVALUE DUP1 ISZERO PUSH2 0x9B0 JUMPI PUSH1 0x0 DUP1 REVERT JUMPDEST POP PUSH2 0x38F PUSH2 0x9BF CALLDATASIZE PUSH1 0x4 PUSH2 0x53D8 JUMP JUMPDEST PUSH2 0x21F8 JUMP JUMPDEST CALLVALUE DUP1 ISZERO PUSH2 0x9D0 JUMPI PUSH1 0x0 DUP1 REVERT JUMPDEST POP PUSH2 0x3B0 PUSH2 0x9DF CALLDATASIZE PUSH1 0x4 PUSH2 0x4DD8 JUMP JUMPDEST PUSH1 0x0 SWAP1 DUP2 MSTORE PUSH1 0x1C PUSH1 0x20 MSTORE PUSH1 0x40 SWAP1 KECCAK256 SLOAD PUSH1 0xFF AND SWAP1 JUMP JUMPDEST CALLVALUE DUP1 ISZERO PUSH2 0xA00 JUMPI PUSH1 0x0 DUP1 REVERT JUMPDEST POP PUSH2 0x3B0 PUSH2 0xA0F CALLDATASIZE PUSH1 0x4 PUSH2 0x4EEE JUMP JUMPDEST PUSH2 0x2274 JUMP JUMPDEST CALLVALUE DUP1 ISZERO PUSH2 0xA20 JUMPI PUSH1 0x0 DUP1 REVERT JUMPDEST POP PUSH2 0xA59 PUSH2 0xA2F CALLDATASIZE PUSH1 0x4 PUSH2 0x4DD8 JUMP JUMPDEST PUSH1 0x3 PUSH1 0x20 MSTORE PUSH1 0x0 SWAP1 DUP2 MSTORE PUSH1 0x40 SWAP1 KECCAK256 DUP1 SLOAD PUSH1 0x1 DUP3 ADD SLOAD PUSH1 0x2 SWAP1 SWAP3 ADD SLOAD SWAP1 SWAP2 PUSH1 0x1 PUSH1 0x1 PUSH1 0xA0 SHL SUB AND SWAP1 DUP4 JUMP JUMPDEST PUSH1 0x40 DUP1 MLOAD SWAP4 DUP5 MSTORE PUSH1 0x1 PUSH1 0x1 PUSH1 0xA0 SHL SUB SWAP1 SWAP3 AND PUSH1 0x20 DUP5 ADD MSTORE SWAP1 DUP3 ADD MSTORE PUSH1 0x60 ADD PUSH2 0x3BC JUMP JUMPDEST CALLVALUE DUP1 ISZERO PUSH2 0xA88 JUMPI PUSH1 0x0 DUP1 REVERT JUMPDEST POP PUSH2 0x407 PUSH2 0xA97 CALLDATASIZE PUSH1 0x4 PUSH2 0x4E06 JUMP JUMPDEST PUSH1 0x4 PUSH1 0x20 MSTORE PUSH1 0x0 SWAP1 DUP2 MSTORE PUSH1 0x40 SWAP1 KECCAK256 SLOAD DUP2 JUMP JUMPDEST CALLVALUE DUP1 ISZERO PUSH2 0xAB5 JUMPI PUSH1 0x0 DUP1 REVERT JUMPDEST POP PUSH2 0x38F PUSH2 0xAC4 CALLDATASIZE PUSH1 0x4 PUSH2 0x5413 JUMP JUMPDEST PUSH2 0x22A4 JUMP JUMPDEST CALLVALUE DUP1 ISZERO PUSH2 0xAD5 JUMPI PUSH1 0x0 DUP1 REVERT JUMPDEST POP PUSH2 0x3B0 PUSH2 0xAE4 CALLDATASIZE PUSH1 0x4 PUSH2 0x4DD8 JUMP JUMPDEST PUSH1 0x0 SWAP1 DUP2 MSTORE PUSH1 0x1B PUSH1 0x20 MSTORE PUSH1 0x40 SWAP1 KECCAK256 SLOAD PUSH1 0xFF AND SWAP1 JUMP JUMPDEST CALLVALUE DUP1 ISZERO PUSH2 0xB05 JUMPI PUSH1 0x0 DUP1 REVERT JUMPDEST POP PUSH2 0x3B0 PUSH2 0x2351 JUMP JUMPDEST CALLVALUE DUP1 ISZERO PUSH2 0xB1A JUMPI PUSH1 0x0 DUP1 REVERT JUMPDEST POP PUSH2 0x3B0 PUSH2 0xB29 CALLDATASIZE PUSH1 0x4 PUSH2 0x4F2A JUMP JUMPDEST PUSH2 0x237B JUMP JUMPDEST CALLVALUE DUP1 ISZERO PUSH2 0xB3A JUMPI PUSH1 0x0 DUP1 REVERT JUMPDEST POP PUSH2 0x3B0 PUSH2 0xB49 CALLDATASIZE PUSH1 0x4 PUSH2 0x4E06 JUMP JUMPDEST PUSH2 0x23D1 JUMP JUMPDEST CALLVALUE DUP1 ISZERO PUSH2 0xB5A JUMPI PUSH1 0x0 DUP1 REVERT JUMPDEST POP PUSH2 0x407 PUSH2 0xB69 CALLDATASIZE PUSH1 0x4 PUSH2 0x4DD8 JUMP JUMPDEST PUSH1 0x0 SWAP1 DUP2 MSTORE PUSH1 0x14 PUSH1 0x20 MSTORE PUSH1 0x40 SWAP1 KECCAK256 SLOAD SWAP1 JUMP JUMPDEST CALLVALUE DUP1 ISZERO PUSH2 0xB87 JUMPI PUSH1 0x0 DUP1 REVERT JUMPDEST POP PUSH2 0x3B0 PUSH2 0xB96 CALLDATASIZE PUSH1 0x4 PUSH2 0x4FC2 JUMP JUMPDEST PUSH1 0x0 SWAP2 DUP3 MSTORE PUSH1 0x16 PUSH1 0x20 MSTORE PUSH1 0x40 SWAP1 SWAP2 KECCAK256 PUSH1 0x1 ADD SLOAD GT SWAP1 JUMP JUMPDEST CALLVALUE DUP1 ISZERO PUSH2 0xBB9 JUMPI PUSH1 0x0 DUP1 REVERT JUMPDEST POP PUSH2 0x407 PUSH2 0xBC8 CALLDATASIZE PUSH1 0x4 PUSH2 0x4DD8 JUMP JUMPDEST PUSH1 0x0 SWAP1 DUP2 MSTORE PUSH1 0x7 PUSH1 0x20 MSTORE PUSH1 0x40 SWAP1 KECCAK256 SLOAD SWAP1 JUMP JUMPDEST CALLVALUE DUP1 ISZERO PUSH2 0xBE6 JUMPI PUSH1 0x0 DUP1 REVERT JUMPDEST POP PUSH2 0x38F PUSH2 0xBF5 CALLDATASIZE PUSH1 0x4 PUSH2 0x546B JUMP JUMPDEST PUSH2 0x2403 JUMP JUMPDEST CALLVALUE DUP1 ISZERO PUSH2 0xC06 JUMPI PUSH1 0x0 DUP1 REVERT JUMPDEST POP PUSH2 0x3B0 PUSH2 0xC15 CALLDATASIZE PUSH1 0x4 PUSH2 0x4FC2 JUMP JUMPDEST PUSH2 0x248A JUMP JUMPDEST DUP1 PUSH2 0xC24 DUP2 PUSH2 0x2274 JUMP JUMPDEST PUSH2 0xC49 JUMPI PUSH1 0x40 MLOAD PUSH3 0x461BCD PUSH1 0xE5 SHL DUP2 MSTORE PUSH1 0x4 ADD PUSH2 0xC40 SWAP1 PUSH2 0x54C1 JUMP JUMPDEST PUSH1 0x40 MLOAD DUP1 SWAP2 SUB SWAP1 REVERT JUMPDEST PUSH1 0x1 PUSH1 0x1 PUSH1 0xA0 SHL SUB DUP5 AND PUSH1 0x0 SWAP1 DUP2 MSTORE PUSH1 0x9 PUSH1 0x20 MSTORE PUSH1 0x40 DUP2 KECCAK256 DUP1 SLOAD DUP6 SWAP3 SWAP1 PUSH2 0xC71 SWAP1 DUP5 SWAP1 PUSH2 0x54F4 JUMP JUMPDEST SWAP1 SWAP2 SSTORE POP POP PUSH1 0x1 PUSH1 0x1 PUSH1 0xA0 SHL SUB DUP5 AND PUSH1 0x0 SWAP1 DUP2 MSTORE PUSH1 0xB PUSH1 0x20 MSTORE PUSH1 0x40 DUP2 KECCAK256 DUP1 SLOAD DUP6 SWAP3 SWAP1 PUSH2 0xC9E SWAP1 DUP5 SWAP1 PUSH2 0x54F4 JUMP JUMPDEST SWAP1 SWAP2 SSTORE POP POP PUSH1 0x40 MLOAD PUSH1 0xF SWAP1 PUSH2 0xCB4 SWAP1 DUP5 SWAP1 PUSH2 0x552B JUMP JUMPDEST SWAP1 DUP2 MSTORE PUSH1 0x40 DUP1 MLOAD PUSH1 0x20 SWAP3 DUP2 SWAP1 SUB DUP4 ADD SWAP1 KECCAK256 PUSH1 0x1 PUSH1 0x1 PUSH1 0xA0 SHL SUB DUP8 AND PUSH1 0x0 SWAP1 DUP2 MSTORE SWAP3 MSTORE SWAP1 KECCAK256 SLOAD ISZERO DUP1 ISZERO PUSH2 0xCEE JUMPI POP PUSH1 0x1 PUSH1 0x1 PUSH1 0xA0 SHL SUB DUP5 AND ISZERO ISZERO JUMPDEST ISZERO PUSH2 0xD28 JUMPI PUSH1 0x1 PUSH1 0xE DUP4 PUSH1 0x40 MLOAD PUSH2 0xD05 SWAP2 SWAP1 PUSH2 0x552B JUMP JUMPDEST SWAP1 DUP2 MSTORE PUSH1 0x20 ADD PUSH1 0x40 MLOAD DUP1 SWAP2 SUB SWAP1 KECCAK256 PUSH1 0x0 DUP3 DUP3 SLOAD PUSH2 0xD22 SWAP2 SWAP1 PUSH2 0x54F4 JUMP JUMPDEST SWAP1 SWAP2 SSTORE POP POP JUMPDEST DUP3 PUSH1 0xF DUP4 PUSH1 0x40 MLOAD PUSH2 0xD39 SWAP2 SWAP1 PUSH2 0x552B JUMP JUMPDEST SWAP1 DUP2 MSTORE PUSH1 0x20 ADD PUSH1 0x40 MLOAD DUP1 SWAP2 SUB SWAP1 KECCAK256 PUSH1 0x0 DUP7 PUSH1 0x1 PUSH1 0x1 PUSH1 0xA0 SHL SUB AND PUSH1 0x1 PUSH1 0x1 PUSH1 0xA0 SHL SUB AND DUP2 MSTORE PUSH1 0x20 ADD SWAP1 DUP2 MSTORE PUSH1 0x20 ADD PUSH1 0x0 KECCAK256 PUSH1 0x0 DUP3 DUP3 SLOAD PUSH2 0xD79 SWAP2 SWAP1 PUSH2 0x54F4 JUMP JUMPDEST SWAP1 SWAP2 SSTORE POP POP PUSH1 0x40 MLOAD PUSH1 0x0 DUP1 MLOAD PUSH1 0x20 PUSH2 0x611C DUP4 CODECOPY DUP2 MLOAD SWAP2 MSTORE SWAP1 PUSH2 0xDA3 SWAP1 DUP5 SWAP1 DUP8 SWAP1 DUP8 SWAP1 PUSH1 0x20 ADD PUSH2 0x5573 JUMP JUMPDEST PUSH1 0x40 DUP1 MLOAD PUSH1 0x1F NOT DUP2 DUP5 SUB ADD DUP2 MSTORE SWAP1 DUP3 SWAP1 MSTORE PUSH2 0xDBF SWAP2 CALLER SWAP1 PUSH2 0x55A1 JUMP JUMPDEST PUSH1 0x40 MLOAD DUP1 SWAP2 SUB SWAP1 LOG1 POP POP POP POP JUMP JUMPDEST PUSH1 0x40 MLOAD DUP1 PUSH1 0x40 ADD PUSH1 0x40 MSTORE DUP1 PUSH1 0x2 DUP2 MSTORE PUSH1 0x20 ADD PUSH2 0x6C45 PUSH1 0xF0 SHL DUP2 MSTORE POP PUSH2 0xDF2 DUP2 CALLER PUSH2 0x237B JUMP JUMPDEST PUSH2 0xDFB JUMPI PUSH1 0x0 DUP1 REVERT JUMPDEST PUSH2 0xE03 PUSH2 0x24BB JUMP JUMPDEST POP JUMP JUMPDEST PUSH1 0x0 DUP2 DUP2 MSTORE PUSH1 0x3 PUSH1 0x20 MSTORE PUSH1 0x40 SWAP1 KECCAK256 PUSH1 0x1 ADD SLOAD DUP2 SWAP1 PUSH1 0x1 PUSH1 0x1 PUSH1 0xA0 SHL SUB AND CALLER EQ PUSH2 0xE41 JUMPI PUSH1 0x40 MLOAD PUSH3 0x461BCD PUSH1 0xE5 SHL DUP2 MSTORE PUSH1 0x4 ADD PUSH2 0xC40 SWAP1 PUSH2 0x55E4 JUMP JUMPDEST DUP2 PUSH2 0xE5B DUP2 PUSH1 0x0 DUP1 SLOAD SWAP2 DUP2 MSTORE PUSH1 0x7 PUSH1 0x20 MSTORE PUSH1 0x40 SWAP1 KECCAK256 SLOAD GT SWAP1 JUMP JUMPDEST PUSH2 0xE77 JUMPI PUSH1 0x40 MLOAD PUSH3 0x461BCD PUSH1 0xE5 SHL DUP2 MSTORE PUSH1 0x4 ADD PUSH2 0xC40 SWAP1 PUSH2 0x5600 JUMP JUMPDEST PUSH1 0x1 PUSH1 0x0 DUP5 DUP2 MSTORE PUSH1 0x5 PUSH1 0x20 MSTORE PUSH1 0x40 SWAP1 KECCAK256 SLOAD PUSH1 0xFF AND PUSH1 0x2 DUP2 GT ISZERO PUSH2 0xE9C JUMPI PUSH2 0xE9C PUSH2 0x561C JUMP JUMPDEST EQ PUSH2 0xECE JUMPI PUSH1 0x40 MLOAD PUSH3 0x461BCD PUSH1 0xE5 SHL DUP2 MSTORE PUSH1 0x20 PUSH1 0x4 DUP3 ADD MSTORE PUSH1 0x2 PUSH1 0x24 DUP3 ADD MSTORE PUSH2 0x4E53 PUSH1 0xF0 SHL PUSH1 0x44 DUP3 ADD MSTORE PUSH1 0x64 ADD PUSH2 0xC40 JUMP JUMPDEST PUSH2 0xED7 DUP4 PUSH2 0x250D JUMP JUMPDEST POP POP POP JUMP JUMPDEST PUSH2 0xEE4 PUSH2 0x2351 JUMP JUMPDEST PUSH2 0xF15 JUMPI PUSH1 0x40 MLOAD PUSH3 0x461BCD PUSH1 0xE5 SHL DUP2 MSTORE PUSH1 0x20 PUSH1 0x4 DUP3 ADD MSTORE PUSH1 0x2 PUSH1 0x24 DUP3 ADD MSTORE PUSH2 0xAE9 PUSH1 0xF3 SHL PUSH1 0x44 DUP3 ADD MSTORE PUSH1 0x64 ADD PUSH2 0xC40 JUMP JUMPDEST PUSH1 0x1 PUSH1 0x1 PUSH1 0xA0 SHL SUB DUP2 AND PUSH1 0x0 SWAP1 DUP2 MSTORE PUSH1 0xB PUSH1 0x20 MSTORE PUSH1 0x40 SWAP1 KECCAK256 SLOAD PUSH2 0xF5E JUMPI PUSH1 0x40 MLOAD PUSH3 0x461BCD PUSH1 0xE5 SHL DUP2 MSTORE PUSH1 0x20 PUSH1 0x4 DUP3 ADD MSTORE PUSH1 0x1 PUSH1 0x24 DUP3 ADD MSTORE PUSH1 0x45 PUSH1 0xF8 SHL PUSH1 0x44 DUP3 ADD MSTORE PUSH1 0x64 ADD PUSH2 0xC40 JUMP JUMPDEST PUSH1 0x1 PUSH1 0x1 PUSH1 0xA0 SHL SUB DUP2 AND PUSH1 0x0 SWAP1 DUP2 MSTORE PUSH1 0xB PUSH1 0x20 MSTORE PUSH1 0x40 SWAP1 KECCAK256 SLOAD PUSH2 0xF97 SWAP1 DUP3 SWAP1 PUSH20 0x49A71890AEA5A751E30E740C504F2E9683F347BC PUSH2 0x25B7 JUMP JUMPDEST PUSH1 0x1 PUSH1 0x1 PUSH1 0xA0 SHL SUB AND PUSH1 0x0 SWAP1 DUP2 MSTORE PUSH1 0xB PUSH1 0x20 MSTORE PUSH1 0x40 DUP2 KECCAK256 SSTORE JUMP JUMPDEST PUSH1 0x0 PUSH1 0xE DUP3 PUSH1 0x40 MLOAD PUSH2 0xFC3 SWAP2 SWAP1 PUSH2 0x552B JUMP JUMPDEST SWAP1 DUP2 MSTORE PUSH1 0x20 ADD PUSH1 0x40 MLOAD DUP1 SWAP2 SUB SWAP1 KECCAK256 SLOAD PUSH1 0x0 EQ DUP1 ISZERO PUSH2 0x1009 JUMPI POP PUSH1 0xF DUP3 PUSH1 0x40 MLOAD PUSH2 0xFEC SWAP2 SWAP1 PUSH2 0x552B JUMP JUMPDEST SWAP1 DUP2 MSTORE PUSH1 0x40 DUP1 MLOAD PUSH1 0x20 SWAP3 DUP2 SWAP1 SUB DUP4 ADD SWAP1 KECCAK256 PUSH1 0x0 DUP1 DUP1 MSTORE SWAP3 MSTORE SWAP1 KECCAK256 SLOAD ISZERO JUMPDEST SWAP3 SWAP2 POP POP JUMP JUMPDEST PUSH1 0x40 MLOAD DUP1 PUSH1 0x40 ADD PUSH1 0x40 MSTORE DUP1 PUSH1 0x2 DUP2 MSTORE PUSH1 0x20 ADD PUSH2 0x1B51 PUSH1 0xF2 SHL DUP2 MSTORE POP PUSH2 0x1034 DUP2 CALLER PUSH2 0x237B JUMP JUMPDEST PUSH2 0x103D JUMPI PUSH1 0x0 DUP1 REVERT JUMPDEST PUSH2 0x1046 DUP3 PUSH2 0x2706 JUMP JUMPDEST POP POP JUMP JUMPDEST PUSH1 0x0 PUSH1 0x2 PUSH1 0x11 DUP5 PUSH1 0x40 MLOAD PUSH2 0x105E SWAP2 SWAP1 PUSH2 0x552B JUMP JUMPDEST SWAP1 DUP2 MSTORE PUSH1 0x40 DUP1 MLOAD PUSH1 0x20 SWAP3 DUP2 SWAP1 SUB DUP4 ADD SWAP1 KECCAK256 PUSH1 0x1 PUSH1 0x1 PUSH1 0xA0 SHL SUB DUP7 AND PUSH1 0x0 SWAP1 DUP2 MSTORE SWAP3 MSTORE SWAP1 KECCAK256 SLOAD PUSH1 0xFF AND PUSH1 0x2 DUP2 GT ISZERO PUSH2 0x1097 JUMPI PUSH2 0x1097 PUSH2 0x561C JUMP JUMPDEST EQ SWAP4 SWAP3 POP POP POP JUMP JUMPDEST PUSH1 0x0 DUP4 DUP2 MSTORE PUSH1 0x3 PUSH1 0x20 MSTORE PUSH1 0x40 SWAP1 KECCAK256 PUSH1 0x1 ADD SLOAD DUP4 SWAP1 PUSH1 0x1 PUSH1 0x1 PUSH1 0xA0 SHL SUB AND CALLER EQ PUSH2 0x10DA JUMPI PUSH1 0x40 MLOAD PUSH3 0x461BCD PUSH1 0xE5 SHL DUP2 MSTORE PUSH1 0x4 ADD PUSH2 0xC40 SWAP1 PUSH2 0x55E4 JUMP JUMPDEST PUSH1 0x0 DUP4 DUP2 MSTORE PUSH1 0x1B PUSH1 0x20 MSTORE PUSH1 0x40 SWAP1 KECCAK256 SLOAD DUP4 SWAP1 PUSH1 0xFF AND PUSH2 0x1120 JUMPI PUSH1 0x40 MLOAD PUSH3 0x461BCD PUSH1 0xE5 SHL DUP2 MSTORE PUSH1 0x20 PUSH1 0x4 DUP3 ADD MSTORE PUSH1 0x3 PUSH1 0x24 DUP3 ADD MSTORE PUSH3 0x524E5 PUSH1 0xEC SHL PUSH1 0x44 DUP3 ADD MSTORE PUSH1 0x64 ADD PUSH2 0xC40 JUMP JUMPDEST PUSH1 0x1 DUP1 SLOAD PUSH1 0xFF AND ISZERO ISZERO EQ PUSH2 0x1146 JUMPI PUSH1 0x40 MLOAD PUSH3 0x461BCD PUSH1 0xE5 SHL DUP2 MSTORE PUSH1 0x4 ADD PUSH2 0xC40 SWAP1 PUSH2 0x5632 JUMP JUMPDEST PUSH1 0x0 DUP5 DUP2 MSTORE PUSH1 0x1A PUSH1 0x20 SWAP1 DUP2 MSTORE PUSH1 0x40 DUP1 DUP4 KECCAK256 CALLER DUP5 MSTORE PUSH1 0x4 DUP4 MSTORE DUP2 DUP5 KECCAK256 SLOAD DUP5 MSTORE SWAP1 SWAP2 MSTORE SWAP1 KECCAK256 SLOAD PUSH1 0xFF AND ISZERO PUSH2 0x1177 JUMPI PUSH1 0x0 DUP1 REVERT JUMPDEST PUSH2 0x1181 DUP6 DUP6 PUSH2 0x248A JUMP JUMPDEST PUSH2 0x11B3 JUMPI PUSH1 0x40 MLOAD PUSH3 0x461BCD PUSH1 0xE5 SHL DUP2 MSTORE PUSH1 0x20 PUSH1 0x4 DUP3 ADD MSTORE PUSH1 0x3 PUSH1 0x24 DUP3 ADD MSTORE PUSH3 0x29A72B PUSH1 0xE9 SHL PUSH1 0x44 DUP3 ADD MSTORE PUSH1 0x64 ADD PUSH2 0xC40 JUMP JUMPDEST PUSH1 0x0 DUP5 DUP2 MSTORE PUSH1 0x1A PUSH1 0x20 SWAP1 DUP2 MSTORE PUSH1 0x40 DUP1 DUP4 KECCAK256 DUP9 DUP5 MSTORE SWAP1 SWAP2 MSTORE SWAP1 KECCAK256 DUP1 SLOAD PUSH1 0xFF NOT AND PUSH1 0x1 OR SWAP1 SSTORE DUP3 ISZERO PUSH2 0x1210 JUMPI PUSH1 0x0 DUP6 DUP2 MSTORE PUSH1 0x3 PUSH1 0x20 SWAP1 DUP2 MSTORE PUSH1 0x40 DUP1 DUP4 KECCAK256 SLOAD DUP8 DUP5 MSTORE PUSH1 0x17 SWAP1 SWAP3 MSTORE DUP3 KECCAK256 DUP1 SLOAD SWAP2 SWAP3 SWAP1 SWAP2 PUSH2 0x120A SWAP1 DUP5 SWAP1 PUSH2 0x54F4 JUMP JUMPDEST SWAP1 SWAP2 SSTORE POP POP JUMPDEST PUSH1 0x0 DUP6 DUP2 MSTORE PUSH1 0x3 PUSH1 0x20 SWAP1 DUP2 MSTORE PUSH1 0x40 DUP1 DUP4 KECCAK256 SLOAD DUP8 DUP5 MSTORE PUSH1 0x18 SWAP1 SWAP3 MSTORE DUP3 KECCAK256 DUP1 SLOAD SWAP2 SWAP3 SWAP1 SWAP2 PUSH2 0x123D SWAP1 DUP5 SWAP1 PUSH2 0x54F4 JUMP JUMPDEST SWAP1 SWAP2 SSTORE POP POP PUSH1 0x40 DUP1 MLOAD DUP6 DUP2 MSTORE DUP5 ISZERO ISZERO PUSH1 0x20 DUP3 ADD MSTORE CALLER DUP2 DUP4 ADD MSTORE SWAP1 MLOAD PUSH32 0x4A341F5494C396C29C9E30033EC7900B3B51340AC726DC58726E583EA2ACEEB2 SWAP2 DUP2 SWAP1 SUB PUSH1 0x60 ADD SWAP1 LOG1 PUSH1 0x0 PUSH2 0x128D DUP6 PUSH2 0x1A63 JUMP JUMPDEST SWAP1 POP DUP1 DUP1 PUSH2 0x12B3 JUMPI POP PUSH1 0x0 DUP6 DUP2 MSTORE PUSH1 0x2 PUSH1 0x20 SWAP1 DUP2 MSTORE PUSH1 0x40 DUP1 DUP4 KECCAK256 SLOAD PUSH1 0x18 SWAP1 SWAP3 MSTORE SWAP1 SWAP2 KECCAK256 SLOAD EQ JUMPDEST ISZERO PUSH2 0x1323 JUMPI PUSH1 0x0 DUP6 DUP2 MSTORE PUSH1 0x1B PUSH1 0x20 MSTORE PUSH1 0x40 SWAP1 KECCAK256 DUP1 SLOAD PUSH1 0xFF NOT AND SWAP1 SSTORE DUP1 ISZERO PUSH2 0x12EE JUMPI PUSH1 0x0 DUP6 DUP2 MSTORE PUSH1 0x1C PUSH1 0x20 MSTORE PUSH1 0x40 SWAP1 KECCAK256 DUP1 SLOAD PUSH1 0xFF NOT AND PUSH1 0x1 OR SWAP1 SSTORE JUMPDEST PUSH1 0x40 MLOAD DUP6 DUP2 MSTORE PUSH32 0xB7AF3044D10DC1BE59F482D5C460C7C711F80137A36184CDF4F49D973E95ACB1 SWAP1 PUSH1 0x20 ADD JUMPDEST PUSH1 0x40 MLOAD DUP1 SWAP2 SUB SWAP1 LOG1 JUMPDEST POP POP POP POP POP POP JUMP JUMPDEST PUSH1 0x0 PUSH1 0xF DUP4 PUSH1 0x40 MLOAD PUSH2 0x133D SWAP2 SWAP1 PUSH2 0x552B JUMP JUMPDEST SWAP1 DUP2 MSTORE PUSH1 0x40 DUP1 MLOAD SWAP2 DUP3 SWAP1 SUB PUSH1 0x20 SWAP1 DUP2 ADD SWAP1 SWAP3 KECCAK256 PUSH1 0x1 PUSH1 0x1 PUSH1 0xA0 SHL SUB DUP6 AND PUSH1 0x0 SWAP1 DUP2 MSTORE SWAP3 MSTORE SWAP1 KECCAK256 SLOAD SWAP1 POP SWAP3 SWAP2 POP POP JUMP JUMPDEST PUSH1 0x40 MLOAD DUP1 PUSH1 0x40 ADD PUSH1 0x40 MSTORE DUP1 PUSH1 0x2 DUP2 MSTORE PUSH1 0x20 ADD PUSH2 0x36A1 PUSH1 0xF1 SHL DUP2 MSTORE POP PUSH2 0x1391 DUP2 CALLER PUSH2 0x237B JUMP JUMPDEST PUSH2 0x139A JUMPI PUSH1 0x0 DUP1 REVERT JUMPDEST PUSH1 0x1 DUP1 SLOAD PUSH1 0xFF AND ISZERO ISZERO EQ PUSH2 0x13C0 JUMPI PUSH1 0x40 MLOAD PUSH3 0x461BCD PUSH1 0xE5 SHL DUP2 MSTORE PUSH1 0x4 ADD PUSH2 0xC40 SWAP1 PUSH2 0x5632 JUMP JUMPDEST PUSH2 0xED7 DUP4 DUP4 PUSH2 0x27F1 JUMP JUMPDEST PUSH1 0x40 MLOAD DUP1 PUSH1 0x40 ADD PUSH1 0x40 MSTORE DUP1 PUSH1 0x2 DUP2 MSTORE PUSH1 0x20 ADD PUSH2 0x36A1 PUSH1 0xF1 SHL DUP2 MSTORE POP PUSH2 0x13EF DUP2 CALLER PUSH2 0x104A JUMP JUMPDEST PUSH2 0x13F8 JUMPI PUSH1 0x0 DUP1 REVERT JUMPDEST DUP3 PUSH2 0x1403 DUP2 CALLER PUSH2 0x1AD5 JUMP JUMPDEST PUSH2 0x140C JUMPI PUSH1 0x0 DUP1 REVERT JUMPDEST PUSH2 0x1416 DUP5 DUP5 PUSH2 0x2903 JUMP JUMPDEST POP POP POP POP JUMP JUMPDEST PUSH2 0x1425 CALLER PUSH2 0x23D1 JUMP JUMPDEST PUSH2 0x1456 JUMPI PUSH1 0x40 MLOAD PUSH3 0x461BCD PUSH1 0xE5 SHL DUP2 MSTORE PUSH1 0x20 PUSH1 0x4 DUP3 ADD MSTORE PUSH1 0x2 PUSH1 0x24 DUP3 ADD MSTORE PUSH2 0xAA9 PUSH1 0xF3 SHL PUSH1 0x44 DUP3 ADD MSTORE PUSH1 0x64 ADD PUSH2 0xC40 JUMP JUMPDEST PUSH1 0x1 SLOAD PUSH1 0xFF AND ISZERO PUSH2 0x148E JUMPI PUSH1 0x40 MLOAD PUSH3 0x461BCD PUSH1 0xE5 SHL DUP2 MSTORE PUSH1 0x20 PUSH1 0x4 DUP3 ADD MSTORE PUSH1 0x2 PUSH1 0x24 DUP3 ADD MSTORE PUSH2 0x5341 PUSH1 0xF0 SHL PUSH1 0x44 DUP3 ADD MSTORE PUSH1 0x64 ADD PUSH2 0xC40 JUMP JUMPDEST CALLER PUSH1 0x0 SWAP1 DUP2 MSTORE PUSH1 0x4 PUSH1 0x20 SWAP1 DUP2 MSTORE PUSH1 0x40 DUP1 DUP4 KECCAK256 SLOAD PUSH1 0x1 PUSH1 0x1 PUSH1 0xA0 SHL SUB DUP6 AND DUP5 MSTORE PUSH1 0xC DUP4 MSTORE DUP2 DUP5 KECCAK256 DUP2 DUP6 MSTORE SWAP1 SWAP3 MSTORE SWAP1 SWAP2 KECCAK256 SLOAD PUSH1 0xFF AND ISZERO PUSH2 0x14F3 JUMPI PUSH1 0x40 MLOAD PUSH3 0x461BCD PUSH1 0xE5 SHL DUP2 MSTORE PUSH1 0x20 PUSH1 0x4 DUP3 ADD MSTORE PUSH1 0x2 PUSH1 0x24 DUP3 ADD MSTORE PUSH2 0x4143 PUSH1 0xF0 SHL PUSH1 0x44 DUP3 ADD MSTORE PUSH1 0x64 ADD PUSH2 0xC40 JUMP JUMPDEST PUSH1 0x1 PUSH1 0x1 PUSH1 0xA0 SHL SUB DUP3 AND PUSH1 0x0 DUP2 DUP2 MSTORE PUSH1 0xC PUSH1 0x20 SWAP1 DUP2 MSTORE PUSH1 0x40 DUP1 DUP4 KECCAK256 DUP6 DUP5 MSTORE DUP3 MSTORE DUP1 DUP4 KECCAK256 DUP1 SLOAD PUSH1 0xFF NOT AND PUSH1 0x1 OR SWAP1 SSTORE DUP3 SLOAD DUP4 MSTORE PUSH1 0x2 DUP3 MSTORE DUP1 DUP4 KECCAK256 SLOAD DUP6 DUP5 MSTORE PUSH1 0x3 DUP4 MSTORE DUP2 DUP5 KECCAK256 SLOAD SWAP5 DUP5 MSTORE PUSH1 0x9 SWAP1 SWAP3 MSTORE DUP3 KECCAK256 SLOAD SWAP2 SWAP3 SWAP1 SWAP2 PUSH2 0x1551 SWAP2 SWAP1 PUSH2 0x564E JUMP JUMPDEST PUSH2 0x155B SWAP2 SWAP1 PUSH2 0x5665 JUMP JUMPDEST SWAP1 POP DUP1 PUSH1 0x0 SUB PUSH2 0x1591 JUMPI PUSH1 0x40 MLOAD PUSH3 0x461BCD PUSH1 0xE5 SHL DUP2 MSTORE PUSH1 0x20 PUSH1 0x4 DUP3 ADD MSTORE PUSH1 0x1 PUSH1 0x24 DUP3 ADD MSTORE PUSH1 0x45 PUSH1 0xF8 SHL PUSH1 0x44 DUP3 ADD MSTORE PUSH1 0x64 ADD PUSH2 0xC40 JUMP JUMPDEST PUSH1 0x1 PUSH1 0x1 PUSH1 0xA0 SHL SUB DUP4 AND PUSH1 0x0 SWAP1 DUP2 MSTORE PUSH1 0xB PUSH1 0x20 MSTORE PUSH1 0x40 DUP2 KECCAK256 DUP1 SLOAD DUP4 SWAP3 SWAP1 PUSH2 0x15B9 SWAP1 DUP5 SWAP1 PUSH2 0x5687 JUMP JUMPDEST SWAP1 SWAP2 SSTORE POP PUSH2 0xED7 SWAP1 POP DUP4 DUP3 CALLER PUSH2 0x25B7 JUMP JUMPDEST PUSH1 0x0 DUP3 DUP2 MSTORE PUSH1 0x3 PUSH1 0x20 MSTORE PUSH1 0x40 SWAP1 KECCAK256 PUSH1 0x1 ADD SLOAD DUP3 SWAP1 PUSH1 0x1 PUSH1 0x1 PUSH1 0xA0 SHL SUB AND CALLER EQ PUSH2 0x1605 JUMPI PUSH1 0x40 MLOAD PUSH3 0x461BCD PUSH1 0xE5 SHL DUP2 MSTORE PUSH1 0x4 ADD PUSH2 0xC40 SWAP1 PUSH2 0x55E4 JUMP JUMPDEST PUSH1 0x0 DUP3 DUP2 MSTORE PUSH1 0x12 PUSH1 0x20 MSTORE PUSH1 0x40 SWAP1 KECCAK256 SLOAD DUP3 SWAP1 PUSH1 0xFF AND PUSH2 0x1622 JUMPI PUSH1 0x0 DUP1 REVERT JUMPDEST PUSH1 0x1 DUP1 SLOAD PUSH1 0xFF AND ISZERO ISZERO EQ PUSH2 0x1648 JUMPI PUSH1 0x40 MLOAD PUSH3 0x461BCD PUSH1 0xE5 SHL DUP2 MSTORE PUSH1 0x4 ADD PUSH2 0xC40 SWAP1 PUSH2 0x5632 JUMP JUMPDEST PUSH2 0x1652 DUP5 DUP5 PUSH2 0x248A JUMP JUMPDEST PUSH2 0x1684 JUMPI PUSH1 0x40 MLOAD PUSH3 0x461BCD PUSH1 0xE5 SHL DUP2 MSTORE PUSH1 0x20 PUSH1 0x4 DUP3 ADD MSTORE PUSH1 0x3 PUSH1 0x24 DUP3 ADD MSTORE PUSH3 0x2720A3 PUSH1 0xE9 SHL PUSH1 0x44 DUP3 ADD MSTORE PUSH1 0x64 ADD PUSH2 0xC40 JUMP JUMPDEST PUSH1 0x0 DUP4 DUP2 MSTORE PUSH1 0x15 PUSH1 0x20 SWAP1 DUP2 MSTORE PUSH1 0x40 DUP1 DUP4 KECCAK256 DUP8 DUP5 MSTORE SWAP1 SWAP2 MSTORE SWAP1 KECCAK256 SLOAD PUSH1 0xFF AND ISZERO PUSH2 0x16D3 JUMPI PUSH1 0x40 MLOAD PUSH3 0x461BCD PUSH1 0xE5 SHL DUP2 MSTORE PUSH1 0x20 PUSH1 0x4 DUP3 ADD MSTORE PUSH1 0x2 PUSH1 0x24 DUP3 ADD MSTORE PUSH2 0x4143 PUSH1 0xF0 SHL PUSH1 0x44 DUP3 ADD MSTORE PUSH1 0x64 ADD PUSH2 0xC40 JUMP JUMPDEST PUSH1 0x0 DUP4 DUP2 MSTORE PUSH1 0x15 PUSH1 0x20 SWAP1 DUP2 MSTORE PUSH1 0x40 DUP1 DUP4 KECCAK256 DUP8 DUP5 MSTORE DUP3 MSTORE DUP1 DUP4 KECCAK256 DUP1 SLOAD PUSH1 0xFF NOT AND PUSH1 0x1 SWAP1 DUP2 OR SWAP1 SWAP2 SSTORE DUP4 SLOAD DUP5 MSTORE PUSH1 0x2 DUP4 MSTORE DUP2 DUP5 KECCAK256 SLOAD DUP9 DUP6 MSTORE PUSH1 0x3 DUP5 MSTORE DUP3 DUP6 KECCAK256 SLOAD DUP9 DUP7 MSTORE PUSH1 0x13 SWAP1 SWAP5 MSTORE SWAP2 DUP5 KECCAK256 ADD SLOAD SWAP1 SWAP2 PUSH2 0x1729 SWAP2 PUSH2 0x564E JUMP JUMPDEST PUSH2 0x1733 SWAP2 SWAP1 PUSH2 0x5665 JUMP JUMPDEST SWAP1 POP DUP1 PUSH1 0x0 SUB PUSH2 0x176B JUMPI PUSH1 0x40 MLOAD PUSH3 0x461BCD PUSH1 0xE5 SHL DUP2 MSTORE PUSH1 0x20 PUSH1 0x4 DUP3 ADD MSTORE PUSH1 0x3 PUSH1 0x24 DUP3 ADD MSTORE PUSH3 0x445453 PUSH1 0xE8 SHL PUSH1 0x44 DUP3 ADD MSTORE PUSH1 0x64 ADD PUSH2 0xC40 JUMP JUMPDEST PUSH1 0x0 DUP5 DUP2 MSTORE PUSH1 0x14 PUSH1 0x20 MSTORE PUSH1 0x40 DUP2 KECCAK256 DUP1 SLOAD DUP4 SWAP3 SWAP1 PUSH2 0x1789 SWAP1 DUP5 SWAP1 PUSH2 0x5687 JUMP JUMPDEST SWAP1 SWAP2 SSTORE POP POP PUSH1 0x0 DUP5 DUP2 MSTORE PUSH1 0x13 PUSH1 0x20 MSTORE PUSH1 0x40 SWAP1 KECCAK256 SLOAD PUSH2 0x17B1 SWAP1 PUSH1 0x1 PUSH1 0x1 PUSH1 0xA0 SHL SUB AND DUP3 CALLER PUSH2 0x25B7 JUMP JUMPDEST PUSH1 0x40 DUP1 MLOAD DUP6 DUP2 MSTORE PUSH1 0x20 DUP2 ADD DUP4 SWAP1 MSTORE CALLER SWAP2 DUP2 ADD SWAP2 SWAP1 SWAP2 MSTORE PUSH32 0x67DD3D116BF53E0DDDA53BB148A5FDC129854E1C507C0EEDA9190049A9BBC84F SWAP1 PUSH1 0x60 ADD JUMPDEST PUSH1 0x40 MLOAD DUP1 SWAP2 SUB SWAP1 LOG1 POP POP POP POP POP JUMP JUMPDEST PUSH1 0x40 MLOAD DUP1 PUSH1 0x40 ADD PUSH1 0x40 MSTORE DUP1 PUSH1 0x2 DUP2 MSTORE PUSH1 0x20 ADD PUSH2 0x34A9 PUSH1 0xF1 SHL DUP2 MSTORE POP PUSH2 0x1821 DUP2 CALLER PUSH2 0x237B JUMP JUMPDEST PUSH2 0x182A JUMPI PUSH1 0x0 DUP1 REVERT JUMPDEST PUSH2 0xED7 DUP4 DUP4 PUSH2 0x29BF JUMP JUMPDEST PUSH1 0x40 MLOAD DUP1 PUSH1 0x40 ADD PUSH1 0x40 MSTORE DUP1 PUSH1 0x2 DUP2 MSTORE PUSH1 0x20 ADD PUSH2 0x36A1 PUSH1 0xF1 SHL DUP2 MSTORE POP PUSH2 0x1859 DUP2 CALLER PUSH2 0x104A JUMP JUMPDEST PUSH2 0x1862 JUMPI PUSH1 0x0 DUP1 REVERT JUMPDEST DUP2 PUSH2 0x186D DUP2 CALLER PUSH2 0x1AD5 JUMP JUMPDEST PUSH2 0x1876 JUMPI PUSH1 0x0 DUP1 REVERT JUMPDEST PUSH2 0xED7 DUP4 PUSH2 0x2B48 JUMP JUMPDEST PUSH2 0xE03 PUSH1 0x0 CALLVALUE DUP4 PUSH2 0xC1A JUMP JUMPDEST PUSH1 0x40 MLOAD DUP1 PUSH1 0x40 ADD PUSH1 0x40 MSTORE DUP1 PUSH1 0x2 DUP2 MSTORE PUSH1 0x20 ADD PUSH2 0x6953 PUSH1 0xF0 SHL DUP2 MSTORE POP PUSH2 0x18B0 DUP2 CALLER PUSH2 0x237B JUMP JUMPDEST PUSH2 0x18B9 JUMPI PUSH1 0x0 DUP1 REVERT JUMPDEST PUSH2 0x18C5 DUP6 DUP6 DUP6 DUP6 PUSH2 0x2CC0 JUMP JUMPDEST POP POP POP POP POP JUMP JUMPDEST PUSH1 0x40 MLOAD DUP1 PUSH1 0x40 ADD PUSH1 0x40 MSTORE DUP1 PUSH1 0x2 DUP2 MSTORE PUSH1 0x20 ADD PUSH2 0x695 PUSH1 0xF4 SHL DUP2 MSTORE POP PUSH2 0x18F1 DUP2 CALLER PUSH2 0x237B JUMP JUMPDEST PUSH2 0x18FA JUMPI PUSH1 0x0 DUP1 REVERT JUMPDEST PUSH2 0xED7 DUP4 DUP4 PUSH2 0x2D27 JUMP JUMPDEST PUSH1 0x40 MLOAD DUP1 PUSH1 0x40 ADD PUSH1 0x40 MSTORE DUP1 PUSH1 0x2 DUP2 MSTORE PUSH1 0x20 ADD PUSH2 0x1B51 PUSH1 0xF2 SHL DUP2 MSTORE POP PUSH2 0x1929 DUP2 CALLER PUSH2 0x237B JUMP JUMPDEST PUSH2 0x1932 JUMPI PUSH1 0x0 DUP1 REVERT JUMPDEST DUP4 PUSH2 0x193D DUP2 CALLER PUSH2 0x1AD5 JUMP JUMPDEST PUSH2 0x1946 JUMPI PUSH1 0x0 DUP1 REVERT JUMPDEST PUSH2 0x18C5 DUP6 DUP6 DUP6 PUSH2 0x35F1 JUMP JUMPDEST DUP5 PUSH2 0x195C DUP2 CALLER PUSH2 0x1AD5 JUMP JUMPDEST PUSH2 0x1965 JUMPI PUSH1 0x0 DUP1 REVERT JUMPDEST PUSH2 0x1323 DUP7 DUP7 DUP7 DUP7 DUP7 PUSH2 0x382F JUMP JUMPDEST PUSH1 0x40 MLOAD DUP1 PUSH1 0x40 ADD PUSH1 0x40 MSTORE DUP1 PUSH1 0x3 DUP2 MSTORE PUSH1 0x20 ADD PUSH3 0x1B5055 PUSH1 0xEA SHL DUP2 MSTORE POP PUSH2 0x1998 DUP2 CALLER PUSH2 0x237B JUMP JUMPDEST PUSH2 0x19A1 JUMPI PUSH1 0x0 DUP1 REVERT JUMPDEST PUSH1 0x1 DUP1 SLOAD PUSH1 0xFF AND ISZERO ISZERO EQ PUSH2 0x19C7 JUMPI PUSH1 0x40 MLOAD PUSH3 0x461BCD PUSH1 0xE5 SHL DUP2 MSTORE PUSH1 0x4 ADD PUSH2 0xC40 SWAP1 PUSH2 0x5632 JUMP JUMPDEST PUSH2 0x1046 DUP3 PUSH2 0x3C37 JUMP JUMPDEST PUSH1 0x1 PUSH1 0x1 PUSH1 0xA0 SHL SUB DUP2 AND PUSH1 0x0 SWAP1 DUP2 MSTORE PUSH1 0x8 PUSH1 0x20 MSTORE PUSH1 0x40 DUP2 KECCAK256 SLOAD PUSH1 0xFF AND ISZERO ISZERO PUSH1 0x1 EQ DUP1 PUSH2 0x1009 JUMPI POP POP PUSH1 0x1 PUSH1 0x1 PUSH1 0xA0 SHL SUB AND ISZERO SWAP1 JUMP JUMPDEST PUSH1 0x40 MLOAD DUP1 PUSH1 0x40 ADD PUSH1 0x40 MSTORE DUP1 PUSH1 0x3 DUP2 MSTORE PUSH1 0x20 ADD PUSH3 0x1B5055 PUSH1 0xEA SHL DUP2 MSTORE POP PUSH2 0x1A2B DUP2 CALLER PUSH2 0x237B JUMP JUMPDEST PUSH2 0x1A34 JUMPI PUSH1 0x0 DUP1 REVERT JUMPDEST PUSH1 0x1 DUP1 SLOAD PUSH1 0xFF AND ISZERO ISZERO EQ PUSH2 0x1A5A JUMPI PUSH1 0x40 MLOAD PUSH3 0x461BCD PUSH1 0xE5 SHL DUP2 MSTORE PUSH1 0x4 ADD PUSH2 0xC40 SWAP1 PUSH2 0x5632 JUMP JUMPDEST PUSH2 0x1046 DUP3 PUSH2 0x3C80 JUMP JUMPDEST PUSH1 0x0 DUP2 DUP2 MSTORE PUSH1 0x2 PUSH1 0x20 SWAP1 DUP2 MSTORE PUSH1 0x40 DUP1 DUP4 KECCAK256 SLOAD PUSH1 0x17 SWAP1 SWAP3 MSTORE DUP3 KECCAK256 SLOAD PUSH1 0x1 SWAP2 PUSH2 0x1A89 SWAP2 PUSH2 0x5665 JUMP JUMPDEST PUSH2 0x1A94 SWAP1 PUSH1 0x2 PUSH2 0x564E JUMP JUMPDEST GT ISZERO PUSH2 0x1AA2 JUMPI POP PUSH1 0x1 SWAP2 SWAP1 POP JUMP JUMPDEST POP PUSH1 0x0 SWAP2 SWAP1 POP JUMP JUMPDEST DUP4 PUSH2 0x1AB5 DUP2 CALLER PUSH2 0x1AD5 JUMP JUMPDEST PUSH2 0x1ABE JUMPI PUSH1 0x0 DUP1 REVERT JUMPDEST PUSH2 0x18C5 DUP6 DUP6 DUP6 DUP6 PUSH2 0x3CC9 JUMP JUMPDEST PUSH2 0xED7 DUP4 DUP4 DUP4 PUSH2 0x3F82 JUMP JUMPDEST PUSH1 0x0 PUSH1 0x10 DUP4 PUSH1 0x40 MLOAD PUSH2 0x1AE7 SWAP2 SWAP1 PUSH2 0x552B JUMP JUMPDEST SWAP1 DUP2 MSTORE PUSH1 0x40 DUP1 MLOAD SWAP2 DUP3 SWAP1 SUB PUSH1 0x20 SWAP1 DUP2 ADD SWAP1 SWAP3 KECCAK256 PUSH1 0x1 PUSH1 0x1 PUSH1 0xA0 SHL SUB DUP6 AND PUSH1 0x0 SWAP1 DUP2 MSTORE SWAP3 MSTORE SWAP1 KECCAK256 SLOAD PUSH1 0xFF AND ISZERO ISZERO PUSH1 0x1 EQ DUP1 PUSH2 0x1B40 JUMPI POP PUSH2 0x1B40 PUSH1 0x40 MLOAD DUP1 PUSH1 0x40 ADD PUSH1 0x40 MSTORE DUP1 PUSH1 0x2 DUP2 MSTORE PUSH1 0x20 ADD PUSH2 0x36A1 PUSH1 0xF1 SHL DUP2 MSTORE POP DUP4 PUSH2 0x104A JUMP JUMPDEST SWAP4 SWAP3 POP POP POP JUMP JUMPDEST PUSH1 0x40 MLOAD DUP1 PUSH1 0x40 ADD PUSH1 0x40 MSTORE DUP1 PUSH1 0x2 DUP2 MSTORE PUSH1 0x20 ADD PUSH2 0x36A1 PUSH1 0xF1 SHL DUP2 MSTORE POP PUSH2 0x1B6C DUP2 CALLER PUSH2 0x237B JUMP JUMPDEST PUSH2 0x1B75 JUMPI PUSH1 0x0 DUP1 REVERT JUMPDEST DUP3 PUSH2 0x1B80 DUP2 CALLER PUSH2 0x1AD5 JUMP JUMPDEST PUSH2 0x1B89 JUMPI PUSH1 0x0 DUP1 REVERT JUMPDEST PUSH2 0x1416 DUP5 DUP5 PUSH2 0x40FD JUMP JUMPDEST DUP3 PUSH2 0x1BAD DUP2 PUSH1 0x0 DUP1 SLOAD SWAP2 DUP2 MSTORE PUSH1 0x7 PUSH1 0x20 MSTORE PUSH1 0x40 SWAP1 KECCAK256 SLOAD GT SWAP1 JUMP JUMPDEST PUSH2 0x1BC9 JUMPI PUSH1 0x40 MLOAD PUSH3 0x461BCD PUSH1 0xE5 SHL DUP2 MSTORE PUSH1 0x4 ADD PUSH2 0xC40 SWAP1 PUSH2 0x5600 JUMP JUMPDEST PUSH1 0x1 PUSH1 0x0 DUP6 DUP2 MSTORE PUSH1 0x5 PUSH1 0x20 MSTORE PUSH1 0x40 SWAP1 KECCAK256 SLOAD PUSH1 0xFF AND PUSH1 0x2 DUP2 GT ISZERO PUSH2 0x1BEE JUMPI PUSH2 0x1BEE PUSH2 0x561C JUMP JUMPDEST EQ PUSH2 0x1C20 JUMPI PUSH1 0x40 MLOAD PUSH3 0x461BCD PUSH1 0xE5 SHL DUP2 MSTORE PUSH1 0x20 PUSH1 0x4 DUP3 ADD MSTORE PUSH1 0x2 PUSH1 0x24 DUP3 ADD MSTORE PUSH2 0x4E53 PUSH1 0xF0 SHL PUSH1 0x44 DUP3 ADD MSTORE PUSH1 0x64 ADD PUSH2 0xC40 JUMP JUMPDEST PUSH1 0x0 DUP5 DUP2 MSTORE PUSH1 0x6 PUSH1 0x20 MSTORE PUSH1 0x40 SWAP1 KECCAK256 PUSH1 0x1 ADD SLOAD DUP3 EQ PUSH2 0x1C65 JUMPI PUSH1 0x40 MLOAD PUSH3 0x461BCD PUSH1 0xE5 SHL DUP2 MSTORE PUSH1 0x20 PUSH1 0x4 DUP3 ADD MSTORE PUSH1 0x2 PUSH1 0x24 DUP3 ADD MSTORE PUSH2 0x575 PUSH1 0xF4 SHL PUSH1 0x44 DUP3 ADD MSTORE PUSH1 0x64 ADD PUSH2 0xC40 JUMP JUMPDEST DUP3 PUSH1 0x0 SUB PUSH2 0x1C9A JUMPI PUSH1 0x40 MLOAD PUSH3 0x461BCD PUSH1 0xE5 SHL DUP2 MSTORE PUSH1 0x20 PUSH1 0x4 DUP3 ADD MSTORE PUSH1 0x2 PUSH1 0x24 DUP3 ADD MSTORE PUSH2 0x4553 PUSH1 0xF0 SHL PUSH1 0x44 DUP3 ADD MSTORE PUSH1 0x64 ADD PUSH2 0xC40 JUMP JUMPDEST PUSH1 0x0 DUP5 DUP2 MSTORE PUSH1 0x6 PUSH1 0x20 MSTORE PUSH1 0x40 SWAP1 KECCAK256 SLOAD DUP4 GT ISZERO PUSH2 0x1CDD JUMPI PUSH1 0x40 MLOAD PUSH3 0x461BCD PUSH1 0xE5 SHL DUP2 MSTORE PUSH1 0x20 PUSH1 0x4 DUP3 ADD MSTORE PUSH1 0x2 PUSH1 0x24 DUP3 ADD MSTORE PUSH2 0x4553 PUSH1 0xF0 SHL PUSH1 0x44 DUP3 ADD MSTORE PUSH1 0x64 ADD PUSH2 0xC40 JUMP JUMPDEST PUSH1 0x0 DUP5 DUP2 MSTORE PUSH1 0x6 PUSH1 0x20 MSTORE PUSH1 0x40 SWAP1 KECCAK256 PUSH1 0x3 ADD SLOAD PUSH1 0x1 PUSH1 0x1 PUSH1 0xA0 SHL SUB AND CALLER EQ DUP1 PUSH2 0x1D1D JUMPI POP PUSH1 0x0 DUP5 DUP2 MSTORE PUSH1 0x6 PUSH1 0x20 MSTORE PUSH1 0x40 SWAP1 KECCAK256 PUSH1 0x3 ADD SLOAD PUSH1 0x1 PUSH1 0x1 PUSH1 0xA0 SHL SUB AND ISZERO JUMPDEST PUSH2 0x1D4E JUMPI PUSH1 0x40 MLOAD PUSH3 0x461BCD PUSH1 0xE5 SHL DUP2 MSTORE PUSH1 0x20 PUSH1 0x4 DUP3 ADD MSTORE PUSH1 0x2 PUSH1 0x24 DUP3 ADD MSTORE PUSH2 0x29A9 PUSH1 0xF1 SHL PUSH1 0x44 DUP3 ADD MSTORE PUSH1 0x64 ADD PUSH2 0xC40 JUMP JUMPDEST PUSH1 0x0 DUP5 DUP2 MSTORE PUSH1 0x5 PUSH1 0x20 SWAP1 DUP2 MSTORE PUSH1 0x40 DUP1 DUP4 KECCAK256 DUP1 SLOAD PUSH1 0xFF NOT AND PUSH1 0x2 OR SWAP1 SSTORE PUSH1 0x6 SWAP1 SWAP2 MSTORE DUP2 KECCAK256 PUSH1 0x1 ADD SLOAD PUSH2 0x1D7F SWAP1 DUP6 PUSH2 0x564E JUMP JUMPDEST SWAP1 POP PUSH1 0x0 DUP1 PUSH1 0x0 PUSH2 0x1D94 DUP5 PUSH1 0x19 PUSH2 0x3E8 PUSH2 0x41FB JUMP JUMPDEST SWAP2 SWAP5 POP SWAP3 POP SWAP1 POP PUSH2 0x1DA5 DUP2 DUP4 PUSH2 0x54F4 JUMP JUMPDEST PUSH1 0x0 DUP10 DUP2 MSTORE PUSH1 0x6 PUSH1 0x20 MSTORE PUSH1 0x40 SWAP1 KECCAK256 PUSH1 0x2 ADD SLOAD SWAP1 SWAP3 POP PUSH1 0x1 PUSH1 0x1 PUSH1 0xA0 SHL SUB AND PUSH2 0x1F04 JUMPI DUP4 CALLVALUE LT ISZERO PUSH2 0x1DFC JUMPI PUSH1 0x40 MLOAD PUSH3 0x461BCD PUSH1 0xE5 SHL DUP2 MSTORE PUSH1 0x20 PUSH1 0x4 DUP3 ADD MSTORE PUSH1 0x2 PUSH1 0x24 DUP3 ADD MSTORE PUSH2 0x4945 PUSH1 0xF0 SHL PUSH1 0x44 DUP3 ADD MSTORE PUSH1 0x64 ADD PUSH2 0xC40 JUMP JUMPDEST PUSH1 0x40 MLOAD PUSH1 0x0 SWAP1 PUSH20 0x49A71890AEA5A751E30E740C504F2E9683F347BC SWAP1 DUP6 SWAP1 DUP4 DUP2 DUP2 DUP2 DUP6 DUP8 GAS CALL SWAP3 POP POP POP RETURNDATASIZE DUP1 PUSH1 0x0 DUP2 EQ PUSH2 0x1E52 JUMPI PUSH1 0x40 MLOAD SWAP2 POP PUSH1 0x1F NOT PUSH1 0x3F RETURNDATASIZE ADD AND DUP3 ADD PUSH1 0x40 MSTORE RETURNDATASIZE DUP3 MSTORE RETURNDATASIZE PUSH1 0x0 PUSH1 0x20 DUP5 ADD RETURNDATACOPY PUSH2 0x1E57 JUMP JUMPDEST PUSH1 0x60 SWAP2 POP JUMPDEST POP POP PUSH1 0x0 DUP11 DUP2 MSTORE PUSH1 0x3 PUSH1 0x20 MSTORE PUSH1 0x40 DUP1 DUP3 KECCAK256 PUSH1 0x1 ADD SLOAD SWAP1 MLOAD SWAP3 SWAP4 POP SWAP1 SWAP2 PUSH1 0x1 PUSH1 0x1 PUSH1 0xA0 SHL SUB SWAP1 SWAP2 AND SWAP1 DUP6 SWAP1 DUP4 DUP2 DUP2 DUP2 DUP6 DUP8 GAS CALL SWAP3 POP POP POP RETURNDATASIZE DUP1 PUSH1 0x0 DUP2 EQ PUSH2 0x1EB9 JUMPI PUSH1 0x40 MLOAD SWAP2 POP PUSH1 0x1F NOT PUSH1 0x3F RETURNDATASIZE ADD AND DUP3 ADD PUSH1 0x40 MSTORE RETURNDATASIZE DUP3 MSTORE RETURNDATASIZE PUSH1 0x0 PUSH1 0x20 DUP5 ADD RETURNDATACOPY PUSH2 0x1EBE JUMP JUMPDEST PUSH1 0x60 SWAP2 POP JUMPDEST POP POP SWAP1 POP DUP1 DUP1 ISZERO PUSH2 0x1ECC JUMPI POP DUP2 JUMPDEST PUSH2 0x1EFD JUMPI PUSH1 0x40 MLOAD PUSH3 0x461BCD PUSH1 0xE5 SHL DUP2 MSTORE PUSH1 0x20 PUSH1 0x4 DUP3 ADD MSTORE PUSH1 0x2 PUSH1 0x24 DUP3 ADD MSTORE PUSH2 0x2A23 PUSH1 0xF1 SHL PUSH1 0x44 DUP3 ADD MSTORE PUSH1 0x64 ADD PUSH2 0xC40 JUMP JUMPDEST POP POP PUSH2 0x2089 JUMP JUMPDEST PUSH1 0x0 DUP9 DUP2 MSTORE PUSH1 0x6 PUSH1 0x20 MSTORE PUSH1 0x40 SWAP1 DUP2 SWAP1 KECCAK256 PUSH1 0x2 ADD SLOAD SWAP1 MLOAD PUSH4 0x6EB1769F PUSH1 0xE1 SHL DUP2 MSTORE CALLER PUSH1 0x4 DUP3 ADD MSTORE ADDRESS PUSH1 0x24 DUP3 ADD MSTORE PUSH1 0x1 PUSH1 0x1 PUSH1 0xA0 SHL SUB SWAP1 SWAP2 AND SWAP1 DUP6 SWAP1 DUP3 SWAP1 PUSH4 0xDD62ED3E SWAP1 PUSH1 0x44 ADD PUSH1 0x20 PUSH1 0x40 MLOAD DUP1 DUP4 SUB DUP2 DUP7 GAS STATICCALL ISZERO DUP1 ISZERO PUSH2 0x1F66 JUMPI RETURNDATASIZE PUSH1 0x0 DUP1 RETURNDATACOPY RETURNDATASIZE PUSH1 0x0 REVERT JUMPDEST POP POP POP POP PUSH1 0x40 MLOAD RETURNDATASIZE PUSH1 0x1F NOT PUSH1 0x1F DUP3 ADD AND DUP3 ADD DUP1 PUSH1 0x40 MSTORE POP DUP2 ADD SWAP1 PUSH2 0x1F8A SWAP2 SWAP1 PUSH2 0x569A JUMP JUMPDEST LT ISZERO PUSH2 0x1FA8 JUMPI PUSH1 0x40 MLOAD PUSH3 0x461BCD PUSH1 0xE5 SHL DUP2 MSTORE PUSH1 0x4 ADD PUSH2 0xC40 SWAP1 PUSH2 0x56B3 JUMP JUMPDEST PUSH1 0x40 MLOAD PUSH4 0x23B872DD PUSH1 0xE0 SHL DUP2 MSTORE CALLER PUSH1 0x4 DUP3 ADD MSTORE PUSH20 0x49A71890AEA5A751E30E740C504F2E9683F347BC PUSH1 0x24 DUP3 ADD MSTORE PUSH1 0x44 DUP2 ADD DUP6 SWAP1 MSTORE PUSH1 0x1 PUSH1 0x1 PUSH1 0xA0 SHL SUB DUP3 AND SWAP1 PUSH4 0x23B872DD SWAP1 PUSH1 0x64 ADD PUSH1 0x20 PUSH1 0x40 MLOAD DUP1 DUP4 SUB DUP2 PUSH1 0x0 DUP8 GAS CALL ISZERO DUP1 ISZERO PUSH2 0x200F JUMPI RETURNDATASIZE PUSH1 0x0 DUP1 RETURNDATACOPY RETURNDATASIZE PUSH1 0x0 REVERT JUMPDEST POP POP POP POP PUSH1 0x40 MLOAD RETURNDATASIZE PUSH1 0x1F NOT PUSH1 0x1F DUP3 ADD AND DUP3 ADD DUP1 PUSH1 0x40 MSTORE POP DUP2 ADD SWAP1 PUSH2 0x2033 SWAP2 SWAP1 PUSH2 0x56CF JUMP JUMPDEST PUSH2 0x204F JUMPI PUSH1 0x40 MLOAD PUSH3 0x461BCD PUSH1 0xE5 SHL DUP2 MSTORE PUSH1 0x4 ADD PUSH2 0xC40 SWAP1 PUSH2 0x56EC JUMP JUMPDEST PUSH1 0x0 DUP10 DUP2 MSTORE PUSH1 0x3 PUSH1 0x20 SWAP1 DUP2 MSTORE PUSH1 0x40 DUP1 DUP4 KECCAK256 PUSH1 0x1 ADD SLOAD PUSH1 0x6 SWAP1 SWAP3 MSTORE SWAP1 SWAP2 KECCAK256 PUSH1 0x2 ADD SLOAD PUSH2 0x2087 SWAP2 PUSH1 0x1 PUSH1 0x1 PUSH1 0xA0 SHL SUB SWAP1 DUP2 AND SWAP2 AND DUP6 PUSH2 0x426F JUMP JUMPDEST POP JUMPDEST PUSH2 0x2094 DUP9 DUP9 CALLER PUSH2 0x42FF JUMP JUMPDEST PUSH1 0x0 DUP9 DUP2 MSTORE PUSH1 0x3 PUSH1 0x20 MSTORE PUSH1 0x40 SWAP1 KECCAK256 PUSH1 0x1 ADD SLOAD ADDRESS PUSH1 0x1 PUSH1 0x1 PUSH1 0xA0 SHL SUB SWAP1 SWAP2 AND SUB PUSH2 0x20DC JUMPI PUSH1 0x0 DUP1 SLOAD DUP2 MSTORE PUSH1 0x2 PUSH1 0x20 MSTORE PUSH1 0x40 DUP2 KECCAK256 DUP1 SLOAD DUP10 SWAP3 SWAP1 PUSH2 0x20D6 SWAP1 DUP5 SWAP1 PUSH2 0x54F4 JUMP JUMPDEST SWAP1 SWAP2 SSTORE POP POP JUMPDEST PUSH1 0x40 DUP1 MLOAD PUSH1 0x80 DUP2 ADD DUP3 MSTORE DUP9 DUP2 MSTORE PUSH1 0x0 DUP11 DUP2 MSTORE PUSH1 0x6 PUSH1 0x20 DUP2 DUP2 MSTORE DUP5 DUP4 KECCAK256 PUSH1 0x1 DUP2 ADD SLOAD DUP3 DUP7 ADD MSTORE PUSH1 0x2 DUP2 DUP2 ADD SLOAD PUSH1 0x1 PUSH1 0x1 PUSH1 0xA0 SHL SUB SWAP1 DUP2 AND DUP8 DUP10 ADD MSTORE SWAP5 DUP16 SWAP1 MSTORE SWAP3 SWAP1 SWAP2 MSTORE PUSH1 0x3 ADD SLOAD SWAP1 SWAP2 AND PUSH1 0x60 DUP4 ADD MSTORE SWAP2 MLOAD PUSH32 0xD8CD09EA93B4076AB867588C0D1A52B62C5B605B7A5F1C0189781245631A8353 SWAP3 PUSH2 0x215C SWAP3 SWAP1 SWAP2 DUP13 SWAP2 SWAP1 PUSH2 0x5726 JUMP JUMPDEST PUSH1 0x40 MLOAD DUP1 SWAP2 SUB SWAP1 LOG1 PUSH1 0x0 DUP9 DUP2 MSTORE PUSH1 0x6 PUSH1 0x20 MSTORE PUSH1 0x40 SWAP1 KECCAK256 SLOAD DUP8 EQ PUSH2 0x21EE JUMPI PUSH1 0x0 DUP9 DUP2 MSTORE PUSH1 0x3 PUSH1 0x20 SWAP1 DUP2 MSTORE PUSH1 0x40 DUP1 DUP4 KECCAK256 PUSH1 0x1 ADD SLOAD PUSH1 0x1 PUSH1 0x1 PUSH1 0xA0 SHL SUB AND DUP4 MSTORE PUSH1 0x4 DUP3 MSTORE DUP1 DUP4 KECCAK256 SLOAD DUP12 DUP5 MSTORE PUSH1 0x6 SWAP1 SWAP3 MSTORE SWAP1 SWAP2 KECCAK256 SLOAD PUSH2 0x21EE SWAP2 SWAP1 PUSH2 0x21BD SWAP1 DUP11 SWAP1 PUSH2 0x5687 JUMP JUMPDEST PUSH1 0x0 DUP12 DUP2 MSTORE PUSH1 0x6 PUSH1 0x20 MSTORE PUSH1 0x40 SWAP1 KECCAK256 PUSH1 0x2 DUP2 ADD SLOAD PUSH1 0x1 DUP3 ADD SLOAD PUSH1 0x3 SWAP1 SWAP3 ADD SLOAD PUSH1 0x1 PUSH1 0x1 PUSH1 0xA0 SHL SUB SWAP2 DUP3 AND SWAP3 SWAP2 AND PUSH2 0x44CD JUMP JUMPDEST POP POP POP POP POP POP POP POP JUMP JUMPDEST PUSH1 0x0 DUP4 DUP2 MSTORE PUSH1 0x3 PUSH1 0x20 MSTORE PUSH1 0x40 SWAP1 KECCAK256 PUSH1 0x1 ADD SLOAD DUP4 SWAP1 PUSH1 0x1 PUSH1 0x1 PUSH1 0xA0 SHL SUB AND CALLER EQ PUSH2 0x2233 JUMPI PUSH1 0x40 MLOAD PUSH3 0x461BCD PUSH1 0xE5 SHL DUP2 MSTORE PUSH1 0x4 ADD PUSH2 0xC40 SWAP1 PUSH2 0x55E4 JUMP JUMPDEST DUP4 PUSH2 0x224D DUP2 PUSH1 0x0 DUP1 SLOAD SWAP2 DUP2 MSTORE PUSH1 0x7 PUSH1 0x20 MSTORE PUSH1 0x40 SWAP1 KECCAK256 SLOAD GT SWAP1 JUMP JUMPDEST PUSH2 0x2269 JUMPI PUSH1 0x40 MLOAD PUSH3 0x461BCD PUSH1 0xE5 SHL DUP2 MSTORE PUSH1 0x4 ADD PUSH2 0xC40 SWAP1 PUSH2 0x5600 JUMP JUMPDEST PUSH2 0x18C5 DUP6 DUP6 DUP6 PUSH2 0x42FF JUMP JUMPDEST PUSH1 0x0 PUSH1 0xD DUP3 PUSH1 0x40 MLOAD PUSH2 0x2286 SWAP2 SWAP1 PUSH2 0x552B JUMP JUMPDEST SWAP1 DUP2 MSTORE PUSH1 0x40 MLOAD SWAP1 DUP2 SWAP1 SUB PUSH1 0x20 ADD SWAP1 KECCAK256 SLOAD PUSH1 0xFF AND ISZERO ISZERO PUSH1 0x1 EQ SWAP3 SWAP2 POP POP JUMP JUMPDEST DUP3 PUSH2 0x22AF DUP2 CALLER PUSH2 0x104A JUMP JUMPDEST PUSH2 0x22B8 JUMPI PUSH1 0x0 DUP1 REVERT JUMPDEST DUP2 PUSH1 0x2 DUP2 GT ISZERO PUSH2 0x22CA JUMPI PUSH2 0x22CA PUSH2 0x561C JUMP JUMPDEST PUSH1 0x11 DUP6 PUSH1 0x40 MLOAD PUSH2 0x22DA SWAP2 SWAP1 PUSH2 0x552B JUMP JUMPDEST SWAP1 DUP2 MSTORE PUSH1 0x40 DUP1 MLOAD PUSH1 0x20 SWAP3 DUP2 SWAP1 SUB DUP4 ADD SWAP1 KECCAK256 PUSH1 0x1 PUSH1 0x1 PUSH1 0xA0 SHL SUB DUP8 AND PUSH1 0x0 SWAP1 DUP2 MSTORE SWAP3 MSTORE SWAP1 KECCAK256 SLOAD PUSH1 0xFF AND PUSH1 0x2 DUP2 GT ISZERO PUSH2 0x2313 JUMPI PUSH2 0x2313 PUSH2 0x561C JUMP JUMPDEST SUB PUSH2 0x2346 JUMPI PUSH1 0x40 MLOAD PUSH3 0x461BCD PUSH1 0xE5 SHL DUP2 MSTORE PUSH1 0x20 PUSH1 0x4 DUP3 ADD MSTORE PUSH1 0x3 PUSH1 0x24 DUP3 ADD MSTORE PUSH3 0x41485 PUSH1 0xEC SHL PUSH1 0x44 DUP3 ADD MSTORE PUSH1 0x64 ADD PUSH2 0xC40 JUMP JUMPDEST PUSH2 0x1416 DUP5 DUP5 DUP5 PUSH2 0x465A JUMP JUMPDEST PUSH1 0x1 SLOAD PUSH1 0x0 SWAP1 PUSH1 0xFF AND ISZERO DUP1 ISZERO PUSH2 0x2376 JUMPI POP PUSH2 0x12C PUSH1 0xA SLOAD TIMESTAMP PUSH2 0x2373 SWAP2 SWAP1 PUSH2 0x5687 JUMP JUMPDEST LT ISZERO JUMPDEST SWAP1 POP SWAP1 JUMP JUMPDEST PUSH1 0x0 PUSH1 0x1 PUSH1 0x11 DUP5 PUSH1 0x40 MLOAD PUSH2 0x238F SWAP2 SWAP1 PUSH2 0x552B JUMP JUMPDEST SWAP1 DUP2 MSTORE PUSH1 0x40 DUP1 MLOAD PUSH1 0x20 SWAP3 DUP2 SWAP1 SUB DUP4 ADD SWAP1 KECCAK256 PUSH1 0x1 PUSH1 0x1 PUSH1 0xA0 SHL SUB DUP7 AND PUSH1 0x0 SWAP1 DUP2 MSTORE SWAP3 MSTORE SWAP1 KECCAK256 SLOAD PUSH1 0xFF AND PUSH1 0x2 DUP2 GT ISZERO PUSH2 0x23C8 JUMPI PUSH2 0x23C8 PUSH2 0x561C JUMP JUMPDEST LT ISZERO SWAP4 SWAP3 POP POP POP JUMP JUMPDEST PUSH1 0x1 PUSH1 0x1 PUSH1 0xA0 SHL SUB DUP2 AND PUSH1 0x0 SWAP1 DUP2 MSTORE PUSH1 0x4 PUSH1 0x20 MSTORE PUSH1 0x40 DUP2 KECCAK256 SLOAD PUSH2 0x1009 SWAP1 PUSH1 0x0 DUP1 SLOAD SWAP2 DUP2 MSTORE PUSH1 0x7 PUSH1 0x20 MSTORE PUSH1 0x40 SWAP1 KECCAK256 SLOAD GT SWAP1 JUMP JUMPDEST PUSH1 0x0 DUP6 DUP2 MSTORE PUSH1 0x3 PUSH1 0x20 MSTORE PUSH1 0x40 SWAP1 KECCAK256 PUSH1 0x1 ADD SLOAD DUP6 SWAP1 PUSH1 0x1 PUSH1 0x1 PUSH1 0xA0 SHL SUB AND CALLER EQ PUSH2 0x243E JUMPI PUSH1 0x40 MLOAD PUSH3 0x461BCD PUSH1 0xE5 SHL DUP2 MSTORE PUSH1 0x4 ADD PUSH2 0xC40 SWAP1 PUSH2 0x55E4 JUMP JUMPDEST DUP6 PUSH2 0x2458 DUP2 PUSH1 0x0 DUP1 SLOAD SWAP2 DUP2 MSTORE PUSH1 0x7 PUSH1 0x20 MSTORE PUSH1 0x40 SWAP1 KECCAK256 SLOAD GT SWAP1 JUMP JUMPDEST PUSH2 0x2474 JUMPI PUSH1 0x40 MLOAD PUSH3 0x461BCD PUSH1 0xE5 SHL DUP2 MSTORE PUSH1 0x4 ADD PUSH2 0xC40 SWAP1 PUSH2 0x5600 JUMP JUMPDEST PUSH2 0x2481 DUP8 DUP8 DUP8 DUP8 DUP8 PUSH2 0x44CD JUMP JUMPDEST POP POP POP POP POP POP POP JUMP JUMPDEST PUSH1 0x0 DUP3 DUP2 MSTORE PUSH1 0x3 PUSH1 0x20 MSTORE PUSH1 0x40 DUP2 KECCAK256 PUSH1 0x2 ADD SLOAD DUP3 LT DUP1 ISZERO SWAP1 PUSH2 0x1B40 JUMPI POP POP PUSH1 0x0 SWAP2 DUP3 MSTORE PUSH1 0x7 PUSH1 0x20 MSTORE PUSH1 0x40 SWAP1 SWAP2 KECCAK256 SLOAD GT SWAP1 JUMP JUMPDEST PUSH2 0x24C3 PUSH2 0x4721 JUMP JUMPDEST PUSH1 0x40 DUP1 MLOAD PUSH1 0x60 DUP1 DUP3 MSTORE PUSH1 0x2 SWAP1 DUP3 ADD MSTORE PUSH2 0x6C45 PUSH1 0xF0 SHL PUSH1 0x80 DUP3 ADD MSTORE PUSH1 0xA0 PUSH1 0x20 DUP3 ADD DUP2 SWAP1 MSTORE PUSH1 0x0 SWAP1 DUP3 ADD MSTORE CALLER DUP2 DUP4 ADD MSTORE SWAP1 MLOAD PUSH1 0x0 DUP1 MLOAD PUSH1 0x20 PUSH2 0x611C DUP4 CODECOPY DUP2 MLOAD SWAP2 MSTORE SWAP2 DUP2 SWAP1 SUB PUSH1 0xC0 ADD SWAP1 LOG1 JUMP JUMPDEST DUP1 PUSH2 0x2527 DUP2 PUSH1 0x0 DUP1 SLOAD SWAP2 DUP2 MSTORE PUSH1 0x7 PUSH1 0x20 MSTORE PUSH1 0x40 SWAP1 KECCAK256 SLOAD GT SWAP1 JUMP JUMPDEST PUSH2 0x2543 JUMPI PUSH1 0x40 MLOAD PUSH3 0x461BCD PUSH1 0xE5 SHL DUP2 MSTORE PUSH1 0x4 ADD PUSH2 0xC40 SWAP1 PUSH2 0x5600 JUMP JUMPDEST PUSH1 0x0 DUP3 DUP2 MSTORE PUSH1 0x5 PUSH1 0x20 SWAP1 DUP2 MSTORE PUSH1 0x40 DUP1 DUP4 KECCAK256 DUP1 SLOAD PUSH1 0xFF NOT AND SWAP1 SSTORE DUP1 MLOAD PUSH1 0x80 DUP2 ADD DUP3 MSTORE DUP4 DUP2 MSTORE SWAP2 DUP3 ADD DUP4 SWAP1 MSTORE DUP2 DUP2 ADD DUP4 SWAP1 MSTORE PUSH1 0x60 DUP3 ADD DUP4 SWAP1 MSTORE MLOAD PUSH32 0xD8CD09EA93B4076AB867588C0D1A52B62C5B605B7A5F1C0189781245631A8353 SWAP3 PUSH2 0x25AB SWAP3 SWAP1 SWAP2 DUP7 SWAP2 SWAP1 PUSH2 0x5726 JUMP JUMPDEST PUSH1 0x40 MLOAD DUP1 SWAP2 SUB SWAP1 LOG1 POP POP JUMP JUMPDEST PUSH1 0x1 PUSH1 0x1 PUSH1 0xA0 SHL SUB DUP4 AND PUSH2 0x25CF JUMPI PUSH2 0xED7 DUP3 DUP3 PUSH2 0x4757 JUMP JUMPDEST PUSH1 0x40 MLOAD PUSH4 0x95EA7B3 PUSH1 0xE0 SHL DUP2 MSTORE PUSH1 0x1 PUSH1 0x1 PUSH1 0xA0 SHL SUB DUP3 DUP2 AND PUSH1 0x4 DUP4 ADD MSTORE PUSH1 0x24 DUP3 ADD DUP5 SWAP1 MSTORE DUP5 SWAP2 SWAP1 DUP3 AND SWAP1 PUSH4 0x95EA7B3 SWAP1 PUSH1 0x44 ADD PUSH1 0x20 PUSH1 0x40 MLOAD DUP1 DUP4 SUB DUP2 PUSH1 0x0 DUP8 GAS CALL ISZERO DUP1 ISZERO PUSH2 0x2621 JUMPI RETURNDATASIZE PUSH1 0x0 DUP1 RETURNDATACOPY RETURNDATASIZE PUSH1 0x0 REVERT JUMPDEST POP POP POP POP PUSH1 0x40 MLOAD RETURNDATASIZE PUSH1 0x1F NOT PUSH1 0x1F DUP3 ADD AND DUP3 ADD DUP1 PUSH1 0x40 MSTORE POP DUP2 ADD SWAP1 PUSH2 0x2645 SWAP2 SWAP1 PUSH2 0x56CF JUMP JUMPDEST PUSH2 0x2676 JUMPI PUSH1 0x40 MLOAD PUSH3 0x461BCD PUSH1 0xE5 SHL DUP2 MSTORE PUSH1 0x20 PUSH1 0x4 DUP3 ADD MSTORE PUSH1 0x2 PUSH1 0x24 DUP3 ADD MSTORE PUSH2 0x4E41 PUSH1 0xF0 SHL PUSH1 0x44 DUP3 ADD MSTORE PUSH1 0x64 ADD PUSH2 0xC40 JUMP JUMPDEST PUSH1 0x40 MLOAD PUSH4 0xA9059CBB PUSH1 0xE0 SHL DUP2 MSTORE PUSH1 0x1 PUSH1 0x1 PUSH1 0xA0 SHL SUB DUP4 DUP2 AND PUSH1 0x4 DUP4 ADD MSTORE PUSH1 0x24 DUP3 ADD DUP6 SWAP1 MSTORE DUP3 AND SWAP1 PUSH4 0xA9059CBB SWAP1 PUSH1 0x44 ADD JUMPDEST PUSH1 0x20 PUSH1 0x40 MLOAD DUP1 DUP4 SUB DUP2 PUSH1 0x0 DUP8 GAS CALL ISZERO DUP1 ISZERO PUSH2 0x26C6 JUMPI RETURNDATASIZE PUSH1 0x0 DUP1 RETURNDATACOPY RETURNDATASIZE PUSH1 0x0 REVERT JUMPDEST POP POP POP POP PUSH1 0x40 MLOAD RETURNDATASIZE PUSH1 0x1F NOT PUSH1 0x1F DUP3 ADD AND DUP3 ADD DUP1 PUSH1 0x40 MSTORE POP DUP2 ADD SWAP1 PUSH2 0x26EA SWAP2 SWAP1 PUSH2 0x56CF JUMP JUMPDEST PUSH2 0x1416 JUMPI PUSH1 0x40 MLOAD PUSH3 0x461BCD PUSH1 0xE5 SHL DUP2 MSTORE PUSH1 0x4 ADD PUSH2 0xC40 SWAP1 PUSH2 0x56EC JUMP JUMPDEST PUSH1 0x0 DUP2 DUP2 MSTORE PUSH1 0x12 PUSH1 0x20 MSTORE PUSH1 0x40 SWAP1 KECCAK256 SLOAD DUP2 SWAP1 PUSH1 0xFF AND PUSH2 0x2723 JUMPI PUSH1 0x0 DUP1 REVERT JUMPDEST PUSH1 0x1 DUP1 SLOAD PUSH1 0xFF AND ISZERO ISZERO EQ PUSH2 0x2749 JUMPI PUSH1 0x40 MLOAD PUSH3 0x461BCD PUSH1 0xE5 SHL DUP2 MSTORE PUSH1 0x4 ADD PUSH2 0xC40 SWAP1 PUSH2 0x5632 JUMP JUMPDEST PUSH1 0x0 DUP3 DUP2 MSTORE PUSH1 0x12 PUSH1 0x20 SWAP1 DUP2 MSTORE PUSH1 0x40 DUP1 DUP4 KECCAK256 DUP1 SLOAD PUSH1 0xFF NOT AND SWAP1 SSTORE PUSH1 0x14 DUP3 MSTORE DUP1 DUP4 KECCAK256 SLOAD DUP2 MLOAD PUSH4 0x36B0B4B7 PUSH1 0xE1 SHL DUP2 MSTORE PUSH1 0xF PUSH1 0x4 DUP3 ADD MSTORE DUP3 MLOAD SWAP1 DUP2 SWAP1 SUB PUSH1 0x24 ADD SWAP1 KECCAK256 DUP7 DUP6 MSTORE PUSH1 0x13 DUP5 MSTORE DUP3 DUP6 KECCAK256 SLOAD PUSH1 0x1 PUSH1 0x1 PUSH1 0xA0 SHL SUB AND DUP6 MSTORE SWAP1 SWAP3 MSTORE DUP3 KECCAK256 DUP1 SLOAD SWAP2 SWAP3 SWAP1 SWAP2 PUSH2 0x27B4 SWAP1 DUP5 SWAP1 PUSH2 0x54F4 JUMP JUMPDEST SWAP1 SWAP2 SSTORE POP POP PUSH1 0x40 DUP1 MLOAD PUSH1 0x20 DUP2 ADD DUP5 SWAP1 MSTORE PUSH1 0x0 DUP1 MLOAD PUSH1 0x20 PUSH2 0x611C DUP4 CODECOPY DUP2 MLOAD SWAP2 MSTORE SWAP2 ADD PUSH1 0x40 DUP1 MLOAD PUSH1 0x1F NOT DUP2 DUP5 SUB ADD DUP2 MSTORE SWAP1 DUP3 SWAP1 MSTORE PUSH2 0x25AB SWAP2 CALLER SWAP1 PUSH2 0x5777 JUMP JUMPDEST PUSH1 0x1 DUP1 SLOAD PUSH1 0xFF AND ISZERO ISZERO EQ PUSH2 0x2817 JUMPI PUSH1 0x40 MLOAD PUSH3 0x461BCD PUSH1 0xE5 SHL DUP2 MSTORE PUSH1 0x4 ADD PUSH2 0xC40 SWAP1 PUSH2 0x5632 JUMP JUMPDEST PUSH2 0x2820 DUP3 PUSH2 0x2274 JUMP JUMPDEST ISZERO PUSH2 0x2852 JUMPI PUSH1 0x40 MLOAD PUSH3 0x461BCD PUSH1 0xE5 SHL DUP2 MSTORE PUSH1 0x20 PUSH1 0x4 DUP3 ADD MSTORE PUSH1 0x2 PUSH1 0x24 DUP3 ADD MSTORE PUSH2 0x4145 PUSH1 0xF0 SHL PUSH1 0x44 DUP3 ADD MSTORE PUSH1 0x64 ADD PUSH2 0xC40 JUMP JUMPDEST PUSH1 0x1 PUSH1 0x10 DUP4 PUSH1 0x40 MLOAD PUSH2 0x2864 SWAP2 SWAP1 PUSH2 0x552B JUMP JUMPDEST SWAP1 DUP2 MSTORE PUSH1 0x40 DUP1 MLOAD PUSH1 0x20 SWAP3 DUP2 SWAP1 SUB DUP4 ADD DUP2 KECCAK256 PUSH1 0x1 PUSH1 0x1 PUSH1 0xA0 SHL SUB DUP7 AND PUSH1 0x0 SWAP1 DUP2 MSTORE SWAP4 MSTORE SWAP2 KECCAK256 DUP1 SLOAD PUSH1 0xFF NOT AND SWAP3 ISZERO ISZERO SWAP3 SWAP1 SWAP3 OR SWAP1 SWAP2 SSTORE PUSH1 0x1 SWAP1 PUSH1 0xD SWAP1 PUSH2 0x28A9 SWAP1 DUP6 SWAP1 PUSH2 0x552B JUMP JUMPDEST SWAP1 DUP2 MSTORE PUSH1 0x40 MLOAD PUSH1 0x20 SWAP2 DUP2 SWAP1 SUB DUP3 ADD DUP2 KECCAK256 DUP1 SLOAD PUSH1 0xFF NOT AND SWAP4 ISZERO ISZERO SWAP4 SWAP1 SWAP4 OR SWAP1 SWAP3 SSTORE PUSH1 0x0 DUP1 MLOAD PUSH1 0x20 PUSH2 0x611C DUP4 CODECOPY DUP2 MLOAD SWAP2 MSTORE SWAP2 PUSH2 0x28E7 SWAP2 DUP6 SWAP2 DUP6 SWAP2 ADD PUSH2 0x57A3 JUMP JUMPDEST PUSH1 0x40 DUP1 MLOAD PUSH1 0x1F NOT DUP2 DUP5 SUB ADD DUP2 MSTORE SWAP1 DUP3 SWAP1 MSTORE PUSH2 0x25AB SWAP2 CALLER SWAP1 PUSH2 0x57CD JUMP JUMPDEST PUSH1 0x1 DUP1 SLOAD PUSH1 0xFF AND ISZERO ISZERO EQ PUSH2 0x2929 JUMPI PUSH1 0x40 MLOAD PUSH3 0x461BCD PUSH1 0xE5 SHL DUP2 MSTORE PUSH1 0x4 ADD PUSH2 0xC40 SWAP1 PUSH2 0x5632 JUMP JUMPDEST PUSH2 0x2933 DUP3 DUP3 PUSH2 0x1AD5 JUMP JUMPDEST PUSH2 0x293C JUMPI PUSH1 0x0 DUP1 REVERT JUMPDEST PUSH1 0x0 PUSH1 0x10 DUP4 PUSH1 0x40 MLOAD PUSH2 0x294E SWAP2 SWAP1 PUSH2 0x552B JUMP JUMPDEST SWAP1 DUP2 MSTORE PUSH1 0x40 DUP1 MLOAD PUSH1 0x20 SWAP3 DUP2 SWAP1 SUB DUP4 ADD DUP2 KECCAK256 PUSH1 0x1 PUSH1 0x1 PUSH1 0xA0 SHL SUB DUP7 AND PUSH1 0x0 SWAP1 DUP2 MSTORE SWAP1 DUP5 MSTORE SWAP2 SWAP1 SWAP2 KECCAK256 DUP1 SLOAD PUSH1 0xFF NOT AND SWAP4 ISZERO ISZERO SWAP4 SWAP1 SWAP4 OR SWAP1 SWAP3 SSTORE PUSH1 0x0 DUP1 MLOAD PUSH1 0x20 PUSH2 0x611C DUP4 CODECOPY DUP2 MLOAD SWAP2 MSTORE SWAP2 PUSH2 0x29A3 SWAP2 DUP6 SWAP2 DUP6 SWAP2 ADD PUSH2 0x57A3 JUMP JUMPDEST PUSH1 0x40 DUP1 MLOAD PUSH1 0x1F NOT DUP2 DUP5 SUB ADD DUP2 MSTORE SWAP1 DUP3 SWAP1 MSTORE PUSH2 0x25AB SWAP2 CALLER SWAP1 PUSH2 0x57F9 JUMP JUMPDEST PUSH1 0x1 DUP1 SLOAD PUSH1 0xFF AND ISZERO ISZERO EQ PUSH2 0x29E5 JUMPI PUSH1 0x40 MLOAD PUSH3 0x461BCD PUSH1 0xE5 SHL DUP2 MSTORE PUSH1 0x4 ADD PUSH2 0xC40 SWAP1 PUSH2 0x5632 JUMP JUMPDEST DUP1 MLOAD DUP3 MLOAD EQ PUSH2 0x2A1C JUMPI PUSH1 0x40 MLOAD PUSH3 0x461BCD PUSH1 0xE5 SHL DUP2 MSTORE PUSH1 0x20 PUSH1 0x4 DUP3 ADD MSTORE PUSH1 0x3 PUSH1 0x24 DUP3 ADD MSTORE PUSH3 0x504357 PUSH1 0xE8 SHL PUSH1 0x44 DUP3 ADD MSTORE PUSH1 0x64 ADD PUSH2 0xC40 JUMP JUMPDEST PUSH1 0x0 DUP1 SLOAD DUP2 MSTORE PUSH1 0x1B PUSH1 0x20 SWAP1 DUP2 MSTORE PUSH1 0x40 DUP1 DUP4 KECCAK256 DUP1 SLOAD PUSH1 0x1 PUSH1 0xFF NOT SWAP1 SWAP2 AND DUP2 OR SWAP1 SWAP2 SSTORE DUP2 MLOAD PUSH1 0x60 DUP2 ADD DUP4 MSTORE CALLER DUP2 MSTORE DUP1 DUP5 ADD DUP8 DUP2 MSTORE DUP2 DUP5 ADD DUP8 SWAP1 MSTORE DUP6 SLOAD DUP7 MSTORE PUSH1 0x16 DUP6 MSTORE SWAP3 SWAP1 SWAP5 KECCAK256 DUP5 MLOAD DUP2 SLOAD PUSH1 0x1 PUSH1 0x1 PUSH1 0xA0 SHL SUB NOT AND PUSH1 0x1 PUSH1 0x1 PUSH1 0xA0 SHL SUB SWAP1 SWAP2 AND OR DUP2 SSTORE SWAP2 MLOAD DUP1 MLOAD SWAP3 SWAP4 PUSH2 0x2A92 SWAP4 SWAP3 DUP6 ADD SWAP3 SWAP2 ADD SWAP1 PUSH2 0x4CAC JUMP JUMPDEST POP PUSH1 0x40 DUP3 ADD MLOAD DUP1 MLOAD PUSH2 0x2AAE SWAP2 PUSH1 0x2 DUP5 ADD SWAP2 PUSH1 0x20 SWAP1 SWAP2 ADD SWAP1 PUSH2 0x4D02 JUMP JUMPDEST POP SWAP1 POP POP PUSH1 0x0 DUP1 MLOAD PUSH1 0x20 PUSH2 0x611C DUP4 CODECOPY DUP2 MLOAD SWAP2 MSTORE PUSH1 0x0 SLOAD PUSH1 0x40 MLOAD PUSH1 0x20 ADD PUSH2 0x2AD6 SWAP2 DUP2 MSTORE PUSH1 0x20 ADD SWAP1 JUMP JUMPDEST PUSH1 0x40 DUP1 MLOAD PUSH1 0x1F NOT DUP2 DUP5 SUB ADD DUP2 MSTORE SWAP1 DUP3 SWAP1 MSTORE PUSH2 0x2AF2 SWAP2 CALLER SWAP1 PUSH2 0x5826 JUMP JUMPDEST PUSH1 0x40 MLOAD DUP1 SWAP2 SUB SWAP1 LOG1 PUSH1 0x0 DUP1 SLOAD DUP1 DUP3 MSTORE PUSH1 0x2 PUSH1 0x20 DUP2 SWAP1 MSTORE PUSH1 0x40 DUP4 KECCAK256 SLOAD SWAP3 SWAP1 SWAP2 PUSH2 0x2B1B SWAP1 PUSH1 0x1 PUSH2 0x54F4 JUMP JUMPDEST DUP2 MSTORE PUSH1 0x20 ADD SWAP1 DUP2 MSTORE PUSH1 0x20 ADD PUSH1 0x0 KECCAK256 DUP2 SWAP1 SSTORE POP PUSH1 0x0 DUP1 DUP2 SLOAD DUP1 SWAP3 SWAP2 SWAP1 PUSH2 0x2B3F SWAP1 PUSH2 0x5852 JUMP JUMPDEST SWAP2 SWAP1 POP SSTORE POP POP POP JUMP JUMPDEST PUSH1 0x1 DUP1 SLOAD PUSH1 0xFF AND ISZERO ISZERO EQ PUSH2 0x2B6E JUMPI PUSH1 0x40 MLOAD PUSH3 0x461BCD PUSH1 0xE5 SHL DUP2 MSTORE PUSH1 0x4 ADD PUSH2 0xC40 SWAP1 PUSH2 0x5632 JUMP JUMPDEST PUSH2 0x2B77 DUP2 PUSH2 0x2274 JUMP JUMPDEST PUSH2 0x2BA8 JUMPI PUSH1 0x40 MLOAD PUSH3 0x461BCD PUSH1 0xE5 SHL DUP2 MSTORE PUSH1 0x20 PUSH1 0x4 DUP3 ADD MSTORE PUSH1 0x2 PUSH1 0x24 DUP3 ADD MSTORE PUSH2 0x2AA1 PUSH1 0xF1 SHL PUSH1 0x44 DUP3 ADD MSTORE PUSH1 0x64 ADD PUSH2 0xC40 JUMP JUMPDEST PUSH1 0x40 DUP1 MLOAD PUSH1 0x20 DUP1 DUP3 ADD SWAP1 SWAP3 MSTORE PUSH1 0x0 SWAP1 MSTORE DUP2 MLOAD SWAP1 DUP3 ADD KECCAK256 PUSH32 0x3A2DB9FE7908DCC36D81824D2338FC3F1AFF49AC357DD8C4840527FBA27A5B90 ADD PUSH2 0x2C11 JUMPI PUSH1 0x40 MLOAD PUSH3 0x461BCD PUSH1 0xE5 SHL DUP2 MSTORE PUSH1 0x20 PUSH1 0x4 DUP3 ADD MSTORE PUSH1 0x2 PUSH1 0x24 DUP3 ADD MSTORE PUSH2 0x26A1 PUSH1 0xF1 SHL PUSH1 0x44 DUP3 ADD MSTORE PUSH1 0x64 ADD PUSH2 0xC40 JUMP JUMPDEST PUSH2 0x2C1A DUP2 PUSH2 0xFB1 JUMP JUMPDEST PUSH2 0x2C4B JUMPI PUSH1 0x40 MLOAD PUSH3 0x461BCD PUSH1 0xE5 SHL DUP2 MSTORE PUSH1 0x20 PUSH1 0x4 DUP3 ADD MSTORE PUSH1 0x2 PUSH1 0x24 DUP3 ADD MSTORE PUSH2 0x4245 PUSH1 0xF0 SHL PUSH1 0x44 DUP3 ADD MSTORE PUSH1 0x64 ADD PUSH2 0xC40 JUMP JUMPDEST PUSH1 0x0 PUSH1 0xD DUP3 PUSH1 0x40 MLOAD PUSH2 0x2C5D SWAP2 SWAP1 PUSH2 0x552B JUMP JUMPDEST SWAP1 DUP2 MSTORE PUSH1 0x40 MLOAD PUSH1 0x20 SWAP2 DUP2 SWAP1 SUB DUP3 ADD DUP2 KECCAK256 DUP1 SLOAD PUSH1 0xFF NOT AND SWAP4 ISZERO ISZERO SWAP4 SWAP1 SWAP4 OR SWAP1 SWAP3 SSTORE PUSH1 0x0 DUP1 MLOAD PUSH1 0x20 PUSH2 0x611C DUP4 CODECOPY DUP2 MLOAD SWAP2 MSTORE SWAP2 PUSH2 0x2C99 SWAP2 DUP5 SWAP2 ADD PUSH2 0x586B JUMP JUMPDEST PUSH1 0x40 DUP1 MLOAD PUSH1 0x1F NOT DUP2 DUP5 SUB ADD DUP2 MSTORE SWAP1 DUP3 SWAP1 MSTORE PUSH2 0x2CB5 SWAP2 CALLER SWAP1 PUSH2 0x587E JUMP JUMPDEST PUSH1 0x40 MLOAD DUP1 SWAP2 SUB SWAP1 LOG1 POP JUMP JUMPDEST PUSH2 0x2CCC DUP5 DUP5 DUP5 DUP5 PUSH2 0x47DF JUMP JUMPDEST PUSH1 0x40 DUP1 MLOAD PUSH1 0x20 DUP2 ADD DUP7 SWAP1 MSTORE PUSH1 0x1 PUSH1 0x1 PUSH1 0xA0 SHL SUB DUP1 DUP7 AND SWAP3 DUP3 ADD SWAP3 SWAP1 SWAP3 MSTORE PUSH1 0x60 DUP2 ADD DUP5 SWAP1 MSTORE SWAP1 DUP3 AND PUSH1 0x80 DUP3 ADD MSTORE PUSH1 0x0 DUP1 MLOAD PUSH1 0x20 PUSH2 0x611C DUP4 CODECOPY DUP2 MLOAD SWAP2 MSTORE SWAP1 PUSH1 0xA0 ADD PUSH1 0x40 DUP1 MLOAD PUSH1 0x1F NOT DUP2 DUP5 SUB ADD DUP2 MSTORE SWAP1 DUP3 SWAP1 MSTORE PUSH2 0xDBF SWAP2 CALLER SWAP1 PUSH2 0x58AA JUMP JUMPDEST PUSH1 0x1 DUP1 SLOAD PUSH1 0xFF AND ISZERO ISZERO EQ PUSH2 0x2D4D JUMPI PUSH1 0x40 MLOAD PUSH3 0x461BCD PUSH1 0xE5 SHL DUP2 MSTORE PUSH1 0x4 ADD PUSH2 0xC40 SWAP1 PUSH2 0x5632 JUMP JUMPDEST PUSH1 0x0 DUP3 DUP2 MSTORE PUSH1 0x16 PUSH1 0x20 MSTORE PUSH1 0x40 SWAP1 KECCAK256 PUSH1 0x1 ADD SLOAD DUP2 LT PUSH2 0x2D93 JUMPI PUSH1 0x40 MLOAD PUSH3 0x461BCD PUSH1 0xE5 SHL DUP2 MSTORE PUSH1 0x20 PUSH1 0x4 DUP3 ADD MSTORE PUSH1 0x3 PUSH1 0x24 DUP3 ADD MSTORE PUSH3 0x504445 PUSH1 0xE8 SHL PUSH1 0x44 DUP3 ADD MSTORE PUSH1 0x64 ADD PUSH2 0xC40 JUMP JUMPDEST PUSH1 0x0 DUP3 DUP2 MSTORE PUSH1 0x19 PUSH1 0x20 MSTORE PUSH1 0x40 SWAP1 KECCAK256 SLOAD DUP2 EQ PUSH2 0x2DD6 JUMPI PUSH1 0x40 MLOAD PUSH3 0x461BCD PUSH1 0xE5 SHL DUP2 MSTORE PUSH1 0x20 PUSH1 0x4 DUP3 ADD MSTORE PUSH1 0x3 PUSH1 0x24 DUP3 ADD MSTORE PUSH3 0x57504F PUSH1 0xE8 SHL PUSH1 0x44 DUP3 ADD MSTORE PUSH1 0x64 ADD PUSH2 0xC40 JUMP JUMPDEST PUSH1 0x0 DUP3 DUP2 MSTORE PUSH1 0x19 PUSH1 0x20 MSTORE PUSH1 0x40 DUP2 KECCAK256 DUP1 SLOAD PUSH1 0x1 SWAP3 SWAP1 PUSH2 0x2DF5 SWAP1 DUP5 SWAP1 PUSH2 0x54F4 JUMP JUMPDEST SWAP1 SWAP2 SSTORE POP POP PUSH1 0x0 DUP3 DUP2 MSTORE PUSH1 0x16 PUSH1 0x20 MSTORE PUSH1 0x40 DUP2 KECCAK256 PUSH1 0x1 ADD DUP1 SLOAD DUP4 SWAP1 DUP2 LT PUSH2 0x2E1D JUMPI PUSH2 0x2E1D PUSH2 0x58D6 JUMP JUMPDEST SWAP1 PUSH1 0x0 MSTORE PUSH1 0x20 PUSH1 0x0 KECCAK256 ADD DUP1 SLOAD PUSH2 0x2E32 SWAP1 PUSH2 0x58EC JUMP JUMPDEST DUP1 PUSH1 0x1F ADD PUSH1 0x20 DUP1 SWAP2 DIV MUL PUSH1 0x20 ADD PUSH1 0x40 MLOAD SWAP1 DUP2 ADD PUSH1 0x40 MSTORE DUP1 SWAP3 SWAP2 SWAP1 DUP2 DUP2 MSTORE PUSH1 0x20 ADD DUP3 DUP1 SLOAD PUSH2 0x2E5E SWAP1 PUSH2 0x58EC JUMP JUMPDEST DUP1 ISZERO PUSH2 0x2EAB JUMPI DUP1 PUSH1 0x1F LT PUSH2 0x2E80 JUMPI PUSH2 0x100 DUP1 DUP4 SLOAD DIV MUL DUP4 MSTORE SWAP2 PUSH1 0x20 ADD SWAP2 PUSH2 0x2EAB JUMP JUMPDEST DUP3 ADD SWAP2 SWAP1 PUSH1 0x0 MSTORE PUSH1 0x20 PUSH1 0x0 KECCAK256 SWAP1 JUMPDEST DUP2 SLOAD DUP2 MSTORE SWAP1 PUSH1 0x1 ADD SWAP1 PUSH1 0x20 ADD DUP1 DUP4 GT PUSH2 0x2E8E JUMPI DUP3 SWAP1 SUB PUSH1 0x1F AND DUP3 ADD SWAP2 JUMPDEST POP POP POP POP POP SWAP1 POP PUSH1 0x0 PUSH1 0x16 PUSH1 0x0 DUP6 DUP2 MSTORE PUSH1 0x20 ADD SWAP1 DUP2 MSTORE PUSH1 0x20 ADD PUSH1 0x0 KECCAK256 PUSH1 0x2 ADD DUP4 DUP2 SLOAD DUP2 LT PUSH2 0x2EDB JUMPI PUSH2 0x2EDB PUSH2 0x58D6 JUMP JUMPDEST SWAP1 PUSH1 0x0 MSTORE PUSH1 0x20 PUSH1 0x0 KECCAK256 ADD DUP1 SLOAD PUSH2 0x2EF0 SWAP1 PUSH2 0x58EC JUMP JUMPDEST DUP1 PUSH1 0x1F ADD PUSH1 0x20 DUP1 SWAP2 DIV MUL PUSH1 0x20 ADD PUSH1 0x40 MLOAD SWAP1 DUP2 ADD PUSH1 0x40 MSTORE DUP1 SWAP3 SWAP2 SWAP1 DUP2 DUP2 MSTORE PUSH1 0x20 ADD DUP3 DUP1 SLOAD PUSH2 0x2F1C SWAP1 PUSH2 0x58EC JUMP JUMPDEST DUP1 ISZERO PUSH2 0x2F69 JUMPI DUP1 PUSH1 0x1F LT PUSH2 0x2F3E JUMPI PUSH2 0x100 DUP1 DUP4 SLOAD DIV MUL DUP4 MSTORE SWAP2 PUSH1 0x20 ADD SWAP2 PUSH2 0x2F69 JUMP JUMPDEST DUP3 ADD SWAP2 SWAP1 PUSH1 0x0 MSTORE PUSH1 0x20 PUSH1 0x0 KECCAK256 SWAP1 JUMPDEST DUP2 SLOAD DUP2 MSTORE SWAP1 PUSH1 0x1 ADD SWAP1 PUSH1 0x20 ADD DUP1 DUP4 GT PUSH2 0x2F4C JUMPI DUP3 SWAP1 SUB PUSH1 0x1F AND DUP3 ADD SWAP2 JUMPDEST POP POP POP POP POP SWAP1 POP PUSH1 0x0 DUP3 DUP1 MLOAD SWAP1 PUSH1 0x20 ADD KECCAK256 SWAP1 POP PUSH1 0x40 MLOAD DUP1 PUSH1 0x40 ADD PUSH1 0x40 MSTORE DUP1 PUSH1 0x2 DUP2 MSTORE PUSH1 0x20 ADD PUSH2 0x34A9 PUSH1 0xF1 SHL DUP2 MSTORE POP DUP1 MLOAD SWAP1 PUSH1 0x20 ADD KECCAK256 DUP2 SUB PUSH2 0x2FCC JUMPI PUSH1 0x0 DUP1 DUP4 DUP1 PUSH1 0x20 ADD SWAP1 MLOAD DUP2 ADD SWAP1 PUSH2 0x2FBB SWAP2 SWAP1 PUSH2 0x5A0A JUMP JUMPDEST SWAP2 POP SWAP2 POP PUSH2 0x2FC9 DUP3 DUP3 PUSH2 0x29BF JUMP JUMPDEST POP POP JUMPDEST PUSH1 0x40 DUP1 MLOAD DUP1 DUP3 ADD SWAP1 SWAP2 MSTORE PUSH1 0x2 DUP2 MSTORE PUSH2 0x735 PUSH1 0xF4 SHL PUSH1 0x20 SWAP1 SWAP2 ADD MSTORE PUSH32 0xF1B1BBC74E4DF8608497E5EED3180A4B18C6B574FF7C886247E917619E157587 DUP2 ADD PUSH2 0x303B JUMPI PUSH1 0x0 DUP1 PUSH1 0x0 DUP5 DUP1 PUSH1 0x20 ADD SWAP1 MLOAD DUP2 ADD SWAP1 PUSH2 0x3026 SWAP2 SWAP1 PUSH2 0x5AD6 JUMP JUMPDEST SWAP3 POP SWAP3 POP SWAP3 POP PUSH2 0x3037 DUP4 DUP3 DUP5 PUSH2 0x465A JUMP JUMPDEST POP POP POP JUMPDEST PUSH1 0x40 DUP1 MLOAD DUP1 DUP3 ADD SWAP1 SWAP2 MSTORE PUSH1 0x2 DUP2 MSTORE PUSH2 0x1D15 PUSH1 0xF2 SHL PUSH1 0x20 SWAP1 SWAP2 ADD MSTORE PUSH32 0x36DDD33E7A7F4736D675524B57AE6969FBA9049312747B57679F33A51849C6B1 DUP2 ADD PUSH2 0x30B5 JUMPI PUSH1 0x0 DUP1 PUSH1 0x0 DUP1 PUSH1 0x0 DUP7 DUP1 PUSH1 0x20 ADD SWAP1 MLOAD DUP2 ADD SWAP1 PUSH2 0x3098 SWAP2 SWAP1 PUSH2 0x5B2F JUMP JUMPDEST SWAP5 POP SWAP5 POP SWAP5 POP SWAP5 POP SWAP5 POP PUSH2 0x30AF DUP6 DUP6 DUP6 DUP6 DUP6 PUSH2 0x382F JUMP JUMPDEST POP POP POP POP POP JUMPDEST PUSH1 0x40 DUP1 MLOAD DUP1 DUP3 ADD SWAP1 SWAP2 MSTORE PUSH1 0x2 DUP2 MSTORE PUSH2 0x1B55 PUSH1 0xF2 SHL PUSH1 0x20 SWAP1 SWAP2 ADD MSTORE PUSH32 0x6F27458A75A197963A149D891EE01B4F59E7DFBCD1A8C7BC1095DC063775C5E9 DUP2 ADD PUSH2 0x3129 JUMPI PUSH1 0x0 DUP1 PUSH1 0x0 DUP1 DUP6 DUP1 PUSH1 0x20 ADD SWAP1 MLOAD DUP2 ADD SWAP1 PUSH2 0x3110 SWAP2 SWAP1 PUSH2 0x5BB6 JUMP JUMPDEST SWAP4 POP SWAP4 POP SWAP4 POP SWAP4 POP PUSH2 0x3124 DUP5 DUP5 DUP5 DUP5 PUSH2 0x3CC9 JUMP JUMPDEST POP POP POP POP JUMPDEST PUSH1 0x40 DUP1 MLOAD DUP1 DUP3 ADD SWAP1 SWAP2 MSTORE PUSH1 0x2 DUP2 MSTORE PUSH2 0x1A51 PUSH1 0xF2 SHL PUSH1 0x20 SWAP1 SWAP2 ADD MSTORE PUSH32 0x1CF0197AED3B237C637010856237AFEB1EC5367FD4B836BF00F3BD32EEF1EF77 DUP2 ADD PUSH2 0x3198 JUMPI PUSH1 0x0 DUP1 PUSH1 0x0 DUP5 DUP1 PUSH1 0x20 ADD SWAP1 MLOAD DUP2 ADD SWAP1 PUSH2 0x3183 SWAP2 SWAP1 PUSH2 0x5C33 JUMP JUMPDEST SWAP3 POP SWAP3 POP SWAP3 POP PUSH2 0x3194 DUP4 DUP4 DUP4 PUSH2 0x35F1 JUMP JUMPDEST POP POP POP JUMPDEST PUSH1 0x40 DUP1 MLOAD DUP1 DUP3 ADD SWAP1 SWAP2 MSTORE PUSH1 0x2 DUP2 MSTORE PUSH2 0x6953 PUSH1 0xF0 SHL PUSH1 0x20 SWAP1 SWAP2 ADD MSTORE PUSH32 0x11302F5E4C5C3A196DB2F07F09E2F91274031E3F83E172B68276385C26AC608 DUP2 ADD PUSH2 0x320C JUMPI PUSH1 0x0 DUP1 PUSH1 0x0 DUP1 DUP6 DUP1 PUSH1 0x20 ADD SWAP1 MLOAD DUP2 ADD SWAP1 PUSH2 0x31F3 SWAP2 SWAP1 PUSH2 0x5C8D JUMP JUMPDEST SWAP4 POP SWAP4 POP SWAP4 POP SWAP4 POP PUSH2 0x3207 DUP5 DUP5 DUP5 DUP5 PUSH2 0x2CC0 JUMP JUMPDEST POP POP POP POP JUMPDEST PUSH1 0x40 DUP1 MLOAD DUP1 DUP3 ADD SWAP1 SWAP2 MSTORE PUSH1 0x2 DUP2 MSTORE PUSH2 0x1911 PUSH1 0xF2 SHL PUSH1 0x20 SWAP1 SWAP2 ADD MSTORE PUSH32 0xEDD0EE4C0D87C45F9EDC0B9BA6F7373336C241B06C885E00F23C1AB5EC82A747 DUP2 ADD PUSH2 0x3270 JUMPI PUSH1 0x0 DUP3 DUP1 PUSH1 0x20 ADD SWAP1 MLOAD DUP2 ADD SWAP1 PUSH2 0x3263 SWAP2 SWAP1 PUSH2 0x569A JUMP JUMPDEST SWAP1 POP PUSH2 0x326E DUP2 PUSH2 0x2706 JUMP JUMPDEST POP JUMPDEST PUSH1 0x40 DUP1 MLOAD DUP1 DUP3 ADD SWAP1 SWAP2 MSTORE PUSH1 0x2 DUP2 MSTORE PUSH2 0x31A1 PUSH1 0xF1 SHL PUSH1 0x20 SWAP1 SWAP2 ADD MSTORE PUSH32 0x2108E84F920E4EEE7D6AC9EF2ABEB540A1D7F56715D474E0B06B236CF4E70312 DUP2 ADD PUSH2 0x32D9 JUMPI PUSH1 0x0 DUP1 DUP4 DUP1 PUSH1 0x20 ADD SWAP1 MLOAD DUP2 ADD SWAP1 PUSH2 0x32C8 SWAP2 SWAP1 PUSH2 0x5CCD JUMP JUMPDEST SWAP2 POP SWAP2 POP PUSH2 0x32D6 DUP3 DUP3 PUSH2 0x27F1 JUMP JUMPDEST POP POP JUMPDEST PUSH1 0x40 DUP1 MLOAD DUP1 DUP3 ADD SWAP1 SWAP2 MSTORE PUSH1 0x2 DUP2 MSTORE PUSH2 0x3221 PUSH1 0xF1 SHL PUSH1 0x20 SWAP1 SWAP2 ADD MSTORE PUSH32 0x46E76FB60CBFEA5DC4E313412F858C830E50E6E875D17B0921DB6456F8AC9CDB DUP2 ADD PUSH2 0x333D JUMPI PUSH1 0x0 DUP3 DUP1 PUSH1 0x20 ADD SWAP1 MLOAD DUP2 ADD SWAP1 PUSH2 0x3330 SWAP2 SWAP1 PUSH2 0x5D13 JUMP JUMPDEST SWAP1 POP PUSH2 0x333B DUP2 PUSH2 0x2B48 JUMP JUMPDEST POP JUMPDEST PUSH1 0x40 DUP1 MLOAD DUP1 DUP3 ADD SWAP1 SWAP2 MSTORE PUSH1 0x3 DUP2 MSTORE PUSH3 0x614241 PUSH1 0xE8 SHL PUSH1 0x20 SWAP1 SWAP2 ADD MSTORE PUSH32 0x747EDC76097BCCD90F0D440C26B5930408266BBE117772D2C1D5B62A81070BD2 DUP2 ADD PUSH2 0x33A7 JUMPI PUSH1 0x0 DUP1 DUP4 DUP1 PUSH1 0x20 ADD SWAP1 MLOAD DUP2 ADD SWAP1 PUSH2 0x3396 SWAP2 SWAP1 PUSH2 0x5CCD JUMP JUMPDEST SWAP2 POP SWAP2 POP PUSH2 0x33A4 DUP3 DUP3 PUSH2 0x40FD JUMP JUMPDEST POP POP JUMPDEST PUSH1 0x40 DUP1 MLOAD DUP1 DUP3 ADD SWAP1 SWAP2 MSTORE PUSH1 0x3 DUP2 MSTORE PUSH3 0x724241 PUSH1 0xE8 SHL PUSH1 0x20 SWAP1 SWAP2 ADD MSTORE PUSH32 0xE01588F2B7120B2685EAD94790242F17D977E3D7967BB132B1110F04A44120A7 DUP2 ADD PUSH2 0x3411 JUMPI PUSH1 0x0 DUP1 DUP4 DUP1 PUSH1 0x20 ADD SWAP1 MLOAD DUP2 ADD SWAP1 PUSH2 0x3400 SWAP2 SWAP1 PUSH2 0x5CCD JUMP JUMPDEST SWAP2 POP SWAP2 POP PUSH2 0x340E DUP3 DUP3 PUSH2 0x2903 JUMP JUMPDEST POP POP JUMPDEST PUSH1 0x40 DUP1 MLOAD DUP1 DUP3 ADD SWAP1 SWAP2 MSTORE PUSH1 0x3 DUP2 MSTORE PUSH3 0x725441 PUSH1 0xE8 SHL PUSH1 0x20 SWAP1 SWAP2 ADD MSTORE PUSH32 0xE2347E35BD161F6471726760EE12A18A4BD894EC18D0E8149DABE9C97A206819 DUP2 ADD PUSH2 0x3476 JUMPI PUSH1 0x0 DUP3 DUP1 PUSH1 0x20 ADD SWAP1 MLOAD DUP2 ADD SWAP1 PUSH2 0x3469 SWAP2 SWAP1 PUSH2 0x5D47 JUMP JUMPDEST SWAP1 POP PUSH2 0x3474 DUP2 PUSH2 0x3C80 JUMP JUMPDEST POP JUMPDEST PUSH1 0x40 DUP1 MLOAD DUP1 DUP3 ADD SWAP1 SWAP2 MSTORE PUSH1 0x3 DUP2 MSTORE PUSH3 0x755441 PUSH1 0xE8 SHL PUSH1 0x20 SWAP1 SWAP2 ADD MSTORE PUSH32 0xC2C2A7F0073A768C7BFFC087093ECEFFD50955AD08A9BA26982DC60F1859EB80 DUP2 ADD PUSH2 0x34DB JUMPI PUSH1 0x0 DUP3 DUP1 PUSH1 0x20 ADD SWAP1 MLOAD DUP2 ADD SWAP1 PUSH2 0x34CE SWAP2 SWAP1 PUSH2 0x5D47 JUMP JUMPDEST SWAP1 POP PUSH2 0x34D9 DUP2 PUSH2 0x3C37 JUMP JUMPDEST POP JUMPDEST PUSH1 0x40 DUP1 MLOAD DUP1 DUP3 ADD SWAP1 SWAP2 MSTORE PUSH1 0x2 DUP2 MSTORE PUSH2 0x6C45 PUSH1 0xF0 SHL PUSH1 0x20 SWAP1 SWAP2 ADD MSTORE PUSH32 0xDB51409824AFFAF893516504171B78835CB61AD014B6889940145B5796625F41 DUP2 ADD PUSH2 0x3529 JUMPI PUSH2 0x3524 PUSH2 0x24BB JUMP JUMPDEST PUSH2 0x3556 JUMP JUMPDEST PUSH1 0x40 MLOAD PUSH3 0x461BCD PUSH1 0xE5 SHL DUP2 MSTORE PUSH1 0x20 PUSH1 0x4 DUP3 ADD MSTORE PUSH1 0x2 PUSH1 0x24 DUP3 ADD MSTORE PUSH2 0x2BA3 PUSH1 0xF1 SHL PUSH1 0x44 DUP3 ADD MSTORE PUSH1 0x64 ADD PUSH2 0xC40 JUMP JUMPDEST PUSH1 0x40 DUP1 MLOAD PUSH1 0x20 DUP2 ADD DUP8 SWAP1 MSTORE SWAP1 DUP2 ADD DUP6 SWAP1 MSTORE PUSH1 0x0 DUP1 MLOAD PUSH1 0x20 PUSH2 0x611C DUP4 CODECOPY DUP2 MLOAD SWAP2 MSTORE SWAP1 PUSH1 0x60 ADD PUSH1 0x40 DUP1 MLOAD PUSH1 0x1F NOT DUP2 DUP5 SUB ADD DUP2 MSTORE SWAP1 DUP3 SWAP1 MSTORE PUSH2 0x3596 SWAP2 CALLER SWAP1 PUSH2 0x5D64 JUMP JUMPDEST PUSH1 0x40 MLOAD DUP1 SWAP2 SUB SWAP1 LOG1 PUSH1 0x0 DUP6 DUP2 MSTORE PUSH1 0x16 PUSH1 0x20 SWAP1 DUP2 MSTORE PUSH1 0x40 DUP1 DUP4 KECCAK256 PUSH1 0x1 ADD SLOAD PUSH1 0x19 SWAP1 SWAP3 MSTORE SWAP1 SWAP2 KECCAK256 SLOAD SUB PUSH2 0x18C5 JUMPI PUSH1 0x40 MLOAD DUP6 DUP2 MSTORE PUSH32 0x8D0D26399C7B999F9067E92DCF5A21EBC7BF6CD77BD186E721E4DFC2654E7830 SWAP1 PUSH1 0x20 ADD PUSH2 0x17ED JUMP JUMPDEST PUSH1 0x1 DUP1 SLOAD PUSH1 0xFF AND ISZERO ISZERO EQ PUSH2 0x3617 JUMPI PUSH1 0x40 MLOAD PUSH3 0x461BCD PUSH1 0xE5 SHL DUP2 MSTORE PUSH1 0x4 ADD PUSH2 0xC40 SWAP1 PUSH2 0x5632 JUMP JUMPDEST DUP3 PUSH2 0x3621 DUP2 PUSH2 0x2274 JUMP JUMPDEST PUSH2 0x363D JUMPI PUSH1 0x40 MLOAD PUSH3 0x461BCD PUSH1 0xE5 SHL DUP2 MSTORE PUSH1 0x4 ADD PUSH2 0xC40 SWAP1 PUSH2 0x54C1 JUMP JUMPDEST PUSH1 0xF DUP5 PUSH1 0x40 MLOAD PUSH2 0x364D SWAP2 SWAP1 PUSH2 0x552B JUMP JUMPDEST SWAP1 DUP2 MSTORE PUSH1 0x40 DUP1 MLOAD PUSH1 0x20 SWAP3 DUP2 SWAP1 SUB DUP4 ADD SWAP1 KECCAK256 PUSH1 0x1 PUSH1 0x1 PUSH1 0xA0 SHL SUB DUP7 AND PUSH1 0x0 SWAP1 DUP2 MSTORE SWAP3 MSTORE SWAP1 KECCAK256 SLOAD DUP3 GT ISZERO PUSH2 0x36A6 JUMPI PUSH1 0x40 MLOAD PUSH3 0x461BCD PUSH1 0xE5 SHL DUP2 MSTORE PUSH1 0x20 PUSH1 0x4 DUP3 ADD MSTORE PUSH1 0x2 PUSH1 0x24 DUP3 ADD MSTORE PUSH2 0x24A3 PUSH1 0xF1 SHL PUSH1 0x44 DUP3 ADD MSTORE PUSH1 0x64 ADD PUSH2 0xC40 JUMP JUMPDEST DUP2 PUSH1 0xF DUP6 PUSH1 0x40 MLOAD PUSH2 0x36B7 SWAP2 SWAP1 PUSH2 0x552B JUMP JUMPDEST SWAP1 DUP2 MSTORE PUSH1 0x20 ADD PUSH1 0x40 MLOAD DUP1 SWAP2 SUB SWAP1 KECCAK256 PUSH1 0x0 DUP6 PUSH1 0x1 PUSH1 0x1 PUSH1 0xA0 SHL SUB AND PUSH1 0x1 PUSH1 0x1 PUSH1 0xA0 SHL SUB AND DUP2 MSTORE PUSH1 0x20 ADD SWAP1 DUP2 MSTORE PUSH1 0x20 ADD PUSH1 0x0 KECCAK256 PUSH1 0x0 DUP3 DUP3 SLOAD PUSH2 0x36F7 SWAP2 SWAP1 PUSH2 0x5687 JUMP JUMPDEST SWAP1 SWAP2 SSTORE POP POP PUSH1 0x40 MLOAD PUSH1 0xF SWAP1 PUSH2 0x370D SWAP1 DUP7 SWAP1 PUSH2 0x552B JUMP JUMPDEST SWAP1 DUP2 MSTORE PUSH1 0x40 DUP1 MLOAD PUSH1 0x20 SWAP3 DUP2 SWAP1 SUB DUP4 ADD SWAP1 KECCAK256 PUSH1 0x1 PUSH1 0x1 PUSH1 0xA0 SHL SUB DUP7 AND PUSH1 0x0 SWAP1 DUP2 MSTORE SWAP3 MSTORE SWAP1 KECCAK256 SLOAD ISZERO DUP1 ISZERO PUSH2 0x3747 JUMPI POP PUSH1 0x1 PUSH1 0x1 PUSH1 0xA0 SHL SUB DUP4 AND ISZERO ISZERO JUMPDEST ISZERO PUSH2 0x3781 JUMPI PUSH1 0x1 PUSH1 0xE DUP6 PUSH1 0x40 MLOAD PUSH2 0x375E SWAP2 SWAP1 PUSH2 0x552B JUMP JUMPDEST SWAP1 DUP2 MSTORE PUSH1 0x20 ADD PUSH1 0x40 MLOAD DUP1 SWAP2 SUB SWAP1 KECCAK256 PUSH1 0x0 DUP3 DUP3 SLOAD PUSH2 0x377B SWAP2 SWAP1 PUSH2 0x5687 JUMP JUMPDEST SWAP1 SWAP2 SSTORE POP POP JUMPDEST PUSH1 0x40 DUP1 MLOAD DUP1 DUP3 ADD DUP3 MSTORE PUSH1 0x1 PUSH1 0x1 PUSH1 0xA0 SHL SUB DUP6 DUP2 AND DUP3 MSTORE PUSH1 0x20 DUP1 DUP4 ADD DUP7 DUP2 MSTORE PUSH1 0x0 DUP1 SLOAD DUP2 MSTORE PUSH1 0x13 DUP4 MSTORE DUP6 DUP2 KECCAK256 SWAP5 MLOAD DUP6 SLOAD PUSH1 0x1 PUSH1 0x1 PUSH1 0xA0 SHL SUB NOT AND SWAP5 AND SWAP4 SWAP1 SWAP4 OR DUP5 SSTORE MLOAD PUSH1 0x1 SWAP4 DUP5 ADD SSTORE DUP2 SLOAD DUP3 MSTORE PUSH1 0x14 DUP2 MSTORE DUP4 DUP3 KECCAK256 DUP7 SWAP1 SSTORE DUP2 SLOAD DUP3 MSTORE PUSH1 0x12 DUP2 MSTORE DUP4 DUP3 KECCAK256 DUP1 SLOAD PUSH1 0xFF NOT AND SWAP1 SWAP4 OR SWAP1 SWAP3 SSTORE SLOAD SWAP2 MLOAD PUSH1 0x0 DUP1 MLOAD PUSH1 0x20 PUSH2 0x611C DUP4 CODECOPY DUP2 MLOAD SWAP2 MSTORE SWAP3 PUSH2 0x3813 SWAP3 SWAP1 SWAP2 DUP9 SWAP2 DUP9 SWAP2 DUP9 SWAP2 ADD PUSH2 0x5D90 JUMP JUMPDEST PUSH1 0x40 DUP1 MLOAD PUSH1 0x1F NOT DUP2 DUP5 SUB ADD DUP2 MSTORE SWAP1 DUP3 SWAP1 MSTORE PUSH2 0xDBF SWAP2 CALLER SWAP1 PUSH2 0x5DC5 JUMP JUMPDEST PUSH1 0x1 PUSH1 0x1 PUSH1 0xA0 SHL SUB DUP5 AND PUSH1 0x0 SWAP1 DUP2 MSTORE PUSH1 0x9 PUSH1 0x20 MSTORE PUSH1 0x40 SWAP1 KECCAK256 SLOAD DUP4 GT ISZERO PUSH2 0x3867 JUMPI PUSH1 0x40 MLOAD PUSH3 0x461BCD PUSH1 0xE5 SHL DUP2 MSTORE PUSH1 0x4 ADD PUSH2 0xC40 SWAP1 PUSH2 0x56B3 JUMP JUMPDEST PUSH1 0x1 PUSH1 0x1 PUSH1 0xA0 SHL SUB DUP5 AND PUSH2 0x3970 JUMPI PUSH1 0x1 PUSH1 0x1 PUSH1 0xA0 SHL SUB DUP3 AND EXTCODESIZE ISZERO PUSH2 0x3966 JUMPI PUSH1 0x40 MLOAD PUSH4 0x1D3640E9 PUSH1 0xE1 SHL DUP2 MSTORE PUSH1 0x1 PUSH1 0x1 PUSH1 0xA0 SHL SUB DUP4 AND SWAP1 PUSH4 0x3A6C81D2 SWAP1 DUP6 SWAP1 PUSH2 0x38B3 SWAP1 DUP6 SWAP1 PUSH1 0x4 ADD PUSH2 0x586B JUMP JUMPDEST PUSH1 0x0 PUSH1 0x40 MLOAD DUP1 DUP4 SUB DUP2 DUP6 DUP9 DUP1 EXTCODESIZE ISZERO DUP1 ISZERO PUSH2 0x38CC JUMPI PUSH1 0x0 DUP1 REVERT JUMPDEST POP GAS CALL SWAP4 POP POP POP POP DUP1 ISZERO PUSH2 0x38DE JUMPI POP PUSH1 0x1 JUMPDEST PUSH2 0x3961 JUMPI POP PUSH1 0x40 DUP1 MLOAD PUSH1 0x20 DUP2 ADD DUP3 MSTORE PUSH1 0x0 DUP2 MSTORE SWAP1 MLOAD PUSH4 0x1D3640E9 PUSH1 0xE1 SHL DUP2 MSTORE PUSH1 0x1 PUSH1 0x1 PUSH1 0xA0 SHL SUB DUP4 AND SWAP1 PUSH4 0x3A6C81D2 SWAP1 DUP6 SWAP1 PUSH2 0x3928 SWAP1 PUSH1 0x4 ADD PUSH1 0x20 DUP1 DUP3 MSTORE PUSH1 0x0 SWAP1 DUP3 ADD MSTORE PUSH1 0x40 ADD SWAP1 JUMP JUMPDEST PUSH1 0x0 PUSH1 0x40 MLOAD DUP1 DUP4 SUB DUP2 DUP6 DUP9 DUP1 EXTCODESIZE ISZERO DUP1 ISZERO PUSH2 0x3941 JUMPI PUSH1 0x0 DUP1 REVERT JUMPDEST POP GAS CALL SWAP4 POP POP POP POP DUP1 ISZERO PUSH2 0x3953 JUMPI POP PUSH1 0x1 JUMPDEST PUSH2 0x3961 JUMPI PUSH2 0x3961 DUP4 DUP4 PUSH2 0x4757 JUMP JUMPDEST PUSH2 0x3C2A JUMP JUMPDEST PUSH2 0x3961 DUP4 DUP4 PUSH2 0x4757 JUMP JUMPDEST PUSH1 0x40 MLOAD PUSH4 0x95EA7B3 PUSH1 0xE0 SHL DUP2 MSTORE PUSH1 0x1 PUSH1 0x1 PUSH1 0xA0 SHL SUB DUP4 DUP2 AND PUSH1 0x4 DUP4 ADD MSTORE PUSH1 0x24 DUP3 ADD DUP6 SWAP1 MSTORE DUP6 SWAP2 SWAP1 DUP3 AND SWAP1 PUSH4 0x95EA7B3 SWAP1 PUSH1 0x44 ADD PUSH1 0x20 PUSH1 0x40 MLOAD DUP1 DUP4 SUB DUP2 PUSH1 0x0 DUP8 GAS CALL ISZERO DUP1 ISZERO PUSH2 0x39C2 JUMPI RETURNDATASIZE PUSH1 0x0 DUP1 RETURNDATACOPY RETURNDATASIZE PUSH1 0x0 REVERT JUMPDEST POP POP POP POP PUSH1 0x40 MLOAD RETURNDATASIZE PUSH1 0x1F NOT PUSH1 0x1F DUP3 ADD AND DUP3 ADD DUP1 PUSH1 0x40 MSTORE POP DUP2 ADD SWAP1 PUSH2 0x39E6 SWAP2 SWAP1 PUSH2 0x56CF JUMP JUMPDEST PUSH2 0x3A17 JUMPI PUSH1 0x40 MLOAD PUSH3 0x461BCD PUSH1 0xE5 SHL DUP2 MSTORE PUSH1 0x20 PUSH1 0x4 DUP3 ADD MSTORE PUSH1 0x2 PUSH1 0x24 DUP3 ADD MSTORE PUSH2 0x4E41 PUSH1 0xF0 SHL PUSH1 0x44 DUP3 ADD MSTORE PUSH1 0x64 ADD PUSH2 0xC40 JUMP JUMPDEST PUSH1 0x1 PUSH1 0x1 PUSH1 0xA0 SHL SUB DUP4 AND EXTCODESIZE ISZERO PUSH2 0x3B99 JUMPI PUSH1 0x40 MLOAD PUSH4 0x7FB6679D PUSH1 0xE0 SHL DUP2 MSTORE PUSH1 0x1 PUSH1 0x1 PUSH1 0xA0 SHL SUB DUP5 AND SWAP1 PUSH4 0x7FB6679D SWAP1 PUSH2 0x3A57 SWAP1 DUP6 SWAP1 DUP10 SWAP1 DUP10 SWAP1 PUSH1 0x4 ADD PUSH2 0x5573 JUMP JUMPDEST PUSH1 0x0 PUSH1 0x40 MLOAD DUP1 DUP4 SUB DUP2 PUSH1 0x0 DUP8 DUP1 EXTCODESIZE ISZERO DUP1 ISZERO PUSH2 0x3A71 JUMPI PUSH1 0x0 DUP1 REVERT JUMPDEST POP GAS CALL SWAP3 POP POP POP DUP1 ISZERO PUSH2 0x3A82 JUMPI POP PUSH1 0x1 JUMPDEST PUSH2 0x3B94 JUMPI PUSH1 0x40 DUP1 MLOAD PUSH1 0x20 DUP2 ADD DUP3 MSTORE PUSH1 0x0 DUP1 DUP3 MSTORE SWAP2 MLOAD PUSH4 0x7FB6679D PUSH1 0xE0 SHL DUP2 MSTORE PUSH1 0x60 PUSH1 0x4 DUP3 ADD MSTORE PUSH1 0x64 DUP2 ADD SWAP3 SWAP1 SWAP3 MSTORE PUSH1 0x1 PUSH1 0x1 PUSH1 0xA0 SHL SUB DUP8 DUP2 AND PUSH1 0x24 DUP5 ADD MSTORE PUSH1 0x44 DUP4 ADD DUP8 SWAP1 MSTORE SWAP1 SWAP4 POP DUP5 AND SWAP1 PUSH4 0x7FB6679D SWAP1 PUSH1 0x84 ADD PUSH1 0x0 PUSH1 0x40 MLOAD DUP1 DUP4 SUB DUP2 PUSH1 0x0 DUP8 DUP1 EXTCODESIZE ISZERO DUP1 ISZERO PUSH2 0x3AF0 JUMPI PUSH1 0x0 DUP1 REVERT JUMPDEST POP GAS CALL SWAP3 POP POP POP DUP1 ISZERO PUSH2 0x3B01 JUMPI POP PUSH1 0x1 JUMPDEST PUSH2 0x3B94 JUMPI PUSH1 0x40 MLOAD PUSH4 0xA9059CBB PUSH1 0xE0 SHL DUP2 MSTORE PUSH1 0x1 PUSH1 0x1 PUSH1 0xA0 SHL SUB DUP5 DUP2 AND PUSH1 0x4 DUP4 ADD MSTORE PUSH1 0x24 DUP3 ADD DUP7 SWAP1 MSTORE DUP3 AND SWAP1 PUSH4 0xA9059CBB SWAP1 PUSH1 0x44 ADD PUSH1 0x20 PUSH1 0x40 MLOAD DUP1 DUP4 SUB DUP2 PUSH1 0x0 DUP8 GAS CALL ISZERO DUP1 ISZERO PUSH2 0x3B54 JUMPI RETURNDATASIZE PUSH1 0x0 DUP1 RETURNDATACOPY RETURNDATASIZE PUSH1 0x0 REVERT JUMPDEST POP POP POP POP PUSH1 0x40 MLOAD RETURNDATASIZE PUSH1 0x1F NOT PUSH1 0x1F DUP3 ADD AND DUP3 ADD DUP1 PUSH1 0x40 MSTORE POP DUP2 ADD SWAP1 PUSH2 0x3B78 SWAP2 SWAP1 PUSH2 0x56CF JUMP JUMPDEST PUSH2 0x3B94 JUMPI PUSH1 0x40 MLOAD PUSH3 0x461BCD PUSH1 0xE5 SHL DUP2 MSTORE PUSH1 0x4 ADD PUSH2 0xC40 SWAP1 PUSH2 0x56EC JUMP JUMPDEST PUSH2 0x3C28 JUMP JUMPDEST PUSH1 0x40 MLOAD PUSH4 0xA9059CBB PUSH1 0xE0 SHL DUP2 MSTORE PUSH1 0x1 PUSH1 0x1 PUSH1 0xA0 SHL SUB DUP5 DUP2 AND PUSH1 0x4 DUP4 ADD MSTORE PUSH1 0x24 DUP3 ADD DUP7 SWAP1 MSTORE DUP3 AND SWAP1 PUSH4 0xA9059CBB SWAP1 PUSH1 0x44 ADD PUSH1 0x20 PUSH1 0x40 MLOAD DUP1 DUP4 SUB DUP2 PUSH1 0x0 DUP8 GAS CALL ISZERO DUP1 ISZERO PUSH2 0x3BE8 JUMPI RETURNDATASIZE PUSH1 0x0 DUP1 RETURNDATACOPY RETURNDATASIZE PUSH1 0x0 REVERT JUMPDEST POP POP POP POP PUSH1 0x40 MLOAD RETURNDATASIZE PUSH1 0x1F NOT PUSH1 0x1F DUP3 ADD AND DUP3 ADD DUP1 PUSH1 0x40 MSTORE POP DUP2 ADD SWAP1 PUSH2 0x3C0C SWAP2 SWAP1 PUSH2 0x56CF JUMP JUMPDEST PUSH2 0x3C28 JUMPI PUSH1 0x40 MLOAD PUSH3 0x461BCD PUSH1 0xE5 SHL DUP2 MSTORE PUSH1 0x4 ADD PUSH2 0xC40 SWAP1 PUSH2 0x56EC JUMP JUMPDEST POP JUMPDEST PUSH2 0x18C5 DUP6 DUP6 DUP6 DUP6 DUP6 PUSH2 0x485E JUMP JUMPDEST PUSH2 0x3C40 DUP2 PUSH2 0x49FF JUMP JUMPDEST PUSH1 0x40 DUP1 MLOAD PUSH1 0x1 PUSH1 0x1 PUSH1 0xA0 SHL SUB DUP4 AND PUSH1 0x20 DUP3 ADD MSTORE PUSH1 0x0 DUP1 MLOAD PUSH1 0x20 PUSH2 0x611C DUP4 CODECOPY DUP2 MLOAD SWAP2 MSTORE SWAP2 ADD PUSH1 0x40 DUP1 MLOAD PUSH1 0x1F NOT DUP2 DUP5 SUB ADD DUP2 MSTORE SWAP1 DUP3 SWAP1 MSTORE PUSH2 0x2CB5 SWAP2 CALLER SWAP1 PUSH2 0x5DF1 JUMP JUMPDEST PUSH2 0x3C89 DUP2 PUSH2 0x4AA5 JUMP JUMPDEST PUSH1 0x40 DUP1 MLOAD PUSH1 0x1 PUSH1 0x1 PUSH1 0xA0 SHL SUB DUP4 AND PUSH1 0x20 DUP3 ADD MSTORE PUSH1 0x0 DUP1 MLOAD PUSH1 0x20 PUSH2 0x611C DUP4 CODECOPY DUP2 MLOAD SWAP2 MSTORE SWAP2 ADD PUSH1 0x40 DUP1 MLOAD PUSH1 0x1F NOT DUP2 DUP5 SUB ADD DUP2 MSTORE SWAP1 DUP3 SWAP1 MSTORE PUSH2 0x2CB5 SWAP2 CALLER SWAP1 PUSH2 0x5E1E JUMP JUMPDEST DUP4 PUSH2 0x3CD3 DUP2 PUSH2 0x2274 JUMP JUMPDEST PUSH2 0x3CEF JUMPI PUSH1 0x40 MLOAD PUSH3 0x461BCD PUSH1 0xE5 SHL DUP2 MSTORE PUSH1 0x4 ADD PUSH2 0xC40 SWAP1 PUSH2 0x54C1 JUMP JUMPDEST DUP4 PUSH2 0x3CF9 DUP2 PUSH2 0x2274 JUMP JUMPDEST PUSH2 0x3D15 JUMPI PUSH1 0x40 MLOAD PUSH3 0x461BCD PUSH1 0xE5 SHL DUP2 MSTORE PUSH1 0x4 ADD PUSH2 0xC40 SWAP1 PUSH2 0x54C1 JUMP JUMPDEST PUSH1 0x1 DUP1 SLOAD PUSH1 0xFF AND ISZERO ISZERO EQ PUSH2 0x3D3B JUMPI PUSH1 0x40 MLOAD PUSH3 0x461BCD PUSH1 0xE5 SHL DUP2 MSTORE PUSH1 0x4 ADD PUSH2 0xC40 SWAP1 PUSH2 0x5632 JUMP JUMPDEST PUSH1 0xF DUP7 PUSH1 0x40 MLOAD PUSH2 0x3D4B SWAP2 SWAP1 PUSH2 0x552B JUMP JUMPDEST SWAP1 DUP2 MSTORE PUSH1 0x40 DUP1 MLOAD PUSH1 0x20 SWAP3 DUP2 SWAP1 SUB DUP4 ADD SWAP1 KECCAK256 PUSH1 0x1 PUSH1 0x1 PUSH1 0xA0 SHL SUB DUP8 AND PUSH1 0x0 SWAP1 DUP2 MSTORE SWAP3 MSTORE SWAP1 KECCAK256 SLOAD DUP4 GT ISZERO PUSH2 0x3DA4 JUMPI PUSH1 0x40 MLOAD PUSH3 0x461BCD PUSH1 0xE5 SHL DUP2 MSTORE PUSH1 0x20 PUSH1 0x4 DUP3 ADD MSTORE PUSH1 0x2 PUSH1 0x24 DUP3 ADD MSTORE PUSH2 0x24A3 PUSH1 0xF1 SHL PUSH1 0x44 DUP3 ADD MSTORE PUSH1 0x64 ADD PUSH2 0xC40 JUMP JUMPDEST DUP3 PUSH1 0xF DUP8 PUSH1 0x40 MLOAD PUSH2 0x3DB5 SWAP2 SWAP1 PUSH2 0x552B JUMP JUMPDEST SWAP1 DUP2 MSTORE PUSH1 0x20 ADD PUSH1 0x40 MLOAD DUP1 SWAP2 SUB SWAP1 KECCAK256 PUSH1 0x0 DUP7 PUSH1 0x1 PUSH1 0x1 PUSH1 0xA0 SHL SUB AND PUSH1 0x1 PUSH1 0x1 PUSH1 0xA0 SHL SUB AND DUP2 MSTORE PUSH1 0x20 ADD SWAP1 DUP2 MSTORE PUSH1 0x20 ADD PUSH1 0x0 KECCAK256 PUSH1 0x0 DUP3 DUP3 SLOAD PUSH2 0x3DF5 SWAP2 SWAP1 PUSH2 0x5687 JUMP JUMPDEST SWAP1 SWAP2 SSTORE POP POP PUSH1 0x1 PUSH1 0x1 PUSH1 0xA0 SHL SUB DUP5 AND ISZERO PUSH2 0x3EE9 JUMPI PUSH1 0xF DUP7 PUSH1 0x40 MLOAD PUSH2 0x3E19 SWAP2 SWAP1 PUSH2 0x552B JUMP JUMPDEST SWAP1 DUP2 MSTORE PUSH1 0x40 DUP1 MLOAD PUSH1 0x20 SWAP3 DUP2 SWAP1 SUB DUP4 ADD SWAP1 KECCAK256 PUSH1 0x1 PUSH1 0x1 PUSH1 0xA0 SHL SUB DUP8 AND PUSH1 0x0 SWAP1 DUP2 MSTORE SWAP3 MSTORE DUP2 KECCAK256 SLOAD SWAP1 SUB PUSH2 0x3E79 JUMPI PUSH1 0x1 PUSH1 0xE DUP8 PUSH1 0x40 MLOAD PUSH2 0x3E56 SWAP2 SWAP1 PUSH2 0x552B JUMP JUMPDEST SWAP1 DUP2 MSTORE PUSH1 0x20 ADD PUSH1 0x40 MLOAD DUP1 SWAP2 SUB SWAP1 KECCAK256 PUSH1 0x0 DUP3 DUP3 SLOAD PUSH2 0x3E73 SWAP2 SWAP1 PUSH2 0x5687 JUMP JUMPDEST SWAP1 SWAP2 SSTORE POP POP JUMPDEST PUSH1 0xF DUP6 PUSH1 0x40 MLOAD PUSH2 0x3E89 SWAP2 SWAP1 PUSH2 0x552B JUMP JUMPDEST SWAP1 DUP2 MSTORE PUSH1 0x40 DUP1 MLOAD PUSH1 0x20 SWAP3 DUP2 SWAP1 SUB DUP4 ADD SWAP1 KECCAK256 PUSH1 0x1 PUSH1 0x1 PUSH1 0xA0 SHL SUB DUP8 AND PUSH1 0x0 SWAP1 DUP2 MSTORE SWAP3 MSTORE DUP2 KECCAK256 SLOAD SWAP1 SUB PUSH2 0x3EE9 JUMPI PUSH1 0x1 PUSH1 0xE DUP7 PUSH1 0x40 MLOAD PUSH2 0x3EC6 SWAP2 SWAP1 PUSH2 0x552B JUMP JUMPDEST SWAP1 DUP2 MSTORE PUSH1 0x20 ADD PUSH1 0x40 MLOAD DUP1 SWAP2 SUB SWAP1 KECCAK256 PUSH1 0x0 DUP3 DUP3 SLOAD PUSH2 0x3EE3 SWAP2 SWAP1 PUSH2 0x54F4 JUMP JUMPDEST SWAP1 SWAP2 SSTORE POP POP JUMPDEST DUP3 PUSH1 0xF DUP7 PUSH1 0x40 MLOAD PUSH2 0x3EFA SWAP2 SWAP1 PUSH2 0x552B JUMP JUMPDEST SWAP1 DUP2 MSTORE PUSH1 0x20 ADD PUSH1 0x40 MLOAD DUP1 SWAP2 SUB SWAP1 KECCAK256 PUSH1 0x0 DUP7 PUSH1 0x1 PUSH1 0x1 PUSH1 0xA0 SHL SUB AND PUSH1 0x1 PUSH1 0x1 PUSH1 0xA0 SHL SUB AND DUP2 MSTORE PUSH1 0x20 ADD SWAP1 DUP2 MSTORE PUSH1 0x20 ADD PUSH1 0x0 KECCAK256 PUSH1 0x0 DUP3 DUP3 SLOAD PUSH2 0x3F3A SWAP2 SWAP1 PUSH2 0x54F4 JUMP JUMPDEST SWAP1 SWAP2 SSTORE POP POP PUSH1 0x40 MLOAD PUSH1 0x0 DUP1 MLOAD PUSH1 0x20 PUSH2 0x611C DUP4 CODECOPY DUP2 MLOAD SWAP2 MSTORE SWAP1 PUSH2 0x3F66 SWAP1 DUP9 SWAP1 DUP9 SWAP1 DUP9 SWAP1 DUP9 SWAP1 PUSH1 0x20 ADD PUSH2 0x5E4B JUMP JUMPDEST PUSH1 0x40 DUP1 MLOAD PUSH1 0x1F NOT DUP2 DUP5 SUB ADD DUP2 MSTORE SWAP1 DUP3 SWAP1 MSTORE PUSH2 0x131A SWAP2 CALLER SWAP1 PUSH2 0x5E8D JUMP JUMPDEST PUSH1 0x1 PUSH1 0x1 PUSH1 0xA0 SHL SUB DUP4 AND PUSH2 0x3F95 JUMPI PUSH1 0x0 DUP1 REVERT JUMPDEST PUSH2 0x3F9E DUP4 PUSH2 0x19D0 JUMP JUMPDEST PUSH2 0x3FCF JUMPI PUSH1 0x40 MLOAD PUSH3 0x461BCD PUSH1 0xE5 SHL DUP2 MSTORE PUSH1 0x20 PUSH1 0x4 DUP3 ADD MSTORE PUSH1 0x2 PUSH1 0x24 DUP3 ADD MSTORE PUSH2 0x1555 PUSH1 0xF2 SHL PUSH1 0x44 DUP3 ADD MSTORE PUSH1 0x64 ADD PUSH2 0xC40 JUMP JUMPDEST PUSH1 0x40 MLOAD PUSH4 0x6EB1769F PUSH1 0xE1 SHL DUP2 MSTORE CALLER PUSH1 0x4 DUP3 ADD MSTORE ADDRESS PUSH1 0x24 DUP3 ADD MSTORE DUP4 SWAP1 DUP4 SWAP1 PUSH1 0x1 PUSH1 0x1 PUSH1 0xA0 SHL SUB DUP4 AND SWAP1 PUSH4 0xDD62ED3E SWAP1 PUSH1 0x44 ADD PUSH1 0x20 PUSH1 0x40 MLOAD DUP1 DUP4 SUB DUP2 DUP7 GAS STATICCALL ISZERO DUP1 ISZERO PUSH2 0x401D JUMPI RETURNDATASIZE PUSH1 0x0 DUP1 RETURNDATACOPY RETURNDATASIZE PUSH1 0x0 REVERT JUMPDEST POP POP POP POP PUSH1 0x40 MLOAD RETURNDATASIZE PUSH1 0x1F NOT PUSH1 0x1F DUP3 ADD AND DUP3 ADD DUP1 PUSH1 0x40 MSTORE POP DUP2 ADD SWAP1 PUSH2 0x4041 SWAP2 SWAP1 PUSH2 0x569A JUMP JUMPDEST LT ISZERO PUSH2 0x405F JUMPI PUSH1 0x40 MLOAD PUSH3 0x461BCD PUSH1 0xE5 SHL DUP2 MSTORE PUSH1 0x4 ADD PUSH2 0xC40 SWAP1 PUSH2 0x56B3 JUMP JUMPDEST PUSH1 0x40 MLOAD PUSH4 0x23B872DD PUSH1 0xE0 SHL DUP2 MSTORE CALLER PUSH1 0x4 DUP3 ADD MSTORE ADDRESS PUSH1 0x24 DUP3 ADD MSTORE PUSH1 0x44 DUP2 ADD DUP5 SWAP1 MSTORE PUSH1 0x1 PUSH1 0x1 PUSH1 0xA0 SHL SUB DUP3 AND SWAP1 PUSH4 0x23B872DD SWAP1 PUSH1 0x64 ADD PUSH1 0x20 PUSH1 0x40 MLOAD DUP1 DUP4 SUB DUP2 PUSH1 0x0 DUP8 GAS CALL ISZERO DUP1 ISZERO PUSH2 0x40B2 JUMPI RETURNDATASIZE PUSH1 0x0 DUP1 RETURNDATACOPY RETURNDATASIZE PUSH1 0x0 REVERT JUMPDEST POP POP POP POP PUSH1 0x40 MLOAD RETURNDATASIZE PUSH1 0x1F NOT PUSH1 0x1F DUP3 ADD AND DUP3 ADD DUP1 PUSH1 0x40 MSTORE POP DUP2 ADD SWAP1 PUSH2 0x40D6 SWAP2 SWAP1 PUSH2 0x56CF JUMP JUMPDEST PUSH2 0x40F2 JUMPI PUSH1 0x40 MLOAD PUSH3 0x461BCD PUSH1 0xE5 SHL DUP2 MSTORE PUSH1 0x4 ADD PUSH2 0xC40 SWAP1 PUSH2 0x56EC JUMP JUMPDEST PUSH2 0x1416 DUP5 DUP5 DUP5 PUSH2 0xC1A JUMP JUMPDEST PUSH1 0x1 DUP1 SLOAD PUSH1 0xFF AND ISZERO ISZERO EQ PUSH2 0x4123 JUMPI PUSH1 0x40 MLOAD PUSH3 0x461BCD PUSH1 0xE5 SHL DUP2 MSTORE PUSH1 0x4 ADD PUSH2 0xC40 SWAP1 PUSH2 0x5632 JUMP JUMPDEST PUSH2 0x4147 PUSH1 0x40 MLOAD DUP1 PUSH1 0x40 ADD PUSH1 0x40 MSTORE DUP1 PUSH1 0x2 DUP2 MSTORE PUSH1 0x20 ADD PUSH2 0x36A1 PUSH1 0xF1 SHL DUP2 MSTORE POP DUP3 PUSH2 0x237B JUMP JUMPDEST PUSH2 0x4178 JUMPI PUSH1 0x40 MLOAD PUSH3 0x461BCD PUSH1 0xE5 SHL DUP2 MSTORE PUSH1 0x20 PUSH1 0x4 DUP3 ADD MSTORE PUSH1 0x2 PUSH1 0x24 DUP3 ADD MSTORE PUSH2 0x4E5 PUSH1 0xF4 SHL PUSH1 0x44 DUP3 ADD MSTORE PUSH1 0x64 ADD PUSH2 0xC40 JUMP JUMPDEST PUSH1 0x1 PUSH1 0x10 DUP4 PUSH1 0x40 MLOAD PUSH2 0x418A SWAP2 SWAP1 PUSH2 0x552B JUMP JUMPDEST SWAP1 DUP2 MSTORE PUSH1 0x40 DUP1 MLOAD PUSH1 0x20 SWAP3 DUP2 SWAP1 SUB DUP4 ADD DUP2 KECCAK256 PUSH1 0x1 PUSH1 0x1 PUSH1 0xA0 SHL SUB DUP7 AND PUSH1 0x0 SWAP1 DUP2 MSTORE SWAP1 DUP5 MSTORE SWAP2 SWAP1 SWAP2 KECCAK256 DUP1 SLOAD PUSH1 0xFF NOT AND SWAP4 ISZERO ISZERO SWAP4 SWAP1 SWAP4 OR SWAP1 SWAP3 SSTORE PUSH1 0x0 DUP1 MLOAD PUSH1 0x20 PUSH2 0x611C DUP4 CODECOPY DUP2 MLOAD SWAP2 MSTORE SWAP2 PUSH2 0x41DF SWAP2 DUP6 SWAP2 DUP6 SWAP2 ADD PUSH2 0x57A3 JUMP JUMPDEST PUSH1 0x40 DUP1 MLOAD PUSH1 0x1F NOT DUP2 DUP5 SUB ADD DUP2 MSTORE SWAP1 DUP3 SWAP1 MSTORE PUSH2 0x25AB SWAP2 CALLER SWAP1 PUSH2 0x5EB9 JUMP JUMPDEST PUSH1 0x0 DUP1 PUSH1 0x0 DUP5 DUP5 GT PUSH2 0x420C JUMPI PUSH1 0x0 DUP1 REVERT JUMPDEST PUSH1 0x0 DUP5 PUSH2 0x4219 DUP8 DUP10 PUSH2 0x564E JUMP JUMPDEST PUSH2 0x4223 SWAP2 SWAP1 PUSH2 0x5665 JUMP JUMPDEST SWAP1 POP PUSH1 0x0 DUP6 PUSH2 0x4232 DUP9 DUP3 PUSH2 0x5687 JUMP JUMPDEST PUSH2 0x423C SWAP1 DUP11 PUSH2 0x564E JUMP JUMPDEST PUSH2 0x4246 SWAP2 SWAP1 PUSH2 0x5665 JUMP JUMPDEST SWAP1 POP DUP2 DUP2 PUSH2 0x4254 DUP2 DUP4 PUSH2 0x54F4 JUMP JUMPDEST PUSH2 0x425E SWAP1 DUP12 PUSH2 0x5687 JUMP JUMPDEST SWAP5 POP SWAP5 POP SWAP5 POP POP POP SWAP4 POP SWAP4 POP SWAP4 SWAP1 POP JUMP JUMPDEST ADDRESS PUSH1 0x1 PUSH1 0x1 PUSH1 0xA0 SHL SUB DUP5 AND SUB PUSH2 0x42C1 JUMPI PUSH1 0x1 PUSH1 0x1 PUSH1 0xA0 SHL SUB DUP3 AND PUSH2 0x42A7 JUMPI PUSH2 0xED7 DUP3 DUP3 PUSH1 0x40 MLOAD DUP1 PUSH1 0x20 ADD PUSH1 0x40 MSTORE DUP1 PUSH1 0x0 DUP2 MSTORE POP PUSH2 0xC1A JUMP JUMPDEST PUSH2 0xED7 DUP3 DUP3 PUSH1 0x40 MLOAD DUP1 PUSH1 0x20 ADD PUSH1 0x40 MSTORE DUP1 PUSH1 0x0 DUP2 MSTORE POP PUSH2 0x3F82 JUMP JUMPDEST PUSH1 0x40 MLOAD PUSH4 0x23B872DD PUSH1 0xE0 SHL DUP2 MSTORE CALLER PUSH1 0x4 DUP3 ADD MSTORE PUSH1 0x1 PUSH1 0x1 PUSH1 0xA0 SHL SUB DUP5 DUP2 AND PUSH1 0x24 DUP4 ADD MSTORE PUSH1 0x44 DUP3 ADD DUP4 SWAP1 MSTORE DUP4 SWAP2 SWAP1 DUP3 AND SWAP1 PUSH4 0x23B872DD SWAP1 PUSH1 0x64 ADD PUSH2 0x26A7 JUMP JUMPDEST DUP3 PUSH2 0x4319 DUP2 PUSH1 0x0 DUP1 SLOAD SWAP2 DUP2 MSTORE PUSH1 0x7 PUSH1 0x20 MSTORE PUSH1 0x40 SWAP1 KECCAK256 SLOAD GT SWAP1 JUMP JUMPDEST PUSH2 0x4335 JUMPI PUSH1 0x40 MLOAD PUSH3 0x461BCD PUSH1 0xE5 SHL DUP2 MSTORE PUSH1 0x4 ADD PUSH2 0xC40 SWAP1 PUSH2 0x5600 JUMP JUMPDEST PUSH1 0x1 DUP1 SLOAD PUSH1 0xFF AND ISZERO ISZERO EQ PUSH2 0x435B JUMPI PUSH1 0x40 MLOAD PUSH3 0x461BCD PUSH1 0xE5 SHL DUP2 MSTORE PUSH1 0x4 ADD PUSH2 0xC40 SWAP1 PUSH2 0x5632 JUMP JUMPDEST PUSH1 0x0 DUP5 DUP2 MSTORE PUSH1 0x3 PUSH1 0x20 MSTORE PUSH1 0x40 SWAP1 KECCAK256 SLOAD DUP4 GT ISZERO PUSH2 0x439E JUMPI PUSH1 0x40 MLOAD PUSH3 0x461BCD PUSH1 0xE5 SHL DUP2 MSTORE PUSH1 0x20 PUSH1 0x4 DUP3 ADD MSTORE PUSH1 0x2 PUSH1 0x24 DUP3 ADD MSTORE PUSH2 0x4941 PUSH1 0xF0 SHL PUSH1 0x44 DUP3 ADD MSTORE PUSH1 0x64 ADD PUSH2 0xC40 JUMP JUMPDEST PUSH2 0x43A7 DUP3 PUSH2 0x23D1 JUMP JUMPDEST ISZERO PUSH2 0x4416 JUMPI PUSH1 0x1 PUSH1 0x1 PUSH1 0xA0 SHL SUB DUP3 AND PUSH1 0x0 SWAP1 DUP2 MSTORE PUSH1 0x4 PUSH1 0x20 SWAP1 DUP2 MSTORE PUSH1 0x40 DUP1 DUP4 KECCAK256 SLOAD DUP4 MSTORE PUSH1 0x3 SWAP1 SWAP2 MSTORE DUP2 KECCAK256 SLOAD PUSH2 0x43DC SWAP1 DUP6 PUSH2 0x54F4 JUMP JUMPDEST PUSH1 0x1 PUSH1 0x1 PUSH1 0xA0 SHL SUB DUP5 AND PUSH1 0x0 SWAP1 DUP2 MSTORE PUSH1 0x4 PUSH1 0x20 MSTORE PUSH1 0x40 DUP2 KECCAK256 SLOAD SWAP1 SLOAD SWAP2 SWAP3 POP PUSH2 0x4403 SWAP2 PUSH2 0x4B04 JUMP JUMPDEST PUSH2 0x4410 DUP2 DUP5 PUSH1 0x0 SLOAD PUSH2 0x4B4B JUMP JUMPDEST POP PUSH2 0x4423 JUMP JUMPDEST PUSH2 0x4423 DUP4 DUP4 PUSH1 0x0 SLOAD PUSH2 0x4B4B JUMP JUMPDEST PUSH2 0x442F DUP5 PUSH1 0x0 SLOAD PUSH2 0x4B04 JUMP JUMPDEST PUSH1 0x0 DUP5 DUP2 MSTORE PUSH1 0x3 PUSH1 0x20 MSTORE PUSH1 0x40 DUP2 KECCAK256 SLOAD PUSH2 0x4449 SWAP1 DUP6 SWAP1 PUSH2 0x5687 JUMP JUMPDEST SWAP1 POP DUP1 ISZERO PUSH2 0x447C JUMPI PUSH1 0x0 DUP6 DUP2 MSTORE PUSH1 0x3 PUSH1 0x20 MSTORE PUSH1 0x40 DUP2 KECCAK256 PUSH1 0x1 ADD SLOAD SWAP1 SLOAD PUSH2 0x447C SWAP2 DUP4 SWAP2 PUSH1 0x1 PUSH1 0x1 PUSH1 0xA0 SHL SUB SWAP1 SWAP2 AND SWAP1 PUSH2 0x4B4B JUMP JUMPDEST POP PUSH1 0x0 DUP1 SLOAD DUP1 DUP3 MSTORE PUSH1 0x2 PUSH1 0x20 DUP2 SWAP1 MSTORE PUSH1 0x40 DUP4 KECCAK256 SLOAD SWAP3 SWAP1 SWAP2 PUSH2 0x449E SWAP1 PUSH1 0x1 PUSH2 0x54F4 JUMP JUMPDEST DUP2 MSTORE PUSH1 0x20 ADD SWAP1 DUP2 MSTORE PUSH1 0x20 ADD PUSH1 0x0 KECCAK256 DUP2 SWAP1 SSTORE POP PUSH1 0x0 DUP1 DUP2 SLOAD DUP1 SWAP3 SWAP2 SWAP1 PUSH2 0x44C2 SWAP1 PUSH2 0x5852 JUMP JUMPDEST SWAP2 SWAP1 POP SSTORE POP POP POP POP POP JUMP JUMPDEST DUP5 PUSH2 0x44E7 DUP2 PUSH1 0x0 DUP1 SLOAD SWAP2 DUP2 MSTORE PUSH1 0x7 PUSH1 0x20 MSTORE PUSH1 0x40 SWAP1 KECCAK256 SLOAD GT SWAP1 JUMP JUMPDEST PUSH2 0x4503 JUMPI PUSH1 0x40 MLOAD PUSH3 0x461BCD PUSH1 0xE5 SHL DUP2 MSTORE PUSH1 0x4 ADD PUSH2 0xC40 SWAP1 PUSH2 0x5600 JUMP JUMPDEST PUSH1 0x1 DUP1 SLOAD PUSH1 0xFF AND ISZERO ISZERO EQ PUSH2 0x4529 JUMPI PUSH1 0x40 MLOAD PUSH3 0x461BCD PUSH1 0xE5 SHL DUP2 MSTORE PUSH1 0x4 ADD PUSH2 0xC40 SWAP1 PUSH2 0x5632 JUMP JUMPDEST PUSH1 0x0 DUP7 DUP2 MSTORE PUSH1 0x5 PUSH1 0x20 MSTORE PUSH1 0x40 DUP2 KECCAK256 SLOAD PUSH1 0xFF AND PUSH1 0x2 DUP2 GT ISZERO PUSH2 0x454C JUMPI PUSH2 0x454C PUSH2 0x561C JUMP JUMPDEST EQ PUSH2 0x4556 JUMPI PUSH1 0x0 DUP1 REVERT JUMPDEST PUSH1 0x0 DUP7 DUP2 MSTORE PUSH1 0x3 PUSH1 0x20 MSTORE PUSH1 0x40 SWAP1 KECCAK256 SLOAD DUP6 GT ISZERO PUSH2 0x4599 JUMPI PUSH1 0x40 MLOAD PUSH3 0x461BCD PUSH1 0xE5 SHL DUP2 MSTORE PUSH1 0x20 PUSH1 0x4 DUP3 ADD MSTORE PUSH1 0x2 PUSH1 0x24 DUP3 ADD MSTORE PUSH2 0x4941 PUSH1 0xF0 SHL PUSH1 0x44 DUP3 ADD MSTORE PUSH1 0x64 ADD PUSH2 0xC40 JUMP JUMPDEST PUSH1 0x40 DUP1 MLOAD PUSH1 0x80 DUP2 ADD DUP3 MSTORE DUP7 DUP2 MSTORE PUSH1 0x20 DUP1 DUP3 ADD DUP7 DUP2 MSTORE PUSH1 0x1 PUSH1 0x1 PUSH1 0xA0 SHL SUB DUP9 DUP2 AND DUP5 DUP7 ADD SWAP1 DUP2 MSTORE DUP8 DUP3 AND PUSH1 0x60 DUP7 ADD SWAP1 DUP2 MSTORE PUSH1 0x0 DUP14 DUP2 MSTORE PUSH1 0x6 DUP1 DUP8 MSTORE DUP9 DUP3 KECCAK256 SWAP8 MLOAD DUP9 SSTORE SWAP5 MLOAD PUSH1 0x1 DUP1 DUP10 ADD SWAP2 SWAP1 SWAP2 SSTORE SWAP3 MLOAD PUSH1 0x2 DUP9 ADD DUP1 SLOAD SWAP2 DUP7 AND PUSH1 0x1 PUSH1 0x1 PUSH1 0xA0 SHL SUB NOT SWAP3 DUP4 AND OR SWAP1 SSTORE SWAP2 MLOAD PUSH1 0x3 DUP9 ADD DUP1 SLOAD SWAP2 SWAP1 SWAP6 AND SWAP3 AND SWAP2 SWAP1 SWAP2 OR SWAP1 SWAP3 SSTORE PUSH1 0x5 DUP5 MSTORE SWAP1 DUP6 SWAP1 KECCAK256 DUP1 SLOAD PUSH1 0xFF NOT AND DUP3 OR SWAP1 SSTORE SWAP2 MSTORE SWAP2 MLOAD PUSH32 0xD8CD09EA93B4076AB867588C0D1A52B62C5B605B7A5F1C0189781245631A8353 SWAP3 PUSH2 0x131A SWAP3 SWAP1 SWAP2 DUP11 SWAP2 SWAP1 PUSH2 0x5EE6 JUMP JUMPDEST PUSH1 0x1 DUP1 SLOAD PUSH1 0xFF AND ISZERO ISZERO EQ PUSH2 0x4680 JUMPI PUSH1 0x40 MLOAD PUSH3 0x461BCD PUSH1 0xE5 SHL DUP2 MSTORE PUSH1 0x4 ADD PUSH2 0xC40 SWAP1 PUSH2 0x5632 JUMP JUMPDEST DUP1 PUSH1 0x11 DUP5 PUSH1 0x40 MLOAD PUSH2 0x4691 SWAP2 SWAP1 PUSH2 0x552B JUMP JUMPDEST SWAP1 DUP2 MSTORE PUSH1 0x40 DUP1 MLOAD PUSH1 0x20 SWAP3 DUP2 SWAP1 SUB DUP4 ADD SWAP1 KECCAK256 PUSH1 0x1 PUSH1 0x1 PUSH1 0xA0 SHL SUB DUP7 AND PUSH1 0x0 SWAP1 DUP2 MSTORE SWAP3 MSTORE SWAP1 KECCAK256 DUP1 SLOAD PUSH1 0xFF NOT AND PUSH1 0x1 DUP4 PUSH1 0x2 DUP2 GT ISZERO PUSH2 0x46CF JUMPI PUSH2 0x46CF PUSH2 0x561C JUMP JUMPDEST MUL OR SWAP1 SSTORE POP PUSH1 0x0 DUP1 MLOAD PUSH1 0x20 PUSH2 0x611C DUP4 CODECOPY DUP2 MLOAD SWAP2 MSTORE DUP4 DUP4 DUP4 PUSH1 0x40 MLOAD PUSH1 0x20 ADD PUSH2 0x46F8 SWAP4 SWAP3 SWAP2 SWAP1 PUSH2 0x5F34 JUMP JUMPDEST PUSH1 0x40 DUP1 MLOAD PUSH1 0x1F NOT DUP2 DUP5 SUB ADD DUP2 MSTORE SWAP1 DUP3 SWAP1 MSTORE PUSH2 0x4714 SWAP2 CALLER SWAP1 PUSH2 0x5F6F JUMP JUMPDEST PUSH1 0x40 MLOAD DUP1 SWAP2 SUB SWAP1 LOG1 POP POP POP JUMP JUMPDEST PUSH1 0x1 DUP1 SLOAD PUSH1 0xFF AND ISZERO ISZERO EQ PUSH2 0x4747 JUMPI PUSH1 0x40 MLOAD PUSH3 0x461BCD PUSH1 0xE5 SHL DUP2 MSTORE PUSH1 0x4 ADD PUSH2 0xC40 SWAP1 PUSH2 0x5632 JUMP JUMPDEST PUSH1 0x1 DUP1 SLOAD PUSH1 0xFF NOT AND SWAP1 SSTORE TIMESTAMP PUSH1 0xA SSTORE JUMP JUMPDEST PUSH1 0x0 DUP2 PUSH1 0x1 PUSH1 0x1 PUSH1 0xA0 SHL SUB AND DUP4 PUSH1 0x40 MLOAD PUSH1 0x0 PUSH1 0x40 MLOAD DUP1 DUP4 SUB DUP2 DUP6 DUP8 GAS CALL SWAP3 POP POP POP RETURNDATASIZE DUP1 PUSH1 0x0 DUP2 EQ PUSH2 0x47A4 JUMPI PUSH1 0x40 MLOAD SWAP2 POP PUSH1 0x1F NOT PUSH1 0x3F RETURNDATASIZE ADD AND DUP3 ADD PUSH1 0x40 MSTORE RETURNDATASIZE DUP3 MSTORE RETURNDATASIZE PUSH1 0x0 PUSH1 0x20 DUP5 ADD RETURNDATACOPY PUSH2 0x47A9 JUMP JUMPDEST PUSH1 0x60 SWAP2 POP JUMPDEST POP POP SWAP1 POP DUP1 PUSH2 0xED7 JUMPI PUSH1 0x40 MLOAD PUSH3 0x461BCD PUSH1 0xE5 SHL DUP2 MSTORE PUSH1 0x20 PUSH1 0x4 DUP3 ADD MSTORE PUSH1 0x2 PUSH1 0x24 DUP3 ADD MSTORE PUSH2 0x2A23 PUSH1 0xF1 SHL PUSH1 0x44 DUP3 ADD MSTORE PUSH1 0x64 ADD PUSH2 0xC40 JUMP JUMPDEST PUSH2 0x47E8 DUP4 PUSH2 0x19D0 JUMP JUMPDEST PUSH2 0x47F1 JUMPI PUSH1 0x0 DUP1 REVERT JUMPDEST ADDRESS PUSH1 0x0 SWAP1 DUP2 MSTORE PUSH1 0x4 PUSH1 0x20 MSTORE PUSH1 0x40 DUP2 KECCAK256 SLOAD SWAP1 SLOAD PUSH2 0x480D SWAP2 SWAP1 PUSH2 0x4B04 JUMP JUMPDEST ADDRESS PUSH1 0x0 SWAP1 DUP2 MSTORE PUSH1 0x4 PUSH1 0x20 SWAP1 DUP2 MSTORE PUSH1 0x40 DUP1 DUP4 KECCAK256 SLOAD DUP4 MSTORE PUSH1 0x3 SWAP1 SWAP2 MSTORE SWAP1 KECCAK256 SLOAD PUSH2 0x4841 SWAP1 PUSH2 0x4838 SWAP1 DUP7 PUSH2 0x54F4 JUMP JUMPDEST ADDRESS PUSH1 0x0 SLOAD PUSH2 0x4B4B JUMP JUMPDEST ADDRESS PUSH1 0x0 SWAP1 DUP2 MSTORE PUSH1 0x4 PUSH1 0x20 MSTORE PUSH1 0x40 SWAP1 KECCAK256 SLOAD PUSH2 0x1416 SWAP1 DUP6 DUP6 DUP6 DUP6 PUSH2 0x44CD JUMP JUMPDEST DUP5 PUSH2 0x4868 DUP2 PUSH2 0x2274 JUMP JUMPDEST PUSH2 0x4884 JUMPI PUSH1 0x40 MLOAD PUSH3 0x461BCD PUSH1 0xE5 SHL DUP2 MSTORE PUSH1 0x4 ADD PUSH2 0xC40 SWAP1 PUSH2 0x54C1 JUMP JUMPDEST PUSH1 0x1 PUSH1 0x1 PUSH1 0xA0 SHL SUB DUP6 AND PUSH1 0x0 SWAP1 DUP2 MSTORE PUSH1 0x9 PUSH1 0x20 MSTORE PUSH1 0x40 DUP2 KECCAK256 DUP1 SLOAD DUP7 SWAP3 SWAP1 PUSH2 0x48AC SWAP1 DUP5 SWAP1 PUSH2 0x5687 JUMP JUMPDEST SWAP1 SWAP2 SSTORE POP POP PUSH1 0x1 PUSH1 0x1 PUSH1 0xA0 SHL SUB DUP6 AND PUSH1 0x0 SWAP1 DUP2 MSTORE PUSH1 0xB PUSH1 0x20 MSTORE PUSH1 0x40 DUP2 KECCAK256 DUP1 SLOAD DUP7 SWAP3 SWAP1 PUSH2 0x48D9 SWAP1 DUP5 SWAP1 PUSH2 0x5687 JUMP JUMPDEST SWAP3 POP POP DUP2 SWAP1 SSTORE POP DUP4 PUSH1 0xF DUP8 PUSH1 0x40 MLOAD PUSH2 0x48F1 SWAP2 SWAP1 PUSH2 0x552B JUMP JUMPDEST SWAP1 DUP2 MSTORE PUSH1 0x20 ADD PUSH1 0x40 MLOAD DUP1 SWAP2 SUB SWAP1 KECCAK256 PUSH1 0x0 DUP8 PUSH1 0x1 PUSH1 0x1 PUSH1 0xA0 SHL SUB AND PUSH1 0x1 PUSH1 0x1 PUSH1 0xA0 SHL SUB AND DUP2 MSTORE PUSH1 0x20 ADD SWAP1 DUP2 MSTORE PUSH1 0x20 ADD PUSH1 0x0 KECCAK256 PUSH1 0x0 DUP3 DUP3 SLOAD PUSH2 0x4931 SWAP2 SWAP1 PUSH2 0x5687 JUMP JUMPDEST SWAP1 SWAP2 SSTORE POP POP PUSH1 0x40 MLOAD PUSH1 0xF SWAP1 PUSH2 0x4947 SWAP1 DUP9 SWAP1 PUSH2 0x552B JUMP JUMPDEST SWAP1 DUP2 MSTORE PUSH1 0x40 DUP1 MLOAD PUSH1 0x20 SWAP3 DUP2 SWAP1 SUB DUP4 ADD SWAP1 KECCAK256 PUSH1 0x1 PUSH1 0x1 PUSH1 0xA0 SHL SUB DUP9 AND PUSH1 0x0 SWAP1 DUP2 MSTORE SWAP3 MSTORE SWAP1 KECCAK256 SLOAD ISZERO DUP1 ISZERO PUSH2 0x4981 JUMPI POP PUSH1 0x1 PUSH1 0x1 PUSH1 0xA0 SHL SUB DUP6 AND ISZERO ISZERO JUMPDEST ISZERO PUSH2 0x49BB JUMPI PUSH1 0x1 PUSH1 0xE DUP8 PUSH1 0x40 MLOAD PUSH2 0x4998 SWAP2 SWAP1 PUSH2 0x552B JUMP JUMPDEST SWAP1 DUP2 MSTORE PUSH1 0x20 ADD PUSH1 0x40 MLOAD DUP1 SWAP2 SUB SWAP1 KECCAK256 PUSH1 0x0 DUP3 DUP3 SLOAD PUSH2 0x49B5 SWAP2 SWAP1 PUSH2 0x5687 JUMP JUMPDEST SWAP1 SWAP2 SSTORE POP POP JUMPDEST PUSH1 0x0 DUP1 MLOAD PUSH1 0x20 PUSH2 0x611C DUP4 CODECOPY DUP2 MLOAD SWAP2 MSTORE DUP7 DUP7 DUP7 DUP7 DUP7 PUSH1 0x40 MLOAD PUSH1 0x20 ADD PUSH2 0x49E3 SWAP6 SWAP5 SWAP4 SWAP3 SWAP2 SWAP1 PUSH2 0x5F9B JUMP JUMPDEST PUSH1 0x40 DUP1 MLOAD PUSH1 0x1F NOT DUP2 DUP5 SUB ADD DUP2 MSTORE SWAP1 DUP3 SWAP1 MSTORE PUSH2 0x131A SWAP2 CALLER SWAP1 PUSH2 0x5FEA JUMP JUMPDEST PUSH2 0x4A08 DUP2 PUSH2 0x19D0 JUMP JUMPDEST PUSH2 0x4A39 JUMPI PUSH1 0x40 MLOAD PUSH3 0x461BCD PUSH1 0xE5 SHL DUP2 MSTORE PUSH1 0x20 PUSH1 0x4 DUP3 ADD MSTORE PUSH1 0x2 PUSH1 0x24 DUP3 ADD MSTORE PUSH2 0x1555 PUSH1 0xF2 SHL PUSH1 0x44 DUP3 ADD MSTORE PUSH1 0x64 ADD PUSH2 0xC40 JUMP JUMPDEST PUSH1 0x1 PUSH1 0x1 PUSH1 0xA0 SHL SUB DUP2 AND PUSH1 0x0 SWAP1 DUP2 MSTORE PUSH1 0x9 PUSH1 0x20 MSTORE PUSH1 0x40 SWAP1 KECCAK256 SLOAD ISZERO PUSH2 0x4A84 JUMPI PUSH1 0x40 MLOAD PUSH3 0x461BCD PUSH1 0xE5 SHL DUP2 MSTORE PUSH1 0x20 PUSH1 0x4 DUP3 ADD MSTORE PUSH1 0x2 PUSH1 0x24 DUP3 ADD MSTORE PUSH2 0x272D PUSH1 0xF1 SHL PUSH1 0x44 DUP3 ADD MSTORE PUSH1 0x64 ADD PUSH2 0xC40 JUMP JUMPDEST PUSH1 0x1 PUSH1 0x1 PUSH1 0xA0 SHL SUB AND PUSH1 0x0 SWAP1 DUP2 MSTORE PUSH1 0x8 PUSH1 0x20 MSTORE PUSH1 0x40 SWAP1 KECCAK256 DUP1 SLOAD PUSH1 0xFF NOT AND SWAP1 SSTORE JUMP JUMPDEST PUSH2 0x4AAE DUP2 PUSH2 0x19D0 JUMP JUMPDEST ISZERO PUSH2 0x4AE0 JUMPI PUSH1 0x40 MLOAD PUSH3 0x461BCD PUSH1 0xE5 SHL DUP2 MSTORE PUSH1 0x20 PUSH1 0x4 DUP3 ADD MSTORE PUSH1 0x2 PUSH1 0x24 DUP3 ADD MSTORE PUSH2 0x20A9 PUSH1 0xF1 SHL PUSH1 0x44 DUP3 ADD MSTORE PUSH1 0x64 ADD PUSH2 0xC40 JUMP JUMPDEST PUSH1 0x1 PUSH1 0x1 PUSH1 0xA0 SHL SUB AND PUSH1 0x0 SWAP1 DUP2 MSTORE PUSH1 0x8 PUSH1 0x20 MSTORE PUSH1 0x40 SWAP1 KECCAK256 DUP1 SLOAD PUSH1 0xFF NOT AND PUSH1 0x1 OR SWAP1 SSTORE JUMP JUMPDEST PUSH1 0x0 DUP3 DUP2 MSTORE PUSH1 0x7 PUSH1 0x20 SWAP1 DUP2 MSTORE PUSH1 0x40 DUP1 DUP4 KECCAK256 DUP5 SWAP1 SSTORE DUP1 MLOAD SWAP3 DUP4 MSTORE SWAP1 DUP3 ADD DUP5 SWAP1 MSTORE PUSH32 0x12769FD465856C3651942A04374F21755B56A66422AAED87C7E56E936F6DD3D0 SWAP2 ADD PUSH2 0x25AB JUMP JUMPDEST PUSH1 0x0 DUP4 GT PUSH2 0x4B80 JUMPI PUSH1 0x40 MLOAD PUSH3 0x461BCD PUSH1 0xE5 SHL DUP2 MSTORE PUSH1 0x20 PUSH1 0x4 DUP3 ADD MSTORE PUSH1 0x2 PUSH1 0x24 DUP3 ADD MSTORE PUSH2 0x29AD PUSH1 0xF1 SHL PUSH1 0x44 DUP3 ADD MSTORE PUSH1 0x64 ADD PUSH2 0xC40 JUMP JUMPDEST PUSH1 0x0 DUP1 JUMPDEST PUSH1 0x40 MLOAD PUSH12 0xFFFFFFFFFFFFFFFFFFFFFFFF NOT PUSH1 0x60 DUP7 SWAP1 SHL AND PUSH1 0x20 DUP3 ADD MSTORE PUSH1 0x34 DUP2 ADD DUP5 SWAP1 MSTORE PUSH1 0x54 DUP2 ADD DUP4 SWAP1 MSTORE PUSH1 0x74 ADD PUSH1 0x40 DUP1 MLOAD PUSH1 0x1F NOT DUP2 DUP5 SUB ADD DUP2 MSTORE SWAP2 DUP2 MSTORE DUP2 MLOAD PUSH1 0x20 SWAP3 DUP4 ADD KECCAK256 PUSH1 0x0 DUP2 DUP2 MSTORE PUSH1 0x3 SWAP1 SWAP4 MSTORE SWAP2 KECCAK256 PUSH1 0x1 ADD SLOAD SWAP1 SWAP2 POP PUSH1 0x1 PUSH1 0x1 PUSH1 0xA0 SHL SUB AND ISZERO PUSH2 0x4BFC JUMPI DUP2 PUSH2 0x4BF4 DUP2 PUSH2 0x5852 JUMP JUMPDEST SWAP3 POP POP PUSH2 0x4B84 JUMP JUMPDEST PUSH1 0x1 PUSH1 0x1 PUSH1 0xA0 SHL SUB DUP5 DUP2 AND PUSH1 0x0 DUP2 DUP2 MSTORE PUSH1 0x4 PUSH1 0x20 SWAP1 DUP2 MSTORE PUSH1 0x40 DUP1 DUP4 KECCAK256 DUP7 SWAP1 SSTORE DUP6 DUP4 MSTORE PUSH1 0x7 DUP3 MSTORE DUP1 DUP4 KECCAK256 PUSH1 0x0 NOT SWAP1 SSTORE DUP1 MLOAD PUSH1 0x60 DUP2 ADD DUP3 MSTORE DUP11 DUP2 MSTORE DUP1 DUP4 ADD SWAP5 DUP6 MSTORE DUP1 DUP3 ADD DUP10 DUP2 MSTORE DUP8 DUP6 MSTORE PUSH1 0x3 DUP5 MSTORE SWAP4 DUP3 SWAP1 KECCAK256 SWAP1 MLOAD DUP2 SSTORE SWAP4 MLOAD PUSH1 0x1 DUP1 DUP7 ADD DUP1 SLOAD PUSH1 0x1 PUSH1 0x1 PUSH1 0xA0 SHL SUB NOT AND SWAP3 SWAP1 SWAP8 AND SWAP2 SWAP1 SWAP2 OR SWAP1 SWAP6 SSTORE SWAP2 MLOAD PUSH1 0x2 SWAP1 SWAP4 ADD SWAP3 SWAP1 SWAP3 SSTORE DUP1 MLOAD SWAP3 DUP4 MSTORE SWAP1 DUP3 ADD DUP4 SWAP1 MSTORE PUSH32 0x12769FD465856C3651942A04374F21755B56A66422AAED87C7E56E936F6DD3D0 SWAP2 ADD PUSH2 0x17ED JUMP JUMPDEST DUP3 DUP1 SLOAD DUP3 DUP3 SSTORE SWAP1 PUSH1 0x0 MSTORE PUSH1 0x20 PUSH1 0x0 KECCAK256 SWAP1 DUP2 ADD SWAP3 DUP3 ISZERO PUSH2 0x4CF2 JUMPI SWAP2 PUSH1 0x20 MUL DUP3 ADD JUMPDEST DUP3 DUP2 GT ISZERO PUSH2 0x4CF2 JUMPI DUP3 MLOAD DUP3 SWAP1 PUSH2 0x4CE2 SWAP1 DUP3 PUSH2 0x605C JUMP JUMPDEST POP SWAP2 PUSH1 0x20 ADD SWAP2 SWAP1 PUSH1 0x1 ADD SWAP1 PUSH2 0x4CCC JUMP JUMPDEST POP PUSH2 0x4CFE SWAP3 SWAP2 POP PUSH2 0x4D54 JUMP JUMPDEST POP SWAP1 JUMP JUMPDEST DUP3 DUP1 SLOAD DUP3 DUP3 SSTORE SWAP1 PUSH1 0x0 MSTORE PUSH1 0x20 PUSH1 0x0 KECCAK256 SWAP1 DUP2 ADD SWAP3 DUP3 ISZERO PUSH2 0x4D48 JUMPI SWAP2 PUSH1 0x20 MUL DUP3 ADD JUMPDEST DUP3 DUP2 GT ISZERO PUSH2 0x4D48 JUMPI DUP3 MLOAD DUP3 SWAP1 PUSH2 0x4D38 SWAP1 DUP3 PUSH2 0x605C JUMP JUMPDEST POP SWAP2 PUSH1 0x20 ADD SWAP2 SWAP1 PUSH1 0x1 ADD SWAP1 PUSH2 0x4D22 JUMP JUMPDEST POP PUSH2 0x4CFE SWAP3 SWAP2 POP PUSH2 0x4D71 JUMP JUMPDEST DUP1 DUP3 GT ISZERO PUSH2 0x4CFE JUMPI PUSH1 0x0 PUSH2 0x4D68 DUP3 DUP3 PUSH2 0x4D8E JUMP JUMPDEST POP PUSH1 0x1 ADD PUSH2 0x4D54 JUMP JUMPDEST DUP1 DUP3 GT ISZERO PUSH2 0x4CFE JUMPI PUSH1 0x0 PUSH2 0x4D85 DUP3 DUP3 PUSH2 0x4D8E JUMP JUMPDEST POP PUSH1 0x1 ADD PUSH2 0x4D71 JUMP JUMPDEST POP DUP1 SLOAD PUSH2 0x4D9A SWAP1 PUSH2 0x58EC JUMP JUMPDEST PUSH1 0x0 DUP3 SSTORE DUP1 PUSH1 0x1F LT PUSH2 0x4DAA JUMPI POP POP JUMP JUMPDEST PUSH1 0x1F ADD PUSH1 0x20 SWAP1 DIV SWAP1 PUSH1 0x0 MSTORE PUSH1 0x20 PUSH1 0x0 KECCAK256 SWAP1 DUP2 ADD SWAP1 PUSH2 0xE03 SWAP2 SWAP1 JUMPDEST DUP1 DUP3 GT ISZERO PUSH2 0x4CFE JUMPI PUSH1 0x0 DUP2 SSTORE PUSH1 0x1 ADD PUSH2 0x4DC4 JUMP JUMPDEST PUSH1 0x0 PUSH1 0x20 DUP3 DUP5 SUB SLT ISZERO PUSH2 0x4DEA JUMPI PUSH1 0x0 DUP1 REVERT JUMPDEST POP CALLDATALOAD SWAP2 SWAP1 POP JUMP JUMPDEST PUSH1 0x1 PUSH1 0x1 PUSH1 0xA0 SHL SUB DUP2 AND DUP2 EQ PUSH2 0xE03 JUMPI PUSH1 0x0 DUP1 REVERT JUMPDEST PUSH1 0x0 PUSH1 0x20 DUP3 DUP5 SUB SLT ISZERO PUSH2 0x4E18 JUMPI PUSH1 0x0 DUP1 REVERT JUMPDEST DUP2 CALLDATALOAD PUSH2 0x1B40 DUP2 PUSH2 0x4DF1 JUMP JUMPDEST PUSH4 0x4E487B71 PUSH1 0xE0 SHL PUSH1 0x0 MSTORE PUSH1 0x41 PUSH1 0x4 MSTORE PUSH1 0x24 PUSH1 0x0 REVERT JUMPDEST PUSH1 0x40 MLOAD PUSH1 0x1F DUP3 ADD PUSH1 0x1F NOT AND DUP2 ADD PUSH1 0x1 PUSH1 0x1 PUSH1 0x40 SHL SUB DUP2 GT DUP3 DUP3 LT OR ISZERO PUSH2 0x4E61 JUMPI PUSH2 0x4E61 PUSH2 0x4E23 JUMP JUMPDEST PUSH1 0x40 MSTORE SWAP2 SWAP1 POP JUMP JUMPDEST PUSH1 0x0 PUSH1 0x1 PUSH1 0x1 PUSH1 0x40 SHL SUB DUP3 GT ISZERO PUSH2 0x4E82 JUMPI PUSH2 0x4E82 PUSH2 0x4E23 JUMP JUMPDEST POP PUSH1 0x1F ADD PUSH1 0x1F NOT AND PUSH1 0x20 ADD SWAP1 JUMP JUMPDEST PUSH1 0x0 PUSH2 0x4EA3 PUSH2 0x4E9E DUP5 PUSH2 0x4E69 JUMP JUMPDEST PUSH2 0x4E39 JUMP JUMPDEST SWAP1 POP DUP3 DUP2 MSTORE DUP4 DUP4 DUP4 ADD GT ISZERO PUSH2 0x4EB7 JUMPI PUSH1 0x0 DUP1 REVERT JUMPDEST DUP3 DUP3 PUSH1 0x20 DUP4 ADD CALLDATACOPY PUSH1 0x0 PUSH1 0x20 DUP5 DUP4 ADD ADD MSTORE SWAP4 SWAP3 POP POP POP JUMP JUMPDEST PUSH1 0x0 DUP3 PUSH1 0x1F DUP4 ADD SLT PUSH2 0x4EDF JUMPI PUSH1 0x0 DUP1 REVERT JUMPDEST PUSH2 0x1B40 DUP4 DUP4 CALLDATALOAD PUSH1 0x20 DUP6 ADD PUSH2 0x4E90 JUMP JUMPDEST PUSH1 0x0 PUSH1 0x20 DUP3 DUP5 SUB SLT ISZERO PUSH2 0x4F00 JUMPI PUSH1 0x0 DUP1 REVERT JUMPDEST DUP2 CALLDATALOAD PUSH1 0x1 PUSH1 0x1 PUSH1 0x40 SHL SUB DUP2 GT ISZERO PUSH2 0x4F16 JUMPI PUSH1 0x0 DUP1 REVERT JUMPDEST PUSH2 0x4F22 DUP5 DUP3 DUP6 ADD PUSH2 0x4ECE JUMP JUMPDEST SWAP5 SWAP4 POP POP POP POP JUMP JUMPDEST PUSH1 0x0 DUP1 PUSH1 0x40 DUP4 DUP6 SUB SLT ISZERO PUSH2 0x4F3D JUMPI PUSH1 0x0 DUP1 REVERT JUMPDEST DUP3 CALLDATALOAD PUSH1 0x1 PUSH1 0x1 PUSH1 0x40 SHL SUB DUP2 GT ISZERO PUSH2 0x4F53 JUMPI PUSH1 0x0 DUP1 REVERT JUMPDEST PUSH2 0x4F5F DUP6 DUP3 DUP7 ADD PUSH2 0x4ECE JUMP JUMPDEST SWAP3 POP POP PUSH1 0x20 DUP4 ADD CALLDATALOAD PUSH2 0x4F70 DUP2 PUSH2 0x4DF1 JUMP JUMPDEST DUP1 SWAP2 POP POP SWAP3 POP SWAP3 SWAP1 POP JUMP JUMPDEST DUP1 ISZERO ISZERO DUP2 EQ PUSH2 0xE03 JUMPI PUSH1 0x0 DUP1 REVERT JUMPDEST PUSH1 0x0 DUP1 PUSH1 0x0 PUSH1 0x60 DUP5 DUP7 SUB SLT ISZERO PUSH2 0x4F9E JUMPI PUSH1 0x0 DUP1 REVERT JUMPDEST DUP4 CALLDATALOAD SWAP3 POP PUSH1 0x20 DUP5 ADD CALLDATALOAD SWAP2 POP PUSH1 0x40 DUP5 ADD CALLDATALOAD PUSH2 0x4FB7 DUP2 PUSH2 0x4F7B JUMP JUMPDEST DUP1 SWAP2 POP POP SWAP3 POP SWAP3 POP SWAP3 JUMP JUMPDEST PUSH1 0x0 DUP1 PUSH1 0x40 DUP4 DUP6 SUB SLT ISZERO PUSH2 0x4FD5 JUMPI PUSH1 0x0 DUP1 REVERT JUMPDEST POP POP DUP1 CALLDATALOAD SWAP3 PUSH1 0x20 SWAP1 SWAP2 ADD CALLDATALOAD SWAP2 POP JUMP JUMPDEST PUSH1 0x0 PUSH1 0x1 PUSH1 0x1 PUSH1 0x40 SHL SUB DUP3 GT ISZERO PUSH2 0x4FFD JUMPI PUSH2 0x4FFD PUSH2 0x4E23 JUMP JUMPDEST POP PUSH1 0x5 SHL PUSH1 0x20 ADD SWAP1 JUMP JUMPDEST PUSH1 0x0 DUP3 PUSH1 0x1F DUP4 ADD SLT PUSH2 0x5018 JUMPI PUSH1 0x0 DUP1 REVERT JUMPDEST DUP2 CALLDATALOAD PUSH1 0x20 PUSH2 0x5028 PUSH2 0x4E9E DUP4 PUSH2 0x4FE4 JUMP JUMPDEST DUP3 DUP2 MSTORE PUSH1 0x5 SWAP3 SWAP1 SWAP3 SHL DUP5 ADD DUP2 ADD SWAP2 DUP2 DUP2 ADD SWAP1 DUP7 DUP5 GT ISZERO PUSH2 0x5047 JUMPI PUSH1 0x0 DUP1 REVERT JUMPDEST DUP3 DUP7 ADD JUMPDEST DUP5 DUP2 LT ISZERO PUSH2 0x509B JUMPI DUP1 CALLDATALOAD PUSH1 0x1 PUSH1 0x1 PUSH1 0x40 SHL SUB DUP2 GT ISZERO PUSH2 0x506A JUMPI PUSH1 0x0 DUP1 DUP2 REVERT JUMPDEST DUP8 ADD PUSH1 0x3F DUP2 ADD DUP10 SGT PUSH2 0x507C JUMPI PUSH1 0x0 DUP1 DUP2 REVERT JUMPDEST PUSH2 0x508D DUP10 DUP7 DUP4 ADD CALLDATALOAD PUSH1 0x40 DUP5 ADD PUSH2 0x4E90 JUMP JUMPDEST DUP5 MSTORE POP SWAP2 DUP4 ADD SWAP2 DUP4 ADD PUSH2 0x504B JUMP JUMPDEST POP SWAP7 SWAP6 POP POP POP POP POP POP JUMP JUMPDEST PUSH1 0x0 DUP1 PUSH1 0x40 DUP4 DUP6 SUB SLT ISZERO PUSH2 0x50B9 JUMPI PUSH1 0x0 DUP1 REVERT JUMPDEST DUP3 CALLDATALOAD PUSH1 0x1 PUSH1 0x1 PUSH1 0x40 SHL SUB DUP1 DUP3 GT ISZERO PUSH2 0x50D0 JUMPI PUSH1 0x0 DUP1 REVERT JUMPDEST DUP2 DUP6 ADD SWAP2 POP DUP6 PUSH1 0x1F DUP4 ADD SLT PUSH2 0x50E4 JUMPI PUSH1 0x0 DUP1 REVERT JUMPDEST DUP2 CALLDATALOAD PUSH1 0x20 PUSH2 0x50F4 PUSH2 0x4E9E DUP4 PUSH2 0x4FE4 JUMP JUMPDEST DUP3 DUP2 MSTORE PUSH1 0x5 SWAP3 SWAP1 SWAP3 SHL DUP5 ADD DUP2 ADD SWAP2 DUP2 DUP2 ADD SWAP1 DUP10 DUP5 GT ISZERO PUSH2 0x5113 JUMPI PUSH1 0x0 DUP1 REVERT JUMPDEST DUP3 DUP7 ADD JUMPDEST DUP5 DUP2 LT ISZERO PUSH2 0x514B JUMPI DUP1 CALLDATALOAD DUP7 DUP2 GT ISZERO PUSH2 0x512F JUMPI PUSH1 0x0 DUP1 DUP2 REVERT JUMPDEST PUSH2 0x513D DUP13 DUP7 DUP4 DUP12 ADD ADD PUSH2 0x4ECE JUMP JUMPDEST DUP5 MSTORE POP SWAP2 DUP4 ADD SWAP2 DUP4 ADD PUSH2 0x5117 JUMP JUMPDEST POP SWAP7 POP POP DUP7 ADD CALLDATALOAD SWAP3 POP POP DUP1 DUP3 GT ISZERO PUSH2 0x5162 JUMPI PUSH1 0x0 DUP1 REVERT JUMPDEST POP PUSH2 0x516F DUP6 DUP3 DUP7 ADD PUSH2 0x5007 JUMP JUMPDEST SWAP2 POP POP SWAP3 POP SWAP3 SWAP1 POP JUMP JUMPDEST PUSH1 0x0 DUP1 PUSH1 0x0 DUP1 PUSH1 0x80 DUP6 DUP8 SUB SLT ISZERO PUSH2 0x518F JUMPI PUSH1 0x0 DUP1 REVERT JUMPDEST DUP5 CALLDATALOAD SWAP4 POP PUSH1 0x20 DUP6 ADD CALLDATALOAD PUSH2 0x51A1 DUP2 PUSH2 0x4DF1 JUMP JUMPDEST SWAP3 POP PUSH1 0x40 DUP6 ADD CALLDATALOAD SWAP2 POP PUSH1 0x60 DUP6 ADD CALLDATALOAD PUSH2 0x51B8 DUP2 PUSH2 0x4DF1 JUMP JUMPDEST SWAP4 SWAP7 SWAP3 SWAP6 POP SWAP1 SWAP4 POP POP JUMP JUMPDEST PUSH1 0x0 DUP1 PUSH1 0x40 DUP4 DUP6 SUB SLT ISZERO PUSH2 0x51D6 JUMPI PUSH1 0x0 DUP1 REVERT JUMPDEST DUP3 CALLDATALOAD SWAP2 POP PUSH1 0x20 DUP4 ADD CALLDATALOAD PUSH2 0x4F70 DUP2 PUSH2 0x4DF1 JUMP JUMPDEST PUSH1 0x0 DUP1 PUSH1 0x0 PUSH1 0x60 DUP5 DUP7 SUB SLT ISZERO PUSH2 0x51FD JUMPI PUSH1 0x0 DUP1 REVERT JUMPDEST DUP4 CALLDATALOAD PUSH1 0x1 PUSH1 0x1 PUSH1 0x40 SHL SUB DUP2 GT ISZERO PUSH2 0x5213 JUMPI PUSH1 0x0 DUP1 REVERT JUMPDEST PUSH2 0x521F DUP7 DUP3 DUP8 ADD PUSH2 0x4ECE JUMP JUMPDEST SWAP4 POP POP PUSH1 0x20 DUP5 ADD CALLDATALOAD PUSH2 0x5230 DUP2 PUSH2 0x4DF1 JUMP JUMPDEST SWAP3 SWAP6 SWAP3 SWAP5 POP POP POP PUSH1 0x40 SWAP2 SWAP1 SWAP2 ADD CALLDATALOAD SWAP1 JUMP JUMPDEST PUSH1 0x0 DUP1 PUSH1 0x0 DUP1 PUSH1 0x0 PUSH1 0xA0 DUP7 DUP9 SUB SLT ISZERO PUSH2 0x5259 JUMPI PUSH1 0x0 DUP1 REVERT JUMPDEST DUP6 CALLDATALOAD PUSH1 0x1 PUSH1 0x1 PUSH1 0x40 SHL SUB DUP1 DUP3 GT ISZERO PUSH2 0x5270 JUMPI PUSH1 0x0 DUP1 REVERT JUMPDEST PUSH2 0x527C DUP10 DUP4 DUP11 ADD PUSH2 0x4ECE JUMP JUMPDEST SWAP7 POP PUSH1 0x20 DUP9 ADD CALLDATALOAD SWAP2 POP PUSH2 0x528E DUP3 PUSH2 0x4DF1 JUMP JUMPDEST SWAP1 SWAP5 POP PUSH1 0x40 DUP8 ADD CALLDATALOAD SWAP4 POP PUSH1 0x60 DUP8 ADD CALLDATALOAD SWAP1 PUSH2 0x52A7 DUP3 PUSH2 0x4DF1 JUMP JUMPDEST SWAP1 SWAP3 POP PUSH1 0x80 DUP8 ADD CALLDATALOAD SWAP1 DUP1 DUP3 GT ISZERO PUSH2 0x52BD JUMPI PUSH1 0x0 DUP1 REVERT JUMPDEST POP PUSH2 0x52CA DUP9 DUP3 DUP10 ADD PUSH2 0x4ECE JUMP JUMPDEST SWAP2 POP POP SWAP3 SWAP6 POP SWAP3 SWAP6 SWAP1 SWAP4 POP JUMP JUMPDEST PUSH1 0x0 DUP1 PUSH1 0x0 DUP1 PUSH1 0x80 DUP6 DUP8 SUB SLT ISZERO PUSH2 0x52ED JUMPI PUSH1 0x0 DUP1 REVERT JUMPDEST DUP5 CALLDATALOAD PUSH1 0x1 PUSH1 0x1 PUSH1 0x40 SHL SUB DUP1 DUP3 GT ISZERO PUSH2 0x5304 JUMPI PUSH1 0x0 DUP1 REVERT JUMPDEST PUSH2 0x5310 DUP9 DUP4 DUP10 ADD PUSH2 0x4ECE JUMP JUMPDEST SWAP6 POP PUSH1 0x20 DUP8 ADD CALLDATALOAD SWAP2 POP DUP1 DUP3 GT ISZERO PUSH2 0x5326 JUMPI PUSH1 0x0 DUP1 REVERT JUMPDEST POP PUSH2 0x5333 DUP8 DUP3 DUP9 ADD PUSH2 0x4ECE JUMP JUMPDEST SWAP4 POP POP PUSH1 0x40 DUP6 ADD CALLDATALOAD PUSH2 0x5344 DUP2 PUSH2 0x4DF1 JUMP JUMPDEST SWAP4 SWAP7 SWAP3 SWAP6 POP SWAP3 SWAP4 PUSH1 0x60 ADD CALLDATALOAD SWAP3 POP POP JUMP JUMPDEST PUSH1 0x0 DUP1 PUSH1 0x0 PUSH1 0x60 DUP5 DUP7 SUB SLT ISZERO PUSH2 0x5369 JUMPI PUSH1 0x0 DUP1 REVERT JUMPDEST DUP4 CALLDATALOAD PUSH2 0x5374 DUP2 PUSH2 0x4DF1 JUMP JUMPDEST SWAP3 POP PUSH1 0x20 DUP5 ADD CALLDATALOAD SWAP2 POP PUSH1 0x40 DUP5 ADD CALLDATALOAD PUSH1 0x1 PUSH1 0x1 PUSH1 0x40 SHL SUB DUP2 GT ISZERO PUSH2 0x5396 JUMPI PUSH1 0x0 DUP1 REVERT JUMPDEST PUSH2 0x53A2 DUP7 DUP3 DUP8 ADD PUSH2 0x4ECE JUMP JUMPDEST SWAP2 POP POP SWAP3 POP SWAP3 POP SWAP3 JUMP JUMPDEST PUSH1 0x0 DUP1 PUSH1 0x0 PUSH1 0x60 DUP5 DUP7 SUB SLT ISZERO PUSH2 0x53C1 JUMPI PUSH1 0x0 DUP1 REVERT JUMPDEST POP POP DUP2 CALLDATALOAD SWAP4 PUSH1 0x20 DUP4 ADD CALLDATALOAD SWAP4 POP PUSH1 0x40 SWAP1 SWAP3 ADD CALLDATALOAD SWAP2 SWAP1 POP JUMP JUMPDEST PUSH1 0x0 DUP1 PUSH1 0x0 PUSH1 0x60 DUP5 DUP7 SUB SLT ISZERO PUSH2 0x53ED JUMPI PUSH1 0x0 DUP1 REVERT JUMPDEST DUP4 CALLDATALOAD SWAP3 POP PUSH1 0x20 DUP5 ADD CALLDATALOAD SWAP2 POP PUSH1 0x40 DUP5 ADD CALLDATALOAD PUSH2 0x4FB7 DUP2 PUSH2 0x4DF1 JUMP JUMPDEST PUSH1 0x3 DUP2 LT PUSH2 0xE03 JUMPI PUSH1 0x0 DUP1 REVERT JUMPDEST PUSH1 0x0 DUP1 PUSH1 0x0 PUSH1 0x60 DUP5 DUP7 SUB SLT ISZERO PUSH2 0x5428 JUMPI PUSH1 0x0 DUP1 REVERT JUMPDEST DUP4 CALLDATALOAD PUSH1 0x1 PUSH1 0x1 PUSH1 0x40 SHL SUB DUP2 GT ISZERO PUSH2 0x543E JUMPI PUSH1 0x0 DUP1 REVERT JUMPDEST PUSH2 0x544A DUP7 DUP3 DUP8 ADD PUSH2 0x4ECE JUMP JUMPDEST SWAP4 POP POP PUSH1 0x20 DUP5 ADD CALLDATALOAD PUSH2 0x545B DUP2 PUSH2 0x4DF1 JUMP JUMPDEST SWAP2 POP PUSH1 0x40 DUP5 ADD CALLDATALOAD PUSH2 0x4FB7 DUP2 PUSH2 0x5406 JUMP JUMPDEST PUSH1 0x0 DUP1 PUSH1 0x0 DUP1 PUSH1 0x0 PUSH1 0xA0 DUP7 DUP9 SUB SLT ISZERO PUSH2 0x5483 JUMPI PUSH1 0x0 DUP1 REVERT JUMPDEST DUP6 CALLDATALOAD SWAP5 POP PUSH1 0x20 DUP7 ADD CALLDATALOAD SWAP4 POP PUSH1 0x40 DUP7 ADD CALLDATALOAD PUSH2 0x549C DUP2 PUSH2 0x4DF1 JUMP JUMPDEST SWAP3 POP PUSH1 0x60 DUP7 ADD CALLDATALOAD SWAP2 POP PUSH1 0x80 DUP7 ADD CALLDATALOAD PUSH2 0x54B3 DUP2 PUSH2 0x4DF1 JUMP JUMPDEST DUP1 SWAP2 POP POP SWAP3 SWAP6 POP SWAP3 SWAP6 SWAP1 SWAP4 POP JUMP JUMPDEST PUSH1 0x20 DUP1 DUP3 MSTORE PUSH1 0x3 SWAP1 DUP3 ADD MSTORE PUSH3 0x444E45 PUSH1 0xE8 SHL PUSH1 0x40 DUP3 ADD MSTORE PUSH1 0x60 ADD SWAP1 JUMP JUMPDEST PUSH4 0x4E487B71 PUSH1 0xE0 SHL PUSH1 0x0 MSTORE PUSH1 0x11 PUSH1 0x4 MSTORE PUSH1 0x24 PUSH1 0x0 REVERT JUMPDEST DUP1 DUP3 ADD DUP1 DUP3 GT ISZERO PUSH2 0x1009 JUMPI PUSH2 0x1009 PUSH2 0x54DE JUMP JUMPDEST PUSH1 0x0 JUMPDEST DUP4 DUP2 LT ISZERO PUSH2 0x5522 JUMPI DUP2 DUP2 ADD MLOAD DUP4 DUP3 ADD MSTORE PUSH1 0x20 ADD PUSH2 0x550A JUMP JUMPDEST POP POP PUSH1 0x0 SWAP2 ADD MSTORE JUMP JUMPDEST PUSH1 0x0 DUP3 MLOAD PUSH2 0x553D DUP2 DUP5 PUSH1 0x20 DUP8 ADD PUSH2 0x5507 JUMP JUMPDEST SWAP2 SWAP1 SWAP2 ADD SWAP3 SWAP2 POP POP JUMP JUMPDEST PUSH1 0x0 DUP2 MLOAD DUP1 DUP5 MSTORE PUSH2 0x555F DUP2 PUSH1 0x20 DUP7 ADD PUSH1 0x20 DUP7 ADD PUSH2 0x5507 JUMP JUMPDEST PUSH1 0x1F ADD PUSH1 0x1F NOT AND SWAP3 SWAP1 SWAP3 ADD PUSH1 0x20 ADD SWAP3 SWAP2 POP POP JUMP JUMPDEST PUSH1 0x60 DUP2 MSTORE PUSH1 0x0 PUSH2 0x5586 PUSH1 0x60 DUP4 ADD DUP7 PUSH2 0x5547 JUMP JUMPDEST PUSH1 0x1 PUSH1 0x1 PUSH1 0xA0 SHL SUB SWAP5 SWAP1 SWAP5 AND PUSH1 0x20 DUP4 ADD MSTORE POP PUSH1 0x40 ADD MSTORE SWAP2 SWAP1 POP JUMP JUMPDEST PUSH1 0x60 DUP2 MSTORE PUSH1 0x2 PUSH1 0x60 DUP3 ADD MSTORE PUSH2 0x1C95 PUSH1 0xF2 SHL PUSH1 0x80 DUP3 ADD MSTORE PUSH1 0xA0 PUSH1 0x20 DUP3 ADD MSTORE PUSH1 0x0 PUSH2 0x55CD PUSH1 0xA0 DUP4 ADD DUP6 PUSH2 0x5547 JUMP JUMPDEST SWAP1 POP PUSH1 0x1 DUP1 PUSH1 0xA0 SHL SUB DUP4 AND PUSH1 0x40 DUP4 ADD MSTORE SWAP4 SWAP3 POP POP POP JUMP JUMPDEST PUSH1 0x20 DUP1 DUP3 MSTORE PUSH1 0x2 SWAP1 DUP3 ADD MSTORE PUSH2 0x9E9 PUSH1 0xF3 SHL PUSH1 0x40 DUP3 ADD MSTORE PUSH1 0x60 ADD SWAP1 JUMP JUMPDEST PUSH1 0x20 DUP1 DUP3 MSTORE PUSH1 0x2 SWAP1 DUP3 ADD MSTORE PUSH2 0x5553 PUSH1 0xF0 SHL PUSH1 0x40 DUP3 ADD MSTORE PUSH1 0x60 ADD SWAP1 JUMP JUMPDEST PUSH4 0x4E487B71 PUSH1 0xE0 SHL PUSH1 0x0 MSTORE PUSH1 0x21 PUSH1 0x4 MSTORE PUSH1 0x24 PUSH1 0x0 REVERT JUMPDEST PUSH1 0x20 DUP1 DUP3 MSTORE PUSH1 0x2 SWAP1 DUP3 ADD MSTORE PUSH2 0x1153 PUSH1 0xF2 SHL PUSH1 0x40 DUP3 ADD MSTORE PUSH1 0x60 ADD SWAP1 JUMP JUMPDEST DUP1 DUP3 MUL DUP2 ISZERO DUP3 DUP3 DIV DUP5 EQ OR PUSH2 0x1009 JUMPI PUSH2 0x1009 PUSH2 0x54DE JUMP JUMPDEST PUSH1 0x0 DUP3 PUSH2 0x5682 JUMPI PUSH4 0x4E487B71 PUSH1 0xE0 SHL PUSH1 0x0 MSTORE PUSH1 0x12 PUSH1 0x4 MSTORE PUSH1 0x24 PUSH1 0x0 REVERT JUMPDEST POP DIV SWAP1 JUMP JUMPDEST DUP2 DUP2 SUB DUP2 DUP2 GT ISZERO PUSH2 0x1009 JUMPI PUSH2 0x1009 PUSH2 0x54DE JUMP JUMPDEST PUSH1 0x0 PUSH1 0x20 DUP3 DUP5 SUB SLT ISZERO PUSH2 0x56AC JUMPI PUSH1 0x0 DUP1 REVERT JUMPDEST POP MLOAD SWAP2 SWAP1 POP JUMP JUMPDEST PUSH1 0x20 DUP1 DUP3 MSTORE PUSH1 0x2 SWAP1 DUP3 ADD MSTORE PUSH2 0x1255 PUSH1 0xF2 SHL PUSH1 0x40 DUP3 ADD MSTORE PUSH1 0x60 ADD SWAP1 JUMP JUMPDEST PUSH1 0x0 PUSH1 0x20 DUP3 DUP5 SUB SLT ISZERO PUSH2 0x56E1 JUMPI PUSH1 0x0 DUP1 REVERT JUMPDEST DUP2 MLOAD PUSH2 0x1B40 DUP2 PUSH2 0x4F7B JUMP JUMPDEST PUSH1 0x20 DUP1 DUP3 MSTORE PUSH1 0x2 SWAP1 DUP3 ADD MSTORE PUSH2 0x1395 PUSH1 0xF2 SHL PUSH1 0x40 DUP3 ADD MSTORE PUSH1 0x60 ADD SWAP1 JUMP JUMPDEST PUSH1 0x3 DUP2 LT PUSH2 0xE03 JUMPI PUSH4 0x4E487B71 PUSH1 0xE0 SHL PUSH1 0x0 MSTORE PUSH1 0x21 PUSH1 0x4 MSTORE PUSH1 0x24 PUSH1 0x0 REVERT JUMPDEST PUSH1 0xC0 DUP2 ADD PUSH2 0x5733 DUP6 PUSH2 0x5708 JUMP JUMPDEST DUP5 DUP3 MSTORE DUP4 PUSH1 0x20 DUP4 ADD MSTORE DUP3 MLOAD PUSH1 0x40 DUP4 ADD MSTORE PUSH1 0x20 DUP4 ADD MLOAD PUSH1 0x60 DUP4 ADD MSTORE PUSH1 0x40 DUP4 ADD MLOAD PUSH1 0x1 DUP1 PUSH1 0xA0 SHL SUB DUP1 DUP3 AND PUSH1 0x80 DUP6 ADD MSTORE DUP1 PUSH1 0x60 DUP7 ADD MLOAD AND PUSH1 0xA0 DUP6 ADD MSTORE POP POP SWAP5 SWAP4 POP POP POP POP JUMP JUMPDEST PUSH1 0x60 DUP2 MSTORE PUSH1 0x2 PUSH1 0x60 DUP3 ADD MSTORE PUSH2 0x1911 PUSH1 0xF2 SHL PUSH1 0x80 DUP3 ADD MSTORE PUSH1 0xA0 PUSH1 0x20 DUP3 ADD MSTORE PUSH1 0x0 PUSH2 0x55CD PUSH1 0xA0 DUP4 ADD DUP6 PUSH2 0x5547 JUMP JUMPDEST PUSH1 0x40 DUP2 MSTORE PUSH1 0x0 PUSH2 0x57B6 PUSH1 0x40 DUP4 ADD DUP6 PUSH2 0x5547 JUMP JUMPDEST SWAP1 POP PUSH1 0x1 DUP1 PUSH1 0xA0 SHL SUB DUP4 AND PUSH1 0x20 DUP4 ADD MSTORE SWAP4 SWAP3 POP POP POP JUMP JUMPDEST PUSH1 0x60 DUP2 MSTORE PUSH1 0x2 PUSH1 0x60 DUP3 ADD MSTORE PUSH2 0x31A1 PUSH1 0xF1 SHL PUSH1 0x80 DUP3 ADD MSTORE PUSH1 0xA0 PUSH1 0x20 DUP3 ADD MSTORE PUSH1 0x0 PUSH2 0x55CD PUSH1 0xA0 DUP4 ADD DUP6 PUSH2 0x5547 JUMP JUMPDEST PUSH1 0x60 DUP2 MSTORE PUSH1 0x3 PUSH1 0x60 DUP3 ADD MSTORE PUSH3 0x724241 PUSH1 0xE8 SHL PUSH1 0x80 DUP3 ADD MSTORE PUSH1 0xA0 PUSH1 0x20 DUP3 ADD MSTORE PUSH1 0x0 PUSH2 0x55CD PUSH1 0xA0 DUP4 ADD DUP6 PUSH2 0x5547 JUMP JUMPDEST PUSH1 0x60 DUP2 MSTORE PUSH1 0x2 PUSH1 0x60 DUP3 ADD MSTORE PUSH2 0x34A9 PUSH1 0xF1 SHL PUSH1 0x80 DUP3 ADD MSTORE PUSH1 0xA0 PUSH1 0x20 DUP3 ADD MSTORE PUSH1 0x0 PUSH2 0x55CD PUSH1 0xA0 DUP4 ADD DUP6 PUSH2 0x5547 JUMP JUMPDEST PUSH1 0x0 PUSH1 0x1 DUP3 ADD PUSH2 0x5864 JUMPI PUSH2 0x5864 PUSH2 0x54DE JUMP JUMPDEST POP PUSH1 0x1 ADD SWAP1 JUMP JUMPDEST PUSH1 0x20 DUP2 MSTORE PUSH1 0x0 PUSH2 0x1B40 PUSH1 0x20 DUP4 ADD DUP5 PUSH2 0x5547 JUMP JUMPDEST PUSH1 0x60 DUP2 MSTORE PUSH1 0x2 PUSH1 0x60 DUP3 ADD MSTORE PUSH2 0x3221 PUSH1 0xF1 SHL PUSH1 0x80 DUP3 ADD MSTORE PUSH1 0xA0 PUSH1 0x20 DUP3 ADD MSTORE PUSH1 0x0 PUSH2 0x55CD PUSH1 0xA0 DUP4 ADD DUP6 PUSH2 0x5547 JUMP JUMPDEST PUSH1 0x60 DUP2 MSTORE PUSH1 0x2 PUSH1 0x60 DUP3 ADD MSTORE PUSH2 0x6953 PUSH1 0xF0 SHL PUSH1 0x80 DUP3 ADD MSTORE PUSH1 0xA0 PUSH1 0x20 DUP3 ADD MSTORE PUSH1 0x0 PUSH2 0x55CD PUSH1 0xA0 DUP4 ADD DUP6 PUSH2 0x5547 JUMP JUMPDEST PUSH4 0x4E487B71 PUSH1 0xE0 SHL PUSH1 0x0 MSTORE PUSH1 0x32 PUSH1 0x4 MSTORE PUSH1 0x24 PUSH1 0x0 REVERT JUMPDEST PUSH1 0x1 DUP2 DUP2 SHR SWAP1 DUP3 AND DUP1 PUSH2 0x5900 JUMPI PUSH1 0x7F DUP3 AND SWAP2 POP JUMPDEST PUSH1 0x20 DUP3 LT DUP2 SUB PUSH2 0x5920 JUMPI PUSH4 0x4E487B71 PUSH1 0xE0 SHL PUSH1 0x0 MSTORE PUSH1 0x22 PUSH1 0x4 MSTORE PUSH1 0x24 PUSH1 0x0 REVERT JUMPDEST POP SWAP2 SWAP1 POP JUMP JUMPDEST PUSH1 0x0 PUSH2 0x5934 PUSH2 0x4E9E DUP5 PUSH2 0x4E69 JUMP JUMPDEST SWAP1 POP DUP3 DUP2 MSTORE DUP4 DUP4 DUP4 ADD GT ISZERO PUSH2 0x5948 JUMPI PUSH1 0x0 DUP1 REVERT JUMPDEST PUSH2 0x1B40 DUP4 PUSH1 0x20 DUP4 ADD DUP5 PUSH2 0x5507 JUMP JUMPDEST PUSH1 0x0 DUP3 PUSH1 0x1F DUP4 ADD SLT PUSH2 0x5967 JUMPI PUSH1 0x0 DUP1 REVERT JUMPDEST PUSH2 0x1B40 DUP4 DUP4 MLOAD PUSH1 0x20 DUP6 ADD PUSH2 0x5926 JUMP JUMPDEST PUSH1 0x0 DUP3 PUSH1 0x1F DUP4 ADD SLT PUSH2 0x5987 JUMPI PUSH1 0x0 DUP1 REVERT JUMPDEST DUP2 MLOAD PUSH1 0x20 PUSH2 0x5997 PUSH2 0x4E9E DUP4 PUSH2 0x4FE4 JUMP JUMPDEST DUP3 DUP2 MSTORE PUSH1 0x5 SWAP3 SWAP1 SWAP3 SHL DUP5 ADD DUP2 ADD SWAP2 DUP2 DUP2 ADD SWAP1 DUP7 DUP5 GT ISZERO PUSH2 0x59B6 JUMPI PUSH1 0x0 DUP1 REVERT JUMPDEST DUP3 DUP7 ADD JUMPDEST DUP5 DUP2 LT ISZERO PUSH2 0x509B JUMPI DUP1 MLOAD PUSH1 0x1 PUSH1 0x1 PUSH1 0x40 SHL SUB DUP2 GT ISZERO PUSH2 0x59D9 JUMPI PUSH1 0x0 DUP1 DUP2 REVERT JUMPDEST DUP8 ADD PUSH1 0x3F DUP2 ADD DUP10 SGT PUSH2 0x59EB JUMPI PUSH1 0x0 DUP1 DUP2 REVERT JUMPDEST PUSH2 0x59FC DUP10 DUP7 DUP4 ADD MLOAD PUSH1 0x40 DUP5 ADD PUSH2 0x5926 JUMP JUMPDEST DUP5 MSTORE POP SWAP2 DUP4 ADD SWAP2 DUP4 ADD PUSH2 0x59BA JUMP JUMPDEST PUSH1 0x0 DUP1 PUSH1 0x40 DUP4 DUP6 SUB SLT ISZERO PUSH2 0x5A1D JUMPI PUSH1 0x0 DUP1 REVERT JUMPDEST DUP3 MLOAD PUSH1 0x1 PUSH1 0x1 PUSH1 0x40 SHL SUB DUP1 DUP3 GT ISZERO PUSH2 0x5A34 JUMPI PUSH1 0x0 DUP1 REVERT JUMPDEST DUP2 DUP6 ADD SWAP2 POP DUP6 PUSH1 0x1F DUP4 ADD SLT PUSH2 0x5A48 JUMPI PUSH1 0x0 DUP1 REVERT JUMPDEST DUP2 MLOAD PUSH1 0x20 PUSH2 0x5A58 PUSH2 0x4E9E DUP4 PUSH2 0x4FE4 JUMP JUMPDEST DUP3 DUP2 MSTORE PUSH1 0x5 SWAP3 SWAP1 SWAP3 SHL DUP5 ADD DUP2 ADD SWAP2 DUP2 DUP2 ADD SWAP1 DUP10 DUP5 GT ISZERO PUSH2 0x5A77 JUMPI PUSH1 0x0 DUP1 REVERT JUMPDEST DUP3 DUP7 ADD JUMPDEST DUP5 DUP2 LT ISZERO PUSH2 0x5AAF JUMPI DUP1 MLOAD DUP7 DUP2 GT ISZERO PUSH2 0x5A93 JUMPI PUSH1 0x0 DUP1 DUP2 REVERT JUMPDEST PUSH2 0x5AA1 DUP13 DUP7 DUP4 DUP12 ADD ADD PUSH2 0x5956 JUMP JUMPDEST DUP5 MSTORE POP SWAP2 DUP4 ADD SWAP2 DUP4 ADD PUSH2 0x5A7B JUMP JUMPDEST POP SWAP2 DUP9 ADD MLOAD SWAP2 SWAP7 POP SWAP1 SWAP4 POP POP POP DUP1 DUP3 GT ISZERO PUSH2 0x5AC9 JUMPI PUSH1 0x0 DUP1 REVERT JUMPDEST POP PUSH2 0x516F DUP6 DUP3 DUP7 ADD PUSH2 0x5976 JUMP JUMPDEST PUSH1 0x0 DUP1 PUSH1 0x0 PUSH1 0x60 DUP5 DUP7 SUB SLT ISZERO PUSH2 0x5AEB JUMPI PUSH1 0x0 DUP1 REVERT JUMPDEST DUP4 MLOAD PUSH1 0x1 PUSH1 0x1 PUSH1 0x40 SHL SUB DUP2 GT ISZERO PUSH2 0x5B01 JUMPI PUSH1 0x0 DUP1 REVERT JUMPDEST PUSH2 0x5B0D DUP7 DUP3 DUP8 ADD PUSH2 0x5956 JUMP JUMPDEST SWAP4 POP POP PUSH1 0x20 DUP5 ADD MLOAD PUSH2 0x5B1E DUP2 PUSH2 0x5406 JUMP JUMPDEST PUSH1 0x40 DUP6 ADD MLOAD SWAP1 SWAP3 POP PUSH2 0x4FB7 DUP2 PUSH2 0x4DF1 JUMP JUMPDEST PUSH1 0x0 DUP1 PUSH1 0x0 DUP1 PUSH1 0x0 PUSH1 0xA0 DUP7 DUP9 SUB SLT ISZERO PUSH2 0x5B47 JUMPI PUSH1 0x0 DUP1 REVERT JUMPDEST DUP6 MLOAD PUSH1 0x1 PUSH1 0x1 PUSH1 0x40 SHL SUB DUP1 DUP3 GT ISZERO PUSH2 0x5B5E JUMPI PUSH1 0x0 DUP1 REVERT JUMPDEST PUSH2 0x5B6A DUP10 DUP4 DUP11 ADD PUSH2 0x5956 JUMP JUMPDEST SWAP7 POP PUSH1 0x20 DUP9 ADD MLOAD SWAP2 POP PUSH2 0x5B7C DUP3 PUSH2 0x4DF1 JUMP JUMPDEST PUSH1 0x40 DUP9 ADD MLOAD PUSH1 0x60 DUP10 ADD MLOAD SWAP3 SWAP7 POP SWAP5 POP PUSH2 0x5B94 DUP3 PUSH2 0x4DF1 JUMP JUMPDEST PUSH1 0x80 DUP9 ADD MLOAD SWAP2 SWAP4 POP DUP1 DUP3 GT ISZERO PUSH2 0x5BA9 JUMPI PUSH1 0x0 DUP1 REVERT JUMPDEST POP PUSH2 0x52CA DUP9 DUP3 DUP10 ADD PUSH2 0x5956 JUMP JUMPDEST PUSH1 0x0 DUP1 PUSH1 0x0 DUP1 PUSH1 0x80 DUP6 DUP8 SUB SLT ISZERO PUSH2 0x5BCC JUMPI PUSH1 0x0 DUP1 REVERT JUMPDEST DUP5 MLOAD PUSH1 0x1 PUSH1 0x1 PUSH1 0x40 SHL SUB DUP1 DUP3 GT ISZERO PUSH2 0x5BE3 JUMPI PUSH1 0x0 DUP1 REVERT JUMPDEST PUSH2 0x5BEF DUP9 DUP4 DUP10 ADD PUSH2 0x5956 JUMP JUMPDEST SWAP6 POP PUSH1 0x20 DUP8 ADD MLOAD SWAP2 POP DUP1 DUP3 GT ISZERO PUSH2 0x5C05 JUMPI PUSH1 0x0 DUP1 REVERT JUMPDEST POP PUSH2 0x5C12 DUP8 DUP3 DUP9 ADD PUSH2 0x5956 JUMP JUMPDEST SWAP4 POP POP PUSH1 0x40 DUP6 ADD MLOAD PUSH2 0x5C23 DUP2 PUSH2 0x4DF1 JUMP JUMPDEST PUSH1 0x60 SWAP6 SWAP1 SWAP6 ADD MLOAD SWAP4 SWAP7 SWAP3 SWAP6 POP POP POP JUMP JUMPDEST PUSH1 0x0 DUP1 PUSH1 0x0 PUSH1 0x60 DUP5 DUP7 SUB SLT ISZERO PUSH2 0x5C48 JUMPI PUSH1 0x0 DUP1 REVERT JUMPDEST DUP4 MLOAD PUSH1 0x1 PUSH1 0x1 PUSH1 0x40 SHL SUB DUP2 GT ISZERO PUSH2 0x5C5E JUMPI PUSH1 0x0 DUP1 REVERT JUMPDEST PUSH2 0x5C6A DUP7 DUP3 DUP8 ADD PUSH2 0x5956 JUMP JUMPDEST SWAP4 POP POP PUSH1 0x20 DUP5 ADD MLOAD PUSH2 0x5C7B DUP2 PUSH2 0x4DF1 JUMP JUMPDEST DUP1 SWAP3 POP POP PUSH1 0x40 DUP5 ADD MLOAD SWAP1 POP SWAP3 POP SWAP3 POP SWAP3 JUMP JUMPDEST PUSH1 0x0 DUP1 PUSH1 0x0 DUP1 PUSH1 0x80 DUP6 DUP8 SUB SLT ISZERO PUSH2 0x5CA3 JUMPI PUSH1 0x0 DUP1 REVERT JUMPDEST DUP5 MLOAD SWAP4 POP PUSH1 0x20 DUP6 ADD MLOAD PUSH2 0x5CB5 DUP2 PUSH2 0x4DF1 JUMP JUMPDEST PUSH1 0x40 DUP7 ADD MLOAD PUSH1 0x60 DUP8 ADD MLOAD SWAP2 SWAP5 POP SWAP3 POP PUSH2 0x51B8 DUP2 PUSH2 0x4DF1 JUMP JUMPDEST PUSH1 0x0 DUP1 PUSH1 0x40 DUP4 DUP6 SUB SLT ISZERO PUSH2 0x5CE0 JUMPI PUSH1 0x0 DUP1 REVERT JUMPDEST DUP3 MLOAD PUSH1 0x1 PUSH1 0x1 PUSH1 0x40 SHL SUB DUP2 GT ISZERO PUSH2 0x5CF6 JUMPI PUSH1 0x0 DUP1 REVERT JUMPDEST PUSH2 0x5D02 DUP6 DUP3 DUP7 ADD PUSH2 0x5956 JUMP JUMPDEST SWAP3 POP POP PUSH1 0x20 DUP4 ADD MLOAD PUSH2 0x4F70 DUP2 PUSH2 0x4DF1 JUMP JUMPDEST PUSH1 0x0 PUSH1 0x20 DUP3 DUP5 SUB SLT ISZERO PUSH2 0x5D25 JUMPI PUSH1 0x0 DUP1 REVERT JUMPDEST DUP2 MLOAD PUSH1 0x1 PUSH1 0x1 PUSH1 0x40 SHL SUB DUP2 GT ISZERO PUSH2 0x5D3B JUMPI PUSH1 0x0 DUP1 REVERT JUMPDEST PUSH2 0x4F22 DUP5 DUP3 DUP6 ADD PUSH2 0x5956 JUMP JUMPDEST PUSH1 0x0 PUSH1 0x20 DUP3 DUP5 SUB SLT ISZERO PUSH2 0x5D59 JUMPI PUSH1 0x0 DUP1 REVERT JUMPDEST DUP2 MLOAD PUSH2 0x1B40 DUP2 PUSH2 0x4DF1 JUMP JUMPDEST PUSH1 0x60 DUP2 MSTORE PUSH1 0x2 PUSH1 0x60 DUP3 ADD MSTORE PUSH2 0x695 PUSH1 0xF4 SHL PUSH1 0x80 DUP3 ADD MSTORE PUSH1 0xA0 PUSH1 0x20 DUP3 ADD MSTORE PUSH1 0x0 PUSH2 0x55CD PUSH1 0xA0 DUP4 ADD DUP6 PUSH2 0x5547 JUMP JUMPDEST DUP5 DUP2 MSTORE PUSH1 0x80 PUSH1 0x20 DUP3 ADD MSTORE PUSH1 0x0 PUSH2 0x5DA9 PUSH1 0x80 DUP4 ADD DUP7 PUSH2 0x5547 JUMP JUMPDEST PUSH1 0x1 PUSH1 0x1 PUSH1 0xA0 SHL SUB SWAP5 SWAP1 SWAP5 AND PUSH1 0x40 DUP4 ADD MSTORE POP PUSH1 0x60 ADD MSTORE SWAP3 SWAP2 POP POP JUMP JUMPDEST PUSH1 0x60 DUP2 MSTORE PUSH1 0x2 PUSH1 0x60 DUP3 ADD MSTORE PUSH2 0x1A51 PUSH1 0xF2 SHL PUSH1 0x80 DUP3 ADD MSTORE PUSH1 0xA0 PUSH1 0x20 DUP3 ADD MSTORE PUSH1 0x0 PUSH2 0x55CD PUSH1 0xA0 DUP4 ADD DUP6 PUSH2 0x5547 JUMP JUMPDEST PUSH1 0x60 DUP2 MSTORE PUSH1 0x3 PUSH1 0x60 DUP3 ADD MSTORE PUSH3 0x755441 PUSH1 0xE8 SHL PUSH1 0x80 DUP3 ADD MSTORE PUSH1 0xA0 PUSH1 0x20 DUP3 ADD MSTORE PUSH1 0x0 PUSH2 0x55CD PUSH1 0xA0 DUP4 ADD DUP6 PUSH2 0x5547 JUMP JUMPDEST PUSH1 0x60 DUP2 MSTORE PUSH1 0x3 PUSH1 0x60 DUP3 ADD MSTORE PUSH3 0x725441 PUSH1 0xE8 SHL PUSH1 0x80 DUP3 ADD MSTORE PUSH1 0xA0 PUSH1 0x20 DUP3 ADD MSTORE PUSH1 0x0 PUSH2 0x55CD PUSH1 0xA0 DUP4 ADD DUP6 PUSH2 0x5547 JUMP JUMPDEST PUSH1 0x80 DUP2 MSTORE PUSH1 0x0 PUSH2 0x5E5E PUSH1 0x80 DUP4 ADD DUP8 PUSH2 0x5547 JUMP JUMPDEST DUP3 DUP2 SUB PUSH1 0x20 DUP5 ADD MSTORE PUSH2 0x5E70 DUP2 DUP8 PUSH2 0x5547 JUMP JUMPDEST PUSH1 0x1 PUSH1 0x1 PUSH1 0xA0 SHL SUB SWAP6 SWAP1 SWAP6 AND PUSH1 0x40 DUP5 ADD MSTORE POP POP PUSH1 0x60 ADD MSTORE SWAP3 SWAP2 POP POP JUMP JUMPDEST PUSH1 0x60 DUP2 MSTORE PUSH1 0x2 PUSH1 0x60 DUP3 ADD MSTORE PUSH2 0x1B55 PUSH1 0xF2 SHL PUSH1 0x80 DUP3 ADD MSTORE PUSH1 0xA0 PUSH1 0x20 DUP3 ADD MSTORE PUSH1 0x0 PUSH2 0x55CD PUSH1 0xA0 DUP4 ADD DUP6 PUSH2 0x5547 JUMP JUMPDEST PUSH1 0x60 DUP2 MSTORE PUSH1 0x3 PUSH1 0x60 DUP3 ADD MSTORE PUSH3 0x614241 PUSH1 0xE8 SHL PUSH1 0x80 DUP3 ADD MSTORE PUSH1 0xA0 PUSH1 0x20 DUP3 ADD MSTORE PUSH1 0x0 PUSH2 0x55CD PUSH1 0xA0 DUP4 ADD DUP6 PUSH2 0x5547 JUMP JUMPDEST PUSH1 0xC0 DUP2 ADD PUSH2 0x5EF3 DUP6 PUSH2 0x5708 JUMP JUMPDEST SWAP4 DUP2 MSTORE PUSH1 0x20 DUP2 ADD SWAP3 SWAP1 SWAP3 MSTORE DUP1 SLOAD PUSH1 0x40 DUP4 ADD MSTORE PUSH1 0x1 DUP2 ADD SLOAD PUSH1 0x60 DUP4 ADD MSTORE PUSH1 0x2 DUP2 ADD SLOAD PUSH1 0x1 PUSH1 0x1 PUSH1 0xA0 SHL SUB SWAP1 DUP2 AND PUSH1 0x80 DUP5 ADD MSTORE PUSH1 0x3 SWAP1 SWAP2 ADD SLOAD AND PUSH1 0xA0 SWAP1 SWAP2 ADD MSTORE SWAP1 JUMP JUMPDEST PUSH1 0x60 DUP2 MSTORE PUSH1 0x0 PUSH2 0x5F47 PUSH1 0x60 DUP4 ADD DUP7 PUSH2 0x5547 JUMP JUMPDEST PUSH1 0x1 PUSH1 0x1 PUSH1 0xA0 SHL SUB DUP6 AND PUSH1 0x20 DUP5 ADD MSTORE SWAP1 POP PUSH2 0x5F61 DUP4 PUSH2 0x5708 JUMP JUMPDEST DUP3 PUSH1 0x40 DUP4 ADD MSTORE SWAP5 SWAP4 POP POP POP POP JUMP JUMPDEST PUSH1 0x60 DUP2 MSTORE PUSH1 0x2 PUSH1 0x60 DUP3 ADD MSTORE PUSH2 0x735 PUSH1 0xF4 SHL PUSH1 0x80 DUP3 ADD MSTORE PUSH1 0xA0 PUSH1 0x20 DUP3 ADD MSTORE PUSH1 0x0 PUSH2 0x55CD PUSH1 0xA0 DUP4 ADD DUP6 PUSH2 0x5547 JUMP JUMPDEST PUSH1 0xA0 DUP2 MSTORE PUSH1 0x0 PUSH2 0x5FAE PUSH1 0xA0 DUP4 ADD DUP9 PUSH2 0x5547 JUMP JUMPDEST PUSH1 0x1 PUSH1 0x1 PUSH1 0xA0 SHL SUB DUP8 DUP2 AND PUSH1 0x20 DUP6 ADD MSTORE PUSH1 0x40 DUP5 ADD DUP8 SWAP1 MSTORE DUP6 AND PUSH1 0x60 DUP5 ADD MSTORE DUP3 DUP2 SUB PUSH1 0x80 DUP5 ADD MSTORE PUSH2 0x5FDE DUP2 DUP6 PUSH2 0x5547 JUMP JUMPDEST SWAP9 SWAP8 POP POP POP POP POP POP POP POP JUMP JUMPDEST PUSH1 0x60 DUP2 MSTORE PUSH1 0x2 PUSH1 0x60 DUP3 ADD MSTORE PUSH2 0x1D15 PUSH1 0xF2 SHL PUSH1 0x80 DUP3 ADD MSTORE PUSH1 0xA0 PUSH1 0x20 DUP3 ADD MSTORE PUSH1 0x0 PUSH2 0x55CD PUSH1 0xA0 DUP4 ADD DUP6 PUSH2 0x5547 JUMP JUMPDEST PUSH1 0x1F DUP3 GT ISZERO PUSH2 0xED7 JUMPI PUSH1 0x0 DUP2 DUP2 MSTORE PUSH1 0x20 DUP2 KECCAK256 PUSH1 0x1F DUP6 ADD PUSH1 0x5 SHR DUP2 ADD PUSH1 0x20 DUP7 LT ISZERO PUSH2 0x603D JUMPI POP DUP1 JUMPDEST PUSH1 0x1F DUP6 ADD PUSH1 0x5 SHR DUP3 ADD SWAP2 POP JUMPDEST DUP2 DUP2 LT ISZERO PUSH2 0x1323 JUMPI DUP3 DUP2 SSTORE PUSH1 0x1 ADD PUSH2 0x6049 JUMP JUMPDEST DUP2 MLOAD PUSH1 0x1 PUSH1 0x1 PUSH1 0x40 SHL SUB DUP2 GT ISZERO PUSH2 0x6075 JUMPI PUSH2 0x6075 PUSH2 0x4E23 JUMP JUMPDEST PUSH2 0x6089 DUP2 PUSH2 0x6083 DUP5 SLOAD PUSH2 0x58EC JUMP JUMPDEST DUP5 PUSH2 0x6016 JUMP JUMPDEST PUSH1 0x20 DUP1 PUSH1 0x1F DUP4 GT PUSH1 0x1 DUP2 EQ PUSH2 0x60BE JUMPI PUSH1 0x0 DUP5 ISZERO PUSH2 0x60A6 JUMPI POP DUP6 DUP4 ADD MLOAD JUMPDEST PUSH1 0x0 NOT PUSH1 0x3 DUP7 SWAP1 SHL SHR NOT AND PUSH1 0x1 DUP6 SWAP1 SHL OR DUP6 SSTORE PUSH2 0x1323 JUMP JUMPDEST PUSH1 0x0 DUP6 DUP2 MSTORE PUSH1 0x20 DUP2 KECCAK256 PUSH1 0x1F NOT DUP7 AND SWAP2 JUMPDEST DUP3 DUP2 LT ISZERO PUSH2 0x60ED JUMPI DUP9 DUP7 ADD MLOAD DUP3 SSTORE SWAP5 DUP5 ADD SWAP5 PUSH1 0x1 SWAP1 SWAP2 ADD SWAP1 DUP5 ADD PUSH2 0x60CE JUMP JUMPDEST POP DUP6 DUP3 LT ISZERO PUSH2 0x610B JUMPI DUP8 DUP6 ADD MLOAD PUSH1 0x0 NOT PUSH1 0x3 DUP9 SWAP1 SHL PUSH1 0xF8 AND SHR NOT AND DUP2 SSTORE JUMPDEST POP POP POP POP POP PUSH1 0x1 SWAP1 DUP2 SHL ADD SWAP1 SSTORE POP JUMP INVALID NUMBER 0xCD PUSH23 0xB5EB40DA9EA5EB31A199F443F7CF7955EC280BC5981A2E CALLVALUE GASLIMIT 0xC7 SWAP13 SWAP1 SSTORE LOG2 PUSH5 0x6970667358 0x22 SLT KECCAK256 GAS EXTCODEHASH SWAP5 CALLDATALOAD 0xC2 BLOCKHASH 0xFB 0xD4 DUP8 RETURNDATACOPY NUMBER INVALID 0xD9 0xDA ADDMOD 0xD4 0xCD 0xB2 0x24 AND EXTCODEHASH DIFFICULTY PUSH27 0xA22FBEC1B9F90F20C664736F6C6343000813003300000000000000 ",
  "sha1": "c0c906c645b3561b3b6899b53a5b6548e93df861",
  "source": "// SPDX-License-Identifier: GPL-3.0-or-later\n\npragma solidity ^0.8.4;\n\nimport \"./administrable.sol\";\n\n/// @title A fractional DAO-like contract whose decisions can be voted upon by its shareholders\n/// @author Frederik W. L. Christoffersen\n/// @notice This contract is used as a votable administerable business entity.\n/// @custom:beaware This is a commercial contract.\ncontract Votable is Administrable {\n\n    /// @notice Struct representing info of a Referendum.\n    /// @param issuer The issuer of the Referendum.\n    /// @param proposalFuncs Names of functions to be called during implementation.\n    /// @param proposalArgs The encoded parameters passed to the function calls as part of the implementation of the proposals.\n    struct ReferendumInfo {\n        address issuer;\n        string[] proposalFuncs;\n        bytes[] proposalArgs;\n    }\n\n    /// @notice Mapping pointing to dynamic info of a Referendum given a unique Referendum instance.\n    mapping(uint256 => ReferendumInfo) public infoByReferendum;\n\n    /// @notice Mapping pointing to amount of favor votes on given Referendum.\n    mapping(uint256 => uint256) favorAmountByReferendum;\n\n    /// @notice Mapping pointing to amount of total votes on given Referendum.\n    mapping(uint256 => uint256) totalAmountByReferendum;\n\n    /// @notice Mapping pointing to amount proposals implemented of a given Referendum.\n    mapping(uint256 => uint256) amountImplementedByReferendum;\n\n    /// @notice Mapping pointing to a boolean stating if the holder of a given Shard has voted on the given Referendum.\n    mapping(uint256 => mapping(bytes32 => bool)) hasVotedOnReferendum;\n\n    /// @notice Mapping pointing to a boolean stating if a given Referendum is pending.\n    mapping(uint256 => bool) pendingReferendums;\n\n    /// @notice Mapping pointing to a boolean stating if a given Referendum is to be implemented.\n    mapping(uint256 => bool) passedReferendums;\n\n    /// @notice Event that triggers when a Referendum is closed.\n    /// @param referendum The passed Referendum that was closed.\n    event ReferendumClosed(\n        uint256 referendum\n        );\n\n    /// @notice Event that triggers when a whole Referendum has been implemented.\n    /// @param referendum The passed Referendum that was implemented.\n    event ReferendumImplemented(\n        uint256 referendum\n        );\n\n    /// @notice Event that triggers when a vote is cast on a Referendum.\n    /// @param referendumClock The clock tied to the referendum that was voted on.\n    /// @param favor The boolean value signalling a FOR or AGAINST vote.\n    /// @param by The voter.\n    event VoteCast(\n        uint256 referendumClock,\n        bool favor,\n        address by\n        );\n\n    /// @notice Modifier that makes sure a given Referendum is pending.\n    /// @param referendum The Referendum to be checked for.\n    modifier onlyPendingReferendum(uint256 referendum) {\n        require(referendumIsPending(referendum), \"RNP\");\n        _;\n    }\n\n    constructor(uint256 amount) Administrable(amount) {\n        _setPermit(\"iR\",msg.sender,PermitState.administrator);\n        _setPermit(\"iP\",msg.sender,PermitState.administrator);\n    }\n\n    /// @notice Votes on a existing referendum, with a fraction corresponding to the shard of the holder.\n    /// @param shard The Shard to vote with.\n    /// @param referendum The referendum to be voted on.\n    /// @param favor The boolean value signalling a FOR or AGAINST vote.\n    function vote(bytes32 shard, uint256 referendum, bool favor) external onlyHolder(shard) onlyPendingReferendum(referendum) onlyIfActive {\n        require(!hasVoted(referendum, msg.sender));\n        require(shardExisted(shard,referendum), \"SNV\");\n        hasVotedOnReferendum[referendum][shard] = true;\n        if (favor) {\n            favorAmountByReferendum[referendum] += infoByShard[shard].amount;\n        }\n        totalAmountByReferendum[referendum] += infoByShard[shard].amount;\n        \n        emit VoteCast(referendum, favor, msg.sender);\n        bool passed = getReferendumResult(referendum);\n        if (passed || totalAmountByReferendum[referendum] == totalShardAmountByClock[referendum] ) {\n\n            pendingReferendums[referendum] = false;\n            if (passed) { // if it got voted through\n                passedReferendums[referendum] = true;\n            }\n            emit ReferendumClosed(referendum);\n        }\n    }\n\n    /// @notice The potential errors of the Proposals aren't checked for before implementation!!!\n    /// @param proposalFuncs The names of the functions to be called as a result of the implementation of the proposals.\n    /// @param proposalArgs The encoded parameters passed to the function calls as part of the implementation of the proposals.\n    function issueReferendum(string[] memory proposalFuncs, bytes[] memory proposalArgs) external onlyWithPermit(\"iR\") {\n        _issueReferendum(proposalFuncs,proposalArgs);\n    }\n\n    /// @notice Implements a given Proposal, within a given passed Referendum.\n    /// @param referendum The passed Referendum containing the Proposal.\n    /// @param proposalIndex The index of the proposal to be implemented.\n    function implementProposal(uint256 referendum, uint256 proposalIndex) external onlyWithPermit(\"iP\") {\n        _implementProposal(referendum,proposalIndex);\n    }\n\n    /// @notice Returns a boolean stating if a given Shard Holder has voted on a given Referendum.\n    /// @param referendum The Referendum to be checked for.\n    /// @param account The address of the potential Shard Holder voter to be checked for.\n    function hasVoted(uint256 referendum, address account) public view returns(bool) {\n        return hasVotedOnReferendum[referendum][shardByOwner[account]];\n    }\n\n    /// @notice Returns a boolean stating if a given Referendum has been voted through (>=50% FAVOR) or not.\n    /// @param referendum The Referendum to be checked for.\n    function getReferendumResult(uint256 referendum) public view returns(bool) {\n        // if forFraction is bigger than 50%, then the vote is FOR\n        if ((favorAmountByReferendum[referendum] / totalShardAmountByClock[referendum]) * 2 > 1) {\n            return true;\n        }\n        return false;\n    }\n    \n    /// @notice Returns a boolean stating if a given Referendum is pending or not.\n    /// @param referendum The Referendum to be checked for.\n    function referendumIsPending(uint256 referendum) public view returns(bool) {\n        return pendingReferendums[referendum]; \n    }\n\n    /// @notice Returns a boolean stating if a given Referendum is passed or not.\n    /// @param referendum The Referendum to be checked for.\n    function referendumIsPassed(uint256 referendum) public view returns(bool) {\n        return passedReferendums[referendum]; \n    }\n\n    /// @notice Returns a boolean stating if a given Referendum is implemented or not.\n    /// @param referendum The Referendum to be checked for.\n    function referendumIsImplemented(uint256 referendum) public view returns(bool) {\n        return amountImplementedByReferendum[referendum] == infoByReferendum[referendum].proposalFuncs.length; \n    }\n\n    /// @notice Returns a boolean stating if a given Proposal exists within a given Referendum.\n    /// @param referendum The Referendum to be checked for.\n    /// @param proposalIndex The index of the proposal to be checked for.\n    function proposalExists(uint256 referendum, uint256 proposalIndex) public view returns(bool) {\n        return infoByReferendum[referendum].proposalFuncs.length > proposalIndex;\n    }\n\n    /// @notice The potential errors of the Proposals aren't checked for before implementation!!!\n    /// @param proposalFuncs The names of the functions to be called as a result of the implementation of the proposals.\n    /// @param proposalArgs The encoded parameters passed to the function calls as part of the implementation of the proposals.\n    function _issueReferendum(string[] memory proposalFuncs, bytes[] memory proposalArgs) internal onlyIfActive incrementClock {\n        require(proposalFuncs.length == proposalArgs.length, \"PCW\");\n        pendingReferendums[clock] = true;\n        infoByReferendum[clock] = ReferendumInfo({\n            issuer: msg.sender,\n            proposalFuncs: proposalFuncs,\n            proposalArgs: proposalArgs\n            });\n        emit ActionTaken(\"iR\",abi.encode(clock),msg.sender);\n    }\n\n    /// @notice Implements a given Proposal, within a given passed Referendum.\n    /// @param referendum The passed Referendum containing the Proposal.\n    /// @param proposalIndex The index of the proposal to be implemented.\n    function _implementProposal(uint256 referendum, uint256 proposalIndex) internal onlyIfActive {\n        require(proposalExists(referendum,proposalIndex),\"PDE\");\n        require(amountImplementedByReferendum[referendum] == proposalIndex, \"WPO\");\n        amountImplementedByReferendum[referendum] += 1;\n        string memory proposalFunc = infoByReferendum[referendum].proposalFuncs[proposalIndex];\n        bytes memory proposalArgs = infoByReferendum[referendum].proposalArgs[proposalIndex];\n        bytes32 funcHash = keccak256(bytes(proposalFunc));\n                    if (funcHash == keccak256(bytes(\"iR\"))) {\n                        (string[] memory proposalFuncs, bytes[] memory _proposalArgs) = abi.decode(proposalArgs,(string[],bytes[]));\n                        _issueReferendum(proposalFuncs, _proposalArgs);\n                    }\n                    if (funcHash == keccak256(bytes(\"sP\"))) {\n                        (string memory permitName, PermitState newState, address account) = abi.decode(proposalArgs,(string,PermitState,address));\n                        _setPermit(permitName,account,newState);\n                    }\n                    if (funcHash == keccak256(bytes(\"tT\"))) {\n                        (string memory fromBankName, address tokenAddress, uint256 value, address to, string memory toBankName) = abi.decode(proposalArgs,(string,address,uint256,address,string));\n                        _transferTokenFromBank(fromBankName,tokenAddress,value,to, toBankName);\n                    }\n                    if (funcHash == keccak256(bytes(\"mT\"))) {\n                        (string memory fromBankName, string memory toBankName, address tokenAddress, uint256 value) = abi.decode(proposalArgs,(string,string,address,uint256));\n                        _moveToken(fromBankName,toBankName,tokenAddress,value);\n                    }\n                    if (funcHash == keccak256(bytes(\"iD\"))) {\n                        (string memory bankName, address tokenAddress, uint256 value) = abi.decode(proposalArgs,(string,address,uint256));\n                        _issueDividend(bankName,tokenAddress,value);\n                    }\n                    if (funcHash == keccak256(bytes(\"iS\"))) {\n                        (uint256 amount, address tokenAddress, uint256 price, address to) = abi.decode(proposalArgs,(uint256,address,uint256,address));\n                        _issueShards(amount,tokenAddress,price,to);\n                    }\n                    if (funcHash == keccak256(bytes(\"dD\"))) {\n                        (uint256 dividend) = abi.decode(proposalArgs,(uint256));\n                        _dissolveDividend(dividend);\n                    }\n                    if (funcHash == keccak256(bytes(\"cB\"))) {\n                        (string memory bankName, address bankAdmin) = abi.decode(proposalArgs, (string,address));\n                        _createBank(bankName,bankAdmin);\n                    }\n                    if (funcHash == keccak256(bytes(\"dB\"))) {\n                        (string memory bankName) = abi.decode(proposalArgs,(string));\n                        _deleteBank(bankName);\n                    }\n                    if (funcHash == keccak256(bytes(\"aBA\"))) {\n                        (string memory bankName, address bankAdmin) = abi.decode(proposalArgs,(string,address));\n                        _addBankAdmin(bankName,bankAdmin);\n                    }\n                    if (funcHash == keccak256(bytes(\"rBA\"))) {\n                        (string memory bankName, address bankAdmin) = abi.decode(proposalArgs,(string, address));\n                        _removeBankAdmin(bankName,bankAdmin);\n                    }\n                    if (funcHash == keccak256(bytes(\"rTA\"))) {\n                        (address tokenAddress) = abi.decode(proposalArgs,(address));\n                        _registerTokenAddress(tokenAddress);\n                    }\n                    if (funcHash == keccak256(bytes(\"uTA\"))) {\n                        (address tokenAddress) = abi.decode(proposalArgs,(address));\n                        _unregisterTokenAddress(tokenAddress);\n                    }\n                    if (funcHash == keccak256(bytes(\"lE\"))) {\n                        _liquidize();\n                    }\n                    else {\n                        revert(\"WF\");\n                    }\n                    emit ActionTaken(\"iP\",abi.encode(referendum,proposalIndex),msg.sender);\n\n        if (amountImplementedByReferendum[referendum] == infoByReferendum[referendum].proposalFuncs.length) {\n            emit ReferendumImplemented(referendum);\n        }\n    }\n}",
  "sourcePath": "contracts/votable.sol",
  "type": "contract"
}