{
  "abi": [
    {
      "inputs": [],
      "stateMutability": "nonpayable",
      "type": "constructor"
    },
    {
      "anonymous": false,
      "inputs": [
        {
          "indexed": false,
          "internalType": "string",
          "name": "func",
          "type": "string"
        },
        {
          "indexed": false,
          "internalType": "bytes",
          "name": "args",
          "type": "bytes"
        },
        {
          "indexed": false,
          "internalType": "address",
          "name": "by",
          "type": "address"
        }
      ],
      "name": "ActionTaken",
      "type": "event"
    },
    {
      "anonymous": false,
      "inputs": [
        {
          "indexed": false,
          "internalType": "address",
          "name": "tokenAddress",
          "type": "address"
        },
        {
          "indexed": false,
          "internalType": "uint256",
          "name": "value",
          "type": "uint256"
        },
        {
          "indexed": false,
          "internalType": "address",
          "name": "by",
          "type": "address"
        }
      ],
      "name": "LiquidClaimed",
      "type": "event"
    },
    {
      "anonymous": false,
      "inputs": [
        {
          "indexed": false,
          "internalType": "bytes32",
          "name": "shard",
          "type": "bytes32"
        },
        {
          "indexed": false,
          "internalType": "address",
          "name": "owner",
          "type": "address"
        },
        {
          "indexed": false,
          "internalType": "uint256",
          "name": "creationTime",
          "type": "uint256"
        }
      ],
      "name": "NewShard",
      "type": "event"
    },
    {
      "anonymous": false,
      "inputs": [
        {
          "indexed": false,
          "internalType": "bytes32",
          "name": "shard",
          "type": "bytes32"
        },
        {
          "indexed": false,
          "internalType": "uint256",
          "name": "numerator",
          "type": "uint256"
        },
        {
          "indexed": false,
          "internalType": "uint256",
          "name": "denominator",
          "type": "uint256"
        },
        {
          "indexed": false,
          "internalType": "address",
          "name": "tokenAddress",
          "type": "address"
        },
        {
          "indexed": false,
          "internalType": "uint256",
          "name": "price",
          "type": "uint256"
        },
        {
          "indexed": false,
          "internalType": "address",
          "name": "to",
          "type": "address"
        }
      ],
      "name": "PutForSale",
      "type": "event"
    },
    {
      "anonymous": false,
      "inputs": [
        {
          "indexed": false,
          "internalType": "uint256",
          "name": "referendum",
          "type": "uint256"
        }
      ],
      "name": "ReferendumClosed",
      "type": "event"
    },
    {
      "anonymous": false,
      "inputs": [
        {
          "indexed": false,
          "internalType": "uint256",
          "name": "referendum",
          "type": "uint256"
        }
      ],
      "name": "ReferendumImplemented",
      "type": "event"
    },
    {
      "anonymous": false,
      "inputs": [
        {
          "indexed": false,
          "internalType": "uint256",
          "name": "referendum",
          "type": "uint256"
        }
      ],
      "name": "ReferendumIssued",
      "type": "event"
    },
    {
      "anonymous": false,
      "inputs": [
        {
          "indexed": false,
          "internalType": "bytes32",
          "name": "shard",
          "type": "bytes32"
        },
        {
          "indexed": false,
          "internalType": "uint256",
          "name": "numerator",
          "type": "uint256"
        },
        {
          "indexed": false,
          "internalType": "uint256",
          "name": "denominator",
          "type": "uint256"
        },
        {
          "indexed": false,
          "internalType": "address",
          "name": "to",
          "type": "address"
        },
        {
          "indexed": false,
          "internalType": "address",
          "name": "tokenAddress",
          "type": "address"
        },
        {
          "indexed": false,
          "internalType": "uint256",
          "name": "price",
          "type": "uint256"
        }
      ],
      "name": "SaleSold",
      "type": "event"
    },
    {
      "anonymous": false,
      "inputs": [
        {
          "indexed": false,
          "internalType": "address",
          "name": "tokenAddress",
          "type": "address"
        },
        {
          "indexed": false,
          "internalType": "uint256",
          "name": "value",
          "type": "uint256"
        },
        {
          "indexed": false,
          "internalType": "address",
          "name": "from",
          "type": "address"
        }
      ],
      "name": "TokenReceived",
      "type": "event"
    },
    {
      "anonymous": false,
      "inputs": [
        {
          "indexed": false,
          "internalType": "uint256",
          "name": "referendum",
          "type": "uint256"
        },
        {
          "indexed": false,
          "internalType": "bool",
          "name": "favor",
          "type": "bool"
        },
        {
          "indexed": false,
          "internalType": "address",
          "name": "by",
          "type": "address"
        }
      ],
      "name": "VoteCast",
      "type": "event"
    },
    {
      "inputs": [
        {
          "internalType": "address",
          "name": "tokenAddress",
          "type": "address"
        }
      ],
      "name": "acceptsToken",
      "outputs": [
        {
          "internalType": "bool",
          "name": "",
          "type": "bool"
        }
      ],
      "stateMutability": "view",
      "type": "function"
    },
    {
      "inputs": [],
      "name": "active",
      "outputs": [
        {
          "internalType": "bool",
          "name": "",
          "type": "bool"
        }
      ],
      "stateMutability": "view",
      "type": "function"
    },
    {
      "inputs": [
        {
          "internalType": "string",
          "name": "bankName",
          "type": "string"
        },
        {
          "internalType": "address",
          "name": "bankAdmin",
          "type": "address"
        }
      ],
      "name": "addBankAdmin",
      "outputs": [],
      "stateMutability": "nonpayable",
      "type": "function"
    },
    {
      "inputs": [
        {
          "internalType": "string",
          "name": "bankName",
          "type": "string"
        }
      ],
      "name": "bankExists",
      "outputs": [
        {
          "internalType": "bool",
          "name": "",
          "type": "bool"
        }
      ],
      "stateMutability": "view",
      "type": "function"
    },
    {
      "inputs": [
        {
          "internalType": "string",
          "name": "bankName",
          "type": "string"
        }
      ],
      "name": "bankIsEmpty",
      "outputs": [
        {
          "internalType": "bool",
          "name": "",
          "type": "bool"
        }
      ],
      "stateMutability": "view",
      "type": "function"
    },
    {
      "inputs": [
        {
          "internalType": "bytes32",
          "name": "shard",
          "type": "bytes32"
        }
      ],
      "name": "cancelSale",
      "outputs": [],
      "stateMutability": "nonpayable",
      "type": "function"
    },
    {
      "inputs": [
        {
          "internalType": "bytes32",
          "name": "shard",
          "type": "bytes32"
        },
        {
          "internalType": "uint256",
          "name": "dividend",
          "type": "uint256"
        }
      ],
      "name": "claimDividend",
      "outputs": [],
      "stateMutability": "nonpayable",
      "type": "function"
    },
    {
      "inputs": [
        {
          "internalType": "address",
          "name": "tokenAddress",
          "type": "address"
        }
      ],
      "name": "claimLiquid",
      "outputs": [],
      "stateMutability": "nonpayable",
      "type": "function"
    },
    {
      "inputs": [
        {
          "internalType": "string",
          "name": "bankName",
          "type": "string"
        },
        {
          "internalType": "address",
          "name": "bankAdmin",
          "type": "address"
        }
      ],
      "name": "createBank",
      "outputs": [],
      "stateMutability": "nonpayable",
      "type": "function"
    },
    {
      "inputs": [
        {
          "internalType": "string",
          "name": "bankName",
          "type": "string"
        }
      ],
      "name": "deleteBank",
      "outputs": [],
      "stateMutability": "nonpayable",
      "type": "function"
    },
    {
      "inputs": [
        {
          "internalType": "uint256",
          "name": "dividend",
          "type": "uint256"
        }
      ],
      "name": "dissolveDividend",
      "outputs": [],
      "stateMutability": "nonpayable",
      "type": "function"
    },
    {
      "inputs": [
        {
          "internalType": "uint256",
          "name": "dividend",
          "type": "uint256"
        }
      ],
      "name": "dividendExists",
      "outputs": [
        {
          "internalType": "bool",
          "name": "",
          "type": "bool"
        }
      ],
      "stateMutability": "view",
      "type": "function"
    },
    {
      "inputs": [
        {
          "internalType": "string",
          "name": "bankName",
          "type": "string"
        },
        {
          "internalType": "address",
          "name": "tokenAddress",
          "type": "address"
        }
      ],
      "name": "getBankBalance",
      "outputs": [
        {
          "internalType": "uint256",
          "name": "",
          "type": "uint256"
        }
      ],
      "stateMutability": "view",
      "type": "function"
    },
    {
      "inputs": [
        {
          "internalType": "uint256",
          "name": "dividend",
          "type": "uint256"
        }
      ],
      "name": "getDividendResidual",
      "outputs": [
        {
          "internalType": "uint256",
          "name": "",
          "type": "uint256"
        }
      ],
      "stateMutability": "view",
      "type": "function"
    },
    {
      "inputs": [
        {
          "internalType": "uint256",
          "name": "dividend",
          "type": "uint256"
        }
      ],
      "name": "getDividendToken",
      "outputs": [
        {
          "internalType": "address",
          "name": "",
          "type": "address"
        }
      ],
      "stateMutability": "view",
      "type": "function"
    },
    {
      "inputs": [
        {
          "internalType": "uint256",
          "name": "dividend",
          "type": "uint256"
        }
      ],
      "name": "getDividendValue",
      "outputs": [
        {
          "internalType": "uint256",
          "name": "",
          "type": "uint256"
        }
      ],
      "stateMutability": "view",
      "type": "function"
    },
    {
      "inputs": [
        {
          "internalType": "address",
          "name": "tokenAddress",
          "type": "address"
        }
      ],
      "name": "getLiquidResidual",
      "outputs": [
        {
          "internalType": "uint256",
          "name": "",
          "type": "uint256"
        }
      ],
      "stateMutability": "view",
      "type": "function"
    },
    {
      "inputs": [
        {
          "internalType": "uint256",
          "name": "referendum",
          "type": "uint256"
        }
      ],
      "name": "getReferendumResult",
      "outputs": [
        {
          "internalType": "bool",
          "name": "",
          "type": "bool"
        }
      ],
      "stateMutability": "view",
      "type": "function"
    },
    {
      "inputs": [
        {
          "internalType": "bytes32",
          "name": "shard",
          "type": "bytes32"
        }
      ],
      "name": "getShardExpiredTime",
      "outputs": [
        {
          "internalType": "uint256",
          "name": "",
          "type": "uint256"
        }
      ],
      "stateMutability": "view",
      "type": "function"
    },
    {
      "inputs": [
        {
          "internalType": "bytes32",
          "name": "shard",
          "type": "bytes32"
        }
      ],
      "name": "getShardSalePrice",
      "outputs": [
        {
          "internalType": "uint256",
          "name": "",
          "type": "uint256"
        }
      ],
      "stateMutability": "view",
      "type": "function"
    },
    {
      "inputs": [
        {
          "internalType": "string",
          "name": "permitName",
          "type": "string"
        },
        {
          "internalType": "address",
          "name": "account",
          "type": "address"
        }
      ],
      "name": "hasPermit",
      "outputs": [
        {
          "internalType": "bool",
          "name": "",
          "type": "bool"
        }
      ],
      "stateMutability": "view",
      "type": "function"
    },
    {
      "inputs": [
        {
          "internalType": "uint256",
          "name": "referendum",
          "type": "uint256"
        },
        {
          "internalType": "address",
          "name": "account",
          "type": "address"
        }
      ],
      "name": "hasVoted",
      "outputs": [
        {
          "internalType": "bool",
          "name": "",
          "type": "bool"
        }
      ],
      "stateMutability": "view",
      "type": "function"
    },
    {
      "inputs": [
        {
          "internalType": "uint256",
          "name": "referendum",
          "type": "uint256"
        },
        {
          "internalType": "uint256",
          "name": "proposalIndex",
          "type": "uint256"
        }
      ],
      "name": "implementProposal",
      "outputs": [],
      "stateMutability": "nonpayable",
      "type": "function"
    },
    {
      "inputs": [
        {
          "internalType": "uint256",
          "name": "",
          "type": "uint256"
        }
      ],
      "name": "infoByReferendum",
      "outputs": [
        {
          "internalType": "address",
          "name": "issuer",
          "type": "address"
        }
      ],
      "stateMutability": "view",
      "type": "function"
    },
    {
      "inputs": [
        {
          "internalType": "bytes32",
          "name": "",
          "type": "bytes32"
        }
      ],
      "name": "infoByShard",
      "outputs": [
        {
          "internalType": "uint256",
          "name": "numerator",
          "type": "uint256"
        },
        {
          "internalType": "uint256",
          "name": "denominator",
          "type": "uint256"
        },
        {
          "internalType": "address",
          "name": "owner",
          "type": "address"
        },
        {
          "internalType": "uint256",
          "name": "creationTime",
          "type": "uint256"
        }
      ],
      "stateMutability": "view",
      "type": "function"
    },
    {
      "inputs": [
        {
          "internalType": "string",
          "name": "bankName",
          "type": "string"
        },
        {
          "internalType": "address",
          "name": "account",
          "type": "address"
        }
      ],
      "name": "isBankAdmin",
      "outputs": [
        {
          "internalType": "bool",
          "name": "",
          "type": "bool"
        }
      ],
      "stateMutability": "view",
      "type": "function"
    },
    {
      "inputs": [
        {
          "internalType": "string",
          "name": "permitName",
          "type": "string"
        },
        {
          "internalType": "address",
          "name": "account",
          "type": "address"
        }
      ],
      "name": "isPermitAdmin",
      "outputs": [
        {
          "internalType": "bool",
          "name": "",
          "type": "bool"
        }
      ],
      "stateMutability": "view",
      "type": "function"
    },
    {
      "inputs": [
        {
          "internalType": "address",
          "name": "account",
          "type": "address"
        }
      ],
      "name": "isShardHolder",
      "outputs": [
        {
          "internalType": "bool",
          "name": "",
          "type": "bool"
        }
      ],
      "stateMutability": "view",
      "type": "function"
    },
    {
      "inputs": [
        {
          "internalType": "bytes32",
          "name": "shard",
          "type": "bytes32"
        }
      ],
      "name": "isValidShard",
      "outputs": [
        {
          "internalType": "bool",
          "name": "",
          "type": "bool"
        }
      ],
      "stateMutability": "view",
      "type": "function"
    },
    {
      "inputs": [
        {
          "internalType": "string",
          "name": "bankName",
          "type": "string"
        },
        {
          "internalType": "address",
          "name": "tokenAddress",
          "type": "address"
        },
        {
          "internalType": "uint256",
          "name": "value",
          "type": "uint256"
        }
      ],
      "name": "issueDividend",
      "outputs": [],
      "stateMutability": "nonpayable",
      "type": "function"
    },
    {
      "inputs": [
        {
          "internalType": "string[]",
          "name": "proposalFunctionNames",
          "type": "string[]"
        },
        {
          "internalType": "bytes[]",
          "name": "proposalArgumentData",
          "type": "bytes[]"
        }
      ],
      "name": "issueVote",
      "outputs": [],
      "stateMutability": "nonpayable",
      "type": "function"
    },
    {
      "inputs": [
        {
          "internalType": "address",
          "name": "",
          "type": "address"
        }
      ],
      "name": "liquid",
      "outputs": [
        {
          "internalType": "uint256",
          "name": "",
          "type": "uint256"
        }
      ],
      "stateMutability": "view",
      "type": "function"
    },
    {
      "inputs": [],
      "name": "liquidize",
      "outputs": [],
      "stateMutability": "nonpayable",
      "type": "function"
    },
    {
      "inputs": [
        {
          "internalType": "string",
          "name": "fromBankName",
          "type": "string"
        },
        {
          "internalType": "string",
          "name": "toBankName",
          "type": "string"
        },
        {
          "internalType": "address",
          "name": "tokenAddress",
          "type": "address"
        },
        {
          "internalType": "uint256",
          "name": "value",
          "type": "uint256"
        }
      ],
      "name": "moveToken",
      "outputs": [],
      "stateMutability": "nonpayable",
      "type": "function"
    },
    {
      "inputs": [
        {
          "internalType": "uint256",
          "name": "referendum",
          "type": "uint256"
        },
        {
          "internalType": "uint256",
          "name": "proposalIndex",
          "type": "uint256"
        }
      ],
      "name": "proposalExists",
      "outputs": [
        {
          "internalType": "bool",
          "name": "",
          "type": "bool"
        }
      ],
      "stateMutability": "view",
      "type": "function"
    },
    {
      "inputs": [
        {
          "internalType": "bytes32",
          "name": "shard",
          "type": "bytes32"
        }
      ],
      "name": "purchase",
      "outputs": [],
      "stateMutability": "payable",
      "type": "function"
    },
    {
      "inputs": [
        {
          "internalType": "bytes32",
          "name": "shard",
          "type": "bytes32"
        },
        {
          "internalType": "uint256",
          "name": "numerator",
          "type": "uint256"
        },
        {
          "internalType": "uint256",
          "name": "denominator",
          "type": "uint256"
        },
        {
          "internalType": "address",
          "name": "tokenAddress",
          "type": "address"
        },
        {
          "internalType": "uint256",
          "name": "price",
          "type": "uint256"
        },
        {
          "internalType": "address",
          "name": "to",
          "type": "address"
        }
      ],
      "name": "putForSale",
      "outputs": [],
      "stateMutability": "nonpayable",
      "type": "function"
    },
    {
      "inputs": [
        {
          "internalType": "address",
          "name": "tokenAddress",
          "type": "address"
        },
        {
          "internalType": "uint256",
          "name": "value",
          "type": "uint256"
        }
      ],
      "name": "receiveToken",
      "outputs": [],
      "stateMutability": "nonpayable",
      "type": "function"
    },
    {
      "inputs": [
        {
          "internalType": "uint256",
          "name": "referendum",
          "type": "uint256"
        }
      ],
      "name": "referendumIsImplemented",
      "outputs": [
        {
          "internalType": "bool",
          "name": "",
          "type": "bool"
        }
      ],
      "stateMutability": "view",
      "type": "function"
    },
    {
      "inputs": [
        {
          "internalType": "uint256",
          "name": "referendum",
          "type": "uint256"
        }
      ],
      "name": "referendumIsPassed",
      "outputs": [
        {
          "internalType": "bool",
          "name": "",
          "type": "bool"
        }
      ],
      "stateMutability": "view",
      "type": "function"
    },
    {
      "inputs": [
        {
          "internalType": "uint256",
          "name": "referendum",
          "type": "uint256"
        }
      ],
      "name": "referendumIsPending",
      "outputs": [
        {
          "internalType": "bool",
          "name": "",
          "type": "bool"
        }
      ],
      "stateMutability": "view",
      "type": "function"
    },
    {
      "inputs": [
        {
          "internalType": "address",
          "name": "tokenAddress",
          "type": "address"
        }
      ],
      "name": "registerTokenAddress",
      "outputs": [],
      "stateMutability": "nonpayable",
      "type": "function"
    },
    {
      "inputs": [
        {
          "internalType": "string",
          "name": "bankName",
          "type": "string"
        },
        {
          "internalType": "address",
          "name": "bankAdmin",
          "type": "address"
        }
      ],
      "name": "removeBankAdmin",
      "outputs": [],
      "stateMutability": "nonpayable",
      "type": "function"
    },
    {
      "inputs": [
        {
          "internalType": "string",
          "name": "permitName",
          "type": "string"
        },
        {
          "internalType": "enum Administrable.PermitState",
          "name": "newState",
          "type": "uint8"
        }
      ],
      "name": "setBasePermit",
      "outputs": [],
      "stateMutability": "nonpayable",
      "type": "function"
    },
    {
      "inputs": [
        {
          "internalType": "bool",
          "name": "newState",
          "type": "bool"
        }
      ],
      "name": "setNonShardHolderState",
      "outputs": [],
      "stateMutability": "nonpayable",
      "type": "function"
    },
    {
      "inputs": [
        {
          "internalType": "string",
          "name": "permitName",
          "type": "string"
        },
        {
          "internalType": "address",
          "name": "account",
          "type": "address"
        },
        {
          "internalType": "enum Administrable.PermitState",
          "name": "newState",
          "type": "uint8"
        }
      ],
      "name": "setPermit",
      "outputs": [],
      "stateMutability": "nonpayable",
      "type": "function"
    },
    {
      "inputs": [
        {
          "internalType": "address",
          "name": "",
          "type": "address"
        }
      ],
      "name": "shardByOwner",
      "outputs": [
        {
          "internalType": "bytes32",
          "name": "",
          "type": "bytes32"
        }
      ],
      "stateMutability": "view",
      "type": "function"
    },
    {
      "inputs": [
        {
          "internalType": "bytes32",
          "name": "shard",
          "type": "bytes32"
        },
        {
          "internalType": "uint256",
          "name": "time",
          "type": "uint256"
        }
      ],
      "name": "shardExisted",
      "outputs": [
        {
          "internalType": "bool",
          "name": "",
          "type": "bool"
        }
      ],
      "stateMutability": "view",
      "type": "function"
    },
    {
      "inputs": [
        {
          "internalType": "bytes32",
          "name": "senderShard",
          "type": "bytes32"
        },
        {
          "internalType": "uint256",
          "name": "numerator",
          "type": "uint256"
        },
        {
          "internalType": "uint256",
          "name": "denominator",
          "type": "uint256"
        },
        {
          "internalType": "address",
          "name": "to",
          "type": "address"
        }
      ],
      "name": "split",
      "outputs": [],
      "stateMutability": "nonpayable",
      "type": "function"
    },
    {
      "inputs": [
        {
          "internalType": "bytes32",
          "name": "senderShard",
          "type": "bytes32"
        },
        {
          "internalType": "address",
          "name": "to",
          "type": "address"
        }
      ],
      "name": "transferShard",
      "outputs": [],
      "stateMutability": "nonpayable",
      "type": "function"
    },
    {
      "inputs": [
        {
          "internalType": "string",
          "name": "bankName",
          "type": "string"
        },
        {
          "internalType": "address",
          "name": "tokenAddress",
          "type": "address"
        },
        {
          "internalType": "uint256",
          "name": "value",
          "type": "uint256"
        },
        {
          "internalType": "address",
          "name": "to",
          "type": "address"
        }
      ],
      "name": "transferTokenFromBank",
      "outputs": [],
      "stateMutability": "nonpayable",
      "type": "function"
    },
    {
      "inputs": [
        {
          "internalType": "address",
          "name": "tokenAddress",
          "type": "address"
        }
      ],
      "name": "unregisterTokenAddress",
      "outputs": [],
      "stateMutability": "nonpayable",
      "type": "function"
    },
    {
      "inputs": [
        {
          "internalType": "bytes32",
          "name": "shard",
          "type": "bytes32"
        },
        {
          "internalType": "uint256",
          "name": "referendum",
          "type": "uint256"
        },
        {
          "internalType": "bool",
          "name": "favor",
          "type": "bool"
        }
      ],
      "name": "vote",
      "outputs": [],
      "stateMutability": "nonpayable",
      "type": "function"
    },
    {
      "stateMutability": "payable",
      "type": "receive"
    }
  ],
  "bytecode": "6080604052600080553480156200001557600080fd5b5062000026600180336000620001c3565b6001805460ff19168117905560408051808201909152600481526336b0b4b760e11b6020820152620000599033620002ca565b604080518082019091526003815262734e5360e81b6020820152620000819033600262000410565b620000af604051806040016040528060028152602001611a5160f21b8152503360026200041060201b60201c565b620000dd60405180604001604052806002815260200161191160f21b8152503360026200041060201b60201c565b6200010b6040518060400160405280600281526020016136a160f11b8152503360026200041060201b60201c565b62000139604051806040016040528060028152602001616c4560f01b8152503360026200041060201b60201c565b6040805180820190915260038152621b505560ea1b6020820152620001619033600262000410565b6200018f6040518060400160405280600281526020016134ab60f11b8152503360026200041060201b60201c565b620001bd60405180604001604052806002815260200161069560f41b8152503360026200041060201b60201c565b620006a4565b6040516001600160601b0319606084901b1660208201526034810182905260009060540160408051808303601f1901815282825280516020918201206001600160a01b03878116600081815260038086528682208590558482526006865286822060001990556080880187528c88528588018c81528888018481526060808b018d81528886526002808b52958b90209b518c55925160018c01559051938a0180546001600160a01b0319169490961693909317909455925196909201959095558351828152928301949094529181018590529092507f90e88e994885f1cdd31d3393f0b012e817804fc9d2adef69d0d7e5053d1e29ad910160405180910390a15050505050565b6001805460ff161515146200030b5760405162461bcd60e51b8152602060048201526002602482015261115360f21b60448201526064015b60405180910390fd5b6200031682620004f8565b156200034a5760405162461bcd60e51b8152602060048201526002602482015261414560f01b604482015260640162000302565b6001600f836040516200035e919062000550565b90815260408051602092819003830181206001600160a01b038616600090815293529120805460ff191692151592909217909155600190600c90620003a590859062000550565b90815260405160209181900382018120805460ff1916931515939093179092556000805160206200669183398151915291620003e69185918591016200059c565b60408051601f198184030181529082905262000404913390620005c8565b60405180910390a15050565b6001805460ff161515146200044d5760405162461bcd60e51b8152602060048201526002602482015261115360f21b604482015260640162000302565b8060108460405162000460919062000550565b90815260408051602092819003830190206001600160a01b038616600090815292529020805460ff19166001836002811115620004a157620004a16200060d565b021790555060008051602062006691833981519152838383604051602001620004cd9392919062000623565b60408051601f1981840301815290829052620004eb91339062000676565b60405180910390a1505050565b6000600c826040516200050c919062000550565b9081526040519081900360200190205460ff16151560011492915050565b60005b83811015620005475781810151838201526020016200052d565b50506000910152565b60008251620005648184602087016200052a565b9190910192915050565b60008151808452620005888160208601602086016200052a565b601f01601f19169290920160200192915050565b604081526000620005b160408301856200056e565b905060018060a01b03831660208301529392505050565b60608152600260608201526131a160f11b608082015260a060208201526000620005f660a08301856200056e565b905060018060a01b03831660408301529392505050565b634e487b7160e01b600052602160045260246000fd5b6060815260006200063860608301866200056e565b6001600160a01b03851660208401529050600383106200066857634e487b7160e01b600052602160045260246000fd5b826040830152949350505050565b606081526002606082015261073560f41b608082015260a060208201526000620005f660a08301856200056e565b615fdd80620006b46000396000f3fe60806040526004361061031e5760003560e01c8063859d9fd5116101ab578063b4af7d59116100f7578063db5dc9b711610095578063e6778fce1161006f578063e6778fce14610ae5578063eadb970814610b12578063f998389614610b44578063fd06636b14610b6457600080fd5b8063db5dc9b714610a85578063de9d680514610aa5578063e1c34c1f14610ac557600080fd5b8063c5438a55116100d1578063c5438a55146109f5578063c8c56af014610a15578063cc44561114610a45578063d0b8b54214610a5857600080fd5b8063b4af7d591461092c578063bcedb2e01461094c578063c4802eb2146109c857600080fd5b806397890db911610164578063a343c5351161013e578063a343c53514610886578063a80aed76146108bc578063a907b6c5146108dc578063b35ca4f3146108fc57600080fd5b806397890db9146108165780639995b9a914610836578063a1916aef1461086657600080fd5b8063859d9fd514610746578063868399a5146107665780638786df6a146107865780638d7844a6146107a65780639211b7b3146107c657806397235a1e146107f657600080fd5b8063354cd1351161026a5780634f52a71e1161022357806363879c0b116101fd57806363879c0b1461069957806364e5378f146106b95780637b785493146106f6578063810052191461072657600080fd5b80634f52a71e146105fe5780635beeff331461061e57806362748dcc1461064b57600080fd5b8063354cd135146104e8578063384fe2b5146105085780633c06df46146105285780633dbeaa5414610548578063438596321461057e5780634c46360b146105ce57600080fd5b8063258e4d9f116102d75780632dec7cd2116102b15780632dec7cd21461045a5780632ef37926146104885780632f2e9a2a146104a8578063350546d8146104c857600080fd5b8063258e4d9f146103fa5780632956de911461041a5780632c729fd11461043a57600080fd5b806302fb0c5e14610336578063036f3aec1461036557806305c558f5146103855780630bea89851461039a578063169936b4146103ba57806323656642146103da57600080fd5b366103315761032f60003433610b84565b005b600080fd5b34801561034257600080fd5b506001546103509060ff1681565b60405190151581526020015b60405180910390f35b34801561037157600080fd5b5061032f610380366004614e1d565b610cd2565b34801561039157600080fd5b5061032f610d72565b3480156103a657600080fd5b5061032f6103b5366004614e6e565b610dab565b3480156103c657600080fd5b506103506103d5366004614e87565b610e69565b3480156103e657600080fd5b5061032f6103f5366004614e6e565b610ec7565b34801561040657600080fd5b50610350610415366004614ed0565b610f02565b34801561042657600080fd5b5061032f610435366004614fd8565b610fb7565b34801561044657600080fd5b5061032f6104553660046150b9565b610fef565b34801561046657600080fd5b5061047a610475366004614ed0565b6112f7565b60405190815260200161035c565b34801561049457600080fd5b5061032f6104a3366004614ed0565b611338565b3480156104b457600080fd5b5061032f6104c3366004614ed0565b611396565b3480156104d457600080fd5b5061032f6104e33660046150f2565b6113e8565b3480156104f457600080fd5b5061032f61050336600461510f565b6115bb565b34801561051457600080fd5b5061032f610523366004614e87565b6117e8565b34801561053457600080fd5b5061032f61054336600461510f565b611833565b34801561055457600080fd5b5061047a6105633660046150f2565b6001600160a01b031660009081526009602052604090205490565b34801561058a57600080fd5b50610350610599366004615131565b6000918252601c602090815260408084206001600160a01b039390931684526003825280842054845291905290205460ff1690565b3480156105da57600080fd5b5061047a6105e9366004614e6e565b60009081526013602052604090206001015490565b34801561060a57600080fd5b5061032f610619366004615131565b61186b565b34801561062a57600080fd5b5061047a6106393660046150f2565b60086020526000908152604090205481565b34801561065757600080fd5b50610681610666366004614e6e565b6000908152601360205260409020546001600160a01b031690565b6040516001600160a01b03909116815260200161035c565b3480156106a557600080fd5b5061032f6106b4366004615156565b6118e7565b3480156106c557600080fd5b506103506106d4366004614e6e565b600090815260166020908152604080832060010154601b909252909120541490565b34801561070257600080fd5b5061047a610711366004614e6e565b60009081526005602052604090206003015490565b34801561073257600080fd5b5061032f6107413660046151af565b61193b565b34801561075257600080fd5b5061032f6107613660046150f2565b6119b2565b34801561077257600080fd5b506103506107813660046150f2565b611a10565b34801561079257600080fd5b5061032f6107a13660046150f2565b611a45565b3480156107b257600080fd5b5061032f6107c13660046151cc565b611aa3565b3480156107d257600080fd5b506103506107e1366004614e6e565b60009081526012602052604090205460ff1690565b34801561080257600080fd5b5061032f61081136600461520d565b611b29565b34801561082257600080fd5b50610350610831366004614e6e565b611c91565b34801561084257600080fd5b50610350610851366004614e6e565b60008054918152600660205260409020541190565b34801561087257600080fd5b5061032f610881366004615239565b611cd8565b34801561089257600080fd5b506106816108a1366004614e6e565b6016602052600090815260409020546001600160a01b031681565b3480156108c857600080fd5b506103506108d7366004614ed0565b611cf8565b3480156108e857600080fd5b5061032f6108f7366004614ed0565b611d63565b34801561090857600080fd5b50610350610917366004614e6e565b6000908152601e602052604090205460ff1690565b34801561093857600080fd5b50610350610947366004614e87565b611df9565b34801561095857600080fd5b50610999610967366004614e6e565b600260208190526000918252604090912080546001820154928201546003909201549092916001600160a01b03169084565b60405161035c949392919093845260208401929092526001600160a01b03166040830152606082015260800190565b3480156109d457600080fd5b5061047a6109e33660046150f2565b60036020526000908152604090205481565b348015610a0157600080fd5b5061032f610a103660046152b6565b611e29565b348015610a2157600080fd5b50610350610a30366004614e6e565b6000908152601d602052604090205460ff1690565b61032f610a53366004614e6e565b611f20565b348015610a6457600080fd5b5061047a610a73366004614e6e565b60009081526006602052604090205490565b348015610a9157600080fd5b50610350610aa0366004614ed0565b6124aa565b348015610ab157600080fd5b5061032f610ac036600461530e565b612560565b348015610ad157600080fd5b50610350610ae03660046150f2565b612580565b348015610af157600080fd5b5061047a610b00366004614e6e565b60009081526014602052604090205490565b348015610b1e57600080fd5b50610350610b2d36600461510f565b600091825260166020526040909120600101541190565b348015610b5057600080fd5b5061032f610b5f36600461536e565b6125b2565b348015610b7057600080fd5b50610350610b7f36600461510f565b612632565b610b8f838383612663565b6040516336b0b4b760e11b8152600e9060040190815260408051602092819003830190206001600160a01b03861660009081529252902054158015610bdc57506001600160a01b03831615155b15610c1f576001600d604051610bfc906336b0b4b760e11b815260040190565b90815260200160405180910390206000828254610c1991906153e2565b90915550505b81600e604051610c39906336b0b4b760e11b815260040190565b90815260200160405180910390206000856001600160a01b03166001600160a01b031681526020019081526020016000206000828254610c7991906153e2565b9091555050604080516001600160a01b038086168252602082018590528316918101919091527fde49bbe8e448cdfa40e6fa0d22592be9a03b28ba746527635dbe5235416659cf906060015b60405180910390a1505050565b81610cdd8133610f02565b610ce657600080fd5b816002811115610cf857610cf86153f5565b601184604051610d08919061542f565b9081526040519081900360200190205460ff166002811115610d2c57610d2c6153f5565b03610d635760405162461bcd60e51b8152602060048201526002602482015261415360f01b60448201526064015b60405180910390fd5b610d6d83836126b8565b505050565b604051806040016040528060028152602001616c4560f01b815250610d9781336124aa565b610da057600080fd5b610da8612767565b50565b6000818152600260208190526040909120015481906001600160a01b03163314610de75760405162461bcd60e51b8152600401610d5a9061544b565b81610e018160008054918152600660205260409020541190565b610e1d5760405162461bcd60e51b8152600401610d5a90615467565b60008381526004602052604090205460ff16610e605760405162461bcd60e51b81526020600482015260026024820152614e5360f01b6044820152606401610d5a565b610d6d836127b9565b6000600d82604051610e7b919061542f565b9081526020016040518091039020546000148015610ec15750600e82604051610ea4919061542f565b908152604080516020928190038301902060008080529252902054155b92915050565b60405180604001604052806002815260200161191160f21b815250610eec81336124aa565b610ef557600080fd5b610efe82612808565b5050565b6000610f0d82612580565b80610f1a5750600b5460ff165b610f2657506000610ec1565b6002601084604051610f38919061542f565b90815260408051602092819003830190206001600160a01b0386166000908152925290205460ff166002811115610f7157610f716153f5565b1480610fb057506002601184604051610f8a919061542f565b9081526040519081900360200190205460ff166002811115610fae57610fae6153f5565b145b9392505050565b6040518060400160405280600281526020016134ab60f11b815250610fdc81336124aa565b610fe557600080fd5b610d6d83836128f3565b6000838152600260208190526040909120015483906001600160a01b0316331461102b5760405162461bcd60e51b8152600401610d5a9061544b565b6000838152601d6020526040902054839060ff166110715760405162461bcd60e51b81526020600482015260036024820152620524e560ec1b6044820152606401610d5a565b6001805460ff161515146110975760405162461bcd60e51b8152600401610d5a90615483565b6000848152601c602090815260408083203384526003835281842054845290915290205460ff16156110c857600080fd5b6110d28585612632565b6111045760405162461bcd60e51b815260206004820152600360248201526229a72b60e91b6044820152606401610d5a565b6000848152601c602090815260408083208884529091529020805460ff19166001179055821561119857600084815260176020908152604080832054601883528184205489855260029093529083208054600190910154849361116993929091612a58565b915091506111778282612a94565b60008881526017602090815260408083206018909252909120919091555550505b600084815260196020908152604080832054601a8352818420548985526002909352908320805460019091015484936111d393929091612a58565b915091506111e18282612a94565b6000888152601960209081526040808320601a835292819020939093559290558051888152871515928101929092523382820152517f4a341f5494c396c29c9e30033ec7900b3b51340ac726dc58726e583ea2aceeb29181900360600190a1600061124b87611c91565b9050808061127d57506000878152601a602090815260408083205460199092529091205461127991906154b5565b6001145b156112ed576000878152601d60205260409020805460ff1916905580156112b8576000878152601e60205260409020805460ff191660011790555b6040518781527fb7af3044d10dc1be59f482d5c460c7c711f80137a36184cdf4f49d973e95acb1906020015b60405180910390a15b5050505050505050565b6000600e83604051611309919061542f565b908152604080519182900360209081019092206001600160a01b03851660009081529252902054905092915050565b6040518060400160405280600281526020016136a160f11b81525061135d81336124aa565b61136657600080fd5b6001805460ff1615151461138c5760405162461bcd60e51b8152600401610d5a90615483565b610d6d8383612b20565b6040518060400160405280600281526020016136a160f11b8152506113bb8133610f02565b6113c457600080fd5b826113cf8133611cf8565b6113d857600080fd5b6113e28484612c32565b50505050565b6113f133612580565b6114225760405162461bcd60e51b81526020600482015260026024820152610aa960f31b6044820152606401610d5a565b61142b81611a10565b6114475760405162461bcd60e51b8152600401610d5a906154c9565b336000908152600360209081526040808320546001600160a01b0385168452600a83528184208185529092529091205460ff16156114ac5760405162461bcd60e51b8152602060048201526002602482015261414360f01b6044820152606401610d5a565b6001600160a01b0382166000818152600a602090815260408083208584528252808320805460ff191660019081179091556002835281842090810154905494845260089092528220549192909161150391906154e5565b61150d91906154b5565b9050806000036115395760405162461bcd60e51b81526020600482015260006024820152604401610d5a565b6001600160a01b038316600090815260096020526040812080548392906115619084906154fc565b909155506115729050838233612cee565b604080516001600160a01b03851681526020810183905233918101919091527f1397d005a56670cbe383372bd4743eaa779af18164d00dc6d12a6659418e1bbf90606001610cc5565b6000828152600260208190526040909120015482906001600160a01b031633146115f75760405162461bcd60e51b8152600401610d5a9061544b565b600082815260126020526040902054829060ff1661161457600080fd5b6001805460ff1615151461163a5760405162461bcd60e51b8152600401610d5a90615483565b6116448484612632565b6116765760405162461bcd60e51b81526020600482015260036024820152622720a360e91b6044820152606401610d5a565b600083815260156020908152604080832087845290915290205460ff16156116c55760405162461bcd60e51b8152602060048201526002602482015261414360f01b6044820152606401610d5a565b60008381526015602090815260408083208784528252808320805460ff1916600190811790915560028352818420808201549054888652601390945291842001549091611711916154e5565b61171b91906154b5565b9050806000036117535760405162461bcd60e51b815260206004820152600360248201526244545360e81b6044820152606401610d5a565b600084815260146020526040812080548392906117719084906154fc565b9091555050600084815260136020526040902054611799906001600160a01b03168233612cee565b6040805160208101869052908101829052600080516020615f888339815191529060600160408051601f19818403018152908290526117d991339061553b565b60405180910390a15050505050565b6040518060400160405280600281526020016136a160f11b81525061180d8133610f02565b61181657600080fd5b816118218133611cf8565b61182a57600080fd5b610d6d83612f1a565b60405180604001604052806002815260200161069560f41b81525061185881336124aa565b61186157600080fd5b610d6d838361309f565b6000828152600260208190526040909120015482906001600160a01b031633146118a75760405162461bcd60e51b8152600401610d5a9061544b565b826118c18160008054918152600660205260409020541190565b6118dd5760405162461bcd60e51b8152600401610d5a90615467565b6113e284846139bc565b604051806040016040528060028152602001611a5160f21b81525061190c81336124aa565b61191557600080fd5b836119208133611cf8565b61192957600080fd5b611934858585613b43565b5050505050565b60405180604001604052806003815260200162734e5360e81b81525061196181336124aa565b61196a57600080fd5b600b5482151560ff9091161515036119a95760405162461bcd60e51b8152602060048201526002602482015261415360f01b6044820152606401610d5a565b610efe82613d3f565b604051806040016040528060038152602001621b505560ea1b8152506119d881336124aa565b6119e157600080fd5b6001805460ff16151514611a075760405162461bcd60e51b8152600401610d5a90615483565b610efe82613daf565b6001600160a01b03811660009081526007602052604081205460ff16151560011480610ec15750506001600160a01b03161590565b604051806040016040528060038152602001621b505560ea1b815250611a6b81336124aa565b611a7457600080fd5b6001805460ff16151514611a9a5760405162461bcd60e51b8152600401610d5a90615483565b610efe82613df8565b6000848152600260208190526040909120015484906001600160a01b03163314611adf5760405162461bcd60e51b8152600401610d5a9061544b565b84611af98160008054918152600660205260409020541190565b611b155760405162461bcd60e51b8152600401610d5a90615467565b611b2186868686613e41565b505050505050565b611b3282611a10565b611b4e5760405162461bcd60e51b8152600401610d5a906154c9565b604051636eb1769f60e11b8152336004820152306024820152829082906001600160a01b0383169063dd62ed3e90604401602060405180830381865afa158015611b9c573d6000803e3d6000fd5b505050506040513d601f19601f82011682018060405250810190611bc0919061557e565b1015611bde5760405162461bcd60e51b8152600401610d5a90615597565b6040516323b872dd60e01b8152336004820152306024820152604481018390526001600160a01b038216906323b872dd906064016020604051808303816000875af1158015611c31573d6000803e3d6000fd5b505050506040513d601f19601f82011682018060405250810190611c5591906155b3565b611c865760405162461bcd60e51b8152602060048201526002602482015261139560f21b6044820152606401610d5a565b610d6d838333610b84565b6000818152601860209081526040808320546017909252822054600191611cb7916154b5565b611cc29060026154e5565b1115611cd057506001919050565b506000919050565b83611ce38133611cf8565b611cec57600080fd5b6119348585858561401a565b6000600f83604051611d0a919061542f565b908152604080519182900360209081019092206001600160a01b0385166000908152925290205460ff16151560011480610fb05750610fb06040518060400160405280600281526020016136a160f11b81525083610f02565b6040518060400160405280600281526020016136a160f11b815250611d8881336124aa565b611d9157600080fd5b82611d9c8133611cf8565b611da557600080fd5b611dae83612580565b80611dbb5750600b5460ff165b611def5760405162461bcd60e51b81526020600482015260056024820152644e53484e4160d81b6044820152606401610d5a565b6113e284846142ae565b6000600c82604051611e0b919061542f565b9081526040519081900360200190205460ff16151560011492915050565b82611e348133610f02565b611e3d57600080fd5b611e4683612580565b80611e535750600b5460ff165b611e875760405162461bcd60e51b81526020600482015260056024820152644e53484e4160d81b6044820152606401610d5a565b816002811115611e9957611e996153f5565b601085604051611ea9919061542f565b90815260408051602092819003830190206001600160a01b0387166000908152925290205460ff166002811115611ee257611ee26153f5565b03611f155760405162461bcd60e51b815260206004820152600360248201526204148560ec1b6044820152606401610d5a565b6113e28484846143ac565b80611f3a8160008054918152600660205260409020541190565b611f565760405162461bcd60e51b8152600401610d5a90615467565b60008281526004602052604090205460ff16611f995760405162461bcd60e51b81526020600482015260026024820152614e5360f01b6044820152606401610d5a565b6000828152600560205260409020600401546001600160a01b0316331480611fd957506000828152600560205260409020600401546001600160a01b0316155b61200a5760405162461bcd60e51b815260206004820152600260248201526129a960f11b6044820152606401610d5a565b612013826127b9565b600082815260056020526040812060030154819081906120379060196103e8614466565b9194509250905061204881836153e2565b6000868152600560205260409020600201549092506001600160a01b03166121ba576000858152600560205260409020600301543410156120b05760405162461bcd60e51b8152602060048201526002602482015261494560f01b6044820152606401610d5a565b6040516000907349a71890aea5a751e30e740c504f2e9683f347bc9085908381818185875af1925050503d8060008114612106576040519150601f19603f3d011682016040523d82523d6000602084013e61210b565b606091505b5050600087815260026020819052604080832090910154905192935090916001600160a01b039091169085908381818185875af1925050503d806000811461216f576040519150601f19603f3d011682016040523d82523d6000602084013e612174565b606091505b505090508080156121825750815b6121b35760405162461bcd60e51b81526020600482015260026024820152612a2360f11b6044820152606401610d5a565b5050612380565b6000858152600560205260409081902060028101546003909101549151636eb1769f60e11b81523360048201523060248201526001600160a01b039091169190829063dd62ed3e90604401602060405180830381865afa158015612222573d6000803e3d6000fd5b505050506040513d601f19601f82011682018060405250810190612246919061557e565b10156122645760405162461bcd60e51b8152600401610d5a90615597565b6040516323b872dd60e01b81523360048201527349a71890aea5a751e30e740c504f2e9683f347bc6024820152604481018590526001600160a01b038216906323b872dd906064016020604051808303816000875af11580156122cb573d6000803e3d6000fd5b505050506040513d601f19601f820116820180604052508101906122ef91906155b3565b50600086815260026020819052604091829020015490516323b872dd60e01b81523360048201526001600160a01b03918216602482015260448101859052908216906323b872dd906064016020604051808303816000875af1158015612359573d6000803e3d6000fd5b505050506040513d601f19601f8201168201806040525081019061237d91906155b3565b50505b600085815260056020526040902054158015906123ad575060008581526005602052604090206001015415155b6123de5760405162461bcd60e51b8152602060048201526002602482015261455360f01b6044820152606401610d5a565b60008581526002602090815260408083208054600191820154600590945291909320805493015461241293919291906144da565b156124265761242185336139bc565b612448565b6000858152600560205260409020805460019091015461244891879133613e41565b6000858152600560205260409081902080546001820154600283015460039093015493517fd8d12448acb9a12d0ca44f527c717c0de64f03b49ca4032f87feae10af5eaabe946117d9948b94939233926001600160a01b0390921691906155d0565b60006124b582612580565b806124c25750600b5460ff165b6124ce57506000610ec1565b60016010846040516124e0919061542f565b90815260408051602092819003830190206001600160a01b0386166000908152925290205460ff166002811115612519576125196153f5565b101580610fb057506001601184604051612533919061542f565b9081526040519081900360200190205460ff166002811115612557576125576153f5565b10159392505050565b8361256b8133611cf8565b61257457600080fd5b611934858585856144f5565b6001600160a01b038116600090815260036020526040812054610ec19060008054918152600660205260409020541190565b6000868152600260208190526040909120015486906001600160a01b031633146125ee5760405162461bcd60e51b8152600401610d5a9061544b565b866126088160008054918152600660205260409020541190565b6126245760405162461bcd60e51b8152600401610d5a90615467565b6112ed888888888888614697565b6000828152600260205260408120600301548210801590610fb0575050600091825260066020526040909120541190565b6001600160a01b0383166000908152600860205260408120805484929061268b9084906153e2565b90915550506001600160a01b03831660009081526009602052604081208054849290610c799084906153e2565b6001805460ff161515146126de5760405162461bcd60e51b8152600401610d5a90615483565b806011836040516126ef919061542f565b908152604051908190036020019020805460ff19166001836002811115612718576127186153f5565b0217905550600080516020615f88833981519152828260405160200161273f929190615626565b60408051601f198184030181529082905261275b913390615648565b60405180910390a15050565b61276f6148bb565b604080516060808252600290820152616c4560f01b608082015260a06020820181905260009082015233818301529051600080516020615f888339815191529181900360c00190a1565b806127d38160008054918152600660205260409020541190565b6127ef5760405162461bcd60e51b8152600401610d5a90615467565b506000908152600460205260409020805460ff19169055565b600081815260126020526040902054819060ff1661282557600080fd5b6001805460ff1615151461284b5760405162461bcd60e51b8152600401610d5a90615483565b6000828152601260209081526040808320805460ff19169055601482528083205481516336b0b4b760e11b8152600e6004820152825190819003602401902086855260138452828520546001600160a01b0316855290925282208054919290916128b69084906153e2565b90915550506040805160208101849052600080516020615f88833981519152910160408051601f198184030181529082905261275b913390615674565b6001805460ff161515146129195760405162461bcd60e51b8152600401610d5a90615483565b60005481518351146129535760405162461bcd60e51b815260206004820152600360248201526250435760e81b6044820152606401610d5a565b6000818152601d602090815260408083208054600160ff19909116811790915581516060810183523381528084018881528184018890528686526016855292909420845181546001600160a01b0319166001600160a01b039091161781559151805192936129c79392850192910190614c19565b50604082015180516129e3916002840191602090910190614c6f565b5050506000818152601860209081526040808320600190819055601a9092529182902055517f3beb2501a436dc1031b7cc3728f824767d0b618f755364d9853face0786e2dcc90612a379083815260200190565b60405180910390a150600080549080612a4f836156a0565b91905055505050565b600080612a6583876154e5565b9550612a7185856154e5565b9350612a7d84876153e2565b612a8784876154e5565b9150915094509492505050565b6000806000612aa385856148ed565b9050612aaf81856154b5565b612ab982876154b5565b612ac391906154b5565b612acd85876154b5565b14612b005760405162461bcd60e51b815260206004820152600360248201526215935560ea1b6044820152606401610d5a565b612b0a81866154b5565b612b1482866154b5565b92509250509250929050565b6001805460ff16151514612b465760405162461bcd60e51b8152600401610d5a90615483565b612b4f82611df9565b15612b815760405162461bcd60e51b8152602060048201526002602482015261414560f01b6044820152606401610d5a565b6001600f83604051612b93919061542f565b90815260408051602092819003830181206001600160a01b038616600090815293529120805460ff191692151592909217909155600190600c90612bd890859061542f565b90815260405160209181900382018120805460ff191693151593909317909255600080516020615f8883398151915291612c169185918591016156b9565b60408051601f198184030181529082905261275b9133906156e3565b6001805460ff16151514612c585760405162461bcd60e51b8152600401610d5a90615483565b612c628282611cf8565b612c6b57600080fd5b6000600f83604051612c7d919061542f565b90815260408051602092819003830181206001600160a01b038616600090815290845291909120805460ff191693151593909317909255600080516020615f8883398151915291612cd29185918591016156b9565b60408051601f198184030181529082905261275b91339061570f565b6001600160a01b038316600090815260086020526040902054821115612d265760405162461bcd60e51b8152600401610d5a90615597565b6001600160a01b038316612d4357612d3e8282614912565b612f05565b60405163095ea7b360e01b81526001600160a01b0382811660048301526024820184905284919082169063095ea7b3906044016020604051808303816000875af1158015612d95573d6000803e3d6000fd5b505050506040513d601f19601f82011682018060405250810190612db991906155b3565b612dea5760405162461bcd60e51b81526020600482015260026024820152614e4160f01b6044820152606401610d5a565b6001600160a01b0382163b15612e5f57604051634b91ad0f60e11b81526001600160a01b038581166004830152602482018590528316906397235a1e90604401600060405180830381600087803b158015612e4457600080fd5b505af1925050508015612e55575060015b15612f0357612f03565b60405163a9059cbb60e01b81526001600160a01b0383811660048301526024820185905282169063a9059cbb906044016020604051808303816000875af1158015612eae573d6000803e3d6000fd5b505050506040513d601f19601f82011682018060405250810190612ed291906155b3565b612f035760405162461bcd60e51b8152602060048201526002602482015261139560f21b6044820152606401610d5a565b505b60015460ff1615610d6d57610d6d838361499a565b6001805460ff16151514612f405760405162461bcd60e51b8152600401610d5a90615483565b612f4981611df9565b612f7b5760405162461bcd60e51b815260206004820152600360248201526255422160e81b6044820152606401610d5a565b60408051808201909152600481526336b0b4b760e11b6020918201528151908201207f471dfab0756edc981c75dd3188ccd700755407f7d3bedf452610f7a1e240d65901612ff05760405162461bcd60e51b815260206004820152600260248201526126a160f11b6044820152606401610d5a565b612ff981610e69565b61302a5760405162461bcd60e51b8152602060048201526002602482015261424560f01b6044820152606401610d5a565b6000600c8260405161303c919061542f565b90815260405160209181900382018120805460ff191693151593909317909255600080516020615f88833981519152916130789184910161573b565b60408051601f198184030181529082905261309491339061574e565b60405180910390a150565b6001805460ff161515146130c55760405162461bcd60e51b8152600401610d5a90615483565b600082815260166020526040902060010154811061310b5760405162461bcd60e51b815260206004820152600360248201526250444560e81b6044820152606401610d5a565b6000828152601b6020526040902054811461314e5760405162461bcd60e51b815260206004820152600360248201526257504f60e81b6044820152606401610d5a565b6000828152601b6020526040812080546001929061316d9084906153e2565b909155505060008281526016602052604081206001018054839081106131955761319561577a565b9060005260206000200180546131aa90615790565b80601f01602080910402602001604051908101604052809291908181526020018280546131d690615790565b80156132235780601f106131f857610100808354040283529160200191613223565b820191906000526020600020905b81548152906001019060200180831161320657829003601f168201915b5050505050905060006016600085815260200190815260200160002060020183815481106132535761325361577a565b90600052602060002001805461326890615790565b80601f016020809104026020016040519081016040528092919081815260200182805461329490615790565b80156132e15780601f106132b6576101008083540402835291602001916132e1565b820191906000526020600020905b8154815290600101906020018083116132c457829003601f168201915b505050505090506000828051906020012090506040518060400160405280600281526020016134ab60f11b815250805190602001208103613344576000808380602001905181019061333391906158ae565b9150915061334182826128f3565b50505b604080518082019091526002815261073560f41b6020909101527ff1b1bbc74e4df8608497e5eed3180a4b18c6b574ff7c886247e917619e15758781016133b35760008060008480602001905181019061339e919061597a565b9250925092506133af8382846143ac565b5050505b60408051808201909152600281526139a160f11b6020909101527fafec9c1d776c78121ab508967107ace431e71722a54fecf52f1f4d778d6353bb810161341c576000808380602001905181019061340b91906159d3565b9150915061341982826126b8565b50505b604080518082019091526003815262734e5360e81b6020909101527f4958d6109b82bd5e477d31199f35c1dc2623c0547eee74c1a266daa5e0d2286381016134815760008280602001905181019061347491906155b3565b905061347f81613d3f565b505b6040805180820190915260028152611d1560f21b6020909101527f36ddd33e7a7f4736d675524b57ae6969fba9049312747b57679f33a51849c6b181016134f557600080600080858060200190518101906134dc9190615a19565b93509350935093506134f0848484846144f5565b505050505b6040805180820190915260028152611b5560f21b6020909101527f6f27458a75a197963a149d891ee01b4f59e7dfbcd1a8c7bc1095dc063775c5e9810161356957600080600080858060200190518101906135509190615a7a565b93509350935093506135648484848461401a565b505050505b6040805180820190915260028152611a5160f21b6020909101527f1cf0197aed3b237c637010856237afeb1ec5367fd4b836bf00f3bd32eef1ef7781016135d8576000806000848060200190518101906135c39190615af7565b9250925092506135d4838383613b43565b5050505b604080518082019091526002815261191160f21b6020909101527fedd0ee4c0d87c45f9edc0b9ba6f7373336c241b06c885e00f23c1ab5ec82a747810161363c5760008280602001905181019061362f919061557e565b905061363a81612808565b505b60408051808201909152600281526131a160f11b6020909101527f2108e84f920e4eee7d6ac9ef2abeb540a1d7f56715d474e0b06b236cf4e7031281016136a557600080838060200190518101906136949190615b51565b915091506136a28282612b20565b50505b604080518082019091526002815261322160f11b6020909101527f46e76fb60cbfea5dc4e313412f858c830e50e6e875d17b0921db6456f8ac9cdb8101613709576000828060200190518101906136fc9190615b97565b905061370781612f1a565b505b60408051808201909152600381526261424160e81b6020909101527f747edc76097bccd90f0d440c26b5930408266bbe117772d2c1d5b62a81070bd2810161377357600080838060200190518101906137629190615b51565b9150915061377082826142ae565b50505b60408051808201909152600381526272424160e81b6020909101527fe01588f2b7120b2685ead94790242f17d977e3d7967bb132b1110f04a44120a781016137dd57600080838060200190518101906137cc9190615b51565b915091506137da8282612c32565b50505b60408051808201909152600381526272544160e81b6020909101527fe2347e35bd161f6471726760ee12a18a4bd894ec18d0e8149dabe9c97a2068198101613842576000828060200190518101906138359190615bcb565b905061384081613df8565b505b60408051808201909152600381526275544160e81b6020909101527fc2c2a7f0073a768c7bffc087093eceffd50955ad08a9ba26982dc60f1859eb8081016138a75760008280602001905181019061389a9190615bcb565b90506138a581613daf565b505b6040805180820190915260018152601b60fa1b6020909101527f95f2da642b046f8cc602839a5eccf7c3e16aab0d359cda47f99ed372092820de81016138f4576138ef612767565b613921565b60405162461bcd60e51b81526020600482015260026024820152612ba360f11b6044820152606401610d5a565b6040805160208101879052908101859052600080516020615f888339815191529060600160408051601f1981840301815290829052613961913390615be8565b60405180910390a1600085815260166020908152604080832060010154601b9092529091205403611934576040518581527f8d0d26399c7b999f9067e92dcf5a21ebc7bf6cd77bd186e721e4dfc2654e7830906020016117d9565b816139d68160008054918152600660205260409020541190565b6139f25760405162461bcd60e51b8152600401610d5a90615467565b6001805460ff16151514613a185760405162461bcd60e51b8152600401610d5a90615483565b600054613a2483612580565b15613ab9576001600160a01b038316600090815260036020526040902054613a59908260009182526006602052604090912055565b600084815260026020818152604080842080546001918201546001600160a01b038a168752600385528387205487529490935290842080549101548493613aa293929091612a58565b91509150613ab2828287866149f8565b5050613adb565b60008481526002602052604090208054600190910154613adb919085846149f8565b60008481526006602090815260408083208490556002909152808220805460019091015491517fd8d12448acb9a12d0ca44f527c717c0de64f03b49ca4032f87feae10af5eaabe93613b35938993929091899181906155d0565b60405180910390a150505050565b6001805460ff16151514613b695760405162461bcd60e51b8152600401610d5a90615483565b600054604051600e90613b7d90869061542f565b90815260408051602092819003830190206001600160a01b03861660009081529252902054821115613bc15760405162461bcd60e51b8152600401610d5a90615c14565b81600e85604051613bd2919061542f565b90815260200160405180910390206000856001600160a01b03166001600160a01b031681526020019081526020016000206000828254613c1291906154fc565b9091555050604051600e90613c2890869061542f565b90815260408051602092819003830190206001600160a01b03861660009081529252902054158015613c6257506001600160a01b03831615155b15613c9c576001600d85604051613c79919061542f565b90815260200160405180910390206000828254613c9691906154fc565b90915550505b6040805180820182526001600160a01b0385811682526020808301868152600086815260138352858120945185546001600160a01b031916941693909317845551600193840155601481528382208690556012815290839020805460ff19169092179091559051600080516020615f8883398151915291613d239187918791879101615c30565b60408051601f1981840301815290829052613b35913390615c5e565b6001805460ff16151514613d655760405162461bcd60e51b8152600401610d5a90615483565b600b805460ff1916821515908117909155604080516020810192909252600080516020615f88833981519152910160408051601f1981840301815290829052613094913390615c8a565b613db881614afa565b604080516001600160a01b0383166020820152600080516020615f88833981519152910160408051601f1981840301815290829052613094913390615cb7565b613e0181614b8b565b604080516001600160a01b0383166020820152600080516020615f88833981519152910160408051601f1981840301815290829052613094913390615ce3565b83613e5b8160008054918152600660205260409020541190565b613e775760405162461bcd60e51b8152600401610d5a90615467565b6001805460ff16151514613e9d5760405162461bcd60e51b8152600401610d5a90615483565b600085815260026020526040902060018101549054613ebc91906154b5565b613ec684866154b5565b10613ee35760405162461bcd60e51b8152600401610d5a90615c14565b600054613eef83612580565b15613f75576001600160a01b03831660009081526003602090815260408083205483526002909152812080546001909101548291613f2e918989612a58565b91509150613f3e828287866149f8565b6001600160a01b038516600090815260036020526040902054613f6e908460009182526006602052604090912055565b5050613f81565b613f81858585846149f8565b60008681526006602090815260408083208490556002909152812080546001909101548291613fb1918989614bea565b60008a815260026020819052604090912001549193509150613fe090839083906001600160a01b0316866149f8565b7fd8d12448acb9a12d0ca44f527c717c0de64f03b49ca4032f87feae10af5eaabe888888886000806040516112e4969594939291906155d0565b8261402481611df9565b6140565760405162461bcd60e51b8152602060048201526003602482015262444e4560e81b6044820152606401610d5a565b6001805460ff1615151461407c5760405162461bcd60e51b8152600401610d5a90615483565b600e8560405161408c919061542f565b90815260408051602092819003830190206001600160a01b038616600090815292529020548211156140d05760405162461bcd60e51b8152600401610d5a90615c14565b81600e866040516140e1919061542f565b90815260200160405180910390206000856001600160a01b03166001600160a01b03168152602001908152602001600020600082825461412191906154fc565b90915550506001600160a01b0383161561421557600e85604051614145919061542f565b90815260408051602092819003830190206001600160a01b0386166000908152925281205490036141a5576001600d86604051614182919061542f565b9081526020016040518091039020600082825461419f91906154fc565b90915550505b600e846040516141b5919061542f565b90815260408051602092819003830190206001600160a01b038616600090815292528120549003614215576001600d856040516141f2919061542f565b9081526020016040518091039020600082825461420f91906153e2565b90915550505b81600e85604051614226919061542f565b90815260200160405180910390206000856001600160a01b03166001600160a01b03168152602001908152602001600020600082825461426691906153e2565b9091555050604051600080516020615f8883398151915290614292908790879087908790602001615d0f565b60408051601f19818403018152908290526117d9913390615d51565b6001805460ff161515146142d45760405162461bcd60e51b8152600401610d5a90615483565b6142f86040518060400160405280600281526020016136a160f11b815250826124aa565b6143295760405162461bcd60e51b815260206004820152600260248201526104e560f41b6044820152606401610d5a565b6001600f8360405161433b919061542f565b90815260408051602092819003830181206001600160a01b038616600090815290845291909120805460ff191693151593909317909255600080516020615f88833981519152916143909185918591016156b9565b60408051601f198184030181529082905261275b913390615d7d565b6001805460ff161515146143d25760405162461bcd60e51b8152600401610d5a90615483565b806010846040516143e3919061542f565b90815260408051602092819003830190206001600160a01b038616600090815292529020805460ff19166001836002811115614421576144216153f5565b0217905550600080516020615f8883398151915283838360405160200161444a93929190615da9565b60408051601f1981840301815290829052610cc5913390615dda565b600080600084841161447757600080fd5b60008461448487896154e5565b61448e91906154b5565b905060008561449d88826154fc565b6144a7908a6154e5565b6144b191906154b5565b905081816144bf81836153e2565b6144c9908b6154fc565b945094509450505093509350939050565b600082851480156144ea57508184145b90505b949350505050565b6001805460ff1615151461451b5760405162461bcd60e51b8152600401610d5a90615483565b600e8460405161452b919061542f565b90815260408051602092819003830190206001600160a01b0386166000908152925290205482111561456f5760405162461bcd60e51b8152600401610d5a90615c14565b61457a838383612cee565b81600e8560405161458b919061542f565b90815260200160405180910390206000856001600160a01b03166001600160a01b0316815260200190815260200160002060008282546145cb91906154fc565b9091555050604051600e906145e190869061542f565b90815260408051602092819003830190206001600160a01b0386166000908152925290205415801561461b57506001600160a01b03831615155b15614655576001600d85604051614632919061542f565b9081526020016040518091039020600082825461464f91906154fc565b90915550505b600080516020615f888339815191528484848460405160200161467b9493929190615e06565b60408051601f1981840301815290829052613b35913390615e42565b856146b18160008054918152600660205260409020541190565b6146cd5760405162461bcd60e51b8152600401610d5a90615467565b6001805460ff161515146146f35760405162461bcd60e51b8152600401610d5a90615483565b60008781526002602052604090206001810154905461471291906154b5565b61471c86886154b5565b111561473a5760405162461bcd60e51b8152600401610d5a90615c14565b6147448686612a94565b80965081975050506040518060a00160405280878152602001868152602001856001600160a01b03168152602001848152602001836001600160a01b031681525060056000898152602001908152602001600020600082015181600001556020820151816001015560408201518160020160006101000a8154816001600160a01b0302191690836001600160a01b031602179055506060820151816003015560808201518160040160006101000a8154816001600160a01b0302191690836001600160a01b0316021790555090505060016004600089815260200190815260200160002060006101000a81548160ff0219169083151502179055507f4c4dcd7b4186fe1c900d89bc3c911766f63cf9c3570750481f0d89bfbcb752858787878787876040516148aa96959493929190958652602086019490945260408501929092526001600160a01b03908116606085015260808401919091521660a082015260c00190565b60405180910390a150505050505050565b6001805460ff161515146148e15760405162461bcd60e51b8152600401610d5a90615483565b6001805460ff19169055565b60005b811561490b57816149018185615e6e565b90935091506148f0565b5090919050565b6000816001600160a01b03168360405160006040518083038185875af1925050503d806000811461495f576040519150601f19603f3d011682016040523d82523d6000602084013e614964565b606091505b5050905080610d6d5760405162461bcd60e51b81526020600482015260026024820152612a2360f11b6044820152606401610d5a565b6001600160a01b038216600090815260086020526040812080548392906149c29084906154fc565b90915550506001600160a01b038216600090815260096020526040812080548392906149ef9084906154fc565b90915550505050565b6040516bffffffffffffffffffffffff19606084901b1660208201526034810182905260009060540160408051808303601f1901815282825280516020918201206001600160a01b03878116600081815260038086528682208590558482526006865286822060001990556080880187528c88528588018c81528888018481526060808b018d81528886526002808b52958b90209b518c55925160018c01559051938a0180546001600160a01b0319169490961693909317909455925196909201959095558351828152928301949094529181018590529092507f90e88e994885f1cdd31d3393f0b012e817804fc9d2adef69d0d7e5053d1e29ad91016117d9565b614b0381611a10565b614b1f5760405162461bcd60e51b8152600401610d5a906154c9565b6001600160a01b03811660009081526008602052604090205415614b6a5760405162461bcd60e51b8152602060048201526002602482015261272d60f11b6044820152606401610d5a565b6001600160a01b03166000908152600760205260409020805460ff19169055565b614b9481611a10565b15614bc65760405162461bcd60e51b815260206004820152600260248201526120a960f11b6044820152606401610d5a565b6001600160a01b03166000908152600760205260409020805460ff19166001179055565b600080614bf783876154e5565b9550614c0384866154e5565b9450614c0f85876154fc565b612a8784866154e5565b828054828255906000526020600020908101928215614c5f579160200282015b82811115614c5f5782518290614c4f9082615ec8565b5091602001919060010190614c39565b50614c6b929150614cc1565b5090565b828054828255906000526020600020908101928215614cb5579160200282015b82811115614cb55782518290614ca59082615ec8565b5091602001919060010190614c8f565b50614c6b929150614cde565b80821115614c6b576000614cd58282614cfb565b50600101614cc1565b80821115614c6b576000614cf28282614cfb565b50600101614cde565b508054614d0790615790565b6000825580601f10614d17575050565b601f016020900490600052602060002090810190610da891905b80821115614c6b5760008155600101614d31565b634e487b7160e01b600052604160045260246000fd5b604051601f8201601f191681016001600160401b0381118282101715614d8357614d83614d45565b604052919050565b60006001600160401b03821115614da457614da4614d45565b50601f01601f191660200190565b6000614dc5614dc084614d8b565b614d5b565b9050828152838383011115614dd957600080fd5b828260208301376000602084830101529392505050565b600082601f830112614e0157600080fd5b610fb083833560208501614db2565b60038110610da857600080fd5b60008060408385031215614e3057600080fd5b82356001600160401b03811115614e4657600080fd5b614e5285828601614df0565b9250506020830135614e6381614e10565b809150509250929050565b600060208284031215614e8057600080fd5b5035919050565b600060208284031215614e9957600080fd5b81356001600160401b03811115614eaf57600080fd5b6144ed84828501614df0565b6001600160a01b0381168114610da857600080fd5b60008060408385031215614ee357600080fd5b82356001600160401b03811115614ef957600080fd5b614f0585828601614df0565b9250506020830135614e6381614ebb565b60006001600160401b03821115614f2f57614f2f614d45565b5060051b60200190565b600082601f830112614f4a57600080fd5b81356020614f5a614dc083614f16565b82815260059290921b84018101918181019086841115614f7957600080fd5b8286015b84811015614fcd5780356001600160401b03811115614f9c5760008081fd5b8701603f81018913614fae5760008081fd5b614fbf898683013560408401614db2565b845250918301918301614f7d565b509695505050505050565b60008060408385031215614feb57600080fd5b82356001600160401b038082111561500257600080fd5b818501915085601f83011261501657600080fd5b81356020615026614dc083614f16565b82815260059290921b8401810191818101908984111561504557600080fd5b8286015b8481101561507d578035868111156150615760008081fd5b61506f8c86838b0101614df0565b845250918301918301615049565b509650508601359250508082111561509457600080fd5b506150a185828601614f39565b9150509250929050565b8015158114610da857600080fd5b6000806000606084860312156150ce57600080fd5b833592506020840135915060408401356150e7816150ab565b809150509250925092565b60006020828403121561510457600080fd5b8135610fb081614ebb565b6000806040838503121561512257600080fd5b50508035926020909101359150565b6000806040838503121561514457600080fd5b823591506020830135614e6381614ebb565b60008060006060848603121561516b57600080fd5b83356001600160401b0381111561518157600080fd5b61518d86828701614df0565b935050602084013561519e81614ebb565b929592945050506040919091013590565b6000602082840312156151c157600080fd5b8135610fb0816150ab565b600080600080608085870312156151e257600080fd5b843593506020850135925060408501359150606085013561520281614ebb565b939692955090935050565b6000806040838503121561522057600080fd5b823561522b81614ebb565b946020939093013593505050565b6000806000806080858703121561524f57600080fd5b84356001600160401b038082111561526657600080fd5b61527288838901614df0565b9550602087013591508082111561528857600080fd5b5061529587828801614df0565b93505060408501356152a681614ebb565b9396929550929360600135925050565b6000806000606084860312156152cb57600080fd5b83356001600160401b038111156152e157600080fd5b6152ed86828701614df0565b93505060208401356152fe81614ebb565b915060408401356150e781614e10565b6000806000806080858703121561532457600080fd5b84356001600160401b0381111561533a57600080fd5b61534687828801614df0565b945050602085013561535781614ebb565b925060408501359150606085013561520281614ebb565b60008060008060008060c0878903121561538757600080fd5b86359550602087013594506040870135935060608701356153a781614ebb565b92506080870135915060a08701356153be81614ebb565b809150509295509295509295565b634e487b7160e01b600052601160045260246000fd5b80820180821115610ec157610ec16153cc565b634e487b7160e01b600052602160045260246000fd5b60005b8381101561542657818101518382015260200161540e565b50506000910152565b6000825161544181846020870161540b565b9190910192915050565b60208082526002908201526109e960f31b604082015260600190565b602080825260029082015261555360f01b604082015260600190565b602080825260029082015261115360f21b604082015260600190565b634e487b7160e01b600052601260045260246000fd5b6000826154c4576154c461549f565b500490565b602080825260029082015261155560f21b604082015260600190565b8082028115828204841417610ec157610ec16153cc565b81810381811115610ec157610ec16153cc565b6000815180845261552781602086016020860161540b565b601f01601f19169290920160200192915050565b60608152600260608201526118d160f21b608082015260a06020820152600061556760a083018561550f565b905060018060a01b03831660408301529392505050565b60006020828403121561559057600080fd5b5051919050565b602080825260029082015261125560f21b604082015260600190565b6000602082840312156155c557600080fd5b8151610fb0816150ab565b958652602086019490945260408501929092526001600160a01b03908116606085015216608083015260a082015260c00190565b6003811061562257634e487b7160e01b600052602160045260246000fd5b9052565b604081526000615639604083018561550f565b9050610fb06020830184615604565b60608152600260608201526139a160f11b608082015260a06020820152600061556760a083018561550f565b606081526002606082015261191160f21b608082015260a06020820152600061556760a083018561550f565b6000600182016156b2576156b26153cc565b5060010190565b6040815260006156cc604083018561550f565b905060018060a01b03831660208301529392505050565b60608152600260608201526131a160f11b608082015260a06020820152600061556760a083018561550f565b606081526002606082015261724160f01b608082015260a06020820152600061556760a083018561550f565b602081526000610fb0602083018461550f565b606081526002606082015261322160f11b608082015260a06020820152600061556760a083018561550f565b634e487b7160e01b600052603260045260246000fd5b600181811c908216806157a457607f821691505b6020821081036157c457634e487b7160e01b600052602260045260246000fd5b50919050565b60006157d8614dc084614d8b565b90508281528383830111156157ec57600080fd5b610fb083602083018461540b565b600082601f83011261580b57600080fd5b610fb0838351602085016157ca565b600082601f83011261582b57600080fd5b8151602061583b614dc083614f16565b82815260059290921b8401810191818101908684111561585a57600080fd5b8286015b84811015614fcd5780516001600160401b0381111561587d5760008081fd5b8701603f8101891361588f5760008081fd5b6158a08986830151604084016157ca565b84525091830191830161585e565b600080604083850312156158c157600080fd5b82516001600160401b03808211156158d857600080fd5b818501915085601f8301126158ec57600080fd5b815160206158fc614dc083614f16565b82815260059290921b8401810191818101908984111561591b57600080fd5b8286015b84811015615953578051868111156159375760008081fd5b6159458c86838b01016157fa565b84525091830191830161591f565b509188015191965090935050508082111561596d57600080fd5b506150a18582860161581a565b60008060006060848603121561598f57600080fd5b83516001600160401b038111156159a557600080fd5b6159b1868287016157fa565b93505060208401516159c281614e10565b60408501519092506150e781614ebb565b600080604083850312156159e657600080fd5b82516001600160401b038111156159fc57600080fd5b615a08858286016157fa565b9250506020830151614e6381614e10565b60008060008060808587031215615a2f57600080fd5b84516001600160401b03811115615a4557600080fd5b615a51878288016157fa565b9450506020850151615a6281614ebb565b60408601516060870151919450925061520281614ebb565b60008060008060808587031215615a9057600080fd5b84516001600160401b0380821115615aa757600080fd5b615ab3888389016157fa565b95506020870151915080821115615ac957600080fd5b50615ad6878288016157fa565b9350506040850151615ae781614ebb565b6060959095015193969295505050565b600080600060608486031215615b0c57600080fd5b83516001600160401b03811115615b2257600080fd5b615b2e868287016157fa565b9350506020840151615b3f81614ebb565b80925050604084015190509250925092565b60008060408385031215615b6457600080fd5b82516001600160401b03811115615b7a57600080fd5b615b86858286016157fa565b9250506020830151614e6381614ebb565b600060208284031215615ba957600080fd5b81516001600160401b03811115615bbf57600080fd5b6144ed848285016157fa565b600060208284031215615bdd57600080fd5b8151610fb081614ebb565b606081526002606082015261069560f41b608082015260a06020820152600061556760a083018561550f565b60208082526002908201526124a360f11b604082015260600190565b606081526000615c43606083018661550f565b6001600160a01b039490941660208301525060400152919050565b6060815260026060820152611a5160f21b608082015260a06020820152600061556760a083018561550f565b606081526003606082015262734e5360e81b608082015260a06020820152600061556760a083018561550f565b6060815260026060820152611d5560f21b608082015260a06020820152600061556760a083018561550f565b6060815260026060820152611c9560f21b608082015260a06020820152600061556760a083018561550f565b608081526000615d22608083018761550f565b8281036020840152615d34818761550f565b6001600160a01b0395909516604084015250506060015292915050565b6060815260026060820152611b5560f21b608082015260a06020820152600061556760a083018561550f565b606081526002606082015261614160f01b608082015260a06020820152600061556760a083018561550f565b606081526000615dbc606083018661550f565b6001600160a01b038516602084015290506144ed6040830184615604565b606081526002606082015261073560f41b608082015260a06020820152600061556760a083018561550f565b608081526000615e19608083018761550f565b6001600160a01b0395861660208401526040830194909452509216606090920191909152919050565b6060815260026060820152611d1560f21b608082015260a06020820152600061556760a083018561550f565b600082615e7d57615e7d61549f565b500690565b601f821115610d6d57600081815260208120601f850160051c81016020861015615ea95750805b601f850160051c820191505b81811015611b2157828155600101615eb5565b81516001600160401b03811115615ee157615ee1614d45565b615ef581615eef8454615790565b84615e82565b602080601f831160018114615f2a5760008415615f125750858301515b600019600386901b1c1916600185901b178555611b21565b600085815260208120601f198616915b82811015615f5957888601518255948401946001909101908401615f3a565b5085821015615f775787850151600019600388901b60f8161c191681555b5050505050600190811b0190555056fe43cd76b5eb40da9ea5eb31a199f443f7cf7955ec280bc5981a2e3445c79c9055a26469706673582212208c00cc634dd57c852c52cb93aa19fa51460a6fb86583b849b34aeb2559c29ad664736f6c6343000813003343cd76b5eb40da9ea5eb31a199f443f7cf7955ec280bc5981a2e3445c79c9055",
  "bytecodeSha1": "da39a3ee5e6b4b0d3255bfef95601890afd80709",
  "compiler": {
    "evm_version": "istanbul",
    "optimizer": {
      "enabled": true,
      "runs": 200
    },
    "version": "0.8.19+commit.7dd6d404"
  },
  "contractName": "Votable",
  "language": "Solidity",
  "natspec": {
    "author": "Frederik W. L. Christoffersen",
    "custom:beaware": "This is a commercial contract.",
    "kind": "dev",
    "methods": {
      "acceptsToken(address)": {
        "notice": "Returns a boolean value, stating if the given token address is registered as acceptable or not.",
        "params": {
          "tokenAddress": "The address of the token to be checked for."
        }
      },
      "active()": {
        "notice": "Boolean stating if the Shardable is active and tradeable or not."
      },
      "addBankAdmin(string,address)": {
        "notice": "Adds a new given administrator to a given Bank.",
        "params": {
          "bankAdmin": "The address of the new Bank administrator to be added.",
          "bankName": "The name of the Bank to which the new administrator is to be added."
        }
      },
      "bankExists(string)": {
        "notice": "Returns a boolean stating if a given Bank exists.",
        "params": {
          "bankName": "The name of the Bank to be checked for."
        }
      },
      "bankIsEmpty(string)": {
        "notice": "Returns a boolean stating if a given Bank is empty.",
        "params": {
          "bankName": "The name of the Bank to be checked for."
        }
      },
      "cancelSale(bytes32)": {
        "notice": "Cancels a sell of a given Shard.",
        "params": {
          "shard": "The shard to be put off sale."
        }
      },
      "claimDividend(bytes32,uint256)": {
        "notice": "Claims the value of an existing dividend corresponding to the shard holder's respective shard fraction.",
        "params": {
          "dividend": "The dividend to be claimed.",
          "shard": "The shard that was valid at the time of the Dividend creation"
        }
      },
      "claimLiquid(address)": {
        "notice": "Claims the owed liquid value corresponding to the shard holder's respective shard fraction after the entity has been liquidized/dissolved.",
        "params": {
          "tokenAddress": "The address of the token to be claimed."
        }
      },
      "createBank(string,address)": {
        "notice": "Creates a new Bank.",
        "params": {
          "bankAdmin": "The address of the first Bank administrator.",
          "bankName": "The name of the Bank to be created."
        }
      },
      "deleteBank(string)": {
        "notice": "Deletes a given Bank.",
        "params": {
          "bankName": "The name of the Bank to be deleted."
        }
      },
      "dissolveDividend(uint256)": {
        "notice": "Dissolves a Dividend and moves its last contents to the 'main' Bank.",
        "params": {
          "dividend": "The Dividend to be dissolved."
        }
      },
      "dividendExists(uint256)": {
        "notice": "Returns a boolean stating if a given Dividend exists.",
        "params": {
          "dividend": "The Dividend to be checked for."
        }
      },
      "getBankBalance(string,address)": {
        "notice": "Returns the balance of a bank.",
        "params": {
          "bankName": "The name of the Bank.",
          "tokenAddress": "The address of the token balance to check for."
        }
      },
      "getDividendResidual(uint256)": {
        "notice": "Returns the residual value of a dividend.",
        "params": {
          "dividend": "The Dividend to be checked for."
        }
      },
      "getDividendToken(uint256)": {
        "notice": "Returns the token of a dividend.",
        "params": {
          "dividend": "The Dividend to be checked for."
        }
      },
      "getDividendValue(uint256)": {
        "notice": "Returns the total value of a dividend.",
        "params": {
          "dividend": "The Dividend to be checked for."
        }
      },
      "getLiquidResidual(address)": {
        "notice": "Returns the residual of a liquid, after liquidization/inactivation.",
        "params": {
          "tokenAddress": "The address of the token to be checked for."
        }
      },
      "getReferendumResult(uint256)": {
        "notice": "Returns a boolean stating if a given Referendum has been voted through (>=50% FAVOR) or not.",
        "params": {
          "referendum": "The Referendum to be checked for."
        }
      },
      "getShardExpiredTime(bytes32)": {
        "notice": "Returns the time, in which a shard will or has expired."
      },
      "getShardSalePrice(bytes32)": {
        "notice": "Returns the price, at which a shard is for sale."
      },
      "hasPermit(string,address)": {
        "notice": "Returns a boolean stating if a given address has a given permit or not.",
        "params": {
          "account": "The address to be checked for.",
          "permitName": "The name of the permit to be checked for."
        }
      },
      "hasVoted(uint256,address)": {
        "notice": "Returns a boolean stating if a given Shard Holder has voted on a given Referendum.",
        "params": {
          "account": "The address of the potential Shard Holder voter to be checked for.",
          "referendum": "The Referendum to be checked for."
        }
      },
      "implementProposal(uint256,uint256)": {
        "notice": "Implements a given Proposal, within a given passed Referendum.",
        "params": {
          "proposalIndex": "The index of the proposal to be implemented.",
          "referendum": "The passed Referendum containing the Proposal."
        }
      },
      "infoByReferendum(uint256)": {
        "notice": "Mapping pointing to dynamic info of a Referendum given a unique Referendum instance."
      },
      "infoByShard(bytes32)": {
        "notice": "Mapping pointing to related info of a Shard given the bytes of a unique Shard instance."
      },
      "isBankAdmin(string,address)": {
        "notice": "Returns a boolean stating if a given address is an admin of a given bank.",
        "params": {
          "account": "The address to be checked for.",
          "bankName": "The name of the Bank to be checked for."
        }
      },
      "isPermitAdmin(string,address)": {
        "notice": "Returns a boolean stating if a given address is an admin of a given permit or not.",
        "params": {
          "account": "The address to be checked for.",
          "permitName": "The name of the permit to be checked for."
        }
      },
      "isShardHolder(address)": {
        "notice": "Checks if address is a shard holder - at least a partial owner of the contract.",
        "params": {
          "account": "The address to be checked for."
        }
      },
      "isValidShard(bytes32)": {
        "notice": "Returns a boolean stating if a given shard is currently valid or not.",
        "params": {
          "shard": "The shard, whose validity is to be checked for."
        }
      },
      "issueDividend(string,address,uint256)": {
        "notice": "Creates and issues a Dividend (to all current shareholders) of a token amount from a given Bank.",
        "params": {
          "bankName": "The name of the Bank to issue the Dividend from.",
          "tokenAddress": "The address of the token to make up the Dividend.",
          "value": "The value/amount of the token to be issued in the Dividend."
        }
      },
      "issueVote(string[],bytes[])": {
        "notice": "The potential errors of the Proposals aren't checked for before implementation!!!",
        "params": {
          "proposalArgumentData": "The parameters passed to the function calls as part of the implementation of the proposals.",
          "proposalFunctionNames": "The names of the functions to be called as a result of the implementation of the proposals."
        }
      },
      "liquid(address)": {
        "notice": "Mapping pointing to a value/amount given the address of an ERC20 token."
      },
      "liquidize()": {
        "notice": "Liquidizes and dissolves the entity. This cannot be undone."
      },
      "moveToken(string,string,address,uint256)": {
        "notice": "Internally moves a token from one Bank to another.",
        "params": {
          "fromBankName": "The name of the Bank from which the token is to be moved.",
          "toBankName": "The name of the Bank to which the token is to be moved.",
          "tokenAddress": "The address of the token to be moved.",
          "value": "The value/amount of the token to be moved."
        }
      },
      "proposalExists(uint256,uint256)": {
        "notice": "Returns a boolean stating if a given Proposal exists within a given Referendum.",
        "params": {
          "proposalIndex": "The index of the proposal to be checked for.",
          "referendum": "The Referendum to be checked for."
        }
      },
      "purchase(bytes32)": {
        "details": "If the purchase is with tokens (ie. tokenAddress != 0x0), first call 'token.approve(Shardable.address, salePrice);'",
        "notice": "Purchases a listed Shard for sale.",
        "params": {
          "shard": "The shard of which a fraction will be purchased."
        }
      },
      "putForSale(bytes32,uint256,uint256,address,uint256,address)": {
        "notice": "Puts a given shard for sale.",
        "params": {
          "denominator": "Denominator of the absolute fraction of the Shard to be put for sale.",
          "numerator": "Numerator of the absolute fraction of the Shard to be put for sale.",
          "price": "The amount which the Shard is for sale as. The token address being the valuta.",
          "shard": "The shard to be put for sale.",
          "to": "The specifically set buyer of the sale. Open to anyone, if address(0).",
          "tokenAddress": "The address of the token that is accepted when purchasing. A value of 0x0 represents ether."
        }
      },
      "receiveToken(address,uint256)": {
        "notice": "Receives a specified token and adds it to the registry. Make sure 'token.approve()' is called beforehand.",
        "params": {
          "tokenAddress": "The address of the token to be received.",
          "value": "The value/amount of the token to be received."
        }
      },
      "referendumIsImplemented(uint256)": {
        "notice": "Returns a boolean stating if a given Referendum is implemented or not.",
        "params": {
          "referendum": "The Referendum to be checked for."
        }
      },
      "referendumIsPassed(uint256)": {
        "notice": "Returns a boolean stating if a given Referendum is passed or not.",
        "params": {
          "referendum": "The Referendum to be checked for."
        }
      },
      "referendumIsPending(uint256)": {
        "notice": "Returns a boolean stating if a given Referendum is pending or not.",
        "params": {
          "referendum": "The Referendum to be checked for."
        }
      },
      "registerTokenAddress(address)": {
        "notice": "Adds a token address to the registry. Also approves any future receipts of said token unless removed again.",
        "params": {
          "tokenAddress": "The token address to be registered."
        }
      },
      "removeBankAdmin(string,address)": {
        "notice": "Removes a given administrator of a given Bank.",
        "params": {
          "bankAdmin": "The address of the current Bank administrator to be removed.",
          "bankName": "The name of the Bank from which the given administrator is to be removed."
        }
      },
      "setBasePermit(string,uint8)": {
        "notice": "Sets the state of a specified base permit.",
        "params": {
          "newState": "The new base Permit State to be applied.",
          "permitName": "The name of the base permit, whose state is to be set."
        }
      },
      "setNonShardHolderState(bool)": {
        "notice": "Sets the state of the Non Shard Holders.",
        "params": {
          "newState": "The Boolean state to be applied."
        }
      },
      "setPermit(string,address,uint8)": {
        "notice": "Sets the state of a specified permit of a given address.",
        "params": {
          "account": "The address, whose permit state is to be set.",
          "newState": "The new Permit State to be applied.",
          "permitName": "The name of the permit, whose state is to be set."
        }
      },
      "shardByOwner(address)": {
        "notice": "Mapping pointing to a currently valid shard given the address of its owner."
      },
      "shardExisted(bytes32,uint256)": {
        "notice": "Returns a boolean stating if the given shard was valid at a given timestamp.",
        "params": {
          "shard": "The shard, whose validity is to be checked for.",
          "time": "The timestamp to be checked for."
        }
      },
      "split(bytes32,uint256,uint256,address)": {
        "notice": "Splits a currently valid shard into two new ones. One is assigned to the receiver. The rest to the previous owner.",
        "params": {
          "denominator": "Denominator of the absolute fraction, which will be subtracted from the previous shard and sent to the receiver.",
          "numerator": "Numerator of the absolute fraction, which will be subtracted from the previous shard and sent to the receiver.",
          "senderShard": "The shard to be split.",
          "to": "The receiver of the new Shard."
        }
      },
      "transferShard(bytes32,address)": {
        "notice": "Sends a whole shard to a receiver.",
        "params": {
          "senderShard": "The shard to be transferred.",
          "to": "The receiver of the new Shard."
        }
      },
      "transferTokenFromBank(string,address,uint256,address)": {
        "notice": "Transfers a token bankAdmin a Bank to a recipient.",
        "params": {
          "bankName": "The name of the Bank from which the token is to be transferred.",
          "to": "The recipient of the token to be transferred.",
          "tokenAddress": "The address of the token to be transferred.",
          "value": "The value/amount of the token to be transferred."
        }
      },
      "unregisterTokenAddress(address)": {
        "notice": "Removes a token address from the registry. Also cancels any future receipts of said token unless added again.",
        "params": {
          "tokenAddress": "The token address to be unregistered."
        }
      },
      "vote(bytes32,uint256,bool)": {
        "notice": "Votes on a existing referendum, with a fraction corresponding to the shard of the holder.",
        "params": {
          "favor": "The boolean value signalling a FOR or AGAINST vote.",
          "referendum": "The referendum to be voted on.",
          "shard": "The Shard to vote with."
        }
      }
    },
    "notice": "This contract is used as a votable administerable business entity.",
    "title": "A fractional DAO-like contract whose decisions can be voted upon by its shareholders",
    "version": 1
  },
  "opcodes": "PUSH1 0x80 PUSH1 0x40 MSTORE PUSH1 0x4 CALLDATASIZE LT PUSH2 0x31E JUMPI PUSH1 0x0 CALLDATALOAD PUSH1 0xE0 SHR DUP1 PUSH4 0x859D9FD5 GT PUSH2 0x1AB JUMPI DUP1 PUSH4 0xB4AF7D59 GT PUSH2 0xF7 JUMPI DUP1 PUSH4 0xDB5DC9B7 GT PUSH2 0x95 JUMPI DUP1 PUSH4 0xE6778FCE GT PUSH2 0x6F JUMPI DUP1 PUSH4 0xE6778FCE EQ PUSH2 0xAE5 JUMPI DUP1 PUSH4 0xEADB9708 EQ PUSH2 0xB12 JUMPI DUP1 PUSH4 0xF9983896 EQ PUSH2 0xB44 JUMPI DUP1 PUSH4 0xFD06636B EQ PUSH2 0xB64 JUMPI PUSH1 0x0 DUP1 REVERT JUMPDEST DUP1 PUSH4 0xDB5DC9B7 EQ PUSH2 0xA85 JUMPI DUP1 PUSH4 0xDE9D6805 EQ PUSH2 0xAA5 JUMPI DUP1 PUSH4 0xE1C34C1F EQ PUSH2 0xAC5 JUMPI PUSH1 0x0 DUP1 REVERT JUMPDEST DUP1 PUSH4 0xC5438A55 GT PUSH2 0xD1 JUMPI DUP1 PUSH4 0xC5438A55 EQ PUSH2 0x9F5 JUMPI DUP1 PUSH4 0xC8C56AF0 EQ PUSH2 0xA15 JUMPI DUP1 PUSH4 0xCC445611 EQ PUSH2 0xA45 JUMPI DUP1 PUSH4 0xD0B8B542 EQ PUSH2 0xA58 JUMPI PUSH1 0x0 DUP1 REVERT JUMPDEST DUP1 PUSH4 0xB4AF7D59 EQ PUSH2 0x92C JUMPI DUP1 PUSH4 0xBCEDB2E0 EQ PUSH2 0x94C JUMPI DUP1 PUSH4 0xC4802EB2 EQ PUSH2 0x9C8 JUMPI PUSH1 0x0 DUP1 REVERT JUMPDEST DUP1 PUSH4 0x97890DB9 GT PUSH2 0x164 JUMPI DUP1 PUSH4 0xA343C535 GT PUSH2 0x13E JUMPI DUP1 PUSH4 0xA343C535 EQ PUSH2 0x886 JUMPI DUP1 PUSH4 0xA80AED76 EQ PUSH2 0x8BC JUMPI DUP1 PUSH4 0xA907B6C5 EQ PUSH2 0x8DC JUMPI DUP1 PUSH4 0xB35CA4F3 EQ PUSH2 0x8FC JUMPI PUSH1 0x0 DUP1 REVERT JUMPDEST DUP1 PUSH4 0x97890DB9 EQ PUSH2 0x816 JUMPI DUP1 PUSH4 0x9995B9A9 EQ PUSH2 0x836 JUMPI DUP1 PUSH4 0xA1916AEF EQ PUSH2 0x866 JUMPI PUSH1 0x0 DUP1 REVERT JUMPDEST DUP1 PUSH4 0x859D9FD5 EQ PUSH2 0x746 JUMPI DUP1 PUSH4 0x868399A5 EQ PUSH2 0x766 JUMPI DUP1 PUSH4 0x8786DF6A EQ PUSH2 0x786 JUMPI DUP1 PUSH4 0x8D7844A6 EQ PUSH2 0x7A6 JUMPI DUP1 PUSH4 0x9211B7B3 EQ PUSH2 0x7C6 JUMPI DUP1 PUSH4 0x97235A1E EQ PUSH2 0x7F6 JUMPI PUSH1 0x0 DUP1 REVERT JUMPDEST DUP1 PUSH4 0x354CD135 GT PUSH2 0x26A JUMPI DUP1 PUSH4 0x4F52A71E GT PUSH2 0x223 JUMPI DUP1 PUSH4 0x63879C0B GT PUSH2 0x1FD JUMPI DUP1 PUSH4 0x63879C0B EQ PUSH2 0x699 JUMPI DUP1 PUSH4 0x64E5378F EQ PUSH2 0x6B9 JUMPI DUP1 PUSH4 0x7B785493 EQ PUSH2 0x6F6 JUMPI DUP1 PUSH4 0x81005219 EQ PUSH2 0x726 JUMPI PUSH1 0x0 DUP1 REVERT JUMPDEST DUP1 PUSH4 0x4F52A71E EQ PUSH2 0x5FE JUMPI DUP1 PUSH4 0x5BEEFF33 EQ PUSH2 0x61E JUMPI DUP1 PUSH4 0x62748DCC EQ PUSH2 0x64B JUMPI PUSH1 0x0 DUP1 REVERT JUMPDEST DUP1 PUSH4 0x354CD135 EQ PUSH2 0x4E8 JUMPI DUP1 PUSH4 0x384FE2B5 EQ PUSH2 0x508 JUMPI DUP1 PUSH4 0x3C06DF46 EQ PUSH2 0x528 JUMPI DUP1 PUSH4 0x3DBEAA54 EQ PUSH2 0x548 JUMPI DUP1 PUSH4 0x43859632 EQ PUSH2 0x57E JUMPI DUP1 PUSH4 0x4C46360B EQ PUSH2 0x5CE JUMPI PUSH1 0x0 DUP1 REVERT JUMPDEST DUP1 PUSH4 0x258E4D9F GT PUSH2 0x2D7 JUMPI DUP1 PUSH4 0x2DEC7CD2 GT PUSH2 0x2B1 JUMPI DUP1 PUSH4 0x2DEC7CD2 EQ PUSH2 0x45A JUMPI DUP1 PUSH4 0x2EF37926 EQ PUSH2 0x488 JUMPI DUP1 PUSH4 0x2F2E9A2A EQ PUSH2 0x4A8 JUMPI DUP1 PUSH4 0x350546D8 EQ PUSH2 0x4C8 JUMPI PUSH1 0x0 DUP1 REVERT JUMPDEST DUP1 PUSH4 0x258E4D9F EQ PUSH2 0x3FA JUMPI DUP1 PUSH4 0x2956DE91 EQ PUSH2 0x41A JUMPI DUP1 PUSH4 0x2C729FD1 EQ PUSH2 0x43A JUMPI PUSH1 0x0 DUP1 REVERT JUMPDEST DUP1 PUSH4 0x2FB0C5E EQ PUSH2 0x336 JUMPI DUP1 PUSH4 0x36F3AEC EQ PUSH2 0x365 JUMPI DUP1 PUSH4 0x5C558F5 EQ PUSH2 0x385 JUMPI DUP1 PUSH4 0xBEA8985 EQ PUSH2 0x39A JUMPI DUP1 PUSH4 0x169936B4 EQ PUSH2 0x3BA JUMPI DUP1 PUSH4 0x23656642 EQ PUSH2 0x3DA JUMPI PUSH1 0x0 DUP1 REVERT JUMPDEST CALLDATASIZE PUSH2 0x331 JUMPI PUSH2 0x32F PUSH1 0x0 CALLVALUE CALLER PUSH2 0xB84 JUMP JUMPDEST STOP JUMPDEST PUSH1 0x0 DUP1 REVERT JUMPDEST CALLVALUE DUP1 ISZERO PUSH2 0x342 JUMPI PUSH1 0x0 DUP1 REVERT JUMPDEST POP PUSH1 0x1 SLOAD PUSH2 0x350 SWAP1 PUSH1 0xFF AND DUP2 JUMP JUMPDEST PUSH1 0x40 MLOAD SWAP1 ISZERO ISZERO DUP2 MSTORE PUSH1 0x20 ADD JUMPDEST PUSH1 0x40 MLOAD DUP1 SWAP2 SUB SWAP1 RETURN JUMPDEST CALLVALUE DUP1 ISZERO PUSH2 0x371 JUMPI PUSH1 0x0 DUP1 REVERT JUMPDEST POP PUSH2 0x32F PUSH2 0x380 CALLDATASIZE PUSH1 0x4 PUSH2 0x4E1D JUMP JUMPDEST PUSH2 0xCD2 JUMP JUMPDEST CALLVALUE DUP1 ISZERO PUSH2 0x391 JUMPI PUSH1 0x0 DUP1 REVERT JUMPDEST POP PUSH2 0x32F PUSH2 0xD72 JUMP JUMPDEST CALLVALUE DUP1 ISZERO PUSH2 0x3A6 JUMPI PUSH1 0x0 DUP1 REVERT JUMPDEST POP PUSH2 0x32F PUSH2 0x3B5 CALLDATASIZE PUSH1 0x4 PUSH2 0x4E6E JUMP JUMPDEST PUSH2 0xDAB JUMP JUMPDEST CALLVALUE DUP1 ISZERO PUSH2 0x3C6 JUMPI PUSH1 0x0 DUP1 REVERT JUMPDEST POP PUSH2 0x350 PUSH2 0x3D5 CALLDATASIZE PUSH1 0x4 PUSH2 0x4E87 JUMP JUMPDEST PUSH2 0xE69 JUMP JUMPDEST CALLVALUE DUP1 ISZERO PUSH2 0x3E6 JUMPI PUSH1 0x0 DUP1 REVERT JUMPDEST POP PUSH2 0x32F PUSH2 0x3F5 CALLDATASIZE PUSH1 0x4 PUSH2 0x4E6E JUMP JUMPDEST PUSH2 0xEC7 JUMP JUMPDEST CALLVALUE DUP1 ISZERO PUSH2 0x406 JUMPI PUSH1 0x0 DUP1 REVERT JUMPDEST POP PUSH2 0x350 PUSH2 0x415 CALLDATASIZE PUSH1 0x4 PUSH2 0x4ED0 JUMP JUMPDEST PUSH2 0xF02 JUMP JUMPDEST CALLVALUE DUP1 ISZERO PUSH2 0x426 JUMPI PUSH1 0x0 DUP1 REVERT JUMPDEST POP PUSH2 0x32F PUSH2 0x435 CALLDATASIZE PUSH1 0x4 PUSH2 0x4FD8 JUMP JUMPDEST PUSH2 0xFB7 JUMP JUMPDEST CALLVALUE DUP1 ISZERO PUSH2 0x446 JUMPI PUSH1 0x0 DUP1 REVERT JUMPDEST POP PUSH2 0x32F PUSH2 0x455 CALLDATASIZE PUSH1 0x4 PUSH2 0x50B9 JUMP JUMPDEST PUSH2 0xFEF JUMP JUMPDEST CALLVALUE DUP1 ISZERO PUSH2 0x466 JUMPI PUSH1 0x0 DUP1 REVERT JUMPDEST POP PUSH2 0x47A PUSH2 0x475 CALLDATASIZE PUSH1 0x4 PUSH2 0x4ED0 JUMP JUMPDEST PUSH2 0x12F7 JUMP JUMPDEST PUSH1 0x40 MLOAD SWAP1 DUP2 MSTORE PUSH1 0x20 ADD PUSH2 0x35C JUMP JUMPDEST CALLVALUE DUP1 ISZERO PUSH2 0x494 JUMPI PUSH1 0x0 DUP1 REVERT JUMPDEST POP PUSH2 0x32F PUSH2 0x4A3 CALLDATASIZE PUSH1 0x4 PUSH2 0x4ED0 JUMP JUMPDEST PUSH2 0x1338 JUMP JUMPDEST CALLVALUE DUP1 ISZERO PUSH2 0x4B4 JUMPI PUSH1 0x0 DUP1 REVERT JUMPDEST POP PUSH2 0x32F PUSH2 0x4C3 CALLDATASIZE PUSH1 0x4 PUSH2 0x4ED0 JUMP JUMPDEST PUSH2 0x1396 JUMP JUMPDEST CALLVALUE DUP1 ISZERO PUSH2 0x4D4 JUMPI PUSH1 0x0 DUP1 REVERT JUMPDEST POP PUSH2 0x32F PUSH2 0x4E3 CALLDATASIZE PUSH1 0x4 PUSH2 0x50F2 JUMP JUMPDEST PUSH2 0x13E8 JUMP JUMPDEST CALLVALUE DUP1 ISZERO PUSH2 0x4F4 JUMPI PUSH1 0x0 DUP1 REVERT JUMPDEST POP PUSH2 0x32F PUSH2 0x503 CALLDATASIZE PUSH1 0x4 PUSH2 0x510F JUMP JUMPDEST PUSH2 0x15BB JUMP JUMPDEST CALLVALUE DUP1 ISZERO PUSH2 0x514 JUMPI PUSH1 0x0 DUP1 REVERT JUMPDEST POP PUSH2 0x32F PUSH2 0x523 CALLDATASIZE PUSH1 0x4 PUSH2 0x4E87 JUMP JUMPDEST PUSH2 0x17E8 JUMP JUMPDEST CALLVALUE DUP1 ISZERO PUSH2 0x534 JUMPI PUSH1 0x0 DUP1 REVERT JUMPDEST POP PUSH2 0x32F PUSH2 0x543 CALLDATASIZE PUSH1 0x4 PUSH2 0x510F JUMP JUMPDEST PUSH2 0x1833 JUMP JUMPDEST CALLVALUE DUP1 ISZERO PUSH2 0x554 JUMPI PUSH1 0x0 DUP1 REVERT JUMPDEST POP PUSH2 0x47A PUSH2 0x563 CALLDATASIZE PUSH1 0x4 PUSH2 0x50F2 JUMP JUMPDEST PUSH1 0x1 PUSH1 0x1 PUSH1 0xA0 SHL SUB AND PUSH1 0x0 SWAP1 DUP2 MSTORE PUSH1 0x9 PUSH1 0x20 MSTORE PUSH1 0x40 SWAP1 KECCAK256 SLOAD SWAP1 JUMP JUMPDEST CALLVALUE DUP1 ISZERO PUSH2 0x58A JUMPI PUSH1 0x0 DUP1 REVERT JUMPDEST POP PUSH2 0x350 PUSH2 0x599 CALLDATASIZE PUSH1 0x4 PUSH2 0x5131 JUMP JUMPDEST PUSH1 0x0 SWAP2 DUP3 MSTORE PUSH1 0x1C PUSH1 0x20 SWAP1 DUP2 MSTORE PUSH1 0x40 DUP1 DUP5 KECCAK256 PUSH1 0x1 PUSH1 0x1 PUSH1 0xA0 SHL SUB SWAP4 SWAP1 SWAP4 AND DUP5 MSTORE PUSH1 0x3 DUP3 MSTORE DUP1 DUP5 KECCAK256 SLOAD DUP5 MSTORE SWAP2 SWAP1 MSTORE SWAP1 KECCAK256 SLOAD PUSH1 0xFF AND SWAP1 JUMP JUMPDEST CALLVALUE DUP1 ISZERO PUSH2 0x5DA JUMPI PUSH1 0x0 DUP1 REVERT JUMPDEST POP PUSH2 0x47A PUSH2 0x5E9 CALLDATASIZE PUSH1 0x4 PUSH2 0x4E6E JUMP JUMPDEST PUSH1 0x0 SWAP1 DUP2 MSTORE PUSH1 0x13 PUSH1 0x20 MSTORE PUSH1 0x40 SWAP1 KECCAK256 PUSH1 0x1 ADD SLOAD SWAP1 JUMP JUMPDEST CALLVALUE DUP1 ISZERO PUSH2 0x60A JUMPI PUSH1 0x0 DUP1 REVERT JUMPDEST POP PUSH2 0x32F PUSH2 0x619 CALLDATASIZE PUSH1 0x4 PUSH2 0x5131 JUMP JUMPDEST PUSH2 0x186B JUMP JUMPDEST CALLVALUE DUP1 ISZERO PUSH2 0x62A JUMPI PUSH1 0x0 DUP1 REVERT JUMPDEST POP PUSH2 0x47A PUSH2 0x639 CALLDATASIZE PUSH1 0x4 PUSH2 0x50F2 JUMP JUMPDEST PUSH1 0x8 PUSH1 0x20 MSTORE PUSH1 0x0 SWAP1 DUP2 MSTORE PUSH1 0x40 SWAP1 KECCAK256 SLOAD DUP2 JUMP JUMPDEST CALLVALUE DUP1 ISZERO PUSH2 0x657 JUMPI PUSH1 0x0 DUP1 REVERT JUMPDEST POP PUSH2 0x681 PUSH2 0x666 CALLDATASIZE PUSH1 0x4 PUSH2 0x4E6E JUMP JUMPDEST PUSH1 0x0 SWAP1 DUP2 MSTORE PUSH1 0x13 PUSH1 0x20 MSTORE PUSH1 0x40 SWAP1 KECCAK256 SLOAD PUSH1 0x1 PUSH1 0x1 PUSH1 0xA0 SHL SUB AND SWAP1 JUMP JUMPDEST PUSH1 0x40 MLOAD PUSH1 0x1 PUSH1 0x1 PUSH1 0xA0 SHL SUB SWAP1 SWAP2 AND DUP2 MSTORE PUSH1 0x20 ADD PUSH2 0x35C JUMP JUMPDEST CALLVALUE DUP1 ISZERO PUSH2 0x6A5 JUMPI PUSH1 0x0 DUP1 REVERT JUMPDEST POP PUSH2 0x32F PUSH2 0x6B4 CALLDATASIZE PUSH1 0x4 PUSH2 0x5156 JUMP JUMPDEST PUSH2 0x18E7 JUMP JUMPDEST CALLVALUE DUP1 ISZERO PUSH2 0x6C5 JUMPI PUSH1 0x0 DUP1 REVERT JUMPDEST POP PUSH2 0x350 PUSH2 0x6D4 CALLDATASIZE PUSH1 0x4 PUSH2 0x4E6E JUMP JUMPDEST PUSH1 0x0 SWAP1 DUP2 MSTORE PUSH1 0x16 PUSH1 0x20 SWAP1 DUP2 MSTORE PUSH1 0x40 DUP1 DUP4 KECCAK256 PUSH1 0x1 ADD SLOAD PUSH1 0x1B SWAP1 SWAP3 MSTORE SWAP1 SWAP2 KECCAK256 SLOAD EQ SWAP1 JUMP JUMPDEST CALLVALUE DUP1 ISZERO PUSH2 0x702 JUMPI PUSH1 0x0 DUP1 REVERT JUMPDEST POP PUSH2 0x47A PUSH2 0x711 CALLDATASIZE PUSH1 0x4 PUSH2 0x4E6E JUMP JUMPDEST PUSH1 0x0 SWAP1 DUP2 MSTORE PUSH1 0x5 PUSH1 0x20 MSTORE PUSH1 0x40 SWAP1 KECCAK256 PUSH1 0x3 ADD SLOAD SWAP1 JUMP JUMPDEST CALLVALUE DUP1 ISZERO PUSH2 0x732 JUMPI PUSH1 0x0 DUP1 REVERT JUMPDEST POP PUSH2 0x32F PUSH2 0x741 CALLDATASIZE PUSH1 0x4 PUSH2 0x51AF JUMP JUMPDEST PUSH2 0x193B JUMP JUMPDEST CALLVALUE DUP1 ISZERO PUSH2 0x752 JUMPI PUSH1 0x0 DUP1 REVERT JUMPDEST POP PUSH2 0x32F PUSH2 0x761 CALLDATASIZE PUSH1 0x4 PUSH2 0x50F2 JUMP JUMPDEST PUSH2 0x19B2 JUMP JUMPDEST CALLVALUE DUP1 ISZERO PUSH2 0x772 JUMPI PUSH1 0x0 DUP1 REVERT JUMPDEST POP PUSH2 0x350 PUSH2 0x781 CALLDATASIZE PUSH1 0x4 PUSH2 0x50F2 JUMP JUMPDEST PUSH2 0x1A10 JUMP JUMPDEST CALLVALUE DUP1 ISZERO PUSH2 0x792 JUMPI PUSH1 0x0 DUP1 REVERT JUMPDEST POP PUSH2 0x32F PUSH2 0x7A1 CALLDATASIZE PUSH1 0x4 PUSH2 0x50F2 JUMP JUMPDEST PUSH2 0x1A45 JUMP JUMPDEST CALLVALUE DUP1 ISZERO PUSH2 0x7B2 JUMPI PUSH1 0x0 DUP1 REVERT JUMPDEST POP PUSH2 0x32F PUSH2 0x7C1 CALLDATASIZE PUSH1 0x4 PUSH2 0x51CC JUMP JUMPDEST PUSH2 0x1AA3 JUMP JUMPDEST CALLVALUE DUP1 ISZERO PUSH2 0x7D2 JUMPI PUSH1 0x0 DUP1 REVERT JUMPDEST POP PUSH2 0x350 PUSH2 0x7E1 CALLDATASIZE PUSH1 0x4 PUSH2 0x4E6E JUMP JUMPDEST PUSH1 0x0 SWAP1 DUP2 MSTORE PUSH1 0x12 PUSH1 0x20 MSTORE PUSH1 0x40 SWAP1 KECCAK256 SLOAD PUSH1 0xFF AND SWAP1 JUMP JUMPDEST CALLVALUE DUP1 ISZERO PUSH2 0x802 JUMPI PUSH1 0x0 DUP1 REVERT JUMPDEST POP PUSH2 0x32F PUSH2 0x811 CALLDATASIZE PUSH1 0x4 PUSH2 0x520D JUMP JUMPDEST PUSH2 0x1B29 JUMP JUMPDEST CALLVALUE DUP1 ISZERO PUSH2 0x822 JUMPI PUSH1 0x0 DUP1 REVERT JUMPDEST POP PUSH2 0x350 PUSH2 0x831 CALLDATASIZE PUSH1 0x4 PUSH2 0x4E6E JUMP JUMPDEST PUSH2 0x1C91 JUMP JUMPDEST CALLVALUE DUP1 ISZERO PUSH2 0x842 JUMPI PUSH1 0x0 DUP1 REVERT JUMPDEST POP PUSH2 0x350 PUSH2 0x851 CALLDATASIZE PUSH1 0x4 PUSH2 0x4E6E JUMP JUMPDEST PUSH1 0x0 DUP1 SLOAD SWAP2 DUP2 MSTORE PUSH1 0x6 PUSH1 0x20 MSTORE PUSH1 0x40 SWAP1 KECCAK256 SLOAD GT SWAP1 JUMP JUMPDEST CALLVALUE DUP1 ISZERO PUSH2 0x872 JUMPI PUSH1 0x0 DUP1 REVERT JUMPDEST POP PUSH2 0x32F PUSH2 0x881 CALLDATASIZE PUSH1 0x4 PUSH2 0x5239 JUMP JUMPDEST PUSH2 0x1CD8 JUMP JUMPDEST CALLVALUE DUP1 ISZERO PUSH2 0x892 JUMPI PUSH1 0x0 DUP1 REVERT JUMPDEST POP PUSH2 0x681 PUSH2 0x8A1 CALLDATASIZE PUSH1 0x4 PUSH2 0x4E6E JUMP JUMPDEST PUSH1 0x16 PUSH1 0x20 MSTORE PUSH1 0x0 SWAP1 DUP2 MSTORE PUSH1 0x40 SWAP1 KECCAK256 SLOAD PUSH1 0x1 PUSH1 0x1 PUSH1 0xA0 SHL SUB AND DUP2 JUMP JUMPDEST CALLVALUE DUP1 ISZERO PUSH2 0x8C8 JUMPI PUSH1 0x0 DUP1 REVERT JUMPDEST POP PUSH2 0x350 PUSH2 0x8D7 CALLDATASIZE PUSH1 0x4 PUSH2 0x4ED0 JUMP JUMPDEST PUSH2 0x1CF8 JUMP JUMPDEST CALLVALUE DUP1 ISZERO PUSH2 0x8E8 JUMPI PUSH1 0x0 DUP1 REVERT JUMPDEST POP PUSH2 0x32F PUSH2 0x8F7 CALLDATASIZE PUSH1 0x4 PUSH2 0x4ED0 JUMP JUMPDEST PUSH2 0x1D63 JUMP JUMPDEST CALLVALUE DUP1 ISZERO PUSH2 0x908 JUMPI PUSH1 0x0 DUP1 REVERT JUMPDEST POP PUSH2 0x350 PUSH2 0x917 CALLDATASIZE PUSH1 0x4 PUSH2 0x4E6E JUMP JUMPDEST PUSH1 0x0 SWAP1 DUP2 MSTORE PUSH1 0x1E PUSH1 0x20 MSTORE PUSH1 0x40 SWAP1 KECCAK256 SLOAD PUSH1 0xFF AND SWAP1 JUMP JUMPDEST CALLVALUE DUP1 ISZERO PUSH2 0x938 JUMPI PUSH1 0x0 DUP1 REVERT JUMPDEST POP PUSH2 0x350 PUSH2 0x947 CALLDATASIZE PUSH1 0x4 PUSH2 0x4E87 JUMP JUMPDEST PUSH2 0x1DF9 JUMP JUMPDEST CALLVALUE DUP1 ISZERO PUSH2 0x958 JUMPI PUSH1 0x0 DUP1 REVERT JUMPDEST POP PUSH2 0x999 PUSH2 0x967 CALLDATASIZE PUSH1 0x4 PUSH2 0x4E6E JUMP JUMPDEST PUSH1 0x2 PUSH1 0x20 DUP2 SWAP1 MSTORE PUSH1 0x0 SWAP2 DUP3 MSTORE PUSH1 0x40 SWAP1 SWAP2 KECCAK256 DUP1 SLOAD PUSH1 0x1 DUP3 ADD SLOAD SWAP3 DUP3 ADD SLOAD PUSH1 0x3 SWAP1 SWAP3 ADD SLOAD SWAP1 SWAP3 SWAP2 PUSH1 0x1 PUSH1 0x1 PUSH1 0xA0 SHL SUB AND SWAP1 DUP5 JUMP JUMPDEST PUSH1 0x40 MLOAD PUSH2 0x35C SWAP5 SWAP4 SWAP3 SWAP2 SWAP1 SWAP4 DUP5 MSTORE PUSH1 0x20 DUP5 ADD SWAP3 SWAP1 SWAP3 MSTORE PUSH1 0x1 PUSH1 0x1 PUSH1 0xA0 SHL SUB AND PUSH1 0x40 DUP4 ADD MSTORE PUSH1 0x60 DUP3 ADD MSTORE PUSH1 0x80 ADD SWAP1 JUMP JUMPDEST CALLVALUE DUP1 ISZERO PUSH2 0x9D4 JUMPI PUSH1 0x0 DUP1 REVERT JUMPDEST POP PUSH2 0x47A PUSH2 0x9E3 CALLDATASIZE PUSH1 0x4 PUSH2 0x50F2 JUMP JUMPDEST PUSH1 0x3 PUSH1 0x20 MSTORE PUSH1 0x0 SWAP1 DUP2 MSTORE PUSH1 0x40 SWAP1 KECCAK256 SLOAD DUP2 JUMP JUMPDEST CALLVALUE DUP1 ISZERO PUSH2 0xA01 JUMPI PUSH1 0x0 DUP1 REVERT JUMPDEST POP PUSH2 0x32F PUSH2 0xA10 CALLDATASIZE PUSH1 0x4 PUSH2 0x52B6 JUMP JUMPDEST PUSH2 0x1E29 JUMP JUMPDEST CALLVALUE DUP1 ISZERO PUSH2 0xA21 JUMPI PUSH1 0x0 DUP1 REVERT JUMPDEST POP PUSH2 0x350 PUSH2 0xA30 CALLDATASIZE PUSH1 0x4 PUSH2 0x4E6E JUMP JUMPDEST PUSH1 0x0 SWAP1 DUP2 MSTORE PUSH1 0x1D PUSH1 0x20 MSTORE PUSH1 0x40 SWAP1 KECCAK256 SLOAD PUSH1 0xFF AND SWAP1 JUMP JUMPDEST PUSH2 0x32F PUSH2 0xA53 CALLDATASIZE PUSH1 0x4 PUSH2 0x4E6E JUMP JUMPDEST PUSH2 0x1F20 JUMP JUMPDEST CALLVALUE DUP1 ISZERO PUSH2 0xA64 JUMPI PUSH1 0x0 DUP1 REVERT JUMPDEST POP PUSH2 0x47A PUSH2 0xA73 CALLDATASIZE PUSH1 0x4 PUSH2 0x4E6E JUMP JUMPDEST PUSH1 0x0 SWAP1 DUP2 MSTORE PUSH1 0x6 PUSH1 0x20 MSTORE PUSH1 0x40 SWAP1 KECCAK256 SLOAD SWAP1 JUMP JUMPDEST CALLVALUE DUP1 ISZERO PUSH2 0xA91 JUMPI PUSH1 0x0 DUP1 REVERT JUMPDEST POP PUSH2 0x350 PUSH2 0xAA0 CALLDATASIZE PUSH1 0x4 PUSH2 0x4ED0 JUMP JUMPDEST PUSH2 0x24AA JUMP JUMPDEST CALLVALUE DUP1 ISZERO PUSH2 0xAB1 JUMPI PUSH1 0x0 DUP1 REVERT JUMPDEST POP PUSH2 0x32F PUSH2 0xAC0 CALLDATASIZE PUSH1 0x4 PUSH2 0x530E JUMP JUMPDEST PUSH2 0x2560 JUMP JUMPDEST CALLVALUE DUP1 ISZERO PUSH2 0xAD1 JUMPI PUSH1 0x0 DUP1 REVERT JUMPDEST POP PUSH2 0x350 PUSH2 0xAE0 CALLDATASIZE PUSH1 0x4 PUSH2 0x50F2 JUMP JUMPDEST PUSH2 0x2580 JUMP JUMPDEST CALLVALUE DUP1 ISZERO PUSH2 0xAF1 JUMPI PUSH1 0x0 DUP1 REVERT JUMPDEST POP PUSH2 0x47A PUSH2 0xB00 CALLDATASIZE PUSH1 0x4 PUSH2 0x4E6E JUMP JUMPDEST PUSH1 0x0 SWAP1 DUP2 MSTORE PUSH1 0x14 PUSH1 0x20 MSTORE PUSH1 0x40 SWAP1 KECCAK256 SLOAD SWAP1 JUMP JUMPDEST CALLVALUE DUP1 ISZERO PUSH2 0xB1E JUMPI PUSH1 0x0 DUP1 REVERT JUMPDEST POP PUSH2 0x350 PUSH2 0xB2D CALLDATASIZE PUSH1 0x4 PUSH2 0x510F JUMP JUMPDEST PUSH1 0x0 SWAP2 DUP3 MSTORE PUSH1 0x16 PUSH1 0x20 MSTORE PUSH1 0x40 SWAP1 SWAP2 KECCAK256 PUSH1 0x1 ADD SLOAD GT SWAP1 JUMP JUMPDEST CALLVALUE DUP1 ISZERO PUSH2 0xB50 JUMPI PUSH1 0x0 DUP1 REVERT JUMPDEST POP PUSH2 0x32F PUSH2 0xB5F CALLDATASIZE PUSH1 0x4 PUSH2 0x536E JUMP JUMPDEST PUSH2 0x25B2 JUMP JUMPDEST CALLVALUE DUP1 ISZERO PUSH2 0xB70 JUMPI PUSH1 0x0 DUP1 REVERT JUMPDEST POP PUSH2 0x350 PUSH2 0xB7F CALLDATASIZE PUSH1 0x4 PUSH2 0x510F JUMP JUMPDEST PUSH2 0x2632 JUMP JUMPDEST PUSH2 0xB8F DUP4 DUP4 DUP4 PUSH2 0x2663 JUMP JUMPDEST PUSH1 0x40 MLOAD PUSH4 0x36B0B4B7 PUSH1 0xE1 SHL DUP2 MSTORE PUSH1 0xE SWAP1 PUSH1 0x4 ADD SWAP1 DUP2 MSTORE PUSH1 0x40 DUP1 MLOAD PUSH1 0x20 SWAP3 DUP2 SWAP1 SUB DUP4 ADD SWAP1 KECCAK256 PUSH1 0x1 PUSH1 0x1 PUSH1 0xA0 SHL SUB DUP7 AND PUSH1 0x0 SWAP1 DUP2 MSTORE SWAP3 MSTORE SWAP1 KECCAK256 SLOAD ISZERO DUP1 ISZERO PUSH2 0xBDC JUMPI POP PUSH1 0x1 PUSH1 0x1 PUSH1 0xA0 SHL SUB DUP4 AND ISZERO ISZERO JUMPDEST ISZERO PUSH2 0xC1F JUMPI PUSH1 0x1 PUSH1 0xD PUSH1 0x40 MLOAD PUSH2 0xBFC SWAP1 PUSH4 0x36B0B4B7 PUSH1 0xE1 SHL DUP2 MSTORE PUSH1 0x4 ADD SWAP1 JUMP JUMPDEST SWAP1 DUP2 MSTORE PUSH1 0x20 ADD PUSH1 0x40 MLOAD DUP1 SWAP2 SUB SWAP1 KECCAK256 PUSH1 0x0 DUP3 DUP3 SLOAD PUSH2 0xC19 SWAP2 SWAP1 PUSH2 0x53E2 JUMP JUMPDEST SWAP1 SWAP2 SSTORE POP POP JUMPDEST DUP2 PUSH1 0xE PUSH1 0x40 MLOAD PUSH2 0xC39 SWAP1 PUSH4 0x36B0B4B7 PUSH1 0xE1 SHL DUP2 MSTORE PUSH1 0x4 ADD SWAP1 JUMP JUMPDEST SWAP1 DUP2 MSTORE PUSH1 0x20 ADD PUSH1 0x40 MLOAD DUP1 SWAP2 SUB SWAP1 KECCAK256 PUSH1 0x0 DUP6 PUSH1 0x1 PUSH1 0x1 PUSH1 0xA0 SHL SUB AND PUSH1 0x1 PUSH1 0x1 PUSH1 0xA0 SHL SUB AND DUP2 MSTORE PUSH1 0x20 ADD SWAP1 DUP2 MSTORE PUSH1 0x20 ADD PUSH1 0x0 KECCAK256 PUSH1 0x0 DUP3 DUP3 SLOAD PUSH2 0xC79 SWAP2 SWAP1 PUSH2 0x53E2 JUMP JUMPDEST SWAP1 SWAP2 SSTORE POP POP PUSH1 0x40 DUP1 MLOAD PUSH1 0x1 PUSH1 0x1 PUSH1 0xA0 SHL SUB DUP1 DUP7 AND DUP3 MSTORE PUSH1 0x20 DUP3 ADD DUP6 SWAP1 MSTORE DUP4 AND SWAP2 DUP2 ADD SWAP2 SWAP1 SWAP2 MSTORE PUSH32 0xDE49BBE8E448CDFA40E6FA0D22592BE9A03B28BA746527635DBE5235416659CF SWAP1 PUSH1 0x60 ADD JUMPDEST PUSH1 0x40 MLOAD DUP1 SWAP2 SUB SWAP1 LOG1 POP POP POP JUMP JUMPDEST DUP2 PUSH2 0xCDD DUP2 CALLER PUSH2 0xF02 JUMP JUMPDEST PUSH2 0xCE6 JUMPI PUSH1 0x0 DUP1 REVERT JUMPDEST DUP2 PUSH1 0x2 DUP2 GT ISZERO PUSH2 0xCF8 JUMPI PUSH2 0xCF8 PUSH2 0x53F5 JUMP JUMPDEST PUSH1 0x11 DUP5 PUSH1 0x40 MLOAD PUSH2 0xD08 SWAP2 SWAP1 PUSH2 0x542F JUMP JUMPDEST SWAP1 DUP2 MSTORE PUSH1 0x40 MLOAD SWAP1 DUP2 SWAP1 SUB PUSH1 0x20 ADD SWAP1 KECCAK256 SLOAD PUSH1 0xFF AND PUSH1 0x2 DUP2 GT ISZERO PUSH2 0xD2C JUMPI PUSH2 0xD2C PUSH2 0x53F5 JUMP JUMPDEST SUB PUSH2 0xD63 JUMPI PUSH1 0x40 MLOAD PUSH3 0x461BCD PUSH1 0xE5 SHL DUP2 MSTORE PUSH1 0x20 PUSH1 0x4 DUP3 ADD MSTORE PUSH1 0x2 PUSH1 0x24 DUP3 ADD MSTORE PUSH2 0x4153 PUSH1 0xF0 SHL PUSH1 0x44 DUP3 ADD MSTORE PUSH1 0x64 ADD JUMPDEST PUSH1 0x40 MLOAD DUP1 SWAP2 SUB SWAP1 REVERT JUMPDEST PUSH2 0xD6D DUP4 DUP4 PUSH2 0x26B8 JUMP JUMPDEST POP POP POP JUMP JUMPDEST PUSH1 0x40 MLOAD DUP1 PUSH1 0x40 ADD PUSH1 0x40 MSTORE DUP1 PUSH1 0x2 DUP2 MSTORE PUSH1 0x20 ADD PUSH2 0x6C45 PUSH1 0xF0 SHL DUP2 MSTORE POP PUSH2 0xD97 DUP2 CALLER PUSH2 0x24AA JUMP JUMPDEST PUSH2 0xDA0 JUMPI PUSH1 0x0 DUP1 REVERT JUMPDEST PUSH2 0xDA8 PUSH2 0x2767 JUMP JUMPDEST POP JUMP JUMPDEST PUSH1 0x0 DUP2 DUP2 MSTORE PUSH1 0x2 PUSH1 0x20 DUP2 SWAP1 MSTORE PUSH1 0x40 SWAP1 SWAP2 KECCAK256 ADD SLOAD DUP2 SWAP1 PUSH1 0x1 PUSH1 0x1 PUSH1 0xA0 SHL SUB AND CALLER EQ PUSH2 0xDE7 JUMPI PUSH1 0x40 MLOAD PUSH3 0x461BCD PUSH1 0xE5 SHL DUP2 MSTORE PUSH1 0x4 ADD PUSH2 0xD5A SWAP1 PUSH2 0x544B JUMP JUMPDEST DUP2 PUSH2 0xE01 DUP2 PUSH1 0x0 DUP1 SLOAD SWAP2 DUP2 MSTORE PUSH1 0x6 PUSH1 0x20 MSTORE PUSH1 0x40 SWAP1 KECCAK256 SLOAD GT SWAP1 JUMP JUMPDEST PUSH2 0xE1D JUMPI PUSH1 0x40 MLOAD PUSH3 0x461BCD PUSH1 0xE5 SHL DUP2 MSTORE PUSH1 0x4 ADD PUSH2 0xD5A SWAP1 PUSH2 0x5467 JUMP JUMPDEST PUSH1 0x0 DUP4 DUP2 MSTORE PUSH1 0x4 PUSH1 0x20 MSTORE PUSH1 0x40 SWAP1 KECCAK256 SLOAD PUSH1 0xFF AND PUSH2 0xE60 JUMPI PUSH1 0x40 MLOAD PUSH3 0x461BCD PUSH1 0xE5 SHL DUP2 MSTORE PUSH1 0x20 PUSH1 0x4 DUP3 ADD MSTORE PUSH1 0x2 PUSH1 0x24 DUP3 ADD MSTORE PUSH2 0x4E53 PUSH1 0xF0 SHL PUSH1 0x44 DUP3 ADD MSTORE PUSH1 0x64 ADD PUSH2 0xD5A JUMP JUMPDEST PUSH2 0xD6D DUP4 PUSH2 0x27B9 JUMP JUMPDEST PUSH1 0x0 PUSH1 0xD DUP3 PUSH1 0x40 MLOAD PUSH2 0xE7B SWAP2 SWAP1 PUSH2 0x542F JUMP JUMPDEST SWAP1 DUP2 MSTORE PUSH1 0x20 ADD PUSH1 0x40 MLOAD DUP1 SWAP2 SUB SWAP1 KECCAK256 SLOAD PUSH1 0x0 EQ DUP1 ISZERO PUSH2 0xEC1 JUMPI POP PUSH1 0xE DUP3 PUSH1 0x40 MLOAD PUSH2 0xEA4 SWAP2 SWAP1 PUSH2 0x542F JUMP JUMPDEST SWAP1 DUP2 MSTORE PUSH1 0x40 DUP1 MLOAD PUSH1 0x20 SWAP3 DUP2 SWAP1 SUB DUP4 ADD SWAP1 KECCAK256 PUSH1 0x0 DUP1 DUP1 MSTORE SWAP3 MSTORE SWAP1 KECCAK256 SLOAD ISZERO JUMPDEST SWAP3 SWAP2 POP POP JUMP JUMPDEST PUSH1 0x40 MLOAD DUP1 PUSH1 0x40 ADD PUSH1 0x40 MSTORE DUP1 PUSH1 0x2 DUP2 MSTORE PUSH1 0x20 ADD PUSH2 0x1911 PUSH1 0xF2 SHL DUP2 MSTORE POP PUSH2 0xEEC DUP2 CALLER PUSH2 0x24AA JUMP JUMPDEST PUSH2 0xEF5 JUMPI PUSH1 0x0 DUP1 REVERT JUMPDEST PUSH2 0xEFE DUP3 PUSH2 0x2808 JUMP JUMPDEST POP POP JUMP JUMPDEST PUSH1 0x0 PUSH2 0xF0D DUP3 PUSH2 0x2580 JUMP JUMPDEST DUP1 PUSH2 0xF1A JUMPI POP PUSH1 0xB SLOAD PUSH1 0xFF AND JUMPDEST PUSH2 0xF26 JUMPI POP PUSH1 0x0 PUSH2 0xEC1 JUMP JUMPDEST PUSH1 0x2 PUSH1 0x10 DUP5 PUSH1 0x40 MLOAD PUSH2 0xF38 SWAP2 SWAP1 PUSH2 0x542F JUMP JUMPDEST SWAP1 DUP2 MSTORE PUSH1 0x40 DUP1 MLOAD PUSH1 0x20 SWAP3 DUP2 SWAP1 SUB DUP4 ADD SWAP1 KECCAK256 PUSH1 0x1 PUSH1 0x1 PUSH1 0xA0 SHL SUB DUP7 AND PUSH1 0x0 SWAP1 DUP2 MSTORE SWAP3 MSTORE SWAP1 KECCAK256 SLOAD PUSH1 0xFF AND PUSH1 0x2 DUP2 GT ISZERO PUSH2 0xF71 JUMPI PUSH2 0xF71 PUSH2 0x53F5 JUMP JUMPDEST EQ DUP1 PUSH2 0xFB0 JUMPI POP PUSH1 0x2 PUSH1 0x11 DUP5 PUSH1 0x40 MLOAD PUSH2 0xF8A SWAP2 SWAP1 PUSH2 0x542F JUMP JUMPDEST SWAP1 DUP2 MSTORE PUSH1 0x40 MLOAD SWAP1 DUP2 SWAP1 SUB PUSH1 0x20 ADD SWAP1 KECCAK256 SLOAD PUSH1 0xFF AND PUSH1 0x2 DUP2 GT ISZERO PUSH2 0xFAE JUMPI PUSH2 0xFAE PUSH2 0x53F5 JUMP JUMPDEST EQ JUMPDEST SWAP4 SWAP3 POP POP POP JUMP JUMPDEST PUSH1 0x40 MLOAD DUP1 PUSH1 0x40 ADD PUSH1 0x40 MSTORE DUP1 PUSH1 0x2 DUP2 MSTORE PUSH1 0x20 ADD PUSH2 0x34AB PUSH1 0xF1 SHL DUP2 MSTORE POP PUSH2 0xFDC DUP2 CALLER PUSH2 0x24AA JUMP JUMPDEST PUSH2 0xFE5 JUMPI PUSH1 0x0 DUP1 REVERT JUMPDEST PUSH2 0xD6D DUP4 DUP4 PUSH2 0x28F3 JUMP JUMPDEST PUSH1 0x0 DUP4 DUP2 MSTORE PUSH1 0x2 PUSH1 0x20 DUP2 SWAP1 MSTORE PUSH1 0x40 SWAP1 SWAP2 KECCAK256 ADD SLOAD DUP4 SWAP1 PUSH1 0x1 PUSH1 0x1 PUSH1 0xA0 SHL SUB AND CALLER EQ PUSH2 0x102B JUMPI PUSH1 0x40 MLOAD PUSH3 0x461BCD PUSH1 0xE5 SHL DUP2 MSTORE PUSH1 0x4 ADD PUSH2 0xD5A SWAP1 PUSH2 0x544B JUMP JUMPDEST PUSH1 0x0 DUP4 DUP2 MSTORE PUSH1 0x1D PUSH1 0x20 MSTORE PUSH1 0x40 SWAP1 KECCAK256 SLOAD DUP4 SWAP1 PUSH1 0xFF AND PUSH2 0x1071 JUMPI PUSH1 0x40 MLOAD PUSH3 0x461BCD PUSH1 0xE5 SHL DUP2 MSTORE PUSH1 0x20 PUSH1 0x4 DUP3 ADD MSTORE PUSH1 0x3 PUSH1 0x24 DUP3 ADD MSTORE PUSH3 0x524E5 PUSH1 0xEC SHL PUSH1 0x44 DUP3 ADD MSTORE PUSH1 0x64 ADD PUSH2 0xD5A JUMP JUMPDEST PUSH1 0x1 DUP1 SLOAD PUSH1 0xFF AND ISZERO ISZERO EQ PUSH2 0x1097 JUMPI PUSH1 0x40 MLOAD PUSH3 0x461BCD PUSH1 0xE5 SHL DUP2 MSTORE PUSH1 0x4 ADD PUSH2 0xD5A SWAP1 PUSH2 0x5483 JUMP JUMPDEST PUSH1 0x0 DUP5 DUP2 MSTORE PUSH1 0x1C PUSH1 0x20 SWAP1 DUP2 MSTORE PUSH1 0x40 DUP1 DUP4 KECCAK256 CALLER DUP5 MSTORE PUSH1 0x3 DUP4 MSTORE DUP2 DUP5 KECCAK256 SLOAD DUP5 MSTORE SWAP1 SWAP2 MSTORE SWAP1 KECCAK256 SLOAD PUSH1 0xFF AND ISZERO PUSH2 0x10C8 JUMPI PUSH1 0x0 DUP1 REVERT JUMPDEST PUSH2 0x10D2 DUP6 DUP6 PUSH2 0x2632 JUMP JUMPDEST PUSH2 0x1104 JUMPI PUSH1 0x40 MLOAD PUSH3 0x461BCD PUSH1 0xE5 SHL DUP2 MSTORE PUSH1 0x20 PUSH1 0x4 DUP3 ADD MSTORE PUSH1 0x3 PUSH1 0x24 DUP3 ADD MSTORE PUSH3 0x29A72B PUSH1 0xE9 SHL PUSH1 0x44 DUP3 ADD MSTORE PUSH1 0x64 ADD PUSH2 0xD5A JUMP JUMPDEST PUSH1 0x0 DUP5 DUP2 MSTORE PUSH1 0x1C PUSH1 0x20 SWAP1 DUP2 MSTORE PUSH1 0x40 DUP1 DUP4 KECCAK256 DUP9 DUP5 MSTORE SWAP1 SWAP2 MSTORE SWAP1 KECCAK256 DUP1 SLOAD PUSH1 0xFF NOT AND PUSH1 0x1 OR SWAP1 SSTORE DUP3 ISZERO PUSH2 0x1198 JUMPI PUSH1 0x0 DUP5 DUP2 MSTORE PUSH1 0x17 PUSH1 0x20 SWAP1 DUP2 MSTORE PUSH1 0x40 DUP1 DUP4 KECCAK256 SLOAD PUSH1 0x18 DUP4 MSTORE DUP2 DUP5 KECCAK256 SLOAD DUP10 DUP6 MSTORE PUSH1 0x2 SWAP1 SWAP4 MSTORE SWAP1 DUP4 KECCAK256 DUP1 SLOAD PUSH1 0x1 SWAP1 SWAP2 ADD SLOAD DUP5 SWAP4 PUSH2 0x1169 SWAP4 SWAP3 SWAP1 SWAP2 PUSH2 0x2A58 JUMP JUMPDEST SWAP2 POP SWAP2 POP PUSH2 0x1177 DUP3 DUP3 PUSH2 0x2A94 JUMP JUMPDEST PUSH1 0x0 DUP9 DUP2 MSTORE PUSH1 0x17 PUSH1 0x20 SWAP1 DUP2 MSTORE PUSH1 0x40 DUP1 DUP4 KECCAK256 PUSH1 0x18 SWAP1 SWAP3 MSTORE SWAP1 SWAP2 KECCAK256 SWAP2 SWAP1 SWAP2 SSTORE SSTORE POP POP JUMPDEST PUSH1 0x0 DUP5 DUP2 MSTORE PUSH1 0x19 PUSH1 0x20 SWAP1 DUP2 MSTORE PUSH1 0x40 DUP1 DUP4 KECCAK256 SLOAD PUSH1 0x1A DUP4 MSTORE DUP2 DUP5 KECCAK256 SLOAD DUP10 DUP6 MSTORE PUSH1 0x2 SWAP1 SWAP4 MSTORE SWAP1 DUP4 KECCAK256 DUP1 SLOAD PUSH1 0x1 SWAP1 SWAP2 ADD SLOAD DUP5 SWAP4 PUSH2 0x11D3 SWAP4 SWAP3 SWAP1 SWAP2 PUSH2 0x2A58 JUMP JUMPDEST SWAP2 POP SWAP2 POP PUSH2 0x11E1 DUP3 DUP3 PUSH2 0x2A94 JUMP JUMPDEST PUSH1 0x0 DUP9 DUP2 MSTORE PUSH1 0x19 PUSH1 0x20 SWAP1 DUP2 MSTORE PUSH1 0x40 DUP1 DUP4 KECCAK256 PUSH1 0x1A DUP4 MSTORE SWAP3 DUP2 SWAP1 KECCAK256 SWAP4 SWAP1 SWAP4 SSTORE SWAP3 SWAP1 SSTORE DUP1 MLOAD DUP9 DUP2 MSTORE DUP8 ISZERO ISZERO SWAP3 DUP2 ADD SWAP3 SWAP1 SWAP3 MSTORE CALLER DUP3 DUP3 ADD MSTORE MLOAD PUSH32 0x4A341F5494C396C29C9E30033EC7900B3B51340AC726DC58726E583EA2ACEEB2 SWAP2 DUP2 SWAP1 SUB PUSH1 0x60 ADD SWAP1 LOG1 PUSH1 0x0 PUSH2 0x124B DUP8 PUSH2 0x1C91 JUMP JUMPDEST SWAP1 POP DUP1 DUP1 PUSH2 0x127D JUMPI POP PUSH1 0x0 DUP8 DUP2 MSTORE PUSH1 0x1A PUSH1 0x20 SWAP1 DUP2 MSTORE PUSH1 0x40 DUP1 DUP4 KECCAK256 SLOAD PUSH1 0x19 SWAP1 SWAP3 MSTORE SWAP1 SWAP2 KECCAK256 SLOAD PUSH2 0x1279 SWAP2 SWAP1 PUSH2 0x54B5 JUMP JUMPDEST PUSH1 0x1 EQ JUMPDEST ISZERO PUSH2 0x12ED JUMPI PUSH1 0x0 DUP8 DUP2 MSTORE PUSH1 0x1D PUSH1 0x20 MSTORE PUSH1 0x40 SWAP1 KECCAK256 DUP1 SLOAD PUSH1 0xFF NOT AND SWAP1 SSTORE DUP1 ISZERO PUSH2 0x12B8 JUMPI PUSH1 0x0 DUP8 DUP2 MSTORE PUSH1 0x1E PUSH1 0x20 MSTORE PUSH1 0x40 SWAP1 KECCAK256 DUP1 SLOAD PUSH1 0xFF NOT AND PUSH1 0x1 OR SWAP1 SSTORE JUMPDEST PUSH1 0x40 MLOAD DUP8 DUP2 MSTORE PUSH32 0xB7AF3044D10DC1BE59F482D5C460C7C711F80137A36184CDF4F49D973E95ACB1 SWAP1 PUSH1 0x20 ADD JUMPDEST PUSH1 0x40 MLOAD DUP1 SWAP2 SUB SWAP1 LOG1 JUMPDEST POP POP POP POP POP POP POP POP JUMP JUMPDEST PUSH1 0x0 PUSH1 0xE DUP4 PUSH1 0x40 MLOAD PUSH2 0x1309 SWAP2 SWAP1 PUSH2 0x542F JUMP JUMPDEST SWAP1 DUP2 MSTORE PUSH1 0x40 DUP1 MLOAD SWAP2 DUP3 SWAP1 SUB PUSH1 0x20 SWAP1 DUP2 ADD SWAP1 SWAP3 KECCAK256 PUSH1 0x1 PUSH1 0x1 PUSH1 0xA0 SHL SUB DUP6 AND PUSH1 0x0 SWAP1 DUP2 MSTORE SWAP3 MSTORE SWAP1 KECCAK256 SLOAD SWAP1 POP SWAP3 SWAP2 POP POP JUMP JUMPDEST PUSH1 0x40 MLOAD DUP1 PUSH1 0x40 ADD PUSH1 0x40 MSTORE DUP1 PUSH1 0x2 DUP2 MSTORE PUSH1 0x20 ADD PUSH2 0x36A1 PUSH1 0xF1 SHL DUP2 MSTORE POP PUSH2 0x135D DUP2 CALLER PUSH2 0x24AA JUMP JUMPDEST PUSH2 0x1366 JUMPI PUSH1 0x0 DUP1 REVERT JUMPDEST PUSH1 0x1 DUP1 SLOAD PUSH1 0xFF AND ISZERO ISZERO EQ PUSH2 0x138C JUMPI PUSH1 0x40 MLOAD PUSH3 0x461BCD PUSH1 0xE5 SHL DUP2 MSTORE PUSH1 0x4 ADD PUSH2 0xD5A SWAP1 PUSH2 0x5483 JUMP JUMPDEST PUSH2 0xD6D DUP4 DUP4 PUSH2 0x2B20 JUMP JUMPDEST PUSH1 0x40 MLOAD DUP1 PUSH1 0x40 ADD PUSH1 0x40 MSTORE DUP1 PUSH1 0x2 DUP2 MSTORE PUSH1 0x20 ADD PUSH2 0x36A1 PUSH1 0xF1 SHL DUP2 MSTORE POP PUSH2 0x13BB DUP2 CALLER PUSH2 0xF02 JUMP JUMPDEST PUSH2 0x13C4 JUMPI PUSH1 0x0 DUP1 REVERT JUMPDEST DUP3 PUSH2 0x13CF DUP2 CALLER PUSH2 0x1CF8 JUMP JUMPDEST PUSH2 0x13D8 JUMPI PUSH1 0x0 DUP1 REVERT JUMPDEST PUSH2 0x13E2 DUP5 DUP5 PUSH2 0x2C32 JUMP JUMPDEST POP POP POP POP JUMP JUMPDEST PUSH2 0x13F1 CALLER PUSH2 0x2580 JUMP JUMPDEST PUSH2 0x1422 JUMPI PUSH1 0x40 MLOAD PUSH3 0x461BCD PUSH1 0xE5 SHL DUP2 MSTORE PUSH1 0x20 PUSH1 0x4 DUP3 ADD MSTORE PUSH1 0x2 PUSH1 0x24 DUP3 ADD MSTORE PUSH2 0xAA9 PUSH1 0xF3 SHL PUSH1 0x44 DUP3 ADD MSTORE PUSH1 0x64 ADD PUSH2 0xD5A JUMP JUMPDEST PUSH2 0x142B DUP2 PUSH2 0x1A10 JUMP JUMPDEST PUSH2 0x1447 JUMPI PUSH1 0x40 MLOAD PUSH3 0x461BCD PUSH1 0xE5 SHL DUP2 MSTORE PUSH1 0x4 ADD PUSH2 0xD5A SWAP1 PUSH2 0x54C9 JUMP JUMPDEST CALLER PUSH1 0x0 SWAP1 DUP2 MSTORE PUSH1 0x3 PUSH1 0x20 SWAP1 DUP2 MSTORE PUSH1 0x40 DUP1 DUP4 KECCAK256 SLOAD PUSH1 0x1 PUSH1 0x1 PUSH1 0xA0 SHL SUB DUP6 AND DUP5 MSTORE PUSH1 0xA DUP4 MSTORE DUP2 DUP5 KECCAK256 DUP2 DUP6 MSTORE SWAP1 SWAP3 MSTORE SWAP1 SWAP2 KECCAK256 SLOAD PUSH1 0xFF AND ISZERO PUSH2 0x14AC JUMPI PUSH1 0x40 MLOAD PUSH3 0x461BCD PUSH1 0xE5 SHL DUP2 MSTORE PUSH1 0x20 PUSH1 0x4 DUP3 ADD MSTORE PUSH1 0x2 PUSH1 0x24 DUP3 ADD MSTORE PUSH2 0x4143 PUSH1 0xF0 SHL PUSH1 0x44 DUP3 ADD MSTORE PUSH1 0x64 ADD PUSH2 0xD5A JUMP JUMPDEST PUSH1 0x1 PUSH1 0x1 PUSH1 0xA0 SHL SUB DUP3 AND PUSH1 0x0 DUP2 DUP2 MSTORE PUSH1 0xA PUSH1 0x20 SWAP1 DUP2 MSTORE PUSH1 0x40 DUP1 DUP4 KECCAK256 DUP6 DUP5 MSTORE DUP3 MSTORE DUP1 DUP4 KECCAK256 DUP1 SLOAD PUSH1 0xFF NOT AND PUSH1 0x1 SWAP1 DUP2 OR SWAP1 SWAP2 SSTORE PUSH1 0x2 DUP4 MSTORE DUP2 DUP5 KECCAK256 SWAP1 DUP2 ADD SLOAD SWAP1 SLOAD SWAP5 DUP5 MSTORE PUSH1 0x8 SWAP1 SWAP3 MSTORE DUP3 KECCAK256 SLOAD SWAP2 SWAP3 SWAP1 SWAP2 PUSH2 0x1503 SWAP2 SWAP1 PUSH2 0x54E5 JUMP JUMPDEST PUSH2 0x150D SWAP2 SWAP1 PUSH2 0x54B5 JUMP JUMPDEST SWAP1 POP DUP1 PUSH1 0x0 SUB PUSH2 0x1539 JUMPI PUSH1 0x40 MLOAD PUSH3 0x461BCD PUSH1 0xE5 SHL DUP2 MSTORE PUSH1 0x20 PUSH1 0x4 DUP3 ADD MSTORE PUSH1 0x0 PUSH1 0x24 DUP3 ADD MSTORE PUSH1 0x44 ADD PUSH2 0xD5A JUMP JUMPDEST PUSH1 0x1 PUSH1 0x1 PUSH1 0xA0 SHL SUB DUP4 AND PUSH1 0x0 SWAP1 DUP2 MSTORE PUSH1 0x9 PUSH1 0x20 MSTORE PUSH1 0x40 DUP2 KECCAK256 DUP1 SLOAD DUP4 SWAP3 SWAP1 PUSH2 0x1561 SWAP1 DUP5 SWAP1 PUSH2 0x54FC JUMP JUMPDEST SWAP1 SWAP2 SSTORE POP PUSH2 0x1572 SWAP1 POP DUP4 DUP3 CALLER PUSH2 0x2CEE JUMP JUMPDEST PUSH1 0x40 DUP1 MLOAD PUSH1 0x1 PUSH1 0x1 PUSH1 0xA0 SHL SUB DUP6 AND DUP2 MSTORE PUSH1 0x20 DUP2 ADD DUP4 SWAP1 MSTORE CALLER SWAP2 DUP2 ADD SWAP2 SWAP1 SWAP2 MSTORE PUSH32 0x1397D005A56670CBE383372BD4743EAA779AF18164D00DC6D12A6659418E1BBF SWAP1 PUSH1 0x60 ADD PUSH2 0xCC5 JUMP JUMPDEST PUSH1 0x0 DUP3 DUP2 MSTORE PUSH1 0x2 PUSH1 0x20 DUP2 SWAP1 MSTORE PUSH1 0x40 SWAP1 SWAP2 KECCAK256 ADD SLOAD DUP3 SWAP1 PUSH1 0x1 PUSH1 0x1 PUSH1 0xA0 SHL SUB AND CALLER EQ PUSH2 0x15F7 JUMPI PUSH1 0x40 MLOAD PUSH3 0x461BCD PUSH1 0xE5 SHL DUP2 MSTORE PUSH1 0x4 ADD PUSH2 0xD5A SWAP1 PUSH2 0x544B JUMP JUMPDEST PUSH1 0x0 DUP3 DUP2 MSTORE PUSH1 0x12 PUSH1 0x20 MSTORE PUSH1 0x40 SWAP1 KECCAK256 SLOAD DUP3 SWAP1 PUSH1 0xFF AND PUSH2 0x1614 JUMPI PUSH1 0x0 DUP1 REVERT JUMPDEST PUSH1 0x1 DUP1 SLOAD PUSH1 0xFF AND ISZERO ISZERO EQ PUSH2 0x163A JUMPI PUSH1 0x40 MLOAD PUSH3 0x461BCD PUSH1 0xE5 SHL DUP2 MSTORE PUSH1 0x4 ADD PUSH2 0xD5A SWAP1 PUSH2 0x5483 JUMP JUMPDEST PUSH2 0x1644 DUP5 DUP5 PUSH2 0x2632 JUMP JUMPDEST PUSH2 0x1676 JUMPI PUSH1 0x40 MLOAD PUSH3 0x461BCD PUSH1 0xE5 SHL DUP2 MSTORE PUSH1 0x20 PUSH1 0x4 DUP3 ADD MSTORE PUSH1 0x3 PUSH1 0x24 DUP3 ADD MSTORE PUSH3 0x2720A3 PUSH1 0xE9 SHL PUSH1 0x44 DUP3 ADD MSTORE PUSH1 0x64 ADD PUSH2 0xD5A JUMP JUMPDEST PUSH1 0x0 DUP4 DUP2 MSTORE PUSH1 0x15 PUSH1 0x20 SWAP1 DUP2 MSTORE PUSH1 0x40 DUP1 DUP4 KECCAK256 DUP8 DUP5 MSTORE SWAP1 SWAP2 MSTORE SWAP1 KECCAK256 SLOAD PUSH1 0xFF AND ISZERO PUSH2 0x16C5 JUMPI PUSH1 0x40 MLOAD PUSH3 0x461BCD PUSH1 0xE5 SHL DUP2 MSTORE PUSH1 0x20 PUSH1 0x4 DUP3 ADD MSTORE PUSH1 0x2 PUSH1 0x24 DUP3 ADD MSTORE PUSH2 0x4143 PUSH1 0xF0 SHL PUSH1 0x44 DUP3 ADD MSTORE PUSH1 0x64 ADD PUSH2 0xD5A JUMP JUMPDEST PUSH1 0x0 DUP4 DUP2 MSTORE PUSH1 0x15 PUSH1 0x20 SWAP1 DUP2 MSTORE PUSH1 0x40 DUP1 DUP4 KECCAK256 DUP8 DUP5 MSTORE DUP3 MSTORE DUP1 DUP4 KECCAK256 DUP1 SLOAD PUSH1 0xFF NOT AND PUSH1 0x1 SWAP1 DUP2 OR SWAP1 SWAP2 SSTORE PUSH1 0x2 DUP4 MSTORE DUP2 DUP5 KECCAK256 DUP1 DUP3 ADD SLOAD SWAP1 SLOAD DUP9 DUP7 MSTORE PUSH1 0x13 SWAP1 SWAP5 MSTORE SWAP2 DUP5 KECCAK256 ADD SLOAD SWAP1 SWAP2 PUSH2 0x1711 SWAP2 PUSH2 0x54E5 JUMP JUMPDEST PUSH2 0x171B SWAP2 SWAP1 PUSH2 0x54B5 JUMP JUMPDEST SWAP1 POP DUP1 PUSH1 0x0 SUB PUSH2 0x1753 JUMPI PUSH1 0x40 MLOAD PUSH3 0x461BCD PUSH1 0xE5 SHL DUP2 MSTORE PUSH1 0x20 PUSH1 0x4 DUP3 ADD MSTORE PUSH1 0x3 PUSH1 0x24 DUP3 ADD MSTORE PUSH3 0x445453 PUSH1 0xE8 SHL PUSH1 0x44 DUP3 ADD MSTORE PUSH1 0x64 ADD PUSH2 0xD5A JUMP JUMPDEST PUSH1 0x0 DUP5 DUP2 MSTORE PUSH1 0x14 PUSH1 0x20 MSTORE PUSH1 0x40 DUP2 KECCAK256 DUP1 SLOAD DUP4 SWAP3 SWAP1 PUSH2 0x1771 SWAP1 DUP5 SWAP1 PUSH2 0x54FC JUMP JUMPDEST SWAP1 SWAP2 SSTORE POP POP PUSH1 0x0 DUP5 DUP2 MSTORE PUSH1 0x13 PUSH1 0x20 MSTORE PUSH1 0x40 SWAP1 KECCAK256 SLOAD PUSH2 0x1799 SWAP1 PUSH1 0x1 PUSH1 0x1 PUSH1 0xA0 SHL SUB AND DUP3 CALLER PUSH2 0x2CEE JUMP JUMPDEST PUSH1 0x40 DUP1 MLOAD PUSH1 0x20 DUP2 ADD DUP7 SWAP1 MSTORE SWAP1 DUP2 ADD DUP3 SWAP1 MSTORE PUSH1 0x0 DUP1 MLOAD PUSH1 0x20 PUSH2 0x5F88 DUP4 CODECOPY DUP2 MLOAD SWAP2 MSTORE SWAP1 PUSH1 0x60 ADD PUSH1 0x40 DUP1 MLOAD PUSH1 0x1F NOT DUP2 DUP5 SUB ADD DUP2 MSTORE SWAP1 DUP3 SWAP1 MSTORE PUSH2 0x17D9 SWAP2 CALLER SWAP1 PUSH2 0x553B JUMP JUMPDEST PUSH1 0x40 MLOAD DUP1 SWAP2 SUB SWAP1 LOG1 POP POP POP POP POP JUMP JUMPDEST PUSH1 0x40 MLOAD DUP1 PUSH1 0x40 ADD PUSH1 0x40 MSTORE DUP1 PUSH1 0x2 DUP2 MSTORE PUSH1 0x20 ADD PUSH2 0x36A1 PUSH1 0xF1 SHL DUP2 MSTORE POP PUSH2 0x180D DUP2 CALLER PUSH2 0xF02 JUMP JUMPDEST PUSH2 0x1816 JUMPI PUSH1 0x0 DUP1 REVERT JUMPDEST DUP2 PUSH2 0x1821 DUP2 CALLER PUSH2 0x1CF8 JUMP JUMPDEST PUSH2 0x182A JUMPI PUSH1 0x0 DUP1 REVERT JUMPDEST PUSH2 0xD6D DUP4 PUSH2 0x2F1A JUMP JUMPDEST PUSH1 0x40 MLOAD DUP1 PUSH1 0x40 ADD PUSH1 0x40 MSTORE DUP1 PUSH1 0x2 DUP2 MSTORE PUSH1 0x20 ADD PUSH2 0x695 PUSH1 0xF4 SHL DUP2 MSTORE POP PUSH2 0x1858 DUP2 CALLER PUSH2 0x24AA JUMP JUMPDEST PUSH2 0x1861 JUMPI PUSH1 0x0 DUP1 REVERT JUMPDEST PUSH2 0xD6D DUP4 DUP4 PUSH2 0x309F JUMP JUMPDEST PUSH1 0x0 DUP3 DUP2 MSTORE PUSH1 0x2 PUSH1 0x20 DUP2 SWAP1 MSTORE PUSH1 0x40 SWAP1 SWAP2 KECCAK256 ADD SLOAD DUP3 SWAP1 PUSH1 0x1 PUSH1 0x1 PUSH1 0xA0 SHL SUB AND CALLER EQ PUSH2 0x18A7 JUMPI PUSH1 0x40 MLOAD PUSH3 0x461BCD PUSH1 0xE5 SHL DUP2 MSTORE PUSH1 0x4 ADD PUSH2 0xD5A SWAP1 PUSH2 0x544B JUMP JUMPDEST DUP3 PUSH2 0x18C1 DUP2 PUSH1 0x0 DUP1 SLOAD SWAP2 DUP2 MSTORE PUSH1 0x6 PUSH1 0x20 MSTORE PUSH1 0x40 SWAP1 KECCAK256 SLOAD GT SWAP1 JUMP JUMPDEST PUSH2 0x18DD JUMPI PUSH1 0x40 MLOAD PUSH3 0x461BCD PUSH1 0xE5 SHL DUP2 MSTORE PUSH1 0x4 ADD PUSH2 0xD5A SWAP1 PUSH2 0x5467 JUMP JUMPDEST PUSH2 0x13E2 DUP5 DUP5 PUSH2 0x39BC JUMP JUMPDEST PUSH1 0x40 MLOAD DUP1 PUSH1 0x40 ADD PUSH1 0x40 MSTORE DUP1 PUSH1 0x2 DUP2 MSTORE PUSH1 0x20 ADD PUSH2 0x1A51 PUSH1 0xF2 SHL DUP2 MSTORE POP PUSH2 0x190C DUP2 CALLER PUSH2 0x24AA JUMP JUMPDEST PUSH2 0x1915 JUMPI PUSH1 0x0 DUP1 REVERT JUMPDEST DUP4 PUSH2 0x1920 DUP2 CALLER PUSH2 0x1CF8 JUMP JUMPDEST PUSH2 0x1929 JUMPI PUSH1 0x0 DUP1 REVERT JUMPDEST PUSH2 0x1934 DUP6 DUP6 DUP6 PUSH2 0x3B43 JUMP JUMPDEST POP POP POP POP POP JUMP JUMPDEST PUSH1 0x40 MLOAD DUP1 PUSH1 0x40 ADD PUSH1 0x40 MSTORE DUP1 PUSH1 0x3 DUP2 MSTORE PUSH1 0x20 ADD PUSH3 0x734E53 PUSH1 0xE8 SHL DUP2 MSTORE POP PUSH2 0x1961 DUP2 CALLER PUSH2 0x24AA JUMP JUMPDEST PUSH2 0x196A JUMPI PUSH1 0x0 DUP1 REVERT JUMPDEST PUSH1 0xB SLOAD DUP3 ISZERO ISZERO PUSH1 0xFF SWAP1 SWAP2 AND ISZERO ISZERO SUB PUSH2 0x19A9 JUMPI PUSH1 0x40 MLOAD PUSH3 0x461BCD PUSH1 0xE5 SHL DUP2 MSTORE PUSH1 0x20 PUSH1 0x4 DUP3 ADD MSTORE PUSH1 0x2 PUSH1 0x24 DUP3 ADD MSTORE PUSH2 0x4153 PUSH1 0xF0 SHL PUSH1 0x44 DUP3 ADD MSTORE PUSH1 0x64 ADD PUSH2 0xD5A JUMP JUMPDEST PUSH2 0xEFE DUP3 PUSH2 0x3D3F JUMP JUMPDEST PUSH1 0x40 MLOAD DUP1 PUSH1 0x40 ADD PUSH1 0x40 MSTORE DUP1 PUSH1 0x3 DUP2 MSTORE PUSH1 0x20 ADD PUSH3 0x1B5055 PUSH1 0xEA SHL DUP2 MSTORE POP PUSH2 0x19D8 DUP2 CALLER PUSH2 0x24AA JUMP JUMPDEST PUSH2 0x19E1 JUMPI PUSH1 0x0 DUP1 REVERT JUMPDEST PUSH1 0x1 DUP1 SLOAD PUSH1 0xFF AND ISZERO ISZERO EQ PUSH2 0x1A07 JUMPI PUSH1 0x40 MLOAD PUSH3 0x461BCD PUSH1 0xE5 SHL DUP2 MSTORE PUSH1 0x4 ADD PUSH2 0xD5A SWAP1 PUSH2 0x5483 JUMP JUMPDEST PUSH2 0xEFE DUP3 PUSH2 0x3DAF JUMP JUMPDEST PUSH1 0x1 PUSH1 0x1 PUSH1 0xA0 SHL SUB DUP2 AND PUSH1 0x0 SWAP1 DUP2 MSTORE PUSH1 0x7 PUSH1 0x20 MSTORE PUSH1 0x40 DUP2 KECCAK256 SLOAD PUSH1 0xFF AND ISZERO ISZERO PUSH1 0x1 EQ DUP1 PUSH2 0xEC1 JUMPI POP POP PUSH1 0x1 PUSH1 0x1 PUSH1 0xA0 SHL SUB AND ISZERO SWAP1 JUMP JUMPDEST PUSH1 0x40 MLOAD DUP1 PUSH1 0x40 ADD PUSH1 0x40 MSTORE DUP1 PUSH1 0x3 DUP2 MSTORE PUSH1 0x20 ADD PUSH3 0x1B5055 PUSH1 0xEA SHL DUP2 MSTORE POP PUSH2 0x1A6B DUP2 CALLER PUSH2 0x24AA JUMP JUMPDEST PUSH2 0x1A74 JUMPI PUSH1 0x0 DUP1 REVERT JUMPDEST PUSH1 0x1 DUP1 SLOAD PUSH1 0xFF AND ISZERO ISZERO EQ PUSH2 0x1A9A JUMPI PUSH1 0x40 MLOAD PUSH3 0x461BCD PUSH1 0xE5 SHL DUP2 MSTORE PUSH1 0x4 ADD PUSH2 0xD5A SWAP1 PUSH2 0x5483 JUMP JUMPDEST PUSH2 0xEFE DUP3 PUSH2 0x3DF8 JUMP JUMPDEST PUSH1 0x0 DUP5 DUP2 MSTORE PUSH1 0x2 PUSH1 0x20 DUP2 SWAP1 MSTORE PUSH1 0x40 SWAP1 SWAP2 KECCAK256 ADD SLOAD DUP5 SWAP1 PUSH1 0x1 PUSH1 0x1 PUSH1 0xA0 SHL SUB AND CALLER EQ PUSH2 0x1ADF JUMPI PUSH1 0x40 MLOAD PUSH3 0x461BCD PUSH1 0xE5 SHL DUP2 MSTORE PUSH1 0x4 ADD PUSH2 0xD5A SWAP1 PUSH2 0x544B JUMP JUMPDEST DUP5 PUSH2 0x1AF9 DUP2 PUSH1 0x0 DUP1 SLOAD SWAP2 DUP2 MSTORE PUSH1 0x6 PUSH1 0x20 MSTORE PUSH1 0x40 SWAP1 KECCAK256 SLOAD GT SWAP1 JUMP JUMPDEST PUSH2 0x1B15 JUMPI PUSH1 0x40 MLOAD PUSH3 0x461BCD PUSH1 0xE5 SHL DUP2 MSTORE PUSH1 0x4 ADD PUSH2 0xD5A SWAP1 PUSH2 0x5467 JUMP JUMPDEST PUSH2 0x1B21 DUP7 DUP7 DUP7 DUP7 PUSH2 0x3E41 JUMP JUMPDEST POP POP POP POP POP POP JUMP JUMPDEST PUSH2 0x1B32 DUP3 PUSH2 0x1A10 JUMP JUMPDEST PUSH2 0x1B4E JUMPI PUSH1 0x40 MLOAD PUSH3 0x461BCD PUSH1 0xE5 SHL DUP2 MSTORE PUSH1 0x4 ADD PUSH2 0xD5A SWAP1 PUSH2 0x54C9 JUMP JUMPDEST PUSH1 0x40 MLOAD PUSH4 0x6EB1769F PUSH1 0xE1 SHL DUP2 MSTORE CALLER PUSH1 0x4 DUP3 ADD MSTORE ADDRESS PUSH1 0x24 DUP3 ADD MSTORE DUP3 SWAP1 DUP3 SWAP1 PUSH1 0x1 PUSH1 0x1 PUSH1 0xA0 SHL SUB DUP4 AND SWAP1 PUSH4 0xDD62ED3E SWAP1 PUSH1 0x44 ADD PUSH1 0x20 PUSH1 0x40 MLOAD DUP1 DUP4 SUB DUP2 DUP7 GAS STATICCALL ISZERO DUP1 ISZERO PUSH2 0x1B9C JUMPI RETURNDATASIZE PUSH1 0x0 DUP1 RETURNDATACOPY RETURNDATASIZE PUSH1 0x0 REVERT JUMPDEST POP POP POP POP PUSH1 0x40 MLOAD RETURNDATASIZE PUSH1 0x1F NOT PUSH1 0x1F DUP3 ADD AND DUP3 ADD DUP1 PUSH1 0x40 MSTORE POP DUP2 ADD SWAP1 PUSH2 0x1BC0 SWAP2 SWAP1 PUSH2 0x557E JUMP JUMPDEST LT ISZERO PUSH2 0x1BDE JUMPI PUSH1 0x40 MLOAD PUSH3 0x461BCD PUSH1 0xE5 SHL DUP2 MSTORE PUSH1 0x4 ADD PUSH2 0xD5A SWAP1 PUSH2 0x5597 JUMP JUMPDEST PUSH1 0x40 MLOAD PUSH4 0x23B872DD PUSH1 0xE0 SHL DUP2 MSTORE CALLER PUSH1 0x4 DUP3 ADD MSTORE ADDRESS PUSH1 0x24 DUP3 ADD MSTORE PUSH1 0x44 DUP2 ADD DUP4 SWAP1 MSTORE PUSH1 0x1 PUSH1 0x1 PUSH1 0xA0 SHL SUB DUP3 AND SWAP1 PUSH4 0x23B872DD SWAP1 PUSH1 0x64 ADD PUSH1 0x20 PUSH1 0x40 MLOAD DUP1 DUP4 SUB DUP2 PUSH1 0x0 DUP8 GAS CALL ISZERO DUP1 ISZERO PUSH2 0x1C31 JUMPI RETURNDATASIZE PUSH1 0x0 DUP1 RETURNDATACOPY RETURNDATASIZE PUSH1 0x0 REVERT JUMPDEST POP POP POP POP PUSH1 0x40 MLOAD RETURNDATASIZE PUSH1 0x1F NOT PUSH1 0x1F DUP3 ADD AND DUP3 ADD DUP1 PUSH1 0x40 MSTORE POP DUP2 ADD SWAP1 PUSH2 0x1C55 SWAP2 SWAP1 PUSH2 0x55B3 JUMP JUMPDEST PUSH2 0x1C86 JUMPI PUSH1 0x40 MLOAD PUSH3 0x461BCD PUSH1 0xE5 SHL DUP2 MSTORE PUSH1 0x20 PUSH1 0x4 DUP3 ADD MSTORE PUSH1 0x2 PUSH1 0x24 DUP3 ADD MSTORE PUSH2 0x1395 PUSH1 0xF2 SHL PUSH1 0x44 DUP3 ADD MSTORE PUSH1 0x64 ADD PUSH2 0xD5A JUMP JUMPDEST PUSH2 0xD6D DUP4 DUP4 CALLER PUSH2 0xB84 JUMP JUMPDEST PUSH1 0x0 DUP2 DUP2 MSTORE PUSH1 0x18 PUSH1 0x20 SWAP1 DUP2 MSTORE PUSH1 0x40 DUP1 DUP4 KECCAK256 SLOAD PUSH1 0x17 SWAP1 SWAP3 MSTORE DUP3 KECCAK256 SLOAD PUSH1 0x1 SWAP2 PUSH2 0x1CB7 SWAP2 PUSH2 0x54B5 JUMP JUMPDEST PUSH2 0x1CC2 SWAP1 PUSH1 0x2 PUSH2 0x54E5 JUMP JUMPDEST GT ISZERO PUSH2 0x1CD0 JUMPI POP PUSH1 0x1 SWAP2 SWAP1 POP JUMP JUMPDEST POP PUSH1 0x0 SWAP2 SWAP1 POP JUMP JUMPDEST DUP4 PUSH2 0x1CE3 DUP2 CALLER PUSH2 0x1CF8 JUMP JUMPDEST PUSH2 0x1CEC JUMPI PUSH1 0x0 DUP1 REVERT JUMPDEST PUSH2 0x1934 DUP6 DUP6 DUP6 DUP6 PUSH2 0x401A JUMP JUMPDEST PUSH1 0x0 PUSH1 0xF DUP4 PUSH1 0x40 MLOAD PUSH2 0x1D0A SWAP2 SWAP1 PUSH2 0x542F JUMP JUMPDEST SWAP1 DUP2 MSTORE PUSH1 0x40 DUP1 MLOAD SWAP2 DUP3 SWAP1 SUB PUSH1 0x20 SWAP1 DUP2 ADD SWAP1 SWAP3 KECCAK256 PUSH1 0x1 PUSH1 0x1 PUSH1 0xA0 SHL SUB DUP6 AND PUSH1 0x0 SWAP1 DUP2 MSTORE SWAP3 MSTORE SWAP1 KECCAK256 SLOAD PUSH1 0xFF AND ISZERO ISZERO PUSH1 0x1 EQ DUP1 PUSH2 0xFB0 JUMPI POP PUSH2 0xFB0 PUSH1 0x40 MLOAD DUP1 PUSH1 0x40 ADD PUSH1 0x40 MSTORE DUP1 PUSH1 0x2 DUP2 MSTORE PUSH1 0x20 ADD PUSH2 0x36A1 PUSH1 0xF1 SHL DUP2 MSTORE POP DUP4 PUSH2 0xF02 JUMP JUMPDEST PUSH1 0x40 MLOAD DUP1 PUSH1 0x40 ADD PUSH1 0x40 MSTORE DUP1 PUSH1 0x2 DUP2 MSTORE PUSH1 0x20 ADD PUSH2 0x36A1 PUSH1 0xF1 SHL DUP2 MSTORE POP PUSH2 0x1D88 DUP2 CALLER PUSH2 0x24AA JUMP JUMPDEST PUSH2 0x1D91 JUMPI PUSH1 0x0 DUP1 REVERT JUMPDEST DUP3 PUSH2 0x1D9C DUP2 CALLER PUSH2 0x1CF8 JUMP JUMPDEST PUSH2 0x1DA5 JUMPI PUSH1 0x0 DUP1 REVERT JUMPDEST PUSH2 0x1DAE DUP4 PUSH2 0x2580 JUMP JUMPDEST DUP1 PUSH2 0x1DBB JUMPI POP PUSH1 0xB SLOAD PUSH1 0xFF AND JUMPDEST PUSH2 0x1DEF JUMPI PUSH1 0x40 MLOAD PUSH3 0x461BCD PUSH1 0xE5 SHL DUP2 MSTORE PUSH1 0x20 PUSH1 0x4 DUP3 ADD MSTORE PUSH1 0x5 PUSH1 0x24 DUP3 ADD MSTORE PUSH5 0x4E53484E41 PUSH1 0xD8 SHL PUSH1 0x44 DUP3 ADD MSTORE PUSH1 0x64 ADD PUSH2 0xD5A JUMP JUMPDEST PUSH2 0x13E2 DUP5 DUP5 PUSH2 0x42AE JUMP JUMPDEST PUSH1 0x0 PUSH1 0xC DUP3 PUSH1 0x40 MLOAD PUSH2 0x1E0B SWAP2 SWAP1 PUSH2 0x542F JUMP JUMPDEST SWAP1 DUP2 MSTORE PUSH1 0x40 MLOAD SWAP1 DUP2 SWAP1 SUB PUSH1 0x20 ADD SWAP1 KECCAK256 SLOAD PUSH1 0xFF AND ISZERO ISZERO PUSH1 0x1 EQ SWAP3 SWAP2 POP POP JUMP JUMPDEST DUP3 PUSH2 0x1E34 DUP2 CALLER PUSH2 0xF02 JUMP JUMPDEST PUSH2 0x1E3D JUMPI PUSH1 0x0 DUP1 REVERT JUMPDEST PUSH2 0x1E46 DUP4 PUSH2 0x2580 JUMP JUMPDEST DUP1 PUSH2 0x1E53 JUMPI POP PUSH1 0xB SLOAD PUSH1 0xFF AND JUMPDEST PUSH2 0x1E87 JUMPI PUSH1 0x40 MLOAD PUSH3 0x461BCD PUSH1 0xE5 SHL DUP2 MSTORE PUSH1 0x20 PUSH1 0x4 DUP3 ADD MSTORE PUSH1 0x5 PUSH1 0x24 DUP3 ADD MSTORE PUSH5 0x4E53484E41 PUSH1 0xD8 SHL PUSH1 0x44 DUP3 ADD MSTORE PUSH1 0x64 ADD PUSH2 0xD5A JUMP JUMPDEST DUP2 PUSH1 0x2 DUP2 GT ISZERO PUSH2 0x1E99 JUMPI PUSH2 0x1E99 PUSH2 0x53F5 JUMP JUMPDEST PUSH1 0x10 DUP6 PUSH1 0x40 MLOAD PUSH2 0x1EA9 SWAP2 SWAP1 PUSH2 0x542F JUMP JUMPDEST SWAP1 DUP2 MSTORE PUSH1 0x40 DUP1 MLOAD PUSH1 0x20 SWAP3 DUP2 SWAP1 SUB DUP4 ADD SWAP1 KECCAK256 PUSH1 0x1 PUSH1 0x1 PUSH1 0xA0 SHL SUB DUP8 AND PUSH1 0x0 SWAP1 DUP2 MSTORE SWAP3 MSTORE SWAP1 KECCAK256 SLOAD PUSH1 0xFF AND PUSH1 0x2 DUP2 GT ISZERO PUSH2 0x1EE2 JUMPI PUSH2 0x1EE2 PUSH2 0x53F5 JUMP JUMPDEST SUB PUSH2 0x1F15 JUMPI PUSH1 0x40 MLOAD PUSH3 0x461BCD PUSH1 0xE5 SHL DUP2 MSTORE PUSH1 0x20 PUSH1 0x4 DUP3 ADD MSTORE PUSH1 0x3 PUSH1 0x24 DUP3 ADD MSTORE PUSH3 0x41485 PUSH1 0xEC SHL PUSH1 0x44 DUP3 ADD MSTORE PUSH1 0x64 ADD PUSH2 0xD5A JUMP JUMPDEST PUSH2 0x13E2 DUP5 DUP5 DUP5 PUSH2 0x43AC JUMP JUMPDEST DUP1 PUSH2 0x1F3A DUP2 PUSH1 0x0 DUP1 SLOAD SWAP2 DUP2 MSTORE PUSH1 0x6 PUSH1 0x20 MSTORE PUSH1 0x40 SWAP1 KECCAK256 SLOAD GT SWAP1 JUMP JUMPDEST PUSH2 0x1F56 JUMPI PUSH1 0x40 MLOAD PUSH3 0x461BCD PUSH1 0xE5 SHL DUP2 MSTORE PUSH1 0x4 ADD PUSH2 0xD5A SWAP1 PUSH2 0x5467 JUMP JUMPDEST PUSH1 0x0 DUP3 DUP2 MSTORE PUSH1 0x4 PUSH1 0x20 MSTORE PUSH1 0x40 SWAP1 KECCAK256 SLOAD PUSH1 0xFF AND PUSH2 0x1F99 JUMPI PUSH1 0x40 MLOAD PUSH3 0x461BCD PUSH1 0xE5 SHL DUP2 MSTORE PUSH1 0x20 PUSH1 0x4 DUP3 ADD MSTORE PUSH1 0x2 PUSH1 0x24 DUP3 ADD MSTORE PUSH2 0x4E53 PUSH1 0xF0 SHL PUSH1 0x44 DUP3 ADD MSTORE PUSH1 0x64 ADD PUSH2 0xD5A JUMP JUMPDEST PUSH1 0x0 DUP3 DUP2 MSTORE PUSH1 0x5 PUSH1 0x20 MSTORE PUSH1 0x40 SWAP1 KECCAK256 PUSH1 0x4 ADD SLOAD PUSH1 0x1 PUSH1 0x1 PUSH1 0xA0 SHL SUB AND CALLER EQ DUP1 PUSH2 0x1FD9 JUMPI POP PUSH1 0x0 DUP3 DUP2 MSTORE PUSH1 0x5 PUSH1 0x20 MSTORE PUSH1 0x40 SWAP1 KECCAK256 PUSH1 0x4 ADD SLOAD PUSH1 0x1 PUSH1 0x1 PUSH1 0xA0 SHL SUB AND ISZERO JUMPDEST PUSH2 0x200A JUMPI PUSH1 0x40 MLOAD PUSH3 0x461BCD PUSH1 0xE5 SHL DUP2 MSTORE PUSH1 0x20 PUSH1 0x4 DUP3 ADD MSTORE PUSH1 0x2 PUSH1 0x24 DUP3 ADD MSTORE PUSH2 0x29A9 PUSH1 0xF1 SHL PUSH1 0x44 DUP3 ADD MSTORE PUSH1 0x64 ADD PUSH2 0xD5A JUMP JUMPDEST PUSH2 0x2013 DUP3 PUSH2 0x27B9 JUMP JUMPDEST PUSH1 0x0 DUP3 DUP2 MSTORE PUSH1 0x5 PUSH1 0x20 MSTORE PUSH1 0x40 DUP2 KECCAK256 PUSH1 0x3 ADD SLOAD DUP2 SWAP1 DUP2 SWAP1 PUSH2 0x2037 SWAP1 PUSH1 0x19 PUSH2 0x3E8 PUSH2 0x4466 JUMP JUMPDEST SWAP2 SWAP5 POP SWAP3 POP SWAP1 POP PUSH2 0x2048 DUP2 DUP4 PUSH2 0x53E2 JUMP JUMPDEST PUSH1 0x0 DUP7 DUP2 MSTORE PUSH1 0x5 PUSH1 0x20 MSTORE PUSH1 0x40 SWAP1 KECCAK256 PUSH1 0x2 ADD SLOAD SWAP1 SWAP3 POP PUSH1 0x1 PUSH1 0x1 PUSH1 0xA0 SHL SUB AND PUSH2 0x21BA JUMPI PUSH1 0x0 DUP6 DUP2 MSTORE PUSH1 0x5 PUSH1 0x20 MSTORE PUSH1 0x40 SWAP1 KECCAK256 PUSH1 0x3 ADD SLOAD CALLVALUE LT ISZERO PUSH2 0x20B0 JUMPI PUSH1 0x40 MLOAD PUSH3 0x461BCD PUSH1 0xE5 SHL DUP2 MSTORE PUSH1 0x20 PUSH1 0x4 DUP3 ADD MSTORE PUSH1 0x2 PUSH1 0x24 DUP3 ADD MSTORE PUSH2 0x4945 PUSH1 0xF0 SHL PUSH1 0x44 DUP3 ADD MSTORE PUSH1 0x64 ADD PUSH2 0xD5A JUMP JUMPDEST PUSH1 0x40 MLOAD PUSH1 0x0 SWAP1 PUSH20 0x49A71890AEA5A751E30E740C504F2E9683F347BC SWAP1 DUP6 SWAP1 DUP4 DUP2 DUP2 DUP2 DUP6 DUP8 GAS CALL SWAP3 POP POP POP RETURNDATASIZE DUP1 PUSH1 0x0 DUP2 EQ PUSH2 0x2106 JUMPI PUSH1 0x40 MLOAD SWAP2 POP PUSH1 0x1F NOT PUSH1 0x3F RETURNDATASIZE ADD AND DUP3 ADD PUSH1 0x40 MSTORE RETURNDATASIZE DUP3 MSTORE RETURNDATASIZE PUSH1 0x0 PUSH1 0x20 DUP5 ADD RETURNDATACOPY PUSH2 0x210B JUMP JUMPDEST PUSH1 0x60 SWAP2 POP JUMPDEST POP POP PUSH1 0x0 DUP8 DUP2 MSTORE PUSH1 0x2 PUSH1 0x20 DUP2 SWAP1 MSTORE PUSH1 0x40 DUP1 DUP4 KECCAK256 SWAP1 SWAP2 ADD SLOAD SWAP1 MLOAD SWAP3 SWAP4 POP SWAP1 SWAP2 PUSH1 0x1 PUSH1 0x1 PUSH1 0xA0 SHL SUB SWAP1 SWAP2 AND SWAP1 DUP6 SWAP1 DUP4 DUP2 DUP2 DUP2 DUP6 DUP8 GAS CALL SWAP3 POP POP POP RETURNDATASIZE DUP1 PUSH1 0x0 DUP2 EQ PUSH2 0x216F JUMPI PUSH1 0x40 MLOAD SWAP2 POP PUSH1 0x1F NOT PUSH1 0x3F RETURNDATASIZE ADD AND DUP3 ADD PUSH1 0x40 MSTORE RETURNDATASIZE DUP3 MSTORE RETURNDATASIZE PUSH1 0x0 PUSH1 0x20 DUP5 ADD RETURNDATACOPY PUSH2 0x2174 JUMP JUMPDEST PUSH1 0x60 SWAP2 POP JUMPDEST POP POP SWAP1 POP DUP1 DUP1 ISZERO PUSH2 0x2182 JUMPI POP DUP2 JUMPDEST PUSH2 0x21B3 JUMPI PUSH1 0x40 MLOAD PUSH3 0x461BCD PUSH1 0xE5 SHL DUP2 MSTORE PUSH1 0x20 PUSH1 0x4 DUP3 ADD MSTORE PUSH1 0x2 PUSH1 0x24 DUP3 ADD MSTORE PUSH2 0x2A23 PUSH1 0xF1 SHL PUSH1 0x44 DUP3 ADD MSTORE PUSH1 0x64 ADD PUSH2 0xD5A JUMP JUMPDEST POP POP PUSH2 0x2380 JUMP JUMPDEST PUSH1 0x0 DUP6 DUP2 MSTORE PUSH1 0x5 PUSH1 0x20 MSTORE PUSH1 0x40 SWAP1 DUP2 SWAP1 KECCAK256 PUSH1 0x2 DUP2 ADD SLOAD PUSH1 0x3 SWAP1 SWAP2 ADD SLOAD SWAP2 MLOAD PUSH4 0x6EB1769F PUSH1 0xE1 SHL DUP2 MSTORE CALLER PUSH1 0x4 DUP3 ADD MSTORE ADDRESS PUSH1 0x24 DUP3 ADD MSTORE PUSH1 0x1 PUSH1 0x1 PUSH1 0xA0 SHL SUB SWAP1 SWAP2 AND SWAP2 SWAP1 DUP3 SWAP1 PUSH4 0xDD62ED3E SWAP1 PUSH1 0x44 ADD PUSH1 0x20 PUSH1 0x40 MLOAD DUP1 DUP4 SUB DUP2 DUP7 GAS STATICCALL ISZERO DUP1 ISZERO PUSH2 0x2222 JUMPI RETURNDATASIZE PUSH1 0x0 DUP1 RETURNDATACOPY RETURNDATASIZE PUSH1 0x0 REVERT JUMPDEST POP POP POP POP PUSH1 0x40 MLOAD RETURNDATASIZE PUSH1 0x1F NOT PUSH1 0x1F DUP3 ADD AND DUP3 ADD DUP1 PUSH1 0x40 MSTORE POP DUP2 ADD SWAP1 PUSH2 0x2246 SWAP2 SWAP1 PUSH2 0x557E JUMP JUMPDEST LT ISZERO PUSH2 0x2264 JUMPI PUSH1 0x40 MLOAD PUSH3 0x461BCD PUSH1 0xE5 SHL DUP2 MSTORE PUSH1 0x4 ADD PUSH2 0xD5A SWAP1 PUSH2 0x5597 JUMP JUMPDEST PUSH1 0x40 MLOAD PUSH4 0x23B872DD PUSH1 0xE0 SHL DUP2 MSTORE CALLER PUSH1 0x4 DUP3 ADD MSTORE PUSH20 0x49A71890AEA5A751E30E740C504F2E9683F347BC PUSH1 0x24 DUP3 ADD MSTORE PUSH1 0x44 DUP2 ADD DUP6 SWAP1 MSTORE PUSH1 0x1 PUSH1 0x1 PUSH1 0xA0 SHL SUB DUP3 AND SWAP1 PUSH4 0x23B872DD SWAP1 PUSH1 0x64 ADD PUSH1 0x20 PUSH1 0x40 MLOAD DUP1 DUP4 SUB DUP2 PUSH1 0x0 DUP8 GAS CALL ISZERO DUP1 ISZERO PUSH2 0x22CB JUMPI RETURNDATASIZE PUSH1 0x0 DUP1 RETURNDATACOPY RETURNDATASIZE PUSH1 0x0 REVERT JUMPDEST POP POP POP POP PUSH1 0x40 MLOAD RETURNDATASIZE PUSH1 0x1F NOT PUSH1 0x1F DUP3 ADD AND DUP3 ADD DUP1 PUSH1 0x40 MSTORE POP DUP2 ADD SWAP1 PUSH2 0x22EF SWAP2 SWAP1 PUSH2 0x55B3 JUMP JUMPDEST POP PUSH1 0x0 DUP7 DUP2 MSTORE PUSH1 0x2 PUSH1 0x20 DUP2 SWAP1 MSTORE PUSH1 0x40 SWAP2 DUP3 SWAP1 KECCAK256 ADD SLOAD SWAP1 MLOAD PUSH4 0x23B872DD PUSH1 0xE0 SHL DUP2 MSTORE CALLER PUSH1 0x4 DUP3 ADD MSTORE PUSH1 0x1 PUSH1 0x1 PUSH1 0xA0 SHL SUB SWAP2 DUP3 AND PUSH1 0x24 DUP3 ADD MSTORE PUSH1 0x44 DUP2 ADD DUP6 SWAP1 MSTORE SWAP1 DUP3 AND SWAP1 PUSH4 0x23B872DD SWAP1 PUSH1 0x64 ADD PUSH1 0x20 PUSH1 0x40 MLOAD DUP1 DUP4 SUB DUP2 PUSH1 0x0 DUP8 GAS CALL ISZERO DUP1 ISZERO PUSH2 0x2359 JUMPI RETURNDATASIZE PUSH1 0x0 DUP1 RETURNDATACOPY RETURNDATASIZE PUSH1 0x0 REVERT JUMPDEST POP POP POP POP PUSH1 0x40 MLOAD RETURNDATASIZE PUSH1 0x1F NOT PUSH1 0x1F DUP3 ADD AND DUP3 ADD DUP1 PUSH1 0x40 MSTORE POP DUP2 ADD SWAP1 PUSH2 0x237D SWAP2 SWAP1 PUSH2 0x55B3 JUMP JUMPDEST POP POP JUMPDEST PUSH1 0x0 DUP6 DUP2 MSTORE PUSH1 0x5 PUSH1 0x20 MSTORE PUSH1 0x40 SWAP1 KECCAK256 SLOAD ISZERO DUP1 ISZERO SWAP1 PUSH2 0x23AD JUMPI POP PUSH1 0x0 DUP6 DUP2 MSTORE PUSH1 0x5 PUSH1 0x20 MSTORE PUSH1 0x40 SWAP1 KECCAK256 PUSH1 0x1 ADD SLOAD ISZERO ISZERO JUMPDEST PUSH2 0x23DE JUMPI PUSH1 0x40 MLOAD PUSH3 0x461BCD PUSH1 0xE5 SHL DUP2 MSTORE PUSH1 0x20 PUSH1 0x4 DUP3 ADD MSTORE PUSH1 0x2 PUSH1 0x24 DUP3 ADD MSTORE PUSH2 0x4553 PUSH1 0xF0 SHL PUSH1 0x44 DUP3 ADD MSTORE PUSH1 0x64 ADD PUSH2 0xD5A JUMP JUMPDEST PUSH1 0x0 DUP6 DUP2 MSTORE PUSH1 0x2 PUSH1 0x20 SWAP1 DUP2 MSTORE PUSH1 0x40 DUP1 DUP4 KECCAK256 DUP1 SLOAD PUSH1 0x1 SWAP2 DUP3 ADD SLOAD PUSH1 0x5 SWAP1 SWAP5 MSTORE SWAP2 SWAP1 SWAP4 KECCAK256 DUP1 SLOAD SWAP4 ADD SLOAD PUSH2 0x2412 SWAP4 SWAP2 SWAP3 SWAP2 SWAP1 PUSH2 0x44DA JUMP JUMPDEST ISZERO PUSH2 0x2426 JUMPI PUSH2 0x2421 DUP6 CALLER PUSH2 0x39BC JUMP JUMPDEST PUSH2 0x2448 JUMP JUMPDEST PUSH1 0x0 DUP6 DUP2 MSTORE PUSH1 0x5 PUSH1 0x20 MSTORE PUSH1 0x40 SWAP1 KECCAK256 DUP1 SLOAD PUSH1 0x1 SWAP1 SWAP2 ADD SLOAD PUSH2 0x2448 SWAP2 DUP8 SWAP2 CALLER PUSH2 0x3E41 JUMP JUMPDEST PUSH1 0x0 DUP6 DUP2 MSTORE PUSH1 0x5 PUSH1 0x20 MSTORE PUSH1 0x40 SWAP1 DUP2 SWAP1 KECCAK256 DUP1 SLOAD PUSH1 0x1 DUP3 ADD SLOAD PUSH1 0x2 DUP4 ADD SLOAD PUSH1 0x3 SWAP1 SWAP4 ADD SLOAD SWAP4 MLOAD PUSH32 0xD8D12448ACB9A12D0CA44F527C717C0DE64F03B49CA4032F87FEAE10AF5EAABE SWAP5 PUSH2 0x17D9 SWAP5 DUP12 SWAP5 SWAP4 SWAP3 CALLER SWAP3 PUSH1 0x1 PUSH1 0x1 PUSH1 0xA0 SHL SUB SWAP1 SWAP3 AND SWAP2 SWAP1 PUSH2 0x55D0 JUMP JUMPDEST PUSH1 0x0 PUSH2 0x24B5 DUP3 PUSH2 0x2580 JUMP JUMPDEST DUP1 PUSH2 0x24C2 JUMPI POP PUSH1 0xB SLOAD PUSH1 0xFF AND JUMPDEST PUSH2 0x24CE JUMPI POP PUSH1 0x0 PUSH2 0xEC1 JUMP JUMPDEST PUSH1 0x1 PUSH1 0x10 DUP5 PUSH1 0x40 MLOAD PUSH2 0x24E0 SWAP2 SWAP1 PUSH2 0x542F JUMP JUMPDEST SWAP1 DUP2 MSTORE PUSH1 0x40 DUP1 MLOAD PUSH1 0x20 SWAP3 DUP2 SWAP1 SUB DUP4 ADD SWAP1 KECCAK256 PUSH1 0x1 PUSH1 0x1 PUSH1 0xA0 SHL SUB DUP7 AND PUSH1 0x0 SWAP1 DUP2 MSTORE SWAP3 MSTORE SWAP1 KECCAK256 SLOAD PUSH1 0xFF AND PUSH1 0x2 DUP2 GT ISZERO PUSH2 0x2519 JUMPI PUSH2 0x2519 PUSH2 0x53F5 JUMP JUMPDEST LT ISZERO DUP1 PUSH2 0xFB0 JUMPI POP PUSH1 0x1 PUSH1 0x11 DUP5 PUSH1 0x40 MLOAD PUSH2 0x2533 SWAP2 SWAP1 PUSH2 0x542F JUMP JUMPDEST SWAP1 DUP2 MSTORE PUSH1 0x40 MLOAD SWAP1 DUP2 SWAP1 SUB PUSH1 0x20 ADD SWAP1 KECCAK256 SLOAD PUSH1 0xFF AND PUSH1 0x2 DUP2 GT ISZERO PUSH2 0x2557 JUMPI PUSH2 0x2557 PUSH2 0x53F5 JUMP JUMPDEST LT ISZERO SWAP4 SWAP3 POP POP POP JUMP JUMPDEST DUP4 PUSH2 0x256B DUP2 CALLER PUSH2 0x1CF8 JUMP JUMPDEST PUSH2 0x2574 JUMPI PUSH1 0x0 DUP1 REVERT JUMPDEST PUSH2 0x1934 DUP6 DUP6 DUP6 DUP6 PUSH2 0x44F5 JUMP JUMPDEST PUSH1 0x1 PUSH1 0x1 PUSH1 0xA0 SHL SUB DUP2 AND PUSH1 0x0 SWAP1 DUP2 MSTORE PUSH1 0x3 PUSH1 0x20 MSTORE PUSH1 0x40 DUP2 KECCAK256 SLOAD PUSH2 0xEC1 SWAP1 PUSH1 0x0 DUP1 SLOAD SWAP2 DUP2 MSTORE PUSH1 0x6 PUSH1 0x20 MSTORE PUSH1 0x40 SWAP1 KECCAK256 SLOAD GT SWAP1 JUMP JUMPDEST PUSH1 0x0 DUP7 DUP2 MSTORE PUSH1 0x2 PUSH1 0x20 DUP2 SWAP1 MSTORE PUSH1 0x40 SWAP1 SWAP2 KECCAK256 ADD SLOAD DUP7 SWAP1 PUSH1 0x1 PUSH1 0x1 PUSH1 0xA0 SHL SUB AND CALLER EQ PUSH2 0x25EE JUMPI PUSH1 0x40 MLOAD PUSH3 0x461BCD PUSH1 0xE5 SHL DUP2 MSTORE PUSH1 0x4 ADD PUSH2 0xD5A SWAP1 PUSH2 0x544B JUMP JUMPDEST DUP7 PUSH2 0x2608 DUP2 PUSH1 0x0 DUP1 SLOAD SWAP2 DUP2 MSTORE PUSH1 0x6 PUSH1 0x20 MSTORE PUSH1 0x40 SWAP1 KECCAK256 SLOAD GT SWAP1 JUMP JUMPDEST PUSH2 0x2624 JUMPI PUSH1 0x40 MLOAD PUSH3 0x461BCD PUSH1 0xE5 SHL DUP2 MSTORE PUSH1 0x4 ADD PUSH2 0xD5A SWAP1 PUSH2 0x5467 JUMP JUMPDEST PUSH2 0x12ED DUP9 DUP9 DUP9 DUP9 DUP9 DUP9 PUSH2 0x4697 JUMP JUMPDEST PUSH1 0x0 DUP3 DUP2 MSTORE PUSH1 0x2 PUSH1 0x20 MSTORE PUSH1 0x40 DUP2 KECCAK256 PUSH1 0x3 ADD SLOAD DUP3 LT DUP1 ISZERO SWAP1 PUSH2 0xFB0 JUMPI POP POP PUSH1 0x0 SWAP2 DUP3 MSTORE PUSH1 0x6 PUSH1 0x20 MSTORE PUSH1 0x40 SWAP1 SWAP2 KECCAK256 SLOAD GT SWAP1 JUMP JUMPDEST PUSH1 0x1 PUSH1 0x1 PUSH1 0xA0 SHL SUB DUP4 AND PUSH1 0x0 SWAP1 DUP2 MSTORE PUSH1 0x8 PUSH1 0x20 MSTORE PUSH1 0x40 DUP2 KECCAK256 DUP1 SLOAD DUP5 SWAP3 SWAP1 PUSH2 0x268B SWAP1 DUP5 SWAP1 PUSH2 0x53E2 JUMP JUMPDEST SWAP1 SWAP2 SSTORE POP POP PUSH1 0x1 PUSH1 0x1 PUSH1 0xA0 SHL SUB DUP4 AND PUSH1 0x0 SWAP1 DUP2 MSTORE PUSH1 0x9 PUSH1 0x20 MSTORE PUSH1 0x40 DUP2 KECCAK256 DUP1 SLOAD DUP5 SWAP3 SWAP1 PUSH2 0xC79 SWAP1 DUP5 SWAP1 PUSH2 0x53E2 JUMP JUMPDEST PUSH1 0x1 DUP1 SLOAD PUSH1 0xFF AND ISZERO ISZERO EQ PUSH2 0x26DE JUMPI PUSH1 0x40 MLOAD PUSH3 0x461BCD PUSH1 0xE5 SHL DUP2 MSTORE PUSH1 0x4 ADD PUSH2 0xD5A SWAP1 PUSH2 0x5483 JUMP JUMPDEST DUP1 PUSH1 0x11 DUP4 PUSH1 0x40 MLOAD PUSH2 0x26EF SWAP2 SWAP1 PUSH2 0x542F JUMP JUMPDEST SWAP1 DUP2 MSTORE PUSH1 0x40 MLOAD SWAP1 DUP2 SWAP1 SUB PUSH1 0x20 ADD SWAP1 KECCAK256 DUP1 SLOAD PUSH1 0xFF NOT AND PUSH1 0x1 DUP4 PUSH1 0x2 DUP2 GT ISZERO PUSH2 0x2718 JUMPI PUSH2 0x2718 PUSH2 0x53F5 JUMP JUMPDEST MUL OR SWAP1 SSTORE POP PUSH1 0x0 DUP1 MLOAD PUSH1 0x20 PUSH2 0x5F88 DUP4 CODECOPY DUP2 MLOAD SWAP2 MSTORE DUP3 DUP3 PUSH1 0x40 MLOAD PUSH1 0x20 ADD PUSH2 0x273F SWAP3 SWAP2 SWAP1 PUSH2 0x5626 JUMP JUMPDEST PUSH1 0x40 DUP1 MLOAD PUSH1 0x1F NOT DUP2 DUP5 SUB ADD DUP2 MSTORE SWAP1 DUP3 SWAP1 MSTORE PUSH2 0x275B SWAP2 CALLER SWAP1 PUSH2 0x5648 JUMP JUMPDEST PUSH1 0x40 MLOAD DUP1 SWAP2 SUB SWAP1 LOG1 POP POP JUMP JUMPDEST PUSH2 0x276F PUSH2 0x48BB JUMP JUMPDEST PUSH1 0x40 DUP1 MLOAD PUSH1 0x60 DUP1 DUP3 MSTORE PUSH1 0x2 SWAP1 DUP3 ADD MSTORE PUSH2 0x6C45 PUSH1 0xF0 SHL PUSH1 0x80 DUP3 ADD MSTORE PUSH1 0xA0 PUSH1 0x20 DUP3 ADD DUP2 SWAP1 MSTORE PUSH1 0x0 SWAP1 DUP3 ADD MSTORE CALLER DUP2 DUP4 ADD MSTORE SWAP1 MLOAD PUSH1 0x0 DUP1 MLOAD PUSH1 0x20 PUSH2 0x5F88 DUP4 CODECOPY DUP2 MLOAD SWAP2 MSTORE SWAP2 DUP2 SWAP1 SUB PUSH1 0xC0 ADD SWAP1 LOG1 JUMP JUMPDEST DUP1 PUSH2 0x27D3 DUP2 PUSH1 0x0 DUP1 SLOAD SWAP2 DUP2 MSTORE PUSH1 0x6 PUSH1 0x20 MSTORE PUSH1 0x40 SWAP1 KECCAK256 SLOAD GT SWAP1 JUMP JUMPDEST PUSH2 0x27EF JUMPI PUSH1 0x40 MLOAD PUSH3 0x461BCD PUSH1 0xE5 SHL DUP2 MSTORE PUSH1 0x4 ADD PUSH2 0xD5A SWAP1 PUSH2 0x5467 JUMP JUMPDEST POP PUSH1 0x0 SWAP1 DUP2 MSTORE PUSH1 0x4 PUSH1 0x20 MSTORE PUSH1 0x40 SWAP1 KECCAK256 DUP1 SLOAD PUSH1 0xFF NOT AND SWAP1 SSTORE JUMP JUMPDEST PUSH1 0x0 DUP2 DUP2 MSTORE PUSH1 0x12 PUSH1 0x20 MSTORE PUSH1 0x40 SWAP1 KECCAK256 SLOAD DUP2 SWAP1 PUSH1 0xFF AND PUSH2 0x2825 JUMPI PUSH1 0x0 DUP1 REVERT JUMPDEST PUSH1 0x1 DUP1 SLOAD PUSH1 0xFF AND ISZERO ISZERO EQ PUSH2 0x284B JUMPI PUSH1 0x40 MLOAD PUSH3 0x461BCD PUSH1 0xE5 SHL DUP2 MSTORE PUSH1 0x4 ADD PUSH2 0xD5A SWAP1 PUSH2 0x5483 JUMP JUMPDEST PUSH1 0x0 DUP3 DUP2 MSTORE PUSH1 0x12 PUSH1 0x20 SWAP1 DUP2 MSTORE PUSH1 0x40 DUP1 DUP4 KECCAK256 DUP1 SLOAD PUSH1 0xFF NOT AND SWAP1 SSTORE PUSH1 0x14 DUP3 MSTORE DUP1 DUP4 KECCAK256 SLOAD DUP2 MLOAD PUSH4 0x36B0B4B7 PUSH1 0xE1 SHL DUP2 MSTORE PUSH1 0xE PUSH1 0x4 DUP3 ADD MSTORE DUP3 MLOAD SWAP1 DUP2 SWAP1 SUB PUSH1 0x24 ADD SWAP1 KECCAK256 DUP7 DUP6 MSTORE PUSH1 0x13 DUP5 MSTORE DUP3 DUP6 KECCAK256 SLOAD PUSH1 0x1 PUSH1 0x1 PUSH1 0xA0 SHL SUB AND DUP6 MSTORE SWAP1 SWAP3 MSTORE DUP3 KECCAK256 DUP1 SLOAD SWAP2 SWAP3 SWAP1 SWAP2 PUSH2 0x28B6 SWAP1 DUP5 SWAP1 PUSH2 0x53E2 JUMP JUMPDEST SWAP1 SWAP2 SSTORE POP POP PUSH1 0x40 DUP1 MLOAD PUSH1 0x20 DUP2 ADD DUP5 SWAP1 MSTORE PUSH1 0x0 DUP1 MLOAD PUSH1 0x20 PUSH2 0x5F88 DUP4 CODECOPY DUP2 MLOAD SWAP2 MSTORE SWAP2 ADD PUSH1 0x40 DUP1 MLOAD PUSH1 0x1F NOT DUP2 DUP5 SUB ADD DUP2 MSTORE SWAP1 DUP3 SWAP1 MSTORE PUSH2 0x275B SWAP2 CALLER SWAP1 PUSH2 0x5674 JUMP JUMPDEST PUSH1 0x1 DUP1 SLOAD PUSH1 0xFF AND ISZERO ISZERO EQ PUSH2 0x2919 JUMPI PUSH1 0x40 MLOAD PUSH3 0x461BCD PUSH1 0xE5 SHL DUP2 MSTORE PUSH1 0x4 ADD PUSH2 0xD5A SWAP1 PUSH2 0x5483 JUMP JUMPDEST PUSH1 0x0 SLOAD DUP2 MLOAD DUP4 MLOAD EQ PUSH2 0x2953 JUMPI PUSH1 0x40 MLOAD PUSH3 0x461BCD PUSH1 0xE5 SHL DUP2 MSTORE PUSH1 0x20 PUSH1 0x4 DUP3 ADD MSTORE PUSH1 0x3 PUSH1 0x24 DUP3 ADD MSTORE PUSH3 0x504357 PUSH1 0xE8 SHL PUSH1 0x44 DUP3 ADD MSTORE PUSH1 0x64 ADD PUSH2 0xD5A JUMP JUMPDEST PUSH1 0x0 DUP2 DUP2 MSTORE PUSH1 0x1D PUSH1 0x20 SWAP1 DUP2 MSTORE PUSH1 0x40 DUP1 DUP4 KECCAK256 DUP1 SLOAD PUSH1 0x1 PUSH1 0xFF NOT SWAP1 SWAP2 AND DUP2 OR SWAP1 SWAP2 SSTORE DUP2 MLOAD PUSH1 0x60 DUP2 ADD DUP4 MSTORE CALLER DUP2 MSTORE DUP1 DUP5 ADD DUP9 DUP2 MSTORE DUP2 DUP5 ADD DUP9 SWAP1 MSTORE DUP7 DUP7 MSTORE PUSH1 0x16 DUP6 MSTORE SWAP3 SWAP1 SWAP5 KECCAK256 DUP5 MLOAD DUP2 SLOAD PUSH1 0x1 PUSH1 0x1 PUSH1 0xA0 SHL SUB NOT AND PUSH1 0x1 PUSH1 0x1 PUSH1 0xA0 SHL SUB SWAP1 SWAP2 AND OR DUP2 SSTORE SWAP2 MLOAD DUP1 MLOAD SWAP3 SWAP4 PUSH2 0x29C7 SWAP4 SWAP3 DUP6 ADD SWAP3 SWAP2 ADD SWAP1 PUSH2 0x4C19 JUMP JUMPDEST POP PUSH1 0x40 DUP3 ADD MLOAD DUP1 MLOAD PUSH2 0x29E3 SWAP2 PUSH1 0x2 DUP5 ADD SWAP2 PUSH1 0x20 SWAP1 SWAP2 ADD SWAP1 PUSH2 0x4C6F JUMP JUMPDEST POP POP POP PUSH1 0x0 DUP2 DUP2 MSTORE PUSH1 0x18 PUSH1 0x20 SWAP1 DUP2 MSTORE PUSH1 0x40 DUP1 DUP4 KECCAK256 PUSH1 0x1 SWAP1 DUP2 SWAP1 SSTORE PUSH1 0x1A SWAP1 SWAP3 MSTORE SWAP2 DUP3 SWAP1 KECCAK256 SSTORE MLOAD PUSH32 0x3BEB2501A436DC1031B7CC3728F824767D0B618F755364D9853FACE0786E2DCC SWAP1 PUSH2 0x2A37 SWAP1 DUP4 DUP2 MSTORE PUSH1 0x20 ADD SWAP1 JUMP JUMPDEST PUSH1 0x40 MLOAD DUP1 SWAP2 SUB SWAP1 LOG1 POP PUSH1 0x0 DUP1 SLOAD SWAP1 DUP1 PUSH2 0x2A4F DUP4 PUSH2 0x56A0 JUMP JUMPDEST SWAP2 SWAP1 POP SSTORE POP POP POP JUMP JUMPDEST PUSH1 0x0 DUP1 PUSH2 0x2A65 DUP4 DUP8 PUSH2 0x54E5 JUMP JUMPDEST SWAP6 POP PUSH2 0x2A71 DUP6 DUP6 PUSH2 0x54E5 JUMP JUMPDEST SWAP4 POP PUSH2 0x2A7D DUP5 DUP8 PUSH2 0x53E2 JUMP JUMPDEST PUSH2 0x2A87 DUP5 DUP8 PUSH2 0x54E5 JUMP JUMPDEST SWAP2 POP SWAP2 POP SWAP5 POP SWAP5 SWAP3 POP POP POP JUMP JUMPDEST PUSH1 0x0 DUP1 PUSH1 0x0 PUSH2 0x2AA3 DUP6 DUP6 PUSH2 0x48ED JUMP JUMPDEST SWAP1 POP PUSH2 0x2AAF DUP2 DUP6 PUSH2 0x54B5 JUMP JUMPDEST PUSH2 0x2AB9 DUP3 DUP8 PUSH2 0x54B5 JUMP JUMPDEST PUSH2 0x2AC3 SWAP2 SWAP1 PUSH2 0x54B5 JUMP JUMPDEST PUSH2 0x2ACD DUP6 DUP8 PUSH2 0x54B5 JUMP JUMPDEST EQ PUSH2 0x2B00 JUMPI PUSH1 0x40 MLOAD PUSH3 0x461BCD PUSH1 0xE5 SHL DUP2 MSTORE PUSH1 0x20 PUSH1 0x4 DUP3 ADD MSTORE PUSH1 0x3 PUSH1 0x24 DUP3 ADD MSTORE PUSH3 0x159355 PUSH1 0xEA SHL PUSH1 0x44 DUP3 ADD MSTORE PUSH1 0x64 ADD PUSH2 0xD5A JUMP JUMPDEST PUSH2 0x2B0A DUP2 DUP7 PUSH2 0x54B5 JUMP JUMPDEST PUSH2 0x2B14 DUP3 DUP7 PUSH2 0x54B5 JUMP JUMPDEST SWAP3 POP SWAP3 POP POP SWAP3 POP SWAP3 SWAP1 POP JUMP JUMPDEST PUSH1 0x1 DUP1 SLOAD PUSH1 0xFF AND ISZERO ISZERO EQ PUSH2 0x2B46 JUMPI PUSH1 0x40 MLOAD PUSH3 0x461BCD PUSH1 0xE5 SHL DUP2 MSTORE PUSH1 0x4 ADD PUSH2 0xD5A SWAP1 PUSH2 0x5483 JUMP JUMPDEST PUSH2 0x2B4F DUP3 PUSH2 0x1DF9 JUMP JUMPDEST ISZERO PUSH2 0x2B81 JUMPI PUSH1 0x40 MLOAD PUSH3 0x461BCD PUSH1 0xE5 SHL DUP2 MSTORE PUSH1 0x20 PUSH1 0x4 DUP3 ADD MSTORE PUSH1 0x2 PUSH1 0x24 DUP3 ADD MSTORE PUSH2 0x4145 PUSH1 0xF0 SHL PUSH1 0x44 DUP3 ADD MSTORE PUSH1 0x64 ADD PUSH2 0xD5A JUMP JUMPDEST PUSH1 0x1 PUSH1 0xF DUP4 PUSH1 0x40 MLOAD PUSH2 0x2B93 SWAP2 SWAP1 PUSH2 0x542F JUMP JUMPDEST SWAP1 DUP2 MSTORE PUSH1 0x40 DUP1 MLOAD PUSH1 0x20 SWAP3 DUP2 SWAP1 SUB DUP4 ADD DUP2 KECCAK256 PUSH1 0x1 PUSH1 0x1 PUSH1 0xA0 SHL SUB DUP7 AND PUSH1 0x0 SWAP1 DUP2 MSTORE SWAP4 MSTORE SWAP2 KECCAK256 DUP1 SLOAD PUSH1 0xFF NOT AND SWAP3 ISZERO ISZERO SWAP3 SWAP1 SWAP3 OR SWAP1 SWAP2 SSTORE PUSH1 0x1 SWAP1 PUSH1 0xC SWAP1 PUSH2 0x2BD8 SWAP1 DUP6 SWAP1 PUSH2 0x542F JUMP JUMPDEST SWAP1 DUP2 MSTORE PUSH1 0x40 MLOAD PUSH1 0x20 SWAP2 DUP2 SWAP1 SUB DUP3 ADD DUP2 KECCAK256 DUP1 SLOAD PUSH1 0xFF NOT AND SWAP4 ISZERO ISZERO SWAP4 SWAP1 SWAP4 OR SWAP1 SWAP3 SSTORE PUSH1 0x0 DUP1 MLOAD PUSH1 0x20 PUSH2 0x5F88 DUP4 CODECOPY DUP2 MLOAD SWAP2 MSTORE SWAP2 PUSH2 0x2C16 SWAP2 DUP6 SWAP2 DUP6 SWAP2 ADD PUSH2 0x56B9 JUMP JUMPDEST PUSH1 0x40 DUP1 MLOAD PUSH1 0x1F NOT DUP2 DUP5 SUB ADD DUP2 MSTORE SWAP1 DUP3 SWAP1 MSTORE PUSH2 0x275B SWAP2 CALLER SWAP1 PUSH2 0x56E3 JUMP JUMPDEST PUSH1 0x1 DUP1 SLOAD PUSH1 0xFF AND ISZERO ISZERO EQ PUSH2 0x2C58 JUMPI PUSH1 0x40 MLOAD PUSH3 0x461BCD PUSH1 0xE5 SHL DUP2 MSTORE PUSH1 0x4 ADD PUSH2 0xD5A SWAP1 PUSH2 0x5483 JUMP JUMPDEST PUSH2 0x2C62 DUP3 DUP3 PUSH2 0x1CF8 JUMP JUMPDEST PUSH2 0x2C6B JUMPI PUSH1 0x0 DUP1 REVERT JUMPDEST PUSH1 0x0 PUSH1 0xF DUP4 PUSH1 0x40 MLOAD PUSH2 0x2C7D SWAP2 SWAP1 PUSH2 0x542F JUMP JUMPDEST SWAP1 DUP2 MSTORE PUSH1 0x40 DUP1 MLOAD PUSH1 0x20 SWAP3 DUP2 SWAP1 SUB DUP4 ADD DUP2 KECCAK256 PUSH1 0x1 PUSH1 0x1 PUSH1 0xA0 SHL SUB DUP7 AND PUSH1 0x0 SWAP1 DUP2 MSTORE SWAP1 DUP5 MSTORE SWAP2 SWAP1 SWAP2 KECCAK256 DUP1 SLOAD PUSH1 0xFF NOT AND SWAP4 ISZERO ISZERO SWAP4 SWAP1 SWAP4 OR SWAP1 SWAP3 SSTORE PUSH1 0x0 DUP1 MLOAD PUSH1 0x20 PUSH2 0x5F88 DUP4 CODECOPY DUP2 MLOAD SWAP2 MSTORE SWAP2 PUSH2 0x2CD2 SWAP2 DUP6 SWAP2 DUP6 SWAP2 ADD PUSH2 0x56B9 JUMP JUMPDEST PUSH1 0x40 DUP1 MLOAD PUSH1 0x1F NOT DUP2 DUP5 SUB ADD DUP2 MSTORE SWAP1 DUP3 SWAP1 MSTORE PUSH2 0x275B SWAP2 CALLER SWAP1 PUSH2 0x570F JUMP JUMPDEST PUSH1 0x1 PUSH1 0x1 PUSH1 0xA0 SHL SUB DUP4 AND PUSH1 0x0 SWAP1 DUP2 MSTORE PUSH1 0x8 PUSH1 0x20 MSTORE PUSH1 0x40 SWAP1 KECCAK256 SLOAD DUP3 GT ISZERO PUSH2 0x2D26 JUMPI PUSH1 0x40 MLOAD PUSH3 0x461BCD PUSH1 0xE5 SHL DUP2 MSTORE PUSH1 0x4 ADD PUSH2 0xD5A SWAP1 PUSH2 0x5597 JUMP JUMPDEST PUSH1 0x1 PUSH1 0x1 PUSH1 0xA0 SHL SUB DUP4 AND PUSH2 0x2D43 JUMPI PUSH2 0x2D3E DUP3 DUP3 PUSH2 0x4912 JUMP JUMPDEST PUSH2 0x2F05 JUMP JUMPDEST PUSH1 0x40 MLOAD PUSH4 0x95EA7B3 PUSH1 0xE0 SHL DUP2 MSTORE PUSH1 0x1 PUSH1 0x1 PUSH1 0xA0 SHL SUB DUP3 DUP2 AND PUSH1 0x4 DUP4 ADD MSTORE PUSH1 0x24 DUP3 ADD DUP5 SWAP1 MSTORE DUP5 SWAP2 SWAP1 DUP3 AND SWAP1 PUSH4 0x95EA7B3 SWAP1 PUSH1 0x44 ADD PUSH1 0x20 PUSH1 0x40 MLOAD DUP1 DUP4 SUB DUP2 PUSH1 0x0 DUP8 GAS CALL ISZERO DUP1 ISZERO PUSH2 0x2D95 JUMPI RETURNDATASIZE PUSH1 0x0 DUP1 RETURNDATACOPY RETURNDATASIZE PUSH1 0x0 REVERT JUMPDEST POP POP POP POP PUSH1 0x40 MLOAD RETURNDATASIZE PUSH1 0x1F NOT PUSH1 0x1F DUP3 ADD AND DUP3 ADD DUP1 PUSH1 0x40 MSTORE POP DUP2 ADD SWAP1 PUSH2 0x2DB9 SWAP2 SWAP1 PUSH2 0x55B3 JUMP JUMPDEST PUSH2 0x2DEA JUMPI PUSH1 0x40 MLOAD PUSH3 0x461BCD PUSH1 0xE5 SHL DUP2 MSTORE PUSH1 0x20 PUSH1 0x4 DUP3 ADD MSTORE PUSH1 0x2 PUSH1 0x24 DUP3 ADD MSTORE PUSH2 0x4E41 PUSH1 0xF0 SHL PUSH1 0x44 DUP3 ADD MSTORE PUSH1 0x64 ADD PUSH2 0xD5A JUMP JUMPDEST PUSH1 0x1 PUSH1 0x1 PUSH1 0xA0 SHL SUB DUP3 AND EXTCODESIZE ISZERO PUSH2 0x2E5F JUMPI PUSH1 0x40 MLOAD PUSH4 0x4B91AD0F PUSH1 0xE1 SHL DUP2 MSTORE PUSH1 0x1 PUSH1 0x1 PUSH1 0xA0 SHL SUB DUP6 DUP2 AND PUSH1 0x4 DUP4 ADD MSTORE PUSH1 0x24 DUP3 ADD DUP6 SWAP1 MSTORE DUP4 AND SWAP1 PUSH4 0x97235A1E SWAP1 PUSH1 0x44 ADD PUSH1 0x0 PUSH1 0x40 MLOAD DUP1 DUP4 SUB DUP2 PUSH1 0x0 DUP8 DUP1 EXTCODESIZE ISZERO DUP1 ISZERO PUSH2 0x2E44 JUMPI PUSH1 0x0 DUP1 REVERT JUMPDEST POP GAS CALL SWAP3 POP POP POP DUP1 ISZERO PUSH2 0x2E55 JUMPI POP PUSH1 0x1 JUMPDEST ISZERO PUSH2 0x2F03 JUMPI PUSH2 0x2F03 JUMP JUMPDEST PUSH1 0x40 MLOAD PUSH4 0xA9059CBB PUSH1 0xE0 SHL DUP2 MSTORE PUSH1 0x1 PUSH1 0x1 PUSH1 0xA0 SHL SUB DUP4 DUP2 AND PUSH1 0x4 DUP4 ADD MSTORE PUSH1 0x24 DUP3 ADD DUP6 SWAP1 MSTORE DUP3 AND SWAP1 PUSH4 0xA9059CBB SWAP1 PUSH1 0x44 ADD PUSH1 0x20 PUSH1 0x40 MLOAD DUP1 DUP4 SUB DUP2 PUSH1 0x0 DUP8 GAS CALL ISZERO DUP1 ISZERO PUSH2 0x2EAE JUMPI RETURNDATASIZE PUSH1 0x0 DUP1 RETURNDATACOPY RETURNDATASIZE PUSH1 0x0 REVERT JUMPDEST POP POP POP POP PUSH1 0x40 MLOAD RETURNDATASIZE PUSH1 0x1F NOT PUSH1 0x1F DUP3 ADD AND DUP3 ADD DUP1 PUSH1 0x40 MSTORE POP DUP2 ADD SWAP1 PUSH2 0x2ED2 SWAP2 SWAP1 PUSH2 0x55B3 JUMP JUMPDEST PUSH2 0x2F03 JUMPI PUSH1 0x40 MLOAD PUSH3 0x461BCD PUSH1 0xE5 SHL DUP2 MSTORE PUSH1 0x20 PUSH1 0x4 DUP3 ADD MSTORE PUSH1 0x2 PUSH1 0x24 DUP3 ADD MSTORE PUSH2 0x1395 PUSH1 0xF2 SHL PUSH1 0x44 DUP3 ADD MSTORE PUSH1 0x64 ADD PUSH2 0xD5A JUMP JUMPDEST POP JUMPDEST PUSH1 0x1 SLOAD PUSH1 0xFF AND ISZERO PUSH2 0xD6D JUMPI PUSH2 0xD6D DUP4 DUP4 PUSH2 0x499A JUMP JUMPDEST PUSH1 0x1 DUP1 SLOAD PUSH1 0xFF AND ISZERO ISZERO EQ PUSH2 0x2F40 JUMPI PUSH1 0x40 MLOAD PUSH3 0x461BCD PUSH1 0xE5 SHL DUP2 MSTORE PUSH1 0x4 ADD PUSH2 0xD5A SWAP1 PUSH2 0x5483 JUMP JUMPDEST PUSH2 0x2F49 DUP2 PUSH2 0x1DF9 JUMP JUMPDEST PUSH2 0x2F7B JUMPI PUSH1 0x40 MLOAD PUSH3 0x461BCD PUSH1 0xE5 SHL DUP2 MSTORE PUSH1 0x20 PUSH1 0x4 DUP3 ADD MSTORE PUSH1 0x3 PUSH1 0x24 DUP3 ADD MSTORE PUSH3 0x554221 PUSH1 0xE8 SHL PUSH1 0x44 DUP3 ADD MSTORE PUSH1 0x64 ADD PUSH2 0xD5A JUMP JUMPDEST PUSH1 0x40 DUP1 MLOAD DUP1 DUP3 ADD SWAP1 SWAP2 MSTORE PUSH1 0x4 DUP2 MSTORE PUSH4 0x36B0B4B7 PUSH1 0xE1 SHL PUSH1 0x20 SWAP2 DUP3 ADD MSTORE DUP2 MLOAD SWAP1 DUP3 ADD KECCAK256 PUSH32 0x471DFAB0756EDC981C75DD3188CCD700755407F7D3BEDF452610F7A1E240D659 ADD PUSH2 0x2FF0 JUMPI PUSH1 0x40 MLOAD PUSH3 0x461BCD PUSH1 0xE5 SHL DUP2 MSTORE PUSH1 0x20 PUSH1 0x4 DUP3 ADD MSTORE PUSH1 0x2 PUSH1 0x24 DUP3 ADD MSTORE PUSH2 0x26A1 PUSH1 0xF1 SHL PUSH1 0x44 DUP3 ADD MSTORE PUSH1 0x64 ADD PUSH2 0xD5A JUMP JUMPDEST PUSH2 0x2FF9 DUP2 PUSH2 0xE69 JUMP JUMPDEST PUSH2 0x302A JUMPI PUSH1 0x40 MLOAD PUSH3 0x461BCD PUSH1 0xE5 SHL DUP2 MSTORE PUSH1 0x20 PUSH1 0x4 DUP3 ADD MSTORE PUSH1 0x2 PUSH1 0x24 DUP3 ADD MSTORE PUSH2 0x4245 PUSH1 0xF0 SHL PUSH1 0x44 DUP3 ADD MSTORE PUSH1 0x64 ADD PUSH2 0xD5A JUMP JUMPDEST PUSH1 0x0 PUSH1 0xC DUP3 PUSH1 0x40 MLOAD PUSH2 0x303C SWAP2 SWAP1 PUSH2 0x542F JUMP JUMPDEST SWAP1 DUP2 MSTORE PUSH1 0x40 MLOAD PUSH1 0x20 SWAP2 DUP2 SWAP1 SUB DUP3 ADD DUP2 KECCAK256 DUP1 SLOAD PUSH1 0xFF NOT AND SWAP4 ISZERO ISZERO SWAP4 SWAP1 SWAP4 OR SWAP1 SWAP3 SSTORE PUSH1 0x0 DUP1 MLOAD PUSH1 0x20 PUSH2 0x5F88 DUP4 CODECOPY DUP2 MLOAD SWAP2 MSTORE SWAP2 PUSH2 0x3078 SWAP2 DUP5 SWAP2 ADD PUSH2 0x573B JUMP JUMPDEST PUSH1 0x40 DUP1 MLOAD PUSH1 0x1F NOT DUP2 DUP5 SUB ADD DUP2 MSTORE SWAP1 DUP3 SWAP1 MSTORE PUSH2 0x3094 SWAP2 CALLER SWAP1 PUSH2 0x574E JUMP JUMPDEST PUSH1 0x40 MLOAD DUP1 SWAP2 SUB SWAP1 LOG1 POP JUMP JUMPDEST PUSH1 0x1 DUP1 SLOAD PUSH1 0xFF AND ISZERO ISZERO EQ PUSH2 0x30C5 JUMPI PUSH1 0x40 MLOAD PUSH3 0x461BCD PUSH1 0xE5 SHL DUP2 MSTORE PUSH1 0x4 ADD PUSH2 0xD5A SWAP1 PUSH2 0x5483 JUMP JUMPDEST PUSH1 0x0 DUP3 DUP2 MSTORE PUSH1 0x16 PUSH1 0x20 MSTORE PUSH1 0x40 SWAP1 KECCAK256 PUSH1 0x1 ADD SLOAD DUP2 LT PUSH2 0x310B JUMPI PUSH1 0x40 MLOAD PUSH3 0x461BCD PUSH1 0xE5 SHL DUP2 MSTORE PUSH1 0x20 PUSH1 0x4 DUP3 ADD MSTORE PUSH1 0x3 PUSH1 0x24 DUP3 ADD MSTORE PUSH3 0x504445 PUSH1 0xE8 SHL PUSH1 0x44 DUP3 ADD MSTORE PUSH1 0x64 ADD PUSH2 0xD5A JUMP JUMPDEST PUSH1 0x0 DUP3 DUP2 MSTORE PUSH1 0x1B PUSH1 0x20 MSTORE PUSH1 0x40 SWAP1 KECCAK256 SLOAD DUP2 EQ PUSH2 0x314E JUMPI PUSH1 0x40 MLOAD PUSH3 0x461BCD PUSH1 0xE5 SHL DUP2 MSTORE PUSH1 0x20 PUSH1 0x4 DUP3 ADD MSTORE PUSH1 0x3 PUSH1 0x24 DUP3 ADD MSTORE PUSH3 0x57504F PUSH1 0xE8 SHL PUSH1 0x44 DUP3 ADD MSTORE PUSH1 0x64 ADD PUSH2 0xD5A JUMP JUMPDEST PUSH1 0x0 DUP3 DUP2 MSTORE PUSH1 0x1B PUSH1 0x20 MSTORE PUSH1 0x40 DUP2 KECCAK256 DUP1 SLOAD PUSH1 0x1 SWAP3 SWAP1 PUSH2 0x316D SWAP1 DUP5 SWAP1 PUSH2 0x53E2 JUMP JUMPDEST SWAP1 SWAP2 SSTORE POP POP PUSH1 0x0 DUP3 DUP2 MSTORE PUSH1 0x16 PUSH1 0x20 MSTORE PUSH1 0x40 DUP2 KECCAK256 PUSH1 0x1 ADD DUP1 SLOAD DUP4 SWAP1 DUP2 LT PUSH2 0x3195 JUMPI PUSH2 0x3195 PUSH2 0x577A JUMP JUMPDEST SWAP1 PUSH1 0x0 MSTORE PUSH1 0x20 PUSH1 0x0 KECCAK256 ADD DUP1 SLOAD PUSH2 0x31AA SWAP1 PUSH2 0x5790 JUMP JUMPDEST DUP1 PUSH1 0x1F ADD PUSH1 0x20 DUP1 SWAP2 DIV MUL PUSH1 0x20 ADD PUSH1 0x40 MLOAD SWAP1 DUP2 ADD PUSH1 0x40 MSTORE DUP1 SWAP3 SWAP2 SWAP1 DUP2 DUP2 MSTORE PUSH1 0x20 ADD DUP3 DUP1 SLOAD PUSH2 0x31D6 SWAP1 PUSH2 0x5790 JUMP JUMPDEST DUP1 ISZERO PUSH2 0x3223 JUMPI DUP1 PUSH1 0x1F LT PUSH2 0x31F8 JUMPI PUSH2 0x100 DUP1 DUP4 SLOAD DIV MUL DUP4 MSTORE SWAP2 PUSH1 0x20 ADD SWAP2 PUSH2 0x3223 JUMP JUMPDEST DUP3 ADD SWAP2 SWAP1 PUSH1 0x0 MSTORE PUSH1 0x20 PUSH1 0x0 KECCAK256 SWAP1 JUMPDEST DUP2 SLOAD DUP2 MSTORE SWAP1 PUSH1 0x1 ADD SWAP1 PUSH1 0x20 ADD DUP1 DUP4 GT PUSH2 0x3206 JUMPI DUP3 SWAP1 SUB PUSH1 0x1F AND DUP3 ADD SWAP2 JUMPDEST POP POP POP POP POP SWAP1 POP PUSH1 0x0 PUSH1 0x16 PUSH1 0x0 DUP6 DUP2 MSTORE PUSH1 0x20 ADD SWAP1 DUP2 MSTORE PUSH1 0x20 ADD PUSH1 0x0 KECCAK256 PUSH1 0x2 ADD DUP4 DUP2 SLOAD DUP2 LT PUSH2 0x3253 JUMPI PUSH2 0x3253 PUSH2 0x577A JUMP JUMPDEST SWAP1 PUSH1 0x0 MSTORE PUSH1 0x20 PUSH1 0x0 KECCAK256 ADD DUP1 SLOAD PUSH2 0x3268 SWAP1 PUSH2 0x5790 JUMP JUMPDEST DUP1 PUSH1 0x1F ADD PUSH1 0x20 DUP1 SWAP2 DIV MUL PUSH1 0x20 ADD PUSH1 0x40 MLOAD SWAP1 DUP2 ADD PUSH1 0x40 MSTORE DUP1 SWAP3 SWAP2 SWAP1 DUP2 DUP2 MSTORE PUSH1 0x20 ADD DUP3 DUP1 SLOAD PUSH2 0x3294 SWAP1 PUSH2 0x5790 JUMP JUMPDEST DUP1 ISZERO PUSH2 0x32E1 JUMPI DUP1 PUSH1 0x1F LT PUSH2 0x32B6 JUMPI PUSH2 0x100 DUP1 DUP4 SLOAD DIV MUL DUP4 MSTORE SWAP2 PUSH1 0x20 ADD SWAP2 PUSH2 0x32E1 JUMP JUMPDEST DUP3 ADD SWAP2 SWAP1 PUSH1 0x0 MSTORE PUSH1 0x20 PUSH1 0x0 KECCAK256 SWAP1 JUMPDEST DUP2 SLOAD DUP2 MSTORE SWAP1 PUSH1 0x1 ADD SWAP1 PUSH1 0x20 ADD DUP1 DUP4 GT PUSH2 0x32C4 JUMPI DUP3 SWAP1 SUB PUSH1 0x1F AND DUP3 ADD SWAP2 JUMPDEST POP POP POP POP POP SWAP1 POP PUSH1 0x0 DUP3 DUP1 MLOAD SWAP1 PUSH1 0x20 ADD KECCAK256 SWAP1 POP PUSH1 0x40 MLOAD DUP1 PUSH1 0x40 ADD PUSH1 0x40 MSTORE DUP1 PUSH1 0x2 DUP2 MSTORE PUSH1 0x20 ADD PUSH2 0x34AB PUSH1 0xF1 SHL DUP2 MSTORE POP DUP1 MLOAD SWAP1 PUSH1 0x20 ADD KECCAK256 DUP2 SUB PUSH2 0x3344 JUMPI PUSH1 0x0 DUP1 DUP4 DUP1 PUSH1 0x20 ADD SWAP1 MLOAD DUP2 ADD SWAP1 PUSH2 0x3333 SWAP2 SWAP1 PUSH2 0x58AE JUMP JUMPDEST SWAP2 POP SWAP2 POP PUSH2 0x3341 DUP3 DUP3 PUSH2 0x28F3 JUMP JUMPDEST POP POP JUMPDEST PUSH1 0x40 DUP1 MLOAD DUP1 DUP3 ADD SWAP1 SWAP2 MSTORE PUSH1 0x2 DUP2 MSTORE PUSH2 0x735 PUSH1 0xF4 SHL PUSH1 0x20 SWAP1 SWAP2 ADD MSTORE PUSH32 0xF1B1BBC74E4DF8608497E5EED3180A4B18C6B574FF7C886247E917619E157587 DUP2 ADD PUSH2 0x33B3 JUMPI PUSH1 0x0 DUP1 PUSH1 0x0 DUP5 DUP1 PUSH1 0x20 ADD SWAP1 MLOAD DUP2 ADD SWAP1 PUSH2 0x339E SWAP2 SWAP1 PUSH2 0x597A JUMP JUMPDEST SWAP3 POP SWAP3 POP SWAP3 POP PUSH2 0x33AF DUP4 DUP3 DUP5 PUSH2 0x43AC JUMP JUMPDEST POP POP POP JUMPDEST PUSH1 0x40 DUP1 MLOAD DUP1 DUP3 ADD SWAP1 SWAP2 MSTORE PUSH1 0x2 DUP2 MSTORE PUSH2 0x39A1 PUSH1 0xF1 SHL PUSH1 0x20 SWAP1 SWAP2 ADD MSTORE PUSH32 0xAFEC9C1D776C78121AB508967107ACE431E71722A54FECF52F1F4D778D6353BB DUP2 ADD PUSH2 0x341C JUMPI PUSH1 0x0 DUP1 DUP4 DUP1 PUSH1 0x20 ADD SWAP1 MLOAD DUP2 ADD SWAP1 PUSH2 0x340B SWAP2 SWAP1 PUSH2 0x59D3 JUMP JUMPDEST SWAP2 POP SWAP2 POP PUSH2 0x3419 DUP3 DUP3 PUSH2 0x26B8 JUMP JUMPDEST POP POP JUMPDEST PUSH1 0x40 DUP1 MLOAD DUP1 DUP3 ADD SWAP1 SWAP2 MSTORE PUSH1 0x3 DUP2 MSTORE PUSH3 0x734E53 PUSH1 0xE8 SHL PUSH1 0x20 SWAP1 SWAP2 ADD MSTORE PUSH32 0x4958D6109B82BD5E477D31199F35C1DC2623C0547EEE74C1A266DAA5E0D22863 DUP2 ADD PUSH2 0x3481 JUMPI PUSH1 0x0 DUP3 DUP1 PUSH1 0x20 ADD SWAP1 MLOAD DUP2 ADD SWAP1 PUSH2 0x3474 SWAP2 SWAP1 PUSH2 0x55B3 JUMP JUMPDEST SWAP1 POP PUSH2 0x347F DUP2 PUSH2 0x3D3F JUMP JUMPDEST POP JUMPDEST PUSH1 0x40 DUP1 MLOAD DUP1 DUP3 ADD SWAP1 SWAP2 MSTORE PUSH1 0x2 DUP2 MSTORE PUSH2 0x1D15 PUSH1 0xF2 SHL PUSH1 0x20 SWAP1 SWAP2 ADD MSTORE PUSH32 0x36DDD33E7A7F4736D675524B57AE6969FBA9049312747B57679F33A51849C6B1 DUP2 ADD PUSH2 0x34F5 JUMPI PUSH1 0x0 DUP1 PUSH1 0x0 DUP1 DUP6 DUP1 PUSH1 0x20 ADD SWAP1 MLOAD DUP2 ADD SWAP1 PUSH2 0x34DC SWAP2 SWAP1 PUSH2 0x5A19 JUMP JUMPDEST SWAP4 POP SWAP4 POP SWAP4 POP SWAP4 POP PUSH2 0x34F0 DUP5 DUP5 DUP5 DUP5 PUSH2 0x44F5 JUMP JUMPDEST POP POP POP POP JUMPDEST PUSH1 0x40 DUP1 MLOAD DUP1 DUP3 ADD SWAP1 SWAP2 MSTORE PUSH1 0x2 DUP2 MSTORE PUSH2 0x1B55 PUSH1 0xF2 SHL PUSH1 0x20 SWAP1 SWAP2 ADD MSTORE PUSH32 0x6F27458A75A197963A149D891EE01B4F59E7DFBCD1A8C7BC1095DC063775C5E9 DUP2 ADD PUSH2 0x3569 JUMPI PUSH1 0x0 DUP1 PUSH1 0x0 DUP1 DUP6 DUP1 PUSH1 0x20 ADD SWAP1 MLOAD DUP2 ADD SWAP1 PUSH2 0x3550 SWAP2 SWAP1 PUSH2 0x5A7A JUMP JUMPDEST SWAP4 POP SWAP4 POP SWAP4 POP SWAP4 POP PUSH2 0x3564 DUP5 DUP5 DUP5 DUP5 PUSH2 0x401A JUMP JUMPDEST POP POP POP POP JUMPDEST PUSH1 0x40 DUP1 MLOAD DUP1 DUP3 ADD SWAP1 SWAP2 MSTORE PUSH1 0x2 DUP2 MSTORE PUSH2 0x1A51 PUSH1 0xF2 SHL PUSH1 0x20 SWAP1 SWAP2 ADD MSTORE PUSH32 0x1CF0197AED3B237C637010856237AFEB1EC5367FD4B836BF00F3BD32EEF1EF77 DUP2 ADD PUSH2 0x35D8 JUMPI PUSH1 0x0 DUP1 PUSH1 0x0 DUP5 DUP1 PUSH1 0x20 ADD SWAP1 MLOAD DUP2 ADD SWAP1 PUSH2 0x35C3 SWAP2 SWAP1 PUSH2 0x5AF7 JUMP JUMPDEST SWAP3 POP SWAP3 POP SWAP3 POP PUSH2 0x35D4 DUP4 DUP4 DUP4 PUSH2 0x3B43 JUMP JUMPDEST POP POP POP JUMPDEST PUSH1 0x40 DUP1 MLOAD DUP1 DUP3 ADD SWAP1 SWAP2 MSTORE PUSH1 0x2 DUP2 MSTORE PUSH2 0x1911 PUSH1 0xF2 SHL PUSH1 0x20 SWAP1 SWAP2 ADD MSTORE PUSH32 0xEDD0EE4C0D87C45F9EDC0B9BA6F7373336C241B06C885E00F23C1AB5EC82A747 DUP2 ADD PUSH2 0x363C JUMPI PUSH1 0x0 DUP3 DUP1 PUSH1 0x20 ADD SWAP1 MLOAD DUP2 ADD SWAP1 PUSH2 0x362F SWAP2 SWAP1 PUSH2 0x557E JUMP JUMPDEST SWAP1 POP PUSH2 0x363A DUP2 PUSH2 0x2808 JUMP JUMPDEST POP JUMPDEST PUSH1 0x40 DUP1 MLOAD DUP1 DUP3 ADD SWAP1 SWAP2 MSTORE PUSH1 0x2 DUP2 MSTORE PUSH2 0x31A1 PUSH1 0xF1 SHL PUSH1 0x20 SWAP1 SWAP2 ADD MSTORE PUSH32 0x2108E84F920E4EEE7D6AC9EF2ABEB540A1D7F56715D474E0B06B236CF4E70312 DUP2 ADD PUSH2 0x36A5 JUMPI PUSH1 0x0 DUP1 DUP4 DUP1 PUSH1 0x20 ADD SWAP1 MLOAD DUP2 ADD SWAP1 PUSH2 0x3694 SWAP2 SWAP1 PUSH2 0x5B51 JUMP JUMPDEST SWAP2 POP SWAP2 POP PUSH2 0x36A2 DUP3 DUP3 PUSH2 0x2B20 JUMP JUMPDEST POP POP JUMPDEST PUSH1 0x40 DUP1 MLOAD DUP1 DUP3 ADD SWAP1 SWAP2 MSTORE PUSH1 0x2 DUP2 MSTORE PUSH2 0x3221 PUSH1 0xF1 SHL PUSH1 0x20 SWAP1 SWAP2 ADD MSTORE PUSH32 0x46E76FB60CBFEA5DC4E313412F858C830E50E6E875D17B0921DB6456F8AC9CDB DUP2 ADD PUSH2 0x3709 JUMPI PUSH1 0x0 DUP3 DUP1 PUSH1 0x20 ADD SWAP1 MLOAD DUP2 ADD SWAP1 PUSH2 0x36FC SWAP2 SWAP1 PUSH2 0x5B97 JUMP JUMPDEST SWAP1 POP PUSH2 0x3707 DUP2 PUSH2 0x2F1A JUMP JUMPDEST POP JUMPDEST PUSH1 0x40 DUP1 MLOAD DUP1 DUP3 ADD SWAP1 SWAP2 MSTORE PUSH1 0x3 DUP2 MSTORE PUSH3 0x614241 PUSH1 0xE8 SHL PUSH1 0x20 SWAP1 SWAP2 ADD MSTORE PUSH32 0x747EDC76097BCCD90F0D440C26B5930408266BBE117772D2C1D5B62A81070BD2 DUP2 ADD PUSH2 0x3773 JUMPI PUSH1 0x0 DUP1 DUP4 DUP1 PUSH1 0x20 ADD SWAP1 MLOAD DUP2 ADD SWAP1 PUSH2 0x3762 SWAP2 SWAP1 PUSH2 0x5B51 JUMP JUMPDEST SWAP2 POP SWAP2 POP PUSH2 0x3770 DUP3 DUP3 PUSH2 0x42AE JUMP JUMPDEST POP POP JUMPDEST PUSH1 0x40 DUP1 MLOAD DUP1 DUP3 ADD SWAP1 SWAP2 MSTORE PUSH1 0x3 DUP2 MSTORE PUSH3 0x724241 PUSH1 0xE8 SHL PUSH1 0x20 SWAP1 SWAP2 ADD MSTORE PUSH32 0xE01588F2B7120B2685EAD94790242F17D977E3D7967BB132B1110F04A44120A7 DUP2 ADD PUSH2 0x37DD JUMPI PUSH1 0x0 DUP1 DUP4 DUP1 PUSH1 0x20 ADD SWAP1 MLOAD DUP2 ADD SWAP1 PUSH2 0x37CC SWAP2 SWAP1 PUSH2 0x5B51 JUMP JUMPDEST SWAP2 POP SWAP2 POP PUSH2 0x37DA DUP3 DUP3 PUSH2 0x2C32 JUMP JUMPDEST POP POP JUMPDEST PUSH1 0x40 DUP1 MLOAD DUP1 DUP3 ADD SWAP1 SWAP2 MSTORE PUSH1 0x3 DUP2 MSTORE PUSH3 0x725441 PUSH1 0xE8 SHL PUSH1 0x20 SWAP1 SWAP2 ADD MSTORE PUSH32 0xE2347E35BD161F6471726760EE12A18A4BD894EC18D0E8149DABE9C97A206819 DUP2 ADD PUSH2 0x3842 JUMPI PUSH1 0x0 DUP3 DUP1 PUSH1 0x20 ADD SWAP1 MLOAD DUP2 ADD SWAP1 PUSH2 0x3835 SWAP2 SWAP1 PUSH2 0x5BCB JUMP JUMPDEST SWAP1 POP PUSH2 0x3840 DUP2 PUSH2 0x3DF8 JUMP JUMPDEST POP JUMPDEST PUSH1 0x40 DUP1 MLOAD DUP1 DUP3 ADD SWAP1 SWAP2 MSTORE PUSH1 0x3 DUP2 MSTORE PUSH3 0x755441 PUSH1 0xE8 SHL PUSH1 0x20 SWAP1 SWAP2 ADD MSTORE PUSH32 0xC2C2A7F0073A768C7BFFC087093ECEFFD50955AD08A9BA26982DC60F1859EB80 DUP2 ADD PUSH2 0x38A7 JUMPI PUSH1 0x0 DUP3 DUP1 PUSH1 0x20 ADD SWAP1 MLOAD DUP2 ADD SWAP1 PUSH2 0x389A SWAP2 SWAP1 PUSH2 0x5BCB JUMP JUMPDEST SWAP1 POP PUSH2 0x38A5 DUP2 PUSH2 0x3DAF JUMP JUMPDEST POP JUMPDEST PUSH1 0x40 DUP1 MLOAD DUP1 DUP3 ADD SWAP1 SWAP2 MSTORE PUSH1 0x1 DUP2 MSTORE PUSH1 0x1B PUSH1 0xFA SHL PUSH1 0x20 SWAP1 SWAP2 ADD MSTORE PUSH32 0x95F2DA642B046F8CC602839A5ECCF7C3E16AAB0D359CDA47F99ED372092820DE DUP2 ADD PUSH2 0x38F4 JUMPI PUSH2 0x38EF PUSH2 0x2767 JUMP JUMPDEST PUSH2 0x3921 JUMP JUMPDEST PUSH1 0x40 MLOAD PUSH3 0x461BCD PUSH1 0xE5 SHL DUP2 MSTORE PUSH1 0x20 PUSH1 0x4 DUP3 ADD MSTORE PUSH1 0x2 PUSH1 0x24 DUP3 ADD MSTORE PUSH2 0x2BA3 PUSH1 0xF1 SHL PUSH1 0x44 DUP3 ADD MSTORE PUSH1 0x64 ADD PUSH2 0xD5A JUMP JUMPDEST PUSH1 0x40 DUP1 MLOAD PUSH1 0x20 DUP2 ADD DUP8 SWAP1 MSTORE SWAP1 DUP2 ADD DUP6 SWAP1 MSTORE PUSH1 0x0 DUP1 MLOAD PUSH1 0x20 PUSH2 0x5F88 DUP4 CODECOPY DUP2 MLOAD SWAP2 MSTORE SWAP1 PUSH1 0x60 ADD PUSH1 0x40 DUP1 MLOAD PUSH1 0x1F NOT DUP2 DUP5 SUB ADD DUP2 MSTORE SWAP1 DUP3 SWAP1 MSTORE PUSH2 0x3961 SWAP2 CALLER SWAP1 PUSH2 0x5BE8 JUMP JUMPDEST PUSH1 0x40 MLOAD DUP1 SWAP2 SUB SWAP1 LOG1 PUSH1 0x0 DUP6 DUP2 MSTORE PUSH1 0x16 PUSH1 0x20 SWAP1 DUP2 MSTORE PUSH1 0x40 DUP1 DUP4 KECCAK256 PUSH1 0x1 ADD SLOAD PUSH1 0x1B SWAP1 SWAP3 MSTORE SWAP1 SWAP2 KECCAK256 SLOAD SUB PUSH2 0x1934 JUMPI PUSH1 0x40 MLOAD DUP6 DUP2 MSTORE PUSH32 0x8D0D26399C7B999F9067E92DCF5A21EBC7BF6CD77BD186E721E4DFC2654E7830 SWAP1 PUSH1 0x20 ADD PUSH2 0x17D9 JUMP JUMPDEST DUP2 PUSH2 0x39D6 DUP2 PUSH1 0x0 DUP1 SLOAD SWAP2 DUP2 MSTORE PUSH1 0x6 PUSH1 0x20 MSTORE PUSH1 0x40 SWAP1 KECCAK256 SLOAD GT SWAP1 JUMP JUMPDEST PUSH2 0x39F2 JUMPI PUSH1 0x40 MLOAD PUSH3 0x461BCD PUSH1 0xE5 SHL DUP2 MSTORE PUSH1 0x4 ADD PUSH2 0xD5A SWAP1 PUSH2 0x5467 JUMP JUMPDEST PUSH1 0x1 DUP1 SLOAD PUSH1 0xFF AND ISZERO ISZERO EQ PUSH2 0x3A18 JUMPI PUSH1 0x40 MLOAD PUSH3 0x461BCD PUSH1 0xE5 SHL DUP2 MSTORE PUSH1 0x4 ADD PUSH2 0xD5A SWAP1 PUSH2 0x5483 JUMP JUMPDEST PUSH1 0x0 SLOAD PUSH2 0x3A24 DUP4 PUSH2 0x2580 JUMP JUMPDEST ISZERO PUSH2 0x3AB9 JUMPI PUSH1 0x1 PUSH1 0x1 PUSH1 0xA0 SHL SUB DUP4 AND PUSH1 0x0 SWAP1 DUP2 MSTORE PUSH1 0x3 PUSH1 0x20 MSTORE PUSH1 0x40 SWAP1 KECCAK256 SLOAD PUSH2 0x3A59 SWAP1 DUP3 PUSH1 0x0 SWAP2 DUP3 MSTORE PUSH1 0x6 PUSH1 0x20 MSTORE PUSH1 0x40 SWAP1 SWAP2 KECCAK256 SSTORE JUMP JUMPDEST PUSH1 0x0 DUP5 DUP2 MSTORE PUSH1 0x2 PUSH1 0x20 DUP2 DUP2 MSTORE PUSH1 0x40 DUP1 DUP5 KECCAK256 DUP1 SLOAD PUSH1 0x1 SWAP2 DUP3 ADD SLOAD PUSH1 0x1 PUSH1 0x1 PUSH1 0xA0 SHL SUB DUP11 AND DUP8 MSTORE PUSH1 0x3 DUP6 MSTORE DUP4 DUP8 KECCAK256 SLOAD DUP8 MSTORE SWAP5 SWAP1 SWAP4 MSTORE SWAP1 DUP5 KECCAK256 DUP1 SLOAD SWAP2 ADD SLOAD DUP5 SWAP4 PUSH2 0x3AA2 SWAP4 SWAP3 SWAP1 SWAP2 PUSH2 0x2A58 JUMP JUMPDEST SWAP2 POP SWAP2 POP PUSH2 0x3AB2 DUP3 DUP3 DUP8 DUP7 PUSH2 0x49F8 JUMP JUMPDEST POP POP PUSH2 0x3ADB JUMP JUMPDEST PUSH1 0x0 DUP5 DUP2 MSTORE PUSH1 0x2 PUSH1 0x20 MSTORE PUSH1 0x40 SWAP1 KECCAK256 DUP1 SLOAD PUSH1 0x1 SWAP1 SWAP2 ADD SLOAD PUSH2 0x3ADB SWAP2 SWAP1 DUP6 DUP5 PUSH2 0x49F8 JUMP JUMPDEST PUSH1 0x0 DUP5 DUP2 MSTORE PUSH1 0x6 PUSH1 0x20 SWAP1 DUP2 MSTORE PUSH1 0x40 DUP1 DUP4 KECCAK256 DUP5 SWAP1 SSTORE PUSH1 0x2 SWAP1 SWAP2 MSTORE DUP1 DUP3 KECCAK256 DUP1 SLOAD PUSH1 0x1 SWAP1 SWAP2 ADD SLOAD SWAP2 MLOAD PUSH32 0xD8D12448ACB9A12D0CA44F527C717C0DE64F03B49CA4032F87FEAE10AF5EAABE SWAP4 PUSH2 0x3B35 SWAP4 DUP10 SWAP4 SWAP3 SWAP1 SWAP2 DUP10 SWAP2 DUP2 SWAP1 PUSH2 0x55D0 JUMP JUMPDEST PUSH1 0x40 MLOAD DUP1 SWAP2 SUB SWAP1 LOG1 POP POP POP POP JUMP JUMPDEST PUSH1 0x1 DUP1 SLOAD PUSH1 0xFF AND ISZERO ISZERO EQ PUSH2 0x3B69 JUMPI PUSH1 0x40 MLOAD PUSH3 0x461BCD PUSH1 0xE5 SHL DUP2 MSTORE PUSH1 0x4 ADD PUSH2 0xD5A SWAP1 PUSH2 0x5483 JUMP JUMPDEST PUSH1 0x0 SLOAD PUSH1 0x40 MLOAD PUSH1 0xE SWAP1 PUSH2 0x3B7D SWAP1 DUP7 SWAP1 PUSH2 0x542F JUMP JUMPDEST SWAP1 DUP2 MSTORE PUSH1 0x40 DUP1 MLOAD PUSH1 0x20 SWAP3 DUP2 SWAP1 SUB DUP4 ADD SWAP1 KECCAK256 PUSH1 0x1 PUSH1 0x1 PUSH1 0xA0 SHL SUB DUP7 AND PUSH1 0x0 SWAP1 DUP2 MSTORE SWAP3 MSTORE SWAP1 KECCAK256 SLOAD DUP3 GT ISZERO PUSH2 0x3BC1 JUMPI PUSH1 0x40 MLOAD PUSH3 0x461BCD PUSH1 0xE5 SHL DUP2 MSTORE PUSH1 0x4 ADD PUSH2 0xD5A SWAP1 PUSH2 0x5C14 JUMP JUMPDEST DUP2 PUSH1 0xE DUP6 PUSH1 0x40 MLOAD PUSH2 0x3BD2 SWAP2 SWAP1 PUSH2 0x542F JUMP JUMPDEST SWAP1 DUP2 MSTORE PUSH1 0x20 ADD PUSH1 0x40 MLOAD DUP1 SWAP2 SUB SWAP1 KECCAK256 PUSH1 0x0 DUP6 PUSH1 0x1 PUSH1 0x1 PUSH1 0xA0 SHL SUB AND PUSH1 0x1 PUSH1 0x1 PUSH1 0xA0 SHL SUB AND DUP2 MSTORE PUSH1 0x20 ADD SWAP1 DUP2 MSTORE PUSH1 0x20 ADD PUSH1 0x0 KECCAK256 PUSH1 0x0 DUP3 DUP3 SLOAD PUSH2 0x3C12 SWAP2 SWAP1 PUSH2 0x54FC JUMP JUMPDEST SWAP1 SWAP2 SSTORE POP POP PUSH1 0x40 MLOAD PUSH1 0xE SWAP1 PUSH2 0x3C28 SWAP1 DUP7 SWAP1 PUSH2 0x542F JUMP JUMPDEST SWAP1 DUP2 MSTORE PUSH1 0x40 DUP1 MLOAD PUSH1 0x20 SWAP3 DUP2 SWAP1 SUB DUP4 ADD SWAP1 KECCAK256 PUSH1 0x1 PUSH1 0x1 PUSH1 0xA0 SHL SUB DUP7 AND PUSH1 0x0 SWAP1 DUP2 MSTORE SWAP3 MSTORE SWAP1 KECCAK256 SLOAD ISZERO DUP1 ISZERO PUSH2 0x3C62 JUMPI POP PUSH1 0x1 PUSH1 0x1 PUSH1 0xA0 SHL SUB DUP4 AND ISZERO ISZERO JUMPDEST ISZERO PUSH2 0x3C9C JUMPI PUSH1 0x1 PUSH1 0xD DUP6 PUSH1 0x40 MLOAD PUSH2 0x3C79 SWAP2 SWAP1 PUSH2 0x542F JUMP JUMPDEST SWAP1 DUP2 MSTORE PUSH1 0x20 ADD PUSH1 0x40 MLOAD DUP1 SWAP2 SUB SWAP1 KECCAK256 PUSH1 0x0 DUP3 DUP3 SLOAD PUSH2 0x3C96 SWAP2 SWAP1 PUSH2 0x54FC JUMP JUMPDEST SWAP1 SWAP2 SSTORE POP POP JUMPDEST PUSH1 0x40 DUP1 MLOAD DUP1 DUP3 ADD DUP3 MSTORE PUSH1 0x1 PUSH1 0x1 PUSH1 0xA0 SHL SUB DUP6 DUP2 AND DUP3 MSTORE PUSH1 0x20 DUP1 DUP4 ADD DUP7 DUP2 MSTORE PUSH1 0x0 DUP7 DUP2 MSTORE PUSH1 0x13 DUP4 MSTORE DUP6 DUP2 KECCAK256 SWAP5 MLOAD DUP6 SLOAD PUSH1 0x1 PUSH1 0x1 PUSH1 0xA0 SHL SUB NOT AND SWAP5 AND SWAP4 SWAP1 SWAP4 OR DUP5 SSTORE MLOAD PUSH1 0x1 SWAP4 DUP5 ADD SSTORE PUSH1 0x14 DUP2 MSTORE DUP4 DUP3 KECCAK256 DUP7 SWAP1 SSTORE PUSH1 0x12 DUP2 MSTORE SWAP1 DUP4 SWAP1 KECCAK256 DUP1 SLOAD PUSH1 0xFF NOT AND SWAP1 SWAP3 OR SWAP1 SWAP2 SSTORE SWAP1 MLOAD PUSH1 0x0 DUP1 MLOAD PUSH1 0x20 PUSH2 0x5F88 DUP4 CODECOPY DUP2 MLOAD SWAP2 MSTORE SWAP2 PUSH2 0x3D23 SWAP2 DUP8 SWAP2 DUP8 SWAP2 DUP8 SWAP2 ADD PUSH2 0x5C30 JUMP JUMPDEST PUSH1 0x40 DUP1 MLOAD PUSH1 0x1F NOT DUP2 DUP5 SUB ADD DUP2 MSTORE SWAP1 DUP3 SWAP1 MSTORE PUSH2 0x3B35 SWAP2 CALLER SWAP1 PUSH2 0x5C5E JUMP JUMPDEST PUSH1 0x1 DUP1 SLOAD PUSH1 0xFF AND ISZERO ISZERO EQ PUSH2 0x3D65 JUMPI PUSH1 0x40 MLOAD PUSH3 0x461BCD PUSH1 0xE5 SHL DUP2 MSTORE PUSH1 0x4 ADD PUSH2 0xD5A SWAP1 PUSH2 0x5483 JUMP JUMPDEST PUSH1 0xB DUP1 SLOAD PUSH1 0xFF NOT AND DUP3 ISZERO ISZERO SWAP1 DUP2 OR SWAP1 SWAP2 SSTORE PUSH1 0x40 DUP1 MLOAD PUSH1 0x20 DUP2 ADD SWAP3 SWAP1 SWAP3 MSTORE PUSH1 0x0 DUP1 MLOAD PUSH1 0x20 PUSH2 0x5F88 DUP4 CODECOPY DUP2 MLOAD SWAP2 MSTORE SWAP2 ADD PUSH1 0x40 DUP1 MLOAD PUSH1 0x1F NOT DUP2 DUP5 SUB ADD DUP2 MSTORE SWAP1 DUP3 SWAP1 MSTORE PUSH2 0x3094 SWAP2 CALLER SWAP1 PUSH2 0x5C8A JUMP JUMPDEST PUSH2 0x3DB8 DUP2 PUSH2 0x4AFA JUMP JUMPDEST PUSH1 0x40 DUP1 MLOAD PUSH1 0x1 PUSH1 0x1 PUSH1 0xA0 SHL SUB DUP4 AND PUSH1 0x20 DUP3 ADD MSTORE PUSH1 0x0 DUP1 MLOAD PUSH1 0x20 PUSH2 0x5F88 DUP4 CODECOPY DUP2 MLOAD SWAP2 MSTORE SWAP2 ADD PUSH1 0x40 DUP1 MLOAD PUSH1 0x1F NOT DUP2 DUP5 SUB ADD DUP2 MSTORE SWAP1 DUP3 SWAP1 MSTORE PUSH2 0x3094 SWAP2 CALLER SWAP1 PUSH2 0x5CB7 JUMP JUMPDEST PUSH2 0x3E01 DUP2 PUSH2 0x4B8B JUMP JUMPDEST PUSH1 0x40 DUP1 MLOAD PUSH1 0x1 PUSH1 0x1 PUSH1 0xA0 SHL SUB DUP4 AND PUSH1 0x20 DUP3 ADD MSTORE PUSH1 0x0 DUP1 MLOAD PUSH1 0x20 PUSH2 0x5F88 DUP4 CODECOPY DUP2 MLOAD SWAP2 MSTORE SWAP2 ADD PUSH1 0x40 DUP1 MLOAD PUSH1 0x1F NOT DUP2 DUP5 SUB ADD DUP2 MSTORE SWAP1 DUP3 SWAP1 MSTORE PUSH2 0x3094 SWAP2 CALLER SWAP1 PUSH2 0x5CE3 JUMP JUMPDEST DUP4 PUSH2 0x3E5B DUP2 PUSH1 0x0 DUP1 SLOAD SWAP2 DUP2 MSTORE PUSH1 0x6 PUSH1 0x20 MSTORE PUSH1 0x40 SWAP1 KECCAK256 SLOAD GT SWAP1 JUMP JUMPDEST PUSH2 0x3E77 JUMPI PUSH1 0x40 MLOAD PUSH3 0x461BCD PUSH1 0xE5 SHL DUP2 MSTORE PUSH1 0x4 ADD PUSH2 0xD5A SWAP1 PUSH2 0x5467 JUMP JUMPDEST PUSH1 0x1 DUP1 SLOAD PUSH1 0xFF AND ISZERO ISZERO EQ PUSH2 0x3E9D JUMPI PUSH1 0x40 MLOAD PUSH3 0x461BCD PUSH1 0xE5 SHL DUP2 MSTORE PUSH1 0x4 ADD PUSH2 0xD5A SWAP1 PUSH2 0x5483 JUMP JUMPDEST PUSH1 0x0 DUP6 DUP2 MSTORE PUSH1 0x2 PUSH1 0x20 MSTORE PUSH1 0x40 SWAP1 KECCAK256 PUSH1 0x1 DUP2 ADD SLOAD SWAP1 SLOAD PUSH2 0x3EBC SWAP2 SWAP1 PUSH2 0x54B5 JUMP JUMPDEST PUSH2 0x3EC6 DUP5 DUP7 PUSH2 0x54B5 JUMP JUMPDEST LT PUSH2 0x3EE3 JUMPI PUSH1 0x40 MLOAD PUSH3 0x461BCD PUSH1 0xE5 SHL DUP2 MSTORE PUSH1 0x4 ADD PUSH2 0xD5A SWAP1 PUSH2 0x5C14 JUMP JUMPDEST PUSH1 0x0 SLOAD PUSH2 0x3EEF DUP4 PUSH2 0x2580 JUMP JUMPDEST ISZERO PUSH2 0x3F75 JUMPI PUSH1 0x1 PUSH1 0x1 PUSH1 0xA0 SHL SUB DUP4 AND PUSH1 0x0 SWAP1 DUP2 MSTORE PUSH1 0x3 PUSH1 0x20 SWAP1 DUP2 MSTORE PUSH1 0x40 DUP1 DUP4 KECCAK256 SLOAD DUP4 MSTORE PUSH1 0x2 SWAP1 SWAP2 MSTORE DUP2 KECCAK256 DUP1 SLOAD PUSH1 0x1 SWAP1 SWAP2 ADD SLOAD DUP3 SWAP2 PUSH2 0x3F2E SWAP2 DUP10 DUP10 PUSH2 0x2A58 JUMP JUMPDEST SWAP2 POP SWAP2 POP PUSH2 0x3F3E DUP3 DUP3 DUP8 DUP7 PUSH2 0x49F8 JUMP JUMPDEST PUSH1 0x1 PUSH1 0x1 PUSH1 0xA0 SHL SUB DUP6 AND PUSH1 0x0 SWAP1 DUP2 MSTORE PUSH1 0x3 PUSH1 0x20 MSTORE PUSH1 0x40 SWAP1 KECCAK256 SLOAD PUSH2 0x3F6E SWAP1 DUP5 PUSH1 0x0 SWAP2 DUP3 MSTORE PUSH1 0x6 PUSH1 0x20 MSTORE PUSH1 0x40 SWAP1 SWAP2 KECCAK256 SSTORE JUMP JUMPDEST POP POP PUSH2 0x3F81 JUMP JUMPDEST PUSH2 0x3F81 DUP6 DUP6 DUP6 DUP5 PUSH2 0x49F8 JUMP JUMPDEST PUSH1 0x0 DUP7 DUP2 MSTORE PUSH1 0x6 PUSH1 0x20 SWAP1 DUP2 MSTORE PUSH1 0x40 DUP1 DUP4 KECCAK256 DUP5 SWAP1 SSTORE PUSH1 0x2 SWAP1 SWAP2 MSTORE DUP2 KECCAK256 DUP1 SLOAD PUSH1 0x1 SWAP1 SWAP2 ADD SLOAD DUP3 SWAP2 PUSH2 0x3FB1 SWAP2 DUP10 DUP10 PUSH2 0x4BEA JUMP JUMPDEST PUSH1 0x0 DUP11 DUP2 MSTORE PUSH1 0x2 PUSH1 0x20 DUP2 SWAP1 MSTORE PUSH1 0x40 SWAP1 SWAP2 KECCAK256 ADD SLOAD SWAP2 SWAP4 POP SWAP2 POP PUSH2 0x3FE0 SWAP1 DUP4 SWAP1 DUP4 SWAP1 PUSH1 0x1 PUSH1 0x1 PUSH1 0xA0 SHL SUB AND DUP7 PUSH2 0x49F8 JUMP JUMPDEST PUSH32 0xD8D12448ACB9A12D0CA44F527C717C0DE64F03B49CA4032F87FEAE10AF5EAABE DUP9 DUP9 DUP9 DUP9 PUSH1 0x0 DUP1 PUSH1 0x40 MLOAD PUSH2 0x12E4 SWAP7 SWAP6 SWAP5 SWAP4 SWAP3 SWAP2 SWAP1 PUSH2 0x55D0 JUMP JUMPDEST DUP3 PUSH2 0x4024 DUP2 PUSH2 0x1DF9 JUMP JUMPDEST PUSH2 0x4056 JUMPI PUSH1 0x40 MLOAD PUSH3 0x461BCD PUSH1 0xE5 SHL DUP2 MSTORE PUSH1 0x20 PUSH1 0x4 DUP3 ADD MSTORE PUSH1 0x3 PUSH1 0x24 DUP3 ADD MSTORE PUSH3 0x444E45 PUSH1 0xE8 SHL PUSH1 0x44 DUP3 ADD MSTORE PUSH1 0x64 ADD PUSH2 0xD5A JUMP JUMPDEST PUSH1 0x1 DUP1 SLOAD PUSH1 0xFF AND ISZERO ISZERO EQ PUSH2 0x407C JUMPI PUSH1 0x40 MLOAD PUSH3 0x461BCD PUSH1 0xE5 SHL DUP2 MSTORE PUSH1 0x4 ADD PUSH2 0xD5A SWAP1 PUSH2 0x5483 JUMP JUMPDEST PUSH1 0xE DUP6 PUSH1 0x40 MLOAD PUSH2 0x408C SWAP2 SWAP1 PUSH2 0x542F JUMP JUMPDEST SWAP1 DUP2 MSTORE PUSH1 0x40 DUP1 MLOAD PUSH1 0x20 SWAP3 DUP2 SWAP1 SUB DUP4 ADD SWAP1 KECCAK256 PUSH1 0x1 PUSH1 0x1 PUSH1 0xA0 SHL SUB DUP7 AND PUSH1 0x0 SWAP1 DUP2 MSTORE SWAP3 MSTORE SWAP1 KECCAK256 SLOAD DUP3 GT ISZERO PUSH2 0x40D0 JUMPI PUSH1 0x40 MLOAD PUSH3 0x461BCD PUSH1 0xE5 SHL DUP2 MSTORE PUSH1 0x4 ADD PUSH2 0xD5A SWAP1 PUSH2 0x5C14 JUMP JUMPDEST DUP2 PUSH1 0xE DUP7 PUSH1 0x40 MLOAD PUSH2 0x40E1 SWAP2 SWAP1 PUSH2 0x542F JUMP JUMPDEST SWAP1 DUP2 MSTORE PUSH1 0x20 ADD PUSH1 0x40 MLOAD DUP1 SWAP2 SUB SWAP1 KECCAK256 PUSH1 0x0 DUP6 PUSH1 0x1 PUSH1 0x1 PUSH1 0xA0 SHL SUB AND PUSH1 0x1 PUSH1 0x1 PUSH1 0xA0 SHL SUB AND DUP2 MSTORE PUSH1 0x20 ADD SWAP1 DUP2 MSTORE PUSH1 0x20 ADD PUSH1 0x0 KECCAK256 PUSH1 0x0 DUP3 DUP3 SLOAD PUSH2 0x4121 SWAP2 SWAP1 PUSH2 0x54FC JUMP JUMPDEST SWAP1 SWAP2 SSTORE POP POP PUSH1 0x1 PUSH1 0x1 PUSH1 0xA0 SHL SUB DUP4 AND ISZERO PUSH2 0x4215 JUMPI PUSH1 0xE DUP6 PUSH1 0x40 MLOAD PUSH2 0x4145 SWAP2 SWAP1 PUSH2 0x542F JUMP JUMPDEST SWAP1 DUP2 MSTORE PUSH1 0x40 DUP1 MLOAD PUSH1 0x20 SWAP3 DUP2 SWAP1 SUB DUP4 ADD SWAP1 KECCAK256 PUSH1 0x1 PUSH1 0x1 PUSH1 0xA0 SHL SUB DUP7 AND PUSH1 0x0 SWAP1 DUP2 MSTORE SWAP3 MSTORE DUP2 KECCAK256 SLOAD SWAP1 SUB PUSH2 0x41A5 JUMPI PUSH1 0x1 PUSH1 0xD DUP7 PUSH1 0x40 MLOAD PUSH2 0x4182 SWAP2 SWAP1 PUSH2 0x542F JUMP JUMPDEST SWAP1 DUP2 MSTORE PUSH1 0x20 ADD PUSH1 0x40 MLOAD DUP1 SWAP2 SUB SWAP1 KECCAK256 PUSH1 0x0 DUP3 DUP3 SLOAD PUSH2 0x419F SWAP2 SWAP1 PUSH2 0x54FC JUMP JUMPDEST SWAP1 SWAP2 SSTORE POP POP JUMPDEST PUSH1 0xE DUP5 PUSH1 0x40 MLOAD PUSH2 0x41B5 SWAP2 SWAP1 PUSH2 0x542F JUMP JUMPDEST SWAP1 DUP2 MSTORE PUSH1 0x40 DUP1 MLOAD PUSH1 0x20 SWAP3 DUP2 SWAP1 SUB DUP4 ADD SWAP1 KECCAK256 PUSH1 0x1 PUSH1 0x1 PUSH1 0xA0 SHL SUB DUP7 AND PUSH1 0x0 SWAP1 DUP2 MSTORE SWAP3 MSTORE DUP2 KECCAK256 SLOAD SWAP1 SUB PUSH2 0x4215 JUMPI PUSH1 0x1 PUSH1 0xD DUP6 PUSH1 0x40 MLOAD PUSH2 0x41F2 SWAP2 SWAP1 PUSH2 0x542F JUMP JUMPDEST SWAP1 DUP2 MSTORE PUSH1 0x20 ADD PUSH1 0x40 MLOAD DUP1 SWAP2 SUB SWAP1 KECCAK256 PUSH1 0x0 DUP3 DUP3 SLOAD PUSH2 0x420F SWAP2 SWAP1 PUSH2 0x53E2 JUMP JUMPDEST SWAP1 SWAP2 SSTORE POP POP JUMPDEST DUP2 PUSH1 0xE DUP6 PUSH1 0x40 MLOAD PUSH2 0x4226 SWAP2 SWAP1 PUSH2 0x542F JUMP JUMPDEST SWAP1 DUP2 MSTORE PUSH1 0x20 ADD PUSH1 0x40 MLOAD DUP1 SWAP2 SUB SWAP1 KECCAK256 PUSH1 0x0 DUP6 PUSH1 0x1 PUSH1 0x1 PUSH1 0xA0 SHL SUB AND PUSH1 0x1 PUSH1 0x1 PUSH1 0xA0 SHL SUB AND DUP2 MSTORE PUSH1 0x20 ADD SWAP1 DUP2 MSTORE PUSH1 0x20 ADD PUSH1 0x0 KECCAK256 PUSH1 0x0 DUP3 DUP3 SLOAD PUSH2 0x4266 SWAP2 SWAP1 PUSH2 0x53E2 JUMP JUMPDEST SWAP1 SWAP2 SSTORE POP POP PUSH1 0x40 MLOAD PUSH1 0x0 DUP1 MLOAD PUSH1 0x20 PUSH2 0x5F88 DUP4 CODECOPY DUP2 MLOAD SWAP2 MSTORE SWAP1 PUSH2 0x4292 SWAP1 DUP8 SWAP1 DUP8 SWAP1 DUP8 SWAP1 DUP8 SWAP1 PUSH1 0x20 ADD PUSH2 0x5D0F JUMP JUMPDEST PUSH1 0x40 DUP1 MLOAD PUSH1 0x1F NOT DUP2 DUP5 SUB ADD DUP2 MSTORE SWAP1 DUP3 SWAP1 MSTORE PUSH2 0x17D9 SWAP2 CALLER SWAP1 PUSH2 0x5D51 JUMP JUMPDEST PUSH1 0x1 DUP1 SLOAD PUSH1 0xFF AND ISZERO ISZERO EQ PUSH2 0x42D4 JUMPI PUSH1 0x40 MLOAD PUSH3 0x461BCD PUSH1 0xE5 SHL DUP2 MSTORE PUSH1 0x4 ADD PUSH2 0xD5A SWAP1 PUSH2 0x5483 JUMP JUMPDEST PUSH2 0x42F8 PUSH1 0x40 MLOAD DUP1 PUSH1 0x40 ADD PUSH1 0x40 MSTORE DUP1 PUSH1 0x2 DUP2 MSTORE PUSH1 0x20 ADD PUSH2 0x36A1 PUSH1 0xF1 SHL DUP2 MSTORE POP DUP3 PUSH2 0x24AA JUMP JUMPDEST PUSH2 0x4329 JUMPI PUSH1 0x40 MLOAD PUSH3 0x461BCD PUSH1 0xE5 SHL DUP2 MSTORE PUSH1 0x20 PUSH1 0x4 DUP3 ADD MSTORE PUSH1 0x2 PUSH1 0x24 DUP3 ADD MSTORE PUSH2 0x4E5 PUSH1 0xF4 SHL PUSH1 0x44 DUP3 ADD MSTORE PUSH1 0x64 ADD PUSH2 0xD5A JUMP JUMPDEST PUSH1 0x1 PUSH1 0xF DUP4 PUSH1 0x40 MLOAD PUSH2 0x433B SWAP2 SWAP1 PUSH2 0x542F JUMP JUMPDEST SWAP1 DUP2 MSTORE PUSH1 0x40 DUP1 MLOAD PUSH1 0x20 SWAP3 DUP2 SWAP1 SUB DUP4 ADD DUP2 KECCAK256 PUSH1 0x1 PUSH1 0x1 PUSH1 0xA0 SHL SUB DUP7 AND PUSH1 0x0 SWAP1 DUP2 MSTORE SWAP1 DUP5 MSTORE SWAP2 SWAP1 SWAP2 KECCAK256 DUP1 SLOAD PUSH1 0xFF NOT AND SWAP4 ISZERO ISZERO SWAP4 SWAP1 SWAP4 OR SWAP1 SWAP3 SSTORE PUSH1 0x0 DUP1 MLOAD PUSH1 0x20 PUSH2 0x5F88 DUP4 CODECOPY DUP2 MLOAD SWAP2 MSTORE SWAP2 PUSH2 0x4390 SWAP2 DUP6 SWAP2 DUP6 SWAP2 ADD PUSH2 0x56B9 JUMP JUMPDEST PUSH1 0x40 DUP1 MLOAD PUSH1 0x1F NOT DUP2 DUP5 SUB ADD DUP2 MSTORE SWAP1 DUP3 SWAP1 MSTORE PUSH2 0x275B SWAP2 CALLER SWAP1 PUSH2 0x5D7D JUMP JUMPDEST PUSH1 0x1 DUP1 SLOAD PUSH1 0xFF AND ISZERO ISZERO EQ PUSH2 0x43D2 JUMPI PUSH1 0x40 MLOAD PUSH3 0x461BCD PUSH1 0xE5 SHL DUP2 MSTORE PUSH1 0x4 ADD PUSH2 0xD5A SWAP1 PUSH2 0x5483 JUMP JUMPDEST DUP1 PUSH1 0x10 DUP5 PUSH1 0x40 MLOAD PUSH2 0x43E3 SWAP2 SWAP1 PUSH2 0x542F JUMP JUMPDEST SWAP1 DUP2 MSTORE PUSH1 0x40 DUP1 MLOAD PUSH1 0x20 SWAP3 DUP2 SWAP1 SUB DUP4 ADD SWAP1 KECCAK256 PUSH1 0x1 PUSH1 0x1 PUSH1 0xA0 SHL SUB DUP7 AND PUSH1 0x0 SWAP1 DUP2 MSTORE SWAP3 MSTORE SWAP1 KECCAK256 DUP1 SLOAD PUSH1 0xFF NOT AND PUSH1 0x1 DUP4 PUSH1 0x2 DUP2 GT ISZERO PUSH2 0x4421 JUMPI PUSH2 0x4421 PUSH2 0x53F5 JUMP JUMPDEST MUL OR SWAP1 SSTORE POP PUSH1 0x0 DUP1 MLOAD PUSH1 0x20 PUSH2 0x5F88 DUP4 CODECOPY DUP2 MLOAD SWAP2 MSTORE DUP4 DUP4 DUP4 PUSH1 0x40 MLOAD PUSH1 0x20 ADD PUSH2 0x444A SWAP4 SWAP3 SWAP2 SWAP1 PUSH2 0x5DA9 JUMP JUMPDEST PUSH1 0x40 DUP1 MLOAD PUSH1 0x1F NOT DUP2 DUP5 SUB ADD DUP2 MSTORE SWAP1 DUP3 SWAP1 MSTORE PUSH2 0xCC5 SWAP2 CALLER SWAP1 PUSH2 0x5DDA JUMP JUMPDEST PUSH1 0x0 DUP1 PUSH1 0x0 DUP5 DUP5 GT PUSH2 0x4477 JUMPI PUSH1 0x0 DUP1 REVERT JUMPDEST PUSH1 0x0 DUP5 PUSH2 0x4484 DUP8 DUP10 PUSH2 0x54E5 JUMP JUMPDEST PUSH2 0x448E SWAP2 SWAP1 PUSH2 0x54B5 JUMP JUMPDEST SWAP1 POP PUSH1 0x0 DUP6 PUSH2 0x449D DUP9 DUP3 PUSH2 0x54FC JUMP JUMPDEST PUSH2 0x44A7 SWAP1 DUP11 PUSH2 0x54E5 JUMP JUMPDEST PUSH2 0x44B1 SWAP2 SWAP1 PUSH2 0x54B5 JUMP JUMPDEST SWAP1 POP DUP2 DUP2 PUSH2 0x44BF DUP2 DUP4 PUSH2 0x53E2 JUMP JUMPDEST PUSH2 0x44C9 SWAP1 DUP12 PUSH2 0x54FC JUMP JUMPDEST SWAP5 POP SWAP5 POP SWAP5 POP POP POP SWAP4 POP SWAP4 POP SWAP4 SWAP1 POP JUMP JUMPDEST PUSH1 0x0 DUP3 DUP6 EQ DUP1 ISZERO PUSH2 0x44EA JUMPI POP DUP2 DUP5 EQ JUMPDEST SWAP1 POP JUMPDEST SWAP5 SWAP4 POP POP POP POP JUMP JUMPDEST PUSH1 0x1 DUP1 SLOAD PUSH1 0xFF AND ISZERO ISZERO EQ PUSH2 0x451B JUMPI PUSH1 0x40 MLOAD PUSH3 0x461BCD PUSH1 0xE5 SHL DUP2 MSTORE PUSH1 0x4 ADD PUSH2 0xD5A SWAP1 PUSH2 0x5483 JUMP JUMPDEST PUSH1 0xE DUP5 PUSH1 0x40 MLOAD PUSH2 0x452B SWAP2 SWAP1 PUSH2 0x542F JUMP JUMPDEST SWAP1 DUP2 MSTORE PUSH1 0x40 DUP1 MLOAD PUSH1 0x20 SWAP3 DUP2 SWAP1 SUB DUP4 ADD SWAP1 KECCAK256 PUSH1 0x1 PUSH1 0x1 PUSH1 0xA0 SHL SUB DUP7 AND PUSH1 0x0 SWAP1 DUP2 MSTORE SWAP3 MSTORE SWAP1 KECCAK256 SLOAD DUP3 GT ISZERO PUSH2 0x456F JUMPI PUSH1 0x40 MLOAD PUSH3 0x461BCD PUSH1 0xE5 SHL DUP2 MSTORE PUSH1 0x4 ADD PUSH2 0xD5A SWAP1 PUSH2 0x5C14 JUMP JUMPDEST PUSH2 0x457A DUP4 DUP4 DUP4 PUSH2 0x2CEE JUMP JUMPDEST DUP2 PUSH1 0xE DUP6 PUSH1 0x40 MLOAD PUSH2 0x458B SWAP2 SWAP1 PUSH2 0x542F JUMP JUMPDEST SWAP1 DUP2 MSTORE PUSH1 0x20 ADD PUSH1 0x40 MLOAD DUP1 SWAP2 SUB SWAP1 KECCAK256 PUSH1 0x0 DUP6 PUSH1 0x1 PUSH1 0x1 PUSH1 0xA0 SHL SUB AND PUSH1 0x1 PUSH1 0x1 PUSH1 0xA0 SHL SUB AND DUP2 MSTORE PUSH1 0x20 ADD SWAP1 DUP2 MSTORE PUSH1 0x20 ADD PUSH1 0x0 KECCAK256 PUSH1 0x0 DUP3 DUP3 SLOAD PUSH2 0x45CB SWAP2 SWAP1 PUSH2 0x54FC JUMP JUMPDEST SWAP1 SWAP2 SSTORE POP POP PUSH1 0x40 MLOAD PUSH1 0xE SWAP1 PUSH2 0x45E1 SWAP1 DUP7 SWAP1 PUSH2 0x542F JUMP JUMPDEST SWAP1 DUP2 MSTORE PUSH1 0x40 DUP1 MLOAD PUSH1 0x20 SWAP3 DUP2 SWAP1 SUB DUP4 ADD SWAP1 KECCAK256 PUSH1 0x1 PUSH1 0x1 PUSH1 0xA0 SHL SUB DUP7 AND PUSH1 0x0 SWAP1 DUP2 MSTORE SWAP3 MSTORE SWAP1 KECCAK256 SLOAD ISZERO DUP1 ISZERO PUSH2 0x461B JUMPI POP PUSH1 0x1 PUSH1 0x1 PUSH1 0xA0 SHL SUB DUP4 AND ISZERO ISZERO JUMPDEST ISZERO PUSH2 0x4655 JUMPI PUSH1 0x1 PUSH1 0xD DUP6 PUSH1 0x40 MLOAD PUSH2 0x4632 SWAP2 SWAP1 PUSH2 0x542F JUMP JUMPDEST SWAP1 DUP2 MSTORE PUSH1 0x20 ADD PUSH1 0x40 MLOAD DUP1 SWAP2 SUB SWAP1 KECCAK256 PUSH1 0x0 DUP3 DUP3 SLOAD PUSH2 0x464F SWAP2 SWAP1 PUSH2 0x54FC JUMP JUMPDEST SWAP1 SWAP2 SSTORE POP POP JUMPDEST PUSH1 0x0 DUP1 MLOAD PUSH1 0x20 PUSH2 0x5F88 DUP4 CODECOPY DUP2 MLOAD SWAP2 MSTORE DUP5 DUP5 DUP5 DUP5 PUSH1 0x40 MLOAD PUSH1 0x20 ADD PUSH2 0x467B SWAP5 SWAP4 SWAP3 SWAP2 SWAP1 PUSH2 0x5E06 JUMP JUMPDEST PUSH1 0x40 DUP1 MLOAD PUSH1 0x1F NOT DUP2 DUP5 SUB ADD DUP2 MSTORE SWAP1 DUP3 SWAP1 MSTORE PUSH2 0x3B35 SWAP2 CALLER SWAP1 PUSH2 0x5E42 JUMP JUMPDEST DUP6 PUSH2 0x46B1 DUP2 PUSH1 0x0 DUP1 SLOAD SWAP2 DUP2 MSTORE PUSH1 0x6 PUSH1 0x20 MSTORE PUSH1 0x40 SWAP1 KECCAK256 SLOAD GT SWAP1 JUMP JUMPDEST PUSH2 0x46CD JUMPI PUSH1 0x40 MLOAD PUSH3 0x461BCD PUSH1 0xE5 SHL DUP2 MSTORE PUSH1 0x4 ADD PUSH2 0xD5A SWAP1 PUSH2 0x5467 JUMP JUMPDEST PUSH1 0x1 DUP1 SLOAD PUSH1 0xFF AND ISZERO ISZERO EQ PUSH2 0x46F3 JUMPI PUSH1 0x40 MLOAD PUSH3 0x461BCD PUSH1 0xE5 SHL DUP2 MSTORE PUSH1 0x4 ADD PUSH2 0xD5A SWAP1 PUSH2 0x5483 JUMP JUMPDEST PUSH1 0x0 DUP8 DUP2 MSTORE PUSH1 0x2 PUSH1 0x20 MSTORE PUSH1 0x40 SWAP1 KECCAK256 PUSH1 0x1 DUP2 ADD SLOAD SWAP1 SLOAD PUSH2 0x4712 SWAP2 SWAP1 PUSH2 0x54B5 JUMP JUMPDEST PUSH2 0x471C DUP7 DUP9 PUSH2 0x54B5 JUMP JUMPDEST GT ISZERO PUSH2 0x473A JUMPI PUSH1 0x40 MLOAD PUSH3 0x461BCD PUSH1 0xE5 SHL DUP2 MSTORE PUSH1 0x4 ADD PUSH2 0xD5A SWAP1 PUSH2 0x5C14 JUMP JUMPDEST PUSH2 0x4744 DUP7 DUP7 PUSH2 0x2A94 JUMP JUMPDEST DUP1 SWAP7 POP DUP2 SWAP8 POP POP POP PUSH1 0x40 MLOAD DUP1 PUSH1 0xA0 ADD PUSH1 0x40 MSTORE DUP1 DUP8 DUP2 MSTORE PUSH1 0x20 ADD DUP7 DUP2 MSTORE PUSH1 0x20 ADD DUP6 PUSH1 0x1 PUSH1 0x1 PUSH1 0xA0 SHL SUB AND DUP2 MSTORE PUSH1 0x20 ADD DUP5 DUP2 MSTORE PUSH1 0x20 ADD DUP4 PUSH1 0x1 PUSH1 0x1 PUSH1 0xA0 SHL SUB AND DUP2 MSTORE POP PUSH1 0x5 PUSH1 0x0 DUP10 DUP2 MSTORE PUSH1 0x20 ADD SWAP1 DUP2 MSTORE PUSH1 0x20 ADD PUSH1 0x0 KECCAK256 PUSH1 0x0 DUP3 ADD MLOAD DUP2 PUSH1 0x0 ADD SSTORE PUSH1 0x20 DUP3 ADD MLOAD DUP2 PUSH1 0x1 ADD SSTORE PUSH1 0x40 DUP3 ADD MLOAD DUP2 PUSH1 0x2 ADD PUSH1 0x0 PUSH2 0x100 EXP DUP2 SLOAD DUP2 PUSH1 0x1 PUSH1 0x1 PUSH1 0xA0 SHL SUB MUL NOT AND SWAP1 DUP4 PUSH1 0x1 PUSH1 0x1 PUSH1 0xA0 SHL SUB AND MUL OR SWAP1 SSTORE POP PUSH1 0x60 DUP3 ADD MLOAD DUP2 PUSH1 0x3 ADD SSTORE PUSH1 0x80 DUP3 ADD MLOAD DUP2 PUSH1 0x4 ADD PUSH1 0x0 PUSH2 0x100 EXP DUP2 SLOAD DUP2 PUSH1 0x1 PUSH1 0x1 PUSH1 0xA0 SHL SUB MUL NOT AND SWAP1 DUP4 PUSH1 0x1 PUSH1 0x1 PUSH1 0xA0 SHL SUB AND MUL OR SWAP1 SSTORE POP SWAP1 POP POP PUSH1 0x1 PUSH1 0x4 PUSH1 0x0 DUP10 DUP2 MSTORE PUSH1 0x20 ADD SWAP1 DUP2 MSTORE PUSH1 0x20 ADD PUSH1 0x0 KECCAK256 PUSH1 0x0 PUSH2 0x100 EXP DUP2 SLOAD DUP2 PUSH1 0xFF MUL NOT AND SWAP1 DUP4 ISZERO ISZERO MUL OR SWAP1 SSTORE POP PUSH32 0x4C4DCD7B4186FE1C900D89BC3C911766F63CF9C3570750481F0D89BFBCB75285 DUP8 DUP8 DUP8 DUP8 DUP8 DUP8 PUSH1 0x40 MLOAD PUSH2 0x48AA SWAP7 SWAP6 SWAP5 SWAP4 SWAP3 SWAP2 SWAP1 SWAP6 DUP7 MSTORE PUSH1 0x20 DUP7 ADD SWAP5 SWAP1 SWAP5 MSTORE PUSH1 0x40 DUP6 ADD SWAP3 SWAP1 SWAP3 MSTORE PUSH1 0x1 PUSH1 0x1 PUSH1 0xA0 SHL SUB SWAP1 DUP2 AND PUSH1 0x60 DUP6 ADD MSTORE PUSH1 0x80 DUP5 ADD SWAP2 SWAP1 SWAP2 MSTORE AND PUSH1 0xA0 DUP3 ADD MSTORE PUSH1 0xC0 ADD SWAP1 JUMP JUMPDEST PUSH1 0x40 MLOAD DUP1 SWAP2 SUB SWAP1 LOG1 POP POP POP POP POP POP POP JUMP JUMPDEST PUSH1 0x1 DUP1 SLOAD PUSH1 0xFF AND ISZERO ISZERO EQ PUSH2 0x48E1 JUMPI PUSH1 0x40 MLOAD PUSH3 0x461BCD PUSH1 0xE5 SHL DUP2 MSTORE PUSH1 0x4 ADD PUSH2 0xD5A SWAP1 PUSH2 0x5483 JUMP JUMPDEST PUSH1 0x1 DUP1 SLOAD PUSH1 0xFF NOT AND SWAP1 SSTORE JUMP JUMPDEST PUSH1 0x0 JUMPDEST DUP2 ISZERO PUSH2 0x490B JUMPI DUP2 PUSH2 0x4901 DUP2 DUP6 PUSH2 0x5E6E JUMP JUMPDEST SWAP1 SWAP4 POP SWAP2 POP PUSH2 0x48F0 JUMP JUMPDEST POP SWAP1 SWAP2 SWAP1 POP JUMP JUMPDEST PUSH1 0x0 DUP2 PUSH1 0x1 PUSH1 0x1 PUSH1 0xA0 SHL SUB AND DUP4 PUSH1 0x40 MLOAD PUSH1 0x0 PUSH1 0x40 MLOAD DUP1 DUP4 SUB DUP2 DUP6 DUP8 GAS CALL SWAP3 POP POP POP RETURNDATASIZE DUP1 PUSH1 0x0 DUP2 EQ PUSH2 0x495F JUMPI PUSH1 0x40 MLOAD SWAP2 POP PUSH1 0x1F NOT PUSH1 0x3F RETURNDATASIZE ADD AND DUP3 ADD PUSH1 0x40 MSTORE RETURNDATASIZE DUP3 MSTORE RETURNDATASIZE PUSH1 0x0 PUSH1 0x20 DUP5 ADD RETURNDATACOPY PUSH2 0x4964 JUMP JUMPDEST PUSH1 0x60 SWAP2 POP JUMPDEST POP POP SWAP1 POP DUP1 PUSH2 0xD6D JUMPI PUSH1 0x40 MLOAD PUSH3 0x461BCD PUSH1 0xE5 SHL DUP2 MSTORE PUSH1 0x20 PUSH1 0x4 DUP3 ADD MSTORE PUSH1 0x2 PUSH1 0x24 DUP3 ADD MSTORE PUSH2 0x2A23 PUSH1 0xF1 SHL PUSH1 0x44 DUP3 ADD MSTORE PUSH1 0x64 ADD PUSH2 0xD5A JUMP JUMPDEST PUSH1 0x1 PUSH1 0x1 PUSH1 0xA0 SHL SUB DUP3 AND PUSH1 0x0 SWAP1 DUP2 MSTORE PUSH1 0x8 PUSH1 0x20 MSTORE PUSH1 0x40 DUP2 KECCAK256 DUP1 SLOAD DUP4 SWAP3 SWAP1 PUSH2 0x49C2 SWAP1 DUP5 SWAP1 PUSH2 0x54FC JUMP JUMPDEST SWAP1 SWAP2 SSTORE POP POP PUSH1 0x1 PUSH1 0x1 PUSH1 0xA0 SHL SUB DUP3 AND PUSH1 0x0 SWAP1 DUP2 MSTORE PUSH1 0x9 PUSH1 0x20 MSTORE PUSH1 0x40 DUP2 KECCAK256 DUP1 SLOAD DUP4 SWAP3 SWAP1 PUSH2 0x49EF SWAP1 DUP5 SWAP1 PUSH2 0x54FC JUMP JUMPDEST SWAP1 SWAP2 SSTORE POP POP POP POP JUMP JUMPDEST PUSH1 0x40 MLOAD PUSH12 0xFFFFFFFFFFFFFFFFFFFFFFFF NOT PUSH1 0x60 DUP5 SWAP1 SHL AND PUSH1 0x20 DUP3 ADD MSTORE PUSH1 0x34 DUP2 ADD DUP3 SWAP1 MSTORE PUSH1 0x0 SWAP1 PUSH1 0x54 ADD PUSH1 0x40 DUP1 MLOAD DUP1 DUP4 SUB PUSH1 0x1F NOT ADD DUP2 MSTORE DUP3 DUP3 MSTORE DUP1 MLOAD PUSH1 0x20 SWAP2 DUP3 ADD KECCAK256 PUSH1 0x1 PUSH1 0x1 PUSH1 0xA0 SHL SUB DUP8 DUP2 AND PUSH1 0x0 DUP2 DUP2 MSTORE PUSH1 0x3 DUP1 DUP7 MSTORE DUP7 DUP3 KECCAK256 DUP6 SWAP1 SSTORE DUP5 DUP3 MSTORE PUSH1 0x6 DUP7 MSTORE DUP7 DUP3 KECCAK256 PUSH1 0x0 NOT SWAP1 SSTORE PUSH1 0x80 DUP9 ADD DUP8 MSTORE DUP13 DUP9 MSTORE DUP6 DUP9 ADD DUP13 DUP2 MSTORE DUP9 DUP9 ADD DUP5 DUP2 MSTORE PUSH1 0x60 DUP1 DUP12 ADD DUP14 DUP2 MSTORE DUP9 DUP7 MSTORE PUSH1 0x2 DUP1 DUP12 MSTORE SWAP6 DUP12 SWAP1 KECCAK256 SWAP12 MLOAD DUP13 SSTORE SWAP3 MLOAD PUSH1 0x1 DUP13 ADD SSTORE SWAP1 MLOAD SWAP4 DUP11 ADD DUP1 SLOAD PUSH1 0x1 PUSH1 0x1 PUSH1 0xA0 SHL SUB NOT AND SWAP5 SWAP1 SWAP7 AND SWAP4 SWAP1 SWAP4 OR SWAP1 SWAP5 SSTORE SWAP3 MLOAD SWAP7 SWAP1 SWAP3 ADD SWAP6 SWAP1 SWAP6 SSTORE DUP4 MLOAD DUP3 DUP2 MSTORE SWAP3 DUP4 ADD SWAP5 SWAP1 SWAP5 MSTORE SWAP2 DUP2 ADD DUP6 SWAP1 MSTORE SWAP1 SWAP3 POP PUSH32 0x90E88E994885F1CDD31D3393F0B012E817804FC9D2ADEF69D0D7E5053D1E29AD SWAP2 ADD PUSH2 0x17D9 JUMP JUMPDEST PUSH2 0x4B03 DUP2 PUSH2 0x1A10 JUMP JUMPDEST PUSH2 0x4B1F JUMPI PUSH1 0x40 MLOAD PUSH3 0x461BCD PUSH1 0xE5 SHL DUP2 MSTORE PUSH1 0x4 ADD PUSH2 0xD5A SWAP1 PUSH2 0x54C9 JUMP JUMPDEST PUSH1 0x1 PUSH1 0x1 PUSH1 0xA0 SHL SUB DUP2 AND PUSH1 0x0 SWAP1 DUP2 MSTORE PUSH1 0x8 PUSH1 0x20 MSTORE PUSH1 0x40 SWAP1 KECCAK256 SLOAD ISZERO PUSH2 0x4B6A JUMPI PUSH1 0x40 MLOAD PUSH3 0x461BCD PUSH1 0xE5 SHL DUP2 MSTORE PUSH1 0x20 PUSH1 0x4 DUP3 ADD MSTORE PUSH1 0x2 PUSH1 0x24 DUP3 ADD MSTORE PUSH2 0x272D PUSH1 0xF1 SHL PUSH1 0x44 DUP3 ADD MSTORE PUSH1 0x64 ADD PUSH2 0xD5A JUMP JUMPDEST PUSH1 0x1 PUSH1 0x1 PUSH1 0xA0 SHL SUB AND PUSH1 0x0 SWAP1 DUP2 MSTORE PUSH1 0x7 PUSH1 0x20 MSTORE PUSH1 0x40 SWAP1 KECCAK256 DUP1 SLOAD PUSH1 0xFF NOT AND SWAP1 SSTORE JUMP JUMPDEST PUSH2 0x4B94 DUP2 PUSH2 0x1A10 JUMP JUMPDEST ISZERO PUSH2 0x4BC6 JUMPI PUSH1 0x40 MLOAD PUSH3 0x461BCD PUSH1 0xE5 SHL DUP2 MSTORE PUSH1 0x20 PUSH1 0x4 DUP3 ADD MSTORE PUSH1 0x2 PUSH1 0x24 DUP3 ADD MSTORE PUSH2 0x20A9 PUSH1 0xF1 SHL PUSH1 0x44 DUP3 ADD MSTORE PUSH1 0x64 ADD PUSH2 0xD5A JUMP JUMPDEST PUSH1 0x1 PUSH1 0x1 PUSH1 0xA0 SHL SUB AND PUSH1 0x0 SWAP1 DUP2 MSTORE PUSH1 0x7 PUSH1 0x20 MSTORE PUSH1 0x40 SWAP1 KECCAK256 DUP1 SLOAD PUSH1 0xFF NOT AND PUSH1 0x1 OR SWAP1 SSTORE JUMP JUMPDEST PUSH1 0x0 DUP1 PUSH2 0x4BF7 DUP4 DUP8 PUSH2 0x54E5 JUMP JUMPDEST SWAP6 POP PUSH2 0x4C03 DUP5 DUP7 PUSH2 0x54E5 JUMP JUMPDEST SWAP5 POP PUSH2 0x4C0F DUP6 DUP8 PUSH2 0x54FC JUMP JUMPDEST PUSH2 0x2A87 DUP5 DUP7 PUSH2 0x54E5 JUMP JUMPDEST DUP3 DUP1 SLOAD DUP3 DUP3 SSTORE SWAP1 PUSH1 0x0 MSTORE PUSH1 0x20 PUSH1 0x0 KECCAK256 SWAP1 DUP2 ADD SWAP3 DUP3 ISZERO PUSH2 0x4C5F JUMPI SWAP2 PUSH1 0x20 MUL DUP3 ADD JUMPDEST DUP3 DUP2 GT ISZERO PUSH2 0x4C5F JUMPI DUP3 MLOAD DUP3 SWAP1 PUSH2 0x4C4F SWAP1 DUP3 PUSH2 0x5EC8 JUMP JUMPDEST POP SWAP2 PUSH1 0x20 ADD SWAP2 SWAP1 PUSH1 0x1 ADD SWAP1 PUSH2 0x4C39 JUMP JUMPDEST POP PUSH2 0x4C6B SWAP3 SWAP2 POP PUSH2 0x4CC1 JUMP JUMPDEST POP SWAP1 JUMP JUMPDEST DUP3 DUP1 SLOAD DUP3 DUP3 SSTORE SWAP1 PUSH1 0x0 MSTORE PUSH1 0x20 PUSH1 0x0 KECCAK256 SWAP1 DUP2 ADD SWAP3 DUP3 ISZERO PUSH2 0x4CB5 JUMPI SWAP2 PUSH1 0x20 MUL DUP3 ADD JUMPDEST DUP3 DUP2 GT ISZERO PUSH2 0x4CB5 JUMPI DUP3 MLOAD DUP3 SWAP1 PUSH2 0x4CA5 SWAP1 DUP3 PUSH2 0x5EC8 JUMP JUMPDEST POP SWAP2 PUSH1 0x20 ADD SWAP2 SWAP1 PUSH1 0x1 ADD SWAP1 PUSH2 0x4C8F JUMP JUMPDEST POP PUSH2 0x4C6B SWAP3 SWAP2 POP PUSH2 0x4CDE JUMP JUMPDEST DUP1 DUP3 GT ISZERO PUSH2 0x4C6B JUMPI PUSH1 0x0 PUSH2 0x4CD5 DUP3 DUP3 PUSH2 0x4CFB JUMP JUMPDEST POP PUSH1 0x1 ADD PUSH2 0x4CC1 JUMP JUMPDEST DUP1 DUP3 GT ISZERO PUSH2 0x4C6B JUMPI PUSH1 0x0 PUSH2 0x4CF2 DUP3 DUP3 PUSH2 0x4CFB JUMP JUMPDEST POP PUSH1 0x1 ADD PUSH2 0x4CDE JUMP JUMPDEST POP DUP1 SLOAD PUSH2 0x4D07 SWAP1 PUSH2 0x5790 JUMP JUMPDEST PUSH1 0x0 DUP3 SSTORE DUP1 PUSH1 0x1F LT PUSH2 0x4D17 JUMPI POP POP JUMP JUMPDEST PUSH1 0x1F ADD PUSH1 0x20 SWAP1 DIV SWAP1 PUSH1 0x0 MSTORE PUSH1 0x20 PUSH1 0x0 KECCAK256 SWAP1 DUP2 ADD SWAP1 PUSH2 0xDA8 SWAP2 SWAP1 JUMPDEST DUP1 DUP3 GT ISZERO PUSH2 0x4C6B JUMPI PUSH1 0x0 DUP2 SSTORE PUSH1 0x1 ADD PUSH2 0x4D31 JUMP JUMPDEST PUSH4 0x4E487B71 PUSH1 0xE0 SHL PUSH1 0x0 MSTORE PUSH1 0x41 PUSH1 0x4 MSTORE PUSH1 0x24 PUSH1 0x0 REVERT JUMPDEST PUSH1 0x40 MLOAD PUSH1 0x1F DUP3 ADD PUSH1 0x1F NOT AND DUP2 ADD PUSH1 0x1 PUSH1 0x1 PUSH1 0x40 SHL SUB DUP2 GT DUP3 DUP3 LT OR ISZERO PUSH2 0x4D83 JUMPI PUSH2 0x4D83 PUSH2 0x4D45 JUMP JUMPDEST PUSH1 0x40 MSTORE SWAP2 SWAP1 POP JUMP JUMPDEST PUSH1 0x0 PUSH1 0x1 PUSH1 0x1 PUSH1 0x40 SHL SUB DUP3 GT ISZERO PUSH2 0x4DA4 JUMPI PUSH2 0x4DA4 PUSH2 0x4D45 JUMP JUMPDEST POP PUSH1 0x1F ADD PUSH1 0x1F NOT AND PUSH1 0x20 ADD SWAP1 JUMP JUMPDEST PUSH1 0x0 PUSH2 0x4DC5 PUSH2 0x4DC0 DUP5 PUSH2 0x4D8B JUMP JUMPDEST PUSH2 0x4D5B JUMP JUMPDEST SWAP1 POP DUP3 DUP2 MSTORE DUP4 DUP4 DUP4 ADD GT ISZERO PUSH2 0x4DD9 JUMPI PUSH1 0x0 DUP1 REVERT JUMPDEST DUP3 DUP3 PUSH1 0x20 DUP4 ADD CALLDATACOPY PUSH1 0x0 PUSH1 0x20 DUP5 DUP4 ADD ADD MSTORE SWAP4 SWAP3 POP POP POP JUMP JUMPDEST PUSH1 0x0 DUP3 PUSH1 0x1F DUP4 ADD SLT PUSH2 0x4E01 JUMPI PUSH1 0x0 DUP1 REVERT JUMPDEST PUSH2 0xFB0 DUP4 DUP4 CALLDATALOAD PUSH1 0x20 DUP6 ADD PUSH2 0x4DB2 JUMP JUMPDEST PUSH1 0x3 DUP2 LT PUSH2 0xDA8 JUMPI PUSH1 0x0 DUP1 REVERT JUMPDEST PUSH1 0x0 DUP1 PUSH1 0x40 DUP4 DUP6 SUB SLT ISZERO PUSH2 0x4E30 JUMPI PUSH1 0x0 DUP1 REVERT JUMPDEST DUP3 CALLDATALOAD PUSH1 0x1 PUSH1 0x1 PUSH1 0x40 SHL SUB DUP2 GT ISZERO PUSH2 0x4E46 JUMPI PUSH1 0x0 DUP1 REVERT JUMPDEST PUSH2 0x4E52 DUP6 DUP3 DUP7 ADD PUSH2 0x4DF0 JUMP JUMPDEST SWAP3 POP POP PUSH1 0x20 DUP4 ADD CALLDATALOAD PUSH2 0x4E63 DUP2 PUSH2 0x4E10 JUMP JUMPDEST DUP1 SWAP2 POP POP SWAP3 POP SWAP3 SWAP1 POP JUMP JUMPDEST PUSH1 0x0 PUSH1 0x20 DUP3 DUP5 SUB SLT ISZERO PUSH2 0x4E80 JUMPI PUSH1 0x0 DUP1 REVERT JUMPDEST POP CALLDATALOAD SWAP2 SWAP1 POP JUMP JUMPDEST PUSH1 0x0 PUSH1 0x20 DUP3 DUP5 SUB SLT ISZERO PUSH2 0x4E99 JUMPI PUSH1 0x0 DUP1 REVERT JUMPDEST DUP2 CALLDATALOAD PUSH1 0x1 PUSH1 0x1 PUSH1 0x40 SHL SUB DUP2 GT ISZERO PUSH2 0x4EAF JUMPI PUSH1 0x0 DUP1 REVERT JUMPDEST PUSH2 0x44ED DUP5 DUP3 DUP6 ADD PUSH2 0x4DF0 JUMP JUMPDEST PUSH1 0x1 PUSH1 0x1 PUSH1 0xA0 SHL SUB DUP2 AND DUP2 EQ PUSH2 0xDA8 JUMPI PUSH1 0x0 DUP1 REVERT JUMPDEST PUSH1 0x0 DUP1 PUSH1 0x40 DUP4 DUP6 SUB SLT ISZERO PUSH2 0x4EE3 JUMPI PUSH1 0x0 DUP1 REVERT JUMPDEST DUP3 CALLDATALOAD PUSH1 0x1 PUSH1 0x1 PUSH1 0x40 SHL SUB DUP2 GT ISZERO PUSH2 0x4EF9 JUMPI PUSH1 0x0 DUP1 REVERT JUMPDEST PUSH2 0x4F05 DUP6 DUP3 DUP7 ADD PUSH2 0x4DF0 JUMP JUMPDEST SWAP3 POP POP PUSH1 0x20 DUP4 ADD CALLDATALOAD PUSH2 0x4E63 DUP2 PUSH2 0x4EBB JUMP JUMPDEST PUSH1 0x0 PUSH1 0x1 PUSH1 0x1 PUSH1 0x40 SHL SUB DUP3 GT ISZERO PUSH2 0x4F2F JUMPI PUSH2 0x4F2F PUSH2 0x4D45 JUMP JUMPDEST POP PUSH1 0x5 SHL PUSH1 0x20 ADD SWAP1 JUMP JUMPDEST PUSH1 0x0 DUP3 PUSH1 0x1F DUP4 ADD SLT PUSH2 0x4F4A JUMPI PUSH1 0x0 DUP1 REVERT JUMPDEST DUP2 CALLDATALOAD PUSH1 0x20 PUSH2 0x4F5A PUSH2 0x4DC0 DUP4 PUSH2 0x4F16 JUMP JUMPDEST DUP3 DUP2 MSTORE PUSH1 0x5 SWAP3 SWAP1 SWAP3 SHL DUP5 ADD DUP2 ADD SWAP2 DUP2 DUP2 ADD SWAP1 DUP7 DUP5 GT ISZERO PUSH2 0x4F79 JUMPI PUSH1 0x0 DUP1 REVERT JUMPDEST DUP3 DUP7 ADD JUMPDEST DUP5 DUP2 LT ISZERO PUSH2 0x4FCD JUMPI DUP1 CALLDATALOAD PUSH1 0x1 PUSH1 0x1 PUSH1 0x40 SHL SUB DUP2 GT ISZERO PUSH2 0x4F9C JUMPI PUSH1 0x0 DUP1 DUP2 REVERT JUMPDEST DUP8 ADD PUSH1 0x3F DUP2 ADD DUP10 SGT PUSH2 0x4FAE JUMPI PUSH1 0x0 DUP1 DUP2 REVERT JUMPDEST PUSH2 0x4FBF DUP10 DUP7 DUP4 ADD CALLDATALOAD PUSH1 0x40 DUP5 ADD PUSH2 0x4DB2 JUMP JUMPDEST DUP5 MSTORE POP SWAP2 DUP4 ADD SWAP2 DUP4 ADD PUSH2 0x4F7D JUMP JUMPDEST POP SWAP7 SWAP6 POP POP POP POP POP POP JUMP JUMPDEST PUSH1 0x0 DUP1 PUSH1 0x40 DUP4 DUP6 SUB SLT ISZERO PUSH2 0x4FEB JUMPI PUSH1 0x0 DUP1 REVERT JUMPDEST DUP3 CALLDATALOAD PUSH1 0x1 PUSH1 0x1 PUSH1 0x40 SHL SUB DUP1 DUP3 GT ISZERO PUSH2 0x5002 JUMPI PUSH1 0x0 DUP1 REVERT JUMPDEST DUP2 DUP6 ADD SWAP2 POP DUP6 PUSH1 0x1F DUP4 ADD SLT PUSH2 0x5016 JUMPI PUSH1 0x0 DUP1 REVERT JUMPDEST DUP2 CALLDATALOAD PUSH1 0x20 PUSH2 0x5026 PUSH2 0x4DC0 DUP4 PUSH2 0x4F16 JUMP JUMPDEST DUP3 DUP2 MSTORE PUSH1 0x5 SWAP3 SWAP1 SWAP3 SHL DUP5 ADD DUP2 ADD SWAP2 DUP2 DUP2 ADD SWAP1 DUP10 DUP5 GT ISZERO PUSH2 0x5045 JUMPI PUSH1 0x0 DUP1 REVERT JUMPDEST DUP3 DUP7 ADD JUMPDEST DUP5 DUP2 LT ISZERO PUSH2 0x507D JUMPI DUP1 CALLDATALOAD DUP7 DUP2 GT ISZERO PUSH2 0x5061 JUMPI PUSH1 0x0 DUP1 DUP2 REVERT JUMPDEST PUSH2 0x506F DUP13 DUP7 DUP4 DUP12 ADD ADD PUSH2 0x4DF0 JUMP JUMPDEST DUP5 MSTORE POP SWAP2 DUP4 ADD SWAP2 DUP4 ADD PUSH2 0x5049 JUMP JUMPDEST POP SWAP7 POP POP DUP7 ADD CALLDATALOAD SWAP3 POP POP DUP1 DUP3 GT ISZERO PUSH2 0x5094 JUMPI PUSH1 0x0 DUP1 REVERT JUMPDEST POP PUSH2 0x50A1 DUP6 DUP3 DUP7 ADD PUSH2 0x4F39 JUMP JUMPDEST SWAP2 POP POP SWAP3 POP SWAP3 SWAP1 POP JUMP JUMPDEST DUP1 ISZERO ISZERO DUP2 EQ PUSH2 0xDA8 JUMPI PUSH1 0x0 DUP1 REVERT JUMPDEST PUSH1 0x0 DUP1 PUSH1 0x0 PUSH1 0x60 DUP5 DUP7 SUB SLT ISZERO PUSH2 0x50CE JUMPI PUSH1 0x0 DUP1 REVERT JUMPDEST DUP4 CALLDATALOAD SWAP3 POP PUSH1 0x20 DUP5 ADD CALLDATALOAD SWAP2 POP PUSH1 0x40 DUP5 ADD CALLDATALOAD PUSH2 0x50E7 DUP2 PUSH2 0x50AB JUMP JUMPDEST DUP1 SWAP2 POP POP SWAP3 POP SWAP3 POP SWAP3 JUMP JUMPDEST PUSH1 0x0 PUSH1 0x20 DUP3 DUP5 SUB SLT ISZERO PUSH2 0x5104 JUMPI PUSH1 0x0 DUP1 REVERT JUMPDEST DUP2 CALLDATALOAD PUSH2 0xFB0 DUP2 PUSH2 0x4EBB JUMP JUMPDEST PUSH1 0x0 DUP1 PUSH1 0x40 DUP4 DUP6 SUB SLT ISZERO PUSH2 0x5122 JUMPI PUSH1 0x0 DUP1 REVERT JUMPDEST POP POP DUP1 CALLDATALOAD SWAP3 PUSH1 0x20 SWAP1 SWAP2 ADD CALLDATALOAD SWAP2 POP JUMP JUMPDEST PUSH1 0x0 DUP1 PUSH1 0x40 DUP4 DUP6 SUB SLT ISZERO PUSH2 0x5144 JUMPI PUSH1 0x0 DUP1 REVERT JUMPDEST DUP3 CALLDATALOAD SWAP2 POP PUSH1 0x20 DUP4 ADD CALLDATALOAD PUSH2 0x4E63 DUP2 PUSH2 0x4EBB JUMP JUMPDEST PUSH1 0x0 DUP1 PUSH1 0x0 PUSH1 0x60 DUP5 DUP7 SUB SLT ISZERO PUSH2 0x516B JUMPI PUSH1 0x0 DUP1 REVERT JUMPDEST DUP4 CALLDATALOAD PUSH1 0x1 PUSH1 0x1 PUSH1 0x40 SHL SUB DUP2 GT ISZERO PUSH2 0x5181 JUMPI PUSH1 0x0 DUP1 REVERT JUMPDEST PUSH2 0x518D DUP7 DUP3 DUP8 ADD PUSH2 0x4DF0 JUMP JUMPDEST SWAP4 POP POP PUSH1 0x20 DUP5 ADD CALLDATALOAD PUSH2 0x519E DUP2 PUSH2 0x4EBB JUMP JUMPDEST SWAP3 SWAP6 SWAP3 SWAP5 POP POP POP PUSH1 0x40 SWAP2 SWAP1 SWAP2 ADD CALLDATALOAD SWAP1 JUMP JUMPDEST PUSH1 0x0 PUSH1 0x20 DUP3 DUP5 SUB SLT ISZERO PUSH2 0x51C1 JUMPI PUSH1 0x0 DUP1 REVERT JUMPDEST DUP2 CALLDATALOAD PUSH2 0xFB0 DUP2 PUSH2 0x50AB JUMP JUMPDEST PUSH1 0x0 DUP1 PUSH1 0x0 DUP1 PUSH1 0x80 DUP6 DUP8 SUB SLT ISZERO PUSH2 0x51E2 JUMPI PUSH1 0x0 DUP1 REVERT JUMPDEST DUP5 CALLDATALOAD SWAP4 POP PUSH1 0x20 DUP6 ADD CALLDATALOAD SWAP3 POP PUSH1 0x40 DUP6 ADD CALLDATALOAD SWAP2 POP PUSH1 0x60 DUP6 ADD CALLDATALOAD PUSH2 0x5202 DUP2 PUSH2 0x4EBB JUMP JUMPDEST SWAP4 SWAP7 SWAP3 SWAP6 POP SWAP1 SWAP4 POP POP JUMP JUMPDEST PUSH1 0x0 DUP1 PUSH1 0x40 DUP4 DUP6 SUB SLT ISZERO PUSH2 0x5220 JUMPI PUSH1 0x0 DUP1 REVERT JUMPDEST DUP3 CALLDATALOAD PUSH2 0x522B DUP2 PUSH2 0x4EBB JUMP JUMPDEST SWAP5 PUSH1 0x20 SWAP4 SWAP1 SWAP4 ADD CALLDATALOAD SWAP4 POP POP POP JUMP JUMPDEST PUSH1 0x0 DUP1 PUSH1 0x0 DUP1 PUSH1 0x80 DUP6 DUP8 SUB SLT ISZERO PUSH2 0x524F JUMPI PUSH1 0x0 DUP1 REVERT JUMPDEST DUP5 CALLDATALOAD PUSH1 0x1 PUSH1 0x1 PUSH1 0x40 SHL SUB DUP1 DUP3 GT ISZERO PUSH2 0x5266 JUMPI PUSH1 0x0 DUP1 REVERT JUMPDEST PUSH2 0x5272 DUP9 DUP4 DUP10 ADD PUSH2 0x4DF0 JUMP JUMPDEST SWAP6 POP PUSH1 0x20 DUP8 ADD CALLDATALOAD SWAP2 POP DUP1 DUP3 GT ISZERO PUSH2 0x5288 JUMPI PUSH1 0x0 DUP1 REVERT JUMPDEST POP PUSH2 0x5295 DUP8 DUP3 DUP9 ADD PUSH2 0x4DF0 JUMP JUMPDEST SWAP4 POP POP PUSH1 0x40 DUP6 ADD CALLDATALOAD PUSH2 0x52A6 DUP2 PUSH2 0x4EBB JUMP JUMPDEST SWAP4 SWAP7 SWAP3 SWAP6 POP SWAP3 SWAP4 PUSH1 0x60 ADD CALLDATALOAD SWAP3 POP POP JUMP JUMPDEST PUSH1 0x0 DUP1 PUSH1 0x0 PUSH1 0x60 DUP5 DUP7 SUB SLT ISZERO PUSH2 0x52CB JUMPI PUSH1 0x0 DUP1 REVERT JUMPDEST DUP4 CALLDATALOAD PUSH1 0x1 PUSH1 0x1 PUSH1 0x40 SHL SUB DUP2 GT ISZERO PUSH2 0x52E1 JUMPI PUSH1 0x0 DUP1 REVERT JUMPDEST PUSH2 0x52ED DUP7 DUP3 DUP8 ADD PUSH2 0x4DF0 JUMP JUMPDEST SWAP4 POP POP PUSH1 0x20 DUP5 ADD CALLDATALOAD PUSH2 0x52FE DUP2 PUSH2 0x4EBB JUMP JUMPDEST SWAP2 POP PUSH1 0x40 DUP5 ADD CALLDATALOAD PUSH2 0x50E7 DUP2 PUSH2 0x4E10 JUMP JUMPDEST PUSH1 0x0 DUP1 PUSH1 0x0 DUP1 PUSH1 0x80 DUP6 DUP8 SUB SLT ISZERO PUSH2 0x5324 JUMPI PUSH1 0x0 DUP1 REVERT JUMPDEST DUP5 CALLDATALOAD PUSH1 0x1 PUSH1 0x1 PUSH1 0x40 SHL SUB DUP2 GT ISZERO PUSH2 0x533A JUMPI PUSH1 0x0 DUP1 REVERT JUMPDEST PUSH2 0x5346 DUP8 DUP3 DUP9 ADD PUSH2 0x4DF0 JUMP JUMPDEST SWAP5 POP POP PUSH1 0x20 DUP6 ADD CALLDATALOAD PUSH2 0x5357 DUP2 PUSH2 0x4EBB JUMP JUMPDEST SWAP3 POP PUSH1 0x40 DUP6 ADD CALLDATALOAD SWAP2 POP PUSH1 0x60 DUP6 ADD CALLDATALOAD PUSH2 0x5202 DUP2 PUSH2 0x4EBB JUMP JUMPDEST PUSH1 0x0 DUP1 PUSH1 0x0 DUP1 PUSH1 0x0 DUP1 PUSH1 0xC0 DUP8 DUP10 SUB SLT ISZERO PUSH2 0x5387 JUMPI PUSH1 0x0 DUP1 REVERT JUMPDEST DUP7 CALLDATALOAD SWAP6 POP PUSH1 0x20 DUP8 ADD CALLDATALOAD SWAP5 POP PUSH1 0x40 DUP8 ADD CALLDATALOAD SWAP4 POP PUSH1 0x60 DUP8 ADD CALLDATALOAD PUSH2 0x53A7 DUP2 PUSH2 0x4EBB JUMP JUMPDEST SWAP3 POP PUSH1 0x80 DUP8 ADD CALLDATALOAD SWAP2 POP PUSH1 0xA0 DUP8 ADD CALLDATALOAD PUSH2 0x53BE DUP2 PUSH2 0x4EBB JUMP JUMPDEST DUP1 SWAP2 POP POP SWAP3 SWAP6 POP SWAP3 SWAP6 POP SWAP3 SWAP6 JUMP JUMPDEST PUSH4 0x4E487B71 PUSH1 0xE0 SHL PUSH1 0x0 MSTORE PUSH1 0x11 PUSH1 0x4 MSTORE PUSH1 0x24 PUSH1 0x0 REVERT JUMPDEST DUP1 DUP3 ADD DUP1 DUP3 GT ISZERO PUSH2 0xEC1 JUMPI PUSH2 0xEC1 PUSH2 0x53CC JUMP JUMPDEST PUSH4 0x4E487B71 PUSH1 0xE0 SHL PUSH1 0x0 MSTORE PUSH1 0x21 PUSH1 0x4 MSTORE PUSH1 0x24 PUSH1 0x0 REVERT JUMPDEST PUSH1 0x0 JUMPDEST DUP4 DUP2 LT ISZERO PUSH2 0x5426 JUMPI DUP2 DUP2 ADD MLOAD DUP4 DUP3 ADD MSTORE PUSH1 0x20 ADD PUSH2 0x540E JUMP JUMPDEST POP POP PUSH1 0x0 SWAP2 ADD MSTORE JUMP JUMPDEST PUSH1 0x0 DUP3 MLOAD PUSH2 0x5441 DUP2 DUP5 PUSH1 0x20 DUP8 ADD PUSH2 0x540B JUMP JUMPDEST SWAP2 SWAP1 SWAP2 ADD SWAP3 SWAP2 POP POP JUMP JUMPDEST PUSH1 0x20 DUP1 DUP3 MSTORE PUSH1 0x2 SWAP1 DUP3 ADD MSTORE PUSH2 0x9E9 PUSH1 0xF3 SHL PUSH1 0x40 DUP3 ADD MSTORE PUSH1 0x60 ADD SWAP1 JUMP JUMPDEST PUSH1 0x20 DUP1 DUP3 MSTORE PUSH1 0x2 SWAP1 DUP3 ADD MSTORE PUSH2 0x5553 PUSH1 0xF0 SHL PUSH1 0x40 DUP3 ADD MSTORE PUSH1 0x60 ADD SWAP1 JUMP JUMPDEST PUSH1 0x20 DUP1 DUP3 MSTORE PUSH1 0x2 SWAP1 DUP3 ADD MSTORE PUSH2 0x1153 PUSH1 0xF2 SHL PUSH1 0x40 DUP3 ADD MSTORE PUSH1 0x60 ADD SWAP1 JUMP JUMPDEST PUSH4 0x4E487B71 PUSH1 0xE0 SHL PUSH1 0x0 MSTORE PUSH1 0x12 PUSH1 0x4 MSTORE PUSH1 0x24 PUSH1 0x0 REVERT JUMPDEST PUSH1 0x0 DUP3 PUSH2 0x54C4 JUMPI PUSH2 0x54C4 PUSH2 0x549F JUMP JUMPDEST POP DIV SWAP1 JUMP JUMPDEST PUSH1 0x20 DUP1 DUP3 MSTORE PUSH1 0x2 SWAP1 DUP3 ADD MSTORE PUSH2 0x1555 PUSH1 0xF2 SHL PUSH1 0x40 DUP3 ADD MSTORE PUSH1 0x60 ADD SWAP1 JUMP JUMPDEST DUP1 DUP3 MUL DUP2 ISZERO DUP3 DUP3 DIV DUP5 EQ OR PUSH2 0xEC1 JUMPI PUSH2 0xEC1 PUSH2 0x53CC JUMP JUMPDEST DUP2 DUP2 SUB DUP2 DUP2 GT ISZERO PUSH2 0xEC1 JUMPI PUSH2 0xEC1 PUSH2 0x53CC JUMP JUMPDEST PUSH1 0x0 DUP2 MLOAD DUP1 DUP5 MSTORE PUSH2 0x5527 DUP2 PUSH1 0x20 DUP7 ADD PUSH1 0x20 DUP7 ADD PUSH2 0x540B JUMP JUMPDEST PUSH1 0x1F ADD PUSH1 0x1F NOT AND SWAP3 SWAP1 SWAP3 ADD PUSH1 0x20 ADD SWAP3 SWAP2 POP POP JUMP JUMPDEST PUSH1 0x60 DUP2 MSTORE PUSH1 0x2 PUSH1 0x60 DUP3 ADD MSTORE PUSH2 0x18D1 PUSH1 0xF2 SHL PUSH1 0x80 DUP3 ADD MSTORE PUSH1 0xA0 PUSH1 0x20 DUP3 ADD MSTORE PUSH1 0x0 PUSH2 0x5567 PUSH1 0xA0 DUP4 ADD DUP6 PUSH2 0x550F JUMP JUMPDEST SWAP1 POP PUSH1 0x1 DUP1 PUSH1 0xA0 SHL SUB DUP4 AND PUSH1 0x40 DUP4 ADD MSTORE SWAP4 SWAP3 POP POP POP JUMP JUMPDEST PUSH1 0x0 PUSH1 0x20 DUP3 DUP5 SUB SLT ISZERO PUSH2 0x5590 JUMPI PUSH1 0x0 DUP1 REVERT JUMPDEST POP MLOAD SWAP2 SWAP1 POP JUMP JUMPDEST PUSH1 0x20 DUP1 DUP3 MSTORE PUSH1 0x2 SWAP1 DUP3 ADD MSTORE PUSH2 0x1255 PUSH1 0xF2 SHL PUSH1 0x40 DUP3 ADD MSTORE PUSH1 0x60 ADD SWAP1 JUMP JUMPDEST PUSH1 0x0 PUSH1 0x20 DUP3 DUP5 SUB SLT ISZERO PUSH2 0x55C5 JUMPI PUSH1 0x0 DUP1 REVERT JUMPDEST DUP2 MLOAD PUSH2 0xFB0 DUP2 PUSH2 0x50AB JUMP JUMPDEST SWAP6 DUP7 MSTORE PUSH1 0x20 DUP7 ADD SWAP5 SWAP1 SWAP5 MSTORE PUSH1 0x40 DUP6 ADD SWAP3 SWAP1 SWAP3 MSTORE PUSH1 0x1 PUSH1 0x1 PUSH1 0xA0 SHL SUB SWAP1 DUP2 AND PUSH1 0x60 DUP6 ADD MSTORE AND PUSH1 0x80 DUP4 ADD MSTORE PUSH1 0xA0 DUP3 ADD MSTORE PUSH1 0xC0 ADD SWAP1 JUMP JUMPDEST PUSH1 0x3 DUP2 LT PUSH2 0x5622 JUMPI PUSH4 0x4E487B71 PUSH1 0xE0 SHL PUSH1 0x0 MSTORE PUSH1 0x21 PUSH1 0x4 MSTORE PUSH1 0x24 PUSH1 0x0 REVERT JUMPDEST SWAP1 MSTORE JUMP JUMPDEST PUSH1 0x40 DUP2 MSTORE PUSH1 0x0 PUSH2 0x5639 PUSH1 0x40 DUP4 ADD DUP6 PUSH2 0x550F JUMP JUMPDEST SWAP1 POP PUSH2 0xFB0 PUSH1 0x20 DUP4 ADD DUP5 PUSH2 0x5604 JUMP JUMPDEST PUSH1 0x60 DUP2 MSTORE PUSH1 0x2 PUSH1 0x60 DUP3 ADD MSTORE PUSH2 0x39A1 PUSH1 0xF1 SHL PUSH1 0x80 DUP3 ADD MSTORE PUSH1 0xA0 PUSH1 0x20 DUP3 ADD MSTORE PUSH1 0x0 PUSH2 0x5567 PUSH1 0xA0 DUP4 ADD DUP6 PUSH2 0x550F JUMP JUMPDEST PUSH1 0x60 DUP2 MSTORE PUSH1 0x2 PUSH1 0x60 DUP3 ADD MSTORE PUSH2 0x1911 PUSH1 0xF2 SHL PUSH1 0x80 DUP3 ADD MSTORE PUSH1 0xA0 PUSH1 0x20 DUP3 ADD MSTORE PUSH1 0x0 PUSH2 0x5567 PUSH1 0xA0 DUP4 ADD DUP6 PUSH2 0x550F JUMP JUMPDEST PUSH1 0x0 PUSH1 0x1 DUP3 ADD PUSH2 0x56B2 JUMPI PUSH2 0x56B2 PUSH2 0x53CC JUMP JUMPDEST POP PUSH1 0x1 ADD SWAP1 JUMP JUMPDEST PUSH1 0x40 DUP2 MSTORE PUSH1 0x0 PUSH2 0x56CC PUSH1 0x40 DUP4 ADD DUP6 PUSH2 0x550F JUMP JUMPDEST SWAP1 POP PUSH1 0x1 DUP1 PUSH1 0xA0 SHL SUB DUP4 AND PUSH1 0x20 DUP4 ADD MSTORE SWAP4 SWAP3 POP POP POP JUMP JUMPDEST PUSH1 0x60 DUP2 MSTORE PUSH1 0x2 PUSH1 0x60 DUP3 ADD MSTORE PUSH2 0x31A1 PUSH1 0xF1 SHL PUSH1 0x80 DUP3 ADD MSTORE PUSH1 0xA0 PUSH1 0x20 DUP3 ADD MSTORE PUSH1 0x0 PUSH2 0x5567 PUSH1 0xA0 DUP4 ADD DUP6 PUSH2 0x550F JUMP JUMPDEST PUSH1 0x60 DUP2 MSTORE PUSH1 0x2 PUSH1 0x60 DUP3 ADD MSTORE PUSH2 0x7241 PUSH1 0xF0 SHL PUSH1 0x80 DUP3 ADD MSTORE PUSH1 0xA0 PUSH1 0x20 DUP3 ADD MSTORE PUSH1 0x0 PUSH2 0x5567 PUSH1 0xA0 DUP4 ADD DUP6 PUSH2 0x550F JUMP JUMPDEST PUSH1 0x20 DUP2 MSTORE PUSH1 0x0 PUSH2 0xFB0 PUSH1 0x20 DUP4 ADD DUP5 PUSH2 0x550F JUMP JUMPDEST PUSH1 0x60 DUP2 MSTORE PUSH1 0x2 PUSH1 0x60 DUP3 ADD MSTORE PUSH2 0x3221 PUSH1 0xF1 SHL PUSH1 0x80 DUP3 ADD MSTORE PUSH1 0xA0 PUSH1 0x20 DUP3 ADD MSTORE PUSH1 0x0 PUSH2 0x5567 PUSH1 0xA0 DUP4 ADD DUP6 PUSH2 0x550F JUMP JUMPDEST PUSH4 0x4E487B71 PUSH1 0xE0 SHL PUSH1 0x0 MSTORE PUSH1 0x32 PUSH1 0x4 MSTORE PUSH1 0x24 PUSH1 0x0 REVERT JUMPDEST PUSH1 0x1 DUP2 DUP2 SHR SWAP1 DUP3 AND DUP1 PUSH2 0x57A4 JUMPI PUSH1 0x7F DUP3 AND SWAP2 POP JUMPDEST PUSH1 0x20 DUP3 LT DUP2 SUB PUSH2 0x57C4 JUMPI PUSH4 0x4E487B71 PUSH1 0xE0 SHL PUSH1 0x0 MSTORE PUSH1 0x22 PUSH1 0x4 MSTORE PUSH1 0x24 PUSH1 0x0 REVERT JUMPDEST POP SWAP2 SWAP1 POP JUMP JUMPDEST PUSH1 0x0 PUSH2 0x57D8 PUSH2 0x4DC0 DUP5 PUSH2 0x4D8B JUMP JUMPDEST SWAP1 POP DUP3 DUP2 MSTORE DUP4 DUP4 DUP4 ADD GT ISZERO PUSH2 0x57EC JUMPI PUSH1 0x0 DUP1 REVERT JUMPDEST PUSH2 0xFB0 DUP4 PUSH1 0x20 DUP4 ADD DUP5 PUSH2 0x540B JUMP JUMPDEST PUSH1 0x0 DUP3 PUSH1 0x1F DUP4 ADD SLT PUSH2 0x580B JUMPI PUSH1 0x0 DUP1 REVERT JUMPDEST PUSH2 0xFB0 DUP4 DUP4 MLOAD PUSH1 0x20 DUP6 ADD PUSH2 0x57CA JUMP JUMPDEST PUSH1 0x0 DUP3 PUSH1 0x1F DUP4 ADD SLT PUSH2 0x582B JUMPI PUSH1 0x0 DUP1 REVERT JUMPDEST DUP2 MLOAD PUSH1 0x20 PUSH2 0x583B PUSH2 0x4DC0 DUP4 PUSH2 0x4F16 JUMP JUMPDEST DUP3 DUP2 MSTORE PUSH1 0x5 SWAP3 SWAP1 SWAP3 SHL DUP5 ADD DUP2 ADD SWAP2 DUP2 DUP2 ADD SWAP1 DUP7 DUP5 GT ISZERO PUSH2 0x585A JUMPI PUSH1 0x0 DUP1 REVERT JUMPDEST DUP3 DUP7 ADD JUMPDEST DUP5 DUP2 LT ISZERO PUSH2 0x4FCD JUMPI DUP1 MLOAD PUSH1 0x1 PUSH1 0x1 PUSH1 0x40 SHL SUB DUP2 GT ISZERO PUSH2 0x587D JUMPI PUSH1 0x0 DUP1 DUP2 REVERT JUMPDEST DUP8 ADD PUSH1 0x3F DUP2 ADD DUP10 SGT PUSH2 0x588F JUMPI PUSH1 0x0 DUP1 DUP2 REVERT JUMPDEST PUSH2 0x58A0 DUP10 DUP7 DUP4 ADD MLOAD PUSH1 0x40 DUP5 ADD PUSH2 0x57CA JUMP JUMPDEST DUP5 MSTORE POP SWAP2 DUP4 ADD SWAP2 DUP4 ADD PUSH2 0x585E JUMP JUMPDEST PUSH1 0x0 DUP1 PUSH1 0x40 DUP4 DUP6 SUB SLT ISZERO PUSH2 0x58C1 JUMPI PUSH1 0x0 DUP1 REVERT JUMPDEST DUP3 MLOAD PUSH1 0x1 PUSH1 0x1 PUSH1 0x40 SHL SUB DUP1 DUP3 GT ISZERO PUSH2 0x58D8 JUMPI PUSH1 0x0 DUP1 REVERT JUMPDEST DUP2 DUP6 ADD SWAP2 POP DUP6 PUSH1 0x1F DUP4 ADD SLT PUSH2 0x58EC JUMPI PUSH1 0x0 DUP1 REVERT JUMPDEST DUP2 MLOAD PUSH1 0x20 PUSH2 0x58FC PUSH2 0x4DC0 DUP4 PUSH2 0x4F16 JUMP JUMPDEST DUP3 DUP2 MSTORE PUSH1 0x5 SWAP3 SWAP1 SWAP3 SHL DUP5 ADD DUP2 ADD SWAP2 DUP2 DUP2 ADD SWAP1 DUP10 DUP5 GT ISZERO PUSH2 0x591B JUMPI PUSH1 0x0 DUP1 REVERT JUMPDEST DUP3 DUP7 ADD JUMPDEST DUP5 DUP2 LT ISZERO PUSH2 0x5953 JUMPI DUP1 MLOAD DUP7 DUP2 GT ISZERO PUSH2 0x5937 JUMPI PUSH1 0x0 DUP1 DUP2 REVERT JUMPDEST PUSH2 0x5945 DUP13 DUP7 DUP4 DUP12 ADD ADD PUSH2 0x57FA JUMP JUMPDEST DUP5 MSTORE POP SWAP2 DUP4 ADD SWAP2 DUP4 ADD PUSH2 0x591F JUMP JUMPDEST POP SWAP2 DUP9 ADD MLOAD SWAP2 SWAP7 POP SWAP1 SWAP4 POP POP POP DUP1 DUP3 GT ISZERO PUSH2 0x596D JUMPI PUSH1 0x0 DUP1 REVERT JUMPDEST POP PUSH2 0x50A1 DUP6 DUP3 DUP7 ADD PUSH2 0x581A JUMP JUMPDEST PUSH1 0x0 DUP1 PUSH1 0x0 PUSH1 0x60 DUP5 DUP7 SUB SLT ISZERO PUSH2 0x598F JUMPI PUSH1 0x0 DUP1 REVERT JUMPDEST DUP4 MLOAD PUSH1 0x1 PUSH1 0x1 PUSH1 0x40 SHL SUB DUP2 GT ISZERO PUSH2 0x59A5 JUMPI PUSH1 0x0 DUP1 REVERT JUMPDEST PUSH2 0x59B1 DUP7 DUP3 DUP8 ADD PUSH2 0x57FA JUMP JUMPDEST SWAP4 POP POP PUSH1 0x20 DUP5 ADD MLOAD PUSH2 0x59C2 DUP2 PUSH2 0x4E10 JUMP JUMPDEST PUSH1 0x40 DUP6 ADD MLOAD SWAP1 SWAP3 POP PUSH2 0x50E7 DUP2 PUSH2 0x4EBB JUMP JUMPDEST PUSH1 0x0 DUP1 PUSH1 0x40 DUP4 DUP6 SUB SLT ISZERO PUSH2 0x59E6 JUMPI PUSH1 0x0 DUP1 REVERT JUMPDEST DUP3 MLOAD PUSH1 0x1 PUSH1 0x1 PUSH1 0x40 SHL SUB DUP2 GT ISZERO PUSH2 0x59FC JUMPI PUSH1 0x0 DUP1 REVERT JUMPDEST PUSH2 0x5A08 DUP6 DUP3 DUP7 ADD PUSH2 0x57FA JUMP JUMPDEST SWAP3 POP POP PUSH1 0x20 DUP4 ADD MLOAD PUSH2 0x4E63 DUP2 PUSH2 0x4E10 JUMP JUMPDEST PUSH1 0x0 DUP1 PUSH1 0x0 DUP1 PUSH1 0x80 DUP6 DUP8 SUB SLT ISZERO PUSH2 0x5A2F JUMPI PUSH1 0x0 DUP1 REVERT JUMPDEST DUP5 MLOAD PUSH1 0x1 PUSH1 0x1 PUSH1 0x40 SHL SUB DUP2 GT ISZERO PUSH2 0x5A45 JUMPI PUSH1 0x0 DUP1 REVERT JUMPDEST PUSH2 0x5A51 DUP8 DUP3 DUP9 ADD PUSH2 0x57FA JUMP JUMPDEST SWAP5 POP POP PUSH1 0x20 DUP6 ADD MLOAD PUSH2 0x5A62 DUP2 PUSH2 0x4EBB JUMP JUMPDEST PUSH1 0x40 DUP7 ADD MLOAD PUSH1 0x60 DUP8 ADD MLOAD SWAP2 SWAP5 POP SWAP3 POP PUSH2 0x5202 DUP2 PUSH2 0x4EBB JUMP JUMPDEST PUSH1 0x0 DUP1 PUSH1 0x0 DUP1 PUSH1 0x80 DUP6 DUP8 SUB SLT ISZERO PUSH2 0x5A90 JUMPI PUSH1 0x0 DUP1 REVERT JUMPDEST DUP5 MLOAD PUSH1 0x1 PUSH1 0x1 PUSH1 0x40 SHL SUB DUP1 DUP3 GT ISZERO PUSH2 0x5AA7 JUMPI PUSH1 0x0 DUP1 REVERT JUMPDEST PUSH2 0x5AB3 DUP9 DUP4 DUP10 ADD PUSH2 0x57FA JUMP JUMPDEST SWAP6 POP PUSH1 0x20 DUP8 ADD MLOAD SWAP2 POP DUP1 DUP3 GT ISZERO PUSH2 0x5AC9 JUMPI PUSH1 0x0 DUP1 REVERT JUMPDEST POP PUSH2 0x5AD6 DUP8 DUP3 DUP9 ADD PUSH2 0x57FA JUMP JUMPDEST SWAP4 POP POP PUSH1 0x40 DUP6 ADD MLOAD PUSH2 0x5AE7 DUP2 PUSH2 0x4EBB JUMP JUMPDEST PUSH1 0x60 SWAP6 SWAP1 SWAP6 ADD MLOAD SWAP4 SWAP7 SWAP3 SWAP6 POP POP POP JUMP JUMPDEST PUSH1 0x0 DUP1 PUSH1 0x0 PUSH1 0x60 DUP5 DUP7 SUB SLT ISZERO PUSH2 0x5B0C JUMPI PUSH1 0x0 DUP1 REVERT JUMPDEST DUP4 MLOAD PUSH1 0x1 PUSH1 0x1 PUSH1 0x40 SHL SUB DUP2 GT ISZERO PUSH2 0x5B22 JUMPI PUSH1 0x0 DUP1 REVERT JUMPDEST PUSH2 0x5B2E DUP7 DUP3 DUP8 ADD PUSH2 0x57FA JUMP JUMPDEST SWAP4 POP POP PUSH1 0x20 DUP5 ADD MLOAD PUSH2 0x5B3F DUP2 PUSH2 0x4EBB JUMP JUMPDEST DUP1 SWAP3 POP POP PUSH1 0x40 DUP5 ADD MLOAD SWAP1 POP SWAP3 POP SWAP3 POP SWAP3 JUMP JUMPDEST PUSH1 0x0 DUP1 PUSH1 0x40 DUP4 DUP6 SUB SLT ISZERO PUSH2 0x5B64 JUMPI PUSH1 0x0 DUP1 REVERT JUMPDEST DUP3 MLOAD PUSH1 0x1 PUSH1 0x1 PUSH1 0x40 SHL SUB DUP2 GT ISZERO PUSH2 0x5B7A JUMPI PUSH1 0x0 DUP1 REVERT JUMPDEST PUSH2 0x5B86 DUP6 DUP3 DUP7 ADD PUSH2 0x57FA JUMP JUMPDEST SWAP3 POP POP PUSH1 0x20 DUP4 ADD MLOAD PUSH2 0x4E63 DUP2 PUSH2 0x4EBB JUMP JUMPDEST PUSH1 0x0 PUSH1 0x20 DUP3 DUP5 SUB SLT ISZERO PUSH2 0x5BA9 JUMPI PUSH1 0x0 DUP1 REVERT JUMPDEST DUP2 MLOAD PUSH1 0x1 PUSH1 0x1 PUSH1 0x40 SHL SUB DUP2 GT ISZERO PUSH2 0x5BBF JUMPI PUSH1 0x0 DUP1 REVERT JUMPDEST PUSH2 0x44ED DUP5 DUP3 DUP6 ADD PUSH2 0x57FA JUMP JUMPDEST PUSH1 0x0 PUSH1 0x20 DUP3 DUP5 SUB SLT ISZERO PUSH2 0x5BDD JUMPI PUSH1 0x0 DUP1 REVERT JUMPDEST DUP2 MLOAD PUSH2 0xFB0 DUP2 PUSH2 0x4EBB JUMP JUMPDEST PUSH1 0x60 DUP2 MSTORE PUSH1 0x2 PUSH1 0x60 DUP3 ADD MSTORE PUSH2 0x695 PUSH1 0xF4 SHL PUSH1 0x80 DUP3 ADD MSTORE PUSH1 0xA0 PUSH1 0x20 DUP3 ADD MSTORE PUSH1 0x0 PUSH2 0x5567 PUSH1 0xA0 DUP4 ADD DUP6 PUSH2 0x550F JUMP JUMPDEST PUSH1 0x20 DUP1 DUP3 MSTORE PUSH1 0x2 SWAP1 DUP3 ADD MSTORE PUSH2 0x24A3 PUSH1 0xF1 SHL PUSH1 0x40 DUP3 ADD MSTORE PUSH1 0x60 ADD SWAP1 JUMP JUMPDEST PUSH1 0x60 DUP2 MSTORE PUSH1 0x0 PUSH2 0x5C43 PUSH1 0x60 DUP4 ADD DUP7 PUSH2 0x550F JUMP JUMPDEST PUSH1 0x1 PUSH1 0x1 PUSH1 0xA0 SHL SUB SWAP5 SWAP1 SWAP5 AND PUSH1 0x20 DUP4 ADD MSTORE POP PUSH1 0x40 ADD MSTORE SWAP2 SWAP1 POP JUMP JUMPDEST PUSH1 0x60 DUP2 MSTORE PUSH1 0x2 PUSH1 0x60 DUP3 ADD MSTORE PUSH2 0x1A51 PUSH1 0xF2 SHL PUSH1 0x80 DUP3 ADD MSTORE PUSH1 0xA0 PUSH1 0x20 DUP3 ADD MSTORE PUSH1 0x0 PUSH2 0x5567 PUSH1 0xA0 DUP4 ADD DUP6 PUSH2 0x550F JUMP JUMPDEST PUSH1 0x60 DUP2 MSTORE PUSH1 0x3 PUSH1 0x60 DUP3 ADD MSTORE PUSH3 0x734E53 PUSH1 0xE8 SHL PUSH1 0x80 DUP3 ADD MSTORE PUSH1 0xA0 PUSH1 0x20 DUP3 ADD MSTORE PUSH1 0x0 PUSH2 0x5567 PUSH1 0xA0 DUP4 ADD DUP6 PUSH2 0x550F JUMP JUMPDEST PUSH1 0x60 DUP2 MSTORE PUSH1 0x2 PUSH1 0x60 DUP3 ADD MSTORE PUSH2 0x1D55 PUSH1 0xF2 SHL PUSH1 0x80 DUP3 ADD MSTORE PUSH1 0xA0 PUSH1 0x20 DUP3 ADD MSTORE PUSH1 0x0 PUSH2 0x5567 PUSH1 0xA0 DUP4 ADD DUP6 PUSH2 0x550F JUMP JUMPDEST PUSH1 0x60 DUP2 MSTORE PUSH1 0x2 PUSH1 0x60 DUP3 ADD MSTORE PUSH2 0x1C95 PUSH1 0xF2 SHL PUSH1 0x80 DUP3 ADD MSTORE PUSH1 0xA0 PUSH1 0x20 DUP3 ADD MSTORE PUSH1 0x0 PUSH2 0x5567 PUSH1 0xA0 DUP4 ADD DUP6 PUSH2 0x550F JUMP JUMPDEST PUSH1 0x80 DUP2 MSTORE PUSH1 0x0 PUSH2 0x5D22 PUSH1 0x80 DUP4 ADD DUP8 PUSH2 0x550F JUMP JUMPDEST DUP3 DUP2 SUB PUSH1 0x20 DUP5 ADD MSTORE PUSH2 0x5D34 DUP2 DUP8 PUSH2 0x550F JUMP JUMPDEST PUSH1 0x1 PUSH1 0x1 PUSH1 0xA0 SHL SUB SWAP6 SWAP1 SWAP6 AND PUSH1 0x40 DUP5 ADD MSTORE POP POP PUSH1 0x60 ADD MSTORE SWAP3 SWAP2 POP POP JUMP JUMPDEST PUSH1 0x60 DUP2 MSTORE PUSH1 0x2 PUSH1 0x60 DUP3 ADD MSTORE PUSH2 0x1B55 PUSH1 0xF2 SHL PUSH1 0x80 DUP3 ADD MSTORE PUSH1 0xA0 PUSH1 0x20 DUP3 ADD MSTORE PUSH1 0x0 PUSH2 0x5567 PUSH1 0xA0 DUP4 ADD DUP6 PUSH2 0x550F JUMP JUMPDEST PUSH1 0x60 DUP2 MSTORE PUSH1 0x2 PUSH1 0x60 DUP3 ADD MSTORE PUSH2 0x6141 PUSH1 0xF0 SHL PUSH1 0x80 DUP3 ADD MSTORE PUSH1 0xA0 PUSH1 0x20 DUP3 ADD MSTORE PUSH1 0x0 PUSH2 0x5567 PUSH1 0xA0 DUP4 ADD DUP6 PUSH2 0x550F JUMP JUMPDEST PUSH1 0x60 DUP2 MSTORE PUSH1 0x0 PUSH2 0x5DBC PUSH1 0x60 DUP4 ADD DUP7 PUSH2 0x550F JUMP JUMPDEST PUSH1 0x1 PUSH1 0x1 PUSH1 0xA0 SHL SUB DUP6 AND PUSH1 0x20 DUP5 ADD MSTORE SWAP1 POP PUSH2 0x44ED PUSH1 0x40 DUP4 ADD DUP5 PUSH2 0x5604 JUMP JUMPDEST PUSH1 0x60 DUP2 MSTORE PUSH1 0x2 PUSH1 0x60 DUP3 ADD MSTORE PUSH2 0x735 PUSH1 0xF4 SHL PUSH1 0x80 DUP3 ADD MSTORE PUSH1 0xA0 PUSH1 0x20 DUP3 ADD MSTORE PUSH1 0x0 PUSH2 0x5567 PUSH1 0xA0 DUP4 ADD DUP6 PUSH2 0x550F JUMP JUMPDEST PUSH1 0x80 DUP2 MSTORE PUSH1 0x0 PUSH2 0x5E19 PUSH1 0x80 DUP4 ADD DUP8 PUSH2 0x550F JUMP JUMPDEST PUSH1 0x1 PUSH1 0x1 PUSH1 0xA0 SHL SUB SWAP6 DUP7 AND PUSH1 0x20 DUP5 ADD MSTORE PUSH1 0x40 DUP4 ADD SWAP5 SWAP1 SWAP5 MSTORE POP SWAP3 AND PUSH1 0x60 SWAP1 SWAP3 ADD SWAP2 SWAP1 SWAP2 MSTORE SWAP2 SWAP1 POP JUMP JUMPDEST PUSH1 0x60 DUP2 MSTORE PUSH1 0x2 PUSH1 0x60 DUP3 ADD MSTORE PUSH2 0x1D15 PUSH1 0xF2 SHL PUSH1 0x80 DUP3 ADD MSTORE PUSH1 0xA0 PUSH1 0x20 DUP3 ADD MSTORE PUSH1 0x0 PUSH2 0x5567 PUSH1 0xA0 DUP4 ADD DUP6 PUSH2 0x550F JUMP JUMPDEST PUSH1 0x0 DUP3 PUSH2 0x5E7D JUMPI PUSH2 0x5E7D PUSH2 0x549F JUMP JUMPDEST POP MOD SWAP1 JUMP JUMPDEST PUSH1 0x1F DUP3 GT ISZERO PUSH2 0xD6D JUMPI PUSH1 0x0 DUP2 DUP2 MSTORE PUSH1 0x20 DUP2 KECCAK256 PUSH1 0x1F DUP6 ADD PUSH1 0x5 SHR DUP2 ADD PUSH1 0x20 DUP7 LT ISZERO PUSH2 0x5EA9 JUMPI POP DUP1 JUMPDEST PUSH1 0x1F DUP6 ADD PUSH1 0x5 SHR DUP3 ADD SWAP2 POP JUMPDEST DUP2 DUP2 LT ISZERO PUSH2 0x1B21 JUMPI DUP3 DUP2 SSTORE PUSH1 0x1 ADD PUSH2 0x5EB5 JUMP JUMPDEST DUP2 MLOAD PUSH1 0x1 PUSH1 0x1 PUSH1 0x40 SHL SUB DUP2 GT ISZERO PUSH2 0x5EE1 JUMPI PUSH2 0x5EE1 PUSH2 0x4D45 JUMP JUMPDEST PUSH2 0x5EF5 DUP2 PUSH2 0x5EEF DUP5 SLOAD PUSH2 0x5790 JUMP JUMPDEST DUP5 PUSH2 0x5E82 JUMP JUMPDEST PUSH1 0x20 DUP1 PUSH1 0x1F DUP4 GT PUSH1 0x1 DUP2 EQ PUSH2 0x5F2A JUMPI PUSH1 0x0 DUP5 ISZERO PUSH2 0x5F12 JUMPI POP DUP6 DUP4 ADD MLOAD JUMPDEST PUSH1 0x0 NOT PUSH1 0x3 DUP7 SWAP1 SHL SHR NOT AND PUSH1 0x1 DUP6 SWAP1 SHL OR DUP6 SSTORE PUSH2 0x1B21 JUMP JUMPDEST PUSH1 0x0 DUP6 DUP2 MSTORE PUSH1 0x20 DUP2 KECCAK256 PUSH1 0x1F NOT DUP7 AND SWAP2 JUMPDEST DUP3 DUP2 LT ISZERO PUSH2 0x5F59 JUMPI DUP9 DUP7 ADD MLOAD DUP3 SSTORE SWAP5 DUP5 ADD SWAP5 PUSH1 0x1 SWAP1 SWAP2 ADD SWAP1 DUP5 ADD PUSH2 0x5F3A JUMP JUMPDEST POP DUP6 DUP3 LT ISZERO PUSH2 0x5F77 JUMPI DUP8 DUP6 ADD MLOAD PUSH1 0x0 NOT PUSH1 0x3 DUP9 SWAP1 SHL PUSH1 0xF8 AND SHR NOT AND DUP2 SSTORE JUMPDEST POP POP POP POP POP PUSH1 0x1 SWAP1 DUP2 SHL ADD SWAP1 SSTORE POP JUMP INVALID NUMBER 0xCD PUSH23 0xB5EB40DA9EA5EB31A199F443F7CF7955EC280BC5981A2E CALLVALUE GASLIMIT 0xC7 SWAP13 SWAP1 SSTORE LOG2 PUSH5 0x6970667358 0x22 SLT KECCAK256 DUP13 STOP 0xCC PUSH4 0x4DD57C85 0x2C MSTORE 0xCB SWAP4 0xAA NOT STATICCALL MLOAD CHAINID EXP PUSH16 0xB86583B849B34AEB2559C29AD664736F PUSH13 0x63430008130033000000000000 ",
  "sha1": "b14e4899c29cb62ecc3b0620705df776a0f27ff2",
  "source": "// SPDX-License-Identifier: GPL-3.0-or-later\n\npragma solidity ^0.8.4;\n\nimport \"./administrable.sol\";\n\n/// @title A fractional DAO-like contract whose decisions can be voted upon by its shareholders\n/// @author Frederik W. L. Christoffersen\n/// @notice This contract is used as a votable administerable business entity.\n/// @custom:beaware This is a commercial contract.\ncontract Votable is Administrable {\n\n    /// @notice Struct representing info of a Referendum.\n    /// @param issuer The issuer of the Referendum.\n    /// @param proposalFunctionNames Names of functions to be called during implementation.\n    /// @param proposalArgumentData The parameters passed to the function calls as part of the implementation of the proposals.\n    struct ReferendumInfo {\n        address issuer;\n        string[] proposalFunctionNames;\n        bytes[] proposalArgumentData;\n    }\n\n    /// @notice Mapping pointing to dynamic info of a Referendum given a unique Referendum instance.\n    mapping(uint256 => ReferendumInfo) public infoByReferendum;\n\n    /// @notice Mapping pointing to favor numerator of a given Referendum.\n    mapping(uint256 => uint256) favorNumeratorByReferendum;\n    /// @notice Mapping pointing to favor denominator of a given Referendum.\n    mapping(uint256 => uint256) favorDenominatorByReferendum;\n\n    /// @notice Mapping pointing to numerator of total votes on a given Referendum.\n    mapping(uint256 => uint256) totalNumeratorByReferendum;\n    /// @notice Mapping pointing to denominator of total votes on given Referendum.\n    mapping(uint256 => uint256) totalDenominatorByReferendum;\n\n    /// @notice Mapping pointing to amount proposals implemented of a given Referendum.\n    mapping(uint256 => uint256) amountImplementedByReferendum;\n\n    /// @notice Mapping pointing to a boolean stating if the holder of a given Shard has voted on the given Referendum.\n    mapping(uint256 => mapping(bytes32 => bool)) hasVotedOnReferendum;\n\n    /// @notice Mapping pointing to a boolean stating if a given Referendum is pending.\n    mapping(uint256 => bool) pendingReferendums;\n\n    /// @notice Mapping pointing to a boolean stating if a given Referendum is to be implemented.\n    mapping(uint256 => bool) passedReferendums;\n\n\n    /// @notice Event that triggers when a Referendum is issued.\n    /// @param referendum The now pending Referendum that was issued.\n    event ReferendumIssued(\n        uint256 referendum\n        );\n\n    /// @notice Event that triggers when a Referendum is closed.\n    /// @param referendum The passed Referendum that was closed.\n    event ReferendumClosed(\n        uint256 referendum\n        );\n\n    /// @notice Event that triggers when a whole Referendum has been implemented.\n    /// @param referendum The passed Referendum that was implemented.\n    event ReferendumImplemented(\n        uint256 referendum\n        );\n\n    /// @notice Event that triggers when a vote is cast on a Referendum.\n    /// @param referendum The referendum that was voted on.\n    /// @param favor The boolean value signalling a FOR or AGAINST vote.\n    /// @param by The voter.\n    event VoteCast(\n        uint256 referendum,\n        bool favor,\n        address by\n        );\n\n    /// @notice Modifier that makes sure a given Referendum is pending.\n    /// @param referendum The Referendum to be checked for.\n    modifier onlyPendingReferendum(uint256 referendum) {\n        require(referendumIsPending(referendum), \"RNP\");\n        _;\n    }\n\n    constructor() {\n        _setPermit(\"iV\",msg.sender,PermitState.administrator);\n        _setPermit(\"iP\",msg.sender,PermitState.administrator);\n    }\n\n    /// @notice Votes on a existing referendum, with a fraction corresponding to the shard of the holder.\n    /// @param shard The Shard to vote with.\n    /// @param referendum The referendum to be voted on.\n    /// @param favor The boolean value signalling a FOR or AGAINST vote.\n    function vote(bytes32 shard, uint256 referendum, bool favor) external onlyHolder(shard) onlyPendingReferendum(referendum) onlyIfActive {\n        require(!hasVoted(referendum, msg.sender));\n        require(shardExisted(shard,referendum), \"SNV\");\n        hasVotedOnReferendum[referendum][shard] = true;\n        if (favor) {\n            (uint256 favorNumerator, uint256 favorDenominator) = addFractions(favorNumeratorByReferendum[referendum],favorDenominatorByReferendum[referendum],infoByShard[shard].numerator,infoByShard[shard].denominator);\n            (favorNumeratorByReferendum[referendum],favorDenominatorByReferendum[referendum]) = simplifyFraction(favorNumerator, favorDenominator);\n        }\n        (uint256 totalNumerator, uint256 totalDenominator) = addFractions(totalNumeratorByReferendum[referendum],totalDenominatorByReferendum[referendum],infoByShard[shard].numerator,infoByShard[shard].denominator);\n        (totalNumeratorByReferendum[referendum],totalDenominatorByReferendum[referendum]) = simplifyFraction(totalNumerator,totalDenominator);\n        \n        emit VoteCast(referendum, favor, msg.sender);\n        bool passed = getReferendumResult(referendum);\n        if (passed || totalNumeratorByReferendum[referendum] / totalDenominatorByReferendum[referendum] == 1 ) {\n\n            pendingReferendums[referendum] = false;\n            if (passed) { // if it got voted through\n                passedReferendums[referendum] = true;\n            }\n            emit ReferendumClosed(referendum);\n        }\n    }\n\n    /// @notice The potential errors of the Proposals aren't checked for before implementation!!!\n    /// @param proposalFunctionNames The names of the functions to be called as a result of the implementation of the proposals.\n    /// @param proposalArgumentData The parameters passed to the function calls as part of the implementation of the proposals.\n    function issueVote(string[] memory proposalFunctionNames, bytes[] memory proposalArgumentData) external onlyWithPermit(\"iV\") {\n        _issueVote(proposalFunctionNames,proposalArgumentData);\n    }\n\n    /// @notice Implements a given Proposal, within a given passed Referendum.\n    /// @param referendum The passed Referendum containing the Proposal.\n    /// @param proposalIndex The index of the proposal to be implemented.\n    function implementProposal(uint256 referendum, uint256 proposalIndex) external onlyWithPermit(\"iP\") {\n        _implementProposal(referendum,proposalIndex);\n    }\n\n    /// @notice Returns a boolean stating if a given Shard Holder has voted on a given Referendum.\n    /// @param referendum The Referendum to be checked for.\n    /// @param account The address of the potential Shard Holder voter to be checked for.\n    function hasVoted(uint256 referendum, address account) public view returns(bool) {\n        return hasVotedOnReferendum[referendum][shardByOwner[account]];\n    }\n\n    /// @notice Returns a boolean stating if a given Referendum has been voted through (>=50% FAVOR) or not.\n    /// @param referendum The Referendum to be checked for.\n    function getReferendumResult(uint256 referendum) public view returns(bool) {\n        // if forFraction is bigger than 50%, then the vote is FOR\n        if ((favorNumeratorByReferendum[referendum] / favorDenominatorByReferendum[referendum]) * 2 > 1) {\n            return true;\n        }\n        return false;\n    }\n    \n    /// @notice Returns a boolean stating if a given Referendum is pending or not.\n    /// @param referendum The Referendum to be checked for.\n    function referendumIsPending(uint256 referendum) public view returns(bool) {\n        return pendingReferendums[referendum]; \n    }\n\n    /// @notice Returns a boolean stating if a given Referendum is passed or not.\n    /// @param referendum The Referendum to be checked for.\n    function referendumIsPassed(uint256 referendum) public view returns(bool) {\n        return passedReferendums[referendum]; \n    }\n\n    /// @notice Returns a boolean stating if a given Referendum is implemented or not.\n    /// @param referendum The Referendum to be checked for.\n    function referendumIsImplemented(uint256 referendum) public view returns(bool) {\n        return amountImplementedByReferendum[referendum] == infoByReferendum[referendum].proposalFunctionNames.length; \n    }\n\n    /// @notice Returns a boolean stating if a given Proposal exists within a given Referendum.\n    /// @param referendum The Referendum to be checked for.\n    /// @param proposalIndex The index of the proposal to be checked for.\n    function proposalExists(uint256 referendum, uint256 proposalIndex) public view returns(bool) {\n        return infoByReferendum[referendum].proposalFunctionNames.length > proposalIndex;\n    }\n\n    /// @notice The potential errors of the Proposals aren't checked for before implementation!!!\n    /// @param proposalFunctionNames The names of the functions to be called as a result of the implementation of the proposals.\n    /// @param proposalArgumentData The parameters passed to the function calls as part of the implementation of the proposals.\n    function _issueVote(string[] memory proposalFunctionNames, bytes[] memory proposalArgumentData) internal onlyIfActive incrementClock {\n        uint256 transferTime = clock;\n        require(proposalFunctionNames.length == proposalArgumentData.length, \"PCW\");\n        pendingReferendums[transferTime] = true;\n        infoByReferendum[transferTime] = ReferendumInfo({\n            issuer: msg.sender,\n            proposalFunctionNames: proposalFunctionNames,\n            proposalArgumentData: proposalArgumentData\n            });\n        favorDenominatorByReferendum[transferTime] = 1;\n        totalDenominatorByReferendum[transferTime] = 1;\n        emit ReferendumIssued(transferTime);\n    }\n\n    /// @notice Implements a given Proposal, within a given passed Referendum.\n    /// @param referendum The passed Referendum containing the Proposal.\n    /// @param proposalIndex The index of the proposal to be implemented.\n    function _implementProposal(uint256 referendum, uint256 proposalIndex) internal onlyIfActive {\n        require(proposalExists(referendum,proposalIndex),\"PDE\");\n        require(amountImplementedByReferendum[referendum] == proposalIndex, \"WPO\");\n        amountImplementedByReferendum[referendum] += 1;\n        string memory proposalFunctionName = infoByReferendum[referendum].proposalFunctionNames[proposalIndex];\n        bytes memory proposalArgumentData = infoByReferendum[referendum].proposalArgumentData[proposalIndex];\n        bytes32 functionNameHash = keccak256(bytes(proposalFunctionName));\n                    if (functionNameHash == keccak256(bytes(\"iV\"))) {\n                        (string[] memory proposalFunctionNames, bytes[] memory _proposalArgumentData) = abi.decode(proposalArgumentData, (string[], bytes[]));\n                        _issueVote(proposalFunctionNames, _proposalArgumentData);\n                    }\n                    if (functionNameHash == keccak256(bytes(\"sP\"))) {\n                        (string memory permitName, PermitState newState, address account) = abi.decode(proposalArgumentData, (string, PermitState,address));\n                        _setPermit(permitName,account,newState);\n                    }\n                    if (functionNameHash == keccak256(bytes(\"sB\"))) {\n                        (string memory permitName, PermitState newState) = abi.decode(proposalArgumentData, (string, PermitState));\n                        _setBasePermit(permitName,newState);\n                    }\n                    if (functionNameHash == keccak256(bytes(\"sNS\"))) {\n                        (bool newState) = abi.decode(proposalArgumentData, (bool));\n                        _setNonShardHolderState(newState);\n                    }\n                    if (functionNameHash == keccak256(bytes(\"tT\"))) {\n                        (string memory fromBankName, address tokenAddress, uint256 value, address to) = abi.decode(proposalArgumentData, (string, address, uint256,address));\n                        _transferTokenFromBank(fromBankName,tokenAddress,value,to);\n                    }\n                    if (functionNameHash == keccak256(bytes(\"mT\"))) {\n                        (string memory fromBankName, string memory toBankName, address tokenAddress, uint256 value) = abi.decode(proposalArgumentData, (string, string, address, uint256));\n                        _moveToken(fromBankName,toBankName,tokenAddress,value);\n                    }\n                    if (functionNameHash == keccak256(bytes(\"iD\"))) {\n                        (string memory bankName, address tokenAddress, uint256 value) = abi.decode(proposalArgumentData, (string,address,uint256));\n                        _issueDividend(bankName,tokenAddress,value);\n                    }\n                    if (functionNameHash == keccak256(bytes(\"dD\"))) {\n                        (uint256 dividend) = abi.decode(proposalArgumentData, (uint256));\n                        _dissolveDividend(dividend);\n                    }\n                    if (functionNameHash == keccak256(bytes(\"cB\"))) {\n                        (string memory bankName, address bankAdmin) = abi.decode(proposalArgumentData, (string, address));\n                        _createBank(bankName,bankAdmin);\n                    }\n                    if (functionNameHash == keccak256(bytes(\"dB\"))) {\n                        (string memory bankName) = abi.decode(proposalArgumentData, (string));\n                        _deleteBank(bankName);\n                    }\n                    if (functionNameHash == keccak256(bytes(\"aBA\"))) {\n                        (string memory bankName, address bankAdmin) = abi.decode(proposalArgumentData, (string, address));\n                        _addBankAdmin(bankName,bankAdmin);\n                    }\n                    if (functionNameHash == keccak256(bytes(\"rBA\"))) {\n                        (string memory bankName, address bankAdmin) = abi.decode(proposalArgumentData, (string, address));\n                        _removeBankAdmin(bankName,bankAdmin);\n                    }\n                    if (functionNameHash == keccak256(bytes(\"rTA\"))) {\n                        (address tokenAddress) = abi.decode(proposalArgumentData, (address));\n                        _registerTokenAddress(tokenAddress);\n                    }\n                    if (functionNameHash == keccak256(bytes(\"uTA\"))) {\n                        (address tokenAddress) = abi.decode(proposalArgumentData, (address));\n                        _unregisterTokenAddress(tokenAddress);\n                    }\n                    if (functionNameHash == keccak256(bytes(\"l\"))) {\n                        _liquidize();\n                    }\n                    else {\n                        revert(\"WF\");\n                    }\n                    emit ActionTaken(\"iP\",abi.encode(referendum,proposalIndex),msg.sender);\n\n        if (amountImplementedByReferendum[referendum] == infoByReferendum[referendum].proposalFunctionNames.length) {\n            emit ReferendumImplemented(referendum);\n        }\n    }\n}",
  "sourcePath": "contracts/votable.sol",
  "type": "contract"
}