{
  "abi": [
    {
      "inputs": [
        {
          "internalType": "uint256",
          "name": "amount",
          "type": "uint256"
        }
      ],
      "stateMutability": "nonpayable",
      "type": "constructor"
    },
    {
      "anonymous": false,
      "inputs": [
        {
          "indexed": false,
          "internalType": "string",
          "name": "func",
          "type": "string"
        },
        {
          "indexed": false,
          "internalType": "bytes",
          "name": "args",
          "type": "bytes"
        },
        {
          "indexed": false,
          "internalType": "address",
          "name": "by",
          "type": "address"
        }
      ],
      "name": "ActionTaken",
      "type": "event"
    },
    {
      "anonymous": false,
      "inputs": [
        {
          "indexed": false,
          "internalType": "uint256",
          "name": "dividendClock",
          "type": "uint256"
        },
        {
          "indexed": false,
          "internalType": "uint256",
          "name": "value",
          "type": "uint256"
        },
        {
          "indexed": false,
          "internalType": "address",
          "name": "by",
          "type": "address"
        }
      ],
      "name": "DividendClaimed",
      "type": "event"
    },
    {
      "anonymous": false,
      "inputs": [
        {
          "indexed": false,
          "internalType": "uint256",
          "name": "referendum",
          "type": "uint256"
        }
      ],
      "name": "ReferendumClosed",
      "type": "event"
    },
    {
      "anonymous": false,
      "inputs": [
        {
          "indexed": false,
          "internalType": "uint256",
          "name": "referendum",
          "type": "uint256"
        }
      ],
      "name": "ReferendumImplemented",
      "type": "event"
    },
    {
      "anonymous": false,
      "inputs": [
        {
          "indexed": false,
          "internalType": "enum Shardable.SaleState",
          "name": "status",
          "type": "uint8"
        },
        {
          "indexed": false,
          "internalType": "bytes32",
          "name": "shard",
          "type": "bytes32"
        },
        {
          "components": [
            {
              "internalType": "uint256",
              "name": "amount",
              "type": "uint256"
            },
            {
              "internalType": "uint256",
              "name": "price",
              "type": "uint256"
            },
            {
              "internalType": "address",
              "name": "tokenAddress",
              "type": "address"
            },
            {
              "internalType": "address",
              "name": "to",
              "type": "address"
            }
          ],
          "indexed": false,
          "internalType": "struct Shardable.ShardSale",
          "name": "sale",
          "type": "tuple"
        }
      ],
      "name": "SaleStateUpdated",
      "type": "event"
    },
    {
      "anonymous": false,
      "inputs": [
        {
          "indexed": false,
          "internalType": "bool",
          "name": "status",
          "type": "bool"
        },
        {
          "indexed": false,
          "internalType": "bytes32",
          "name": "shard",
          "type": "bytes32"
        }
      ],
      "name": "ShardUpdated",
      "type": "event"
    },
    {
      "anonymous": false,
      "inputs": [
        {
          "indexed": false,
          "internalType": "uint256",
          "name": "referendumClock",
          "type": "uint256"
        },
        {
          "indexed": false,
          "internalType": "bool",
          "name": "favor",
          "type": "bool"
        },
        {
          "indexed": false,
          "internalType": "address",
          "name": "by",
          "type": "address"
        }
      ],
      "name": "VoteCast",
      "type": "event"
    },
    {
      "inputs": [
        {
          "internalType": "address",
          "name": "tokenAddress",
          "type": "address"
        }
      ],
      "name": "acceptsToken",
      "outputs": [
        {
          "internalType": "bool",
          "name": "",
          "type": "bool"
        }
      ],
      "stateMutability": "view",
      "type": "function"
    },
    {
      "inputs": [],
      "name": "active",
      "outputs": [
        {
          "internalType": "bool",
          "name": "",
          "type": "bool"
        }
      ],
      "stateMutability": "view",
      "type": "function"
    },
    {
      "inputs": [
        {
          "internalType": "string",
          "name": "bankName",
          "type": "string"
        },
        {
          "internalType": "address",
          "name": "bankAdmin",
          "type": "address"
        }
      ],
      "name": "addBankAdmin",
      "outputs": [],
      "stateMutability": "nonpayable",
      "type": "function"
    },
    {
      "inputs": [
        {
          "internalType": "string",
          "name": "bankName",
          "type": "string"
        }
      ],
      "name": "bankExists",
      "outputs": [
        {
          "internalType": "bool",
          "name": "",
          "type": "bool"
        }
      ],
      "stateMutability": "view",
      "type": "function"
    },
    {
      "inputs": [
        {
          "internalType": "string",
          "name": "bankName",
          "type": "string"
        }
      ],
      "name": "bankIsEmpty",
      "outputs": [
        {
          "internalType": "bool",
          "name": "",
          "type": "bool"
        }
      ],
      "stateMutability": "view",
      "type": "function"
    },
    {
      "inputs": [
        {
          "internalType": "bytes32",
          "name": "shard",
          "type": "bytes32"
        }
      ],
      "name": "cancelSale",
      "outputs": [],
      "stateMutability": "nonpayable",
      "type": "function"
    },
    {
      "inputs": [
        {
          "internalType": "bytes32",
          "name": "shard",
          "type": "bytes32"
        },
        {
          "internalType": "uint256",
          "name": "dividend",
          "type": "uint256"
        }
      ],
      "name": "claimDividend",
      "outputs": [],
      "stateMutability": "nonpayable",
      "type": "function"
    },
    {
      "inputs": [
        {
          "internalType": "address",
          "name": "tokenAddress",
          "type": "address"
        }
      ],
      "name": "claimLiquid",
      "outputs": [],
      "stateMutability": "nonpayable",
      "type": "function"
    },
    {
      "inputs": [
        {
          "internalType": "address",
          "name": "tokenAddress",
          "type": "address"
        }
      ],
      "name": "claimTerminatedLiquid",
      "outputs": [],
      "stateMutability": "nonpayable",
      "type": "function"
    },
    {
      "inputs": [
        {
          "internalType": "string",
          "name": "bankName",
          "type": "string"
        },
        {
          "internalType": "address",
          "name": "bankAdmin",
          "type": "address"
        }
      ],
      "name": "createBank",
      "outputs": [],
      "stateMutability": "nonpayable",
      "type": "function"
    },
    {
      "inputs": [
        {
          "internalType": "string",
          "name": "bankName",
          "type": "string"
        }
      ],
      "name": "deleteBank",
      "outputs": [],
      "stateMutability": "nonpayable",
      "type": "function"
    },
    {
      "inputs": [
        {
          "internalType": "uint256",
          "name": "dividend",
          "type": "uint256"
        }
      ],
      "name": "dissolveDividend",
      "outputs": [],
      "stateMutability": "nonpayable",
      "type": "function"
    },
    {
      "inputs": [
        {
          "internalType": "uint256",
          "name": "dividend",
          "type": "uint256"
        }
      ],
      "name": "dividendExists",
      "outputs": [
        {
          "internalType": "bool",
          "name": "",
          "type": "bool"
        }
      ],
      "stateMutability": "view",
      "type": "function"
    },
    {
      "inputs": [
        {
          "internalType": "string",
          "name": "bankName",
          "type": "string"
        },
        {
          "internalType": "address",
          "name": "tokenAddress",
          "type": "address"
        }
      ],
      "name": "getBankBalance",
      "outputs": [
        {
          "internalType": "uint256",
          "name": "",
          "type": "uint256"
        }
      ],
      "stateMutability": "view",
      "type": "function"
    },
    {
      "inputs": [],
      "name": "getCurrentClock",
      "outputs": [
        {
          "internalType": "uint256",
          "name": "",
          "type": "uint256"
        }
      ],
      "stateMutability": "view",
      "type": "function"
    },
    {
      "inputs": [
        {
          "internalType": "uint256",
          "name": "dividend",
          "type": "uint256"
        }
      ],
      "name": "getDividendResidual",
      "outputs": [
        {
          "internalType": "uint256",
          "name": "",
          "type": "uint256"
        }
      ],
      "stateMutability": "view",
      "type": "function"
    },
    {
      "inputs": [
        {
          "internalType": "uint256",
          "name": "dividend",
          "type": "uint256"
        }
      ],
      "name": "getDividendToken",
      "outputs": [
        {
          "internalType": "address",
          "name": "",
          "type": "address"
        }
      ],
      "stateMutability": "view",
      "type": "function"
    },
    {
      "inputs": [
        {
          "internalType": "uint256",
          "name": "dividend",
          "type": "uint256"
        }
      ],
      "name": "getDividendValue",
      "outputs": [
        {
          "internalType": "uint256",
          "name": "",
          "type": "uint256"
        }
      ],
      "stateMutability": "view",
      "type": "function"
    },
    {
      "inputs": [
        {
          "internalType": "address",
          "name": "tokenAddress",
          "type": "address"
        }
      ],
      "name": "getLiquidResidual",
      "outputs": [
        {
          "internalType": "uint256",
          "name": "",
          "type": "uint256"
        }
      ],
      "stateMutability": "view",
      "type": "function"
    },
    {
      "inputs": [
        {
          "internalType": "uint256",
          "name": "referendum",
          "type": "uint256"
        }
      ],
      "name": "getReferendumResult",
      "outputs": [
        {
          "internalType": "bool",
          "name": "",
          "type": "bool"
        }
      ],
      "stateMutability": "view",
      "type": "function"
    },
    {
      "inputs": [
        {
          "internalType": "bytes32",
          "name": "shard",
          "type": "bytes32"
        }
      ],
      "name": "getShardExpirationClock",
      "outputs": [
        {
          "internalType": "uint256",
          "name": "",
          "type": "uint256"
        }
      ],
      "stateMutability": "view",
      "type": "function"
    },
    {
      "inputs": [
        {
          "internalType": "bytes32",
          "name": "shard",
          "type": "bytes32"
        }
      ],
      "name": "getShardSalePrice",
      "outputs": [
        {
          "internalType": "uint256",
          "name": "",
          "type": "uint256"
        }
      ],
      "stateMutability": "view",
      "type": "function"
    },
    {
      "inputs": [
        {
          "internalType": "string",
          "name": "permitName",
          "type": "string"
        },
        {
          "internalType": "address",
          "name": "account",
          "type": "address"
        }
      ],
      "name": "hasPermit",
      "outputs": [
        {
          "internalType": "bool",
          "name": "",
          "type": "bool"
        }
      ],
      "stateMutability": "view",
      "type": "function"
    },
    {
      "inputs": [
        {
          "internalType": "uint256",
          "name": "referendum",
          "type": "uint256"
        },
        {
          "internalType": "address",
          "name": "account",
          "type": "address"
        }
      ],
      "name": "hasVoted",
      "outputs": [
        {
          "internalType": "bool",
          "name": "",
          "type": "bool"
        }
      ],
      "stateMutability": "view",
      "type": "function"
    },
    {
      "inputs": [
        {
          "internalType": "uint256",
          "name": "referendum",
          "type": "uint256"
        },
        {
          "internalType": "uint256",
          "name": "proposalIndex",
          "type": "uint256"
        }
      ],
      "name": "implementProposal",
      "outputs": [],
      "stateMutability": "nonpayable",
      "type": "function"
    },
    {
      "inputs": [
        {
          "internalType": "uint256",
          "name": "",
          "type": "uint256"
        }
      ],
      "name": "infoByReferendum",
      "outputs": [
        {
          "internalType": "address",
          "name": "issuer",
          "type": "address"
        }
      ],
      "stateMutability": "view",
      "type": "function"
    },
    {
      "inputs": [
        {
          "internalType": "bytes32",
          "name": "",
          "type": "bytes32"
        }
      ],
      "name": "infoByShard",
      "outputs": [
        {
          "internalType": "uint256",
          "name": "amount",
          "type": "uint256"
        },
        {
          "internalType": "address",
          "name": "owner",
          "type": "address"
        },
        {
          "internalType": "uint256",
          "name": "creationClock",
          "type": "uint256"
        }
      ],
      "stateMutability": "view",
      "type": "function"
    },
    {
      "inputs": [
        {
          "internalType": "string",
          "name": "bankName",
          "type": "string"
        },
        {
          "internalType": "address",
          "name": "account",
          "type": "address"
        }
      ],
      "name": "isBankAdmin",
      "outputs": [
        {
          "internalType": "bool",
          "name": "",
          "type": "bool"
        }
      ],
      "stateMutability": "view",
      "type": "function"
    },
    {
      "inputs": [
        {
          "internalType": "string",
          "name": "permitName",
          "type": "string"
        },
        {
          "internalType": "address",
          "name": "account",
          "type": "address"
        }
      ],
      "name": "isPermitAdmin",
      "outputs": [
        {
          "internalType": "bool",
          "name": "",
          "type": "bool"
        }
      ],
      "stateMutability": "view",
      "type": "function"
    },
    {
      "inputs": [
        {
          "internalType": "address",
          "name": "account",
          "type": "address"
        }
      ],
      "name": "isShardHolder",
      "outputs": [
        {
          "internalType": "bool",
          "name": "",
          "type": "bool"
        }
      ],
      "stateMutability": "view",
      "type": "function"
    },
    {
      "inputs": [],
      "name": "isTerminated",
      "outputs": [
        {
          "internalType": "bool",
          "name": "",
          "type": "bool"
        }
      ],
      "stateMutability": "view",
      "type": "function"
    },
    {
      "inputs": [
        {
          "internalType": "bytes32",
          "name": "shard",
          "type": "bytes32"
        }
      ],
      "name": "isValidShard",
      "outputs": [
        {
          "internalType": "bool",
          "name": "",
          "type": "bool"
        }
      ],
      "stateMutability": "view",
      "type": "function"
    },
    {
      "inputs": [
        {
          "internalType": "string",
          "name": "bankName",
          "type": "string"
        },
        {
          "internalType": "address",
          "name": "tokenAddress",
          "type": "address"
        },
        {
          "internalType": "uint256",
          "name": "value",
          "type": "uint256"
        }
      ],
      "name": "issueDividend",
      "outputs": [],
      "stateMutability": "nonpayable",
      "type": "function"
    },
    {
      "inputs": [
        {
          "internalType": "string[]",
          "name": "proposalFuncs",
          "type": "string[]"
        },
        {
          "internalType": "bytes[]",
          "name": "proposalArgs",
          "type": "bytes[]"
        }
      ],
      "name": "issueReferendum",
      "outputs": [],
      "stateMutability": "nonpayable",
      "type": "function"
    },
    {
      "inputs": [
        {
          "internalType": "uint256",
          "name": "amount",
          "type": "uint256"
        },
        {
          "internalType": "address",
          "name": "tokenAddress",
          "type": "address"
        },
        {
          "internalType": "uint256",
          "name": "price",
          "type": "uint256"
        },
        {
          "internalType": "address",
          "name": "to",
          "type": "address"
        }
      ],
      "name": "issueShards",
      "outputs": [],
      "stateMutability": "nonpayable",
      "type": "function"
    },
    {
      "inputs": [
        {
          "internalType": "address",
          "name": "",
          "type": "address"
        }
      ],
      "name": "liquid",
      "outputs": [
        {
          "internalType": "uint256",
          "name": "",
          "type": "uint256"
        }
      ],
      "stateMutability": "view",
      "type": "function"
    },
    {
      "inputs": [],
      "name": "liquidize",
      "outputs": [],
      "stateMutability": "nonpayable",
      "type": "function"
    },
    {
      "inputs": [
        {
          "internalType": "string",
          "name": "fromBankName",
          "type": "string"
        },
        {
          "internalType": "string",
          "name": "toBankName",
          "type": "string"
        },
        {
          "internalType": "address",
          "name": "tokenAddress",
          "type": "address"
        },
        {
          "internalType": "uint256",
          "name": "value",
          "type": "uint256"
        }
      ],
      "name": "moveToken",
      "outputs": [],
      "stateMutability": "nonpayable",
      "type": "function"
    },
    {
      "inputs": [
        {
          "internalType": "uint256",
          "name": "referendum",
          "type": "uint256"
        },
        {
          "internalType": "uint256",
          "name": "proposalIndex",
          "type": "uint256"
        }
      ],
      "name": "proposalExists",
      "outputs": [
        {
          "internalType": "bool",
          "name": "",
          "type": "bool"
        }
      ],
      "stateMutability": "view",
      "type": "function"
    },
    {
      "inputs": [
        {
          "internalType": "bytes32",
          "name": "shard",
          "type": "bytes32"
        },
        {
          "internalType": "uint256",
          "name": "amount",
          "type": "uint256"
        },
        {
          "internalType": "uint256",
          "name": "price",
          "type": "uint256"
        }
      ],
      "name": "purchase",
      "outputs": [],
      "stateMutability": "payable",
      "type": "function"
    },
    {
      "inputs": [
        {
          "internalType": "bytes32",
          "name": "shard",
          "type": "bytes32"
        },
        {
          "internalType": "uint256",
          "name": "amount",
          "type": "uint256"
        },
        {
          "internalType": "address",
          "name": "tokenAddress",
          "type": "address"
        },
        {
          "internalType": "uint256",
          "name": "price",
          "type": "uint256"
        },
        {
          "internalType": "address",
          "name": "to",
          "type": "address"
        }
      ],
      "name": "putForSale",
      "outputs": [],
      "stateMutability": "nonpayable",
      "type": "function"
    },
    {
      "inputs": [
        {
          "internalType": "string",
          "name": "bankName",
          "type": "string"
        },
        {
          "internalType": "address",
          "name": "tokenAddress",
          "type": "address"
        },
        {
          "internalType": "uint256",
          "name": "value",
          "type": "uint256"
        }
      ],
      "name": "receiveToken",
      "outputs": [],
      "stateMutability": "nonpayable",
      "type": "function"
    },
    {
      "inputs": [
        {
          "internalType": "uint256",
          "name": "referendum",
          "type": "uint256"
        }
      ],
      "name": "referendumIsImplemented",
      "outputs": [
        {
          "internalType": "bool",
          "name": "",
          "type": "bool"
        }
      ],
      "stateMutability": "view",
      "type": "function"
    },
    {
      "inputs": [
        {
          "internalType": "uint256",
          "name": "referendum",
          "type": "uint256"
        }
      ],
      "name": "referendumIsPassed",
      "outputs": [
        {
          "internalType": "bool",
          "name": "",
          "type": "bool"
        }
      ],
      "stateMutability": "view",
      "type": "function"
    },
    {
      "inputs": [
        {
          "internalType": "uint256",
          "name": "referendum",
          "type": "uint256"
        }
      ],
      "name": "referendumIsPending",
      "outputs": [
        {
          "internalType": "bool",
          "name": "",
          "type": "bool"
        }
      ],
      "stateMutability": "view",
      "type": "function"
    },
    {
      "inputs": [
        {
          "internalType": "address",
          "name": "tokenAddress",
          "type": "address"
        }
      ],
      "name": "registerTokenAddress",
      "outputs": [],
      "stateMutability": "nonpayable",
      "type": "function"
    },
    {
      "inputs": [
        {
          "internalType": "string",
          "name": "bankName",
          "type": "string"
        },
        {
          "internalType": "address",
          "name": "bankAdmin",
          "type": "address"
        }
      ],
      "name": "removeBankAdmin",
      "outputs": [],
      "stateMutability": "nonpayable",
      "type": "function"
    },
    {
      "inputs": [
        {
          "internalType": "string",
          "name": "permitName",
          "type": "string"
        },
        {
          "internalType": "address",
          "name": "account",
          "type": "address"
        },
        {
          "internalType": "enum Administrable.PermitState",
          "name": "newState",
          "type": "uint8"
        }
      ],
      "name": "setPermit",
      "outputs": [],
      "stateMutability": "nonpayable",
      "type": "function"
    },
    {
      "inputs": [
        {
          "internalType": "address",
          "name": "",
          "type": "address"
        }
      ],
      "name": "shardByOwner",
      "outputs": [
        {
          "internalType": "bytes32",
          "name": "",
          "type": "bytes32"
        }
      ],
      "stateMutability": "view",
      "type": "function"
    },
    {
      "inputs": [
        {
          "internalType": "bytes32",
          "name": "shard",
          "type": "bytes32"
        },
        {
          "internalType": "uint256",
          "name": "atClock",
          "type": "uint256"
        }
      ],
      "name": "shardExisted",
      "outputs": [
        {
          "internalType": "bool",
          "name": "",
          "type": "bool"
        }
      ],
      "stateMutability": "view",
      "type": "function"
    },
    {
      "inputs": [
        {
          "internalType": "bytes32",
          "name": "senderShard",
          "type": "bytes32"
        },
        {
          "internalType": "uint256",
          "name": "amount",
          "type": "uint256"
        },
        {
          "internalType": "address",
          "name": "to",
          "type": "address"
        }
      ],
      "name": "split",
      "outputs": [],
      "stateMutability": "nonpayable",
      "type": "function"
    },
    {
      "inputs": [
        {
          "internalType": "uint256",
          "name": "",
          "type": "uint256"
        }
      ],
      "name": "totalShardAmountByClock",
      "outputs": [
        {
          "internalType": "uint256",
          "name": "",
          "type": "uint256"
        }
      ],
      "stateMutability": "view",
      "type": "function"
    },
    {
      "inputs": [
        {
          "internalType": "string",
          "name": "fromBankName",
          "type": "string"
        },
        {
          "internalType": "address",
          "name": "tokenAddress",
          "type": "address"
        },
        {
          "internalType": "uint256",
          "name": "value",
          "type": "uint256"
        },
        {
          "internalType": "address",
          "name": "to",
          "type": "address"
        },
        {
          "internalType": "string",
          "name": "toBankName",
          "type": "string"
        }
      ],
      "name": "transferTokenFromBank",
      "outputs": [],
      "stateMutability": "nonpayable",
      "type": "function"
    },
    {
      "inputs": [
        {
          "internalType": "address",
          "name": "tokenAddress",
          "type": "address"
        }
      ],
      "name": "unregisterTokenAddress",
      "outputs": [],
      "stateMutability": "nonpayable",
      "type": "function"
    },
    {
      "inputs": [
        {
          "internalType": "bytes32",
          "name": "shard",
          "type": "bytes32"
        },
        {
          "internalType": "uint256",
          "name": "referendum",
          "type": "uint256"
        },
        {
          "internalType": "bool",
          "name": "favor",
          "type": "bool"
        }
      ],
      "name": "vote",
      "outputs": [],
      "stateMutability": "nonpayable",
      "type": "function"
    },
    {
      "stateMutability": "payable",
      "type": "receive"
    }
  ],
  "bytecode": "6080604052600080553480156200001557600080fd5b50604051620066a5380380620066a5833981016040819052620000389162000592565b8080806200004981336000620001c6565b600080548152600260209081526040808320939093556001805460ff191681179055825190810190925281526200008291503362000336565b620000b060405180604001604052806002815260200161695360f01b8152503360026200047860201b60201c565b620000de604051806040016040528060028152602001611b5160f21b8152503360026200047860201b60201c565b6200010c6040518060400160405280600281526020016136a160f11b8152503360026200047860201b60201c565b6200013a604051806040016040528060028152602001616c4560f01b8152503360026200047860201b60201c565b6040805180820190915260038152621b505560ea1b6020820152620001629033600262000478565b50620001916040518060400160405280600281526020016134a960f11b8152503360026200047860201b60201c565b620001bf60405180604001604052806002815260200161069560f41b8152503360026200047860201b60201c565b506200074e565b60008311620002015760405162461bcd60e51b815260206004820152600260248201526129ad60f11b60448201526064015b60405180910390fd5b6000805b6040516001600160601b0319606086901b166020820152603481018490526054810183905260740160408051601f198184030181529181528151602092830120600081815260039093529120600101549091506001600160a01b0316156200027c57816200027381620005ac565b92505062000205565b6001600160a01b03848116600081815260046020908152604080832086905585835260078252808320600019905580516060810182528a81528083019485528082018981528785526003845293829020905181559351600180860180546001600160a01b0319169290971691909117909555915160029093019290925580519283529082018390527f12769fd465856c3651942a04374f21755b56a66422aaed87c7e56e936f6dd3d0910160405180910390a15050505050565b6001805460ff16151514620003735760405162461bcd60e51b8152602060048201526002602482015261115360f21b6044820152606401620001f8565b6200037e8262000560565b15620003b25760405162461bcd60e51b8152602060048201526002602482015261414560f01b6044820152606401620001f8565b6001601083604051620003c69190620005fa565b90815260408051602092819003830181206001600160a01b038616600090815293529120805460ff191692151592909217909155600190600d906200040d908590620005fa565b90815260405160209181900382018120805460ff19169315159390931790925560008051602062006685833981519152916200044e91859185910162000646565b60408051601f19818403018152908290526200046c91339062000672565b60405180910390a15050565b6001805460ff16151514620004b55760405162461bcd60e51b8152602060048201526002602482015261115360f21b6044820152606401620001f8565b80601184604051620004c89190620005fa565b90815260408051602092819003830190206001600160a01b038616600090815292529020805460ff19166001836002811115620005095762000509620006b7565b0217905550600080516020620066858339815191528383836040516020016200053593929190620006cd565b60408051601f19818403018152908290526200055391339062000720565b60405180910390a1505050565b6000600d82604051620005749190620005fa565b9081526040519081900360200190205460ff16151560011492915050565b600060208284031215620005a557600080fd5b5051919050565b600060018201620005cd57634e487b7160e01b600052601160045260246000fd5b5060010190565b60005b83811015620005f1578181015183820152602001620005d7565b50506000910152565b600082516200060e818460208701620005d4565b9190910192915050565b6000815180845262000632816020860160208601620005d4565b601f01601f19169290920160200192915050565b6040815260006200065b604083018562000618565b905060018060a01b03831660208301529392505050565b60608152600260608201526131a160f11b608082015260a060208201526000620006a060a083018562000618565b905060018060a01b03831660408301529392505050565b634e487b7160e01b600052602160045260246000fd5b606081526000620006e2606083018662000618565b6001600160a01b03851660208401529050600383106200071257634e487b7160e01b600052602160045260246000fd5b826040830152949350505050565b606081526002606082015261073560f41b608082015260a060208201526000620006a060a083018562000618565b615f27806200075e6000396000f3fe6080604052600436106103545760003560e01c80637fb6679d116101c6578063b35ca4f3116100f7578063db5dc9b711610095578063eadb97081161006f578063eadb970814610b4d578063efae89f814610b7f578063f7aae62114610bac578063fd06636b14610bcc57600080fd5b8063db5dc9b714610ae0578063e1c34c1f14610b00578063e6778fce14610b2057600080fd5b8063c4802eb2116100d1578063c4802eb214610a4e578063c5438a5514610a7b578063c8c56af014610a9b578063d1cc997614610acb57600080fd5b8063b35ca4f314610996578063b4af7d59146109c6578063bcedb2e0146109e657600080fd5b8063a1916aef11610164578063a902780f1161013e578063a902780f1461092e578063a907b6c514610943578063ab2d662b14610963578063b2cb78ab1461097657600080fd5b8063a1916aef146108b8578063a343c535146108d8578063a80aed761461090e57600080fd5b80638786df6a116101a05780638786df6a146108185780639211b7b31461083857806397890db9146108685780639995b9a91461088857600080fd5b80637fb6679d146107b8578063859d9fd5146107d8578063868399a5146107f857600080fd5b8063354cd135116102a05780634c46360b1161023e57806363879c0b1161021857806363879c0b1461070b57806364e5378f1461072b5780636d36e209146107685780637b7854931461078857600080fd5b80634c46360b146106605780635beeff331461069057806362748dcc146106bd57600080fd5b80633baf28f81161027a5780633baf28f81461059a5780633c06df46146105ba5780633dbeaa54146105da578063438596321461061057600080fd5b8063354cd1351461053a5780633601f0621461055a578063384fe2b51461057a57600080fd5b8063236566421161030d5780632dec7cd2116102e75780632dec7cd2146104ba5780632ef37926146104da5780632f2e9a2a146104fa578063350546d81461051a57600080fd5b8063236566421461045a578063258e4d9f1461047a5780632c729fd11461049a57600080fd5b806302fb0c5e1461037b57806305c558f5146103aa578063066792d2146103bf5780630bea8985146103fa5780630d3330a11461041a578063169936b41461043a57600080fd5b366103765761037460405180602001604052806000815250600034610bec565b005b600080fd5b34801561038757600080fd5b506001546103959060ff1681565b60405190151581526020015b60405180910390f35b3480156103b657600080fd5b50610374610d9f565b3480156103cb57600080fd5b506103ec6103da366004614bca565b60026020526000908152604090205481565b6040519081526020016103a1565b34801561040657600080fd5b50610374610415366004614bca565b610dd8565b34801561042657600080fd5b50610374610435366004614bf8565b610eae565b34801561044657600080fd5b50610395610455366004614ce0565b610f9e565b34801561046657600080fd5b50610374610475366004614bca565b610ffc565b34801561048657600080fd5b50610395610495366004614d1c565b611037565b3480156104a657600080fd5b506103746104b5366004614d7b565b61108c565b3480156104c657600080fd5b506103ec6104d5366004614d1c565b611318565b3480156104e657600080fd5b506103746104f5366004614d1c565b611359565b34801561050657600080fd5b50610374610515366004614d1c565b6113b7565b34801561052657600080fd5b50610374610535366004614bf8565b611409565b34801561054657600080fd5b50610374610555366004614db4565b6115c8565b34801561056657600080fd5b50610374610575366004614e98565b61180b565b34801561058657600080fd5b50610374610595366004614ce0565b611843565b3480156105a657600080fd5b506103746105b5366004614f6b565b61188e565b3480156105c657600080fd5b506103746105d5366004614db4565b6118cf565b3480156105e657600080fd5b506103ec6105f5366004614bf8565b6001600160a01b03166000908152600b602052604090205490565b34801561061c57600080fd5b5061039561062b366004614fb5565b6000918252601a602090815260408084206001600160a01b039390931684526004825280842054845291905290205460ff1690565b34801561066c57600080fd5b506103ec61067b366004614bca565b60009081526013602052604090206001015490565b34801561069c57600080fd5b506103ec6106ab366004614bf8565b60096020526000908152604090205481565b3480156106c957600080fd5b506106f36106d8366004614bca565b6000908152601360205260409020546001600160a01b031690565b6040516001600160a01b0390911681526020016103a1565b34801561071757600080fd5b50610374610726366004614fda565b611907565b34801561073757600080fd5b50610395610746366004614bca565b6000908152601660209081526040808320600101546019909252909120541490565b34801561077457600080fd5b50610374610783366004615033565b611954565b34801561079457600080fd5b506103ec6107a3366004614bca565b60009081526006602052604090206001015490565b3480156107c457600080fd5b506103746107d3366004614fda565b611975565b3480156107e457600080fd5b506103746107f3366004614bf8565b611980565b34801561080457600080fd5b50610395610813366004614bf8565b6119de565b34801561082457600080fd5b50610374610833366004614bf8565b611a13565b34801561084457600080fd5b50610395610853366004614bca565b60009081526012602052604090205460ff1690565b34801561087457600080fd5b50610395610883366004614bca565b611a71565b34801561089457600080fd5b506103956108a3366004614bca565b60008054918152600760205260409020541190565b3480156108c457600080fd5b506103746108d33660046150c9565b611ab8565b3480156108e457600080fd5b506106f36108f3366004614bca565b6016602052600090815260409020546001600160a01b031681565b34801561091a57600080fd5b50610395610929366004614d1c565b611ad8565b34801561093a57600080fd5b506000546103ec565b34801561094f57600080fd5b5061037461095e366004614d1c565b611b4a565b610374610971366004615146565b611b96565b34801561098257600080fd5b50610374610991366004615172565b6121fb565b3480156109a257600080fd5b506103956109b1366004614bca565b6000908152601c602052604090205460ff1690565b3480156109d257600080fd5b506103956109e1366004614ce0565b612277565b3480156109f257600080fd5b50610a2b610a01366004614bca565b60036020526000908152604090208054600182015460029092015490916001600160a01b03169083565b604080519384526001600160a01b039092166020840152908201526060016103a1565b348015610a5a57600080fd5b506103ec610a69366004614bf8565b60046020526000908152604090205481565b348015610a8757600080fd5b50610374610a963660046151ad565b6122a7565b348015610aa757600080fd5b50610395610ab6366004614bca565b6000908152601b602052604090205460ff1690565b348015610ad757600080fd5b50610395612354565b348015610aec57600080fd5b50610395610afb366004614d1c565b61237e565b348015610b0c57600080fd5b50610395610b1b366004614bf8565b6123d4565b348015610b2c57600080fd5b506103ec610b3b366004614bca565b60009081526014602052604090205490565b348015610b5957600080fd5b50610395610b68366004614db4565b600091825260166020526040909120600101541190565b348015610b8b57600080fd5b506103ec610b9a366004614bca565b60009081526007602052604090205490565b348015610bb857600080fd5b50610374610bc7366004615205565b612406565b348015610bd857600080fd5b50610395610be7366004614db4565b61248d565b82610bf681612277565b610c1b5760405162461bcd60e51b8152600401610c129061525b565b60405180910390fd5b6001600160a01b03831660009081526009602052604081208054849290610c4390849061528e565b90915550506001600160a01b0383166000908152600b602052604081208054849290610c7090849061528e565b9091555050604051600f90610c869086906152c5565b90815260408051602092819003830190206001600160a01b03861660009081529252902054158015610cc057506001600160a01b03831615155b15610cfa576001600e85604051610cd791906152c5565b90815260200160405180910390206000828254610cf4919061528e565b90915550505b81600f85604051610d0b91906152c5565b90815260200160405180910390206000856001600160a01b03166001600160a01b031681526020019081526020016000206000828254610d4b919061528e565b9091555050604051600080516020615ed283398151915290610d759086908690869060200161530d565b60408051601f1981840301815290829052610d9191339061533b565b60405180910390a150505050565b604051806040016040528060028152602001616c4560f01b815250610dc4813361237e565b610dcd57600080fd5b610dd56124be565b50565b60008181526003602052604090206001015481906001600160a01b03163314610e135760405162461bcd60e51b8152600401610c129061537e565b81610e2d8160008054918152600760205260409020541190565b610e495760405162461bcd60e51b8152600401610c129061539a565b600160008481526005602052604090205460ff166002811115610e6e57610e6e6153b6565b14610ea05760405162461bcd60e51b81526020600482015260026024820152614e5360f01b6044820152606401610c12565b610ea983612510565b505050565b610eb6612354565b610ee75760405162461bcd60e51b81526020600482015260026024820152610ae960f31b6044820152606401610c12565b6001600160a01b0381166000908152600b6020526040902054610f305760405162461bcd60e51b81526020600482015260016024820152604560f81b6044820152606401610c12565b610f8481600b6000846001600160a01b03166001600160a01b03168152602001908152602001600020547349a71890aea5a751e30e740c504f2e9683f347bc604051806020016040528060008152506125ba565b6001600160a01b03166000908152600b6020526040812055565b6000600e82604051610fb091906152c5565b9081526020016040518091039020546000148015610ff65750600f82604051610fd991906152c5565b908152604080516020928190038301902060008080529252902054155b92915050565b604051806040016040528060028152602001611b5160f21b815250611021813361237e565b61102a57600080fd5b61103382612848565b5050565b6000600260118460405161104b91906152c5565b90815260408051602092819003830190206001600160a01b0386166000908152925290205460ff166002811115611084576110846153b6565b149392505050565b60008381526003602052604090206001015483906001600160a01b031633146110c75760405162461bcd60e51b8152600401610c129061537e565b6000838152601b6020526040902054839060ff1661110d5760405162461bcd60e51b81526020600482015260036024820152620524e560ec1b6044820152606401610c12565b6001805460ff161515146111335760405162461bcd60e51b8152600401610c12906153cc565b6000848152601a602090815260408083203384526004835281842054845290915290205460ff161561116457600080fd5b61116e858561248d565b6111a05760405162461bcd60e51b815260206004820152600360248201526229a72b60e91b6044820152606401610c12565b6000848152601a602090815260408083208884529091529020805460ff1916600117905582156111fd57600085815260036020908152604080832054878452601790925282208054919290916111f790849061528e565b90915550505b6000858152600360209081526040808320548784526018909252822080549192909161122a90849061528e565b9091555050604080518581528415156020820152338183015290517f4a341f5494c396c29c9e30033ec7900b3b51340ac726dc58726e583ea2aceeb29181900360600190a1600061127a85611a71565b905080806112a05750600085815260026020908152604080832054601890925290912054145b15611310576000858152601b60205260409020805460ff1916905580156112db576000858152601c60205260409020805460ff191660011790555b6040518581527fb7af3044d10dc1be59f482d5c460c7c711f80137a36184cdf4f49d973e95acb1906020015b60405180910390a15b505050505050565b6000600f8360405161132a91906152c5565b908152604080519182900360209081019092206001600160a01b03851660009081529252902054905092915050565b6040518060400160405280600281526020016136a160f11b81525061137e813361237e565b61138757600080fd5b6001805460ff161515146113ad5760405162461bcd60e51b8152600401610c12906153cc565b610ea98383612933565b6040518060400160405280600281526020016136a160f11b8152506113dc8133611037565b6113e557600080fd5b826113f08133611ad8565b6113f957600080fd5b6114038484612a45565b50505050565b611412336123d4565b6114435760405162461bcd60e51b81526020600482015260026024820152610aa960f31b6044820152606401610c12565b60015460ff161561147b5760405162461bcd60e51b8152602060048201526002602482015261534160f01b6044820152606401610c12565b336000908152600460209081526040808320546001600160a01b0385168452600c83528184208185529092529091205460ff16156114e05760405162461bcd60e51b8152602060048201526002602482015261414360f01b6044820152606401610c12565b6001600160a01b0382166000818152600c602090815260408083208584528252808320805460ff19166001179055825483526002825280832054858452600383528184205494845260099092528220549192909161153e91906153e8565b61154891906153ff565b90508060000361157e5760405162461bcd60e51b81526020600482015260016024820152604560f81b6044820152606401610c12565b6001600160a01b0383166000908152600b6020526040812080548392906115a6908490615421565b92505081905550610ea9838233604051806020016040528060008152506125ba565b60008281526003602052604090206001015482906001600160a01b031633146116035760405162461bcd60e51b8152600401610c129061537e565b600082815260126020526040902054829060ff1661162057600080fd5b6001805460ff161515146116465760405162461bcd60e51b8152600401610c12906153cc565b611650848461248d565b6116825760405162461bcd60e51b81526020600482015260036024820152622720a360e91b6044820152606401610c12565b600083815260156020908152604080832087845290915290205460ff16156116d15760405162461bcd60e51b8152602060048201526002602482015261414360f01b6044820152606401610c12565b60008381526015602090815260408083208784528252808320805460ff191660019081179091558354845260028352818420548885526003845282852054888652601390945291842001549091611727916153e8565b61173191906153ff565b9050806000036117695760405162461bcd60e51b815260206004820152600360248201526244545360e81b6044820152606401610c12565b60008481526014602052604081208054839290611787908490615421565b909155505060008481526013602090815260408083205481519283019091529181526117c0916001600160a01b031690839033906125ba565b604080518581526020810183905233918101919091527f67dd3d116bf53e0ddda53bb148a5fdc129854e1c507c0eeda9190049a9bbc84f906060015b60405180910390a15050505050565b6040518060400160405280600281526020016134a960f11b815250611830813361237e565b61183957600080fd5b610ea98383612b01565b6040518060400160405280600281526020016136a160f11b8152506118688133611037565b61187157600080fd5b8161187c8133611ad8565b61188557600080fd5b610ea983612c8a565b60405180604001604052806002815260200161695360f01b8152506118b3813361237e565b6118bc57600080fd5b6118c885858585612e0f565b5050505050565b60405180604001604052806002815260200161069560f41b8152506118f4813361237e565b6118fd57600080fd5b610ea98383612e76565b604051806040016040528060028152602001611b5160f21b81525061192c813361237e565b61193557600080fd5b836119408133611ad8565b61194957600080fd5b6118c8858585613740565b8461195f8133611ad8565b61196857600080fd5b6113108686868686613969565b610ea98383836139fc565b604051806040016040528060038152602001621b505560ea1b8152506119a6813361237e565b6119af57600080fd5b6001805460ff161515146119d55760405162461bcd60e51b8152600401610c12906153cc565b61103382613b8a565b6001600160a01b03811660009081526008602052604081205460ff16151560011480610ff65750506001600160a01b03161590565b604051806040016040528060038152602001621b505560ea1b815250611a39813361237e565b611a4257600080fd5b6001805460ff16151514611a685760405162461bcd60e51b8152600401610c12906153cc565b61103382613bd3565b6000818152600260209081526040808320546017909252822054600191611a97916153ff565b611aa29060026153e8565b1115611ab057506001919050565b506000919050565b83611ac38133611ad8565b611acc57600080fd5b6118c885858585613c1c565b6000601083604051611aea91906152c5565b908152604080519182900360209081019092206001600160a01b0385166000908152925290205460ff16151560011480611b435750611b436040518060400160405280600281526020016136a160f11b81525083611037565b9392505050565b6040518060400160405280600281526020016136a160f11b815250611b6f813361237e565b611b7857600080fd5b82611b838133611ad8565b611b8c57600080fd5b6114038484613ec0565b82611bb08160008054918152600760205260409020541190565b611bcc5760405162461bcd60e51b8152600401610c129061539a565b600160008581526005602052604090205460ff166002811115611bf157611bf16153b6565b14611c235760405162461bcd60e51b81526020600482015260026024820152614e5360f01b6044820152606401610c12565b6000848152600660205260409020600101548214611c685760405162461bcd60e51b8152602060048201526002602482015261057560f41b6044820152606401610c12565b82600003611c9d5760405162461bcd60e51b8152602060048201526002602482015261455360f01b6044820152606401610c12565b600084815260066020526040902054831115611ce05760405162461bcd60e51b8152602060048201526002602482015261455360f01b6044820152606401610c12565b6000848152600660205260409020600301546001600160a01b0316331480611d2057506000848152600660205260409020600301546001600160a01b0316155b611d515760405162461bcd60e51b815260206004820152600260248201526129a960f11b6044820152606401610c12565b6000848152600560209081526040808320805460ff191660021790556006909152812060010154611d8290856153e8565b90506000806000611d978460196103e8613fbe565b91945092509050611da8818361528e565b6000898152600660205260409020600201549092506001600160a01b0316611f075783341015611dff5760405162461bcd60e51b8152602060048201526002602482015261494560f01b6044820152606401610c12565b6040516000907349a71890aea5a751e30e740c504f2e9683f347bc9085908381818185875af1925050503d8060008114611e55576040519150601f19603f3d011682016040523d82523d6000602084013e611e5a565b606091505b505060008a81526003602052604080822060010154905192935090916001600160a01b039091169085908381818185875af1925050503d8060008114611ebc576040519150601f19603f3d011682016040523d82523d6000602084013e611ec1565b606091505b50509050808015611ecf5750815b611f005760405162461bcd60e51b81526020600482015260026024820152612a2360f11b6044820152606401610c12565b505061208c565b60008881526006602052604090819020600201549051636eb1769f60e11b81523360048201523060248201526001600160a01b03909116908590829063dd62ed3e90604401602060405180830381865afa158015611f69573d6000803e3d6000fd5b505050506040513d601f19601f82011682018060405250810190611f8d9190615434565b1015611fab5760405162461bcd60e51b8152600401610c129061544d565b6040516323b872dd60e01b81523360048201527349a71890aea5a751e30e740c504f2e9683f347bc6024820152604481018590526001600160a01b038216906323b872dd906064016020604051808303816000875af1158015612012573d6000803e3d6000fd5b505050506040513d601f19601f820116820180604052508101906120369190615469565b6120525760405162461bcd60e51b8152600401610c1290615486565b60008981526003602090815260408083206001015460069092529091206002015461208a916001600160a01b03908116911685614032565b505b6120978888336140f1565b600088815260036020526040902060010154306001600160a01b03909116036120df5760008054815260026020526040812080548992906120d990849061528e565b90915550505b6040805160808101825288815260008a8152600660208181528483206001810154828601526002818101546001600160a01b0390811687890152948f90529290915260030154909116606083015291517fd8cd09ea93b4076ab867588c0d1a52b62c5b605b7a5f1c0189781245631a83539261215f9290918c91906154c0565b60405180910390a160008881526006602052604090205487146121f1576000888152600360209081526040808320600101546001600160a01b0316835260048252808320548b84526006909252909120546121f191906121c0908a90615421565b60008b8152600660205260409020600281015460018201546003909201546001600160a01b039182169291166142bf565b5050505050505050565b60008381526003602052604090206001015483906001600160a01b031633146122365760405162461bcd60e51b8152600401610c129061537e565b836122508160008054918152600760205260409020541190565b61226c5760405162461bcd60e51b8152600401610c129061539a565b6118c88585856140f1565b6000600d8260405161228991906152c5565b9081526040519081900360200190205460ff16151560011492915050565b826122b28133611037565b6122bb57600080fd5b8160028111156122cd576122cd6153b6565b6011856040516122dd91906152c5565b90815260408051602092819003830190206001600160a01b0387166000908152925290205460ff166002811115612316576123166153b6565b036123495760405162461bcd60e51b815260206004820152600360248201526204148560ec1b6044820152606401610c12565b61140384848461444c565b60015460009060ff16158015612379575061012c600a54426123769190615421565b10155b905090565b6000600160118460405161239291906152c5565b90815260408051602092819003830190206001600160a01b0386166000908152925290205460ff1660028111156123cb576123cb6153b6565b10159392505050565b6001600160a01b038116600090815260046020526040812054610ff69060008054918152600760205260409020541190565b60008581526003602052604090206001015485906001600160a01b031633146124415760405162461bcd60e51b8152600401610c129061537e565b8561245b8160008054918152600760205260409020541190565b6124775760405162461bcd60e51b8152600401610c129061539a565b61248487878787876142bf565b50505050505050565b6000828152600360205260408120600201548210801590611b43575050600091825260076020526040909120541190565b6124c6614513565b604080516060808252600290820152616c4560f01b608082015260a06020820181905260009082015233818301529051600080516020615ed28339815191529181900360c00190a1565b8061252a8160008054918152600760205260409020541190565b6125465760405162461bcd60e51b8152600401610c129061539a565b6000828152600560209081526040808320805460ff19169055805160808101825283815291820183905281810183905260608201839052517fd8cd09ea93b4076ab867588c0d1a52b62c5b605b7a5f1c0189781245631a8353926125ae9290918691906154c0565b60405180910390a15050565b6001600160a01b0384166000908152600960205260409020548311156125f25760405162461bcd60e51b8152600401610c129061544d565b6001600160a01b03841661260f5761260a8383614549565b611403565b60405163095ea7b360e01b81526001600160a01b0383811660048301526024820185905285919082169063095ea7b3906044016020604051808303816000875af1158015612661573d6000803e3d6000fd5b505050506040513d601f19601f820116820180604052508101906126859190615469565b6126b65760405162461bcd60e51b81526020600482015260026024820152614e4160f01b6044820152606401610c12565b6001600160a01b0383163b156127b957604051637fb6679d60e01b81526001600160a01b03841690637fb6679d906126f69085908990899060040161530d565b600060405180830381600087803b15801561271057600080fd5b505af1925050508015612721575060015b6127b45760405163a9059cbb60e01b81526001600160a01b0384811660048301526024820186905282169063a9059cbb906044016020604051808303816000875af1158015612774573d6000803e3d6000fd5b505050506040513d601f19601f820116820180604052508101906127989190615469565b6127b45760405162461bcd60e51b8152600401610c1290615486565b6118c8565b60405163a9059cbb60e01b81526001600160a01b0384811660048301526024820186905282169063a9059cbb906044016020604051808303816000875af1158015612808573d6000803e3d6000fd5b505050506040513d601f19601f8201168201806040525081019061282c9190615469565b6118c85760405162461bcd60e51b8152600401610c1290615486565b600081815260126020526040902054819060ff1661286557600080fd5b6001805460ff1615151461288b5760405162461bcd60e51b8152600401610c12906153cc565b6000828152601260209081526040808320805460ff19169055601482528083205481516336b0b4b760e11b8152600f6004820152825190819003602401902086855260138452828520546001600160a01b0316855290925282208054919290916128f690849061528e565b90915550506040805160208101849052600080516020615ed2833981519152910160408051601f19818403018152908290526125ae913390615511565b6001805460ff161515146129595760405162461bcd60e51b8152600401610c12906153cc565b61296282612277565b156129945760405162461bcd60e51b8152602060048201526002602482015261414560f01b6044820152606401610c12565b60016010836040516129a691906152c5565b90815260408051602092819003830181206001600160a01b038616600090815293529120805460ff191692151592909217909155600190600d906129eb9085906152c5565b90815260405160209181900382018120805460ff191693151593909317909255600080516020615ed283398151915291612a2991859185910161553d565b60408051601f19818403018152908290526125ae913390615567565b6001805460ff16151514612a6b5760405162461bcd60e51b8152600401610c12906153cc565b612a758282611ad8565b612a7e57600080fd5b6000601083604051612a9091906152c5565b90815260408051602092819003830181206001600160a01b038616600090815290845291909120805460ff191693151593909317909255600080516020615ed283398151915291612ae591859185910161553d565b60408051601f19818403018152908290526125ae913390615593565b6001805460ff16151514612b275760405162461bcd60e51b8152600401610c12906153cc565b8051825114612b5e5760405162461bcd60e51b815260206004820152600360248201526250435760e81b6044820152606401610c12565b600080548152601b602090815260408083208054600160ff1990911681179091558151606081018352338152808401878152818401879052855486526016855292909420845181546001600160a01b0319166001600160a01b03909116178155915180519293612bd49392850192910190614a9e565b5060408201518051612bf0916002840191602090910190614af4565b50905050600080516020615ed2833981519152600054604051602001612c1891815260200190565b60408051601f1981840301815290829052612c349133906155c0565b60405180910390a160008054808252600260208190526040832054929091612c5d90600161528e565b815260200190815260200160002081905550600080815480929190612c81906155ec565b91905055505050565b6001805460ff16151514612cb05760405162461bcd60e51b8152600401610c12906153cc565b612cb981612277565b612ceb5760405162461bcd60e51b815260206004820152600360248201526255422160e81b6044820152606401610c12565b60408051808201909152600481526336b0b4b760e11b6020918201528151908201207f471dfab0756edc981c75dd3188ccd700755407f7d3bedf452610f7a1e240d65901612d605760405162461bcd60e51b815260206004820152600260248201526126a160f11b6044820152606401610c12565b612d6981610f9e565b612d9a5760405162461bcd60e51b8152602060048201526002602482015261424560f01b6044820152606401610c12565b6000600d82604051612dac91906152c5565b90815260405160209181900382018120805460ff191693151593909317909255600080516020615ed283398151915291612de891849101615605565b60408051601f1981840301815290829052612e04913390615618565b60405180910390a150565b612e1b848484846145d1565b60408051602081018690526001600160a01b0380861692820192909252606081018490529082166080820152600080516020615ed28339815191529060a00160408051601f1981840301815290829052610d91913390615644565b6001805460ff16151514612e9c5760405162461bcd60e51b8152600401610c12906153cc565b6000828152601660205260409020600101548110612ee25760405162461bcd60e51b815260206004820152600360248201526250444560e81b6044820152606401610c12565b6000828152601960205260409020548114612f255760405162461bcd60e51b815260206004820152600360248201526257504f60e81b6044820152606401610c12565b6000828152601960205260408120805460019290612f4490849061528e565b90915550506000828152601660205260408120600101805483908110612f6c57612f6c615670565b906000526020600020018054612f8190615686565b80601f0160208091040260200160405190810160405280929190818152602001828054612fad90615686565b8015612ffa5780601f10612fcf57610100808354040283529160200191612ffa565b820191906000526020600020905b815481529060010190602001808311612fdd57829003601f168201915b50505050509050600060166000858152602001908152602001600020600201838154811061302a5761302a615670565b90600052602060002001805461303f90615686565b80601f016020809104026020016040519081016040528092919081815260200182805461306b90615686565b80156130b85780601f1061308d576101008083540402835291602001916130b8565b820191906000526020600020905b81548152906001019060200180831161309b57829003601f168201915b505050505090506000828051906020012090506040518060400160405280600281526020016134a960f11b81525080519060200120810361311b576000808380602001905181019061310a91906157a4565b915091506131188282612b01565b50505b604080518082019091526002815261073560f41b6020909101527ff1b1bbc74e4df8608497e5eed3180a4b18c6b574ff7c886247e917619e157587810161318a576000806000848060200190518101906131759190615870565b92509250925061318683828461444c565b5050505b6040805180820190915260028152611d1560f21b6020909101527f36ddd33e7a7f4736d675524b57ae6969fba9049312747b57679f33a51849c6b18101613204576000806000806000868060200190518101906131e791906158c9565b945094509450945094506131fe8585858585613969565b50505050505b6040805180820190915260028152611b5560f21b6020909101527f6f27458a75a197963a149d891ee01b4f59e7dfbcd1a8c7bc1095dc063775c5e98101613278576000806000808580602001905181019061325f9190615950565b935093509350935061327384848484613c1c565b505050505b6040805180820190915260028152611a5160f21b6020909101527f1cf0197aed3b237c637010856237afeb1ec5367fd4b836bf00f3bd32eef1ef7781016132e7576000806000848060200190518101906132d291906159cd565b9250925092506132e3838383613740565b5050505b604080518082019091526002815261695360f01b6020909101527f011302f5e4c5c3a196db2f07f09e2f91274031e3f83e172b68276385c26ac608810161335b57600080600080858060200190518101906133429190615a27565b935093509350935061335684848484612e0f565b505050505b604080518082019091526002815261191160f21b6020909101527fedd0ee4c0d87c45f9edc0b9ba6f7373336c241b06c885e00f23c1ab5ec82a74781016133bf576000828060200190518101906133b29190615434565b90506133bd81612848565b505b60408051808201909152600281526131a160f11b6020909101527f2108e84f920e4eee7d6ac9ef2abeb540a1d7f56715d474e0b06b236cf4e70312810161342857600080838060200190518101906134179190615a67565b915091506134258282612933565b50505b604080518082019091526002815261322160f11b6020909101527f46e76fb60cbfea5dc4e313412f858c830e50e6e875d17b0921db6456f8ac9cdb810161348c5760008280602001905181019061347f9190615aad565b905061348a81612c8a565b505b60408051808201909152600381526261424160e81b6020909101527f747edc76097bccd90f0d440c26b5930408266bbe117772d2c1d5b62a81070bd281016134f657600080838060200190518101906134e59190615a67565b915091506134f38282613ec0565b50505b60408051808201909152600381526272424160e81b6020909101527fe01588f2b7120b2685ead94790242f17d977e3d7967bb132b1110f04a44120a78101613560576000808380602001905181019061354f9190615a67565b9150915061355d8282612a45565b50505b60408051808201909152600381526272544160e81b6020909101527fe2347e35bd161f6471726760ee12a18a4bd894ec18d0e8149dabe9c97a20681981016135c5576000828060200190518101906135b89190615ae1565b90506135c381613bd3565b505b60408051808201909152600381526275544160e81b6020909101527fc2c2a7f0073a768c7bffc087093eceffd50955ad08a9ba26982dc60f1859eb80810161362a5760008280602001905181019061361d9190615ae1565b905061362881613b8a565b505b6040805180820190915260028152616c4560f01b6020909101527fdb51409824affaf893516504171b78835cb61ad014b6889940145b5796625f418101613678576136736124be565b6136a5565b60405162461bcd60e51b81526020600482015260026024820152612ba360f11b6044820152606401610c12565b6040805160208101879052908101859052600080516020615ed28339815191529060600160408051601f19818403018152908290526136e5913390615afe565b60405180910390a1600085815260166020908152604080832060010154601990925290912054036118c8576040518581527f8d0d26399c7b999f9067e92dcf5a21ebc7bf6cd77bd186e721e4dfc2654e7830906020016117fc565b6001805460ff161515146137665760405162461bcd60e51b8152600401610c12906153cc565b8261377081612277565b61378c5760405162461bcd60e51b8152600401610c129061525b565b600f8460405161379c91906152c5565b90815260408051602092819003830190206001600160a01b038616600090815292529020548211156137e05760405162461bcd60e51b8152600401610c1290615b2a565b81600f856040516137f191906152c5565b90815260200160405180910390206000856001600160a01b03166001600160a01b0316815260200190815260200160002060008282546138319190615421565b9091555050604051600f906138479086906152c5565b90815260408051602092819003830190206001600160a01b0386166000908152925290205415801561388157506001600160a01b03831615155b156138bb576001600e8560405161389891906152c5565b908152602001604051809103902060008282546138b59190615421565b90915550505b6040805180820182526001600160a01b038581168252602080830186815260008054815260138352858120945185546001600160a01b03191694169390931784555160019384015581548252601481528382208690558154825260128152838220805460ff1916909317909255549151600080516020615ed28339815191529261394d92909188918891889101615b46565b60408051601f1981840301815290829052610d91913390615b7b565b6001805460ff1615151461398f5760405162461bcd60e51b8152600401610c12906153cc565b600f8560405161399f91906152c5565b90815260408051602092819003830190206001600160a01b038716600090815292529020548311156139e35760405162461bcd60e51b8152600401610c1290615b2a565b6139ef848484846125ba565b6118c88585858585614650565b82613a0681612277565b613a225760405162461bcd60e51b8152600401610c129061525b565b613a2b836119de565b613a5c5760405162461bcd60e51b8152602060048201526002602482015261155560f21b6044820152606401610c12565b604051636eb1769f60e11b8152336004820152306024820152839083906001600160a01b0383169063dd62ed3e90604401602060405180830381865afa158015613aaa573d6000803e3d6000fd5b505050506040513d601f19601f82011682018060405250810190613ace9190615434565b1015613aec5760405162461bcd60e51b8152600401610c129061544d565b6040516323b872dd60e01b8152336004820152306024820152604481018490526001600160a01b038216906323b872dd906064016020604051808303816000875af1158015613b3f573d6000803e3d6000fd5b505050506040513d601f19601f82011682018060405250810190613b639190615469565b613b7f5760405162461bcd60e51b8152600401610c1290615486565b6118c8858585610bec565b613b93816147f1565b604080516001600160a01b0383166020820152600080516020615ed2833981519152910160408051601f1981840301815290829052612e04913390615ba7565b613bdc81614897565b604080516001600160a01b0383166020820152600080516020615ed2833981519152910160408051601f1981840301815290829052612e04913390615bd4565b83613c2681612277565b613c425760405162461bcd60e51b8152600401610c129061525b565b83613c4c81612277565b613c685760405162461bcd60e51b8152600401610c129061525b565b6001805460ff16151514613c8e5760405162461bcd60e51b8152600401610c12906153cc565b600f86604051613c9e91906152c5565b90815260408051602092819003830190206001600160a01b03871660009081529252902054831115613ce25760405162461bcd60e51b8152600401610c1290615b2a565b82600f87604051613cf391906152c5565b90815260200160405180910390206000866001600160a01b03166001600160a01b031681526020019081526020016000206000828254613d339190615421565b90915550506001600160a01b03841615613e2757600f86604051613d5791906152c5565b90815260408051602092819003830190206001600160a01b038716600090815292528120549003613db7576001600e87604051613d9491906152c5565b90815260200160405180910390206000828254613db19190615421565b90915550505b600f85604051613dc791906152c5565b90815260408051602092819003830190206001600160a01b038716600090815292528120549003613e27576001600e86604051613e0491906152c5565b90815260200160405180910390206000828254613e21919061528e565b90915550505b82600f86604051613e3891906152c5565b90815260200160405180910390206000866001600160a01b03166001600160a01b031681526020019081526020016000206000828254613e78919061528e565b9091555050604051600080516020615ed283398151915290613ea4908890889088908890602001615c01565b60408051601f1981840301815290829052611307913390615c43565b6001805460ff16151514613ee65760405162461bcd60e51b8152600401610c12906153cc565b613f0a6040518060400160405280600281526020016136a160f11b8152508261237e565b613f3b5760405162461bcd60e51b815260206004820152600260248201526104e560f41b6044820152606401610c12565b6001601083604051613f4d91906152c5565b90815260408051602092819003830181206001600160a01b038616600090815290845291909120805460ff191693151593909317909255600080516020615ed283398151915291613fa291859185910161553d565b60408051601f19818403018152908290526125ae913390615c6f565b6000806000848411613fcf57600080fd5b600084613fdc87896153e8565b613fe691906153ff565b9050600085613ff58882615421565b613fff908a6153e8565b61400991906153ff565b90508181614017818361528e565b614021908b615421565b945094509450505093509350939050565b306001600160a01b0384160361405c57610ea96040518060200160405280600081525083836139fc565b6040516323b872dd60e01b81523360048201523060248201526044810182905282906001600160a01b038216906323b872dd906064016020604051808303816000875af11580156140b1573d6000803e3d6000fd5b505050506040513d601f19601f820116820180604052508101906140d59190615469565b6114035760405162461bcd60e51b8152600401610c1290615486565b8261410b8160008054918152600760205260409020541190565b6141275760405162461bcd60e51b8152600401610c129061539a565b6001805460ff1615151461414d5760405162461bcd60e51b8152600401610c12906153cc565b6000848152600360205260409020548311156141905760405162461bcd60e51b8152602060048201526002602482015261494160f01b6044820152606401610c12565b614199826123d4565b15614208576001600160a01b038216600090815260046020908152604080832054835260039091528120546141ce908561528e565b6001600160a01b03841660009081526004602052604081205490549192506141f5916148f6565b614202818460005461493d565b50614215565b614215838360005461493d565b614221846000546148f6565b60008481526003602052604081205461423b908590615421565b9050801561426e57600085815260036020526040812060010154905461426e9183916001600160a01b039091169061493d565b506000805480825260026020819052604083205492909161429090600161528e565b8152602001908152602001600020819055506000808154809291906142b4906155ec565b919050555050505050565b846142d98160008054918152600760205260409020541190565b6142f55760405162461bcd60e51b8152600401610c129061539a565b6001805460ff1615151461431b5760405162461bcd60e51b8152600401610c12906153cc565b60008681526005602052604081205460ff16600281111561433e5761433e6153b6565b1461434857600080fd5b60008681526003602052604090205485111561438b5760405162461bcd60e51b8152602060048201526002602482015261494160f01b6044820152606401610c12565b6040805160808101825286815260208082018681526001600160a01b038881168486019081528782166060860190815260008d8152600680875288822097518855945160018089019190915592516002880180549186166001600160a01b03199283161790559151600388018054919095169216919091179092556005845290859020805460ff191682179055915291517fd8cd09ea93b4076ab867588c0d1a52b62c5b605b7a5f1c0189781245631a8353926113079290918a9190615c9c565b6001805460ff161515146144725760405162461bcd60e51b8152600401610c12906153cc565b8060118460405161448391906152c5565b90815260408051602092819003830190206001600160a01b038616600090815292529020805460ff191660018360028111156144c1576144c16153b6565b0217905550600080516020615ed28339815191528383836040516020016144ea93929190615cea565b60408051601f1981840301815290829052614506913390615d25565b60405180910390a1505050565b6001805460ff161515146145395760405162461bcd60e51b8152600401610c12906153cc565b6001805460ff1916905542600a55565b6000816001600160a01b03168360405160006040518083038185875af1925050503d8060008114614596576040519150601f19603f3d011682016040523d82523d6000602084013e61459b565b606091505b5050905080610ea95760405162461bcd60e51b81526020600482015260026024820152612a2360f11b6044820152606401610c12565b6145da836119de565b6145e357600080fd5b3060009081526004602052604081205490546145ff91906148f6565b30600090815260046020908152604080832054835260039091529020546146339061462a908661528e565b3060005461493d565b3060009081526004602052604090205461140390858585856142bf565b8461465a81612277565b6146765760405162461bcd60e51b8152600401610c129061525b565b6001600160a01b0385166000908152600960205260408120805486929061469e908490615421565b90915550506001600160a01b0385166000908152600b6020526040812080548692906146cb908490615421565b9250508190555083600f876040516146e391906152c5565b90815260200160405180910390206000876001600160a01b03166001600160a01b0316815260200190815260200160002060008282546147239190615421565b9091555050604051600f906147399088906152c5565b90815260408051602092819003830190206001600160a01b0388166000908152925290205415801561477357506001600160a01b03851615155b156147ad576001600e8760405161478a91906152c5565b908152602001604051809103902060008282546147a79190615421565b90915550505b600080516020615ed283398151915286868686866040516020016147d5959493929190615d51565b60408051601f1981840301815290829052611307913390615da0565b6147fa816119de565b61482b5760405162461bcd60e51b8152602060048201526002602482015261155560f21b6044820152606401610c12565b6001600160a01b038116600090815260096020526040902054156148765760405162461bcd60e51b8152602060048201526002602482015261272d60f11b6044820152606401610c12565b6001600160a01b03166000908152600860205260409020805460ff19169055565b6148a0816119de565b156148d25760405162461bcd60e51b815260206004820152600260248201526120a960f11b6044820152606401610c12565b6001600160a01b03166000908152600860205260409020805460ff19166001179055565b600082815260076020908152604080832084905580519283529082018490527f12769fd465856c3651942a04374f21755b56a66422aaed87c7e56e936f6dd3d091016125ae565b600083116149725760405162461bcd60e51b815260206004820152600260248201526129ad60f11b6044820152606401610c12565b6000805b6040516bffffffffffffffffffffffff19606086901b166020820152603481018490526054810183905260740160408051601f198184030181529181528151602092830120600081815260039093529120600101549091506001600160a01b0316156149ee57816149e6816155ec565b925050614976565b6001600160a01b03848116600081815260046020908152604080832086905585835260078252808320600019905580516060810182528a81528083019485528082018981528785526003845293829020905181559351600180860180546001600160a01b0319169290971691909117909555915160029093019290925580519283529082018390527f12769fd465856c3651942a04374f21755b56a66422aaed87c7e56e936f6dd3d091016117fc565b828054828255906000526020600020908101928215614ae4579160200282015b82811115614ae45782518290614ad49082615e12565b5091602001919060010190614abe565b50614af0929150614b46565b5090565b828054828255906000526020600020908101928215614b3a579160200282015b82811115614b3a5782518290614b2a9082615e12565b5091602001919060010190614b14565b50614af0929150614b63565b80821115614af0576000614b5a8282614b80565b50600101614b46565b80821115614af0576000614b778282614b80565b50600101614b63565b508054614b8c90615686565b6000825580601f10614b9c575050565b601f016020900490600052602060002090810190610dd591905b80821115614af05760008155600101614bb6565b600060208284031215614bdc57600080fd5b5035919050565b6001600160a01b0381168114610dd557600080fd5b600060208284031215614c0a57600080fd5b8135611b4381614be3565b634e487b7160e01b600052604160045260246000fd5b604051601f8201601f191681016001600160401b0381118282101715614c5357614c53614c15565b604052919050565b60006001600160401b03821115614c7457614c74614c15565b50601f01601f191660200190565b6000614c95614c9084614c5b565b614c2b565b9050828152838383011115614ca957600080fd5b828260208301376000602084830101529392505050565b600082601f830112614cd157600080fd5b611b4383833560208501614c82565b600060208284031215614cf257600080fd5b81356001600160401b03811115614d0857600080fd5b614d1484828501614cc0565b949350505050565b60008060408385031215614d2f57600080fd5b82356001600160401b03811115614d4557600080fd5b614d5185828601614cc0565b9250506020830135614d6281614be3565b809150509250929050565b8015158114610dd557600080fd5b600080600060608486031215614d9057600080fd5b83359250602084013591506040840135614da981614d6d565b809150509250925092565b60008060408385031215614dc757600080fd5b50508035926020909101359150565b60006001600160401b03821115614def57614def614c15565b5060051b60200190565b600082601f830112614e0a57600080fd5b81356020614e1a614c9083614dd6565b82815260059290921b84018101918181019086841115614e3957600080fd5b8286015b84811015614e8d5780356001600160401b03811115614e5c5760008081fd5b8701603f81018913614e6e5760008081fd5b614e7f898683013560408401614c82565b845250918301918301614e3d565b509695505050505050565b60008060408385031215614eab57600080fd5b82356001600160401b0380821115614ec257600080fd5b818501915085601f830112614ed657600080fd5b81356020614ee6614c9083614dd6565b82815260059290921b84018101918181019089841115614f0557600080fd5b8286015b84811015614f3d57803586811115614f215760008081fd5b614f2f8c86838b0101614cc0565b845250918301918301614f09565b5096505086013592505080821115614f5457600080fd5b50614f6185828601614df9565b9150509250929050565b60008060008060808587031215614f8157600080fd5b843593506020850135614f9381614be3565b9250604085013591506060850135614faa81614be3565b939692955090935050565b60008060408385031215614fc857600080fd5b823591506020830135614d6281614be3565b600080600060608486031215614fef57600080fd5b83356001600160401b0381111561500557600080fd5b61501186828701614cc0565b935050602084013561502281614be3565b929592945050506040919091013590565b600080600080600060a0868803121561504b57600080fd5b85356001600160401b038082111561506257600080fd5b61506e89838a01614cc0565b96506020880135915061508082614be3565b9094506040870135935060608701359061509982614be3565b909250608087013590808211156150af57600080fd5b506150bc88828901614cc0565b9150509295509295909350565b600080600080608085870312156150df57600080fd5b84356001600160401b03808211156150f657600080fd5b61510288838901614cc0565b9550602087013591508082111561511857600080fd5b5061512587828801614cc0565b935050604085013561513681614be3565b9396929550929360600135925050565b60008060006060848603121561515b57600080fd5b505081359360208301359350604090920135919050565b60008060006060848603121561518757600080fd5b83359250602084013591506040840135614da981614be3565b60038110610dd557600080fd5b6000806000606084860312156151c257600080fd5b83356001600160401b038111156151d857600080fd5b6151e486828701614cc0565b93505060208401356151f581614be3565b91506040840135614da9816151a0565b600080600080600060a0868803121561521d57600080fd5b8535945060208601359350604086013561523681614be3565b925060608601359150608086013561524d81614be3565b809150509295509295909350565b602080825260039082015262444e4560e81b604082015260600190565b634e487b7160e01b600052601160045260246000fd5b80820180821115610ff657610ff6615278565b60005b838110156152bc5781810151838201526020016152a4565b50506000910152565b600082516152d78184602087016152a1565b9190910192915050565b600081518084526152f98160208601602086016152a1565b601f01601f19169290920160200192915050565b60608152600061532060608301866152e1565b6001600160a01b039490941660208301525060400152919050565b6060815260026060820152611c9560f21b608082015260a06020820152600061536760a08301856152e1565b905060018060a01b03831660408301529392505050565b60208082526002908201526109e960f31b604082015260600190565b602080825260029082015261555360f01b604082015260600190565b634e487b7160e01b600052602160045260246000fd5b602080825260029082015261115360f21b604082015260600190565b8082028115828204841417610ff657610ff6615278565b60008261541c57634e487b7160e01b600052601260045260246000fd5b500490565b81810381811115610ff657610ff6615278565b60006020828403121561544657600080fd5b5051919050565b602080825260029082015261125560f21b604082015260600190565b60006020828403121561547b57600080fd5b8151611b4381614d6d565b602080825260029082015261139560f21b604082015260600190565b60038110610dd557634e487b7160e01b600052602160045260246000fd5b60c081016154cd856154a2565b8482528360208301528251604083015260208301516060830152604083015160018060a01b0380821660808501528060608601511660a08501525050949350505050565b606081526002606082015261191160f21b608082015260a06020820152600061536760a08301856152e1565b60408152600061555060408301856152e1565b905060018060a01b03831660208301529392505050565b60608152600260608201526131a160f11b608082015260a06020820152600061536760a08301856152e1565b60608152600360608201526272424160e81b608082015260a06020820152600061536760a08301856152e1565b60608152600260608201526134a960f11b608082015260a06020820152600061536760a08301856152e1565b6000600182016155fe576155fe615278565b5060010190565b602081526000611b4360208301846152e1565b606081526002606082015261322160f11b608082015260a06020820152600061536760a08301856152e1565b606081526002606082015261695360f01b608082015260a06020820152600061536760a08301856152e1565b634e487b7160e01b600052603260045260246000fd5b600181811c9082168061569a57607f821691505b6020821081036156ba57634e487b7160e01b600052602260045260246000fd5b50919050565b60006156ce614c9084614c5b565b90508281528383830111156156e257600080fd5b611b438360208301846152a1565b600082601f83011261570157600080fd5b611b43838351602085016156c0565b600082601f83011261572157600080fd5b81516020615731614c9083614dd6565b82815260059290921b8401810191818101908684111561575057600080fd5b8286015b84811015614e8d5780516001600160401b038111156157735760008081fd5b8701603f810189136157855760008081fd5b6157968986830151604084016156c0565b845250918301918301615754565b600080604083850312156157b757600080fd5b82516001600160401b03808211156157ce57600080fd5b818501915085601f8301126157e257600080fd5b815160206157f2614c9083614dd6565b82815260059290921b8401810191818101908984111561581157600080fd5b8286015b848110156158495780518681111561582d5760008081fd5b61583b8c86838b01016156f0565b845250918301918301615815565b509188015191965090935050508082111561586357600080fd5b50614f6185828601615710565b60008060006060848603121561588557600080fd5b83516001600160401b0381111561589b57600080fd5b6158a7868287016156f0565b93505060208401516158b8816151a0565b6040850151909250614da981614be3565b600080600080600060a086880312156158e157600080fd5b85516001600160401b03808211156158f857600080fd5b61590489838a016156f0565b96506020880151915061591682614be3565b60408801516060890151929650945061592e82614be3565b60808801519193508082111561594357600080fd5b506150bc888289016156f0565b6000806000806080858703121561596657600080fd5b84516001600160401b038082111561597d57600080fd5b615989888389016156f0565b9550602087015191508082111561599f57600080fd5b506159ac878288016156f0565b93505060408501516159bd81614be3565b6060959095015193969295505050565b6000806000606084860312156159e257600080fd5b83516001600160401b038111156159f857600080fd5b615a04868287016156f0565b9350506020840151615a1581614be3565b80925050604084015190509250925092565b60008060008060808587031215615a3d57600080fd5b845193506020850151615a4f81614be3565b604086015160608701519194509250614faa81614be3565b60008060408385031215615a7a57600080fd5b82516001600160401b03811115615a9057600080fd5b615a9c858286016156f0565b9250506020830151614d6281614be3565b600060208284031215615abf57600080fd5b81516001600160401b03811115615ad557600080fd5b614d14848285016156f0565b600060208284031215615af357600080fd5b8151611b4381614be3565b606081526002606082015261069560f41b608082015260a06020820152600061536760a08301856152e1565b60208082526002908201526124a360f11b604082015260600190565b848152608060208201526000615b5f60808301866152e1565b6001600160a01b03949094166040830152506060015292915050565b6060815260026060820152611a5160f21b608082015260a06020820152600061536760a08301856152e1565b60608152600360608201526275544160e81b608082015260a06020820152600061536760a08301856152e1565b60608152600360608201526272544160e81b608082015260a06020820152600061536760a08301856152e1565b608081526000615c1460808301876152e1565b8281036020840152615c2681876152e1565b6001600160a01b0395909516604084015250506060015292915050565b6060815260026060820152611b5560f21b608082015260a06020820152600061536760a08301856152e1565b60608152600360608201526261424160e81b608082015260a06020820152600061536760a08301856152e1565b60c08101615ca9856154a2565b9381526020810192909252805460408301526001810154606083015260028101546001600160a01b0390811660808401526003909101541660a09091015290565b606081526000615cfd60608301866152e1565b6001600160a01b03851660208401529050615d17836154a2565b826040830152949350505050565b606081526002606082015261073560f41b608082015260a06020820152600061536760a08301856152e1565b60a081526000615d6460a08301886152e1565b6001600160a01b03878116602085015260408401879052851660608401528281036080840152615d9481856152e1565b98975050505050505050565b6060815260026060820152611d1560f21b608082015260a06020820152600061536760a08301856152e1565b601f821115610ea957600081815260208120601f850160051c81016020861015615df35750805b601f850160051c820191505b8181101561131057828155600101615dff565b81516001600160401b03811115615e2b57615e2b614c15565b615e3f81615e398454615686565b84615dcc565b602080601f831160018114615e745760008415615e5c5750858301515b600019600386901b1c1916600185901b178555611310565b600085815260208120601f198616915b82811015615ea357888601518255948401946001909101908401615e84565b5085821015615ec15787850151600019600388901b60f8161c191681555b5050505050600190811b0190555056fe43cd76b5eb40da9ea5eb31a199f443f7cf7955ec280bc5981a2e3445c79c9055a2646970667358221220d9cbe9cbd4f1b5cba914e9c438567311093e090f548f3ab3600b4f62c3138e9564736f6c6343000813003343cd76b5eb40da9ea5eb31a199f443f7cf7955ec280bc5981a2e3445c79c9055",
  "bytecodeSha1": "da39a3ee5e6b4b0d3255bfef95601890afd80709",
  "compiler": {
    "evm_version": "istanbul",
    "optimizer": {
      "enabled": true,
      "runs": 200
    },
    "version": "0.8.19+commit.7dd6d404"
  },
  "contractName": "Votable",
  "language": "Solidity",
  "natspec": {
    "author": "Frederik W. L. Christoffersen",
    "custom:beaware": "This is a commercial contract.",
    "kind": "dev",
    "methods": {
      "acceptsToken(address)": {
        "notice": "Returns a boolean value, stating if the given token address is registered as acceptable or not.",
        "params": {
          "tokenAddress": "The address of the token to be checked for."
        }
      },
      "active()": {
        "notice": "Boolean stating if the Shardable is active and tradeable or not."
      },
      "addBankAdmin(string,address)": {
        "notice": "Adds a new given administrator to a given Bank.",
        "params": {
          "bankAdmin": "The address of the new Bank administrator to be added.",
          "bankName": "The name of the Bank to which the new administrator is to be added."
        }
      },
      "bankExists(string)": {
        "notice": "Returns a boolean stating if a given Bank exists.",
        "params": {
          "bankName": "The name of the Bank to be checked for."
        }
      },
      "bankIsEmpty(string)": {
        "notice": "Returns a boolean stating if a given Bank is empty.",
        "params": {
          "bankName": "The name of the Bank to be checked for."
        }
      },
      "cancelSale(bytes32)": {
        "notice": "Cancels a sell of a given shard.",
        "params": {
          "shard": "The shard to be put off sale."
        }
      },
      "claimDividend(bytes32,uint256)": {
        "notice": "Claims the value of an existing dividend corresponding to the shard holder's respective shard fraction.",
        "params": {
          "dividend": "The dividend to be claimed.",
          "shard": "The shard that was valid at the clock of the Dividend creation"
        }
      },
      "claimLiquid(address)": {
        "notice": "Claims the owed liquid value corresponding to the shard holder's respective shard fraction after the entity has been liquidized/dissolved.",
        "params": {
          "tokenAddress": "The address of the token to be claimed."
        }
      },
      "claimTerminatedLiquid(address)": {
        "notice": "Claims the remaining unclaimed liquid value after termination (100 days passed since liquidization) as the property of Counekt.",
        "params": {
          "tokenAddress": "The address of the token to be claimed."
        }
      },
      "createBank(string,address)": {
        "notice": "Creates a new Bank.",
        "params": {
          "bankAdmin": "The address of the first Bank administrator.",
          "bankName": "The name of the Bank to be created."
        }
      },
      "deleteBank(string)": {
        "notice": "Deletes a given Bank.",
        "params": {
          "bankName": "The name of the Bank to be deleted."
        }
      },
      "dissolveDividend(uint256)": {
        "notice": "Dissolves a Dividend and moves its last contents to the 'main' Bank.",
        "params": {
          "dividend": "The Dividend to be dissolved."
        }
      },
      "dividendExists(uint256)": {
        "notice": "Returns a boolean stating if a given Dividend exists.",
        "params": {
          "dividend": "The Dividend to be checked for."
        }
      },
      "getBankBalance(string,address)": {
        "notice": "Returns the balance of a bank.",
        "params": {
          "bankName": "The name of the Bank.",
          "tokenAddress": "The address of the token balance to check for."
        }
      },
      "getCurrentClock()": {
        "notice": "Returns the clock."
      },
      "getDividendResidual(uint256)": {
        "notice": "Returns the residual value of a dividend.",
        "params": {
          "dividend": "The Dividend to be checked for."
        }
      },
      "getDividendToken(uint256)": {
        "notice": "Returns the token of a dividend.",
        "params": {
          "dividend": "The Dividend to be checked for."
        }
      },
      "getDividendValue(uint256)": {
        "notice": "Returns the total value of a dividend.",
        "params": {
          "dividend": "The Dividend to be checked for."
        }
      },
      "getLiquidResidual(address)": {
        "notice": "Returns the residual of a liquid, after liquidization/inactivation.",
        "params": {
          "tokenAddress": "The address of the token to be checked for."
        }
      },
      "getReferendumResult(uint256)": {
        "notice": "Returns a boolean stating if a given Referendum has been voted through (>=50% FAVOR) or not.",
        "params": {
          "referendum": "The Referendum to be checked for."
        }
      },
      "getShardExpirationClock(bytes32)": {
        "notice": "Returns the clock, in which a shard will or has expired."
      },
      "getShardSalePrice(bytes32)": {
        "notice": "Returns the price, at which a shard is for sale."
      },
      "hasPermit(string,address)": {
        "notice": "Returns a boolean stating if a given address has a given permit or not.",
        "params": {
          "account": "The address to be checked for.",
          "permitName": "The name of the permit to be checked for."
        }
      },
      "hasVoted(uint256,address)": {
        "notice": "Returns a boolean stating if a given Shard Holder has voted on a given Referendum.",
        "params": {
          "account": "The address of the potential Shard Holder voter to be checked for.",
          "referendum": "The Referendum to be checked for."
        }
      },
      "implementProposal(uint256,uint256)": {
        "notice": "Implements a given Proposal, within a given passed Referendum.",
        "params": {
          "proposalIndex": "The index of the proposal to be implemented.",
          "referendum": "The passed Referendum containing the Proposal."
        }
      },
      "infoByReferendum(uint256)": {
        "notice": "Mapping pointing to dynamic info of a Referendum given a unique Referendum instance."
      },
      "infoByShard(bytes32)": {
        "notice": "Mapping pointing to related info of a Shard given the bytes of a unique Shard instance."
      },
      "isBankAdmin(string,address)": {
        "notice": "Returns a boolean stating if a given address is an admin of a given bank.",
        "params": {
          "account": "The address to be checked for.",
          "bankName": "The name of the Bank to be checked for."
        }
      },
      "isPermitAdmin(string,address)": {
        "notice": "Returns a boolean stating if a given address is an admin of a given permit or not.",
        "params": {
          "account": "The address to be checked for.",
          "permitName": "The name of the permit to be checked for."
        }
      },
      "isShardHolder(address)": {
        "notice": "Checks if address is a shard holder - at least a partial owner of the contract.",
        "params": {
          "account": "The address to be checked for."
        }
      },
      "isTerminated()": {
        "notice": "Returns a boolean value, stating if the liquidization is terminated (100 days have passed since)."
      },
      "isValidShard(bytes32)": {
        "notice": "Returns a boolean stating if a given shard is currently valid or not.",
        "params": {
          "shard": "The shard, whose validity is to be checked for."
        }
      },
      "issueDividend(string,address,uint256)": {
        "notice": "Creates and issues a Dividend (to all current shareholders) of a token amount from a given Bank.",
        "params": {
          "bankName": "The name of the Bank to issue the Dividend from.",
          "tokenAddress": "The address of the token to make up the Dividend.",
          "value": "The value/amount of the token to be issued in the Dividend."
        }
      },
      "issueReferendum(string[],bytes[])": {
        "notice": "The potential errors of the Proposals aren't checked for before implementation!!!",
        "params": {
          "proposalArgs": "The encoded parameters passed to the function calls as part of the implementation of the proposals.",
          "proposalFuncs": "The names of the functions to be called as a result of the implementation of the proposals."
        }
      },
      "issueShards(uint256,address,uint256,address)": {
        "notice": "Issues new shards and puts them for sale.",
        "params": {
          "price": "The price per token.",
          "to": "The specifically set buyer of the issued shards. Open to anyone, if address(0).",
          "tokenAddress": "The token address the shards are put for sale for."
        }
      },
      "liquid(address)": {
        "notice": "Mapping pointing to a value/amount given the address of an ERC20 token."
      },
      "liquidize()": {
        "notice": "Liquidizes and dissolves the entity. This cannot be undone."
      },
      "moveToken(string,string,address,uint256)": {
        "notice": "Internally moves a token from one Bank to another.",
        "params": {
          "fromBankName": "The name of the Bank from which the token is to be moved.",
          "toBankName": "The name of the Bank to which the token is to be moved.",
          "tokenAddress": "The address of the token to be moved.",
          "value": "The value/amount of the token to be moved."
        }
      },
      "proposalExists(uint256,uint256)": {
        "notice": "Returns a boolean stating if a given Proposal exists within a given Referendum.",
        "params": {
          "proposalIndex": "The index of the proposal to be checked for.",
          "referendum": "The Referendum to be checked for."
        }
      },
      "purchase(bytes32,uint256,uint256)": {
        "details": "If the purchase is with tokens (ie. tokenAddress != 0x0), first call 'token.approve(Shardable.address, salePrice);'",
        "notice": "Purchases a listed Shard for sale.",
        "params": {
          "shard": "The shard of which a fraction will be purchased."
        }
      },
      "putForSale(bytes32,uint256,address,uint256,address)": {
        "notice": "Puts a given shard for sale.",
        "params": {
          "amount": "Amount of the Shard to be put for sale.",
          "price": "The amount which the Shard is for sale as. The token address being the valuta.",
          "shard": "The shard to be put for sale.",
          "to": "The specifically set buyer of the sale. Open to anyone, if address(0).",
          "tokenAddress": "The address of the token that is accepted when purchasing. A value of 0x0 represents ether."
        }
      },
      "receiveToken(string,address,uint256)": {
        "notice": "Receives a specified token and adds it to the registry. Make sure 'token.approve()' is called beforehand.",
        "params": {
          "bankName": "The name of the Bank where the token is to be received.",
          "tokenAddress": "The address of the token to be received.",
          "value": "The value/amount of the token to be received."
        }
      },
      "referendumIsImplemented(uint256)": {
        "notice": "Returns a boolean stating if a given Referendum is implemented or not.",
        "params": {
          "referendum": "The Referendum to be checked for."
        }
      },
      "referendumIsPassed(uint256)": {
        "notice": "Returns a boolean stating if a given Referendum is passed or not.",
        "params": {
          "referendum": "The Referendum to be checked for."
        }
      },
      "referendumIsPending(uint256)": {
        "notice": "Returns a boolean stating if a given Referendum is pending or not.",
        "params": {
          "referendum": "The Referendum to be checked for."
        }
      },
      "registerTokenAddress(address)": {
        "notice": "Adds a token address to the registry. Also approves any future receipts of said token unless removed again.",
        "params": {
          "tokenAddress": "The token address to be registered."
        }
      },
      "removeBankAdmin(string,address)": {
        "notice": "Removes a given administrator of a given Bank.",
        "params": {
          "bankAdmin": "The address of the current Bank administrator to be removed.",
          "bankName": "The name of the Bank from which the given administrator is to be removed."
        }
      },
      "setPermit(string,address,uint8)": {
        "notice": "Sets the state of a specified permit of a given address.",
        "params": {
          "account": "The address, whose permit state is to be set.",
          "newState": "The new Permit State to be applied.",
          "permitName": "The name of the permit, whose state is to be set."
        }
      },
      "shardByOwner(address)": {
        "notice": "Mapping pointing to a currently valid shard given the address of its owner."
      },
      "shardExisted(bytes32,uint256)": {
        "notice": "Returns a boolean stating if the given shard was valid at a given clock.",
        "params": {
          "atClock": "The clock to be checked for.",
          "shard": "The shard, whose validity is to be checked for."
        }
      },
      "split(bytes32,uint256,address)": {
        "notice": "Splits a currently valid shard into two new ones. One is assigned to the receiver. The rest to the previous owner.",
        "params": {
          "amount": "Amount, which will be subtracted from the previous shard and sent to the receiver.",
          "senderShard": "The shard to be split.",
          "to": "The receiver of the new Shard."
        }
      },
      "totalShardAmountByClock(uint256)": {
        "notice": "Mapping pointing to integer value representing the total number of shards issued, provided the clock. Used as the denominator to represent a relative shard fraction."
      },
      "transferTokenFromBank(string,address,uint256,address,string)": {
        "notice": "Transfers a token bankAdmin a Bank to a recipient.",
        "params": {
          "fromBankName": "The name of the Bank from which the token is to be transferred.",
          "to": "The recipient of the token to be transferred.",
          "toBankName": "If the recipient is an Idea: The name of the Bank where the token is to be received.",
          "tokenAddress": "The address of the token to be transferred.",
          "value": "The value/amount of the token to be transferred."
        }
      },
      "unregisterTokenAddress(address)": {
        "notice": "Removes a token address from the registry. Also cancels any future receipts of said token unless added again.",
        "params": {
          "tokenAddress": "The token address to be unregistered."
        }
      },
      "vote(bytes32,uint256,bool)": {
        "notice": "Votes on a existing referendum, with a fraction corresponding to the shard of the holder.",
        "params": {
          "favor": "The boolean value signalling a FOR or AGAINST vote.",
          "referendum": "The referendum to be voted on.",
          "shard": "The Shard to vote with."
        }
      }
    },
    "notice": "This contract is used as a votable administerable business entity.",
    "title": "A fractional DAO-like contract whose decisions can be voted upon by its shareholders",
    "version": 1
  },
  "opcodes": "PUSH1 0x80 PUSH1 0x40 MSTORE PUSH1 0x4 CALLDATASIZE LT PUSH2 0x354 JUMPI PUSH1 0x0 CALLDATALOAD PUSH1 0xE0 SHR DUP1 PUSH4 0x7FB6679D GT PUSH2 0x1C6 JUMPI DUP1 PUSH4 0xB35CA4F3 GT PUSH2 0xF7 JUMPI DUP1 PUSH4 0xDB5DC9B7 GT PUSH2 0x95 JUMPI DUP1 PUSH4 0xEADB9708 GT PUSH2 0x6F JUMPI DUP1 PUSH4 0xEADB9708 EQ PUSH2 0xB4D JUMPI DUP1 PUSH4 0xEFAE89F8 EQ PUSH2 0xB7F JUMPI DUP1 PUSH4 0xF7AAE621 EQ PUSH2 0xBAC JUMPI DUP1 PUSH4 0xFD06636B EQ PUSH2 0xBCC JUMPI PUSH1 0x0 DUP1 REVERT JUMPDEST DUP1 PUSH4 0xDB5DC9B7 EQ PUSH2 0xAE0 JUMPI DUP1 PUSH4 0xE1C34C1F EQ PUSH2 0xB00 JUMPI DUP1 PUSH4 0xE6778FCE EQ PUSH2 0xB20 JUMPI PUSH1 0x0 DUP1 REVERT JUMPDEST DUP1 PUSH4 0xC4802EB2 GT PUSH2 0xD1 JUMPI DUP1 PUSH4 0xC4802EB2 EQ PUSH2 0xA4E JUMPI DUP1 PUSH4 0xC5438A55 EQ PUSH2 0xA7B JUMPI DUP1 PUSH4 0xC8C56AF0 EQ PUSH2 0xA9B JUMPI DUP1 PUSH4 0xD1CC9976 EQ PUSH2 0xACB JUMPI PUSH1 0x0 DUP1 REVERT JUMPDEST DUP1 PUSH4 0xB35CA4F3 EQ PUSH2 0x996 JUMPI DUP1 PUSH4 0xB4AF7D59 EQ PUSH2 0x9C6 JUMPI DUP1 PUSH4 0xBCEDB2E0 EQ PUSH2 0x9E6 JUMPI PUSH1 0x0 DUP1 REVERT JUMPDEST DUP1 PUSH4 0xA1916AEF GT PUSH2 0x164 JUMPI DUP1 PUSH4 0xA902780F GT PUSH2 0x13E JUMPI DUP1 PUSH4 0xA902780F EQ PUSH2 0x92E JUMPI DUP1 PUSH4 0xA907B6C5 EQ PUSH2 0x943 JUMPI DUP1 PUSH4 0xAB2D662B EQ PUSH2 0x963 JUMPI DUP1 PUSH4 0xB2CB78AB EQ PUSH2 0x976 JUMPI PUSH1 0x0 DUP1 REVERT JUMPDEST DUP1 PUSH4 0xA1916AEF EQ PUSH2 0x8B8 JUMPI DUP1 PUSH4 0xA343C535 EQ PUSH2 0x8D8 JUMPI DUP1 PUSH4 0xA80AED76 EQ PUSH2 0x90E JUMPI PUSH1 0x0 DUP1 REVERT JUMPDEST DUP1 PUSH4 0x8786DF6A GT PUSH2 0x1A0 JUMPI DUP1 PUSH4 0x8786DF6A EQ PUSH2 0x818 JUMPI DUP1 PUSH4 0x9211B7B3 EQ PUSH2 0x838 JUMPI DUP1 PUSH4 0x97890DB9 EQ PUSH2 0x868 JUMPI DUP1 PUSH4 0x9995B9A9 EQ PUSH2 0x888 JUMPI PUSH1 0x0 DUP1 REVERT JUMPDEST DUP1 PUSH4 0x7FB6679D EQ PUSH2 0x7B8 JUMPI DUP1 PUSH4 0x859D9FD5 EQ PUSH2 0x7D8 JUMPI DUP1 PUSH4 0x868399A5 EQ PUSH2 0x7F8 JUMPI PUSH1 0x0 DUP1 REVERT JUMPDEST DUP1 PUSH4 0x354CD135 GT PUSH2 0x2A0 JUMPI DUP1 PUSH4 0x4C46360B GT PUSH2 0x23E JUMPI DUP1 PUSH4 0x63879C0B GT PUSH2 0x218 JUMPI DUP1 PUSH4 0x63879C0B EQ PUSH2 0x70B JUMPI DUP1 PUSH4 0x64E5378F EQ PUSH2 0x72B JUMPI DUP1 PUSH4 0x6D36E209 EQ PUSH2 0x768 JUMPI DUP1 PUSH4 0x7B785493 EQ PUSH2 0x788 JUMPI PUSH1 0x0 DUP1 REVERT JUMPDEST DUP1 PUSH4 0x4C46360B EQ PUSH2 0x660 JUMPI DUP1 PUSH4 0x5BEEFF33 EQ PUSH2 0x690 JUMPI DUP1 PUSH4 0x62748DCC EQ PUSH2 0x6BD JUMPI PUSH1 0x0 DUP1 REVERT JUMPDEST DUP1 PUSH4 0x3BAF28F8 GT PUSH2 0x27A JUMPI DUP1 PUSH4 0x3BAF28F8 EQ PUSH2 0x59A JUMPI DUP1 PUSH4 0x3C06DF46 EQ PUSH2 0x5BA JUMPI DUP1 PUSH4 0x3DBEAA54 EQ PUSH2 0x5DA JUMPI DUP1 PUSH4 0x43859632 EQ PUSH2 0x610 JUMPI PUSH1 0x0 DUP1 REVERT JUMPDEST DUP1 PUSH4 0x354CD135 EQ PUSH2 0x53A JUMPI DUP1 PUSH4 0x3601F062 EQ PUSH2 0x55A JUMPI DUP1 PUSH4 0x384FE2B5 EQ PUSH2 0x57A JUMPI PUSH1 0x0 DUP1 REVERT JUMPDEST DUP1 PUSH4 0x23656642 GT PUSH2 0x30D JUMPI DUP1 PUSH4 0x2DEC7CD2 GT PUSH2 0x2E7 JUMPI DUP1 PUSH4 0x2DEC7CD2 EQ PUSH2 0x4BA JUMPI DUP1 PUSH4 0x2EF37926 EQ PUSH2 0x4DA JUMPI DUP1 PUSH4 0x2F2E9A2A EQ PUSH2 0x4FA JUMPI DUP1 PUSH4 0x350546D8 EQ PUSH2 0x51A JUMPI PUSH1 0x0 DUP1 REVERT JUMPDEST DUP1 PUSH4 0x23656642 EQ PUSH2 0x45A JUMPI DUP1 PUSH4 0x258E4D9F EQ PUSH2 0x47A JUMPI DUP1 PUSH4 0x2C729FD1 EQ PUSH2 0x49A JUMPI PUSH1 0x0 DUP1 REVERT JUMPDEST DUP1 PUSH4 0x2FB0C5E EQ PUSH2 0x37B JUMPI DUP1 PUSH4 0x5C558F5 EQ PUSH2 0x3AA JUMPI DUP1 PUSH4 0x66792D2 EQ PUSH2 0x3BF JUMPI DUP1 PUSH4 0xBEA8985 EQ PUSH2 0x3FA JUMPI DUP1 PUSH4 0xD3330A1 EQ PUSH2 0x41A JUMPI DUP1 PUSH4 0x169936B4 EQ PUSH2 0x43A JUMPI PUSH1 0x0 DUP1 REVERT JUMPDEST CALLDATASIZE PUSH2 0x376 JUMPI PUSH2 0x374 PUSH1 0x40 MLOAD DUP1 PUSH1 0x20 ADD PUSH1 0x40 MSTORE DUP1 PUSH1 0x0 DUP2 MSTORE POP PUSH1 0x0 CALLVALUE PUSH2 0xBEC JUMP JUMPDEST STOP JUMPDEST PUSH1 0x0 DUP1 REVERT JUMPDEST CALLVALUE DUP1 ISZERO PUSH2 0x387 JUMPI PUSH1 0x0 DUP1 REVERT JUMPDEST POP PUSH1 0x1 SLOAD PUSH2 0x395 SWAP1 PUSH1 0xFF AND DUP2 JUMP JUMPDEST PUSH1 0x40 MLOAD SWAP1 ISZERO ISZERO DUP2 MSTORE PUSH1 0x20 ADD JUMPDEST PUSH1 0x40 MLOAD DUP1 SWAP2 SUB SWAP1 RETURN JUMPDEST CALLVALUE DUP1 ISZERO PUSH2 0x3B6 JUMPI PUSH1 0x0 DUP1 REVERT JUMPDEST POP PUSH2 0x374 PUSH2 0xD9F JUMP JUMPDEST CALLVALUE DUP1 ISZERO PUSH2 0x3CB JUMPI PUSH1 0x0 DUP1 REVERT JUMPDEST POP PUSH2 0x3EC PUSH2 0x3DA CALLDATASIZE PUSH1 0x4 PUSH2 0x4BCA JUMP JUMPDEST PUSH1 0x2 PUSH1 0x20 MSTORE PUSH1 0x0 SWAP1 DUP2 MSTORE PUSH1 0x40 SWAP1 KECCAK256 SLOAD DUP2 JUMP JUMPDEST PUSH1 0x40 MLOAD SWAP1 DUP2 MSTORE PUSH1 0x20 ADD PUSH2 0x3A1 JUMP JUMPDEST CALLVALUE DUP1 ISZERO PUSH2 0x406 JUMPI PUSH1 0x0 DUP1 REVERT JUMPDEST POP PUSH2 0x374 PUSH2 0x415 CALLDATASIZE PUSH1 0x4 PUSH2 0x4BCA JUMP JUMPDEST PUSH2 0xDD8 JUMP JUMPDEST CALLVALUE DUP1 ISZERO PUSH2 0x426 JUMPI PUSH1 0x0 DUP1 REVERT JUMPDEST POP PUSH2 0x374 PUSH2 0x435 CALLDATASIZE PUSH1 0x4 PUSH2 0x4BF8 JUMP JUMPDEST PUSH2 0xEAE JUMP JUMPDEST CALLVALUE DUP1 ISZERO PUSH2 0x446 JUMPI PUSH1 0x0 DUP1 REVERT JUMPDEST POP PUSH2 0x395 PUSH2 0x455 CALLDATASIZE PUSH1 0x4 PUSH2 0x4CE0 JUMP JUMPDEST PUSH2 0xF9E JUMP JUMPDEST CALLVALUE DUP1 ISZERO PUSH2 0x466 JUMPI PUSH1 0x0 DUP1 REVERT JUMPDEST POP PUSH2 0x374 PUSH2 0x475 CALLDATASIZE PUSH1 0x4 PUSH2 0x4BCA JUMP JUMPDEST PUSH2 0xFFC JUMP JUMPDEST CALLVALUE DUP1 ISZERO PUSH2 0x486 JUMPI PUSH1 0x0 DUP1 REVERT JUMPDEST POP PUSH2 0x395 PUSH2 0x495 CALLDATASIZE PUSH1 0x4 PUSH2 0x4D1C JUMP JUMPDEST PUSH2 0x1037 JUMP JUMPDEST CALLVALUE DUP1 ISZERO PUSH2 0x4A6 JUMPI PUSH1 0x0 DUP1 REVERT JUMPDEST POP PUSH2 0x374 PUSH2 0x4B5 CALLDATASIZE PUSH1 0x4 PUSH2 0x4D7B JUMP JUMPDEST PUSH2 0x108C JUMP JUMPDEST CALLVALUE DUP1 ISZERO PUSH2 0x4C6 JUMPI PUSH1 0x0 DUP1 REVERT JUMPDEST POP PUSH2 0x3EC PUSH2 0x4D5 CALLDATASIZE PUSH1 0x4 PUSH2 0x4D1C JUMP JUMPDEST PUSH2 0x1318 JUMP JUMPDEST CALLVALUE DUP1 ISZERO PUSH2 0x4E6 JUMPI PUSH1 0x0 DUP1 REVERT JUMPDEST POP PUSH2 0x374 PUSH2 0x4F5 CALLDATASIZE PUSH1 0x4 PUSH2 0x4D1C JUMP JUMPDEST PUSH2 0x1359 JUMP JUMPDEST CALLVALUE DUP1 ISZERO PUSH2 0x506 JUMPI PUSH1 0x0 DUP1 REVERT JUMPDEST POP PUSH2 0x374 PUSH2 0x515 CALLDATASIZE PUSH1 0x4 PUSH2 0x4D1C JUMP JUMPDEST PUSH2 0x13B7 JUMP JUMPDEST CALLVALUE DUP1 ISZERO PUSH2 0x526 JUMPI PUSH1 0x0 DUP1 REVERT JUMPDEST POP PUSH2 0x374 PUSH2 0x535 CALLDATASIZE PUSH1 0x4 PUSH2 0x4BF8 JUMP JUMPDEST PUSH2 0x1409 JUMP JUMPDEST CALLVALUE DUP1 ISZERO PUSH2 0x546 JUMPI PUSH1 0x0 DUP1 REVERT JUMPDEST POP PUSH2 0x374 PUSH2 0x555 CALLDATASIZE PUSH1 0x4 PUSH2 0x4DB4 JUMP JUMPDEST PUSH2 0x15C8 JUMP JUMPDEST CALLVALUE DUP1 ISZERO PUSH2 0x566 JUMPI PUSH1 0x0 DUP1 REVERT JUMPDEST POP PUSH2 0x374 PUSH2 0x575 CALLDATASIZE PUSH1 0x4 PUSH2 0x4E98 JUMP JUMPDEST PUSH2 0x180B JUMP JUMPDEST CALLVALUE DUP1 ISZERO PUSH2 0x586 JUMPI PUSH1 0x0 DUP1 REVERT JUMPDEST POP PUSH2 0x374 PUSH2 0x595 CALLDATASIZE PUSH1 0x4 PUSH2 0x4CE0 JUMP JUMPDEST PUSH2 0x1843 JUMP JUMPDEST CALLVALUE DUP1 ISZERO PUSH2 0x5A6 JUMPI PUSH1 0x0 DUP1 REVERT JUMPDEST POP PUSH2 0x374 PUSH2 0x5B5 CALLDATASIZE PUSH1 0x4 PUSH2 0x4F6B JUMP JUMPDEST PUSH2 0x188E JUMP JUMPDEST CALLVALUE DUP1 ISZERO PUSH2 0x5C6 JUMPI PUSH1 0x0 DUP1 REVERT JUMPDEST POP PUSH2 0x374 PUSH2 0x5D5 CALLDATASIZE PUSH1 0x4 PUSH2 0x4DB4 JUMP JUMPDEST PUSH2 0x18CF JUMP JUMPDEST CALLVALUE DUP1 ISZERO PUSH2 0x5E6 JUMPI PUSH1 0x0 DUP1 REVERT JUMPDEST POP PUSH2 0x3EC PUSH2 0x5F5 CALLDATASIZE PUSH1 0x4 PUSH2 0x4BF8 JUMP JUMPDEST PUSH1 0x1 PUSH1 0x1 PUSH1 0xA0 SHL SUB AND PUSH1 0x0 SWAP1 DUP2 MSTORE PUSH1 0xB PUSH1 0x20 MSTORE PUSH1 0x40 SWAP1 KECCAK256 SLOAD SWAP1 JUMP JUMPDEST CALLVALUE DUP1 ISZERO PUSH2 0x61C JUMPI PUSH1 0x0 DUP1 REVERT JUMPDEST POP PUSH2 0x395 PUSH2 0x62B CALLDATASIZE PUSH1 0x4 PUSH2 0x4FB5 JUMP JUMPDEST PUSH1 0x0 SWAP2 DUP3 MSTORE PUSH1 0x1A PUSH1 0x20 SWAP1 DUP2 MSTORE PUSH1 0x40 DUP1 DUP5 KECCAK256 PUSH1 0x1 PUSH1 0x1 PUSH1 0xA0 SHL SUB SWAP4 SWAP1 SWAP4 AND DUP5 MSTORE PUSH1 0x4 DUP3 MSTORE DUP1 DUP5 KECCAK256 SLOAD DUP5 MSTORE SWAP2 SWAP1 MSTORE SWAP1 KECCAK256 SLOAD PUSH1 0xFF AND SWAP1 JUMP JUMPDEST CALLVALUE DUP1 ISZERO PUSH2 0x66C JUMPI PUSH1 0x0 DUP1 REVERT JUMPDEST POP PUSH2 0x3EC PUSH2 0x67B CALLDATASIZE PUSH1 0x4 PUSH2 0x4BCA JUMP JUMPDEST PUSH1 0x0 SWAP1 DUP2 MSTORE PUSH1 0x13 PUSH1 0x20 MSTORE PUSH1 0x40 SWAP1 KECCAK256 PUSH1 0x1 ADD SLOAD SWAP1 JUMP JUMPDEST CALLVALUE DUP1 ISZERO PUSH2 0x69C JUMPI PUSH1 0x0 DUP1 REVERT JUMPDEST POP PUSH2 0x3EC PUSH2 0x6AB CALLDATASIZE PUSH1 0x4 PUSH2 0x4BF8 JUMP JUMPDEST PUSH1 0x9 PUSH1 0x20 MSTORE PUSH1 0x0 SWAP1 DUP2 MSTORE PUSH1 0x40 SWAP1 KECCAK256 SLOAD DUP2 JUMP JUMPDEST CALLVALUE DUP1 ISZERO PUSH2 0x6C9 JUMPI PUSH1 0x0 DUP1 REVERT JUMPDEST POP PUSH2 0x6F3 PUSH2 0x6D8 CALLDATASIZE PUSH1 0x4 PUSH2 0x4BCA JUMP JUMPDEST PUSH1 0x0 SWAP1 DUP2 MSTORE PUSH1 0x13 PUSH1 0x20 MSTORE PUSH1 0x40 SWAP1 KECCAK256 SLOAD PUSH1 0x1 PUSH1 0x1 PUSH1 0xA0 SHL SUB AND SWAP1 JUMP JUMPDEST PUSH1 0x40 MLOAD PUSH1 0x1 PUSH1 0x1 PUSH1 0xA0 SHL SUB SWAP1 SWAP2 AND DUP2 MSTORE PUSH1 0x20 ADD PUSH2 0x3A1 JUMP JUMPDEST CALLVALUE DUP1 ISZERO PUSH2 0x717 JUMPI PUSH1 0x0 DUP1 REVERT JUMPDEST POP PUSH2 0x374 PUSH2 0x726 CALLDATASIZE PUSH1 0x4 PUSH2 0x4FDA JUMP JUMPDEST PUSH2 0x1907 JUMP JUMPDEST CALLVALUE DUP1 ISZERO PUSH2 0x737 JUMPI PUSH1 0x0 DUP1 REVERT JUMPDEST POP PUSH2 0x395 PUSH2 0x746 CALLDATASIZE PUSH1 0x4 PUSH2 0x4BCA JUMP JUMPDEST PUSH1 0x0 SWAP1 DUP2 MSTORE PUSH1 0x16 PUSH1 0x20 SWAP1 DUP2 MSTORE PUSH1 0x40 DUP1 DUP4 KECCAK256 PUSH1 0x1 ADD SLOAD PUSH1 0x19 SWAP1 SWAP3 MSTORE SWAP1 SWAP2 KECCAK256 SLOAD EQ SWAP1 JUMP JUMPDEST CALLVALUE DUP1 ISZERO PUSH2 0x774 JUMPI PUSH1 0x0 DUP1 REVERT JUMPDEST POP PUSH2 0x374 PUSH2 0x783 CALLDATASIZE PUSH1 0x4 PUSH2 0x5033 JUMP JUMPDEST PUSH2 0x1954 JUMP JUMPDEST CALLVALUE DUP1 ISZERO PUSH2 0x794 JUMPI PUSH1 0x0 DUP1 REVERT JUMPDEST POP PUSH2 0x3EC PUSH2 0x7A3 CALLDATASIZE PUSH1 0x4 PUSH2 0x4BCA JUMP JUMPDEST PUSH1 0x0 SWAP1 DUP2 MSTORE PUSH1 0x6 PUSH1 0x20 MSTORE PUSH1 0x40 SWAP1 KECCAK256 PUSH1 0x1 ADD SLOAD SWAP1 JUMP JUMPDEST CALLVALUE DUP1 ISZERO PUSH2 0x7C4 JUMPI PUSH1 0x0 DUP1 REVERT JUMPDEST POP PUSH2 0x374 PUSH2 0x7D3 CALLDATASIZE PUSH1 0x4 PUSH2 0x4FDA JUMP JUMPDEST PUSH2 0x1975 JUMP JUMPDEST CALLVALUE DUP1 ISZERO PUSH2 0x7E4 JUMPI PUSH1 0x0 DUP1 REVERT JUMPDEST POP PUSH2 0x374 PUSH2 0x7F3 CALLDATASIZE PUSH1 0x4 PUSH2 0x4BF8 JUMP JUMPDEST PUSH2 0x1980 JUMP JUMPDEST CALLVALUE DUP1 ISZERO PUSH2 0x804 JUMPI PUSH1 0x0 DUP1 REVERT JUMPDEST POP PUSH2 0x395 PUSH2 0x813 CALLDATASIZE PUSH1 0x4 PUSH2 0x4BF8 JUMP JUMPDEST PUSH2 0x19DE JUMP JUMPDEST CALLVALUE DUP1 ISZERO PUSH2 0x824 JUMPI PUSH1 0x0 DUP1 REVERT JUMPDEST POP PUSH2 0x374 PUSH2 0x833 CALLDATASIZE PUSH1 0x4 PUSH2 0x4BF8 JUMP JUMPDEST PUSH2 0x1A13 JUMP JUMPDEST CALLVALUE DUP1 ISZERO PUSH2 0x844 JUMPI PUSH1 0x0 DUP1 REVERT JUMPDEST POP PUSH2 0x395 PUSH2 0x853 CALLDATASIZE PUSH1 0x4 PUSH2 0x4BCA JUMP JUMPDEST PUSH1 0x0 SWAP1 DUP2 MSTORE PUSH1 0x12 PUSH1 0x20 MSTORE PUSH1 0x40 SWAP1 KECCAK256 SLOAD PUSH1 0xFF AND SWAP1 JUMP JUMPDEST CALLVALUE DUP1 ISZERO PUSH2 0x874 JUMPI PUSH1 0x0 DUP1 REVERT JUMPDEST POP PUSH2 0x395 PUSH2 0x883 CALLDATASIZE PUSH1 0x4 PUSH2 0x4BCA JUMP JUMPDEST PUSH2 0x1A71 JUMP JUMPDEST CALLVALUE DUP1 ISZERO PUSH2 0x894 JUMPI PUSH1 0x0 DUP1 REVERT JUMPDEST POP PUSH2 0x395 PUSH2 0x8A3 CALLDATASIZE PUSH1 0x4 PUSH2 0x4BCA JUMP JUMPDEST PUSH1 0x0 DUP1 SLOAD SWAP2 DUP2 MSTORE PUSH1 0x7 PUSH1 0x20 MSTORE PUSH1 0x40 SWAP1 KECCAK256 SLOAD GT SWAP1 JUMP JUMPDEST CALLVALUE DUP1 ISZERO PUSH2 0x8C4 JUMPI PUSH1 0x0 DUP1 REVERT JUMPDEST POP PUSH2 0x374 PUSH2 0x8D3 CALLDATASIZE PUSH1 0x4 PUSH2 0x50C9 JUMP JUMPDEST PUSH2 0x1AB8 JUMP JUMPDEST CALLVALUE DUP1 ISZERO PUSH2 0x8E4 JUMPI PUSH1 0x0 DUP1 REVERT JUMPDEST POP PUSH2 0x6F3 PUSH2 0x8F3 CALLDATASIZE PUSH1 0x4 PUSH2 0x4BCA JUMP JUMPDEST PUSH1 0x16 PUSH1 0x20 MSTORE PUSH1 0x0 SWAP1 DUP2 MSTORE PUSH1 0x40 SWAP1 KECCAK256 SLOAD PUSH1 0x1 PUSH1 0x1 PUSH1 0xA0 SHL SUB AND DUP2 JUMP JUMPDEST CALLVALUE DUP1 ISZERO PUSH2 0x91A JUMPI PUSH1 0x0 DUP1 REVERT JUMPDEST POP PUSH2 0x395 PUSH2 0x929 CALLDATASIZE PUSH1 0x4 PUSH2 0x4D1C JUMP JUMPDEST PUSH2 0x1AD8 JUMP JUMPDEST CALLVALUE DUP1 ISZERO PUSH2 0x93A JUMPI PUSH1 0x0 DUP1 REVERT JUMPDEST POP PUSH1 0x0 SLOAD PUSH2 0x3EC JUMP JUMPDEST CALLVALUE DUP1 ISZERO PUSH2 0x94F JUMPI PUSH1 0x0 DUP1 REVERT JUMPDEST POP PUSH2 0x374 PUSH2 0x95E CALLDATASIZE PUSH1 0x4 PUSH2 0x4D1C JUMP JUMPDEST PUSH2 0x1B4A JUMP JUMPDEST PUSH2 0x374 PUSH2 0x971 CALLDATASIZE PUSH1 0x4 PUSH2 0x5146 JUMP JUMPDEST PUSH2 0x1B96 JUMP JUMPDEST CALLVALUE DUP1 ISZERO PUSH2 0x982 JUMPI PUSH1 0x0 DUP1 REVERT JUMPDEST POP PUSH2 0x374 PUSH2 0x991 CALLDATASIZE PUSH1 0x4 PUSH2 0x5172 JUMP JUMPDEST PUSH2 0x21FB JUMP JUMPDEST CALLVALUE DUP1 ISZERO PUSH2 0x9A2 JUMPI PUSH1 0x0 DUP1 REVERT JUMPDEST POP PUSH2 0x395 PUSH2 0x9B1 CALLDATASIZE PUSH1 0x4 PUSH2 0x4BCA JUMP JUMPDEST PUSH1 0x0 SWAP1 DUP2 MSTORE PUSH1 0x1C PUSH1 0x20 MSTORE PUSH1 0x40 SWAP1 KECCAK256 SLOAD PUSH1 0xFF AND SWAP1 JUMP JUMPDEST CALLVALUE DUP1 ISZERO PUSH2 0x9D2 JUMPI PUSH1 0x0 DUP1 REVERT JUMPDEST POP PUSH2 0x395 PUSH2 0x9E1 CALLDATASIZE PUSH1 0x4 PUSH2 0x4CE0 JUMP JUMPDEST PUSH2 0x2277 JUMP JUMPDEST CALLVALUE DUP1 ISZERO PUSH2 0x9F2 JUMPI PUSH1 0x0 DUP1 REVERT JUMPDEST POP PUSH2 0xA2B PUSH2 0xA01 CALLDATASIZE PUSH1 0x4 PUSH2 0x4BCA JUMP JUMPDEST PUSH1 0x3 PUSH1 0x20 MSTORE PUSH1 0x0 SWAP1 DUP2 MSTORE PUSH1 0x40 SWAP1 KECCAK256 DUP1 SLOAD PUSH1 0x1 DUP3 ADD SLOAD PUSH1 0x2 SWAP1 SWAP3 ADD SLOAD SWAP1 SWAP2 PUSH1 0x1 PUSH1 0x1 PUSH1 0xA0 SHL SUB AND SWAP1 DUP4 JUMP JUMPDEST PUSH1 0x40 DUP1 MLOAD SWAP4 DUP5 MSTORE PUSH1 0x1 PUSH1 0x1 PUSH1 0xA0 SHL SUB SWAP1 SWAP3 AND PUSH1 0x20 DUP5 ADD MSTORE SWAP1 DUP3 ADD MSTORE PUSH1 0x60 ADD PUSH2 0x3A1 JUMP JUMPDEST CALLVALUE DUP1 ISZERO PUSH2 0xA5A JUMPI PUSH1 0x0 DUP1 REVERT JUMPDEST POP PUSH2 0x3EC PUSH2 0xA69 CALLDATASIZE PUSH1 0x4 PUSH2 0x4BF8 JUMP JUMPDEST PUSH1 0x4 PUSH1 0x20 MSTORE PUSH1 0x0 SWAP1 DUP2 MSTORE PUSH1 0x40 SWAP1 KECCAK256 SLOAD DUP2 JUMP JUMPDEST CALLVALUE DUP1 ISZERO PUSH2 0xA87 JUMPI PUSH1 0x0 DUP1 REVERT JUMPDEST POP PUSH2 0x374 PUSH2 0xA96 CALLDATASIZE PUSH1 0x4 PUSH2 0x51AD JUMP JUMPDEST PUSH2 0x22A7 JUMP JUMPDEST CALLVALUE DUP1 ISZERO PUSH2 0xAA7 JUMPI PUSH1 0x0 DUP1 REVERT JUMPDEST POP PUSH2 0x395 PUSH2 0xAB6 CALLDATASIZE PUSH1 0x4 PUSH2 0x4BCA JUMP JUMPDEST PUSH1 0x0 SWAP1 DUP2 MSTORE PUSH1 0x1B PUSH1 0x20 MSTORE PUSH1 0x40 SWAP1 KECCAK256 SLOAD PUSH1 0xFF AND SWAP1 JUMP JUMPDEST CALLVALUE DUP1 ISZERO PUSH2 0xAD7 JUMPI PUSH1 0x0 DUP1 REVERT JUMPDEST POP PUSH2 0x395 PUSH2 0x2354 JUMP JUMPDEST CALLVALUE DUP1 ISZERO PUSH2 0xAEC JUMPI PUSH1 0x0 DUP1 REVERT JUMPDEST POP PUSH2 0x395 PUSH2 0xAFB CALLDATASIZE PUSH1 0x4 PUSH2 0x4D1C JUMP JUMPDEST PUSH2 0x237E JUMP JUMPDEST CALLVALUE DUP1 ISZERO PUSH2 0xB0C JUMPI PUSH1 0x0 DUP1 REVERT JUMPDEST POP PUSH2 0x395 PUSH2 0xB1B CALLDATASIZE PUSH1 0x4 PUSH2 0x4BF8 JUMP JUMPDEST PUSH2 0x23D4 JUMP JUMPDEST CALLVALUE DUP1 ISZERO PUSH2 0xB2C JUMPI PUSH1 0x0 DUP1 REVERT JUMPDEST POP PUSH2 0x3EC PUSH2 0xB3B CALLDATASIZE PUSH1 0x4 PUSH2 0x4BCA JUMP JUMPDEST PUSH1 0x0 SWAP1 DUP2 MSTORE PUSH1 0x14 PUSH1 0x20 MSTORE PUSH1 0x40 SWAP1 KECCAK256 SLOAD SWAP1 JUMP JUMPDEST CALLVALUE DUP1 ISZERO PUSH2 0xB59 JUMPI PUSH1 0x0 DUP1 REVERT JUMPDEST POP PUSH2 0x395 PUSH2 0xB68 CALLDATASIZE PUSH1 0x4 PUSH2 0x4DB4 JUMP JUMPDEST PUSH1 0x0 SWAP2 DUP3 MSTORE PUSH1 0x16 PUSH1 0x20 MSTORE PUSH1 0x40 SWAP1 SWAP2 KECCAK256 PUSH1 0x1 ADD SLOAD GT SWAP1 JUMP JUMPDEST CALLVALUE DUP1 ISZERO PUSH2 0xB8B JUMPI PUSH1 0x0 DUP1 REVERT JUMPDEST POP PUSH2 0x3EC PUSH2 0xB9A CALLDATASIZE PUSH1 0x4 PUSH2 0x4BCA JUMP JUMPDEST PUSH1 0x0 SWAP1 DUP2 MSTORE PUSH1 0x7 PUSH1 0x20 MSTORE PUSH1 0x40 SWAP1 KECCAK256 SLOAD SWAP1 JUMP JUMPDEST CALLVALUE DUP1 ISZERO PUSH2 0xBB8 JUMPI PUSH1 0x0 DUP1 REVERT JUMPDEST POP PUSH2 0x374 PUSH2 0xBC7 CALLDATASIZE PUSH1 0x4 PUSH2 0x5205 JUMP JUMPDEST PUSH2 0x2406 JUMP JUMPDEST CALLVALUE DUP1 ISZERO PUSH2 0xBD8 JUMPI PUSH1 0x0 DUP1 REVERT JUMPDEST POP PUSH2 0x395 PUSH2 0xBE7 CALLDATASIZE PUSH1 0x4 PUSH2 0x4DB4 JUMP JUMPDEST PUSH2 0x248D JUMP JUMPDEST DUP3 PUSH2 0xBF6 DUP2 PUSH2 0x2277 JUMP JUMPDEST PUSH2 0xC1B JUMPI PUSH1 0x40 MLOAD PUSH3 0x461BCD PUSH1 0xE5 SHL DUP2 MSTORE PUSH1 0x4 ADD PUSH2 0xC12 SWAP1 PUSH2 0x525B JUMP JUMPDEST PUSH1 0x40 MLOAD DUP1 SWAP2 SUB SWAP1 REVERT JUMPDEST PUSH1 0x1 PUSH1 0x1 PUSH1 0xA0 SHL SUB DUP4 AND PUSH1 0x0 SWAP1 DUP2 MSTORE PUSH1 0x9 PUSH1 0x20 MSTORE PUSH1 0x40 DUP2 KECCAK256 DUP1 SLOAD DUP5 SWAP3 SWAP1 PUSH2 0xC43 SWAP1 DUP5 SWAP1 PUSH2 0x528E JUMP JUMPDEST SWAP1 SWAP2 SSTORE POP POP PUSH1 0x1 PUSH1 0x1 PUSH1 0xA0 SHL SUB DUP4 AND PUSH1 0x0 SWAP1 DUP2 MSTORE PUSH1 0xB PUSH1 0x20 MSTORE PUSH1 0x40 DUP2 KECCAK256 DUP1 SLOAD DUP5 SWAP3 SWAP1 PUSH2 0xC70 SWAP1 DUP5 SWAP1 PUSH2 0x528E JUMP JUMPDEST SWAP1 SWAP2 SSTORE POP POP PUSH1 0x40 MLOAD PUSH1 0xF SWAP1 PUSH2 0xC86 SWAP1 DUP7 SWAP1 PUSH2 0x52C5 JUMP JUMPDEST SWAP1 DUP2 MSTORE PUSH1 0x40 DUP1 MLOAD PUSH1 0x20 SWAP3 DUP2 SWAP1 SUB DUP4 ADD SWAP1 KECCAK256 PUSH1 0x1 PUSH1 0x1 PUSH1 0xA0 SHL SUB DUP7 AND PUSH1 0x0 SWAP1 DUP2 MSTORE SWAP3 MSTORE SWAP1 KECCAK256 SLOAD ISZERO DUP1 ISZERO PUSH2 0xCC0 JUMPI POP PUSH1 0x1 PUSH1 0x1 PUSH1 0xA0 SHL SUB DUP4 AND ISZERO ISZERO JUMPDEST ISZERO PUSH2 0xCFA JUMPI PUSH1 0x1 PUSH1 0xE DUP6 PUSH1 0x40 MLOAD PUSH2 0xCD7 SWAP2 SWAP1 PUSH2 0x52C5 JUMP JUMPDEST SWAP1 DUP2 MSTORE PUSH1 0x20 ADD PUSH1 0x40 MLOAD DUP1 SWAP2 SUB SWAP1 KECCAK256 PUSH1 0x0 DUP3 DUP3 SLOAD PUSH2 0xCF4 SWAP2 SWAP1 PUSH2 0x528E JUMP JUMPDEST SWAP1 SWAP2 SSTORE POP POP JUMPDEST DUP2 PUSH1 0xF DUP6 PUSH1 0x40 MLOAD PUSH2 0xD0B SWAP2 SWAP1 PUSH2 0x52C5 JUMP JUMPDEST SWAP1 DUP2 MSTORE PUSH1 0x20 ADD PUSH1 0x40 MLOAD DUP1 SWAP2 SUB SWAP1 KECCAK256 PUSH1 0x0 DUP6 PUSH1 0x1 PUSH1 0x1 PUSH1 0xA0 SHL SUB AND PUSH1 0x1 PUSH1 0x1 PUSH1 0xA0 SHL SUB AND DUP2 MSTORE PUSH1 0x20 ADD SWAP1 DUP2 MSTORE PUSH1 0x20 ADD PUSH1 0x0 KECCAK256 PUSH1 0x0 DUP3 DUP3 SLOAD PUSH2 0xD4B SWAP2 SWAP1 PUSH2 0x528E JUMP JUMPDEST SWAP1 SWAP2 SSTORE POP POP PUSH1 0x40 MLOAD PUSH1 0x0 DUP1 MLOAD PUSH1 0x20 PUSH2 0x5ED2 DUP4 CODECOPY DUP2 MLOAD SWAP2 MSTORE SWAP1 PUSH2 0xD75 SWAP1 DUP7 SWAP1 DUP7 SWAP1 DUP7 SWAP1 PUSH1 0x20 ADD PUSH2 0x530D JUMP JUMPDEST PUSH1 0x40 DUP1 MLOAD PUSH1 0x1F NOT DUP2 DUP5 SUB ADD DUP2 MSTORE SWAP1 DUP3 SWAP1 MSTORE PUSH2 0xD91 SWAP2 CALLER SWAP1 PUSH2 0x533B JUMP JUMPDEST PUSH1 0x40 MLOAD DUP1 SWAP2 SUB SWAP1 LOG1 POP POP POP POP JUMP JUMPDEST PUSH1 0x40 MLOAD DUP1 PUSH1 0x40 ADD PUSH1 0x40 MSTORE DUP1 PUSH1 0x2 DUP2 MSTORE PUSH1 0x20 ADD PUSH2 0x6C45 PUSH1 0xF0 SHL DUP2 MSTORE POP PUSH2 0xDC4 DUP2 CALLER PUSH2 0x237E JUMP JUMPDEST PUSH2 0xDCD JUMPI PUSH1 0x0 DUP1 REVERT JUMPDEST PUSH2 0xDD5 PUSH2 0x24BE JUMP JUMPDEST POP JUMP JUMPDEST PUSH1 0x0 DUP2 DUP2 MSTORE PUSH1 0x3 PUSH1 0x20 MSTORE PUSH1 0x40 SWAP1 KECCAK256 PUSH1 0x1 ADD SLOAD DUP2 SWAP1 PUSH1 0x1 PUSH1 0x1 PUSH1 0xA0 SHL SUB AND CALLER EQ PUSH2 0xE13 JUMPI PUSH1 0x40 MLOAD PUSH3 0x461BCD PUSH1 0xE5 SHL DUP2 MSTORE PUSH1 0x4 ADD PUSH2 0xC12 SWAP1 PUSH2 0x537E JUMP JUMPDEST DUP2 PUSH2 0xE2D DUP2 PUSH1 0x0 DUP1 SLOAD SWAP2 DUP2 MSTORE PUSH1 0x7 PUSH1 0x20 MSTORE PUSH1 0x40 SWAP1 KECCAK256 SLOAD GT SWAP1 JUMP JUMPDEST PUSH2 0xE49 JUMPI PUSH1 0x40 MLOAD PUSH3 0x461BCD PUSH1 0xE5 SHL DUP2 MSTORE PUSH1 0x4 ADD PUSH2 0xC12 SWAP1 PUSH2 0x539A JUMP JUMPDEST PUSH1 0x1 PUSH1 0x0 DUP5 DUP2 MSTORE PUSH1 0x5 PUSH1 0x20 MSTORE PUSH1 0x40 SWAP1 KECCAK256 SLOAD PUSH1 0xFF AND PUSH1 0x2 DUP2 GT ISZERO PUSH2 0xE6E JUMPI PUSH2 0xE6E PUSH2 0x53B6 JUMP JUMPDEST EQ PUSH2 0xEA0 JUMPI PUSH1 0x40 MLOAD PUSH3 0x461BCD PUSH1 0xE5 SHL DUP2 MSTORE PUSH1 0x20 PUSH1 0x4 DUP3 ADD MSTORE PUSH1 0x2 PUSH1 0x24 DUP3 ADD MSTORE PUSH2 0x4E53 PUSH1 0xF0 SHL PUSH1 0x44 DUP3 ADD MSTORE PUSH1 0x64 ADD PUSH2 0xC12 JUMP JUMPDEST PUSH2 0xEA9 DUP4 PUSH2 0x2510 JUMP JUMPDEST POP POP POP JUMP JUMPDEST PUSH2 0xEB6 PUSH2 0x2354 JUMP JUMPDEST PUSH2 0xEE7 JUMPI PUSH1 0x40 MLOAD PUSH3 0x461BCD PUSH1 0xE5 SHL DUP2 MSTORE PUSH1 0x20 PUSH1 0x4 DUP3 ADD MSTORE PUSH1 0x2 PUSH1 0x24 DUP3 ADD MSTORE PUSH2 0xAE9 PUSH1 0xF3 SHL PUSH1 0x44 DUP3 ADD MSTORE PUSH1 0x64 ADD PUSH2 0xC12 JUMP JUMPDEST PUSH1 0x1 PUSH1 0x1 PUSH1 0xA0 SHL SUB DUP2 AND PUSH1 0x0 SWAP1 DUP2 MSTORE PUSH1 0xB PUSH1 0x20 MSTORE PUSH1 0x40 SWAP1 KECCAK256 SLOAD PUSH2 0xF30 JUMPI PUSH1 0x40 MLOAD PUSH3 0x461BCD PUSH1 0xE5 SHL DUP2 MSTORE PUSH1 0x20 PUSH1 0x4 DUP3 ADD MSTORE PUSH1 0x1 PUSH1 0x24 DUP3 ADD MSTORE PUSH1 0x45 PUSH1 0xF8 SHL PUSH1 0x44 DUP3 ADD MSTORE PUSH1 0x64 ADD PUSH2 0xC12 JUMP JUMPDEST PUSH2 0xF84 DUP2 PUSH1 0xB PUSH1 0x0 DUP5 PUSH1 0x1 PUSH1 0x1 PUSH1 0xA0 SHL SUB AND PUSH1 0x1 PUSH1 0x1 PUSH1 0xA0 SHL SUB AND DUP2 MSTORE PUSH1 0x20 ADD SWAP1 DUP2 MSTORE PUSH1 0x20 ADD PUSH1 0x0 KECCAK256 SLOAD PUSH20 0x49A71890AEA5A751E30E740C504F2E9683F347BC PUSH1 0x40 MLOAD DUP1 PUSH1 0x20 ADD PUSH1 0x40 MSTORE DUP1 PUSH1 0x0 DUP2 MSTORE POP PUSH2 0x25BA JUMP JUMPDEST PUSH1 0x1 PUSH1 0x1 PUSH1 0xA0 SHL SUB AND PUSH1 0x0 SWAP1 DUP2 MSTORE PUSH1 0xB PUSH1 0x20 MSTORE PUSH1 0x40 DUP2 KECCAK256 SSTORE JUMP JUMPDEST PUSH1 0x0 PUSH1 0xE DUP3 PUSH1 0x40 MLOAD PUSH2 0xFB0 SWAP2 SWAP1 PUSH2 0x52C5 JUMP JUMPDEST SWAP1 DUP2 MSTORE PUSH1 0x20 ADD PUSH1 0x40 MLOAD DUP1 SWAP2 SUB SWAP1 KECCAK256 SLOAD PUSH1 0x0 EQ DUP1 ISZERO PUSH2 0xFF6 JUMPI POP PUSH1 0xF DUP3 PUSH1 0x40 MLOAD PUSH2 0xFD9 SWAP2 SWAP1 PUSH2 0x52C5 JUMP JUMPDEST SWAP1 DUP2 MSTORE PUSH1 0x40 DUP1 MLOAD PUSH1 0x20 SWAP3 DUP2 SWAP1 SUB DUP4 ADD SWAP1 KECCAK256 PUSH1 0x0 DUP1 DUP1 MSTORE SWAP3 MSTORE SWAP1 KECCAK256 SLOAD ISZERO JUMPDEST SWAP3 SWAP2 POP POP JUMP JUMPDEST PUSH1 0x40 MLOAD DUP1 PUSH1 0x40 ADD PUSH1 0x40 MSTORE DUP1 PUSH1 0x2 DUP2 MSTORE PUSH1 0x20 ADD PUSH2 0x1B51 PUSH1 0xF2 SHL DUP2 MSTORE POP PUSH2 0x1021 DUP2 CALLER PUSH2 0x237E JUMP JUMPDEST PUSH2 0x102A JUMPI PUSH1 0x0 DUP1 REVERT JUMPDEST PUSH2 0x1033 DUP3 PUSH2 0x2848 JUMP JUMPDEST POP POP JUMP JUMPDEST PUSH1 0x0 PUSH1 0x2 PUSH1 0x11 DUP5 PUSH1 0x40 MLOAD PUSH2 0x104B SWAP2 SWAP1 PUSH2 0x52C5 JUMP JUMPDEST SWAP1 DUP2 MSTORE PUSH1 0x40 DUP1 MLOAD PUSH1 0x20 SWAP3 DUP2 SWAP1 SUB DUP4 ADD SWAP1 KECCAK256 PUSH1 0x1 PUSH1 0x1 PUSH1 0xA0 SHL SUB DUP7 AND PUSH1 0x0 SWAP1 DUP2 MSTORE SWAP3 MSTORE SWAP1 KECCAK256 SLOAD PUSH1 0xFF AND PUSH1 0x2 DUP2 GT ISZERO PUSH2 0x1084 JUMPI PUSH2 0x1084 PUSH2 0x53B6 JUMP JUMPDEST EQ SWAP4 SWAP3 POP POP POP JUMP JUMPDEST PUSH1 0x0 DUP4 DUP2 MSTORE PUSH1 0x3 PUSH1 0x20 MSTORE PUSH1 0x40 SWAP1 KECCAK256 PUSH1 0x1 ADD SLOAD DUP4 SWAP1 PUSH1 0x1 PUSH1 0x1 PUSH1 0xA0 SHL SUB AND CALLER EQ PUSH2 0x10C7 JUMPI PUSH1 0x40 MLOAD PUSH3 0x461BCD PUSH1 0xE5 SHL DUP2 MSTORE PUSH1 0x4 ADD PUSH2 0xC12 SWAP1 PUSH2 0x537E JUMP JUMPDEST PUSH1 0x0 DUP4 DUP2 MSTORE PUSH1 0x1B PUSH1 0x20 MSTORE PUSH1 0x40 SWAP1 KECCAK256 SLOAD DUP4 SWAP1 PUSH1 0xFF AND PUSH2 0x110D JUMPI PUSH1 0x40 MLOAD PUSH3 0x461BCD PUSH1 0xE5 SHL DUP2 MSTORE PUSH1 0x20 PUSH1 0x4 DUP3 ADD MSTORE PUSH1 0x3 PUSH1 0x24 DUP3 ADD MSTORE PUSH3 0x524E5 PUSH1 0xEC SHL PUSH1 0x44 DUP3 ADD MSTORE PUSH1 0x64 ADD PUSH2 0xC12 JUMP JUMPDEST PUSH1 0x1 DUP1 SLOAD PUSH1 0xFF AND ISZERO ISZERO EQ PUSH2 0x1133 JUMPI PUSH1 0x40 MLOAD PUSH3 0x461BCD PUSH1 0xE5 SHL DUP2 MSTORE PUSH1 0x4 ADD PUSH2 0xC12 SWAP1 PUSH2 0x53CC JUMP JUMPDEST PUSH1 0x0 DUP5 DUP2 MSTORE PUSH1 0x1A PUSH1 0x20 SWAP1 DUP2 MSTORE PUSH1 0x40 DUP1 DUP4 KECCAK256 CALLER DUP5 MSTORE PUSH1 0x4 DUP4 MSTORE DUP2 DUP5 KECCAK256 SLOAD DUP5 MSTORE SWAP1 SWAP2 MSTORE SWAP1 KECCAK256 SLOAD PUSH1 0xFF AND ISZERO PUSH2 0x1164 JUMPI PUSH1 0x0 DUP1 REVERT JUMPDEST PUSH2 0x116E DUP6 DUP6 PUSH2 0x248D JUMP JUMPDEST PUSH2 0x11A0 JUMPI PUSH1 0x40 MLOAD PUSH3 0x461BCD PUSH1 0xE5 SHL DUP2 MSTORE PUSH1 0x20 PUSH1 0x4 DUP3 ADD MSTORE PUSH1 0x3 PUSH1 0x24 DUP3 ADD MSTORE PUSH3 0x29A72B PUSH1 0xE9 SHL PUSH1 0x44 DUP3 ADD MSTORE PUSH1 0x64 ADD PUSH2 0xC12 JUMP JUMPDEST PUSH1 0x0 DUP5 DUP2 MSTORE PUSH1 0x1A PUSH1 0x20 SWAP1 DUP2 MSTORE PUSH1 0x40 DUP1 DUP4 KECCAK256 DUP9 DUP5 MSTORE SWAP1 SWAP2 MSTORE SWAP1 KECCAK256 DUP1 SLOAD PUSH1 0xFF NOT AND PUSH1 0x1 OR SWAP1 SSTORE DUP3 ISZERO PUSH2 0x11FD JUMPI PUSH1 0x0 DUP6 DUP2 MSTORE PUSH1 0x3 PUSH1 0x20 SWAP1 DUP2 MSTORE PUSH1 0x40 DUP1 DUP4 KECCAK256 SLOAD DUP8 DUP5 MSTORE PUSH1 0x17 SWAP1 SWAP3 MSTORE DUP3 KECCAK256 DUP1 SLOAD SWAP2 SWAP3 SWAP1 SWAP2 PUSH2 0x11F7 SWAP1 DUP5 SWAP1 PUSH2 0x528E JUMP JUMPDEST SWAP1 SWAP2 SSTORE POP POP JUMPDEST PUSH1 0x0 DUP6 DUP2 MSTORE PUSH1 0x3 PUSH1 0x20 SWAP1 DUP2 MSTORE PUSH1 0x40 DUP1 DUP4 KECCAK256 SLOAD DUP8 DUP5 MSTORE PUSH1 0x18 SWAP1 SWAP3 MSTORE DUP3 KECCAK256 DUP1 SLOAD SWAP2 SWAP3 SWAP1 SWAP2 PUSH2 0x122A SWAP1 DUP5 SWAP1 PUSH2 0x528E JUMP JUMPDEST SWAP1 SWAP2 SSTORE POP POP PUSH1 0x40 DUP1 MLOAD DUP6 DUP2 MSTORE DUP5 ISZERO ISZERO PUSH1 0x20 DUP3 ADD MSTORE CALLER DUP2 DUP4 ADD MSTORE SWAP1 MLOAD PUSH32 0x4A341F5494C396C29C9E30033EC7900B3B51340AC726DC58726E583EA2ACEEB2 SWAP2 DUP2 SWAP1 SUB PUSH1 0x60 ADD SWAP1 LOG1 PUSH1 0x0 PUSH2 0x127A DUP6 PUSH2 0x1A71 JUMP JUMPDEST SWAP1 POP DUP1 DUP1 PUSH2 0x12A0 JUMPI POP PUSH1 0x0 DUP6 DUP2 MSTORE PUSH1 0x2 PUSH1 0x20 SWAP1 DUP2 MSTORE PUSH1 0x40 DUP1 DUP4 KECCAK256 SLOAD PUSH1 0x18 SWAP1 SWAP3 MSTORE SWAP1 SWAP2 KECCAK256 SLOAD EQ JUMPDEST ISZERO PUSH2 0x1310 JUMPI PUSH1 0x0 DUP6 DUP2 MSTORE PUSH1 0x1B PUSH1 0x20 MSTORE PUSH1 0x40 SWAP1 KECCAK256 DUP1 SLOAD PUSH1 0xFF NOT AND SWAP1 SSTORE DUP1 ISZERO PUSH2 0x12DB JUMPI PUSH1 0x0 DUP6 DUP2 MSTORE PUSH1 0x1C PUSH1 0x20 MSTORE PUSH1 0x40 SWAP1 KECCAK256 DUP1 SLOAD PUSH1 0xFF NOT AND PUSH1 0x1 OR SWAP1 SSTORE JUMPDEST PUSH1 0x40 MLOAD DUP6 DUP2 MSTORE PUSH32 0xB7AF3044D10DC1BE59F482D5C460C7C711F80137A36184CDF4F49D973E95ACB1 SWAP1 PUSH1 0x20 ADD JUMPDEST PUSH1 0x40 MLOAD DUP1 SWAP2 SUB SWAP1 LOG1 JUMPDEST POP POP POP POP POP POP JUMP JUMPDEST PUSH1 0x0 PUSH1 0xF DUP4 PUSH1 0x40 MLOAD PUSH2 0x132A SWAP2 SWAP1 PUSH2 0x52C5 JUMP JUMPDEST SWAP1 DUP2 MSTORE PUSH1 0x40 DUP1 MLOAD SWAP2 DUP3 SWAP1 SUB PUSH1 0x20 SWAP1 DUP2 ADD SWAP1 SWAP3 KECCAK256 PUSH1 0x1 PUSH1 0x1 PUSH1 0xA0 SHL SUB DUP6 AND PUSH1 0x0 SWAP1 DUP2 MSTORE SWAP3 MSTORE SWAP1 KECCAK256 SLOAD SWAP1 POP SWAP3 SWAP2 POP POP JUMP JUMPDEST PUSH1 0x40 MLOAD DUP1 PUSH1 0x40 ADD PUSH1 0x40 MSTORE DUP1 PUSH1 0x2 DUP2 MSTORE PUSH1 0x20 ADD PUSH2 0x36A1 PUSH1 0xF1 SHL DUP2 MSTORE POP PUSH2 0x137E DUP2 CALLER PUSH2 0x237E JUMP JUMPDEST PUSH2 0x1387 JUMPI PUSH1 0x0 DUP1 REVERT JUMPDEST PUSH1 0x1 DUP1 SLOAD PUSH1 0xFF AND ISZERO ISZERO EQ PUSH2 0x13AD JUMPI PUSH1 0x40 MLOAD PUSH3 0x461BCD PUSH1 0xE5 SHL DUP2 MSTORE PUSH1 0x4 ADD PUSH2 0xC12 SWAP1 PUSH2 0x53CC JUMP JUMPDEST PUSH2 0xEA9 DUP4 DUP4 PUSH2 0x2933 JUMP JUMPDEST PUSH1 0x40 MLOAD DUP1 PUSH1 0x40 ADD PUSH1 0x40 MSTORE DUP1 PUSH1 0x2 DUP2 MSTORE PUSH1 0x20 ADD PUSH2 0x36A1 PUSH1 0xF1 SHL DUP2 MSTORE POP PUSH2 0x13DC DUP2 CALLER PUSH2 0x1037 JUMP JUMPDEST PUSH2 0x13E5 JUMPI PUSH1 0x0 DUP1 REVERT JUMPDEST DUP3 PUSH2 0x13F0 DUP2 CALLER PUSH2 0x1AD8 JUMP JUMPDEST PUSH2 0x13F9 JUMPI PUSH1 0x0 DUP1 REVERT JUMPDEST PUSH2 0x1403 DUP5 DUP5 PUSH2 0x2A45 JUMP JUMPDEST POP POP POP POP JUMP JUMPDEST PUSH2 0x1412 CALLER PUSH2 0x23D4 JUMP JUMPDEST PUSH2 0x1443 JUMPI PUSH1 0x40 MLOAD PUSH3 0x461BCD PUSH1 0xE5 SHL DUP2 MSTORE PUSH1 0x20 PUSH1 0x4 DUP3 ADD MSTORE PUSH1 0x2 PUSH1 0x24 DUP3 ADD MSTORE PUSH2 0xAA9 PUSH1 0xF3 SHL PUSH1 0x44 DUP3 ADD MSTORE PUSH1 0x64 ADD PUSH2 0xC12 JUMP JUMPDEST PUSH1 0x1 SLOAD PUSH1 0xFF AND ISZERO PUSH2 0x147B JUMPI PUSH1 0x40 MLOAD PUSH3 0x461BCD PUSH1 0xE5 SHL DUP2 MSTORE PUSH1 0x20 PUSH1 0x4 DUP3 ADD MSTORE PUSH1 0x2 PUSH1 0x24 DUP3 ADD MSTORE PUSH2 0x5341 PUSH1 0xF0 SHL PUSH1 0x44 DUP3 ADD MSTORE PUSH1 0x64 ADD PUSH2 0xC12 JUMP JUMPDEST CALLER PUSH1 0x0 SWAP1 DUP2 MSTORE PUSH1 0x4 PUSH1 0x20 SWAP1 DUP2 MSTORE PUSH1 0x40 DUP1 DUP4 KECCAK256 SLOAD PUSH1 0x1 PUSH1 0x1 PUSH1 0xA0 SHL SUB DUP6 AND DUP5 MSTORE PUSH1 0xC DUP4 MSTORE DUP2 DUP5 KECCAK256 DUP2 DUP6 MSTORE SWAP1 SWAP3 MSTORE SWAP1 SWAP2 KECCAK256 SLOAD PUSH1 0xFF AND ISZERO PUSH2 0x14E0 JUMPI PUSH1 0x40 MLOAD PUSH3 0x461BCD PUSH1 0xE5 SHL DUP2 MSTORE PUSH1 0x20 PUSH1 0x4 DUP3 ADD MSTORE PUSH1 0x2 PUSH1 0x24 DUP3 ADD MSTORE PUSH2 0x4143 PUSH1 0xF0 SHL PUSH1 0x44 DUP3 ADD MSTORE PUSH1 0x64 ADD PUSH2 0xC12 JUMP JUMPDEST PUSH1 0x1 PUSH1 0x1 PUSH1 0xA0 SHL SUB DUP3 AND PUSH1 0x0 DUP2 DUP2 MSTORE PUSH1 0xC PUSH1 0x20 SWAP1 DUP2 MSTORE PUSH1 0x40 DUP1 DUP4 KECCAK256 DUP6 DUP5 MSTORE DUP3 MSTORE DUP1 DUP4 KECCAK256 DUP1 SLOAD PUSH1 0xFF NOT AND PUSH1 0x1 OR SWAP1 SSTORE DUP3 SLOAD DUP4 MSTORE PUSH1 0x2 DUP3 MSTORE DUP1 DUP4 KECCAK256 SLOAD DUP6 DUP5 MSTORE PUSH1 0x3 DUP4 MSTORE DUP2 DUP5 KECCAK256 SLOAD SWAP5 DUP5 MSTORE PUSH1 0x9 SWAP1 SWAP3 MSTORE DUP3 KECCAK256 SLOAD SWAP2 SWAP3 SWAP1 SWAP2 PUSH2 0x153E SWAP2 SWAP1 PUSH2 0x53E8 JUMP JUMPDEST PUSH2 0x1548 SWAP2 SWAP1 PUSH2 0x53FF JUMP JUMPDEST SWAP1 POP DUP1 PUSH1 0x0 SUB PUSH2 0x157E JUMPI PUSH1 0x40 MLOAD PUSH3 0x461BCD PUSH1 0xE5 SHL DUP2 MSTORE PUSH1 0x20 PUSH1 0x4 DUP3 ADD MSTORE PUSH1 0x1 PUSH1 0x24 DUP3 ADD MSTORE PUSH1 0x45 PUSH1 0xF8 SHL PUSH1 0x44 DUP3 ADD MSTORE PUSH1 0x64 ADD PUSH2 0xC12 JUMP JUMPDEST PUSH1 0x1 PUSH1 0x1 PUSH1 0xA0 SHL SUB DUP4 AND PUSH1 0x0 SWAP1 DUP2 MSTORE PUSH1 0xB PUSH1 0x20 MSTORE PUSH1 0x40 DUP2 KECCAK256 DUP1 SLOAD DUP4 SWAP3 SWAP1 PUSH2 0x15A6 SWAP1 DUP5 SWAP1 PUSH2 0x5421 JUMP JUMPDEST SWAP3 POP POP DUP2 SWAP1 SSTORE POP PUSH2 0xEA9 DUP4 DUP3 CALLER PUSH1 0x40 MLOAD DUP1 PUSH1 0x20 ADD PUSH1 0x40 MSTORE DUP1 PUSH1 0x0 DUP2 MSTORE POP PUSH2 0x25BA JUMP JUMPDEST PUSH1 0x0 DUP3 DUP2 MSTORE PUSH1 0x3 PUSH1 0x20 MSTORE PUSH1 0x40 SWAP1 KECCAK256 PUSH1 0x1 ADD SLOAD DUP3 SWAP1 PUSH1 0x1 PUSH1 0x1 PUSH1 0xA0 SHL SUB AND CALLER EQ PUSH2 0x1603 JUMPI PUSH1 0x40 MLOAD PUSH3 0x461BCD PUSH1 0xE5 SHL DUP2 MSTORE PUSH1 0x4 ADD PUSH2 0xC12 SWAP1 PUSH2 0x537E JUMP JUMPDEST PUSH1 0x0 DUP3 DUP2 MSTORE PUSH1 0x12 PUSH1 0x20 MSTORE PUSH1 0x40 SWAP1 KECCAK256 SLOAD DUP3 SWAP1 PUSH1 0xFF AND PUSH2 0x1620 JUMPI PUSH1 0x0 DUP1 REVERT JUMPDEST PUSH1 0x1 DUP1 SLOAD PUSH1 0xFF AND ISZERO ISZERO EQ PUSH2 0x1646 JUMPI PUSH1 0x40 MLOAD PUSH3 0x461BCD PUSH1 0xE5 SHL DUP2 MSTORE PUSH1 0x4 ADD PUSH2 0xC12 SWAP1 PUSH2 0x53CC JUMP JUMPDEST PUSH2 0x1650 DUP5 DUP5 PUSH2 0x248D JUMP JUMPDEST PUSH2 0x1682 JUMPI PUSH1 0x40 MLOAD PUSH3 0x461BCD PUSH1 0xE5 SHL DUP2 MSTORE PUSH1 0x20 PUSH1 0x4 DUP3 ADD MSTORE PUSH1 0x3 PUSH1 0x24 DUP3 ADD MSTORE PUSH3 0x2720A3 PUSH1 0xE9 SHL PUSH1 0x44 DUP3 ADD MSTORE PUSH1 0x64 ADD PUSH2 0xC12 JUMP JUMPDEST PUSH1 0x0 DUP4 DUP2 MSTORE PUSH1 0x15 PUSH1 0x20 SWAP1 DUP2 MSTORE PUSH1 0x40 DUP1 DUP4 KECCAK256 DUP8 DUP5 MSTORE SWAP1 SWAP2 MSTORE SWAP1 KECCAK256 SLOAD PUSH1 0xFF AND ISZERO PUSH2 0x16D1 JUMPI PUSH1 0x40 MLOAD PUSH3 0x461BCD PUSH1 0xE5 SHL DUP2 MSTORE PUSH1 0x20 PUSH1 0x4 DUP3 ADD MSTORE PUSH1 0x2 PUSH1 0x24 DUP3 ADD MSTORE PUSH2 0x4143 PUSH1 0xF0 SHL PUSH1 0x44 DUP3 ADD MSTORE PUSH1 0x64 ADD PUSH2 0xC12 JUMP JUMPDEST PUSH1 0x0 DUP4 DUP2 MSTORE PUSH1 0x15 PUSH1 0x20 SWAP1 DUP2 MSTORE PUSH1 0x40 DUP1 DUP4 KECCAK256 DUP8 DUP5 MSTORE DUP3 MSTORE DUP1 DUP4 KECCAK256 DUP1 SLOAD PUSH1 0xFF NOT AND PUSH1 0x1 SWAP1 DUP2 OR SWAP1 SWAP2 SSTORE DUP4 SLOAD DUP5 MSTORE PUSH1 0x2 DUP4 MSTORE DUP2 DUP5 KECCAK256 SLOAD DUP9 DUP6 MSTORE PUSH1 0x3 DUP5 MSTORE DUP3 DUP6 KECCAK256 SLOAD DUP9 DUP7 MSTORE PUSH1 0x13 SWAP1 SWAP5 MSTORE SWAP2 DUP5 KECCAK256 ADD SLOAD SWAP1 SWAP2 PUSH2 0x1727 SWAP2 PUSH2 0x53E8 JUMP JUMPDEST PUSH2 0x1731 SWAP2 SWAP1 PUSH2 0x53FF JUMP JUMPDEST SWAP1 POP DUP1 PUSH1 0x0 SUB PUSH2 0x1769 JUMPI PUSH1 0x40 MLOAD PUSH3 0x461BCD PUSH1 0xE5 SHL DUP2 MSTORE PUSH1 0x20 PUSH1 0x4 DUP3 ADD MSTORE PUSH1 0x3 PUSH1 0x24 DUP3 ADD MSTORE PUSH3 0x445453 PUSH1 0xE8 SHL PUSH1 0x44 DUP3 ADD MSTORE PUSH1 0x64 ADD PUSH2 0xC12 JUMP JUMPDEST PUSH1 0x0 DUP5 DUP2 MSTORE PUSH1 0x14 PUSH1 0x20 MSTORE PUSH1 0x40 DUP2 KECCAK256 DUP1 SLOAD DUP4 SWAP3 SWAP1 PUSH2 0x1787 SWAP1 DUP5 SWAP1 PUSH2 0x5421 JUMP JUMPDEST SWAP1 SWAP2 SSTORE POP POP PUSH1 0x0 DUP5 DUP2 MSTORE PUSH1 0x13 PUSH1 0x20 SWAP1 DUP2 MSTORE PUSH1 0x40 DUP1 DUP4 KECCAK256 SLOAD DUP2 MLOAD SWAP3 DUP4 ADD SWAP1 SWAP2 MSTORE SWAP2 DUP2 MSTORE PUSH2 0x17C0 SWAP2 PUSH1 0x1 PUSH1 0x1 PUSH1 0xA0 SHL SUB AND SWAP1 DUP4 SWAP1 CALLER SWAP1 PUSH2 0x25BA JUMP JUMPDEST PUSH1 0x40 DUP1 MLOAD DUP6 DUP2 MSTORE PUSH1 0x20 DUP2 ADD DUP4 SWAP1 MSTORE CALLER SWAP2 DUP2 ADD SWAP2 SWAP1 SWAP2 MSTORE PUSH32 0x67DD3D116BF53E0DDDA53BB148A5FDC129854E1C507C0EEDA9190049A9BBC84F SWAP1 PUSH1 0x60 ADD JUMPDEST PUSH1 0x40 MLOAD DUP1 SWAP2 SUB SWAP1 LOG1 POP POP POP POP POP JUMP JUMPDEST PUSH1 0x40 MLOAD DUP1 PUSH1 0x40 ADD PUSH1 0x40 MSTORE DUP1 PUSH1 0x2 DUP2 MSTORE PUSH1 0x20 ADD PUSH2 0x34A9 PUSH1 0xF1 SHL DUP2 MSTORE POP PUSH2 0x1830 DUP2 CALLER PUSH2 0x237E JUMP JUMPDEST PUSH2 0x1839 JUMPI PUSH1 0x0 DUP1 REVERT JUMPDEST PUSH2 0xEA9 DUP4 DUP4 PUSH2 0x2B01 JUMP JUMPDEST PUSH1 0x40 MLOAD DUP1 PUSH1 0x40 ADD PUSH1 0x40 MSTORE DUP1 PUSH1 0x2 DUP2 MSTORE PUSH1 0x20 ADD PUSH2 0x36A1 PUSH1 0xF1 SHL DUP2 MSTORE POP PUSH2 0x1868 DUP2 CALLER PUSH2 0x1037 JUMP JUMPDEST PUSH2 0x1871 JUMPI PUSH1 0x0 DUP1 REVERT JUMPDEST DUP2 PUSH2 0x187C DUP2 CALLER PUSH2 0x1AD8 JUMP JUMPDEST PUSH2 0x1885 JUMPI PUSH1 0x0 DUP1 REVERT JUMPDEST PUSH2 0xEA9 DUP4 PUSH2 0x2C8A JUMP JUMPDEST PUSH1 0x40 MLOAD DUP1 PUSH1 0x40 ADD PUSH1 0x40 MSTORE DUP1 PUSH1 0x2 DUP2 MSTORE PUSH1 0x20 ADD PUSH2 0x6953 PUSH1 0xF0 SHL DUP2 MSTORE POP PUSH2 0x18B3 DUP2 CALLER PUSH2 0x237E JUMP JUMPDEST PUSH2 0x18BC JUMPI PUSH1 0x0 DUP1 REVERT JUMPDEST PUSH2 0x18C8 DUP6 DUP6 DUP6 DUP6 PUSH2 0x2E0F JUMP JUMPDEST POP POP POP POP POP JUMP JUMPDEST PUSH1 0x40 MLOAD DUP1 PUSH1 0x40 ADD PUSH1 0x40 MSTORE DUP1 PUSH1 0x2 DUP2 MSTORE PUSH1 0x20 ADD PUSH2 0x695 PUSH1 0xF4 SHL DUP2 MSTORE POP PUSH2 0x18F4 DUP2 CALLER PUSH2 0x237E JUMP JUMPDEST PUSH2 0x18FD JUMPI PUSH1 0x0 DUP1 REVERT JUMPDEST PUSH2 0xEA9 DUP4 DUP4 PUSH2 0x2E76 JUMP JUMPDEST PUSH1 0x40 MLOAD DUP1 PUSH1 0x40 ADD PUSH1 0x40 MSTORE DUP1 PUSH1 0x2 DUP2 MSTORE PUSH1 0x20 ADD PUSH2 0x1B51 PUSH1 0xF2 SHL DUP2 MSTORE POP PUSH2 0x192C DUP2 CALLER PUSH2 0x237E JUMP JUMPDEST PUSH2 0x1935 JUMPI PUSH1 0x0 DUP1 REVERT JUMPDEST DUP4 PUSH2 0x1940 DUP2 CALLER PUSH2 0x1AD8 JUMP JUMPDEST PUSH2 0x1949 JUMPI PUSH1 0x0 DUP1 REVERT JUMPDEST PUSH2 0x18C8 DUP6 DUP6 DUP6 PUSH2 0x3740 JUMP JUMPDEST DUP5 PUSH2 0x195F DUP2 CALLER PUSH2 0x1AD8 JUMP JUMPDEST PUSH2 0x1968 JUMPI PUSH1 0x0 DUP1 REVERT JUMPDEST PUSH2 0x1310 DUP7 DUP7 DUP7 DUP7 DUP7 PUSH2 0x3969 JUMP JUMPDEST PUSH2 0xEA9 DUP4 DUP4 DUP4 PUSH2 0x39FC JUMP JUMPDEST PUSH1 0x40 MLOAD DUP1 PUSH1 0x40 ADD PUSH1 0x40 MSTORE DUP1 PUSH1 0x3 DUP2 MSTORE PUSH1 0x20 ADD PUSH3 0x1B5055 PUSH1 0xEA SHL DUP2 MSTORE POP PUSH2 0x19A6 DUP2 CALLER PUSH2 0x237E JUMP JUMPDEST PUSH2 0x19AF JUMPI PUSH1 0x0 DUP1 REVERT JUMPDEST PUSH1 0x1 DUP1 SLOAD PUSH1 0xFF AND ISZERO ISZERO EQ PUSH2 0x19D5 JUMPI PUSH1 0x40 MLOAD PUSH3 0x461BCD PUSH1 0xE5 SHL DUP2 MSTORE PUSH1 0x4 ADD PUSH2 0xC12 SWAP1 PUSH2 0x53CC JUMP JUMPDEST PUSH2 0x1033 DUP3 PUSH2 0x3B8A JUMP JUMPDEST PUSH1 0x1 PUSH1 0x1 PUSH1 0xA0 SHL SUB DUP2 AND PUSH1 0x0 SWAP1 DUP2 MSTORE PUSH1 0x8 PUSH1 0x20 MSTORE PUSH1 0x40 DUP2 KECCAK256 SLOAD PUSH1 0xFF AND ISZERO ISZERO PUSH1 0x1 EQ DUP1 PUSH2 0xFF6 JUMPI POP POP PUSH1 0x1 PUSH1 0x1 PUSH1 0xA0 SHL SUB AND ISZERO SWAP1 JUMP JUMPDEST PUSH1 0x40 MLOAD DUP1 PUSH1 0x40 ADD PUSH1 0x40 MSTORE DUP1 PUSH1 0x3 DUP2 MSTORE PUSH1 0x20 ADD PUSH3 0x1B5055 PUSH1 0xEA SHL DUP2 MSTORE POP PUSH2 0x1A39 DUP2 CALLER PUSH2 0x237E JUMP JUMPDEST PUSH2 0x1A42 JUMPI PUSH1 0x0 DUP1 REVERT JUMPDEST PUSH1 0x1 DUP1 SLOAD PUSH1 0xFF AND ISZERO ISZERO EQ PUSH2 0x1A68 JUMPI PUSH1 0x40 MLOAD PUSH3 0x461BCD PUSH1 0xE5 SHL DUP2 MSTORE PUSH1 0x4 ADD PUSH2 0xC12 SWAP1 PUSH2 0x53CC JUMP JUMPDEST PUSH2 0x1033 DUP3 PUSH2 0x3BD3 JUMP JUMPDEST PUSH1 0x0 DUP2 DUP2 MSTORE PUSH1 0x2 PUSH1 0x20 SWAP1 DUP2 MSTORE PUSH1 0x40 DUP1 DUP4 KECCAK256 SLOAD PUSH1 0x17 SWAP1 SWAP3 MSTORE DUP3 KECCAK256 SLOAD PUSH1 0x1 SWAP2 PUSH2 0x1A97 SWAP2 PUSH2 0x53FF JUMP JUMPDEST PUSH2 0x1AA2 SWAP1 PUSH1 0x2 PUSH2 0x53E8 JUMP JUMPDEST GT ISZERO PUSH2 0x1AB0 JUMPI POP PUSH1 0x1 SWAP2 SWAP1 POP JUMP JUMPDEST POP PUSH1 0x0 SWAP2 SWAP1 POP JUMP JUMPDEST DUP4 PUSH2 0x1AC3 DUP2 CALLER PUSH2 0x1AD8 JUMP JUMPDEST PUSH2 0x1ACC JUMPI PUSH1 0x0 DUP1 REVERT JUMPDEST PUSH2 0x18C8 DUP6 DUP6 DUP6 DUP6 PUSH2 0x3C1C JUMP JUMPDEST PUSH1 0x0 PUSH1 0x10 DUP4 PUSH1 0x40 MLOAD PUSH2 0x1AEA SWAP2 SWAP1 PUSH2 0x52C5 JUMP JUMPDEST SWAP1 DUP2 MSTORE PUSH1 0x40 DUP1 MLOAD SWAP2 DUP3 SWAP1 SUB PUSH1 0x20 SWAP1 DUP2 ADD SWAP1 SWAP3 KECCAK256 PUSH1 0x1 PUSH1 0x1 PUSH1 0xA0 SHL SUB DUP6 AND PUSH1 0x0 SWAP1 DUP2 MSTORE SWAP3 MSTORE SWAP1 KECCAK256 SLOAD PUSH1 0xFF AND ISZERO ISZERO PUSH1 0x1 EQ DUP1 PUSH2 0x1B43 JUMPI POP PUSH2 0x1B43 PUSH1 0x40 MLOAD DUP1 PUSH1 0x40 ADD PUSH1 0x40 MSTORE DUP1 PUSH1 0x2 DUP2 MSTORE PUSH1 0x20 ADD PUSH2 0x36A1 PUSH1 0xF1 SHL DUP2 MSTORE POP DUP4 PUSH2 0x1037 JUMP JUMPDEST SWAP4 SWAP3 POP POP POP JUMP JUMPDEST PUSH1 0x40 MLOAD DUP1 PUSH1 0x40 ADD PUSH1 0x40 MSTORE DUP1 PUSH1 0x2 DUP2 MSTORE PUSH1 0x20 ADD PUSH2 0x36A1 PUSH1 0xF1 SHL DUP2 MSTORE POP PUSH2 0x1B6F DUP2 CALLER PUSH2 0x237E JUMP JUMPDEST PUSH2 0x1B78 JUMPI PUSH1 0x0 DUP1 REVERT JUMPDEST DUP3 PUSH2 0x1B83 DUP2 CALLER PUSH2 0x1AD8 JUMP JUMPDEST PUSH2 0x1B8C JUMPI PUSH1 0x0 DUP1 REVERT JUMPDEST PUSH2 0x1403 DUP5 DUP5 PUSH2 0x3EC0 JUMP JUMPDEST DUP3 PUSH2 0x1BB0 DUP2 PUSH1 0x0 DUP1 SLOAD SWAP2 DUP2 MSTORE PUSH1 0x7 PUSH1 0x20 MSTORE PUSH1 0x40 SWAP1 KECCAK256 SLOAD GT SWAP1 JUMP JUMPDEST PUSH2 0x1BCC JUMPI PUSH1 0x40 MLOAD PUSH3 0x461BCD PUSH1 0xE5 SHL DUP2 MSTORE PUSH1 0x4 ADD PUSH2 0xC12 SWAP1 PUSH2 0x539A JUMP JUMPDEST PUSH1 0x1 PUSH1 0x0 DUP6 DUP2 MSTORE PUSH1 0x5 PUSH1 0x20 MSTORE PUSH1 0x40 SWAP1 KECCAK256 SLOAD PUSH1 0xFF AND PUSH1 0x2 DUP2 GT ISZERO PUSH2 0x1BF1 JUMPI PUSH2 0x1BF1 PUSH2 0x53B6 JUMP JUMPDEST EQ PUSH2 0x1C23 JUMPI PUSH1 0x40 MLOAD PUSH3 0x461BCD PUSH1 0xE5 SHL DUP2 MSTORE PUSH1 0x20 PUSH1 0x4 DUP3 ADD MSTORE PUSH1 0x2 PUSH1 0x24 DUP3 ADD MSTORE PUSH2 0x4E53 PUSH1 0xF0 SHL PUSH1 0x44 DUP3 ADD MSTORE PUSH1 0x64 ADD PUSH2 0xC12 JUMP JUMPDEST PUSH1 0x0 DUP5 DUP2 MSTORE PUSH1 0x6 PUSH1 0x20 MSTORE PUSH1 0x40 SWAP1 KECCAK256 PUSH1 0x1 ADD SLOAD DUP3 EQ PUSH2 0x1C68 JUMPI PUSH1 0x40 MLOAD PUSH3 0x461BCD PUSH1 0xE5 SHL DUP2 MSTORE PUSH1 0x20 PUSH1 0x4 DUP3 ADD MSTORE PUSH1 0x2 PUSH1 0x24 DUP3 ADD MSTORE PUSH2 0x575 PUSH1 0xF4 SHL PUSH1 0x44 DUP3 ADD MSTORE PUSH1 0x64 ADD PUSH2 0xC12 JUMP JUMPDEST DUP3 PUSH1 0x0 SUB PUSH2 0x1C9D JUMPI PUSH1 0x40 MLOAD PUSH3 0x461BCD PUSH1 0xE5 SHL DUP2 MSTORE PUSH1 0x20 PUSH1 0x4 DUP3 ADD MSTORE PUSH1 0x2 PUSH1 0x24 DUP3 ADD MSTORE PUSH2 0x4553 PUSH1 0xF0 SHL PUSH1 0x44 DUP3 ADD MSTORE PUSH1 0x64 ADD PUSH2 0xC12 JUMP JUMPDEST PUSH1 0x0 DUP5 DUP2 MSTORE PUSH1 0x6 PUSH1 0x20 MSTORE PUSH1 0x40 SWAP1 KECCAK256 SLOAD DUP4 GT ISZERO PUSH2 0x1CE0 JUMPI PUSH1 0x40 MLOAD PUSH3 0x461BCD PUSH1 0xE5 SHL DUP2 MSTORE PUSH1 0x20 PUSH1 0x4 DUP3 ADD MSTORE PUSH1 0x2 PUSH1 0x24 DUP3 ADD MSTORE PUSH2 0x4553 PUSH1 0xF0 SHL PUSH1 0x44 DUP3 ADD MSTORE PUSH1 0x64 ADD PUSH2 0xC12 JUMP JUMPDEST PUSH1 0x0 DUP5 DUP2 MSTORE PUSH1 0x6 PUSH1 0x20 MSTORE PUSH1 0x40 SWAP1 KECCAK256 PUSH1 0x3 ADD SLOAD PUSH1 0x1 PUSH1 0x1 PUSH1 0xA0 SHL SUB AND CALLER EQ DUP1 PUSH2 0x1D20 JUMPI POP PUSH1 0x0 DUP5 DUP2 MSTORE PUSH1 0x6 PUSH1 0x20 MSTORE PUSH1 0x40 SWAP1 KECCAK256 PUSH1 0x3 ADD SLOAD PUSH1 0x1 PUSH1 0x1 PUSH1 0xA0 SHL SUB AND ISZERO JUMPDEST PUSH2 0x1D51 JUMPI PUSH1 0x40 MLOAD PUSH3 0x461BCD PUSH1 0xE5 SHL DUP2 MSTORE PUSH1 0x20 PUSH1 0x4 DUP3 ADD MSTORE PUSH1 0x2 PUSH1 0x24 DUP3 ADD MSTORE PUSH2 0x29A9 PUSH1 0xF1 SHL PUSH1 0x44 DUP3 ADD MSTORE PUSH1 0x64 ADD PUSH2 0xC12 JUMP JUMPDEST PUSH1 0x0 DUP5 DUP2 MSTORE PUSH1 0x5 PUSH1 0x20 SWAP1 DUP2 MSTORE PUSH1 0x40 DUP1 DUP4 KECCAK256 DUP1 SLOAD PUSH1 0xFF NOT AND PUSH1 0x2 OR SWAP1 SSTORE PUSH1 0x6 SWAP1 SWAP2 MSTORE DUP2 KECCAK256 PUSH1 0x1 ADD SLOAD PUSH2 0x1D82 SWAP1 DUP6 PUSH2 0x53E8 JUMP JUMPDEST SWAP1 POP PUSH1 0x0 DUP1 PUSH1 0x0 PUSH2 0x1D97 DUP5 PUSH1 0x19 PUSH2 0x3E8 PUSH2 0x3FBE JUMP JUMPDEST SWAP2 SWAP5 POP SWAP3 POP SWAP1 POP PUSH2 0x1DA8 DUP2 DUP4 PUSH2 0x528E JUMP JUMPDEST PUSH1 0x0 DUP10 DUP2 MSTORE PUSH1 0x6 PUSH1 0x20 MSTORE PUSH1 0x40 SWAP1 KECCAK256 PUSH1 0x2 ADD SLOAD SWAP1 SWAP3 POP PUSH1 0x1 PUSH1 0x1 PUSH1 0xA0 SHL SUB AND PUSH2 0x1F07 JUMPI DUP4 CALLVALUE LT ISZERO PUSH2 0x1DFF JUMPI PUSH1 0x40 MLOAD PUSH3 0x461BCD PUSH1 0xE5 SHL DUP2 MSTORE PUSH1 0x20 PUSH1 0x4 DUP3 ADD MSTORE PUSH1 0x2 PUSH1 0x24 DUP3 ADD MSTORE PUSH2 0x4945 PUSH1 0xF0 SHL PUSH1 0x44 DUP3 ADD MSTORE PUSH1 0x64 ADD PUSH2 0xC12 JUMP JUMPDEST PUSH1 0x40 MLOAD PUSH1 0x0 SWAP1 PUSH20 0x49A71890AEA5A751E30E740C504F2E9683F347BC SWAP1 DUP6 SWAP1 DUP4 DUP2 DUP2 DUP2 DUP6 DUP8 GAS CALL SWAP3 POP POP POP RETURNDATASIZE DUP1 PUSH1 0x0 DUP2 EQ PUSH2 0x1E55 JUMPI PUSH1 0x40 MLOAD SWAP2 POP PUSH1 0x1F NOT PUSH1 0x3F RETURNDATASIZE ADD AND DUP3 ADD PUSH1 0x40 MSTORE RETURNDATASIZE DUP3 MSTORE RETURNDATASIZE PUSH1 0x0 PUSH1 0x20 DUP5 ADD RETURNDATACOPY PUSH2 0x1E5A JUMP JUMPDEST PUSH1 0x60 SWAP2 POP JUMPDEST POP POP PUSH1 0x0 DUP11 DUP2 MSTORE PUSH1 0x3 PUSH1 0x20 MSTORE PUSH1 0x40 DUP1 DUP3 KECCAK256 PUSH1 0x1 ADD SLOAD SWAP1 MLOAD SWAP3 SWAP4 POP SWAP1 SWAP2 PUSH1 0x1 PUSH1 0x1 PUSH1 0xA0 SHL SUB SWAP1 SWAP2 AND SWAP1 DUP6 SWAP1 DUP4 DUP2 DUP2 DUP2 DUP6 DUP8 GAS CALL SWAP3 POP POP POP RETURNDATASIZE DUP1 PUSH1 0x0 DUP2 EQ PUSH2 0x1EBC JUMPI PUSH1 0x40 MLOAD SWAP2 POP PUSH1 0x1F NOT PUSH1 0x3F RETURNDATASIZE ADD AND DUP3 ADD PUSH1 0x40 MSTORE RETURNDATASIZE DUP3 MSTORE RETURNDATASIZE PUSH1 0x0 PUSH1 0x20 DUP5 ADD RETURNDATACOPY PUSH2 0x1EC1 JUMP JUMPDEST PUSH1 0x60 SWAP2 POP JUMPDEST POP POP SWAP1 POP DUP1 DUP1 ISZERO PUSH2 0x1ECF JUMPI POP DUP2 JUMPDEST PUSH2 0x1F00 JUMPI PUSH1 0x40 MLOAD PUSH3 0x461BCD PUSH1 0xE5 SHL DUP2 MSTORE PUSH1 0x20 PUSH1 0x4 DUP3 ADD MSTORE PUSH1 0x2 PUSH1 0x24 DUP3 ADD MSTORE PUSH2 0x2A23 PUSH1 0xF1 SHL PUSH1 0x44 DUP3 ADD MSTORE PUSH1 0x64 ADD PUSH2 0xC12 JUMP JUMPDEST POP POP PUSH2 0x208C JUMP JUMPDEST PUSH1 0x0 DUP9 DUP2 MSTORE PUSH1 0x6 PUSH1 0x20 MSTORE PUSH1 0x40 SWAP1 DUP2 SWAP1 KECCAK256 PUSH1 0x2 ADD SLOAD SWAP1 MLOAD PUSH4 0x6EB1769F PUSH1 0xE1 SHL DUP2 MSTORE CALLER PUSH1 0x4 DUP3 ADD MSTORE ADDRESS PUSH1 0x24 DUP3 ADD MSTORE PUSH1 0x1 PUSH1 0x1 PUSH1 0xA0 SHL SUB SWAP1 SWAP2 AND SWAP1 DUP6 SWAP1 DUP3 SWAP1 PUSH4 0xDD62ED3E SWAP1 PUSH1 0x44 ADD PUSH1 0x20 PUSH1 0x40 MLOAD DUP1 DUP4 SUB DUP2 DUP7 GAS STATICCALL ISZERO DUP1 ISZERO PUSH2 0x1F69 JUMPI RETURNDATASIZE PUSH1 0x0 DUP1 RETURNDATACOPY RETURNDATASIZE PUSH1 0x0 REVERT JUMPDEST POP POP POP POP PUSH1 0x40 MLOAD RETURNDATASIZE PUSH1 0x1F NOT PUSH1 0x1F DUP3 ADD AND DUP3 ADD DUP1 PUSH1 0x40 MSTORE POP DUP2 ADD SWAP1 PUSH2 0x1F8D SWAP2 SWAP1 PUSH2 0x5434 JUMP JUMPDEST LT ISZERO PUSH2 0x1FAB JUMPI PUSH1 0x40 MLOAD PUSH3 0x461BCD PUSH1 0xE5 SHL DUP2 MSTORE PUSH1 0x4 ADD PUSH2 0xC12 SWAP1 PUSH2 0x544D JUMP JUMPDEST PUSH1 0x40 MLOAD PUSH4 0x23B872DD PUSH1 0xE0 SHL DUP2 MSTORE CALLER PUSH1 0x4 DUP3 ADD MSTORE PUSH20 0x49A71890AEA5A751E30E740C504F2E9683F347BC PUSH1 0x24 DUP3 ADD MSTORE PUSH1 0x44 DUP2 ADD DUP6 SWAP1 MSTORE PUSH1 0x1 PUSH1 0x1 PUSH1 0xA0 SHL SUB DUP3 AND SWAP1 PUSH4 0x23B872DD SWAP1 PUSH1 0x64 ADD PUSH1 0x20 PUSH1 0x40 MLOAD DUP1 DUP4 SUB DUP2 PUSH1 0x0 DUP8 GAS CALL ISZERO DUP1 ISZERO PUSH2 0x2012 JUMPI RETURNDATASIZE PUSH1 0x0 DUP1 RETURNDATACOPY RETURNDATASIZE PUSH1 0x0 REVERT JUMPDEST POP POP POP POP PUSH1 0x40 MLOAD RETURNDATASIZE PUSH1 0x1F NOT PUSH1 0x1F DUP3 ADD AND DUP3 ADD DUP1 PUSH1 0x40 MSTORE POP DUP2 ADD SWAP1 PUSH2 0x2036 SWAP2 SWAP1 PUSH2 0x5469 JUMP JUMPDEST PUSH2 0x2052 JUMPI PUSH1 0x40 MLOAD PUSH3 0x461BCD PUSH1 0xE5 SHL DUP2 MSTORE PUSH1 0x4 ADD PUSH2 0xC12 SWAP1 PUSH2 0x5486 JUMP JUMPDEST PUSH1 0x0 DUP10 DUP2 MSTORE PUSH1 0x3 PUSH1 0x20 SWAP1 DUP2 MSTORE PUSH1 0x40 DUP1 DUP4 KECCAK256 PUSH1 0x1 ADD SLOAD PUSH1 0x6 SWAP1 SWAP3 MSTORE SWAP1 SWAP2 KECCAK256 PUSH1 0x2 ADD SLOAD PUSH2 0x208A SWAP2 PUSH1 0x1 PUSH1 0x1 PUSH1 0xA0 SHL SUB SWAP1 DUP2 AND SWAP2 AND DUP6 PUSH2 0x4032 JUMP JUMPDEST POP JUMPDEST PUSH2 0x2097 DUP9 DUP9 CALLER PUSH2 0x40F1 JUMP JUMPDEST PUSH1 0x0 DUP9 DUP2 MSTORE PUSH1 0x3 PUSH1 0x20 MSTORE PUSH1 0x40 SWAP1 KECCAK256 PUSH1 0x1 ADD SLOAD ADDRESS PUSH1 0x1 PUSH1 0x1 PUSH1 0xA0 SHL SUB SWAP1 SWAP2 AND SUB PUSH2 0x20DF JUMPI PUSH1 0x0 DUP1 SLOAD DUP2 MSTORE PUSH1 0x2 PUSH1 0x20 MSTORE PUSH1 0x40 DUP2 KECCAK256 DUP1 SLOAD DUP10 SWAP3 SWAP1 PUSH2 0x20D9 SWAP1 DUP5 SWAP1 PUSH2 0x528E JUMP JUMPDEST SWAP1 SWAP2 SSTORE POP POP JUMPDEST PUSH1 0x40 DUP1 MLOAD PUSH1 0x80 DUP2 ADD DUP3 MSTORE DUP9 DUP2 MSTORE PUSH1 0x0 DUP11 DUP2 MSTORE PUSH1 0x6 PUSH1 0x20 DUP2 DUP2 MSTORE DUP5 DUP4 KECCAK256 PUSH1 0x1 DUP2 ADD SLOAD DUP3 DUP7 ADD MSTORE PUSH1 0x2 DUP2 DUP2 ADD SLOAD PUSH1 0x1 PUSH1 0x1 PUSH1 0xA0 SHL SUB SWAP1 DUP2 AND DUP8 DUP10 ADD MSTORE SWAP5 DUP16 SWAP1 MSTORE SWAP3 SWAP1 SWAP2 MSTORE PUSH1 0x3 ADD SLOAD SWAP1 SWAP2 AND PUSH1 0x60 DUP4 ADD MSTORE SWAP2 MLOAD PUSH32 0xD8CD09EA93B4076AB867588C0D1A52B62C5B605B7A5F1C0189781245631A8353 SWAP3 PUSH2 0x215F SWAP3 SWAP1 SWAP2 DUP13 SWAP2 SWAP1 PUSH2 0x54C0 JUMP JUMPDEST PUSH1 0x40 MLOAD DUP1 SWAP2 SUB SWAP1 LOG1 PUSH1 0x0 DUP9 DUP2 MSTORE PUSH1 0x6 PUSH1 0x20 MSTORE PUSH1 0x40 SWAP1 KECCAK256 SLOAD DUP8 EQ PUSH2 0x21F1 JUMPI PUSH1 0x0 DUP9 DUP2 MSTORE PUSH1 0x3 PUSH1 0x20 SWAP1 DUP2 MSTORE PUSH1 0x40 DUP1 DUP4 KECCAK256 PUSH1 0x1 ADD SLOAD PUSH1 0x1 PUSH1 0x1 PUSH1 0xA0 SHL SUB AND DUP4 MSTORE PUSH1 0x4 DUP3 MSTORE DUP1 DUP4 KECCAK256 SLOAD DUP12 DUP5 MSTORE PUSH1 0x6 SWAP1 SWAP3 MSTORE SWAP1 SWAP2 KECCAK256 SLOAD PUSH2 0x21F1 SWAP2 SWAP1 PUSH2 0x21C0 SWAP1 DUP11 SWAP1 PUSH2 0x5421 JUMP JUMPDEST PUSH1 0x0 DUP12 DUP2 MSTORE PUSH1 0x6 PUSH1 0x20 MSTORE PUSH1 0x40 SWAP1 KECCAK256 PUSH1 0x2 DUP2 ADD SLOAD PUSH1 0x1 DUP3 ADD SLOAD PUSH1 0x3 SWAP1 SWAP3 ADD SLOAD PUSH1 0x1 PUSH1 0x1 PUSH1 0xA0 SHL SUB SWAP2 DUP3 AND SWAP3 SWAP2 AND PUSH2 0x42BF JUMP JUMPDEST POP POP POP POP POP POP POP POP JUMP JUMPDEST PUSH1 0x0 DUP4 DUP2 MSTORE PUSH1 0x3 PUSH1 0x20 MSTORE PUSH1 0x40 SWAP1 KECCAK256 PUSH1 0x1 ADD SLOAD DUP4 SWAP1 PUSH1 0x1 PUSH1 0x1 PUSH1 0xA0 SHL SUB AND CALLER EQ PUSH2 0x2236 JUMPI PUSH1 0x40 MLOAD PUSH3 0x461BCD PUSH1 0xE5 SHL DUP2 MSTORE PUSH1 0x4 ADD PUSH2 0xC12 SWAP1 PUSH2 0x537E JUMP JUMPDEST DUP4 PUSH2 0x2250 DUP2 PUSH1 0x0 DUP1 SLOAD SWAP2 DUP2 MSTORE PUSH1 0x7 PUSH1 0x20 MSTORE PUSH1 0x40 SWAP1 KECCAK256 SLOAD GT SWAP1 JUMP JUMPDEST PUSH2 0x226C JUMPI PUSH1 0x40 MLOAD PUSH3 0x461BCD PUSH1 0xE5 SHL DUP2 MSTORE PUSH1 0x4 ADD PUSH2 0xC12 SWAP1 PUSH2 0x539A JUMP JUMPDEST PUSH2 0x18C8 DUP6 DUP6 DUP6 PUSH2 0x40F1 JUMP JUMPDEST PUSH1 0x0 PUSH1 0xD DUP3 PUSH1 0x40 MLOAD PUSH2 0x2289 SWAP2 SWAP1 PUSH2 0x52C5 JUMP JUMPDEST SWAP1 DUP2 MSTORE PUSH1 0x40 MLOAD SWAP1 DUP2 SWAP1 SUB PUSH1 0x20 ADD SWAP1 KECCAK256 SLOAD PUSH1 0xFF AND ISZERO ISZERO PUSH1 0x1 EQ SWAP3 SWAP2 POP POP JUMP JUMPDEST DUP3 PUSH2 0x22B2 DUP2 CALLER PUSH2 0x1037 JUMP JUMPDEST PUSH2 0x22BB JUMPI PUSH1 0x0 DUP1 REVERT JUMPDEST DUP2 PUSH1 0x2 DUP2 GT ISZERO PUSH2 0x22CD JUMPI PUSH2 0x22CD PUSH2 0x53B6 JUMP JUMPDEST PUSH1 0x11 DUP6 PUSH1 0x40 MLOAD PUSH2 0x22DD SWAP2 SWAP1 PUSH2 0x52C5 JUMP JUMPDEST SWAP1 DUP2 MSTORE PUSH1 0x40 DUP1 MLOAD PUSH1 0x20 SWAP3 DUP2 SWAP1 SUB DUP4 ADD SWAP1 KECCAK256 PUSH1 0x1 PUSH1 0x1 PUSH1 0xA0 SHL SUB DUP8 AND PUSH1 0x0 SWAP1 DUP2 MSTORE SWAP3 MSTORE SWAP1 KECCAK256 SLOAD PUSH1 0xFF AND PUSH1 0x2 DUP2 GT ISZERO PUSH2 0x2316 JUMPI PUSH2 0x2316 PUSH2 0x53B6 JUMP JUMPDEST SUB PUSH2 0x2349 JUMPI PUSH1 0x40 MLOAD PUSH3 0x461BCD PUSH1 0xE5 SHL DUP2 MSTORE PUSH1 0x20 PUSH1 0x4 DUP3 ADD MSTORE PUSH1 0x3 PUSH1 0x24 DUP3 ADD MSTORE PUSH3 0x41485 PUSH1 0xEC SHL PUSH1 0x44 DUP3 ADD MSTORE PUSH1 0x64 ADD PUSH2 0xC12 JUMP JUMPDEST PUSH2 0x1403 DUP5 DUP5 DUP5 PUSH2 0x444C JUMP JUMPDEST PUSH1 0x1 SLOAD PUSH1 0x0 SWAP1 PUSH1 0xFF AND ISZERO DUP1 ISZERO PUSH2 0x2379 JUMPI POP PUSH2 0x12C PUSH1 0xA SLOAD TIMESTAMP PUSH2 0x2376 SWAP2 SWAP1 PUSH2 0x5421 JUMP JUMPDEST LT ISZERO JUMPDEST SWAP1 POP SWAP1 JUMP JUMPDEST PUSH1 0x0 PUSH1 0x1 PUSH1 0x11 DUP5 PUSH1 0x40 MLOAD PUSH2 0x2392 SWAP2 SWAP1 PUSH2 0x52C5 JUMP JUMPDEST SWAP1 DUP2 MSTORE PUSH1 0x40 DUP1 MLOAD PUSH1 0x20 SWAP3 DUP2 SWAP1 SUB DUP4 ADD SWAP1 KECCAK256 PUSH1 0x1 PUSH1 0x1 PUSH1 0xA0 SHL SUB DUP7 AND PUSH1 0x0 SWAP1 DUP2 MSTORE SWAP3 MSTORE SWAP1 KECCAK256 SLOAD PUSH1 0xFF AND PUSH1 0x2 DUP2 GT ISZERO PUSH2 0x23CB JUMPI PUSH2 0x23CB PUSH2 0x53B6 JUMP JUMPDEST LT ISZERO SWAP4 SWAP3 POP POP POP JUMP JUMPDEST PUSH1 0x1 PUSH1 0x1 PUSH1 0xA0 SHL SUB DUP2 AND PUSH1 0x0 SWAP1 DUP2 MSTORE PUSH1 0x4 PUSH1 0x20 MSTORE PUSH1 0x40 DUP2 KECCAK256 SLOAD PUSH2 0xFF6 SWAP1 PUSH1 0x0 DUP1 SLOAD SWAP2 DUP2 MSTORE PUSH1 0x7 PUSH1 0x20 MSTORE PUSH1 0x40 SWAP1 KECCAK256 SLOAD GT SWAP1 JUMP JUMPDEST PUSH1 0x0 DUP6 DUP2 MSTORE PUSH1 0x3 PUSH1 0x20 MSTORE PUSH1 0x40 SWAP1 KECCAK256 PUSH1 0x1 ADD SLOAD DUP6 SWAP1 PUSH1 0x1 PUSH1 0x1 PUSH1 0xA0 SHL SUB AND CALLER EQ PUSH2 0x2441 JUMPI PUSH1 0x40 MLOAD PUSH3 0x461BCD PUSH1 0xE5 SHL DUP2 MSTORE PUSH1 0x4 ADD PUSH2 0xC12 SWAP1 PUSH2 0x537E JUMP JUMPDEST DUP6 PUSH2 0x245B DUP2 PUSH1 0x0 DUP1 SLOAD SWAP2 DUP2 MSTORE PUSH1 0x7 PUSH1 0x20 MSTORE PUSH1 0x40 SWAP1 KECCAK256 SLOAD GT SWAP1 JUMP JUMPDEST PUSH2 0x2477 JUMPI PUSH1 0x40 MLOAD PUSH3 0x461BCD PUSH1 0xE5 SHL DUP2 MSTORE PUSH1 0x4 ADD PUSH2 0xC12 SWAP1 PUSH2 0x539A JUMP JUMPDEST PUSH2 0x2484 DUP8 DUP8 DUP8 DUP8 DUP8 PUSH2 0x42BF JUMP JUMPDEST POP POP POP POP POP POP POP JUMP JUMPDEST PUSH1 0x0 DUP3 DUP2 MSTORE PUSH1 0x3 PUSH1 0x20 MSTORE PUSH1 0x40 DUP2 KECCAK256 PUSH1 0x2 ADD SLOAD DUP3 LT DUP1 ISZERO SWAP1 PUSH2 0x1B43 JUMPI POP POP PUSH1 0x0 SWAP2 DUP3 MSTORE PUSH1 0x7 PUSH1 0x20 MSTORE PUSH1 0x40 SWAP1 SWAP2 KECCAK256 SLOAD GT SWAP1 JUMP JUMPDEST PUSH2 0x24C6 PUSH2 0x4513 JUMP JUMPDEST PUSH1 0x40 DUP1 MLOAD PUSH1 0x60 DUP1 DUP3 MSTORE PUSH1 0x2 SWAP1 DUP3 ADD MSTORE PUSH2 0x6C45 PUSH1 0xF0 SHL PUSH1 0x80 DUP3 ADD MSTORE PUSH1 0xA0 PUSH1 0x20 DUP3 ADD DUP2 SWAP1 MSTORE PUSH1 0x0 SWAP1 DUP3 ADD MSTORE CALLER DUP2 DUP4 ADD MSTORE SWAP1 MLOAD PUSH1 0x0 DUP1 MLOAD PUSH1 0x20 PUSH2 0x5ED2 DUP4 CODECOPY DUP2 MLOAD SWAP2 MSTORE SWAP2 DUP2 SWAP1 SUB PUSH1 0xC0 ADD SWAP1 LOG1 JUMP JUMPDEST DUP1 PUSH2 0x252A DUP2 PUSH1 0x0 DUP1 SLOAD SWAP2 DUP2 MSTORE PUSH1 0x7 PUSH1 0x20 MSTORE PUSH1 0x40 SWAP1 KECCAK256 SLOAD GT SWAP1 JUMP JUMPDEST PUSH2 0x2546 JUMPI PUSH1 0x40 MLOAD PUSH3 0x461BCD PUSH1 0xE5 SHL DUP2 MSTORE PUSH1 0x4 ADD PUSH2 0xC12 SWAP1 PUSH2 0x539A JUMP JUMPDEST PUSH1 0x0 DUP3 DUP2 MSTORE PUSH1 0x5 PUSH1 0x20 SWAP1 DUP2 MSTORE PUSH1 0x40 DUP1 DUP4 KECCAK256 DUP1 SLOAD PUSH1 0xFF NOT AND SWAP1 SSTORE DUP1 MLOAD PUSH1 0x80 DUP2 ADD DUP3 MSTORE DUP4 DUP2 MSTORE SWAP2 DUP3 ADD DUP4 SWAP1 MSTORE DUP2 DUP2 ADD DUP4 SWAP1 MSTORE PUSH1 0x60 DUP3 ADD DUP4 SWAP1 MSTORE MLOAD PUSH32 0xD8CD09EA93B4076AB867588C0D1A52B62C5B605B7A5F1C0189781245631A8353 SWAP3 PUSH2 0x25AE SWAP3 SWAP1 SWAP2 DUP7 SWAP2 SWAP1 PUSH2 0x54C0 JUMP JUMPDEST PUSH1 0x40 MLOAD DUP1 SWAP2 SUB SWAP1 LOG1 POP POP JUMP JUMPDEST PUSH1 0x1 PUSH1 0x1 PUSH1 0xA0 SHL SUB DUP5 AND PUSH1 0x0 SWAP1 DUP2 MSTORE PUSH1 0x9 PUSH1 0x20 MSTORE PUSH1 0x40 SWAP1 KECCAK256 SLOAD DUP4 GT ISZERO PUSH2 0x25F2 JUMPI PUSH1 0x40 MLOAD PUSH3 0x461BCD PUSH1 0xE5 SHL DUP2 MSTORE PUSH1 0x4 ADD PUSH2 0xC12 SWAP1 PUSH2 0x544D JUMP JUMPDEST PUSH1 0x1 PUSH1 0x1 PUSH1 0xA0 SHL SUB DUP5 AND PUSH2 0x260F JUMPI PUSH2 0x260A DUP4 DUP4 PUSH2 0x4549 JUMP JUMPDEST PUSH2 0x1403 JUMP JUMPDEST PUSH1 0x40 MLOAD PUSH4 0x95EA7B3 PUSH1 0xE0 SHL DUP2 MSTORE PUSH1 0x1 PUSH1 0x1 PUSH1 0xA0 SHL SUB DUP4 DUP2 AND PUSH1 0x4 DUP4 ADD MSTORE PUSH1 0x24 DUP3 ADD DUP6 SWAP1 MSTORE DUP6 SWAP2 SWAP1 DUP3 AND SWAP1 PUSH4 0x95EA7B3 SWAP1 PUSH1 0x44 ADD PUSH1 0x20 PUSH1 0x40 MLOAD DUP1 DUP4 SUB DUP2 PUSH1 0x0 DUP8 GAS CALL ISZERO DUP1 ISZERO PUSH2 0x2661 JUMPI RETURNDATASIZE PUSH1 0x0 DUP1 RETURNDATACOPY RETURNDATASIZE PUSH1 0x0 REVERT JUMPDEST POP POP POP POP PUSH1 0x40 MLOAD RETURNDATASIZE PUSH1 0x1F NOT PUSH1 0x1F DUP3 ADD AND DUP3 ADD DUP1 PUSH1 0x40 MSTORE POP DUP2 ADD SWAP1 PUSH2 0x2685 SWAP2 SWAP1 PUSH2 0x5469 JUMP JUMPDEST PUSH2 0x26B6 JUMPI PUSH1 0x40 MLOAD PUSH3 0x461BCD PUSH1 0xE5 SHL DUP2 MSTORE PUSH1 0x20 PUSH1 0x4 DUP3 ADD MSTORE PUSH1 0x2 PUSH1 0x24 DUP3 ADD MSTORE PUSH2 0x4E41 PUSH1 0xF0 SHL PUSH1 0x44 DUP3 ADD MSTORE PUSH1 0x64 ADD PUSH2 0xC12 JUMP JUMPDEST PUSH1 0x1 PUSH1 0x1 PUSH1 0xA0 SHL SUB DUP4 AND EXTCODESIZE ISZERO PUSH2 0x27B9 JUMPI PUSH1 0x40 MLOAD PUSH4 0x7FB6679D PUSH1 0xE0 SHL DUP2 MSTORE PUSH1 0x1 PUSH1 0x1 PUSH1 0xA0 SHL SUB DUP5 AND SWAP1 PUSH4 0x7FB6679D SWAP1 PUSH2 0x26F6 SWAP1 DUP6 SWAP1 DUP10 SWAP1 DUP10 SWAP1 PUSH1 0x4 ADD PUSH2 0x530D JUMP JUMPDEST PUSH1 0x0 PUSH1 0x40 MLOAD DUP1 DUP4 SUB DUP2 PUSH1 0x0 DUP8 DUP1 EXTCODESIZE ISZERO DUP1 ISZERO PUSH2 0x2710 JUMPI PUSH1 0x0 DUP1 REVERT JUMPDEST POP GAS CALL SWAP3 POP POP POP DUP1 ISZERO PUSH2 0x2721 JUMPI POP PUSH1 0x1 JUMPDEST PUSH2 0x27B4 JUMPI PUSH1 0x40 MLOAD PUSH4 0xA9059CBB PUSH1 0xE0 SHL DUP2 MSTORE PUSH1 0x1 PUSH1 0x1 PUSH1 0xA0 SHL SUB DUP5 DUP2 AND PUSH1 0x4 DUP4 ADD MSTORE PUSH1 0x24 DUP3 ADD DUP7 SWAP1 MSTORE DUP3 AND SWAP1 PUSH4 0xA9059CBB SWAP1 PUSH1 0x44 ADD PUSH1 0x20 PUSH1 0x40 MLOAD DUP1 DUP4 SUB DUP2 PUSH1 0x0 DUP8 GAS CALL ISZERO DUP1 ISZERO PUSH2 0x2774 JUMPI RETURNDATASIZE PUSH1 0x0 DUP1 RETURNDATACOPY RETURNDATASIZE PUSH1 0x0 REVERT JUMPDEST POP POP POP POP PUSH1 0x40 MLOAD RETURNDATASIZE PUSH1 0x1F NOT PUSH1 0x1F DUP3 ADD AND DUP3 ADD DUP1 PUSH1 0x40 MSTORE POP DUP2 ADD SWAP1 PUSH2 0x2798 SWAP2 SWAP1 PUSH2 0x5469 JUMP JUMPDEST PUSH2 0x27B4 JUMPI PUSH1 0x40 MLOAD PUSH3 0x461BCD PUSH1 0xE5 SHL DUP2 MSTORE PUSH1 0x4 ADD PUSH2 0xC12 SWAP1 PUSH2 0x5486 JUMP JUMPDEST PUSH2 0x18C8 JUMP JUMPDEST PUSH1 0x40 MLOAD PUSH4 0xA9059CBB PUSH1 0xE0 SHL DUP2 MSTORE PUSH1 0x1 PUSH1 0x1 PUSH1 0xA0 SHL SUB DUP5 DUP2 AND PUSH1 0x4 DUP4 ADD MSTORE PUSH1 0x24 DUP3 ADD DUP7 SWAP1 MSTORE DUP3 AND SWAP1 PUSH4 0xA9059CBB SWAP1 PUSH1 0x44 ADD PUSH1 0x20 PUSH1 0x40 MLOAD DUP1 DUP4 SUB DUP2 PUSH1 0x0 DUP8 GAS CALL ISZERO DUP1 ISZERO PUSH2 0x2808 JUMPI RETURNDATASIZE PUSH1 0x0 DUP1 RETURNDATACOPY RETURNDATASIZE PUSH1 0x0 REVERT JUMPDEST POP POP POP POP PUSH1 0x40 MLOAD RETURNDATASIZE PUSH1 0x1F NOT PUSH1 0x1F DUP3 ADD AND DUP3 ADD DUP1 PUSH1 0x40 MSTORE POP DUP2 ADD SWAP1 PUSH2 0x282C SWAP2 SWAP1 PUSH2 0x5469 JUMP JUMPDEST PUSH2 0x18C8 JUMPI PUSH1 0x40 MLOAD PUSH3 0x461BCD PUSH1 0xE5 SHL DUP2 MSTORE PUSH1 0x4 ADD PUSH2 0xC12 SWAP1 PUSH2 0x5486 JUMP JUMPDEST PUSH1 0x0 DUP2 DUP2 MSTORE PUSH1 0x12 PUSH1 0x20 MSTORE PUSH1 0x40 SWAP1 KECCAK256 SLOAD DUP2 SWAP1 PUSH1 0xFF AND PUSH2 0x2865 JUMPI PUSH1 0x0 DUP1 REVERT JUMPDEST PUSH1 0x1 DUP1 SLOAD PUSH1 0xFF AND ISZERO ISZERO EQ PUSH2 0x288B JUMPI PUSH1 0x40 MLOAD PUSH3 0x461BCD PUSH1 0xE5 SHL DUP2 MSTORE PUSH1 0x4 ADD PUSH2 0xC12 SWAP1 PUSH2 0x53CC JUMP JUMPDEST PUSH1 0x0 DUP3 DUP2 MSTORE PUSH1 0x12 PUSH1 0x20 SWAP1 DUP2 MSTORE PUSH1 0x40 DUP1 DUP4 KECCAK256 DUP1 SLOAD PUSH1 0xFF NOT AND SWAP1 SSTORE PUSH1 0x14 DUP3 MSTORE DUP1 DUP4 KECCAK256 SLOAD DUP2 MLOAD PUSH4 0x36B0B4B7 PUSH1 0xE1 SHL DUP2 MSTORE PUSH1 0xF PUSH1 0x4 DUP3 ADD MSTORE DUP3 MLOAD SWAP1 DUP2 SWAP1 SUB PUSH1 0x24 ADD SWAP1 KECCAK256 DUP7 DUP6 MSTORE PUSH1 0x13 DUP5 MSTORE DUP3 DUP6 KECCAK256 SLOAD PUSH1 0x1 PUSH1 0x1 PUSH1 0xA0 SHL SUB AND DUP6 MSTORE SWAP1 SWAP3 MSTORE DUP3 KECCAK256 DUP1 SLOAD SWAP2 SWAP3 SWAP1 SWAP2 PUSH2 0x28F6 SWAP1 DUP5 SWAP1 PUSH2 0x528E JUMP JUMPDEST SWAP1 SWAP2 SSTORE POP POP PUSH1 0x40 DUP1 MLOAD PUSH1 0x20 DUP2 ADD DUP5 SWAP1 MSTORE PUSH1 0x0 DUP1 MLOAD PUSH1 0x20 PUSH2 0x5ED2 DUP4 CODECOPY DUP2 MLOAD SWAP2 MSTORE SWAP2 ADD PUSH1 0x40 DUP1 MLOAD PUSH1 0x1F NOT DUP2 DUP5 SUB ADD DUP2 MSTORE SWAP1 DUP3 SWAP1 MSTORE PUSH2 0x25AE SWAP2 CALLER SWAP1 PUSH2 0x5511 JUMP JUMPDEST PUSH1 0x1 DUP1 SLOAD PUSH1 0xFF AND ISZERO ISZERO EQ PUSH2 0x2959 JUMPI PUSH1 0x40 MLOAD PUSH3 0x461BCD PUSH1 0xE5 SHL DUP2 MSTORE PUSH1 0x4 ADD PUSH2 0xC12 SWAP1 PUSH2 0x53CC JUMP JUMPDEST PUSH2 0x2962 DUP3 PUSH2 0x2277 JUMP JUMPDEST ISZERO PUSH2 0x2994 JUMPI PUSH1 0x40 MLOAD PUSH3 0x461BCD PUSH1 0xE5 SHL DUP2 MSTORE PUSH1 0x20 PUSH1 0x4 DUP3 ADD MSTORE PUSH1 0x2 PUSH1 0x24 DUP3 ADD MSTORE PUSH2 0x4145 PUSH1 0xF0 SHL PUSH1 0x44 DUP3 ADD MSTORE PUSH1 0x64 ADD PUSH2 0xC12 JUMP JUMPDEST PUSH1 0x1 PUSH1 0x10 DUP4 PUSH1 0x40 MLOAD PUSH2 0x29A6 SWAP2 SWAP1 PUSH2 0x52C5 JUMP JUMPDEST SWAP1 DUP2 MSTORE PUSH1 0x40 DUP1 MLOAD PUSH1 0x20 SWAP3 DUP2 SWAP1 SUB DUP4 ADD DUP2 KECCAK256 PUSH1 0x1 PUSH1 0x1 PUSH1 0xA0 SHL SUB DUP7 AND PUSH1 0x0 SWAP1 DUP2 MSTORE SWAP4 MSTORE SWAP2 KECCAK256 DUP1 SLOAD PUSH1 0xFF NOT AND SWAP3 ISZERO ISZERO SWAP3 SWAP1 SWAP3 OR SWAP1 SWAP2 SSTORE PUSH1 0x1 SWAP1 PUSH1 0xD SWAP1 PUSH2 0x29EB SWAP1 DUP6 SWAP1 PUSH2 0x52C5 JUMP JUMPDEST SWAP1 DUP2 MSTORE PUSH1 0x40 MLOAD PUSH1 0x20 SWAP2 DUP2 SWAP1 SUB DUP3 ADD DUP2 KECCAK256 DUP1 SLOAD PUSH1 0xFF NOT AND SWAP4 ISZERO ISZERO SWAP4 SWAP1 SWAP4 OR SWAP1 SWAP3 SSTORE PUSH1 0x0 DUP1 MLOAD PUSH1 0x20 PUSH2 0x5ED2 DUP4 CODECOPY DUP2 MLOAD SWAP2 MSTORE SWAP2 PUSH2 0x2A29 SWAP2 DUP6 SWAP2 DUP6 SWAP2 ADD PUSH2 0x553D JUMP JUMPDEST PUSH1 0x40 DUP1 MLOAD PUSH1 0x1F NOT DUP2 DUP5 SUB ADD DUP2 MSTORE SWAP1 DUP3 SWAP1 MSTORE PUSH2 0x25AE SWAP2 CALLER SWAP1 PUSH2 0x5567 JUMP JUMPDEST PUSH1 0x1 DUP1 SLOAD PUSH1 0xFF AND ISZERO ISZERO EQ PUSH2 0x2A6B JUMPI PUSH1 0x40 MLOAD PUSH3 0x461BCD PUSH1 0xE5 SHL DUP2 MSTORE PUSH1 0x4 ADD PUSH2 0xC12 SWAP1 PUSH2 0x53CC JUMP JUMPDEST PUSH2 0x2A75 DUP3 DUP3 PUSH2 0x1AD8 JUMP JUMPDEST PUSH2 0x2A7E JUMPI PUSH1 0x0 DUP1 REVERT JUMPDEST PUSH1 0x0 PUSH1 0x10 DUP4 PUSH1 0x40 MLOAD PUSH2 0x2A90 SWAP2 SWAP1 PUSH2 0x52C5 JUMP JUMPDEST SWAP1 DUP2 MSTORE PUSH1 0x40 DUP1 MLOAD PUSH1 0x20 SWAP3 DUP2 SWAP1 SUB DUP4 ADD DUP2 KECCAK256 PUSH1 0x1 PUSH1 0x1 PUSH1 0xA0 SHL SUB DUP7 AND PUSH1 0x0 SWAP1 DUP2 MSTORE SWAP1 DUP5 MSTORE SWAP2 SWAP1 SWAP2 KECCAK256 DUP1 SLOAD PUSH1 0xFF NOT AND SWAP4 ISZERO ISZERO SWAP4 SWAP1 SWAP4 OR SWAP1 SWAP3 SSTORE PUSH1 0x0 DUP1 MLOAD PUSH1 0x20 PUSH2 0x5ED2 DUP4 CODECOPY DUP2 MLOAD SWAP2 MSTORE SWAP2 PUSH2 0x2AE5 SWAP2 DUP6 SWAP2 DUP6 SWAP2 ADD PUSH2 0x553D JUMP JUMPDEST PUSH1 0x40 DUP1 MLOAD PUSH1 0x1F NOT DUP2 DUP5 SUB ADD DUP2 MSTORE SWAP1 DUP3 SWAP1 MSTORE PUSH2 0x25AE SWAP2 CALLER SWAP1 PUSH2 0x5593 JUMP JUMPDEST PUSH1 0x1 DUP1 SLOAD PUSH1 0xFF AND ISZERO ISZERO EQ PUSH2 0x2B27 JUMPI PUSH1 0x40 MLOAD PUSH3 0x461BCD PUSH1 0xE5 SHL DUP2 MSTORE PUSH1 0x4 ADD PUSH2 0xC12 SWAP1 PUSH2 0x53CC JUMP JUMPDEST DUP1 MLOAD DUP3 MLOAD EQ PUSH2 0x2B5E JUMPI PUSH1 0x40 MLOAD PUSH3 0x461BCD PUSH1 0xE5 SHL DUP2 MSTORE PUSH1 0x20 PUSH1 0x4 DUP3 ADD MSTORE PUSH1 0x3 PUSH1 0x24 DUP3 ADD MSTORE PUSH3 0x504357 PUSH1 0xE8 SHL PUSH1 0x44 DUP3 ADD MSTORE PUSH1 0x64 ADD PUSH2 0xC12 JUMP JUMPDEST PUSH1 0x0 DUP1 SLOAD DUP2 MSTORE PUSH1 0x1B PUSH1 0x20 SWAP1 DUP2 MSTORE PUSH1 0x40 DUP1 DUP4 KECCAK256 DUP1 SLOAD PUSH1 0x1 PUSH1 0xFF NOT SWAP1 SWAP2 AND DUP2 OR SWAP1 SWAP2 SSTORE DUP2 MLOAD PUSH1 0x60 DUP2 ADD DUP4 MSTORE CALLER DUP2 MSTORE DUP1 DUP5 ADD DUP8 DUP2 MSTORE DUP2 DUP5 ADD DUP8 SWAP1 MSTORE DUP6 SLOAD DUP7 MSTORE PUSH1 0x16 DUP6 MSTORE SWAP3 SWAP1 SWAP5 KECCAK256 DUP5 MLOAD DUP2 SLOAD PUSH1 0x1 PUSH1 0x1 PUSH1 0xA0 SHL SUB NOT AND PUSH1 0x1 PUSH1 0x1 PUSH1 0xA0 SHL SUB SWAP1 SWAP2 AND OR DUP2 SSTORE SWAP2 MLOAD DUP1 MLOAD SWAP3 SWAP4 PUSH2 0x2BD4 SWAP4 SWAP3 DUP6 ADD SWAP3 SWAP2 ADD SWAP1 PUSH2 0x4A9E JUMP JUMPDEST POP PUSH1 0x40 DUP3 ADD MLOAD DUP1 MLOAD PUSH2 0x2BF0 SWAP2 PUSH1 0x2 DUP5 ADD SWAP2 PUSH1 0x20 SWAP1 SWAP2 ADD SWAP1 PUSH2 0x4AF4 JUMP JUMPDEST POP SWAP1 POP POP PUSH1 0x0 DUP1 MLOAD PUSH1 0x20 PUSH2 0x5ED2 DUP4 CODECOPY DUP2 MLOAD SWAP2 MSTORE PUSH1 0x0 SLOAD PUSH1 0x40 MLOAD PUSH1 0x20 ADD PUSH2 0x2C18 SWAP2 DUP2 MSTORE PUSH1 0x20 ADD SWAP1 JUMP JUMPDEST PUSH1 0x40 DUP1 MLOAD PUSH1 0x1F NOT DUP2 DUP5 SUB ADD DUP2 MSTORE SWAP1 DUP3 SWAP1 MSTORE PUSH2 0x2C34 SWAP2 CALLER SWAP1 PUSH2 0x55C0 JUMP JUMPDEST PUSH1 0x40 MLOAD DUP1 SWAP2 SUB SWAP1 LOG1 PUSH1 0x0 DUP1 SLOAD DUP1 DUP3 MSTORE PUSH1 0x2 PUSH1 0x20 DUP2 SWAP1 MSTORE PUSH1 0x40 DUP4 KECCAK256 SLOAD SWAP3 SWAP1 SWAP2 PUSH2 0x2C5D SWAP1 PUSH1 0x1 PUSH2 0x528E JUMP JUMPDEST DUP2 MSTORE PUSH1 0x20 ADD SWAP1 DUP2 MSTORE PUSH1 0x20 ADD PUSH1 0x0 KECCAK256 DUP2 SWAP1 SSTORE POP PUSH1 0x0 DUP1 DUP2 SLOAD DUP1 SWAP3 SWAP2 SWAP1 PUSH2 0x2C81 SWAP1 PUSH2 0x55EC JUMP JUMPDEST SWAP2 SWAP1 POP SSTORE POP POP POP JUMP JUMPDEST PUSH1 0x1 DUP1 SLOAD PUSH1 0xFF AND ISZERO ISZERO EQ PUSH2 0x2CB0 JUMPI PUSH1 0x40 MLOAD PUSH3 0x461BCD PUSH1 0xE5 SHL DUP2 MSTORE PUSH1 0x4 ADD PUSH2 0xC12 SWAP1 PUSH2 0x53CC JUMP JUMPDEST PUSH2 0x2CB9 DUP2 PUSH2 0x2277 JUMP JUMPDEST PUSH2 0x2CEB JUMPI PUSH1 0x40 MLOAD PUSH3 0x461BCD PUSH1 0xE5 SHL DUP2 MSTORE PUSH1 0x20 PUSH1 0x4 DUP3 ADD MSTORE PUSH1 0x3 PUSH1 0x24 DUP3 ADD MSTORE PUSH3 0x554221 PUSH1 0xE8 SHL PUSH1 0x44 DUP3 ADD MSTORE PUSH1 0x64 ADD PUSH2 0xC12 JUMP JUMPDEST PUSH1 0x40 DUP1 MLOAD DUP1 DUP3 ADD SWAP1 SWAP2 MSTORE PUSH1 0x4 DUP2 MSTORE PUSH4 0x36B0B4B7 PUSH1 0xE1 SHL PUSH1 0x20 SWAP2 DUP3 ADD MSTORE DUP2 MLOAD SWAP1 DUP3 ADD KECCAK256 PUSH32 0x471DFAB0756EDC981C75DD3188CCD700755407F7D3BEDF452610F7A1E240D659 ADD PUSH2 0x2D60 JUMPI PUSH1 0x40 MLOAD PUSH3 0x461BCD PUSH1 0xE5 SHL DUP2 MSTORE PUSH1 0x20 PUSH1 0x4 DUP3 ADD MSTORE PUSH1 0x2 PUSH1 0x24 DUP3 ADD MSTORE PUSH2 0x26A1 PUSH1 0xF1 SHL PUSH1 0x44 DUP3 ADD MSTORE PUSH1 0x64 ADD PUSH2 0xC12 JUMP JUMPDEST PUSH2 0x2D69 DUP2 PUSH2 0xF9E JUMP JUMPDEST PUSH2 0x2D9A JUMPI PUSH1 0x40 MLOAD PUSH3 0x461BCD PUSH1 0xE5 SHL DUP2 MSTORE PUSH1 0x20 PUSH1 0x4 DUP3 ADD MSTORE PUSH1 0x2 PUSH1 0x24 DUP3 ADD MSTORE PUSH2 0x4245 PUSH1 0xF0 SHL PUSH1 0x44 DUP3 ADD MSTORE PUSH1 0x64 ADD PUSH2 0xC12 JUMP JUMPDEST PUSH1 0x0 PUSH1 0xD DUP3 PUSH1 0x40 MLOAD PUSH2 0x2DAC SWAP2 SWAP1 PUSH2 0x52C5 JUMP JUMPDEST SWAP1 DUP2 MSTORE PUSH1 0x40 MLOAD PUSH1 0x20 SWAP2 DUP2 SWAP1 SUB DUP3 ADD DUP2 KECCAK256 DUP1 SLOAD PUSH1 0xFF NOT AND SWAP4 ISZERO ISZERO SWAP4 SWAP1 SWAP4 OR SWAP1 SWAP3 SSTORE PUSH1 0x0 DUP1 MLOAD PUSH1 0x20 PUSH2 0x5ED2 DUP4 CODECOPY DUP2 MLOAD SWAP2 MSTORE SWAP2 PUSH2 0x2DE8 SWAP2 DUP5 SWAP2 ADD PUSH2 0x5605 JUMP JUMPDEST PUSH1 0x40 DUP1 MLOAD PUSH1 0x1F NOT DUP2 DUP5 SUB ADD DUP2 MSTORE SWAP1 DUP3 SWAP1 MSTORE PUSH2 0x2E04 SWAP2 CALLER SWAP1 PUSH2 0x5618 JUMP JUMPDEST PUSH1 0x40 MLOAD DUP1 SWAP2 SUB SWAP1 LOG1 POP JUMP JUMPDEST PUSH2 0x2E1B DUP5 DUP5 DUP5 DUP5 PUSH2 0x45D1 JUMP JUMPDEST PUSH1 0x40 DUP1 MLOAD PUSH1 0x20 DUP2 ADD DUP7 SWAP1 MSTORE PUSH1 0x1 PUSH1 0x1 PUSH1 0xA0 SHL SUB DUP1 DUP7 AND SWAP3 DUP3 ADD SWAP3 SWAP1 SWAP3 MSTORE PUSH1 0x60 DUP2 ADD DUP5 SWAP1 MSTORE SWAP1 DUP3 AND PUSH1 0x80 DUP3 ADD MSTORE PUSH1 0x0 DUP1 MLOAD PUSH1 0x20 PUSH2 0x5ED2 DUP4 CODECOPY DUP2 MLOAD SWAP2 MSTORE SWAP1 PUSH1 0xA0 ADD PUSH1 0x40 DUP1 MLOAD PUSH1 0x1F NOT DUP2 DUP5 SUB ADD DUP2 MSTORE SWAP1 DUP3 SWAP1 MSTORE PUSH2 0xD91 SWAP2 CALLER SWAP1 PUSH2 0x5644 JUMP JUMPDEST PUSH1 0x1 DUP1 SLOAD PUSH1 0xFF AND ISZERO ISZERO EQ PUSH2 0x2E9C JUMPI PUSH1 0x40 MLOAD PUSH3 0x461BCD PUSH1 0xE5 SHL DUP2 MSTORE PUSH1 0x4 ADD PUSH2 0xC12 SWAP1 PUSH2 0x53CC JUMP JUMPDEST PUSH1 0x0 DUP3 DUP2 MSTORE PUSH1 0x16 PUSH1 0x20 MSTORE PUSH1 0x40 SWAP1 KECCAK256 PUSH1 0x1 ADD SLOAD DUP2 LT PUSH2 0x2EE2 JUMPI PUSH1 0x40 MLOAD PUSH3 0x461BCD PUSH1 0xE5 SHL DUP2 MSTORE PUSH1 0x20 PUSH1 0x4 DUP3 ADD MSTORE PUSH1 0x3 PUSH1 0x24 DUP3 ADD MSTORE PUSH3 0x504445 PUSH1 0xE8 SHL PUSH1 0x44 DUP3 ADD MSTORE PUSH1 0x64 ADD PUSH2 0xC12 JUMP JUMPDEST PUSH1 0x0 DUP3 DUP2 MSTORE PUSH1 0x19 PUSH1 0x20 MSTORE PUSH1 0x40 SWAP1 KECCAK256 SLOAD DUP2 EQ PUSH2 0x2F25 JUMPI PUSH1 0x40 MLOAD PUSH3 0x461BCD PUSH1 0xE5 SHL DUP2 MSTORE PUSH1 0x20 PUSH1 0x4 DUP3 ADD MSTORE PUSH1 0x3 PUSH1 0x24 DUP3 ADD MSTORE PUSH3 0x57504F PUSH1 0xE8 SHL PUSH1 0x44 DUP3 ADD MSTORE PUSH1 0x64 ADD PUSH2 0xC12 JUMP JUMPDEST PUSH1 0x0 DUP3 DUP2 MSTORE PUSH1 0x19 PUSH1 0x20 MSTORE PUSH1 0x40 DUP2 KECCAK256 DUP1 SLOAD PUSH1 0x1 SWAP3 SWAP1 PUSH2 0x2F44 SWAP1 DUP5 SWAP1 PUSH2 0x528E JUMP JUMPDEST SWAP1 SWAP2 SSTORE POP POP PUSH1 0x0 DUP3 DUP2 MSTORE PUSH1 0x16 PUSH1 0x20 MSTORE PUSH1 0x40 DUP2 KECCAK256 PUSH1 0x1 ADD DUP1 SLOAD DUP4 SWAP1 DUP2 LT PUSH2 0x2F6C JUMPI PUSH2 0x2F6C PUSH2 0x5670 JUMP JUMPDEST SWAP1 PUSH1 0x0 MSTORE PUSH1 0x20 PUSH1 0x0 KECCAK256 ADD DUP1 SLOAD PUSH2 0x2F81 SWAP1 PUSH2 0x5686 JUMP JUMPDEST DUP1 PUSH1 0x1F ADD PUSH1 0x20 DUP1 SWAP2 DIV MUL PUSH1 0x20 ADD PUSH1 0x40 MLOAD SWAP1 DUP2 ADD PUSH1 0x40 MSTORE DUP1 SWAP3 SWAP2 SWAP1 DUP2 DUP2 MSTORE PUSH1 0x20 ADD DUP3 DUP1 SLOAD PUSH2 0x2FAD SWAP1 PUSH2 0x5686 JUMP JUMPDEST DUP1 ISZERO PUSH2 0x2FFA JUMPI DUP1 PUSH1 0x1F LT PUSH2 0x2FCF JUMPI PUSH2 0x100 DUP1 DUP4 SLOAD DIV MUL DUP4 MSTORE SWAP2 PUSH1 0x20 ADD SWAP2 PUSH2 0x2FFA JUMP JUMPDEST DUP3 ADD SWAP2 SWAP1 PUSH1 0x0 MSTORE PUSH1 0x20 PUSH1 0x0 KECCAK256 SWAP1 JUMPDEST DUP2 SLOAD DUP2 MSTORE SWAP1 PUSH1 0x1 ADD SWAP1 PUSH1 0x20 ADD DUP1 DUP4 GT PUSH2 0x2FDD JUMPI DUP3 SWAP1 SUB PUSH1 0x1F AND DUP3 ADD SWAP2 JUMPDEST POP POP POP POP POP SWAP1 POP PUSH1 0x0 PUSH1 0x16 PUSH1 0x0 DUP6 DUP2 MSTORE PUSH1 0x20 ADD SWAP1 DUP2 MSTORE PUSH1 0x20 ADD PUSH1 0x0 KECCAK256 PUSH1 0x2 ADD DUP4 DUP2 SLOAD DUP2 LT PUSH2 0x302A JUMPI PUSH2 0x302A PUSH2 0x5670 JUMP JUMPDEST SWAP1 PUSH1 0x0 MSTORE PUSH1 0x20 PUSH1 0x0 KECCAK256 ADD DUP1 SLOAD PUSH2 0x303F SWAP1 PUSH2 0x5686 JUMP JUMPDEST DUP1 PUSH1 0x1F ADD PUSH1 0x20 DUP1 SWAP2 DIV MUL PUSH1 0x20 ADD PUSH1 0x40 MLOAD SWAP1 DUP2 ADD PUSH1 0x40 MSTORE DUP1 SWAP3 SWAP2 SWAP1 DUP2 DUP2 MSTORE PUSH1 0x20 ADD DUP3 DUP1 SLOAD PUSH2 0x306B SWAP1 PUSH2 0x5686 JUMP JUMPDEST DUP1 ISZERO PUSH2 0x30B8 JUMPI DUP1 PUSH1 0x1F LT PUSH2 0x308D JUMPI PUSH2 0x100 DUP1 DUP4 SLOAD DIV MUL DUP4 MSTORE SWAP2 PUSH1 0x20 ADD SWAP2 PUSH2 0x30B8 JUMP JUMPDEST DUP3 ADD SWAP2 SWAP1 PUSH1 0x0 MSTORE PUSH1 0x20 PUSH1 0x0 KECCAK256 SWAP1 JUMPDEST DUP2 SLOAD DUP2 MSTORE SWAP1 PUSH1 0x1 ADD SWAP1 PUSH1 0x20 ADD DUP1 DUP4 GT PUSH2 0x309B JUMPI DUP3 SWAP1 SUB PUSH1 0x1F AND DUP3 ADD SWAP2 JUMPDEST POP POP POP POP POP SWAP1 POP PUSH1 0x0 DUP3 DUP1 MLOAD SWAP1 PUSH1 0x20 ADD KECCAK256 SWAP1 POP PUSH1 0x40 MLOAD DUP1 PUSH1 0x40 ADD PUSH1 0x40 MSTORE DUP1 PUSH1 0x2 DUP2 MSTORE PUSH1 0x20 ADD PUSH2 0x34A9 PUSH1 0xF1 SHL DUP2 MSTORE POP DUP1 MLOAD SWAP1 PUSH1 0x20 ADD KECCAK256 DUP2 SUB PUSH2 0x311B JUMPI PUSH1 0x0 DUP1 DUP4 DUP1 PUSH1 0x20 ADD SWAP1 MLOAD DUP2 ADD SWAP1 PUSH2 0x310A SWAP2 SWAP1 PUSH2 0x57A4 JUMP JUMPDEST SWAP2 POP SWAP2 POP PUSH2 0x3118 DUP3 DUP3 PUSH2 0x2B01 JUMP JUMPDEST POP POP JUMPDEST PUSH1 0x40 DUP1 MLOAD DUP1 DUP3 ADD SWAP1 SWAP2 MSTORE PUSH1 0x2 DUP2 MSTORE PUSH2 0x735 PUSH1 0xF4 SHL PUSH1 0x20 SWAP1 SWAP2 ADD MSTORE PUSH32 0xF1B1BBC74E4DF8608497E5EED3180A4B18C6B574FF7C886247E917619E157587 DUP2 ADD PUSH2 0x318A JUMPI PUSH1 0x0 DUP1 PUSH1 0x0 DUP5 DUP1 PUSH1 0x20 ADD SWAP1 MLOAD DUP2 ADD SWAP1 PUSH2 0x3175 SWAP2 SWAP1 PUSH2 0x5870 JUMP JUMPDEST SWAP3 POP SWAP3 POP SWAP3 POP PUSH2 0x3186 DUP4 DUP3 DUP5 PUSH2 0x444C JUMP JUMPDEST POP POP POP JUMPDEST PUSH1 0x40 DUP1 MLOAD DUP1 DUP3 ADD SWAP1 SWAP2 MSTORE PUSH1 0x2 DUP2 MSTORE PUSH2 0x1D15 PUSH1 0xF2 SHL PUSH1 0x20 SWAP1 SWAP2 ADD MSTORE PUSH32 0x36DDD33E7A7F4736D675524B57AE6969FBA9049312747B57679F33A51849C6B1 DUP2 ADD PUSH2 0x3204 JUMPI PUSH1 0x0 DUP1 PUSH1 0x0 DUP1 PUSH1 0x0 DUP7 DUP1 PUSH1 0x20 ADD SWAP1 MLOAD DUP2 ADD SWAP1 PUSH2 0x31E7 SWAP2 SWAP1 PUSH2 0x58C9 JUMP JUMPDEST SWAP5 POP SWAP5 POP SWAP5 POP SWAP5 POP SWAP5 POP PUSH2 0x31FE DUP6 DUP6 DUP6 DUP6 DUP6 PUSH2 0x3969 JUMP JUMPDEST POP POP POP POP POP JUMPDEST PUSH1 0x40 DUP1 MLOAD DUP1 DUP3 ADD SWAP1 SWAP2 MSTORE PUSH1 0x2 DUP2 MSTORE PUSH2 0x1B55 PUSH1 0xF2 SHL PUSH1 0x20 SWAP1 SWAP2 ADD MSTORE PUSH32 0x6F27458A75A197963A149D891EE01B4F59E7DFBCD1A8C7BC1095DC063775C5E9 DUP2 ADD PUSH2 0x3278 JUMPI PUSH1 0x0 DUP1 PUSH1 0x0 DUP1 DUP6 DUP1 PUSH1 0x20 ADD SWAP1 MLOAD DUP2 ADD SWAP1 PUSH2 0x325F SWAP2 SWAP1 PUSH2 0x5950 JUMP JUMPDEST SWAP4 POP SWAP4 POP SWAP4 POP SWAP4 POP PUSH2 0x3273 DUP5 DUP5 DUP5 DUP5 PUSH2 0x3C1C JUMP JUMPDEST POP POP POP POP JUMPDEST PUSH1 0x40 DUP1 MLOAD DUP1 DUP3 ADD SWAP1 SWAP2 MSTORE PUSH1 0x2 DUP2 MSTORE PUSH2 0x1A51 PUSH1 0xF2 SHL PUSH1 0x20 SWAP1 SWAP2 ADD MSTORE PUSH32 0x1CF0197AED3B237C637010856237AFEB1EC5367FD4B836BF00F3BD32EEF1EF77 DUP2 ADD PUSH2 0x32E7 JUMPI PUSH1 0x0 DUP1 PUSH1 0x0 DUP5 DUP1 PUSH1 0x20 ADD SWAP1 MLOAD DUP2 ADD SWAP1 PUSH2 0x32D2 SWAP2 SWAP1 PUSH2 0x59CD JUMP JUMPDEST SWAP3 POP SWAP3 POP SWAP3 POP PUSH2 0x32E3 DUP4 DUP4 DUP4 PUSH2 0x3740 JUMP JUMPDEST POP POP POP JUMPDEST PUSH1 0x40 DUP1 MLOAD DUP1 DUP3 ADD SWAP1 SWAP2 MSTORE PUSH1 0x2 DUP2 MSTORE PUSH2 0x6953 PUSH1 0xF0 SHL PUSH1 0x20 SWAP1 SWAP2 ADD MSTORE PUSH32 0x11302F5E4C5C3A196DB2F07F09E2F91274031E3F83E172B68276385C26AC608 DUP2 ADD PUSH2 0x335B JUMPI PUSH1 0x0 DUP1 PUSH1 0x0 DUP1 DUP6 DUP1 PUSH1 0x20 ADD SWAP1 MLOAD DUP2 ADD SWAP1 PUSH2 0x3342 SWAP2 SWAP1 PUSH2 0x5A27 JUMP JUMPDEST SWAP4 POP SWAP4 POP SWAP4 POP SWAP4 POP PUSH2 0x3356 DUP5 DUP5 DUP5 DUP5 PUSH2 0x2E0F JUMP JUMPDEST POP POP POP POP JUMPDEST PUSH1 0x40 DUP1 MLOAD DUP1 DUP3 ADD SWAP1 SWAP2 MSTORE PUSH1 0x2 DUP2 MSTORE PUSH2 0x1911 PUSH1 0xF2 SHL PUSH1 0x20 SWAP1 SWAP2 ADD MSTORE PUSH32 0xEDD0EE4C0D87C45F9EDC0B9BA6F7373336C241B06C885E00F23C1AB5EC82A747 DUP2 ADD PUSH2 0x33BF JUMPI PUSH1 0x0 DUP3 DUP1 PUSH1 0x20 ADD SWAP1 MLOAD DUP2 ADD SWAP1 PUSH2 0x33B2 SWAP2 SWAP1 PUSH2 0x5434 JUMP JUMPDEST SWAP1 POP PUSH2 0x33BD DUP2 PUSH2 0x2848 JUMP JUMPDEST POP JUMPDEST PUSH1 0x40 DUP1 MLOAD DUP1 DUP3 ADD SWAP1 SWAP2 MSTORE PUSH1 0x2 DUP2 MSTORE PUSH2 0x31A1 PUSH1 0xF1 SHL PUSH1 0x20 SWAP1 SWAP2 ADD MSTORE PUSH32 0x2108E84F920E4EEE7D6AC9EF2ABEB540A1D7F56715D474E0B06B236CF4E70312 DUP2 ADD PUSH2 0x3428 JUMPI PUSH1 0x0 DUP1 DUP4 DUP1 PUSH1 0x20 ADD SWAP1 MLOAD DUP2 ADD SWAP1 PUSH2 0x3417 SWAP2 SWAP1 PUSH2 0x5A67 JUMP JUMPDEST SWAP2 POP SWAP2 POP PUSH2 0x3425 DUP3 DUP3 PUSH2 0x2933 JUMP JUMPDEST POP POP JUMPDEST PUSH1 0x40 DUP1 MLOAD DUP1 DUP3 ADD SWAP1 SWAP2 MSTORE PUSH1 0x2 DUP2 MSTORE PUSH2 0x3221 PUSH1 0xF1 SHL PUSH1 0x20 SWAP1 SWAP2 ADD MSTORE PUSH32 0x46E76FB60CBFEA5DC4E313412F858C830E50E6E875D17B0921DB6456F8AC9CDB DUP2 ADD PUSH2 0x348C JUMPI PUSH1 0x0 DUP3 DUP1 PUSH1 0x20 ADD SWAP1 MLOAD DUP2 ADD SWAP1 PUSH2 0x347F SWAP2 SWAP1 PUSH2 0x5AAD JUMP JUMPDEST SWAP1 POP PUSH2 0x348A DUP2 PUSH2 0x2C8A JUMP JUMPDEST POP JUMPDEST PUSH1 0x40 DUP1 MLOAD DUP1 DUP3 ADD SWAP1 SWAP2 MSTORE PUSH1 0x3 DUP2 MSTORE PUSH3 0x614241 PUSH1 0xE8 SHL PUSH1 0x20 SWAP1 SWAP2 ADD MSTORE PUSH32 0x747EDC76097BCCD90F0D440C26B5930408266BBE117772D2C1D5B62A81070BD2 DUP2 ADD PUSH2 0x34F6 JUMPI PUSH1 0x0 DUP1 DUP4 DUP1 PUSH1 0x20 ADD SWAP1 MLOAD DUP2 ADD SWAP1 PUSH2 0x34E5 SWAP2 SWAP1 PUSH2 0x5A67 JUMP JUMPDEST SWAP2 POP SWAP2 POP PUSH2 0x34F3 DUP3 DUP3 PUSH2 0x3EC0 JUMP JUMPDEST POP POP JUMPDEST PUSH1 0x40 DUP1 MLOAD DUP1 DUP3 ADD SWAP1 SWAP2 MSTORE PUSH1 0x3 DUP2 MSTORE PUSH3 0x724241 PUSH1 0xE8 SHL PUSH1 0x20 SWAP1 SWAP2 ADD MSTORE PUSH32 0xE01588F2B7120B2685EAD94790242F17D977E3D7967BB132B1110F04A44120A7 DUP2 ADD PUSH2 0x3560 JUMPI PUSH1 0x0 DUP1 DUP4 DUP1 PUSH1 0x20 ADD SWAP1 MLOAD DUP2 ADD SWAP1 PUSH2 0x354F SWAP2 SWAP1 PUSH2 0x5A67 JUMP JUMPDEST SWAP2 POP SWAP2 POP PUSH2 0x355D DUP3 DUP3 PUSH2 0x2A45 JUMP JUMPDEST POP POP JUMPDEST PUSH1 0x40 DUP1 MLOAD DUP1 DUP3 ADD SWAP1 SWAP2 MSTORE PUSH1 0x3 DUP2 MSTORE PUSH3 0x725441 PUSH1 0xE8 SHL PUSH1 0x20 SWAP1 SWAP2 ADD MSTORE PUSH32 0xE2347E35BD161F6471726760EE12A18A4BD894EC18D0E8149DABE9C97A206819 DUP2 ADD PUSH2 0x35C5 JUMPI PUSH1 0x0 DUP3 DUP1 PUSH1 0x20 ADD SWAP1 MLOAD DUP2 ADD SWAP1 PUSH2 0x35B8 SWAP2 SWAP1 PUSH2 0x5AE1 JUMP JUMPDEST SWAP1 POP PUSH2 0x35C3 DUP2 PUSH2 0x3BD3 JUMP JUMPDEST POP JUMPDEST PUSH1 0x40 DUP1 MLOAD DUP1 DUP3 ADD SWAP1 SWAP2 MSTORE PUSH1 0x3 DUP2 MSTORE PUSH3 0x755441 PUSH1 0xE8 SHL PUSH1 0x20 SWAP1 SWAP2 ADD MSTORE PUSH32 0xC2C2A7F0073A768C7BFFC087093ECEFFD50955AD08A9BA26982DC60F1859EB80 DUP2 ADD PUSH2 0x362A JUMPI PUSH1 0x0 DUP3 DUP1 PUSH1 0x20 ADD SWAP1 MLOAD DUP2 ADD SWAP1 PUSH2 0x361D SWAP2 SWAP1 PUSH2 0x5AE1 JUMP JUMPDEST SWAP1 POP PUSH2 0x3628 DUP2 PUSH2 0x3B8A JUMP JUMPDEST POP JUMPDEST PUSH1 0x40 DUP1 MLOAD DUP1 DUP3 ADD SWAP1 SWAP2 MSTORE PUSH1 0x2 DUP2 MSTORE PUSH2 0x6C45 PUSH1 0xF0 SHL PUSH1 0x20 SWAP1 SWAP2 ADD MSTORE PUSH32 0xDB51409824AFFAF893516504171B78835CB61AD014B6889940145B5796625F41 DUP2 ADD PUSH2 0x3678 JUMPI PUSH2 0x3673 PUSH2 0x24BE JUMP JUMPDEST PUSH2 0x36A5 JUMP JUMPDEST PUSH1 0x40 MLOAD PUSH3 0x461BCD PUSH1 0xE5 SHL DUP2 MSTORE PUSH1 0x20 PUSH1 0x4 DUP3 ADD MSTORE PUSH1 0x2 PUSH1 0x24 DUP3 ADD MSTORE PUSH2 0x2BA3 PUSH1 0xF1 SHL PUSH1 0x44 DUP3 ADD MSTORE PUSH1 0x64 ADD PUSH2 0xC12 JUMP JUMPDEST PUSH1 0x40 DUP1 MLOAD PUSH1 0x20 DUP2 ADD DUP8 SWAP1 MSTORE SWAP1 DUP2 ADD DUP6 SWAP1 MSTORE PUSH1 0x0 DUP1 MLOAD PUSH1 0x20 PUSH2 0x5ED2 DUP4 CODECOPY DUP2 MLOAD SWAP2 MSTORE SWAP1 PUSH1 0x60 ADD PUSH1 0x40 DUP1 MLOAD PUSH1 0x1F NOT DUP2 DUP5 SUB ADD DUP2 MSTORE SWAP1 DUP3 SWAP1 MSTORE PUSH2 0x36E5 SWAP2 CALLER SWAP1 PUSH2 0x5AFE JUMP JUMPDEST PUSH1 0x40 MLOAD DUP1 SWAP2 SUB SWAP1 LOG1 PUSH1 0x0 DUP6 DUP2 MSTORE PUSH1 0x16 PUSH1 0x20 SWAP1 DUP2 MSTORE PUSH1 0x40 DUP1 DUP4 KECCAK256 PUSH1 0x1 ADD SLOAD PUSH1 0x19 SWAP1 SWAP3 MSTORE SWAP1 SWAP2 KECCAK256 SLOAD SUB PUSH2 0x18C8 JUMPI PUSH1 0x40 MLOAD DUP6 DUP2 MSTORE PUSH32 0x8D0D26399C7B999F9067E92DCF5A21EBC7BF6CD77BD186E721E4DFC2654E7830 SWAP1 PUSH1 0x20 ADD PUSH2 0x17FC JUMP JUMPDEST PUSH1 0x1 DUP1 SLOAD PUSH1 0xFF AND ISZERO ISZERO EQ PUSH2 0x3766 JUMPI PUSH1 0x40 MLOAD PUSH3 0x461BCD PUSH1 0xE5 SHL DUP2 MSTORE PUSH1 0x4 ADD PUSH2 0xC12 SWAP1 PUSH2 0x53CC JUMP JUMPDEST DUP3 PUSH2 0x3770 DUP2 PUSH2 0x2277 JUMP JUMPDEST PUSH2 0x378C JUMPI PUSH1 0x40 MLOAD PUSH3 0x461BCD PUSH1 0xE5 SHL DUP2 MSTORE PUSH1 0x4 ADD PUSH2 0xC12 SWAP1 PUSH2 0x525B JUMP JUMPDEST PUSH1 0xF DUP5 PUSH1 0x40 MLOAD PUSH2 0x379C SWAP2 SWAP1 PUSH2 0x52C5 JUMP JUMPDEST SWAP1 DUP2 MSTORE PUSH1 0x40 DUP1 MLOAD PUSH1 0x20 SWAP3 DUP2 SWAP1 SUB DUP4 ADD SWAP1 KECCAK256 PUSH1 0x1 PUSH1 0x1 PUSH1 0xA0 SHL SUB DUP7 AND PUSH1 0x0 SWAP1 DUP2 MSTORE SWAP3 MSTORE SWAP1 KECCAK256 SLOAD DUP3 GT ISZERO PUSH2 0x37E0 JUMPI PUSH1 0x40 MLOAD PUSH3 0x461BCD PUSH1 0xE5 SHL DUP2 MSTORE PUSH1 0x4 ADD PUSH2 0xC12 SWAP1 PUSH2 0x5B2A JUMP JUMPDEST DUP2 PUSH1 0xF DUP6 PUSH1 0x40 MLOAD PUSH2 0x37F1 SWAP2 SWAP1 PUSH2 0x52C5 JUMP JUMPDEST SWAP1 DUP2 MSTORE PUSH1 0x20 ADD PUSH1 0x40 MLOAD DUP1 SWAP2 SUB SWAP1 KECCAK256 PUSH1 0x0 DUP6 PUSH1 0x1 PUSH1 0x1 PUSH1 0xA0 SHL SUB AND PUSH1 0x1 PUSH1 0x1 PUSH1 0xA0 SHL SUB AND DUP2 MSTORE PUSH1 0x20 ADD SWAP1 DUP2 MSTORE PUSH1 0x20 ADD PUSH1 0x0 KECCAK256 PUSH1 0x0 DUP3 DUP3 SLOAD PUSH2 0x3831 SWAP2 SWAP1 PUSH2 0x5421 JUMP JUMPDEST SWAP1 SWAP2 SSTORE POP POP PUSH1 0x40 MLOAD PUSH1 0xF SWAP1 PUSH2 0x3847 SWAP1 DUP7 SWAP1 PUSH2 0x52C5 JUMP JUMPDEST SWAP1 DUP2 MSTORE PUSH1 0x40 DUP1 MLOAD PUSH1 0x20 SWAP3 DUP2 SWAP1 SUB DUP4 ADD SWAP1 KECCAK256 PUSH1 0x1 PUSH1 0x1 PUSH1 0xA0 SHL SUB DUP7 AND PUSH1 0x0 SWAP1 DUP2 MSTORE SWAP3 MSTORE SWAP1 KECCAK256 SLOAD ISZERO DUP1 ISZERO PUSH2 0x3881 JUMPI POP PUSH1 0x1 PUSH1 0x1 PUSH1 0xA0 SHL SUB DUP4 AND ISZERO ISZERO JUMPDEST ISZERO PUSH2 0x38BB JUMPI PUSH1 0x1 PUSH1 0xE DUP6 PUSH1 0x40 MLOAD PUSH2 0x3898 SWAP2 SWAP1 PUSH2 0x52C5 JUMP JUMPDEST SWAP1 DUP2 MSTORE PUSH1 0x20 ADD PUSH1 0x40 MLOAD DUP1 SWAP2 SUB SWAP1 KECCAK256 PUSH1 0x0 DUP3 DUP3 SLOAD PUSH2 0x38B5 SWAP2 SWAP1 PUSH2 0x5421 JUMP JUMPDEST SWAP1 SWAP2 SSTORE POP POP JUMPDEST PUSH1 0x40 DUP1 MLOAD DUP1 DUP3 ADD DUP3 MSTORE PUSH1 0x1 PUSH1 0x1 PUSH1 0xA0 SHL SUB DUP6 DUP2 AND DUP3 MSTORE PUSH1 0x20 DUP1 DUP4 ADD DUP7 DUP2 MSTORE PUSH1 0x0 DUP1 SLOAD DUP2 MSTORE PUSH1 0x13 DUP4 MSTORE DUP6 DUP2 KECCAK256 SWAP5 MLOAD DUP6 SLOAD PUSH1 0x1 PUSH1 0x1 PUSH1 0xA0 SHL SUB NOT AND SWAP5 AND SWAP4 SWAP1 SWAP4 OR DUP5 SSTORE MLOAD PUSH1 0x1 SWAP4 DUP5 ADD SSTORE DUP2 SLOAD DUP3 MSTORE PUSH1 0x14 DUP2 MSTORE DUP4 DUP3 KECCAK256 DUP7 SWAP1 SSTORE DUP2 SLOAD DUP3 MSTORE PUSH1 0x12 DUP2 MSTORE DUP4 DUP3 KECCAK256 DUP1 SLOAD PUSH1 0xFF NOT AND SWAP1 SWAP4 OR SWAP1 SWAP3 SSTORE SLOAD SWAP2 MLOAD PUSH1 0x0 DUP1 MLOAD PUSH1 0x20 PUSH2 0x5ED2 DUP4 CODECOPY DUP2 MLOAD SWAP2 MSTORE SWAP3 PUSH2 0x394D SWAP3 SWAP1 SWAP2 DUP9 SWAP2 DUP9 SWAP2 DUP9 SWAP2 ADD PUSH2 0x5B46 JUMP JUMPDEST PUSH1 0x40 DUP1 MLOAD PUSH1 0x1F NOT DUP2 DUP5 SUB ADD DUP2 MSTORE SWAP1 DUP3 SWAP1 MSTORE PUSH2 0xD91 SWAP2 CALLER SWAP1 PUSH2 0x5B7B JUMP JUMPDEST PUSH1 0x1 DUP1 SLOAD PUSH1 0xFF AND ISZERO ISZERO EQ PUSH2 0x398F JUMPI PUSH1 0x40 MLOAD PUSH3 0x461BCD PUSH1 0xE5 SHL DUP2 MSTORE PUSH1 0x4 ADD PUSH2 0xC12 SWAP1 PUSH2 0x53CC JUMP JUMPDEST PUSH1 0xF DUP6 PUSH1 0x40 MLOAD PUSH2 0x399F SWAP2 SWAP1 PUSH2 0x52C5 JUMP JUMPDEST SWAP1 DUP2 MSTORE PUSH1 0x40 DUP1 MLOAD PUSH1 0x20 SWAP3 DUP2 SWAP1 SUB DUP4 ADD SWAP1 KECCAK256 PUSH1 0x1 PUSH1 0x1 PUSH1 0xA0 SHL SUB DUP8 AND PUSH1 0x0 SWAP1 DUP2 MSTORE SWAP3 MSTORE SWAP1 KECCAK256 SLOAD DUP4 GT ISZERO PUSH2 0x39E3 JUMPI PUSH1 0x40 MLOAD PUSH3 0x461BCD PUSH1 0xE5 SHL DUP2 MSTORE PUSH1 0x4 ADD PUSH2 0xC12 SWAP1 PUSH2 0x5B2A JUMP JUMPDEST PUSH2 0x39EF DUP5 DUP5 DUP5 DUP5 PUSH2 0x25BA JUMP JUMPDEST PUSH2 0x18C8 DUP6 DUP6 DUP6 DUP6 DUP6 PUSH2 0x4650 JUMP JUMPDEST DUP3 PUSH2 0x3A06 DUP2 PUSH2 0x2277 JUMP JUMPDEST PUSH2 0x3A22 JUMPI PUSH1 0x40 MLOAD PUSH3 0x461BCD PUSH1 0xE5 SHL DUP2 MSTORE PUSH1 0x4 ADD PUSH2 0xC12 SWAP1 PUSH2 0x525B JUMP JUMPDEST PUSH2 0x3A2B DUP4 PUSH2 0x19DE JUMP JUMPDEST PUSH2 0x3A5C JUMPI PUSH1 0x40 MLOAD PUSH3 0x461BCD PUSH1 0xE5 SHL DUP2 MSTORE PUSH1 0x20 PUSH1 0x4 DUP3 ADD MSTORE PUSH1 0x2 PUSH1 0x24 DUP3 ADD MSTORE PUSH2 0x1555 PUSH1 0xF2 SHL PUSH1 0x44 DUP3 ADD MSTORE PUSH1 0x64 ADD PUSH2 0xC12 JUMP JUMPDEST PUSH1 0x40 MLOAD PUSH4 0x6EB1769F PUSH1 0xE1 SHL DUP2 MSTORE CALLER PUSH1 0x4 DUP3 ADD MSTORE ADDRESS PUSH1 0x24 DUP3 ADD MSTORE DUP4 SWAP1 DUP4 SWAP1 PUSH1 0x1 PUSH1 0x1 PUSH1 0xA0 SHL SUB DUP4 AND SWAP1 PUSH4 0xDD62ED3E SWAP1 PUSH1 0x44 ADD PUSH1 0x20 PUSH1 0x40 MLOAD DUP1 DUP4 SUB DUP2 DUP7 GAS STATICCALL ISZERO DUP1 ISZERO PUSH2 0x3AAA JUMPI RETURNDATASIZE PUSH1 0x0 DUP1 RETURNDATACOPY RETURNDATASIZE PUSH1 0x0 REVERT JUMPDEST POP POP POP POP PUSH1 0x40 MLOAD RETURNDATASIZE PUSH1 0x1F NOT PUSH1 0x1F DUP3 ADD AND DUP3 ADD DUP1 PUSH1 0x40 MSTORE POP DUP2 ADD SWAP1 PUSH2 0x3ACE SWAP2 SWAP1 PUSH2 0x5434 JUMP JUMPDEST LT ISZERO PUSH2 0x3AEC JUMPI PUSH1 0x40 MLOAD PUSH3 0x461BCD PUSH1 0xE5 SHL DUP2 MSTORE PUSH1 0x4 ADD PUSH2 0xC12 SWAP1 PUSH2 0x544D JUMP JUMPDEST PUSH1 0x40 MLOAD PUSH4 0x23B872DD PUSH1 0xE0 SHL DUP2 MSTORE CALLER PUSH1 0x4 DUP3 ADD MSTORE ADDRESS PUSH1 0x24 DUP3 ADD MSTORE PUSH1 0x44 DUP2 ADD DUP5 SWAP1 MSTORE PUSH1 0x1 PUSH1 0x1 PUSH1 0xA0 SHL SUB DUP3 AND SWAP1 PUSH4 0x23B872DD SWAP1 PUSH1 0x64 ADD PUSH1 0x20 PUSH1 0x40 MLOAD DUP1 DUP4 SUB DUP2 PUSH1 0x0 DUP8 GAS CALL ISZERO DUP1 ISZERO PUSH2 0x3B3F JUMPI RETURNDATASIZE PUSH1 0x0 DUP1 RETURNDATACOPY RETURNDATASIZE PUSH1 0x0 REVERT JUMPDEST POP POP POP POP PUSH1 0x40 MLOAD RETURNDATASIZE PUSH1 0x1F NOT PUSH1 0x1F DUP3 ADD AND DUP3 ADD DUP1 PUSH1 0x40 MSTORE POP DUP2 ADD SWAP1 PUSH2 0x3B63 SWAP2 SWAP1 PUSH2 0x5469 JUMP JUMPDEST PUSH2 0x3B7F JUMPI PUSH1 0x40 MLOAD PUSH3 0x461BCD PUSH1 0xE5 SHL DUP2 MSTORE PUSH1 0x4 ADD PUSH2 0xC12 SWAP1 PUSH2 0x5486 JUMP JUMPDEST PUSH2 0x18C8 DUP6 DUP6 DUP6 PUSH2 0xBEC JUMP JUMPDEST PUSH2 0x3B93 DUP2 PUSH2 0x47F1 JUMP JUMPDEST PUSH1 0x40 DUP1 MLOAD PUSH1 0x1 PUSH1 0x1 PUSH1 0xA0 SHL SUB DUP4 AND PUSH1 0x20 DUP3 ADD MSTORE PUSH1 0x0 DUP1 MLOAD PUSH1 0x20 PUSH2 0x5ED2 DUP4 CODECOPY DUP2 MLOAD SWAP2 MSTORE SWAP2 ADD PUSH1 0x40 DUP1 MLOAD PUSH1 0x1F NOT DUP2 DUP5 SUB ADD DUP2 MSTORE SWAP1 DUP3 SWAP1 MSTORE PUSH2 0x2E04 SWAP2 CALLER SWAP1 PUSH2 0x5BA7 JUMP JUMPDEST PUSH2 0x3BDC DUP2 PUSH2 0x4897 JUMP JUMPDEST PUSH1 0x40 DUP1 MLOAD PUSH1 0x1 PUSH1 0x1 PUSH1 0xA0 SHL SUB DUP4 AND PUSH1 0x20 DUP3 ADD MSTORE PUSH1 0x0 DUP1 MLOAD PUSH1 0x20 PUSH2 0x5ED2 DUP4 CODECOPY DUP2 MLOAD SWAP2 MSTORE SWAP2 ADD PUSH1 0x40 DUP1 MLOAD PUSH1 0x1F NOT DUP2 DUP5 SUB ADD DUP2 MSTORE SWAP1 DUP3 SWAP1 MSTORE PUSH2 0x2E04 SWAP2 CALLER SWAP1 PUSH2 0x5BD4 JUMP JUMPDEST DUP4 PUSH2 0x3C26 DUP2 PUSH2 0x2277 JUMP JUMPDEST PUSH2 0x3C42 JUMPI PUSH1 0x40 MLOAD PUSH3 0x461BCD PUSH1 0xE5 SHL DUP2 MSTORE PUSH1 0x4 ADD PUSH2 0xC12 SWAP1 PUSH2 0x525B JUMP JUMPDEST DUP4 PUSH2 0x3C4C DUP2 PUSH2 0x2277 JUMP JUMPDEST PUSH2 0x3C68 JUMPI PUSH1 0x40 MLOAD PUSH3 0x461BCD PUSH1 0xE5 SHL DUP2 MSTORE PUSH1 0x4 ADD PUSH2 0xC12 SWAP1 PUSH2 0x525B JUMP JUMPDEST PUSH1 0x1 DUP1 SLOAD PUSH1 0xFF AND ISZERO ISZERO EQ PUSH2 0x3C8E JUMPI PUSH1 0x40 MLOAD PUSH3 0x461BCD PUSH1 0xE5 SHL DUP2 MSTORE PUSH1 0x4 ADD PUSH2 0xC12 SWAP1 PUSH2 0x53CC JUMP JUMPDEST PUSH1 0xF DUP7 PUSH1 0x40 MLOAD PUSH2 0x3C9E SWAP2 SWAP1 PUSH2 0x52C5 JUMP JUMPDEST SWAP1 DUP2 MSTORE PUSH1 0x40 DUP1 MLOAD PUSH1 0x20 SWAP3 DUP2 SWAP1 SUB DUP4 ADD SWAP1 KECCAK256 PUSH1 0x1 PUSH1 0x1 PUSH1 0xA0 SHL SUB DUP8 AND PUSH1 0x0 SWAP1 DUP2 MSTORE SWAP3 MSTORE SWAP1 KECCAK256 SLOAD DUP4 GT ISZERO PUSH2 0x3CE2 JUMPI PUSH1 0x40 MLOAD PUSH3 0x461BCD PUSH1 0xE5 SHL DUP2 MSTORE PUSH1 0x4 ADD PUSH2 0xC12 SWAP1 PUSH2 0x5B2A JUMP JUMPDEST DUP3 PUSH1 0xF DUP8 PUSH1 0x40 MLOAD PUSH2 0x3CF3 SWAP2 SWAP1 PUSH2 0x52C5 JUMP JUMPDEST SWAP1 DUP2 MSTORE PUSH1 0x20 ADD PUSH1 0x40 MLOAD DUP1 SWAP2 SUB SWAP1 KECCAK256 PUSH1 0x0 DUP7 PUSH1 0x1 PUSH1 0x1 PUSH1 0xA0 SHL SUB AND PUSH1 0x1 PUSH1 0x1 PUSH1 0xA0 SHL SUB AND DUP2 MSTORE PUSH1 0x20 ADD SWAP1 DUP2 MSTORE PUSH1 0x20 ADD PUSH1 0x0 KECCAK256 PUSH1 0x0 DUP3 DUP3 SLOAD PUSH2 0x3D33 SWAP2 SWAP1 PUSH2 0x5421 JUMP JUMPDEST SWAP1 SWAP2 SSTORE POP POP PUSH1 0x1 PUSH1 0x1 PUSH1 0xA0 SHL SUB DUP5 AND ISZERO PUSH2 0x3E27 JUMPI PUSH1 0xF DUP7 PUSH1 0x40 MLOAD PUSH2 0x3D57 SWAP2 SWAP1 PUSH2 0x52C5 JUMP JUMPDEST SWAP1 DUP2 MSTORE PUSH1 0x40 DUP1 MLOAD PUSH1 0x20 SWAP3 DUP2 SWAP1 SUB DUP4 ADD SWAP1 KECCAK256 PUSH1 0x1 PUSH1 0x1 PUSH1 0xA0 SHL SUB DUP8 AND PUSH1 0x0 SWAP1 DUP2 MSTORE SWAP3 MSTORE DUP2 KECCAK256 SLOAD SWAP1 SUB PUSH2 0x3DB7 JUMPI PUSH1 0x1 PUSH1 0xE DUP8 PUSH1 0x40 MLOAD PUSH2 0x3D94 SWAP2 SWAP1 PUSH2 0x52C5 JUMP JUMPDEST SWAP1 DUP2 MSTORE PUSH1 0x20 ADD PUSH1 0x40 MLOAD DUP1 SWAP2 SUB SWAP1 KECCAK256 PUSH1 0x0 DUP3 DUP3 SLOAD PUSH2 0x3DB1 SWAP2 SWAP1 PUSH2 0x5421 JUMP JUMPDEST SWAP1 SWAP2 SSTORE POP POP JUMPDEST PUSH1 0xF DUP6 PUSH1 0x40 MLOAD PUSH2 0x3DC7 SWAP2 SWAP1 PUSH2 0x52C5 JUMP JUMPDEST SWAP1 DUP2 MSTORE PUSH1 0x40 DUP1 MLOAD PUSH1 0x20 SWAP3 DUP2 SWAP1 SUB DUP4 ADD SWAP1 KECCAK256 PUSH1 0x1 PUSH1 0x1 PUSH1 0xA0 SHL SUB DUP8 AND PUSH1 0x0 SWAP1 DUP2 MSTORE SWAP3 MSTORE DUP2 KECCAK256 SLOAD SWAP1 SUB PUSH2 0x3E27 JUMPI PUSH1 0x1 PUSH1 0xE DUP7 PUSH1 0x40 MLOAD PUSH2 0x3E04 SWAP2 SWAP1 PUSH2 0x52C5 JUMP JUMPDEST SWAP1 DUP2 MSTORE PUSH1 0x20 ADD PUSH1 0x40 MLOAD DUP1 SWAP2 SUB SWAP1 KECCAK256 PUSH1 0x0 DUP3 DUP3 SLOAD PUSH2 0x3E21 SWAP2 SWAP1 PUSH2 0x528E JUMP JUMPDEST SWAP1 SWAP2 SSTORE POP POP JUMPDEST DUP3 PUSH1 0xF DUP7 PUSH1 0x40 MLOAD PUSH2 0x3E38 SWAP2 SWAP1 PUSH2 0x52C5 JUMP JUMPDEST SWAP1 DUP2 MSTORE PUSH1 0x20 ADD PUSH1 0x40 MLOAD DUP1 SWAP2 SUB SWAP1 KECCAK256 PUSH1 0x0 DUP7 PUSH1 0x1 PUSH1 0x1 PUSH1 0xA0 SHL SUB AND PUSH1 0x1 PUSH1 0x1 PUSH1 0xA0 SHL SUB AND DUP2 MSTORE PUSH1 0x20 ADD SWAP1 DUP2 MSTORE PUSH1 0x20 ADD PUSH1 0x0 KECCAK256 PUSH1 0x0 DUP3 DUP3 SLOAD PUSH2 0x3E78 SWAP2 SWAP1 PUSH2 0x528E JUMP JUMPDEST SWAP1 SWAP2 SSTORE POP POP PUSH1 0x40 MLOAD PUSH1 0x0 DUP1 MLOAD PUSH1 0x20 PUSH2 0x5ED2 DUP4 CODECOPY DUP2 MLOAD SWAP2 MSTORE SWAP1 PUSH2 0x3EA4 SWAP1 DUP9 SWAP1 DUP9 SWAP1 DUP9 SWAP1 DUP9 SWAP1 PUSH1 0x20 ADD PUSH2 0x5C01 JUMP JUMPDEST PUSH1 0x40 DUP1 MLOAD PUSH1 0x1F NOT DUP2 DUP5 SUB ADD DUP2 MSTORE SWAP1 DUP3 SWAP1 MSTORE PUSH2 0x1307 SWAP2 CALLER SWAP1 PUSH2 0x5C43 JUMP JUMPDEST PUSH1 0x1 DUP1 SLOAD PUSH1 0xFF AND ISZERO ISZERO EQ PUSH2 0x3EE6 JUMPI PUSH1 0x40 MLOAD PUSH3 0x461BCD PUSH1 0xE5 SHL DUP2 MSTORE PUSH1 0x4 ADD PUSH2 0xC12 SWAP1 PUSH2 0x53CC JUMP JUMPDEST PUSH2 0x3F0A PUSH1 0x40 MLOAD DUP1 PUSH1 0x40 ADD PUSH1 0x40 MSTORE DUP1 PUSH1 0x2 DUP2 MSTORE PUSH1 0x20 ADD PUSH2 0x36A1 PUSH1 0xF1 SHL DUP2 MSTORE POP DUP3 PUSH2 0x237E JUMP JUMPDEST PUSH2 0x3F3B JUMPI PUSH1 0x40 MLOAD PUSH3 0x461BCD PUSH1 0xE5 SHL DUP2 MSTORE PUSH1 0x20 PUSH1 0x4 DUP3 ADD MSTORE PUSH1 0x2 PUSH1 0x24 DUP3 ADD MSTORE PUSH2 0x4E5 PUSH1 0xF4 SHL PUSH1 0x44 DUP3 ADD MSTORE PUSH1 0x64 ADD PUSH2 0xC12 JUMP JUMPDEST PUSH1 0x1 PUSH1 0x10 DUP4 PUSH1 0x40 MLOAD PUSH2 0x3F4D SWAP2 SWAP1 PUSH2 0x52C5 JUMP JUMPDEST SWAP1 DUP2 MSTORE PUSH1 0x40 DUP1 MLOAD PUSH1 0x20 SWAP3 DUP2 SWAP1 SUB DUP4 ADD DUP2 KECCAK256 PUSH1 0x1 PUSH1 0x1 PUSH1 0xA0 SHL SUB DUP7 AND PUSH1 0x0 SWAP1 DUP2 MSTORE SWAP1 DUP5 MSTORE SWAP2 SWAP1 SWAP2 KECCAK256 DUP1 SLOAD PUSH1 0xFF NOT AND SWAP4 ISZERO ISZERO SWAP4 SWAP1 SWAP4 OR SWAP1 SWAP3 SSTORE PUSH1 0x0 DUP1 MLOAD PUSH1 0x20 PUSH2 0x5ED2 DUP4 CODECOPY DUP2 MLOAD SWAP2 MSTORE SWAP2 PUSH2 0x3FA2 SWAP2 DUP6 SWAP2 DUP6 SWAP2 ADD PUSH2 0x553D JUMP JUMPDEST PUSH1 0x40 DUP1 MLOAD PUSH1 0x1F NOT DUP2 DUP5 SUB ADD DUP2 MSTORE SWAP1 DUP3 SWAP1 MSTORE PUSH2 0x25AE SWAP2 CALLER SWAP1 PUSH2 0x5C6F JUMP JUMPDEST PUSH1 0x0 DUP1 PUSH1 0x0 DUP5 DUP5 GT PUSH2 0x3FCF JUMPI PUSH1 0x0 DUP1 REVERT JUMPDEST PUSH1 0x0 DUP5 PUSH2 0x3FDC DUP8 DUP10 PUSH2 0x53E8 JUMP JUMPDEST PUSH2 0x3FE6 SWAP2 SWAP1 PUSH2 0x53FF JUMP JUMPDEST SWAP1 POP PUSH1 0x0 DUP6 PUSH2 0x3FF5 DUP9 DUP3 PUSH2 0x5421 JUMP JUMPDEST PUSH2 0x3FFF SWAP1 DUP11 PUSH2 0x53E8 JUMP JUMPDEST PUSH2 0x4009 SWAP2 SWAP1 PUSH2 0x53FF JUMP JUMPDEST SWAP1 POP DUP2 DUP2 PUSH2 0x4017 DUP2 DUP4 PUSH2 0x528E JUMP JUMPDEST PUSH2 0x4021 SWAP1 DUP12 PUSH2 0x5421 JUMP JUMPDEST SWAP5 POP SWAP5 POP SWAP5 POP POP POP SWAP4 POP SWAP4 POP SWAP4 SWAP1 POP JUMP JUMPDEST ADDRESS PUSH1 0x1 PUSH1 0x1 PUSH1 0xA0 SHL SUB DUP5 AND SUB PUSH2 0x405C JUMPI PUSH2 0xEA9 PUSH1 0x40 MLOAD DUP1 PUSH1 0x20 ADD PUSH1 0x40 MSTORE DUP1 PUSH1 0x0 DUP2 MSTORE POP DUP4 DUP4 PUSH2 0x39FC JUMP JUMPDEST PUSH1 0x40 MLOAD PUSH4 0x23B872DD PUSH1 0xE0 SHL DUP2 MSTORE CALLER PUSH1 0x4 DUP3 ADD MSTORE ADDRESS PUSH1 0x24 DUP3 ADD MSTORE PUSH1 0x44 DUP2 ADD DUP3 SWAP1 MSTORE DUP3 SWAP1 PUSH1 0x1 PUSH1 0x1 PUSH1 0xA0 SHL SUB DUP3 AND SWAP1 PUSH4 0x23B872DD SWAP1 PUSH1 0x64 ADD PUSH1 0x20 PUSH1 0x40 MLOAD DUP1 DUP4 SUB DUP2 PUSH1 0x0 DUP8 GAS CALL ISZERO DUP1 ISZERO PUSH2 0x40B1 JUMPI RETURNDATASIZE PUSH1 0x0 DUP1 RETURNDATACOPY RETURNDATASIZE PUSH1 0x0 REVERT JUMPDEST POP POP POP POP PUSH1 0x40 MLOAD RETURNDATASIZE PUSH1 0x1F NOT PUSH1 0x1F DUP3 ADD AND DUP3 ADD DUP1 PUSH1 0x40 MSTORE POP DUP2 ADD SWAP1 PUSH2 0x40D5 SWAP2 SWAP1 PUSH2 0x5469 JUMP JUMPDEST PUSH2 0x1403 JUMPI PUSH1 0x40 MLOAD PUSH3 0x461BCD PUSH1 0xE5 SHL DUP2 MSTORE PUSH1 0x4 ADD PUSH2 0xC12 SWAP1 PUSH2 0x5486 JUMP JUMPDEST DUP3 PUSH2 0x410B DUP2 PUSH1 0x0 DUP1 SLOAD SWAP2 DUP2 MSTORE PUSH1 0x7 PUSH1 0x20 MSTORE PUSH1 0x40 SWAP1 KECCAK256 SLOAD GT SWAP1 JUMP JUMPDEST PUSH2 0x4127 JUMPI PUSH1 0x40 MLOAD PUSH3 0x461BCD PUSH1 0xE5 SHL DUP2 MSTORE PUSH1 0x4 ADD PUSH2 0xC12 SWAP1 PUSH2 0x539A JUMP JUMPDEST PUSH1 0x1 DUP1 SLOAD PUSH1 0xFF AND ISZERO ISZERO EQ PUSH2 0x414D JUMPI PUSH1 0x40 MLOAD PUSH3 0x461BCD PUSH1 0xE5 SHL DUP2 MSTORE PUSH1 0x4 ADD PUSH2 0xC12 SWAP1 PUSH2 0x53CC JUMP JUMPDEST PUSH1 0x0 DUP5 DUP2 MSTORE PUSH1 0x3 PUSH1 0x20 MSTORE PUSH1 0x40 SWAP1 KECCAK256 SLOAD DUP4 GT ISZERO PUSH2 0x4190 JUMPI PUSH1 0x40 MLOAD PUSH3 0x461BCD PUSH1 0xE5 SHL DUP2 MSTORE PUSH1 0x20 PUSH1 0x4 DUP3 ADD MSTORE PUSH1 0x2 PUSH1 0x24 DUP3 ADD MSTORE PUSH2 0x4941 PUSH1 0xF0 SHL PUSH1 0x44 DUP3 ADD MSTORE PUSH1 0x64 ADD PUSH2 0xC12 JUMP JUMPDEST PUSH2 0x4199 DUP3 PUSH2 0x23D4 JUMP JUMPDEST ISZERO PUSH2 0x4208 JUMPI PUSH1 0x1 PUSH1 0x1 PUSH1 0xA0 SHL SUB DUP3 AND PUSH1 0x0 SWAP1 DUP2 MSTORE PUSH1 0x4 PUSH1 0x20 SWAP1 DUP2 MSTORE PUSH1 0x40 DUP1 DUP4 KECCAK256 SLOAD DUP4 MSTORE PUSH1 0x3 SWAP1 SWAP2 MSTORE DUP2 KECCAK256 SLOAD PUSH2 0x41CE SWAP1 DUP6 PUSH2 0x528E JUMP JUMPDEST PUSH1 0x1 PUSH1 0x1 PUSH1 0xA0 SHL SUB DUP5 AND PUSH1 0x0 SWAP1 DUP2 MSTORE PUSH1 0x4 PUSH1 0x20 MSTORE PUSH1 0x40 DUP2 KECCAK256 SLOAD SWAP1 SLOAD SWAP2 SWAP3 POP PUSH2 0x41F5 SWAP2 PUSH2 0x48F6 JUMP JUMPDEST PUSH2 0x4202 DUP2 DUP5 PUSH1 0x0 SLOAD PUSH2 0x493D JUMP JUMPDEST POP PUSH2 0x4215 JUMP JUMPDEST PUSH2 0x4215 DUP4 DUP4 PUSH1 0x0 SLOAD PUSH2 0x493D JUMP JUMPDEST PUSH2 0x4221 DUP5 PUSH1 0x0 SLOAD PUSH2 0x48F6 JUMP JUMPDEST PUSH1 0x0 DUP5 DUP2 MSTORE PUSH1 0x3 PUSH1 0x20 MSTORE PUSH1 0x40 DUP2 KECCAK256 SLOAD PUSH2 0x423B SWAP1 DUP6 SWAP1 PUSH2 0x5421 JUMP JUMPDEST SWAP1 POP DUP1 ISZERO PUSH2 0x426E JUMPI PUSH1 0x0 DUP6 DUP2 MSTORE PUSH1 0x3 PUSH1 0x20 MSTORE PUSH1 0x40 DUP2 KECCAK256 PUSH1 0x1 ADD SLOAD SWAP1 SLOAD PUSH2 0x426E SWAP2 DUP4 SWAP2 PUSH1 0x1 PUSH1 0x1 PUSH1 0xA0 SHL SUB SWAP1 SWAP2 AND SWAP1 PUSH2 0x493D JUMP JUMPDEST POP PUSH1 0x0 DUP1 SLOAD DUP1 DUP3 MSTORE PUSH1 0x2 PUSH1 0x20 DUP2 SWAP1 MSTORE PUSH1 0x40 DUP4 KECCAK256 SLOAD SWAP3 SWAP1 SWAP2 PUSH2 0x4290 SWAP1 PUSH1 0x1 PUSH2 0x528E JUMP JUMPDEST DUP2 MSTORE PUSH1 0x20 ADD SWAP1 DUP2 MSTORE PUSH1 0x20 ADD PUSH1 0x0 KECCAK256 DUP2 SWAP1 SSTORE POP PUSH1 0x0 DUP1 DUP2 SLOAD DUP1 SWAP3 SWAP2 SWAP1 PUSH2 0x42B4 SWAP1 PUSH2 0x55EC JUMP JUMPDEST SWAP2 SWAP1 POP SSTORE POP POP POP POP POP JUMP JUMPDEST DUP5 PUSH2 0x42D9 DUP2 PUSH1 0x0 DUP1 SLOAD SWAP2 DUP2 MSTORE PUSH1 0x7 PUSH1 0x20 MSTORE PUSH1 0x40 SWAP1 KECCAK256 SLOAD GT SWAP1 JUMP JUMPDEST PUSH2 0x42F5 JUMPI PUSH1 0x40 MLOAD PUSH3 0x461BCD PUSH1 0xE5 SHL DUP2 MSTORE PUSH1 0x4 ADD PUSH2 0xC12 SWAP1 PUSH2 0x539A JUMP JUMPDEST PUSH1 0x1 DUP1 SLOAD PUSH1 0xFF AND ISZERO ISZERO EQ PUSH2 0x431B JUMPI PUSH1 0x40 MLOAD PUSH3 0x461BCD PUSH1 0xE5 SHL DUP2 MSTORE PUSH1 0x4 ADD PUSH2 0xC12 SWAP1 PUSH2 0x53CC JUMP JUMPDEST PUSH1 0x0 DUP7 DUP2 MSTORE PUSH1 0x5 PUSH1 0x20 MSTORE PUSH1 0x40 DUP2 KECCAK256 SLOAD PUSH1 0xFF AND PUSH1 0x2 DUP2 GT ISZERO PUSH2 0x433E JUMPI PUSH2 0x433E PUSH2 0x53B6 JUMP JUMPDEST EQ PUSH2 0x4348 JUMPI PUSH1 0x0 DUP1 REVERT JUMPDEST PUSH1 0x0 DUP7 DUP2 MSTORE PUSH1 0x3 PUSH1 0x20 MSTORE PUSH1 0x40 SWAP1 KECCAK256 SLOAD DUP6 GT ISZERO PUSH2 0x438B JUMPI PUSH1 0x40 MLOAD PUSH3 0x461BCD PUSH1 0xE5 SHL DUP2 MSTORE PUSH1 0x20 PUSH1 0x4 DUP3 ADD MSTORE PUSH1 0x2 PUSH1 0x24 DUP3 ADD MSTORE PUSH2 0x4941 PUSH1 0xF0 SHL PUSH1 0x44 DUP3 ADD MSTORE PUSH1 0x64 ADD PUSH2 0xC12 JUMP JUMPDEST PUSH1 0x40 DUP1 MLOAD PUSH1 0x80 DUP2 ADD DUP3 MSTORE DUP7 DUP2 MSTORE PUSH1 0x20 DUP1 DUP3 ADD DUP7 DUP2 MSTORE PUSH1 0x1 PUSH1 0x1 PUSH1 0xA0 SHL SUB DUP9 DUP2 AND DUP5 DUP7 ADD SWAP1 DUP2 MSTORE DUP8 DUP3 AND PUSH1 0x60 DUP7 ADD SWAP1 DUP2 MSTORE PUSH1 0x0 DUP14 DUP2 MSTORE PUSH1 0x6 DUP1 DUP8 MSTORE DUP9 DUP3 KECCAK256 SWAP8 MLOAD DUP9 SSTORE SWAP5 MLOAD PUSH1 0x1 DUP1 DUP10 ADD SWAP2 SWAP1 SWAP2 SSTORE SWAP3 MLOAD PUSH1 0x2 DUP9 ADD DUP1 SLOAD SWAP2 DUP7 AND PUSH1 0x1 PUSH1 0x1 PUSH1 0xA0 SHL SUB NOT SWAP3 DUP4 AND OR SWAP1 SSTORE SWAP2 MLOAD PUSH1 0x3 DUP9 ADD DUP1 SLOAD SWAP2 SWAP1 SWAP6 AND SWAP3 AND SWAP2 SWAP1 SWAP2 OR SWAP1 SWAP3 SSTORE PUSH1 0x5 DUP5 MSTORE SWAP1 DUP6 SWAP1 KECCAK256 DUP1 SLOAD PUSH1 0xFF NOT AND DUP3 OR SWAP1 SSTORE SWAP2 MSTORE SWAP2 MLOAD PUSH32 0xD8CD09EA93B4076AB867588C0D1A52B62C5B605B7A5F1C0189781245631A8353 SWAP3 PUSH2 0x1307 SWAP3 SWAP1 SWAP2 DUP11 SWAP2 SWAP1 PUSH2 0x5C9C JUMP JUMPDEST PUSH1 0x1 DUP1 SLOAD PUSH1 0xFF AND ISZERO ISZERO EQ PUSH2 0x4472 JUMPI PUSH1 0x40 MLOAD PUSH3 0x461BCD PUSH1 0xE5 SHL DUP2 MSTORE PUSH1 0x4 ADD PUSH2 0xC12 SWAP1 PUSH2 0x53CC JUMP JUMPDEST DUP1 PUSH1 0x11 DUP5 PUSH1 0x40 MLOAD PUSH2 0x4483 SWAP2 SWAP1 PUSH2 0x52C5 JUMP JUMPDEST SWAP1 DUP2 MSTORE PUSH1 0x40 DUP1 MLOAD PUSH1 0x20 SWAP3 DUP2 SWAP1 SUB DUP4 ADD SWAP1 KECCAK256 PUSH1 0x1 PUSH1 0x1 PUSH1 0xA0 SHL SUB DUP7 AND PUSH1 0x0 SWAP1 DUP2 MSTORE SWAP3 MSTORE SWAP1 KECCAK256 DUP1 SLOAD PUSH1 0xFF NOT AND PUSH1 0x1 DUP4 PUSH1 0x2 DUP2 GT ISZERO PUSH2 0x44C1 JUMPI PUSH2 0x44C1 PUSH2 0x53B6 JUMP JUMPDEST MUL OR SWAP1 SSTORE POP PUSH1 0x0 DUP1 MLOAD PUSH1 0x20 PUSH2 0x5ED2 DUP4 CODECOPY DUP2 MLOAD SWAP2 MSTORE DUP4 DUP4 DUP4 PUSH1 0x40 MLOAD PUSH1 0x20 ADD PUSH2 0x44EA SWAP4 SWAP3 SWAP2 SWAP1 PUSH2 0x5CEA JUMP JUMPDEST PUSH1 0x40 DUP1 MLOAD PUSH1 0x1F NOT DUP2 DUP5 SUB ADD DUP2 MSTORE SWAP1 DUP3 SWAP1 MSTORE PUSH2 0x4506 SWAP2 CALLER SWAP1 PUSH2 0x5D25 JUMP JUMPDEST PUSH1 0x40 MLOAD DUP1 SWAP2 SUB SWAP1 LOG1 POP POP POP JUMP JUMPDEST PUSH1 0x1 DUP1 SLOAD PUSH1 0xFF AND ISZERO ISZERO EQ PUSH2 0x4539 JUMPI PUSH1 0x40 MLOAD PUSH3 0x461BCD PUSH1 0xE5 SHL DUP2 MSTORE PUSH1 0x4 ADD PUSH2 0xC12 SWAP1 PUSH2 0x53CC JUMP JUMPDEST PUSH1 0x1 DUP1 SLOAD PUSH1 0xFF NOT AND SWAP1 SSTORE TIMESTAMP PUSH1 0xA SSTORE JUMP JUMPDEST PUSH1 0x0 DUP2 PUSH1 0x1 PUSH1 0x1 PUSH1 0xA0 SHL SUB AND DUP4 PUSH1 0x40 MLOAD PUSH1 0x0 PUSH1 0x40 MLOAD DUP1 DUP4 SUB DUP2 DUP6 DUP8 GAS CALL SWAP3 POP POP POP RETURNDATASIZE DUP1 PUSH1 0x0 DUP2 EQ PUSH2 0x4596 JUMPI PUSH1 0x40 MLOAD SWAP2 POP PUSH1 0x1F NOT PUSH1 0x3F RETURNDATASIZE ADD AND DUP3 ADD PUSH1 0x40 MSTORE RETURNDATASIZE DUP3 MSTORE RETURNDATASIZE PUSH1 0x0 PUSH1 0x20 DUP5 ADD RETURNDATACOPY PUSH2 0x459B JUMP JUMPDEST PUSH1 0x60 SWAP2 POP JUMPDEST POP POP SWAP1 POP DUP1 PUSH2 0xEA9 JUMPI PUSH1 0x40 MLOAD PUSH3 0x461BCD PUSH1 0xE5 SHL DUP2 MSTORE PUSH1 0x20 PUSH1 0x4 DUP3 ADD MSTORE PUSH1 0x2 PUSH1 0x24 DUP3 ADD MSTORE PUSH2 0x2A23 PUSH1 0xF1 SHL PUSH1 0x44 DUP3 ADD MSTORE PUSH1 0x64 ADD PUSH2 0xC12 JUMP JUMPDEST PUSH2 0x45DA DUP4 PUSH2 0x19DE JUMP JUMPDEST PUSH2 0x45E3 JUMPI PUSH1 0x0 DUP1 REVERT JUMPDEST ADDRESS PUSH1 0x0 SWAP1 DUP2 MSTORE PUSH1 0x4 PUSH1 0x20 MSTORE PUSH1 0x40 DUP2 KECCAK256 SLOAD SWAP1 SLOAD PUSH2 0x45FF SWAP2 SWAP1 PUSH2 0x48F6 JUMP JUMPDEST ADDRESS PUSH1 0x0 SWAP1 DUP2 MSTORE PUSH1 0x4 PUSH1 0x20 SWAP1 DUP2 MSTORE PUSH1 0x40 DUP1 DUP4 KECCAK256 SLOAD DUP4 MSTORE PUSH1 0x3 SWAP1 SWAP2 MSTORE SWAP1 KECCAK256 SLOAD PUSH2 0x4633 SWAP1 PUSH2 0x462A SWAP1 DUP7 PUSH2 0x528E JUMP JUMPDEST ADDRESS PUSH1 0x0 SLOAD PUSH2 0x493D JUMP JUMPDEST ADDRESS PUSH1 0x0 SWAP1 DUP2 MSTORE PUSH1 0x4 PUSH1 0x20 MSTORE PUSH1 0x40 SWAP1 KECCAK256 SLOAD PUSH2 0x1403 SWAP1 DUP6 DUP6 DUP6 DUP6 PUSH2 0x42BF JUMP JUMPDEST DUP5 PUSH2 0x465A DUP2 PUSH2 0x2277 JUMP JUMPDEST PUSH2 0x4676 JUMPI PUSH1 0x40 MLOAD PUSH3 0x461BCD PUSH1 0xE5 SHL DUP2 MSTORE PUSH1 0x4 ADD PUSH2 0xC12 SWAP1 PUSH2 0x525B JUMP JUMPDEST PUSH1 0x1 PUSH1 0x1 PUSH1 0xA0 SHL SUB DUP6 AND PUSH1 0x0 SWAP1 DUP2 MSTORE PUSH1 0x9 PUSH1 0x20 MSTORE PUSH1 0x40 DUP2 KECCAK256 DUP1 SLOAD DUP7 SWAP3 SWAP1 PUSH2 0x469E SWAP1 DUP5 SWAP1 PUSH2 0x5421 JUMP JUMPDEST SWAP1 SWAP2 SSTORE POP POP PUSH1 0x1 PUSH1 0x1 PUSH1 0xA0 SHL SUB DUP6 AND PUSH1 0x0 SWAP1 DUP2 MSTORE PUSH1 0xB PUSH1 0x20 MSTORE PUSH1 0x40 DUP2 KECCAK256 DUP1 SLOAD DUP7 SWAP3 SWAP1 PUSH2 0x46CB SWAP1 DUP5 SWAP1 PUSH2 0x5421 JUMP JUMPDEST SWAP3 POP POP DUP2 SWAP1 SSTORE POP DUP4 PUSH1 0xF DUP8 PUSH1 0x40 MLOAD PUSH2 0x46E3 SWAP2 SWAP1 PUSH2 0x52C5 JUMP JUMPDEST SWAP1 DUP2 MSTORE PUSH1 0x20 ADD PUSH1 0x40 MLOAD DUP1 SWAP2 SUB SWAP1 KECCAK256 PUSH1 0x0 DUP8 PUSH1 0x1 PUSH1 0x1 PUSH1 0xA0 SHL SUB AND PUSH1 0x1 PUSH1 0x1 PUSH1 0xA0 SHL SUB AND DUP2 MSTORE PUSH1 0x20 ADD SWAP1 DUP2 MSTORE PUSH1 0x20 ADD PUSH1 0x0 KECCAK256 PUSH1 0x0 DUP3 DUP3 SLOAD PUSH2 0x4723 SWAP2 SWAP1 PUSH2 0x5421 JUMP JUMPDEST SWAP1 SWAP2 SSTORE POP POP PUSH1 0x40 MLOAD PUSH1 0xF SWAP1 PUSH2 0x4739 SWAP1 DUP9 SWAP1 PUSH2 0x52C5 JUMP JUMPDEST SWAP1 DUP2 MSTORE PUSH1 0x40 DUP1 MLOAD PUSH1 0x20 SWAP3 DUP2 SWAP1 SUB DUP4 ADD SWAP1 KECCAK256 PUSH1 0x1 PUSH1 0x1 PUSH1 0xA0 SHL SUB DUP9 AND PUSH1 0x0 SWAP1 DUP2 MSTORE SWAP3 MSTORE SWAP1 KECCAK256 SLOAD ISZERO DUP1 ISZERO PUSH2 0x4773 JUMPI POP PUSH1 0x1 PUSH1 0x1 PUSH1 0xA0 SHL SUB DUP6 AND ISZERO ISZERO JUMPDEST ISZERO PUSH2 0x47AD JUMPI PUSH1 0x1 PUSH1 0xE DUP8 PUSH1 0x40 MLOAD PUSH2 0x478A SWAP2 SWAP1 PUSH2 0x52C5 JUMP JUMPDEST SWAP1 DUP2 MSTORE PUSH1 0x20 ADD PUSH1 0x40 MLOAD DUP1 SWAP2 SUB SWAP1 KECCAK256 PUSH1 0x0 DUP3 DUP3 SLOAD PUSH2 0x47A7 SWAP2 SWAP1 PUSH2 0x5421 JUMP JUMPDEST SWAP1 SWAP2 SSTORE POP POP JUMPDEST PUSH1 0x0 DUP1 MLOAD PUSH1 0x20 PUSH2 0x5ED2 DUP4 CODECOPY DUP2 MLOAD SWAP2 MSTORE DUP7 DUP7 DUP7 DUP7 DUP7 PUSH1 0x40 MLOAD PUSH1 0x20 ADD PUSH2 0x47D5 SWAP6 SWAP5 SWAP4 SWAP3 SWAP2 SWAP1 PUSH2 0x5D51 JUMP JUMPDEST PUSH1 0x40 DUP1 MLOAD PUSH1 0x1F NOT DUP2 DUP5 SUB ADD DUP2 MSTORE SWAP1 DUP3 SWAP1 MSTORE PUSH2 0x1307 SWAP2 CALLER SWAP1 PUSH2 0x5DA0 JUMP JUMPDEST PUSH2 0x47FA DUP2 PUSH2 0x19DE JUMP JUMPDEST PUSH2 0x482B JUMPI PUSH1 0x40 MLOAD PUSH3 0x461BCD PUSH1 0xE5 SHL DUP2 MSTORE PUSH1 0x20 PUSH1 0x4 DUP3 ADD MSTORE PUSH1 0x2 PUSH1 0x24 DUP3 ADD MSTORE PUSH2 0x1555 PUSH1 0xF2 SHL PUSH1 0x44 DUP3 ADD MSTORE PUSH1 0x64 ADD PUSH2 0xC12 JUMP JUMPDEST PUSH1 0x1 PUSH1 0x1 PUSH1 0xA0 SHL SUB DUP2 AND PUSH1 0x0 SWAP1 DUP2 MSTORE PUSH1 0x9 PUSH1 0x20 MSTORE PUSH1 0x40 SWAP1 KECCAK256 SLOAD ISZERO PUSH2 0x4876 JUMPI PUSH1 0x40 MLOAD PUSH3 0x461BCD PUSH1 0xE5 SHL DUP2 MSTORE PUSH1 0x20 PUSH1 0x4 DUP3 ADD MSTORE PUSH1 0x2 PUSH1 0x24 DUP3 ADD MSTORE PUSH2 0x272D PUSH1 0xF1 SHL PUSH1 0x44 DUP3 ADD MSTORE PUSH1 0x64 ADD PUSH2 0xC12 JUMP JUMPDEST PUSH1 0x1 PUSH1 0x1 PUSH1 0xA0 SHL SUB AND PUSH1 0x0 SWAP1 DUP2 MSTORE PUSH1 0x8 PUSH1 0x20 MSTORE PUSH1 0x40 SWAP1 KECCAK256 DUP1 SLOAD PUSH1 0xFF NOT AND SWAP1 SSTORE JUMP JUMPDEST PUSH2 0x48A0 DUP2 PUSH2 0x19DE JUMP JUMPDEST ISZERO PUSH2 0x48D2 JUMPI PUSH1 0x40 MLOAD PUSH3 0x461BCD PUSH1 0xE5 SHL DUP2 MSTORE PUSH1 0x20 PUSH1 0x4 DUP3 ADD MSTORE PUSH1 0x2 PUSH1 0x24 DUP3 ADD MSTORE PUSH2 0x20A9 PUSH1 0xF1 SHL PUSH1 0x44 DUP3 ADD MSTORE PUSH1 0x64 ADD PUSH2 0xC12 JUMP JUMPDEST PUSH1 0x1 PUSH1 0x1 PUSH1 0xA0 SHL SUB AND PUSH1 0x0 SWAP1 DUP2 MSTORE PUSH1 0x8 PUSH1 0x20 MSTORE PUSH1 0x40 SWAP1 KECCAK256 DUP1 SLOAD PUSH1 0xFF NOT AND PUSH1 0x1 OR SWAP1 SSTORE JUMP JUMPDEST PUSH1 0x0 DUP3 DUP2 MSTORE PUSH1 0x7 PUSH1 0x20 SWAP1 DUP2 MSTORE PUSH1 0x40 DUP1 DUP4 KECCAK256 DUP5 SWAP1 SSTORE DUP1 MLOAD SWAP3 DUP4 MSTORE SWAP1 DUP3 ADD DUP5 SWAP1 MSTORE PUSH32 0x12769FD465856C3651942A04374F21755B56A66422AAED87C7E56E936F6DD3D0 SWAP2 ADD PUSH2 0x25AE JUMP JUMPDEST PUSH1 0x0 DUP4 GT PUSH2 0x4972 JUMPI PUSH1 0x40 MLOAD PUSH3 0x461BCD PUSH1 0xE5 SHL DUP2 MSTORE PUSH1 0x20 PUSH1 0x4 DUP3 ADD MSTORE PUSH1 0x2 PUSH1 0x24 DUP3 ADD MSTORE PUSH2 0x29AD PUSH1 0xF1 SHL PUSH1 0x44 DUP3 ADD MSTORE PUSH1 0x64 ADD PUSH2 0xC12 JUMP JUMPDEST PUSH1 0x0 DUP1 JUMPDEST PUSH1 0x40 MLOAD PUSH12 0xFFFFFFFFFFFFFFFFFFFFFFFF NOT PUSH1 0x60 DUP7 SWAP1 SHL AND PUSH1 0x20 DUP3 ADD MSTORE PUSH1 0x34 DUP2 ADD DUP5 SWAP1 MSTORE PUSH1 0x54 DUP2 ADD DUP4 SWAP1 MSTORE PUSH1 0x74 ADD PUSH1 0x40 DUP1 MLOAD PUSH1 0x1F NOT DUP2 DUP5 SUB ADD DUP2 MSTORE SWAP2 DUP2 MSTORE DUP2 MLOAD PUSH1 0x20 SWAP3 DUP4 ADD KECCAK256 PUSH1 0x0 DUP2 DUP2 MSTORE PUSH1 0x3 SWAP1 SWAP4 MSTORE SWAP2 KECCAK256 PUSH1 0x1 ADD SLOAD SWAP1 SWAP2 POP PUSH1 0x1 PUSH1 0x1 PUSH1 0xA0 SHL SUB AND ISZERO PUSH2 0x49EE JUMPI DUP2 PUSH2 0x49E6 DUP2 PUSH2 0x55EC JUMP JUMPDEST SWAP3 POP POP PUSH2 0x4976 JUMP JUMPDEST PUSH1 0x1 PUSH1 0x1 PUSH1 0xA0 SHL SUB DUP5 DUP2 AND PUSH1 0x0 DUP2 DUP2 MSTORE PUSH1 0x4 PUSH1 0x20 SWAP1 DUP2 MSTORE PUSH1 0x40 DUP1 DUP4 KECCAK256 DUP7 SWAP1 SSTORE DUP6 DUP4 MSTORE PUSH1 0x7 DUP3 MSTORE DUP1 DUP4 KECCAK256 PUSH1 0x0 NOT SWAP1 SSTORE DUP1 MLOAD PUSH1 0x60 DUP2 ADD DUP3 MSTORE DUP11 DUP2 MSTORE DUP1 DUP4 ADD SWAP5 DUP6 MSTORE DUP1 DUP3 ADD DUP10 DUP2 MSTORE DUP8 DUP6 MSTORE PUSH1 0x3 DUP5 MSTORE SWAP4 DUP3 SWAP1 KECCAK256 SWAP1 MLOAD DUP2 SSTORE SWAP4 MLOAD PUSH1 0x1 DUP1 DUP7 ADD DUP1 SLOAD PUSH1 0x1 PUSH1 0x1 PUSH1 0xA0 SHL SUB NOT AND SWAP3 SWAP1 SWAP8 AND SWAP2 SWAP1 SWAP2 OR SWAP1 SWAP6 SSTORE SWAP2 MLOAD PUSH1 0x2 SWAP1 SWAP4 ADD SWAP3 SWAP1 SWAP3 SSTORE DUP1 MLOAD SWAP3 DUP4 MSTORE SWAP1 DUP3 ADD DUP4 SWAP1 MSTORE PUSH32 0x12769FD465856C3651942A04374F21755B56A66422AAED87C7E56E936F6DD3D0 SWAP2 ADD PUSH2 0x17FC JUMP JUMPDEST DUP3 DUP1 SLOAD DUP3 DUP3 SSTORE SWAP1 PUSH1 0x0 MSTORE PUSH1 0x20 PUSH1 0x0 KECCAK256 SWAP1 DUP2 ADD SWAP3 DUP3 ISZERO PUSH2 0x4AE4 JUMPI SWAP2 PUSH1 0x20 MUL DUP3 ADD JUMPDEST DUP3 DUP2 GT ISZERO PUSH2 0x4AE4 JUMPI DUP3 MLOAD DUP3 SWAP1 PUSH2 0x4AD4 SWAP1 DUP3 PUSH2 0x5E12 JUMP JUMPDEST POP SWAP2 PUSH1 0x20 ADD SWAP2 SWAP1 PUSH1 0x1 ADD SWAP1 PUSH2 0x4ABE JUMP JUMPDEST POP PUSH2 0x4AF0 SWAP3 SWAP2 POP PUSH2 0x4B46 JUMP JUMPDEST POP SWAP1 JUMP JUMPDEST DUP3 DUP1 SLOAD DUP3 DUP3 SSTORE SWAP1 PUSH1 0x0 MSTORE PUSH1 0x20 PUSH1 0x0 KECCAK256 SWAP1 DUP2 ADD SWAP3 DUP3 ISZERO PUSH2 0x4B3A JUMPI SWAP2 PUSH1 0x20 MUL DUP3 ADD JUMPDEST DUP3 DUP2 GT ISZERO PUSH2 0x4B3A JUMPI DUP3 MLOAD DUP3 SWAP1 PUSH2 0x4B2A SWAP1 DUP3 PUSH2 0x5E12 JUMP JUMPDEST POP SWAP2 PUSH1 0x20 ADD SWAP2 SWAP1 PUSH1 0x1 ADD SWAP1 PUSH2 0x4B14 JUMP JUMPDEST POP PUSH2 0x4AF0 SWAP3 SWAP2 POP PUSH2 0x4B63 JUMP JUMPDEST DUP1 DUP3 GT ISZERO PUSH2 0x4AF0 JUMPI PUSH1 0x0 PUSH2 0x4B5A DUP3 DUP3 PUSH2 0x4B80 JUMP JUMPDEST POP PUSH1 0x1 ADD PUSH2 0x4B46 JUMP JUMPDEST DUP1 DUP3 GT ISZERO PUSH2 0x4AF0 JUMPI PUSH1 0x0 PUSH2 0x4B77 DUP3 DUP3 PUSH2 0x4B80 JUMP JUMPDEST POP PUSH1 0x1 ADD PUSH2 0x4B63 JUMP JUMPDEST POP DUP1 SLOAD PUSH2 0x4B8C SWAP1 PUSH2 0x5686 JUMP JUMPDEST PUSH1 0x0 DUP3 SSTORE DUP1 PUSH1 0x1F LT PUSH2 0x4B9C JUMPI POP POP JUMP JUMPDEST PUSH1 0x1F ADD PUSH1 0x20 SWAP1 DIV SWAP1 PUSH1 0x0 MSTORE PUSH1 0x20 PUSH1 0x0 KECCAK256 SWAP1 DUP2 ADD SWAP1 PUSH2 0xDD5 SWAP2 SWAP1 JUMPDEST DUP1 DUP3 GT ISZERO PUSH2 0x4AF0 JUMPI PUSH1 0x0 DUP2 SSTORE PUSH1 0x1 ADD PUSH2 0x4BB6 JUMP JUMPDEST PUSH1 0x0 PUSH1 0x20 DUP3 DUP5 SUB SLT ISZERO PUSH2 0x4BDC JUMPI PUSH1 0x0 DUP1 REVERT JUMPDEST POP CALLDATALOAD SWAP2 SWAP1 POP JUMP JUMPDEST PUSH1 0x1 PUSH1 0x1 PUSH1 0xA0 SHL SUB DUP2 AND DUP2 EQ PUSH2 0xDD5 JUMPI PUSH1 0x0 DUP1 REVERT JUMPDEST PUSH1 0x0 PUSH1 0x20 DUP3 DUP5 SUB SLT ISZERO PUSH2 0x4C0A JUMPI PUSH1 0x0 DUP1 REVERT JUMPDEST DUP2 CALLDATALOAD PUSH2 0x1B43 DUP2 PUSH2 0x4BE3 JUMP JUMPDEST PUSH4 0x4E487B71 PUSH1 0xE0 SHL PUSH1 0x0 MSTORE PUSH1 0x41 PUSH1 0x4 MSTORE PUSH1 0x24 PUSH1 0x0 REVERT JUMPDEST PUSH1 0x40 MLOAD PUSH1 0x1F DUP3 ADD PUSH1 0x1F NOT AND DUP2 ADD PUSH1 0x1 PUSH1 0x1 PUSH1 0x40 SHL SUB DUP2 GT DUP3 DUP3 LT OR ISZERO PUSH2 0x4C53 JUMPI PUSH2 0x4C53 PUSH2 0x4C15 JUMP JUMPDEST PUSH1 0x40 MSTORE SWAP2 SWAP1 POP JUMP JUMPDEST PUSH1 0x0 PUSH1 0x1 PUSH1 0x1 PUSH1 0x40 SHL SUB DUP3 GT ISZERO PUSH2 0x4C74 JUMPI PUSH2 0x4C74 PUSH2 0x4C15 JUMP JUMPDEST POP PUSH1 0x1F ADD PUSH1 0x1F NOT AND PUSH1 0x20 ADD SWAP1 JUMP JUMPDEST PUSH1 0x0 PUSH2 0x4C95 PUSH2 0x4C90 DUP5 PUSH2 0x4C5B JUMP JUMPDEST PUSH2 0x4C2B JUMP JUMPDEST SWAP1 POP DUP3 DUP2 MSTORE DUP4 DUP4 DUP4 ADD GT ISZERO PUSH2 0x4CA9 JUMPI PUSH1 0x0 DUP1 REVERT JUMPDEST DUP3 DUP3 PUSH1 0x20 DUP4 ADD CALLDATACOPY PUSH1 0x0 PUSH1 0x20 DUP5 DUP4 ADD ADD MSTORE SWAP4 SWAP3 POP POP POP JUMP JUMPDEST PUSH1 0x0 DUP3 PUSH1 0x1F DUP4 ADD SLT PUSH2 0x4CD1 JUMPI PUSH1 0x0 DUP1 REVERT JUMPDEST PUSH2 0x1B43 DUP4 DUP4 CALLDATALOAD PUSH1 0x20 DUP6 ADD PUSH2 0x4C82 JUMP JUMPDEST PUSH1 0x0 PUSH1 0x20 DUP3 DUP5 SUB SLT ISZERO PUSH2 0x4CF2 JUMPI PUSH1 0x0 DUP1 REVERT JUMPDEST DUP2 CALLDATALOAD PUSH1 0x1 PUSH1 0x1 PUSH1 0x40 SHL SUB DUP2 GT ISZERO PUSH2 0x4D08 JUMPI PUSH1 0x0 DUP1 REVERT JUMPDEST PUSH2 0x4D14 DUP5 DUP3 DUP6 ADD PUSH2 0x4CC0 JUMP JUMPDEST SWAP5 SWAP4 POP POP POP POP JUMP JUMPDEST PUSH1 0x0 DUP1 PUSH1 0x40 DUP4 DUP6 SUB SLT ISZERO PUSH2 0x4D2F JUMPI PUSH1 0x0 DUP1 REVERT JUMPDEST DUP3 CALLDATALOAD PUSH1 0x1 PUSH1 0x1 PUSH1 0x40 SHL SUB DUP2 GT ISZERO PUSH2 0x4D45 JUMPI PUSH1 0x0 DUP1 REVERT JUMPDEST PUSH2 0x4D51 DUP6 DUP3 DUP7 ADD PUSH2 0x4CC0 JUMP JUMPDEST SWAP3 POP POP PUSH1 0x20 DUP4 ADD CALLDATALOAD PUSH2 0x4D62 DUP2 PUSH2 0x4BE3 JUMP JUMPDEST DUP1 SWAP2 POP POP SWAP3 POP SWAP3 SWAP1 POP JUMP JUMPDEST DUP1 ISZERO ISZERO DUP2 EQ PUSH2 0xDD5 JUMPI PUSH1 0x0 DUP1 REVERT JUMPDEST PUSH1 0x0 DUP1 PUSH1 0x0 PUSH1 0x60 DUP5 DUP7 SUB SLT ISZERO PUSH2 0x4D90 JUMPI PUSH1 0x0 DUP1 REVERT JUMPDEST DUP4 CALLDATALOAD SWAP3 POP PUSH1 0x20 DUP5 ADD CALLDATALOAD SWAP2 POP PUSH1 0x40 DUP5 ADD CALLDATALOAD PUSH2 0x4DA9 DUP2 PUSH2 0x4D6D JUMP JUMPDEST DUP1 SWAP2 POP POP SWAP3 POP SWAP3 POP SWAP3 JUMP JUMPDEST PUSH1 0x0 DUP1 PUSH1 0x40 DUP4 DUP6 SUB SLT ISZERO PUSH2 0x4DC7 JUMPI PUSH1 0x0 DUP1 REVERT JUMPDEST POP POP DUP1 CALLDATALOAD SWAP3 PUSH1 0x20 SWAP1 SWAP2 ADD CALLDATALOAD SWAP2 POP JUMP JUMPDEST PUSH1 0x0 PUSH1 0x1 PUSH1 0x1 PUSH1 0x40 SHL SUB DUP3 GT ISZERO PUSH2 0x4DEF JUMPI PUSH2 0x4DEF PUSH2 0x4C15 JUMP JUMPDEST POP PUSH1 0x5 SHL PUSH1 0x20 ADD SWAP1 JUMP JUMPDEST PUSH1 0x0 DUP3 PUSH1 0x1F DUP4 ADD SLT PUSH2 0x4E0A JUMPI PUSH1 0x0 DUP1 REVERT JUMPDEST DUP2 CALLDATALOAD PUSH1 0x20 PUSH2 0x4E1A PUSH2 0x4C90 DUP4 PUSH2 0x4DD6 JUMP JUMPDEST DUP3 DUP2 MSTORE PUSH1 0x5 SWAP3 SWAP1 SWAP3 SHL DUP5 ADD DUP2 ADD SWAP2 DUP2 DUP2 ADD SWAP1 DUP7 DUP5 GT ISZERO PUSH2 0x4E39 JUMPI PUSH1 0x0 DUP1 REVERT JUMPDEST DUP3 DUP7 ADD JUMPDEST DUP5 DUP2 LT ISZERO PUSH2 0x4E8D JUMPI DUP1 CALLDATALOAD PUSH1 0x1 PUSH1 0x1 PUSH1 0x40 SHL SUB DUP2 GT ISZERO PUSH2 0x4E5C JUMPI PUSH1 0x0 DUP1 DUP2 REVERT JUMPDEST DUP8 ADD PUSH1 0x3F DUP2 ADD DUP10 SGT PUSH2 0x4E6E JUMPI PUSH1 0x0 DUP1 DUP2 REVERT JUMPDEST PUSH2 0x4E7F DUP10 DUP7 DUP4 ADD CALLDATALOAD PUSH1 0x40 DUP5 ADD PUSH2 0x4C82 JUMP JUMPDEST DUP5 MSTORE POP SWAP2 DUP4 ADD SWAP2 DUP4 ADD PUSH2 0x4E3D JUMP JUMPDEST POP SWAP7 SWAP6 POP POP POP POP POP POP JUMP JUMPDEST PUSH1 0x0 DUP1 PUSH1 0x40 DUP4 DUP6 SUB SLT ISZERO PUSH2 0x4EAB JUMPI PUSH1 0x0 DUP1 REVERT JUMPDEST DUP3 CALLDATALOAD PUSH1 0x1 PUSH1 0x1 PUSH1 0x40 SHL SUB DUP1 DUP3 GT ISZERO PUSH2 0x4EC2 JUMPI PUSH1 0x0 DUP1 REVERT JUMPDEST DUP2 DUP6 ADD SWAP2 POP DUP6 PUSH1 0x1F DUP4 ADD SLT PUSH2 0x4ED6 JUMPI PUSH1 0x0 DUP1 REVERT JUMPDEST DUP2 CALLDATALOAD PUSH1 0x20 PUSH2 0x4EE6 PUSH2 0x4C90 DUP4 PUSH2 0x4DD6 JUMP JUMPDEST DUP3 DUP2 MSTORE PUSH1 0x5 SWAP3 SWAP1 SWAP3 SHL DUP5 ADD DUP2 ADD SWAP2 DUP2 DUP2 ADD SWAP1 DUP10 DUP5 GT ISZERO PUSH2 0x4F05 JUMPI PUSH1 0x0 DUP1 REVERT JUMPDEST DUP3 DUP7 ADD JUMPDEST DUP5 DUP2 LT ISZERO PUSH2 0x4F3D JUMPI DUP1 CALLDATALOAD DUP7 DUP2 GT ISZERO PUSH2 0x4F21 JUMPI PUSH1 0x0 DUP1 DUP2 REVERT JUMPDEST PUSH2 0x4F2F DUP13 DUP7 DUP4 DUP12 ADD ADD PUSH2 0x4CC0 JUMP JUMPDEST DUP5 MSTORE POP SWAP2 DUP4 ADD SWAP2 DUP4 ADD PUSH2 0x4F09 JUMP JUMPDEST POP SWAP7 POP POP DUP7 ADD CALLDATALOAD SWAP3 POP POP DUP1 DUP3 GT ISZERO PUSH2 0x4F54 JUMPI PUSH1 0x0 DUP1 REVERT JUMPDEST POP PUSH2 0x4F61 DUP6 DUP3 DUP7 ADD PUSH2 0x4DF9 JUMP JUMPDEST SWAP2 POP POP SWAP3 POP SWAP3 SWAP1 POP JUMP JUMPDEST PUSH1 0x0 DUP1 PUSH1 0x0 DUP1 PUSH1 0x80 DUP6 DUP8 SUB SLT ISZERO PUSH2 0x4F81 JUMPI PUSH1 0x0 DUP1 REVERT JUMPDEST DUP5 CALLDATALOAD SWAP4 POP PUSH1 0x20 DUP6 ADD CALLDATALOAD PUSH2 0x4F93 DUP2 PUSH2 0x4BE3 JUMP JUMPDEST SWAP3 POP PUSH1 0x40 DUP6 ADD CALLDATALOAD SWAP2 POP PUSH1 0x60 DUP6 ADD CALLDATALOAD PUSH2 0x4FAA DUP2 PUSH2 0x4BE3 JUMP JUMPDEST SWAP4 SWAP7 SWAP3 SWAP6 POP SWAP1 SWAP4 POP POP JUMP JUMPDEST PUSH1 0x0 DUP1 PUSH1 0x40 DUP4 DUP6 SUB SLT ISZERO PUSH2 0x4FC8 JUMPI PUSH1 0x0 DUP1 REVERT JUMPDEST DUP3 CALLDATALOAD SWAP2 POP PUSH1 0x20 DUP4 ADD CALLDATALOAD PUSH2 0x4D62 DUP2 PUSH2 0x4BE3 JUMP JUMPDEST PUSH1 0x0 DUP1 PUSH1 0x0 PUSH1 0x60 DUP5 DUP7 SUB SLT ISZERO PUSH2 0x4FEF JUMPI PUSH1 0x0 DUP1 REVERT JUMPDEST DUP4 CALLDATALOAD PUSH1 0x1 PUSH1 0x1 PUSH1 0x40 SHL SUB DUP2 GT ISZERO PUSH2 0x5005 JUMPI PUSH1 0x0 DUP1 REVERT JUMPDEST PUSH2 0x5011 DUP7 DUP3 DUP8 ADD PUSH2 0x4CC0 JUMP JUMPDEST SWAP4 POP POP PUSH1 0x20 DUP5 ADD CALLDATALOAD PUSH2 0x5022 DUP2 PUSH2 0x4BE3 JUMP JUMPDEST SWAP3 SWAP6 SWAP3 SWAP5 POP POP POP PUSH1 0x40 SWAP2 SWAP1 SWAP2 ADD CALLDATALOAD SWAP1 JUMP JUMPDEST PUSH1 0x0 DUP1 PUSH1 0x0 DUP1 PUSH1 0x0 PUSH1 0xA0 DUP7 DUP9 SUB SLT ISZERO PUSH2 0x504B JUMPI PUSH1 0x0 DUP1 REVERT JUMPDEST DUP6 CALLDATALOAD PUSH1 0x1 PUSH1 0x1 PUSH1 0x40 SHL SUB DUP1 DUP3 GT ISZERO PUSH2 0x5062 JUMPI PUSH1 0x0 DUP1 REVERT JUMPDEST PUSH2 0x506E DUP10 DUP4 DUP11 ADD PUSH2 0x4CC0 JUMP JUMPDEST SWAP7 POP PUSH1 0x20 DUP9 ADD CALLDATALOAD SWAP2 POP PUSH2 0x5080 DUP3 PUSH2 0x4BE3 JUMP JUMPDEST SWAP1 SWAP5 POP PUSH1 0x40 DUP8 ADD CALLDATALOAD SWAP4 POP PUSH1 0x60 DUP8 ADD CALLDATALOAD SWAP1 PUSH2 0x5099 DUP3 PUSH2 0x4BE3 JUMP JUMPDEST SWAP1 SWAP3 POP PUSH1 0x80 DUP8 ADD CALLDATALOAD SWAP1 DUP1 DUP3 GT ISZERO PUSH2 0x50AF JUMPI PUSH1 0x0 DUP1 REVERT JUMPDEST POP PUSH2 0x50BC DUP9 DUP3 DUP10 ADD PUSH2 0x4CC0 JUMP JUMPDEST SWAP2 POP POP SWAP3 SWAP6 POP SWAP3 SWAP6 SWAP1 SWAP4 POP JUMP JUMPDEST PUSH1 0x0 DUP1 PUSH1 0x0 DUP1 PUSH1 0x80 DUP6 DUP8 SUB SLT ISZERO PUSH2 0x50DF JUMPI PUSH1 0x0 DUP1 REVERT JUMPDEST DUP5 CALLDATALOAD PUSH1 0x1 PUSH1 0x1 PUSH1 0x40 SHL SUB DUP1 DUP3 GT ISZERO PUSH2 0x50F6 JUMPI PUSH1 0x0 DUP1 REVERT JUMPDEST PUSH2 0x5102 DUP9 DUP4 DUP10 ADD PUSH2 0x4CC0 JUMP JUMPDEST SWAP6 POP PUSH1 0x20 DUP8 ADD CALLDATALOAD SWAP2 POP DUP1 DUP3 GT ISZERO PUSH2 0x5118 JUMPI PUSH1 0x0 DUP1 REVERT JUMPDEST POP PUSH2 0x5125 DUP8 DUP3 DUP9 ADD PUSH2 0x4CC0 JUMP JUMPDEST SWAP4 POP POP PUSH1 0x40 DUP6 ADD CALLDATALOAD PUSH2 0x5136 DUP2 PUSH2 0x4BE3 JUMP JUMPDEST SWAP4 SWAP7 SWAP3 SWAP6 POP SWAP3 SWAP4 PUSH1 0x60 ADD CALLDATALOAD SWAP3 POP POP JUMP JUMPDEST PUSH1 0x0 DUP1 PUSH1 0x0 PUSH1 0x60 DUP5 DUP7 SUB SLT ISZERO PUSH2 0x515B JUMPI PUSH1 0x0 DUP1 REVERT JUMPDEST POP POP DUP2 CALLDATALOAD SWAP4 PUSH1 0x20 DUP4 ADD CALLDATALOAD SWAP4 POP PUSH1 0x40 SWAP1 SWAP3 ADD CALLDATALOAD SWAP2 SWAP1 POP JUMP JUMPDEST PUSH1 0x0 DUP1 PUSH1 0x0 PUSH1 0x60 DUP5 DUP7 SUB SLT ISZERO PUSH2 0x5187 JUMPI PUSH1 0x0 DUP1 REVERT JUMPDEST DUP4 CALLDATALOAD SWAP3 POP PUSH1 0x20 DUP5 ADD CALLDATALOAD SWAP2 POP PUSH1 0x40 DUP5 ADD CALLDATALOAD PUSH2 0x4DA9 DUP2 PUSH2 0x4BE3 JUMP JUMPDEST PUSH1 0x3 DUP2 LT PUSH2 0xDD5 JUMPI PUSH1 0x0 DUP1 REVERT JUMPDEST PUSH1 0x0 DUP1 PUSH1 0x0 PUSH1 0x60 DUP5 DUP7 SUB SLT ISZERO PUSH2 0x51C2 JUMPI PUSH1 0x0 DUP1 REVERT JUMPDEST DUP4 CALLDATALOAD PUSH1 0x1 PUSH1 0x1 PUSH1 0x40 SHL SUB DUP2 GT ISZERO PUSH2 0x51D8 JUMPI PUSH1 0x0 DUP1 REVERT JUMPDEST PUSH2 0x51E4 DUP7 DUP3 DUP8 ADD PUSH2 0x4CC0 JUMP JUMPDEST SWAP4 POP POP PUSH1 0x20 DUP5 ADD CALLDATALOAD PUSH2 0x51F5 DUP2 PUSH2 0x4BE3 JUMP JUMPDEST SWAP2 POP PUSH1 0x40 DUP5 ADD CALLDATALOAD PUSH2 0x4DA9 DUP2 PUSH2 0x51A0 JUMP JUMPDEST PUSH1 0x0 DUP1 PUSH1 0x0 DUP1 PUSH1 0x0 PUSH1 0xA0 DUP7 DUP9 SUB SLT ISZERO PUSH2 0x521D JUMPI PUSH1 0x0 DUP1 REVERT JUMPDEST DUP6 CALLDATALOAD SWAP5 POP PUSH1 0x20 DUP7 ADD CALLDATALOAD SWAP4 POP PUSH1 0x40 DUP7 ADD CALLDATALOAD PUSH2 0x5236 DUP2 PUSH2 0x4BE3 JUMP JUMPDEST SWAP3 POP PUSH1 0x60 DUP7 ADD CALLDATALOAD SWAP2 POP PUSH1 0x80 DUP7 ADD CALLDATALOAD PUSH2 0x524D DUP2 PUSH2 0x4BE3 JUMP JUMPDEST DUP1 SWAP2 POP POP SWAP3 SWAP6 POP SWAP3 SWAP6 SWAP1 SWAP4 POP JUMP JUMPDEST PUSH1 0x20 DUP1 DUP3 MSTORE PUSH1 0x3 SWAP1 DUP3 ADD MSTORE PUSH3 0x444E45 PUSH1 0xE8 SHL PUSH1 0x40 DUP3 ADD MSTORE PUSH1 0x60 ADD SWAP1 JUMP JUMPDEST PUSH4 0x4E487B71 PUSH1 0xE0 SHL PUSH1 0x0 MSTORE PUSH1 0x11 PUSH1 0x4 MSTORE PUSH1 0x24 PUSH1 0x0 REVERT JUMPDEST DUP1 DUP3 ADD DUP1 DUP3 GT ISZERO PUSH2 0xFF6 JUMPI PUSH2 0xFF6 PUSH2 0x5278 JUMP JUMPDEST PUSH1 0x0 JUMPDEST DUP4 DUP2 LT ISZERO PUSH2 0x52BC JUMPI DUP2 DUP2 ADD MLOAD DUP4 DUP3 ADD MSTORE PUSH1 0x20 ADD PUSH2 0x52A4 JUMP JUMPDEST POP POP PUSH1 0x0 SWAP2 ADD MSTORE JUMP JUMPDEST PUSH1 0x0 DUP3 MLOAD PUSH2 0x52D7 DUP2 DUP5 PUSH1 0x20 DUP8 ADD PUSH2 0x52A1 JUMP JUMPDEST SWAP2 SWAP1 SWAP2 ADD SWAP3 SWAP2 POP POP JUMP JUMPDEST PUSH1 0x0 DUP2 MLOAD DUP1 DUP5 MSTORE PUSH2 0x52F9 DUP2 PUSH1 0x20 DUP7 ADD PUSH1 0x20 DUP7 ADD PUSH2 0x52A1 JUMP JUMPDEST PUSH1 0x1F ADD PUSH1 0x1F NOT AND SWAP3 SWAP1 SWAP3 ADD PUSH1 0x20 ADD SWAP3 SWAP2 POP POP JUMP JUMPDEST PUSH1 0x60 DUP2 MSTORE PUSH1 0x0 PUSH2 0x5320 PUSH1 0x60 DUP4 ADD DUP7 PUSH2 0x52E1 JUMP JUMPDEST PUSH1 0x1 PUSH1 0x1 PUSH1 0xA0 SHL SUB SWAP5 SWAP1 SWAP5 AND PUSH1 0x20 DUP4 ADD MSTORE POP PUSH1 0x40 ADD MSTORE SWAP2 SWAP1 POP JUMP JUMPDEST PUSH1 0x60 DUP2 MSTORE PUSH1 0x2 PUSH1 0x60 DUP3 ADD MSTORE PUSH2 0x1C95 PUSH1 0xF2 SHL PUSH1 0x80 DUP3 ADD MSTORE PUSH1 0xA0 PUSH1 0x20 DUP3 ADD MSTORE PUSH1 0x0 PUSH2 0x5367 PUSH1 0xA0 DUP4 ADD DUP6 PUSH2 0x52E1 JUMP JUMPDEST SWAP1 POP PUSH1 0x1 DUP1 PUSH1 0xA0 SHL SUB DUP4 AND PUSH1 0x40 DUP4 ADD MSTORE SWAP4 SWAP3 POP POP POP JUMP JUMPDEST PUSH1 0x20 DUP1 DUP3 MSTORE PUSH1 0x2 SWAP1 DUP3 ADD MSTORE PUSH2 0x9E9 PUSH1 0xF3 SHL PUSH1 0x40 DUP3 ADD MSTORE PUSH1 0x60 ADD SWAP1 JUMP JUMPDEST PUSH1 0x20 DUP1 DUP3 MSTORE PUSH1 0x2 SWAP1 DUP3 ADD MSTORE PUSH2 0x5553 PUSH1 0xF0 SHL PUSH1 0x40 DUP3 ADD MSTORE PUSH1 0x60 ADD SWAP1 JUMP JUMPDEST PUSH4 0x4E487B71 PUSH1 0xE0 SHL PUSH1 0x0 MSTORE PUSH1 0x21 PUSH1 0x4 MSTORE PUSH1 0x24 PUSH1 0x0 REVERT JUMPDEST PUSH1 0x20 DUP1 DUP3 MSTORE PUSH1 0x2 SWAP1 DUP3 ADD MSTORE PUSH2 0x1153 PUSH1 0xF2 SHL PUSH1 0x40 DUP3 ADD MSTORE PUSH1 0x60 ADD SWAP1 JUMP JUMPDEST DUP1 DUP3 MUL DUP2 ISZERO DUP3 DUP3 DIV DUP5 EQ OR PUSH2 0xFF6 JUMPI PUSH2 0xFF6 PUSH2 0x5278 JUMP JUMPDEST PUSH1 0x0 DUP3 PUSH2 0x541C JUMPI PUSH4 0x4E487B71 PUSH1 0xE0 SHL PUSH1 0x0 MSTORE PUSH1 0x12 PUSH1 0x4 MSTORE PUSH1 0x24 PUSH1 0x0 REVERT JUMPDEST POP DIV SWAP1 JUMP JUMPDEST DUP2 DUP2 SUB DUP2 DUP2 GT ISZERO PUSH2 0xFF6 JUMPI PUSH2 0xFF6 PUSH2 0x5278 JUMP JUMPDEST PUSH1 0x0 PUSH1 0x20 DUP3 DUP5 SUB SLT ISZERO PUSH2 0x5446 JUMPI PUSH1 0x0 DUP1 REVERT JUMPDEST POP MLOAD SWAP2 SWAP1 POP JUMP JUMPDEST PUSH1 0x20 DUP1 DUP3 MSTORE PUSH1 0x2 SWAP1 DUP3 ADD MSTORE PUSH2 0x1255 PUSH1 0xF2 SHL PUSH1 0x40 DUP3 ADD MSTORE PUSH1 0x60 ADD SWAP1 JUMP JUMPDEST PUSH1 0x0 PUSH1 0x20 DUP3 DUP5 SUB SLT ISZERO PUSH2 0x547B JUMPI PUSH1 0x0 DUP1 REVERT JUMPDEST DUP2 MLOAD PUSH2 0x1B43 DUP2 PUSH2 0x4D6D JUMP JUMPDEST PUSH1 0x20 DUP1 DUP3 MSTORE PUSH1 0x2 SWAP1 DUP3 ADD MSTORE PUSH2 0x1395 PUSH1 0xF2 SHL PUSH1 0x40 DUP3 ADD MSTORE PUSH1 0x60 ADD SWAP1 JUMP JUMPDEST PUSH1 0x3 DUP2 LT PUSH2 0xDD5 JUMPI PUSH4 0x4E487B71 PUSH1 0xE0 SHL PUSH1 0x0 MSTORE PUSH1 0x21 PUSH1 0x4 MSTORE PUSH1 0x24 PUSH1 0x0 REVERT JUMPDEST PUSH1 0xC0 DUP2 ADD PUSH2 0x54CD DUP6 PUSH2 0x54A2 JUMP JUMPDEST DUP5 DUP3 MSTORE DUP4 PUSH1 0x20 DUP4 ADD MSTORE DUP3 MLOAD PUSH1 0x40 DUP4 ADD MSTORE PUSH1 0x20 DUP4 ADD MLOAD PUSH1 0x60 DUP4 ADD MSTORE PUSH1 0x40 DUP4 ADD MLOAD PUSH1 0x1 DUP1 PUSH1 0xA0 SHL SUB DUP1 DUP3 AND PUSH1 0x80 DUP6 ADD MSTORE DUP1 PUSH1 0x60 DUP7 ADD MLOAD AND PUSH1 0xA0 DUP6 ADD MSTORE POP POP SWAP5 SWAP4 POP POP POP POP JUMP JUMPDEST PUSH1 0x60 DUP2 MSTORE PUSH1 0x2 PUSH1 0x60 DUP3 ADD MSTORE PUSH2 0x1911 PUSH1 0xF2 SHL PUSH1 0x80 DUP3 ADD MSTORE PUSH1 0xA0 PUSH1 0x20 DUP3 ADD MSTORE PUSH1 0x0 PUSH2 0x5367 PUSH1 0xA0 DUP4 ADD DUP6 PUSH2 0x52E1 JUMP JUMPDEST PUSH1 0x40 DUP2 MSTORE PUSH1 0x0 PUSH2 0x5550 PUSH1 0x40 DUP4 ADD DUP6 PUSH2 0x52E1 JUMP JUMPDEST SWAP1 POP PUSH1 0x1 DUP1 PUSH1 0xA0 SHL SUB DUP4 AND PUSH1 0x20 DUP4 ADD MSTORE SWAP4 SWAP3 POP POP POP JUMP JUMPDEST PUSH1 0x60 DUP2 MSTORE PUSH1 0x2 PUSH1 0x60 DUP3 ADD MSTORE PUSH2 0x31A1 PUSH1 0xF1 SHL PUSH1 0x80 DUP3 ADD MSTORE PUSH1 0xA0 PUSH1 0x20 DUP3 ADD MSTORE PUSH1 0x0 PUSH2 0x5367 PUSH1 0xA0 DUP4 ADD DUP6 PUSH2 0x52E1 JUMP JUMPDEST PUSH1 0x60 DUP2 MSTORE PUSH1 0x3 PUSH1 0x60 DUP3 ADD MSTORE PUSH3 0x724241 PUSH1 0xE8 SHL PUSH1 0x80 DUP3 ADD MSTORE PUSH1 0xA0 PUSH1 0x20 DUP3 ADD MSTORE PUSH1 0x0 PUSH2 0x5367 PUSH1 0xA0 DUP4 ADD DUP6 PUSH2 0x52E1 JUMP JUMPDEST PUSH1 0x60 DUP2 MSTORE PUSH1 0x2 PUSH1 0x60 DUP3 ADD MSTORE PUSH2 0x34A9 PUSH1 0xF1 SHL PUSH1 0x80 DUP3 ADD MSTORE PUSH1 0xA0 PUSH1 0x20 DUP3 ADD MSTORE PUSH1 0x0 PUSH2 0x5367 PUSH1 0xA0 DUP4 ADD DUP6 PUSH2 0x52E1 JUMP JUMPDEST PUSH1 0x0 PUSH1 0x1 DUP3 ADD PUSH2 0x55FE JUMPI PUSH2 0x55FE PUSH2 0x5278 JUMP JUMPDEST POP PUSH1 0x1 ADD SWAP1 JUMP JUMPDEST PUSH1 0x20 DUP2 MSTORE PUSH1 0x0 PUSH2 0x1B43 PUSH1 0x20 DUP4 ADD DUP5 PUSH2 0x52E1 JUMP JUMPDEST PUSH1 0x60 DUP2 MSTORE PUSH1 0x2 PUSH1 0x60 DUP3 ADD MSTORE PUSH2 0x3221 PUSH1 0xF1 SHL PUSH1 0x80 DUP3 ADD MSTORE PUSH1 0xA0 PUSH1 0x20 DUP3 ADD MSTORE PUSH1 0x0 PUSH2 0x5367 PUSH1 0xA0 DUP4 ADD DUP6 PUSH2 0x52E1 JUMP JUMPDEST PUSH1 0x60 DUP2 MSTORE PUSH1 0x2 PUSH1 0x60 DUP3 ADD MSTORE PUSH2 0x6953 PUSH1 0xF0 SHL PUSH1 0x80 DUP3 ADD MSTORE PUSH1 0xA0 PUSH1 0x20 DUP3 ADD MSTORE PUSH1 0x0 PUSH2 0x5367 PUSH1 0xA0 DUP4 ADD DUP6 PUSH2 0x52E1 JUMP JUMPDEST PUSH4 0x4E487B71 PUSH1 0xE0 SHL PUSH1 0x0 MSTORE PUSH1 0x32 PUSH1 0x4 MSTORE PUSH1 0x24 PUSH1 0x0 REVERT JUMPDEST PUSH1 0x1 DUP2 DUP2 SHR SWAP1 DUP3 AND DUP1 PUSH2 0x569A JUMPI PUSH1 0x7F DUP3 AND SWAP2 POP JUMPDEST PUSH1 0x20 DUP3 LT DUP2 SUB PUSH2 0x56BA JUMPI PUSH4 0x4E487B71 PUSH1 0xE0 SHL PUSH1 0x0 MSTORE PUSH1 0x22 PUSH1 0x4 MSTORE PUSH1 0x24 PUSH1 0x0 REVERT JUMPDEST POP SWAP2 SWAP1 POP JUMP JUMPDEST PUSH1 0x0 PUSH2 0x56CE PUSH2 0x4C90 DUP5 PUSH2 0x4C5B JUMP JUMPDEST SWAP1 POP DUP3 DUP2 MSTORE DUP4 DUP4 DUP4 ADD GT ISZERO PUSH2 0x56E2 JUMPI PUSH1 0x0 DUP1 REVERT JUMPDEST PUSH2 0x1B43 DUP4 PUSH1 0x20 DUP4 ADD DUP5 PUSH2 0x52A1 JUMP JUMPDEST PUSH1 0x0 DUP3 PUSH1 0x1F DUP4 ADD SLT PUSH2 0x5701 JUMPI PUSH1 0x0 DUP1 REVERT JUMPDEST PUSH2 0x1B43 DUP4 DUP4 MLOAD PUSH1 0x20 DUP6 ADD PUSH2 0x56C0 JUMP JUMPDEST PUSH1 0x0 DUP3 PUSH1 0x1F DUP4 ADD SLT PUSH2 0x5721 JUMPI PUSH1 0x0 DUP1 REVERT JUMPDEST DUP2 MLOAD PUSH1 0x20 PUSH2 0x5731 PUSH2 0x4C90 DUP4 PUSH2 0x4DD6 JUMP JUMPDEST DUP3 DUP2 MSTORE PUSH1 0x5 SWAP3 SWAP1 SWAP3 SHL DUP5 ADD DUP2 ADD SWAP2 DUP2 DUP2 ADD SWAP1 DUP7 DUP5 GT ISZERO PUSH2 0x5750 JUMPI PUSH1 0x0 DUP1 REVERT JUMPDEST DUP3 DUP7 ADD JUMPDEST DUP5 DUP2 LT ISZERO PUSH2 0x4E8D JUMPI DUP1 MLOAD PUSH1 0x1 PUSH1 0x1 PUSH1 0x40 SHL SUB DUP2 GT ISZERO PUSH2 0x5773 JUMPI PUSH1 0x0 DUP1 DUP2 REVERT JUMPDEST DUP8 ADD PUSH1 0x3F DUP2 ADD DUP10 SGT PUSH2 0x5785 JUMPI PUSH1 0x0 DUP1 DUP2 REVERT JUMPDEST PUSH2 0x5796 DUP10 DUP7 DUP4 ADD MLOAD PUSH1 0x40 DUP5 ADD PUSH2 0x56C0 JUMP JUMPDEST DUP5 MSTORE POP SWAP2 DUP4 ADD SWAP2 DUP4 ADD PUSH2 0x5754 JUMP JUMPDEST PUSH1 0x0 DUP1 PUSH1 0x40 DUP4 DUP6 SUB SLT ISZERO PUSH2 0x57B7 JUMPI PUSH1 0x0 DUP1 REVERT JUMPDEST DUP3 MLOAD PUSH1 0x1 PUSH1 0x1 PUSH1 0x40 SHL SUB DUP1 DUP3 GT ISZERO PUSH2 0x57CE JUMPI PUSH1 0x0 DUP1 REVERT JUMPDEST DUP2 DUP6 ADD SWAP2 POP DUP6 PUSH1 0x1F DUP4 ADD SLT PUSH2 0x57E2 JUMPI PUSH1 0x0 DUP1 REVERT JUMPDEST DUP2 MLOAD PUSH1 0x20 PUSH2 0x57F2 PUSH2 0x4C90 DUP4 PUSH2 0x4DD6 JUMP JUMPDEST DUP3 DUP2 MSTORE PUSH1 0x5 SWAP3 SWAP1 SWAP3 SHL DUP5 ADD DUP2 ADD SWAP2 DUP2 DUP2 ADD SWAP1 DUP10 DUP5 GT ISZERO PUSH2 0x5811 JUMPI PUSH1 0x0 DUP1 REVERT JUMPDEST DUP3 DUP7 ADD JUMPDEST DUP5 DUP2 LT ISZERO PUSH2 0x5849 JUMPI DUP1 MLOAD DUP7 DUP2 GT ISZERO PUSH2 0x582D JUMPI PUSH1 0x0 DUP1 DUP2 REVERT JUMPDEST PUSH2 0x583B DUP13 DUP7 DUP4 DUP12 ADD ADD PUSH2 0x56F0 JUMP JUMPDEST DUP5 MSTORE POP SWAP2 DUP4 ADD SWAP2 DUP4 ADD PUSH2 0x5815 JUMP JUMPDEST POP SWAP2 DUP9 ADD MLOAD SWAP2 SWAP7 POP SWAP1 SWAP4 POP POP POP DUP1 DUP3 GT ISZERO PUSH2 0x5863 JUMPI PUSH1 0x0 DUP1 REVERT JUMPDEST POP PUSH2 0x4F61 DUP6 DUP3 DUP7 ADD PUSH2 0x5710 JUMP JUMPDEST PUSH1 0x0 DUP1 PUSH1 0x0 PUSH1 0x60 DUP5 DUP7 SUB SLT ISZERO PUSH2 0x5885 JUMPI PUSH1 0x0 DUP1 REVERT JUMPDEST DUP4 MLOAD PUSH1 0x1 PUSH1 0x1 PUSH1 0x40 SHL SUB DUP2 GT ISZERO PUSH2 0x589B JUMPI PUSH1 0x0 DUP1 REVERT JUMPDEST PUSH2 0x58A7 DUP7 DUP3 DUP8 ADD PUSH2 0x56F0 JUMP JUMPDEST SWAP4 POP POP PUSH1 0x20 DUP5 ADD MLOAD PUSH2 0x58B8 DUP2 PUSH2 0x51A0 JUMP JUMPDEST PUSH1 0x40 DUP6 ADD MLOAD SWAP1 SWAP3 POP PUSH2 0x4DA9 DUP2 PUSH2 0x4BE3 JUMP JUMPDEST PUSH1 0x0 DUP1 PUSH1 0x0 DUP1 PUSH1 0x0 PUSH1 0xA0 DUP7 DUP9 SUB SLT ISZERO PUSH2 0x58E1 JUMPI PUSH1 0x0 DUP1 REVERT JUMPDEST DUP6 MLOAD PUSH1 0x1 PUSH1 0x1 PUSH1 0x40 SHL SUB DUP1 DUP3 GT ISZERO PUSH2 0x58F8 JUMPI PUSH1 0x0 DUP1 REVERT JUMPDEST PUSH2 0x5904 DUP10 DUP4 DUP11 ADD PUSH2 0x56F0 JUMP JUMPDEST SWAP7 POP PUSH1 0x20 DUP9 ADD MLOAD SWAP2 POP PUSH2 0x5916 DUP3 PUSH2 0x4BE3 JUMP JUMPDEST PUSH1 0x40 DUP9 ADD MLOAD PUSH1 0x60 DUP10 ADD MLOAD SWAP3 SWAP7 POP SWAP5 POP PUSH2 0x592E DUP3 PUSH2 0x4BE3 JUMP JUMPDEST PUSH1 0x80 DUP9 ADD MLOAD SWAP2 SWAP4 POP DUP1 DUP3 GT ISZERO PUSH2 0x5943 JUMPI PUSH1 0x0 DUP1 REVERT JUMPDEST POP PUSH2 0x50BC DUP9 DUP3 DUP10 ADD PUSH2 0x56F0 JUMP JUMPDEST PUSH1 0x0 DUP1 PUSH1 0x0 DUP1 PUSH1 0x80 DUP6 DUP8 SUB SLT ISZERO PUSH2 0x5966 JUMPI PUSH1 0x0 DUP1 REVERT JUMPDEST DUP5 MLOAD PUSH1 0x1 PUSH1 0x1 PUSH1 0x40 SHL SUB DUP1 DUP3 GT ISZERO PUSH2 0x597D JUMPI PUSH1 0x0 DUP1 REVERT JUMPDEST PUSH2 0x5989 DUP9 DUP4 DUP10 ADD PUSH2 0x56F0 JUMP JUMPDEST SWAP6 POP PUSH1 0x20 DUP8 ADD MLOAD SWAP2 POP DUP1 DUP3 GT ISZERO PUSH2 0x599F JUMPI PUSH1 0x0 DUP1 REVERT JUMPDEST POP PUSH2 0x59AC DUP8 DUP3 DUP9 ADD PUSH2 0x56F0 JUMP JUMPDEST SWAP4 POP POP PUSH1 0x40 DUP6 ADD MLOAD PUSH2 0x59BD DUP2 PUSH2 0x4BE3 JUMP JUMPDEST PUSH1 0x60 SWAP6 SWAP1 SWAP6 ADD MLOAD SWAP4 SWAP7 SWAP3 SWAP6 POP POP POP JUMP JUMPDEST PUSH1 0x0 DUP1 PUSH1 0x0 PUSH1 0x60 DUP5 DUP7 SUB SLT ISZERO PUSH2 0x59E2 JUMPI PUSH1 0x0 DUP1 REVERT JUMPDEST DUP4 MLOAD PUSH1 0x1 PUSH1 0x1 PUSH1 0x40 SHL SUB DUP2 GT ISZERO PUSH2 0x59F8 JUMPI PUSH1 0x0 DUP1 REVERT JUMPDEST PUSH2 0x5A04 DUP7 DUP3 DUP8 ADD PUSH2 0x56F0 JUMP JUMPDEST SWAP4 POP POP PUSH1 0x20 DUP5 ADD MLOAD PUSH2 0x5A15 DUP2 PUSH2 0x4BE3 JUMP JUMPDEST DUP1 SWAP3 POP POP PUSH1 0x40 DUP5 ADD MLOAD SWAP1 POP SWAP3 POP SWAP3 POP SWAP3 JUMP JUMPDEST PUSH1 0x0 DUP1 PUSH1 0x0 DUP1 PUSH1 0x80 DUP6 DUP8 SUB SLT ISZERO PUSH2 0x5A3D JUMPI PUSH1 0x0 DUP1 REVERT JUMPDEST DUP5 MLOAD SWAP4 POP PUSH1 0x20 DUP6 ADD MLOAD PUSH2 0x5A4F DUP2 PUSH2 0x4BE3 JUMP JUMPDEST PUSH1 0x40 DUP7 ADD MLOAD PUSH1 0x60 DUP8 ADD MLOAD SWAP2 SWAP5 POP SWAP3 POP PUSH2 0x4FAA DUP2 PUSH2 0x4BE3 JUMP JUMPDEST PUSH1 0x0 DUP1 PUSH1 0x40 DUP4 DUP6 SUB SLT ISZERO PUSH2 0x5A7A JUMPI PUSH1 0x0 DUP1 REVERT JUMPDEST DUP3 MLOAD PUSH1 0x1 PUSH1 0x1 PUSH1 0x40 SHL SUB DUP2 GT ISZERO PUSH2 0x5A90 JUMPI PUSH1 0x0 DUP1 REVERT JUMPDEST PUSH2 0x5A9C DUP6 DUP3 DUP7 ADD PUSH2 0x56F0 JUMP JUMPDEST SWAP3 POP POP PUSH1 0x20 DUP4 ADD MLOAD PUSH2 0x4D62 DUP2 PUSH2 0x4BE3 JUMP JUMPDEST PUSH1 0x0 PUSH1 0x20 DUP3 DUP5 SUB SLT ISZERO PUSH2 0x5ABF JUMPI PUSH1 0x0 DUP1 REVERT JUMPDEST DUP2 MLOAD PUSH1 0x1 PUSH1 0x1 PUSH1 0x40 SHL SUB DUP2 GT ISZERO PUSH2 0x5AD5 JUMPI PUSH1 0x0 DUP1 REVERT JUMPDEST PUSH2 0x4D14 DUP5 DUP3 DUP6 ADD PUSH2 0x56F0 JUMP JUMPDEST PUSH1 0x0 PUSH1 0x20 DUP3 DUP5 SUB SLT ISZERO PUSH2 0x5AF3 JUMPI PUSH1 0x0 DUP1 REVERT JUMPDEST DUP2 MLOAD PUSH2 0x1B43 DUP2 PUSH2 0x4BE3 JUMP JUMPDEST PUSH1 0x60 DUP2 MSTORE PUSH1 0x2 PUSH1 0x60 DUP3 ADD MSTORE PUSH2 0x695 PUSH1 0xF4 SHL PUSH1 0x80 DUP3 ADD MSTORE PUSH1 0xA0 PUSH1 0x20 DUP3 ADD MSTORE PUSH1 0x0 PUSH2 0x5367 PUSH1 0xA0 DUP4 ADD DUP6 PUSH2 0x52E1 JUMP JUMPDEST PUSH1 0x20 DUP1 DUP3 MSTORE PUSH1 0x2 SWAP1 DUP3 ADD MSTORE PUSH2 0x24A3 PUSH1 0xF1 SHL PUSH1 0x40 DUP3 ADD MSTORE PUSH1 0x60 ADD SWAP1 JUMP JUMPDEST DUP5 DUP2 MSTORE PUSH1 0x80 PUSH1 0x20 DUP3 ADD MSTORE PUSH1 0x0 PUSH2 0x5B5F PUSH1 0x80 DUP4 ADD DUP7 PUSH2 0x52E1 JUMP JUMPDEST PUSH1 0x1 PUSH1 0x1 PUSH1 0xA0 SHL SUB SWAP5 SWAP1 SWAP5 AND PUSH1 0x40 DUP4 ADD MSTORE POP PUSH1 0x60 ADD MSTORE SWAP3 SWAP2 POP POP JUMP JUMPDEST PUSH1 0x60 DUP2 MSTORE PUSH1 0x2 PUSH1 0x60 DUP3 ADD MSTORE PUSH2 0x1A51 PUSH1 0xF2 SHL PUSH1 0x80 DUP3 ADD MSTORE PUSH1 0xA0 PUSH1 0x20 DUP3 ADD MSTORE PUSH1 0x0 PUSH2 0x5367 PUSH1 0xA0 DUP4 ADD DUP6 PUSH2 0x52E1 JUMP JUMPDEST PUSH1 0x60 DUP2 MSTORE PUSH1 0x3 PUSH1 0x60 DUP3 ADD MSTORE PUSH3 0x755441 PUSH1 0xE8 SHL PUSH1 0x80 DUP3 ADD MSTORE PUSH1 0xA0 PUSH1 0x20 DUP3 ADD MSTORE PUSH1 0x0 PUSH2 0x5367 PUSH1 0xA0 DUP4 ADD DUP6 PUSH2 0x52E1 JUMP JUMPDEST PUSH1 0x60 DUP2 MSTORE PUSH1 0x3 PUSH1 0x60 DUP3 ADD MSTORE PUSH3 0x725441 PUSH1 0xE8 SHL PUSH1 0x80 DUP3 ADD MSTORE PUSH1 0xA0 PUSH1 0x20 DUP3 ADD MSTORE PUSH1 0x0 PUSH2 0x5367 PUSH1 0xA0 DUP4 ADD DUP6 PUSH2 0x52E1 JUMP JUMPDEST PUSH1 0x80 DUP2 MSTORE PUSH1 0x0 PUSH2 0x5C14 PUSH1 0x80 DUP4 ADD DUP8 PUSH2 0x52E1 JUMP JUMPDEST DUP3 DUP2 SUB PUSH1 0x20 DUP5 ADD MSTORE PUSH2 0x5C26 DUP2 DUP8 PUSH2 0x52E1 JUMP JUMPDEST PUSH1 0x1 PUSH1 0x1 PUSH1 0xA0 SHL SUB SWAP6 SWAP1 SWAP6 AND PUSH1 0x40 DUP5 ADD MSTORE POP POP PUSH1 0x60 ADD MSTORE SWAP3 SWAP2 POP POP JUMP JUMPDEST PUSH1 0x60 DUP2 MSTORE PUSH1 0x2 PUSH1 0x60 DUP3 ADD MSTORE PUSH2 0x1B55 PUSH1 0xF2 SHL PUSH1 0x80 DUP3 ADD MSTORE PUSH1 0xA0 PUSH1 0x20 DUP3 ADD MSTORE PUSH1 0x0 PUSH2 0x5367 PUSH1 0xA0 DUP4 ADD DUP6 PUSH2 0x52E1 JUMP JUMPDEST PUSH1 0x60 DUP2 MSTORE PUSH1 0x3 PUSH1 0x60 DUP3 ADD MSTORE PUSH3 0x614241 PUSH1 0xE8 SHL PUSH1 0x80 DUP3 ADD MSTORE PUSH1 0xA0 PUSH1 0x20 DUP3 ADD MSTORE PUSH1 0x0 PUSH2 0x5367 PUSH1 0xA0 DUP4 ADD DUP6 PUSH2 0x52E1 JUMP JUMPDEST PUSH1 0xC0 DUP2 ADD PUSH2 0x5CA9 DUP6 PUSH2 0x54A2 JUMP JUMPDEST SWAP4 DUP2 MSTORE PUSH1 0x20 DUP2 ADD SWAP3 SWAP1 SWAP3 MSTORE DUP1 SLOAD PUSH1 0x40 DUP4 ADD MSTORE PUSH1 0x1 DUP2 ADD SLOAD PUSH1 0x60 DUP4 ADD MSTORE PUSH1 0x2 DUP2 ADD SLOAD PUSH1 0x1 PUSH1 0x1 PUSH1 0xA0 SHL SUB SWAP1 DUP2 AND PUSH1 0x80 DUP5 ADD MSTORE PUSH1 0x3 SWAP1 SWAP2 ADD SLOAD AND PUSH1 0xA0 SWAP1 SWAP2 ADD MSTORE SWAP1 JUMP JUMPDEST PUSH1 0x60 DUP2 MSTORE PUSH1 0x0 PUSH2 0x5CFD PUSH1 0x60 DUP4 ADD DUP7 PUSH2 0x52E1 JUMP JUMPDEST PUSH1 0x1 PUSH1 0x1 PUSH1 0xA0 SHL SUB DUP6 AND PUSH1 0x20 DUP5 ADD MSTORE SWAP1 POP PUSH2 0x5D17 DUP4 PUSH2 0x54A2 JUMP JUMPDEST DUP3 PUSH1 0x40 DUP4 ADD MSTORE SWAP5 SWAP4 POP POP POP POP JUMP JUMPDEST PUSH1 0x60 DUP2 MSTORE PUSH1 0x2 PUSH1 0x60 DUP3 ADD MSTORE PUSH2 0x735 PUSH1 0xF4 SHL PUSH1 0x80 DUP3 ADD MSTORE PUSH1 0xA0 PUSH1 0x20 DUP3 ADD MSTORE PUSH1 0x0 PUSH2 0x5367 PUSH1 0xA0 DUP4 ADD DUP6 PUSH2 0x52E1 JUMP JUMPDEST PUSH1 0xA0 DUP2 MSTORE PUSH1 0x0 PUSH2 0x5D64 PUSH1 0xA0 DUP4 ADD DUP9 PUSH2 0x52E1 JUMP JUMPDEST PUSH1 0x1 PUSH1 0x1 PUSH1 0xA0 SHL SUB DUP8 DUP2 AND PUSH1 0x20 DUP6 ADD MSTORE PUSH1 0x40 DUP5 ADD DUP8 SWAP1 MSTORE DUP6 AND PUSH1 0x60 DUP5 ADD MSTORE DUP3 DUP2 SUB PUSH1 0x80 DUP5 ADD MSTORE PUSH2 0x5D94 DUP2 DUP6 PUSH2 0x52E1 JUMP JUMPDEST SWAP9 SWAP8 POP POP POP POP POP POP POP POP JUMP JUMPDEST PUSH1 0x60 DUP2 MSTORE PUSH1 0x2 PUSH1 0x60 DUP3 ADD MSTORE PUSH2 0x1D15 PUSH1 0xF2 SHL PUSH1 0x80 DUP3 ADD MSTORE PUSH1 0xA0 PUSH1 0x20 DUP3 ADD MSTORE PUSH1 0x0 PUSH2 0x5367 PUSH1 0xA0 DUP4 ADD DUP6 PUSH2 0x52E1 JUMP JUMPDEST PUSH1 0x1F DUP3 GT ISZERO PUSH2 0xEA9 JUMPI PUSH1 0x0 DUP2 DUP2 MSTORE PUSH1 0x20 DUP2 KECCAK256 PUSH1 0x1F DUP6 ADD PUSH1 0x5 SHR DUP2 ADD PUSH1 0x20 DUP7 LT ISZERO PUSH2 0x5DF3 JUMPI POP DUP1 JUMPDEST PUSH1 0x1F DUP6 ADD PUSH1 0x5 SHR DUP3 ADD SWAP2 POP JUMPDEST DUP2 DUP2 LT ISZERO PUSH2 0x1310 JUMPI DUP3 DUP2 SSTORE PUSH1 0x1 ADD PUSH2 0x5DFF JUMP JUMPDEST DUP2 MLOAD PUSH1 0x1 PUSH1 0x1 PUSH1 0x40 SHL SUB DUP2 GT ISZERO PUSH2 0x5E2B JUMPI PUSH2 0x5E2B PUSH2 0x4C15 JUMP JUMPDEST PUSH2 0x5E3F DUP2 PUSH2 0x5E39 DUP5 SLOAD PUSH2 0x5686 JUMP JUMPDEST DUP5 PUSH2 0x5DCC JUMP JUMPDEST PUSH1 0x20 DUP1 PUSH1 0x1F DUP4 GT PUSH1 0x1 DUP2 EQ PUSH2 0x5E74 JUMPI PUSH1 0x0 DUP5 ISZERO PUSH2 0x5E5C JUMPI POP DUP6 DUP4 ADD MLOAD JUMPDEST PUSH1 0x0 NOT PUSH1 0x3 DUP7 SWAP1 SHL SHR NOT AND PUSH1 0x1 DUP6 SWAP1 SHL OR DUP6 SSTORE PUSH2 0x1310 JUMP JUMPDEST PUSH1 0x0 DUP6 DUP2 MSTORE PUSH1 0x20 DUP2 KECCAK256 PUSH1 0x1F NOT DUP7 AND SWAP2 JUMPDEST DUP3 DUP2 LT ISZERO PUSH2 0x5EA3 JUMPI DUP9 DUP7 ADD MLOAD DUP3 SSTORE SWAP5 DUP5 ADD SWAP5 PUSH1 0x1 SWAP1 SWAP2 ADD SWAP1 DUP5 ADD PUSH2 0x5E84 JUMP JUMPDEST POP DUP6 DUP3 LT ISZERO PUSH2 0x5EC1 JUMPI DUP8 DUP6 ADD MLOAD PUSH1 0x0 NOT PUSH1 0x3 DUP9 SWAP1 SHL PUSH1 0xF8 AND SHR NOT AND DUP2 SSTORE JUMPDEST POP POP POP POP POP PUSH1 0x1 SWAP1 DUP2 SHL ADD SWAP1 SSTORE POP JUMP INVALID NUMBER 0xCD PUSH23 0xB5EB40DA9EA5EB31A199F443F7CF7955EC280BC5981A2E CALLVALUE GASLIMIT 0xC7 SWAP13 SWAP1 SSTORE LOG2 PUSH5 0x6970667358 0x22 SLT KECCAK256 0xD9 0xCB 0xE9 0xCB 0xD4 CALL 0xB5 0xCB 0xA9 EQ 0xE9 0xC4 CODESIZE JUMP PUSH20 0x11093E090F548F3AB3600B4F62C3138E9564736F PUSH13 0x63430008130033000000000000 ",
  "sha1": "c0c906c645b3561b3b6899b53a5b6548e93df861",
  "source": "// SPDX-License-Identifier: GPL-3.0-or-later\n\npragma solidity ^0.8.4;\n\nimport \"./administrable.sol\";\n\n/// @title A fractional DAO-like contract whose decisions can be voted upon by its shareholders\n/// @author Frederik W. L. Christoffersen\n/// @notice This contract is used as a votable administerable business entity.\n/// @custom:beaware This is a commercial contract.\ncontract Votable is Administrable {\n\n    /// @notice Struct representing info of a Referendum.\n    /// @param issuer The issuer of the Referendum.\n    /// @param proposalFuncs Names of functions to be called during implementation.\n    /// @param proposalArgs The encoded parameters passed to the function calls as part of the implementation of the proposals.\n    struct ReferendumInfo {\n        address issuer;\n        string[] proposalFuncs;\n        bytes[] proposalArgs;\n    }\n\n    /// @notice Mapping pointing to dynamic info of a Referendum given a unique Referendum instance.\n    mapping(uint256 => ReferendumInfo) public infoByReferendum;\n\n    /// @notice Mapping pointing to amount of favor votes on given Referendum.\n    mapping(uint256 => uint256) favorAmountByReferendum;\n\n    /// @notice Mapping pointing to amount of total votes on given Referendum.\n    mapping(uint256 => uint256) totalAmountByReferendum;\n\n    /// @notice Mapping pointing to amount proposals implemented of a given Referendum.\n    mapping(uint256 => uint256) amountImplementedByReferendum;\n\n    /// @notice Mapping pointing to a boolean stating if the holder of a given Shard has voted on the given Referendum.\n    mapping(uint256 => mapping(bytes32 => bool)) hasVotedOnReferendum;\n\n    /// @notice Mapping pointing to a boolean stating if a given Referendum is pending.\n    mapping(uint256 => bool) pendingReferendums;\n\n    /// @notice Mapping pointing to a boolean stating if a given Referendum is to be implemented.\n    mapping(uint256 => bool) passedReferendums;\n\n    /// @notice Event that triggers when a Referendum is closed.\n    /// @param referendum The passed Referendum that was closed.\n    event ReferendumClosed(\n        uint256 referendum\n        );\n\n    /// @notice Event that triggers when a whole Referendum has been implemented.\n    /// @param referendum The passed Referendum that was implemented.\n    event ReferendumImplemented(\n        uint256 referendum\n        );\n\n    /// @notice Event that triggers when a vote is cast on a Referendum.\n    /// @param referendumClock The clock tied to the referendum that was voted on.\n    /// @param favor The boolean value signalling a FOR or AGAINST vote.\n    /// @param by The voter.\n    event VoteCast(\n        uint256 referendumClock,\n        bool favor,\n        address by\n        );\n\n    /// @notice Modifier that makes sure a given Referendum is pending.\n    /// @param referendum The Referendum to be checked for.\n    modifier onlyPendingReferendum(uint256 referendum) {\n        require(referendumIsPending(referendum), \"RNP\");\n        _;\n    }\n\n    constructor(uint256 amount) Administrable(amount) {\n        _setPermit(\"iR\",msg.sender,PermitState.administrator);\n        _setPermit(\"iP\",msg.sender,PermitState.administrator);\n    }\n\n    /// @notice Votes on a existing referendum, with a fraction corresponding to the shard of the holder.\n    /// @param shard The Shard to vote with.\n    /// @param referendum The referendum to be voted on.\n    /// @param favor The boolean value signalling a FOR or AGAINST vote.\n    function vote(bytes32 shard, uint256 referendum, bool favor) external onlyHolder(shard) onlyPendingReferendum(referendum) onlyIfActive {\n        require(!hasVoted(referendum, msg.sender));\n        require(shardExisted(shard,referendum), \"SNV\");\n        hasVotedOnReferendum[referendum][shard] = true;\n        if (favor) {\n            favorAmountByReferendum[referendum] += infoByShard[shard].amount;\n        }\n        totalAmountByReferendum[referendum] += infoByShard[shard].amount;\n        \n        emit VoteCast(referendum, favor, msg.sender);\n        bool passed = getReferendumResult(referendum);\n        if (passed || totalAmountByReferendum[referendum] == totalShardAmountByClock[referendum] ) {\n\n            pendingReferendums[referendum] = false;\n            if (passed) { // if it got voted through\n                passedReferendums[referendum] = true;\n            }\n            emit ReferendumClosed(referendum);\n        }\n    }\n\n    /// @notice The potential errors of the Proposals aren't checked for before implementation!!!\n    /// @param proposalFuncs The names of the functions to be called as a result of the implementation of the proposals.\n    /// @param proposalArgs The encoded parameters passed to the function calls as part of the implementation of the proposals.\n    function issueReferendum(string[] memory proposalFuncs, bytes[] memory proposalArgs) external onlyWithPermit(\"iR\") {\n        _issueReferendum(proposalFuncs,proposalArgs);\n    }\n\n    /// @notice Implements a given Proposal, within a given passed Referendum.\n    /// @param referendum The passed Referendum containing the Proposal.\n    /// @param proposalIndex The index of the proposal to be implemented.\n    function implementProposal(uint256 referendum, uint256 proposalIndex) external onlyWithPermit(\"iP\") {\n        _implementProposal(referendum,proposalIndex);\n    }\n\n    /// @notice Returns a boolean stating if a given Shard Holder has voted on a given Referendum.\n    /// @param referendum The Referendum to be checked for.\n    /// @param account The address of the potential Shard Holder voter to be checked for.\n    function hasVoted(uint256 referendum, address account) public view returns(bool) {\n        return hasVotedOnReferendum[referendum][shardByOwner[account]];\n    }\n\n    /// @notice Returns a boolean stating if a given Referendum has been voted through (>=50% FAVOR) or not.\n    /// @param referendum The Referendum to be checked for.\n    function getReferendumResult(uint256 referendum) public view returns(bool) {\n        // if forFraction is bigger than 50%, then the vote is FOR\n        if ((favorAmountByReferendum[referendum] / totalShardAmountByClock[referendum]) * 2 > 1) {\n            return true;\n        }\n        return false;\n    }\n    \n    /// @notice Returns a boolean stating if a given Referendum is pending or not.\n    /// @param referendum The Referendum to be checked for.\n    function referendumIsPending(uint256 referendum) public view returns(bool) {\n        return pendingReferendums[referendum]; \n    }\n\n    /// @notice Returns a boolean stating if a given Referendum is passed or not.\n    /// @param referendum The Referendum to be checked for.\n    function referendumIsPassed(uint256 referendum) public view returns(bool) {\n        return passedReferendums[referendum]; \n    }\n\n    /// @notice Returns a boolean stating if a given Referendum is implemented or not.\n    /// @param referendum The Referendum to be checked for.\n    function referendumIsImplemented(uint256 referendum) public view returns(bool) {\n        return amountImplementedByReferendum[referendum] == infoByReferendum[referendum].proposalFuncs.length; \n    }\n\n    /// @notice Returns a boolean stating if a given Proposal exists within a given Referendum.\n    /// @param referendum The Referendum to be checked for.\n    /// @param proposalIndex The index of the proposal to be checked for.\n    function proposalExists(uint256 referendum, uint256 proposalIndex) public view returns(bool) {\n        return infoByReferendum[referendum].proposalFuncs.length > proposalIndex;\n    }\n\n    /// @notice The potential errors of the Proposals aren't checked for before implementation!!!\n    /// @param proposalFuncs The names of the functions to be called as a result of the implementation of the proposals.\n    /// @param proposalArgs The encoded parameters passed to the function calls as part of the implementation of the proposals.\n    function _issueReferendum(string[] memory proposalFuncs, bytes[] memory proposalArgs) internal onlyIfActive incrementClock {\n        require(proposalFuncs.length == proposalArgs.length, \"PCW\");\n        pendingReferendums[clock] = true;\n        infoByReferendum[clock] = ReferendumInfo({\n            issuer: msg.sender,\n            proposalFuncs: proposalFuncs,\n            proposalArgs: proposalArgs\n            });\n        emit ActionTaken(\"iR\",abi.encode(clock),msg.sender);\n    }\n\n    /// @notice Implements a given Proposal, within a given passed Referendum.\n    /// @param referendum The passed Referendum containing the Proposal.\n    /// @param proposalIndex The index of the proposal to be implemented.\n    function _implementProposal(uint256 referendum, uint256 proposalIndex) internal onlyIfActive {\n        require(proposalExists(referendum,proposalIndex),\"PDE\");\n        require(amountImplementedByReferendum[referendum] == proposalIndex, \"WPO\");\n        amountImplementedByReferendum[referendum] += 1;\n        string memory proposalFunc = infoByReferendum[referendum].proposalFuncs[proposalIndex];\n        bytes memory proposalArgs = infoByReferendum[referendum].proposalArgs[proposalIndex];\n        bytes32 funcHash = keccak256(bytes(proposalFunc));\n                    if (funcHash == keccak256(bytes(\"iR\"))) {\n                        (string[] memory proposalFuncs, bytes[] memory _proposalArgs) = abi.decode(proposalArgs,(string[],bytes[]));\n                        _issueReferendum(proposalFuncs, _proposalArgs);\n                    }\n                    if (funcHash == keccak256(bytes(\"sP\"))) {\n                        (string memory permitName, PermitState newState, address account) = abi.decode(proposalArgs,(string,PermitState,address));\n                        _setPermit(permitName,account,newState);\n                    }\n                    if (funcHash == keccak256(bytes(\"tT\"))) {\n                        (string memory fromBankName, address tokenAddress, uint256 value, address to, string memory toBankName) = abi.decode(proposalArgs,(string,address,uint256,address,string));\n                        _transferTokenFromBank(fromBankName,tokenAddress,value,to, toBankName);\n                    }\n                    if (funcHash == keccak256(bytes(\"mT\"))) {\n                        (string memory fromBankName, string memory toBankName, address tokenAddress, uint256 value) = abi.decode(proposalArgs,(string,string,address,uint256));\n                        _moveToken(fromBankName,toBankName,tokenAddress,value);\n                    }\n                    if (funcHash == keccak256(bytes(\"iD\"))) {\n                        (string memory bankName, address tokenAddress, uint256 value) = abi.decode(proposalArgs,(string,address,uint256));\n                        _issueDividend(bankName,tokenAddress,value);\n                    }\n                    if (funcHash == keccak256(bytes(\"iS\"))) {\n                        (uint256 amount, address tokenAddress, uint256 price, address to) = abi.decode(proposalArgs,(uint256,address,uint256,address));\n                        _issueShards(amount,tokenAddress,price,to);\n                    }\n                    if (funcHash == keccak256(bytes(\"dD\"))) {\n                        (uint256 dividend) = abi.decode(proposalArgs,(uint256));\n                        _dissolveDividend(dividend);\n                    }\n                    if (funcHash == keccak256(bytes(\"cB\"))) {\n                        (string memory bankName, address bankAdmin) = abi.decode(proposalArgs, (string,address));\n                        _createBank(bankName,bankAdmin);\n                    }\n                    if (funcHash == keccak256(bytes(\"dB\"))) {\n                        (string memory bankName) = abi.decode(proposalArgs,(string));\n                        _deleteBank(bankName);\n                    }\n                    if (funcHash == keccak256(bytes(\"aBA\"))) {\n                        (string memory bankName, address bankAdmin) = abi.decode(proposalArgs,(string,address));\n                        _addBankAdmin(bankName,bankAdmin);\n                    }\n                    if (funcHash == keccak256(bytes(\"rBA\"))) {\n                        (string memory bankName, address bankAdmin) = abi.decode(proposalArgs,(string, address));\n                        _removeBankAdmin(bankName,bankAdmin);\n                    }\n                    if (funcHash == keccak256(bytes(\"rTA\"))) {\n                        (address tokenAddress) = abi.decode(proposalArgs,(address));\n                        _registerTokenAddress(tokenAddress);\n                    }\n                    if (funcHash == keccak256(bytes(\"uTA\"))) {\n                        (address tokenAddress) = abi.decode(proposalArgs,(address));\n                        _unregisterTokenAddress(tokenAddress);\n                    }\n                    if (funcHash == keccak256(bytes(\"lE\"))) {\n                        _liquidize();\n                    }\n                    else {\n                        revert(\"WF\");\n                    }\n                    emit ActionTaken(\"iP\",abi.encode(referendum,proposalIndex),msg.sender);\n\n        if (amountImplementedByReferendum[referendum] == infoByReferendum[referendum].proposalFuncs.length) {\n            emit ReferendumImplemented(referendum);\n        }\n    }\n}",
  "sourcePath": "contracts/votable.sol",
  "type": "contract"
}